{
  "_format": "hh-sol-artifact-1",
  "contractName": "ERC777",
  "sourceName": "@openzeppelin/contracts/token/ERC777/ERC777.sol",
  "abi": [
    {
      "inputs": [
        {
          "internalType": "string",
          "name": "name_",
          "type": "string"
        },
        {
          "internalType": "string",
          "name": "symbol_",
          "type": "string"
        },
        {
          "internalType": "address[]",
          "name": "defaultOperators_",
          "type": "address[]"
        }
      ],
      "stateMutability": "nonpayable",
      "type": "constructor"
    },
    {
      "anonymous": false,
      "inputs": [
        {
          "indexed": true,
          "internalType": "address",
          "name": "owner",
          "type": "address"
        },
        {
          "indexed": true,
          "internalType": "address",
          "name": "spender",
          "type": "address"
        },
        {
          "indexed": false,
          "internalType": "uint256",
          "name": "value",
          "type": "uint256"
        }
      ],
      "name": "Approval",
      "type": "event"
    },
    {
      "anonymous": false,
      "inputs": [
        {
          "indexed": true,
          "internalType": "address",
          "name": "operator",
          "type": "address"
        },
        {
          "indexed": true,
          "internalType": "address",
          "name": "tokenHolder",
          "type": "address"
        }
      ],
      "name": "AuthorizedOperator",
      "type": "event"
    },
    {
      "anonymous": false,
      "inputs": [
        {
          "indexed": true,
          "internalType": "address",
          "name": "operator",
          "type": "address"
        },
        {
          "indexed": true,
          "internalType": "address",
          "name": "from",
          "type": "address"
        },
        {
          "indexed": false,
          "internalType": "uint256",
          "name": "amount",
          "type": "uint256"
        },
        {
          "indexed": false,
          "internalType": "bytes",
          "name": "data",
          "type": "bytes"
        },
        {
          "indexed": false,
          "internalType": "bytes",
          "name": "operatorData",
          "type": "bytes"
        }
      ],
      "name": "Burned",
      "type": "event"
    },
    {
      "anonymous": false,
      "inputs": [
        {
          "indexed": true,
          "internalType": "address",
          "name": "operator",
          "type": "address"
        },
        {
          "indexed": true,
          "internalType": "address",
          "name": "to",
          "type": "address"
        },
        {
          "indexed": false,
          "internalType": "uint256",
          "name": "amount",
          "type": "uint256"
        },
        {
          "indexed": false,
          "internalType": "bytes",
          "name": "data",
          "type": "bytes"
        },
        {
          "indexed": false,
          "internalType": "bytes",
          "name": "operatorData",
          "type": "bytes"
        }
      ],
      "name": "Minted",
      "type": "event"
    },
    {
      "anonymous": false,
      "inputs": [
        {
          "indexed": true,
          "internalType": "address",
          "name": "operator",
          "type": "address"
        },
        {
          "indexed": true,
          "internalType": "address",
          "name": "tokenHolder",
          "type": "address"
        }
      ],
      "name": "RevokedOperator",
      "type": "event"
    },
    {
      "anonymous": false,
      "inputs": [
        {
          "indexed": true,
          "internalType": "address",
          "name": "operator",
          "type": "address"
        },
        {
          "indexed": true,
          "internalType": "address",
          "name": "from",
          "type": "address"
        },
        {
          "indexed": true,
          "internalType": "address",
          "name": "to",
          "type": "address"
        },
        {
          "indexed": false,
          "internalType": "uint256",
          "name": "amount",
          "type": "uint256"
        },
        {
          "indexed": false,
          "internalType": "bytes",
          "name": "data",
          "type": "bytes"
        },
        {
          "indexed": false,
          "internalType": "bytes",
          "name": "operatorData",
          "type": "bytes"
        }
      ],
      "name": "Sent",
      "type": "event"
    },
    {
      "anonymous": false,
      "inputs": [
        {
          "indexed": true,
          "internalType": "address",
          "name": "from",
          "type": "address"
        },
        {
          "indexed": true,
          "internalType": "address",
          "name": "to",
          "type": "address"
        },
        {
          "indexed": false,
          "internalType": "uint256",
          "name": "value",
          "type": "uint256"
        }
      ],
      "name": "Transfer",
      "type": "event"
    },
    {
      "inputs": [
        {
          "internalType": "address",
          "name": "holder",
          "type": "address"
        },
        {
          "internalType": "address",
          "name": "spender",
          "type": "address"
        }
      ],
      "name": "allowance",
      "outputs": [
        {
          "internalType": "uint256",
          "name": "",
          "type": "uint256"
        }
      ],
      "stateMutability": "view",
      "type": "function"
    },
    {
      "inputs": [
        {
          "internalType": "address",
          "name": "spender",
          "type": "address"
        },
        {
          "internalType": "uint256",
          "name": "value",
          "type": "uint256"
        }
      ],
      "name": "approve",
      "outputs": [
        {
          "internalType": "bool",
          "name": "",
          "type": "bool"
        }
      ],
      "stateMutability": "nonpayable",
      "type": "function"
    },
    {
      "inputs": [
        {
          "internalType": "address",
          "name": "operator",
          "type": "address"
        }
      ],
      "name": "authorizeOperator",
      "outputs": [],
      "stateMutability": "nonpayable",
      "type": "function"
    },
    {
      "inputs": [
        {
          "internalType": "address",
          "name": "tokenHolder",
          "type": "address"
        }
      ],
      "name": "balanceOf",
      "outputs": [
        {
          "internalType": "uint256",
          "name": "",
          "type": "uint256"
        }
      ],
      "stateMutability": "view",
      "type": "function"
    },
    {
      "inputs": [
        {
          "internalType": "uint256",
          "name": "amount",
          "type": "uint256"
        },
        {
          "internalType": "bytes",
          "name": "data",
          "type": "bytes"
        }
      ],
      "name": "burn",
      "outputs": [],
      "stateMutability": "nonpayable",
      "type": "function"
    },
    {
      "inputs": [],
      "name": "decimals",
      "outputs": [
        {
          "internalType": "uint8",
          "name": "",
          "type": "uint8"
        }
      ],
      "stateMutability": "pure",
      "type": "function"
    },
    {
      "inputs": [],
      "name": "defaultOperators",
      "outputs": [
        {
          "internalType": "address[]",
          "name": "",
          "type": "address[]"
        }
      ],
      "stateMutability": "view",
      "type": "function"
    },
    {
      "inputs": [],
      "name": "granularity",
      "outputs": [
        {
          "internalType": "uint256",
          "name": "",
          "type": "uint256"
        }
      ],
      "stateMutability": "view",
      "type": "function"
    },
    {
      "inputs": [
        {
          "internalType": "address",
          "name": "operator",
          "type": "address"
        },
        {
          "internalType": "address",
          "name": "tokenHolder",
          "type": "address"
        }
      ],
      "name": "isOperatorFor",
      "outputs": [
        {
          "internalType": "bool",
          "name": "",
          "type": "bool"
        }
      ],
      "stateMutability": "view",
      "type": "function"
    },
    {
      "inputs": [],
      "name": "name",
      "outputs": [
        {
          "internalType": "string",
          "name": "",
          "type": "string"
        }
      ],
      "stateMutability": "view",
      "type": "function"
    },
    {
      "inputs": [
        {
          "internalType": "address",
          "name": "account",
          "type": "address"
        },
        {
          "internalType": "uint256",
          "name": "amount",
          "type": "uint256"
        },
        {
          "internalType": "bytes",
          "name": "data",
          "type": "bytes"
        },
        {
          "internalType": "bytes",
          "name": "operatorData",
          "type": "bytes"
        }
      ],
      "name": "operatorBurn",
      "outputs": [],
      "stateMutability": "nonpayable",
      "type": "function"
    },
    {
      "inputs": [
        {
          "internalType": "address",
          "name": "sender",
          "type": "address"
        },
        {
          "internalType": "address",
          "name": "recipient",
          "type": "address"
        },
        {
          "internalType": "uint256",
          "name": "amount",
          "type": "uint256"
        },
        {
          "internalType": "bytes",
          "name": "data",
          "type": "bytes"
        },
        {
          "internalType": "bytes",
          "name": "operatorData",
          "type": "bytes"
        }
      ],
      "name": "operatorSend",
      "outputs": [],
      "stateMutability": "nonpayable",
      "type": "function"
    },
    {
      "inputs": [
        {
          "internalType": "address",
          "name": "operator",
          "type": "address"
        }
      ],
      "name": "revokeOperator",
      "outputs": [],
      "stateMutability": "nonpayable",
      "type": "function"
    },
    {
      "inputs": [
        {
          "internalType": "address",
          "name": "recipient",
          "type": "address"
        },
        {
          "internalType": "uint256",
          "name": "amount",
          "type": "uint256"
        },
        {
          "internalType": "bytes",
          "name": "data",
          "type": "bytes"
        }
      ],
      "name": "send",
      "outputs": [],
      "stateMutability": "nonpayable",
      "type": "function"
    },
    {
      "inputs": [],
      "name": "symbol",
      "outputs": [
        {
          "internalType": "string",
          "name": "",
          "type": "string"
        }
      ],
      "stateMutability": "view",
      "type": "function"
    },
    {
      "inputs": [],
      "name": "totalSupply",
      "outputs": [
        {
          "internalType": "uint256",
          "name": "",
          "type": "uint256"
        }
      ],
      "stateMutability": "view",
      "type": "function"
    },
    {
      "inputs": [
        {
          "internalType": "address",
          "name": "recipient",
          "type": "address"
        },
        {
          "internalType": "uint256",
          "name": "amount",
          "type": "uint256"
        }
      ],
      "name": "transfer",
      "outputs": [
        {
          "internalType": "bool",
          "name": "",
          "type": "bool"
        }
      ],
      "stateMutability": "nonpayable",
      "type": "function"
    },
    {
      "inputs": [
        {
          "internalType": "address",
          "name": "holder",
          "type": "address"
        },
        {
          "internalType": "address",
          "name": "recipient",
          "type": "address"
        },
        {
          "internalType": "uint256",
          "name": "amount",
          "type": "uint256"
        }
      ],
      "name": "transferFrom",
      "outputs": [
        {
          "internalType": "bool",
          "name": "",
          "type": "bool"
        }
      ],
      "stateMutability": "nonpayable",
      "type": "function"
    }
  ],
  "bytecode": "0x60806040523480156200001157600080fd5b5060405162001be638038062001be683398101604081905262000034916200035e565b600262000042848262000504565b50600362000051838262000504565b5080516200006790600490602084019062000207565b5060005b8151811015620000d757600160056000848481518110620000905762000090620005d0565b6020908102919091018101516001600160a01b03168252810191909152604001600020805460ff191691151591909117905580620000ce81620005e6565b9150506200006b565b506040516329965a1d60e01b815230600482018190527fac7fbab5f54a3ca8194167523c6753bfeb96a445279294b6125b68cce217705460248301526044820152731820a4b7618bde71dce8cdc73aab6c95905fad24906329965a1d90606401600060405180830381600087803b1580156200015257600080fd5b505af115801562000167573d6000803e3d6000fd5b50506040516329965a1d60e01b815230600482018190527faea199e31a596269b42cdafd93407f14436db6e4cad65417994c2eb37381e05a60248301526044820152731820a4b7618bde71dce8cdc73aab6c95905fad2492506329965a1d9150606401600060405180830381600087803b158015620001e557600080fd5b505af1158015620001fa573d6000803e3d6000fd5b505050505050506200060e565b8280548282559060005260206000209081019282156200025f579160200282015b828111156200025f57825182546001600160a01b0319166001600160a01b0390911617825560209092019160019091019062000228565b506200026d92915062000271565b5090565b5b808211156200026d576000815560010162000272565b634e487b7160e01b600052604160045260246000fd5b604051601f8201601f191681016001600160401b0381118282101715620002c957620002c962000288565b604052919050565b600082601f830112620002e357600080fd5b81516001600160401b03811115620002ff57620002ff62000288565b602062000315601f8301601f191682016200029e565b82815285828487010111156200032a57600080fd5b60005b838110156200034a5785810183015182820184015282016200032d565b506000928101909101919091529392505050565b6000806000606084860312156200037457600080fd5b83516001600160401b03808211156200038c57600080fd5b6200039a87838801620002d1565b9450602091508186015181811115620003b257600080fd5b620003c088828901620002d1565b945050604086015181811115620003d657600080fd5b8601601f81018813620003e857600080fd5b805182811115620003fd57620003fd62000288565b8060051b9250620004108484016200029e565b818152928201840192848101908a8511156200042b57600080fd5b928501925b848410156200046557835192506001600160a01b0383168314620004545760008081fd5b828252928501929085019062000430565b8096505050505050509250925092565b600181811c908216806200048a57607f821691505b602082108103620004ab57634e487b7160e01b600052602260045260246000fd5b50919050565b601f821115620004ff57600081815260208120601f850160051c81016020861015620004da5750805b601f850160051c820191505b81811015620004fb57828155600101620004e6565b5050505b505050565b81516001600160401b0381111562000520576200052062000288565b620005388162000531845462000475565b84620004b1565b602080601f831160018114620005705760008415620005575750858301515b600019600386901b1c1916600185901b178555620004fb565b600085815260208120601f198616915b82811015620005a15788860151825594840194600190910190840162000580565b5085821015620005c05787850151600019600388901b60f8161c191681555b5050505050600190811b01905550565b634e487b7160e01b600052603260045260246000fd5b6000600182016200060757634e487b7160e01b600052601160045260246000fd5b5060010190565b6115c8806200061e6000396000f3fe608060405234801561001057600080fd5b50600436106100e65760003560e01c806306e48538146100eb57806306fdde0314610109578063095ea7b31461011e57806318160ddd1461014157806323b872dd14610153578063313ce56714610166578063556f0dc71461017557806362ad1b831461017c57806370a0823114610191578063959b8c3f146101ba57806395d89b41146101cd5780639bd9bbc6146101d5578063a9059cbb146101e8578063d95b6371146101fb578063dd62ed3e1461020e578063fad8b32a14610221578063fc673c4f14610234578063fe9d930314610247575b600080fd5b6100f361025a565b6040516101009190611019565b60405180910390f35b6101116102bc565b60405161010091906110ac565b61013161012c3660046110d7565b610345565b6040519015158152602001610100565b6001545b604051908152602001610100565b610131610161366004611103565b61035f565b60405160128152602001610100565b6001610145565b61018f61018a3660046111e6565b6103a5565b005b61014561019f366004611278565b6001600160a01b031660009081526020819052604090205490565b61018f6101c8366004611278565b6103ea565b610111610507565b61018f6101e3366004611295565b610516565b6101316101f63660046110d7565b610539565b6101316102093660046112ed565b610571565b61014561021c3660046112ed565b610613565b61018f61022f366004611278565b61063e565b61018f610242366004611326565b610759565b61018f6102553660046113a5565b610791565b606060048054806020026020016040519081016040528092919081815260200182805480156102b257602002820191906000526020600020905b81546001600160a01b03168152600190910190602001808311610294575b5050505050905090565b6060600280546102cb906113eb565b80601f01602080910402602001604051908101604052809291908181526020018280546102f7906113eb565b80156102b25780601f10610319576101008083540402835291602001916102b2565b820191906000526020600020905b81548152906001019060200180831161032757509395945050505050565b6000336103538185856107b0565b60019150505b92915050565b60003361036d8582856108d7565b61039a8585856040518060200160405280600081525060405180602001604052806000815250600061094b565b506001949350505050565b6103af3386610571565b6103d45760405162461bcd60e51b81526004016103cb90611425565b60405180910390fd5b6103e38585858585600161094b565b5050505050565b6001600160a01b038116330361044e5760405162461bcd60e51b8152602060048201526024808201527f4552433737373a20617574686f72697a696e672073656c66206173206f70657260448201526330ba37b960e11b60648201526084016103cb565b6001600160a01b03811660009081526005602052604090205460ff161561049f573360009081526007602090815260408083206001600160a01b03851684529091529020805460ff191690556104ce565b3360009081526006602090815260408083206001600160a01b03851684529091529020805460ff191660011790555b60405133906001600160a01b038316907ff4caeb2d6ca8932a215a353d0703c326ec2d81fc68170f320eb2ab49e9df61f990600090a350565b6060600380546102cb906113eb565b6105343384848460405180602001604052806000815250600161094b565b505050565b60006105683384846040518060200160405280600081525060405180602001604052806000815250600061094b565b50600192915050565b6000816001600160a01b0316836001600160a01b031614806105dc57506001600160a01b03831660009081526005602052604090205460ff1680156105dc57506001600160a01b0380831660009081526007602090815260408083209387168352929052205460ff16155b8061060c57506001600160a01b0380831660009081526006602090815260408083209387168352929052205460ff165b9392505050565b6001600160a01b03918216600090815260086020908152604080832093909416825291909152205490565b336001600160a01b038216036106a05760405162461bcd60e51b815260206004820152602160248201527f4552433737373a207265766f6b696e672073656c66206173206f70657261746f6044820152603960f91b60648201526084016103cb565b6001600160a01b03811660009081526005602052604090205460ff16156106f4573360009081526007602090815260408083206001600160a01b03851684529091529020805460ff19166001179055610720565b3360009081526006602090815260408083206001600160a01b03851684529091529020805460ff191690555b60405133906001600160a01b038316907f50546e66e5f44d728365dc3908c63bc5cfeeab470722c1677e3073a6ac294aa190600090a350565b6107633385610571565b61077f5760405162461bcd60e51b81526004016103cb90611425565b61078b84848484610a47565b50505050565b6107ac33838360405180602001604052806000815250610a47565b5050565b6001600160a01b0383166108145760405162461bcd60e51b815260206004820152602560248201527f4552433737373a20617070726f76652066726f6d20746865207a65726f206164604482015264647265737360d81b60648201526084016103cb565b6001600160a01b0382166108765760405162461bcd60e51b815260206004820152602360248201527f4552433737373a20617070726f766520746f20746865207a65726f206164647260448201526265737360e81b60648201526084016103cb565b6001600160a01b0383811660008181526008602090815260408083209487168084529482529182902085905590518481527f8c5be1e5ebec7d5bd14f71427d1e84f3dd0314c0f7b2291e5b200ac8c7c3b925910160405180910390a3505050565b60006108e38484610613565b9050600019811461078b578181101561093e5760405162461bcd60e51b815260206004820152601e60248201527f4552433737373a20696e73756666696369656e7420616c6c6f77616e6365000060448201526064016103cb565b61078b84848484036107b0565b6001600160a01b0386166109b05760405162461bcd60e51b815260206004820152602660248201527f4552433737373a207472616e736665722066726f6d20746865207a65726f206160448201526564647265737360d01b60648201526084016103cb565b6001600160a01b038516610a125760405162461bcd60e51b8152602060048201526024808201527f4552433737373a207472616e7366657220746f20746865207a65726f206164646044820152637265737360e01b60648201526084016103cb565b33610a21818888888888610be9565b610a2f818888888888610d08565b610a3e81888888888888610e5c565b50505050505050565b6001600160a01b038416610aa85760405162461bcd60e51b815260206004820152602260248201527f4552433737373a206275726e2066726f6d20746865207a65726f206164647265604482015261737360f01b60648201526084016103cb565b33610ab881866000878787610be9565b6001600160a01b03851660009081526020819052604090205484811015610b2d5760405162461bcd60e51b815260206004820152602360248201527f4552433737373a206275726e20616d6f756e7420657863656564732062616c616044820152626e636560e81b60648201526084016103cb565b6001600160a01b0386166000908152602081905260408120868303905560018054879290610b5c908490611487565b92505081905550856001600160a01b0316826001600160a01b03167fa78a9be3a7b862d26933ad85fb11d80ef66b8f972d7cbba06621d583943a4098878787604051610baa9392919061149a565b60405180910390a36040518581526000906001600160a01b038816906000805160206115738339815191529060200160405180910390a3505050505050565b60405163555ddc6560e11b8152600090731820a4b7618bde71dce8cdc73aab6c95905fad249063aabbb8ca90610c459089907f29ddb589b1fb5fc7cf394961c1adf5f8c6454761adf795e67fe149f658abe895906004016114cf565b602060405180830381865afa158015610c62573d6000803e3d6000fd5b505050506040513d601f19601f82011682018060405250810190610c8691906114e8565b90506001600160a01b03811615610a3e57604051633ad5cbc160e11b81526001600160a01b038216906375ab978290610ccd908a908a908a908a908a908a90600401611505565b600060405180830381600087803b158015610ce757600080fd5b505af1158015610cfb573d6000803e3d6000fd5b5050505050505050505050565b6001600160a01b03851660009081526020819052604090205483811015610d815760405162461bcd60e51b815260206004820152602760248201527f4552433737373a207472616e7366657220616d6f756e7420657863656564732060448201526662616c616e636560c81b60648201526084016103cb565b6001600160a01b03808716600090815260208190526040808220878503905591871681529081208054869290610db890849061155f565b92505081905550846001600160a01b0316866001600160a01b0316886001600160a01b03167f06b541ddaa720db2b10a4d0cdac39b8d360425fc073085fac19bc82614677987878787604051610e109392919061149a565b60405180910390a4846001600160a01b0316866001600160a01b031660008051602061157383398151915286604051610e4b91815260200190565b60405180910390a350505050505050565b60405163555ddc6560e11b8152600090731820a4b7618bde71dce8cdc73aab6c95905fad249063aabbb8ca90610eb89089907fb281fc8c12954d22544db45de3159a39272895b169a852b314f9cc762e44c53b906004016114cf565b602060405180830381865afa158015610ed5573d6000803e3d6000fd5b505050506040513d601f19601f82011682018060405250810190610ef991906114e8565b90506001600160a01b03811615610f75576040516223de2960e01b81526001600160a01b038216906223de2990610f3e908b908b908b908b908b908b90600401611505565b600060405180830381600087803b158015610f5857600080fd5b505af1158015610f6c573d6000803e3d6000fd5b5050505061100f565b811561100f576001600160a01b0386163b1561100f5760405162461bcd60e51b815260206004820152604d60248201527f4552433737373a20746f6b656e20726563697069656e7420636f6e747261637460448201527f20686173206e6f20696d706c656d656e74657220666f7220455243373737546f60648201526c1ad95b9cd49958da5c1a595b9d609a1b608482015260a4016103cb565b5050505050505050565b6020808252825182820181905260009190848201906040850190845b8181101561105a5783516001600160a01b031683529284019291840191600101611035565b50909695505050505050565b6000815180845260005b8181101561108c57602081850181015186830182015201611070565b506000602082860101526020601f19601f83011685010191505092915050565b60208152600061060c6020830184611066565b6001600160a01b03811681146110d457600080fd5b50565b600080604083850312156110ea57600080fd5b82356110f5816110bf565b946020939093013593505050565b60008060006060848603121561111857600080fd5b8335611123816110bf565b92506020840135611133816110bf565b929592945050506040919091013590565b634e487b7160e01b600052604160045260246000fd5b600082601f83011261116b57600080fd5b81356001600160401b038082111561118557611185611144565b604051601f8301601f19908116603f011681019082821181831017156111ad576111ad611144565b816040528381528660208588010111156111c657600080fd5b836020870160208301376000602085830101528094505050505092915050565b600080600080600060a086880312156111fe57600080fd5b8535611209816110bf565b94506020860135611219816110bf565b93506040860135925060608601356001600160401b038082111561123c57600080fd5b61124889838a0161115a565b9350608088013591508082111561125e57600080fd5b5061126b8882890161115a565b9150509295509295909350565b60006020828403121561128a57600080fd5b813561060c816110bf565b6000806000606084860312156112aa57600080fd5b83356112b5816110bf565b92506020840135915060408401356001600160401b038111156112d757600080fd5b6112e38682870161115a565b9150509250925092565b6000806040838503121561130057600080fd5b823561130b816110bf565b9150602083013561131b816110bf565b809150509250929050565b6000806000806080858703121561133c57600080fd5b8435611347816110bf565b93506020850135925060408501356001600160401b038082111561136a57600080fd5b6113768883890161115a565b9350606087013591508082111561138c57600080fd5b506113998782880161115a565b91505092959194509250565b600080604083850312156113b857600080fd5b8235915060208301356001600160401b038111156113d557600080fd5b6113e18582860161115a565b9150509250929050565b600181811c908216806113ff57607f821691505b60208210810361141f57634e487b7160e01b600052602260045260246000fd5b50919050565b6020808252602c908201527f4552433737373a2063616c6c6572206973206e6f7420616e206f70657261746f60408201526b39103337b9103437b63232b960a11b606082015260800190565b634e487b7160e01b600052601160045260246000fd5b8181038181111561035957610359611471565b8381526060602082015260006114b36060830185611066565b82810360408401526114c58185611066565b9695505050505050565b6001600160a01b03929092168252602082015260400190565b6000602082840312156114fa57600080fd5b815161060c816110bf565b6001600160a01b0387811682528681166020830152851660408201526060810184905260c06080820181905260009061154090830185611066565b82810360a08401526115528185611066565b9998505050505050505050565b808201808211156103595761035961147156feddf252ad1be2c89b69c2b068fc378daa952ba7f163c4a11628f55a4df523b3efa26469706673582212202a86db0c398957155bfc4b134fafd80b8c75fb57fc74b8248183fd48dba3b16c64736f6c63430008130033",
  "linkReferences": {},
  "deployedLinkReferences": {}
}