{
  "_format": "hh-sol-artifact-1",
  "contractName": "Asset",
  "sourceName": "contracts/Asset.sol",
  "abi": [
    {
      "inputs": [],
      "stateMutability": "nonpayable",
      "type": "constructor"
    },
    {
      "inputs": [
        {
          "internalType": "address",
          "name": "spender",
          "type": "address"
        },
        {
          "internalType": "uint256",
          "name": "allowance",
          "type": "uint256"
        },
        {
          "internalType": "uint256",
          "name": "needed",
          "type": "uint256"
        }
      ],
      "name": "ERC20InsufficientAllowance",
      "type": "error"
    },
    {
      "inputs": [
        {
          "internalType": "address",
          "name": "sender",
          "type": "address"
        },
        {
          "internalType": "uint256",
          "name": "balance",
          "type": "uint256"
        },
        {
          "internalType": "uint256",
          "name": "needed",
          "type": "uint256"
        }
      ],
      "name": "ERC20InsufficientBalance",
      "type": "error"
    },
    {
      "inputs": [
        {
          "internalType": "address",
          "name": "approver",
          "type": "address"
        }
      ],
      "name": "ERC20InvalidApprover",
      "type": "error"
    },
    {
      "inputs": [
        {
          "internalType": "address",
          "name": "receiver",
          "type": "address"
        }
      ],
      "name": "ERC20InvalidReceiver",
      "type": "error"
    },
    {
      "inputs": [
        {
          "internalType": "address",
          "name": "sender",
          "type": "address"
        }
      ],
      "name": "ERC20InvalidSender",
      "type": "error"
    },
    {
      "inputs": [
        {
          "internalType": "address",
          "name": "spender",
          "type": "address"
        }
      ],
      "name": "ERC20InvalidSpender",
      "type": "error"
    },
    {
      "inputs": [],
      "name": "InvalidInitialization",
      "type": "error"
    },
    {
      "inputs": [],
      "name": "NotInitializing",
      "type": "error"
    },
    {
      "anonymous": false,
      "inputs": [
        {
          "indexed": true,
          "internalType": "address",
          "name": "owner",
          "type": "address"
        },
        {
          "indexed": true,
          "internalType": "address",
          "name": "spender",
          "type": "address"
        },
        {
          "indexed": false,
          "internalType": "uint256",
          "name": "value",
          "type": "uint256"
        }
      ],
      "name": "Approval",
      "type": "event"
    },
    {
      "anonymous": false,
      "inputs": [
        {
          "indexed": false,
          "internalType": "uint64",
          "name": "version",
          "type": "uint64"
        }
      ],
      "name": "Initialized",
      "type": "event"
    },
    {
      "anonymous": false,
      "inputs": [
        {
          "indexed": true,
          "internalType": "address",
          "name": "from",
          "type": "address"
        },
        {
          "indexed": true,
          "internalType": "address",
          "name": "to",
          "type": "address"
        },
        {
          "indexed": false,
          "internalType": "uint256",
          "name": "value",
          "type": "uint256"
        }
      ],
      "name": "Transfer",
      "type": "event"
    },
    {
      "inputs": [
        {
          "internalType": "address",
          "name": "owner",
          "type": "address"
        },
        {
          "internalType": "address",
          "name": "spender",
          "type": "address"
        }
      ],
      "name": "allowance",
      "outputs": [
        {
          "internalType": "uint256",
          "name": "",
          "type": "uint256"
        }
      ],
      "stateMutability": "view",
      "type": "function"
    },
    {
      "inputs": [
        {
          "internalType": "address",
          "name": "spender",
          "type": "address"
        },
        {
          "internalType": "uint256",
          "name": "value",
          "type": "uint256"
        }
      ],
      "name": "approve",
      "outputs": [
        {
          "internalType": "bool",
          "name": "",
          "type": "bool"
        }
      ],
      "stateMutability": "nonpayable",
      "type": "function"
    },
    {
      "inputs": [
        {
          "internalType": "address",
          "name": "account",
          "type": "address"
        }
      ],
      "name": "balanceOf",
      "outputs": [
        {
          "internalType": "uint256",
          "name": "",
          "type": "uint256"
        }
      ],
      "stateMutability": "view",
      "type": "function"
    },
    {
      "inputs": [],
      "name": "decimals",
      "outputs": [
        {
          "internalType": "uint8",
          "name": "",
          "type": "uint8"
        }
      ],
      "stateMutability": "view",
      "type": "function"
    },
    {
      "inputs": [
        {
          "internalType": "string",
          "name": "name_",
          "type": "string"
        },
        {
          "internalType": "string",
          "name": "symbol_",
          "type": "string"
        },
        {
          "internalType": "address",
          "name": "initialReceiver_",
          "type": "address"
        },
        {
          "internalType": "uint256",
          "name": "initialSupply_",
          "type": "uint256"
        }
      ],
      "name": "initialize",
      "outputs": [],
      "stateMutability": "nonpayable",
      "type": "function"
    },
    {
      "inputs": [],
      "name": "name",
      "outputs": [
        {
          "internalType": "string",
          "name": "",
          "type": "string"
        }
      ],
      "stateMutability": "view",
      "type": "function"
    },
    {
      "inputs": [],
      "name": "symbol",
      "outputs": [
        {
          "internalType": "string",
          "name": "",
          "type": "string"
        }
      ],
      "stateMutability": "view",
      "type": "function"
    },
    {
      "inputs": [],
      "name": "totalSupply",
      "outputs": [
        {
          "internalType": "uint256",
          "name": "",
          "type": "uint256"
        }
      ],
      "stateMutability": "view",
      "type": "function"
    },
    {
      "inputs": [
        {
          "internalType": "address",
          "name": "to",
          "type": "address"
        },
        {
          "internalType": "uint256",
          "name": "value",
          "type": "uint256"
        }
      ],
      "name": "transfer",
      "outputs": [
        {
          "internalType": "bool",
          "name": "",
          "type": "bool"
        }
      ],
      "stateMutability": "nonpayable",
      "type": "function"
    },
    {
      "inputs": [
        {
          "internalType": "address",
          "name": "from",
          "type": "address"
        },
        {
          "internalType": "address",
          "name": "to",
          "type": "address"
        },
        {
          "internalType": "uint256",
          "name": "value",
          "type": "uint256"
        }
      ],
      "name": "transferFrom",
      "outputs": [
        {
          "internalType": "bool",
          "name": "",
          "type": "bool"
        }
      ],
      "stateMutability": "nonpayable",
      "type": "function"
    }
  ],
  "bytecode": "0x608060405234801561001057600080fd5b5061001961001e565b6100d0565b7ff0c57e16840df040f15088dc2f81fe391c3923bec73e23a9662efc9c229c6a00805468010000000000000000900460ff161561006e5760405163f92ee8a960e01b815260040160405180910390fd5b80546001600160401b03908116146100cd5780546001600160401b0319166001600160401b0390811782556040519081527fc7f505b2f371ae2175ee4913f4499e1f2633a7b5936321eed1cdaeb6115181d29060200160405180910390a15b50565b610bea806100df6000396000f3fe608060405234801561001057600080fd5b506004361061008e5760003560e01c806306fdde0314610093578063095ea7b3146100b157806318160ddd146100d457806323b872dd146100ea578063313ce567146100fd57806370a082311461010c57806395d89b411461011f578063a9059cbb14610127578063dd62ed3e1461013a578063f542033f1461014d575b600080fd5b61009b610162565b6040516100a891906107d5565b60405180910390f35b6100c46100bf36600461083f565b610203565b60405190151581526020016100a8565b6100dc61021d565b6040519081526020016100a8565b6100c46100f8366004610869565b610232565b604051601281526020016100a8565b6100dc61011a3660046108a5565b610256565b61009b610281565b6100c461013536600461083f565b61029e565b6100dc6101483660046108c7565b6102ac565b61016061015b36600461099c565b6102e8565b005b6060600061016e6103ef565b905080600301805461017f90610a17565b80601f01602080910402602001604051908101604052809291908181526020018280546101ab90610a17565b80156101f85780601f106101cd576101008083540402835291602001916101f8565b820191906000526020600020905b8154815290600101906020018083116101db57829003601f168201915b505050505091505090565b600033610211818585610413565b60019150505b92915050565b6000806102286103ef565b6002015492915050565b600033610240858285610425565b61024b858585610482565b506001949350505050565b6000806102616103ef565b6001600160a01b0390931660009081526020939093525050604090205490565b6060600061028d6103ef565b905080600401805461017f90610a17565b600033610211818585610482565b6000806102b76103ef565b6001600160a01b03948516600090815260019190910160209081526040808320959096168252939093525050205490565b60006102f26104e1565b805490915060ff600160401b82041615906001600160401b03166000811580156103195750825b90506000826001600160401b031660011480156103355750303b155b905081158015610343575080155b156103615760405163f92ee8a960e01b815260040160405180910390fd5b84546001600160401b0319166001178555831561038a57845460ff60401b1916600160401b1785555b610394898961050a565b61039e8787610520565b83156103e457845460ff60401b19168555604051600181527fc7f505b2f371ae2175ee4913f4499e1f2633a7b5936321eed1cdaeb6115181d29060200160405180910390a15b505050505050505050565b7f52c63247e1f47db19d5ce0460030c497f067ca4cebf71ba98eeadabe20bace0090565b6104208383836001610556565b505050565b600061043184846102ac565b905060001981101561047c578181101561046d57828183604051637dc7a0d960e11b815260040161046493929190610a51565b60405180910390fd5b61047c84848484036000610556565b50505050565b6001600160a01b0383166104ac576000604051634b637e8f60e11b81526004016104649190610a72565b6001600160a01b0382166104d657600060405163ec442f0560e01b81526004016104649190610a72565b61042083838361063b565b6000807ff0c57e16840df040f15088dc2f81fe391c3923bec73e23a9662efc9c229c6a00610217565b610512610763565b61051c828261078a565b5050565b6001600160a01b03821661054a57600060405163ec442f0560e01b81526004016104649190610a72565b61051c6000838361063b565b60006105606103ef565b90506001600160a01b03851661058c57600060405163e602df0560e01b81526004016104649190610a72565b6001600160a01b0384166105b6576000604051634a1406b160e11b81526004016104649190610a72565b6001600160a01b0380861660009081526001830160209081526040808320938816835292905220839055811561063457836001600160a01b0316856001600160a01b03167f8c5be1e5ebec7d5bd14f71427d1e84f3dd0314c0f7b2291e5b200ac8c7c3b9258560405161062b91815260200190565b60405180910390a35b5050505050565b60006106456103ef565b90506001600160a01b03841661067457818160020160008282546106699190610a86565b909155506106d39050565b6001600160a01b038416600090815260208290526040902054828110156106b45784818460405163391434e360e21b815260040161046493929190610a51565b6001600160a01b03851660009081526020839052604090209083900390555b6001600160a01b0383166106f1576002810180548390039055610710565b6001600160a01b03831660009081526020829052604090208054830190555b826001600160a01b0316846001600160a01b03167fddf252ad1be2c89b69c2b068fc378daa952ba7f163c4a11628f55a4df523b3ef8460405161075591815260200190565b60405180910390a350505050565b61076b6107bb565b61078857604051631afcd79f60e31b815260040160405180910390fd5b565b610792610763565b600061079c6103ef565b9050600381016107ac8482610af5565b506004810161047c8382610af5565b60006107c56104e1565b54600160401b900460ff16919050565b600060208083528351808285015260005b81811015610802578581018301518582016040015282016107e6565b506000604082860101526040601f19601f8301168501019250505092915050565b80356001600160a01b038116811461083a57600080fd5b919050565b6000806040838503121561085257600080fd5b61085b83610823565b946020939093013593505050565b60008060006060848603121561087e57600080fd5b61088784610823565b925061089560208501610823565b9150604084013590509250925092565b6000602082840312156108b757600080fd5b6108c082610823565b9392505050565b600080604083850312156108da57600080fd5b6108e383610823565b91506108f160208401610823565b90509250929050565b634e487b7160e01b600052604160045260246000fd5b600082601f83011261092157600080fd5b81356001600160401b038082111561093b5761093b6108fa565b604051601f8301601f19908116603f01168101908282118183101715610963576109636108fa565b8160405283815286602085880101111561097c57600080fd5b836020870160208301376000602085830101528094505050505092915050565b600080600080608085870312156109b257600080fd5b84356001600160401b03808211156109c957600080fd5b6109d588838901610910565b955060208701359150808211156109eb57600080fd5b506109f887828801610910565b935050610a0760408601610823565b9396929550929360600135925050565b600181811c90821680610a2b57607f821691505b602082108103610a4b57634e487b7160e01b600052602260045260246000fd5b50919050565b6001600160a01b039390931683526020830191909152604082015260600190565b6001600160a01b0391909116815260200190565b8082018082111561021757634e487b7160e01b600052601160045260246000fd5b601f82111561042057600081815260208120601f850160051c81016020861015610ace5750805b601f850160051c820191505b81811015610aed57828155600101610ada565b505050505050565b81516001600160401b03811115610b0e57610b0e6108fa565b610b2281610b1c8454610a17565b84610aa7565b602080601f831160018114610b575760008415610b3f5750858301515b600019600386901b1c1916600185901b178555610aed565b600085815260208120601f198616915b82811015610b8657888601518255948401946001909101908401610b67565b5085821015610ba45787850151600019600388901b60f8161c191681555b5050505050600190811b0190555056fea26469706673582212206c01b1da4986df5cb1ae1b6fa680b11a43dff8727679b22f88dba2bf60def61e64736f6c63430008140033",
  "linkReferences": {},
  "deployedLinkReferences": {}
}