{
  "contractName": "cyclicalManyToOneElectionProcedure",
  "abi": [
    {
      "constant": true,
      "inputs": [
        {
          "name": "",
          "type": "address"
        },
        {
          "name": "",
          "type": "uint256"
        }
      ],
      "name": "ballotToEnforcer",
      "outputs": [
        {
          "name": "",
          "type": "uint256"
        }
      ],
      "payable": false,
      "stateMutability": "view",
      "type": "function"
    },
    {
      "constant": true,
      "inputs": [],
      "name": "procedureTypeNumber",
      "outputs": [
        {
          "name": "",
          "type": "int256"
        }
      ],
      "payable": false,
      "stateMutability": "view",
      "type": "function"
    },
    {
      "constant": true,
      "inputs": [],
      "name": "quorumSize",
      "outputs": [
        {
          "name": "",
          "type": "uint256"
        }
      ],
      "payable": false,
      "stateMutability": "view",
      "type": "function"
    },
    {
      "constant": true,
      "inputs": [],
      "name": "ballotFrequency",
      "outputs": [
        {
          "name": "",
          "type": "uint256"
        }
      ],
      "payable": false,
      "stateMutability": "view",
      "type": "function"
    },
    {
      "constant": true,
      "inputs": [],
      "name": "referenceOrganContract",
      "outputs": [
        {
          "name": "",
          "type": "address"
        }
      ],
      "payable": false,
      "stateMutability": "view",
      "type": "function"
    },
    {
      "constant": true,
      "inputs": [],
      "name": "currentPresident",
      "outputs": [
        {
          "name": "",
          "type": "address"
        }
      ],
      "payable": false,
      "stateMutability": "view",
      "type": "function"
    },
    {
      "constant": true,
      "inputs": [
        {
          "name": "",
          "type": "address"
        },
        {
          "name": "",
          "type": "uint256"
        }
      ],
      "name": "ballotToVoter",
      "outputs": [
        {
          "name": "",
          "type": "uint256"
        }
      ],
      "payable": false,
      "stateMutability": "view",
      "type": "function"
    },
    {
      "constant": true,
      "inputs": [
        {
          "name": "",
          "type": "uint256"
        }
      ],
      "name": "ballots",
      "outputs": [
        {
          "name": "creator",
          "type": "address"
        },
        {
          "name": "name",
          "type": "string"
        },
        {
          "name": "startDate",
          "type": "uint256"
        },
        {
          "name": "candidacyEndDate",
          "type": "uint256"
        },
        {
          "name": "electionEndDate",
          "type": "uint256"
        },
        {
          "name": "wasEnded",
          "type": "bool"
        },
        {
          "name": "wasEnforced",
          "type": "bool"
        },
        {
          "name": "winningCandidate",
          "type": "address"
        },
        {
          "name": "totalVoteCount",
          "type": "uint256"
        }
      ],
      "payable": false,
      "stateMutability": "view",
      "type": "function"
    },
    {
      "constant": true,
      "inputs": [],
      "name": "kelsenVersionNumber",
      "outputs": [
        {
          "name": "",
          "type": "int256"
        }
      ],
      "payable": false,
      "stateMutability": "view",
      "type": "function"
    },
    {
      "constant": true,
      "inputs": [],
      "name": "lastElectionNumber",
      "outputs": [
        {
          "name": "",
          "type": "uint256"
        }
      ],
      "payable": false,
      "stateMutability": "view",
      "type": "function"
    },
    {
      "constant": true,
      "inputs": [
        {
          "name": "",
          "type": "address"
        },
        {
          "name": "",
          "type": "uint256"
        }
      ],
      "name": "ballotToCreator",
      "outputs": [
        {
          "name": "",
          "type": "uint256"
        }
      ],
      "payable": false,
      "stateMutability": "view",
      "type": "function"
    },
    {
      "constant": true,
      "inputs": [
        {
          "name": "",
          "type": "address"
        }
      ],
      "name": "cumulatedCandidacies",
      "outputs": [
        {
          "name": "",
          "type": "uint256"
        }
      ],
      "payable": false,
      "stateMutability": "view",
      "type": "function"
    },
    {
      "constant": true,
      "inputs": [],
      "name": "isAnOrgan",
      "outputs": [
        {
          "name": "",
          "type": "bool"
        }
      ],
      "payable": false,
      "stateMutability": "view",
      "type": "function"
    },
    {
      "constant": true,
      "inputs": [],
      "name": "ballotDuration",
      "outputs": [
        {
          "name": "",
          "type": "uint256"
        }
      ],
      "payable": false,
      "stateMutability": "view",
      "type": "function"
    },
    {
      "constant": true,
      "inputs": [],
      "name": "candidacyDuration",
      "outputs": [
        {
          "name": "",
          "type": "uint256"
        }
      ],
      "payable": false,
      "stateMutability": "view",
      "type": "function"
    },
    {
      "constant": true,
      "inputs": [],
      "name": "isBallotCurrentlyRunning",
      "outputs": [
        {
          "name": "",
          "type": "bool"
        }
      ],
      "payable": false,
      "stateMutability": "view",
      "type": "function"
    },
    {
      "constant": true,
      "inputs": [],
      "name": "totalBallotNumber",
      "outputs": [
        {
          "name": "",
          "type": "uint256"
        }
      ],
      "payable": false,
      "stateMutability": "view",
      "type": "function"
    },
    {
      "constant": true,
      "inputs": [],
      "name": "neutralVoteAccepted",
      "outputs": [
        {
          "name": "",
          "type": "bool"
        }
      ],
      "payable": false,
      "stateMutability": "view",
      "type": "function"
    },
    {
      "constant": true,
      "inputs": [],
      "name": "nextElectionDate",
      "outputs": [
        {
          "name": "",
          "type": "uint256"
        }
      ],
      "payable": false,
      "stateMutability": "view",
      "type": "function"
    },
    {
      "constant": true,
      "inputs": [],
      "name": "reelectionMaximum",
      "outputs": [
        {
          "name": "",
          "type": "uint256"
        }
      ],
      "payable": false,
      "stateMutability": "view",
      "type": "function"
    },
    {
      "constant": true,
      "inputs": [
        {
          "name": "",
          "type": "address"
        },
        {
          "name": "",
          "type": "uint256"
        }
      ],
      "name": "ballotToCounter",
      "outputs": [
        {
          "name": "",
          "type": "uint256"
        }
      ],
      "payable": false,
      "stateMutability": "view",
      "type": "function"
    },
    {
      "constant": true,
      "inputs": [],
      "name": "isAProcedure",
      "outputs": [
        {
          "name": "",
          "type": "bool"
        }
      ],
      "payable": false,
      "stateMutability": "view",
      "type": "function"
    },
    {
      "constant": true,
      "inputs": [],
      "name": "affectedOrganContract",
      "outputs": [
        {
          "name": "",
          "type": "address"
        }
      ],
      "payable": false,
      "stateMutability": "view",
      "type": "function"
    },
    {
      "anonymous": false,
      "inputs": [
        {
          "indexed": false,
          "name": "_from",
          "type": "address"
        },
        {
          "indexed": false,
          "name": "_name",
          "type": "string"
        },
        {
          "indexed": false,
          "name": "_startDate",
          "type": "uint256"
        },
        {
          "indexed": false,
          "name": "_candidacyEndDate",
          "type": "uint256"
        },
        {
          "indexed": false,
          "name": "_endDate",
          "type": "uint256"
        },
        {
          "indexed": false,
          "name": "_ballotNumber",
          "type": "uint256"
        }
      ],
      "name": "ballotCreationEvent",
      "type": "event"
    },
    {
      "anonymous": false,
      "inputs": [
        {
          "indexed": false,
          "name": "_ballotNumber",
          "type": "uint256"
        },
        {
          "indexed": false,
          "name": "_candidateAddress",
          "type": "address"
        },
        {
          "indexed": false,
          "name": "_name",
          "type": "string"
        },
        {
          "indexed": false,
          "name": "_ipfsHash",
          "type": "bytes32"
        },
        {
          "indexed": false,
          "name": "_hash_function",
          "type": "uint8"
        },
        {
          "indexed": false,
          "name": "_size",
          "type": "uint8"
        }
      ],
      "name": "presentCandidacyEvent",
      "type": "event"
    },
    {
      "anonymous": false,
      "inputs": [
        {
          "indexed": false,
          "name": "_from",
          "type": "address"
        },
        {
          "indexed": false,
          "name": "_ballotNumber",
          "type": "uint256"
        }
      ],
      "name": "votedOnElectionEvent",
      "type": "event"
    },
    {
      "anonymous": false,
      "inputs": [
        {
          "indexed": false,
          "name": "_ballotNumber",
          "type": "uint256"
        },
        {
          "indexed": false,
          "name": "_candidateList",
          "type": "address[]"
        },
        {
          "indexed": false,
          "name": "_winningCandidate",
          "type": "address"
        },
        {
          "indexed": false,
          "name": "_totalVoteCount",
          "type": "uint256"
        }
      ],
      "name": "ballotWasCounted",
      "type": "event"
    },
    {
      "anonymous": false,
      "inputs": [
        {
          "indexed": false,
          "name": "_ballotNumber",
          "type": "uint256"
        },
        {
          "indexed": false,
          "name": "_wasRebooted",
          "type": "bool"
        }
      ],
      "name": "ballotResultException",
      "type": "event"
    },
    {
      "anonymous": false,
      "inputs": [
        {
          "indexed": false,
          "name": "_winningCandidate",
          "type": "address"
        },
        {
          "indexed": false,
          "name": "_ballotNumber",
          "type": "uint256"
        }
      ],
      "name": "ballotWasEnforced",
      "type": "event"
    },
    {
      "constant": false,
      "inputs": [
        {
          "name": "_ballotName",
          "type": "string"
        }
      ],
      "name": "createBallot",
      "outputs": [
        {
          "name": "ballotNumber",
          "type": "uint256"
        }
      ],
      "payable": false,
      "stateMutability": "nonpayable",
      "type": "function"
    },
    {
      "constant": false,
      "inputs": [
        {
          "name": "_ballotNumber",
          "type": "uint256"
        },
        {
          "name": "_name",
          "type": "string"
        },
        {
          "name": "_ipfsHash",
          "type": "bytes32"
        },
        {
          "name": "_hash_function",
          "type": "uint8"
        },
        {
          "name": "_size",
          "type": "uint8"
        }
      ],
      "name": "presentCandidacy",
      "outputs": [],
      "payable": false,
      "stateMutability": "nonpayable",
      "type": "function"
    },
    {
      "constant": false,
      "inputs": [
        {
          "name": "_ballotNumber",
          "type": "uint256"
        },
        {
          "name": "_candidateAddress",
          "type": "address"
        }
      ],
      "name": "vote",
      "outputs": [],
      "payable": false,
      "stateMutability": "nonpayable",
      "type": "function"
    },
    {
      "constant": false,
      "inputs": [
        {
          "name": "_ballotNumber",
          "type": "uint256"
        }
      ],
      "name": "endBallot",
      "outputs": [
        {
          "name": "winningCandidate",
          "type": "uint256"
        }
      ],
      "payable": false,
      "stateMutability": "nonpayable",
      "type": "function"
    },
    {
      "constant": false,
      "inputs": [
        {
          "name": "_ballotNumber",
          "type": "uint256"
        }
      ],
      "name": "enforceBallot",
      "outputs": [],
      "payable": false,
      "stateMutability": "nonpayable",
      "type": "function"
    },
    {
      "constant": true,
      "inputs": [
        {
          "name": "_ballotNumber",
          "type": "uint256"
        }
      ],
      "name": "getCandidateList",
      "outputs": [
        {
          "name": "_candidateList",
          "type": "address[]"
        }
      ],
      "payable": false,
      "stateMutability": "view",
      "type": "function"
    },
    {
      "constant": true,
      "inputs": [
        {
          "name": "_ballotNumber",
          "type": "uint256"
        }
      ],
      "name": "getSingleBallotInfo",
      "outputs": [
        {
          "name": "_name",
          "type": "string"
        },
        {
          "name": "_startDate",
          "type": "uint256"
        },
        {
          "name": "_candidacyEndDate",
          "type": "uint256"
        },
        {
          "name": "_electionEndDate",
          "type": "uint256"
        }
      ],
      "payable": false,
      "stateMutability": "view",
      "type": "function"
    },
    {
      "constant": true,
      "inputs": [
        {
          "name": "_ballotNumber",
          "type": "uint256"
        }
      ],
      "name": "getBallotResult",
      "outputs": [
        {
          "name": "_wasEnded",
          "type": "bool"
        },
        {
          "name": "_wasEnforced",
          "type": "bool"
        },
        {
          "name": "_winningCandidate",
          "type": "address"
        },
        {
          "name": "_totalVoteCount",
          "type": "uint256"
        }
      ],
      "payable": false,
      "stateMutability": "view",
      "type": "function"
    },
    {
      "constant": true,
      "inputs": [
        {
          "name": "_ballotNumber",
          "type": "uint256"
        }
      ],
      "name": "getBallotDates",
      "outputs": [
        {
          "name": "startDate",
          "type": "uint256"
        },
        {
          "name": "endDate",
          "type": "uint256"
        }
      ],
      "payable": false,
      "stateMutability": "view",
      "type": "function"
    },
    {
      "constant": true,
      "inputs": [
        {
          "name": "_ballotNumber",
          "type": "uint256"
        }
      ],
      "name": "haveIVoted",
      "outputs": [
        {
          "name": "IHaveVoted",
          "type": "bool"
        }
      ],
      "payable": false,
      "stateMutability": "view",
      "type": "function"
    },
    {
      "constant": true,
      "inputs": [
        {
          "name": "_ballotNumber",
          "type": "uint256"
        },
        {
          "name": "_candidateAddress",
          "type": "address"
        }
      ],
      "name": "getCandidateVoteNumber",
      "outputs": [
        {
          "name": "voteReceived",
          "type": "uint256"
        }
      ],
      "payable": false,
      "stateMutability": "view",
      "type": "function"
    },
    {
      "constant": true,
      "inputs": [
        {
          "name": "_userAddress",
          "type": "address"
        }
      ],
      "name": "getBallotToCreator",
      "outputs": [
        {
          "name": "",
          "type": "uint256[]"
        }
      ],
      "payable": false,
      "stateMutability": "view",
      "type": "function"
    },
    {
      "constant": true,
      "inputs": [
        {
          "name": "_userAddress",
          "type": "address"
        }
      ],
      "name": "getBallotToCounter",
      "outputs": [
        {
          "name": "",
          "type": "uint256[]"
        }
      ],
      "payable": false,
      "stateMutability": "view",
      "type": "function"
    },
    {
      "constant": true,
      "inputs": [
        {
          "name": "_userAddress",
          "type": "address"
        }
      ],
      "name": "getBallotToEnforcer",
      "outputs": [
        {
          "name": "",
          "type": "uint256[]"
        }
      ],
      "payable": false,
      "stateMutability": "view",
      "type": "function"
    }
  ],
  "bytecode": "0x60606040526001600355341561001457600080fd5b613c90806100236000396000f3006060604052600436106101cd576000357c0100000000000000000000000000000000000000000000000000000000900463ffffffff16806302d947ef146101d25780631899706d1461021457806318fe2d731461026a57806319060ef11461031b5780632647d7f9146103595780633068ef4d14610382578063322af16f146103ab578063325bc6ea146103d45780633468209814610462578063446192af146104b857806346a865761461050d57806347ae53e21461057e57806348fcc144146105d357806356453fbf1461060a5780635c632b38146106605780635dbe4d28146107b1578063618bde0a146107da578063680aee50146108525780636be873541461087b5780638cd1ff51146108d1578063a4c797f7146108f4578063a8bef97a14610941578063ab8f95361461096e578063ac37af1c14610997578063b064124d146109d2578063b0c2dede14610a60578063b4b71cd214610a89578063b9f43cc514610ab6578063bdf7f47214610adf578063bf0fac8314610b0c578063ce65c4e314610b9a578063d0746b7a14610c1a578063d9b84d4c14610c43578063de0db92e14610c6c578063e76f506e14610cf7578063e80b30a514610d4d578063fe7800e114610d7a575b600080fd5b34156101dd57600080fd5b610212600480803590602001909190803573ffffffffffffffffffffffffffffffffffffffff16906020019091905050610dcf565b005b341561021f57600080fd5b610254600480803573ffffffffffffffffffffffffffffffffffffffff16906020019091908035906020019091905050611292565b6040518082815260200191505060405180910390f35b341561027557600080fd5b61028b60048080359060200190919050506112c3565b6040518080602001858152602001848152602001838152602001828103825286818151815260200191508051906020019080838360005b838110156102dd5780820151818401526020810190506102c2565b50505050905090810190601f16801561030a5780820380516001836020036101000a031916815260200191505b509550505050505060405180910390f35b341561032657600080fd5b61033c60048080359060200190919050506113fe565b604051808381526020018281526020019250505060405180910390f35b341561036457600080fd5b61036c61144c565b6040518082815260200191505060405180910390f35b341561038d57600080fd5b610395611452565b6040518082815260200191505060405180910390f35b34156103b657600080fd5b6103be611458565b6040518082815260200191505060405180910390f35b34156103df57600080fd5b61040b600480803573ffffffffffffffffffffffffffffffffffffffff1690602001909190505061145e565b6040518080602001828103825283818151815260200191508051906020019060200280838360005b8381101561044e578082015181840152602081019050610433565b505050509050019250505060405180910390f35b341561046d57600080fd5b6104a2600480803590602001909190803573ffffffffffffffffffffffffffffffffffffffff169060200190919050506114fb565b6040518082815260200191505060405180910390f35b34156104c357600080fd5b6104cb61159f565b604051808273ffffffffffffffffffffffffffffffffffffffff1673ffffffffffffffffffffffffffffffffffffffff16815260200191505060405180910390f35b341561051857600080fd5b610568600480803590602001908201803590602001908080601f016020809104026020016040519081016040528093929190818152602001838380828437820191505050505050919050506115c5565b6040518082815260200191505060405180910390f35b341561058957600080fd5b610591611a21565b604051808273ffffffffffffffffffffffffffffffffffffffff1673ffffffffffffffffffffffffffffffffffffffff16815260200191505060405180910390f35b34156105de57600080fd5b6105f46004808035906020019091905050611a47565b6040518082815260200191505060405180910390f35b341561061557600080fd5b61064a600480803573ffffffffffffffffffffffffffffffffffffffff1690602001909190803590602001909190505061241e565b6040518082815260200191505060405180910390f35b341561066b57600080fd5b610681600480803590602001909190505061244f565b604051808a73ffffffffffffffffffffffffffffffffffffffff1673ffffffffffffffffffffffffffffffffffffffff1681526020018060200189815260200188815260200187815260200186151515158152602001851515151581526020018473ffffffffffffffffffffffffffffffffffffffff1673ffffffffffffffffffffffffffffffffffffffff16815260200183815260200182810382528a81815460018160011615610100020316600290048152602001915080546001816001161561010002031660029004801561079a5780601f1061076f5761010080835404028352916020019161079a565b820191906000526020600020905b81548152906001019060200180831161077d57829003601f168201915b50509a505050505050505050505060405180910390f35b34156107bc57600080fd5b6107c4612505565b6040518082815260200191505060405180910390f35b34156107e557600080fd5b6107fb600480803590602001909190505061250b565b6040518080602001828103825283818151815260200191508051906020019060200280838360005b8381101561083e578082015181840152602081019050610823565b505050509050019250505060405180910390f35b341561085d57600080fd5b6108656125bf565b6040518082815260200191505060405180910390f35b341561088657600080fd5b6108bb600480803573ffffffffffffffffffffffffffffffffffffffff169060200190919080359060200190919050506125c5565b6040518082815260200191505060405180910390f35b34156108dc57600080fd5b6108f260048080359060200190919050506125f6565b005b34156108ff57600080fd5b61092b600480803573ffffffffffffffffffffffffffffffffffffffff16906020019091905050612dba565b6040518082815260200191505060405180910390f35b341561094c57600080fd5b610954612dd2565b604051808215151515815260200191505060405180910390f35b341561097957600080fd5b610981612de5565b6040518082815260200191505060405180910390f35b34156109a257600080fd5b6109b86004808035906020019091905050612deb565b604051808215151515815260200191505060405180910390f35b34156109dd57600080fd5b610a09600480803573ffffffffffffffffffffffffffffffffffffffff16906020019091905050612e62565b6040518080602001828103825283818151815260200191508051906020019060200280838360005b83811015610a4c578082015181840152602081019050610a31565b505050509050019250505060405180910390f35b3415610a6b57600080fd5b610a73612eff565b6040518082815260200191505060405180910390f35b3415610a9457600080fd5b610a9c612f05565b604051808215151515815260200191505060405180910390f35b3415610ac157600080fd5b610ac9612f18565b6040518082815260200191505060405180910390f35b3415610aea57600080fd5b610af2612f1e565b604051808215151515815260200191505060405180910390f35b3415610b1757600080fd5b610b43600480803573ffffffffffffffffffffffffffffffffffffffff16906020019091905050612f31565b6040518080602001828103825283818151815260200191508051906020019060200280838360005b83811015610b86578082015181840152602081019050610b6b565b505050509050019250505060405180910390f35b3415610ba557600080fd5b610bbb6004808035906020019091905050612fce565b6040518085151515158152602001841515151581526020018373ffffffffffffffffffffffffffffffffffffffff1673ffffffffffffffffffffffffffffffffffffffff16815260200182815260200194505050505060405180910390f35b3415610c2557600080fd5b610c2d6130a1565b6040518082815260200191505060405180910390f35b3415610c4e57600080fd5b610c566130a7565b6040518082815260200191505060405180910390f35b3415610c7757600080fd5b610cf5600480803590602001909190803590602001908201803590602001908080601f016020809104026020016040519081016040528093929190818152602001838380828437820191505050505050919080356000191690602001909190803560ff1690602001909190803560ff169060200190919050506130ad565b005b3415610d0257600080fd5b610d37600480803573ffffffffffffffffffffffffffffffffffffffff1690602001909190803590602001909190505061370e565b6040518082815260200191505060405180910390f35b3415610d5857600080fd5b610d6061373f565b604051808215151515815260200191505060405180910390f35b3415610d8557600080fd5b610d8d613751565b604051808273ffffffffffffffffffffffffffffffffffffffff1673ffffffffffffffffffffffffffffffffffffffff16815260200191505060405180910390f35b6000600560009054906101000a900473ffffffffffffffffffffffffffffffffffffffff1690508073ffffffffffffffffffffffffffffffffffffffff1663d323a4f8336000604051602001526040518263ffffffff167c0100000000000000000000000000000000000000000000000000000000028152600401808273ffffffffffffffffffffffffffffffffffffffff1673ffffffffffffffffffffffffffffffffffffffff168152602001915050602060405180830381600087803b1515610e9957600080fd5b6102c65a03f11515610eaa57600080fd5b505050604051805190501515610ebf57600080fd5b60009050601183815481101515610ed257fe5b90600052602060002090600a020160020160003373ffffffffffffffffffffffffffffffffffffffff1673ffffffffffffffffffffffffffffffffffffffff16815260200190815260200160002060000160009054906101000a900460ff16151515610f3d57600080fd5b601183815481101515610f4c57fe5b90600052602060002090600a020160080160009054906101000a900460ff16151515610f7757600080fd5b42601184815481101515610f8757fe5b90600052602060002090600a020160060154101515610fa557600080fd5b42601184815481101515610fb557fe5b90600052602060002090600a020160070154111515610fd357600080fd5b601183815481101515610fe257fe5b90600052602060002090600a020160020160008373ffffffffffffffffffffffffffffffffffffffff1673ffffffffffffffffffffffffffffffffffffffff16815260200190815260200160002060000160019054906101000a900460ff16156110ba57600160118481548110151561105757fe5b90600052602060002090600a020160030160008473ffffffffffffffffffffffffffffffffffffffff1673ffffffffffffffffffffffffffffffffffffffff16815260200190815260200160002060030160008282540192505081905550611114565b60016011848154811015156110cb57fe5b90600052602060002090600a020160030160008073ffffffffffffffffffffffffffffffffffffffff168152602001908152602001600020600301600082825401925050819055505b600160118481548110151561112557fe5b90600052602060002090600a020160020160003373ffffffffffffffffffffffffffffffffffffffff1673ffffffffffffffffffffffffffffffffffffffff16815260200190815260200160002060000160006101000a81548160ff021916908315150217905550600160118481548110151561119e57fe5b90600052602060002090600a020160090160008282540192505081905550601460003373ffffffffffffffffffffffffffffffffffffffff1673ffffffffffffffffffffffffffffffffffffffff168152602001908152602001600020805480600101828161120d9190613777565b9160005260206000209001600085909190915055507f64bbf4ffdc825afb14eb0f410f1141b85c43dfa5ee8ae25eb7cdf85ec997cd8f3384604051808373ffffffffffffffffffffffffffffffffffffffff1673ffffffffffffffffffffffffffffffffffffffff1681526020018281526020019250505060405180910390a1505050565b6016602052816000526040600020818154811015156112ad57fe5b9060005260206000209001600091509150505481565b6112cb6137a3565b60008060006011858154811015156112df57fe5b90600052602060002090600a02016001016011868154811015156112ff57fe5b90600052602060002090600a02016005015460118781548110151561132057fe5b90600052602060002090600a02016006015460118881548110151561134157fe5b90600052602060002090600a020160070154838054600181600116156101000203166002900480601f0160208091040260200160405190810160405280929190818152602001828054600181600116156101000203166002900480156113e85780601f106113bd576101008083540402835291602001916113e8565b820191906000526020600020905b8154815290600101906020018083116113cb57829003601f168201915b5050505050935093509350935093509193509193565b60008060118381548110151561141057fe5b90600052602060002090600a02016005015460118481548110151561143157fe5b90600052602060002090600a02016007015491509150915091565b60035481565b600d5481565b60065481565b6114666137b7565b601660008373ffffffffffffffffffffffffffffffffffffffff1673ffffffffffffffffffffffffffffffffffffffff1681526020019081526020016000208054806020026020016040519081016040528092919081815260200182805480156114ef57602002820191906000526020600020905b8154815260200190600101908083116114db575b50505050509050919050565b600060118381548110151561150c57fe5b90600052602060002090600a020160080160019054906101000a900460ff16151561153657600080fd5b60118381548110151561154557fe5b90600052602060002090600a020160030160008373ffffffffffffffffffffffffffffffffffffffff1673ffffffffffffffffffffffffffffffffffffffff16815260200190815260200160002060030154905092915050565b600560009054906101000a900473ffffffffffffffffffffffffffffffffffffffff1681565b60006115cf6137cb565b60001515600e60009054906101000a900460ff1615151415156115f157600080fd5b6007544211151561160157600080fd5b6000601180549050111561164b57601160105481548110151561162057fe5b90600052602060002090600a020160080160009054906101000a900460ff16151561164a57600080fd5b5b33816000019073ffffffffffffffffffffffffffffffffffffffff16908173ffffffffffffffffffffffffffffffffffffffff168152505082816020018190525042816060018181525050600b544201816080018181525050600954600b544201018160a001818152505060008160c0019015159081151581525050600081610100019073ffffffffffffffffffffffffffffffffffffffff16908173ffffffffffffffffffffffffffffffffffffffff168152505060008161012001818152505060118054806001018281611721919061385b565b91600052602060002090600a0201600083909190915060008201518160000160006101000a81548173ffffffffffffffffffffffffffffffffffffffff021916908373ffffffffffffffffffffffffffffffffffffffff160217905550602082015181600101908051906020019061179a92919061388d565b5060408201518160040190805190602001906117b792919061390d565b50606082015181600501556080820151816006015560a0820151816007015560c08201518160080160006101000a81548160ff02191690831515021790555060e08201518160080160016101000a81548160ff0219169083151502179055506101008201518160080160026101000a81548173ffffffffffffffffffffffffffffffffffffffff021916908373ffffffffffffffffffffffffffffffffffffffff160217905550610120820151816009015550505060016011805490500391506001600f600082825401925050819055506001600e60006101000a81548160ff0219169083151502179055506006544201600781905550816010819055507fdb79682a2650346f5fbfd232c0059da59a89b2a64c3fb7d75ccf58ff939be0d5338260200151836060015184608001518560a0015187604051808773ffffffffffffffffffffffffffffffffffffffff1673ffffffffffffffffffffffffffffffffffffffff16815260200180602001868152602001858152602001848152602001838152602001828103825287818151815260200191508051906020019080838360005b8381101561197657808201518184015260208101905061195b565b50505050905090810190601f1680156119a35780820380516001836020036101000a031916815260200191505b5097505050505050505060405180910390a1601360003373ffffffffffffffffffffffffffffffffffffffff1673ffffffffffffffffffffffffffffffffffffffff1681526020019081526020016000208054806001018281611a069190613777565b91600052602060002090016000849091909150555050919050565b600860009054906101000a900473ffffffffffffffffffffffffffffffffffffffff1681565b6000806000806000806000601188815481101515611a6157fe5b90600052602060002090600a020160080160009054906101000a900460ff16151515611a8c57600080fd5b42601189815481101515611a9c57fe5b90600052602060002090600a020160070154101515611aba57600080fd5b6000601189815481101515611acb57fe5b90600052602060002090600a0201600401805490501480611b0c57506000601189815481101515611af857fe5b90600052602060002090600a020160090154145b15611cb7576001601189815481101515611b2257fe5b90600052602060002090600a020160080160016101000a81548160ff0219169083151502179055506001601189815481101515611b5b57fe5b90600052602060002090600a020160080160006101000a81548160ff0219169083151502179055507fd3844af45b09228a143d3e565e053517b81b3e6b1ee574de327db2ba09eebefe88600160405180838152602001821515151581526020019250505060405180910390a1600142036007819055506000600e60006101000a81548160ff021916908315150217905550611cad601189815481101515611bfe57fe5b90600052602060002090600a02016001018054600181600116156101000203166002900480601f016020809104026020016040519081016040528092919081815260200182805460018160011615610100020316600290048015611ca35780601f10611c7857610100808354040283529160200191611ca3565b820191906000526020600020905b815481529060010190602001808311611c8657829003601f168201915b50505050506115c5565b5060009650612413565b600095506000945060009350600560009054906101000a900473ffffffffffffffffffffffffffffffffffffffff1692508273ffffffffffffffffffffffffffffffffffffffff1663234d34de6000604051602001526040518163ffffffff167c0100000000000000000000000000000000000000000000000000000000028152600401602060405180830381600087803b1515611d5457600080fd5b6102c65a03f11515611d6557600080fd5b50505060405180519050600d5402606460118a815481101515611d8457fe5b90600052602060002090600a02016009015402101515611da357600193505b600091505b601188815481101515611db757fe5b90600052602060002090600a020160040180549050821015611f8057601188815481101515611de257fe5b90600052602060002090600a020160040182815481101515611e0057fe5b906000526020600020900160009054906101000a900473ffffffffffffffffffffffffffffffffffffffff16905085601189815481101515611e3e57fe5b90600052602060002090600a020160030160008373ffffffffffffffffffffffffffffffffffffffff1673ffffffffffffffffffffffffffffffffffffffff168152602001908152602001600020600301541115611f0557601188815481101515611ea557fe5b90600052602060002090600a020160030160008273ffffffffffffffffffffffffffffffffffffffff1673ffffffffffffffffffffffffffffffffffffffff16815260200190815260200160002060030154955081965060009450611f73565b85601189815481101515611f1557fe5b90600052602060002090600a020160030160008373ffffffffffffffffffffffffffffffffffffffff1673ffffffffffffffffffffffffffffffffffffffff168152602001908152602001600020600301541415611f7257600194505b5b8180600101925050611da8565b6001601189815481101515611f9157fe5b90600052602060002090600a020160080160006101000a81548160ff0219169083151502179055506000600e60006101000a81548160ff02191690831515021790555084158015611fdf5750835b1561220e57601188815481101515611ff357fe5b90600052602060002090600a02016004018781548110151561201157fe5b906000526020600020900160009054906101000a900473ffffffffffffffffffffffffffffffffffffffff1660118981548110151561204c57fe5b90600052602060002090600a020160080160026101000a81548173ffffffffffffffffffffffffffffffffffffffff021916908373ffffffffffffffffffffffffffffffffffffffff1602179055507f88749fd3de596f4dc6d65f95e558c03b325f183429445297fac0e261535772888860118a8154811015156120cc57fe5b90600052602060002090600a020160040160118b8154811015156120ec57fe5b90600052602060002090600a020160080160029054906101000a900473ffffffffffffffffffffffffffffffffffffffff1660118c81548110151561212d57fe5b90600052602060002090600a02016009015460405180858152602001806020018473ffffffffffffffffffffffffffffffffffffffff1673ffffffffffffffffffffffffffffffffffffffff16815260200183815260200182810382528581815481526020019150805480156121f857602002820191906000526020600020905b8160009054906101000a900473ffffffffffffffffffffffffffffffffffffffff1673ffffffffffffffffffffffffffffffffffffffff16815260200190600101908083116121ae575b50509550505050505060405180910390a16123ac565b600160118981548110151561221f57fe5b90600052602060002090600a020160080160016101000a81548160ff0219169083151502179055507fd3844af45b09228a143d3e565e053517b81b3e6b1ee574de327db2ba09eebefe88600160405180838152602001821515151581526020019250505060405180910390a16001420360078190555060016011898154811015156122a657fe5b90600052602060002090600a020160080160006101000a81548160ff0219169083151502179055506000600e60006101000a81548160ff0219169083151502179055506123aa6011898154811015156122fb57fe5b90600052602060002090600a02016001018054600181600116156101000203166002900480601f0160208091040260200160405190810160405280929190818152602001828054600181600116156101000203166002900480156123a05780601f10612375576101008083540402835291602001916123a0565b820191906000526020600020905b81548152906001019060200180831161238357829003601f168201915b50505050506115c5565b505b601560003373ffffffffffffffffffffffffffffffffffffffff1673ffffffffffffffffffffffffffffffffffffffff16815260200190815260200160002080548060010182816123fd9190613777565b916000526020600020900160008a909190915055505b505050505050919050565b60146020528160005260406000208181548110151561243957fe5b9060005260206000209001600091509150505481565b60118181548110151561245e57fe5b90600052602060002090600a02016000915090508060000160009054906101000a900473ffffffffffffffffffffffffffffffffffffffff169080600101908060050154908060060154908060070154908060080160009054906101000a900460ff16908060080160019054906101000a900460ff16908060080160029054906101000a900473ffffffffffffffffffffffffffffffffffffffff16908060090154905089565b60005481565b612513613997565b60118281548110151561252257fe5b90600052602060002090600a02016004018054806020026020016040519081016040528092919081815260200182805480156125b357602002820191906000526020600020905b8160009054906101000a900473ffffffffffffffffffffffffffffffffffffffff1673ffffffffffffffffffffffffffffffffffffffff1681526020019060010190808311612569575b50505050509050919050565b60105481565b6013602052816000526040600020818154811015156125e057fe5b9060005260206000209001600091509150505481565b6000806126016139ab565b60118481548110151561261057fe5b90600052602060002090600a020160080160019054906101000a900460ff1615151561263b57600080fd5b60118481548110151561264a57fe5b90600052602060002090600a020160080160009054906101000a900460ff16151561267457600080fd5b60065460118581548110151561268657fe5b90600052602060002090600a020160050154014211156127225760016011858154811015156126b157fe5b90600052602060002090600a020160080160016101000a81548160ff0219169083151502179055507fd3844af45b09228a143d3e565e053517b81b3e6b1ee574de327db2ba09eebefe84600060405180838152602001821515151581526020019250505060405180910390a1612db4565b600460009054906101000a900473ffffffffffffffffffffffffffffffffffffffff16925060118481548110151561275657fe5b90600052602060002090600a020160080160029054906101000a900473ffffffffffffffffffffffffffffffffffffffff169150600860009054906101000a900473ffffffffffffffffffffffffffffffffffffffff1673ffffffffffffffffffffffffffffffffffffffff168273ffffffffffffffffffffffffffffffffffffffff16141515612c5b576011848154811015156127f057fe5b90600052602060002090600a020160030160008373ffffffffffffffffffffffffffffffffffffffff1673ffffffffffffffffffffffffffffffffffffffff16815260200190815260200160002060a06040519081016040529081600082018054600181600116156101000203166002900480601f0160208091040260200160405190810160405280929190818152602001828054600181600116156101000203166002900480156128e35780601f106128b8576101008083540402835291602001916128e3565b820191906000526020600020905b8154815290600101906020018083116128c657829003601f168201915b505050505081526020016001820154600019166000191681526020016002820160009054906101000a900460ff1660ff1660ff1681526020016002820160019054906101000a900460ff1660ff1660ff16815260200160038201548152505090508273ffffffffffffffffffffffffffffffffffffffff1663696c52198383600001518460200151856040015186606001516000604051602001526040518663ffffffff167c0100000000000000000000000000000000000000000000000000000000028152600401808673ffffffffffffffffffffffffffffffffffffffff1673ffffffffffffffffffffffffffffffffffffffff1681526020018060200185600019166000191681526020018460ff1660ff1681526020018360ff1660ff168152602001828103825286818151815260200191508051906020019080838360005b83811015612a41578082015181840152602081019050612a26565b50505050905090810190601f168015612a6e5780820380516001836020036101000a031916815260200191505b509650505050505050602060405180830381600087803b1515612a9057600080fd5b6102c65a03f11515612aa157600080fd5b50505060405180519050506001600f541115612c19578273ffffffffffffffffffffffffffffffffffffffff16630e9defff8473ffffffffffffffffffffffffffffffffffffffff16635549ea51600860009054906101000a900473ffffffffffffffffffffffffffffffffffffffff166000604051602001526040518263ffffffff167c0100000000000000000000000000000000000000000000000000000000028152600401808273ffffffffffffffffffffffffffffffffffffffff1673ffffffffffffffffffffffffffffffffffffffff168152602001915050602060405180830381600087803b1515612b9857600080fd5b6102c65a03f11515612ba957600080fd5b505050604051805190506040518263ffffffff167c010000000000000000000000000000000000000000000000000000000002815260040180828152602001915050600060405180830381600087803b1515612c0457600080fd5b6102c65a03f11515612c1557600080fd5b5050505b81600860006101000a81548173ffffffffffffffffffffffffffffffffffffffff021916908373ffffffffffffffffffffffffffffffffffffffff1602179055505b6001601260008473ffffffffffffffffffffffffffffffffffffffff1673ffffffffffffffffffffffffffffffffffffffff168152602001908152602001600020600082825401925050819055506001601185815481101515612cba57fe5b90600052602060002090600a020160080160016101000a81548160ff0219169083151502179055507f948c625cd6ce700d1633bddaf8c10cb74993a25f74007d58169d60ae6ff49e5a8285604051808373ffffffffffffffffffffffffffffffffffffffff1673ffffffffffffffffffffffffffffffffffffffff1681526020018281526020019250505060405180910390a1601660003373ffffffffffffffffffffffffffffffffffffffff1673ffffffffffffffffffffffffffffffffffffffff1681526020019081526020016000208054806001018281612d9e9190613777565b9160005260206000209001600086909190915055505b50505050565b60126020528060005260406000206000915090505481565b600160009054906101000a900460ff1681565b60095481565b6000601182815481101515612dfc57fe5b90600052602060002090600a020160020160003373ffffffffffffffffffffffffffffffffffffffff1673ffffffffffffffffffffffffffffffffffffffff16815260200190815260200160002060000160009054906101000a900460ff169050919050565b612e6a6137b7565b601560008373ffffffffffffffffffffffffffffffffffffffff1673ffffffffffffffffffffffffffffffffffffffff168152602001908152602001600020805480602002602001604051908101604052809291908181526020018280548015612ef357602002820191906000526020600020905b815481526020019060010190808311612edf575b50505050509050919050565b600b5481565b600e60009054906101000a900460ff1681565b600f5481565b600a60009054906101000a900460ff1681565b612f396137b7565b601360008373ffffffffffffffffffffffffffffffffffffffff1673ffffffffffffffffffffffffffffffffffffffff168152602001908152602001600020805480602002602001604051908101604052809291908181526020018280548015612fc257602002820191906000526020600020905b815481526020019060010190808311612fae575b50505050509050919050565b600080600080601185815481101515612fe357fe5b90600052602060002090600a020160080160009054906101000a900460ff1660118681548110151561301157fe5b90600052602060002090600a020160080160019054906101000a900460ff1660118781548110151561303f57fe5b90600052602060002090600a020160080160029054906101000a900473ffffffffffffffffffffffffffffffffffffffff1660118881548110151561308057fe5b90600052602060002090600a02016009015493509350935093509193509193565b60075481565b600c5481565b6000600560009054906101000a900473ffffffffffffffffffffffffffffffffffffffff1690508073ffffffffffffffffffffffffffffffffffffffff1663d323a4f8336000604051602001526040518263ffffffff167c0100000000000000000000000000000000000000000000000000000000028152600401808273ffffffffffffffffffffffffffffffffffffffff1673ffffffffffffffffffffffffffffffffffffffff168152602001915050602060405180830381600087803b151561317757600080fd5b6102c65a03f1151561318857600080fd5b50505060405180519050151561319d57600080fd5b600090506011868154811015156131b057fe5b90600052602060002090600a020160080160009054906101000a900460ff161515156131db57600080fd5b426011878154811015156131eb57fe5b90600052602060002090600a02016006015411151561320957600080fd5b600c54601260003373ffffffffffffffffffffffffffffffffffffffff1673ffffffffffffffffffffffffffffffffffffffff1681526020019081526020016000205410151561325857600080fd5b60118681548110151561326757fe5b90600052602060002090600a020160020160003373ffffffffffffffffffffffffffffffffffffffff1673ffffffffffffffffffffffffffffffffffffffff16815260200190815260200160002060000160019054906101000a900460ff161515156132d257600080fd5b6011868154811015156132e157fe5b90600052602060002090600a0201600401805480600101828161330491906139ea565b9160005260206000209001600033909190916101000a81548173ffffffffffffffffffffffffffffffffffffffff021916908373ffffffffffffffffffffffffffffffffffffffff16021790555050600160118781548110151561336457fe5b90600052602060002090600a020160020160003373ffffffffffffffffffffffffffffffffffffffff1673ffffffffffffffffffffffffffffffffffffffff16815260200190815260200160002060000160016101000a81548160ff021916908315150217905550846011878154811015156133dc57fe5b90600052602060002090600a020160030160003373ffffffffffffffffffffffffffffffffffffffff1673ffffffffffffffffffffffffffffffffffffffff1681526020019081526020016000206000019080519060200190613440929190613a16565b508360118781548110151561345157fe5b90600052602060002090600a020160030160003373ffffffffffffffffffffffffffffffffffffffff1673ffffffffffffffffffffffffffffffffffffffff1681526020019081526020016000206001018160001916905550826011878154811015156134ba57fe5b90600052602060002090600a020160030160003373ffffffffffffffffffffffffffffffffffffffff1673ffffffffffffffffffffffffffffffffffffffff16815260200190815260200160002060020160006101000a81548160ff021916908360ff1602179055508160118781548110151561353357fe5b90600052602060002090600a020160030160003373ffffffffffffffffffffffffffffffffffffffff1673ffffffffffffffffffffffffffffffffffffffff16815260200190815260200160002060020160016101000a81548160ff021916908360ff16021790555060006011878154811015156135ad57fe5b90600052602060002090600a020160030160003373ffffffffffffffffffffffffffffffffffffffff1673ffffffffffffffffffffffffffffffffffffffff168152602001908152602001600020600301819055507ff8889d073f0366f70b5fd3ef060e300b4071afc6e31d114717b21bf374f270eb863387878787604051808781526020018673ffffffffffffffffffffffffffffffffffffffff1673ffffffffffffffffffffffffffffffffffffffff1681526020018060200185600019166000191681526020018460ff1660ff1681526020018360ff1660ff168152602001828103825286818151815260200191508051906020019080838360005b838110156136c75780820151818401526020810190506136ac565b50505050905090810190601f1680156136f45780820380516001836020036101000a031916815260200191505b5097505050505050505060405180910390a1505050505050565b60156020528160005260406000208181548110151561372957fe5b9060005260206000209001600091509150505481565b6001809054906101000a900460ff1681565b600460009054906101000a900473ffffffffffffffffffffffffffffffffffffffff1681565b81548183558181151161379e5781836000526020600020918201910161379d9190613a96565b5b505050565b602060405190810160405280600081525090565b602060405190810160405280600081525090565b61014060405190810160405280600073ffffffffffffffffffffffffffffffffffffffff1681526020016137fd613abb565b815260200161380a613acf565b8152602001600081526020016000815260200160008152602001600015158152602001600015158152602001600073ffffffffffffffffffffffffffffffffffffffff168152602001600081525090565b81548183558181151161388857600a0281600a0283600052602060002091820191016138879190613ae3565b5b505050565b828054600181600116156101000203166002900490600052602060002090601f016020900481019282601f106138ce57805160ff19168380011785556138fc565b828001600101855582156138fc579182015b828111156138fb5782518255916020019190600101906138e0565b5b5090506139099190613a96565b5090565b828054828255906000526020600020908101928215613986579160200282015b828111156139855782518260006101000a81548173ffffffffffffffffffffffffffffffffffffffff021916908373ffffffffffffffffffffffffffffffffffffffff1602179055509160200191906001019061392d565b5b5090506139939190613bb8565b5090565b602060405190810160405280600081525090565b60a0604051908101604052806139bf613abb565b815260200160008019168152602001600060ff168152602001600060ff168152602001600081525090565b815481835581811511613a1157818360005260206000209182019101613a109190613a96565b5b505050565b828054600181600116156101000203166002900490600052602060002090601f016020900481019282601f10613a5757805160ff1916838001178555613a85565b82800160010185558215613a85579182015b82811115613a84578251825591602001919060010190613a69565b5b509050613a929190613a96565b5090565b613ab891905b80821115613ab4576000816000905550600101613a9c565b5090565b90565b602060405190810160405280600081525090565b602060405190810160405280600081525090565b613bb591905b80821115613bb157600080820160006101000a81549073ffffffffffffffffffffffffffffffffffffffff0219169055600182016000613b299190613bfb565b600482016000613b399190613c43565b6005820160009055600682016000905560078201600090556008820160006101000a81549060ff02191690556008820160016101000a81549060ff02191690556008820160026101000a81549073ffffffffffffffffffffffffffffffffffffffff0219169055600982016000905550600a01613ae9565b5090565b90565b613bf891905b80821115613bf457600081816101000a81549073ffffffffffffffffffffffffffffffffffffffff021916905550600101613bbe565b5090565b90565b50805460018160011615610100020316600290046000825580601f10613c215750613c40565b601f016020900490600052602060002090810190613c3f9190613a96565b5b50565b5080546000825590600052602060002090810190613c619190613a96565b505600a165627a7a7230582088895aedbef92354a2ca98bb62aa5d03c5a29bec5f23fbfc97323b4f8acadb920029",
  "source": "pragma solidity ^0.4.11;\n\n// Standard contract for a presidential election procedure\n\nimport \"../standardProcedure.sol\";\nimport \"../standardOrgan.sol\";\n\n\ncontract cyclicalManyToOneElectionProcedure is Procedure{\n\n    // 1: Cyclical many to one election (Presidential Election)\n    // 2: Cyclical many to many election (Moderators Election)\n    // 3: Simple norm nomination \n    // 4: Simple admins and master nomination\n    // 5: Vote on Norms \n    // 6: Vote on masters and admins \n    // 7: Cooptation\n\n    int public procedureTypeNumber = 1;\n\n    // Which contract will be affected\n    address public affectedOrganContract;\n\n    // Where are the voter registered\n    address public referenceOrganContract;\n\n    // ############## Variable to set up when declaring the procedure\n    // ####### Vote creation process\n    // Election frequency\n    uint public ballotFrequency;\n    // Max parallel election running\n    uint public nextElectionDate;\n\n    // current President address\n    address public currentPresident;\n\n    // ####### Voting process\n    // Time to vote\n    uint public ballotDuration;\n\n    // Is blank vote accepted\n    bool public neutralVoteAccepted;\n\n    // ####### Candidacy process\n    // Time to declare as a candidate\n    uint public candidacyDuration;\n    // Maximum time someone can be candidate\n    uint public reelectionMaximum;\n\n    // ####### Resolution process\n    // Minimum participation to validate election\n    uint public quorumSize;\n\n\n    // Variable of the procedure to keep track of events\n    bool public isBallotCurrentlyRunning;\n    uint public totalBallotNumber;\n    uint public lastElectionNumber;\n\n    // List of open ballots\n    // uint[] public openBallotList;\n    // uint public currentBallot;\n\n    // Structure declaration\n\n    // Voter structure, to keep track of who voted for the current election\n    struct Voter {\n        bool voted;  // if true, that person already voted\n        bool isCandidate;\n    }\n\n\n\n    // Candidacies structure, to keep track of candidacies for an election\n    struct Candidacy {\n        string name;\n        bytes32 ipfsHash; // ID of proposal on IPFS\n        uint8 hash_function;\n        uint8 size;\n        uint voteNumber;\n    }\n\n    // Ballot structure, instanciated once for every election cycle\n    struct Ballot {\n        address creator;\n        string name;   // short name (up to 32 bytes)\n        mapping(address => Voter) voters;\n        mapping(address => Candidacy) candidacies;\n        address[] candidateList;\n        uint startDate;\n        uint candidacyEndDate;\n        uint electionEndDate;\n        bool wasEnded;\n        bool wasEnforced;\n        address winningCandidate;\n        uint totalVoteCount;\n\n    }\n\n\n\n    // A dynamically-sized array of `Ballot` structs.\n    Ballot[] public ballots;\n\n    // A mapping of candidacy status and number of candidacies per member\n    mapping(address => uint) public cumulatedCandidacies;\n\n    // Mapping each proposition to the user creating it\n    mapping (address => uint[]) public ballotToCreator;   \n\n    // Mapping each proposition to the user creating it\n    mapping (address => uint[]) public ballotToVoter;\n\n    // Mapping each proposition to the user counting it\n    mapping (address => uint[]) public ballotToCounter;\n\n    // Mapping each proposition to the user enforcing it\n    mapping (address => uint[]) public ballotToEnforcer;\n\n    // Events\n    event ballotCreationEvent(address _from, string _name, uint _startDate, uint _candidacyEndDate, uint _endDate, uint _ballotNumber);\n    event presentCandidacyEvent(uint _ballotNumber, address _candidateAddress, string _name, bytes32 _ipfsHash, uint8 _hash_function, uint8 _size);\n    event votedOnElectionEvent(address _from, uint _ballotNumber);\n    event ballotWasCounted(uint _ballotNumber, address[] _candidateList, address _winningCandidate, uint _totalVoteCount);\n    event ballotResultException(uint _ballotNumber, bool _wasRebooted);\n    event ballotWasEnforced(address _winningCandidate, uint _ballotNumber);\n\n\n    /// Create a new ballot to choose one of `proposalNames`.\n    function createBallot(string _ballotName) public returns (uint ballotNumber){\n            // Checking no ballot is currently running\n            require (isBallotCurrentlyRunning == false);\n            // Checking that election date has passed\n            require (now > nextElectionDate);\n            // Checking if previous ballot was counted\n            if (ballots.length > 0) {\n                require(ballots[lastElectionNumber].wasEnded);\n            }\n\n            Ballot memory newBallot;\n            newBallot.creator = msg.sender;\n            newBallot.name = _ballotName;\n            newBallot.startDate = now;\n            newBallot.candidacyEndDate = now + candidacyDuration;\n            newBallot.electionEndDate = now + candidacyDuration+ballotDuration;\n            newBallot.wasEnded = false;\n            newBallot.winningCandidate = 0x0000;\n            newBallot.totalVoteCount =0;\n            ballots.push(newBallot);\n\n            ballotNumber = ballots.length - 1;\n            // openBallotList.push(ballotNumber);\n            // currentBallot = ballotNumber;\n            totalBallotNumber += 1;\n            isBallotCurrentlyRunning = true;\n            nextElectionDate = now + ballotFrequency;\n            lastElectionNumber = ballotNumber;\n\n            // Ballot creation event\n            ballotCreationEvent(msg.sender, newBallot.name, newBallot.startDate, newBallot.candidacyEndDate, newBallot.electionEndDate, ballotNumber);\n            \n            // Loggin that ballot creator did create this ballot\n            ballotToCreator[msg.sender].push(ballotNumber);\n\n            }\n\n    function presentCandidacy(uint _ballotNumber, string _name, bytes32 _ipfsHash, uint8 _hash_function, uint8 _size) public {\n\n        // Check the candidate is a member of the reference organ\n        Organ voterRegistryOrgan = Organ(referenceOrganContract);\n        require(voterRegistryOrgan.isNorm(msg.sender));\n        delete voterRegistryOrgan;\n\n        // Check that the ballot is still active\n        require(!ballots[_ballotNumber].wasEnded);\n\n        // Check that the ballot candidacy period is still open\n        require(ballots[_ballotNumber].candidacyEndDate > now);\n\n        // Check that sender is not over the mandate limit\n        require(cumulatedCandidacies[msg.sender] < reelectionMaximum);\n\n        // Check if the candidate is already candidate\n        require(!ballots[_ballotNumber].voters[msg.sender].isCandidate);\n\n        ballots[_ballotNumber].candidateList.push(msg.sender);\n        ballots[_ballotNumber].voters[msg.sender].isCandidate = true;\n\n        ballots[_ballotNumber].candidacies[msg.sender].name = _name;\n        ballots[_ballotNumber].candidacies[msg.sender].ipfsHash = _ipfsHash;\n        ballots[_ballotNumber].candidacies[msg.sender].hash_function = _hash_function;\n        ballots[_ballotNumber].candidacies[msg.sender].size = _size;\n        ballots[_ballotNumber].candidacies[msg.sender].voteNumber = 0;\n         // Candidacy event is turned off for now\n        presentCandidacyEvent(_ballotNumber, msg.sender, _name, _ipfsHash, _hash_function, _size);\n\n\n\n        }\n\n\n    /// Vote for a candidate\n    function vote(uint _ballotNumber, address _candidateAddress) public {\n\n        Organ voterRegistryOrgan = Organ(referenceOrganContract);\n        require(voterRegistryOrgan.isNorm(msg.sender));\n\n        delete voterRegistryOrgan;\n        \n        // Check if voter already votred\n        require(!ballots[_ballotNumber].voters[msg.sender].voted);\n\n        // Check if vote is still active\n        require(!ballots[_ballotNumber].wasEnded);\n\n        // Check if candidacy period is over\n        require(ballots[_ballotNumber].candidacyEndDate < now);\n\n        // Check if voting period ended\n        require(ballots[_ballotNumber].electionEndDate > now);\n\n        // Check if candidate for whom we voted for is declared\n        if(ballots[_ballotNumber].voters[_candidateAddress].isCandidate)\n        {ballots[_ballotNumber].candidacies[_candidateAddress].voteNumber += 1;}\n        else\n            // If candidate does not exist, this is a neutral vote\n        {ballots[_ballotNumber].candidacies[0x0000].voteNumber += 1;}\n\n        ballots[_ballotNumber].voters[msg.sender].voted = true;\n        \n        ballots[_ballotNumber].totalVoteCount += 1;\n\n        // Associating vote with voter for gamification purposes\n        ballotToVoter[msg.sender].push(_ballotNumber);\n\n        // Event\n        votedOnElectionEvent(msg.sender, _ballotNumber);\n                        \n\n            }\n\n    // The vote is finished and we close it. This triggers the outcome of the vote.\n\n    function endBallot(uint _ballotNumber) public returns (uint winningCandidate){\n            // We check if the vote was already closed\n            require(!ballots[_ballotNumber].wasEnded);\n\n            // Checking that the vote can be closed\n            require(ballots[_ballotNumber].electionEndDate < now);\n\n            // Checking that the vote can be closed\n            if ((ballots[_ballotNumber].candidateList.length == 0) || ballots[_ballotNumber].totalVoteCount == 0)\n            {\n                    ballots[_ballotNumber].wasEnforced = true;\n                    ballots[_ballotNumber].wasEnded = true;\n                    ballotResultException(_ballotNumber, true);\n                    nextElectionDate = now -1;\n                    isBallotCurrentlyRunning = false;\n                    createBallot(ballots[_ballotNumber].name);\n                    return 0;\n            }\n\n\n            // ############## Going through candidates to check the vote count\n            uint winningVoteCount = 0;\n            bool isADraw = false;\n            bool quorumIsObtained = false;\n\n            Organ voterRegistryOrgan = Organ(referenceOrganContract);\n\n            // Check if quorum is obtained. We avoiding divisions here, since Solidity is not good to calculate divisions\n            if (ballots[_ballotNumber].totalVoteCount*100 >= quorumSize*voterRegistryOrgan.getActiveNormNumber())\n            {quorumIsObtained = true;}\n\n            // Going through candidates list\n            for (uint p = 0; p < ballots[_ballotNumber].candidateList.length; p++) {\n                address _candidateAddress = ballots[_ballotNumber].candidateList[p];\n                if (ballots[_ballotNumber].candidacies[_candidateAddress].voteNumber > winningVoteCount) {\n                    winningVoteCount = ballots[_ballotNumber].candidacies[_candidateAddress].voteNumber ;\n                    winningCandidate = p;\n                    isADraw = false;\n                }\n                else if (ballots[_ballotNumber].candidacies[_candidateAddress].voteNumber == winningVoteCount){\n                    isADraw = true;\n                }\n\n            }\n\n            // ############## Updating ballot values if vote concluded\n            ballots[_ballotNumber].wasEnded = true;\n            isBallotCurrentlyRunning = false;\n\n            if (!isADraw && quorumIsObtained)\n                // The ballot completed succesfully\n            {\n\n\n            ballots[_ballotNumber].winningCandidate = ballots[_ballotNumber].candidateList[winningCandidate];\n            ballotWasCounted(_ballotNumber, ballots[_ballotNumber].candidateList, ballots[_ballotNumber].winningCandidate, ballots[_ballotNumber].totalVoteCount);\n\n                }\n                else\n                    // The ballot did not conclude correctly. We reboot the election process.\n                {\n                    ballots[_ballotNumber].wasEnforced = true;\n                    ballotResultException(_ballotNumber, true);\n                    nextElectionDate = now -1;\n                    ballots[_ballotNumber].wasEnded = true;\n                    isBallotCurrentlyRunning = false;\n                    createBallot(ballots[_ballotNumber].name);\n                }\n\n                ballotToCounter[msg.sender].push(_ballotNumber);\n                            \n                \n\n            }\n    \n    function enforceBallot(uint _ballotNumber) public {\n        // Checking if ballot was already enforced\n        require(!ballots[_ballotNumber].wasEnforced );\n        // Checking the ballot was closed\n        require(ballots[_ballotNumber].wasEnded);\n        // Checking that the enforcing date is not later than the end of his supposed mandate\n        if (now > ballots[_ballotNumber].startDate + ballotFrequency)\n        {\n            ballots[_ballotNumber].wasEnforced = true;\n            // TODO add event to log this  \n            ballotResultException(_ballotNumber, false);                  \n            return;\n        }\n\n        // We initiate the Organ interface to add a presidential norm\n\n        Organ presidentialOrgan = Organ(affectedOrganContract);\n        address newPresidentAddress = ballots[_ballotNumber].winningCandidate;\n\n        // Adding new president first\n            // function addNorm (string _name, address _normAdress, bytes32 _ipfsHash, uint8 _hash_function, uint8 _size) public  returns (bool success);\n        if (newPresidentAddress != currentPresident)\n            {\n            Candidacy memory newPresident = ballots[_ballotNumber].candidacies[newPresidentAddress];\n            presidentialOrgan.addNorm(newPresidentAddress, newPresident.name, newPresident.ipfsHash, newPresident.hash_function, newPresident.size );\n\n            \n\n            // Removing former president, only if a former election was conducted.\n            if (totalBallotNumber > 1){\n            presidentialOrgan.remNorm(presidentialOrgan.getAddressPositionInNorm(currentPresident));\n                }\n\n\n            // Modifying procedure variable to count new president\n            currentPresident = newPresidentAddress;\n\n            }\n        cumulatedCandidacies[newPresidentAddress] += 1;\n        ballots[_ballotNumber].wasEnforced = true;\n        // delete openBallotList[_ballotNumber];\n        // currentBallot = 0;\n\n        // Adjusting mandate duration\n        // nextElectionDate = now + ballotFrequency - candidacyDuration - ballotDuration;\n        ballotWasEnforced( newPresidentAddress, _ballotNumber);\n        ballotToEnforcer[msg.sender].push(_ballotNumber);                \n\n         }\n        //////////////////////// Functions to communicate with other contracts\n    \n\n    // ######### Functions to retrieve procedure infos\n\n    function getCandidateList(uint _ballotNumber) public view returns (address[] _candidateList){\n        return ballots[_ballotNumber].candidateList;\n    }\n    function getSingleBallotInfo(uint _ballotNumber) public view returns (string _name, uint _startDate, uint _candidacyEndDate, uint _electionEndDate){\n        return (ballots[_ballotNumber].name, ballots[_ballotNumber].startDate, ballots[_ballotNumber].candidacyEndDate, ballots[_ballotNumber].electionEndDate);\n    }\n    function getBallotResult(uint _ballotNumber) public view returns (bool _wasEnded, bool _wasEnforced, address _winningCandidate, uint _totalVoteCount)\n    { return (ballots[_ballotNumber].wasEnded, ballots[_ballotNumber].wasEnforced, ballots[_ballotNumber].winningCandidate, ballots[_ballotNumber].totalVoteCount);}\n    // function getOpenBallotsList() public view returns (uint[]){return [currentBallot];}\n    function getBallotDates(uint _ballotNumber) public view returns (uint startDate, uint endDate)\n    {return (ballots[_ballotNumber].startDate, ballots[_ballotNumber].electionEndDate);}\n    function haveIVoted(uint _ballotNumber) public view returns (bool IHaveVoted)\n    {return ballots[_ballotNumber].voters[msg.sender].voted;}\n    function getCandidateVoteNumber(uint _ballotNumber, address _candidateAddress) public view returns (uint voteReceived){\n        require(ballots[_ballotNumber].wasEnforced);\n        return ballots[_ballotNumber].candidacies[_candidateAddress].voteNumber;\n    }\n    function getBallotToCreator(address _userAddress) public view returns (uint[])\n    {return ballotToCreator[_userAddress];}    \n    function getBallotToCounter(address _userAddress) public view returns (uint[])\n    {return ballotToCounter[_userAddress];}  \n    function getBallotToEnforcer(address _userAddress) public view returns (uint[])\n    {return ballotToEnforcer[_userAddress];}  \n\n}\n\n",
  "sourcePath": "/Users/henrilieutaud/Documents/Mes documents/97/Workshop/Kelsen/solidity/contracts/procedures/cyclicalManyToOneElectionProcedure.sol",
  "compiler": {
    "name": "solc",
    "version": "0.4.19+commit.c4cbbb05.Emscripten.clang"
  },
  "schemaVersion": "2.0.0",
  "updatedAt": "2018-05-09T14:16:36.335Z"
}