{
  "contractName": "cyclicalManyToOneElectionProcedure",
  "abi": [
    {
      "constant": true,
      "inputs": [
        {
          "name": "",
          "type": "address"
        },
        {
          "name": "",
          "type": "uint256"
        }
      ],
      "name": "ballotToEnforcer",
      "outputs": [
        {
          "name": "",
          "type": "uint256"
        }
      ],
      "payable": false,
      "stateMutability": "view",
      "type": "function"
    },
    {
      "constant": true,
      "inputs": [],
      "name": "procedureTypeNumber",
      "outputs": [
        {
          "name": "",
          "type": "int256"
        }
      ],
      "payable": false,
      "stateMutability": "view",
      "type": "function"
    },
    {
      "constant": true,
      "inputs": [],
      "name": "quorumSize",
      "outputs": [
        {
          "name": "",
          "type": "uint256"
        }
      ],
      "payable": false,
      "stateMutability": "view",
      "type": "function"
    },
    {
      "constant": true,
      "inputs": [],
      "name": "ballotFrequency",
      "outputs": [
        {
          "name": "",
          "type": "uint256"
        }
      ],
      "payable": false,
      "stateMutability": "view",
      "type": "function"
    },
    {
      "constant": true,
      "inputs": [],
      "name": "referenceOrganContract",
      "outputs": [
        {
          "name": "",
          "type": "address"
        }
      ],
      "payable": false,
      "stateMutability": "view",
      "type": "function"
    },
    {
      "constant": true,
      "inputs": [],
      "name": "currentPresident",
      "outputs": [
        {
          "name": "",
          "type": "address"
        }
      ],
      "payable": false,
      "stateMutability": "view",
      "type": "function"
    },
    {
      "constant": true,
      "inputs": [
        {
          "name": "",
          "type": "address"
        },
        {
          "name": "",
          "type": "uint256"
        }
      ],
      "name": "ballotToVoter",
      "outputs": [
        {
          "name": "",
          "type": "uint256"
        }
      ],
      "payable": false,
      "stateMutability": "view",
      "type": "function"
    },
    {
      "constant": true,
      "inputs": [
        {
          "name": "",
          "type": "uint256"
        }
      ],
      "name": "ballots",
      "outputs": [
        {
          "name": "creator",
          "type": "address"
        },
        {
          "name": "name",
          "type": "string"
        },
        {
          "name": "startDate",
          "type": "uint256"
        },
        {
          "name": "candidacyEndDate",
          "type": "uint256"
        },
        {
          "name": "electionEndDate",
          "type": "uint256"
        },
        {
          "name": "wasEnded",
          "type": "bool"
        },
        {
          "name": "wasEnforced",
          "type": "bool"
        },
        {
          "name": "winningCandidate",
          "type": "address"
        },
        {
          "name": "totalVoteCount",
          "type": "uint256"
        }
      ],
      "payable": false,
      "stateMutability": "view",
      "type": "function"
    },
    {
      "constant": true,
      "inputs": [],
      "name": "kelsenVersionNumber",
      "outputs": [
        {
          "name": "",
          "type": "int256"
        }
      ],
      "payable": false,
      "stateMutability": "view",
      "type": "function"
    },
    {
      "constant": true,
      "inputs": [],
      "name": "lastElectionNumber",
      "outputs": [
        {
          "name": "",
          "type": "uint256"
        }
      ],
      "payable": false,
      "stateMutability": "view",
      "type": "function"
    },
    {
      "constant": true,
      "inputs": [
        {
          "name": "",
          "type": "address"
        },
        {
          "name": "",
          "type": "uint256"
        }
      ],
      "name": "ballotToCreator",
      "outputs": [
        {
          "name": "",
          "type": "uint256"
        }
      ],
      "payable": false,
      "stateMutability": "view",
      "type": "function"
    },
    {
      "constant": true,
      "inputs": [
        {
          "name": "",
          "type": "address"
        }
      ],
      "name": "cumulatedCandidacies",
      "outputs": [
        {
          "name": "",
          "type": "uint256"
        }
      ],
      "payable": false,
      "stateMutability": "view",
      "type": "function"
    },
    {
      "constant": true,
      "inputs": [],
      "name": "isAnOrgan",
      "outputs": [
        {
          "name": "",
          "type": "bool"
        }
      ],
      "payable": false,
      "stateMutability": "view",
      "type": "function"
    },
    {
      "constant": true,
      "inputs": [],
      "name": "ballotDuration",
      "outputs": [
        {
          "name": "",
          "type": "uint256"
        }
      ],
      "payable": false,
      "stateMutability": "view",
      "type": "function"
    },
    {
      "constant": true,
      "inputs": [],
      "name": "candidacyDuration",
      "outputs": [
        {
          "name": "",
          "type": "uint256"
        }
      ],
      "payable": false,
      "stateMutability": "view",
      "type": "function"
    },
    {
      "constant": true,
      "inputs": [],
      "name": "isBallotCurrentlyRunning",
      "outputs": [
        {
          "name": "",
          "type": "bool"
        }
      ],
      "payable": false,
      "stateMutability": "view",
      "type": "function"
    },
    {
      "constant": true,
      "inputs": [],
      "name": "totalBallotNumber",
      "outputs": [
        {
          "name": "",
          "type": "uint256"
        }
      ],
      "payable": false,
      "stateMutability": "view",
      "type": "function"
    },
    {
      "constant": true,
      "inputs": [],
      "name": "neutralVoteAccepted",
      "outputs": [
        {
          "name": "",
          "type": "bool"
        }
      ],
      "payable": false,
      "stateMutability": "view",
      "type": "function"
    },
    {
      "constant": true,
      "inputs": [],
      "name": "nextElectionDate",
      "outputs": [
        {
          "name": "",
          "type": "uint256"
        }
      ],
      "payable": false,
      "stateMutability": "view",
      "type": "function"
    },
    {
      "constant": true,
      "inputs": [],
      "name": "reelectionMaximum",
      "outputs": [
        {
          "name": "",
          "type": "uint256"
        }
      ],
      "payable": false,
      "stateMutability": "view",
      "type": "function"
    },
    {
      "constant": true,
      "inputs": [
        {
          "name": "",
          "type": "address"
        },
        {
          "name": "",
          "type": "uint256"
        }
      ],
      "name": "ballotToCounter",
      "outputs": [
        {
          "name": "",
          "type": "uint256"
        }
      ],
      "payable": false,
      "stateMutability": "view",
      "type": "function"
    },
    {
      "constant": true,
      "inputs": [],
      "name": "isAProcedure",
      "outputs": [
        {
          "name": "",
          "type": "bool"
        }
      ],
      "payable": false,
      "stateMutability": "view",
      "type": "function"
    },
    {
      "constant": true,
      "inputs": [
        {
          "name": "",
          "type": "uint256"
        }
      ],
      "name": "linkedOrgans",
      "outputs": [
        {
          "name": "",
          "type": "address"
        }
      ],
      "payable": false,
      "stateMutability": "view",
      "type": "function"
    },
    {
      "constant": true,
      "inputs": [],
      "name": "affectedOrganContract",
      "outputs": [
        {
          "name": "",
          "type": "address"
        }
      ],
      "payable": false,
      "stateMutability": "view",
      "type": "function"
    },
    {
      "anonymous": false,
      "inputs": [
        {
          "indexed": false,
          "name": "_from",
          "type": "address"
        },
        {
          "indexed": false,
          "name": "_name",
          "type": "string"
        },
        {
          "indexed": false,
          "name": "_startDate",
          "type": "uint256"
        },
        {
          "indexed": false,
          "name": "_candidacyEndDate",
          "type": "uint256"
        },
        {
          "indexed": false,
          "name": "_endDate",
          "type": "uint256"
        },
        {
          "indexed": false,
          "name": "_ballotNumber",
          "type": "uint256"
        }
      ],
      "name": "ballotCreationEvent",
      "type": "event"
    },
    {
      "anonymous": false,
      "inputs": [
        {
          "indexed": false,
          "name": "_ballotNumber",
          "type": "uint256"
        },
        {
          "indexed": false,
          "name": "_candidateAddress",
          "type": "address"
        },
        {
          "indexed": false,
          "name": "_name",
          "type": "string"
        },
        {
          "indexed": false,
          "name": "_ipfsHash",
          "type": "bytes32"
        },
        {
          "indexed": false,
          "name": "_hash_function",
          "type": "uint8"
        },
        {
          "indexed": false,
          "name": "_size",
          "type": "uint8"
        }
      ],
      "name": "presentCandidacyEvent",
      "type": "event"
    },
    {
      "anonymous": false,
      "inputs": [
        {
          "indexed": false,
          "name": "_from",
          "type": "address"
        },
        {
          "indexed": false,
          "name": "_ballotNumber",
          "type": "uint256"
        }
      ],
      "name": "votedOnElectionEvent",
      "type": "event"
    },
    {
      "anonymous": false,
      "inputs": [
        {
          "indexed": false,
          "name": "_ballotNumber",
          "type": "uint256"
        },
        {
          "indexed": false,
          "name": "_candidateList",
          "type": "address[]"
        },
        {
          "indexed": false,
          "name": "_winningCandidate",
          "type": "address"
        },
        {
          "indexed": false,
          "name": "_totalVoteCount",
          "type": "uint256"
        }
      ],
      "name": "ballotWasCounted",
      "type": "event"
    },
    {
      "anonymous": false,
      "inputs": [
        {
          "indexed": false,
          "name": "_ballotNumber",
          "type": "uint256"
        },
        {
          "indexed": false,
          "name": "_wasRebooted",
          "type": "bool"
        }
      ],
      "name": "ballotResultException",
      "type": "event"
    },
    {
      "anonymous": false,
      "inputs": [
        {
          "indexed": false,
          "name": "_winningCandidate",
          "type": "address"
        },
        {
          "indexed": false,
          "name": "_ballotNumber",
          "type": "uint256"
        }
      ],
      "name": "ballotWasEnforced",
      "type": "event"
    },
    {
      "constant": false,
      "inputs": [
        {
          "name": "_ballotName",
          "type": "string"
        }
      ],
      "name": "createBallot",
      "outputs": [
        {
          "name": "ballotNumber",
          "type": "uint256"
        }
      ],
      "payable": false,
      "stateMutability": "nonpayable",
      "type": "function"
    },
    {
      "constant": false,
      "inputs": [
        {
          "name": "_ballotNumber",
          "type": "uint256"
        },
        {
          "name": "_name",
          "type": "string"
        },
        {
          "name": "_ipfsHash",
          "type": "bytes32"
        },
        {
          "name": "_hash_function",
          "type": "uint8"
        },
        {
          "name": "_size",
          "type": "uint8"
        }
      ],
      "name": "presentCandidacy",
      "outputs": [],
      "payable": false,
      "stateMutability": "nonpayable",
      "type": "function"
    },
    {
      "constant": false,
      "inputs": [
        {
          "name": "_ballotNumber",
          "type": "uint256"
        },
        {
          "name": "_candidateAddress",
          "type": "address"
        }
      ],
      "name": "vote",
      "outputs": [],
      "payable": false,
      "stateMutability": "nonpayable",
      "type": "function"
    },
    {
      "constant": false,
      "inputs": [
        {
          "name": "_ballotNumber",
          "type": "uint256"
        }
      ],
      "name": "endBallot",
      "outputs": [
        {
          "name": "winningCandidate",
          "type": "uint256"
        }
      ],
      "payable": false,
      "stateMutability": "nonpayable",
      "type": "function"
    },
    {
      "constant": false,
      "inputs": [
        {
          "name": "_ballotNumber",
          "type": "uint256"
        }
      ],
      "name": "enforceBallot",
      "outputs": [],
      "payable": false,
      "stateMutability": "nonpayable",
      "type": "function"
    },
    {
      "constant": true,
      "inputs": [
        {
          "name": "_ballotNumber",
          "type": "uint256"
        }
      ],
      "name": "getCandidateList",
      "outputs": [
        {
          "name": "_candidateList",
          "type": "address[]"
        }
      ],
      "payable": false,
      "stateMutability": "view",
      "type": "function"
    },
    {
      "constant": true,
      "inputs": [
        {
          "name": "_ballotNumber",
          "type": "uint256"
        }
      ],
      "name": "getSingleBallotInfo",
      "outputs": [
        {
          "name": "_name",
          "type": "string"
        },
        {
          "name": "_startDate",
          "type": "uint256"
        },
        {
          "name": "_candidacyEndDate",
          "type": "uint256"
        },
        {
          "name": "_electionEndDate",
          "type": "uint256"
        }
      ],
      "payable": false,
      "stateMutability": "view",
      "type": "function"
    },
    {
      "constant": true,
      "inputs": [
        {
          "name": "_ballotNumber",
          "type": "uint256"
        }
      ],
      "name": "getBallotStatus",
      "outputs": [
        {
          "name": "_wasEnded",
          "type": "bool"
        },
        {
          "name": "_wasEnforced",
          "type": "bool"
        },
        {
          "name": "_winningCandidate",
          "type": "address"
        },
        {
          "name": "_totalVoteCount",
          "type": "uint256"
        }
      ],
      "payable": false,
      "stateMutability": "view",
      "type": "function"
    },
    {
      "constant": true,
      "inputs": [
        {
          "name": "_ballotNumber",
          "type": "uint256"
        }
      ],
      "name": "getBallotDates",
      "outputs": [
        {
          "name": "startDate",
          "type": "uint256"
        },
        {
          "name": "endDate",
          "type": "uint256"
        }
      ],
      "payable": false,
      "stateMutability": "view",
      "type": "function"
    },
    {
      "constant": true,
      "inputs": [
        {
          "name": "_ballotNumber",
          "type": "uint256"
        }
      ],
      "name": "getBallotStats",
      "outputs": [
        {
          "name": "_votersNumber",
          "type": "uint256"
        },
        {
          "name": "_totalVoteCount",
          "type": "uint256"
        }
      ],
      "payable": false,
      "stateMutability": "view",
      "type": "function"
    },
    {
      "constant": true,
      "inputs": [
        {
          "name": "_ballotNumber",
          "type": "uint256"
        }
      ],
      "name": "haveIVoted",
      "outputs": [
        {
          "name": "IHaveVoted",
          "type": "bool"
        }
      ],
      "payable": false,
      "stateMutability": "view",
      "type": "function"
    },
    {
      "constant": true,
      "inputs": [
        {
          "name": "_ballotNumber",
          "type": "uint256"
        },
        {
          "name": "_candidateAddress",
          "type": "address"
        }
      ],
      "name": "getCandidateVoteNumber",
      "outputs": [
        {
          "name": "voteReceived",
          "type": "uint256"
        }
      ],
      "payable": false,
      "stateMutability": "view",
      "type": "function"
    },
    {
      "constant": true,
      "inputs": [
        {
          "name": "_userAddress",
          "type": "address"
        }
      ],
      "name": "getBallotToCreator",
      "outputs": [
        {
          "name": "",
          "type": "uint256[]"
        }
      ],
      "payable": false,
      "stateMutability": "view",
      "type": "function"
    },
    {
      "constant": true,
      "inputs": [
        {
          "name": "_userAddress",
          "type": "address"
        }
      ],
      "name": "getBallotToCounter",
      "outputs": [
        {
          "name": "",
          "type": "uint256[]"
        }
      ],
      "payable": false,
      "stateMutability": "view",
      "type": "function"
    },
    {
      "constant": true,
      "inputs": [
        {
          "name": "_userAddress",
          "type": "address"
        }
      ],
      "name": "getBallotToEnforcer",
      "outputs": [
        {
          "name": "",
          "type": "uint256[]"
        }
      ],
      "payable": false,
      "stateMutability": "view",
      "type": "function"
    },
    {
      "constant": true,
      "inputs": [],
      "name": "getLinkedOrgans",
      "outputs": [
        {
          "name": "_linkedOrgans",
          "type": "address[]"
        }
      ],
      "payable": false,
      "stateMutability": "view",
      "type": "function"
    }
  ],
  "bytecode": "0x60606040526000600460006101000a81548160ff0219169083151502179055506001600460016101000a81548160ff0219169083151502179055506001600555341561004a57600080fd5b613ede806100596000396000f3006060604052600436106101ee576000357c0100000000000000000000000000000000000000000000000000000000900463ffffffff16806302d947ef146101f357806310f2fa94146102355780631899706d1461027357806318fe2d73146102c957806319060ef11461037a5780632647d7f9146103b85780633068ef4d146103e1578063322af16f1461040a578063325bc6ea1461043357806334682098146104c1578063446192af1461051757806346a865761461056c57806347ae53e2146105dd57806348fcc1441461063257806356453fbf146106695780635c632b38146106bf5780635dbe4d2814610810578063618bde0a14610839578063680aee50146108b15780636be87354146108da5780637ac53b27146109305780638cd1ff51146109b0578063a4c797f7146109d3578063a8bef97a14610a20578063ab8f953614610a4d578063ac37af1c14610a76578063b064124d14610ab1578063b0c2dede14610b3f578063b4b71cd214610b68578063b9f43cc514610b95578063bdf7f47214610bbe578063bf0fac8314610beb578063d0746b7a14610c79578063d9b84d4c14610ca2578063de0db92e14610ccb578063e570050114610d56578063e76f506e14610dc0578063e80b30a514610e16578063f2edc61614610e43578063fe7800e114610ea6575b600080fd5b34156101fe57600080fd5b610233600480803590602001909190803573ffffffffffffffffffffffffffffffffffffffff16906020019091905050610efb565b005b341561024057600080fd5b61025660048080359060200190919050506113be565b604051808381526020018281526020019250505060405180910390f35b341561027e57600080fd5b6102b3600480803573ffffffffffffffffffffffffffffffffffffffff1690602001909190803590602001909190505061140c565b6040518082815260200191505060405180910390f35b34156102d457600080fd5b6102ea600480803590602001909190505061143d565b6040518080602001858152602001848152602001838152602001828103825286818151815260200191508051906020019080838360005b8381101561033c578082015181840152602081019050610321565b50505050905090810190601f1680156103695780820380516001836020036101000a031916815260200191505b509550505050505060405180910390f35b341561038557600080fd5b61039b6004808035906020019091905050611578565b604051808381526020018281526020019250505060405180910390f35b34156103c357600080fd5b6103cb6115c6565b6040518082815260200191505060405180910390f35b34156103ec57600080fd5b6103f46115cc565b6040518082815260200191505060405180910390f35b341561041557600080fd5b61041d6115d2565b6040518082815260200191505060405180910390f35b341561043e57600080fd5b61046a600480803573ffffffffffffffffffffffffffffffffffffffff169060200190919050506115d8565b6040518080602001828103825283818151815260200191508051906020019060200280838360005b838110156104ad578082015181840152602081019050610492565b505050509050019250505060405180910390f35b34156104cc57600080fd5b610501600480803590602001909190803573ffffffffffffffffffffffffffffffffffffffff16906020019091905050611675565b6040518082815260200191505060405180910390f35b341561052257600080fd5b61052a611719565b604051808273ffffffffffffffffffffffffffffffffffffffff1673ffffffffffffffffffffffffffffffffffffffff16815260200191505060405180910390f35b341561057757600080fd5b6105c7600480803590602001908201803590602001908080601f0160208091040260200160405190810160405280939291908181526020018383808284378201915050505050509190505061173f565b6040518082815260200191505060405180910390f35b34156105e857600080fd5b6105f0611b9b565b604051808273ffffffffffffffffffffffffffffffffffffffff1673ffffffffffffffffffffffffffffffffffffffff16815260200191505060405180910390f35b341561063d57600080fd5b6106536004808035906020019091905050611bc1565b6040518082815260200191505060405180910390f35b341561067457600080fd5b6106a9600480803573ffffffffffffffffffffffffffffffffffffffff16906020019091908035906020019091905050612598565b6040518082815260200191505060405180910390f35b34156106ca57600080fd5b6106e060048080359060200190919050506125c9565b604051808a73ffffffffffffffffffffffffffffffffffffffff1673ffffffffffffffffffffffffffffffffffffffff1681526020018060200189815260200188815260200187815260200186151515158152602001851515151581526020018473ffffffffffffffffffffffffffffffffffffffff1673ffffffffffffffffffffffffffffffffffffffff16815260200183815260200182810382528a8181546001816001161561010002031660029004815260200191508054600181600116156101000203166002900480156107f95780601f106107ce576101008083540402835291602001916107f9565b820191906000526020600020905b8154815290600101906020018083116107dc57829003601f168201915b50509a505050505050505050505060405180910390f35b341561081b57600080fd5b61082361267f565b6040518082815260200191505060405180910390f35b341561084457600080fd5b61085a6004808035906020019091905050612685565b6040518080602001828103825283818151815260200191508051906020019060200280838360005b8381101561089d578082015181840152602081019050610882565b505050509050019250505060405180910390f35b34156108bc57600080fd5b6108c4612739565b6040518082815260200191505060405180910390f35b34156108e557600080fd5b61091a600480803573ffffffffffffffffffffffffffffffffffffffff1690602001909190803590602001909190505061273f565b6040518082815260200191505060405180910390f35b341561093b57600080fd5b6109516004808035906020019091905050612770565b6040518085151515158152602001841515151581526020018373ffffffffffffffffffffffffffffffffffffffff1673ffffffffffffffffffffffffffffffffffffffff16815260200182815260200194505050505060405180910390f35b34156109bb57600080fd5b6109d16004808035906020019091905050612843565b005b34156109de57600080fd5b610a0a600480803573ffffffffffffffffffffffffffffffffffffffff16906020019091905050613007565b6040518082815260200191505060405180910390f35b3415610a2b57600080fd5b610a3361301f565b604051808215151515815260200191505060405180910390f35b3415610a5857600080fd5b610a60613032565b6040518082815260200191505060405180910390f35b3415610a8157600080fd5b610a976004808035906020019091905050613038565b604051808215151515815260200191505060405180910390f35b3415610abc57600080fd5b610ae8600480803573ffffffffffffffffffffffffffffffffffffffff169060200190919050506130af565b6040518080602001828103825283818151815260200191508051906020019060200280838360005b83811015610b2b578082015181840152602081019050610b10565b505050509050019250505060405180910390f35b3415610b4a57600080fd5b610b5261314c565b6040518082815260200191505060405180910390f35b3415610b7357600080fd5b610b7b613152565b604051808215151515815260200191505060405180910390f35b3415610ba057600080fd5b610ba8613165565b6040518082815260200191505060405180910390f35b3415610bc957600080fd5b610bd161316b565b604051808215151515815260200191505060405180910390f35b3415610bf657600080fd5b610c22600480803573ffffffffffffffffffffffffffffffffffffffff1690602001909190505061317e565b6040518080602001828103825283818151815260200191508051906020019060200280838360005b83811015610c65578082015181840152602081019050610c4a565b505050509050019250505060405180910390f35b3415610c8457600080fd5b610c8c61321b565b6040518082815260200191505060405180910390f35b3415610cad57600080fd5b610cb5613221565b6040518082815260200191505060405180910390f35b3415610cd657600080fd5b610d54600480803590602001909190803590602001908201803590602001908080601f016020809104026020016040519081016040528093929190818152602001838380828437820191505050505050919080356000191690602001909190803560ff1690602001909190803560ff16906020019091905050613227565b005b3415610d6157600080fd5b610d69613888565b6040518080602001828103825283818151815260200191508051906020019060200280838360005b83811015610dac578082015181840152602081019050610d91565b505050509050019250505060405180910390f35b3415610dcb57600080fd5b610e00600480803573ffffffffffffffffffffffffffffffffffffffff1690602001909190803590602001909190505061391c565b6040518082815260200191505060405180910390f35b3415610e2157600080fd5b610e2961394d565b604051808215151515815260200191505060405180910390f35b3415610e4e57600080fd5b610e646004808035906020019091905050613960565b604051808273ffffffffffffffffffffffffffffffffffffffff1673ffffffffffffffffffffffffffffffffffffffff16815260200191505060405180910390f35b3415610eb157600080fd5b610eb961399f565b604051808273ffffffffffffffffffffffffffffffffffffffff1673ffffffffffffffffffffffffffffffffffffffff16815260200191505060405180910390f35b6000600760009054906101000a900473ffffffffffffffffffffffffffffffffffffffff1690508073ffffffffffffffffffffffffffffffffffffffff1663d323a4f8336000604051602001526040518263ffffffff167c0100000000000000000000000000000000000000000000000000000000028152600401808273ffffffffffffffffffffffffffffffffffffffff1673ffffffffffffffffffffffffffffffffffffffff168152602001915050602060405180830381600087803b1515610fc557600080fd5b6102c65a03f11515610fd657600080fd5b505050604051805190501515610feb57600080fd5b60009050601483815481101515610ffe57fe5b90600052602060002090600a020160020160003373ffffffffffffffffffffffffffffffffffffffff1673ffffffffffffffffffffffffffffffffffffffff16815260200190815260200160002060000160009054906101000a900460ff1615151561106957600080fd5b60148381548110151561107857fe5b90600052602060002090600a020160080160009054906101000a900460ff161515156110a357600080fd5b426014848154811015156110b357fe5b90600052602060002090600a0201600601541015156110d157600080fd5b426014848154811015156110e157fe5b90600052602060002090600a0201600701541115156110ff57600080fd5b60148381548110151561110e57fe5b90600052602060002090600a020160020160008373ffffffffffffffffffffffffffffffffffffffff1673ffffffffffffffffffffffffffffffffffffffff16815260200190815260200160002060000160019054906101000a900460ff16156111e657600160148481548110151561118357fe5b90600052602060002090600a020160030160008473ffffffffffffffffffffffffffffffffffffffff1673ffffffffffffffffffffffffffffffffffffffff16815260200190815260200160002060030160008282540192505081905550611240565b60016014848154811015156111f757fe5b90600052602060002090600a020160030160008073ffffffffffffffffffffffffffffffffffffffff168152602001908152602001600020600301600082825401925050819055505b600160148481548110151561125157fe5b90600052602060002090600a020160020160003373ffffffffffffffffffffffffffffffffffffffff1673ffffffffffffffffffffffffffffffffffffffff16815260200190815260200160002060000160006101000a81548160ff02191690831515021790555060016014848154811015156112ca57fe5b90600052602060002090600a020160090160008282540192505081905550601760003373ffffffffffffffffffffffffffffffffffffffff1673ffffffffffffffffffffffffffffffffffffffff168152602001908152602001600020805480600101828161133991906139c5565b9160005260206000209001600085909190915055507f64bbf4ffdc825afb14eb0f410f1141b85c43dfa5ee8ae25eb7cdf85ec997cd8f3384604051808373ffffffffffffffffffffffffffffffffffffffff1673ffffffffffffffffffffffffffffffffffffffff1681526020018281526020019250505060405180910390a1505050565b6000806014838154811015156113d057fe5b90600052602060002090600a0201600901546014848154811015156113f157fe5b90600052602060002090600a02016009015491509150915091565b60196020528160005260406000208181548110151561142757fe5b9060005260206000209001600091509150505481565b6114456139f1565b600080600060148581548110151561145957fe5b90600052602060002090600a020160010160148681548110151561147957fe5b90600052602060002090600a02016005015460148781548110151561149a57fe5b90600052602060002090600a0201600601546014888154811015156114bb57fe5b90600052602060002090600a020160070154838054600181600116156101000203166002900480601f0160208091040260200160405190810160405280929190818152602001828054600181600116156101000203166002900480156115625780601f1061153757610100808354040283529160200191611562565b820191906000526020600020905b81548152906001019060200180831161154557829003601f168201915b5050505050935093509350935093509193509193565b60008060148381548110151561158a57fe5b90600052602060002090600a0201600501546014848154811015156115ab57fe5b90600052602060002090600a02016007015491509150915091565b60055481565b60105481565b60095481565b6115e0613a05565b601960008373ffffffffffffffffffffffffffffffffffffffff1673ffffffffffffffffffffffffffffffffffffffff16815260200190815260200160002080548060200260200160405190810160405280929190818152602001828054801561166957602002820191906000526020600020905b815481526020019060010190808311611655575b50505050509050919050565b600060148381548110151561168657fe5b90600052602060002090600a020160080160019054906101000a900460ff1615156116b057600080fd5b6014838154811015156116bf57fe5b90600052602060002090600a020160030160008373ffffffffffffffffffffffffffffffffffffffff1673ffffffffffffffffffffffffffffffffffffffff16815260200190815260200160002060030154905092915050565b600760009054906101000a900473ffffffffffffffffffffffffffffffffffffffff1681565b6000611749613a19565b60001515601160009054906101000a900460ff16151514151561176b57600080fd5b600a544211151561177b57600080fd5b600060148054905011156117c557601460135481548110151561179a57fe5b90600052602060002090600a020160080160009054906101000a900460ff1615156117c457600080fd5b5b33816000019073ffffffffffffffffffffffffffffffffffffffff16908173ffffffffffffffffffffffffffffffffffffffff168152505082816020018190525042816060018181525050600e544201816080018181525050600c54600e544201018160a001818152505060008160c0019015159081151581525050600081610100019073ffffffffffffffffffffffffffffffffffffffff16908173ffffffffffffffffffffffffffffffffffffffff16815250506000816101200181815250506014805480600101828161189b9190613aa9565b91600052602060002090600a0201600083909190915060008201518160000160006101000a81548173ffffffffffffffffffffffffffffffffffffffff021916908373ffffffffffffffffffffffffffffffffffffffff1602179055506020820151816001019080519060200190611914929190613adb565b506040820151816004019080519060200190611931929190613b5b565b50606082015181600501556080820151816006015560a0820151816007015560c08201518160080160006101000a81548160ff02191690831515021790555060e08201518160080160016101000a81548160ff0219169083151502179055506101008201518160080160026101000a81548173ffffffffffffffffffffffffffffffffffffffff021916908373ffffffffffffffffffffffffffffffffffffffff1602179055506101208201518160090155505050600160148054905003915060016012600082825401925050819055506001601160006101000a81548160ff0219169083151502179055506009544201600a81905550816013819055507fdb79682a2650346f5fbfd232c0059da59a89b2a64c3fb7d75ccf58ff939be0d5338260200151836060015184608001518560a0015187604051808773ffffffffffffffffffffffffffffffffffffffff1673ffffffffffffffffffffffffffffffffffffffff16815260200180602001868152602001858152602001848152602001838152602001828103825287818151815260200191508051906020019080838360005b83811015611af0578082015181840152602081019050611ad5565b50505050905090810190601f168015611b1d5780820380516001836020036101000a031916815260200191505b5097505050505050505060405180910390a1601660003373ffffffffffffffffffffffffffffffffffffffff1673ffffffffffffffffffffffffffffffffffffffff1681526020019081526020016000208054806001018281611b8091906139c5565b91600052602060002090016000849091909150555050919050565b600b60009054906101000a900473ffffffffffffffffffffffffffffffffffffffff1681565b6000806000806000806000601488815481101515611bdb57fe5b90600052602060002090600a020160080160009054906101000a900460ff16151515611c0657600080fd5b42601489815481101515611c1657fe5b90600052602060002090600a020160070154101515611c3457600080fd5b6000601489815481101515611c4557fe5b90600052602060002090600a0201600401805490501480611c8657506000601489815481101515611c7257fe5b90600052602060002090600a020160090154145b15611e31576001601489815481101515611c9c57fe5b90600052602060002090600a020160080160016101000a81548160ff0219169083151502179055506001601489815481101515611cd557fe5b90600052602060002090600a020160080160006101000a81548160ff0219169083151502179055507fd3844af45b09228a143d3e565e053517b81b3e6b1ee574de327db2ba09eebefe88600160405180838152602001821515151581526020019250505060405180910390a160014203600a819055506000601160006101000a81548160ff021916908315150217905550611e27601489815481101515611d7857fe5b90600052602060002090600a02016001018054600181600116156101000203166002900480601f016020809104026020016040519081016040528092919081815260200182805460018160011615610100020316600290048015611e1d5780601f10611df257610100808354040283529160200191611e1d565b820191906000526020600020905b815481529060010190602001808311611e0057829003601f168201915b505050505061173f565b506000965061258d565b600095506000945060009350600760009054906101000a900473ffffffffffffffffffffffffffffffffffffffff1692508273ffffffffffffffffffffffffffffffffffffffff1663234d34de6000604051602001526040518163ffffffff167c0100000000000000000000000000000000000000000000000000000000028152600401602060405180830381600087803b1515611ece57600080fd5b6102c65a03f11515611edf57600080fd5b5050506040518051905060105402606460148a815481101515611efe57fe5b90600052602060002090600a02016009015402101515611f1d57600193505b600091505b601488815481101515611f3157fe5b90600052602060002090600a0201600401805490508210156120fa57601488815481101515611f5c57fe5b90600052602060002090600a020160040182815481101515611f7a57fe5b906000526020600020900160009054906101000a900473ffffffffffffffffffffffffffffffffffffffff16905085601489815481101515611fb857fe5b90600052602060002090600a020160030160008373ffffffffffffffffffffffffffffffffffffffff1673ffffffffffffffffffffffffffffffffffffffff16815260200190815260200160002060030154111561207f5760148881548110151561201f57fe5b90600052602060002090600a020160030160008273ffffffffffffffffffffffffffffffffffffffff1673ffffffffffffffffffffffffffffffffffffffff168152602001908152602001600020600301549550819650600094506120ed565b8560148981548110151561208f57fe5b90600052602060002090600a020160030160008373ffffffffffffffffffffffffffffffffffffffff1673ffffffffffffffffffffffffffffffffffffffff1681526020019081526020016000206003015414156120ec57600194505b5b8180600101925050611f22565b600160148981548110151561210b57fe5b90600052602060002090600a020160080160006101000a81548160ff0219169083151502179055506000601160006101000a81548160ff021916908315150217905550841580156121595750835b156123885760148881548110151561216d57fe5b90600052602060002090600a02016004018781548110151561218b57fe5b906000526020600020900160009054906101000a900473ffffffffffffffffffffffffffffffffffffffff166014898154811015156121c657fe5b90600052602060002090600a020160080160026101000a81548173ffffffffffffffffffffffffffffffffffffffff021916908373ffffffffffffffffffffffffffffffffffffffff1602179055507f88749fd3de596f4dc6d65f95e558c03b325f183429445297fac0e261535772888860148a81548110151561224657fe5b90600052602060002090600a020160040160148b81548110151561226657fe5b90600052602060002090600a020160080160029054906101000a900473ffffffffffffffffffffffffffffffffffffffff1660148c8154811015156122a757fe5b90600052602060002090600a02016009015460405180858152602001806020018473ffffffffffffffffffffffffffffffffffffffff1673ffffffffffffffffffffffffffffffffffffffff168152602001838152602001828103825285818154815260200191508054801561237257602002820191906000526020600020905b8160009054906101000a900473ffffffffffffffffffffffffffffffffffffffff1673ffffffffffffffffffffffffffffffffffffffff1681526020019060010190808311612328575b50509550505050505060405180910390a1612526565b600160148981548110151561239957fe5b90600052602060002090600a020160080160016101000a81548160ff0219169083151502179055507fd3844af45b09228a143d3e565e053517b81b3e6b1ee574de327db2ba09eebefe88600160405180838152602001821515151581526020019250505060405180910390a160014203600a81905550600160148981548110151561242057fe5b90600052602060002090600a020160080160006101000a81548160ff0219169083151502179055506000601160006101000a81548160ff02191690831515021790555061252460148981548110151561247557fe5b90600052602060002090600a02016001018054600181600116156101000203166002900480601f01602080910402602001604051908101604052809291908181526020018280546001816001161561010002031660029004801561251a5780601f106124ef5761010080835404028352916020019161251a565b820191906000526020600020905b8154815290600101906020018083116124fd57829003601f168201915b505050505061173f565b505b601860003373ffffffffffffffffffffffffffffffffffffffff1673ffffffffffffffffffffffffffffffffffffffff168152602001908152602001600020805480600101828161257791906139c5565b916000526020600020900160008a909190915055505b505050505050919050565b6017602052816000526040600020818154811015156125b357fe5b9060005260206000209001600091509150505481565b6014818154811015156125d857fe5b90600052602060002090600a02016000915090508060000160009054906101000a900473ffffffffffffffffffffffffffffffffffffffff169080600101908060050154908060060154908060070154908060080160009054906101000a900460ff16908060080160019054906101000a900460ff16908060080160029054906101000a900473ffffffffffffffffffffffffffffffffffffffff16908060090154905089565b60005481565b61268d613be5565b60148281548110151561269c57fe5b90600052602060002090600a020160040180548060200260200160405190810160405280929190818152602001828054801561272d57602002820191906000526020600020905b8160009054906101000a900473ffffffffffffffffffffffffffffffffffffffff1673ffffffffffffffffffffffffffffffffffffffff16815260200190600101908083116126e3575b50505050509050919050565b60135481565b60166020528160005260406000208181548110151561275a57fe5b9060005260206000209001600091509150505481565b60008060008060148581548110151561278557fe5b90600052602060002090600a020160080160009054906101000a900460ff166014868154811015156127b357fe5b90600052602060002090600a020160080160019054906101000a900460ff166014878154811015156127e157fe5b90600052602060002090600a020160080160029054906101000a900473ffffffffffffffffffffffffffffffffffffffff1660148881548110151561282257fe5b90600052602060002090600a02016009015493509350935093509193509193565b60008061284e613bf9565b60148481548110151561285d57fe5b90600052602060002090600a020160080160019054906101000a900460ff1615151561288857600080fd5b60148481548110151561289757fe5b90600052602060002090600a020160080160009054906101000a900460ff1615156128c157600080fd5b6009546014858154811015156128d357fe5b90600052602060002090600a0201600501540142111561296f5760016014858154811015156128fe57fe5b90600052602060002090600a020160080160016101000a81548160ff0219169083151502179055507fd3844af45b09228a143d3e565e053517b81b3e6b1ee574de327db2ba09eebefe84600060405180838152602001821515151581526020019250505060405180910390a1613001565b600660009054906101000a900473ffffffffffffffffffffffffffffffffffffffff1692506014848154811015156129a357fe5b90600052602060002090600a020160080160029054906101000a900473ffffffffffffffffffffffffffffffffffffffff169150600b60009054906101000a900473ffffffffffffffffffffffffffffffffffffffff1673ffffffffffffffffffffffffffffffffffffffff168273ffffffffffffffffffffffffffffffffffffffff16141515612ea857601484815481101515612a3d57fe5b90600052602060002090600a020160030160008373ffffffffffffffffffffffffffffffffffffffff1673ffffffffffffffffffffffffffffffffffffffff16815260200190815260200160002060a06040519081016040529081600082018054600181600116156101000203166002900480601f016020809104026020016040519081016040528092919081815260200182805460018160011615610100020316600290048015612b305780601f10612b0557610100808354040283529160200191612b30565b820191906000526020600020905b815481529060010190602001808311612b1357829003601f168201915b505050505081526020016001820154600019166000191681526020016002820160009054906101000a900460ff1660ff1660ff1681526020016002820160019054906101000a900460ff1660ff1660ff16815260200160038201548152505090508273ffffffffffffffffffffffffffffffffffffffff1663696c52198383600001518460200151856040015186606001516000604051602001526040518663ffffffff167c0100000000000000000000000000000000000000000000000000000000028152600401808673ffffffffffffffffffffffffffffffffffffffff1673ffffffffffffffffffffffffffffffffffffffff1681526020018060200185600019166000191681526020018460ff1660ff1681526020018360ff1660ff168152602001828103825286818151815260200191508051906020019080838360005b83811015612c8e578082015181840152602081019050612c73565b50505050905090810190601f168015612cbb5780820380516001836020036101000a031916815260200191505b509650505050505050602060405180830381600087803b1515612cdd57600080fd5b6102c65a03f11515612cee57600080fd5b505050604051805190505060016012541115612e66578273ffffffffffffffffffffffffffffffffffffffff16630e9defff8473ffffffffffffffffffffffffffffffffffffffff16635549ea51600b60009054906101000a900473ffffffffffffffffffffffffffffffffffffffff166000604051602001526040518263ffffffff167c0100000000000000000000000000000000000000000000000000000000028152600401808273ffffffffffffffffffffffffffffffffffffffff1673ffffffffffffffffffffffffffffffffffffffff168152602001915050602060405180830381600087803b1515612de557600080fd5b6102c65a03f11515612df657600080fd5b505050604051805190506040518263ffffffff167c010000000000000000000000000000000000000000000000000000000002815260040180828152602001915050600060405180830381600087803b1515612e5157600080fd5b6102c65a03f11515612e6257600080fd5b5050505b81600b60006101000a81548173ffffffffffffffffffffffffffffffffffffffff021916908373ffffffffffffffffffffffffffffffffffffffff1602179055505b6001601560008473ffffffffffffffffffffffffffffffffffffffff1673ffffffffffffffffffffffffffffffffffffffff168152602001908152602001600020600082825401925050819055506001601485815481101515612f0757fe5b90600052602060002090600a020160080160016101000a81548160ff0219169083151502179055507f948c625cd6ce700d1633bddaf8c10cb74993a25f74007d58169d60ae6ff49e5a8285604051808373ffffffffffffffffffffffffffffffffffffffff1673ffffffffffffffffffffffffffffffffffffffff1681526020018281526020019250505060405180910390a1601960003373ffffffffffffffffffffffffffffffffffffffff1673ffffffffffffffffffffffffffffffffffffffff1681526020019081526020016000208054806001018281612feb91906139c5565b9160005260206000209001600086909190915055505b50505050565b60156020528060005260406000206000915090505481565b600460009054906101000a900460ff1681565b600c5481565b600060148281548110151561304957fe5b90600052602060002090600a020160020160003373ffffffffffffffffffffffffffffffffffffffff1673ffffffffffffffffffffffffffffffffffffffff16815260200190815260200160002060000160009054906101000a900460ff169050919050565b6130b7613a05565b601860008373ffffffffffffffffffffffffffffffffffffffff1673ffffffffffffffffffffffffffffffffffffffff16815260200190815260200160002080548060200260200160405190810160405280929190818152602001828054801561314057602002820191906000526020600020905b81548152602001906001019080831161312c575b50505050509050919050565b600e5481565b601160009054906101000a900460ff1681565b60125481565b600d60009054906101000a900460ff1681565b613186613a05565b601660008373ffffffffffffffffffffffffffffffffffffffff1673ffffffffffffffffffffffffffffffffffffffff16815260200190815260200160002080548060200260200160405190810160405280929190818152602001828054801561320f57602002820191906000526020600020905b8154815260200190600101908083116131fb575b50505050509050919050565b600a5481565b600f5481565b6000600760009054906101000a900473ffffffffffffffffffffffffffffffffffffffff1690508073ffffffffffffffffffffffffffffffffffffffff1663d323a4f8336000604051602001526040518263ffffffff167c0100000000000000000000000000000000000000000000000000000000028152600401808273ffffffffffffffffffffffffffffffffffffffff1673ffffffffffffffffffffffffffffffffffffffff168152602001915050602060405180830381600087803b15156132f157600080fd5b6102c65a03f1151561330257600080fd5b50505060405180519050151561331757600080fd5b6000905060148681548110151561332a57fe5b90600052602060002090600a020160080160009054906101000a900460ff1615151561335557600080fd5b4260148781548110151561336557fe5b90600052602060002090600a02016006015411151561338357600080fd5b600f54601560003373ffffffffffffffffffffffffffffffffffffffff1673ffffffffffffffffffffffffffffffffffffffff168152602001908152602001600020541015156133d257600080fd5b6014868154811015156133e157fe5b90600052602060002090600a020160020160003373ffffffffffffffffffffffffffffffffffffffff1673ffffffffffffffffffffffffffffffffffffffff16815260200190815260200160002060000160019054906101000a900460ff1615151561344c57600080fd5b60148681548110151561345b57fe5b90600052602060002090600a0201600401805480600101828161347e9190613c38565b9160005260206000209001600033909190916101000a81548173ffffffffffffffffffffffffffffffffffffffff021916908373ffffffffffffffffffffffffffffffffffffffff1602179055505060016014878154811015156134de57fe5b90600052602060002090600a020160020160003373ffffffffffffffffffffffffffffffffffffffff1673ffffffffffffffffffffffffffffffffffffffff16815260200190815260200160002060000160016101000a81548160ff0219169083151502179055508460148781548110151561355657fe5b90600052602060002090600a020160030160003373ffffffffffffffffffffffffffffffffffffffff1673ffffffffffffffffffffffffffffffffffffffff16815260200190815260200160002060000190805190602001906135ba929190613c64565b50836014878154811015156135cb57fe5b90600052602060002090600a020160030160003373ffffffffffffffffffffffffffffffffffffffff1673ffffffffffffffffffffffffffffffffffffffff16815260200190815260200160002060010181600019169055508260148781548110151561363457fe5b90600052602060002090600a020160030160003373ffffffffffffffffffffffffffffffffffffffff1673ffffffffffffffffffffffffffffffffffffffff16815260200190815260200160002060020160006101000a81548160ff021916908360ff160217905550816014878154811015156136ad57fe5b90600052602060002090600a020160030160003373ffffffffffffffffffffffffffffffffffffffff1673ffffffffffffffffffffffffffffffffffffffff16815260200190815260200160002060020160016101000a81548160ff021916908360ff160217905550600060148781548110151561372757fe5b90600052602060002090600a020160030160003373ffffffffffffffffffffffffffffffffffffffff1673ffffffffffffffffffffffffffffffffffffffff168152602001908152602001600020600301819055507ff8889d073f0366f70b5fd3ef060e300b4071afc6e31d114717b21bf374f270eb863387878787604051808781526020018673ffffffffffffffffffffffffffffffffffffffff1673ffffffffffffffffffffffffffffffffffffffff1681526020018060200185600019166000191681526020018460ff1660ff1681526020018360ff1660ff168152602001828103825286818151815260200191508051906020019080838360005b83811015613841578082015181840152602081019050613826565b50505050905090810190601f16801561386e5780820380516001836020036101000a031916815260200191505b5097505050505050505060405180910390a1505050505050565b613890613be5565b600880548060200260200160405190810160405280929190818152602001828054801561391257602002820191906000526020600020905b8160009054906101000a900473ffffffffffffffffffffffffffffffffffffffff1673ffffffffffffffffffffffffffffffffffffffff16815260200190600101908083116138c8575b5050505050905090565b60186020528160005260406000208181548110151561393757fe5b9060005260206000209001600091509150505481565b600460019054906101000a900460ff1681565b60088181548110151561396f57fe5b90600052602060002090016000915054906101000a900473ffffffffffffffffffffffffffffffffffffffff1681565b600660009054906101000a900473ffffffffffffffffffffffffffffffffffffffff1681565b8154818355818115116139ec578183600052602060002091820191016139eb9190613ce4565b5b505050565b602060405190810160405280600081525090565b602060405190810160405280600081525090565b61014060405190810160405280600073ffffffffffffffffffffffffffffffffffffffff168152602001613a4b613d09565b8152602001613a58613d1d565b8152602001600081526020016000815260200160008152602001600015158152602001600015158152602001600073ffffffffffffffffffffffffffffffffffffffff168152602001600081525090565b815481835581811511613ad657600a0281600a028360005260206000209182019101613ad59190613d31565b5b505050565b828054600181600116156101000203166002900490600052602060002090601f016020900481019282601f10613b1c57805160ff1916838001178555613b4a565b82800160010185558215613b4a579182015b82811115613b49578251825591602001919060010190613b2e565b5b509050613b579190613ce4565b5090565b828054828255906000526020600020908101928215613bd4579160200282015b82811115613bd35782518260006101000a81548173ffffffffffffffffffffffffffffffffffffffff021916908373ffffffffffffffffffffffffffffffffffffffff16021790555091602001919060010190613b7b565b5b509050613be19190613e06565b5090565b602060405190810160405280600081525090565b60a060405190810160405280613c0d613d09565b815260200160008019168152602001600060ff168152602001600060ff168152602001600081525090565b815481835581811511613c5f57818360005260206000209182019101613c5e9190613ce4565b5b505050565b828054600181600116156101000203166002900490600052602060002090601f016020900481019282601f10613ca557805160ff1916838001178555613cd3565b82800160010185558215613cd3579182015b82811115613cd2578251825591602001919060010190613cb7565b5b509050613ce09190613ce4565b5090565b613d0691905b80821115613d02576000816000905550600101613cea565b5090565b90565b602060405190810160405280600081525090565b602060405190810160405280600081525090565b613e0391905b80821115613dff57600080820160006101000a81549073ffffffffffffffffffffffffffffffffffffffff0219169055600182016000613d779190613e49565b600482016000613d879190613e91565b6005820160009055600682016000905560078201600090556008820160006101000a81549060ff02191690556008820160016101000a81549060ff02191690556008820160026101000a81549073ffffffffffffffffffffffffffffffffffffffff0219169055600982016000905550600a01613d37565b5090565b90565b613e4691905b80821115613e4257600081816101000a81549073ffffffffffffffffffffffffffffffffffffffff021916905550600101613e0c565b5090565b90565b50805460018160011615610100020316600290046000825580601f10613e6f5750613e8e565b601f016020900490600052602060002090810190613e8d9190613ce4565b5b50565b5080546000825590600052602060002090810190613eaf9190613ce4565b505600a165627a7a72305820e72e9da4facfd55e17a143fea730d747e4464bf3f0955a6d5a75076e616151410029",
  "source": "pragma solidity ^0.4.11;\n\n// Standard contract for a presidential election procedure\n\nimport \"../standardProcedure.sol\";\nimport \"../standardOrgan.sol\";\n\n\ncontract cyclicalManyToOneElectionProcedure is Procedure{\n\n    // 1: Cyclical many to one election (Presidential Election)\n    // 2: Cyclical many to many election (Moderators Election)\n    // 3: Simple norm nomination \n    // 4: Simple admins and master nomination\n    // 5: Vote on Norms \n    // 6: Vote on masters and admins \n    // 7: Cooptation\n\n    int public procedureTypeNumber = 1;\n\n    // Which contract will be affected\n    address public affectedOrganContract;\n\n    // Where are the voter registered\n    address public referenceOrganContract;\n\n    // Gathering connected organs for easier DAO mapping\n    address[] public linkedOrgans;\n\n    // ############## Variable to set up when declaring the procedure\n    // ####### Vote creation process\n    // Election frequency\n    uint public ballotFrequency;\n    // Max parallel election running\n    uint public nextElectionDate;\n\n    // current President address\n    address public currentPresident;\n\n    // ####### Voting process\n    // Time to vote\n    uint public ballotDuration;\n\n    // Is blank vote accepted\n    bool public neutralVoteAccepted;\n\n    // ####### Candidacy process\n    // Time to declare as a candidate\n    uint public candidacyDuration;\n    // Maximum time someone can be candidate\n    uint public reelectionMaximum;\n\n    // ####### Resolution process\n    // Minimum participation to validate election\n    uint public quorumSize;\n\n\n    // Variable of the procedure to keep track of events\n    bool public isBallotCurrentlyRunning;\n    uint public totalBallotNumber;\n    uint public lastElectionNumber;\n\n    // List of open ballots\n    // uint[] public openBallotList;\n    // uint public currentBallot;\n\n    // Structure declaration\n\n    // Voter structure, to keep track of who voted for the current election\n    struct Voter {\n        bool voted;  // if true, that person already voted\n        bool isCandidate;\n    }\n\n\n\n    // Candidacies structure, to keep track of candidacies for an election\n    struct Candidacy {\n        string name;\n        bytes32 ipfsHash; // ID of proposal on IPFS\n        uint8 hash_function;\n        uint8 size;\n        uint voteNumber;\n    }\n\n    // Ballot structure, instanciated once for every election cycle\n    struct Ballot {\n        address creator;\n        string name;   // short name (up to 32 bytes)\n        mapping(address => Voter) voters;\n        mapping(address => Candidacy) candidacies;\n        address[] candidateList;\n        uint startDate;\n        uint candidacyEndDate;\n        uint electionEndDate;\n        bool wasEnded;\n        bool wasEnforced;\n        address winningCandidate;\n        uint totalVoteCount;\n\n    }\n\n\n\n    // A dynamically-sized array of `Ballot` structs.\n    Ballot[] public ballots;\n\n    // A mapping of candidacy status and number of candidacies per member\n    mapping(address => uint) public cumulatedCandidacies;\n\n    // Mapping each proposition to the user creating it\n    mapping (address => uint[]) public ballotToCreator;   \n\n    // Mapping each proposition to the user creating it\n    mapping (address => uint[]) public ballotToVoter;\n\n    // Mapping each proposition to the user counting it\n    mapping (address => uint[]) public ballotToCounter;\n\n    // Mapping each proposition to the user enforcing it\n    mapping (address => uint[]) public ballotToEnforcer;\n\n    // Events\n    event ballotCreationEvent(address _from, string _name, uint _startDate, uint _candidacyEndDate, uint _endDate, uint _ballotNumber);\n    event presentCandidacyEvent(uint _ballotNumber, address _candidateAddress, string _name, bytes32 _ipfsHash, uint8 _hash_function, uint8 _size);\n    event votedOnElectionEvent(address _from, uint _ballotNumber);\n    event ballotWasCounted(uint _ballotNumber, address[] _candidateList, address _winningCandidate, uint _totalVoteCount);\n    event ballotResultException(uint _ballotNumber, bool _wasRebooted);\n    event ballotWasEnforced(address _winningCandidate, uint _ballotNumber);\n\n\n    /// Create a new ballot to choose one of `proposalNames`.\n    function createBallot(string _ballotName) public returns (uint ballotNumber){\n            // Checking no ballot is currently running\n            require (isBallotCurrentlyRunning == false);\n            // Checking that election date has passed\n            require (now > nextElectionDate);\n            // Checking if previous ballot was counted\n            if (ballots.length > 0) {\n                require(ballots[lastElectionNumber].wasEnded);\n            }\n\n            Ballot memory newBallot;\n            newBallot.creator = msg.sender;\n            newBallot.name = _ballotName;\n            newBallot.startDate = now;\n            newBallot.candidacyEndDate = now + candidacyDuration;\n            newBallot.electionEndDate = now + candidacyDuration+ballotDuration;\n            newBallot.wasEnded = false;\n            newBallot.winningCandidate = 0x0000;\n            newBallot.totalVoteCount =0;\n            ballots.push(newBallot);\n\n            ballotNumber = ballots.length - 1;\n            // openBallotList.push(ballotNumber);\n            // currentBallot = ballotNumber;\n            totalBallotNumber += 1;\n            isBallotCurrentlyRunning = true;\n            nextElectionDate = now + ballotFrequency;\n            lastElectionNumber = ballotNumber;\n\n            // Ballot creation event\n            ballotCreationEvent(msg.sender, newBallot.name, newBallot.startDate, newBallot.candidacyEndDate, newBallot.electionEndDate, ballotNumber);\n            \n            // Loggin that ballot creator did create this ballot\n            ballotToCreator[msg.sender].push(ballotNumber);\n\n            }\n\n    function presentCandidacy(uint _ballotNumber, string _name, bytes32 _ipfsHash, uint8 _hash_function, uint8 _size) public {\n\n        // Check the candidate is a member of the reference organ\n        Organ voterRegistryOrgan = Organ(referenceOrganContract);\n        require(voterRegistryOrgan.isNorm(msg.sender));\n        delete voterRegistryOrgan;\n\n        // Check that the ballot is still active\n        require(!ballots[_ballotNumber].wasEnded);\n\n        // Check that the ballot candidacy period is still open\n        require(ballots[_ballotNumber].candidacyEndDate > now);\n\n        // Check that sender is not over the mandate limit\n        require(cumulatedCandidacies[msg.sender] < reelectionMaximum);\n\n        // Check if the candidate is already candidate\n        require(!ballots[_ballotNumber].voters[msg.sender].isCandidate);\n\n        ballots[_ballotNumber].candidateList.push(msg.sender);\n        ballots[_ballotNumber].voters[msg.sender].isCandidate = true;\n\n        ballots[_ballotNumber].candidacies[msg.sender].name = _name;\n        ballots[_ballotNumber].candidacies[msg.sender].ipfsHash = _ipfsHash;\n        ballots[_ballotNumber].candidacies[msg.sender].hash_function = _hash_function;\n        ballots[_ballotNumber].candidacies[msg.sender].size = _size;\n        ballots[_ballotNumber].candidacies[msg.sender].voteNumber = 0;\n         // Candidacy event is turned off for now\n        presentCandidacyEvent(_ballotNumber, msg.sender, _name, _ipfsHash, _hash_function, _size);\n\n\n\n        }\n\n\n    /// Vote for a candidate\n    function vote(uint _ballotNumber, address _candidateAddress) public {\n\n        Organ voterRegistryOrgan = Organ(referenceOrganContract);\n        require(voterRegistryOrgan.isNorm(msg.sender));\n\n        delete voterRegistryOrgan;\n        \n        // Check if voter already votred\n        require(!ballots[_ballotNumber].voters[msg.sender].voted);\n\n        // Check if vote is still active\n        require(!ballots[_ballotNumber].wasEnded);\n\n        // Check if candidacy period is over\n        require(ballots[_ballotNumber].candidacyEndDate < now);\n\n        // Check if voting period ended\n        require(ballots[_ballotNumber].electionEndDate > now);\n\n        // Check if candidate for whom we voted for is declared\n        if(ballots[_ballotNumber].voters[_candidateAddress].isCandidate)\n        {ballots[_ballotNumber].candidacies[_candidateAddress].voteNumber += 1;}\n        else\n            // If candidate does not exist, this is a neutral vote\n        {ballots[_ballotNumber].candidacies[0x0000].voteNumber += 1;}\n\n        ballots[_ballotNumber].voters[msg.sender].voted = true;\n        \n        ballots[_ballotNumber].totalVoteCount += 1;\n\n        // Associating vote with voter for gamification purposes\n        ballotToVoter[msg.sender].push(_ballotNumber);\n\n        // Event\n        votedOnElectionEvent(msg.sender, _ballotNumber);\n                        \n\n            }\n\n    // The vote is finished and we close it. This triggers the outcome of the vote.\n\n    function endBallot(uint _ballotNumber) public returns (uint winningCandidate){\n            // We check if the vote was already closed\n            require(!ballots[_ballotNumber].wasEnded);\n\n            // Checking that the vote can be closed\n            require(ballots[_ballotNumber].electionEndDate < now);\n\n            // Checking that the vote can be closed\n            if ((ballots[_ballotNumber].candidateList.length == 0) || ballots[_ballotNumber].totalVoteCount == 0)\n            {\n                    ballots[_ballotNumber].wasEnforced = true;\n                    ballots[_ballotNumber].wasEnded = true;\n                    ballotResultException(_ballotNumber, true);\n                    nextElectionDate = now -1;\n                    isBallotCurrentlyRunning = false;\n                    createBallot(ballots[_ballotNumber].name);\n                    return 0;\n            }\n\n\n            // ############## Going through candidates to check the vote count\n            uint winningVoteCount = 0;\n            bool isADraw = false;\n            bool quorumIsObtained = false;\n\n            Organ voterRegistryOrgan = Organ(referenceOrganContract);\n\n            // Check if quorum is obtained. We avoiding divisions here, since Solidity is not good to calculate divisions\n            if (ballots[_ballotNumber].totalVoteCount*100 >= quorumSize*voterRegistryOrgan.getActiveNormNumber())\n            {quorumIsObtained = true;}\n\n            // Going through candidates list\n            for (uint p = 0; p < ballots[_ballotNumber].candidateList.length; p++) {\n                address _candidateAddress = ballots[_ballotNumber].candidateList[p];\n                if (ballots[_ballotNumber].candidacies[_candidateAddress].voteNumber > winningVoteCount) {\n                    winningVoteCount = ballots[_ballotNumber].candidacies[_candidateAddress].voteNumber ;\n                    winningCandidate = p;\n                    isADraw = false;\n                }\n                else if (ballots[_ballotNumber].candidacies[_candidateAddress].voteNumber == winningVoteCount){\n                    isADraw = true;\n                }\n\n            }\n\n            // ############## Updating ballot values if vote concluded\n            ballots[_ballotNumber].wasEnded = true;\n            isBallotCurrentlyRunning = false;\n\n            if (!isADraw && quorumIsObtained)\n                // The ballot completed succesfully\n            {\n\n\n            ballots[_ballotNumber].winningCandidate = ballots[_ballotNumber].candidateList[winningCandidate];\n            ballotWasCounted(_ballotNumber, ballots[_ballotNumber].candidateList, ballots[_ballotNumber].winningCandidate, ballots[_ballotNumber].totalVoteCount);\n\n                }\n                else\n                    // The ballot did not conclude correctly. We reboot the election process.\n                {\n                    ballots[_ballotNumber].wasEnforced = true;\n                    ballotResultException(_ballotNumber, true);\n                    nextElectionDate = now -1;\n                    ballots[_ballotNumber].wasEnded = true;\n                    isBallotCurrentlyRunning = false;\n                    createBallot(ballots[_ballotNumber].name);\n                }\n\n                ballotToCounter[msg.sender].push(_ballotNumber);\n                            \n                \n\n            }\n    \n    function enforceBallot(uint _ballotNumber) public {\n        // Checking if ballot was already enforced\n        require(!ballots[_ballotNumber].wasEnforced );\n        // Checking the ballot was closed\n        require(ballots[_ballotNumber].wasEnded);\n        // Checking that the enforcing date is not later than the end of his supposed mandate\n        if (now > ballots[_ballotNumber].startDate + ballotFrequency)\n        {\n            ballots[_ballotNumber].wasEnforced = true;\n            // TODO add event to log this  \n            ballotResultException(_ballotNumber, false);                  \n            return;\n        }\n\n        // We initiate the Organ interface to add a presidential norm\n\n        Organ presidentialOrgan = Organ(affectedOrganContract);\n        address newPresidentAddress = ballots[_ballotNumber].winningCandidate;\n\n        // Adding new president first\n            // function addNorm (string _name, address _normAdress, bytes32 _ipfsHash, uint8 _hash_function, uint8 _size) public  returns (bool success);\n        if (newPresidentAddress != currentPresident)\n            {\n            Candidacy memory newPresident = ballots[_ballotNumber].candidacies[newPresidentAddress];\n            presidentialOrgan.addNorm(newPresidentAddress, newPresident.name, newPresident.ipfsHash, newPresident.hash_function, newPresident.size );\n\n            \n\n            // Removing former president, only if a former election was conducted.\n            if (totalBallotNumber > 1){\n            presidentialOrgan.remNorm(presidentialOrgan.getAddressPositionInNorm(currentPresident));\n                }\n\n\n            // Modifying procedure variable to count new president\n            currentPresident = newPresidentAddress;\n\n            }\n        cumulatedCandidacies[newPresidentAddress] += 1;\n        ballots[_ballotNumber].wasEnforced = true;\n        // delete openBallotList[_ballotNumber];\n        // currentBallot = 0;\n\n        // Adjusting mandate duration\n        // nextElectionDate = now + ballotFrequency - candidacyDuration - ballotDuration;\n        ballotWasEnforced( newPresidentAddress, _ballotNumber);\n        ballotToEnforcer[msg.sender].push(_ballotNumber);                \n\n         }\n        //////////////////////// Functions to communicate with other contracts\n    \n\n    // ######### Functions to retrieve procedure infos\n\n    function getCandidateList(uint _ballotNumber) public view returns (address[] _candidateList){\n        return ballots[_ballotNumber].candidateList;\n    }\n // Ballot related infos\n    function getSingleBallotInfo(uint _ballotNumber) public view returns (string _name, uint _startDate, uint _candidacyEndDate, uint _electionEndDate)\n    {return (ballots[_ballotNumber].name, ballots[_ballotNumber].startDate, ballots[_ballotNumber].candidacyEndDate, ballots[_ballotNumber].electionEndDate);}\n    function getBallotStatus(uint _ballotNumber) public view returns (bool _wasEnded, bool _wasEnforced, address _winningCandidate, uint _totalVoteCount)\n    { return (ballots[_ballotNumber].wasEnded, ballots[_ballotNumber].wasEnforced, ballots[_ballotNumber].winningCandidate, ballots[_ballotNumber].totalVoteCount);}\n\n    function getBallotDates(uint _ballotNumber) public view returns (uint startDate, uint endDate)\n    {return (ballots[_ballotNumber].startDate, ballots[_ballotNumber].electionEndDate);}\n    \n    function getBallotStats(uint _ballotNumber) public view returns (uint _votersNumber, uint _totalVoteCount)\n    { return (ballots[_ballotNumber].totalVoteCount, ballots[_ballotNumber].totalVoteCount);}\n\n    function haveIVoted(uint _ballotNumber) public view returns (bool IHaveVoted)\n    {return ballots[_ballotNumber].voters[msg.sender].voted;}\n    function getCandidateVoteNumber(uint _ballotNumber, address _candidateAddress) public view returns (uint voteReceived){\n        require(ballots[_ballotNumber].wasEnforced);\n        return ballots[_ballotNumber].candidacies[_candidateAddress].voteNumber;\n    }\n    function getBallotToCreator(address _userAddress) public view returns (uint[])\n    {return ballotToCreator[_userAddress];}    \n    function getBallotToCounter(address _userAddress) public view returns (uint[])\n    {return ballotToCounter[_userAddress];}  \n    function getBallotToEnforcer(address _userAddress) public view returns (uint[])\n    {return ballotToEnforcer[_userAddress];}  \n    function getLinkedOrgans() public view returns (address[] _linkedOrgans)\n    {return linkedOrgans;}\n\n}\n\n",
  "sourcePath": "/Users/henrilieutaud/Documents/Mes documents/97/Workshop/Kelsen/solidity/contracts/procedures/cyclicalManyToOneElectionProcedure.sol",
  "compiler": {
    "name": "solc",
    "version": "0.4.19+commit.c4cbbb05.Emscripten.clang"
  },
  "schemaVersion": "2.0.0",
  "updatedAt": "2018-05-14T16:47:13.312Z"
}