{
  "contractName": "cyclicalManyToOneElectionProcedure",
  "abi": [
    {
      "constant": true,
      "inputs": [
        {
          "name": "",
          "type": "address"
        },
        {
          "name": "",
          "type": "uint256"
        }
      ],
      "name": "ballotToEnforcer",
      "outputs": [
        {
          "name": "",
          "type": "uint256"
        }
      ],
      "payable": false,
      "stateMutability": "view",
      "type": "function"
    },
    {
      "constant": true,
      "inputs": [],
      "name": "procedureTypeNumber",
      "outputs": [
        {
          "name": "",
          "type": "int256"
        }
      ],
      "payable": false,
      "stateMutability": "view",
      "type": "function"
    },
    {
      "constant": true,
      "inputs": [],
      "name": "quorumSize",
      "outputs": [
        {
          "name": "",
          "type": "uint256"
        }
      ],
      "payable": false,
      "stateMutability": "view",
      "type": "function"
    },
    {
      "constant": true,
      "inputs": [],
      "name": "ballotFrequency",
      "outputs": [
        {
          "name": "",
          "type": "uint256"
        }
      ],
      "payable": false,
      "stateMutability": "view",
      "type": "function"
    },
    {
      "constant": true,
      "inputs": [],
      "name": "referenceOrganContract",
      "outputs": [
        {
          "name": "",
          "type": "address"
        }
      ],
      "payable": false,
      "stateMutability": "view",
      "type": "function"
    },
    {
      "constant": true,
      "inputs": [],
      "name": "currentPresident",
      "outputs": [
        {
          "name": "",
          "type": "address"
        }
      ],
      "payable": false,
      "stateMutability": "view",
      "type": "function"
    },
    {
      "constant": true,
      "inputs": [
        {
          "name": "",
          "type": "address"
        },
        {
          "name": "",
          "type": "uint256"
        }
      ],
      "name": "ballotToVoter",
      "outputs": [
        {
          "name": "",
          "type": "uint256"
        }
      ],
      "payable": false,
      "stateMutability": "view",
      "type": "function"
    },
    {
      "constant": true,
      "inputs": [
        {
          "name": "",
          "type": "uint256"
        }
      ],
      "name": "ballots",
      "outputs": [
        {
          "name": "creator",
          "type": "address"
        },
        {
          "name": "name",
          "type": "string"
        },
        {
          "name": "startDate",
          "type": "uint256"
        },
        {
          "name": "candidacyEndDate",
          "type": "uint256"
        },
        {
          "name": "electionEndDate",
          "type": "uint256"
        },
        {
          "name": "wasEnded",
          "type": "bool"
        },
        {
          "name": "wasEnforced",
          "type": "bool"
        },
        {
          "name": "winningCandidate",
          "type": "address"
        },
        {
          "name": "totalVoteCount",
          "type": "uint256"
        }
      ],
      "payable": false,
      "stateMutability": "view",
      "type": "function"
    },
    {
      "constant": true,
      "inputs": [],
      "name": "kelsenVersionNumber",
      "outputs": [
        {
          "name": "",
          "type": "int256"
        }
      ],
      "payable": false,
      "stateMutability": "view",
      "type": "function"
    },
    {
      "constant": true,
      "inputs": [],
      "name": "lastElectionNumber",
      "outputs": [
        {
          "name": "",
          "type": "uint256"
        }
      ],
      "payable": false,
      "stateMutability": "view",
      "type": "function"
    },
    {
      "constant": true,
      "inputs": [
        {
          "name": "",
          "type": "address"
        },
        {
          "name": "",
          "type": "uint256"
        }
      ],
      "name": "ballotToCreator",
      "outputs": [
        {
          "name": "",
          "type": "uint256"
        }
      ],
      "payable": false,
      "stateMutability": "view",
      "type": "function"
    },
    {
      "constant": true,
      "inputs": [
        {
          "name": "",
          "type": "address"
        }
      ],
      "name": "cumulatedCandidacies",
      "outputs": [
        {
          "name": "",
          "type": "uint256"
        }
      ],
      "payable": false,
      "stateMutability": "view",
      "type": "function"
    },
    {
      "constant": true,
      "inputs": [],
      "name": "isAnOrgan",
      "outputs": [
        {
          "name": "",
          "type": "bool"
        }
      ],
      "payable": false,
      "stateMutability": "view",
      "type": "function"
    },
    {
      "constant": true,
      "inputs": [],
      "name": "ballotDuration",
      "outputs": [
        {
          "name": "",
          "type": "uint256"
        }
      ],
      "payable": false,
      "stateMutability": "view",
      "type": "function"
    },
    {
      "constant": true,
      "inputs": [],
      "name": "procedureName",
      "outputs": [
        {
          "name": "",
          "type": "string"
        }
      ],
      "payable": false,
      "stateMutability": "view",
      "type": "function"
    },
    {
      "constant": true,
      "inputs": [],
      "name": "candidacyDuration",
      "outputs": [
        {
          "name": "",
          "type": "uint256"
        }
      ],
      "payable": false,
      "stateMutability": "view",
      "type": "function"
    },
    {
      "constant": true,
      "inputs": [],
      "name": "isBallotCurrentlyRunning",
      "outputs": [
        {
          "name": "",
          "type": "bool"
        }
      ],
      "payable": false,
      "stateMutability": "view",
      "type": "function"
    },
    {
      "constant": true,
      "inputs": [],
      "name": "totalBallotNumber",
      "outputs": [
        {
          "name": "",
          "type": "uint256"
        }
      ],
      "payable": false,
      "stateMutability": "view",
      "type": "function"
    },
    {
      "constant": true,
      "inputs": [],
      "name": "neutralVoteAccepted",
      "outputs": [
        {
          "name": "",
          "type": "bool"
        }
      ],
      "payable": false,
      "stateMutability": "view",
      "type": "function"
    },
    {
      "constant": true,
      "inputs": [],
      "name": "nextElectionDate",
      "outputs": [
        {
          "name": "",
          "type": "uint256"
        }
      ],
      "payable": false,
      "stateMutability": "view",
      "type": "function"
    },
    {
      "constant": true,
      "inputs": [],
      "name": "reelectionMaximum",
      "outputs": [
        {
          "name": "",
          "type": "uint256"
        }
      ],
      "payable": false,
      "stateMutability": "view",
      "type": "function"
    },
    {
      "constant": true,
      "inputs": [
        {
          "name": "",
          "type": "address"
        },
        {
          "name": "",
          "type": "uint256"
        }
      ],
      "name": "ballotToCounter",
      "outputs": [
        {
          "name": "",
          "type": "uint256"
        }
      ],
      "payable": false,
      "stateMutability": "view",
      "type": "function"
    },
    {
      "constant": true,
      "inputs": [],
      "name": "isAProcedure",
      "outputs": [
        {
          "name": "",
          "type": "bool"
        }
      ],
      "payable": false,
      "stateMutability": "view",
      "type": "function"
    },
    {
      "constant": true,
      "inputs": [
        {
          "name": "",
          "type": "uint256"
        }
      ],
      "name": "linkedOrgans",
      "outputs": [
        {
          "name": "",
          "type": "address"
        }
      ],
      "payable": false,
      "stateMutability": "view",
      "type": "function"
    },
    {
      "constant": true,
      "inputs": [],
      "name": "affectedOrganContract",
      "outputs": [
        {
          "name": "",
          "type": "address"
        }
      ],
      "payable": false,
      "stateMutability": "view",
      "type": "function"
    },
    {
      "anonymous": false,
      "inputs": [
        {
          "indexed": false,
          "name": "_from",
          "type": "address"
        },
        {
          "indexed": false,
          "name": "_name",
          "type": "string"
        },
        {
          "indexed": false,
          "name": "_startDate",
          "type": "uint256"
        },
        {
          "indexed": false,
          "name": "_candidacyEndDate",
          "type": "uint256"
        },
        {
          "indexed": false,
          "name": "_endDate",
          "type": "uint256"
        },
        {
          "indexed": false,
          "name": "_ballotNumber",
          "type": "uint256"
        }
      ],
      "name": "ballotCreationEvent",
      "type": "event"
    },
    {
      "anonymous": false,
      "inputs": [
        {
          "indexed": false,
          "name": "_ballotNumber",
          "type": "uint256"
        },
        {
          "indexed": false,
          "name": "_candidateAddress",
          "type": "address"
        },
        {
          "indexed": false,
          "name": "_name",
          "type": "string"
        },
        {
          "indexed": false,
          "name": "_ipfsHash",
          "type": "bytes32"
        },
        {
          "indexed": false,
          "name": "_hash_function",
          "type": "uint8"
        },
        {
          "indexed": false,
          "name": "_size",
          "type": "uint8"
        }
      ],
      "name": "presentCandidacyEvent",
      "type": "event"
    },
    {
      "anonymous": false,
      "inputs": [
        {
          "indexed": false,
          "name": "_from",
          "type": "address"
        },
        {
          "indexed": false,
          "name": "_ballotNumber",
          "type": "uint256"
        }
      ],
      "name": "votedOnElectionEvent",
      "type": "event"
    },
    {
      "anonymous": false,
      "inputs": [
        {
          "indexed": false,
          "name": "_ballotNumber",
          "type": "uint256"
        },
        {
          "indexed": false,
          "name": "_candidateList",
          "type": "address[]"
        },
        {
          "indexed": false,
          "name": "_winningCandidate",
          "type": "address"
        },
        {
          "indexed": false,
          "name": "_totalVoteCount",
          "type": "uint256"
        }
      ],
      "name": "ballotWasCounted",
      "type": "event"
    },
    {
      "anonymous": false,
      "inputs": [
        {
          "indexed": false,
          "name": "_ballotNumber",
          "type": "uint256"
        },
        {
          "indexed": false,
          "name": "_wasRebooted",
          "type": "bool"
        }
      ],
      "name": "ballotResultException",
      "type": "event"
    },
    {
      "anonymous": false,
      "inputs": [
        {
          "indexed": false,
          "name": "_winningCandidate",
          "type": "address"
        },
        {
          "indexed": false,
          "name": "_ballotNumber",
          "type": "uint256"
        }
      ],
      "name": "ballotWasEnforced",
      "type": "event"
    },
    {
      "constant": false,
      "inputs": [
        {
          "name": "_ballotName",
          "type": "string"
        }
      ],
      "name": "createBallot",
      "outputs": [
        {
          "name": "ballotNumber",
          "type": "uint256"
        }
      ],
      "payable": false,
      "stateMutability": "nonpayable",
      "type": "function"
    },
    {
      "constant": false,
      "inputs": [
        {
          "name": "_ballotNumber",
          "type": "uint256"
        },
        {
          "name": "_name",
          "type": "string"
        },
        {
          "name": "_ipfsHash",
          "type": "bytes32"
        },
        {
          "name": "_hash_function",
          "type": "uint8"
        },
        {
          "name": "_size",
          "type": "uint8"
        }
      ],
      "name": "presentCandidacy",
      "outputs": [],
      "payable": false,
      "stateMutability": "nonpayable",
      "type": "function"
    },
    {
      "constant": false,
      "inputs": [
        {
          "name": "_ballotNumber",
          "type": "uint256"
        },
        {
          "name": "_candidateAddress",
          "type": "address"
        }
      ],
      "name": "vote",
      "outputs": [],
      "payable": false,
      "stateMutability": "nonpayable",
      "type": "function"
    },
    {
      "constant": false,
      "inputs": [
        {
          "name": "_ballotNumber",
          "type": "uint256"
        }
      ],
      "name": "endBallot",
      "outputs": [
        {
          "name": "winningCandidate",
          "type": "uint256"
        }
      ],
      "payable": false,
      "stateMutability": "nonpayable",
      "type": "function"
    },
    {
      "constant": false,
      "inputs": [
        {
          "name": "_ballotNumber",
          "type": "uint256"
        }
      ],
      "name": "enforceBallot",
      "outputs": [],
      "payable": false,
      "stateMutability": "nonpayable",
      "type": "function"
    },
    {
      "constant": true,
      "inputs": [
        {
          "name": "_ballotNumber",
          "type": "uint256"
        }
      ],
      "name": "getCandidateList",
      "outputs": [
        {
          "name": "_candidateList",
          "type": "address[]"
        }
      ],
      "payable": false,
      "stateMutability": "view",
      "type": "function"
    },
    {
      "constant": true,
      "inputs": [
        {
          "name": "_ballotNumber",
          "type": "uint256"
        }
      ],
      "name": "getSingleBallotInfo",
      "outputs": [
        {
          "name": "_name",
          "type": "string"
        },
        {
          "name": "_startDate",
          "type": "uint256"
        },
        {
          "name": "_candidacyEndDate",
          "type": "uint256"
        },
        {
          "name": "_electionEndDate",
          "type": "uint256"
        }
      ],
      "payable": false,
      "stateMutability": "view",
      "type": "function"
    },
    {
      "constant": true,
      "inputs": [
        {
          "name": "_ballotNumber",
          "type": "uint256"
        }
      ],
      "name": "getBallotStatus",
      "outputs": [
        {
          "name": "_wasEnded",
          "type": "bool"
        },
        {
          "name": "_wasEnforced",
          "type": "bool"
        },
        {
          "name": "_winningCandidate",
          "type": "address"
        },
        {
          "name": "_totalVoteCount",
          "type": "uint256"
        }
      ],
      "payable": false,
      "stateMutability": "view",
      "type": "function"
    },
    {
      "constant": true,
      "inputs": [
        {
          "name": "_ballotNumber",
          "type": "uint256"
        }
      ],
      "name": "getBallotDates",
      "outputs": [
        {
          "name": "startDate",
          "type": "uint256"
        },
        {
          "name": "endDate",
          "type": "uint256"
        }
      ],
      "payable": false,
      "stateMutability": "view",
      "type": "function"
    },
    {
      "constant": true,
      "inputs": [
        {
          "name": "_ballotNumber",
          "type": "uint256"
        }
      ],
      "name": "getBallotStats",
      "outputs": [
        {
          "name": "_votersNumber",
          "type": "uint256"
        },
        {
          "name": "_totalVoteCount",
          "type": "uint256"
        }
      ],
      "payable": false,
      "stateMutability": "view",
      "type": "function"
    },
    {
      "constant": true,
      "inputs": [
        {
          "name": "_ballotNumber",
          "type": "uint256"
        }
      ],
      "name": "haveIVoted",
      "outputs": [
        {
          "name": "IHaveVoted",
          "type": "bool"
        }
      ],
      "payable": false,
      "stateMutability": "view",
      "type": "function"
    },
    {
      "constant": true,
      "inputs": [
        {
          "name": "_ballotNumber",
          "type": "uint256"
        },
        {
          "name": "_candidateAddress",
          "type": "address"
        }
      ],
      "name": "getCandidateVoteNumber",
      "outputs": [
        {
          "name": "voteReceived",
          "type": "uint256"
        }
      ],
      "payable": false,
      "stateMutability": "view",
      "type": "function"
    },
    {
      "constant": true,
      "inputs": [
        {
          "name": "_userAddress",
          "type": "address"
        }
      ],
      "name": "getBallotToCreator",
      "outputs": [
        {
          "name": "",
          "type": "uint256[]"
        }
      ],
      "payable": false,
      "stateMutability": "view",
      "type": "function"
    },
    {
      "constant": true,
      "inputs": [
        {
          "name": "_userAddress",
          "type": "address"
        }
      ],
      "name": "getBallotToCounter",
      "outputs": [
        {
          "name": "",
          "type": "uint256[]"
        }
      ],
      "payable": false,
      "stateMutability": "view",
      "type": "function"
    },
    {
      "constant": true,
      "inputs": [
        {
          "name": "_userAddress",
          "type": "address"
        }
      ],
      "name": "getBallotToEnforcer",
      "outputs": [
        {
          "name": "",
          "type": "uint256[]"
        }
      ],
      "payable": false,
      "stateMutability": "view",
      "type": "function"
    },
    {
      "constant": true,
      "inputs": [],
      "name": "getLinkedOrgans",
      "outputs": [
        {
          "name": "_linkedOrgans",
          "type": "address[]"
        }
      ],
      "payable": false,
      "stateMutability": "view",
      "type": "function"
    },
    {
      "constant": true,
      "inputs": [],
      "name": "getProcedureName",
      "outputs": [
        {
          "name": "_procedureName",
          "type": "string"
        }
      ],
      "payable": false,
      "stateMutability": "view",
      "type": "function"
    }
  ],
  "bytecode": "0x60606040526000600460006101000a81548160ff0219169083151502179055506001600460016101000a81548160ff0219169083151502179055506001600655341561004a57600080fd5b614156806100596000396000f300606060405260043610610204576000357c0100000000000000000000000000000000000000000000000000000000900463ffffffff16806302d947ef1461020957806310f2fa941461024b5780631899706d1461028957806318fe2d73146102df57806319060ef1146103905780632647d7f9146103ce5780633068ef4d146103f7578063322af16f14610420578063325bc6ea1461044957806334682098146104d7578063446192af1461052d57806346a865761461058257806347ae53e2146105f357806348fcc1441461064857806356453fbf1461067f57806359908afe146106d55780635c632b38146107635780635dbe4d28146108b4578063618bde0a146108dd578063680aee50146109555780636be873541461097e5780637ac53b27146109d45780638cd1ff5114610a54578063a4c797f714610a77578063a8bef97a14610ac4578063ab8f953614610af1578063ac37af1c14610b1a578063adb4018b14610b55578063b064124d14610be3578063b0c2dede14610c71578063b4b71cd214610c9a578063b9f43cc514610cc7578063bdf7f47214610cf0578063bf0fac8314610d1d578063d0746b7a14610dab578063d9b84d4c14610dd4578063de0db92e14610dfd578063e570050114610e88578063e76f506e14610ef2578063e80b30a514610f48578063f2edc61614610f75578063fe7800e114610fd8575b600080fd5b341561021457600080fd5b610249600480803590602001909190803573ffffffffffffffffffffffffffffffffffffffff1690602001909190505061102d565b005b341561025657600080fd5b61026c60048080359060200190919050506114f0565b604051808381526020018281526020019250505060405180910390f35b341561029457600080fd5b6102c9600480803573ffffffffffffffffffffffffffffffffffffffff1690602001909190803590602001909190505061153e565b6040518082815260200191505060405180910390f35b34156102ea57600080fd5b610300600480803590602001909190505061156f565b6040518080602001858152602001848152602001838152602001828103825286818151815260200191508051906020019080838360005b83811015610352578082015181840152602081019050610337565b50505050905090810190601f16801561037f5780820380516001836020036101000a031916815260200191505b509550505050505060405180910390f35b341561039b57600080fd5b6103b160048080359060200190919050506116aa565b604051808381526020018281526020019250505060405180910390f35b34156103d957600080fd5b6103e16116f8565b6040518082815260200191505060405180910390f35b341561040257600080fd5b61040a6116fe565b6040518082815260200191505060405180910390f35b341561042b57600080fd5b610433611704565b6040518082815260200191505060405180910390f35b341561045457600080fd5b610480600480803573ffffffffffffffffffffffffffffffffffffffff1690602001909190505061170a565b6040518080602001828103825283818151815260200191508051906020019060200280838360005b838110156104c35780820151818401526020810190506104a8565b505050509050019250505060405180910390f35b34156104e257600080fd5b610517600480803590602001909190803573ffffffffffffffffffffffffffffffffffffffff169060200190919050506117a7565b6040518082815260200191505060405180910390f35b341561053857600080fd5b61054061184b565b604051808273ffffffffffffffffffffffffffffffffffffffff1673ffffffffffffffffffffffffffffffffffffffff16815260200191505060405180910390f35b341561058d57600080fd5b6105dd600480803590602001908201803590602001908080601f01602080910402602001604051908101604052809392919081815260200183838082843782019150505050505091905050611871565b6040518082815260200191505060405180910390f35b34156105fe57600080fd5b610606611ccd565b604051808273ffffffffffffffffffffffffffffffffffffffff1673ffffffffffffffffffffffffffffffffffffffff16815260200191505060405180910390f35b341561065357600080fd5b6106696004808035906020019091905050611cf3565b6040518082815260200191505060405180910390f35b341561068a57600080fd5b6106bf600480803573ffffffffffffffffffffffffffffffffffffffff169060200190919080359060200190919050506126ca565b6040518082815260200191505060405180910390f35b34156106e057600080fd5b6106e86126fb565b6040518080602001828103825283818151815260200191508051906020019080838360005b8381101561072857808201518184015260208101905061070d565b50505050905090810190601f1680156107555780820380516001836020036101000a031916815260200191505b509250505060405180910390f35b341561076e57600080fd5b61078460048080359060200190919050506127a3565b604051808a73ffffffffffffffffffffffffffffffffffffffff1673ffffffffffffffffffffffffffffffffffffffff1681526020018060200189815260200188815260200187815260200186151515158152602001851515151581526020018473ffffffffffffffffffffffffffffffffffffffff1673ffffffffffffffffffffffffffffffffffffffff16815260200183815260200182810382528a81815460018160011615610100020316600290048152602001915080546001816001161561010002031660029004801561089d5780601f106108725761010080835404028352916020019161089d565b820191906000526020600020905b81548152906001019060200180831161088057829003601f168201915b50509a505050505050505050505060405180910390f35b34156108bf57600080fd5b6108c7612859565b6040518082815260200191505060405180910390f35b34156108e857600080fd5b6108fe600480803590602001909190505061285f565b6040518080602001828103825283818151815260200191508051906020019060200280838360005b83811015610941578082015181840152602081019050610926565b505050509050019250505060405180910390f35b341561096057600080fd5b610968612913565b6040518082815260200191505060405180910390f35b341561098957600080fd5b6109be600480803573ffffffffffffffffffffffffffffffffffffffff16906020019091908035906020019091905050612919565b6040518082815260200191505060405180910390f35b34156109df57600080fd5b6109f5600480803590602001909190505061294a565b6040518085151515158152602001841515151581526020018373ffffffffffffffffffffffffffffffffffffffff1673ffffffffffffffffffffffffffffffffffffffff16815260200182815260200194505050505060405180910390f35b3415610a5f57600080fd5b610a756004808035906020019091905050612a1d565b005b3415610a8257600080fd5b610aae600480803573ffffffffffffffffffffffffffffffffffffffff169060200190919050506131e1565b6040518082815260200191505060405180910390f35b3415610acf57600080fd5b610ad76131f9565b604051808215151515815260200191505060405180910390f35b3415610afc57600080fd5b610b0461320c565b6040518082815260200191505060405180910390f35b3415610b2557600080fd5b610b3b6004808035906020019091905050613212565b604051808215151515815260200191505060405180910390f35b3415610b6057600080fd5b610b68613289565b6040518080602001828103825283818151815260200191508051906020019080838360005b83811015610ba8578082015181840152602081019050610b8d565b50505050905090810190601f168015610bd55780820380516001836020036101000a031916815260200191505b509250505060405180910390f35b3415610bee57600080fd5b610c1a600480803573ffffffffffffffffffffffffffffffffffffffff16906020019091905050613327565b6040518080602001828103825283818151815260200191508051906020019060200280838360005b83811015610c5d578082015181840152602081019050610c42565b505050509050019250505060405180910390f35b3415610c7c57600080fd5b610c846133c4565b6040518082815260200191505060405180910390f35b3415610ca557600080fd5b610cad6133ca565b604051808215151515815260200191505060405180910390f35b3415610cd257600080fd5b610cda6133dd565b6040518082815260200191505060405180910390f35b3415610cfb57600080fd5b610d036133e3565b604051808215151515815260200191505060405180910390f35b3415610d2857600080fd5b610d54600480803573ffffffffffffffffffffffffffffffffffffffff169060200190919050506133f6565b6040518080602001828103825283818151815260200191508051906020019060200280838360005b83811015610d97578082015181840152602081019050610d7c565b505050509050019250505060405180910390f35b3415610db657600080fd5b610dbe613493565b6040518082815260200191505060405180910390f35b3415610ddf57600080fd5b610de7613499565b6040518082815260200191505060405180910390f35b3415610e0857600080fd5b610e86600480803590602001909190803590602001908201803590602001908080601f016020809104026020016040519081016040528093929190818152602001838380828437820191505050505050919080356000191690602001909190803560ff1690602001909190803560ff1690602001909190505061349f565b005b3415610e9357600080fd5b610e9b613b00565b6040518080602001828103825283818151815260200191508051906020019060200280838360005b83811015610ede578082015181840152602081019050610ec3565b505050509050019250505060405180910390f35b3415610efd57600080fd5b610f32600480803573ffffffffffffffffffffffffffffffffffffffff16906020019091908035906020019091905050613b94565b6040518082815260200191505060405180910390f35b3415610f5357600080fd5b610f5b613bc5565b604051808215151515815260200191505060405180910390f35b3415610f8057600080fd5b610f966004808035906020019091905050613bd8565b604051808273ffffffffffffffffffffffffffffffffffffffff1673ffffffffffffffffffffffffffffffffffffffff16815260200191505060405180910390f35b3415610fe357600080fd5b610feb613c17565b604051808273ffffffffffffffffffffffffffffffffffffffff1673ffffffffffffffffffffffffffffffffffffffff16815260200191505060405180910390f35b6000600960009054906101000a900473ffffffffffffffffffffffffffffffffffffffff1690508073ffffffffffffffffffffffffffffffffffffffff1663d323a4f8336000604051602001526040518263ffffffff167c0100000000000000000000000000000000000000000000000000000000028152600401808273ffffffffffffffffffffffffffffffffffffffff1673ffffffffffffffffffffffffffffffffffffffff168152602001915050602060405180830381600087803b15156110f757600080fd5b6102c65a03f1151561110857600080fd5b50505060405180519050151561111d57600080fd5b6000905060168381548110151561113057fe5b90600052602060002090600a020160020160003373ffffffffffffffffffffffffffffffffffffffff1673ffffffffffffffffffffffffffffffffffffffff16815260200190815260200160002060000160009054906101000a900460ff1615151561119b57600080fd5b6016838154811015156111aa57fe5b90600052602060002090600a020160080160009054906101000a900460ff161515156111d557600080fd5b426016848154811015156111e557fe5b90600052602060002090600a02016006015410151561120357600080fd5b4260168481548110151561121357fe5b90600052602060002090600a02016007015411151561123157600080fd5b60168381548110151561124057fe5b90600052602060002090600a020160020160008373ffffffffffffffffffffffffffffffffffffffff1673ffffffffffffffffffffffffffffffffffffffff16815260200190815260200160002060000160019054906101000a900460ff16156113185760016016848154811015156112b557fe5b90600052602060002090600a020160030160008473ffffffffffffffffffffffffffffffffffffffff1673ffffffffffffffffffffffffffffffffffffffff16815260200190815260200160002060030160008282540192505081905550611372565b600160168481548110151561132957fe5b90600052602060002090600a020160030160008073ffffffffffffffffffffffffffffffffffffffff168152602001908152602001600020600301600082825401925050819055505b600160168481548110151561138357fe5b90600052602060002090600a020160020160003373ffffffffffffffffffffffffffffffffffffffff1673ffffffffffffffffffffffffffffffffffffffff16815260200190815260200160002060000160006101000a81548160ff02191690831515021790555060016016848154811015156113fc57fe5b90600052602060002090600a020160090160008282540192505081905550601960003373ffffffffffffffffffffffffffffffffffffffff1673ffffffffffffffffffffffffffffffffffffffff168152602001908152602001600020805480600101828161146b9190613c3d565b9160005260206000209001600085909190915055507f64bbf4ffdc825afb14eb0f410f1141b85c43dfa5ee8ae25eb7cdf85ec997cd8f3384604051808373ffffffffffffffffffffffffffffffffffffffff1673ffffffffffffffffffffffffffffffffffffffff1681526020018281526020019250505060405180910390a1505050565b60008060168381548110151561150257fe5b90600052602060002090600a02016009015460168481548110151561152357fe5b90600052602060002090600a02016009015491509150915091565b601b6020528160005260406000208181548110151561155957fe5b9060005260206000209001600091509150505481565b611577613c69565b600080600060168581548110151561158b57fe5b90600052602060002090600a02016001016016868154811015156115ab57fe5b90600052602060002090600a0201600501546016878154811015156115cc57fe5b90600052602060002090600a0201600601546016888154811015156115ed57fe5b90600052602060002090600a020160070154838054600181600116156101000203166002900480601f0160208091040260200160405190810160405280929190818152602001828054600181600116156101000203166002900480156116945780601f1061166957610100808354040283529160200191611694565b820191906000526020600020905b81548152906001019060200180831161167757829003601f168201915b5050505050935093509350935093509193509193565b6000806016838154811015156116bc57fe5b90600052602060002090600a0201600501546016848154811015156116dd57fe5b90600052602060002090600a02016007015491509150915091565b60065481565b60125481565b600b5481565b611712613c7d565b601b60008373ffffffffffffffffffffffffffffffffffffffff1673ffffffffffffffffffffffffffffffffffffffff16815260200190815260200160002080548060200260200160405190810160405280929190818152602001828054801561179b57602002820191906000526020600020905b815481526020019060010190808311611787575b50505050509050919050565b60006016838154811015156117b857fe5b90600052602060002090600a020160080160019054906101000a900460ff1615156117e257600080fd5b6016838154811015156117f157fe5b90600052602060002090600a020160030160008373ffffffffffffffffffffffffffffffffffffffff1673ffffffffffffffffffffffffffffffffffffffff16815260200190815260200160002060030154905092915050565b600960009054906101000a900473ffffffffffffffffffffffffffffffffffffffff1681565b600061187b613c91565b60001515601360009054906101000a900460ff16151514151561189d57600080fd5b600c54421115156118ad57600080fd5b600060168054905011156118f75760166015548154811015156118cc57fe5b90600052602060002090600a020160080160009054906101000a900460ff1615156118f657600080fd5b5b33816000019073ffffffffffffffffffffffffffffffffffffffff16908173ffffffffffffffffffffffffffffffffffffffff1681525050828160200181905250428160600181815250506010544201816080018181525050600e546010544201018160a001818152505060008160c0019015159081151581525050600081610100019073ffffffffffffffffffffffffffffffffffffffff16908173ffffffffffffffffffffffffffffffffffffffff1681525050600081610120018181525050601680548060010182816119cd9190613d21565b91600052602060002090600a0201600083909190915060008201518160000160006101000a81548173ffffffffffffffffffffffffffffffffffffffff021916908373ffffffffffffffffffffffffffffffffffffffff1602179055506020820151816001019080519060200190611a46929190613d53565b506040820151816004019080519060200190611a63929190613dd3565b50606082015181600501556080820151816006015560a0820151816007015560c08201518160080160006101000a81548160ff02191690831515021790555060e08201518160080160016101000a81548160ff0219169083151502179055506101008201518160080160026101000a81548173ffffffffffffffffffffffffffffffffffffffff021916908373ffffffffffffffffffffffffffffffffffffffff1602179055506101208201518160090155505050600160168054905003915060016014600082825401925050819055506001601360006101000a81548160ff021916908315150217905550600b544201600c81905550816015819055507fdb79682a2650346f5fbfd232c0059da59a89b2a64c3fb7d75ccf58ff939be0d5338260200151836060015184608001518560a0015187604051808773ffffffffffffffffffffffffffffffffffffffff1673ffffffffffffffffffffffffffffffffffffffff16815260200180602001868152602001858152602001848152602001838152602001828103825287818151815260200191508051906020019080838360005b83811015611c22578082015181840152602081019050611c07565b50505050905090810190601f168015611c4f5780820380516001836020036101000a031916815260200191505b5097505050505050505060405180910390a1601860003373ffffffffffffffffffffffffffffffffffffffff1673ffffffffffffffffffffffffffffffffffffffff1681526020019081526020016000208054806001018281611cb29190613c3d565b91600052602060002090016000849091909150555050919050565b600d60009054906101000a900473ffffffffffffffffffffffffffffffffffffffff1681565b6000806000806000806000601688815481101515611d0d57fe5b90600052602060002090600a020160080160009054906101000a900460ff16151515611d3857600080fd5b42601689815481101515611d4857fe5b90600052602060002090600a020160070154101515611d6657600080fd5b6000601689815481101515611d7757fe5b90600052602060002090600a0201600401805490501480611db857506000601689815481101515611da457fe5b90600052602060002090600a020160090154145b15611f63576001601689815481101515611dce57fe5b90600052602060002090600a020160080160016101000a81548160ff0219169083151502179055506001601689815481101515611e0757fe5b90600052602060002090600a020160080160006101000a81548160ff0219169083151502179055507fd3844af45b09228a143d3e565e053517b81b3e6b1ee574de327db2ba09eebefe88600160405180838152602001821515151581526020019250505060405180910390a160014203600c819055506000601360006101000a81548160ff021916908315150217905550611f59601689815481101515611eaa57fe5b90600052602060002090600a02016001018054600181600116156101000203166002900480601f016020809104026020016040519081016040528092919081815260200182805460018160011615610100020316600290048015611f4f5780601f10611f2457610100808354040283529160200191611f4f565b820191906000526020600020905b815481529060010190602001808311611f3257829003601f168201915b5050505050611871565b50600096506126bf565b600095506000945060009350600960009054906101000a900473ffffffffffffffffffffffffffffffffffffffff1692508273ffffffffffffffffffffffffffffffffffffffff1663234d34de6000604051602001526040518163ffffffff167c0100000000000000000000000000000000000000000000000000000000028152600401602060405180830381600087803b151561200057600080fd5b6102c65a03f1151561201157600080fd5b5050506040518051905060125402606460168a81548110151561203057fe5b90600052602060002090600a0201600901540210151561204f57600193505b600091505b60168881548110151561206357fe5b90600052602060002090600a02016004018054905082101561222c5760168881548110151561208e57fe5b90600052602060002090600a0201600401828154811015156120ac57fe5b906000526020600020900160009054906101000a900473ffffffffffffffffffffffffffffffffffffffff169050856016898154811015156120ea57fe5b90600052602060002090600a020160030160008373ffffffffffffffffffffffffffffffffffffffff1673ffffffffffffffffffffffffffffffffffffffff1681526020019081526020016000206003015411156121b15760168881548110151561215157fe5b90600052602060002090600a020160030160008273ffffffffffffffffffffffffffffffffffffffff1673ffffffffffffffffffffffffffffffffffffffff1681526020019081526020016000206003015495508196506000945061221f565b856016898154811015156121c157fe5b90600052602060002090600a020160030160008373ffffffffffffffffffffffffffffffffffffffff1673ffffffffffffffffffffffffffffffffffffffff16815260200190815260200160002060030154141561221e57600194505b5b8180600101925050612054565b600160168981548110151561223d57fe5b90600052602060002090600a020160080160006101000a81548160ff0219169083151502179055506000601360006101000a81548160ff0219169083151502179055508415801561228b5750835b156124ba5760168881548110151561229f57fe5b90600052602060002090600a0201600401878154811015156122bd57fe5b906000526020600020900160009054906101000a900473ffffffffffffffffffffffffffffffffffffffff166016898154811015156122f857fe5b90600052602060002090600a020160080160026101000a81548173ffffffffffffffffffffffffffffffffffffffff021916908373ffffffffffffffffffffffffffffffffffffffff1602179055507f88749fd3de596f4dc6d65f95e558c03b325f183429445297fac0e261535772888860168a81548110151561237857fe5b90600052602060002090600a020160040160168b81548110151561239857fe5b90600052602060002090600a020160080160029054906101000a900473ffffffffffffffffffffffffffffffffffffffff1660168c8154811015156123d957fe5b90600052602060002090600a02016009015460405180858152602001806020018473ffffffffffffffffffffffffffffffffffffffff1673ffffffffffffffffffffffffffffffffffffffff16815260200183815260200182810382528581815481526020019150805480156124a457602002820191906000526020600020905b8160009054906101000a900473ffffffffffffffffffffffffffffffffffffffff1673ffffffffffffffffffffffffffffffffffffffff168152602001906001019080831161245a575b50509550505050505060405180910390a1612658565b60016016898154811015156124cb57fe5b90600052602060002090600a020160080160016101000a81548160ff0219169083151502179055507fd3844af45b09228a143d3e565e053517b81b3e6b1ee574de327db2ba09eebefe88600160405180838152602001821515151581526020019250505060405180910390a160014203600c81905550600160168981548110151561255257fe5b90600052602060002090600a020160080160006101000a81548160ff0219169083151502179055506000601360006101000a81548160ff0219169083151502179055506126566016898154811015156125a757fe5b90600052602060002090600a02016001018054600181600116156101000203166002900480601f01602080910402602001604051908101604052809291908181526020018280546001816001161561010002031660029004801561264c5780601f106126215761010080835404028352916020019161264c565b820191906000526020600020905b81548152906001019060200180831161262f57829003601f168201915b5050505050611871565b505b601a60003373ffffffffffffffffffffffffffffffffffffffff1673ffffffffffffffffffffffffffffffffffffffff16815260200190815260200160002080548060010182816126a99190613c3d565b916000526020600020900160008a909190915055505b505050505050919050565b6019602052816000526040600020818154811015156126e557fe5b9060005260206000209001600091509150505481565b612703613c69565b60078054600181600116156101000203166002900480601f0160208091040260200160405190810160405280929190818152602001828054600181600116156101000203166002900480156127995780601f1061276e57610100808354040283529160200191612799565b820191906000526020600020905b81548152906001019060200180831161277c57829003601f168201915b5050505050905090565b6016818154811015156127b257fe5b90600052602060002090600a02016000915090508060000160009054906101000a900473ffffffffffffffffffffffffffffffffffffffff169080600101908060050154908060060154908060070154908060080160009054906101000a900460ff16908060080160019054906101000a900460ff16908060080160029054906101000a900473ffffffffffffffffffffffffffffffffffffffff16908060090154905089565b60005481565b612867613e5d565b60168281548110151561287657fe5b90600052602060002090600a020160040180548060200260200160405190810160405280929190818152602001828054801561290757602002820191906000526020600020905b8160009054906101000a900473ffffffffffffffffffffffffffffffffffffffff1673ffffffffffffffffffffffffffffffffffffffff16815260200190600101908083116128bd575b50505050509050919050565b60155481565b60186020528160005260406000208181548110151561293457fe5b9060005260206000209001600091509150505481565b60008060008060168581548110151561295f57fe5b90600052602060002090600a020160080160009054906101000a900460ff1660168681548110151561298d57fe5b90600052602060002090600a020160080160019054906101000a900460ff166016878154811015156129bb57fe5b90600052602060002090600a020160080160029054906101000a900473ffffffffffffffffffffffffffffffffffffffff166016888154811015156129fc57fe5b90600052602060002090600a02016009015493509350935093509193509193565b600080612a28613e71565b601684815481101515612a3757fe5b90600052602060002090600a020160080160019054906101000a900460ff16151515612a6257600080fd5b601684815481101515612a7157fe5b90600052602060002090600a020160080160009054906101000a900460ff161515612a9b57600080fd5b600b54601685815481101515612aad57fe5b90600052602060002090600a02016005015401421115612b49576001601685815481101515612ad857fe5b90600052602060002090600a020160080160016101000a81548160ff0219169083151502179055507fd3844af45b09228a143d3e565e053517b81b3e6b1ee574de327db2ba09eebefe84600060405180838152602001821515151581526020019250505060405180910390a16131db565b600860009054906101000a900473ffffffffffffffffffffffffffffffffffffffff169250601684815481101515612b7d57fe5b90600052602060002090600a020160080160029054906101000a900473ffffffffffffffffffffffffffffffffffffffff169150600d60009054906101000a900473ffffffffffffffffffffffffffffffffffffffff1673ffffffffffffffffffffffffffffffffffffffff168273ffffffffffffffffffffffffffffffffffffffff1614151561308257601684815481101515612c1757fe5b90600052602060002090600a020160030160008373ffffffffffffffffffffffffffffffffffffffff1673ffffffffffffffffffffffffffffffffffffffff16815260200190815260200160002060a06040519081016040529081600082018054600181600116156101000203166002900480601f016020809104026020016040519081016040528092919081815260200182805460018160011615610100020316600290048015612d0a5780601f10612cdf57610100808354040283529160200191612d0a565b820191906000526020600020905b815481529060010190602001808311612ced57829003601f168201915b505050505081526020016001820154600019166000191681526020016002820160009054906101000a900460ff1660ff1660ff1681526020016002820160019054906101000a900460ff1660ff1660ff16815260200160038201548152505090508273ffffffffffffffffffffffffffffffffffffffff1663696c52198383600001518460200151856040015186606001516000604051602001526040518663ffffffff167c0100000000000000000000000000000000000000000000000000000000028152600401808673ffffffffffffffffffffffffffffffffffffffff1673ffffffffffffffffffffffffffffffffffffffff1681526020018060200185600019166000191681526020018460ff1660ff1681526020018360ff1660ff168152602001828103825286818151815260200191508051906020019080838360005b83811015612e68578082015181840152602081019050612e4d565b50505050905090810190601f168015612e955780820380516001836020036101000a031916815260200191505b509650505050505050602060405180830381600087803b1515612eb757600080fd5b6102c65a03f11515612ec857600080fd5b505050604051805190505060016014541115613040578273ffffffffffffffffffffffffffffffffffffffff16630e9defff8473ffffffffffffffffffffffffffffffffffffffff16635549ea51600d60009054906101000a900473ffffffffffffffffffffffffffffffffffffffff166000604051602001526040518263ffffffff167c0100000000000000000000000000000000000000000000000000000000028152600401808273ffffffffffffffffffffffffffffffffffffffff1673ffffffffffffffffffffffffffffffffffffffff168152602001915050602060405180830381600087803b1515612fbf57600080fd5b6102c65a03f11515612fd057600080fd5b505050604051805190506040518263ffffffff167c010000000000000000000000000000000000000000000000000000000002815260040180828152602001915050600060405180830381600087803b151561302b57600080fd5b6102c65a03f1151561303c57600080fd5b5050505b81600d60006101000a81548173ffffffffffffffffffffffffffffffffffffffff021916908373ffffffffffffffffffffffffffffffffffffffff1602179055505b6001601760008473ffffffffffffffffffffffffffffffffffffffff1673ffffffffffffffffffffffffffffffffffffffff1681526020019081526020016000206000828254019250508190555060016016858154811015156130e157fe5b90600052602060002090600a020160080160016101000a81548160ff0219169083151502179055507f948c625cd6ce700d1633bddaf8c10cb74993a25f74007d58169d60ae6ff49e5a8285604051808373ffffffffffffffffffffffffffffffffffffffff1673ffffffffffffffffffffffffffffffffffffffff1681526020018281526020019250505060405180910390a1601b60003373ffffffffffffffffffffffffffffffffffffffff1673ffffffffffffffffffffffffffffffffffffffff16815260200190815260200160002080548060010182816131c59190613c3d565b9160005260206000209001600086909190915055505b50505050565b60176020528060005260406000206000915090505481565b600460009054906101000a900460ff1681565b600e5481565b600060168281548110151561322357fe5b90600052602060002090600a020160020160003373ffffffffffffffffffffffffffffffffffffffff1673ffffffffffffffffffffffffffffffffffffffff16815260200190815260200160002060000160009054906101000a900460ff169050919050565b60078054600181600116156101000203166002900480601f01602080910402602001604051908101604052809291908181526020018280546001816001161561010002031660029004801561331f5780601f106132f45761010080835404028352916020019161331f565b820191906000526020600020905b81548152906001019060200180831161330257829003601f168201915b505050505081565b61332f613c7d565b601a60008373ffffffffffffffffffffffffffffffffffffffff1673ffffffffffffffffffffffffffffffffffffffff1681526020019081526020016000208054806020026020016040519081016040528092919081815260200182805480156133b857602002820191906000526020600020905b8154815260200190600101908083116133a4575b50505050509050919050565b60105481565b601360009054906101000a900460ff1681565b60145481565b600f60009054906101000a900460ff1681565b6133fe613c7d565b601860008373ffffffffffffffffffffffffffffffffffffffff1673ffffffffffffffffffffffffffffffffffffffff16815260200190815260200160002080548060200260200160405190810160405280929190818152602001828054801561348757602002820191906000526020600020905b815481526020019060010190808311613473575b50505050509050919050565b600c5481565b60115481565b6000600960009054906101000a900473ffffffffffffffffffffffffffffffffffffffff1690508073ffffffffffffffffffffffffffffffffffffffff1663d323a4f8336000604051602001526040518263ffffffff167c0100000000000000000000000000000000000000000000000000000000028152600401808273ffffffffffffffffffffffffffffffffffffffff1673ffffffffffffffffffffffffffffffffffffffff168152602001915050602060405180830381600087803b151561356957600080fd5b6102c65a03f1151561357a57600080fd5b50505060405180519050151561358f57600080fd5b600090506016868154811015156135a257fe5b90600052602060002090600a020160080160009054906101000a900460ff161515156135cd57600080fd5b426016878154811015156135dd57fe5b90600052602060002090600a0201600601541115156135fb57600080fd5b601154601760003373ffffffffffffffffffffffffffffffffffffffff1673ffffffffffffffffffffffffffffffffffffffff1681526020019081526020016000205410151561364a57600080fd5b60168681548110151561365957fe5b90600052602060002090600a020160020160003373ffffffffffffffffffffffffffffffffffffffff1673ffffffffffffffffffffffffffffffffffffffff16815260200190815260200160002060000160019054906101000a900460ff161515156136c457600080fd5b6016868154811015156136d357fe5b90600052602060002090600a020160040180548060010182816136f69190613eb0565b9160005260206000209001600033909190916101000a81548173ffffffffffffffffffffffffffffffffffffffff021916908373ffffffffffffffffffffffffffffffffffffffff16021790555050600160168781548110151561375657fe5b90600052602060002090600a020160020160003373ffffffffffffffffffffffffffffffffffffffff1673ffffffffffffffffffffffffffffffffffffffff16815260200190815260200160002060000160016101000a81548160ff021916908315150217905550846016878154811015156137ce57fe5b90600052602060002090600a020160030160003373ffffffffffffffffffffffffffffffffffffffff1673ffffffffffffffffffffffffffffffffffffffff1681526020019081526020016000206000019080519060200190613832929190613edc565b508360168781548110151561384357fe5b90600052602060002090600a020160030160003373ffffffffffffffffffffffffffffffffffffffff1673ffffffffffffffffffffffffffffffffffffffff1681526020019081526020016000206001018160001916905550826016878154811015156138ac57fe5b90600052602060002090600a020160030160003373ffffffffffffffffffffffffffffffffffffffff1673ffffffffffffffffffffffffffffffffffffffff16815260200190815260200160002060020160006101000a81548160ff021916908360ff1602179055508160168781548110151561392557fe5b90600052602060002090600a020160030160003373ffffffffffffffffffffffffffffffffffffffff1673ffffffffffffffffffffffffffffffffffffffff16815260200190815260200160002060020160016101000a81548160ff021916908360ff160217905550600060168781548110151561399f57fe5b90600052602060002090600a020160030160003373ffffffffffffffffffffffffffffffffffffffff1673ffffffffffffffffffffffffffffffffffffffff168152602001908152602001600020600301819055507ff8889d073f0366f70b5fd3ef060e300b4071afc6e31d114717b21bf374f270eb863387878787604051808781526020018673ffffffffffffffffffffffffffffffffffffffff1673ffffffffffffffffffffffffffffffffffffffff1681526020018060200185600019166000191681526020018460ff1660ff1681526020018360ff1660ff168152602001828103825286818151815260200191508051906020019080838360005b83811015613ab9578082015181840152602081019050613a9e565b50505050905090810190601f168015613ae65780820380516001836020036101000a031916815260200191505b5097505050505050505060405180910390a1505050505050565b613b08613e5d565b600a805480602002602001604051908101604052809291908181526020018280548015613b8a57602002820191906000526020600020905b8160009054906101000a900473ffffffffffffffffffffffffffffffffffffffff1673ffffffffffffffffffffffffffffffffffffffff1681526020019060010190808311613b40575b5050505050905090565b601a60205281600052604060002081815481101515613baf57fe5b9060005260206000209001600091509150505481565b600460019054906101000a900460ff1681565b600a81815481101515613be757fe5b90600052602060002090016000915054906101000a900473ffffffffffffffffffffffffffffffffffffffff1681565b600860009054906101000a900473ffffffffffffffffffffffffffffffffffffffff1681565b815481835581811511613c6457818360005260206000209182019101613c639190613f5c565b5b505050565b602060405190810160405280600081525090565b602060405190810160405280600081525090565b61014060405190810160405280600073ffffffffffffffffffffffffffffffffffffffff168152602001613cc3613f81565b8152602001613cd0613f95565b8152602001600081526020016000815260200160008152602001600015158152602001600015158152602001600073ffffffffffffffffffffffffffffffffffffffff168152602001600081525090565b815481835581811511613d4e57600a0281600a028360005260206000209182019101613d4d9190613fa9565b5b505050565b828054600181600116156101000203166002900490600052602060002090601f016020900481019282601f10613d9457805160ff1916838001178555613dc2565b82800160010185558215613dc2579182015b82811115613dc1578251825591602001919060010190613da6565b5b509050613dcf9190613f5c565b5090565b828054828255906000526020600020908101928215613e4c579160200282015b82811115613e4b5782518260006101000a81548173ffffffffffffffffffffffffffffffffffffffff021916908373ffffffffffffffffffffffffffffffffffffffff16021790555091602001919060010190613df3565b5b509050613e59919061407e565b5090565b602060405190810160405280600081525090565b60a060405190810160405280613e85613f81565b815260200160008019168152602001600060ff168152602001600060ff168152602001600081525090565b815481835581811511613ed757818360005260206000209182019101613ed69190613f5c565b5b505050565b828054600181600116156101000203166002900490600052602060002090601f016020900481019282601f10613f1d57805160ff1916838001178555613f4b565b82800160010185558215613f4b579182015b82811115613f4a578251825591602001919060010190613f2f565b5b509050613f589190613f5c565b5090565b613f7e91905b80821115613f7a576000816000905550600101613f62565b5090565b90565b602060405190810160405280600081525090565b602060405190810160405280600081525090565b61407b91905b8082111561407757600080820160006101000a81549073ffffffffffffffffffffffffffffffffffffffff0219169055600182016000613fef91906140c1565b600482016000613fff9190614109565b6005820160009055600682016000905560078201600090556008820160006101000a81549060ff02191690556008820160016101000a81549060ff02191690556008820160026101000a81549073ffffffffffffffffffffffffffffffffffffffff0219169055600982016000905550600a01613faf565b5090565b90565b6140be91905b808211156140ba57600081816101000a81549073ffffffffffffffffffffffffffffffffffffffff021916905550600101614084565b5090565b90565b50805460018160011615610100020316600290046000825580601f106140e75750614106565b601f0160209004906000526020600020908101906141059190613f5c565b5b50565b50805460008255906000526020600020908101906141279190613f5c565b505600a165627a7a723058209e5cf470306fbbe0a81780aa55534cbc7d531275ce52d85c85c6fe7f91be7dbe0029",
  "source": "pragma solidity ^0.4.11;\n\n// Standard contract for a presidential election procedure\n\nimport \"../standardProcedure.sol\";\nimport \"../standardOrgan.sol\";\n\n\ncontract cyclicalManyToOneElectionProcedure is Procedure{\n\n    // 1: Cyclical many to one election (Presidential Election)\n    // 2: Cyclical many to many election (Moderators Election)\n    // 3: Simple norm nomination \n    // 4: Simple admins and master nomination\n    // 5: Vote on Norms \n    // 6: Vote on masters and admins \n    // 7: Cooptation\n\n    int public procedureTypeNumber = 1;\n\n    // Storage for procedure name\n    string public procedureName;\n\n    // Which contract will be affected\n    address public affectedOrganContract;\n\n    // Where are the voter registered\n    address public referenceOrganContract;\n\n    // Gathering connected organs for easier DAO mapping\n    address[] public linkedOrgans;\n\n    // ############## Variable to set up when declaring the procedure\n    // ####### Vote creation process\n    // Election frequency\n    uint public ballotFrequency;\n    // Max parallel election running\n    uint public nextElectionDate;\n\n    // current President address\n    address public currentPresident;\n\n    // ####### Voting process\n    // Time to vote\n    uint public ballotDuration;\n\n    // Is blank vote accepted\n    bool public neutralVoteAccepted;\n\n    // ####### Candidacy process\n    // Time to declare as a candidate\n    uint public candidacyDuration;\n    // Maximum time someone can be candidate\n    uint public reelectionMaximum;\n\n    // ####### Resolution process\n    // Minimum participation to validate election\n    uint public quorumSize;\n\n\n    // Variable of the procedure to keep track of events\n    bool public isBallotCurrentlyRunning;\n    uint public totalBallotNumber;\n    uint public lastElectionNumber;\n\n    // List of open ballots\n    // uint[] public openBallotList;\n    // uint public currentBallot;\n\n    // Structure declaration\n\n    // Voter structure, to keep track of who voted for the current election\n    struct Voter {\n        bool voted;  // if true, that person already voted\n        bool isCandidate;\n    }\n\n\n\n    // Candidacies structure, to keep track of candidacies for an election\n    struct Candidacy {\n        string name;\n        bytes32 ipfsHash; // ID of proposal on IPFS\n        uint8 hash_function;\n        uint8 size;\n        uint voteNumber;\n    }\n\n    // Ballot structure, instanciated once for every election cycle\n    struct Ballot {\n        address creator;\n        string name;   // short name (up to 32 bytes)\n        mapping(address => Voter) voters;\n        mapping(address => Candidacy) candidacies;\n        address[] candidateList;\n        uint startDate;\n        uint candidacyEndDate;\n        uint electionEndDate;\n        bool wasEnded;\n        bool wasEnforced;\n        address winningCandidate;\n        uint totalVoteCount;\n\n    }\n\n\n\n    // A dynamically-sized array of `Ballot` structs.\n    Ballot[] public ballots;\n\n    // A mapping of candidacy status and number of candidacies per member\n    mapping(address => uint) public cumulatedCandidacies;\n\n    // Mapping each proposition to the user creating it\n    mapping (address => uint[]) public ballotToCreator;   \n\n    // Mapping each proposition to the user creating it\n    mapping (address => uint[]) public ballotToVoter;\n\n    // Mapping each proposition to the user counting it\n    mapping (address => uint[]) public ballotToCounter;\n\n    // Mapping each proposition to the user enforcing it\n    mapping (address => uint[]) public ballotToEnforcer;\n\n    // Events\n    event ballotCreationEvent(address _from, string _name, uint _startDate, uint _candidacyEndDate, uint _endDate, uint _ballotNumber);\n    event presentCandidacyEvent(uint _ballotNumber, address _candidateAddress, string _name, bytes32 _ipfsHash, uint8 _hash_function, uint8 _size);\n    event votedOnElectionEvent(address _from, uint _ballotNumber);\n    event ballotWasCounted(uint _ballotNumber, address[] _candidateList, address _winningCandidate, uint _totalVoteCount);\n    event ballotResultException(uint _ballotNumber, bool _wasRebooted);\n    event ballotWasEnforced(address _winningCandidate, uint _ballotNumber);\n\n\n    /// Create a new ballot to choose one of `proposalNames`.\n    function createBallot(string _ballotName) public returns (uint ballotNumber){\n            // Checking no ballot is currently running\n            require (isBallotCurrentlyRunning == false);\n            // Checking that election date has passed\n            require (now > nextElectionDate);\n            // Checking if previous ballot was counted\n            if (ballots.length > 0) {\n                require(ballots[lastElectionNumber].wasEnded);\n            }\n\n            Ballot memory newBallot;\n            newBallot.creator = msg.sender;\n            newBallot.name = _ballotName;\n            newBallot.startDate = now;\n            newBallot.candidacyEndDate = now + candidacyDuration;\n            newBallot.electionEndDate = now + candidacyDuration+ballotDuration;\n            newBallot.wasEnded = false;\n            newBallot.winningCandidate = 0x0000;\n            newBallot.totalVoteCount =0;\n            ballots.push(newBallot);\n\n            ballotNumber = ballots.length - 1;\n            // openBallotList.push(ballotNumber);\n            // currentBallot = ballotNumber;\n            totalBallotNumber += 1;\n            isBallotCurrentlyRunning = true;\n            nextElectionDate = now + ballotFrequency;\n            lastElectionNumber = ballotNumber;\n\n            // Ballot creation event\n            ballotCreationEvent(msg.sender, newBallot.name, newBallot.startDate, newBallot.candidacyEndDate, newBallot.electionEndDate, ballotNumber);\n            \n            // Loggin that ballot creator did create this ballot\n            ballotToCreator[msg.sender].push(ballotNumber);\n\n            }\n\n    function presentCandidacy(uint _ballotNumber, string _name, bytes32 _ipfsHash, uint8 _hash_function, uint8 _size) public {\n\n        // Check the candidate is a member of the reference organ\n        Organ voterRegistryOrgan = Organ(referenceOrganContract);\n        require(voterRegistryOrgan.isNorm(msg.sender));\n        delete voterRegistryOrgan;\n\n        // Check that the ballot is still active\n        require(!ballots[_ballotNumber].wasEnded);\n\n        // Check that the ballot candidacy period is still open\n        require(ballots[_ballotNumber].candidacyEndDate > now);\n\n        // Check that sender is not over the mandate limit\n        require(cumulatedCandidacies[msg.sender] < reelectionMaximum);\n\n        // Check if the candidate is already candidate\n        require(!ballots[_ballotNumber].voters[msg.sender].isCandidate);\n\n        ballots[_ballotNumber].candidateList.push(msg.sender);\n        ballots[_ballotNumber].voters[msg.sender].isCandidate = true;\n\n        ballots[_ballotNumber].candidacies[msg.sender].name = _name;\n        ballots[_ballotNumber].candidacies[msg.sender].ipfsHash = _ipfsHash;\n        ballots[_ballotNumber].candidacies[msg.sender].hash_function = _hash_function;\n        ballots[_ballotNumber].candidacies[msg.sender].size = _size;\n        ballots[_ballotNumber].candidacies[msg.sender].voteNumber = 0;\n         // Candidacy event is turned off for now\n        presentCandidacyEvent(_ballotNumber, msg.sender, _name, _ipfsHash, _hash_function, _size);\n\n\n\n        }\n\n\n    /// Vote for a candidate\n    function vote(uint _ballotNumber, address _candidateAddress) public {\n\n        Organ voterRegistryOrgan = Organ(referenceOrganContract);\n        require(voterRegistryOrgan.isNorm(msg.sender));\n\n        delete voterRegistryOrgan;\n        \n        // Check if voter already votred\n        require(!ballots[_ballotNumber].voters[msg.sender].voted);\n\n        // Check if vote is still active\n        require(!ballots[_ballotNumber].wasEnded);\n\n        // Check if candidacy period is over\n        require(ballots[_ballotNumber].candidacyEndDate < now);\n\n        // Check if voting period ended\n        require(ballots[_ballotNumber].electionEndDate > now);\n\n        // Check if candidate for whom we voted for is declared\n        if(ballots[_ballotNumber].voters[_candidateAddress].isCandidate)\n        {ballots[_ballotNumber].candidacies[_candidateAddress].voteNumber += 1;}\n        else\n            // If candidate does not exist, this is a neutral vote\n        {ballots[_ballotNumber].candidacies[0x0000].voteNumber += 1;}\n\n        ballots[_ballotNumber].voters[msg.sender].voted = true;\n        \n        ballots[_ballotNumber].totalVoteCount += 1;\n\n        // Associating vote with voter for gamification purposes\n        ballotToVoter[msg.sender].push(_ballotNumber);\n\n        // Event\n        votedOnElectionEvent(msg.sender, _ballotNumber);\n                        \n\n            }\n\n    // The vote is finished and we close it. This triggers the outcome of the vote.\n\n    function endBallot(uint _ballotNumber) public returns (uint winningCandidate){\n            // We check if the vote was already closed\n            require(!ballots[_ballotNumber].wasEnded);\n\n            // Checking that the vote can be closed\n            require(ballots[_ballotNumber].electionEndDate < now);\n\n            // Checking that the vote can be closed\n            if ((ballots[_ballotNumber].candidateList.length == 0) || ballots[_ballotNumber].totalVoteCount == 0)\n            {\n                    ballots[_ballotNumber].wasEnforced = true;\n                    ballots[_ballotNumber].wasEnded = true;\n                    ballotResultException(_ballotNumber, true);\n                    nextElectionDate = now -1;\n                    isBallotCurrentlyRunning = false;\n                    createBallot(ballots[_ballotNumber].name);\n                    return 0;\n            }\n\n\n            // ############## Going through candidates to check the vote count\n            uint winningVoteCount = 0;\n            bool isADraw = false;\n            bool quorumIsObtained = false;\n\n            Organ voterRegistryOrgan = Organ(referenceOrganContract);\n\n            // Check if quorum is obtained. We avoiding divisions here, since Solidity is not good to calculate divisions\n            if (ballots[_ballotNumber].totalVoteCount*100 >= quorumSize*voterRegistryOrgan.getActiveNormNumber())\n            {quorumIsObtained = true;}\n\n            // Going through candidates list\n            for (uint p = 0; p < ballots[_ballotNumber].candidateList.length; p++) {\n                address _candidateAddress = ballots[_ballotNumber].candidateList[p];\n                if (ballots[_ballotNumber].candidacies[_candidateAddress].voteNumber > winningVoteCount) {\n                    winningVoteCount = ballots[_ballotNumber].candidacies[_candidateAddress].voteNumber ;\n                    winningCandidate = p;\n                    isADraw = false;\n                }\n                else if (ballots[_ballotNumber].candidacies[_candidateAddress].voteNumber == winningVoteCount){\n                    isADraw = true;\n                }\n\n            }\n\n            // ############## Updating ballot values if vote concluded\n            ballots[_ballotNumber].wasEnded = true;\n            isBallotCurrentlyRunning = false;\n\n            if (!isADraw && quorumIsObtained)\n                // The ballot completed succesfully\n            {\n\n\n            ballots[_ballotNumber].winningCandidate = ballots[_ballotNumber].candidateList[winningCandidate];\n            ballotWasCounted(_ballotNumber, ballots[_ballotNumber].candidateList, ballots[_ballotNumber].winningCandidate, ballots[_ballotNumber].totalVoteCount);\n\n                }\n                else\n                    // The ballot did not conclude correctly. We reboot the election process.\n                {\n                    ballots[_ballotNumber].wasEnforced = true;\n                    ballotResultException(_ballotNumber, true);\n                    nextElectionDate = now -1;\n                    ballots[_ballotNumber].wasEnded = true;\n                    isBallotCurrentlyRunning = false;\n                    createBallot(ballots[_ballotNumber].name);\n                }\n\n                ballotToCounter[msg.sender].push(_ballotNumber);\n                            \n                \n\n            }\n    \n    function enforceBallot(uint _ballotNumber) public {\n        // Checking if ballot was already enforced\n        require(!ballots[_ballotNumber].wasEnforced );\n        // Checking the ballot was closed\n        require(ballots[_ballotNumber].wasEnded);\n        // Checking that the enforcing date is not later than the end of his supposed mandate\n        if (now > ballots[_ballotNumber].startDate + ballotFrequency)\n        {\n            ballots[_ballotNumber].wasEnforced = true;\n            // TODO add event to log this  \n            ballotResultException(_ballotNumber, false);                  \n            return;\n        }\n\n        // We initiate the Organ interface to add a presidential norm\n\n        Organ presidentialOrgan = Organ(affectedOrganContract);\n        address newPresidentAddress = ballots[_ballotNumber].winningCandidate;\n\n        // Adding new president first\n            // function addNorm (string _name, address _normAdress, bytes32 _ipfsHash, uint8 _hash_function, uint8 _size) public  returns (bool success);\n        if (newPresidentAddress != currentPresident)\n            {\n            Candidacy memory newPresident = ballots[_ballotNumber].candidacies[newPresidentAddress];\n            presidentialOrgan.addNorm(newPresidentAddress, newPresident.name, newPresident.ipfsHash, newPresident.hash_function, newPresident.size );\n\n            \n\n            // Removing former president, only if a former election was conducted.\n            if (totalBallotNumber > 1){\n            presidentialOrgan.remNorm(presidentialOrgan.getAddressPositionInNorm(currentPresident));\n                }\n\n\n            // Modifying procedure variable to count new president\n            currentPresident = newPresidentAddress;\n\n            }\n        cumulatedCandidacies[newPresidentAddress] += 1;\n        ballots[_ballotNumber].wasEnforced = true;\n        // delete openBallotList[_ballotNumber];\n        // currentBallot = 0;\n\n        // Adjusting mandate duration\n        // nextElectionDate = now + ballotFrequency - candidacyDuration - ballotDuration;\n        ballotWasEnforced( newPresidentAddress, _ballotNumber);\n        ballotToEnforcer[msg.sender].push(_ballotNumber);                \n\n         }\n        //////////////////////// Functions to communicate with other contracts\n    \n\n    // ######### Functions to retrieve procedure infos\n\n    function getCandidateList(uint _ballotNumber) public view returns (address[] _candidateList){\n        return ballots[_ballotNumber].candidateList;\n    }\n // Ballot related infos\n    function getSingleBallotInfo(uint _ballotNumber) public view returns (string _name, uint _startDate, uint _candidacyEndDate, uint _electionEndDate)\n    {return (ballots[_ballotNumber].name, ballots[_ballotNumber].startDate, ballots[_ballotNumber].candidacyEndDate, ballots[_ballotNumber].electionEndDate);}\n    function getBallotStatus(uint _ballotNumber) public view returns (bool _wasEnded, bool _wasEnforced, address _winningCandidate, uint _totalVoteCount)\n    { return (ballots[_ballotNumber].wasEnded, ballots[_ballotNumber].wasEnforced, ballots[_ballotNumber].winningCandidate, ballots[_ballotNumber].totalVoteCount);}\n\n    function getBallotDates(uint _ballotNumber) public view returns (uint startDate, uint endDate)\n    {return (ballots[_ballotNumber].startDate, ballots[_ballotNumber].electionEndDate);}\n    \n    function getBallotStats(uint _ballotNumber) public view returns (uint _votersNumber, uint _totalVoteCount)\n    { return (ballots[_ballotNumber].totalVoteCount, ballots[_ballotNumber].totalVoteCount);}\n\n    function haveIVoted(uint _ballotNumber) public view returns (bool IHaveVoted)\n    {return ballots[_ballotNumber].voters[msg.sender].voted;}\n    function getCandidateVoteNumber(uint _ballotNumber, address _candidateAddress) public view returns (uint voteReceived){\n        require(ballots[_ballotNumber].wasEnforced);\n        return ballots[_ballotNumber].candidacies[_candidateAddress].voteNumber;\n    }\n    function getBallotToCreator(address _userAddress) public view returns (uint[])\n    {return ballotToCreator[_userAddress];}    \n    function getBallotToCounter(address _userAddress) public view returns (uint[])\n    {return ballotToCounter[_userAddress];}  \n    function getBallotToEnforcer(address _userAddress) public view returns (uint[])\n    {return ballotToEnforcer[_userAddress];}  \n    function getLinkedOrgans() public view returns (address[] _linkedOrgans)\n    {return linkedOrgans;}\n    function getProcedureName() public view returns (string _procedureName)\n    {return procedureName;}\n\n}\n\n",
  "sourcePath": "/Users/henrilieutaud/Documents/Mes documents/97/Workshop/Kelsen/solidity/contracts/procedures/cyclicalManyToOneElectionProcedure.sol",
  "compiler": {
    "name": "solc",
    "version": "0.4.19+commit.c4cbbb05.Emscripten.clang"
  },
  "schemaVersion": "2.0.0",
  "updatedAt": "2018-05-15T09:52:44.287Z"
}