{
  "contractName": "cyclicalManyToOneElectionProcedure",
  "abi": [
    {
      "constant": true,
      "inputs": [
        {
          "name": "",
          "type": "address"
        },
        {
          "name": "",
          "type": "uint256"
        }
      ],
      "name": "ballotToEnforcer",
      "outputs": [
        {
          "name": "",
          "type": "uint256"
        }
      ],
      "payable": false,
      "stateMutability": "view",
      "type": "function"
    },
    {
      "constant": true,
      "inputs": [],
      "name": "procedureTypeNumber",
      "outputs": [
        {
          "name": "",
          "type": "int256"
        }
      ],
      "payable": false,
      "stateMutability": "view",
      "type": "function"
    },
    {
      "constant": true,
      "inputs": [],
      "name": "quorumSize",
      "outputs": [
        {
          "name": "",
          "type": "uint256"
        }
      ],
      "payable": false,
      "stateMutability": "view",
      "type": "function"
    },
    {
      "constant": true,
      "inputs": [],
      "name": "ballotFrequency",
      "outputs": [
        {
          "name": "",
          "type": "uint256"
        }
      ],
      "payable": false,
      "stateMutability": "view",
      "type": "function"
    },
    {
      "constant": true,
      "inputs": [],
      "name": "referenceOrganContract",
      "outputs": [
        {
          "name": "",
          "type": "address"
        }
      ],
      "payable": false,
      "stateMutability": "view",
      "type": "function"
    },
    {
      "constant": true,
      "inputs": [],
      "name": "currentPresident",
      "outputs": [
        {
          "name": "",
          "type": "address"
        }
      ],
      "payable": false,
      "stateMutability": "view",
      "type": "function"
    },
    {
      "constant": true,
      "inputs": [
        {
          "name": "",
          "type": "address"
        },
        {
          "name": "",
          "type": "uint256"
        }
      ],
      "name": "ballotToVoter",
      "outputs": [
        {
          "name": "",
          "type": "uint256"
        }
      ],
      "payable": false,
      "stateMutability": "view",
      "type": "function"
    },
    {
      "constant": true,
      "inputs": [
        {
          "name": "",
          "type": "uint256"
        }
      ],
      "name": "ballots",
      "outputs": [
        {
          "name": "creator",
          "type": "address"
        },
        {
          "name": "name",
          "type": "string"
        },
        {
          "name": "startDate",
          "type": "uint256"
        },
        {
          "name": "candidacyEndDate",
          "type": "uint256"
        },
        {
          "name": "electionEndDate",
          "type": "uint256"
        },
        {
          "name": "wasEnded",
          "type": "bool"
        },
        {
          "name": "wasEnforced",
          "type": "bool"
        },
        {
          "name": "winningCandidate",
          "type": "address"
        },
        {
          "name": "totalVoteCount",
          "type": "uint256"
        }
      ],
      "payable": false,
      "stateMutability": "view",
      "type": "function"
    },
    {
      "constant": true,
      "inputs": [],
      "name": "kelsenVersionNumber",
      "outputs": [
        {
          "name": "",
          "type": "int256"
        }
      ],
      "payable": false,
      "stateMutability": "view",
      "type": "function"
    },
    {
      "constant": true,
      "inputs": [],
      "name": "lastElectionNumber",
      "outputs": [
        {
          "name": "",
          "type": "uint256"
        }
      ],
      "payable": false,
      "stateMutability": "view",
      "type": "function"
    },
    {
      "constant": true,
      "inputs": [
        {
          "name": "",
          "type": "address"
        },
        {
          "name": "",
          "type": "uint256"
        }
      ],
      "name": "ballotToCreator",
      "outputs": [
        {
          "name": "",
          "type": "uint256"
        }
      ],
      "payable": false,
      "stateMutability": "view",
      "type": "function"
    },
    {
      "constant": true,
      "inputs": [
        {
          "name": "",
          "type": "address"
        }
      ],
      "name": "cumulatedCandidacies",
      "outputs": [
        {
          "name": "",
          "type": "uint256"
        }
      ],
      "payable": false,
      "stateMutability": "view",
      "type": "function"
    },
    {
      "constant": true,
      "inputs": [],
      "name": "isAnOrgan",
      "outputs": [
        {
          "name": "",
          "type": "bool"
        }
      ],
      "payable": false,
      "stateMutability": "view",
      "type": "function"
    },
    {
      "constant": true,
      "inputs": [],
      "name": "ballotDuration",
      "outputs": [
        {
          "name": "",
          "type": "uint256"
        }
      ],
      "payable": false,
      "stateMutability": "view",
      "type": "function"
    },
    {
      "constant": true,
      "inputs": [],
      "name": "candidacyDuration",
      "outputs": [
        {
          "name": "",
          "type": "uint256"
        }
      ],
      "payable": false,
      "stateMutability": "view",
      "type": "function"
    },
    {
      "constant": true,
      "inputs": [],
      "name": "isBallotCurrentlyRunning",
      "outputs": [
        {
          "name": "",
          "type": "bool"
        }
      ],
      "payable": false,
      "stateMutability": "view",
      "type": "function"
    },
    {
      "constant": true,
      "inputs": [],
      "name": "totalBallotNumber",
      "outputs": [
        {
          "name": "",
          "type": "uint256"
        }
      ],
      "payable": false,
      "stateMutability": "view",
      "type": "function"
    },
    {
      "constant": true,
      "inputs": [],
      "name": "neutralVoteAccepted",
      "outputs": [
        {
          "name": "",
          "type": "bool"
        }
      ],
      "payable": false,
      "stateMutability": "view",
      "type": "function"
    },
    {
      "constant": true,
      "inputs": [],
      "name": "nextElectionDate",
      "outputs": [
        {
          "name": "",
          "type": "uint256"
        }
      ],
      "payable": false,
      "stateMutability": "view",
      "type": "function"
    },
    {
      "constant": true,
      "inputs": [],
      "name": "reelectionMaximum",
      "outputs": [
        {
          "name": "",
          "type": "uint256"
        }
      ],
      "payable": false,
      "stateMutability": "view",
      "type": "function"
    },
    {
      "constant": true,
      "inputs": [
        {
          "name": "",
          "type": "address"
        },
        {
          "name": "",
          "type": "uint256"
        }
      ],
      "name": "ballotToCounter",
      "outputs": [
        {
          "name": "",
          "type": "uint256"
        }
      ],
      "payable": false,
      "stateMutability": "view",
      "type": "function"
    },
    {
      "constant": true,
      "inputs": [],
      "name": "isAProcedure",
      "outputs": [
        {
          "name": "",
          "type": "bool"
        }
      ],
      "payable": false,
      "stateMutability": "view",
      "type": "function"
    },
    {
      "constant": true,
      "inputs": [
        {
          "name": "",
          "type": "uint256"
        }
      ],
      "name": "linkedOrgans",
      "outputs": [
        {
          "name": "",
          "type": "address"
        }
      ],
      "payable": false,
      "stateMutability": "view",
      "type": "function"
    },
    {
      "constant": true,
      "inputs": [],
      "name": "affectedOrganContract",
      "outputs": [
        {
          "name": "",
          "type": "address"
        }
      ],
      "payable": false,
      "stateMutability": "view",
      "type": "function"
    },
    {
      "anonymous": false,
      "inputs": [
        {
          "indexed": false,
          "name": "_from",
          "type": "address"
        },
        {
          "indexed": false,
          "name": "_name",
          "type": "string"
        },
        {
          "indexed": false,
          "name": "_startDate",
          "type": "uint256"
        },
        {
          "indexed": false,
          "name": "_candidacyEndDate",
          "type": "uint256"
        },
        {
          "indexed": false,
          "name": "_endDate",
          "type": "uint256"
        },
        {
          "indexed": false,
          "name": "_ballotNumber",
          "type": "uint256"
        }
      ],
      "name": "ballotCreationEvent",
      "type": "event"
    },
    {
      "anonymous": false,
      "inputs": [
        {
          "indexed": false,
          "name": "_ballotNumber",
          "type": "uint256"
        },
        {
          "indexed": false,
          "name": "_candidateAddress",
          "type": "address"
        },
        {
          "indexed": false,
          "name": "_name",
          "type": "string"
        },
        {
          "indexed": false,
          "name": "_ipfsHash",
          "type": "bytes32"
        },
        {
          "indexed": false,
          "name": "_hash_function",
          "type": "uint8"
        },
        {
          "indexed": false,
          "name": "_size",
          "type": "uint8"
        }
      ],
      "name": "presentCandidacyEvent",
      "type": "event"
    },
    {
      "anonymous": false,
      "inputs": [
        {
          "indexed": false,
          "name": "_from",
          "type": "address"
        },
        {
          "indexed": false,
          "name": "_ballotNumber",
          "type": "uint256"
        }
      ],
      "name": "votedOnElectionEvent",
      "type": "event"
    },
    {
      "anonymous": false,
      "inputs": [
        {
          "indexed": false,
          "name": "_ballotNumber",
          "type": "uint256"
        },
        {
          "indexed": false,
          "name": "_candidateList",
          "type": "address[]"
        },
        {
          "indexed": false,
          "name": "_winningCandidate",
          "type": "address"
        },
        {
          "indexed": false,
          "name": "_totalVoteCount",
          "type": "uint256"
        }
      ],
      "name": "ballotWasCounted",
      "type": "event"
    },
    {
      "anonymous": false,
      "inputs": [
        {
          "indexed": false,
          "name": "_ballotNumber",
          "type": "uint256"
        },
        {
          "indexed": false,
          "name": "_wasRebooted",
          "type": "bool"
        }
      ],
      "name": "ballotResultException",
      "type": "event"
    },
    {
      "anonymous": false,
      "inputs": [
        {
          "indexed": false,
          "name": "_winningCandidate",
          "type": "address"
        },
        {
          "indexed": false,
          "name": "_ballotNumber",
          "type": "uint256"
        }
      ],
      "name": "ballotWasEnforced",
      "type": "event"
    },
    {
      "constant": false,
      "inputs": [
        {
          "name": "_ballotName",
          "type": "string"
        }
      ],
      "name": "createBallot",
      "outputs": [
        {
          "name": "ballotNumber",
          "type": "uint256"
        }
      ],
      "payable": false,
      "stateMutability": "nonpayable",
      "type": "function"
    },
    {
      "constant": false,
      "inputs": [
        {
          "name": "_ballotNumber",
          "type": "uint256"
        },
        {
          "name": "_name",
          "type": "string"
        },
        {
          "name": "_ipfsHash",
          "type": "bytes32"
        },
        {
          "name": "_hash_function",
          "type": "uint8"
        },
        {
          "name": "_size",
          "type": "uint8"
        }
      ],
      "name": "presentCandidacy",
      "outputs": [],
      "payable": false,
      "stateMutability": "nonpayable",
      "type": "function"
    },
    {
      "constant": false,
      "inputs": [
        {
          "name": "_ballotNumber",
          "type": "uint256"
        },
        {
          "name": "_candidateAddress",
          "type": "address"
        }
      ],
      "name": "vote",
      "outputs": [],
      "payable": false,
      "stateMutability": "nonpayable",
      "type": "function"
    },
    {
      "constant": false,
      "inputs": [
        {
          "name": "_ballotNumber",
          "type": "uint256"
        }
      ],
      "name": "endBallot",
      "outputs": [
        {
          "name": "winningCandidate",
          "type": "uint256"
        }
      ],
      "payable": false,
      "stateMutability": "nonpayable",
      "type": "function"
    },
    {
      "constant": false,
      "inputs": [
        {
          "name": "_ballotNumber",
          "type": "uint256"
        }
      ],
      "name": "enforceBallot",
      "outputs": [],
      "payable": false,
      "stateMutability": "nonpayable",
      "type": "function"
    },
    {
      "constant": true,
      "inputs": [
        {
          "name": "_ballotNumber",
          "type": "uint256"
        }
      ],
      "name": "getCandidateList",
      "outputs": [
        {
          "name": "_candidateList",
          "type": "address[]"
        }
      ],
      "payable": false,
      "stateMutability": "view",
      "type": "function"
    },
    {
      "constant": true,
      "inputs": [
        {
          "name": "_ballotNumber",
          "type": "uint256"
        }
      ],
      "name": "getSingleBallotInfo",
      "outputs": [
        {
          "name": "_name",
          "type": "string"
        },
        {
          "name": "_startDate",
          "type": "uint256"
        },
        {
          "name": "_candidacyEndDate",
          "type": "uint256"
        },
        {
          "name": "_electionEndDate",
          "type": "uint256"
        }
      ],
      "payable": false,
      "stateMutability": "view",
      "type": "function"
    },
    {
      "constant": true,
      "inputs": [
        {
          "name": "_ballotNumber",
          "type": "uint256"
        }
      ],
      "name": "getBallotResult",
      "outputs": [
        {
          "name": "_wasEnded",
          "type": "bool"
        },
        {
          "name": "_wasEnforced",
          "type": "bool"
        },
        {
          "name": "_winningCandidate",
          "type": "address"
        },
        {
          "name": "_totalVoteCount",
          "type": "uint256"
        }
      ],
      "payable": false,
      "stateMutability": "view",
      "type": "function"
    },
    {
      "constant": true,
      "inputs": [
        {
          "name": "_ballotNumber",
          "type": "uint256"
        }
      ],
      "name": "haveIVoted",
      "outputs": [
        {
          "name": "IHaveVoted",
          "type": "bool"
        }
      ],
      "payable": false,
      "stateMutability": "view",
      "type": "function"
    },
    {
      "constant": true,
      "inputs": [
        {
          "name": "_ballotNumber",
          "type": "uint256"
        },
        {
          "name": "_candidateAddress",
          "type": "address"
        }
      ],
      "name": "getCandidateVoteNumber",
      "outputs": [
        {
          "name": "voteReceived",
          "type": "uint256"
        }
      ],
      "payable": false,
      "stateMutability": "view",
      "type": "function"
    },
    {
      "constant": true,
      "inputs": [
        {
          "name": "_userAddress",
          "type": "address"
        }
      ],
      "name": "getBallotToCreator",
      "outputs": [
        {
          "name": "",
          "type": "uint256[]"
        }
      ],
      "payable": false,
      "stateMutability": "view",
      "type": "function"
    },
    {
      "constant": true,
      "inputs": [
        {
          "name": "_userAddress",
          "type": "address"
        }
      ],
      "name": "getBallotToCounter",
      "outputs": [
        {
          "name": "",
          "type": "uint256[]"
        }
      ],
      "payable": false,
      "stateMutability": "view",
      "type": "function"
    },
    {
      "constant": true,
      "inputs": [
        {
          "name": "_userAddress",
          "type": "address"
        }
      ],
      "name": "getBallotToEnforcer",
      "outputs": [
        {
          "name": "",
          "type": "uint256[]"
        }
      ],
      "payable": false,
      "stateMutability": "view",
      "type": "function"
    },
    {
      "constant": true,
      "inputs": [],
      "name": "getLinkedOrgans",
      "outputs": [
        {
          "name": "_linkedOrgans",
          "type": "address[]"
        }
      ],
      "payable": false,
      "stateMutability": "view",
      "type": "function"
    }
  ],
  "bytecode": "0x60606040526000600460006101000a81548160ff0219169083151502179055506001600460016101000a81548160ff0219169083151502179055506001600555341561004a57600080fd5b613db0806100596000396000f3006060604052600436106101d8576000357c0100000000000000000000000000000000000000000000000000000000900463ffffffff16806302d947ef146101dd5780631899706d1461021f57806318fe2d73146102755780632647d7f9146103265780633068ef4d1461034f578063322af16f14610378578063325bc6ea146103a1578063346820981461042f578063446192af1461048557806346a86576146104da57806347ae53e21461054b57806348fcc144146105a057806356453fbf146105d75780635c632b381461062d5780635dbe4d281461077e578063618bde0a146107a7578063680aee501461081f5780636be87354146108485780638cd1ff511461089e578063a4c797f7146108c1578063a8bef97a1461090e578063ab8f95361461093b578063ac37af1c14610964578063b064124d1461099f578063b0c2dede14610a2d578063b4b71cd214610a56578063b9f43cc514610a83578063bdf7f47214610aac578063bf0fac8314610ad9578063ce65c4e314610b67578063d0746b7a14610be7578063d9b84d4c14610c10578063de0db92e14610c39578063e570050114610cc4578063e76f506e14610d2e578063e80b30a514610d84578063f2edc61614610db1578063fe7800e114610e14575b600080fd5b34156101e857600080fd5b61021d600480803590602001909190803573ffffffffffffffffffffffffffffffffffffffff16906020019091905050610e69565b005b341561022a57600080fd5b61025f600480803573ffffffffffffffffffffffffffffffffffffffff1690602001909190803590602001909190505061132c565b6040518082815260200191505060405180910390f35b341561028057600080fd5b610296600480803590602001909190505061135d565b6040518080602001858152602001848152602001838152602001828103825286818151815260200191508051906020019080838360005b838110156102e85780820151818401526020810190506102cd565b50505050905090810190601f1680156103155780820380516001836020036101000a031916815260200191505b509550505050505060405180910390f35b341561033157600080fd5b610339611498565b6040518082815260200191505060405180910390f35b341561035a57600080fd5b61036261149e565b6040518082815260200191505060405180910390f35b341561038357600080fd5b61038b6114a4565b6040518082815260200191505060405180910390f35b34156103ac57600080fd5b6103d8600480803573ffffffffffffffffffffffffffffffffffffffff169060200190919050506114aa565b6040518080602001828103825283818151815260200191508051906020019060200280838360005b8381101561041b578082015181840152602081019050610400565b505050509050019250505060405180910390f35b341561043a57600080fd5b61046f600480803590602001909190803573ffffffffffffffffffffffffffffffffffffffff16906020019091905050611547565b6040518082815260200191505060405180910390f35b341561049057600080fd5b6104986115eb565b604051808273ffffffffffffffffffffffffffffffffffffffff1673ffffffffffffffffffffffffffffffffffffffff16815260200191505060405180910390f35b34156104e557600080fd5b610535600480803590602001908201803590602001908080601f01602080910402602001604051908101604052809392919081815260200183838082843782019150505050505091905050611611565b6040518082815260200191505060405180910390f35b341561055657600080fd5b61055e611a6d565b604051808273ffffffffffffffffffffffffffffffffffffffff1673ffffffffffffffffffffffffffffffffffffffff16815260200191505060405180910390f35b34156105ab57600080fd5b6105c16004808035906020019091905050611a93565b6040518082815260200191505060405180910390f35b34156105e257600080fd5b610617600480803573ffffffffffffffffffffffffffffffffffffffff1690602001909190803590602001909190505061246a565b6040518082815260200191505060405180910390f35b341561063857600080fd5b61064e600480803590602001909190505061249b565b604051808a73ffffffffffffffffffffffffffffffffffffffff1673ffffffffffffffffffffffffffffffffffffffff1681526020018060200189815260200188815260200187815260200186151515158152602001851515151581526020018473ffffffffffffffffffffffffffffffffffffffff1673ffffffffffffffffffffffffffffffffffffffff16815260200183815260200182810382528a8181546001816001161561010002031660029004815260200191508054600181600116156101000203166002900480156107675780601f1061073c57610100808354040283529160200191610767565b820191906000526020600020905b81548152906001019060200180831161074a57829003601f168201915b50509a505050505050505050505060405180910390f35b341561078957600080fd5b610791612551565b6040518082815260200191505060405180910390f35b34156107b257600080fd5b6107c86004808035906020019091905050612557565b6040518080602001828103825283818151815260200191508051906020019060200280838360005b8381101561080b5780820151818401526020810190506107f0565b505050509050019250505060405180910390f35b341561082a57600080fd5b61083261260b565b6040518082815260200191505060405180910390f35b341561085357600080fd5b610888600480803573ffffffffffffffffffffffffffffffffffffffff16906020019091908035906020019091905050612611565b6040518082815260200191505060405180910390f35b34156108a957600080fd5b6108bf6004808035906020019091905050612642565b005b34156108cc57600080fd5b6108f8600480803573ffffffffffffffffffffffffffffffffffffffff16906020019091905050612e06565b6040518082815260200191505060405180910390f35b341561091957600080fd5b610921612e1e565b604051808215151515815260200191505060405180910390f35b341561094657600080fd5b61094e612e31565b6040518082815260200191505060405180910390f35b341561096f57600080fd5b6109856004808035906020019091905050612e37565b604051808215151515815260200191505060405180910390f35b34156109aa57600080fd5b6109d6600480803573ffffffffffffffffffffffffffffffffffffffff16906020019091905050612eae565b6040518080602001828103825283818151815260200191508051906020019060200280838360005b83811015610a195780820151818401526020810190506109fe565b505050509050019250505060405180910390f35b3415610a3857600080fd5b610a40612f4b565b6040518082815260200191505060405180910390f35b3415610a6157600080fd5b610a69612f51565b604051808215151515815260200191505060405180910390f35b3415610a8e57600080fd5b610a96612f64565b6040518082815260200191505060405180910390f35b3415610ab757600080fd5b610abf612f6a565b604051808215151515815260200191505060405180910390f35b3415610ae457600080fd5b610b10600480803573ffffffffffffffffffffffffffffffffffffffff16906020019091905050612f7d565b6040518080602001828103825283818151815260200191508051906020019060200280838360005b83811015610b53578082015181840152602081019050610b38565b505050509050019250505060405180910390f35b3415610b7257600080fd5b610b88600480803590602001909190505061301a565b6040518085151515158152602001841515151581526020018373ffffffffffffffffffffffffffffffffffffffff1673ffffffffffffffffffffffffffffffffffffffff16815260200182815260200194505050505060405180910390f35b3415610bf257600080fd5b610bfa6130ed565b6040518082815260200191505060405180910390f35b3415610c1b57600080fd5b610c236130f3565b6040518082815260200191505060405180910390f35b3415610c4457600080fd5b610cc2600480803590602001909190803590602001908201803590602001908080601f016020809104026020016040519081016040528093929190818152602001838380828437820191505050505050919080356000191690602001909190803560ff1690602001909190803560ff169060200190919050506130f9565b005b3415610ccf57600080fd5b610cd761375a565b6040518080602001828103825283818151815260200191508051906020019060200280838360005b83811015610d1a578082015181840152602081019050610cff565b505050509050019250505060405180910390f35b3415610d3957600080fd5b610d6e600480803573ffffffffffffffffffffffffffffffffffffffff169060200190919080359060200190919050506137ee565b6040518082815260200191505060405180910390f35b3415610d8f57600080fd5b610d9761381f565b604051808215151515815260200191505060405180910390f35b3415610dbc57600080fd5b610dd26004808035906020019091905050613832565b604051808273ffffffffffffffffffffffffffffffffffffffff1673ffffffffffffffffffffffffffffffffffffffff16815260200191505060405180910390f35b3415610e1f57600080fd5b610e27613871565b604051808273ffffffffffffffffffffffffffffffffffffffff1673ffffffffffffffffffffffffffffffffffffffff16815260200191505060405180910390f35b6000600760009054906101000a900473ffffffffffffffffffffffffffffffffffffffff1690508073ffffffffffffffffffffffffffffffffffffffff1663d323a4f8336000604051602001526040518263ffffffff167c0100000000000000000000000000000000000000000000000000000000028152600401808273ffffffffffffffffffffffffffffffffffffffff1673ffffffffffffffffffffffffffffffffffffffff168152602001915050602060405180830381600087803b1515610f3357600080fd5b6102c65a03f11515610f4457600080fd5b505050604051805190501515610f5957600080fd5b60009050601483815481101515610f6c57fe5b90600052602060002090600a020160020160003373ffffffffffffffffffffffffffffffffffffffff1673ffffffffffffffffffffffffffffffffffffffff16815260200190815260200160002060000160009054906101000a900460ff16151515610fd757600080fd5b601483815481101515610fe657fe5b90600052602060002090600a020160080160009054906101000a900460ff1615151561101157600080fd5b4260148481548110151561102157fe5b90600052602060002090600a02016006015410151561103f57600080fd5b4260148481548110151561104f57fe5b90600052602060002090600a02016007015411151561106d57600080fd5b60148381548110151561107c57fe5b90600052602060002090600a020160020160008373ffffffffffffffffffffffffffffffffffffffff1673ffffffffffffffffffffffffffffffffffffffff16815260200190815260200160002060000160019054906101000a900460ff16156111545760016014848154811015156110f157fe5b90600052602060002090600a020160030160008473ffffffffffffffffffffffffffffffffffffffff1673ffffffffffffffffffffffffffffffffffffffff168152602001908152602001600020600301600082825401925050819055506111ae565b600160148481548110151561116557fe5b90600052602060002090600a020160030160008073ffffffffffffffffffffffffffffffffffffffff168152602001908152602001600020600301600082825401925050819055505b60016014848154811015156111bf57fe5b90600052602060002090600a020160020160003373ffffffffffffffffffffffffffffffffffffffff1673ffffffffffffffffffffffffffffffffffffffff16815260200190815260200160002060000160006101000a81548160ff021916908315150217905550600160148481548110151561123857fe5b90600052602060002090600a020160090160008282540192505081905550601760003373ffffffffffffffffffffffffffffffffffffffff1673ffffffffffffffffffffffffffffffffffffffff16815260200190815260200160002080548060010182816112a79190613897565b9160005260206000209001600085909190915055507f64bbf4ffdc825afb14eb0f410f1141b85c43dfa5ee8ae25eb7cdf85ec997cd8f3384604051808373ffffffffffffffffffffffffffffffffffffffff1673ffffffffffffffffffffffffffffffffffffffff1681526020018281526020019250505060405180910390a1505050565b60196020528160005260406000208181548110151561134757fe5b9060005260206000209001600091509150505481565b6113656138c3565b600080600060148581548110151561137957fe5b90600052602060002090600a020160010160148681548110151561139957fe5b90600052602060002090600a0201600501546014878154811015156113ba57fe5b90600052602060002090600a0201600601546014888154811015156113db57fe5b90600052602060002090600a020160070154838054600181600116156101000203166002900480601f0160208091040260200160405190810160405280929190818152602001828054600181600116156101000203166002900480156114825780601f1061145757610100808354040283529160200191611482565b820191906000526020600020905b81548152906001019060200180831161146557829003601f168201915b5050505050935093509350935093509193509193565b60055481565b60105481565b60095481565b6114b26138d7565b601960008373ffffffffffffffffffffffffffffffffffffffff1673ffffffffffffffffffffffffffffffffffffffff16815260200190815260200160002080548060200260200160405190810160405280929190818152602001828054801561153b57602002820191906000526020600020905b815481526020019060010190808311611527575b50505050509050919050565b600060148381548110151561155857fe5b90600052602060002090600a020160080160019054906101000a900460ff16151561158257600080fd5b60148381548110151561159157fe5b90600052602060002090600a020160030160008373ffffffffffffffffffffffffffffffffffffffff1673ffffffffffffffffffffffffffffffffffffffff16815260200190815260200160002060030154905092915050565b600760009054906101000a900473ffffffffffffffffffffffffffffffffffffffff1681565b600061161b6138eb565b60001515601160009054906101000a900460ff16151514151561163d57600080fd5b600a544211151561164d57600080fd5b6000601480549050111561169757601460135481548110151561166c57fe5b90600052602060002090600a020160080160009054906101000a900460ff16151561169657600080fd5b5b33816000019073ffffffffffffffffffffffffffffffffffffffff16908173ffffffffffffffffffffffffffffffffffffffff168152505082816020018190525042816060018181525050600e544201816080018181525050600c54600e544201018160a001818152505060008160c0019015159081151581525050600081610100019073ffffffffffffffffffffffffffffffffffffffff16908173ffffffffffffffffffffffffffffffffffffffff16815250506000816101200181815250506014805480600101828161176d919061397b565b91600052602060002090600a0201600083909190915060008201518160000160006101000a81548173ffffffffffffffffffffffffffffffffffffffff021916908373ffffffffffffffffffffffffffffffffffffffff16021790555060208201518160010190805190602001906117e69291906139ad565b506040820151816004019080519060200190611803929190613a2d565b50606082015181600501556080820151816006015560a0820151816007015560c08201518160080160006101000a81548160ff02191690831515021790555060e08201518160080160016101000a81548160ff0219169083151502179055506101008201518160080160026101000a81548173ffffffffffffffffffffffffffffffffffffffff021916908373ffffffffffffffffffffffffffffffffffffffff1602179055506101208201518160090155505050600160148054905003915060016012600082825401925050819055506001601160006101000a81548160ff0219169083151502179055506009544201600a81905550816013819055507fdb79682a2650346f5fbfd232c0059da59a89b2a64c3fb7d75ccf58ff939be0d5338260200151836060015184608001518560a0015187604051808773ffffffffffffffffffffffffffffffffffffffff1673ffffffffffffffffffffffffffffffffffffffff16815260200180602001868152602001858152602001848152602001838152602001828103825287818151815260200191508051906020019080838360005b838110156119c25780820151818401526020810190506119a7565b50505050905090810190601f1680156119ef5780820380516001836020036101000a031916815260200191505b5097505050505050505060405180910390a1601660003373ffffffffffffffffffffffffffffffffffffffff1673ffffffffffffffffffffffffffffffffffffffff1681526020019081526020016000208054806001018281611a529190613897565b91600052602060002090016000849091909150555050919050565b600b60009054906101000a900473ffffffffffffffffffffffffffffffffffffffff1681565b6000806000806000806000601488815481101515611aad57fe5b90600052602060002090600a020160080160009054906101000a900460ff16151515611ad857600080fd5b42601489815481101515611ae857fe5b90600052602060002090600a020160070154101515611b0657600080fd5b6000601489815481101515611b1757fe5b90600052602060002090600a0201600401805490501480611b5857506000601489815481101515611b4457fe5b90600052602060002090600a020160090154145b15611d03576001601489815481101515611b6e57fe5b90600052602060002090600a020160080160016101000a81548160ff0219169083151502179055506001601489815481101515611ba757fe5b90600052602060002090600a020160080160006101000a81548160ff0219169083151502179055507fd3844af45b09228a143d3e565e053517b81b3e6b1ee574de327db2ba09eebefe88600160405180838152602001821515151581526020019250505060405180910390a160014203600a819055506000601160006101000a81548160ff021916908315150217905550611cf9601489815481101515611c4a57fe5b90600052602060002090600a02016001018054600181600116156101000203166002900480601f016020809104026020016040519081016040528092919081815260200182805460018160011615610100020316600290048015611cef5780601f10611cc457610100808354040283529160200191611cef565b820191906000526020600020905b815481529060010190602001808311611cd257829003601f168201915b5050505050611611565b506000965061245f565b600095506000945060009350600760009054906101000a900473ffffffffffffffffffffffffffffffffffffffff1692508273ffffffffffffffffffffffffffffffffffffffff1663234d34de6000604051602001526040518163ffffffff167c0100000000000000000000000000000000000000000000000000000000028152600401602060405180830381600087803b1515611da057600080fd5b6102c65a03f11515611db157600080fd5b5050506040518051905060105402606460148a815481101515611dd057fe5b90600052602060002090600a02016009015402101515611def57600193505b600091505b601488815481101515611e0357fe5b90600052602060002090600a020160040180549050821015611fcc57601488815481101515611e2e57fe5b90600052602060002090600a020160040182815481101515611e4c57fe5b906000526020600020900160009054906101000a900473ffffffffffffffffffffffffffffffffffffffff16905085601489815481101515611e8a57fe5b90600052602060002090600a020160030160008373ffffffffffffffffffffffffffffffffffffffff1673ffffffffffffffffffffffffffffffffffffffff168152602001908152602001600020600301541115611f5157601488815481101515611ef157fe5b90600052602060002090600a020160030160008273ffffffffffffffffffffffffffffffffffffffff1673ffffffffffffffffffffffffffffffffffffffff16815260200190815260200160002060030154955081965060009450611fbf565b85601489815481101515611f6157fe5b90600052602060002090600a020160030160008373ffffffffffffffffffffffffffffffffffffffff1673ffffffffffffffffffffffffffffffffffffffff168152602001908152602001600020600301541415611fbe57600194505b5b8180600101925050611df4565b6001601489815481101515611fdd57fe5b90600052602060002090600a020160080160006101000a81548160ff0219169083151502179055506000601160006101000a81548160ff0219169083151502179055508415801561202b5750835b1561225a5760148881548110151561203f57fe5b90600052602060002090600a02016004018781548110151561205d57fe5b906000526020600020900160009054906101000a900473ffffffffffffffffffffffffffffffffffffffff1660148981548110151561209857fe5b90600052602060002090600a020160080160026101000a81548173ffffffffffffffffffffffffffffffffffffffff021916908373ffffffffffffffffffffffffffffffffffffffff1602179055507f88749fd3de596f4dc6d65f95e558c03b325f183429445297fac0e261535772888860148a81548110151561211857fe5b90600052602060002090600a020160040160148b81548110151561213857fe5b90600052602060002090600a020160080160029054906101000a900473ffffffffffffffffffffffffffffffffffffffff1660148c81548110151561217957fe5b90600052602060002090600a02016009015460405180858152602001806020018473ffffffffffffffffffffffffffffffffffffffff1673ffffffffffffffffffffffffffffffffffffffff168152602001838152602001828103825285818154815260200191508054801561224457602002820191906000526020600020905b8160009054906101000a900473ffffffffffffffffffffffffffffffffffffffff1673ffffffffffffffffffffffffffffffffffffffff16815260200190600101908083116121fa575b50509550505050505060405180910390a16123f8565b600160148981548110151561226b57fe5b90600052602060002090600a020160080160016101000a81548160ff0219169083151502179055507fd3844af45b09228a143d3e565e053517b81b3e6b1ee574de327db2ba09eebefe88600160405180838152602001821515151581526020019250505060405180910390a160014203600a8190555060016014898154811015156122f257fe5b90600052602060002090600a020160080160006101000a81548160ff0219169083151502179055506000601160006101000a81548160ff0219169083151502179055506123f660148981548110151561234757fe5b90600052602060002090600a02016001018054600181600116156101000203166002900480601f0160208091040260200160405190810160405280929190818152602001828054600181600116156101000203166002900480156123ec5780601f106123c1576101008083540402835291602001916123ec565b820191906000526020600020905b8154815290600101906020018083116123cf57829003601f168201915b5050505050611611565b505b601860003373ffffffffffffffffffffffffffffffffffffffff1673ffffffffffffffffffffffffffffffffffffffff16815260200190815260200160002080548060010182816124499190613897565b916000526020600020900160008a909190915055505b505050505050919050565b60176020528160005260406000208181548110151561248557fe5b9060005260206000209001600091509150505481565b6014818154811015156124aa57fe5b90600052602060002090600a02016000915090508060000160009054906101000a900473ffffffffffffffffffffffffffffffffffffffff169080600101908060050154908060060154908060070154908060080160009054906101000a900460ff16908060080160019054906101000a900460ff16908060080160029054906101000a900473ffffffffffffffffffffffffffffffffffffffff16908060090154905089565b60005481565b61255f613ab7565b60148281548110151561256e57fe5b90600052602060002090600a02016004018054806020026020016040519081016040528092919081815260200182805480156125ff57602002820191906000526020600020905b8160009054906101000a900473ffffffffffffffffffffffffffffffffffffffff1673ffffffffffffffffffffffffffffffffffffffff16815260200190600101908083116125b5575b50505050509050919050565b60135481565b60166020528160005260406000208181548110151561262c57fe5b9060005260206000209001600091509150505481565b60008061264d613acb565b60148481548110151561265c57fe5b90600052602060002090600a020160080160019054906101000a900460ff1615151561268757600080fd5b60148481548110151561269657fe5b90600052602060002090600a020160080160009054906101000a900460ff1615156126c057600080fd5b6009546014858154811015156126d257fe5b90600052602060002090600a0201600501540142111561276e5760016014858154811015156126fd57fe5b90600052602060002090600a020160080160016101000a81548160ff0219169083151502179055507fd3844af45b09228a143d3e565e053517b81b3e6b1ee574de327db2ba09eebefe84600060405180838152602001821515151581526020019250505060405180910390a1612e00565b600660009054906101000a900473ffffffffffffffffffffffffffffffffffffffff1692506014848154811015156127a257fe5b90600052602060002090600a020160080160029054906101000a900473ffffffffffffffffffffffffffffffffffffffff169150600b60009054906101000a900473ffffffffffffffffffffffffffffffffffffffff1673ffffffffffffffffffffffffffffffffffffffff168273ffffffffffffffffffffffffffffffffffffffff16141515612ca75760148481548110151561283c57fe5b90600052602060002090600a020160030160008373ffffffffffffffffffffffffffffffffffffffff1673ffffffffffffffffffffffffffffffffffffffff16815260200190815260200160002060a06040519081016040529081600082018054600181600116156101000203166002900480601f01602080910402602001604051908101604052809291908181526020018280546001816001161561010002031660029004801561292f5780601f106129045761010080835404028352916020019161292f565b820191906000526020600020905b81548152906001019060200180831161291257829003601f168201915b505050505081526020016001820154600019166000191681526020016002820160009054906101000a900460ff1660ff1660ff1681526020016002820160019054906101000a900460ff1660ff1660ff16815260200160038201548152505090508273ffffffffffffffffffffffffffffffffffffffff1663696c52198383600001518460200151856040015186606001516000604051602001526040518663ffffffff167c0100000000000000000000000000000000000000000000000000000000028152600401808673ffffffffffffffffffffffffffffffffffffffff1673ffffffffffffffffffffffffffffffffffffffff1681526020018060200185600019166000191681526020018460ff1660ff1681526020018360ff1660ff168152602001828103825286818151815260200191508051906020019080838360005b83811015612a8d578082015181840152602081019050612a72565b50505050905090810190601f168015612aba5780820380516001836020036101000a031916815260200191505b509650505050505050602060405180830381600087803b1515612adc57600080fd5b6102c65a03f11515612aed57600080fd5b505050604051805190505060016012541115612c65578273ffffffffffffffffffffffffffffffffffffffff16630e9defff8473ffffffffffffffffffffffffffffffffffffffff16635549ea51600b60009054906101000a900473ffffffffffffffffffffffffffffffffffffffff166000604051602001526040518263ffffffff167c0100000000000000000000000000000000000000000000000000000000028152600401808273ffffffffffffffffffffffffffffffffffffffff1673ffffffffffffffffffffffffffffffffffffffff168152602001915050602060405180830381600087803b1515612be457600080fd5b6102c65a03f11515612bf557600080fd5b505050604051805190506040518263ffffffff167c010000000000000000000000000000000000000000000000000000000002815260040180828152602001915050600060405180830381600087803b1515612c5057600080fd5b6102c65a03f11515612c6157600080fd5b5050505b81600b60006101000a81548173ffffffffffffffffffffffffffffffffffffffff021916908373ffffffffffffffffffffffffffffffffffffffff1602179055505b6001601560008473ffffffffffffffffffffffffffffffffffffffff1673ffffffffffffffffffffffffffffffffffffffff168152602001908152602001600020600082825401925050819055506001601485815481101515612d0657fe5b90600052602060002090600a020160080160016101000a81548160ff0219169083151502179055507f948c625cd6ce700d1633bddaf8c10cb74993a25f74007d58169d60ae6ff49e5a8285604051808373ffffffffffffffffffffffffffffffffffffffff1673ffffffffffffffffffffffffffffffffffffffff1681526020018281526020019250505060405180910390a1601960003373ffffffffffffffffffffffffffffffffffffffff1673ffffffffffffffffffffffffffffffffffffffff1681526020019081526020016000208054806001018281612dea9190613897565b9160005260206000209001600086909190915055505b50505050565b60156020528060005260406000206000915090505481565b600460009054906101000a900460ff1681565b600c5481565b6000601482815481101515612e4857fe5b90600052602060002090600a020160020160003373ffffffffffffffffffffffffffffffffffffffff1673ffffffffffffffffffffffffffffffffffffffff16815260200190815260200160002060000160009054906101000a900460ff169050919050565b612eb66138d7565b601860008373ffffffffffffffffffffffffffffffffffffffff1673ffffffffffffffffffffffffffffffffffffffff168152602001908152602001600020805480602002602001604051908101604052809291908181526020018280548015612f3f57602002820191906000526020600020905b815481526020019060010190808311612f2b575b50505050509050919050565b600e5481565b601160009054906101000a900460ff1681565b60125481565b600d60009054906101000a900460ff1681565b612f856138d7565b601660008373ffffffffffffffffffffffffffffffffffffffff1673ffffffffffffffffffffffffffffffffffffffff16815260200190815260200160002080548060200260200160405190810160405280929190818152602001828054801561300e57602002820191906000526020600020905b815481526020019060010190808311612ffa575b50505050509050919050565b60008060008060148581548110151561302f57fe5b90600052602060002090600a020160080160009054906101000a900460ff1660148681548110151561305d57fe5b90600052602060002090600a020160080160019054906101000a900460ff1660148781548110151561308b57fe5b90600052602060002090600a020160080160029054906101000a900473ffffffffffffffffffffffffffffffffffffffff166014888154811015156130cc57fe5b90600052602060002090600a02016009015493509350935093509193509193565b600a5481565b600f5481565b6000600760009054906101000a900473ffffffffffffffffffffffffffffffffffffffff1690508073ffffffffffffffffffffffffffffffffffffffff1663d323a4f8336000604051602001526040518263ffffffff167c0100000000000000000000000000000000000000000000000000000000028152600401808273ffffffffffffffffffffffffffffffffffffffff1673ffffffffffffffffffffffffffffffffffffffff168152602001915050602060405180830381600087803b15156131c357600080fd5b6102c65a03f115156131d457600080fd5b5050506040518051905015156131e957600080fd5b600090506014868154811015156131fc57fe5b90600052602060002090600a020160080160009054906101000a900460ff1615151561322757600080fd5b4260148781548110151561323757fe5b90600052602060002090600a02016006015411151561325557600080fd5b600f54601560003373ffffffffffffffffffffffffffffffffffffffff1673ffffffffffffffffffffffffffffffffffffffff168152602001908152602001600020541015156132a457600080fd5b6014868154811015156132b357fe5b90600052602060002090600a020160020160003373ffffffffffffffffffffffffffffffffffffffff1673ffffffffffffffffffffffffffffffffffffffff16815260200190815260200160002060000160019054906101000a900460ff1615151561331e57600080fd5b60148681548110151561332d57fe5b90600052602060002090600a020160040180548060010182816133509190613b0a565b9160005260206000209001600033909190916101000a81548173ffffffffffffffffffffffffffffffffffffffff021916908373ffffffffffffffffffffffffffffffffffffffff1602179055505060016014878154811015156133b057fe5b90600052602060002090600a020160020160003373ffffffffffffffffffffffffffffffffffffffff1673ffffffffffffffffffffffffffffffffffffffff16815260200190815260200160002060000160016101000a81548160ff0219169083151502179055508460148781548110151561342857fe5b90600052602060002090600a020160030160003373ffffffffffffffffffffffffffffffffffffffff1673ffffffffffffffffffffffffffffffffffffffff168152602001908152602001600020600001908051906020019061348c929190613b36565b508360148781548110151561349d57fe5b90600052602060002090600a020160030160003373ffffffffffffffffffffffffffffffffffffffff1673ffffffffffffffffffffffffffffffffffffffff16815260200190815260200160002060010181600019169055508260148781548110151561350657fe5b90600052602060002090600a020160030160003373ffffffffffffffffffffffffffffffffffffffff1673ffffffffffffffffffffffffffffffffffffffff16815260200190815260200160002060020160006101000a81548160ff021916908360ff1602179055508160148781548110151561357f57fe5b90600052602060002090600a020160030160003373ffffffffffffffffffffffffffffffffffffffff1673ffffffffffffffffffffffffffffffffffffffff16815260200190815260200160002060020160016101000a81548160ff021916908360ff16021790555060006014878154811015156135f957fe5b90600052602060002090600a020160030160003373ffffffffffffffffffffffffffffffffffffffff1673ffffffffffffffffffffffffffffffffffffffff168152602001908152602001600020600301819055507ff8889d073f0366f70b5fd3ef060e300b4071afc6e31d114717b21bf374f270eb863387878787604051808781526020018673ffffffffffffffffffffffffffffffffffffffff1673ffffffffffffffffffffffffffffffffffffffff1681526020018060200185600019166000191681526020018460ff1660ff1681526020018360ff1660ff168152602001828103825286818151815260200191508051906020019080838360005b838110156137135780820151818401526020810190506136f8565b50505050905090810190601f1680156137405780820380516001836020036101000a031916815260200191505b5097505050505050505060405180910390a1505050505050565b613762613ab7565b60088054806020026020016040519081016040528092919081815260200182805480156137e457602002820191906000526020600020905b8160009054906101000a900473ffffffffffffffffffffffffffffffffffffffff1673ffffffffffffffffffffffffffffffffffffffff168152602001906001019080831161379a575b5050505050905090565b60186020528160005260406000208181548110151561380957fe5b9060005260206000209001600091509150505481565b600460019054906101000a900460ff1681565b60088181548110151561384157fe5b90600052602060002090016000915054906101000a900473ffffffffffffffffffffffffffffffffffffffff1681565b600660009054906101000a900473ffffffffffffffffffffffffffffffffffffffff1681565b8154818355818115116138be578183600052602060002091820191016138bd9190613bb6565b5b505050565b602060405190810160405280600081525090565b602060405190810160405280600081525090565b61014060405190810160405280600073ffffffffffffffffffffffffffffffffffffffff16815260200161391d613bdb565b815260200161392a613bef565b8152602001600081526020016000815260200160008152602001600015158152602001600015158152602001600073ffffffffffffffffffffffffffffffffffffffff168152602001600081525090565b8154818355818115116139a857600a0281600a0283600052602060002091820191016139a79190613c03565b5b505050565b828054600181600116156101000203166002900490600052602060002090601f016020900481019282601f106139ee57805160ff1916838001178555613a1c565b82800160010185558215613a1c579182015b82811115613a1b578251825591602001919060010190613a00565b5b509050613a299190613bb6565b5090565b828054828255906000526020600020908101928215613aa6579160200282015b82811115613aa55782518260006101000a81548173ffffffffffffffffffffffffffffffffffffffff021916908373ffffffffffffffffffffffffffffffffffffffff16021790555091602001919060010190613a4d565b5b509050613ab39190613cd8565b5090565b602060405190810160405280600081525090565b60a060405190810160405280613adf613bdb565b815260200160008019168152602001600060ff168152602001600060ff168152602001600081525090565b815481835581811511613b3157818360005260206000209182019101613b309190613bb6565b5b505050565b828054600181600116156101000203166002900490600052602060002090601f016020900481019282601f10613b7757805160ff1916838001178555613ba5565b82800160010185558215613ba5579182015b82811115613ba4578251825591602001919060010190613b89565b5b509050613bb29190613bb6565b5090565b613bd891905b80821115613bd4576000816000905550600101613bbc565b5090565b90565b602060405190810160405280600081525090565b602060405190810160405280600081525090565b613cd591905b80821115613cd157600080820160006101000a81549073ffffffffffffffffffffffffffffffffffffffff0219169055600182016000613c499190613d1b565b600482016000613c599190613d63565b6005820160009055600682016000905560078201600090556008820160006101000a81549060ff02191690556008820160016101000a81549060ff02191690556008820160026101000a81549073ffffffffffffffffffffffffffffffffffffffff0219169055600982016000905550600a01613c09565b5090565b90565b613d1891905b80821115613d1457600081816101000a81549073ffffffffffffffffffffffffffffffffffffffff021916905550600101613cde565b5090565b90565b50805460018160011615610100020316600290046000825580601f10613d415750613d60565b601f016020900490600052602060002090810190613d5f9190613bb6565b5b50565b5080546000825590600052602060002090810190613d819190613bb6565b505600a165627a7a72305820ae0e484aeaceec2ebc11880435c38b3bd84bca5266778833c3c293e7d6b911680029",
  "source": "pragma solidity ^0.4.11;\n\n// Standard contract for a presidential election procedure\n\nimport \"../standardProcedure.sol\";\nimport \"../standardOrgan.sol\";\n\n\ncontract cyclicalManyToOneElectionProcedure is Procedure{\n\n    // 1: Cyclical many to one election (Presidential Election)\n    // 2: Cyclical many to many election (Moderators Election)\n    // 3: Simple norm nomination \n    // 4: Simple admins and master nomination\n    // 5: Vote on Norms \n    // 6: Vote on masters and admins \n    // 7: Cooptation\n\n    int public procedureTypeNumber = 1;\n\n    // Which contract will be affected\n    address public affectedOrganContract;\n\n    // Where are the voter registered\n    address public referenceOrganContract;\n\n    // Gathering connected organs for easier DAO mapping\n    address[] public linkedOrgans;\n\n    // ############## Variable to set up when declaring the procedure\n    // ####### Vote creation process\n    // Election frequency\n    uint public ballotFrequency;\n    // Max parallel election running\n    uint public nextElectionDate;\n\n    // current President address\n    address public currentPresident;\n\n    // ####### Voting process\n    // Time to vote\n    uint public ballotDuration;\n\n    // Is blank vote accepted\n    bool public neutralVoteAccepted;\n\n    // ####### Candidacy process\n    // Time to declare as a candidate\n    uint public candidacyDuration;\n    // Maximum time someone can be candidate\n    uint public reelectionMaximum;\n\n    // ####### Resolution process\n    // Minimum participation to validate election\n    uint public quorumSize;\n\n\n    // Variable of the procedure to keep track of events\n    bool public isBallotCurrentlyRunning;\n    uint public totalBallotNumber;\n    uint public lastElectionNumber;\n\n    // List of open ballots\n    // uint[] public openBallotList;\n    // uint public currentBallot;\n\n    // Structure declaration\n\n    // Voter structure, to keep track of who voted for the current election\n    struct Voter {\n        bool voted;  // if true, that person already voted\n        bool isCandidate;\n    }\n\n\n\n    // Candidacies structure, to keep track of candidacies for an election\n    struct Candidacy {\n        string name;\n        bytes32 ipfsHash; // ID of proposal on IPFS\n        uint8 hash_function;\n        uint8 size;\n        uint voteNumber;\n    }\n\n    // Ballot structure, instanciated once for every election cycle\n    struct Ballot {\n        address creator;\n        string name;   // short name (up to 32 bytes)\n        mapping(address => Voter) voters;\n        mapping(address => Candidacy) candidacies;\n        address[] candidateList;\n        uint startDate;\n        uint candidacyEndDate;\n        uint electionEndDate;\n        bool wasEnded;\n        bool wasEnforced;\n        address winningCandidate;\n        uint totalVoteCount;\n\n    }\n\n\n\n    // A dynamically-sized array of `Ballot` structs.\n    Ballot[] public ballots;\n\n    // A mapping of candidacy status and number of candidacies per member\n    mapping(address => uint) public cumulatedCandidacies;\n\n    // Mapping each proposition to the user creating it\n    mapping (address => uint[]) public ballotToCreator;   \n\n    // Mapping each proposition to the user creating it\n    mapping (address => uint[]) public ballotToVoter;\n\n    // Mapping each proposition to the user counting it\n    mapping (address => uint[]) public ballotToCounter;\n\n    // Mapping each proposition to the user enforcing it\n    mapping (address => uint[]) public ballotToEnforcer;\n\n    // Events\n    event ballotCreationEvent(address _from, string _name, uint _startDate, uint _candidacyEndDate, uint _endDate, uint _ballotNumber);\n    event presentCandidacyEvent(uint _ballotNumber, address _candidateAddress, string _name, bytes32 _ipfsHash, uint8 _hash_function, uint8 _size);\n    event votedOnElectionEvent(address _from, uint _ballotNumber);\n    event ballotWasCounted(uint _ballotNumber, address[] _candidateList, address _winningCandidate, uint _totalVoteCount);\n    event ballotResultException(uint _ballotNumber, bool _wasRebooted);\n    event ballotWasEnforced(address _winningCandidate, uint _ballotNumber);\n\n\n    /// Create a new ballot to choose one of `proposalNames`.\n    function createBallot(string _ballotName) public returns (uint ballotNumber){\n            // Checking no ballot is currently running\n            require (isBallotCurrentlyRunning == false);\n            // Checking that election date has passed\n            require (now > nextElectionDate);\n            // Checking if previous ballot was counted\n            if (ballots.length > 0) {\n                require(ballots[lastElectionNumber].wasEnded);\n            }\n\n            Ballot memory newBallot;\n            newBallot.creator = msg.sender;\n            newBallot.name = _ballotName;\n            newBallot.startDate = now;\n            newBallot.candidacyEndDate = now + candidacyDuration;\n            newBallot.electionEndDate = now + candidacyDuration+ballotDuration;\n            newBallot.wasEnded = false;\n            newBallot.winningCandidate = 0x0000;\n            newBallot.totalVoteCount =0;\n            ballots.push(newBallot);\n\n            ballotNumber = ballots.length - 1;\n            // openBallotList.push(ballotNumber);\n            // currentBallot = ballotNumber;\n            totalBallotNumber += 1;\n            isBallotCurrentlyRunning = true;\n            nextElectionDate = now + ballotFrequency;\n            lastElectionNumber = ballotNumber;\n\n            // Ballot creation event\n            ballotCreationEvent(msg.sender, newBallot.name, newBallot.startDate, newBallot.candidacyEndDate, newBallot.electionEndDate, ballotNumber);\n            \n            // Loggin that ballot creator did create this ballot\n            ballotToCreator[msg.sender].push(ballotNumber);\n\n            }\n\n    function presentCandidacy(uint _ballotNumber, string _name, bytes32 _ipfsHash, uint8 _hash_function, uint8 _size) public {\n\n        // Check the candidate is a member of the reference organ\n        Organ voterRegistryOrgan = Organ(referenceOrganContract);\n        require(voterRegistryOrgan.isNorm(msg.sender));\n        delete voterRegistryOrgan;\n\n        // Check that the ballot is still active\n        require(!ballots[_ballotNumber].wasEnded);\n\n        // Check that the ballot candidacy period is still open\n        require(ballots[_ballotNumber].candidacyEndDate > now);\n\n        // Check that sender is not over the mandate limit\n        require(cumulatedCandidacies[msg.sender] < reelectionMaximum);\n\n        // Check if the candidate is already candidate\n        require(!ballots[_ballotNumber].voters[msg.sender].isCandidate);\n\n        ballots[_ballotNumber].candidateList.push(msg.sender);\n        ballots[_ballotNumber].voters[msg.sender].isCandidate = true;\n\n        ballots[_ballotNumber].candidacies[msg.sender].name = _name;\n        ballots[_ballotNumber].candidacies[msg.sender].ipfsHash = _ipfsHash;\n        ballots[_ballotNumber].candidacies[msg.sender].hash_function = _hash_function;\n        ballots[_ballotNumber].candidacies[msg.sender].size = _size;\n        ballots[_ballotNumber].candidacies[msg.sender].voteNumber = 0;\n         // Candidacy event is turned off for now\n        presentCandidacyEvent(_ballotNumber, msg.sender, _name, _ipfsHash, _hash_function, _size);\n\n\n\n        }\n\n\n    /// Vote for a candidate\n    function vote(uint _ballotNumber, address _candidateAddress) public {\n\n        Organ voterRegistryOrgan = Organ(referenceOrganContract);\n        require(voterRegistryOrgan.isNorm(msg.sender));\n\n        delete voterRegistryOrgan;\n        \n        // Check if voter already votred\n        require(!ballots[_ballotNumber].voters[msg.sender].voted);\n\n        // Check if vote is still active\n        require(!ballots[_ballotNumber].wasEnded);\n\n        // Check if candidacy period is over\n        require(ballots[_ballotNumber].candidacyEndDate < now);\n\n        // Check if voting period ended\n        require(ballots[_ballotNumber].electionEndDate > now);\n\n        // Check if candidate for whom we voted for is declared\n        if(ballots[_ballotNumber].voters[_candidateAddress].isCandidate)\n        {ballots[_ballotNumber].candidacies[_candidateAddress].voteNumber += 1;}\n        else\n            // If candidate does not exist, this is a neutral vote\n        {ballots[_ballotNumber].candidacies[0x0000].voteNumber += 1;}\n\n        ballots[_ballotNumber].voters[msg.sender].voted = true;\n        \n        ballots[_ballotNumber].totalVoteCount += 1;\n\n        // Associating vote with voter for gamification purposes\n        ballotToVoter[msg.sender].push(_ballotNumber);\n\n        // Event\n        votedOnElectionEvent(msg.sender, _ballotNumber);\n                        \n\n            }\n\n    // The vote is finished and we close it. This triggers the outcome of the vote.\n\n    function endBallot(uint _ballotNumber) public returns (uint winningCandidate){\n            // We check if the vote was already closed\n            require(!ballots[_ballotNumber].wasEnded);\n\n            // Checking that the vote can be closed\n            require(ballots[_ballotNumber].electionEndDate < now);\n\n            // Checking that the vote can be closed\n            if ((ballots[_ballotNumber].candidateList.length == 0) || ballots[_ballotNumber].totalVoteCount == 0)\n            {\n                    ballots[_ballotNumber].wasEnforced = true;\n                    ballots[_ballotNumber].wasEnded = true;\n                    ballotResultException(_ballotNumber, true);\n                    nextElectionDate = now -1;\n                    isBallotCurrentlyRunning = false;\n                    createBallot(ballots[_ballotNumber].name);\n                    return 0;\n            }\n\n\n            // ############## Going through candidates to check the vote count\n            uint winningVoteCount = 0;\n            bool isADraw = false;\n            bool quorumIsObtained = false;\n\n            Organ voterRegistryOrgan = Organ(referenceOrganContract);\n\n            // Check if quorum is obtained. We avoiding divisions here, since Solidity is not good to calculate divisions\n            if (ballots[_ballotNumber].totalVoteCount*100 >= quorumSize*voterRegistryOrgan.getActiveNormNumber())\n            {quorumIsObtained = true;}\n\n            // Going through candidates list\n            for (uint p = 0; p < ballots[_ballotNumber].candidateList.length; p++) {\n                address _candidateAddress = ballots[_ballotNumber].candidateList[p];\n                if (ballots[_ballotNumber].candidacies[_candidateAddress].voteNumber > winningVoteCount) {\n                    winningVoteCount = ballots[_ballotNumber].candidacies[_candidateAddress].voteNumber ;\n                    winningCandidate = p;\n                    isADraw = false;\n                }\n                else if (ballots[_ballotNumber].candidacies[_candidateAddress].voteNumber == winningVoteCount){\n                    isADraw = true;\n                }\n\n            }\n\n            // ############## Updating ballot values if vote concluded\n            ballots[_ballotNumber].wasEnded = true;\n            isBallotCurrentlyRunning = false;\n\n            if (!isADraw && quorumIsObtained)\n                // The ballot completed succesfully\n            {\n\n\n            ballots[_ballotNumber].winningCandidate = ballots[_ballotNumber].candidateList[winningCandidate];\n            ballotWasCounted(_ballotNumber, ballots[_ballotNumber].candidateList, ballots[_ballotNumber].winningCandidate, ballots[_ballotNumber].totalVoteCount);\n\n                }\n                else\n                    // The ballot did not conclude correctly. We reboot the election process.\n                {\n                    ballots[_ballotNumber].wasEnforced = true;\n                    ballotResultException(_ballotNumber, true);\n                    nextElectionDate = now -1;\n                    ballots[_ballotNumber].wasEnded = true;\n                    isBallotCurrentlyRunning = false;\n                    createBallot(ballots[_ballotNumber].name);\n                }\n\n                ballotToCounter[msg.sender].push(_ballotNumber);\n                            \n                \n\n            }\n    \n    function enforceBallot(uint _ballotNumber) public {\n        // Checking if ballot was already enforced\n        require(!ballots[_ballotNumber].wasEnforced );\n        // Checking the ballot was closed\n        require(ballots[_ballotNumber].wasEnded);\n        // Checking that the enforcing date is not later than the end of his supposed mandate\n        if (now > ballots[_ballotNumber].startDate + ballotFrequency)\n        {\n            ballots[_ballotNumber].wasEnforced = true;\n            // TODO add event to log this  \n            ballotResultException(_ballotNumber, false);                  \n            return;\n        }\n\n        // We initiate the Organ interface to add a presidential norm\n\n        Organ presidentialOrgan = Organ(affectedOrganContract);\n        address newPresidentAddress = ballots[_ballotNumber].winningCandidate;\n\n        // Adding new president first\n            // function addNorm (string _name, address _normAdress, bytes32 _ipfsHash, uint8 _hash_function, uint8 _size) public  returns (bool success);\n        if (newPresidentAddress != currentPresident)\n            {\n            Candidacy memory newPresident = ballots[_ballotNumber].candidacies[newPresidentAddress];\n            presidentialOrgan.addNorm(newPresidentAddress, newPresident.name, newPresident.ipfsHash, newPresident.hash_function, newPresident.size );\n\n            \n\n            // Removing former president, only if a former election was conducted.\n            if (totalBallotNumber > 1){\n            presidentialOrgan.remNorm(presidentialOrgan.getAddressPositionInNorm(currentPresident));\n                }\n\n\n            // Modifying procedure variable to count new president\n            currentPresident = newPresidentAddress;\n\n            }\n        cumulatedCandidacies[newPresidentAddress] += 1;\n        ballots[_ballotNumber].wasEnforced = true;\n        // delete openBallotList[_ballotNumber];\n        // currentBallot = 0;\n\n        // Adjusting mandate duration\n        // nextElectionDate = now + ballotFrequency - candidacyDuration - ballotDuration;\n        ballotWasEnforced( newPresidentAddress, _ballotNumber);\n        ballotToEnforcer[msg.sender].push(_ballotNumber);                \n\n         }\n        //////////////////////// Functions to communicate with other contracts\n    \n\n    // ######### Functions to retrieve procedure infos\n\n    function getCandidateList(uint _ballotNumber) public view returns (address[] _candidateList){\n        return ballots[_ballotNumber].candidateList;\n    }\n    function getSingleBallotInfo(uint _ballotNumber) public view returns (string _name, uint _startDate, uint _candidacyEndDate, uint _electionEndDate){\n        return (ballots[_ballotNumber].name, ballots[_ballotNumber].startDate, ballots[_ballotNumber].candidacyEndDate, ballots[_ballotNumber].electionEndDate);\n    }\n    function getBallotResult(uint _ballotNumber) public view returns (bool _wasEnded, bool _wasEnforced, address _winningCandidate, uint _totalVoteCount)\n    { return (ballots[_ballotNumber].wasEnded, ballots[_ballotNumber].wasEnforced, ballots[_ballotNumber].winningCandidate, ballots[_ballotNumber].totalVoteCount);}\n    // function getOpenBallotsList() public view returns (uint[]){return [currentBallot];}\n\n    function haveIVoted(uint _ballotNumber) public view returns (bool IHaveVoted)\n    {return ballots[_ballotNumber].voters[msg.sender].voted;}\n    function getCandidateVoteNumber(uint _ballotNumber, address _candidateAddress) public view returns (uint voteReceived){\n        require(ballots[_ballotNumber].wasEnforced);\n        return ballots[_ballotNumber].candidacies[_candidateAddress].voteNumber;\n    }\n    function getBallotToCreator(address _userAddress) public view returns (uint[])\n    {return ballotToCreator[_userAddress];}    \n    function getBallotToCounter(address _userAddress) public view returns (uint[])\n    {return ballotToCounter[_userAddress];}  \n    function getBallotToEnforcer(address _userAddress) public view returns (uint[])\n    {return ballotToEnforcer[_userAddress];}  \n    function getLinkedOrgans() public view returns (address[] _linkedOrgans)\n    {return linkedOrgans;}\n\n}\n\n",
  "sourcePath": "/Users/henrilieutaud/Documents/Mes documents/97/Workshop/Kelsen/solidity/contracts/procedures/cyclicalManyToOneElectionProcedure.sol",
  "compiler": {
    "name": "solc",
    "version": "0.4.19+commit.c4cbbb05.Emscripten.clang"
  },
  "schemaVersion": "2.0.0",
  "updatedAt": "2018-05-14T16:41:34.572Z"
}