{
  "contractName": "cyclicalManyToManyElectionProcedure",
  "abi": [
    {
      "constant": true,
      "inputs": [
        {
          "name": "",
          "type": "address"
        },
        {
          "name": "",
          "type": "uint256"
        }
      ],
      "name": "ballotToEnforcer",
      "outputs": [
        {
          "name": "",
          "type": "uint256"
        }
      ],
      "payable": false,
      "stateMutability": "view",
      "type": "function"
    },
    {
      "constant": true,
      "inputs": [],
      "name": "procedureTypeNumber",
      "outputs": [
        {
          "name": "",
          "type": "int256"
        }
      ],
      "payable": false,
      "stateMutability": "view",
      "type": "function"
    },
    {
      "constant": true,
      "inputs": [],
      "name": "quorumSize",
      "outputs": [
        {
          "name": "",
          "type": "uint256"
        }
      ],
      "payable": false,
      "stateMutability": "view",
      "type": "function"
    },
    {
      "constant": true,
      "inputs": [],
      "name": "ballotFrequency",
      "outputs": [
        {
          "name": "",
          "type": "uint256"
        }
      ],
      "payable": false,
      "stateMutability": "view",
      "type": "function"
    },
    {
      "constant": true,
      "inputs": [],
      "name": "referenceOrganContract",
      "outputs": [
        {
          "name": "",
          "type": "address"
        }
      ],
      "payable": false,
      "stateMutability": "view",
      "type": "function"
    },
    {
      "constant": true,
      "inputs": [],
      "name": "voterToCandidateRatio",
      "outputs": [
        {
          "name": "",
          "type": "uint256"
        }
      ],
      "payable": false,
      "stateMutability": "view",
      "type": "function"
    },
    {
      "constant": true,
      "inputs": [
        {
          "name": "",
          "type": "address"
        },
        {
          "name": "",
          "type": "uint256"
        }
      ],
      "name": "ballotToVoter",
      "outputs": [
        {
          "name": "",
          "type": "uint256"
        }
      ],
      "payable": false,
      "stateMutability": "view",
      "type": "function"
    },
    {
      "constant": true,
      "inputs": [
        {
          "name": "",
          "type": "uint256"
        }
      ],
      "name": "ballots",
      "outputs": [
        {
          "name": "creator",
          "type": "address"
        },
        {
          "name": "name",
          "type": "string"
        },
        {
          "name": "electedOfficialSlotNumber",
          "type": "uint256"
        },
        {
          "name": "startDate",
          "type": "uint256"
        },
        {
          "name": "candidacyEndDate",
          "type": "uint256"
        },
        {
          "name": "electionEndDate",
          "type": "uint256"
        },
        {
          "name": "wasEnded",
          "type": "bool"
        },
        {
          "name": "wasEnforced",
          "type": "bool"
        },
        {
          "name": "totalVoteCount",
          "type": "uint256"
        },
        {
          "name": "totalVoters",
          "type": "uint256"
        }
      ],
      "payable": false,
      "stateMutability": "view",
      "type": "function"
    },
    {
      "constant": true,
      "inputs": [],
      "name": "kelsenVersionNumber",
      "outputs": [
        {
          "name": "",
          "type": "int256"
        }
      ],
      "payable": false,
      "stateMutability": "view",
      "type": "function"
    },
    {
      "constant": true,
      "inputs": [],
      "name": "lastElectionNumber",
      "outputs": [
        {
          "name": "",
          "type": "uint256"
        }
      ],
      "payable": false,
      "stateMutability": "view",
      "type": "function"
    },
    {
      "constant": true,
      "inputs": [
        {
          "name": "",
          "type": "address"
        },
        {
          "name": "",
          "type": "uint256"
        }
      ],
      "name": "ballotToCreator",
      "outputs": [
        {
          "name": "",
          "type": "uint256"
        }
      ],
      "payable": false,
      "stateMutability": "view",
      "type": "function"
    },
    {
      "constant": true,
      "inputs": [
        {
          "name": "",
          "type": "uint256"
        }
      ],
      "name": "currentModerators",
      "outputs": [
        {
          "name": "",
          "type": "address"
        }
      ],
      "payable": false,
      "stateMutability": "view",
      "type": "function"
    },
    {
      "constant": true,
      "inputs": [
        {
          "name": "",
          "type": "address"
        }
      ],
      "name": "cumulatedCandidacies",
      "outputs": [
        {
          "name": "",
          "type": "uint256"
        }
      ],
      "payable": false,
      "stateMutability": "view",
      "type": "function"
    },
    {
      "constant": true,
      "inputs": [],
      "name": "isAnOrgan",
      "outputs": [
        {
          "name": "",
          "type": "bool"
        }
      ],
      "payable": false,
      "stateMutability": "view",
      "type": "function"
    },
    {
      "constant": true,
      "inputs": [],
      "name": "ballotDuration",
      "outputs": [
        {
          "name": "",
          "type": "uint256"
        }
      ],
      "payable": false,
      "stateMutability": "view",
      "type": "function"
    },
    {
      "constant": true,
      "inputs": [],
      "name": "candidacyDuration",
      "outputs": [
        {
          "name": "",
          "type": "uint256"
        }
      ],
      "payable": false,
      "stateMutability": "view",
      "type": "function"
    },
    {
      "constant": true,
      "inputs": [],
      "name": "isBallotCurrentlyRunning",
      "outputs": [
        {
          "name": "",
          "type": "bool"
        }
      ],
      "payable": false,
      "stateMutability": "view",
      "type": "function"
    },
    {
      "constant": true,
      "inputs": [],
      "name": "totalBallotNumber",
      "outputs": [
        {
          "name": "",
          "type": "uint256"
        }
      ],
      "payable": false,
      "stateMutability": "view",
      "type": "function"
    },
    {
      "constant": true,
      "inputs": [],
      "name": "neutralVoteAccepted",
      "outputs": [
        {
          "name": "",
          "type": "bool"
        }
      ],
      "payable": false,
      "stateMutability": "view",
      "type": "function"
    },
    {
      "constant": true,
      "inputs": [],
      "name": "nextElectionDate",
      "outputs": [
        {
          "name": "",
          "type": "uint256"
        }
      ],
      "payable": false,
      "stateMutability": "view",
      "type": "function"
    },
    {
      "constant": true,
      "inputs": [],
      "name": "reelectionMaximum",
      "outputs": [
        {
          "name": "",
          "type": "uint256"
        }
      ],
      "payable": false,
      "stateMutability": "view",
      "type": "function"
    },
    {
      "constant": true,
      "inputs": [
        {
          "name": "",
          "type": "address"
        },
        {
          "name": "",
          "type": "uint256"
        }
      ],
      "name": "ballotToCounter",
      "outputs": [
        {
          "name": "",
          "type": "uint256"
        }
      ],
      "payable": false,
      "stateMutability": "view",
      "type": "function"
    },
    {
      "constant": true,
      "inputs": [],
      "name": "isAProcedure",
      "outputs": [
        {
          "name": "",
          "type": "bool"
        }
      ],
      "payable": false,
      "stateMutability": "view",
      "type": "function"
    },
    {
      "constant": true,
      "inputs": [
        {
          "name": "",
          "type": "uint256"
        }
      ],
      "name": "linkedOrgans",
      "outputs": [
        {
          "name": "",
          "type": "address"
        }
      ],
      "payable": false,
      "stateMutability": "view",
      "type": "function"
    },
    {
      "constant": true,
      "inputs": [],
      "name": "affectedOrganContract",
      "outputs": [
        {
          "name": "",
          "type": "address"
        }
      ],
      "payable": false,
      "stateMutability": "view",
      "type": "function"
    },
    {
      "anonymous": false,
      "inputs": [
        {
          "indexed": false,
          "name": "_from",
          "type": "address"
        },
        {
          "indexed": false,
          "name": "_name",
          "type": "string"
        },
        {
          "indexed": false,
          "name": "_startDate",
          "type": "uint256"
        },
        {
          "indexed": false,
          "name": "_candidacyEndDate",
          "type": "uint256"
        },
        {
          "indexed": false,
          "name": "_endDate",
          "type": "uint256"
        },
        {
          "indexed": false,
          "name": "_ballotNumber",
          "type": "uint256"
        }
      ],
      "name": "ballotCreationEvent",
      "type": "event"
    },
    {
      "anonymous": false,
      "inputs": [
        {
          "indexed": false,
          "name": "_ballotNumber",
          "type": "uint256"
        },
        {
          "indexed": false,
          "name": "_candidateAddress",
          "type": "address"
        },
        {
          "indexed": false,
          "name": "_name",
          "type": "string"
        },
        {
          "indexed": false,
          "name": "_ipfsHash",
          "type": "bytes32"
        },
        {
          "indexed": false,
          "name": "_hash_function",
          "type": "uint8"
        },
        {
          "indexed": false,
          "name": "_size",
          "type": "uint8"
        }
      ],
      "name": "presentCandidacyEvent",
      "type": "event"
    },
    {
      "anonymous": false,
      "inputs": [
        {
          "indexed": false,
          "name": "_from",
          "type": "address"
        },
        {
          "indexed": false,
          "name": "_ballotNumber",
          "type": "uint256"
        }
      ],
      "name": "votedOnElectionEvent",
      "type": "event"
    },
    {
      "anonymous": false,
      "inputs": [
        {
          "indexed": false,
          "name": "_ballotNumber",
          "type": "uint256"
        },
        {
          "indexed": false,
          "name": "_candidateList",
          "type": "address[]"
        },
        {
          "indexed": false,
          "name": "_winningCandidates",
          "type": "address[]"
        },
        {
          "indexed": false,
          "name": "_totalVoteCount",
          "type": "uint256"
        }
      ],
      "name": "ballotWasCounted",
      "type": "event"
    },
    {
      "anonymous": false,
      "inputs": [
        {
          "indexed": false,
          "name": "_ballotNumber",
          "type": "uint256"
        },
        {
          "indexed": false,
          "name": "_wasRebooted",
          "type": "bool"
        }
      ],
      "name": "ballotResultException",
      "type": "event"
    },
    {
      "anonymous": false,
      "inputs": [
        {
          "indexed": false,
          "name": "_winningCandidates",
          "type": "address[]"
        },
        {
          "indexed": false,
          "name": "_ballotNumber",
          "type": "uint256"
        }
      ],
      "name": "ballotWasEnforced",
      "type": "event"
    },
    {
      "constant": false,
      "inputs": [
        {
          "name": "_ballotName",
          "type": "string"
        }
      ],
      "name": "createBallot",
      "outputs": [
        {
          "name": "ballotNumber",
          "type": "uint256"
        }
      ],
      "payable": false,
      "stateMutability": "nonpayable",
      "type": "function"
    },
    {
      "constant": false,
      "inputs": [
        {
          "name": "_ballotNumber",
          "type": "uint256"
        },
        {
          "name": "_name",
          "type": "string"
        },
        {
          "name": "_ipfsHash",
          "type": "bytes32"
        },
        {
          "name": "_hash_function",
          "type": "uint8"
        },
        {
          "name": "_size",
          "type": "uint8"
        }
      ],
      "name": "presentCandidacy",
      "outputs": [],
      "payable": false,
      "stateMutability": "nonpayable",
      "type": "function"
    },
    {
      "constant": false,
      "inputs": [
        {
          "name": "_ballotNumber",
          "type": "uint256"
        },
        {
          "name": "_candidateAddresses",
          "type": "address[]"
        }
      ],
      "name": "vote",
      "outputs": [],
      "payable": false,
      "stateMutability": "nonpayable",
      "type": "function"
    },
    {
      "constant": false,
      "inputs": [
        {
          "name": "_ballotNumber",
          "type": "uint256"
        }
      ],
      "name": "endBallot",
      "outputs": [],
      "payable": false,
      "stateMutability": "nonpayable",
      "type": "function"
    },
    {
      "constant": false,
      "inputs": [
        {
          "name": "_ballotNumber",
          "type": "uint256"
        }
      ],
      "name": "enforceBallot",
      "outputs": [],
      "payable": false,
      "stateMutability": "nonpayable",
      "type": "function"
    },
    {
      "constant": true,
      "inputs": [
        {
          "name": "_ballotNumber",
          "type": "uint256"
        }
      ],
      "name": "getCandidateList",
      "outputs": [
        {
          "name": "_candidateList",
          "type": "address[]"
        }
      ],
      "payable": false,
      "stateMutability": "view",
      "type": "function"
    },
    {
      "constant": true,
      "inputs": [
        {
          "name": "_ballotNumber",
          "type": "uint256"
        }
      ],
      "name": "getSingleBallotInfo",
      "outputs": [
        {
          "name": "_name",
          "type": "string"
        },
        {
          "name": "_startDate",
          "type": "uint256"
        },
        {
          "name": "_candidacyEndDate",
          "type": "uint256"
        },
        {
          "name": "_electionEndDate",
          "type": "uint256"
        },
        {
          "name": "_electedOfficialSlotNumber",
          "type": "uint256"
        }
      ],
      "payable": false,
      "stateMutability": "view",
      "type": "function"
    },
    {
      "constant": true,
      "inputs": [
        {
          "name": "_ballotNumber",
          "type": "uint256"
        }
      ],
      "name": "getBallotStatus",
      "outputs": [
        {
          "name": "_wasEnded",
          "type": "bool"
        },
        {
          "name": "_wasEnforced",
          "type": "bool"
        },
        {
          "name": "_winningCandidates",
          "type": "address[]"
        }
      ],
      "payable": false,
      "stateMutability": "view",
      "type": "function"
    },
    {
      "constant": true,
      "inputs": [
        {
          "name": "_ballotNumber",
          "type": "uint256"
        }
      ],
      "name": "getBallotStats",
      "outputs": [
        {
          "name": "_votersNumber",
          "type": "uint256"
        },
        {
          "name": "_totalVoteCount",
          "type": "uint256"
        }
      ],
      "payable": false,
      "stateMutability": "view",
      "type": "function"
    },
    {
      "constant": true,
      "inputs": [
        {
          "name": "_ballotNumber",
          "type": "uint256"
        },
        {
          "name": "_candidateAddress",
          "type": "address"
        }
      ],
      "name": "getCandidateVoteNumber",
      "outputs": [
        {
          "name": "voteReceived",
          "type": "uint256"
        }
      ],
      "payable": false,
      "stateMutability": "view",
      "type": "function"
    },
    {
      "constant": true,
      "inputs": [
        {
          "name": "_ballotNumber",
          "type": "uint256"
        }
      ],
      "name": "haveIVoted",
      "outputs": [
        {
          "name": "IHaveVoted",
          "type": "bool"
        }
      ],
      "payable": false,
      "stateMutability": "view",
      "type": "function"
    },
    {
      "constant": true,
      "inputs": [
        {
          "name": "_userAddress",
          "type": "address"
        }
      ],
      "name": "getBallotToCreator",
      "outputs": [
        {
          "name": "",
          "type": "uint256[]"
        }
      ],
      "payable": false,
      "stateMutability": "view",
      "type": "function"
    },
    {
      "constant": true,
      "inputs": [
        {
          "name": "_userAddress",
          "type": "address"
        }
      ],
      "name": "getBallotToVoter",
      "outputs": [
        {
          "name": "",
          "type": "uint256[]"
        }
      ],
      "payable": false,
      "stateMutability": "view",
      "type": "function"
    },
    {
      "constant": true,
      "inputs": [
        {
          "name": "_userAddress",
          "type": "address"
        }
      ],
      "name": "getBallotToCounter",
      "outputs": [
        {
          "name": "",
          "type": "uint256[]"
        }
      ],
      "payable": false,
      "stateMutability": "view",
      "type": "function"
    },
    {
      "constant": true,
      "inputs": [
        {
          "name": "_userAddress",
          "type": "address"
        }
      ],
      "name": "getBallotToEnforcer",
      "outputs": [
        {
          "name": "",
          "type": "uint256[]"
        }
      ],
      "payable": false,
      "stateMutability": "view",
      "type": "function"
    },
    {
      "constant": true,
      "inputs": [],
      "name": "getLinkedOrgans",
      "outputs": [
        {
          "name": "_linkedOrgans",
          "type": "address[]"
        }
      ],
      "payable": false,
      "stateMutability": "view",
      "type": "function"
    }
  ],
  "bytecode": "0x60606040526000600460006101000a81548160ff0219169083151502179055506001600460016101000a81548160ff0219169083151502179055506002600555341561004a57600080fd5b614999806100596000396000f3006060604052600436106101f9576000357c0100000000000000000000000000000000000000000000000000000000900463ffffffff16806310f2fa94146101fe5780631899706d1461023c57806318fe2d73146102925780632647d7f91461034a5780633068ef4d14610373578063322af16f1461039c578063325bc6ea146103c55780633468209814610453578063446192af146104a957806346a86576146104fe57806348fcc1441461056f578063503c3d091461059257806356453fbf146105bb5780635c632b38146106115780635dbe4d281461073d578063618bde0a14610766578063680aee50146107de5780636be873541461080757806372805e311461085d5780637ac53b27146108eb5780638cd1ff51146109795780639eaa613f1461099c578063a4c797f7146109ff578063a8bef97a14610a4c578063ab8f953614610a79578063ac37af1c14610aa2578063b064124d14610add578063b0c2dede14610b6b578063b4b71cd214610b94578063b9f43cc514610bc1578063bdf7f47214610bea578063bf0fac8314610c17578063c5bf93ba14610ca5578063d0746b7a14610d08578063d9b84d4c14610d31578063de0db92e14610d5a578063e570050114610de5578063e76f506e14610e4f578063e80b30a514610ea5578063f2edc61614610ed2578063fe7800e114610f35575b600080fd5b341561020957600080fd5b61021f6004808035906020019091905050610f8a565b604051808381526020018281526020019250505060405180910390f35b341561024757600080fd5b61027c600480803573ffffffffffffffffffffffffffffffffffffffff16906020019091908035906020019091905050610fd8565b6040518082815260200191505060405180910390f35b341561029d57600080fd5b6102b36004808035906020019091905050611009565b6040518080602001868152602001858152602001848152602001838152602001828103825287818151815260200191508051906020019080838360005b8381101561030b5780820151818401526020810190506102f0565b50505050905090810190601f1680156103385780820380516001836020036101000a031916815260200191505b50965050505050505060405180910390f35b341561035557600080fd5b61035d61116a565b6040518082815260200191505060405180910390f35b341561037e57600080fd5b610386611170565b6040518082815260200191505060405180910390f35b34156103a757600080fd5b6103af611176565b6040518082815260200191505060405180910390f35b34156103d057600080fd5b6103fc600480803573ffffffffffffffffffffffffffffffffffffffff1690602001909190505061117c565b6040518080602001828103825283818151815260200191508051906020019060200280838360005b8381101561043f578082015181840152602081019050610424565b505050509050019250505060405180910390f35b341561045e57600080fd5b610493600480803590602001909190803573ffffffffffffffffffffffffffffffffffffffff16906020019091905050611219565b6040518082815260200191505060405180910390f35b34156104b457600080fd5b6104bc6112bd565b604051808273ffffffffffffffffffffffffffffffffffffffff1673ffffffffffffffffffffffffffffffffffffffff16815260200191505060405180910390f35b341561050957600080fd5b610559600480803590602001908201803590602001908080601f016020809104026020016040519081016040528093929190818152602001838380828437820191505050505050919050506112e3565b6040518082815260200191505060405180910390f35b341561057a57600080fd5b61059060048080359060200190919050506117dd565b005b341561059d57600080fd5b6105a5612529565b6040518082815260200191505060405180910390f35b34156105c657600080fd5b6105fb600480803573ffffffffffffffffffffffffffffffffffffffff1690602001909190803590602001909190505061252f565b6040518082815260200191505060405180910390f35b341561061c57600080fd5b6106326004808035906020019091905050612560565b604051808b73ffffffffffffffffffffffffffffffffffffffff1673ffffffffffffffffffffffffffffffffffffffff168152602001806020018a8152602001898152602001888152602001878152602001861515151581526020018515151515815260200184815260200183815260200182810382528b8181546001816001161561010002031660029004815260200191508054600181600116156101000203166002900480156107255780601f106106fa57610100808354040283529160200191610725565b820191906000526020600020905b81548152906001019060200180831161070857829003601f168201915b50509b50505050505050505050505060405180910390f35b341561074857600080fd5b6107506125fc565b6040518082815260200191505060405180910390f35b341561077157600080fd5b6107876004808035906020019091905050612602565b6040518080602001828103825283818151815260200191508051906020019060200280838360005b838110156107ca5780820151818401526020810190506107af565b505050509050019250505060405180910390f35b34156107e957600080fd5b6107f16126b6565b6040518082815260200191505060405180910390f35b341561081257600080fd5b610847600480803573ffffffffffffffffffffffffffffffffffffffff169060200190919080359060200190919050506126bc565b6040518082815260200191505060405180910390f35b341561086857600080fd5b610894600480803573ffffffffffffffffffffffffffffffffffffffff169060200190919050506126ed565b6040518080602001828103825283818151815260200191508051906020019060200280838360005b838110156108d75780820151818401526020810190506108bc565b505050509050019250505060405180910390f35b34156108f657600080fd5b61090c600480803590602001909190505061278a565b60405180841515151581526020018315151515815260200180602001828103825283818151815260200191508051906020019060200280838360005b83811015610963578082015181840152602081019050610948565b5050505090500194505050505060405180910390f35b341561098457600080fd5b61099a60048080359060200190919050506128a6565b005b34156109a757600080fd5b6109bd6004808035906020019091905050613330565b604051808273ffffffffffffffffffffffffffffffffffffffff1673ffffffffffffffffffffffffffffffffffffffff16815260200191505060405180910390f35b3415610a0a57600080fd5b610a36600480803573ffffffffffffffffffffffffffffffffffffffff1690602001909190505061336f565b6040518082815260200191505060405180910390f35b3415610a5757600080fd5b610a5f613387565b604051808215151515815260200191505060405180910390f35b3415610a8457600080fd5b610a8c61339a565b6040518082815260200191505060405180910390f35b3415610aad57600080fd5b610ac360048080359060200190919050506133a0565b604051808215151515815260200191505060405180910390f35b3415610ae857600080fd5b610b14600480803573ffffffffffffffffffffffffffffffffffffffff16906020019091905050613417565b6040518080602001828103825283818151815260200191508051906020019060200280838360005b83811015610b57578082015181840152602081019050610b3c565b505050509050019250505060405180910390f35b3415610b7657600080fd5b610b7e6134b4565b6040518082815260200191505060405180910390f35b3415610b9f57600080fd5b610ba76134ba565b604051808215151515815260200191505060405180910390f35b3415610bcc57600080fd5b610bd46134cd565b6040518082815260200191505060405180910390f35b3415610bf557600080fd5b610bfd6134d3565b604051808215151515815260200191505060405180910390f35b3415610c2257600080fd5b610c4e600480803573ffffffffffffffffffffffffffffffffffffffff169060200190919050506134e6565b6040518080602001828103825283818151815260200191508051906020019060200280838360005b83811015610c91578082015181840152602081019050610c76565b505050509050019250505060405180910390f35b3415610cb057600080fd5b610d06600480803590602001909190803590602001908201803590602001908080602002602001604051908101604052809392919081815260200183836020028082843782019150505050505091905050613583565b005b3415610d1357600080fd5b610d1b613cdf565b6040518082815260200191505060405180910390f35b3415610d3c57600080fd5b610d44613ce5565b6040518082815260200191505060405180910390f35b3415610d6557600080fd5b610de3600480803590602001909190803590602001908201803590602001908080601f016020809104026020016040519081016040528093929190818152602001838380828437820191505050505050919080356000191690602001909190803560ff1690602001909190803560ff16906020019091905050613ceb565b005b3415610df057600080fd5b610df861434c565b6040518080602001828103825283818151815260200191508051906020019060200280838360005b83811015610e3b578082015181840152602081019050610e20565b505050509050019250505060405180910390f35b3415610e5a57600080fd5b610e8f600480803573ffffffffffffffffffffffffffffffffffffffff169060200190919080359060200190919050506143e0565b6040518082815260200191505060405180910390f35b3415610eb057600080fd5b610eb8614411565b604051808215151515815260200191505060405180910390f35b3415610edd57600080fd5b610ef36004808035906020019091905050614424565b604051808273ffffffffffffffffffffffffffffffffffffffff1673ffffffffffffffffffffffffffffffffffffffff16815260200191505060405180910390f35b3415610f4057600080fd5b610f48614463565b604051808273ffffffffffffffffffffffffffffffffffffffff1673ffffffffffffffffffffffffffffffffffffffff16815260200191505060405180910390f35b600080601583815481101515610f9c57fe5b90600052602060002090600d0201600c0154601584815481101515610fbd57fe5b90600052602060002090600d0201600b015491509150915091565b601a60205281600052604060002081815481101515610ff357fe5b9060005260206000209001600091509150505481565b611011614489565b60008060008060158681548110151561102657fe5b90600052602060002090600d020160010160158781548110151561104657fe5b90600052602060002090600d02016006015460158881548110151561106757fe5b90600052602060002090600d02016007015460158981548110151561108857fe5b90600052602060002090600d02016008015460158a8154811015156110a957fe5b90600052602060002090600d020160050154848054600181600116156101000203166002900480601f0160208091040260200160405190810160405280929190818152602001828054600181600116156101000203166002900480156111505780601f1061112557610100808354040283529160200191611150565b820191906000526020600020905b81548152906001019060200180831161113357829003601f168201915b505050505094509450945094509450945091939590929450565b60055481565b60105481565b60095481565b61118461449d565b601a60008373ffffffffffffffffffffffffffffffffffffffff1673ffffffffffffffffffffffffffffffffffffffff16815260200190815260200160002080548060200260200160405190810160405280929190818152602001828054801561120d57602002820191906000526020600020905b8154815260200190600101908083116111f9575b50505050509050919050565b600060158381548110151561122a57fe5b90600052602060002090600d020160090160019054906101000a900460ff16151561125457600080fd5b60158381548110151561126357fe5b90600052602060002090600d020160030160008373ffffffffffffffffffffffffffffffffffffffff1673ffffffffffffffffffffffffffffffffffffffff16815260200190815260200160002060030154905092915050565b600760009054906101000a900473ffffffffffffffffffffffffffffffffffffffff1681565b60006112ed6144b1565b6000801515601260009054906101000a900460ff16151514151561131057600080fd5b600a544211151561132057600080fd5b6000601580549050111561136a57601560145481548110151561133f57fe5b90600052602060002090600d020160090160009054906101000a900460ff16151561136957600080fd5b5b33826000019073ffffffffffffffffffffffffffffffffffffffff16908173ffffffffffffffffffffffffffffffffffffffff168152505083826020018190525042826080018181525050600e5442018260a0018181525050600c54600e544201018260c001818152505060008260e0019015159081151581525050600082610140018181525050600082610160018181525050600760009054906101000a900473ffffffffffffffffffffffffffffffffffffffff1690506011548173ffffffffffffffffffffffffffffffffffffffff1663234d34de6000604051602001526040518163ffffffff167c0100000000000000000000000000000000000000000000000000000000028152600401602060405180830381600087803b151561149257600080fd5b6102c65a03f115156114a357600080fd5b505050604051805190508115156114b657fe5b048260600181815250506000826060015114156114d95760018260600181815250505b60009050601580548060010182816114f1919061453f565b91600052602060002090600d0201600084909190915060008201518160000160006101000a81548173ffffffffffffffffffffffffffffffffffffffff021916908373ffffffffffffffffffffffffffffffffffffffff160217905550602082015181600101908051906020019061156a929190614571565b5060408201518160040190805190602001906115879291906145f1565b50606082015181600501556080820151816006015560a0820151816007015560c0820151816008015560e08201518160090160006101000a81548160ff0219169083151502179055506101008201518160090160016101000a81548160ff02191690831515021790555061012082015181600a01908051906020019061160e9291906145f1565b5061014082015181600b015561016082015181600c0155505050600160158054905003925060016013600082825401925050819055506001601260006101000a81548160ff0219169083151502179055506009544201600a81905550826014819055507fdb79682a2650346f5fbfd232c0059da59a89b2a64c3fb7d75ccf58ff939be0d5338584608001518560a001518660c0015188604051808773ffffffffffffffffffffffffffffffffffffffff1673ffffffffffffffffffffffffffffffffffffffff16815260200180602001868152602001858152602001848152602001838152602001828103825287818151815260200191508051906020019080838360005b8381101561172e578082015181840152602081019050611713565b50505050905090810190601f16801561175b5780820380516001836020036101000a031916815260200191505b5097505050505050505060405180910390a1601760003373ffffffffffffffffffffffffffffffffffffffff1673ffffffffffffffffffffffffffffffffffffffff16815260200190815260200160002080548060010182816117be919061467b565b9160005260206000209001600085909190915055508292505050919050565b600080600080600080600080600060158a8154811015156117fa57fe5b90600052602060002090600d020160090160009054906101000a900460ff1615151561182557600080fd5b4260158b81548110151561183557fe5b90600052602060002090600d02016008015410151561185357600080fd5b600060158b81548110151561186457fe5b90600052602060002090600d02016004018054905014806118a55750600060158b81548110151561189157fe5b90600052602060002090600d0201600b0154145b15611a4c5760014203600a819055506000601260006101000a81548160ff021916908315150217905550600160158b8154811015156118e057fe5b90600052602060002090600d020160090160006101000a81548160ff021916908315150217905550600160158b81548110151561191957fe5b90600052602060002090600d020160090160016101000a81548160ff0219169083151502179055507fd3844af45b09228a143d3e565e053517b81b3e6b1ee574de327db2ba09eebefe8a600160405180838152602001821515151581526020019250505060405180910390a1611a4660158b81548110151561199757fe5b90600052602060002090600d02016001018054600181600116156101000203166002900480601f016020809104026020016040519081016040528092919081815260200182805460018160011615610100020316600290048015611a3c5780601f10611a1157610100808354040283529160200191611a3c565b820191906000526020600020905b815481529060010190602001808311611a1f57829003601f168201915b50505050506112e3565b5061251d565b60158a815481101515611a5b57fe5b90600052602060002090600d02016005015460158b815481101515611a7c57fe5b90600052602060002090600d0201600401805490501015611ae05760158a815481101515611aa657fe5b90600052602060002090600d02016004018054905060158b815481101515611aca57fe5b90600052602060002090600d0201600501819055505b7fffffffffffffffffffffffffffffffffffffffffffffffffffffffffffffffff9850600097506000965060009550600760009054906101000a900473ffffffffffffffffffffffffffffffffffffffff1694508473ffffffffffffffffffffffffffffffffffffffff1663234d34de6000604051602001526040518163ffffffff167c0100000000000000000000000000000000000000000000000000000000028152600401602060405180830381600087803b1515611ba057600080fd5b6102c65a03f11515611bb157600080fd5b5050506040518051905060105402606460158c815481101515611bd057fe5b90600052602060002090600d0201600c0154021015611d8b57600160158b815481101515611bfa57fe5b90600052602060002090600d020160090160016101000a81548160ff02191690831515021790555060014203600a819055506000601260006101000a81548160ff021916908315150217905550600160158b815481101515611c5857fe5b90600052602060002090600d020160090160006101000a81548160ff0219169083151502179055507fd3844af45b09228a143d3e565e053517b81b3e6b1ee574de327db2ba09eebefe8a600160405180838152602001821515151581526020019250505060405180910390a1611d8560158b815481101515611cd657fe5b90600052602060002090600d02016001018054600181600116156101000203166002900480601f016020809104026020016040519081016040528092919081815260200182805460018160011615610100020316600290048015611d7b5780601f10611d5057610100808354040283529160200191611d7b565b820191906000526020600020905b815481529060010190602001808311611d5e57829003601f168201915b50505050506112e3565b5061251d565b60009450600093505b60158a815481101515611da357fe5b90600052602060002090600d0201600501548410156122cd576000975060009550600092505b60158a815481101515611dd857fe5b90600052602060002090600d0201600401805490508310156120125760158a815481101515611e0357fe5b90600052602060002090600d020160040183815481101515611e2157fe5b906000526020600020900160009054906101000a900473ffffffffffffffffffffffffffffffffffffffff1691508860158b815481101515611e5f57fe5b90600052602060002090600d020160030160008473ffffffffffffffffffffffffffffffffffffffff1673ffffffffffffffffffffffffffffffffffffffff16815260200190815260200160002060030154101515611ebd57612005565b8760158b815481101515611ecd57fe5b90600052602060002090600d020160030160008473ffffffffffffffffffffffffffffffffffffffff1673ffffffffffffffffffffffffffffffffffffffff168152602001908152602001600020600301541115611f945760158a815481101515611f3457fe5b90600052602060002090600d020160030160008373ffffffffffffffffffffffffffffffffffffffff1673ffffffffffffffffffffffffffffffffffffffff16815260200190815260200160002060030154975082955060009650612004565b8760158b815481101515611fa457fe5b90600052602060002090600d020160030160008473ffffffffffffffffffffffffffffffffffffffff1673ffffffffffffffffffffffffffffffffffffffff168152602001908152602001600020600301541415612003576001870196505b5b5b8280600101935050611dc9565b6000881415612020576122bd565b60008711156121e257600090505b60158a81548110151561203d57fe5b90600052602060002090600d0201600401805490508110156121dd5760158a81548110151561206857fe5b90600052602060002090600d02016005015484101515612087576121d0565b8760158b81548110151561209757fe5b90600052602060002090600d020160030160008473ffffffffffffffffffffffffffffffffffffffff1673ffffffffffffffffffffffffffffffffffffffff1681526020019081526020016000206003015414156121cf5760158a8154811015156120fe57fe5b90600052602060002090600d0201600a01805480600101828161212191906146a7565b9160005260206000209001600060158d81548110151561213d57fe5b90600052602060002090600d02016004018481548110151561215b57fe5b906000526020600020900160009054906101000a900473ffffffffffffffffffffffffffffffffffffffff16909190916101000a81548173ffffffffffffffffffffffffffffffffffffffff021916908373ffffffffffffffffffffffffffffffffffffffff160217905550506001840193505b5b808060010191505061202e565b6122bc565b60158a8154811015156121f157fe5b90600052602060002090600d0201600a01805480600101828161221491906146a7565b9160005260206000209001600060158d81548110151561223057fe5b90600052602060002090600d02016004018981548110151561224e57fe5b906000526020600020900160009054906101000a900473ffffffffffffffffffffffffffffffffffffffff16909190916101000a81548173ffffffffffffffffffffffffffffffffffffffff021916908373ffffffffffffffffffffffffffffffffffffffff160217905550505b5b8798508380600101945050611d94565b600160158b8154811015156122de57fe5b90600052602060002090600d020160090160006101000a81548160ff0219169083151502179055506000601260006101000a81548160ff0219169083151502179055507f6a6e9488d1e543a71df6a63c3b9ef8b855bca0541ba53a29c0ea65d1e0cfebb38a60158c81548110151561235257fe5b90600052602060002090600d020160040160158d81548110151561237257fe5b90600052602060002090600d0201600a0160158e81548110151561239257fe5b90600052602060002090600d0201600b0154604051808581526020018060200180602001848152602001838103835286818154815260200191508054801561242f57602002820191906000526020600020905b8160009054906101000a900473ffffffffffffffffffffffffffffffffffffffff1673ffffffffffffffffffffffffffffffffffffffff16815260200190600101908083116123e5575b505083810382528581815481526020019150805480156124a457602002820191906000526020600020905b8160009054906101000a900473ffffffffffffffffffffffffffffffffffffffff1673ffffffffffffffffffffffffffffffffffffffff168152602001906001019080831161245a575b5050965050505050505060405180910390a1601960003373ffffffffffffffffffffffffffffffffffffffff1673ffffffffffffffffffffffffffffffffffffffff1681526020019081526020016000208054806001018281612507919061467b565b916000526020600020900160008c909190915055505b50505050505050505050565b60115481565b60186020528160005260406000208181548110151561254a57fe5b9060005260206000209001600091509150505481565b60158181548110151561256f57fe5b90600052602060002090600d02016000915090508060000160009054906101000a900473ffffffffffffffffffffffffffffffffffffffff169080600101908060050154908060060154908060070154908060080154908060090160009054906101000a900460ff16908060090160019054906101000a900460ff169080600b01549080600c015490508a565b60005481565b61260a6146d3565b60158281548110151561261957fe5b90600052602060002090600d02016004018054806020026020016040519081016040528092919081815260200182805480156126aa57602002820191906000526020600020905b8160009054906101000a900473ffffffffffffffffffffffffffffffffffffffff1673ffffffffffffffffffffffffffffffffffffffff1681526020019060010190808311612660575b50505050509050919050565b60145481565b6017602052816000526040600020818154811015156126d757fe5b9060005260206000209001600091509150505481565b6126f561449d565b601860008373ffffffffffffffffffffffffffffffffffffffff1673ffffffffffffffffffffffffffffffffffffffff16815260200190815260200160002080548060200260200160405190810160405280929190818152602001828054801561277e57602002820191906000526020600020905b81548152602001906001019080831161276a575b50505050509050919050565b6000806127956146d3565b6015848154811015156127a457fe5b90600052602060002090600d020160090160009054906101000a900460ff166015858154811015156127d257fe5b90600052602060002090600d020160090160019054906101000a900460ff1660158681548110151561280057fe5b90600052602060002090600d0201600a018080548060200260200160405190810160405280929190818152602001828054801561289257602002820191906000526020600020905b8160009054906101000a900473ffffffffffffffffffffffffffffffffffffffff1673ffffffffffffffffffffffffffffffffffffffff1681526020019060010190808311612848575b505050505090509250925092509193909250565b60008060006128b36146e7565b6015858154811015156128c257fe5b90600052602060002090600d020160090160019054906101000a900460ff161515156128ed57600080fd5b6015858154811015156128fc57fe5b90600052602060002090600d020160090160009054906101000a900460ff16151561292657600080fd5b60095460158681548110151561293857fe5b90600052602060002090600d020160060154014211156129d457600160158681548110151561296357fe5b90600052602060002090600d020160090160016101000a81548160ff0219169083151502179055507fd3844af45b09228a143d3e565e053517b81b3e6b1ee574de327db2ba09eebefe85600060405180838152602001821515151581526020019250505060405180910390a1613329565b600660009054906101000a900473ffffffffffffffffffffffffffffffffffffffff16935060016013541115612bda57600092505b600b80549050831015612bd9578373ffffffffffffffffffffffffffffffffffffffff16630e9defff8573ffffffffffffffffffffffffffffffffffffffff16635549ea51600b87815481101515612a5d57fe5b906000526020600020900160009054906101000a900473ffffffffffffffffffffffffffffffffffffffff166000604051602001526040518263ffffffff167c0100000000000000000000000000000000000000000000000000000000028152600401808273ffffffffffffffffffffffffffffffffffffffff1673ffffffffffffffffffffffffffffffffffffffff168152602001915050602060405180830381600087803b1515612b0f57600080fd5b6102c65a03f11515612b2057600080fd5b505050604051805190506040518263ffffffff167c010000000000000000000000000000000000000000000000000000000002815260040180828152602001915050600060405180830381600087803b1515612b7b57600080fd5b6102c65a03f11515612b8c57600080fd5b505050600b83815481101515612b9e57fe5b906000526020600020900160006101000a81549073ffffffffffffffffffffffffffffffffffffffff02191690558280600101935050612a09565b5b600091505b601585815481101515612bee57fe5b90600052602060002090600d0201600a01805490508210156131b757601585815481101515612c1957fe5b90600052602060002090600d02016003016000601587815481101515612c3b57fe5b90600052602060002090600d0201600a0184815481101515612c5957fe5b906000526020600020900160009054906101000a900473ffffffffffffffffffffffffffffffffffffffff1673ffffffffffffffffffffffffffffffffffffffff1673ffffffffffffffffffffffffffffffffffffffff16815260200190815260200160002060a06040519081016040529081600082018054600181600116156101000203166002900480601f016020809104026020016040519081016040528092919081815260200182805460018160011615610100020316600290048015612d645780601f10612d3957610100808354040283529160200191612d64565b820191906000526020600020905b815481529060010190602001808311612d4757829003601f168201915b505050505081526020016001820154600019166000191681526020016002820160009054906101000a900460ff1660ff1660ff1681526020016002820160019054906101000a900460ff1660ff1660ff16815260200160038201548152505090508373ffffffffffffffffffffffffffffffffffffffff1663696c5219601587815481101515612df057fe5b90600052602060002090600d0201600a0184815481101515612e0e57fe5b906000526020600020900160009054906101000a900473ffffffffffffffffffffffffffffffffffffffff1683600001518460200151856040015186606001516000604051602001526040518663ffffffff167c0100000000000000000000000000000000000000000000000000000000028152600401808673ffffffffffffffffffffffffffffffffffffffff1673ffffffffffffffffffffffffffffffffffffffff1681526020018060200185600019166000191681526020018460ff1660ff1681526020018360ff1660ff168152602001828103825286818151815260200191508051906020019080838360005b83811015612f1a578082015181840152602081019050612eff565b50505050905090810190601f168015612f475780820380516001836020036101000a031916815260200191505b509650505050505050602060405180830381600087803b1515612f6957600080fd5b6102c65a03f11515612f7a57600080fd5b5050506040518051905050600160166000601588815481101515612f9a57fe5b90600052602060002090600d0201600a0185815481101515612fb857fe5b906000526020600020900160009054906101000a900473ffffffffffffffffffffffffffffffffffffffff1673ffffffffffffffffffffffffffffffffffffffff1673ffffffffffffffffffffffffffffffffffffffff16815260200190815260200160002060008282540192505081905550600b805490508210156130ee5760158581548110151561304757fe5b90600052602060002090600d0201600a018281548110151561306557fe5b906000526020600020900160009054906101000a900473ffffffffffffffffffffffffffffffffffffffff16600b838154811015156130a057fe5b906000526020600020900160006101000a81548173ffffffffffffffffffffffffffffffffffffffff021916908373ffffffffffffffffffffffffffffffffffffffff1602179055506131aa565b600b805480600101828161310291906146a7565b9160005260206000209001600060158881548110151561311e57fe5b90600052602060002090600d0201600a018581548110151561313c57fe5b906000526020600020900160009054906101000a900473ffffffffffffffffffffffffffffffffffffffff16909190916101000a81548173ffffffffffffffffffffffffffffffffffffffff021916908373ffffffffffffffffffffffffffffffffffffffff160217905550505b8180600101925050612bdf565b60016015868154811015156131c857fe5b90600052602060002090600d020160090160016101000a81548160ff021916908315150217905550601a60003373ffffffffffffffffffffffffffffffffffffffff1673ffffffffffffffffffffffffffffffffffffffff1681526020019081526020016000208054806001018281613241919061467b565b9160005260206000209001600087909190915055507feaab7a5bfae8aa5ea8ea163762c60c8863cfea36cff6674f02eff6509623474160158681548110151561328657fe5b90600052602060002090600d0201600a01866040518080602001838152602001828103825284818154815260200191508054801561331957602002820191906000526020600020905b8160009054906101000a900473ffffffffffffffffffffffffffffffffffffffff1673ffffffffffffffffffffffffffffffffffffffff16815260200190600101908083116132cf575b5050935050505060405180910390a15b5050505050565b600b8181548110151561333f57fe5b90600052602060002090016000915054906101000a900473ffffffffffffffffffffffffffffffffffffffff1681565b60166020528060005260406000206000915090505481565b600460009054906101000a900460ff1681565b600c5481565b60006015828154811015156133b157fe5b90600052602060002090600d020160020160003373ffffffffffffffffffffffffffffffffffffffff1673ffffffffffffffffffffffffffffffffffffffff16815260200190815260200160002060000160009054906101000a900460ff169050919050565b61341f61449d565b601960008373ffffffffffffffffffffffffffffffffffffffff1673ffffffffffffffffffffffffffffffffffffffff1681526020019081526020016000208054806020026020016040519081016040528092919081815260200182805480156134a857602002820191906000526020600020905b815481526020019060010190808311613494575b50505050509050919050565b600e5481565b601260009054906101000a900460ff1681565b60135481565b600d60009054906101000a900460ff1681565b6134ee61449d565b601760008373ffffffffffffffffffffffffffffffffffffffff1673ffffffffffffffffffffffffffffffffffffffff16815260200190815260200160002080548060200260200160405190810160405280929190818152602001828054801561357757602002820191906000526020600020905b815481526020019060010190808311613563575b50505050509050919050565b600080600760009054906101000a900473ffffffffffffffffffffffffffffffffffffffff1691508173ffffffffffffffffffffffffffffffffffffffff1663d323a4f8336000604051602001526040518263ffffffff167c0100000000000000000000000000000000000000000000000000000000028152600401808273ffffffffffffffffffffffffffffffffffffffff1673ffffffffffffffffffffffffffffffffffffffff168152602001915050602060405180830381600087803b151561364e57600080fd5b6102c65a03f1151561365f57600080fd5b50505060405180519050151561367457600080fd5b6000915060158481548110151561368757fe5b90600052602060002090600d020160020160003373ffffffffffffffffffffffffffffffffffffffff1673ffffffffffffffffffffffffffffffffffffffff16815260200190815260200160002060000160009054906101000a900460ff161515156136f257600080fd5b60158481548110151561370157fe5b90600052602060002090600d020160090160009054906101000a900460ff1615151561372c57600080fd5b4260158581548110151561373c57fe5b90600052602060002090600d02016007015410151561375a57600080fd5b4260158581548110151561376a57fe5b90600052602060002090600d02016008015411151561378857600080fd5b600160158581548110151561379957fe5b90600052602060002090600d0201600501540183511015156137ba57600080fd5b600083511115156137ca57600080fd5b600090505b8251811015613b60576015848154811015156137e757fe5b90600052602060002090600d020160020160003373ffffffffffffffffffffffffffffffffffffffff1673ffffffffffffffffffffffffffffffffffffffff1681526020019081526020016000206001016000848381518110151561384857fe5b9060200190602002015173ffffffffffffffffffffffffffffffffffffffff1673ffffffffffffffffffffffffffffffffffffffff16815260200190815260200160002060009054906101000a900460ff161515156138a657600080fd5b6015848154811015156138b557fe5b90600052602060002090600d0201600201600084838151811015156138d657fe5b9060200190602002015173ffffffffffffffffffffffffffffffffffffffff1673ffffffffffffffffffffffffffffffffffffffff16815260200190815260200160002060000160019054906101000a900460ff1615613af9578060158581548110151561394057fe5b90600052602060002090600d0201600501540360158581548110151561396257fe5b90600052602060002090600d02016003016000858481518110151561398357fe5b9060200190602002015173ffffffffffffffffffffffffffffffffffffffff1673ffffffffffffffffffffffffffffffffffffffff16815260200190815260200160002060030160008282540192505081905550806015858154811015156139e757fe5b90600052602060002090600d02016005015403601585815481101515613a0957fe5b90600052602060002090600d0201600b01600082825401925050819055506001601585815481101515613a3857fe5b90600052602060002090600d020160020160003373ffffffffffffffffffffffffffffffffffffffff1673ffffffffffffffffffffffffffffffffffffffff16815260200190815260200160002060010160008584815181101515613a9957fe5b9060200190602002015173ffffffffffffffffffffffffffffffffffffffff1673ffffffffffffffffffffffffffffffffffffffff16815260200190815260200160002060006101000a81548160ff021916908315150217905550613b53565b6001601585815481101515613b0a57fe5b90600052602060002090600d020160030160008073ffffffffffffffffffffffffffffffffffffffff168152602001908152602001600020600301600082825401925050819055505b80806001019150506137cf565b6001601585815481101515613b7157fe5b90600052602060002090600d020160020160003373ffffffffffffffffffffffffffffffffffffffff1673ffffffffffffffffffffffffffffffffffffffff16815260200190815260200160002060000160006101000a81548160ff0219169083151502179055506001601585815481101515613bea57fe5b90600052602060002090600d0201600c0160008282540192505081905550601860003373ffffffffffffffffffffffffffffffffffffffff1673ffffffffffffffffffffffffffffffffffffffff1681526020019081526020016000208054806001018281613c59919061467b565b9160005260206000209001600086909190915055507f64bbf4ffdc825afb14eb0f410f1141b85c43dfa5ee8ae25eb7cdf85ec997cd8f3385604051808373ffffffffffffffffffffffffffffffffffffffff1673ffffffffffffffffffffffffffffffffffffffff1681526020018281526020019250505060405180910390a150505050565b600a5481565b600f5481565b6000600760009054906101000a900473ffffffffffffffffffffffffffffffffffffffff1690508073ffffffffffffffffffffffffffffffffffffffff1663d323a4f8336000604051602001526040518263ffffffff167c0100000000000000000000000000000000000000000000000000000000028152600401808273ffffffffffffffffffffffffffffffffffffffff1673ffffffffffffffffffffffffffffffffffffffff168152602001915050602060405180830381600087803b1515613db557600080fd5b6102c65a03f11515613dc657600080fd5b505050604051805190501515613ddb57600080fd5b60009050601586815481101515613dee57fe5b90600052602060002090600d020160090160009054906101000a900460ff16151515613e1957600080fd5b42601587815481101515613e2957fe5b90600052602060002090600d020160070154111515613e4757600080fd5b600f54601660003373ffffffffffffffffffffffffffffffffffffffff1673ffffffffffffffffffffffffffffffffffffffff16815260200190815260200160002054101515613e9657600080fd5b601586815481101515613ea557fe5b90600052602060002090600d020160020160003373ffffffffffffffffffffffffffffffffffffffff1673ffffffffffffffffffffffffffffffffffffffff16815260200190815260200160002060000160019054906101000a900460ff16151515613f1057600080fd5b601586815481101515613f1f57fe5b90600052602060002090600d02016004018054806001018281613f4291906146a7565b9160005260206000209001600033909190916101000a81548173ffffffffffffffffffffffffffffffffffffffff021916908373ffffffffffffffffffffffffffffffffffffffff160217905550506001601587815481101515613fa257fe5b90600052602060002090600d020160020160003373ffffffffffffffffffffffffffffffffffffffff1673ffffffffffffffffffffffffffffffffffffffff16815260200190815260200160002060000160016101000a81548160ff0219169083151502179055508460158781548110151561401a57fe5b90600052602060002090600d020160030160003373ffffffffffffffffffffffffffffffffffffffff1673ffffffffffffffffffffffffffffffffffffffff168152602001908152602001600020600001908051906020019061407e929190614726565b508360158781548110151561408f57fe5b90600052602060002090600d020160030160003373ffffffffffffffffffffffffffffffffffffffff1673ffffffffffffffffffffffffffffffffffffffff1681526020019081526020016000206001018160001916905550826015878154811015156140f857fe5b90600052602060002090600d020160030160003373ffffffffffffffffffffffffffffffffffffffff1673ffffffffffffffffffffffffffffffffffffffff16815260200190815260200160002060020160006101000a81548160ff021916908360ff1602179055508160158781548110151561417157fe5b90600052602060002090600d020160030160003373ffffffffffffffffffffffffffffffffffffffff1673ffffffffffffffffffffffffffffffffffffffff16815260200190815260200160002060020160016101000a81548160ff021916908360ff16021790555060006015878154811015156141eb57fe5b90600052602060002090600d020160030160003373ffffffffffffffffffffffffffffffffffffffff1673ffffffffffffffffffffffffffffffffffffffff168152602001908152602001600020600301819055507ff8889d073f0366f70b5fd3ef060e300b4071afc6e31d114717b21bf374f270eb863387878787604051808781526020018673ffffffffffffffffffffffffffffffffffffffff1673ffffffffffffffffffffffffffffffffffffffff1681526020018060200185600019166000191681526020018460ff1660ff1681526020018360ff1660ff168152602001828103825286818151815260200191508051906020019080838360005b838110156143055780820151818401526020810190506142ea565b50505050905090810190601f1680156143325780820380516001836020036101000a031916815260200191505b5097505050505050505060405180910390a1505050505050565b6143546146d3565b60088054806020026020016040519081016040528092919081815260200182805480156143d657602002820191906000526020600020905b8160009054906101000a900473ffffffffffffffffffffffffffffffffffffffff1673ffffffffffffffffffffffffffffffffffffffff168152602001906001019080831161438c575b5050505050905090565b6019602052816000526040600020818154811015156143fb57fe5b9060005260206000209001600091509150505481565b600460019054906101000a900460ff1681565b60088181548110151561443357fe5b90600052602060002090016000915054906101000a900473ffffffffffffffffffffffffffffffffffffffff1681565b600660009054906101000a900473ffffffffffffffffffffffffffffffffffffffff1681565b602060405190810160405280600081525090565b602060405190810160405280600081525090565b61018060405190810160405280600073ffffffffffffffffffffffffffffffffffffffff1681526020016144e36147a6565b81526020016144f06147ba565b81526020016000815260200160008152602001600081526020016000815260200160001515815260200160001515815260200161452b6147ba565b815260200160008152602001600081525090565b81548183558181151161456c57600d0281600d02836000526020600020918201910161456b91906147ce565b5b505050565b828054600181600116156101000203166002900490600052602060002090601f016020900481019282601f106145b257805160ff19168380011785556145e0565b828001600101855582156145e0579182015b828111156145df5782518255916020019190600101906145c4565b5b5090506145ed919061489c565b5090565b82805482825590600052602060002090810192821561466a579160200282015b828111156146695782518260006101000a81548173ffffffffffffffffffffffffffffffffffffffff021916908373ffffffffffffffffffffffffffffffffffffffff16021790555091602001919060010190614611565b5b50905061467791906148c1565b5090565b8154818355818115116146a2578183600052602060002091820191016146a1919061489c565b5b505050565b8154818355818115116146ce578183600052602060002091820191016146cd919061489c565b5b505050565b602060405190810160405280600081525090565b60a0604051908101604052806146fb6147a6565b815260200160008019168152602001600060ff168152602001600060ff168152602001600081525090565b828054600181600116156101000203166002900490600052602060002090601f016020900481019282601f1061476757805160ff1916838001178555614795565b82800160010185558215614795579182015b82811115614794578251825591602001919060010190614779565b5b5090506147a2919061489c565b5090565b602060405190810160405280600081525090565b602060405190810160405280600081525090565b61489991905b8082111561489557600080820160006101000a81549073ffffffffffffffffffffffffffffffffffffffff02191690556001820160006148149190614904565b600482016000614824919061494c565b60058201600090556006820160009055600782016000905560088201600090556009820160006101000a81549060ff02191690556009820160016101000a81549060ff0219169055600a8201600061487c919061494c565b600b820160009055600c82016000905550600d016147d4565b5090565b90565b6148be91905b808211156148ba5760008160009055506001016148a2565b5090565b90565b61490191905b808211156148fd57600081816101000a81549073ffffffffffffffffffffffffffffffffffffffff0219169055506001016148c7565b5090565b90565b50805460018160011615610100020316600290046000825580601f1061492a5750614949565b601f016020900490600052602060002090810190614948919061489c565b5b50565b508054600082559060005260206000209081019061496a919061489c565b505600a165627a7a72305820b417fc2989a2aba6524b1b016cb0cd4c3539d479f6d322283a3dc42a27fcf2d70029",
  "source": "pragma solidity ^0.4.11;\n\n// Standard contract for a presidential election procedure\n\nimport \"../standardProcedure.sol\";\nimport \"../standardOrgan.sol\";\n\n\ncontract cyclicalManyToManyElectionProcedure is Procedure{\n    // 1: Cyclical many to one election (Presidential Election)\n    // 2: Cyclical many to many election (Moderators Election)\n    // 3: Simple norm nomination \n    // 4: Simple admins and master nomination\n    // 5: Vote on Norms \n    // 6: Vote on masters and admins \n    // 7: Cooptation\n\n    int public procedureTypeNumber = 2;\n\n    // Which organ will be affected\n    address public affectedOrganContract;\n\n    // Where are the voter registered\n    address public referenceOrganContract;\n\n    // Gathering connected organs for easier DAO mapping\n    address[] public linkedOrgans;\n\n    // ############## Variable to set up when declaring the procedure\n    // ####### Vote creation process\n    // Election frequency\n    uint public ballotFrequency;\n    // Max parallel election running\n    uint public nextElectionDate;\n\n    // current President address\n    address[] public currentModerators;\n\n    // ####### Voting process\n    // Time to vote\n    uint public ballotDuration;\n\n    // Is blank vote accepted\n    bool public neutralVoteAccepted;\n\n    // ####### Candidacy process\n    // Time to declare as a candidate\n    uint public candidacyDuration;\n    // Maximum time someone can be candidate\n    uint public reelectionMaximum;\n\n    // ####### Resolution process\n    // Minimum participation to validate election\n    uint public quorumSize;\n\n    // Number of candidate per voter\n    uint public voterToCandidateRatio;\n\n\n    // Variable of the procedure to keep track of events\n    bool public isBallotCurrentlyRunning;\n    uint public totalBallotNumber;\n    uint public lastElectionNumber;\n\n    // Structure declaration\n\n    // Voter structure, to keep track of who voted for the current election\n    struct Voter {\n        bool voted;  // if true, that person already voted\n        bool isCandidate;\n        mapping(address => bool) hasVotedForCandidate;\n    }\n\n\n\n    // Candidacies structure, to keep track of candidacies for an election\n    struct Candidacy {\n        string name;\n        bytes32 ipfsHash; // ID of proposal on IPFS\n        uint8 hash_function;\n        uint8 size;\n        uint voteNumber;\n    }\n\n    // Ballot structure, instanciated once for every election cycle\n    struct Ballot {\n        address creator;\n        string name;   // short name (up to 32 bytes)\n        mapping(address => Voter) voters;\n        mapping(address => Candidacy) candidacies;\n        address[] candidateList;\n        uint electedOfficialSlotNumber;\n        uint startDate;\n        uint candidacyEndDate;\n        uint electionEndDate;\n        bool wasEnded;\n        bool wasEnforced;\n        address[] winningCandidates;\n        uint totalVoteCount;\n        uint totalVoters;\n\n    }\n\n    // A dynamically-sized array of `Ballot` structs.\n    Ballot[] public ballots;\n\n    // A mapping of candidacy status and number of candidacies per member\n    mapping(address => uint) public cumulatedCandidacies;\n\n    // Mapping each proposition to the user creating it\n    mapping (address => uint[]) public ballotToCreator;    \n\n    // Mapping each proposition to the user creating it\n    mapping (address => uint[]) public ballotToVoter;\n\n    // Mapping each proposition to the user counting it\n    mapping (address => uint[]) public ballotToCounter;\n\n    // Mapping each proposition to the user enforcing it\n    mapping (address => uint[]) public ballotToEnforcer;\n\n    // Events\n    event ballotCreationEvent(address _from, string _name, uint _startDate, uint _candidacyEndDate, uint _endDate, uint _ballotNumber);\n    event presentCandidacyEvent(uint _ballotNumber, address _candidateAddress, string _name, bytes32 _ipfsHash, uint8 _hash_function, uint8 _size);\n    event votedOnElectionEvent(address _from, uint _ballotNumber);\n    event ballotWasCounted(uint _ballotNumber, address[] _candidateList, address[] _winningCandidates, uint _totalVoteCount);\n    event ballotResultException(uint _ballotNumber, bool _wasRebooted);\n    event ballotWasEnforced(address[] _winningCandidates, uint _ballotNumber);\n\n    /// Create a new ballot to choose one of `proposalNames`.\n    function createBallot(string _ballotName) public returns (uint ballotNumber){\n            // Checking no ballot is currently running\n            require (isBallotCurrentlyRunning == false);\n            // Checking that election date has passed\n            require (now > nextElectionDate);\n            // Checking if previous ballot was counted\n            if (ballots.length > 0) {\n                require(ballots[lastElectionNumber].wasEnded);\n            }\n\n            Ballot memory newBallot;\n            newBallot.creator = msg.sender;\n            newBallot.name = _ballotName;\n            newBallot.startDate = now;\n            newBallot.candidacyEndDate = now + candidacyDuration;\n            newBallot.electionEndDate = now + candidacyDuration+ballotDuration;\n            newBallot.wasEnded = false;\n            newBallot.totalVoteCount =0;\n            newBallot.totalVoters =0;\n\n            // Retrieving size of electorate\n            Organ voterRegistryOrgan = Organ(referenceOrganContract);\n            newBallot.electedOfficialSlotNumber = uint(voterRegistryOrgan.getActiveNormNumber())/uint(voterToCandidateRatio);\n            if ( newBallot.electedOfficialSlotNumber == 0) { newBallot.electedOfficialSlotNumber = 1;}\n            delete voterRegistryOrgan;\n\n\n            ballots.push(newBallot);\n            ballotNumber = ballots.length - 1;\n            // openBallotList.push(ballotNumber);\n            // currentBallot = ballotNumber;\n            totalBallotNumber += 1;\n            isBallotCurrentlyRunning = true;\n            nextElectionDate = now + ballotFrequency;\n            lastElectionNumber = ballotNumber;\n\n            // Log event\n            ballotCreationEvent(msg.sender, _ballotName, newBallot.startDate, newBallot.candidacyEndDate, newBallot.electionEndDate, ballotNumber);\n           \n            // Attribute creation to creator\n            ballotToCreator[msg.sender].push(ballotNumber);\n\n            return ballotNumber;\n            }\n\n    function presentCandidacy(uint _ballotNumber, string _name, bytes32 _ipfsHash, uint8 _hash_function, uint8 _size) public {\n\n        // Check the candidate is a member of the reference organ\n        Organ voterRegistryOrgan = Organ(referenceOrganContract);\n        require(voterRegistryOrgan.isNorm(msg.sender));\n        delete voterRegistryOrgan;\n\n        // Check that the ballot is still active\n        require(!ballots[_ballotNumber].wasEnded);\n\n        // Check that the ballot candidacy period is still open\n        require(ballots[_ballotNumber].candidacyEndDate > now);\n\n        // Check that sender is not over the mandate limit\n        require(cumulatedCandidacies[msg.sender] < reelectionMaximum);\n\n        // Check if the candidate is already candidate\n        require(!ballots[_ballotNumber].voters[msg.sender].isCandidate);\n\n        ballots[_ballotNumber].candidateList.push(msg.sender);\n        ballots[_ballotNumber].voters[msg.sender].isCandidate = true;\n\n        ballots[_ballotNumber].candidacies[msg.sender].name = _name;\n        ballots[_ballotNumber].candidacies[msg.sender].ipfsHash = _ipfsHash;\n        ballots[_ballotNumber].candidacies[msg.sender].hash_function = _hash_function;\n        ballots[_ballotNumber].candidacies[msg.sender].size = _size;\n        ballots[_ballotNumber].candidacies[msg.sender].voteNumber = 0;\n       \n        // Log event\n        presentCandidacyEvent(_ballotNumber, msg.sender, _name, _ipfsHash, _hash_function, _size);\n\n        }\n\n\n    /// Vote for a candidate\n    function vote(uint _ballotNumber, address[] _candidateAddresses) public {\n\n        Organ voterRegistryOrgan = Organ(referenceOrganContract);\n        require(voterRegistryOrgan.isNorm(msg.sender));\n\n        delete voterRegistryOrgan;\n\n        // Check if voter already voted\n        require(!ballots[_ballotNumber].voters[msg.sender].voted);\n\n        // Check if vote is still active\n        require(!ballots[_ballotNumber].wasEnded);\n\n        // Check if candidacy period is over\n        require(ballots[_ballotNumber].candidacyEndDate < now);\n\n        // Check if voting period ended\n        require(ballots[_ballotNumber].electionEndDate > now);\n\n        // Checking that the voter has not selected too much candidates\n        require(_candidateAddresses.length < ballots[_ballotNumber].electedOfficialSlotNumber + 1);\n        \n        // Checking that the voter selected at least one candidate\n        require(_candidateAddresses.length > 0);\n\n        // Going through the list of selected candidates\n        for (uint i = 0; i < _candidateAddresses.length; i++)\n        {\n            require(!ballots[_ballotNumber].voters[msg.sender].hasVotedForCandidate[_candidateAddresses[i]]);\n            if(ballots[_ballotNumber].voters[_candidateAddresses[i]].isCandidate)\n                {ballots[_ballotNumber].candidacies[_candidateAddresses[i]].voteNumber += ballots[_ballotNumber].electedOfficialSlotNumber-i;\n                    ballots[_ballotNumber].totalVoteCount += ballots[_ballotNumber].electedOfficialSlotNumber-i;\n                    ballots[_ballotNumber].voters[msg.sender].hasVotedForCandidate[_candidateAddresses[i]] = true;}\n            else\n                // If candidate does not exist, this is a neutral vote\n            {ballots[_ballotNumber].candidacies[0x0000].voteNumber += 1;}\n\n        }\n\n\n        ballots[_ballotNumber].voters[msg.sender].voted = true;\n\n        ballots[_ballotNumber].totalVoters += 1;\n\n        // Attribute vote to voter\n        ballotToVoter[msg.sender].push(_ballotNumber);\n\n        // Log event\n        votedOnElectionEvent(msg.sender, _ballotNumber);\n\n\n        }\n\n    // The vote is finished and we close it. This triggers the outcome of the vote.\n\n    function endBallot(uint _ballotNumber) public {\n        // We check if the vote was already closed\n        require(!ballots[_ballotNumber].wasEnded);\n\n        // Checking that the vote can be closed\n        require(ballots[_ballotNumber].electionEndDate < now);\n\n        // Checking that the vote can be closed\n        if ((ballots[_ballotNumber].candidateList.length == 0) || ballots[_ballotNumber].totalVoteCount == 0)\n        {\n                // ballotHasEnded(false, true, ballots[_ballotNumber].candidateList, ballots[_ballotNumber].winningCandidates, ballots[_ballotNumber].totalVoteCount );\n                nextElectionDate = now -1;\n                isBallotCurrentlyRunning = false;\n                ballots[_ballotNumber].wasEnded = true;\n                ballots[_ballotNumber].wasEnforced = true;\n                // Log event\n                ballotResultException(_ballotNumber, true);\n                // Rebooting election\n                createBallot(ballots[_ballotNumber].name);\n                return;\n        }\n\n        // Checking that there are enough candidates\n        if (ballots[_ballotNumber].candidateList.length < ballots[_ballotNumber].electedOfficialSlotNumber)\n        {\n            ballots[_ballotNumber].electedOfficialSlotNumber = ballots[_ballotNumber].candidateList.length;\n        } \n\n\n        // ############## Going through candidates to check the vote count\n        uint previousThresholdCount = uint(0xFFFFFFFFFFFFFFFFFFFFFFFFFFFFFFFFFFFFFFFFFFFFFFFFFFFFFFFFFFFFFFFF);\n        uint winningVoteCount = 0;\n        uint isADraw = 0;\n        uint roundWinningCandidate = 0;\n\n        Organ voterRegistryOrgan = Organ(referenceOrganContract);\n\n        // Check if quorum is obtained. We avoiding divisions here, since Solidity is not good to calculate divisions\n        if (ballots[_ballotNumber].totalVoters*100 < quorumSize*voterRegistryOrgan.getActiveNormNumber())\n        {\n            // Quorum was not obtained. Rebooting election\n            ballots[_ballotNumber].wasEnforced = true;\n            nextElectionDate = now -1;\n            isBallotCurrentlyRunning = false;\n            ballots[_ballotNumber].wasEnded = true;\n\n            // Log event\n            ballotResultException(_ballotNumber, true);\n            // Rebooting election\n            createBallot(ballots[_ballotNumber].name);\n            return;\n        }\n        delete voterRegistryOrgan;\n\n\n        // Going through candidate lists to check all elected moderators\n        for (uint i = 0; i < ballots[_ballotNumber].electedOfficialSlotNumber; i++)\n        {\n            winningVoteCount = 0;\n            roundWinningCandidate = 0;\n                // Going through candidate list once to find best suitor\n                for (uint p = 0; p < ballots[_ballotNumber].candidateList.length; p++)\n                {\n                    address _candidateAddress = ballots[_ballotNumber].candidateList[p];\n                    if (ballots[_ballotNumber].candidacies[_candidateAddress].voteNumber >= previousThresholdCount)\n                    {}\n                    else if (ballots[_ballotNumber].candidacies[_candidateAddress].voteNumber > winningVoteCount) {\n                        winningVoteCount = ballots[_ballotNumber].candidacies[_candidateAddress].voteNumber ;\n                        roundWinningCandidate = p;\n                        isADraw = 0;\n                        }\n                    else if (ballots[_ballotNumber].candidacies[_candidateAddress].voteNumber == winningVoteCount){\n                            isADraw += 1;\n                        }\n\n                }\n\n                // Checking if various candidates tied\n                if (winningVoteCount == 0)\n                {}\n                else if (isADraw > 0)\n                {\n                    // Going through list one more time to add all tied up candidates\n                    for (uint q = 0; q < ballots[_ballotNumber].candidateList.length; q++)\n                    {\n                        // Making sure that winning candidate number is not too big\n                        if (i >= ballots[_ballotNumber].electedOfficialSlotNumber){}\n                        // Detecting ties\n                        else if (ballots[_ballotNumber].candidacies[_candidateAddress].voteNumber == winningVoteCount)\n                            {\n                                ballots[_ballotNumber].winningCandidates.push(ballots[_ballotNumber].candidateList[q]);\n                                i += 1;\n                            }\n                    }\n                }\n                // Adding candidate to winning candidate list\n                else {\n                    ballots[_ballotNumber].winningCandidates.push(ballots[_ballotNumber].candidateList[roundWinningCandidate]);\n                }\n\n                previousThresholdCount = winningVoteCount;\n            }\n\n        // ############## Updating ballot values if vote concluded\n        ballots[_ballotNumber].wasEnded = true;\n        isBallotCurrentlyRunning = false;\n        // Log event\n        ballotWasCounted(_ballotNumber, ballots[_ballotNumber].candidateList, ballots[_ballotNumber].winningCandidates, ballots[_ballotNumber].totalVoteCount );\n        // Attribute count to counter\n        ballotToCounter[msg.sender].push(_ballotNumber);\n\n        }\n    \n    function enforceBallot(uint _ballotNumber) public {\n        // Checking if ballot was already enforced\n        require(!ballots[_ballotNumber].wasEnforced );\n        // Checking the ballot was closed\n        require(ballots[_ballotNumber].wasEnded);\n        // Checking that the enforcing date is not later than the end of his supposed mandate\n        if (now > ballots[_ballotNumber].startDate + ballotFrequency)\n        {\n            ballots[_ballotNumber].wasEnforced = true;\n            // Log event\n            ballotResultException(_ballotNumber, false);\n            return;\n        }\n        // We initiate the Organ interface to add a presidential norm\n\n        Organ moderatorsOrgan = Organ(affectedOrganContract);\n\n\n        // Removing current moderators\n        if (totalBallotNumber > 1)\n            {\n            for (uint i = 0; i < currentModerators.length; i++)\n                {\n                    moderatorsOrgan.remNorm(moderatorsOrgan.getAddressPositionInNorm(currentModerators[i]));\n                    delete currentModerators[i];\n                }\n            }\n\n        // Adding new moderators\n        for (uint p = 0; p < ballots[_ballotNumber].winningCandidates.length; p++)\n            {\n                Candidacy memory newModerator = ballots[_ballotNumber].candidacies[ballots[_ballotNumber].winningCandidates[p]];\n                moderatorsOrgan.addNorm(ballots[_ballotNumber].winningCandidates[p], newModerator.name, newModerator.ipfsHash, newModerator.hash_function, newModerator.size  );\n                cumulatedCandidacies[ballots[_ballotNumber].winningCandidates[p]] += 1;\n                if (p < currentModerators.length )\n                {\n                 currentModerators[p] = ballots[_ballotNumber].winningCandidates[p];\n                }\n                else\n                {\n                    currentModerators.push(ballots[_ballotNumber].winningCandidates[p]);\n                }\n            }\n\n        // Modifying procedure variable to count new president\n        ballots[_ballotNumber].wasEnforced = true;\n\n\n        ballotToEnforcer[msg.sender].push(_ballotNumber);\n        \n        // Logging event\n        ballotWasEnforced( ballots[_ballotNumber].winningCandidates, _ballotNumber);\n        }\n\n    //////////////////////// Functions to communicate with other contracts\n    function getCandidateList(uint _ballotNumber) public view returns (address[] _candidateList){\n        return ballots[_ballotNumber].candidateList;\n    }\n    function getSingleBallotInfo(uint _ballotNumber) public view returns (string _name, uint _startDate, uint _candidacyEndDate, uint _electionEndDate, uint _electedOfficialSlotNumber){\n        return (ballots[_ballotNumber].name, ballots[_ballotNumber].startDate, ballots[_ballotNumber].candidacyEndDate, ballots[_ballotNumber].electionEndDate, ballots[_ballotNumber].electedOfficialSlotNumber);\n    }\n    function getBallotStatus(uint _ballotNumber) public view returns (bool _wasEnded, bool _wasEnforced, address[] _winningCandidates)\n    { return (ballots[_ballotNumber].wasEnded, ballots[_ballotNumber].wasEnforced, ballots[_ballotNumber].winningCandidates);}\n\n    function getBallotStats(uint _ballotNumber) public view returns (uint _votersNumber, uint _totalVoteCount)\n    { return (ballots[_ballotNumber].totalVoters, ballots[_ballotNumber].totalVoteCount);}\n    \n    function getCandidateVoteNumber(uint _ballotNumber, address _candidateAddress) public view returns (uint voteReceived){\n        require(ballots[_ballotNumber].wasEnforced);\n        return ballots[_ballotNumber].candidacies[_candidateAddress].voteNumber;\n    }\n    function haveIVoted(uint _ballotNumber) public view returns (bool IHaveVoted)\n    {return ballots[_ballotNumber].voters[msg.sender].voted;}\n\n    function getBallotToCreator(address _userAddress) public view returns (uint[])\n    {return ballotToCreator[_userAddress];}    \n    function getBallotToVoter(address _userAddress) public view returns (uint[])\n    {return ballotToVoter[_userAddress];}  \n    function getBallotToCounter(address _userAddress) public view returns (uint[])\n    {return ballotToCounter[_userAddress];}  \n    function getBallotToEnforcer(address _userAddress) public view returns (uint[])\n    {return ballotToEnforcer[_userAddress];}  \n    function getLinkedOrgans() public view returns (address[] _linkedOrgans)\n    {return linkedOrgans;}\n\n\n}\n",
  "sourcePath": "/Users/henrilieutaud/Documents/Mes documents/97/Workshop/Kelsen/solidity/contracts/procedures/cyclicalManyToManyElectionProcedure.sol",
  "compiler": {
    "name": "solc",
    "version": "0.4.19+commit.c4cbbb05.Emscripten.clang"
  },
  "schemaVersion": "2.0.0",
  "updatedAt": "2018-05-14T16:49:35.766Z"
}