{
  "contractName": "deployVoteOnExpenseProcedure",
  "abi": [
    {
      "constant": true,
      "inputs": [
        {
          "name": "_propositionNumber",
          "type": "uint256"
        }
      ],
      "name": "getPropositionStatus",
      "outputs": [
        {
          "name": "_wasCounted",
          "type": "bool"
        },
        {
          "name": "_wasEnded",
          "type": "bool"
        }
      ],
      "payable": false,
      "stateMutability": "view",
      "type": "function"
    },
    {
      "constant": true,
      "inputs": [
        {
          "name": "_userAddress",
          "type": "address"
        }
      ],
      "name": "getPropositionsUsedByUser",
      "outputs": [
        {
          "name": "",
          "type": "uint256[]"
        }
      ],
      "payable": false,
      "stateMutability": "view",
      "type": "function"
    },
    {
      "constant": true,
      "inputs": [
        {
          "name": "_userAddress",
          "type": "address"
        }
      ],
      "name": "getPropositionsPromulgatedByUser",
      "outputs": [
        {
          "name": "",
          "type": "uint256[]"
        }
      ],
      "payable": false,
      "stateMutability": "view",
      "type": "function"
    },
    {
      "constant": true,
      "inputs": [
        {
          "name": "",
          "type": "address"
        },
        {
          "name": "",
          "type": "uint256"
        }
      ],
      "name": "propositionToUser",
      "outputs": [
        {
          "name": "",
          "type": "uint256"
        }
      ],
      "payable": false,
      "stateMutability": "view",
      "type": "function"
    },
    {
      "constant": false,
      "inputs": [
        {
          "name": "_propositionNumber",
          "type": "uint256"
        }
      ],
      "name": "veto",
      "outputs": [],
      "payable": false,
      "stateMutability": "nonpayable",
      "type": "function"
    },
    {
      "constant": false,
      "inputs": [
        {
          "name": "_payoutAddress",
          "type": "address"
        },
        {
          "name": "_amount",
          "type": "uint256"
        },
        {
          "name": "_ipfsHash",
          "type": "bytes32"
        },
        {
          "name": "_hash_function",
          "type": "uint8"
        },
        {
          "name": "_size",
          "type": "uint8"
        },
        {
          "name": "_name",
          "type": "string"
        }
      ],
      "name": "createProposition",
      "outputs": [
        {
          "name": "propositionNumber",
          "type": "uint256"
        }
      ],
      "payable": false,
      "stateMutability": "nonpayable",
      "type": "function"
    },
    {
      "constant": true,
      "inputs": [],
      "name": "procedureTypeNumber",
      "outputs": [
        {
          "name": "",
          "type": "int256"
        }
      ],
      "payable": false,
      "stateMutability": "view",
      "type": "function"
    },
    {
      "constant": true,
      "inputs": [],
      "name": "quorumSize",
      "outputs": [
        {
          "name": "",
          "type": "uint256"
        }
      ],
      "payable": false,
      "stateMutability": "view",
      "type": "function"
    },
    {
      "constant": true,
      "inputs": [
        {
          "name": "_propositionNumber",
          "type": "uint256"
        }
      ],
      "name": "getPropositionDetails",
      "outputs": [
        {
          "name": "_payoutAddress",
          "type": "address"
        },
        {
          "name": "_amount",
          "type": "uint256"
        },
        {
          "name": "_ipfsHash",
          "type": "bytes32"
        },
        {
          "name": "_hash_function",
          "type": "uint8"
        },
        {
          "name": "_size",
          "type": "uint8"
        },
        {
          "name": "_name",
          "type": "string"
        }
      ],
      "payable": false,
      "stateMutability": "view",
      "type": "function"
    },
    {
      "constant": true,
      "inputs": [
        {
          "name": "_userAddress",
          "type": "address"
        }
      ],
      "name": "getPropositionsVetoedByUser",
      "outputs": [
        {
          "name": "",
          "type": "uint256[]"
        }
      ],
      "payable": false,
      "stateMutability": "view",
      "type": "function"
    },
    {
      "constant": true,
      "inputs": [
        {
          "name": "",
          "type": "address"
        },
        {
          "name": "",
          "type": "uint256"
        }
      ],
      "name": "propositionToPromulgator",
      "outputs": [
        {
          "name": "",
          "type": "uint256"
        }
      ],
      "payable": false,
      "stateMutability": "view",
      "type": "function"
    },
    {
      "constant": true,
      "inputs": [],
      "name": "getProcedureName",
      "outputs": [
        {
          "name": "_procedureName",
          "type": "string"
        }
      ],
      "payable": false,
      "stateMutability": "view",
      "type": "function"
    },
    {
      "constant": true,
      "inputs": [],
      "name": "kelsenVersionNumber",
      "outputs": [
        {
          "name": "",
          "type": "int256"
        }
      ],
      "payable": false,
      "stateMutability": "view",
      "type": "function"
    },
    {
      "constant": true,
      "inputs": [],
      "name": "membersWithVetoOrganContract",
      "outputs": [
        {
          "name": "",
          "type": "address"
        }
      ],
      "payable": false,
      "stateMutability": "view",
      "type": "function"
    },
    {
      "constant": true,
      "inputs": [
        {
          "name": "_propositionNumber",
          "type": "uint256"
        }
      ],
      "name": "getVotedPropositionResults",
      "outputs": [
        {
          "name": "_wasVetoed",
          "type": "bool"
        },
        {
          "name": "_wasAccepted",
          "type": "bool"
        }
      ],
      "payable": false,
      "stateMutability": "view",
      "type": "function"
    },
    {
      "constant": true,
      "inputs": [
        {
          "name": "",
          "type": "address"
        },
        {
          "name": "",
          "type": "uint256"
        }
      ],
      "name": "propositionToVoter",
      "outputs": [
        {
          "name": "",
          "type": "uint256"
        }
      ],
      "payable": false,
      "stateMutability": "view",
      "type": "function"
    },
    {
      "constant": true,
      "inputs": [],
      "name": "finalPromulgatorsOrganContract",
      "outputs": [
        {
          "name": "",
          "type": "address"
        }
      ],
      "payable": false,
      "stateMutability": "view",
      "type": "function"
    },
    {
      "constant": true,
      "inputs": [],
      "name": "totalPropositionNumber",
      "outputs": [
        {
          "name": "",
          "type": "uint256"
        }
      ],
      "payable": false,
      "stateMutability": "view",
      "type": "function"
    },
    {
      "constant": true,
      "inputs": [],
      "name": "requiredMajorityNumerator",
      "outputs": [
        {
          "name": "",
          "type": "uint256"
        }
      ],
      "payable": false,
      "stateMutability": "view",
      "type": "function"
    },
    {
      "constant": true,
      "inputs": [],
      "name": "isAnOrgan",
      "outputs": [
        {
          "name": "",
          "type": "bool"
        }
      ],
      "payable": false,
      "stateMutability": "view",
      "type": "function"
    },
    {
      "constant": true,
      "inputs": [
        {
          "name": "propositionNumber",
          "type": "uint256"
        }
      ],
      "name": "haveIVoted",
      "outputs": [
        {
          "name": "IHaveVoted",
          "type": "bool"
        }
      ],
      "payable": false,
      "stateMutability": "view",
      "type": "function"
    },
    {
      "constant": true,
      "inputs": [],
      "name": "procedureName",
      "outputs": [
        {
          "name": "",
          "type": "string"
        }
      ],
      "payable": false,
      "stateMutability": "view",
      "type": "function"
    },
    {
      "constant": true,
      "inputs": [
        {
          "name": "_propositionNumber",
          "type": "uint256"
        }
      ],
      "name": "getVotedPropositionStats",
      "outputs": [
        {
          "name": "_totalVoters",
          "type": "uint256"
        },
        {
          "name": "_totalVoteCount",
          "type": "uint256"
        },
        {
          "name": "_voteFor",
          "type": "uint256"
        }
      ],
      "payable": false,
      "stateMutability": "view",
      "type": "function"
    },
    {
      "constant": true,
      "inputs": [],
      "name": "votingPeriodDuration",
      "outputs": [
        {
          "name": "",
          "type": "uint256"
        }
      ],
      "payable": false,
      "stateMutability": "view",
      "type": "function"
    },
    {
      "constant": false,
      "inputs": [
        {
          "name": "_propositionNumber",
          "type": "uint256"
        },
        {
          "name": "_acceptProposition",
          "type": "bool"
        }
      ],
      "name": "vote",
      "outputs": [],
      "payable": false,
      "stateMutability": "nonpayable",
      "type": "function"
    },
    {
      "constant": true,
      "inputs": [
        {
          "name": "_userAddress",
          "type": "address"
        }
      ],
      "name": "getPropositionsCreatedByUser",
      "outputs": [
        {
          "name": "",
          "type": "uint256[]"
        }
      ],
      "payable": false,
      "stateMutability": "view",
      "type": "function"
    },
    {
      "constant": true,
      "inputs": [
        {
          "name": "",
          "type": "uint256"
        }
      ],
      "name": "propositionsWaitingPromulgation",
      "outputs": [
        {
          "name": "",
          "type": "bool"
        }
      ],
      "payable": false,
      "stateMutability": "view",
      "type": "function"
    },
    {
      "constant": true,
      "inputs": [],
      "name": "promulgationPeriodDuration",
      "outputs": [
        {
          "name": "",
          "type": "uint256"
        }
      ],
      "payable": false,
      "stateMutability": "view",
      "type": "function"
    },
    {
      "constant": true,
      "inputs": [],
      "name": "votersOrganContract",
      "outputs": [
        {
          "name": "",
          "type": "address"
        }
      ],
      "payable": false,
      "stateMutability": "view",
      "type": "function"
    },
    {
      "constant": true,
      "inputs": [
        {
          "name": "_propositionNumber",
          "type": "uint256"
        }
      ],
      "name": "getPropositionDates",
      "outputs": [
        {
          "name": "_startDate",
          "type": "uint256"
        },
        {
          "name": "_votingPeriodEndDate",
          "type": "uint256"
        },
        {
          "name": "_promulgatorWindowEndDate",
          "type": "uint256"
        }
      ],
      "payable": false,
      "stateMutability": "view",
      "type": "function"
    },
    {
      "constant": false,
      "inputs": [
        {
          "name": "_propositionNumber",
          "type": "uint256"
        },
        {
          "name": "_promulgate",
          "type": "bool"
        }
      ],
      "name": "promulgateProposition",
      "outputs": [],
      "payable": false,
      "stateMutability": "nonpayable",
      "type": "function"
    },
    {
      "constant": true,
      "inputs": [
        {
          "name": "",
          "type": "address"
        },
        {
          "name": "",
          "type": "uint256"
        }
      ],
      "name": "propositionToVetoer",
      "outputs": [
        {
          "name": "",
          "type": "uint256"
        }
      ],
      "payable": false,
      "stateMutability": "view",
      "type": "function"
    },
    {
      "constant": false,
      "inputs": [
        {
          "name": "_propositionNumber",
          "type": "uint256"
        }
      ],
      "name": "endPropositionVote",
      "outputs": [
        {
          "name": "hasBeenAccepted",
          "type": "bool"
        }
      ],
      "payable": false,
      "stateMutability": "nonpayable",
      "type": "function"
    },
    {
      "constant": true,
      "inputs": [
        {
          "name": "",
          "type": "uint256"
        }
      ],
      "name": "propositionsWaitingEndOfVote",
      "outputs": [
        {
          "name": "",
          "type": "bool"
        }
      ],
      "payable": false,
      "stateMutability": "view",
      "type": "function"
    },
    {
      "constant": true,
      "inputs": [],
      "name": "getLinkedOrgans",
      "outputs": [
        {
          "name": "_linkedOrgans",
          "type": "address[]"
        }
      ],
      "payable": false,
      "stateMutability": "view",
      "type": "function"
    },
    {
      "constant": true,
      "inputs": [],
      "name": "isAProcedure",
      "outputs": [
        {
          "name": "",
          "type": "bool"
        }
      ],
      "payable": false,
      "stateMutability": "view",
      "type": "function"
    },
    {
      "constant": true,
      "inputs": [],
      "name": "requiredMajorityDenominator",
      "outputs": [
        {
          "name": "",
          "type": "uint256"
        }
      ],
      "payable": false,
      "stateMutability": "view",
      "type": "function"
    },
    {
      "constant": true,
      "inputs": [
        {
          "name": "",
          "type": "uint256"
        }
      ],
      "name": "linkedOrgans",
      "outputs": [
        {
          "name": "",
          "type": "address"
        }
      ],
      "payable": false,
      "stateMutability": "view",
      "type": "function"
    },
    {
      "constant": true,
      "inputs": [],
      "name": "affectedOrganContract",
      "outputs": [
        {
          "name": "",
          "type": "address"
        }
      ],
      "payable": false,
      "stateMutability": "view",
      "type": "function"
    },
    {
      "inputs": [
        {
          "name": "_affectedOrganContract",
          "type": "address"
        },
        {
          "name": "_votersOrganContract",
          "type": "address"
        },
        {
          "name": "_membersWithVetoOrganContract",
          "type": "address"
        },
        {
          "name": "_finalPromulgatorsOrganContract",
          "type": "address"
        },
        {
          "name": "_quorumSize",
          "type": "uint256"
        },
        {
          "name": "_votingPeriodDuration",
          "type": "uint256"
        },
        {
          "name": "_promulgationPeriodDuration",
          "type": "uint256"
        },
        {
          "name": "_name",
          "type": "string"
        }
      ],
      "payable": false,
      "stateMutability": "nonpayable",
      "type": "constructor"
    },
    {
      "anonymous": false,
      "inputs": [
        {
          "indexed": false,
          "name": "_from",
          "type": "address"
        },
        {
          "indexed": false,
          "name": "_payoutAddress",
          "type": "address"
        },
        {
          "indexed": false,
          "name": "_amount",
          "type": "uint256"
        },
        {
          "indexed": false,
          "name": "_ipfsHash",
          "type": "bytes32"
        },
        {
          "indexed": false,
          "name": "_hash_function",
          "type": "uint8"
        },
        {
          "indexed": false,
          "name": "_size",
          "type": "uint8"
        }
      ],
      "name": "createPropositionEvent",
      "type": "event"
    },
    {
      "anonymous": false,
      "inputs": [
        {
          "indexed": false,
          "name": "_from",
          "type": "address"
        },
        {
          "indexed": false,
          "name": "_propositionNumber",
          "type": "uint256"
        }
      ],
      "name": "voteOnProposition",
      "type": "event"
    },
    {
      "anonymous": false,
      "inputs": [
        {
          "indexed": false,
          "name": "_from",
          "type": "address"
        },
        {
          "indexed": false,
          "name": "_propositionNumber",
          "type": "uint256"
        }
      ],
      "name": "vetoProposition",
      "type": "event"
    },
    {
      "anonymous": false,
      "inputs": [
        {
          "indexed": false,
          "name": "_from",
          "type": "address"
        },
        {
          "indexed": false,
          "name": "_propositionNumber",
          "type": "uint256"
        }
      ],
      "name": "countVotes",
      "type": "event"
    },
    {
      "anonymous": false,
      "inputs": [
        {
          "indexed": false,
          "name": "_from",
          "type": "address"
        },
        {
          "indexed": false,
          "name": "_propositionNumber",
          "type": "uint256"
        },
        {
          "indexed": false,
          "name": "_promulgate",
          "type": "bool"
        }
      ],
      "name": "promulgatePropositionEvent",
      "type": "event"
    }
  ],
  "bytecode": "0x60606040526000600460006101000a81548160ff0219169083151502179055506001600460016101000a81548160ff021916908315150217905550600860065534156200004b57600080fd5b60405162003696380380620036968339810160405280805190602001909190805190602001909190805190602001909190805190602001909190805190602001909190805190602001909190805190602001909190805182019190505087600860006101000a81548173ffffffffffffffffffffffffffffffffffffffff021916908373ffffffffffffffffffffffffffffffffffffffff16021790555086600960006101000a81548173ffffffffffffffffffffffffffffffffffffffff021916908373ffffffffffffffffffffffffffffffffffffffff16021790555085600a60006101000a81548173ffffffffffffffffffffffffffffffffffffffff021916908373ffffffffffffffffffffffffffffffffffffffff16021790555084600b60006101000a81548173ffffffffffffffffffffffffffffffffffffffff021916908373ffffffffffffffffffffffffffffffffffffffff160217905550608060405190810160405280600860009054906101000a900473ffffffffffffffffffffffffffffffffffffffff1673ffffffffffffffffffffffffffffffffffffffff1673ffffffffffffffffffffffffffffffffffffffff168152602001600960009054906101000a900473ffffffffffffffffffffffffffffffffffffffff1673ffffffffffffffffffffffffffffffffffffffff1673ffffffffffffffffffffffffffffffffffffffff168152602001600a60009054906101000a900473ffffffffffffffffffffffffffffffffffffffff1673ffffffffffffffffffffffffffffffffffffffff1673ffffffffffffffffffffffffffffffffffffffff168152602001600b60009054906101000a900473ffffffffffffffffffffffffffffffffffffffff1673ffffffffffffffffffffffffffffffffffffffff1673ffffffffffffffffffffffffffffffffffffffff16815250600c906004620003189291906200035d565b50806007908051906020019062000331929190620003ec565b5083600f8190555082600d8190555081600e8190555060016000819055505050505050505050620004e1565b828054828255906000526020600020908101928215620003d9579160200282015b82811115620003d85782518260006101000a81548173ffffffffffffffffffffffffffffffffffffffff021916908373ffffffffffffffffffffffffffffffffffffffff160217905550916020019190600101906200037e565b5b509050620003e8919062000473565b5090565b828054600181600116156101000203166002900490600052602060002090601f016020900481019282601f106200042f57805160ff191683800117855562000460565b8280016001018555821562000460579182015b828111156200045f57825182559160200191906001019062000442565b5b5090506200046f9190620004b9565b5090565b620004b691905b80821115620004b257600081816101000a81549073ffffffffffffffffffffffffffffffffffffffff0219169055506001016200047a565b5090565b90565b620004de91905b80821115620004da576000816000905550600101620004c0565b5090565b90565b6131a580620004f16000396000f3006060604052600436106101e3576000357c0100000000000000000000000000000000000000000000000000000000900463ffffffff1680630366af3d146101e857806305cf00571461022e57806307e7a224146102bc5780630b2e34b01461034a5780631d28dec7146103a05780632443eaa7146103c35780632647d7f9146104815780633068ef4d146104aa57806337443feb146104d35780633c0848ee146105d25780635332eea11461066057806359908afe146106b65780635dbe4d281461074457806364cdd61e1461076d5780636a95d38d146107c257806375ff60c414610808578063880d3f541461085e5780638f3b07a4146108b35780639b88fba7146108dc578063a8bef97a14610905578063ac37af1c14610932578063adb4018b1461096d578063aff7cfc7146109fb578063b5fdb88e14610a40578063c9d27afe14610a69578063cb20a2fd14610a97578063cd43eb1f14610b25578063cd87c2b614610b60578063ce784b7714610b89578063ce88840314610bde578063d64ff06314610c23578063d858849414610c51578063e09ecb8714610ca7578063e36f6e4e14610ce2578063e570050114610d1d578063e80b30a514610d87578063eb9141e914610db4578063f2edc61614610ddd578063fe7800e114610e40575b600080fd5b34156101f357600080fd5b6102096004808035906020019091905050610e95565b6040518083151515158152602001821515151581526020019250505060405180910390f35b341561023957600080fd5b610265600480803573ffffffffffffffffffffffffffffffffffffffff16906020019091905050610efd565b6040518080602001828103825283818151815260200191508051906020019060200280838360005b838110156102a857808201518184015260208101905061028d565b505050509050019250505060405180910390f35b34156102c757600080fd5b6102f3600480803573ffffffffffffffffffffffffffffffffffffffff16906020019091905050610f9a565b6040518080602001828103825283818151815260200191508051906020019060200280838360005b8381101561033657808201518184015260208101905061031b565b505050509050019250505060405180910390f35b341561035557600080fd5b61038a600480803573ffffffffffffffffffffffffffffffffffffffff16906020019091908035906020019091905050611037565b6040518082815260200191505060405180910390f35b34156103ab57600080fd5b6103c16004808035906020019091905050611068565b005b34156103ce57600080fd5b61046b600480803573ffffffffffffffffffffffffffffffffffffffff169060200190919080359060200190919080356000191690602001909190803560ff1690602001909190803560ff1690602001909190803590602001908201803590602001908080601f016020809104026020016040519081016040528093929190818152602001838380828437820191505050505050919050506112d2565b6040518082815260200191505060405180910390f35b341561048c57600080fd5b610494611850565b6040518082815260200191505060405180910390f35b34156104b557600080fd5b6104bd611856565b6040518082815260200191505060405180910390f35b34156104de57600080fd5b6104f4600480803590602001909190505061185c565b604051808773ffffffffffffffffffffffffffffffffffffffff1673ffffffffffffffffffffffffffffffffffffffff16815260200186815260200185600019166000191681526020018460ff1660ff1681526020018360ff1660ff16815260200180602001828103825283818151815260200191508051906020019080838360005b83811015610592578082015181840152602081019050610577565b50505050905090810190601f1680156105bf5780820380516001836020036101000a031916815260200191505b5097505050505050505060405180910390f35b34156105dd57600080fd5b610609600480803573ffffffffffffffffffffffffffffffffffffffff16906020019091905050611a1c565b6040518080602001828103825283818151815260200191508051906020019060200280838360005b8381101561064c578082015181840152602081019050610631565b505050509050019250505060405180910390f35b341561066b57600080fd5b6106a0600480803573ffffffffffffffffffffffffffffffffffffffff16906020019091908035906020019091905050611ab9565b6040518082815260200191505060405180910390f35b34156106c157600080fd5b6106c9611aea565b6040518080602001828103825283818151815260200191508051906020019080838360005b838110156107095780820151818401526020810190506106ee565b50505050905090810190601f1680156107365780820380516001836020036101000a031916815260200191505b509250505060405180910390f35b341561074f57600080fd5b610757611b92565b6040518082815260200191505060405180910390f35b341561077857600080fd5b610780611b98565b604051808273ffffffffffffffffffffffffffffffffffffffff1673ffffffffffffffffffffffffffffffffffffffff16815260200191505060405180910390f35b34156107cd57600080fd5b6107e36004808035906020019091905050611bbe565b6040518083151515158152602001821515151581526020019250505060405180910390f35b341561081357600080fd5b610848600480803573ffffffffffffffffffffffffffffffffffffffff16906020019091908035906020019091905050611c5f565b6040518082815260200191505060405180910390f35b341561086957600080fd5b610871611c90565b604051808273ffffffffffffffffffffffffffffffffffffffff1673ffffffffffffffffffffffffffffffffffffffff16815260200191505060405180910390f35b34156108be57600080fd5b6108c6611cb6565b6040518082815260200191505060405180910390f35b34156108e757600080fd5b6108ef611cbc565b6040518082815260200191505060405180910390f35b341561091057600080fd5b610918611cc2565b604051808215151515815260200191505060405180910390f35b341561093d57600080fd5b6109536004808035906020019091905050611cd5565b604051808215151515815260200191505060405180910390f35b341561097857600080fd5b610980611d49565b6040518080602001828103825283818151815260200191508051906020019080838360005b838110156109c05780820151818401526020810190506109a5565b50505050905090810190601f1680156109ed5780820380516001836020036101000a031916815260200191505b509250505060405180910390f35b3415610a0657600080fd5b610a1c6004808035906020019091905050611de7565b60405180848152602001838152602001828152602001935050505060405180910390f35b3415610a4b57600080fd5b610a53611e95565b6040518082815260200191505060405180910390f35b3415610a7457600080fd5b610a9560048080359060200190919080351515906020019091905050611e9b565b005b3415610aa257600080fd5b610ace600480803573ffffffffffffffffffffffffffffffffffffffff16906020019091905050612226565b6040518080602001828103825283818151815260200191508051906020019060200280838360005b83811015610b11578082015181840152602081019050610af6565b505050509050019250505060405180910390f35b3415610b3057600080fd5b610b4660048080359060200190919050506122c3565b604051808215151515815260200191505060405180910390f35b3415610b6b57600080fd5b610b736122f6565b6040518082815260200191505060405180910390f35b3415610b9457600080fd5b610b9c6122fc565b604051808273ffffffffffffffffffffffffffffffffffffffff1673ffffffffffffffffffffffffffffffffffffffff16815260200191505060405180910390f35b3415610be957600080fd5b610bff6004808035906020019091905050612322565b60405180848152602001838152602001828152602001935050505060405180910390f35b3415610c2e57600080fd5b610c4f6004808035906020019091908035151590602001909190505061239b565b005b3415610c5c57600080fd5b610c91600480803573ffffffffffffffffffffffffffffffffffffffff169060200190919080359060200190919050506128de565b6040518082815260200191505060405180910390f35b3415610cb257600080fd5b610cc8600480803590602001909190505061290f565b604051808215151515815260200191505060405180910390f35b3415610ced57600080fd5b610d036004808035906020019091905050612cc4565b604051808215151515815260200191505060405180910390f35b3415610d2857600080fd5b610d30612cf7565b6040518080602001828103825283818151815260200191508051906020019060200280838360005b83811015610d73578082015181840152602081019050610d58565b505050509050019250505060405180910390f35b3415610d9257600080fd5b610d9a612d8b565b604051808215151515815260200191505060405180910390f35b3415610dbf57600080fd5b610dc7612d9e565b6040518082815260200191505060405180910390f35b3415610de857600080fd5b610dfe6004808035906020019091905050612da4565b604051808273ffffffffffffffffffffffffffffffffffffffff1673ffffffffffffffffffffffffffffffffffffffff16815260200191505060405180910390f35b3415610e4b57600080fd5b610e53612de3565b604051808273ffffffffffffffffffffffffffffffffffffffff1673ffffffffffffffffffffffffffffffffffffffff16815260200191505060405180910390f35b600080601383815481101515610ea757fe5b90600052602060002090600b020160080160019054906101000a900460ff16601384815481101515610ed557fe5b90600052602060002090600b020160080160039054906101000a900460ff1691509150915091565b610f05612e09565b601760008373ffffffffffffffffffffffffffffffffffffffff1673ffffffffffffffffffffffffffffffffffffffff168152602001908152602001600020805480602002602001604051908101604052809291908181526020018280548015610f8e57602002820191906000526020600020905b815481526020019060010190808311610f7a575b50505050509050919050565b610fa2612e09565b601960008373ffffffffffffffffffffffffffffffffffffffff1673ffffffffffffffffffffffffffffffffffffffff16815260200190815260200160002080548060200260200160405190810160405280929190818152602001828054801561102b57602002820191906000526020600020905b815481526020019060010190808311611017575b50505050509050919050565b60166020528160005260406000208181548110151561105257fe5b9060005260206000209001600091509150505481565b6000600a60009054906101000a900473ffffffffffffffffffffffffffffffffffffffff1690508073ffffffffffffffffffffffffffffffffffffffff1663d323a4f8336000604051602001526040518263ffffffff167c0100000000000000000000000000000000000000000000000000000000028152600401808273ffffffffffffffffffffffffffffffffffffffff1673ffffffffffffffffffffffffffffffffffffffff168152602001915050602060405180830381600087803b151561113257600080fd5b6102c65a03f1151561114357600080fd5b50505060405180519050151561115857600080fd5b6000905060138281548110151561116b57fe5b90600052602060002090600b020160080160019054906101000a900460ff1615151561119657600080fd5b426013838154811015156111a657fe5b90600052602060002090600b0201600701541115156111c457600080fd5b60016013838154811015156111d557fe5b90600052602060002090600b020160080160006101000a81548160ff021916908315150217905550601860003373ffffffffffffffffffffffffffffffffffffffff1673ffffffffffffffffffffffffffffffffffffffff168152602001908152602001600020805480600101828161124e9190612e1d565b9160005260206000209001600084909190915055507f62901d9c2f788a5c877cf5a2659a041eedf9a980c6dd3ed22a4878bcc228619b3383604051808373ffffffffffffffffffffffffffffffffffffffff1673ffffffffffffffffffffffffffffffffffffffff1681526020018281526020019250505060405180910390a15050565b6000806112dd612e49565b600960009054906101000a900473ffffffffffffffffffffffffffffffffffffffff1691508173ffffffffffffffffffffffffffffffffffffffff1663d323a4f8336000604051602001526040518263ffffffff167c0100000000000000000000000000000000000000000000000000000000028152600401808273ffffffffffffffffffffffffffffffffffffffff1673ffffffffffffffffffffffffffffffffffffffff168152602001915050602060405180830381600087803b15156113a557600080fd5b6102c65a03f115156113b657600080fd5b5050506040518051905015156113cb57600080fd5b6000915088816000019073ffffffffffffffffffffffffffffffffffffffff16908173ffffffffffffffffffffffffffffffffffffffff168152505087816020018181525050868160400190600019169081600019168152505085816060019060ff16908160ff168152505084816080019060ff16908160ff1681525050838160a00181905250428160c0018181525050600d5442018160e00181815250506000816101000190151590811515815250506000816101600190151590811515815250506000816101200190151590811515815250506000816101400190151590811515815250506000816101a0018181525050600081610180018181525050601380548060010182816114de9190612ee6565b91600052602060002090600b0201600083909190915060008201518160000160006101000a81548173ffffffffffffffffffffffffffffffffffffffff021916908373ffffffffffffffffffffffffffffffffffffffff160217905550602082015181600101556040820151816002019060001916905560608201518160030160006101000a81548160ff021916908360ff16021790555060808201518160030160016101000a81548160ff021916908360ff16021790555060a08201518160040190805190602001906115b3929190612f18565b5060c0820151816006015560e082015181600701556101008201518160080160006101000a81548160ff0219169083151502179055506101208201518160080160016101000a81548160ff0219169083151502179055506101408201518160080160026101000a81548160ff0219169083151502179055506101608201518160080160036101000a81548160ff02191690831515021790555061018082015181600901556101a082015181600a015550505061166d612e49565b905060016013805490500392506001601060008282540192505081905550601660003373ffffffffffffffffffffffffffffffffffffffff1673ffffffffffffffffffffffffffffffffffffffff16815260200190815260200160002080548060010182816116dc9190612e1d565b916000526020600020900160008590919091505550601480548060010182816117059190612f98565b91600052602060002090602091828204019190066001909190916101000a81548160ff02191690831515021790555050601580548060010182816117499190612f98565b91600052602060002090602091828204019190066000909190916101000a81548160ff021916908315150217905550507fb31df5b39bb8b6149d4ed034d3ec80aa9b0b980ddf993635151a04592ea49b85338a8a8a8a8a604051808773ffffffffffffffffffffffffffffffffffffffff1673ffffffffffffffffffffffffffffffffffffffff1681526020018673ffffffffffffffffffffffffffffffffffffffff1673ffffffffffffffffffffffffffffffffffffffff16815260200185815260200184600019166000191681526020018360ff1660ff1681526020018260ff1660ff168152602001965050505050505060405180910390a150509695505050505050565b60065481565b600f5481565b600080600080600061186c612fd2565b60138781548110151561187b57fe5b90600052602060002090600b020160000160009054906101000a900473ffffffffffffffffffffffffffffffffffffffff166013888154811015156118bc57fe5b90600052602060002090600b0201600101546013898154811015156118dd57fe5b90600052602060002090600b02016002015460138a8154811015156118fe57fe5b90600052602060002090600b020160030160009054906101000a900460ff1660138b81548110151561192c57fe5b90600052602060002090600b020160030160019054906101000a900460ff1660138c81548110151561195a57fe5b90600052602060002090600b0201600401808054600181600116156101000203166002900480601f016020809104026020016040519081016040528092919081815260200182805460018160011615610100020316600290048015611a005780601f106119d557610100808354040283529160200191611a00565b820191906000526020600020905b8154815290600101906020018083116119e357829003601f168201915b5050505050905095509550955095509550955091939550919395565b611a24612e09565b601860008373ffffffffffffffffffffffffffffffffffffffff1673ffffffffffffffffffffffffffffffffffffffff168152602001908152602001600020805480602002602001604051908101604052809291908181526020018280548015611aad57602002820191906000526020600020905b815481526020019060010190808311611a99575b50505050509050919050565b601960205281600052604060002081815481101515611ad457fe5b9060005260206000209001600091509150505481565b611af2612fd2565b60078054600181600116156101000203166002900480601f016020809104026020016040519081016040528092919081815260200182805460018160011615610100020316600290048015611b885780601f10611b5d57610100808354040283529160200191611b88565b820191906000526020600020905b815481529060010190602001808311611b6b57829003601f168201915b5050505050905090565b60005481565b600a60009054906101000a900473ffffffffffffffffffffffffffffffffffffffff1681565b600080601383815481101515611bd057fe5b90600052602060002090600b020160080160019054906101000a900460ff161515611bfa57600080fd5b601383815481101515611c0957fe5b90600052602060002090600b020160080160009054906101000a900460ff16601384815481101515611c3757fe5b90600052602060002090600b020160080160029054906101000a900460ff1691509150915091565b601760205281600052604060002081815481101515611c7a57fe5b9060005260206000209001600091509150505481565b600b60009054906101000a900473ffffffffffffffffffffffffffffffffffffffff1681565b60105481565b60115481565b600460009054906101000a900460ff1681565b6000601382815481101515611ce657fe5b90600052602060002090600b020160050160003373ffffffffffffffffffffffffffffffffffffffff1673ffffffffffffffffffffffffffffffffffffffff16815260200190815260200160002060009054906101000a900460ff169050919050565b60078054600181600116156101000203166002900480601f016020809104026020016040519081016040528092919081815260200182805460018160011615610100020316600290048015611ddf5780601f10611db457610100808354040283529160200191611ddf565b820191906000526020600020905b815481529060010190602001808311611dc257829003601f168201915b505050505081565b6000806000601384815481101515611dfb57fe5b90600052602060002090600b020160080160019054906101000a900460ff161515611e2557600080fd5b601384815481101515611e3457fe5b90600052602060002090600b0201600a0154601385815481101515611e5557fe5b90600052602060002090600b0201600a0154601386815481101515611e7657fe5b90600052602060002090600b0201600901549250925092509193909250565b600d5481565b6000600960009054906101000a900473ffffffffffffffffffffffffffffffffffffffff1690508073ffffffffffffffffffffffffffffffffffffffff1663d323a4f8336000604051602001526040518263ffffffff167c0100000000000000000000000000000000000000000000000000000000028152600401808273ffffffffffffffffffffffffffffffffffffffff1673ffffffffffffffffffffffffffffffffffffffff168152602001915050602060405180830381600087803b1515611f6557600080fd5b6102c65a03f11515611f7657600080fd5b505050604051805190501515611f8b57600080fd5b60009050601383815481101515611f9e57fe5b90600052602060002090600b020160050160003373ffffffffffffffffffffffffffffffffffffffff1673ffffffffffffffffffffffffffffffffffffffff16815260200190815260200160002060009054906101000a900460ff1615151561200657600080fd5b60138381548110151561201557fe5b90600052602060002090600b020160080160019054906101000a900460ff1615151561204057600080fd5b4260138481548110151561205057fe5b90600052602060002090600b02016007015411151561206e57600080fd5b6001151582151514156120ab57600160138481548110151561208c57fe5b90600052602060002090600b0201600901600082825401925050819055505b60016013848154811015156120bc57fe5b90600052602060002090600b020160050160003373ffffffffffffffffffffffffffffffffffffffff1673ffffffffffffffffffffffffffffffffffffffff16815260200190815260200160002060006101000a81548160ff021916908315150217905550600160138481548110151561213257fe5b90600052602060002090600b0201600a0160008282540192505081905550601760003373ffffffffffffffffffffffffffffffffffffffff1673ffffffffffffffffffffffffffffffffffffffff16815260200190815260200160002080548060010182816121a19190612e1d565b9160005260206000209001600085909190915055507fd1faddd599b0d6b58c83de71d7ff5395895b5891894dcd37f2482f33b2a1c43d3384604051808373ffffffffffffffffffffffffffffffffffffffff1673ffffffffffffffffffffffffffffffffffffffff1681526020018281526020019250505060405180910390a1505050565b61222e612e09565b601660008373ffffffffffffffffffffffffffffffffffffffff1673ffffffffffffffffffffffffffffffffffffffff1681526020019081526020016000208054806020026020016040519081016040528092919081815260200182805480156122b757602002820191906000526020600020905b8154815260200190600101908083116122a3575b50505050509050919050565b6015818154811015156122d257fe5b9060005260206000209060209182820401919006915054906101000a900460ff1681565b600e5481565b600960009054906101000a900473ffffffffffffffffffffffffffffffffffffffff1681565b600080600060138481548110151561233657fe5b90600052602060002090600b02016006015460138581548110151561235757fe5b90600052602060002090600b020160070154600e5460138781548110151561237b57fe5b90600052602060002090600b020160070154019250925092509193909250565b6000806013848154811015156123ad57fe5b90600052602060002090600b020160080160039054906101000a900460ff161515156123d857600080fd5b6013848154811015156123e757fe5b90600052602060002090600b020160080160019054906101000a900460ff16151561241157600080fd5b600e5460138581548110151561242357fe5b90600052602060002090600b0201600701540142101561253457600b60009054906101000a900473ffffffffffffffffffffffffffffffffffffffff1691508173ffffffffffffffffffffffffffffffffffffffff1663d323a4f8336000604051602001526040518263ffffffff167c0100000000000000000000000000000000000000000000000000000000028152600401808273ffffffffffffffffffffffffffffffffffffffff1673ffffffffffffffffffffffffffffffffffffffff168152602001915050602060405180830381600087803b151561250557600080fd5b6102c65a03f1151561251657600080fd5b50505060405180519050151561252b57600080fd5b60009150612541565b82151561254057600080fd5b5b60138481548110151561255057fe5b90600052602060002090600b020160080160029054906101000a900460ff16151561257a57600080fd5b8215806126095750600060138581548110151561259357fe5b90600052602060002090600b020160000160009054906101000a900473ffffffffffffffffffffffffffffffffffffffff1673ffffffffffffffffffffffffffffffffffffffff16148015612608575060006013858154811015156125f457fe5b90600052602060002090600b020160010154145b5b1561264c57600160138581548110151561261f57fe5b90600052602060002090600b020160080160036101000a81548160ff021916908315150217905550612788565b600860009054906101000a900473ffffffffffffffffffffffffffffffffffffffff1690508073ffffffffffffffffffffffffffffffffffffffff1663117de2fd60138681548110151561269c57fe5b90600052602060002090600b020160000160009054906101000a900473ffffffffffffffffffffffffffffffffffffffff166013878154811015156126dd57fe5b90600052602060002090600b0201600101546040518363ffffffff167c0100000000000000000000000000000000000000000000000000000000028152600401808373ffffffffffffffffffffffffffffffffffffffff1673ffffffffffffffffffffffffffffffffffffffff16815260200182815260200192505050600060405180830381600087803b151561277357600080fd5b6102c65a03f1151561278457600080fd5b5050505b600160138581548110151561279957fe5b90600052602060002090600b020160080160036101000a81548160ff02191690831515021790555060006015858154811015156127d257fe5b90600052602060002090602091828204019190066101000a81548160ff021916908315150217905550601960003373ffffffffffffffffffffffffffffffffffffffff1673ffffffffffffffffffffffffffffffffffffffff168152602001908152602001600020805480600101828161284c9190612e1d565b9160005260206000209001600086909190915055507fed7c73834db4ae22add7f637175d8a32a1dddae4c154ccd25195b77df4c8d18d338585604051808473ffffffffffffffffffffffffffffffffffffffff1673ffffffffffffffffffffffffffffffffffffffff16815260200183815260200182151515158152602001935050505060405180910390a150505050565b6018602052816000526040600020818154811015156128f957fe5b9060005260206000209001600091509150505481565b60008060138381548110151561292157fe5b90600052602060002090600b020160080160019054906101000a900460ff1615151561294c57600080fd5b4260138481548110151561295c57fe5b90600052602060002090600b02016007015410151561297a57600080fd5b600960009054906101000a900473ffffffffffffffffffffffffffffffffffffffff1690506013838154811015156129ae57fe5b90600052602060002090600b020160080160009054906101000a900460ff1615612a14576000915060016013848154811015156129e757fe5b90600052602060002090600b020160080160036101000a81548160ff021916908315150217905550612b6e565b8073ffffffffffffffffffffffffffffffffffffffff1663234d34de6000604051602001526040518163ffffffff167c0100000000000000000000000000000000000000000000000000000000028152600401602060405180830381600087803b1515612a8057600080fd5b6102c65a03f11515612a9157600080fd5b50505060405180519050600f54026064601385815481101515612ab057fe5b90600052602060002090600b0201600a01540210158015612b215750601383815481101515612adb57fe5b90600052602060002090600b0201600a0154601154601254601386815481101515612b0257fe5b90600052602060002090600b02016009015402811515612b1e57fe5b04115b15612b2f5760019150612b6d565b600091506001601384815481101515612b4457fe5b90600052602060002090600b020160080160036101000a81548160ff0219169083151502179055505b5b6001601384815481101515612b7f57fe5b90600052602060002090600b020160080160016101000a81548160ff02191690831515021790555081601384815481101515612bb757fe5b90600052602060002090600b020160080160026101000a81548160ff0219169083151502179055506000601484815481101515612bf057fe5b90600052602060002090602091828204019190066101000a81548160ff0219169083151502179055506001601584815481101515612c2a57fe5b90600052602060002090602091828204019190066101000a81548160ff0219169083151502179055507f297f1f08d2ef8c90272f7ee3e1d4272015a96cdff8a252b60547b9e432e723603384604051808373ffffffffffffffffffffffffffffffffffffffff1673ffffffffffffffffffffffffffffffffffffffff1681526020018281526020019250505060405180910390a150919050565b601481815481101515612cd357fe5b9060005260206000209060209182820401919006915054906101000a900460ff1681565b612cff612fe6565b600c805480602002602001604051908101604052809291908181526020018280548015612d8157602002820191906000526020600020905b8160009054906101000a900473ffffffffffffffffffffffffffffffffffffffff1673ffffffffffffffffffffffffffffffffffffffff1681526020019060010190808311612d37575b5050505050905090565b600460019054906101000a900460ff1681565b60125481565b600c81815481101515612db357fe5b90600052602060002090016000915054906101000a900473ffffffffffffffffffffffffffffffffffffffff1681565b600860009054906101000a900473ffffffffffffffffffffffffffffffffffffffff1681565b602060405190810160405280600081525090565b815481835581811511612e4457818360005260206000209182019101612e439190612ffa565b5b505050565b6101c060405190810160405280600073ffffffffffffffffffffffffffffffffffffffff1681526020016000815260200160008019168152602001600060ff168152602001600060ff168152602001612ea061301f565b8152602001600081526020016000815260200160001515815260200160001515815260200160001515815260200160001515815260200160008152602001600081525090565b815481835581811511612f1357600b0281600b028360005260206000209182019101612f129190613033565b5b505050565b828054600181600116156101000203166002900490600052602060002090601f016020900481019282601f10612f5957805160ff1916838001178555612f87565b82800160010185558215612f87579182015b82811115612f86578251825591602001919060010190612f6b565b5b509050612f949190612ffa565b5090565b815481835581811511612fcd57601f016020900481601f01602090048360005260206000209182019101612fcc9190612ffa565b5b505050565b602060405190810160405280600081525090565b602060405190810160405280600081525090565b61301c91905b80821115613018576000816000905550600101613000565b5090565b90565b602060405190810160405280600081525090565b61312e91905b8082111561312a57600080820160006101000a81549073ffffffffffffffffffffffffffffffffffffffff0219169055600182016000905560028201600090556003820160006101000a81549060ff02191690556003820160016101000a81549060ff02191690556004820160006130b19190613131565b600682016000905560078201600090556008820160006101000a81549060ff02191690556008820160016101000a81549060ff02191690556008820160026101000a81549060ff02191690556008820160036101000a81549060ff02191690556009820160009055600a82016000905550600b01613039565b5090565b90565b50805460018160011615610100020316600290046000825580601f106131575750613176565b601f0160209004906000526020600020908101906131759190612ffa565b5b505600a165627a7a72305820fdb4a5ab766e2d1ce9baef90c181dc0b46cb8a56251fa44738969fad22036b3c0029",
  "source": "pragma solidity ^0.4.11;\n\n// Standard contract for a presidential election procedure\n\nimport \"../standardProcedure.sol\";\nimport \"../standardOrgan.sol\";\nimport \"../procedures/voteOnExpenseProcedure.sol\";\n\n\n\n\ncontract deployVoteOnExpenseProcedure is voteOnExpenseProcedure {\n\nfunction deployVoteOnExpenseProcedure (address _affectedOrganContract, address _votersOrganContract, address _membersWithVetoOrganContract, address _finalPromulgatorsOrganContract, uint _quorumSize, uint _votingPeriodDuration, uint _promulgationPeriodDuration, string _name) public {\n\n    affectedOrganContract = _affectedOrganContract;\n    votersOrganContract = _votersOrganContract;\n    membersWithVetoOrganContract = _membersWithVetoOrganContract;\n    finalPromulgatorsOrganContract = _finalPromulgatorsOrganContract; \n    linkedOrgans = [affectedOrganContract,votersOrganContract,membersWithVetoOrganContract,finalPromulgatorsOrganContract];\n\n    // Procedure name \n    procedureName = _name;\n    \n    quorumSize = _quorumSize;\n    // votingPeriodDuration = 3 minutes;\n    // promulgationPeriodDuration = 3 minutes;\n\n    votingPeriodDuration = _votingPeriodDuration;\n    promulgationPeriodDuration = _promulgationPeriodDuration;\n\n    kelsenVersionNumber = 1;\n\n    }\n}\n",
  "sourcePath": "/Users/henrilieutaud/Documents/Mes documents/97/Workshop/Kelsen/solidity/contracts/deploy/deployVoteOnExpenseProcedure.sol",
  "compiler": {
    "name": "solc",
    "version": "0.4.19+commit.c4cbbb05.Emscripten.clang"
  },
  "schemaVersion": "2.0.0",
  "updatedAt": "2018-05-15T09:52:44.264Z"
}