{
  "contractName": "deploySimpleAdminsAndMasterNominationProcedure",
  "abi": [
    {
      "constant": false,
      "inputs": [
        {
          "name": "_organToReform",
          "type": "address"
        },
        {
          "name": "_oldMaster",
          "type": "address"
        },
        {
          "name": "_newMaster",
          "type": "address"
        },
        {
          "name": "_canAdd",
          "type": "bool"
        },
        {
          "name": "_canDelete",
          "type": "bool"
        },
        {
          "name": "_name",
          "type": "string"
        }
      ],
      "name": "replaceMaster",
      "outputs": [
        {
          "name": "_success",
          "type": "bool"
        }
      ],
      "payable": false,
      "stateMutability": "nonpayable",
      "type": "function"
    },
    {
      "constant": false,
      "inputs": [
        {
          "name": "_organToReform",
          "type": "address"
        },
        {
          "name": "_oldAdmin",
          "type": "address"
        }
      ],
      "name": "remAdmin",
      "outputs": [
        {
          "name": "_success",
          "type": "bool"
        }
      ],
      "payable": false,
      "stateMutability": "nonpayable",
      "type": "function"
    },
    {
      "constant": true,
      "inputs": [],
      "name": "procedureTypeNumber",
      "outputs": [
        {
          "name": "",
          "type": "int256"
        }
      ],
      "payable": false,
      "stateMutability": "view",
      "type": "function"
    },
    {
      "constant": true,
      "inputs": [],
      "name": "kelsenVersionNumber",
      "outputs": [
        {
          "name": "",
          "type": "int256"
        }
      ],
      "payable": false,
      "stateMutability": "view",
      "type": "function"
    },
    {
      "constant": true,
      "inputs": [],
      "name": "authorizedReformersOrgan",
      "outputs": [
        {
          "name": "",
          "type": "address"
        }
      ],
      "payable": false,
      "stateMutability": "view",
      "type": "function"
    },
    {
      "constant": false,
      "inputs": [
        {
          "name": "_organToReform",
          "type": "address"
        },
        {
          "name": "_oldAdmin",
          "type": "address"
        },
        {
          "name": "_newAdmin",
          "type": "address"
        },
        {
          "name": "_canAdd",
          "type": "bool"
        },
        {
          "name": "_canDelete",
          "type": "bool"
        },
        {
          "name": "_canDeposit",
          "type": "bool"
        },
        {
          "name": "_canSpend",
          "type": "bool"
        },
        {
          "name": "_name",
          "type": "string"
        }
      ],
      "name": "replaceAdmin",
      "outputs": [
        {
          "name": "_success",
          "type": "bool"
        }
      ],
      "payable": false,
      "stateMutability": "nonpayable",
      "type": "function"
    },
    {
      "constant": false,
      "inputs": [
        {
          "name": "_organToReform",
          "type": "address"
        },
        {
          "name": "_newAdmin",
          "type": "address"
        },
        {
          "name": "_canAdd",
          "type": "bool"
        },
        {
          "name": "_canDelete",
          "type": "bool"
        },
        {
          "name": "_canDeposit",
          "type": "bool"
        },
        {
          "name": "_canSpend",
          "type": "bool"
        },
        {
          "name": "_name",
          "type": "string"
        }
      ],
      "name": "addAdmin",
      "outputs": [
        {
          "name": "_success",
          "type": "bool"
        }
      ],
      "payable": false,
      "stateMutability": "nonpayable",
      "type": "function"
    },
    {
      "constant": true,
      "inputs": [],
      "name": "isAnOrgan",
      "outputs": [
        {
          "name": "",
          "type": "bool"
        }
      ],
      "payable": false,
      "stateMutability": "view",
      "type": "function"
    },
    {
      "constant": true,
      "inputs": [],
      "name": "getLinkedOrgans",
      "outputs": [
        {
          "name": "_linkedOrgans",
          "type": "address[]"
        }
      ],
      "payable": false,
      "stateMutability": "view",
      "type": "function"
    },
    {
      "constant": true,
      "inputs": [],
      "name": "isAProcedure",
      "outputs": [
        {
          "name": "",
          "type": "bool"
        }
      ],
      "payable": false,
      "stateMutability": "view",
      "type": "function"
    },
    {
      "constant": true,
      "inputs": [
        {
          "name": "",
          "type": "uint256"
        }
      ],
      "name": "linkedOrgans",
      "outputs": [
        {
          "name": "",
          "type": "address"
        }
      ],
      "payable": false,
      "stateMutability": "view",
      "type": "function"
    },
    {
      "constant": false,
      "inputs": [
        {
          "name": "_organToReform",
          "type": "address"
        },
        {
          "name": "_oldMaster",
          "type": "address"
        }
      ],
      "name": "remMaster",
      "outputs": [
        {
          "name": "_success",
          "type": "bool"
        }
      ],
      "payable": false,
      "stateMutability": "nonpayable",
      "type": "function"
    },
    {
      "constant": false,
      "inputs": [
        {
          "name": "_organToReform",
          "type": "address"
        },
        {
          "name": "_newMaster",
          "type": "address"
        },
        {
          "name": "_canAdd",
          "type": "bool"
        },
        {
          "name": "_canDelete",
          "type": "bool"
        },
        {
          "name": "_name",
          "type": "string"
        }
      ],
      "name": "addMaster",
      "outputs": [
        {
          "name": "_success",
          "type": "bool"
        }
      ],
      "payable": false,
      "stateMutability": "nonpayable",
      "type": "function"
    },
    {
      "inputs": [
        {
          "name": "_authorizedReformersOrgan",
          "type": "address"
        }
      ],
      "payable": false,
      "stateMutability": "nonpayable",
      "type": "constructor"
    }
  ],
  "bytecode": "0x60606040526000600460006101000a81548160ff0219169083151502179055506001600460016101000a81548160ff021916908315150217905550600460055534156200004b57600080fd5b60405160208062001cf18339810160405280805190602001909190505080600660006101000a81548173ffffffffffffffffffffffffffffffffffffffff021916908373ffffffffffffffffffffffffffffffffffffffff160217905550602060405190810160405280600660009054906101000a900473ffffffffffffffffffffffffffffffffffffffff1673ffffffffffffffffffffffffffffffffffffffff1673ffffffffffffffffffffffffffffffffffffffff1681525060079060016200011992919062000129565b50600160008190555050620001fe565b828054828255906000526020600020908101928215620001a5579160200282015b82811115620001a45782518260006101000a81548173ffffffffffffffffffffffffffffffffffffffff021916908373ffffffffffffffffffffffffffffffffffffffff160217905550916020019190600101906200014a565b5b509050620001b49190620001b8565b5090565b620001fb91905b80821115620001f757600081816101000a81549073ffffffffffffffffffffffffffffffffffffffff021916905550600101620001bf565b5090565b90565b611ae3806200020e6000396000f3006060604052600436106100c5576000357c0100000000000000000000000000000000000000000000000000000000900463ffffffff1680630ce80744146100ca5780631d595bf4146101b25780632647d7f9146102225780635dbe4d281461024b5780636d6480ef146102745780636f784009146102c957806376eafbc0146103c7578063a8bef97a146104a6578063e5700501146104d3578063e80b30a51461053d578063f2edc6161461056a578063f69c8751146105cd578063fd4538e11461063d575b600080fd5b34156100d557600080fd5b610198600480803573ffffffffffffffffffffffffffffffffffffffff1690602001909190803573ffffffffffffffffffffffffffffffffffffffff1690602001909190803573ffffffffffffffffffffffffffffffffffffffff169060200190919080351515906020019091908035151590602001909190803590602001908201803590602001908080601f01602080910402602001604051908101604052809392919081815260200183838082843782019150505050505091905050610706565b604051808215151515815260200191505060405180910390f35b34156101bd57600080fd5b610208600480803573ffffffffffffffffffffffffffffffffffffffff1690602001909190803573ffffffffffffffffffffffffffffffffffffffff16906020019091905050610a67565b604051808215151515815260200191505060405180910390f35b341561022d57600080fd5b610235610d02565b6040518082815260200191505060405180910390f35b341561025657600080fd5b61025e610d08565b6040518082815260200191505060405180910390f35b341561027f57600080fd5b610287610d0e565b604051808273ffffffffffffffffffffffffffffffffffffffff1673ffffffffffffffffffffffffffffffffffffffff16815260200191505060405180910390f35b34156102d457600080fd5b6103ad600480803573ffffffffffffffffffffffffffffffffffffffff1690602001909190803573ffffffffffffffffffffffffffffffffffffffff1690602001909190803573ffffffffffffffffffffffffffffffffffffffff16906020019091908035151590602001909190803515159060200190919080351515906020019091908035151590602001909190803590602001908201803590602001908080601f01602080910402602001604051908101604052809392919081815260200183838082843782019150505050505091905050610d34565b604051808215151515815260200191505060405180910390f35b34156103d257600080fd5b61048c600480803573ffffffffffffffffffffffffffffffffffffffff1690602001909190803573ffffffffffffffffffffffffffffffffffffffff16906020019091908035151590602001909190803515159060200190919080351515906020019091908035151590602001909190803590602001908201803590602001908080601f016020809104026020016040519081016040528093929190818152602001838380828437820191505050505050919050506110af565b604051808215151515815260200191505060405180910390f35b34156104b157600080fd5b6104b96113ec565b604051808215151515815260200191505060405180910390f35b34156104de57600080fd5b6104e66113ff565b6040518080602001828103825283818151815260200191508051906020019060200280838360005b8381101561052957808201518184015260208101905061050e565b505050509050019250505060405180910390f35b341561054857600080fd5b610550611493565b604051808215151515815260200191505060405180910390f35b341561057557600080fd5b61058b60048080359060200190919050506114a6565b604051808273ffffffffffffffffffffffffffffffffffffffff1673ffffffffffffffffffffffffffffffffffffffff16815260200191505060405180910390f35b34156105d857600080fd5b610623600480803573ffffffffffffffffffffffffffffffffffffffff1690602001909190803573ffffffffffffffffffffffffffffffffffffffff169060200190919050506114e5565b604051808215151515815260200191505060405180910390f35b341561064857600080fd5b6106ec600480803573ffffffffffffffffffffffffffffffffffffffff1690602001909190803573ffffffffffffffffffffffffffffffffffffffff169060200190919080351515906020019091908035151590602001909190803590602001908201803590602001908080601f01602080910402602001604051908101604052809392919081815260200183838082843782019150505050505091905050611780565b604051808215151515815260200191505060405180910390f35b6000806000806000600660009054906101000a900473ffffffffffffffffffffffffffffffffffffffff1693508373ffffffffffffffffffffffffffffffffffffffff1663d323a4f8336000604051602001526040518263ffffffff167c0100000000000000000000000000000000000000000000000000000000028152600401808273ffffffffffffffffffffffffffffffffffffffff1673ffffffffffffffffffffffffffffffffffffffff168152602001915050602060405180830381600087803b15156107d657600080fd5b6102c65a03f115156107e757600080fd5b5050506040518051905015156107fc57600080fd5b600093508a92508273ffffffffffffffffffffffffffffffffffffffff1663f720f80b306000604051604001526040518263ffffffff167c0100000000000000000000000000000000000000000000000000000000028152600401808273ffffffffffffffffffffffffffffffffffffffff1673ffffffffffffffffffffffffffffffffffffffff1681526020019150506040805180830381600087803b15156108a557600080fd5b6102c65a03f115156108b657600080fd5b5050506040518051906020018051905080925081935050508180156108d85750805b15610a4d578273ffffffffffffffffffffffffffffffffffffffff16630e6adcdf8b8b8b8b8b6040518663ffffffff167c0100000000000000000000000000000000000000000000000000000000028152600401808673ffffffffffffffffffffffffffffffffffffffff1673ffffffffffffffffffffffffffffffffffffffff1681526020018573ffffffffffffffffffffffffffffffffffffffff1673ffffffffffffffffffffffffffffffffffffffff168152602001841515151581526020018315151515815260200180602001828103825283818151815260200191508051906020019080838360005b838110156109e15780820151818401526020810190506109c6565b50505050905090810190601f168015610a0e5780820380516001836020036101000a031916815260200191505b509650505050505050600060405180830381600087803b1515610a3057600080fd5b6102c65a03f11515610a4157600080fd5b50505060019450610a52565b600094505b60009250849450505050509695505050505050565b6000806000806000600660009054906101000a900473ffffffffffffffffffffffffffffffffffffffff1693508373ffffffffffffffffffffffffffffffffffffffff1663d323a4f8336000604051602001526040518263ffffffff167c0100000000000000000000000000000000000000000000000000000000028152600401808273ffffffffffffffffffffffffffffffffffffffff1673ffffffffffffffffffffffffffffffffffffffff168152602001915050602060405180830381600087803b1515610b3757600080fd5b6102c65a03f11515610b4857600080fd5b505050604051805190501515610b5d57600080fd5b600093508692508273ffffffffffffffffffffffffffffffffffffffff1663f720f80b306000604051604001526040518263ffffffff167c0100000000000000000000000000000000000000000000000000000000028152600401808273ffffffffffffffffffffffffffffffffffffffff1673ffffffffffffffffffffffffffffffffffffffff1681526020019150506040805180830381600087803b1515610c0657600080fd5b6102c65a03f11515610c1757600080fd5b5050506040518051906020018051905080925081935050508015610cec578273ffffffffffffffffffffffffffffffffffffffff166311c60418876040518263ffffffff167c0100000000000000000000000000000000000000000000000000000000028152600401808273ffffffffffffffffffffffffffffffffffffffff1673ffffffffffffffffffffffffffffffffffffffff168152602001915050600060405180830381600087803b1515610ccf57600080fd5b6102c65a03f11515610ce057600080fd5b50505060019450610cf1565b600094505b600092508494505050505092915050565b60055481565b60005481565b600660009054906101000a900473ffffffffffffffffffffffffffffffffffffffff1681565b6000806000806000600660009054906101000a900473ffffffffffffffffffffffffffffffffffffffff1693508373ffffffffffffffffffffffffffffffffffffffff1663d323a4f8336000604051602001526040518263ffffffff167c0100000000000000000000000000000000000000000000000000000000028152600401808273ffffffffffffffffffffffffffffffffffffffff1673ffffffffffffffffffffffffffffffffffffffff168152602001915050602060405180830381600087803b1515610e0457600080fd5b6102c65a03f11515610e1557600080fd5b505050604051805190501515610e2a57600080fd5b600093508c92508273ffffffffffffffffffffffffffffffffffffffff1663f720f80b306000604051604001526040518263ffffffff167c0100000000000000000000000000000000000000000000000000000000028152600401808273ffffffffffffffffffffffffffffffffffffffff1673ffffffffffffffffffffffffffffffffffffffff1681526020019150506040805180830381600087803b1515610ed357600080fd5b6102c65a03f11515610ee457600080fd5b505050604051805190602001805190508092508193505050818015610f065750805b15611093578273ffffffffffffffffffffffffffffffffffffffff16638186c3508d8d8d8d8d8d8d6040518863ffffffff167c0100000000000000000000000000000000000000000000000000000000028152600401808873ffffffffffffffffffffffffffffffffffffffff1673ffffffffffffffffffffffffffffffffffffffff1681526020018773ffffffffffffffffffffffffffffffffffffffff1673ffffffffffffffffffffffffffffffffffffffff1681526020018615151515815260200185151515158152602001841515151581526020018315151515815260200180602001828103825283818151815260200191508051906020019080838360005b8381101561102557808201518184015260208101905061100a565b50505050905090810190601f1680156110525780820380516001836020036101000a031916815260200191505b5098505050505050505050600060405180830381600087803b151561107657600080fd5b6102c65a03f1151561108757600080fd5b50505060019450611098565b600094505b600092508494505050505098975050505050505050565b6000806000806000600660009054906101000a900473ffffffffffffffffffffffffffffffffffffffff1693508373ffffffffffffffffffffffffffffffffffffffff1663d323a4f8336000604051602001526040518263ffffffff167c0100000000000000000000000000000000000000000000000000000000028152600401808273ffffffffffffffffffffffffffffffffffffffff1673ffffffffffffffffffffffffffffffffffffffff168152602001915050602060405180830381600087803b151561117f57600080fd5b6102c65a03f1151561119057600080fd5b5050506040518051905015156111a557600080fd5b600093508b92508273ffffffffffffffffffffffffffffffffffffffff1663f720f80b306000604051604001526040518263ffffffff167c0100000000000000000000000000000000000000000000000000000000028152600401808273ffffffffffffffffffffffffffffffffffffffff1673ffffffffffffffffffffffffffffffffffffffff1681526020019150506040805180830381600087803b151561124e57600080fd5b6102c65a03f1151561125f57600080fd5b50505060405180519060200180519050809250819350505081156113d1578273ffffffffffffffffffffffffffffffffffffffff166378ebd0058c8c8c8c8c8c6040518763ffffffff167c0100000000000000000000000000000000000000000000000000000000028152600401808773ffffffffffffffffffffffffffffffffffffffff1673ffffffffffffffffffffffffffffffffffffffff1681526020018615151515815260200185151515158152602001841515151581526020018315151515815260200180602001828103825283818151815260200191508051906020019080838360005b83811015611364578082015181840152602081019050611349565b50505050905090810190601f1680156113915780820380516001836020036101000a031916815260200191505b50975050505050505050600060405180830381600087803b15156113b457600080fd5b6102c65a03f115156113c557600080fd5b505050600194506113d6565b600094505b6000925084945050505050979650505050505050565b600460009054906101000a900460ff1681565b611407611aa3565b600780548060200260200160405190810160405280929190818152602001828054801561148957602002820191906000526020600020905b8160009054906101000a900473ffffffffffffffffffffffffffffffffffffffff1673ffffffffffffffffffffffffffffffffffffffff168152602001906001019080831161143f575b5050505050905090565b600460019054906101000a900460ff1681565b6007818154811015156114b557fe5b90600052602060002090016000915054906101000a900473ffffffffffffffffffffffffffffffffffffffff1681565b6000806000806000600660009054906101000a900473ffffffffffffffffffffffffffffffffffffffff1693508373ffffffffffffffffffffffffffffffffffffffff1663d323a4f8336000604051602001526040518263ffffffff167c0100000000000000000000000000000000000000000000000000000000028152600401808273ffffffffffffffffffffffffffffffffffffffff1673ffffffffffffffffffffffffffffffffffffffff168152602001915050602060405180830381600087803b15156115b557600080fd5b6102c65a03f115156115c657600080fd5b5050506040518051905015156115db57600080fd5b600093508692508273ffffffffffffffffffffffffffffffffffffffff1663f720f80b306000604051604001526040518263ffffffff167c0100000000000000000000000000000000000000000000000000000000028152600401808273ffffffffffffffffffffffffffffffffffffffff1673ffffffffffffffffffffffffffffffffffffffff1681526020019150506040805180830381600087803b151561168457600080fd5b6102c65a03f1151561169557600080fd5b505050604051805190602001805190508092508193505050801561176a578273ffffffffffffffffffffffffffffffffffffffff166331a79198876040518263ffffffff167c0100000000000000000000000000000000000000000000000000000000028152600401808273ffffffffffffffffffffffffffffffffffffffff1673ffffffffffffffffffffffffffffffffffffffff168152602001915050600060405180830381600087803b151561174d57600080fd5b6102c65a03f1151561175e57600080fd5b5050506001945061176f565b600094505b600092508494505050505092915050565b6000806000806000600660009054906101000a900473ffffffffffffffffffffffffffffffffffffffff1693508373ffffffffffffffffffffffffffffffffffffffff1663d323a4f8336000604051602001526040518263ffffffff167c0100000000000000000000000000000000000000000000000000000000028152600401808273ffffffffffffffffffffffffffffffffffffffff1673ffffffffffffffffffffffffffffffffffffffff168152602001915050602060405180830381600087803b151561185057600080fd5b6102c65a03f1151561186157600080fd5b50505060405180519050151561187657600080fd5b600093508992508273ffffffffffffffffffffffffffffffffffffffff1663f720f80b306000604051604001526040518263ffffffff167c0100000000000000000000000000000000000000000000000000000000028152600401808273ffffffffffffffffffffffffffffffffffffffff1673ffffffffffffffffffffffffffffffffffffffff1681526020019150506040805180830381600087803b151561191f57600080fd5b6102c65a03f1151561193057600080fd5b5050506040518051906020018051905080925081935050508115611a8a578273ffffffffffffffffffffffffffffffffffffffff1663ca1885f78a8a8a8a6040518563ffffffff167c0100000000000000000000000000000000000000000000000000000000028152600401808573ffffffffffffffffffffffffffffffffffffffff1673ffffffffffffffffffffffffffffffffffffffff168152602001841515151581526020018315151515815260200180602001828103825283818151815260200191508051906020019080838360005b83811015611a1f578082015181840152602081019050611a04565b50505050905090810190601f168015611a4c5780820380516001836020036101000a031916815260200191505b5095505050505050600060405180830381600087803b1515611a6d57600080fd5b6102c65a03f11515611a7e57600080fd5b50505060019450611a8f565b600094505b600092508494505050505095945050505050565b6020604051908101604052806000815250905600a165627a7a72305820eeba3e2d60041c44f631470deee844147fbfc97adbaad3fc53797661e36d42a50029",
  "source": "pragma solidity ^0.4.11;\n\n// Standard contract for a constitutionnal reform\n\nimport \"../procedures/simpleAdminsAndMasterNominationProcedure.sol\";\n\n\n\n\ncontract deploySimpleAdminsAndMasterNominationProcedure is simpleAdminsAndMasterNominationProcedure {\n\n    function deploySimpleAdminsAndMasterNominationProcedure (address _authorizedReformersOrgan) public {\n\n    authorizedReformersOrgan = _authorizedReformersOrgan;\n    linkedOrgans = [authorizedReformersOrgan];\n\n    kelsenVersionNumber = 1;\n    \n    }\n}\n",
  "sourcePath": "/Users/henrilieutaud/Documents/Mes documents/97/Workshop/Kelsen/solidity/contracts/deploy/deploySimpleAdminsAndMasterNominationProcedure.sol",
  "compiler": {
    "name": "solc",
    "version": "0.4.19+commit.c4cbbb05.Emscripten.clang"
  },
  "schemaVersion": "2.0.0",
  "updatedAt": "2018-05-14T16:41:34.563Z"
}