{
  "contractName": "deployVoteOnAdminsAndMastersProcedure",
  "abi": [
    {
      "constant": true,
      "inputs": [
        {
          "name": "_propositionNumber",
          "type": "uint256"
        }
      ],
      "name": "getPropositionStatus",
      "outputs": [
        {
          "name": "_wasCounted",
          "type": "bool"
        },
        {
          "name": "_wasEnded",
          "type": "bool"
        }
      ],
      "payable": false,
      "stateMutability": "view",
      "type": "function"
    },
    {
      "constant": true,
      "inputs": [
        {
          "name": "_userAddress",
          "type": "address"
        }
      ],
      "name": "getPropositionsUsedByUser",
      "outputs": [
        {
          "name": "",
          "type": "uint256[]"
        }
      ],
      "payable": false,
      "stateMutability": "view",
      "type": "function"
    },
    {
      "constant": true,
      "inputs": [
        {
          "name": "_userAddress",
          "type": "address"
        }
      ],
      "name": "getPropositionsPromulgatedByUser",
      "outputs": [
        {
          "name": "",
          "type": "uint256[]"
        }
      ],
      "payable": false,
      "stateMutability": "view",
      "type": "function"
    },
    {
      "constant": true,
      "inputs": [
        {
          "name": "",
          "type": "address"
        },
        {
          "name": "",
          "type": "uint256"
        }
      ],
      "name": "propositionToUser",
      "outputs": [
        {
          "name": "",
          "type": "uint256"
        }
      ],
      "payable": false,
      "stateMutability": "view",
      "type": "function"
    },
    {
      "constant": false,
      "inputs": [
        {
          "name": "_targetOrgan",
          "type": "address"
        },
        {
          "name": "_contractToAdd",
          "type": "address"
        },
        {
          "name": "_contractToRemove",
          "type": "address"
        },
        {
          "name": "_ipfsHash",
          "type": "bytes32"
        },
        {
          "name": "_hash_function",
          "type": "uint8"
        },
        {
          "name": "_size",
          "type": "uint8"
        },
        {
          "name": "_name",
          "type": "string"
        },
        {
          "name": "_canAdd",
          "type": "bool"
        },
        {
          "name": "_canDelete",
          "type": "bool"
        },
        {
          "name": "_canDeposit",
          "type": "bool"
        },
        {
          "name": "_canSpend",
          "type": "bool"
        },
        {
          "name": "_propositionType",
          "type": "uint256"
        }
      ],
      "name": "createProposition",
      "outputs": [
        {
          "name": "propositionNumber",
          "type": "uint256"
        }
      ],
      "payable": false,
      "stateMutability": "nonpayable",
      "type": "function"
    },
    {
      "constant": false,
      "inputs": [
        {
          "name": "_propositionNumber",
          "type": "uint256"
        }
      ],
      "name": "veto",
      "outputs": [],
      "payable": false,
      "stateMutability": "nonpayable",
      "type": "function"
    },
    {
      "constant": true,
      "inputs": [],
      "name": "procedureTypeNumber",
      "outputs": [
        {
          "name": "",
          "type": "int256"
        }
      ],
      "payable": false,
      "stateMutability": "view",
      "type": "function"
    },
    {
      "constant": true,
      "inputs": [],
      "name": "quorumSize",
      "outputs": [
        {
          "name": "",
          "type": "uint256"
        }
      ],
      "payable": false,
      "stateMutability": "view",
      "type": "function"
    },
    {
      "constant": true,
      "inputs": [
        {
          "name": "_propositionNumber",
          "type": "uint256"
        }
      ],
      "name": "getPropositionDetails",
      "outputs": [
        {
          "name": "_addressToAdd",
          "type": "address"
        },
        {
          "name": "_addressToRemove",
          "type": "address"
        },
        {
          "name": "_canAdd",
          "type": "bool"
        },
        {
          "name": "_canDelete",
          "type": "bool"
        },
        {
          "name": "_canDeposit",
          "type": "bool"
        },
        {
          "name": "_canSpend",
          "type": "bool"
        },
        {
          "name": "_name",
          "type": "string"
        }
      ],
      "payable": false,
      "stateMutability": "view",
      "type": "function"
    },
    {
      "constant": true,
      "inputs": [
        {
          "name": "_userAddress",
          "type": "address"
        }
      ],
      "name": "getPropositionsVetoedByUser",
      "outputs": [
        {
          "name": "",
          "type": "uint256[]"
        }
      ],
      "payable": false,
      "stateMutability": "view",
      "type": "function"
    },
    {
      "constant": true,
      "inputs": [
        {
          "name": "_propositionNumber",
          "type": "uint256"
        }
      ],
      "name": "getPropositionDocumentation",
      "outputs": [
        {
          "name": "_addressToAdd",
          "type": "address"
        },
        {
          "name": "_addressToRemove",
          "type": "address"
        },
        {
          "name": "_ipfsHash",
          "type": "bytes32"
        },
        {
          "name": "_hash_function",
          "type": "uint8"
        },
        {
          "name": "_size",
          "type": "uint8"
        },
        {
          "name": "_propositionType",
          "type": "uint256"
        }
      ],
      "payable": false,
      "stateMutability": "view",
      "type": "function"
    },
    {
      "constant": true,
      "inputs": [
        {
          "name": "",
          "type": "address"
        },
        {
          "name": "",
          "type": "uint256"
        }
      ],
      "name": "propositionToPromulgator",
      "outputs": [
        {
          "name": "",
          "type": "uint256"
        }
      ],
      "payable": false,
      "stateMutability": "view",
      "type": "function"
    },
    {
      "constant": true,
      "inputs": [],
      "name": "kelsenVersionNumber",
      "outputs": [
        {
          "name": "",
          "type": "int256"
        }
      ],
      "payable": false,
      "stateMutability": "view",
      "type": "function"
    },
    {
      "constant": false,
      "inputs": [
        {
          "name": "_propositionNumber",
          "type": "uint256"
        }
      ],
      "name": "archiveDefunctProposition",
      "outputs": [],
      "payable": false,
      "stateMutability": "nonpayable",
      "type": "function"
    },
    {
      "constant": true,
      "inputs": [],
      "name": "membersWithVetoOrganContract",
      "outputs": [
        {
          "name": "",
          "type": "address"
        }
      ],
      "payable": false,
      "stateMutability": "view",
      "type": "function"
    },
    {
      "constant": true,
      "inputs": [
        {
          "name": "_propositionNumber",
          "type": "uint256"
        }
      ],
      "name": "getVotedPropositionResults",
      "outputs": [
        {
          "name": "_startDate",
          "type": "uint256"
        },
        {
          "name": "_totalVoteCount",
          "type": "uint256"
        },
        {
          "name": "_voteFor",
          "type": "uint256"
        },
        {
          "name": "_wasVetoed",
          "type": "bool"
        },
        {
          "name": "_wasAccepted",
          "type": "bool"
        }
      ],
      "payable": false,
      "stateMutability": "view",
      "type": "function"
    },
    {
      "constant": true,
      "inputs": [
        {
          "name": "",
          "type": "address"
        },
        {
          "name": "",
          "type": "uint256"
        }
      ],
      "name": "propositionToVoter",
      "outputs": [
        {
          "name": "",
          "type": "uint256"
        }
      ],
      "payable": false,
      "stateMutability": "view",
      "type": "function"
    },
    {
      "constant": true,
      "inputs": [],
      "name": "finalPromulgatorsOrganContract",
      "outputs": [
        {
          "name": "",
          "type": "address"
        }
      ],
      "payable": false,
      "stateMutability": "view",
      "type": "function"
    },
    {
      "constant": true,
      "inputs": [],
      "name": "totalPropositionNumber",
      "outputs": [
        {
          "name": "",
          "type": "uint256"
        }
      ],
      "payable": false,
      "stateMutability": "view",
      "type": "function"
    },
    {
      "constant": true,
      "inputs": [],
      "name": "majoritySize",
      "outputs": [
        {
          "name": "",
          "type": "uint256"
        }
      ],
      "payable": false,
      "stateMutability": "view",
      "type": "function"
    },
    {
      "constant": true,
      "inputs": [],
      "name": "isAnOrgan",
      "outputs": [
        {
          "name": "",
          "type": "bool"
        }
      ],
      "payable": false,
      "stateMutability": "view",
      "type": "function"
    },
    {
      "constant": true,
      "inputs": [
        {
          "name": "propositionNumber",
          "type": "uint256"
        }
      ],
      "name": "haveIVoted",
      "outputs": [
        {
          "name": "IHaveVoted",
          "type": "bool"
        }
      ],
      "payable": false,
      "stateMutability": "view",
      "type": "function"
    },
    {
      "constant": true,
      "inputs": [],
      "name": "votingPeriodDuration",
      "outputs": [
        {
          "name": "",
          "type": "uint256"
        }
      ],
      "payable": false,
      "stateMutability": "view",
      "type": "function"
    },
    {
      "constant": false,
      "inputs": [
        {
          "name": "_propositionNumber",
          "type": "uint256"
        },
        {
          "name": "_acceptProposition",
          "type": "bool"
        }
      ],
      "name": "vote",
      "outputs": [],
      "payable": false,
      "stateMutability": "nonpayable",
      "type": "function"
    },
    {
      "constant": true,
      "inputs": [
        {
          "name": "_userAddress",
          "type": "address"
        }
      ],
      "name": "getPropositionsCreatedByUser",
      "outputs": [
        {
          "name": "",
          "type": "uint256[]"
        }
      ],
      "payable": false,
      "stateMutability": "view",
      "type": "function"
    },
    {
      "constant": true,
      "inputs": [
        {
          "name": "",
          "type": "uint256"
        }
      ],
      "name": "propositionsWaitingPromulgation",
      "outputs": [
        {
          "name": "",
          "type": "bool"
        }
      ],
      "payable": false,
      "stateMutability": "view",
      "type": "function"
    },
    {
      "constant": true,
      "inputs": [],
      "name": "promulgationPeriodDuration",
      "outputs": [
        {
          "name": "",
          "type": "uint256"
        }
      ],
      "payable": false,
      "stateMutability": "view",
      "type": "function"
    },
    {
      "constant": true,
      "inputs": [],
      "name": "votersOrganContract",
      "outputs": [
        {
          "name": "",
          "type": "address"
        }
      ],
      "payable": false,
      "stateMutability": "view",
      "type": "function"
    },
    {
      "constant": true,
      "inputs": [
        {
          "name": "_propositionNumber",
          "type": "uint256"
        }
      ],
      "name": "getPropositionDates",
      "outputs": [
        {
          "name": "_startDate",
          "type": "uint256"
        },
        {
          "name": "_votingPeriodEndDate",
          "type": "uint256"
        },
        {
          "name": "_promulgatorWindowEndDate",
          "type": "uint256"
        }
      ],
      "payable": false,
      "stateMutability": "view",
      "type": "function"
    },
    {
      "constant": false,
      "inputs": [
        {
          "name": "_propositionNumber",
          "type": "uint256"
        },
        {
          "name": "_promulgate",
          "type": "bool"
        }
      ],
      "name": "promulgateProposition",
      "outputs": [],
      "payable": false,
      "stateMutability": "nonpayable",
      "type": "function"
    },
    {
      "constant": true,
      "inputs": [
        {
          "name": "",
          "type": "address"
        },
        {
          "name": "",
          "type": "uint256"
        }
      ],
      "name": "propositionToVetoer",
      "outputs": [
        {
          "name": "",
          "type": "uint256"
        }
      ],
      "payable": false,
      "stateMutability": "view",
      "type": "function"
    },
    {
      "constant": false,
      "inputs": [
        {
          "name": "_propositionNumber",
          "type": "uint256"
        }
      ],
      "name": "endPropositionVote",
      "outputs": [
        {
          "name": "hasBeenAccepted",
          "type": "bool"
        }
      ],
      "payable": false,
      "stateMutability": "nonpayable",
      "type": "function"
    },
    {
      "constant": true,
      "inputs": [
        {
          "name": "",
          "type": "uint256"
        }
      ],
      "name": "propositionsWaitingEndOfVote",
      "outputs": [
        {
          "name": "",
          "type": "bool"
        }
      ],
      "payable": false,
      "stateMutability": "view",
      "type": "function"
    },
    {
      "constant": true,
      "inputs": [],
      "name": "getLinkedOrgans",
      "outputs": [
        {
          "name": "_linkedOrgans",
          "type": "address[]"
        }
      ],
      "payable": false,
      "stateMutability": "view",
      "type": "function"
    },
    {
      "constant": true,
      "inputs": [],
      "name": "isAProcedure",
      "outputs": [
        {
          "name": "",
          "type": "bool"
        }
      ],
      "payable": false,
      "stateMutability": "view",
      "type": "function"
    },
    {
      "constant": true,
      "inputs": [
        {
          "name": "",
          "type": "uint256"
        }
      ],
      "name": "linkedOrgans",
      "outputs": [
        {
          "name": "",
          "type": "address"
        }
      ],
      "payable": false,
      "stateMutability": "view",
      "type": "function"
    },
    {
      "inputs": [
        {
          "name": "_votersOrganContract",
          "type": "address"
        },
        {
          "name": "_membersWithVetoOrganContract",
          "type": "address"
        },
        {
          "name": "_finalPromulgatorsOrganContract",
          "type": "address"
        },
        {
          "name": "_quorumSize",
          "type": "uint256"
        },
        {
          "name": "_votingPeriodDuration",
          "type": "uint256"
        },
        {
          "name": "_promulgationPeriodDuration",
          "type": "uint256"
        }
      ],
      "payable": false,
      "stateMutability": "nonpayable",
      "type": "constructor"
    },
    {
      "anonymous": false,
      "inputs": [
        {
          "indexed": false,
          "name": "_from",
          "type": "address"
        },
        {
          "indexed": false,
          "name": "_targetOrgan",
          "type": "address"
        },
        {
          "indexed": false,
          "name": "_propositionType",
          "type": "uint256"
        },
        {
          "indexed": false,
          "name": "_propositionNumber",
          "type": "uint256"
        }
      ],
      "name": "createPropositionEvent",
      "type": "event"
    },
    {
      "anonymous": false,
      "inputs": [
        {
          "indexed": false,
          "name": "_contractToAdd",
          "type": "address"
        },
        {
          "indexed": false,
          "name": "_contractToRemove",
          "type": "address"
        }
      ],
      "name": "createPropositionDetails",
      "type": "event"
    },
    {
      "anonymous": false,
      "inputs": [
        {
          "indexed": false,
          "name": "_propositionNumber",
          "type": "uint256"
        },
        {
          "indexed": false,
          "name": "_canAdd",
          "type": "bool"
        },
        {
          "indexed": false,
          "name": "_canDelete",
          "type": "bool"
        },
        {
          "indexed": false,
          "name": "_name",
          "type": "string"
        }
      ],
      "name": "createMasterPropositionEvent",
      "type": "event"
    },
    {
      "anonymous": false,
      "inputs": [
        {
          "indexed": false,
          "name": "_propositionNumber",
          "type": "uint256"
        },
        {
          "indexed": false,
          "name": "_canAdd",
          "type": "bool"
        },
        {
          "indexed": false,
          "name": "_canDelete",
          "type": "bool"
        },
        {
          "indexed": false,
          "name": "_canDeposit",
          "type": "bool"
        },
        {
          "indexed": false,
          "name": "_canSpend",
          "type": "bool"
        },
        {
          "indexed": false,
          "name": "_name",
          "type": "string"
        }
      ],
      "name": "createAdminPropositionEvent",
      "type": "event"
    },
    {
      "anonymous": false,
      "inputs": [
        {
          "indexed": false,
          "name": "_propositionNumber",
          "type": "uint256"
        },
        {
          "indexed": false,
          "name": "_ipfsHash",
          "type": "bytes32"
        },
        {
          "indexed": false,
          "name": "_hash_function",
          "type": "uint8"
        },
        {
          "indexed": false,
          "name": "_size",
          "type": "uint8"
        },
        {
          "indexed": false,
          "name": "name",
          "type": "string"
        }
      ],
      "name": "createNormPropositionEvent",
      "type": "event"
    },
    {
      "anonymous": false,
      "inputs": [
        {
          "indexed": false,
          "name": "_from",
          "type": "address"
        },
        {
          "indexed": false,
          "name": "_propositionNumber",
          "type": "uint256"
        }
      ],
      "name": "voteOnProposition",
      "type": "event"
    },
    {
      "anonymous": false,
      "inputs": [
        {
          "indexed": false,
          "name": "_from",
          "type": "address"
        },
        {
          "indexed": false,
          "name": "_propositionNumber",
          "type": "uint256"
        }
      ],
      "name": "vetoProposition",
      "type": "event"
    },
    {
      "anonymous": false,
      "inputs": [
        {
          "indexed": false,
          "name": "_from",
          "type": "address"
        },
        {
          "indexed": false,
          "name": "_propositionNumber",
          "type": "uint256"
        }
      ],
      "name": "countVotes",
      "type": "event"
    },
    {
      "anonymous": false,
      "inputs": [
        {
          "indexed": false,
          "name": "_from",
          "type": "address"
        },
        {
          "indexed": false,
          "name": "_propositionNumber",
          "type": "uint256"
        },
        {
          "indexed": false,
          "name": "_promulgate",
          "type": "bool"
        }
      ],
      "name": "promulgatePropositionEvent",
      "type": "event"
    }
  ],
  "bytecode": "0x60606040526000600460006101000a81548160ff0219169083151502179055506001600460016101000a81548160ff021916908315150217905550600660055534156200004b57600080fd5b60405160c080620052fa8339810160405280805190602001909190805190602001909190805190602001909190805190602001909190805190602001909190805190602001909190505085600660006101000a81548173ffffffffffffffffffffffffffffffffffffffff021916908373ffffffffffffffffffffffffffffffffffffffff16021790555084600760006101000a81548173ffffffffffffffffffffffffffffffffffffffff021916908373ffffffffffffffffffffffffffffffffffffffff16021790555083600860006101000a81548173ffffffffffffffffffffffffffffffffffffffff021916908373ffffffffffffffffffffffffffffffffffffffff160217905550606060405190810160405280600660009054906101000a900473ffffffffffffffffffffffffffffffffffffffff1673ffffffffffffffffffffffffffffffffffffffff1673ffffffffffffffffffffffffffffffffffffffff168152602001600760009054906101000a900473ffffffffffffffffffffffffffffffffffffffff1673ffffffffffffffffffffffffffffffffffffffff1673ffffffffffffffffffffffffffffffffffffffff168152602001600860009054906101000a900473ffffffffffffffffffffffffffffffffffffffff1673ffffffffffffffffffffffffffffffffffffffff1673ffffffffffffffffffffffffffffffffffffffff168152506009906003620002709291906200029a565b5082600c8190555081600a8190555080600b8190555060016000819055505050505050506200036f565b82805482825590600052602060002090810192821562000316579160200282015b82811115620003155782518260006101000a81548173ffffffffffffffffffffffffffffffffffffffff021916908373ffffffffffffffffffffffffffffffffffffffff16021790555091602001919060010190620002bb565b5b50905062000325919062000329565b5090565b6200036c91905b808211156200036857600081816101000a81549073ffffffffffffffffffffffffffffffffffffffff02191690555060010162000330565b5090565b90565b614f7b806200037f6000396000f3006060604052600436106101c2576000357c0100000000000000000000000000000000000000000000000000000000900463ffffffff1680630366af3d146101c757806305cf00571461020d57806307e7a2241461029b5780630b2e34b0146103295780630f2d671e1461037f5780631d28dec7146104a75780632647d7f9146104ca5780633068ef4d146104f357806337443feb1461051c5780633c0848ee1461064a5780633ef4cfbb146106d85780635332eea11461079e5780635dbe4d28146107f4578063615d9bff1461081d57806364cdd61e146108405780636a95d38d1461089557806375ff60c4146108f0578063880d3f54146109465780638f3b07a41461099b5780639f32551b146109c4578063a8bef97a146109ed578063ac37af1c14610a1a578063b5fdb88e14610a55578063c9d27afe14610a7e578063cb20a2fd14610aac578063cd43eb1f14610b3a578063cd87c2b614610b75578063ce784b7714610b9e578063ce88840314610bf3578063d64ff06314610c38578063d858849414610c66578063e09ecb8714610cbc578063e36f6e4e14610cf7578063e570050114610d32578063e80b30a514610d9c578063f2edc61614610dc9575b600080fd5b34156101d257600080fd5b6101e86004808035906020019091905050610e2c565b6040518083151515158152602001821515151581526020019250505060405180910390f35b341561021857600080fd5b610244600480803573ffffffffffffffffffffffffffffffffffffffff16906020019091905050610e94565b6040518080602001828103825283818151815260200191508051906020019060200280838360005b8381101561028757808201518184015260208101905061026c565b505050509050019250505060405180910390f35b34156102a657600080fd5b6102d2600480803573ffffffffffffffffffffffffffffffffffffffff16906020019091905050610f31565b6040518080602001828103825283818151815260200191508051906020019060200280838360005b838110156103155780820151818401526020810190506102fa565b505050509050019250505060405180910390f35b341561033457600080fd5b610369600480803573ffffffffffffffffffffffffffffffffffffffff16906020019091908035906020019091905050610fce565b6040518082815260200191505060405180910390f35b341561038a57600080fd5b610491600480803573ffffffffffffffffffffffffffffffffffffffff1690602001909190803573ffffffffffffffffffffffffffffffffffffffff1690602001909190803573ffffffffffffffffffffffffffffffffffffffff169060200190919080356000191690602001909190803560ff1690602001909190803560ff1690602001909190803590602001908201803590602001908080601f016020809104026020016040519081016040528093929190818152602001838380828437820191505050505050919080351515906020019091908035151590602001909190803515159060200190919080351515906020019091908035906020019091905050610fff565b6040518082815260200191505060405180910390f35b34156104b257600080fd5b6104c86004808035906020019091905050611a88565b005b34156104d557600080fd5b6104dd611cf2565b6040518082815260200191505060405180910390f35b34156104fe57600080fd5b610506611cf8565b6040518082815260200191505060405180910390f35b341561052757600080fd5b61053d6004808035906020019091905050611cfe565b604051808873ffffffffffffffffffffffffffffffffffffffff1673ffffffffffffffffffffffffffffffffffffffff1681526020018773ffffffffffffffffffffffffffffffffffffffff1673ffffffffffffffffffffffffffffffffffffffff1681526020018615151515815260200185151515158152602001841515151581526020018315151515815260200180602001828103825283818151815260200191508051906020019080838360005b838110156106095780820151818401526020810190506105ee565b50505050905090810190601f1680156106365780820380516001836020036101000a031916815260200191505b509850505050505050505060405180910390f35b341561065557600080fd5b610681600480803573ffffffffffffffffffffffffffffffffffffffff16906020019091905050611f1e565b6040518080602001828103825283818151815260200191508051906020019060200280838360005b838110156106c45780820151818401526020810190506106a9565b505050509050019250505060405180910390f35b34156106e357600080fd5b6106f96004808035906020019091905050611fbb565b604051808773ffffffffffffffffffffffffffffffffffffffff1673ffffffffffffffffffffffffffffffffffffffff1681526020018673ffffffffffffffffffffffffffffffffffffffff1673ffffffffffffffffffffffffffffffffffffffff16815260200185600019166000191681526020018460ff1660ff1681526020018360ff1660ff168152602001828152602001965050505050505060405180910390f35b34156107a957600080fd5b6107de600480803573ffffffffffffffffffffffffffffffffffffffff169060200190919080359060200190919050506120f9565b6040518082815260200191505060405180910390f35b34156107ff57600080fd5b61080761212a565b6040518082815260200191505060405180910390f35b341561082857600080fd5b61083e6004808035906020019091905050612130565b005b341561084b57600080fd5b610853612505565b604051808273ffffffffffffffffffffffffffffffffffffffff1673ffffffffffffffffffffffffffffffffffffffff16815260200191505060405180910390f35b34156108a057600080fd5b6108b6600480803590602001909190505061252b565b6040518086815260200185815260200184815260200183151515158152602001821515151581526020019550505050505060405180910390f35b34156108fb57600080fd5b610930600480803573ffffffffffffffffffffffffffffffffffffffff1690602001909190803590602001909190505061263e565b6040518082815260200191505060405180910390f35b341561095157600080fd5b61095961266f565b604051808273ffffffffffffffffffffffffffffffffffffffff1673ffffffffffffffffffffffffffffffffffffffff16815260200191505060405180910390f35b34156109a657600080fd5b6109ae612695565b6040518082815260200191505060405180910390f35b34156109cf57600080fd5b6109d761269b565b6040518082815260200191505060405180910390f35b34156109f857600080fd5b610a006126a1565b604051808215151515815260200191505060405180910390f35b3415610a2557600080fd5b610a3b60048080359060200190919050506126b4565b604051808215151515815260200191505060405180910390f35b3415610a6057600080fd5b610a68612728565b6040518082815260200191505060405180910390f35b3415610a8957600080fd5b610aaa6004808035906020019091908035151590602001909190505061272e565b005b3415610ab757600080fd5b610ae3600480803573ffffffffffffffffffffffffffffffffffffffff16906020019091905050612ab9565b6040518080602001828103825283818151815260200191508051906020019060200280838360005b83811015610b26578082015181840152602081019050610b0b565b505050509050019250505060405180910390f35b3415610b4557600080fd5b610b5b6004808035906020019091905050612b56565b604051808215151515815260200191505060405180910390f35b3415610b8057600080fd5b610b88612b89565b6040518082815260200191505060405180910390f35b3415610ba957600080fd5b610bb1612b8f565b604051808273ffffffffffffffffffffffffffffffffffffffff1673ffffffffffffffffffffffffffffffffffffffff16815260200191505060405180910390f35b3415610bfe57600080fd5b610c146004808035906020019091905050612bb5565b60405180848152602001838152602001828152602001935050505060405180910390f35b3415610c4357600080fd5b610c6460048080359060200190919080351515906020019091905050612c2e565b005b3415610c7157600080fd5b610ca6600480803573ffffffffffffffffffffffffffffffffffffffff169060200190919080359060200190919050506145ee565b6040518082815260200191505060405180910390f35b3415610cc757600080fd5b610cdd600480803590602001909190505061461f565b604051808215151515815260200191505060405180910390f35b3415610d0257600080fd5b610d1860048080359060200190919050506149ca565b604051808215151515815260200191505060405180910390f35b3415610d3d57600080fd5b610d456149fd565b6040518080602001828103825283818151815260200191508051906020019060200280838360005b83811015610d88578082015181840152602081019050610d6d565b505050509050019250505060405180910390f35b3415610da757600080fd5b610daf614a91565b604051808215151515815260200191505060405180910390f35b3415610dd457600080fd5b610dea6004808035906020019091905050614aa4565b604051808273ffffffffffffffffffffffffffffffffffffffff1673ffffffffffffffffffffffffffffffffffffffff16815260200191505060405180910390f35b600080600f83815481101515610e3e57fe5b90600052602060002090600e0201600b0160019054906101000a900460ff16600f84815481101515610e6c57fe5b90600052602060002090600e0201600b0160039054906101000a900460ff1691509150915091565b610e9c614ae3565b601360008373ffffffffffffffffffffffffffffffffffffffff1673ffffffffffffffffffffffffffffffffffffffff168152602001908152602001600020805480602002602001604051908101604052809291908181526020018280548015610f2557602002820191906000526020600020905b815481526020019060010190808311610f11575b50505050509050919050565b610f39614ae3565b601560008373ffffffffffffffffffffffffffffffffffffffff1673ffffffffffffffffffffffffffffffffffffffff168152602001908152602001600020805480602002602001604051908101604052809291908181526020018280548015610fc257602002820191906000526020600020905b815481526020019060010190808311610fae575b50505050509050919050565b601260205281600052604060002081815481101515610fe957fe5b9060005260206000209001600091509150505481565b60008061100a614af7565b600660009054906101000a900473ffffffffffffffffffffffffffffffffffffffff1691508173ffffffffffffffffffffffffffffffffffffffff1663d323a4f8336000604051602001526040518263ffffffff167c0100000000000000000000000000000000000000000000000000000000028152600401808273ffffffffffffffffffffffffffffffffffffffff1673ffffffffffffffffffffffffffffffffffffffff168152602001915050602060405180830381600087803b15156110d257600080fd5b6102c65a03f115156110e357600080fd5b5050506040518051905015156110f857600080fd5b600091508e816000019073ffffffffffffffffffffffffffffffffffffffff16908173ffffffffffffffffffffffffffffffffffffffff16815250508d816020019073ffffffffffffffffffffffffffffffffffffffff16908173ffffffffffffffffffffffffffffffffffffffff16815250508c816040019073ffffffffffffffffffffffffffffffffffffffff16908173ffffffffffffffffffffffffffffffffffffffff16815250508b816060019060001916908160001916815250508a816080019060ff16908160ff1681525050898160a0019060ff16908160ff1681525050878160e00190151590811515815250508681610100019015159081151581525050848161012001901515908115158152505085816101400190151590811515815250508381610160018181525050888160c001819052504281610180018181525050600a544201816101a00181815250506000816101c00190151590811515815250506000816102200190151590811515815250506000816101e0019015159081151581525050600081610200019015159081151581525050600081610260018181525050600081610240018181525050600f80548060010182816112c19190614bf2565b91600052602060002090600e0201600083909190915060008201518160000160006101000a81548173ffffffffffffffffffffffffffffffffffffffff021916908373ffffffffffffffffffffffffffffffffffffffff16021790555060208201518160010160006101000a81548173ffffffffffffffffffffffffffffffffffffffff021916908373ffffffffffffffffffffffffffffffffffffffff16021790555060408201518160020160006101000a81548173ffffffffffffffffffffffffffffffffffffffff021916908373ffffffffffffffffffffffffffffffffffffffff1602179055506060820151816003019060001916905560808201518160040160006101000a81548160ff021916908360ff16021790555060a08201518160040160016101000a81548160ff021916908360ff16021790555060c082015181600501908051906020019061141a929190614c24565b5060e08201518160060160006101000a81548160ff0219169083151502179055506101008201518160060160016101000a81548160ff0219169083151502179055506101208201518160060160026101000a81548160ff0219169083151502179055506101408201518160060160036101000a81548160ff021916908315150217905550610160820151816007015561018082015181600901556101a082015181600a01556101c082015181600b0160006101000a81548160ff0219169083151502179055506101e082015181600b0160016101000a81548160ff02191690831515021790555061020082015181600b0160026101000a81548160ff02191690831515021790555061022082015181600b0160036101000a81548160ff02191690831515021790555061024082015181600c015561026082015181600d0155505050611564614af7565b90506001600f805490500392506001600d60008282540192505081905550601260003373ffffffffffffffffffffffffffffffffffffffff1673ffffffffffffffffffffffffffffffffffffffff16815260200190815260200160002080548060010182816115d39190614ca4565b916000526020600020900160008590919091505550601080548060010182816115fc9190614cd0565b91600052602060002090602091828204019190066001909190916101000a81548160ff02191690831515021790555050601180548060010182816116409190614cd0565b91600052602060002090602091828204019190066000909190916101000a81548160ff021916908315150217905550507f2c230862c7869ceafe2db15dda54a94fd7e87a574af1360a09e7a6f8acbc6bd333600f858154811015156116a157fe5b90600052602060002090600e020160000160009054906101000a900473ffffffffffffffffffffffffffffffffffffffff168686604051808573ffffffffffffffffffffffffffffffffffffffff1673ffffffffffffffffffffffffffffffffffffffff1681526020018473ffffffffffffffffffffffffffffffffffffffff1673ffffffffffffffffffffffffffffffffffffffff16815260200183815260200182815260200194505050505060405180910390a17fe00280f434fd134c148d59d0345a47457ed75114c60d70d759e43848b8faf7f58e8e604051808373ffffffffffffffffffffffffffffffffffffffff1673ffffffffffffffffffffffffffffffffffffffff1681526020018273ffffffffffffffffffffffffffffffffffffffff1673ffffffffffffffffffffffffffffffffffffffff1681526020019250505060405180910390a160008414156118b8577fec3d420ffa4da7a9686480af8bca59e8924642e69b2af65e3cebfa7b3fd60dbb8389898c60405180858152602001841515151581526020018315151515815260200180602001828103825283818151815260200191508051906020019080838360005b8381101561187657808201518184015260208101905061185b565b50505050905090810190601f1680156118a35780820380516001836020036101000a031916815260200191505b509550505050505060405180910390a1611a76565b600184141561199a577f1f3b72c309501b6d3e1f9d91571c6faef20f943d351b92f44d8c5c8b9d9ad84c83898989898e604051808781526020018615151515815260200185151515158152602001841515151581526020018315151515815260200180602001828103825283818151815260200191508051906020019080838360005b8381101561195657808201518184015260208101905061193b565b50505050905090810190601f1680156119835780820380516001836020036101000a031916815260200191505b5097505050505050505060405180910390a1611a75565b6002841415611a74577f5c96618013629f155bcf67ccd4858a79107e88a36d2a03d3f6c25f97a6b3fc5a838d8d8d8d6040518086815260200185600019166000191681526020018460ff1660ff1681526020018360ff1660ff16815260200180602001828103825283818151815260200191508051906020019080838360005b83811015611a35578082015181840152602081019050611a1a565b50505050905090810190601f168015611a625780820380516001836020036101000a031916815260200191505b50965050505050505060405180910390a15b5b5b50509c9b505050505050505050505050565b6000600760009054906101000a900473ffffffffffffffffffffffffffffffffffffffff1690508073ffffffffffffffffffffffffffffffffffffffff1663d323a4f8336000604051602001526040518263ffffffff167c0100000000000000000000000000000000000000000000000000000000028152600401808273ffffffffffffffffffffffffffffffffffffffff1673ffffffffffffffffffffffffffffffffffffffff168152602001915050602060405180830381600087803b1515611b5257600080fd5b6102c65a03f11515611b6357600080fd5b505050604051805190501515611b7857600080fd5b60009050600f82815481101515611b8b57fe5b90600052602060002090600e0201600b0160019054906101000a900460ff16151515611bb657600080fd5b42600f83815481101515611bc657fe5b90600052602060002090600e0201600a0154111515611be457600080fd5b6001600f83815481101515611bf557fe5b90600052602060002090600e0201600b0160006101000a81548160ff021916908315150217905550601460003373ffffffffffffffffffffffffffffffffffffffff1673ffffffffffffffffffffffffffffffffffffffff1681526020019081526020016000208054806001018281611c6e9190614ca4565b9160005260206000209001600084909190915055507f62901d9c2f788a5c877cf5a2659a041eedf9a980c6dd3ed22a4878bcc228619b3383604051808373ffffffffffffffffffffffffffffffffffffffff1673ffffffffffffffffffffffffffffffffffffffff1681526020018281526020019250505060405180910390a15050565b60055481565b600c5481565b600080600080600080611d0f614d0a565b600f88815481101515611d1e57fe5b90600052602060002090600e020160010160009054906101000a900473ffffffffffffffffffffffffffffffffffffffff16600f89815481101515611d5f57fe5b90600052602060002090600e020160020160009054906101000a900473ffffffffffffffffffffffffffffffffffffffff16600f8a815481101515611da057fe5b90600052602060002090600e020160060160009054906101000a900460ff16600f8b815481101515611dce57fe5b90600052602060002090600e020160060160019054906101000a900460ff16600f8c815481101515611dfc57fe5b90600052602060002090600e020160060160039054906101000a900460ff16600f8d815481101515611e2a57fe5b90600052602060002090600e020160060160029054906101000a900460ff16600f8e815481101515611e5857fe5b90600052602060002090600e0201600501808054600181600116156101000203166002900480601f016020809104026020016040519081016040528092919081815260200182805460018160011615610100020316600290048015611efe5780601f10611ed357610100808354040283529160200191611efe565b820191906000526020600020905b815481529060010190602001808311611ee157829003601f168201915b505050505090509650965096509650965096509650919395979092949650565b611f26614ae3565b601460008373ffffffffffffffffffffffffffffffffffffffff1673ffffffffffffffffffffffffffffffffffffffff168152602001908152602001600020805480602002602001604051908101604052809291908181526020018280548015611faf57602002820191906000526020600020905b815481526020019060010190808311611f9b575b50505050509050919050565b600080600080600080600f87815481101515611fd357fe5b90600052602060002090600e020160010160009054906101000a900473ffffffffffffffffffffffffffffffffffffffff16600f8881548110151561201457fe5b90600052602060002090600e020160020160009054906101000a900473ffffffffffffffffffffffffffffffffffffffff16600f8981548110151561205557fe5b90600052602060002090600e020160030154600f8a81548110151561207657fe5b90600052602060002090600e020160040160009054906101000a900460ff16600f8b8154811015156120a457fe5b90600052602060002090600e020160040160019054906101000a900460ff16600f8c8154811015156120d257fe5b90600052602060002090600e02016007015495509550955095509550955091939550919395565b60156020528160005260406000208181548110151561211457fe5b9060005260206000209001600091509150505481565b60005481565b6000806000600f8481548110151561214457fe5b90600052602060002090600e020160000160009054906101000a900473ffffffffffffffffffffffffffffffffffffffff1692506002600f8581548110151561218957fe5b90600052602060002090600e0201600701541015612271578273ffffffffffffffffffffffffffffffffffffffff1663f720f80b306000604051604001526040518263ffffffff167c0100000000000000000000000000000000000000000000000000000000028152600401808273ffffffffffffffffffffffffffffffffffffffff1673ffffffffffffffffffffffffffffffffffffffff1681526020019150506040805180830381600087803b151561224357600080fd5b6102c65a03f1151561225457600080fd5b50505060405180519060200180519050809250819350505061233d565b8273ffffffffffffffffffffffffffffffffffffffff166324d7806c306000604051604001526040518263ffffffff167c0100000000000000000000000000000000000000000000000000000000028152600401808273ffffffffffffffffffffffffffffffffffffffff1673ffffffffffffffffffffffffffffffffffffffff1681526020019150506040805180830381600087803b151561231357600080fd5b6102c65a03f1151561232457600080fd5b5050506040518051906020018051905080925081935050505b811580156123a257506000600f8581548110151561235757fe5b90600052602060002090600e020160010160009054906101000a900473ffffffffffffffffffffffffffffffffffffffff1673ffffffffffffffffffffffffffffffffffffffff1614155b8061240e57508015801561240d57506000600f858154811015156123c257fe5b90600052602060002090600e020160020160009054906101000a900473ffffffffffffffffffffffffffffffffffffffff1673ffffffffffffffffffffffffffffffffffffffff1614155b5b15612487576001600f8581548110151561242457fe5b90600052602060002090600e0201600b0160036101000a81548160ff021916908315150217905550600060118581548110151561245d57fe5b90600052602060002090602091828204019190066101000a81548160ff0219169083151502179055505b7fed7c73834db4ae22add7f637175d8a32a1dddae4c154ccd25195b77df4c8d18d33856000604051808473ffffffffffffffffffffffffffffffffffffffff1673ffffffffffffffffffffffffffffffffffffffff16815260200183815260200182151515158152602001935050505060405180910390a150505050565b600760009054906101000a900473ffffffffffffffffffffffffffffffffffffffff1681565b6000806000806000600f8681548110151561254257fe5b90600052602060002090600e0201600b0160019054906101000a900460ff16151561256c57600080fd5b600f8681548110151561257b57fe5b90600052602060002090600e020160090154600f8781548110151561259c57fe5b90600052602060002090600e0201600d0154600f888154811015156125bd57fe5b90600052602060002090600e0201600c0154600f898154811015156125de57fe5b90600052602060002090600e0201600b0160009054906101000a900460ff16600f8a81548110151561260c57fe5b90600052602060002090600e0201600b0160029054906101000a900460ff169450945094509450945091939590929450565b60136020528160005260406000208181548110151561265957fe5b9060005260206000209001600091509150505481565b600860009054906101000a900473ffffffffffffffffffffffffffffffffffffffff1681565b600d5481565b600e5481565b600460009054906101000a900460ff1681565b6000600f828154811015156126c557fe5b90600052602060002090600e020160080160003373ffffffffffffffffffffffffffffffffffffffff1673ffffffffffffffffffffffffffffffffffffffff16815260200190815260200160002060009054906101000a900460ff169050919050565b600a5481565b6000600660009054906101000a900473ffffffffffffffffffffffffffffffffffffffff1690508073ffffffffffffffffffffffffffffffffffffffff1663d323a4f8336000604051602001526040518263ffffffff167c0100000000000000000000000000000000000000000000000000000000028152600401808273ffffffffffffffffffffffffffffffffffffffff1673ffffffffffffffffffffffffffffffffffffffff168152602001915050602060405180830381600087803b15156127f857600080fd5b6102c65a03f1151561280957600080fd5b50505060405180519050151561281e57600080fd5b60009050600f8381548110151561283157fe5b90600052602060002090600e020160080160003373ffffffffffffffffffffffffffffffffffffffff1673ffffffffffffffffffffffffffffffffffffffff16815260200190815260200160002060009054906101000a900460ff1615151561289957600080fd5b600f838154811015156128a857fe5b90600052602060002090600e0201600b0160019054906101000a900460ff161515156128d357600080fd5b42600f848154811015156128e357fe5b90600052602060002090600e0201600a015411151561290157600080fd5b60011515821515141561293e576001600f8481548110151561291f57fe5b90600052602060002090600e0201600c01600082825401925050819055505b6001600f8481548110151561294f57fe5b90600052602060002090600e020160080160003373ffffffffffffffffffffffffffffffffffffffff1673ffffffffffffffffffffffffffffffffffffffff16815260200190815260200160002060006101000a81548160ff0219169083151502179055506001600f848154811015156129c557fe5b90600052602060002090600e0201600d0160008282540192505081905550601360003373ffffffffffffffffffffffffffffffffffffffff1673ffffffffffffffffffffffffffffffffffffffff1681526020019081526020016000208054806001018281612a349190614ca4565b9160005260206000209001600085909190915055507fd1faddd599b0d6b58c83de71d7ff5395895b5891894dcd37f2482f33b2a1c43d3384604051808373ffffffffffffffffffffffffffffffffffffffff1673ffffffffffffffffffffffffffffffffffffffff1681526020018281526020019250505060405180910390a1505050565b612ac1614ae3565b601260008373ffffffffffffffffffffffffffffffffffffffff1673ffffffffffffffffffffffffffffffffffffffff168152602001908152602001600020805480602002602001604051908101604052809291908181526020018280548015612b4a57602002820191906000526020600020905b815481526020019060010190808311612b36575b50505050509050919050565b601181815481101515612b6557fe5b9060005260206000209060209182820401919006915054906101000a900460ff1681565b600b5481565b600660009054906101000a900473ffffffffffffffffffffffffffffffffffffffff1681565b6000806000600f84815481101515612bc957fe5b90600052602060002090600e020160090154600f85815481101515612bea57fe5b90600052602060002090600e0201600a0154600b54600f87815481101515612c0e57fe5b90600052602060002090600e0201600a0154019250925092509193909250565b600080600f84815481101515612c4057fe5b90600052602060002090600e0201600b0160039054906101000a900460ff16151515612c6b57600080fd5b600f84815481101515612c7a57fe5b90600052602060002090600e0201600b0160019054906101000a900460ff161515612ca457600080fd5b600b54600f85815481101515612cb657fe5b90600052602060002090600e0201600a015401421015612dc757600860009054906101000a900473ffffffffffffffffffffffffffffffffffffffff1691508173ffffffffffffffffffffffffffffffffffffffff1663d323a4f8336000604051602001526040518263ffffffff167c0100000000000000000000000000000000000000000000000000000000028152600401808273ffffffffffffffffffffffffffffffffffffffff1673ffffffffffffffffffffffffffffffffffffffff168152602001915050602060405180830381600087803b1515612d9857600080fd5b6102c65a03f11515612da957600080fd5b505050604051805190501515612dbe57600080fd5b60009150612dd4565b821515612dd357600080fd5b5b600f84815481101515612de357fe5b90600052602060002090600e0201600b0160029054906101000a900460ff161515612e0d57600080fd5b821580612ed257506000600f85815481101515612e2657fe5b90600052602060002090600e020160010160009054906101000a900473ffffffffffffffffffffffffffffffffffffffff1673ffffffffffffffffffffffffffffffffffffffff16148015612ed157506000600f85815481101515612e8757fe5b90600052602060002090600e020160020160009054906101000a900473ffffffffffffffffffffffffffffffffffffffff1673ffffffffffffffffffffffffffffffffffffffff16145b5b15612f15576001600f85815481101515612ee857fe5b90600052602060002090600e0201600b0160036101000a81548160ff021916908315150217905550614498565b600f84815481101515612f2457fe5b90600052602060002090600e020160000160009054906101000a900473ffffffffffffffffffffffffffffffffffffffff1690506000600f85815481101515612f6957fe5b90600052602060002090600e020160010160009054906101000a900473ffffffffffffffffffffffffffffffffffffffff1673ffffffffffffffffffffffffffffffffffffffff161415156140b3576000600f85815481101515612fc957fe5b90600052602060002090600e020160020160009054906101000a900473ffffffffffffffffffffffffffffffffffffffff1673ffffffffffffffffffffffffffffffffffffffff16141515613953576000600f8581548110151561302957fe5b90600052602060002090600e02016007015414156132c3578073ffffffffffffffffffffffffffffffffffffffff16630e6adcdf600f8681548110151561306c57fe5b90600052602060002090600e020160020160009054906101000a900473ffffffffffffffffffffffffffffffffffffffff16600f878154811015156130ad57fe5b90600052602060002090600e020160010160009054906101000a900473ffffffffffffffffffffffffffffffffffffffff16600f888154811015156130ee57fe5b90600052602060002090600e020160060160009054906101000a900460ff16600f8981548110151561311c57fe5b90600052602060002090600e020160060160019054906101000a900460ff16600f8a81548110151561314a57fe5b90600052602060002090600e02016005016040518663ffffffff167c0100000000000000000000000000000000000000000000000000000000028152600401808673ffffffffffffffffffffffffffffffffffffffff1673ffffffffffffffffffffffffffffffffffffffff1681526020018573ffffffffffffffffffffffffffffffffffffffff1673ffffffffffffffffffffffffffffffffffffffff1681526020018415151515815260200183151515158152602001806020018281038252838181546001816001161561010002031660029004815260200191508054600181600116156101000203166002900480156132875780601f1061325c57610100808354040283529160200191613287565b820191906000526020600020905b81548152906001019060200180831161326a57829003601f168201915b50509650505050505050600060405180830381600087803b15156132aa57600080fd5b6102c65a03f115156132bb57600080fd5b50505061394e565b6001600f858154811015156132d457fe5b90600052602060002090600e02016007015414156135e0578073ffffffffffffffffffffffffffffffffffffffff16638186c350600f8681548110151561331757fe5b90600052602060002090600e020160020160009054906101000a900473ffffffffffffffffffffffffffffffffffffffff16600f8781548110151561335857fe5b90600052602060002090600e020160010160009054906101000a900473ffffffffffffffffffffffffffffffffffffffff16600f8881548110151561339957fe5b90600052602060002090600e020160060160009054906101000a900460ff16600f898154811015156133c757fe5b90600052602060002090600e020160060160019054906101000a900460ff16600f8a8154811015156133f557fe5b90600052602060002090600e020160060160039054906101000a900460ff16600f8b81548110151561342357fe5b90600052602060002090600e020160060160029054906101000a900460ff16600f8c81548110151561345157fe5b90600052602060002090600e02016005016040518863ffffffff167c0100000000000000000000000000000000000000000000000000000000028152600401808873ffffffffffffffffffffffffffffffffffffffff1673ffffffffffffffffffffffffffffffffffffffff1681526020018773ffffffffffffffffffffffffffffffffffffffff1673ffffffffffffffffffffffffffffffffffffffff16815260200186151515158152602001851515151581526020018415151515815260200183151515158152602001806020018281038252838181546001816001161561010002031660029004815260200191508054600181600116156101000203166002900480156135a25780601f10613577576101008083540402835291602001916135a2565b820191906000526020600020905b81548152906001019060200180831161358557829003601f168201915b505098505050505050505050600060405180830381600087803b15156135c757600080fd5b6102c65a03f115156135d857600080fd5b50505061394d565b6002600f858154811015156135f157fe5b90600052602060002090600e020160070154141561394c578073ffffffffffffffffffffffffffffffffffffffff1663cd26b87b8273ffffffffffffffffffffffffffffffffffffffff16635549ea51600f8881548110151561365057fe5b90600052602060002090600e020160020160009054906101000a900473ffffffffffffffffffffffffffffffffffffffff166000604051602001526040518263ffffffff167c0100000000000000000000000000000000000000000000000000000000028152600401808273ffffffffffffffffffffffffffffffffffffffff1673ffffffffffffffffffffffffffffffffffffffff168152602001915050602060405180830381600087803b151561370857600080fd5b6102c65a03f1151561371957600080fd5b50505060405180519050600f8781548110151561373257fe5b90600052602060002090600e020160010160009054906101000a900473ffffffffffffffffffffffffffffffffffffffff16600f8881548110151561377357fe5b90600052602060002090600e0201600501600f8981548110151561379357fe5b90600052602060002090600e020160030154600f8a8154811015156137b457fe5b90600052602060002090600e020160040160009054906101000a900460ff16600f8b8154811015156137e257fe5b90600052602060002090600e020160040160019054906101000a900460ff166040518763ffffffff167c0100000000000000000000000000000000000000000000000000000000028152600401808781526020018673ffffffffffffffffffffffffffffffffffffffff1673ffffffffffffffffffffffffffffffffffffffff1681526020018060200185600019166000191681526020018460ff1660ff1681526020018360ff1660ff1681526020018281038252868181546001816001161561010002031660029004815260200191508054600181600116156101000203166002900480156139135780601f106138e857610100808354040283529160200191613913565b820191906000526020600020905b8154815290600101906020018083116138f657829003601f168201915b5050975050505050505050600060405180830381600087803b151561393757600080fd5b6102c65a03f1151561394857600080fd5b5050505b5b5b6140ae565b6000600f8581548110151561396457fe5b90600052602060002090600e0201600701541415613b8a578073ffffffffffffffffffffffffffffffffffffffff1663ca1885f7600f868154811015156139a757fe5b90600052602060002090600e020160010160009054906101000a900473ffffffffffffffffffffffffffffffffffffffff16600f878154811015156139e857fe5b90600052602060002090600e020160060160009054906101000a900460ff16600f88815481101515613a1657fe5b90600052602060002090600e020160060160019054906101000a900460ff16600f89815481101515613a4457fe5b90600052602060002090600e02016005016040518563ffffffff167c0100000000000000000000000000000000000000000000000000000000028152600401808573ffffffffffffffffffffffffffffffffffffffff1673ffffffffffffffffffffffffffffffffffffffff168152602001841515151581526020018315151515815260200180602001828103825283818154600181600116156101000203166002900481526020019150805460018160011615610100020316600290048015613b4f5780601f10613b2457610100808354040283529160200191613b4f565b820191906000526020600020905b815481529060010190602001808311613b3257829003601f168201915b505095505050505050600060405180830381600087803b1515613b7157600080fd5b6102c65a03f11515613b8257600080fd5b5050506140ad565b6001600f85815481101515613b9b57fe5b90600052602060002090600e0201600701541415613e33578073ffffffffffffffffffffffffffffffffffffffff166378ebd005600f86815481101515613bde57fe5b90600052602060002090600e020160010160009054906101000a900473ffffffffffffffffffffffffffffffffffffffff16600f87815481101515613c1f57fe5b90600052602060002090600e020160060160009054906101000a900460ff16600f88815481101515613c4d57fe5b90600052602060002090600e020160060160019054906101000a900460ff16600f89815481101515613c7b57fe5b90600052602060002090600e020160060160039054906101000a900460ff16600f8a815481101515613ca957fe5b90600052602060002090600e020160060160029054906101000a900460ff16600f8b815481101515613cd757fe5b90600052602060002090600e02016005016040518763ffffffff167c0100000000000000000000000000000000000000000000000000000000028152600401808773ffffffffffffffffffffffffffffffffffffffff1673ffffffffffffffffffffffffffffffffffffffff1681526020018615151515815260200185151515158152602001841515151581526020018315151515815260200180602001828103825283818154600181600116156101000203166002900481526020019150805460018160011615610100020316600290048015613df65780601f10613dcb57610100808354040283529160200191613df6565b820191906000526020600020905b815481529060010190602001808311613dd957829003601f168201915b5050975050505050505050600060405180830381600087803b1515613e1a57600080fd5b6102c65a03f11515613e2b57600080fd5b5050506140ac565b6002600f85815481101515613e4457fe5b90600052602060002090600e02016007015414156140ab578073ffffffffffffffffffffffffffffffffffffffff1663696c5219600f86815481101515613e8757fe5b90600052602060002090600e020160010160009054906101000a900473ffffffffffffffffffffffffffffffffffffffff16600f87815481101515613ec857fe5b90600052602060002090600e0201600501600f88815481101515613ee857fe5b90600052602060002090600e020160030154600f89815481101515613f0957fe5b90600052602060002090600e020160040160009054906101000a900460ff16600f8a815481101515613f3757fe5b90600052602060002090600e020160040160019054906101000a900460ff166000604051602001526040518663ffffffff167c0100000000000000000000000000000000000000000000000000000000028152600401808673ffffffffffffffffffffffffffffffffffffffff1673ffffffffffffffffffffffffffffffffffffffff1681526020018060200185600019166000191681526020018460ff1660ff1681526020018360ff1660ff16815260200182810382528681815460018160011615610100020316600290048152602001915080546001816001161561010002031660029004801561406b5780601f106140405761010080835404028352916020019161406b565b820191906000526020600020905b81548152906001019060200180831161404e57829003601f168201915b50509650505050505050602060405180830381600087803b151561408e57600080fd5b6102c65a03f1151561409f57600080fd5b50505060405180519050505b5b5b5b614497565b6000600f858154811015156140c457fe5b90600052602060002090600e02016007015414156141cf578073ffffffffffffffffffffffffffffffffffffffff166331a79198600f8681548110151561410757fe5b90600052602060002090600e020160020160009054906101000a900473ffffffffffffffffffffffffffffffffffffffff166040518263ffffffff167c0100000000000000000000000000000000000000000000000000000000028152600401808273ffffffffffffffffffffffffffffffffffffffff1673ffffffffffffffffffffffffffffffffffffffff168152602001915050600060405180830381600087803b15156141b657600080fd5b6102c65a03f115156141c757600080fd5b505050614496565b6001600f858154811015156141e057fe5b90600052602060002090600e02016007015414156142eb578073ffffffffffffffffffffffffffffffffffffffff166311c60418600f8681548110151561422357fe5b90600052602060002090600e020160020160009054906101000a900473ffffffffffffffffffffffffffffffffffffffff166040518263ffffffff167c0100000000000000000000000000000000000000000000000000000000028152600401808273ffffffffffffffffffffffffffffffffffffffff1673ffffffffffffffffffffffffffffffffffffffff168152602001915050600060405180830381600087803b15156142d257600080fd5b6102c65a03f115156142e357600080fd5b505050614495565b6002600f858154811015156142fc57fe5b90600052602060002090600e0201600701541415614494578073ffffffffffffffffffffffffffffffffffffffff16630e9defff8273ffffffffffffffffffffffffffffffffffffffff16635549ea51600f8881548110151561435b57fe5b90600052602060002090600e020160020160009054906101000a900473ffffffffffffffffffffffffffffffffffffffff166000604051602001526040518263ffffffff167c0100000000000000000000000000000000000000000000000000000000028152600401808273ffffffffffffffffffffffffffffffffffffffff1673ffffffffffffffffffffffffffffffffffffffff168152602001915050602060405180830381600087803b151561441357600080fd5b6102c65a03f1151561442457600080fd5b505050604051805190506040518263ffffffff167c010000000000000000000000000000000000000000000000000000000002815260040180828152602001915050600060405180830381600087803b151561447f57600080fd5b6102c65a03f1151561449057600080fd5b5050505b5b5b5b5b6001600f858154811015156144a957fe5b90600052602060002090600e0201600b0160036101000a81548160ff02191690831515021790555060006011858154811015156144e257fe5b90600052602060002090602091828204019190066101000a81548160ff021916908315150217905550601560003373ffffffffffffffffffffffffffffffffffffffff1673ffffffffffffffffffffffffffffffffffffffff168152602001908152602001600020805480600101828161455c9190614ca4565b9160005260206000209001600086909190915055507fed7c73834db4ae22add7f637175d8a32a1dddae4c154ccd25195b77df4c8d18d338585604051808473ffffffffffffffffffffffffffffffffffffffff1673ffffffffffffffffffffffffffffffffffffffff16815260200183815260200182151515158152602001935050505060405180910390a150505050565b60146020528160005260406000208181548110151561460957fe5b9060005260206000209001600091509150505481565b600080600f8381548110151561463157fe5b90600052602060002090600e0201600b0160019054906101000a900460ff1615151561465c57600080fd5b42600f8481548110151561466c57fe5b90600052602060002090600e0201600a015410151561468a57600080fd5b600660009054906101000a900473ffffffffffffffffffffffffffffffffffffffff169050600f838154811015156146be57fe5b90600052602060002090600e0201600b0160009054906101000a900460ff161561472457600091506001600f848154811015156146f757fe5b90600052602060002090600e0201600b0160036101000a81548160ff021916908315150217905550614874565b8073ffffffffffffffffffffffffffffffffffffffff1663234d34de6000604051602001526040518163ffffffff167c0100000000000000000000000000000000000000000000000000000000028152600401602060405180830381600087803b151561479057600080fd5b6102c65a03f115156147a157600080fd5b50505060405180519050600c54026064600f858154811015156147c057fe5b90600052602060002090600e0201600d0154021015801561482757506064600f848154811015156147ed57fe5b90600052602060002090600e0201600d015402600e54600f8581548110151561481257fe5b90600052602060002090600e0201600c015402115b156148355760019150614873565b600091506001600f8481548110151561484a57fe5b90600052602060002090600e0201600b0160036101000a81548160ff0219169083151502179055505b5b6001600f8481548110151561488557fe5b90600052602060002090600e0201600b0160016101000a81548160ff02191690831515021790555081600f848154811015156148bd57fe5b90600052602060002090600e0201600b0160026101000a81548160ff02191690831515021790555060006010848154811015156148f657fe5b90600052602060002090602091828204019190066101000a81548160ff021916908315150217905550600160118481548110151561493057fe5b90600052602060002090602091828204019190066101000a81548160ff0219169083151502179055507f297f1f08d2ef8c90272f7ee3e1d4272015a96cdff8a252b60547b9e432e723603384604051808373ffffffffffffffffffffffffffffffffffffffff1673ffffffffffffffffffffffffffffffffffffffff1681526020018281526020019250505060405180910390a150919050565b6010818154811015156149d957fe5b9060005260206000209060209182820401919006915054906101000a900460ff1681565b614a05614d1e565b6009805480602002602001604051908101604052809291908181526020018280548015614a8757602002820191906000526020600020905b8160009054906101000a900473ffffffffffffffffffffffffffffffffffffffff1673ffffffffffffffffffffffffffffffffffffffff1681526020019060010190808311614a3d575b5050505050905090565b600460019054906101000a900460ff1681565b600981815481101515614ab357fe5b90600052602060002090016000915054906101000a900473ffffffffffffffffffffffffffffffffffffffff1681565b602060405190810160405280600081525090565b61028060405190810160405280600073ffffffffffffffffffffffffffffffffffffffff168152602001600073ffffffffffffffffffffffffffffffffffffffff168152602001600073ffffffffffffffffffffffffffffffffffffffff16815260200160008019168152602001600060ff168152602001600060ff168152602001614b81614d32565b815260200160001515815260200160001515815260200160001515815260200160001515815260200160008152602001600081526020016000815260200160001515815260200160001515815260200160001515815260200160001515815260200160008152602001600081525090565b815481835581811511614c1f57600e0281600e028360005260206000209182019101614c1e9190614d46565b5b505050565b828054600181600116156101000203166002900490600052602060002090601f016020900481019282601f10614c6557805160ff1916838001178555614c93565b82800160010185558215614c93579182015b82811115614c92578251825591602001919060010190614c77565b5b509050614ca09190614ee2565b5090565b815481835581811511614ccb57818360005260206000209182019101614cca9190614ee2565b5b505050565b815481835581811511614d0557601f016020900481601f01602090048360005260206000209182019101614d049190614ee2565b5b505050565b602060405190810160405280600081525090565b602060405190810160405280600081525090565b602060405190810160405280600081525090565b614edf91905b80821115614edb57600080820160006101000a81549073ffffffffffffffffffffffffffffffffffffffff02191690556001820160006101000a81549073ffffffffffffffffffffffffffffffffffffffff02191690556002820160006101000a81549073ffffffffffffffffffffffffffffffffffffffff021916905560038201600090556004820160006101000a81549060ff02191690556004820160016101000a81549060ff0219169055600582016000614e0a9190614f07565b6006820160006101000a81549060ff02191690556006820160016101000a81549060ff02191690556006820160026101000a81549060ff02191690556006820160036101000a81549060ff021916905560078201600090556009820160009055600a820160009055600b820160006101000a81549060ff0219169055600b820160016101000a81549060ff0219169055600b820160026101000a81549060ff0219169055600b820160036101000a81549060ff0219169055600c820160009055600d82016000905550600e01614d4c565b5090565b90565b614f0491905b80821115614f00576000816000905550600101614ee8565b5090565b90565b50805460018160011615610100020316600290046000825580601f10614f2d5750614f4c565b601f016020900490600052602060002090810190614f4b9190614ee2565b5b505600a165627a7a723058202b753507e1ae36d319dfeaeb4525c3ba4cd9a3e2ba82973530b7900272e27dbe0029",
  "source": "pragma solidity ^0.4.11;\n\n// Standard contract for a presidential election procedure\n\nimport \"../standardProcedure.sol\";\nimport \"../standardOrgan.sol\";\nimport \"../procedures/voteOnAdminsAndMastersProcedure.sol\";\n\n\n\n\ncontract deployVoteOnAdminsAndMastersProcedure is voteOnAdminsAndMastersProcedure {\n\nfunction deployVoteOnAdminsAndMastersProcedure (address _votersOrganContract, address _membersWithVetoOrganContract, address _finalPromulgatorsOrganContract, uint _quorumSize, uint _votingPeriodDuration, uint _promulgationPeriodDuration) public {\n\n    votersOrganContract = _votersOrganContract;\n    membersWithVetoOrganContract = _membersWithVetoOrganContract;\n    finalPromulgatorsOrganContract = _finalPromulgatorsOrganContract; \n    linkedOrgans = [votersOrganContract,membersWithVetoOrganContract,finalPromulgatorsOrganContract];\n\n\n    quorumSize = _quorumSize;\n    // votingPeriodDuration = 3 minutes;\n    // promulgationPeriodDuration = 3 minutes;\n\n    votingPeriodDuration = _votingPeriodDuration;\n    promulgationPeriodDuration = _promulgationPeriodDuration;\n\n    kelsenVersionNumber = 1;\n\n    }\n}\n",
  "sourcePath": "/Users/henrilieutaud/Documents/Mes documents/97/Workshop/Kelsen/solidity/contracts/deploy/deployVoteOnAdminsAndMastersProcedure.sol",
  "compiler": {
    "name": "solc",
    "version": "0.4.19+commit.c4cbbb05.Emscripten.clang"
  },
  "schemaVersion": "2.0.0",
  "updatedAt": "2018-05-14T16:41:17.308Z"
}