{
  "contractName": "deployVoteOnNormsProcedure",
  "abi": [
    {
      "constant": true,
      "inputs": [
        {
          "name": "_propositionNumber",
          "type": "uint256"
        }
      ],
      "name": "getPropositionStatus",
      "outputs": [
        {
          "name": "_wasCounted",
          "type": "bool"
        },
        {
          "name": "_wasEnded",
          "type": "bool"
        }
      ],
      "payable": false,
      "stateMutability": "view",
      "type": "function"
    },
    {
      "constant": true,
      "inputs": [
        {
          "name": "_userAddress",
          "type": "address"
        }
      ],
      "name": "getPropositionsUsedByUser",
      "outputs": [
        {
          "name": "",
          "type": "uint256[]"
        }
      ],
      "payable": false,
      "stateMutability": "view",
      "type": "function"
    },
    {
      "constant": true,
      "inputs": [
        {
          "name": "_userAddress",
          "type": "address"
        }
      ],
      "name": "getPropositionsPromulgatedByUser",
      "outputs": [
        {
          "name": "",
          "type": "uint256[]"
        }
      ],
      "payable": false,
      "stateMutability": "view",
      "type": "function"
    },
    {
      "constant": true,
      "inputs": [
        {
          "name": "",
          "type": "address"
        },
        {
          "name": "",
          "type": "uint256"
        }
      ],
      "name": "propositionToUser",
      "outputs": [
        {
          "name": "",
          "type": "uint256"
        }
      ],
      "payable": false,
      "stateMutability": "view",
      "type": "function"
    },
    {
      "constant": false,
      "inputs": [
        {
          "name": "_propositionNumber",
          "type": "uint256"
        }
      ],
      "name": "veto",
      "outputs": [],
      "payable": false,
      "stateMutability": "nonpayable",
      "type": "function"
    },
    {
      "constant": true,
      "inputs": [],
      "name": "procedureTypeNumber",
      "outputs": [
        {
          "name": "",
          "type": "int256"
        }
      ],
      "payable": false,
      "stateMutability": "view",
      "type": "function"
    },
    {
      "constant": true,
      "inputs": [],
      "name": "quorumSize",
      "outputs": [
        {
          "name": "",
          "type": "uint256"
        }
      ],
      "payable": false,
      "stateMutability": "view",
      "type": "function"
    },
    {
      "constant": true,
      "inputs": [
        {
          "name": "_propositionNumber",
          "type": "uint256"
        }
      ],
      "name": "getPropositionDetails",
      "outputs": [
        {
          "name": "_addressToAdd",
          "type": "address"
        },
        {
          "name": "_addressToRemove",
          "type": "address"
        },
        {
          "name": "_ipfsHash",
          "type": "bytes32"
        },
        {
          "name": "_hash_function",
          "type": "uint8"
        },
        {
          "name": "_size",
          "type": "uint8"
        },
        {
          "name": "_name",
          "type": "string"
        }
      ],
      "payable": false,
      "stateMutability": "view",
      "type": "function"
    },
    {
      "constant": true,
      "inputs": [
        {
          "name": "_userAddress",
          "type": "address"
        }
      ],
      "name": "getPropositionsVetoedByUser",
      "outputs": [
        {
          "name": "",
          "type": "uint256[]"
        }
      ],
      "payable": false,
      "stateMutability": "view",
      "type": "function"
    },
    {
      "constant": true,
      "inputs": [
        {
          "name": "",
          "type": "address"
        },
        {
          "name": "",
          "type": "uint256"
        }
      ],
      "name": "propositionToPromulgator",
      "outputs": [
        {
          "name": "",
          "type": "uint256"
        }
      ],
      "payable": false,
      "stateMutability": "view",
      "type": "function"
    },
    {
      "constant": true,
      "inputs": [],
      "name": "kelsenVersionNumber",
      "outputs": [
        {
          "name": "",
          "type": "int256"
        }
      ],
      "payable": false,
      "stateMutability": "view",
      "type": "function"
    },
    {
      "constant": true,
      "inputs": [],
      "name": "membersWithVetoOrganContract",
      "outputs": [
        {
          "name": "",
          "type": "address"
        }
      ],
      "payable": false,
      "stateMutability": "view",
      "type": "function"
    },
    {
      "constant": false,
      "inputs": [
        {
          "name": "_contractToAdd",
          "type": "address"
        },
        {
          "name": "_contractToRemove",
          "type": "address"
        },
        {
          "name": "_ipfsHash",
          "type": "bytes32"
        },
        {
          "name": "_hash_function",
          "type": "uint8"
        },
        {
          "name": "_size",
          "type": "uint8"
        },
        {
          "name": "_name",
          "type": "string"
        }
      ],
      "name": "createProposition",
      "outputs": [
        {
          "name": "propositionNumber",
          "type": "uint256"
        }
      ],
      "payable": false,
      "stateMutability": "nonpayable",
      "type": "function"
    },
    {
      "constant": true,
      "inputs": [
        {
          "name": "_propositionNumber",
          "type": "uint256"
        }
      ],
      "name": "getVotedPropositionResults",
      "outputs": [
        {
          "name": "_startDate",
          "type": "uint256"
        },
        {
          "name": "_totalVoteCount",
          "type": "uint256"
        },
        {
          "name": "_voteFor",
          "type": "uint256"
        },
        {
          "name": "_wasVetoed",
          "type": "bool"
        },
        {
          "name": "_wasAccepted",
          "type": "bool"
        }
      ],
      "payable": false,
      "stateMutability": "view",
      "type": "function"
    },
    {
      "constant": true,
      "inputs": [
        {
          "name": "",
          "type": "address"
        },
        {
          "name": "",
          "type": "uint256"
        }
      ],
      "name": "propositionToVoter",
      "outputs": [
        {
          "name": "",
          "type": "uint256"
        }
      ],
      "payable": false,
      "stateMutability": "view",
      "type": "function"
    },
    {
      "constant": true,
      "inputs": [],
      "name": "finalPromulgatorsOrganContract",
      "outputs": [
        {
          "name": "",
          "type": "address"
        }
      ],
      "payable": false,
      "stateMutability": "view",
      "type": "function"
    },
    {
      "constant": true,
      "inputs": [],
      "name": "totalPropositionNumber",
      "outputs": [
        {
          "name": "",
          "type": "uint256"
        }
      ],
      "payable": false,
      "stateMutability": "view",
      "type": "function"
    },
    {
      "constant": true,
      "inputs": [],
      "name": "requiredMajorityNumerator",
      "outputs": [
        {
          "name": "",
          "type": "uint256"
        }
      ],
      "payable": false,
      "stateMutability": "view",
      "type": "function"
    },
    {
      "constant": true,
      "inputs": [],
      "name": "isAnOrgan",
      "outputs": [
        {
          "name": "",
          "type": "bool"
        }
      ],
      "payable": false,
      "stateMutability": "view",
      "type": "function"
    },
    {
      "constant": true,
      "inputs": [
        {
          "name": "propositionNumber",
          "type": "uint256"
        }
      ],
      "name": "haveIVoted",
      "outputs": [
        {
          "name": "IHaveVoted",
          "type": "bool"
        }
      ],
      "payable": false,
      "stateMutability": "view",
      "type": "function"
    },
    {
      "constant": true,
      "inputs": [],
      "name": "votingPeriodDuration",
      "outputs": [
        {
          "name": "",
          "type": "uint256"
        }
      ],
      "payable": false,
      "stateMutability": "view",
      "type": "function"
    },
    {
      "constant": false,
      "inputs": [
        {
          "name": "_propositionNumber",
          "type": "uint256"
        },
        {
          "name": "_acceptProposition",
          "type": "bool"
        }
      ],
      "name": "vote",
      "outputs": [],
      "payable": false,
      "stateMutability": "nonpayable",
      "type": "function"
    },
    {
      "constant": true,
      "inputs": [
        {
          "name": "_userAddress",
          "type": "address"
        }
      ],
      "name": "getPropositionsCreatedByUser",
      "outputs": [
        {
          "name": "",
          "type": "uint256[]"
        }
      ],
      "payable": false,
      "stateMutability": "view",
      "type": "function"
    },
    {
      "constant": true,
      "inputs": [
        {
          "name": "",
          "type": "uint256"
        }
      ],
      "name": "propositionsWaitingPromulgation",
      "outputs": [
        {
          "name": "",
          "type": "bool"
        }
      ],
      "payable": false,
      "stateMutability": "view",
      "type": "function"
    },
    {
      "constant": true,
      "inputs": [],
      "name": "promulgationPeriodDuration",
      "outputs": [
        {
          "name": "",
          "type": "uint256"
        }
      ],
      "payable": false,
      "stateMutability": "view",
      "type": "function"
    },
    {
      "constant": true,
      "inputs": [],
      "name": "votersOrganContract",
      "outputs": [
        {
          "name": "",
          "type": "address"
        }
      ],
      "payable": false,
      "stateMutability": "view",
      "type": "function"
    },
    {
      "constant": true,
      "inputs": [
        {
          "name": "_propositionNumber",
          "type": "uint256"
        }
      ],
      "name": "getPropositionDates",
      "outputs": [
        {
          "name": "_startDate",
          "type": "uint256"
        },
        {
          "name": "_votingPeriodEndDate",
          "type": "uint256"
        },
        {
          "name": "_promulgatorWindowEndDate",
          "type": "uint256"
        }
      ],
      "payable": false,
      "stateMutability": "view",
      "type": "function"
    },
    {
      "constant": false,
      "inputs": [
        {
          "name": "_propositionNumber",
          "type": "uint256"
        },
        {
          "name": "_promulgate",
          "type": "bool"
        }
      ],
      "name": "promulgateProposition",
      "outputs": [],
      "payable": false,
      "stateMutability": "nonpayable",
      "type": "function"
    },
    {
      "constant": true,
      "inputs": [
        {
          "name": "",
          "type": "address"
        },
        {
          "name": "",
          "type": "uint256"
        }
      ],
      "name": "propositionToVetoer",
      "outputs": [
        {
          "name": "",
          "type": "uint256"
        }
      ],
      "payable": false,
      "stateMutability": "view",
      "type": "function"
    },
    {
      "constant": false,
      "inputs": [
        {
          "name": "_propositionNumber",
          "type": "uint256"
        }
      ],
      "name": "endPropositionVote",
      "outputs": [
        {
          "name": "hasBeenAccepted",
          "type": "bool"
        }
      ],
      "payable": false,
      "stateMutability": "nonpayable",
      "type": "function"
    },
    {
      "constant": true,
      "inputs": [
        {
          "name": "",
          "type": "uint256"
        }
      ],
      "name": "propositionsWaitingEndOfVote",
      "outputs": [
        {
          "name": "",
          "type": "bool"
        }
      ],
      "payable": false,
      "stateMutability": "view",
      "type": "function"
    },
    {
      "constant": true,
      "inputs": [],
      "name": "isAProcedure",
      "outputs": [
        {
          "name": "",
          "type": "bool"
        }
      ],
      "payable": false,
      "stateMutability": "view",
      "type": "function"
    },
    {
      "constant": true,
      "inputs": [],
      "name": "requiredMajorityDenominator",
      "outputs": [
        {
          "name": "",
          "type": "uint256"
        }
      ],
      "payable": false,
      "stateMutability": "view",
      "type": "function"
    },
    {
      "constant": true,
      "inputs": [],
      "name": "affectedOrganContract",
      "outputs": [
        {
          "name": "",
          "type": "address"
        }
      ],
      "payable": false,
      "stateMutability": "view",
      "type": "function"
    },
    {
      "inputs": [
        {
          "name": "_affectedOrganContract",
          "type": "address"
        },
        {
          "name": "_votersOrganContract",
          "type": "address"
        },
        {
          "name": "_membersWithVetoOrganContract",
          "type": "address"
        },
        {
          "name": "_finalPromulgatorsOrganContract",
          "type": "address"
        },
        {
          "name": "_quorumSize",
          "type": "uint256"
        },
        {
          "name": "_votingPeriodDuration",
          "type": "uint256"
        },
        {
          "name": "_promulgationPeriodDuration",
          "type": "uint256"
        }
      ],
      "payable": false,
      "stateMutability": "nonpayable",
      "type": "constructor"
    },
    {
      "anonymous": false,
      "inputs": [
        {
          "indexed": false,
          "name": "_from",
          "type": "address"
        },
        {
          "indexed": false,
          "name": "_contractToAdd",
          "type": "address"
        },
        {
          "indexed": false,
          "name": "_contractToRemove",
          "type": "address"
        },
        {
          "indexed": false,
          "name": "_ipfsHash",
          "type": "bytes32"
        },
        {
          "indexed": false,
          "name": "_hash_function",
          "type": "uint8"
        },
        {
          "indexed": false,
          "name": "_size",
          "type": "uint8"
        }
      ],
      "name": "createPropositionEvent",
      "type": "event"
    },
    {
      "anonymous": false,
      "inputs": [
        {
          "indexed": false,
          "name": "_from",
          "type": "address"
        },
        {
          "indexed": false,
          "name": "_propositionNumber",
          "type": "uint256"
        }
      ],
      "name": "voteOnProposition",
      "type": "event"
    },
    {
      "anonymous": false,
      "inputs": [
        {
          "indexed": false,
          "name": "_from",
          "type": "address"
        },
        {
          "indexed": false,
          "name": "_propositionNumber",
          "type": "uint256"
        }
      ],
      "name": "vetoProposition",
      "type": "event"
    },
    {
      "anonymous": false,
      "inputs": [
        {
          "indexed": false,
          "name": "_from",
          "type": "address"
        },
        {
          "indexed": false,
          "name": "_propositionNumber",
          "type": "uint256"
        }
      ],
      "name": "countVotes",
      "type": "event"
    },
    {
      "anonymous": false,
      "inputs": [
        {
          "indexed": false,
          "name": "_from",
          "type": "address"
        },
        {
          "indexed": false,
          "name": "_propositionNumber",
          "type": "uint256"
        },
        {
          "indexed": false,
          "name": "_promulgate",
          "type": "bool"
        }
      ],
      "name": "promulgatePropositionEvent",
      "type": "event"
    }
  ],
  "bytecode": "0x60606040526000600360006101000a81548160ff0219169083151502179055506001600360016101000a81548160ff0219169083151502179055506005600455341561004a57600080fd5b60405160e0806136e88339810160405280805190602001909190805190602001909190805190602001909190805190602001909190805190602001909190805190602001909190805190602001909190505086600560006101000a81548173ffffffffffffffffffffffffffffffffffffffff021916908373ffffffffffffffffffffffffffffffffffffffff16021790555085600660006101000a81548173ffffffffffffffffffffffffffffffffffffffff021916908373ffffffffffffffffffffffffffffffffffffffff16021790555084600760006101000a81548173ffffffffffffffffffffffffffffffffffffffff021916908373ffffffffffffffffffffffffffffffffffffffff16021790555083600860006101000a81548173ffffffffffffffffffffffffffffffffffffffff021916908373ffffffffffffffffffffffffffffffffffffffff16021790555082600b819055508160098190555080600a81905550600160008190555050505050505050613515806101d36000396000f3006060604052600436106101ac576000357c0100000000000000000000000000000000000000000000000000000000900463ffffffff1680630366af3d146101b157806305cf0057146101f757806307e7a224146102855780630b2e34b0146103135780631d28dec7146103695780632647d7f91461038c5780633068ef4d146103b557806337443feb146103de5780633c0848ee146105095780635332eea1146105975780635dbe4d28146105ed57806364cdd61e146106165780636a0ce3aa1461066b5780636a95d38d1461073f57806375ff60c41461079a578063880d3f54146107f05780638f3b07a4146108455780639b88fba71461086e578063a8bef97a14610897578063ac37af1c146108c4578063b5fdb88e146108ff578063c9d27afe14610928578063cb20a2fd14610956578063cd43eb1f146109e4578063cd87c2b614610a1f578063ce784b7714610a48578063ce88840314610a9d578063d64ff06314610ae2578063d858849414610b10578063e09ecb8714610b66578063e36f6e4e14610ba1578063e80b30a514610bdc578063eb9141e914610c09578063fe7800e114610c32575b600080fd5b34156101bc57600080fd5b6101d26004808035906020019091905050610c87565b6040518083151515158152602001821515151581526020019250505060405180910390f35b341561020257600080fd5b61022e600480803573ffffffffffffffffffffffffffffffffffffffff16906020019091905050610cef565b6040518080602001828103825283818151815260200191508051906020019060200280838360005b83811015610271578082015181840152602081019050610256565b505050509050019250505060405180910390f35b341561029057600080fd5b6102bc600480803573ffffffffffffffffffffffffffffffffffffffff16906020019091905050610d8c565b6040518080602001828103825283818151815260200191508051906020019060200280838360005b838110156102ff5780820151818401526020810190506102e4565b505050509050019250505060405180910390f35b341561031e57600080fd5b610353600480803573ffffffffffffffffffffffffffffffffffffffff16906020019091908035906020019091905050610e29565b6040518082815260200191505060405180910390f35b341561037457600080fd5b61038a6004808035906020019091905050610e5a565b005b341561039757600080fd5b61039f6110c4565b6040518082815260200191505060405180910390f35b34156103c057600080fd5b6103c86110ca565b6040518082815260200191505060405180910390f35b34156103e957600080fd5b6103ff60048080359060200190919050506110d0565b604051808773ffffffffffffffffffffffffffffffffffffffff1673ffffffffffffffffffffffffffffffffffffffff1681526020018673ffffffffffffffffffffffffffffffffffffffff1673ffffffffffffffffffffffffffffffffffffffff16815260200185600019166000191681526020018460ff1660ff1681526020018360ff1660ff16815260200180602001828103825283818151815260200191508051906020019080838360005b838110156104c95780820151818401526020810190506104ae565b50505050905090810190601f1680156104f65780820380516001836020036101000a031916815260200191505b5097505050505050505060405180910390f35b341561051457600080fd5b610540600480803573ffffffffffffffffffffffffffffffffffffffff169060200190919050506112b0565b6040518080602001828103825283818151815260200191508051906020019060200280838360005b83811015610583578082015181840152602081019050610568565b505050509050019250505060405180910390f35b34156105a257600080fd5b6105d7600480803573ffffffffffffffffffffffffffffffffffffffff1690602001909190803590602001909190505061134d565b6040518082815260200191505060405180910390f35b34156105f857600080fd5b61060061137e565b6040518082815260200191505060405180910390f35b341561062157600080fd5b610629611384565b604051808273ffffffffffffffffffffffffffffffffffffffff1673ffffffffffffffffffffffffffffffffffffffff16815260200191505060405180910390f35b341561067657600080fd5b610729600480803573ffffffffffffffffffffffffffffffffffffffff1690602001909190803573ffffffffffffffffffffffffffffffffffffffff169060200190919080356000191690602001909190803560ff1690602001909190803560ff1690602001909190803590602001908201803590602001908080601f016020809104026020016040519081016040528093929190818152602001838380828437820191505050505050919050506113aa565b6040518082815260200191505060405180910390f35b341561074a57600080fd5b61076060048080359060200190919050506119bf565b6040518086815260200185815260200184815260200183151515158152602001821515151581526020019550505050505060405180910390f35b34156107a557600080fd5b6107da600480803573ffffffffffffffffffffffffffffffffffffffff16906020019091908035906020019091905050611ad2565b6040518082815260200191505060405180910390f35b34156107fb57600080fd5b610803611b03565b604051808273ffffffffffffffffffffffffffffffffffffffff1673ffffffffffffffffffffffffffffffffffffffff16815260200191505060405180910390f35b341561085057600080fd5b610858611b29565b6040518082815260200191505060405180910390f35b341561087957600080fd5b610881611b2f565b6040518082815260200191505060405180910390f35b34156108a257600080fd5b6108aa611b35565b604051808215151515815260200191505060405180910390f35b34156108cf57600080fd5b6108e56004808035906020019091905050611b48565b604051808215151515815260200191505060405180910390f35b341561090a57600080fd5b610912611bbc565b6040518082815260200191505060405180910390f35b341561093357600080fd5b61095460048080359060200190919080351515906020019091905050611bc2565b005b341561096157600080fd5b61098d600480803573ffffffffffffffffffffffffffffffffffffffff16906020019091905050611f4d565b6040518080602001828103825283818151815260200191508051906020019060200280838360005b838110156109d05780820151818401526020810190506109b5565b505050509050019250505060405180910390f35b34156109ef57600080fd5b610a056004808035906020019091905050611fea565b604051808215151515815260200191505060405180910390f35b3415610a2a57600080fd5b610a3261201d565b6040518082815260200191505060405180910390f35b3415610a5357600080fd5b610a5b612023565b604051808273ffffffffffffffffffffffffffffffffffffffff1673ffffffffffffffffffffffffffffffffffffffff16815260200191505060405180910390f35b3415610aa857600080fd5b610abe6004808035906020019091905050612049565b60405180848152602001838152602001828152602001935050505060405180910390f35b3415610aed57600080fd5b610b0e600480803590602001909190803515159060200190919050506120c2565b005b3415610b1b57600080fd5b610b50600480803573ffffffffffffffffffffffffffffffffffffffff16906020019091908035906020019091905050612d00565b6040518082815260200191505060405180910390f35b3415610b7157600080fd5b610b876004808035906020019091905050612d31565b604051808215151515815260200191505060405180910390f35b3415610bac57600080fd5b610bc260048080359060200190919050506130e6565b604051808215151515815260200191505060405180910390f35b3415610be757600080fd5b610bef613119565b604051808215151515815260200191505060405180910390f35b3415610c1457600080fd5b610c1c61312c565b6040518082815260200191505060405180910390f35b3415610c3d57600080fd5b610c45613132565b604051808273ffffffffffffffffffffffffffffffffffffffff1673ffffffffffffffffffffffffffffffffffffffff16815260200191505060405180910390f35b600080600f83815481101515610c9957fe5b90600052602060002090600b020160080160019054906101000a900460ff16600f84815481101515610cc757fe5b90600052602060002090600b020160080160039054906101000a900460ff1691509150915091565b610cf7613158565b601360008373ffffffffffffffffffffffffffffffffffffffff1673ffffffffffffffffffffffffffffffffffffffff168152602001908152602001600020805480602002602001604051908101604052809291908181526020018280548015610d8057602002820191906000526020600020905b815481526020019060010190808311610d6c575b50505050509050919050565b610d94613158565b601560008373ffffffffffffffffffffffffffffffffffffffff1673ffffffffffffffffffffffffffffffffffffffff168152602001908152602001600020805480602002602001604051908101604052809291908181526020018280548015610e1d57602002820191906000526020600020905b815481526020019060010190808311610e09575b50505050509050919050565b601260205281600052604060002081815481101515610e4457fe5b9060005260206000209001600091509150505481565b6000600760009054906101000a900473ffffffffffffffffffffffffffffffffffffffff1690508073ffffffffffffffffffffffffffffffffffffffff1663d323a4f8336000604051602001526040518263ffffffff167c0100000000000000000000000000000000000000000000000000000000028152600401808273ffffffffffffffffffffffffffffffffffffffff1673ffffffffffffffffffffffffffffffffffffffff168152602001915050602060405180830381600087803b1515610f2457600080fd5b6102c65a03f11515610f3557600080fd5b505050604051805190501515610f4a57600080fd5b60009050600f82815481101515610f5d57fe5b90600052602060002090600b020160080160019054906101000a900460ff16151515610f8857600080fd5b42600f83815481101515610f9857fe5b90600052602060002090600b020160070154111515610fb657600080fd5b6001600f83815481101515610fc757fe5b90600052602060002090600b020160080160006101000a81548160ff021916908315150217905550601460003373ffffffffffffffffffffffffffffffffffffffff1673ffffffffffffffffffffffffffffffffffffffff1681526020019081526020016000208054806001018281611040919061316c565b9160005260206000209001600084909190915055507f62901d9c2f788a5c877cf5a2659a041eedf9a980c6dd3ed22a4878bcc228619b3383604051808373ffffffffffffffffffffffffffffffffffffffff1673ffffffffffffffffffffffffffffffffffffffff1681526020018281526020019250505060405180910390a15050565b60045481565b600b5481565b60008060008060006110e0613198565b600f878154811015156110ef57fe5b90600052602060002090600b020160000160009054906101000a900473ffffffffffffffffffffffffffffffffffffffff16600f8881548110151561113057fe5b90600052602060002090600b020160010160009054906101000a900473ffffffffffffffffffffffffffffffffffffffff16600f8981548110151561117157fe5b90600052602060002090600b020160020154600f8a81548110151561119257fe5b90600052602060002090600b020160030160009054906101000a900460ff16600f8b8154811015156111c057fe5b90600052602060002090600b020160030160019054906101000a900460ff16600f8c8154811015156111ee57fe5b90600052602060002090600b0201600401808054600181600116156101000203166002900480601f0160208091040260200160405190810160405280929190818152602001828054600181600116156101000203166002900480156112945780601f1061126957610100808354040283529160200191611294565b820191906000526020600020905b81548152906001019060200180831161127757829003601f168201915b5050505050905095509550955095509550955091939550919395565b6112b8613158565b601460008373ffffffffffffffffffffffffffffffffffffffff1673ffffffffffffffffffffffffffffffffffffffff16815260200190815260200160002080548060200260200160405190810160405280929190818152602001828054801561134157602002820191906000526020600020905b81548152602001906001019080831161132d575b50505050509050919050565b60156020528160005260406000208181548110151561136857fe5b9060005260206000209001600091509150505481565b60005481565b600760009054906101000a900473ffffffffffffffffffffffffffffffffffffffff1681565b6000806113b56131ac565b600660009054906101000a900473ffffffffffffffffffffffffffffffffffffffff1691508173ffffffffffffffffffffffffffffffffffffffff1663d323a4f8336000604051602001526040518263ffffffff167c0100000000000000000000000000000000000000000000000000000000028152600401808273ffffffffffffffffffffffffffffffffffffffff1673ffffffffffffffffffffffffffffffffffffffff168152602001915050602060405180830381600087803b151561147d57600080fd5b6102c65a03f1151561148e57600080fd5b5050506040518051905015156114a357600080fd5b6000915088816000019073ffffffffffffffffffffffffffffffffffffffff16908173ffffffffffffffffffffffffffffffffffffffff168152505087816020019073ffffffffffffffffffffffffffffffffffffffff16908173ffffffffffffffffffffffffffffffffffffffff1681525050868160400190600019169081600019168152505085816060019060ff16908160ff168152505084816080019060ff16908160ff1681525050838160a00181905250428160c001818152505060095442018160e00181815250506000816101000190151590811515815250506000816101600190151590811515815250506000816101200190151590811515815250506000816101400190151590811515815250506000816101a0018181525050600081610180018181525050600f80548060010182816115e4919061325f565b91600052602060002090600b0201600083909190915060008201518160000160006101000a81548173ffffffffffffffffffffffffffffffffffffffff021916908373ffffffffffffffffffffffffffffffffffffffff16021790555060208201518160010160006101000a81548173ffffffffffffffffffffffffffffffffffffffff021916908373ffffffffffffffffffffffffffffffffffffffff1602179055506040820151816002019060001916905560608201518160030160006101000a81548160ff021916908360ff16021790555060808201518160030160016101000a81548160ff021916908360ff16021790555060a08201518160040190805190602001906116f6929190613291565b5060c0820151816006015560e082015181600701556101008201518160080160006101000a81548160ff0219169083151502179055506101208201518160080160016101000a81548160ff0219169083151502179055506101408201518160080160026101000a81548160ff0219169083151502179055506101608201518160080160036101000a81548160ff02191690831515021790555061018082015181600901556101a082015181600a01555050506117b06131ac565b90506001600f805490500392506001600c60008282540192505081905550601260003373ffffffffffffffffffffffffffffffffffffffff1673ffffffffffffffffffffffffffffffffffffffff168152602001908152602001600020805480600101828161181f919061316c565b916000526020600020900160008590919091505550601080548060010182816118489190613311565b91600052602060002090602091828204019190066001909190916101000a81548160ff021916908315150217905550506011805480600101828161188c9190613311565b91600052602060002090602091828204019190066000909190916101000a81548160ff021916908315150217905550507fcbae1a68d02d2d9470bb1902dd80b406384bbcba468813051691b7ae8af0baa9338a8a8a8a8a604051808773ffffffffffffffffffffffffffffffffffffffff1673ffffffffffffffffffffffffffffffffffffffff1681526020018673ffffffffffffffffffffffffffffffffffffffff1673ffffffffffffffffffffffffffffffffffffffff1681526020018573ffffffffffffffffffffffffffffffffffffffff1673ffffffffffffffffffffffffffffffffffffffff16815260200184600019166000191681526020018360ff1660ff1681526020018260ff1660ff168152602001965050505050505060405180910390a150509695505050505050565b6000806000806000600f868154811015156119d657fe5b90600052602060002090600b020160080160019054906101000a900460ff161515611a0057600080fd5b600f86815481101515611a0f57fe5b90600052602060002090600b020160060154600f87815481101515611a3057fe5b90600052602060002090600b0201600a0154600f88815481101515611a5157fe5b90600052602060002090600b020160090154600f89815481101515611a7257fe5b90600052602060002090600b020160080160009054906101000a900460ff16600f8a815481101515611aa057fe5b90600052602060002090600b020160080160029054906101000a900460ff169450945094509450945091939590929450565b601360205281600052604060002081815481101515611aed57fe5b9060005260206000209001600091509150505481565b600860009054906101000a900473ffffffffffffffffffffffffffffffffffffffff1681565b600c5481565b600d5481565b600360009054906101000a900460ff1681565b6000600f82815481101515611b5957fe5b90600052602060002090600b020160050160003373ffffffffffffffffffffffffffffffffffffffff1673ffffffffffffffffffffffffffffffffffffffff16815260200190815260200160002060009054906101000a900460ff169050919050565b60095481565b6000600660009054906101000a900473ffffffffffffffffffffffffffffffffffffffff1690508073ffffffffffffffffffffffffffffffffffffffff1663d323a4f8336000604051602001526040518263ffffffff167c0100000000000000000000000000000000000000000000000000000000028152600401808273ffffffffffffffffffffffffffffffffffffffff1673ffffffffffffffffffffffffffffffffffffffff168152602001915050602060405180830381600087803b1515611c8c57600080fd5b6102c65a03f11515611c9d57600080fd5b505050604051805190501515611cb257600080fd5b60009050600f83815481101515611cc557fe5b90600052602060002090600b020160050160003373ffffffffffffffffffffffffffffffffffffffff1673ffffffffffffffffffffffffffffffffffffffff16815260200190815260200160002060009054906101000a900460ff16151515611d2d57600080fd5b600f83815481101515611d3c57fe5b90600052602060002090600b020160080160019054906101000a900460ff16151515611d6757600080fd5b42600f84815481101515611d7757fe5b90600052602060002090600b020160070154111515611d9557600080fd5b600115158215151415611dd2576001600f84815481101515611db357fe5b90600052602060002090600b0201600901600082825401925050819055505b6001600f84815481101515611de357fe5b90600052602060002090600b020160050160003373ffffffffffffffffffffffffffffffffffffffff1673ffffffffffffffffffffffffffffffffffffffff16815260200190815260200160002060006101000a81548160ff0219169083151502179055506001600f84815481101515611e5957fe5b90600052602060002090600b0201600a0160008282540192505081905550601360003373ffffffffffffffffffffffffffffffffffffffff1673ffffffffffffffffffffffffffffffffffffffff1681526020019081526020016000208054806001018281611ec8919061316c565b9160005260206000209001600085909190915055507fd1faddd599b0d6b58c83de71d7ff5395895b5891894dcd37f2482f33b2a1c43d3384604051808373ffffffffffffffffffffffffffffffffffffffff1673ffffffffffffffffffffffffffffffffffffffff1681526020018281526020019250505060405180910390a1505050565b611f55613158565b601260008373ffffffffffffffffffffffffffffffffffffffff1673ffffffffffffffffffffffffffffffffffffffff168152602001908152602001600020805480602002602001604051908101604052809291908181526020018280548015611fde57602002820191906000526020600020905b815481526020019060010190808311611fca575b50505050509050919050565b601181815481101515611ff957fe5b9060005260206000209060209182820401919006915054906101000a900460ff1681565b600a5481565b600660009054906101000a900473ffffffffffffffffffffffffffffffffffffffff1681565b6000806000600f8481548110151561205d57fe5b90600052602060002090600b020160060154600f8581548110151561207e57fe5b90600052602060002090600b020160070154600a54600f878154811015156120a257fe5b90600052602060002090600b020160070154019250925092509193909250565b600080600f848154811015156120d457fe5b90600052602060002090600b020160080160039054906101000a900460ff161515156120ff57600080fd5b600f8481548110151561210e57fe5b90600052602060002090600b020160080160019054906101000a900460ff16151561213857600080fd5b600a54600f8581548110151561214a57fe5b90600052602060002090600b0201600701540142101561225b57600860009054906101000a900473ffffffffffffffffffffffffffffffffffffffff1691508173ffffffffffffffffffffffffffffffffffffffff1663d323a4f8336000604051602001526040518263ffffffff167c0100000000000000000000000000000000000000000000000000000000028152600401808273ffffffffffffffffffffffffffffffffffffffff1673ffffffffffffffffffffffffffffffffffffffff168152602001915050602060405180830381600087803b151561222c57600080fd5b6102c65a03f1151561223d57600080fd5b50505060405180519050151561225257600080fd5b60009150612268565b82151561226757600080fd5b5b600f8481548110151561227757fe5b90600052602060002090600b020160080160029054906101000a900460ff1615156122a157600080fd5b82158061236657506000600f858154811015156122ba57fe5b90600052602060002090600b020160000160009054906101000a900473ffffffffffffffffffffffffffffffffffffffff1673ffffffffffffffffffffffffffffffffffffffff1614801561236557506000600f8581548110151561231b57fe5b90600052602060002090600b020160010160009054906101000a900473ffffffffffffffffffffffffffffffffffffffff1673ffffffffffffffffffffffffffffffffffffffff16145b5b156123a9576001600f8581548110151561237c57fe5b90600052602060002090600b020160080160036101000a81548160ff021916908315150217905550612baa565b600560009054906101000a900473ffffffffffffffffffffffffffffffffffffffff1690506000600f858154811015156123df57fe5b90600052602060002090600b020160000160009054906101000a900473ffffffffffffffffffffffffffffffffffffffff1673ffffffffffffffffffffffffffffffffffffffff16141515612a29576000600f8581548110151561243f57fe5b90600052602060002090600b020160010160009054906101000a900473ffffffffffffffffffffffffffffffffffffffff1673ffffffffffffffffffffffffffffffffffffffff161415156127d5578073ffffffffffffffffffffffffffffffffffffffff1663cd26b87b8273ffffffffffffffffffffffffffffffffffffffff16635549ea51600f888154811015156124d557fe5b90600052602060002090600b020160010160009054906101000a900473ffffffffffffffffffffffffffffffffffffffff166000604051602001526040518263ffffffff167c0100000000000000000000000000000000000000000000000000000000028152600401808273ffffffffffffffffffffffffffffffffffffffff1673ffffffffffffffffffffffffffffffffffffffff168152602001915050602060405180830381600087803b151561258d57600080fd5b6102c65a03f1151561259e57600080fd5b50505060405180519050600f878154811015156125b757fe5b90600052602060002090600b020160000160009054906101000a900473ffffffffffffffffffffffffffffffffffffffff16600f888154811015156125f857fe5b90600052602060002090600b0201600401600f8981548110151561261857fe5b90600052602060002090600b020160020154600f8a81548110151561263957fe5b90600052602060002090600b020160030160009054906101000a900460ff16600f8b81548110151561266757fe5b90600052602060002090600b020160030160019054906101000a900460ff166040518763ffffffff167c0100000000000000000000000000000000000000000000000000000000028152600401808781526020018673ffffffffffffffffffffffffffffffffffffffff1673ffffffffffffffffffffffffffffffffffffffff1681526020018060200185600019166000191681526020018460ff1660ff1681526020018360ff1660ff1681526020018281038252868181546001816001161561010002031660029004815260200191508054600181600116156101000203166002900480156127985780601f1061276d57610100808354040283529160200191612798565b820191906000526020600020905b81548152906001019060200180831161277b57829003601f168201915b5050975050505050505050600060405180830381600087803b15156127bc57600080fd5b6102c65a03f115156127cd57600080fd5b505050612a24565b8073ffffffffffffffffffffffffffffffffffffffff1663696c5219600f8681548110151561280057fe5b90600052602060002090600b020160000160009054906101000a900473ffffffffffffffffffffffffffffffffffffffff16600f8781548110151561284157fe5b90600052602060002090600b0201600401600f8881548110151561286157fe5b90600052602060002090600b020160020154600f8981548110151561288257fe5b90600052602060002090600b020160030160009054906101000a900460ff16600f8a8154811015156128b057fe5b90600052602060002090600b020160030160019054906101000a900460ff166000604051602001526040518663ffffffff167c0100000000000000000000000000000000000000000000000000000000028152600401808673ffffffffffffffffffffffffffffffffffffffff1673ffffffffffffffffffffffffffffffffffffffff1681526020018060200185600019166000191681526020018460ff1660ff1681526020018360ff1660ff1681526020018281038252868181546001816001161561010002031660029004815260200191508054600181600116156101000203166002900480156129e45780601f106129b9576101008083540402835291602001916129e4565b820191906000526020600020905b8154815290600101906020018083116129c757829003601f168201915b50509650505050505050602060405180830381600087803b1515612a0757600080fd5b6102c65a03f11515612a1857600080fd5b50505060405180519050505b612ba9565b8073ffffffffffffffffffffffffffffffffffffffff16630e9defff8273ffffffffffffffffffffffffffffffffffffffff16635549ea51600f88815481101515612a7057fe5b90600052602060002090600b020160010160009054906101000a900473ffffffffffffffffffffffffffffffffffffffff166000604051602001526040518263ffffffff167c0100000000000000000000000000000000000000000000000000000000028152600401808273ffffffffffffffffffffffffffffffffffffffff1673ffffffffffffffffffffffffffffffffffffffff168152602001915050602060405180830381600087803b1515612b2857600080fd5b6102c65a03f11515612b3957600080fd5b505050604051805190506040518263ffffffff167c010000000000000000000000000000000000000000000000000000000002815260040180828152602001915050600060405180830381600087803b1515612b9457600080fd5b6102c65a03f11515612ba557600080fd5b5050505b5b6001600f85815481101515612bbb57fe5b90600052602060002090600b020160080160036101000a81548160ff0219169083151502179055506000601185815481101515612bf457fe5b90600052602060002090602091828204019190066101000a81548160ff021916908315150217905550601560003373ffffffffffffffffffffffffffffffffffffffff1673ffffffffffffffffffffffffffffffffffffffff1681526020019081526020016000208054806001018281612c6e919061316c565b9160005260206000209001600086909190915055507fed7c73834db4ae22add7f637175d8a32a1dddae4c154ccd25195b77df4c8d18d338585604051808473ffffffffffffffffffffffffffffffffffffffff1673ffffffffffffffffffffffffffffffffffffffff16815260200183815260200182151515158152602001935050505060405180910390a150505050565b601460205281600052604060002081815481101515612d1b57fe5b9060005260206000209001600091509150505481565b600080600f83815481101515612d4357fe5b90600052602060002090600b020160080160019054906101000a900460ff16151515612d6e57600080fd5b42600f84815481101515612d7e57fe5b90600052602060002090600b020160070154101515612d9c57600080fd5b600660009054906101000a900473ffffffffffffffffffffffffffffffffffffffff169050600f83815481101515612dd057fe5b90600052602060002090600b020160080160009054906101000a900460ff1615612e3657600091506001600f84815481101515612e0957fe5b90600052602060002090600b020160080160036101000a81548160ff021916908315150217905550612f90565b8073ffffffffffffffffffffffffffffffffffffffff1663234d34de6000604051602001526040518163ffffffff167c0100000000000000000000000000000000000000000000000000000000028152600401602060405180830381600087803b1515612ea257600080fd5b6102c65a03f11515612eb357600080fd5b50505060405180519050600b54026064600f85815481101515612ed257fe5b90600052602060002090600b0201600a01540210158015612f435750600f83815481101515612efd57fe5b90600052602060002090600b0201600a0154600d54600e54600f86815481101515612f2457fe5b90600052602060002090600b02016009015402811515612f4057fe5b04115b15612f515760019150612f8f565b600091506001600f84815481101515612f6657fe5b90600052602060002090600b020160080160036101000a81548160ff0219169083151502179055505b5b6001600f84815481101515612fa157fe5b90600052602060002090600b020160080160016101000a81548160ff02191690831515021790555081600f84815481101515612fd957fe5b90600052602060002090600b020160080160026101000a81548160ff021916908315150217905550600060108481548110151561301257fe5b90600052602060002090602091828204019190066101000a81548160ff021916908315150217905550600160118481548110151561304c57fe5b90600052602060002090602091828204019190066101000a81548160ff0219169083151502179055507f297f1f08d2ef8c90272f7ee3e1d4272015a96cdff8a252b60547b9e432e723603384604051808373ffffffffffffffffffffffffffffffffffffffff1673ffffffffffffffffffffffffffffffffffffffff1681526020018281526020019250505060405180910390a150919050565b6010818154811015156130f557fe5b9060005260206000209060209182820401919006915054906101000a900460ff1681565b600360019054906101000a900460ff1681565b600e5481565b600560009054906101000a900473ffffffffffffffffffffffffffffffffffffffff1681565b602060405190810160405280600081525090565b81548183558181151161319357818360005260206000209182019101613192919061334b565b5b505050565b602060405190810160405280600081525090565b6101c060405190810160405280600073ffffffffffffffffffffffffffffffffffffffff168152602001600073ffffffffffffffffffffffffffffffffffffffff16815260200160008019168152602001600060ff168152602001600060ff168152602001613219613370565b8152602001600081526020016000815260200160001515815260200160001515815260200160001515815260200160001515815260200160008152602001600081525090565b81548183558181151161328c57600b0281600b02836000526020600020918201910161328b9190613384565b5b505050565b828054600181600116156101000203166002900490600052602060002090601f016020900481019282601f106132d257805160ff1916838001178555613300565b82800160010185558215613300579182015b828111156132ff5782518255916020019190600101906132e4565b5b50905061330d919061334b565b5090565b81548183558181151161334657601f016020900481601f01602090048360005260206000209182019101613345919061334b565b5b505050565b61336d91905b80821115613369576000816000905550600101613351565b5090565b90565b602060405190810160405280600081525090565b61349e91905b8082111561349a57600080820160006101000a81549073ffffffffffffffffffffffffffffffffffffffff02191690556001820160006101000a81549073ffffffffffffffffffffffffffffffffffffffff021916905560028201600090556003820160006101000a81549060ff02191690556003820160016101000a81549060ff021916905560048201600061342191906134a1565b600682016000905560078201600090556008820160006101000a81549060ff02191690556008820160016101000a81549060ff02191690556008820160026101000a81549060ff02191690556008820160036101000a81549060ff02191690556009820160009055600a82016000905550600b0161338a565b5090565b90565b50805460018160011615610100020316600290046000825580601f106134c757506134e6565b601f0160209004906000526020600020908101906134e5919061334b565b5b505600a165627a7a7230582038020107e8d992b41d17987cbe15aec71ed6839424e4df97370d6b77dcc9f8140029",
  "source": "pragma solidity ^0.4.11;\n\n// Standard contract for a presidential election procedure\n\nimport \"../standardProcedure.sol\";\nimport \"../standardOrgan.sol\";\nimport \"../procedures/voteOnNormsProcedure.sol\";\n\n\n\n\ncontract deployVoteOnNormsProcedure is voteOnNormsProcedure {\n\nfunction deployVoteOnNormsProcedure (address _affectedOrganContract, address _votersOrganContract, address _membersWithVetoOrganContract, address _finalPromulgatorsOrganContract, uint _quorumSize, uint _votingPeriodDuration, uint _promulgationPeriodDuration) public {\n\n    affectedOrganContract = _affectedOrganContract;\n    votersOrganContract = _votersOrganContract;\n    membersWithVetoOrganContract = _membersWithVetoOrganContract;\n    finalPromulgatorsOrganContract = _finalPromulgatorsOrganContract; \n\n    quorumSize = _quorumSize;\n    // votingPeriodDuration = 3 minutes;\n    // promulgationPeriodDuration = 3 minutes;\n\n    votingPeriodDuration = _votingPeriodDuration;\n    promulgationPeriodDuration = _promulgationPeriodDuration;\n\n\n    kelsenVersionNumber = 1;\n\n    }\n}\n",
  "sourcePath": "/Users/henrilieutaud/Documents/Mes documents/97/Workshop/Kelsen/solidity/contracts/deploy/deployVoteOnNormsProcedure.sol",
  "compiler": {
    "name": "solc",
    "version": "0.4.19+commit.c4cbbb05.Emscripten.clang"
  },
  "schemaVersion": "2.0.0",
  "updatedAt": "2018-05-14T09:52:50.048Z"
}