{
  "contractName": "deployVoteOnAdminsAndMastersProcedure",
  "abi": [
    {
      "constant": true,
      "inputs": [
        {
          "name": "_propositionNumber",
          "type": "uint256"
        }
      ],
      "name": "getPropositionStatus",
      "outputs": [
        {
          "name": "_wasCounted",
          "type": "bool"
        },
        {
          "name": "_wasEnded",
          "type": "bool"
        }
      ],
      "payable": false,
      "stateMutability": "view",
      "type": "function"
    },
    {
      "constant": true,
      "inputs": [
        {
          "name": "_userAddress",
          "type": "address"
        }
      ],
      "name": "getPropositionsUsedByUser",
      "outputs": [
        {
          "name": "",
          "type": "uint256[]"
        }
      ],
      "payable": false,
      "stateMutability": "view",
      "type": "function"
    },
    {
      "constant": true,
      "inputs": [
        {
          "name": "_userAddress",
          "type": "address"
        }
      ],
      "name": "getPropositionsPromulgatedByUser",
      "outputs": [
        {
          "name": "",
          "type": "uint256[]"
        }
      ],
      "payable": false,
      "stateMutability": "view",
      "type": "function"
    },
    {
      "constant": true,
      "inputs": [
        {
          "name": "",
          "type": "address"
        },
        {
          "name": "",
          "type": "uint256"
        }
      ],
      "name": "propositionToUser",
      "outputs": [
        {
          "name": "",
          "type": "uint256"
        }
      ],
      "payable": false,
      "stateMutability": "view",
      "type": "function"
    },
    {
      "constant": false,
      "inputs": [
        {
          "name": "_targetOrgan",
          "type": "address"
        },
        {
          "name": "_contractToAdd",
          "type": "address"
        },
        {
          "name": "_contractToRemove",
          "type": "address"
        },
        {
          "name": "_ipfsHash",
          "type": "bytes32"
        },
        {
          "name": "_hash_function",
          "type": "uint8"
        },
        {
          "name": "_size",
          "type": "uint8"
        },
        {
          "name": "_name",
          "type": "string"
        },
        {
          "name": "_canAdd",
          "type": "bool"
        },
        {
          "name": "_canDelete",
          "type": "bool"
        },
        {
          "name": "_canDeposit",
          "type": "bool"
        },
        {
          "name": "_canSpend",
          "type": "bool"
        },
        {
          "name": "_propositionType",
          "type": "uint256"
        }
      ],
      "name": "createProposition",
      "outputs": [
        {
          "name": "propositionNumber",
          "type": "uint256"
        }
      ],
      "payable": false,
      "stateMutability": "nonpayable",
      "type": "function"
    },
    {
      "constant": false,
      "inputs": [
        {
          "name": "_propositionNumber",
          "type": "uint256"
        }
      ],
      "name": "veto",
      "outputs": [],
      "payable": false,
      "stateMutability": "nonpayable",
      "type": "function"
    },
    {
      "constant": true,
      "inputs": [],
      "name": "procedureTypeNumber",
      "outputs": [
        {
          "name": "",
          "type": "int256"
        }
      ],
      "payable": false,
      "stateMutability": "view",
      "type": "function"
    },
    {
      "constant": true,
      "inputs": [],
      "name": "quorumSize",
      "outputs": [
        {
          "name": "",
          "type": "uint256"
        }
      ],
      "payable": false,
      "stateMutability": "view",
      "type": "function"
    },
    {
      "constant": true,
      "inputs": [
        {
          "name": "_propositionNumber",
          "type": "uint256"
        }
      ],
      "name": "getPropositionDetails",
      "outputs": [
        {
          "name": "_addressToAdd",
          "type": "address"
        },
        {
          "name": "_addressToRemove",
          "type": "address"
        },
        {
          "name": "_canAdd",
          "type": "bool"
        },
        {
          "name": "_canDelete",
          "type": "bool"
        },
        {
          "name": "_canDeposit",
          "type": "bool"
        },
        {
          "name": "_canSpend",
          "type": "bool"
        },
        {
          "name": "_name",
          "type": "string"
        }
      ],
      "payable": false,
      "stateMutability": "view",
      "type": "function"
    },
    {
      "constant": true,
      "inputs": [
        {
          "name": "_userAddress",
          "type": "address"
        }
      ],
      "name": "getPropositionsVetoedByUser",
      "outputs": [
        {
          "name": "",
          "type": "uint256[]"
        }
      ],
      "payable": false,
      "stateMutability": "view",
      "type": "function"
    },
    {
      "constant": true,
      "inputs": [
        {
          "name": "_propositionNumber",
          "type": "uint256"
        }
      ],
      "name": "getPropositionDocumentation",
      "outputs": [
        {
          "name": "_addressToAdd",
          "type": "address"
        },
        {
          "name": "_addressToRemove",
          "type": "address"
        },
        {
          "name": "_ipfsHash",
          "type": "bytes32"
        },
        {
          "name": "_hash_function",
          "type": "uint8"
        },
        {
          "name": "_size",
          "type": "uint8"
        },
        {
          "name": "_propositionType",
          "type": "uint256"
        }
      ],
      "payable": false,
      "stateMutability": "view",
      "type": "function"
    },
    {
      "constant": true,
      "inputs": [
        {
          "name": "",
          "type": "address"
        },
        {
          "name": "",
          "type": "uint256"
        }
      ],
      "name": "propositionToPromulgator",
      "outputs": [
        {
          "name": "",
          "type": "uint256"
        }
      ],
      "payable": false,
      "stateMutability": "view",
      "type": "function"
    },
    {
      "constant": true,
      "inputs": [],
      "name": "kelsenVersionNumber",
      "outputs": [
        {
          "name": "",
          "type": "int256"
        }
      ],
      "payable": false,
      "stateMutability": "view",
      "type": "function"
    },
    {
      "constant": false,
      "inputs": [
        {
          "name": "_propositionNumber",
          "type": "uint256"
        }
      ],
      "name": "archiveDefunctProposition",
      "outputs": [],
      "payable": false,
      "stateMutability": "nonpayable",
      "type": "function"
    },
    {
      "constant": true,
      "inputs": [],
      "name": "membersWithVetoOrganContract",
      "outputs": [
        {
          "name": "",
          "type": "address"
        }
      ],
      "payable": false,
      "stateMutability": "view",
      "type": "function"
    },
    {
      "constant": true,
      "inputs": [
        {
          "name": "_propositionNumber",
          "type": "uint256"
        }
      ],
      "name": "getVotedPropositionResults",
      "outputs": [
        {
          "name": "_startDate",
          "type": "uint256"
        },
        {
          "name": "_totalVoteCount",
          "type": "uint256"
        },
        {
          "name": "_voteFor",
          "type": "uint256"
        },
        {
          "name": "_wasVetoed",
          "type": "bool"
        },
        {
          "name": "_wasAccepted",
          "type": "bool"
        }
      ],
      "payable": false,
      "stateMutability": "view",
      "type": "function"
    },
    {
      "constant": true,
      "inputs": [
        {
          "name": "",
          "type": "address"
        },
        {
          "name": "",
          "type": "uint256"
        }
      ],
      "name": "propositionToVoter",
      "outputs": [
        {
          "name": "",
          "type": "uint256"
        }
      ],
      "payable": false,
      "stateMutability": "view",
      "type": "function"
    },
    {
      "constant": true,
      "inputs": [],
      "name": "finalPromulgatorsOrganContract",
      "outputs": [
        {
          "name": "",
          "type": "address"
        }
      ],
      "payable": false,
      "stateMutability": "view",
      "type": "function"
    },
    {
      "constant": true,
      "inputs": [],
      "name": "totalPropositionNumber",
      "outputs": [
        {
          "name": "",
          "type": "uint256"
        }
      ],
      "payable": false,
      "stateMutability": "view",
      "type": "function"
    },
    {
      "constant": true,
      "inputs": [],
      "name": "majoritySize",
      "outputs": [
        {
          "name": "",
          "type": "uint256"
        }
      ],
      "payable": false,
      "stateMutability": "view",
      "type": "function"
    },
    {
      "constant": true,
      "inputs": [],
      "name": "isAnOrgan",
      "outputs": [
        {
          "name": "",
          "type": "bool"
        }
      ],
      "payable": false,
      "stateMutability": "view",
      "type": "function"
    },
    {
      "constant": true,
      "inputs": [
        {
          "name": "propositionNumber",
          "type": "uint256"
        }
      ],
      "name": "haveIVoted",
      "outputs": [
        {
          "name": "IHaveVoted",
          "type": "bool"
        }
      ],
      "payable": false,
      "stateMutability": "view",
      "type": "function"
    },
    {
      "constant": true,
      "inputs": [],
      "name": "votingPeriodDuration",
      "outputs": [
        {
          "name": "",
          "type": "uint256"
        }
      ],
      "payable": false,
      "stateMutability": "view",
      "type": "function"
    },
    {
      "constant": false,
      "inputs": [
        {
          "name": "_propositionNumber",
          "type": "uint256"
        },
        {
          "name": "_acceptProposition",
          "type": "bool"
        }
      ],
      "name": "vote",
      "outputs": [],
      "payable": false,
      "stateMutability": "nonpayable",
      "type": "function"
    },
    {
      "constant": true,
      "inputs": [
        {
          "name": "_userAddress",
          "type": "address"
        }
      ],
      "name": "getPropositionsCreatedByUser",
      "outputs": [
        {
          "name": "",
          "type": "uint256[]"
        }
      ],
      "payable": false,
      "stateMutability": "view",
      "type": "function"
    },
    {
      "constant": true,
      "inputs": [
        {
          "name": "",
          "type": "uint256"
        }
      ],
      "name": "propositionsWaitingPromulgation",
      "outputs": [
        {
          "name": "",
          "type": "bool"
        }
      ],
      "payable": false,
      "stateMutability": "view",
      "type": "function"
    },
    {
      "constant": true,
      "inputs": [],
      "name": "promulgationPeriodDuration",
      "outputs": [
        {
          "name": "",
          "type": "uint256"
        }
      ],
      "payable": false,
      "stateMutability": "view",
      "type": "function"
    },
    {
      "constant": true,
      "inputs": [],
      "name": "votersOrganContract",
      "outputs": [
        {
          "name": "",
          "type": "address"
        }
      ],
      "payable": false,
      "stateMutability": "view",
      "type": "function"
    },
    {
      "constant": true,
      "inputs": [
        {
          "name": "_propositionNumber",
          "type": "uint256"
        }
      ],
      "name": "getPropositionDates",
      "outputs": [
        {
          "name": "_startDate",
          "type": "uint256"
        },
        {
          "name": "_votingPeriodEndDate",
          "type": "uint256"
        },
        {
          "name": "_promulgatorWindowEndDate",
          "type": "uint256"
        }
      ],
      "payable": false,
      "stateMutability": "view",
      "type": "function"
    },
    {
      "constant": false,
      "inputs": [
        {
          "name": "_propositionNumber",
          "type": "uint256"
        },
        {
          "name": "_promulgate",
          "type": "bool"
        }
      ],
      "name": "promulgateProposition",
      "outputs": [],
      "payable": false,
      "stateMutability": "nonpayable",
      "type": "function"
    },
    {
      "constant": true,
      "inputs": [
        {
          "name": "",
          "type": "address"
        },
        {
          "name": "",
          "type": "uint256"
        }
      ],
      "name": "propositionToVetoer",
      "outputs": [
        {
          "name": "",
          "type": "uint256"
        }
      ],
      "payable": false,
      "stateMutability": "view",
      "type": "function"
    },
    {
      "constant": false,
      "inputs": [
        {
          "name": "_propositionNumber",
          "type": "uint256"
        }
      ],
      "name": "endPropositionVote",
      "outputs": [
        {
          "name": "hasBeenAccepted",
          "type": "bool"
        }
      ],
      "payable": false,
      "stateMutability": "nonpayable",
      "type": "function"
    },
    {
      "constant": true,
      "inputs": [
        {
          "name": "",
          "type": "uint256"
        }
      ],
      "name": "propositionsWaitingEndOfVote",
      "outputs": [
        {
          "name": "",
          "type": "bool"
        }
      ],
      "payable": false,
      "stateMutability": "view",
      "type": "function"
    },
    {
      "constant": true,
      "inputs": [],
      "name": "isAProcedure",
      "outputs": [
        {
          "name": "",
          "type": "bool"
        }
      ],
      "payable": false,
      "stateMutability": "view",
      "type": "function"
    },
    {
      "inputs": [
        {
          "name": "_votersOrganContract",
          "type": "address"
        },
        {
          "name": "_membersWithVetoOrganContract",
          "type": "address"
        },
        {
          "name": "_finalPromulgatorsOrganContract",
          "type": "address"
        },
        {
          "name": "_quorumSize",
          "type": "uint256"
        },
        {
          "name": "_votingPeriodDuration",
          "type": "uint256"
        },
        {
          "name": "_promulgationPeriodDuration",
          "type": "uint256"
        }
      ],
      "payable": false,
      "stateMutability": "nonpayable",
      "type": "constructor"
    },
    {
      "anonymous": false,
      "inputs": [
        {
          "indexed": false,
          "name": "_from",
          "type": "address"
        },
        {
          "indexed": false,
          "name": "_targetOrgan",
          "type": "address"
        },
        {
          "indexed": false,
          "name": "_propositionType",
          "type": "uint256"
        },
        {
          "indexed": false,
          "name": "_propositionNumber",
          "type": "uint256"
        }
      ],
      "name": "createPropositionEvent",
      "type": "event"
    },
    {
      "anonymous": false,
      "inputs": [
        {
          "indexed": false,
          "name": "_contractToAdd",
          "type": "address"
        },
        {
          "indexed": false,
          "name": "_contractToRemove",
          "type": "address"
        }
      ],
      "name": "createPropositionDetails",
      "type": "event"
    },
    {
      "anonymous": false,
      "inputs": [
        {
          "indexed": false,
          "name": "_propositionNumber",
          "type": "uint256"
        },
        {
          "indexed": false,
          "name": "_canAdd",
          "type": "bool"
        },
        {
          "indexed": false,
          "name": "_canDelete",
          "type": "bool"
        },
        {
          "indexed": false,
          "name": "_name",
          "type": "string"
        }
      ],
      "name": "createMasterPropositionEvent",
      "type": "event"
    },
    {
      "anonymous": false,
      "inputs": [
        {
          "indexed": false,
          "name": "_propositionNumber",
          "type": "uint256"
        },
        {
          "indexed": false,
          "name": "_canAdd",
          "type": "bool"
        },
        {
          "indexed": false,
          "name": "_canDelete",
          "type": "bool"
        },
        {
          "indexed": false,
          "name": "_canDeposit",
          "type": "bool"
        },
        {
          "indexed": false,
          "name": "_canSpend",
          "type": "bool"
        },
        {
          "indexed": false,
          "name": "_name",
          "type": "string"
        }
      ],
      "name": "createAdminPropositionEvent",
      "type": "event"
    },
    {
      "anonymous": false,
      "inputs": [
        {
          "indexed": false,
          "name": "_propositionNumber",
          "type": "uint256"
        },
        {
          "indexed": false,
          "name": "_ipfsHash",
          "type": "bytes32"
        },
        {
          "indexed": false,
          "name": "_hash_function",
          "type": "uint8"
        },
        {
          "indexed": false,
          "name": "_size",
          "type": "uint8"
        },
        {
          "indexed": false,
          "name": "name",
          "type": "string"
        }
      ],
      "name": "createNormPropositionEvent",
      "type": "event"
    },
    {
      "anonymous": false,
      "inputs": [
        {
          "indexed": false,
          "name": "_from",
          "type": "address"
        },
        {
          "indexed": false,
          "name": "_propositionNumber",
          "type": "uint256"
        }
      ],
      "name": "voteOnProposition",
      "type": "event"
    },
    {
      "anonymous": false,
      "inputs": [
        {
          "indexed": false,
          "name": "_from",
          "type": "address"
        },
        {
          "indexed": false,
          "name": "_propositionNumber",
          "type": "uint256"
        }
      ],
      "name": "vetoProposition",
      "type": "event"
    },
    {
      "anonymous": false,
      "inputs": [
        {
          "indexed": false,
          "name": "_from",
          "type": "address"
        },
        {
          "indexed": false,
          "name": "_propositionNumber",
          "type": "uint256"
        }
      ],
      "name": "countVotes",
      "type": "event"
    },
    {
      "anonymous": false,
      "inputs": [
        {
          "indexed": false,
          "name": "_from",
          "type": "address"
        },
        {
          "indexed": false,
          "name": "_propositionNumber",
          "type": "uint256"
        },
        {
          "indexed": false,
          "name": "_promulgate",
          "type": "bool"
        }
      ],
      "name": "promulgatePropositionEvent",
      "type": "event"
    }
  ],
  "bytecode": "0x60606040526000600360006101000a81548160ff0219169083151502179055506001600360016101000a81548160ff0219169083151502179055506006600455341561004a57600080fd5b60405160c080614f398339810160405280805190602001909190805190602001909190805190602001909190805190602001909190805190602001909190805190602001909190505085600560006101000a81548173ffffffffffffffffffffffffffffffffffffffff021916908373ffffffffffffffffffffffffffffffffffffffff16021790555084600660006101000a81548173ffffffffffffffffffffffffffffffffffffffff021916908373ffffffffffffffffffffffffffffffffffffffff16021790555083600760006101000a81548173ffffffffffffffffffffffffffffffffffffffff021916908373ffffffffffffffffffffffffffffffffffffffff16021790555082600a8190555081600881905550806009819055506001600081905550505050505050614db1806101886000396000f3006060604052600436106101ac576000357c0100000000000000000000000000000000000000000000000000000000900463ffffffff1680630366af3d146101b157806305cf0057146101f757806307e7a224146102855780630b2e34b0146103135780630f2d671e146103695780631d28dec7146104915780632647d7f9146104b45780633068ef4d146104dd57806337443feb146105065780633c0848ee146106345780633ef4cfbb146106c25780635332eea1146107885780635dbe4d28146107de578063615d9bff1461080757806364cdd61e1461082a5780636a95d38d1461087f57806375ff60c4146108da578063880d3f54146109305780638f3b07a4146109855780639f32551b146109ae578063a8bef97a146109d7578063ac37af1c14610a04578063b5fdb88e14610a3f578063c9d27afe14610a68578063cb20a2fd14610a96578063cd43eb1f14610b24578063cd87c2b614610b5f578063ce784b7714610b88578063ce88840314610bdd578063d64ff06314610c22578063d858849414610c50578063e09ecb8714610ca6578063e36f6e4e14610ce1578063e80b30a514610d1c575b600080fd5b34156101bc57600080fd5b6101d26004808035906020019091905050610d49565b6040518083151515158152602001821515151581526020019250505060405180910390f35b341561020257600080fd5b61022e600480803573ffffffffffffffffffffffffffffffffffffffff16906020019091905050610db1565b6040518080602001828103825283818151815260200191508051906020019060200280838360005b83811015610271578082015181840152602081019050610256565b505050509050019250505060405180910390f35b341561029057600080fd5b6102bc600480803573ffffffffffffffffffffffffffffffffffffffff16906020019091905050610e4e565b6040518080602001828103825283818151815260200191508051906020019060200280838360005b838110156102ff5780820151818401526020810190506102e4565b505050509050019250505060405180910390f35b341561031e57600080fd5b610353600480803573ffffffffffffffffffffffffffffffffffffffff16906020019091908035906020019091905050610eeb565b6040518082815260200191505060405180910390f35b341561037457600080fd5b61047b600480803573ffffffffffffffffffffffffffffffffffffffff1690602001909190803573ffffffffffffffffffffffffffffffffffffffff1690602001909190803573ffffffffffffffffffffffffffffffffffffffff169060200190919080356000191690602001909190803560ff1690602001909190803560ff1690602001909190803590602001908201803590602001908080601f016020809104026020016040519081016040528093929190818152602001838380828437820191505050505050919080351515906020019091908035151590602001909190803515159060200190919080351515906020019091908035906020019091905050610f1c565b6040518082815260200191505060405180910390f35b341561049c57600080fd5b6104b260048080359060200190919050506119a5565b005b34156104bf57600080fd5b6104c7611c0f565b6040518082815260200191505060405180910390f35b34156104e857600080fd5b6104f0611c15565b6040518082815260200191505060405180910390f35b341561051157600080fd5b6105276004808035906020019091905050611c1b565b604051808873ffffffffffffffffffffffffffffffffffffffff1673ffffffffffffffffffffffffffffffffffffffff1681526020018773ffffffffffffffffffffffffffffffffffffffff1673ffffffffffffffffffffffffffffffffffffffff1681526020018615151515815260200185151515158152602001841515151581526020018315151515815260200180602001828103825283818151815260200191508051906020019080838360005b838110156105f35780820151818401526020810190506105d8565b50505050905090810190601f1680156106205780820380516001836020036101000a031916815260200191505b509850505050505050505060405180910390f35b341561063f57600080fd5b61066b600480803573ffffffffffffffffffffffffffffffffffffffff16906020019091905050611e3b565b6040518080602001828103825283818151815260200191508051906020019060200280838360005b838110156106ae578082015181840152602081019050610693565b505050509050019250505060405180910390f35b34156106cd57600080fd5b6106e36004808035906020019091905050611ed8565b604051808773ffffffffffffffffffffffffffffffffffffffff1673ffffffffffffffffffffffffffffffffffffffff1681526020018673ffffffffffffffffffffffffffffffffffffffff1673ffffffffffffffffffffffffffffffffffffffff16815260200185600019166000191681526020018460ff1660ff1681526020018360ff1660ff168152602001828152602001965050505050505060405180910390f35b341561079357600080fd5b6107c8600480803573ffffffffffffffffffffffffffffffffffffffff16906020019091908035906020019091905050612016565b6040518082815260200191505060405180910390f35b34156107e957600080fd5b6107f1612047565b6040518082815260200191505060405180910390f35b341561081257600080fd5b610828600480803590602001909190505061204d565b005b341561083557600080fd5b61083d612422565b604051808273ffffffffffffffffffffffffffffffffffffffff1673ffffffffffffffffffffffffffffffffffffffff16815260200191505060405180910390f35b341561088a57600080fd5b6108a06004808035906020019091905050612448565b6040518086815260200185815260200184815260200183151515158152602001821515151581526020019550505050505060405180910390f35b34156108e557600080fd5b61091a600480803573ffffffffffffffffffffffffffffffffffffffff1690602001909190803590602001909190505061255b565b6040518082815260200191505060405180910390f35b341561093b57600080fd5b61094361258c565b604051808273ffffffffffffffffffffffffffffffffffffffff1673ffffffffffffffffffffffffffffffffffffffff16815260200191505060405180910390f35b341561099057600080fd5b6109986125b2565b6040518082815260200191505060405180910390f35b34156109b957600080fd5b6109c16125b8565b6040518082815260200191505060405180910390f35b34156109e257600080fd5b6109ea6125be565b604051808215151515815260200191505060405180910390f35b3415610a0f57600080fd5b610a2560048080359060200190919050506125d1565b604051808215151515815260200191505060405180910390f35b3415610a4a57600080fd5b610a52612645565b6040518082815260200191505060405180910390f35b3415610a7357600080fd5b610a946004808035906020019091908035151590602001909190505061264b565b005b3415610aa157600080fd5b610acd600480803573ffffffffffffffffffffffffffffffffffffffff169060200190919050506129d6565b6040518080602001828103825283818151815260200191508051906020019060200280838360005b83811015610b10578082015181840152602081019050610af5565b505050509050019250505060405180910390f35b3415610b2f57600080fd5b610b456004808035906020019091905050612a73565b604051808215151515815260200191505060405180910390f35b3415610b6a57600080fd5b610b72612aa6565b6040518082815260200191505060405180910390f35b3415610b9357600080fd5b610b9b612aac565b604051808273ffffffffffffffffffffffffffffffffffffffff1673ffffffffffffffffffffffffffffffffffffffff16815260200191505060405180910390f35b3415610be857600080fd5b610bfe6004808035906020019091905050612ad2565b60405180848152602001838152602001828152602001935050505060405180910390f35b3415610c2d57600080fd5b610c4e60048080359060200190919080351515906020019091905050612b4b565b005b3415610c5b57600080fd5b610c90600480803573ffffffffffffffffffffffffffffffffffffffff1690602001909190803590602001909190505061450b565b6040518082815260200191505060405180910390f35b3415610cb157600080fd5b610cc7600480803590602001909190505061453c565b604051808215151515815260200191505060405180910390f35b3415610cec57600080fd5b610d0260048080359060200190919050506148e7565b604051808215151515815260200191505060405180910390f35b3415610d2757600080fd5b610d2f61491a565b604051808215151515815260200191505060405180910390f35b600080600d83815481101515610d5b57fe5b90600052602060002090600e0201600b0160019054906101000a900460ff16600d84815481101515610d8957fe5b90600052602060002090600e0201600b0160039054906101000a900460ff1691509150915091565b610db961492d565b601160008373ffffffffffffffffffffffffffffffffffffffff1673ffffffffffffffffffffffffffffffffffffffff168152602001908152602001600020805480602002602001604051908101604052809291908181526020018280548015610e4257602002820191906000526020600020905b815481526020019060010190808311610e2e575b50505050509050919050565b610e5661492d565b601360008373ffffffffffffffffffffffffffffffffffffffff1673ffffffffffffffffffffffffffffffffffffffff168152602001908152602001600020805480602002602001604051908101604052809291908181526020018280548015610edf57602002820191906000526020600020905b815481526020019060010190808311610ecb575b50505050509050919050565b601060205281600052604060002081815481101515610f0657fe5b9060005260206000209001600091509150505481565b600080610f27614941565b600560009054906101000a900473ffffffffffffffffffffffffffffffffffffffff1691508173ffffffffffffffffffffffffffffffffffffffff1663d323a4f8336000604051602001526040518263ffffffff167c0100000000000000000000000000000000000000000000000000000000028152600401808273ffffffffffffffffffffffffffffffffffffffff1673ffffffffffffffffffffffffffffffffffffffff168152602001915050602060405180830381600087803b1515610fef57600080fd5b6102c65a03f1151561100057600080fd5b50505060405180519050151561101557600080fd5b600091508e816000019073ffffffffffffffffffffffffffffffffffffffff16908173ffffffffffffffffffffffffffffffffffffffff16815250508d816020019073ffffffffffffffffffffffffffffffffffffffff16908173ffffffffffffffffffffffffffffffffffffffff16815250508c816040019073ffffffffffffffffffffffffffffffffffffffff16908173ffffffffffffffffffffffffffffffffffffffff16815250508b816060019060001916908160001916815250508a816080019060ff16908160ff1681525050898160a0019060ff16908160ff1681525050878160e00190151590811515815250508681610100019015159081151581525050848161012001901515908115158152505085816101400190151590811515815250508381610160018181525050888160c0018190525042816101800181815250506008544201816101a00181815250506000816101c00190151590811515815250506000816102200190151590811515815250506000816101e0019015159081151581525050600081610200019015159081151581525050600081610260018181525050600081610240018181525050600d80548060010182816111de9190614a3c565b91600052602060002090600e0201600083909190915060008201518160000160006101000a81548173ffffffffffffffffffffffffffffffffffffffff021916908373ffffffffffffffffffffffffffffffffffffffff16021790555060208201518160010160006101000a81548173ffffffffffffffffffffffffffffffffffffffff021916908373ffffffffffffffffffffffffffffffffffffffff16021790555060408201518160020160006101000a81548173ffffffffffffffffffffffffffffffffffffffff021916908373ffffffffffffffffffffffffffffffffffffffff1602179055506060820151816003019060001916905560808201518160040160006101000a81548160ff021916908360ff16021790555060a08201518160040160016101000a81548160ff021916908360ff16021790555060c0820151816005019080519060200190611337929190614a6e565b5060e08201518160060160006101000a81548160ff0219169083151502179055506101008201518160060160016101000a81548160ff0219169083151502179055506101208201518160060160026101000a81548160ff0219169083151502179055506101408201518160060160036101000a81548160ff021916908315150217905550610160820151816007015561018082015181600901556101a082015181600a01556101c082015181600b0160006101000a81548160ff0219169083151502179055506101e082015181600b0160016101000a81548160ff02191690831515021790555061020082015181600b0160026101000a81548160ff02191690831515021790555061022082015181600b0160036101000a81548160ff02191690831515021790555061024082015181600c015561026082015181600d0155505050611481614941565b90506001600d805490500392506001600b60008282540192505081905550601060003373ffffffffffffffffffffffffffffffffffffffff1673ffffffffffffffffffffffffffffffffffffffff16815260200190815260200160002080548060010182816114f09190614aee565b916000526020600020900160008590919091505550600e80548060010182816115199190614b1a565b91600052602060002090602091828204019190066001909190916101000a81548160ff02191690831515021790555050600f805480600101828161155d9190614b1a565b91600052602060002090602091828204019190066000909190916101000a81548160ff021916908315150217905550507f2c230862c7869ceafe2db15dda54a94fd7e87a574af1360a09e7a6f8acbc6bd333600d858154811015156115be57fe5b90600052602060002090600e020160000160009054906101000a900473ffffffffffffffffffffffffffffffffffffffff168686604051808573ffffffffffffffffffffffffffffffffffffffff1673ffffffffffffffffffffffffffffffffffffffff1681526020018473ffffffffffffffffffffffffffffffffffffffff1673ffffffffffffffffffffffffffffffffffffffff16815260200183815260200182815260200194505050505060405180910390a17fe00280f434fd134c148d59d0345a47457ed75114c60d70d759e43848b8faf7f58e8e604051808373ffffffffffffffffffffffffffffffffffffffff1673ffffffffffffffffffffffffffffffffffffffff1681526020018273ffffffffffffffffffffffffffffffffffffffff1673ffffffffffffffffffffffffffffffffffffffff1681526020019250505060405180910390a160008414156117d5577fec3d420ffa4da7a9686480af8bca59e8924642e69b2af65e3cebfa7b3fd60dbb8389898c60405180858152602001841515151581526020018315151515815260200180602001828103825283818151815260200191508051906020019080838360005b83811015611793578082015181840152602081019050611778565b50505050905090810190601f1680156117c05780820380516001836020036101000a031916815260200191505b509550505050505060405180910390a1611993565b60018414156118b7577f1f3b72c309501b6d3e1f9d91571c6faef20f943d351b92f44d8c5c8b9d9ad84c83898989898e604051808781526020018615151515815260200185151515158152602001841515151581526020018315151515815260200180602001828103825283818151815260200191508051906020019080838360005b83811015611873578082015181840152602081019050611858565b50505050905090810190601f1680156118a05780820380516001836020036101000a031916815260200191505b5097505050505050505060405180910390a1611992565b6002841415611991577f5c96618013629f155bcf67ccd4858a79107e88a36d2a03d3f6c25f97a6b3fc5a838d8d8d8d6040518086815260200185600019166000191681526020018460ff1660ff1681526020018360ff1660ff16815260200180602001828103825283818151815260200191508051906020019080838360005b83811015611952578082015181840152602081019050611937565b50505050905090810190601f16801561197f5780820380516001836020036101000a031916815260200191505b50965050505050505060405180910390a15b5b5b50509c9b505050505050505050505050565b6000600660009054906101000a900473ffffffffffffffffffffffffffffffffffffffff1690508073ffffffffffffffffffffffffffffffffffffffff1663d323a4f8336000604051602001526040518263ffffffff167c0100000000000000000000000000000000000000000000000000000000028152600401808273ffffffffffffffffffffffffffffffffffffffff1673ffffffffffffffffffffffffffffffffffffffff168152602001915050602060405180830381600087803b1515611a6f57600080fd5b6102c65a03f11515611a8057600080fd5b505050604051805190501515611a9557600080fd5b60009050600d82815481101515611aa857fe5b90600052602060002090600e0201600b0160019054906101000a900460ff16151515611ad357600080fd5b42600d83815481101515611ae357fe5b90600052602060002090600e0201600a0154111515611b0157600080fd5b6001600d83815481101515611b1257fe5b90600052602060002090600e0201600b0160006101000a81548160ff021916908315150217905550601260003373ffffffffffffffffffffffffffffffffffffffff1673ffffffffffffffffffffffffffffffffffffffff1681526020019081526020016000208054806001018281611b8b9190614aee565b9160005260206000209001600084909190915055507f62901d9c2f788a5c877cf5a2659a041eedf9a980c6dd3ed22a4878bcc228619b3383604051808373ffffffffffffffffffffffffffffffffffffffff1673ffffffffffffffffffffffffffffffffffffffff1681526020018281526020019250505060405180910390a15050565b60045481565b600a5481565b600080600080600080611c2c614b54565b600d88815481101515611c3b57fe5b90600052602060002090600e020160010160009054906101000a900473ffffffffffffffffffffffffffffffffffffffff16600d89815481101515611c7c57fe5b90600052602060002090600e020160020160009054906101000a900473ffffffffffffffffffffffffffffffffffffffff16600d8a815481101515611cbd57fe5b90600052602060002090600e020160060160009054906101000a900460ff16600d8b815481101515611ceb57fe5b90600052602060002090600e020160060160019054906101000a900460ff16600d8c815481101515611d1957fe5b90600052602060002090600e020160060160039054906101000a900460ff16600d8d815481101515611d4757fe5b90600052602060002090600e020160060160029054906101000a900460ff16600d8e815481101515611d7557fe5b90600052602060002090600e0201600501808054600181600116156101000203166002900480601f016020809104026020016040519081016040528092919081815260200182805460018160011615610100020316600290048015611e1b5780601f10611df057610100808354040283529160200191611e1b565b820191906000526020600020905b815481529060010190602001808311611dfe57829003601f168201915b505050505090509650965096509650965096509650919395979092949650565b611e4361492d565b601260008373ffffffffffffffffffffffffffffffffffffffff1673ffffffffffffffffffffffffffffffffffffffff168152602001908152602001600020805480602002602001604051908101604052809291908181526020018280548015611ecc57602002820191906000526020600020905b815481526020019060010190808311611eb8575b50505050509050919050565b600080600080600080600d87815481101515611ef057fe5b90600052602060002090600e020160010160009054906101000a900473ffffffffffffffffffffffffffffffffffffffff16600d88815481101515611f3157fe5b90600052602060002090600e020160020160009054906101000a900473ffffffffffffffffffffffffffffffffffffffff16600d89815481101515611f7257fe5b90600052602060002090600e020160030154600d8a815481101515611f9357fe5b90600052602060002090600e020160040160009054906101000a900460ff16600d8b815481101515611fc157fe5b90600052602060002090600e020160040160019054906101000a900460ff16600d8c815481101515611fef57fe5b90600052602060002090600e02016007015495509550955095509550955091939550919395565b60136020528160005260406000208181548110151561203157fe5b9060005260206000209001600091509150505481565b60005481565b6000806000600d8481548110151561206157fe5b90600052602060002090600e020160000160009054906101000a900473ffffffffffffffffffffffffffffffffffffffff1692506002600d858154811015156120a657fe5b90600052602060002090600e020160070154101561218e578273ffffffffffffffffffffffffffffffffffffffff1663f720f80b306000604051604001526040518263ffffffff167c0100000000000000000000000000000000000000000000000000000000028152600401808273ffffffffffffffffffffffffffffffffffffffff1673ffffffffffffffffffffffffffffffffffffffff1681526020019150506040805180830381600087803b151561216057600080fd5b6102c65a03f1151561217157600080fd5b50505060405180519060200180519050809250819350505061225a565b8273ffffffffffffffffffffffffffffffffffffffff166324d7806c306000604051604001526040518263ffffffff167c0100000000000000000000000000000000000000000000000000000000028152600401808273ffffffffffffffffffffffffffffffffffffffff1673ffffffffffffffffffffffffffffffffffffffff1681526020019150506040805180830381600087803b151561223057600080fd5b6102c65a03f1151561224157600080fd5b5050506040518051906020018051905080925081935050505b811580156122bf57506000600d8581548110151561227457fe5b90600052602060002090600e020160010160009054906101000a900473ffffffffffffffffffffffffffffffffffffffff1673ffffffffffffffffffffffffffffffffffffffff1614155b8061232b57508015801561232a57506000600d858154811015156122df57fe5b90600052602060002090600e020160020160009054906101000a900473ffffffffffffffffffffffffffffffffffffffff1673ffffffffffffffffffffffffffffffffffffffff1614155b5b156123a4576001600d8581548110151561234157fe5b90600052602060002090600e0201600b0160036101000a81548160ff0219169083151502179055506000600f8581548110151561237a57fe5b90600052602060002090602091828204019190066101000a81548160ff0219169083151502179055505b7fed7c73834db4ae22add7f637175d8a32a1dddae4c154ccd25195b77df4c8d18d33856000604051808473ffffffffffffffffffffffffffffffffffffffff1673ffffffffffffffffffffffffffffffffffffffff16815260200183815260200182151515158152602001935050505060405180910390a150505050565b600660009054906101000a900473ffffffffffffffffffffffffffffffffffffffff1681565b6000806000806000600d8681548110151561245f57fe5b90600052602060002090600e0201600b0160019054906101000a900460ff16151561248957600080fd5b600d8681548110151561249857fe5b90600052602060002090600e020160090154600d878154811015156124b957fe5b90600052602060002090600e0201600d0154600d888154811015156124da57fe5b90600052602060002090600e0201600c0154600d898154811015156124fb57fe5b90600052602060002090600e0201600b0160009054906101000a900460ff16600d8a81548110151561252957fe5b90600052602060002090600e0201600b0160029054906101000a900460ff169450945094509450945091939590929450565b60116020528160005260406000208181548110151561257657fe5b9060005260206000209001600091509150505481565b600760009054906101000a900473ffffffffffffffffffffffffffffffffffffffff1681565b600b5481565b600c5481565b600360009054906101000a900460ff1681565b6000600d828154811015156125e257fe5b90600052602060002090600e020160080160003373ffffffffffffffffffffffffffffffffffffffff1673ffffffffffffffffffffffffffffffffffffffff16815260200190815260200160002060009054906101000a900460ff169050919050565b60085481565b6000600560009054906101000a900473ffffffffffffffffffffffffffffffffffffffff1690508073ffffffffffffffffffffffffffffffffffffffff1663d323a4f8336000604051602001526040518263ffffffff167c0100000000000000000000000000000000000000000000000000000000028152600401808273ffffffffffffffffffffffffffffffffffffffff1673ffffffffffffffffffffffffffffffffffffffff168152602001915050602060405180830381600087803b151561271557600080fd5b6102c65a03f1151561272657600080fd5b50505060405180519050151561273b57600080fd5b60009050600d8381548110151561274e57fe5b90600052602060002090600e020160080160003373ffffffffffffffffffffffffffffffffffffffff1673ffffffffffffffffffffffffffffffffffffffff16815260200190815260200160002060009054906101000a900460ff161515156127b657600080fd5b600d838154811015156127c557fe5b90600052602060002090600e0201600b0160019054906101000a900460ff161515156127f057600080fd5b42600d8481548110151561280057fe5b90600052602060002090600e0201600a015411151561281e57600080fd5b60011515821515141561285b576001600d8481548110151561283c57fe5b90600052602060002090600e0201600c01600082825401925050819055505b6001600d8481548110151561286c57fe5b90600052602060002090600e020160080160003373ffffffffffffffffffffffffffffffffffffffff1673ffffffffffffffffffffffffffffffffffffffff16815260200190815260200160002060006101000a81548160ff0219169083151502179055506001600d848154811015156128e257fe5b90600052602060002090600e0201600d0160008282540192505081905550601160003373ffffffffffffffffffffffffffffffffffffffff1673ffffffffffffffffffffffffffffffffffffffff16815260200190815260200160002080548060010182816129519190614aee565b9160005260206000209001600085909190915055507fd1faddd599b0d6b58c83de71d7ff5395895b5891894dcd37f2482f33b2a1c43d3384604051808373ffffffffffffffffffffffffffffffffffffffff1673ffffffffffffffffffffffffffffffffffffffff1681526020018281526020019250505060405180910390a1505050565b6129de61492d565b601060008373ffffffffffffffffffffffffffffffffffffffff1673ffffffffffffffffffffffffffffffffffffffff168152602001908152602001600020805480602002602001604051908101604052809291908181526020018280548015612a6757602002820191906000526020600020905b815481526020019060010190808311612a53575b50505050509050919050565b600f81815481101515612a8257fe5b9060005260206000209060209182820401919006915054906101000a900460ff1681565b60095481565b600560009054906101000a900473ffffffffffffffffffffffffffffffffffffffff1681565b6000806000600d84815481101515612ae657fe5b90600052602060002090600e020160090154600d85815481101515612b0757fe5b90600052602060002090600e0201600a0154600954600d87815481101515612b2b57fe5b90600052602060002090600e0201600a0154019250925092509193909250565b600080600d84815481101515612b5d57fe5b90600052602060002090600e0201600b0160039054906101000a900460ff16151515612b8857600080fd5b600d84815481101515612b9757fe5b90600052602060002090600e0201600b0160019054906101000a900460ff161515612bc157600080fd5b600954600d85815481101515612bd357fe5b90600052602060002090600e0201600a015401421015612ce457600760009054906101000a900473ffffffffffffffffffffffffffffffffffffffff1691508173ffffffffffffffffffffffffffffffffffffffff1663d323a4f8336000604051602001526040518263ffffffff167c0100000000000000000000000000000000000000000000000000000000028152600401808273ffffffffffffffffffffffffffffffffffffffff1673ffffffffffffffffffffffffffffffffffffffff168152602001915050602060405180830381600087803b1515612cb557600080fd5b6102c65a03f11515612cc657600080fd5b505050604051805190501515612cdb57600080fd5b60009150612cf1565b821515612cf057600080fd5b5b600d84815481101515612d0057fe5b90600052602060002090600e0201600b0160029054906101000a900460ff161515612d2a57600080fd5b821580612def57506000600d85815481101515612d4357fe5b90600052602060002090600e020160010160009054906101000a900473ffffffffffffffffffffffffffffffffffffffff1673ffffffffffffffffffffffffffffffffffffffff16148015612dee57506000600d85815481101515612da457fe5b90600052602060002090600e020160020160009054906101000a900473ffffffffffffffffffffffffffffffffffffffff1673ffffffffffffffffffffffffffffffffffffffff16145b5b15612e32576001600d85815481101515612e0557fe5b90600052602060002090600e0201600b0160036101000a81548160ff0219169083151502179055506143b5565b600d84815481101515612e4157fe5b90600052602060002090600e020160000160009054906101000a900473ffffffffffffffffffffffffffffffffffffffff1690506000600d85815481101515612e8657fe5b90600052602060002090600e020160010160009054906101000a900473ffffffffffffffffffffffffffffffffffffffff1673ffffffffffffffffffffffffffffffffffffffff16141515613fd0576000600d85815481101515612ee657fe5b90600052602060002090600e020160020160009054906101000a900473ffffffffffffffffffffffffffffffffffffffff1673ffffffffffffffffffffffffffffffffffffffff16141515613870576000600d85815481101515612f4657fe5b90600052602060002090600e02016007015414156131e0578073ffffffffffffffffffffffffffffffffffffffff16630e6adcdf600d86815481101515612f8957fe5b90600052602060002090600e020160020160009054906101000a900473ffffffffffffffffffffffffffffffffffffffff16600d87815481101515612fca57fe5b90600052602060002090600e020160010160009054906101000a900473ffffffffffffffffffffffffffffffffffffffff16600d8881548110151561300b57fe5b90600052602060002090600e020160060160009054906101000a900460ff16600d8981548110151561303957fe5b90600052602060002090600e020160060160019054906101000a900460ff16600d8a81548110151561306757fe5b90600052602060002090600e02016005016040518663ffffffff167c0100000000000000000000000000000000000000000000000000000000028152600401808673ffffffffffffffffffffffffffffffffffffffff1673ffffffffffffffffffffffffffffffffffffffff1681526020018573ffffffffffffffffffffffffffffffffffffffff1673ffffffffffffffffffffffffffffffffffffffff1681526020018415151515815260200183151515158152602001806020018281038252838181546001816001161561010002031660029004815260200191508054600181600116156101000203166002900480156131a45780601f10613179576101008083540402835291602001916131a4565b820191906000526020600020905b81548152906001019060200180831161318757829003601f168201915b50509650505050505050600060405180830381600087803b15156131c757600080fd5b6102c65a03f115156131d857600080fd5b50505061386b565b6001600d858154811015156131f157fe5b90600052602060002090600e02016007015414156134fd578073ffffffffffffffffffffffffffffffffffffffff16638186c350600d8681548110151561323457fe5b90600052602060002090600e020160020160009054906101000a900473ffffffffffffffffffffffffffffffffffffffff16600d8781548110151561327557fe5b90600052602060002090600e020160010160009054906101000a900473ffffffffffffffffffffffffffffffffffffffff16600d888154811015156132b657fe5b90600052602060002090600e020160060160009054906101000a900460ff16600d898154811015156132e457fe5b90600052602060002090600e020160060160019054906101000a900460ff16600d8a81548110151561331257fe5b90600052602060002090600e020160060160039054906101000a900460ff16600d8b81548110151561334057fe5b90600052602060002090600e020160060160029054906101000a900460ff16600d8c81548110151561336e57fe5b90600052602060002090600e02016005016040518863ffffffff167c0100000000000000000000000000000000000000000000000000000000028152600401808873ffffffffffffffffffffffffffffffffffffffff1673ffffffffffffffffffffffffffffffffffffffff1681526020018773ffffffffffffffffffffffffffffffffffffffff1673ffffffffffffffffffffffffffffffffffffffff16815260200186151515158152602001851515151581526020018415151515815260200183151515158152602001806020018281038252838181546001816001161561010002031660029004815260200191508054600181600116156101000203166002900480156134bf5780601f10613494576101008083540402835291602001916134bf565b820191906000526020600020905b8154815290600101906020018083116134a257829003601f168201915b505098505050505050505050600060405180830381600087803b15156134e457600080fd5b6102c65a03f115156134f557600080fd5b50505061386a565b6002600d8581548110151561350e57fe5b90600052602060002090600e0201600701541415613869578073ffffffffffffffffffffffffffffffffffffffff1663cd26b87b8273ffffffffffffffffffffffffffffffffffffffff16635549ea51600d8881548110151561356d57fe5b90600052602060002090600e020160020160009054906101000a900473ffffffffffffffffffffffffffffffffffffffff166000604051602001526040518263ffffffff167c0100000000000000000000000000000000000000000000000000000000028152600401808273ffffffffffffffffffffffffffffffffffffffff1673ffffffffffffffffffffffffffffffffffffffff168152602001915050602060405180830381600087803b151561362557600080fd5b6102c65a03f1151561363657600080fd5b50505060405180519050600d8781548110151561364f57fe5b90600052602060002090600e020160010160009054906101000a900473ffffffffffffffffffffffffffffffffffffffff16600d8881548110151561369057fe5b90600052602060002090600e0201600501600d898154811015156136b057fe5b90600052602060002090600e020160030154600d8a8154811015156136d157fe5b90600052602060002090600e020160040160009054906101000a900460ff16600d8b8154811015156136ff57fe5b90600052602060002090600e020160040160019054906101000a900460ff166040518763ffffffff167c0100000000000000000000000000000000000000000000000000000000028152600401808781526020018673ffffffffffffffffffffffffffffffffffffffff1673ffffffffffffffffffffffffffffffffffffffff1681526020018060200185600019166000191681526020018460ff1660ff1681526020018360ff1660ff1681526020018281038252868181546001816001161561010002031660029004815260200191508054600181600116156101000203166002900480156138305780601f1061380557610100808354040283529160200191613830565b820191906000526020600020905b81548152906001019060200180831161381357829003601f168201915b5050975050505050505050600060405180830381600087803b151561385457600080fd5b6102c65a03f1151561386557600080fd5b5050505b5b5b613fcb565b6000600d8581548110151561388157fe5b90600052602060002090600e0201600701541415613aa7578073ffffffffffffffffffffffffffffffffffffffff1663ca1885f7600d868154811015156138c457fe5b90600052602060002090600e020160010160009054906101000a900473ffffffffffffffffffffffffffffffffffffffff16600d8781548110151561390557fe5b90600052602060002090600e020160060160009054906101000a900460ff16600d8881548110151561393357fe5b90600052602060002090600e020160060160019054906101000a900460ff16600d8981548110151561396157fe5b90600052602060002090600e02016005016040518563ffffffff167c0100000000000000000000000000000000000000000000000000000000028152600401808573ffffffffffffffffffffffffffffffffffffffff1673ffffffffffffffffffffffffffffffffffffffff168152602001841515151581526020018315151515815260200180602001828103825283818154600181600116156101000203166002900481526020019150805460018160011615610100020316600290048015613a6c5780601f10613a4157610100808354040283529160200191613a6c565b820191906000526020600020905b815481529060010190602001808311613a4f57829003601f168201915b505095505050505050600060405180830381600087803b1515613a8e57600080fd5b6102c65a03f11515613a9f57600080fd5b505050613fca565b6001600d85815481101515613ab857fe5b90600052602060002090600e0201600701541415613d50578073ffffffffffffffffffffffffffffffffffffffff166378ebd005600d86815481101515613afb57fe5b90600052602060002090600e020160010160009054906101000a900473ffffffffffffffffffffffffffffffffffffffff16600d87815481101515613b3c57fe5b90600052602060002090600e020160060160009054906101000a900460ff16600d88815481101515613b6a57fe5b90600052602060002090600e020160060160019054906101000a900460ff16600d89815481101515613b9857fe5b90600052602060002090600e020160060160039054906101000a900460ff16600d8a815481101515613bc657fe5b90600052602060002090600e020160060160029054906101000a900460ff16600d8b815481101515613bf457fe5b90600052602060002090600e02016005016040518763ffffffff167c0100000000000000000000000000000000000000000000000000000000028152600401808773ffffffffffffffffffffffffffffffffffffffff1673ffffffffffffffffffffffffffffffffffffffff1681526020018615151515815260200185151515158152602001841515151581526020018315151515815260200180602001828103825283818154600181600116156101000203166002900481526020019150805460018160011615610100020316600290048015613d135780601f10613ce857610100808354040283529160200191613d13565b820191906000526020600020905b815481529060010190602001808311613cf657829003601f168201915b5050975050505050505050600060405180830381600087803b1515613d3757600080fd5b6102c65a03f11515613d4857600080fd5b505050613fc9565b6002600d85815481101515613d6157fe5b90600052602060002090600e0201600701541415613fc8578073ffffffffffffffffffffffffffffffffffffffff1663696c5219600d86815481101515613da457fe5b90600052602060002090600e020160010160009054906101000a900473ffffffffffffffffffffffffffffffffffffffff16600d87815481101515613de557fe5b90600052602060002090600e0201600501600d88815481101515613e0557fe5b90600052602060002090600e020160030154600d89815481101515613e2657fe5b90600052602060002090600e020160040160009054906101000a900460ff16600d8a815481101515613e5457fe5b90600052602060002090600e020160040160019054906101000a900460ff166000604051602001526040518663ffffffff167c0100000000000000000000000000000000000000000000000000000000028152600401808673ffffffffffffffffffffffffffffffffffffffff1673ffffffffffffffffffffffffffffffffffffffff1681526020018060200185600019166000191681526020018460ff1660ff1681526020018360ff1660ff168152602001828103825286818154600181600116156101000203166002900481526020019150805460018160011615610100020316600290048015613f885780601f10613f5d57610100808354040283529160200191613f88565b820191906000526020600020905b815481529060010190602001808311613f6b57829003601f168201915b50509650505050505050602060405180830381600087803b1515613fab57600080fd5b6102c65a03f11515613fbc57600080fd5b50505060405180519050505b5b5b5b6143b4565b6000600d85815481101515613fe157fe5b90600052602060002090600e02016007015414156140ec578073ffffffffffffffffffffffffffffffffffffffff166331a79198600d8681548110151561402457fe5b90600052602060002090600e020160020160009054906101000a900473ffffffffffffffffffffffffffffffffffffffff166040518263ffffffff167c0100000000000000000000000000000000000000000000000000000000028152600401808273ffffffffffffffffffffffffffffffffffffffff1673ffffffffffffffffffffffffffffffffffffffff168152602001915050600060405180830381600087803b15156140d357600080fd5b6102c65a03f115156140e457600080fd5b5050506143b3565b6001600d858154811015156140fd57fe5b90600052602060002090600e0201600701541415614208578073ffffffffffffffffffffffffffffffffffffffff166311c60418600d8681548110151561414057fe5b90600052602060002090600e020160020160009054906101000a900473ffffffffffffffffffffffffffffffffffffffff166040518263ffffffff167c0100000000000000000000000000000000000000000000000000000000028152600401808273ffffffffffffffffffffffffffffffffffffffff1673ffffffffffffffffffffffffffffffffffffffff168152602001915050600060405180830381600087803b15156141ef57600080fd5b6102c65a03f1151561420057600080fd5b5050506143b2565b6002600d8581548110151561421957fe5b90600052602060002090600e02016007015414156143b1578073ffffffffffffffffffffffffffffffffffffffff16630e9defff8273ffffffffffffffffffffffffffffffffffffffff16635549ea51600d8881548110151561427857fe5b90600052602060002090600e020160020160009054906101000a900473ffffffffffffffffffffffffffffffffffffffff166000604051602001526040518263ffffffff167c0100000000000000000000000000000000000000000000000000000000028152600401808273ffffffffffffffffffffffffffffffffffffffff1673ffffffffffffffffffffffffffffffffffffffff168152602001915050602060405180830381600087803b151561433057600080fd5b6102c65a03f1151561434157600080fd5b505050604051805190506040518263ffffffff167c010000000000000000000000000000000000000000000000000000000002815260040180828152602001915050600060405180830381600087803b151561439c57600080fd5b6102c65a03f115156143ad57600080fd5b5050505b5b5b5b5b6001600d858154811015156143c657fe5b90600052602060002090600e0201600b0160036101000a81548160ff0219169083151502179055506000600f858154811015156143ff57fe5b90600052602060002090602091828204019190066101000a81548160ff021916908315150217905550601360003373ffffffffffffffffffffffffffffffffffffffff1673ffffffffffffffffffffffffffffffffffffffff16815260200190815260200160002080548060010182816144799190614aee565b9160005260206000209001600086909190915055507fed7c73834db4ae22add7f637175d8a32a1dddae4c154ccd25195b77df4c8d18d338585604051808473ffffffffffffffffffffffffffffffffffffffff1673ffffffffffffffffffffffffffffffffffffffff16815260200183815260200182151515158152602001935050505060405180910390a150505050565b60126020528160005260406000208181548110151561452657fe5b9060005260206000209001600091509150505481565b600080600d8381548110151561454e57fe5b90600052602060002090600e0201600b0160019054906101000a900460ff1615151561457957600080fd5b42600d8481548110151561458957fe5b90600052602060002090600e0201600a01541015156145a757600080fd5b600560009054906101000a900473ffffffffffffffffffffffffffffffffffffffff169050600d838154811015156145db57fe5b90600052602060002090600e0201600b0160009054906101000a900460ff161561464157600091506001600d8481548110151561461457fe5b90600052602060002090600e0201600b0160036101000a81548160ff021916908315150217905550614791565b8073ffffffffffffffffffffffffffffffffffffffff1663234d34de6000604051602001526040518163ffffffff167c0100000000000000000000000000000000000000000000000000000000028152600401602060405180830381600087803b15156146ad57600080fd5b6102c65a03f115156146be57600080fd5b50505060405180519050600a54026064600d858154811015156146dd57fe5b90600052602060002090600e0201600d0154021015801561474457506064600d8481548110151561470a57fe5b90600052602060002090600e0201600d015402600c54600d8581548110151561472f57fe5b90600052602060002090600e0201600c015402115b156147525760019150614790565b600091506001600d8481548110151561476757fe5b90600052602060002090600e0201600b0160036101000a81548160ff0219169083151502179055505b5b6001600d848154811015156147a257fe5b90600052602060002090600e0201600b0160016101000a81548160ff02191690831515021790555081600d848154811015156147da57fe5b90600052602060002090600e0201600b0160026101000a81548160ff0219169083151502179055506000600e8481548110151561481357fe5b90600052602060002090602091828204019190066101000a81548160ff0219169083151502179055506001600f8481548110151561484d57fe5b90600052602060002090602091828204019190066101000a81548160ff0219169083151502179055507f297f1f08d2ef8c90272f7ee3e1d4272015a96cdff8a252b60547b9e432e723603384604051808373ffffffffffffffffffffffffffffffffffffffff1673ffffffffffffffffffffffffffffffffffffffff1681526020018281526020019250505060405180910390a150919050565b600e818154811015156148f657fe5b9060005260206000209060209182820401919006915054906101000a900460ff1681565b600360019054906101000a900460ff1681565b602060405190810160405280600081525090565b61028060405190810160405280600073ffffffffffffffffffffffffffffffffffffffff168152602001600073ffffffffffffffffffffffffffffffffffffffff168152602001600073ffffffffffffffffffffffffffffffffffffffff16815260200160008019168152602001600060ff168152602001600060ff1681526020016149cb614b68565b815260200160001515815260200160001515815260200160001515815260200160001515815260200160008152602001600081526020016000815260200160001515815260200160001515815260200160001515815260200160001515815260200160008152602001600081525090565b815481835581811511614a6957600e0281600e028360005260206000209182019101614a689190614b7c565b5b505050565b828054600181600116156101000203166002900490600052602060002090601f016020900481019282601f10614aaf57805160ff1916838001178555614add565b82800160010185558215614add579182015b82811115614adc578251825591602001919060010190614ac1565b5b509050614aea9190614d18565b5090565b815481835581811511614b1557818360005260206000209182019101614b149190614d18565b5b505050565b815481835581811511614b4f57601f016020900481601f01602090048360005260206000209182019101614b4e9190614d18565b5b505050565b602060405190810160405280600081525090565b602060405190810160405280600081525090565b614d1591905b80821115614d1157600080820160006101000a81549073ffffffffffffffffffffffffffffffffffffffff02191690556001820160006101000a81549073ffffffffffffffffffffffffffffffffffffffff02191690556002820160006101000a81549073ffffffffffffffffffffffffffffffffffffffff021916905560038201600090556004820160006101000a81549060ff02191690556004820160016101000a81549060ff0219169055600582016000614c409190614d3d565b6006820160006101000a81549060ff02191690556006820160016101000a81549060ff02191690556006820160026101000a81549060ff02191690556006820160036101000a81549060ff021916905560078201600090556009820160009055600a820160009055600b820160006101000a81549060ff0219169055600b820160016101000a81549060ff0219169055600b820160026101000a81549060ff0219169055600b820160036101000a81549060ff0219169055600c820160009055600d82016000905550600e01614b82565b5090565b90565b614d3a91905b80821115614d36576000816000905550600101614d1e565b5090565b90565b50805460018160011615610100020316600290046000825580601f10614d635750614d82565b601f016020900490600052602060002090810190614d819190614d18565b5b505600a165627a7a72305820a99340dfebb5af78c497bae6b60d4da43838cbd8658f2921fe5b2ec1d57839f10029",
  "source": "pragma solidity ^0.4.11;\n\n// Standard contract for a presidential election procedure\n\nimport \"../standardProcedure.sol\";\nimport \"../standardOrgan.sol\";\nimport \"../procedures/voteOnAdminsAndMastersProcedure.sol\";\n\n\n\n\ncontract deployVoteOnAdminsAndMastersProcedure is voteOnAdminsAndMastersProcedure {\n\nfunction deployVoteOnAdminsAndMastersProcedure (address _votersOrganContract, address _membersWithVetoOrganContract, address _finalPromulgatorsOrganContract, uint _quorumSize, uint _votingPeriodDuration, uint _promulgationPeriodDuration) public {\n\n    votersOrganContract = _votersOrganContract;\n    membersWithVetoOrganContract = _membersWithVetoOrganContract;\n    finalPromulgatorsOrganContract = _finalPromulgatorsOrganContract; \n\n    quorumSize = _quorumSize;\n    // votingPeriodDuration = 3 minutes;\n    // promulgationPeriodDuration = 3 minutes;\n\n    votingPeriodDuration = _votingPeriodDuration;\n    promulgationPeriodDuration = _promulgationPeriodDuration;\n\n    kelsenVersionNumber = 1;\n\n    }\n}\n",
  "sourcePath": "/Users/henrilieutaud/Documents/Mes documents/97/Workshop/Kelsen/solidity/contracts/deploy/deployVoteOnAdminsAndMastersProcedure.sol",
  "compiler": {
    "name": "solc",
    "version": "0.4.19+commit.c4cbbb05.Emscripten.clang"
  },
  "schemaVersion": "2.0.0",
  "updatedAt": "2018-05-14T09:52:50.047Z"
}