{
  "contractName": "deployNormsCooptationProcedure",
  "abi": [
    {
      "constant": true,
      "inputs": [
        {
          "name": "_propositionNumber",
          "type": "uint256"
        }
      ],
      "name": "getPropositionStatus",
      "outputs": [
        {
          "name": "_wasCounted",
          "type": "bool"
        },
        {
          "name": "_wasEnacted",
          "type": "bool"
        }
      ],
      "payable": false,
      "stateMutability": "view",
      "type": "function"
    },
    {
      "constant": true,
      "inputs": [
        {
          "name": "_userAddress",
          "type": "address"
        }
      ],
      "name": "getPropositionsUsedByUser",
      "outputs": [
        {
          "name": "",
          "type": "uint256[]"
        }
      ],
      "payable": false,
      "stateMutability": "view",
      "type": "function"
    },
    {
      "constant": true,
      "inputs": [
        {
          "name": "_userAddress",
          "type": "address"
        }
      ],
      "name": "getPropositionsPromulgatedByUser",
      "outputs": [
        {
          "name": "",
          "type": "uint256[]"
        }
      ],
      "payable": false,
      "stateMutability": "view",
      "type": "function"
    },
    {
      "constant": true,
      "inputs": [
        {
          "name": "",
          "type": "address"
        },
        {
          "name": "",
          "type": "uint256"
        }
      ],
      "name": "propositionToUser",
      "outputs": [
        {
          "name": "",
          "type": "uint256"
        }
      ],
      "payable": false,
      "stateMutability": "view",
      "type": "function"
    },
    {
      "constant": true,
      "inputs": [],
      "name": "procedureTypeNumber",
      "outputs": [
        {
          "name": "",
          "type": "int256"
        }
      ],
      "payable": false,
      "stateMutability": "view",
      "type": "function"
    },
    {
      "constant": true,
      "inputs": [],
      "name": "quorumSize",
      "outputs": [
        {
          "name": "",
          "type": "uint256"
        }
      ],
      "payable": false,
      "stateMutability": "view",
      "type": "function"
    },
    {
      "constant": true,
      "inputs": [
        {
          "name": "_propositionNumber",
          "type": "uint256"
        }
      ],
      "name": "getPropositionDetails",
      "outputs": [
        {
          "name": "_candidateAddress",
          "type": "address"
        },
        {
          "name": "_name",
          "type": "string"
        },
        {
          "name": "_ipfsHash",
          "type": "bytes32"
        },
        {
          "name": "_hash_function",
          "type": "uint8"
        },
        {
          "name": "_size",
          "type": "uint8"
        }
      ],
      "payable": false,
      "stateMutability": "view",
      "type": "function"
    },
    {
      "constant": true,
      "inputs": [
        {
          "name": "_userAddress",
          "type": "address"
        }
      ],
      "name": "getPropositionsVetoedByUser",
      "outputs": [
        {
          "name": "",
          "type": "uint256[]"
        }
      ],
      "payable": false,
      "stateMutability": "view",
      "type": "function"
    },
    {
      "constant": true,
      "inputs": [
        {
          "name": "",
          "type": "address"
        },
        {
          "name": "",
          "type": "uint256"
        }
      ],
      "name": "propositionToPromulgator",
      "outputs": [
        {
          "name": "",
          "type": "uint256"
        }
      ],
      "payable": false,
      "stateMutability": "view",
      "type": "function"
    },
    {
      "constant": true,
      "inputs": [],
      "name": "getProcedureName",
      "outputs": [
        {
          "name": "_procedureName",
          "type": "string"
        }
      ],
      "payable": false,
      "stateMutability": "view",
      "type": "function"
    },
    {
      "constant": false,
      "inputs": [
        {
          "name": "_propositionNumber",
          "type": "uint256"
        }
      ],
      "name": "withDrawPayout",
      "outputs": [],
      "payable": false,
      "stateMutability": "nonpayable",
      "type": "function"
    },
    {
      "constant": false,
      "inputs": [
        {
          "name": "_propositionNumber",
          "type": "uint256"
        }
      ],
      "name": "promulgateProposition",
      "outputs": [],
      "payable": false,
      "stateMutability": "nonpayable",
      "type": "function"
    },
    {
      "constant": true,
      "inputs": [],
      "name": "kelsenVersionNumber",
      "outputs": [
        {
          "name": "",
          "type": "int256"
        }
      ],
      "payable": false,
      "stateMutability": "view",
      "type": "function"
    },
    {
      "constant": false,
      "inputs": [
        {
          "name": "_propositionNumber",
          "type": "uint256"
        },
        {
          "name": "_acceptProposition",
          "type": "bool"
        }
      ],
      "name": "veto",
      "outputs": [],
      "payable": false,
      "stateMutability": "nonpayable",
      "type": "function"
    },
    {
      "constant": true,
      "inputs": [],
      "name": "membersWithVetoOrganContract",
      "outputs": [
        {
          "name": "",
          "type": "address"
        }
      ],
      "payable": false,
      "stateMutability": "view",
      "type": "function"
    },
    {
      "constant": true,
      "inputs": [
        {
          "name": "_propositionNumber",
          "type": "uint256"
        }
      ],
      "name": "getVotedPropositionResults",
      "outputs": [
        {
          "name": "totalVoters",
          "type": "uint256"
        },
        {
          "name": "_totalVoteCount",
          "type": "uint256"
        },
        {
          "name": "_voteFor",
          "type": "uint256"
        },
        {
          "name": "_vetoCount",
          "type": "uint256"
        },
        {
          "name": "_notVetoCount",
          "type": "uint256"
        },
        {
          "name": "_wasAccepted",
          "type": "bool"
        }
      ],
      "payable": false,
      "stateMutability": "view",
      "type": "function"
    },
    {
      "constant": true,
      "inputs": [
        {
          "name": "",
          "type": "address"
        },
        {
          "name": "",
          "type": "uint256"
        }
      ],
      "name": "propositionToVoter",
      "outputs": [
        {
          "name": "",
          "type": "uint256"
        }
      ],
      "payable": false,
      "stateMutability": "view",
      "type": "function"
    },
    {
      "constant": true,
      "inputs": [],
      "name": "finalPromulgatorsOrganContract",
      "outputs": [
        {
          "name": "",
          "type": "address"
        }
      ],
      "payable": false,
      "stateMutability": "view",
      "type": "function"
    },
    {
      "constant": true,
      "inputs": [],
      "name": "totalPropositionNumber",
      "outputs": [
        {
          "name": "",
          "type": "uint256"
        }
      ],
      "payable": false,
      "stateMutability": "view",
      "type": "function"
    },
    {
      "constant": true,
      "inputs": [],
      "name": "isAnOrgan",
      "outputs": [
        {
          "name": "",
          "type": "bool"
        }
      ],
      "payable": false,
      "stateMutability": "view",
      "type": "function"
    },
    {
      "constant": false,
      "inputs": [
        {
          "name": "_name",
          "type": "string"
        },
        {
          "name": "_ipfsHash",
          "type": "bytes32"
        },
        {
          "name": "_hash_function",
          "type": "uint8"
        },
        {
          "name": "_size",
          "type": "uint8"
        }
      ],
      "name": "createProposition",
      "outputs": [
        {
          "name": "propositionNumber",
          "type": "uint256"
        }
      ],
      "payable": true,
      "stateMutability": "payable",
      "type": "function"
    },
    {
      "constant": true,
      "inputs": [
        {
          "name": "propositionNumber",
          "type": "uint256"
        }
      ],
      "name": "haveIVoted",
      "outputs": [
        {
          "name": "IHaveVoted",
          "type": "bool"
        }
      ],
      "payable": false,
      "stateMutability": "view",
      "type": "function"
    },
    {
      "constant": true,
      "inputs": [],
      "name": "procedureName",
      "outputs": [
        {
          "name": "",
          "type": "string"
        }
      ],
      "payable": false,
      "stateMutability": "view",
      "type": "function"
    },
    {
      "constant": true,
      "inputs": [],
      "name": "votingPeriodDuration",
      "outputs": [
        {
          "name": "",
          "type": "uint256"
        }
      ],
      "payable": false,
      "stateMutability": "view",
      "type": "function"
    },
    {
      "constant": true,
      "inputs": [],
      "name": "membersOrganContract",
      "outputs": [
        {
          "name": "",
          "type": "address"
        }
      ],
      "payable": false,
      "stateMutability": "view",
      "type": "function"
    },
    {
      "constant": false,
      "inputs": [
        {
          "name": "_propositionNumber",
          "type": "uint256"
        },
        {
          "name": "_acceptProposition",
          "type": "bool"
        }
      ],
      "name": "vote",
      "outputs": [],
      "payable": false,
      "stateMutability": "nonpayable",
      "type": "function"
    },
    {
      "constant": true,
      "inputs": [
        {
          "name": "_userAddress",
          "type": "address"
        }
      ],
      "name": "getPropositionsCreatedByUser",
      "outputs": [
        {
          "name": "",
          "type": "uint256[]"
        }
      ],
      "payable": false,
      "stateMutability": "view",
      "type": "function"
    },
    {
      "constant": true,
      "inputs": [
        {
          "name": "",
          "type": "uint256"
        }
      ],
      "name": "propositionsWaitingPromulgation",
      "outputs": [
        {
          "name": "",
          "type": "bool"
        }
      ],
      "payable": false,
      "stateMutability": "view",
      "type": "function"
    },
    {
      "constant": true,
      "inputs": [],
      "name": "promulgationPeriodDuration",
      "outputs": [
        {
          "name": "",
          "type": "uint256"
        }
      ],
      "payable": false,
      "stateMutability": "view",
      "type": "function"
    },
    {
      "constant": true,
      "inputs": [
        {
          "name": "_propositionNumber",
          "type": "uint256"
        }
      ],
      "name": "getPropositionDates",
      "outputs": [
        {
          "name": "_startDate",
          "type": "uint256"
        },
        {
          "name": "_votingPeriodEndDate",
          "type": "uint256"
        },
        {
          "name": "_promulgatorWindowEndDate",
          "type": "uint256"
        }
      ],
      "payable": false,
      "stateMutability": "view",
      "type": "function"
    },
    {
      "constant": true,
      "inputs": [
        {
          "name": "",
          "type": "address"
        },
        {
          "name": "",
          "type": "uint256"
        }
      ],
      "name": "propositionToVetoer",
      "outputs": [
        {
          "name": "",
          "type": "uint256"
        }
      ],
      "payable": false,
      "stateMutability": "view",
      "type": "function"
    },
    {
      "constant": false,
      "inputs": [
        {
          "name": "_propositionNumber",
          "type": "uint256"
        }
      ],
      "name": "endPropositionVote",
      "outputs": [
        {
          "name": "hasBeenAccepted",
          "type": "bool"
        }
      ],
      "payable": false,
      "stateMutability": "nonpayable",
      "type": "function"
    },
    {
      "constant": true,
      "inputs": [
        {
          "name": "",
          "type": "uint256"
        }
      ],
      "name": "propositionsWaitingEndOfVote",
      "outputs": [
        {
          "name": "",
          "type": "bool"
        }
      ],
      "payable": false,
      "stateMutability": "view",
      "type": "function"
    },
    {
      "constant": true,
      "inputs": [],
      "name": "getLinkedOrgans",
      "outputs": [
        {
          "name": "_linkedOrgans",
          "type": "address[]"
        }
      ],
      "payable": false,
      "stateMutability": "view",
      "type": "function"
    },
    {
      "constant": true,
      "inputs": [],
      "name": "isAProcedure",
      "outputs": [
        {
          "name": "",
          "type": "bool"
        }
      ],
      "payable": false,
      "stateMutability": "view",
      "type": "function"
    },
    {
      "constant": true,
      "inputs": [
        {
          "name": "",
          "type": "uint256"
        }
      ],
      "name": "linkedOrgans",
      "outputs": [
        {
          "name": "",
          "type": "address"
        }
      ],
      "payable": false,
      "stateMutability": "view",
      "type": "function"
    },
    {
      "inputs": [
        {
          "name": "_membersOrganContract",
          "type": "address"
        },
        {
          "name": "_membersWithVetoOrganContract",
          "type": "address"
        },
        {
          "name": "_finalPromulgatorsOrganContract",
          "type": "address"
        },
        {
          "name": "_quorumSize",
          "type": "uint256"
        },
        {
          "name": "_votingPeriodDuration",
          "type": "uint256"
        },
        {
          "name": "_promulgationPeriodDuration",
          "type": "uint256"
        },
        {
          "name": "_name",
          "type": "string"
        }
      ],
      "payable": false,
      "stateMutability": "nonpayable",
      "type": "constructor"
    },
    {
      "anonymous": false,
      "inputs": [
        {
          "indexed": false,
          "name": "_candidateAddress",
          "type": "address"
        },
        {
          "indexed": false,
          "name": "_deposit",
          "type": "uint256"
        },
        {
          "indexed": false,
          "name": "_ipfsHash",
          "type": "bytes32"
        },
        {
          "indexed": false,
          "name": "_hash_function",
          "type": "uint8"
        },
        {
          "indexed": false,
          "name": "_size",
          "type": "uint8"
        }
      ],
      "name": "createPropositionEvent",
      "type": "event"
    },
    {
      "anonymous": false,
      "inputs": [
        {
          "indexed": false,
          "name": "_from",
          "type": "address"
        },
        {
          "indexed": false,
          "name": "_propositionNumber",
          "type": "uint256"
        }
      ],
      "name": "voteOnProposition",
      "type": "event"
    },
    {
      "anonymous": false,
      "inputs": [
        {
          "indexed": false,
          "name": "_from",
          "type": "address"
        },
        {
          "indexed": false,
          "name": "_propositionNumber",
          "type": "uint256"
        },
        {
          "indexed": false,
          "name": "_decision",
          "type": "bool"
        }
      ],
      "name": "vetoProposition",
      "type": "event"
    },
    {
      "anonymous": false,
      "inputs": [
        {
          "indexed": false,
          "name": "_from",
          "type": "address"
        },
        {
          "indexed": false,
          "name": "_propositionNumber",
          "type": "uint256"
        }
      ],
      "name": "countVotes",
      "type": "event"
    },
    {
      "anonymous": false,
      "inputs": [
        {
          "indexed": false,
          "name": "_from",
          "type": "address"
        },
        {
          "indexed": false,
          "name": "_propositionNumber",
          "type": "uint256"
        }
      ],
      "name": "promulgatePropositionEvent",
      "type": "event"
    },
    {
      "anonymous": false,
      "inputs": [
        {
          "indexed": false,
          "name": "_from",
          "type": "address"
        },
        {
          "indexed": false,
          "name": "_propositionNumber",
          "type": "uint256"
        },
        {
          "indexed": false,
          "name": "_value",
          "type": "uint256"
        }
      ],
      "name": "withdrawal",
      "type": "event"
    }
  ],
  "bytecode": "0x60606040526000600460006101000a81548160ff0219169083151502179055506001600460016101000a81548160ff021916908315150217905550600760065534156200004b57600080fd5b60405162003dd038038062003dd08339810160405280805190602001909190805190602001909190805190602001909190805190602001909190805190602001909190805190602001909190805182019190505086600860006101000a81548173ffffffffffffffffffffffffffffffffffffffff021916908373ffffffffffffffffffffffffffffffffffffffff16021790555085600960006101000a81548173ffffffffffffffffffffffffffffffffffffffff021916908373ffffffffffffffffffffffffffffffffffffffff16021790555084600a60006101000a81548173ffffffffffffffffffffffffffffffffffffffff021916908373ffffffffffffffffffffffffffffffffffffffff160217905550606060405190810160405280600a60009054906101000a900473ffffffffffffffffffffffffffffffffffffffff1673ffffffffffffffffffffffffffffffffffffffff1673ffffffffffffffffffffffffffffffffffffffff168152602001600960009054906101000a900473ffffffffffffffffffffffffffffffffffffffff1673ffffffffffffffffffffffffffffffffffffffff1673ffffffffffffffffffffffffffffffffffffffff168152602001600860009054906101000a900473ffffffffffffffffffffffffffffffffffffffff1673ffffffffffffffffffffffffffffffffffffffff1673ffffffffffffffffffffffffffffffffffffffff16815250600b9060036200027a929190620002c7565b5080600790805190602001906200029392919062000356565b5083600f819055506103e8600c8190555082600d8190555081600e819055506001600081905550505050505050506200044b565b82805482825590600052602060002090810192821562000343579160200282015b82811115620003425782518260006101000a81548173ffffffffffffffffffffffffffffffffffffffff021916908373ffffffffffffffffffffffffffffffffffffffff16021790555091602001919060010190620002e8565b5b509050620003529190620003dd565b5090565b828054600181600116156101000203166002900490600052602060002090601f016020900481019282601f106200039957805160ff1916838001178555620003ca565b82800160010185558215620003ca579182015b82811115620003c9578251825591602001919060010190620003ac565b5b509050620003d9919062000423565b5090565b6200042091905b808211156200041c57600081816101000a81549073ffffffffffffffffffffffffffffffffffffffff021916905550600101620003e4565b5090565b90565b6200044891905b80821115620004445760008160009055506001016200042a565b5090565b90565b613975806200045b6000396000f3006060604052600436106101c2576000357c0100000000000000000000000000000000000000000000000000000000900463ffffffff1680630366af3d146101c757806305cf00571461020d57806307e7a2241461029b5780630b2e34b0146103295780632647d7f91461037f5780633068ef4d146103a857806337443feb146103d15780633c0848ee146104c95780635332eea11461055757806359908afe146105ad5780635ac852121461063b5780635b9d73451461065e5780635dbe4d28146106815780635e8b7244146106aa57806364cdd61e146106d85780636a95d38d1461072d57806375ff60c41461078b578063880d3f54146107e15780638f3b07a414610836578063a8bef97a1461085f578063a990cfde1461088c578063ac37af1c14610917578063adb4018b14610952578063b5fdb88e146109e0578063b945d9e714610a09578063c9d27afe14610a5e578063cb20a2fd14610a8c578063cd43eb1f14610b1a578063cd87c2b614610b55578063ce88840314610b7e578063d858849414610bc3578063e09ecb8714610c19578063e36f6e4e14610c54578063e570050114610c8f578063e80b30a514610cf9578063f2edc61614610d26575b600080fd5b34156101d257600080fd5b6101e86004808035906020019091905050610d89565b6040518083151515158152602001821515151581526020019250505060405180910390f35b341561021857600080fd5b610244600480803573ffffffffffffffffffffffffffffffffffffffff16906020019091905050610df1565b6040518080602001828103825283818151815260200191508051906020019060200280838360005b8381101561028757808201518184015260208101905061026c565b505050509050019250505060405180910390f35b34156102a657600080fd5b6102d2600480803573ffffffffffffffffffffffffffffffffffffffff16906020019091905050610e8e565b6040518080602001828103825283818151815260200191508051906020019060200280838360005b838110156103155780820151818401526020810190506102fa565b505050509050019250505060405180910390f35b341561033457600080fd5b610369600480803573ffffffffffffffffffffffffffffffffffffffff16906020019091908035906020019091905050610f2b565b6040518082815260200191505060405180910390f35b341561038a57600080fd5b610392610f5c565b6040518082815260200191505060405180910390f35b34156103b357600080fd5b6103bb610f62565b6040518082815260200191505060405180910390f35b34156103dc57600080fd5b6103f26004808035906020019091905050610f68565b604051808673ffffffffffffffffffffffffffffffffffffffff1673ffffffffffffffffffffffffffffffffffffffff1681526020018060200185600019166000191681526020018460ff1660ff1681526020018360ff1660ff168152602001828103825286818151815260200191508051906020019080838360005b8381101561048a57808201518184015260208101905061046f565b50505050905090810190601f1680156104b75780820380516001836020036101000a031916815260200191505b50965050505050505060405180910390f35b34156104d457600080fd5b610500600480803573ffffffffffffffffffffffffffffffffffffffff16906020019091905050611104565b6040518080602001828103825283818151815260200191508051906020019060200280838360005b83811015610543578082015181840152602081019050610528565b505050509050019250505060405180910390f35b341561056257600080fd5b610597600480803573ffffffffffffffffffffffffffffffffffffffff169060200190919080359060200190919050506111a1565b6040518082815260200191505060405180910390f35b34156105b857600080fd5b6105c06111d2565b6040518080602001828103825283818151815260200191508051906020019080838360005b838110156106005780820151818401526020810190506105e5565b50505050905090810190601f16801561062d5780820380516001836020036101000a031916815260200191505b509250505060405180910390f35b341561064657600080fd5b61065c600480803590602001909190505061127a565b005b341561066957600080fd5b61067f60048080359060200190919050506115dc565b005b341561068c57600080fd5b610694611b6a565b6040518082815260200191505060405180910390f35b34156106b557600080fd5b6106d660048080359060200190919080351515906020019091905050611b70565b005b34156106e357600080fd5b6106eb611f4c565b604051808273ffffffffffffffffffffffffffffffffffffffff1673ffffffffffffffffffffffffffffffffffffffff16815260200191505060405180910390f35b341561073857600080fd5b61074e6004808035906020019091905050611f72565b6040518087815260200186815260200185815260200184815260200183815260200182151515158152602001965050505050505060405180910390f35b341561079657600080fd5b6107cb600480803573ffffffffffffffffffffffffffffffffffffffff1690602001909190803590602001909190505061209c565b6040518082815260200191505060405180910390f35b34156107ec57600080fd5b6107f46120cd565b604051808273ffffffffffffffffffffffffffffffffffffffff1673ffffffffffffffffffffffffffffffffffffffff16815260200191505060405180910390f35b341561084157600080fd5b6108496120f3565b6040518082815260200191505060405180910390f35b341561086a57600080fd5b6108726120f9565b604051808215151515815260200191505060405180910390f35b610901600480803590602001908201803590602001908080601f016020809104026020016040519081016040528093929190818152602001838380828437820191505050505050919080356000191690602001909190803560ff1690602001909190803560ff1690602001909190505061210c565b6040518082815260200191505060405180910390f35b341561092257600080fd5b610938600480803590602001909190505061280e565b604051808215151515815260200191505060405180910390f35b341561095d57600080fd5b610965612882565b6040518080602001828103825283818151815260200191508051906020019080838360005b838110156109a557808201518184015260208101905061098a565b50505050905090810190601f1680156109d25780820380516001836020036101000a031916815260200191505b509250505060405180910390f35b34156109eb57600080fd5b6109f3612920565b6040518082815260200191505060405180910390f35b3415610a1457600080fd5b610a1c612926565b604051808273ffffffffffffffffffffffffffffffffffffffff1673ffffffffffffffffffffffffffffffffffffffff16815260200191505060405180910390f35b3415610a6957600080fd5b610a8a6004808035906020019091908035151590602001909190505061294c565b005b3415610a9757600080fd5b610ac3600480803573ffffffffffffffffffffffffffffffffffffffff16906020019091905050612d1e565b6040518080602001828103825283818151815260200191508051906020019060200280838360005b83811015610b06578082015181840152602081019050610aeb565b505050509050019250505060405180910390f35b3415610b2557600080fd5b610b3b6004808035906020019091905050612dbb565b604051808215151515815260200191505060405180910390f35b3415610b6057600080fd5b610b68612dee565b6040518082815260200191505060405180910390f35b3415610b8957600080fd5b610b9f6004808035906020019091905050612df4565b60405180848152602001838152602001828152602001935050505060405180910390f35b3415610bce57600080fd5b610c03600480803573ffffffffffffffffffffffffffffffffffffffff16906020019091908035906020019091905050612e75565b6040518082815260200191505060405180910390f35b3415610c2457600080fd5b610c3a6004808035906020019091905050612ea6565b604051808215151515815260200191505060405180910390f35b3415610c5f57600080fd5b610c7560048080359060200190919050506134af565b604051808215151515815260200191505060405180910390f35b3415610c9a57600080fd5b610ca26134e2565b6040518080602001828103825283818151815260200191508051906020019060200280838360005b83811015610ce5578082015181840152602081019050610cca565b505050509050019250505060405180910390f35b3415610d0457600080fd5b610d0c613576565b604051808215151515815260200191505060405180910390f35b3415610d3157600080fd5b610d476004808035906020019091905050613589565b604051808273ffffffffffffffffffffffffffffffffffffffff1673ffffffffffffffffffffffffffffffffffffffff16815260200191505060405180910390f35b600080601183815481101515610d9b57fe5b90600052602060002090600f020160030160019054906101000a900460ff16601184815481101515610dc957fe5b90600052602060002090600f020160030160029054906101000a900460ff1691509150915091565b610df96135c8565b601560008373ffffffffffffffffffffffffffffffffffffffff1673ffffffffffffffffffffffffffffffffffffffff168152602001908152602001600020805480602002602001604051908101604052809291908181526020018280548015610e8257602002820191906000526020600020905b815481526020019060010190808311610e6e575b50505050509050919050565b610e966135c8565b601760008373ffffffffffffffffffffffffffffffffffffffff1673ffffffffffffffffffffffffffffffffffffffff168152602001908152602001600020805480602002602001604051908101604052809291908181526020018280548015610f1f57602002820191906000526020600020905b815481526020019060010190808311610f0b575b50505050509050919050565b601460205281600052604060002081815481101515610f4657fe5b9060005260206000209001600091509150505481565b60065481565b600f5481565b6000610f726135dc565b6000806000601186815481101515610f8657fe5b90600052602060002090600f020160090160009054906101000a900473ffffffffffffffffffffffffffffffffffffffff16601187815481101515610fc757fe5b90600052602060002090600f0201600a01601188815481101515610fe757fe5b90600052602060002090600f0201600b015460118981548110151561100857fe5b90600052602060002090600f0201600c0160009054906101000a900460ff1660118a81548110151561103657fe5b90600052602060002090600f0201600c0160019054906101000a900460ff16838054600181600116156101000203166002900480601f0160208091040260200160405190810160405280929190818152602001828054600181600116156101000203166002900480156110ea5780601f106110bf576101008083540402835291602001916110ea565b820191906000526020600020905b8154815290600101906020018083116110cd57829003601f168201915b505050505093509450945094509450945091939590929450565b61110c6135c8565b601660008373ffffffffffffffffffffffffffffffffffffffff1673ffffffffffffffffffffffffffffffffffffffff16815260200190815260200160002080548060200260200160405190810160405280929190818152602001828054801561119557602002820191906000526020600020905b815481526020019060010190808311611181575b50505050509050919050565b6017602052816000526040600020818154811015156111bc57fe5b9060005260206000209001600091509150505481565b6111da6135dc565b60078054600181600116156101000203166002900480601f0160208091040260200160405190810160405280929190818152602001828054600181600116156101000203166002900480156112705780601f1061124557610100808354040283529160200191611270565b820191906000526020600020905b81548152906001019060200180831161125357829003601f168201915b5050505050905090565b600060118281548110151561128b57fe5b90600052602060002090600f020160030160029054906101000a900460ff1615156112b557600080fd5b6011828154811015156112c457fe5b90600052602060002090600f020160000160003373ffffffffffffffffffffffffffffffffffffffff1673ffffffffffffffffffffffffffffffffffffffff16815260200190815260200160002060009054906101000a900460ff16151561132b57600080fd5b60118281548110151561133a57fe5b90600052602060002090600f020160030160009054906101000a900460ff16151560118381548110151561136a57fe5b90600052602060002090600f020160010160003373ffffffffffffffffffffffffffffffffffffffff1673ffffffffffffffffffffffffffffffffffffffff16815260200190815260200160002060009054906101000a900460ff1615151415156113d457600080fd5b60006011838154811015156113e557fe5b90600052602060002090600f020160000160003373ffffffffffffffffffffffffffffffffffffffff1673ffffffffffffffffffffffffffffffffffffffff16815260200190815260200160002060006101000a81548160ff021916908315150217905550600860009054906101000a900473ffffffffffffffffffffffffffffffffffffffff1690508073ffffffffffffffffffffffffffffffffffffffff1663117de2fd3360118581548110151561149b57fe5b90600052602060002090600f0201600e01546040518363ffffffff167c0100000000000000000000000000000000000000000000000000000000028152600401808373ffffffffffffffffffffffffffffffffffffffff1673ffffffffffffffffffffffffffffffffffffffff16815260200182815260200192505050600060405180830381600087803b151561153157600080fd5b6102c65a03f1151561154257600080fd5b5050507f2e4d3189c330c7bfcce65176d6c0b1b49698fd9638f1dbba37a5bfb7e55a2833338360118581548110151561157757fe5b90600052602060002090600f0201600e0154604051808473ffffffffffffffffffffffffffffffffffffffff1673ffffffffffffffffffffffffffffffffffffffff168152602001838152602001828152602001935050505060405180910390a15050565b6000806011838154811015156115ee57fe5b90600052602060002090600f020160030160029054906101000a900460ff1615151561161957600080fd5b60118381548110151561162857fe5b90600052602060002090600f020160030160019054906101000a900460ff16151561165257600080fd5b600e54600d5460118581548110151561166757fe5b90600052602060002090600f020160020154010142101561177557600a60009054906101000a900473ffffffffffffffffffffffffffffffffffffffff1691508173ffffffffffffffffffffffffffffffffffffffff1663d323a4f8336000604051602001526040518263ffffffff167c0100000000000000000000000000000000000000000000000000000000028152600401808273ffffffffffffffffffffffffffffffffffffffff1673ffffffffffffffffffffffffffffffffffffffff168152602001915050602060405180830381600087803b151561174a57600080fd5b6102c65a03f1151561175b57600080fd5b50505060405180519050151561177057600080fd5b600091505b60118381548110151561178457fe5b90600052602060002090600f020160030160009054906101000a900460ff1615156117ae57600080fd5b600860009054906101000a900473ffffffffffffffffffffffffffffffffffffffff1690508073ffffffffffffffffffffffffffffffffffffffff1663696c52196011858154811015156117fe57fe5b90600052602060002090600f020160090160009054906101000a900473ffffffffffffffffffffffffffffffffffffffff1660118681548110151561183f57fe5b90600052602060002090600f0201600a0160118781548110151561185f57fe5b90600052602060002090600f0201600b015460118881548110151561188057fe5b90600052602060002090600f0201600c0160009054906101000a900460ff166011898154811015156118ae57fe5b90600052602060002090600f0201600c0160019054906101000a900460ff166000604051602001526040518663ffffffff167c0100000000000000000000000000000000000000000000000000000000028152600401808673ffffffffffffffffffffffffffffffffffffffff1673ffffffffffffffffffffffffffffffffffffffff1681526020018060200185600019166000191681526020018460ff1660ff1681526020018360ff1660ff1681526020018281038252868181546001816001161561010002031660029004815260200191508054600181600116156101000203166002900480156119e25780601f106119b7576101008083540402835291602001916119e2565b820191906000526020600020905b8154815290600101906020018083116119c557829003601f168201915b50509650505050505050602060405180830381600087803b1515611a0557600080fd5b6102c65a03f11515611a1657600080fd5b50505060405180519050506001601184815481101515611a3257fe5b90600052602060002090600f020160030160026101000a81548160ff0219169083151502179055506000601384815481101515611a6b57fe5b90600052602060002090602091828204019190066101000a81548160ff021916908315150217905550601760003373ffffffffffffffffffffffffffffffffffffffff1673ffffffffffffffffffffffffffffffffffffffff1681526020019081526020016000208054806001018281611ae591906135f0565b9160005260206000209001600085909190915055507f6488668a970b37da2333b4e2f299369ec2545de1cb7772a523818f23e0e5f8b43384604051808373ffffffffffffffffffffffffffffffffffffffff1673ffffffffffffffffffffffffffffffffffffffff1681526020018281526020019250505060405180910390a1505050565b60005481565b6000601183815481101515611b8157fe5b90600052602060002090600f020160000160003373ffffffffffffffffffffffffffffffffffffffff1673ffffffffffffffffffffffffffffffffffffffff16815260200190815260200160002060009054906101000a900460ff16151515611be957600080fd5b600960009054906101000a900473ffffffffffffffffffffffffffffffffffffffff1690508073ffffffffffffffffffffffffffffffffffffffff1663d323a4f8336000604051602001526040518263ffffffff167c0100000000000000000000000000000000000000000000000000000000028152600401808273ffffffffffffffffffffffffffffffffffffffff1673ffffffffffffffffffffffffffffffffffffffff168152602001915050602060405180830381600087803b1515611cb157600080fd5b6102c65a03f11515611cc257600080fd5b505050604051805190501515611cd757600080fd5b60009050601183815481101515611cea57fe5b90600052602060002090600f020160030160019054906101000a900460ff16151515611d1557600080fd5b8115611d4f576001601184815481101515611d2c57fe5b90600052602060002090600f020160070160008282540192505081905550611d7f565b6001601184815481101515611d6057fe5b90600052602060002090600f0201600601600082825401925050819055505b6001601184815481101515611d9057fe5b90600052602060002090600f020160000160003373ffffffffffffffffffffffffffffffffffffffff1673ffffffffffffffffffffffffffffffffffffffff16815260200190815260200160002060006101000a81548160ff02191690831515021790555081601184815481101515611e0557fe5b90600052602060002090600f020160010160003373ffffffffffffffffffffffffffffffffffffffff1673ffffffffffffffffffffffffffffffffffffffff16815260200190815260200160002060006101000a81548160ff021916908315150217905550601660003373ffffffffffffffffffffffffffffffffffffffff1673ffffffffffffffffffffffffffffffffffffffff1681526020019081526020016000208054806001018281611ebb91906135f0565b9160005260206000209001600085909190915055507f784f91034367c5f65754729da97be44b2d8e37d9ccfd9f568442de3a84f3fe1f338484604051808473ffffffffffffffffffffffffffffffffffffffff1673ffffffffffffffffffffffffffffffffffffffff16815260200183815260200182151515158152602001935050505060405180910390a1505050565b600960009054906101000a900473ffffffffffffffffffffffffffffffffffffffff1681565b600080600080600080601187815481101515611f8a57fe5b90600052602060002090600f020160030160019054906101000a900460ff161515611fb457600080fd5b601187815481101515611fc357fe5b90600052602060002090600f020160050154601188815481101515611fe457fe5b90600052602060002090600f02016005015460118981548110151561200557fe5b90600052602060002090600f02016004015460118a81548110151561202657fe5b90600052602060002090600f02016006015460118b81548110151561204757fe5b90600052602060002090600f02016007015460118c81548110151561206857fe5b90600052602060002090600f020160030160009054906101000a900460ff1695509550955095509550955091939550919395565b6015602052816000526040600020818154811015156120b757fe5b9060005260206000209001600091509150505481565b600a60009054906101000a900473ffffffffffffffffffffffffffffffffffffffff1681565b60105481565b600460009054906101000a900460ff1681565b60008061211761361c565b600860009054906101000a900473ffffffffffffffffffffffffffffffffffffffff1691508173ffffffffffffffffffffffffffffffffffffffff1663d323a4f8336000604051602001526040518263ffffffff167c0100000000000000000000000000000000000000000000000000000000028152600401808273ffffffffffffffffffffffffffffffffffffffff1673ffffffffffffffffffffffffffffffffffffffff168152602001915050602060405180830381600087803b15156121df57600080fd5b6102c65a03f115156121f057600080fd5b5050506040518051905015151561220657600080fd5b8173ffffffffffffffffffffffffffffffffffffffff1663234d34de6000604051602001526040518163ffffffff167c0100000000000000000000000000000000000000000000000000000000028152600401602060405180830381600087803b151561227257600080fd5b6102c65a03f1151561228357600080fd5b50505060405180519050600c54023411151561229e57600080fd5b6064600f548373ffffffffffffffffffffffffffffffffffffffff1663234d34de6000604051602001526040518163ffffffff167c0100000000000000000000000000000000000000000000000000000000028152600401602060405180830381600087803b151561230f57600080fd5b6102c65a03f1151561232057600080fd5b505050604051805190500281151561233457fe5b04816101000181815250506000816101000151141561235a576001816101000181815250505b600091503381610120019073ffffffffffffffffffffffffffffffffffffffff16908173ffffffffffffffffffffffffffffffffffffffff16815250508581610160019060001916908160001916815250508481610180019060ff16908160ff168152505083816101a0019060ff16908160ff16815250508681610140018190525034816101c00181815250504281600001818152505060008160600190151590811515815250506000816040019015159081151581525050600081602001901515908115158152505060008160a0018181525050600081608001818152505060008160c001818152505060008160e00181815250506000816101e00181815250506011805480600101828161247091906136c5565b91600052602060002090600f020160008390919091506000820151816002015560208201518160030160006101000a81548160ff02191690831515021790555060408201518160030160016101000a81548160ff02191690831515021790555060608201518160030160026101000a81548160ff0219169083151502179055506080820151816004015560a0820151816005015560c0820151816006015560e0820151816007015561010082015181600801556101208201518160090160006101000a81548173ffffffffffffffffffffffffffffffffffffffff021916908373ffffffffffffffffffffffffffffffffffffffff16021790555061014082015181600a0190805190602001906125889291906136f7565b5061016082015181600b019060001916905561018082015181600c0160006101000a81548160ff021916908360ff1602179055506101a082015181600c0160016101000a81548160ff021916908360ff1602179055506101c082015181600d01556101e082015181600e01555050506125ff61361c565b905060016011805490500392506001601060008282540192505081905550601460003373ffffffffffffffffffffffffffffffffffffffff1673ffffffffffffffffffffffffffffffffffffffff168152602001908152602001600020805480600101828161266e91906135f0565b916000526020600020900160008590919091505550601280548060010182816126979190613777565b91600052602060002090602091828204019190066001909190916101000a81548160ff02191690831515021790555050601380548060010182816126db9190613777565b91600052602060002090602091828204019190066000909190916101000a81548160ff021916908315150217905550507f362fe28119932e029adb55bc2d8adcd4902c1f751a356d510fc4492728b1112d3334888888604051808673ffffffffffffffffffffffffffffffffffffffff1673ffffffffffffffffffffffffffffffffffffffff16815260200185815260200184600019166000191681526020018360ff1660ff1681526020018260ff1660ff1681526020019550505050505060405180910390a1600860009054906101000a900473ffffffffffffffffffffffffffffffffffffffff1673ffffffffffffffffffffffffffffffffffffffff166108fc349081150290604051600060405180830381858888f19350505050151561280457600080fd5b5050949350505050565b600060118281548110151561281f57fe5b90600052602060002090600f020160000160003373ffffffffffffffffffffffffffffffffffffffff1673ffffffffffffffffffffffffffffffffffffffff16815260200190815260200160002060009054906101000a900460ff169050919050565b60078054600181600116156101000203166002900480601f0160208091040260200160405190810160405280929190818152602001828054600181600116156101000203166002900480156129185780601f106128ed57610100808354040283529160200191612918565b820191906000526020600020905b8154815290600101906020018083116128fb57829003601f168201915b505050505081565b600d5481565b600860009054906101000a900473ffffffffffffffffffffffffffffffffffffffff1681565b6000600860009054906101000a900473ffffffffffffffffffffffffffffffffffffffff1690508073ffffffffffffffffffffffffffffffffffffffff1663d323a4f8336000604051602001526040518263ffffffff167c0100000000000000000000000000000000000000000000000000000000028152600401808273ffffffffffffffffffffffffffffffffffffffff1673ffffffffffffffffffffffffffffffffffffffff168152602001915050602060405180830381600087803b1515612a1657600080fd5b6102c65a03f11515612a2757600080fd5b505050604051805190501515612a3c57600080fd5b60009050601183815481101515612a4f57fe5b90600052602060002090600f020160000160003373ffffffffffffffffffffffffffffffffffffffff1673ffffffffffffffffffffffffffffffffffffffff16815260200190815260200160002060009054906101000a900460ff16151515612ab757600080fd5b601183815481101515612ac657fe5b90600052602060002090600f020160030160019054906101000a900460ff16151515612af157600080fd5b600115158215151415612b2e576001601184815481101515612b0f57fe5b90600052602060002090600f0201600401600082825401925050819055505b6001601184815481101515612b3f57fe5b90600052602060002090600f020160000160003373ffffffffffffffffffffffffffffffffffffffff1673ffffffffffffffffffffffffffffffffffffffff16815260200190815260200160002060006101000a81548160ff02191690831515021790555081601184815481101515612bb457fe5b90600052602060002090600f020160010160003373ffffffffffffffffffffffffffffffffffffffff1673ffffffffffffffffffffffffffffffffffffffff16815260200190815260200160002060006101000a81548160ff0219169083151502179055506001601184815481101515612c2a57fe5b90600052602060002090600f020160050160008282540192505081905550601560003373ffffffffffffffffffffffffffffffffffffffff1673ffffffffffffffffffffffffffffffffffffffff1681526020019081526020016000208054806001018281612c9991906135f0565b9160005260206000209001600085909190915055507fd1faddd599b0d6b58c83de71d7ff5395895b5891894dcd37f2482f33b2a1c43d3384604051808373ffffffffffffffffffffffffffffffffffffffff1673ffffffffffffffffffffffffffffffffffffffff1681526020018281526020019250505060405180910390a1505050565b612d266135c8565b601460008373ffffffffffffffffffffffffffffffffffffffff1673ffffffffffffffffffffffffffffffffffffffff168152602001908152602001600020805480602002602001604051908101604052809291908181526020018280548015612daf57602002820191906000526020600020905b815481526020019060010190808311612d9b575b50505050509050919050565b601381815481101515612dca57fe5b9060005260206000209060209182820401919006915054906101000a900460ff1681565b600e5481565b6000806000601184815481101515612e0857fe5b90600052602060002090600f020160020154600d54601186815481101515612e2c57fe5b90600052602060002090600f02016002015401600e54600d54601188815481101515612e5457fe5b90600052602060002090600f02016002015401019250925092509193909250565b601660205281600052604060002081815481101515612e9057fe5b9060005260206000209001600091509150505481565b600080601183815481101515612eb857fe5b90600052602060002090600f020160030160019054906101000a900460ff16151515612ee357600080fd5b42600d54601185815481101515612ef657fe5b90600052602060002090600f02016002015401101515612f1557600080fd5b601183815481101515612f2457fe5b90600052602060002090600f020160080154601184815481101515612f4557fe5b90600052602060002090600f02016005015410151515612f6457600080fd5b600960009054906101000a900473ffffffffffffffffffffffffffffffffffffffff169050600090508073ffffffffffffffffffffffffffffffffffffffff1663234d34de6000604051602001526040518163ffffffff167c0100000000000000000000000000000000000000000000000000000000028152600401602060405180830381600087803b1515612ff957600080fd5b6102c65a03f1151561300a57600080fd5b5050506040518051905060118481548110151561302357fe5b90600052602060002090600f0201600601541015156131105760009150600160118481548110151561305157fe5b90600052602060002090600f020160030160026101000a81548160ff02191690831515021790555060118381548110151561308857fe5b90600052602060002090600f0201600401546011848154811015156130a957fe5b90600052602060002090600f020160050154036011848154811015156130cb57fe5b90600052602060002090600f0201600d01548115156130e657fe5b046011848154811015156130f657fe5b90600052602060002090600f0201600e0181905550613356565b8073ffffffffffffffffffffffffffffffffffffffff1663234d34de6000604051602001526040518163ffffffff167c0100000000000000000000000000000000000000000000000000000000028152600401602060405180830381600087803b151561317c57600080fd5b6102c65a03f1151561318d57600080fd5b505050604051805190506011848154811015156131a657fe5b90600052602060002090600f02016007015410158061320757506011838154811015156131cf57fe5b90600052602060002090600f02016005015460026011858154811015156131f257fe5b90600052602060002090600f02016004015402115b15613285576001915060118381548110151561321f57fe5b90600052602060002090600f02016004015460118481548110151561324057fe5b90600052602060002090600f0201600d015481151561325b57fe5b0460118481548110151561326b57fe5b90600052602060002090600f0201600e0181905550613355565b60009150600160118481548110151561329a57fe5b90600052602060002090600f020160030160026101000a81548160ff0219169083151502179055506011838154811015156132d157fe5b90600052602060002090600f0201600401546011848154811015156132f257fe5b90600052602060002090600f0201600501540360118481548110151561331457fe5b90600052602060002090600f0201600d015481151561332f57fe5b0460118481548110151561333f57fe5b90600052602060002090600f0201600e01819055505b5b600160118481548110151561336757fe5b90600052602060002090600f020160030160016101000a81548160ff0219169083151502179055508160118481548110151561339f57fe5b90600052602060002090600f020160030160006101000a81548160ff02191690831515021790555060006012848154811015156133d857fe5b90600052602060002090602091828204019190066101000a81548160ff021916908315150217905550600160138481548110151561341257fe5b90600052602060002090602091828204019190066101000a81548160ff0219169083151502179055507f297f1f08d2ef8c90272f7ee3e1d4272015a96cdff8a252b60547b9e432e723603384604051808373ffffffffffffffffffffffffffffffffffffffff1673ffffffffffffffffffffffffffffffffffffffff1681526020018281526020019250505060405180910390a181915050919050565b6012818154811015156134be57fe5b9060005260206000209060209182820401919006915054906101000a900460ff1681565b6134ea6137b1565b600b80548060200260200160405190810160405280929190818152602001828054801561356c57602002820191906000526020600020905b8160009054906101000a900473ffffffffffffffffffffffffffffffffffffffff1673ffffffffffffffffffffffffffffffffffffffff1681526020019060010190808311613522575b5050505050905090565b600460019054906101000a900460ff1681565b600b8181548110151561359857fe5b90600052602060002090016000915054906101000a900473ffffffffffffffffffffffffffffffffffffffff1681565b602060405190810160405280600081525090565b602060405190810160405280600081525090565b8154818355818115116136175781836000526020600020918201910161361691906137c5565b5b505050565b61020060405190810160405280600081526020016000151581526020016000151581526020016000151581526020016000815260200160008152602001600081526020016000815260200160008152602001600073ffffffffffffffffffffffffffffffffffffffff1681526020016136936137ea565b815260200160008019168152602001600060ff168152602001600060ff16815260200160008152602001600081525090565b8154818355818115116136f257600f0281600f0283600052602060002091820191016136f191906137fe565b5b505050565b828054600181600116156101000203166002900490600052602060002090601f016020900481019282601f1061373857805160ff1916838001178555613766565b82800160010185558215613766579182015b8281111561376557825182559160200191906001019061374a565b5b50905061377391906137c5565b5090565b8154818355818115116137ac57601f016020900481601f016020900483600052602060002091820191016137ab91906137c5565b5b505050565b602060405190810160405280600081525090565b6137e791905b808211156137e35760008160009055506001016137cb565b5090565b90565b602060405190810160405280600081525090565b6138fe91905b808211156138fa57600060028201600090556003820160006101000a81549060ff02191690556003820160016101000a81549060ff02191690556003820160026101000a81549060ff0219169055600482016000905560058201600090556006820160009055600782016000905560088201600090556009820160006101000a81549073ffffffffffffffffffffffffffffffffffffffff0219169055600a820160006138b19190613901565b600b820160009055600c820160006101000a81549060ff0219169055600c820160016101000a81549060ff0219169055600d820160009055600e82016000905550600f01613804565b5090565b90565b50805460018160011615610100020316600290046000825580601f106139275750613946565b601f01602090049060005260206000209081019061394591906137c5565b5b505600a165627a7a72305820a579878d7eeeeabe38c2fcb0f201d1a8ae6f2748d65a83619e71455161fddba80029",
  "source": "pragma solidity ^0.4.11;\n\n// Standard contract for a presidential election procedure\n\nimport \"../standardProcedure.sol\";\nimport \"../standardOrgan.sol\";\nimport \"../procedures/normsCooptationProcedure.sol\";\n\n\n\n\ncontract deployNormsCooptationProcedure is normsCooptationProcedure {\n\n    function deployNormsCooptationProcedure (address _membersOrganContract, address _membersWithVetoOrganContract, address _finalPromulgatorsOrganContract, uint _quorumSize, uint _votingPeriodDuration, uint _promulgationPeriodDuration, string _name) public {\n\n    membersOrganContract = _membersOrganContract;\n    membersWithVetoOrganContract = _membersWithVetoOrganContract;\n    finalPromulgatorsOrganContract = _finalPromulgatorsOrganContract; \n    linkedOrgans = [finalPromulgatorsOrganContract,membersWithVetoOrganContract,membersOrganContract];\n\n    // Procedure name \n    procedureName = _name;\n    \n    quorumSize = _quorumSize;\n    minimumDepositSize = 1000;\n    // votingPeriodDuration = 3 minutes;\n    // promulgationPeriodDuration = 3 minutes;\n\n    votingPeriodDuration = _votingPeriodDuration;\n    promulgationPeriodDuration = _promulgationPeriodDuration;\n\n\n    kelsenVersionNumber = 1;\n\n    }\n}\n",
  "sourcePath": "/Users/henrilieutaud/Documents/Mes documents/97/Workshop/Kelsen/solidity/contracts/deploy/deployNormsCooptationProcedure.sol",
  "compiler": {
    "name": "solc",
    "version": "0.4.19+commit.c4cbbb05.Emscripten.clang"
  },
  "schemaVersion": "2.0.0",
  "updatedAt": "2018-05-15T09:52:44.262Z"
}