{
  "contractName": "deployCyclicalManyToManyElectionProcedure",
  "abi": [
    {
      "constant": true,
      "inputs": [
        {
          "name": "_ballotNumber",
          "type": "uint256"
        }
      ],
      "name": "getBallotStats",
      "outputs": [
        {
          "name": "_votersNumber",
          "type": "uint256"
        },
        {
          "name": "_totalVoteCount",
          "type": "uint256"
        }
      ],
      "payable": false,
      "stateMutability": "view",
      "type": "function"
    },
    {
      "constant": true,
      "inputs": [
        {
          "name": "",
          "type": "address"
        },
        {
          "name": "",
          "type": "uint256"
        }
      ],
      "name": "ballotToEnforcer",
      "outputs": [
        {
          "name": "",
          "type": "uint256"
        }
      ],
      "payable": false,
      "stateMutability": "view",
      "type": "function"
    },
    {
      "constant": true,
      "inputs": [
        {
          "name": "_ballotNumber",
          "type": "uint256"
        }
      ],
      "name": "getSingleBallotInfo",
      "outputs": [
        {
          "name": "_name",
          "type": "string"
        },
        {
          "name": "_startDate",
          "type": "uint256"
        },
        {
          "name": "_candidacyEndDate",
          "type": "uint256"
        },
        {
          "name": "_electionEndDate",
          "type": "uint256"
        },
        {
          "name": "_electedOfficialSlotNumber",
          "type": "uint256"
        }
      ],
      "payable": false,
      "stateMutability": "view",
      "type": "function"
    },
    {
      "constant": true,
      "inputs": [],
      "name": "procedureTypeNumber",
      "outputs": [
        {
          "name": "",
          "type": "int256"
        }
      ],
      "payable": false,
      "stateMutability": "view",
      "type": "function"
    },
    {
      "constant": true,
      "inputs": [],
      "name": "quorumSize",
      "outputs": [
        {
          "name": "",
          "type": "uint256"
        }
      ],
      "payable": false,
      "stateMutability": "view",
      "type": "function"
    },
    {
      "constant": true,
      "inputs": [],
      "name": "ballotFrequency",
      "outputs": [
        {
          "name": "",
          "type": "uint256"
        }
      ],
      "payable": false,
      "stateMutability": "view",
      "type": "function"
    },
    {
      "constant": true,
      "inputs": [
        {
          "name": "_userAddress",
          "type": "address"
        }
      ],
      "name": "getBallotToEnforcer",
      "outputs": [
        {
          "name": "",
          "type": "uint256[]"
        }
      ],
      "payable": false,
      "stateMutability": "view",
      "type": "function"
    },
    {
      "constant": true,
      "inputs": [
        {
          "name": "_ballotNumber",
          "type": "uint256"
        },
        {
          "name": "_candidateAddress",
          "type": "address"
        }
      ],
      "name": "getCandidateVoteNumber",
      "outputs": [
        {
          "name": "voteReceived",
          "type": "uint256"
        }
      ],
      "payable": false,
      "stateMutability": "view",
      "type": "function"
    },
    {
      "constant": true,
      "inputs": [],
      "name": "referenceOrganContract",
      "outputs": [
        {
          "name": "",
          "type": "address"
        }
      ],
      "payable": false,
      "stateMutability": "view",
      "type": "function"
    },
    {
      "constant": false,
      "inputs": [
        {
          "name": "_ballotName",
          "type": "string"
        }
      ],
      "name": "createBallot",
      "outputs": [
        {
          "name": "ballotNumber",
          "type": "uint256"
        }
      ],
      "payable": false,
      "stateMutability": "nonpayable",
      "type": "function"
    },
    {
      "constant": false,
      "inputs": [
        {
          "name": "_ballotNumber",
          "type": "uint256"
        }
      ],
      "name": "endBallot",
      "outputs": [],
      "payable": false,
      "stateMutability": "nonpayable",
      "type": "function"
    },
    {
      "constant": true,
      "inputs": [],
      "name": "voterToCandidateRatio",
      "outputs": [
        {
          "name": "",
          "type": "uint256"
        }
      ],
      "payable": false,
      "stateMutability": "view",
      "type": "function"
    },
    {
      "constant": true,
      "inputs": [
        {
          "name": "",
          "type": "address"
        },
        {
          "name": "",
          "type": "uint256"
        }
      ],
      "name": "ballotToVoter",
      "outputs": [
        {
          "name": "",
          "type": "uint256"
        }
      ],
      "payable": false,
      "stateMutability": "view",
      "type": "function"
    },
    {
      "constant": true,
      "inputs": [],
      "name": "getProcedureName",
      "outputs": [
        {
          "name": "_procedureName",
          "type": "string"
        }
      ],
      "payable": false,
      "stateMutability": "view",
      "type": "function"
    },
    {
      "constant": true,
      "inputs": [
        {
          "name": "",
          "type": "uint256"
        }
      ],
      "name": "ballots",
      "outputs": [
        {
          "name": "creator",
          "type": "address"
        },
        {
          "name": "name",
          "type": "string"
        },
        {
          "name": "electedOfficialSlotNumber",
          "type": "uint256"
        },
        {
          "name": "startDate",
          "type": "uint256"
        },
        {
          "name": "candidacyEndDate",
          "type": "uint256"
        },
        {
          "name": "electionEndDate",
          "type": "uint256"
        },
        {
          "name": "wasEnded",
          "type": "bool"
        },
        {
          "name": "wasEnforced",
          "type": "bool"
        },
        {
          "name": "totalVoteCount",
          "type": "uint256"
        },
        {
          "name": "totalVoters",
          "type": "uint256"
        }
      ],
      "payable": false,
      "stateMutability": "view",
      "type": "function"
    },
    {
      "constant": true,
      "inputs": [],
      "name": "kelsenVersionNumber",
      "outputs": [
        {
          "name": "",
          "type": "int256"
        }
      ],
      "payable": false,
      "stateMutability": "view",
      "type": "function"
    },
    {
      "constant": true,
      "inputs": [
        {
          "name": "_ballotNumber",
          "type": "uint256"
        }
      ],
      "name": "getCandidateList",
      "outputs": [
        {
          "name": "_candidateList",
          "type": "address[]"
        }
      ],
      "payable": false,
      "stateMutability": "view",
      "type": "function"
    },
    {
      "constant": true,
      "inputs": [],
      "name": "lastElectionNumber",
      "outputs": [
        {
          "name": "",
          "type": "uint256"
        }
      ],
      "payable": false,
      "stateMutability": "view",
      "type": "function"
    },
    {
      "constant": true,
      "inputs": [
        {
          "name": "",
          "type": "address"
        },
        {
          "name": "",
          "type": "uint256"
        }
      ],
      "name": "ballotToCreator",
      "outputs": [
        {
          "name": "",
          "type": "uint256"
        }
      ],
      "payable": false,
      "stateMutability": "view",
      "type": "function"
    },
    {
      "constant": true,
      "inputs": [
        {
          "name": "_userAddress",
          "type": "address"
        }
      ],
      "name": "getBallotToVoter",
      "outputs": [
        {
          "name": "",
          "type": "uint256[]"
        }
      ],
      "payable": false,
      "stateMutability": "view",
      "type": "function"
    },
    {
      "constant": true,
      "inputs": [
        {
          "name": "_ballotNumber",
          "type": "uint256"
        }
      ],
      "name": "getBallotStatus",
      "outputs": [
        {
          "name": "_wasEnded",
          "type": "bool"
        },
        {
          "name": "_wasEnforced",
          "type": "bool"
        },
        {
          "name": "_winningCandidates",
          "type": "address[]"
        }
      ],
      "payable": false,
      "stateMutability": "view",
      "type": "function"
    },
    {
      "constant": false,
      "inputs": [
        {
          "name": "_ballotNumber",
          "type": "uint256"
        }
      ],
      "name": "enforceBallot",
      "outputs": [],
      "payable": false,
      "stateMutability": "nonpayable",
      "type": "function"
    },
    {
      "constant": true,
      "inputs": [
        {
          "name": "",
          "type": "uint256"
        }
      ],
      "name": "currentModerators",
      "outputs": [
        {
          "name": "",
          "type": "address"
        }
      ],
      "payable": false,
      "stateMutability": "view",
      "type": "function"
    },
    {
      "constant": true,
      "inputs": [
        {
          "name": "",
          "type": "address"
        }
      ],
      "name": "cumulatedCandidacies",
      "outputs": [
        {
          "name": "",
          "type": "uint256"
        }
      ],
      "payable": false,
      "stateMutability": "view",
      "type": "function"
    },
    {
      "constant": true,
      "inputs": [],
      "name": "isAnOrgan",
      "outputs": [
        {
          "name": "",
          "type": "bool"
        }
      ],
      "payable": false,
      "stateMutability": "view",
      "type": "function"
    },
    {
      "constant": true,
      "inputs": [],
      "name": "ballotDuration",
      "outputs": [
        {
          "name": "",
          "type": "uint256"
        }
      ],
      "payable": false,
      "stateMutability": "view",
      "type": "function"
    },
    {
      "constant": true,
      "inputs": [
        {
          "name": "_ballotNumber",
          "type": "uint256"
        }
      ],
      "name": "haveIVoted",
      "outputs": [
        {
          "name": "IHaveVoted",
          "type": "bool"
        }
      ],
      "payable": false,
      "stateMutability": "view",
      "type": "function"
    },
    {
      "constant": true,
      "inputs": [],
      "name": "procedureName",
      "outputs": [
        {
          "name": "",
          "type": "string"
        }
      ],
      "payable": false,
      "stateMutability": "view",
      "type": "function"
    },
    {
      "constant": true,
      "inputs": [
        {
          "name": "_userAddress",
          "type": "address"
        }
      ],
      "name": "getBallotToCounter",
      "outputs": [
        {
          "name": "",
          "type": "uint256[]"
        }
      ],
      "payable": false,
      "stateMutability": "view",
      "type": "function"
    },
    {
      "constant": true,
      "inputs": [],
      "name": "candidacyDuration",
      "outputs": [
        {
          "name": "",
          "type": "uint256"
        }
      ],
      "payable": false,
      "stateMutability": "view",
      "type": "function"
    },
    {
      "constant": true,
      "inputs": [],
      "name": "isBallotCurrentlyRunning",
      "outputs": [
        {
          "name": "",
          "type": "bool"
        }
      ],
      "payable": false,
      "stateMutability": "view",
      "type": "function"
    },
    {
      "constant": true,
      "inputs": [],
      "name": "totalBallotNumber",
      "outputs": [
        {
          "name": "",
          "type": "uint256"
        }
      ],
      "payable": false,
      "stateMutability": "view",
      "type": "function"
    },
    {
      "constant": true,
      "inputs": [],
      "name": "neutralVoteAccepted",
      "outputs": [
        {
          "name": "",
          "type": "bool"
        }
      ],
      "payable": false,
      "stateMutability": "view",
      "type": "function"
    },
    {
      "constant": true,
      "inputs": [
        {
          "name": "_userAddress",
          "type": "address"
        }
      ],
      "name": "getBallotToCreator",
      "outputs": [
        {
          "name": "",
          "type": "uint256[]"
        }
      ],
      "payable": false,
      "stateMutability": "view",
      "type": "function"
    },
    {
      "constant": false,
      "inputs": [
        {
          "name": "_ballotNumber",
          "type": "uint256"
        },
        {
          "name": "_candidateAddresses",
          "type": "address[]"
        }
      ],
      "name": "vote",
      "outputs": [],
      "payable": false,
      "stateMutability": "nonpayable",
      "type": "function"
    },
    {
      "constant": true,
      "inputs": [],
      "name": "nextElectionDate",
      "outputs": [
        {
          "name": "",
          "type": "uint256"
        }
      ],
      "payable": false,
      "stateMutability": "view",
      "type": "function"
    },
    {
      "constant": true,
      "inputs": [],
      "name": "reelectionMaximum",
      "outputs": [
        {
          "name": "",
          "type": "uint256"
        }
      ],
      "payable": false,
      "stateMutability": "view",
      "type": "function"
    },
    {
      "constant": false,
      "inputs": [
        {
          "name": "_ballotNumber",
          "type": "uint256"
        },
        {
          "name": "_name",
          "type": "string"
        },
        {
          "name": "_ipfsHash",
          "type": "bytes32"
        },
        {
          "name": "_hash_function",
          "type": "uint8"
        },
        {
          "name": "_size",
          "type": "uint8"
        }
      ],
      "name": "presentCandidacy",
      "outputs": [],
      "payable": false,
      "stateMutability": "nonpayable",
      "type": "function"
    },
    {
      "constant": true,
      "inputs": [],
      "name": "getLinkedOrgans",
      "outputs": [
        {
          "name": "_linkedOrgans",
          "type": "address[]"
        }
      ],
      "payable": false,
      "stateMutability": "view",
      "type": "function"
    },
    {
      "constant": true,
      "inputs": [
        {
          "name": "",
          "type": "address"
        },
        {
          "name": "",
          "type": "uint256"
        }
      ],
      "name": "ballotToCounter",
      "outputs": [
        {
          "name": "",
          "type": "uint256"
        }
      ],
      "payable": false,
      "stateMutability": "view",
      "type": "function"
    },
    {
      "constant": true,
      "inputs": [],
      "name": "isAProcedure",
      "outputs": [
        {
          "name": "",
          "type": "bool"
        }
      ],
      "payable": false,
      "stateMutability": "view",
      "type": "function"
    },
    {
      "constant": true,
      "inputs": [
        {
          "name": "",
          "type": "uint256"
        }
      ],
      "name": "linkedOrgans",
      "outputs": [
        {
          "name": "",
          "type": "address"
        }
      ],
      "payable": false,
      "stateMutability": "view",
      "type": "function"
    },
    {
      "constant": true,
      "inputs": [],
      "name": "affectedOrganContract",
      "outputs": [
        {
          "name": "",
          "type": "address"
        }
      ],
      "payable": false,
      "stateMutability": "view",
      "type": "function"
    },
    {
      "inputs": [
        {
          "name": "_referenceOrganContract",
          "type": "address"
        },
        {
          "name": "_affectedOrganContract",
          "type": "address"
        },
        {
          "name": "_name",
          "type": "string"
        }
      ],
      "payable": false,
      "stateMutability": "nonpayable",
      "type": "constructor"
    },
    {
      "anonymous": false,
      "inputs": [
        {
          "indexed": false,
          "name": "_from",
          "type": "address"
        },
        {
          "indexed": false,
          "name": "_name",
          "type": "string"
        },
        {
          "indexed": false,
          "name": "_startDate",
          "type": "uint256"
        },
        {
          "indexed": false,
          "name": "_candidacyEndDate",
          "type": "uint256"
        },
        {
          "indexed": false,
          "name": "_endDate",
          "type": "uint256"
        },
        {
          "indexed": false,
          "name": "_ballotNumber",
          "type": "uint256"
        }
      ],
      "name": "ballotCreationEvent",
      "type": "event"
    },
    {
      "anonymous": false,
      "inputs": [
        {
          "indexed": false,
          "name": "_ballotNumber",
          "type": "uint256"
        },
        {
          "indexed": false,
          "name": "_candidateAddress",
          "type": "address"
        },
        {
          "indexed": false,
          "name": "_name",
          "type": "string"
        },
        {
          "indexed": false,
          "name": "_ipfsHash",
          "type": "bytes32"
        },
        {
          "indexed": false,
          "name": "_hash_function",
          "type": "uint8"
        },
        {
          "indexed": false,
          "name": "_size",
          "type": "uint8"
        }
      ],
      "name": "presentCandidacyEvent",
      "type": "event"
    },
    {
      "anonymous": false,
      "inputs": [
        {
          "indexed": false,
          "name": "_from",
          "type": "address"
        },
        {
          "indexed": false,
          "name": "_ballotNumber",
          "type": "uint256"
        }
      ],
      "name": "votedOnElectionEvent",
      "type": "event"
    },
    {
      "anonymous": false,
      "inputs": [
        {
          "indexed": false,
          "name": "_ballotNumber",
          "type": "uint256"
        },
        {
          "indexed": false,
          "name": "_candidateList",
          "type": "address[]"
        },
        {
          "indexed": false,
          "name": "_winningCandidates",
          "type": "address[]"
        },
        {
          "indexed": false,
          "name": "_totalVoteCount",
          "type": "uint256"
        }
      ],
      "name": "ballotWasCounted",
      "type": "event"
    },
    {
      "anonymous": false,
      "inputs": [
        {
          "indexed": false,
          "name": "_ballotNumber",
          "type": "uint256"
        },
        {
          "indexed": false,
          "name": "_wasRebooted",
          "type": "bool"
        }
      ],
      "name": "ballotResultException",
      "type": "event"
    },
    {
      "anonymous": false,
      "inputs": [
        {
          "indexed": false,
          "name": "_winningCandidates",
          "type": "address[]"
        },
        {
          "indexed": false,
          "name": "_ballotNumber",
          "type": "uint256"
        }
      ],
      "name": "ballotWasEnforced",
      "type": "event"
    }
  ],
  "bytecode": "0x60606040526000600460006101000a81548160ff0219169083151502179055506001600460016101000a81548160ff021916908315150217905550600260065534156200004b57600080fd5b60405162004ff338038062004ff38339810160405280805190602001909190805190602001909190805182019190505082600960006101000a81548173ffffffffffffffffffffffffffffffffffffffff021916908373ffffffffffffffffffffffffffffffffffffffff16021790555081600860006101000a81548173ffffffffffffffffffffffffffffffffffffffff021916908373ffffffffffffffffffffffffffffffffffffffff1602179055508060079080519060200190620001159291906200024e565b506040805190810160405280600960009054906101000a900473ffffffffffffffffffffffffffffffffffffffff1673ffffffffffffffffffffffffffffffffffffffff1673ffffffffffffffffffffffffffffffffffffffff168152602001600860009054906101000a900473ffffffffffffffffffffffffffffffffffffffff1673ffffffffffffffffffffffffffffffffffffffff1673ffffffffffffffffffffffffffffffffffffffff16815250600a906002620001d9929190620002d5565b50602860128190555060b4600e8190555060b460108190555061021c600b8190555042600c819055506001600f60006101000a81548160ff02191690831515021790555060026011819055506000601581905550600260138190555060016000819055506000601681905550505050620003d2565b828054600181600116156101000203166002900490600052602060002090601f016020900481019282601f106200029157805160ff1916838001178555620002c2565b82800160010185558215620002c2579182015b82811115620002c1578251825591602001919060010190620002a4565b5b509050620002d1919062000364565b5090565b82805482825590600052602060002090810192821562000351579160200282015b82811115620003505782518260006101000a81548173ffffffffffffffffffffffffffffffffffffffff021916908373ffffffffffffffffffffffffffffffffffffffff16021790555091602001919060010190620002f6565b5b5090506200036091906200038c565b5090565b6200038991905b80821115620003855760008160009055506001016200036b565b5090565b90565b620003cf91905b80821115620003cb57600081816101000a81549073ffffffffffffffffffffffffffffffffffffffff02191690555060010162000393565b5090565b90565b614c1180620003e26000396000f30060606040526004361061020f576000357c0100000000000000000000000000000000000000000000000000000000900463ffffffff16806310f2fa94146102145780631899706d1461025257806318fe2d73146102a85780632647d7f9146103605780633068ef4d14610389578063322af16f146103b2578063325bc6ea146103db5780633468209814610469578063446192af146104bf57806346a865761461051457806348fcc14414610585578063503c3d09146105a857806356453fbf146105d157806359908afe146106275780635c632b38146106b55780635dbe4d28146107e1578063618bde0a1461080a578063680aee50146108825780636be87354146108ab57806372805e31146109015780637ac53b271461098f5780638cd1ff5114610a1d5780639eaa613f14610a40578063a4c797f714610aa3578063a8bef97a14610af0578063ab8f953614610b1d578063ac37af1c14610b46578063adb4018b14610b81578063b064124d14610c0f578063b0c2dede14610c9d578063b4b71cd214610cc6578063b9f43cc514610cf3578063bdf7f47214610d1c578063bf0fac8314610d49578063c5bf93ba14610dd7578063d0746b7a14610e3a578063d9b84d4c14610e63578063de0db92e14610e8c578063e570050114610f17578063e76f506e14610f81578063e80b30a514610fd7578063f2edc61614611004578063fe7800e114611067575b600080fd5b341561021f57600080fd5b61023560048080359060200190919050506110bc565b604051808381526020018281526020019250505060405180910390f35b341561025d57600080fd5b610292600480803573ffffffffffffffffffffffffffffffffffffffff1690602001909190803590602001909190505061110a565b6040518082815260200191505060405180910390f35b34156102b357600080fd5b6102c9600480803590602001909190505061113b565b6040518080602001868152602001858152602001848152602001838152602001828103825287818151815260200191508051906020019080838360005b83811015610321578082015181840152602081019050610306565b50505050905090810190601f16801561034e5780820380516001836020036101000a031916815260200191505b50965050505050505060405180910390f35b341561036b57600080fd5b61037361129c565b6040518082815260200191505060405180910390f35b341561039457600080fd5b61039c6112a2565b6040518082815260200191505060405180910390f35b34156103bd57600080fd5b6103c56112a8565b6040518082815260200191505060405180910390f35b34156103e657600080fd5b610412600480803573ffffffffffffffffffffffffffffffffffffffff169060200190919050506112ae565b6040518080602001828103825283818151815260200191508051906020019060200280838360005b8381101561045557808201518184015260208101905061043a565b505050509050019250505060405180910390f35b341561047457600080fd5b6104a9600480803590602001909190803573ffffffffffffffffffffffffffffffffffffffff1690602001909190505061134b565b6040518082815260200191505060405180910390f35b34156104ca57600080fd5b6104d26113ef565b604051808273ffffffffffffffffffffffffffffffffffffffff1673ffffffffffffffffffffffffffffffffffffffff16815260200191505060405180910390f35b341561051f57600080fd5b61056f600480803590602001908201803590602001908080601f01602080910402602001604051908101604052809392919081815260200183838082843782019150505050505091905050611415565b6040518082815260200191505060405180910390f35b341561059057600080fd5b6105a6600480803590602001909190505061190f565b005b34156105b357600080fd5b6105bb61265b565b6040518082815260200191505060405180910390f35b34156105dc57600080fd5b610611600480803573ffffffffffffffffffffffffffffffffffffffff16906020019091908035906020019091905050612661565b6040518082815260200191505060405180910390f35b341561063257600080fd5b61063a612692565b6040518080602001828103825283818151815260200191508051906020019080838360005b8381101561067a57808201518184015260208101905061065f565b50505050905090810190601f1680156106a75780820380516001836020036101000a031916815260200191505b509250505060405180910390f35b34156106c057600080fd5b6106d6600480803590602001909190505061273a565b604051808b73ffffffffffffffffffffffffffffffffffffffff1673ffffffffffffffffffffffffffffffffffffffff168152602001806020018a8152602001898152602001888152602001878152602001861515151581526020018515151515815260200184815260200183815260200182810382528b8181546001816001161561010002031660029004815260200191508054600181600116156101000203166002900480156107c95780601f1061079e576101008083540402835291602001916107c9565b820191906000526020600020905b8154815290600101906020018083116107ac57829003601f168201915b50509b50505050505050505050505060405180910390f35b34156107ec57600080fd5b6107f46127d6565b6040518082815260200191505060405180910390f35b341561081557600080fd5b61082b60048080359060200190919050506127dc565b6040518080602001828103825283818151815260200191508051906020019060200280838360005b8381101561086e578082015181840152602081019050610853565b505050509050019250505060405180910390f35b341561088d57600080fd5b610895612890565b6040518082815260200191505060405180910390f35b34156108b657600080fd5b6108eb600480803573ffffffffffffffffffffffffffffffffffffffff16906020019091908035906020019091905050612896565b6040518082815260200191505060405180910390f35b341561090c57600080fd5b610938600480803573ffffffffffffffffffffffffffffffffffffffff169060200190919050506128c7565b6040518080602001828103825283818151815260200191508051906020019060200280838360005b8381101561097b578082015181840152602081019050610960565b505050509050019250505060405180910390f35b341561099a57600080fd5b6109b06004808035906020019091905050612964565b60405180841515151581526020018315151515815260200180602001828103825283818151815260200191508051906020019060200280838360005b83811015610a075780820151818401526020810190506109ec565b5050505090500194505050505060405180910390f35b3415610a2857600080fd5b610a3e6004808035906020019091905050612a80565b005b3415610a4b57600080fd5b610a61600480803590602001909190505061350a565b604051808273ffffffffffffffffffffffffffffffffffffffff1673ffffffffffffffffffffffffffffffffffffffff16815260200191505060405180910390f35b3415610aae57600080fd5b610ada600480803573ffffffffffffffffffffffffffffffffffffffff16906020019091905050613549565b6040518082815260200191505060405180910390f35b3415610afb57600080fd5b610b03613561565b604051808215151515815260200191505060405180910390f35b3415610b2857600080fd5b610b30613574565b6040518082815260200191505060405180910390f35b3415610b5157600080fd5b610b67600480803590602001909190505061357a565b604051808215151515815260200191505060405180910390f35b3415610b8c57600080fd5b610b946135f1565b6040518080602001828103825283818151815260200191508051906020019080838360005b83811015610bd4578082015181840152602081019050610bb9565b50505050905090810190601f168015610c015780820380516001836020036101000a031916815260200191505b509250505060405180910390f35b3415610c1a57600080fd5b610c46600480803573ffffffffffffffffffffffffffffffffffffffff1690602001909190505061368f565b6040518080602001828103825283818151815260200191508051906020019060200280838360005b83811015610c89578082015181840152602081019050610c6e565b505050509050019250505060405180910390f35b3415610ca857600080fd5b610cb061372c565b6040518082815260200191505060405180910390f35b3415610cd157600080fd5b610cd9613732565b604051808215151515815260200191505060405180910390f35b3415610cfe57600080fd5b610d06613745565b6040518082815260200191505060405180910390f35b3415610d2757600080fd5b610d2f61374b565b604051808215151515815260200191505060405180910390f35b3415610d5457600080fd5b610d80600480803573ffffffffffffffffffffffffffffffffffffffff1690602001909190505061375e565b6040518080602001828103825283818151815260200191508051906020019060200280838360005b83811015610dc3578082015181840152602081019050610da8565b505050509050019250505060405180910390f35b3415610de257600080fd5b610e386004808035906020019091908035906020019082018035906020019080806020026020016040519081016040528093929190818152602001838360200280828437820191505050505050919050506137fb565b005b3415610e4557600080fd5b610e4d613f57565b6040518082815260200191505060405180910390f35b3415610e6e57600080fd5b610e76613f5d565b6040518082815260200191505060405180910390f35b3415610e9757600080fd5b610f15600480803590602001909190803590602001908201803590602001908080601f016020809104026020016040519081016040528093929190818152602001838380828437820191505050505050919080356000191690602001909190803560ff1690602001909190803560ff16906020019091905050613f63565b005b3415610f2257600080fd5b610f2a6145c4565b6040518080602001828103825283818151815260200191508051906020019060200280838360005b83811015610f6d578082015181840152602081019050610f52565b505050509050019250505060405180910390f35b3415610f8c57600080fd5b610fc1600480803573ffffffffffffffffffffffffffffffffffffffff16906020019091908035906020019091905050614658565b6040518082815260200191505060405180910390f35b3415610fe257600080fd5b610fea614689565b604051808215151515815260200191505060405180910390f35b341561100f57600080fd5b611025600480803590602001909190505061469c565b604051808273ffffffffffffffffffffffffffffffffffffffff1673ffffffffffffffffffffffffffffffffffffffff16815260200191505060405180910390f35b341561107257600080fd5b61107a6146db565b604051808273ffffffffffffffffffffffffffffffffffffffff1673ffffffffffffffffffffffffffffffffffffffff16815260200191505060405180910390f35b6000806017838154811015156110ce57fe5b90600052602060002090600d0201600c01546017848154811015156110ef57fe5b90600052602060002090600d0201600b015491509150915091565b601c6020528160005260406000208181548110151561112557fe5b9060005260206000209001600091509150505481565b611143614701565b60008060008060178681548110151561115857fe5b90600052602060002090600d020160010160178781548110151561117857fe5b90600052602060002090600d02016006015460178881548110151561119957fe5b90600052602060002090600d0201600701546017898154811015156111ba57fe5b90600052602060002090600d02016008015460178a8154811015156111db57fe5b90600052602060002090600d020160050154848054600181600116156101000203166002900480601f0160208091040260200160405190810160405280929190818152602001828054600181600116156101000203166002900480156112825780601f1061125757610100808354040283529160200191611282565b820191906000526020600020905b81548152906001019060200180831161126557829003601f168201915b505050505094509450945094509450945091939590929450565b60065481565b60125481565b600b5481565b6112b6614715565b601c60008373ffffffffffffffffffffffffffffffffffffffff1673ffffffffffffffffffffffffffffffffffffffff16815260200190815260200160002080548060200260200160405190810160405280929190818152602001828054801561133f57602002820191906000526020600020905b81548152602001906001019080831161132b575b50505050509050919050565b600060178381548110151561135c57fe5b90600052602060002090600d020160090160019054906101000a900460ff16151561138657600080fd5b60178381548110151561139557fe5b90600052602060002090600d020160030160008373ffffffffffffffffffffffffffffffffffffffff1673ffffffffffffffffffffffffffffffffffffffff16815260200190815260200160002060030154905092915050565b600960009054906101000a900473ffffffffffffffffffffffffffffffffffffffff1681565b600061141f614729565b6000801515601460009054906101000a900460ff16151514151561144257600080fd5b600c544211151561145257600080fd5b6000601780549050111561149c57601760165481548110151561147157fe5b90600052602060002090600d020160090160009054906101000a900460ff16151561149b57600080fd5b5b33826000019073ffffffffffffffffffffffffffffffffffffffff16908173ffffffffffffffffffffffffffffffffffffffff16815250508382602001819052504282608001818152505060105442018260a0018181525050600e546010544201018260c001818152505060008260e0019015159081151581525050600082610140018181525050600082610160018181525050600960009054906101000a900473ffffffffffffffffffffffffffffffffffffffff1690506013548173ffffffffffffffffffffffffffffffffffffffff1663234d34de6000604051602001526040518163ffffffff167c0100000000000000000000000000000000000000000000000000000000028152600401602060405180830381600087803b15156115c457600080fd5b6102c65a03f115156115d557600080fd5b505050604051805190508115156115e857fe5b0482606001818152505060008260600151141561160b5760018260600181815250505b600090506017805480600101828161162391906147b7565b91600052602060002090600d0201600084909190915060008201518160000160006101000a81548173ffffffffffffffffffffffffffffffffffffffff021916908373ffffffffffffffffffffffffffffffffffffffff160217905550602082015181600101908051906020019061169c9291906147e9565b5060408201518160040190805190602001906116b9929190614869565b50606082015181600501556080820151816006015560a0820151816007015560c0820151816008015560e08201518160090160006101000a81548160ff0219169083151502179055506101008201518160090160016101000a81548160ff02191690831515021790555061012082015181600a019080519060200190611740929190614869565b5061014082015181600b015561016082015181600c0155505050600160178054905003925060016015600082825401925050819055506001601460006101000a81548160ff021916908315150217905550600b544201600c81905550826016819055507fdb79682a2650346f5fbfd232c0059da59a89b2a64c3fb7d75ccf58ff939be0d5338584608001518560a001518660c0015188604051808773ffffffffffffffffffffffffffffffffffffffff1673ffffffffffffffffffffffffffffffffffffffff16815260200180602001868152602001858152602001848152602001838152602001828103825287818151815260200191508051906020019080838360005b83811015611860578082015181840152602081019050611845565b50505050905090810190601f16801561188d5780820380516001836020036101000a031916815260200191505b5097505050505050505060405180910390a1601960003373ffffffffffffffffffffffffffffffffffffffff1673ffffffffffffffffffffffffffffffffffffffff16815260200190815260200160002080548060010182816118f091906148f3565b9160005260206000209001600085909190915055508292505050919050565b600080600080600080600080600060178a81548110151561192c57fe5b90600052602060002090600d020160090160009054906101000a900460ff1615151561195757600080fd5b4260178b81548110151561196757fe5b90600052602060002090600d02016008015410151561198557600080fd5b600060178b81548110151561199657fe5b90600052602060002090600d02016004018054905014806119d75750600060178b8154811015156119c357fe5b90600052602060002090600d0201600b0154145b15611b7e5760014203600c819055506000601460006101000a81548160ff021916908315150217905550600160178b815481101515611a1257fe5b90600052602060002090600d020160090160006101000a81548160ff021916908315150217905550600160178b815481101515611a4b57fe5b90600052602060002090600d020160090160016101000a81548160ff0219169083151502179055507fd3844af45b09228a143d3e565e053517b81b3e6b1ee574de327db2ba09eebefe8a600160405180838152602001821515151581526020019250505060405180910390a1611b7860178b815481101515611ac957fe5b90600052602060002090600d02016001018054600181600116156101000203166002900480601f016020809104026020016040519081016040528092919081815260200182805460018160011615610100020316600290048015611b6e5780601f10611b4357610100808354040283529160200191611b6e565b820191906000526020600020905b815481529060010190602001808311611b5157829003601f168201915b5050505050611415565b5061264f565b60178a815481101515611b8d57fe5b90600052602060002090600d02016005015460178b815481101515611bae57fe5b90600052602060002090600d0201600401805490501015611c125760178a815481101515611bd857fe5b90600052602060002090600d02016004018054905060178b815481101515611bfc57fe5b90600052602060002090600d0201600501819055505b7fffffffffffffffffffffffffffffffffffffffffffffffffffffffffffffffff9850600097506000965060009550600960009054906101000a900473ffffffffffffffffffffffffffffffffffffffff1694508473ffffffffffffffffffffffffffffffffffffffff1663234d34de6000604051602001526040518163ffffffff167c0100000000000000000000000000000000000000000000000000000000028152600401602060405180830381600087803b1515611cd257600080fd5b6102c65a03f11515611ce357600080fd5b5050506040518051905060125402606460178c815481101515611d0257fe5b90600052602060002090600d0201600c0154021015611ebd57600160178b815481101515611d2c57fe5b90600052602060002090600d020160090160016101000a81548160ff02191690831515021790555060014203600c819055506000601460006101000a81548160ff021916908315150217905550600160178b815481101515611d8a57fe5b90600052602060002090600d020160090160006101000a81548160ff0219169083151502179055507fd3844af45b09228a143d3e565e053517b81b3e6b1ee574de327db2ba09eebefe8a600160405180838152602001821515151581526020019250505060405180910390a1611eb760178b815481101515611e0857fe5b90600052602060002090600d02016001018054600181600116156101000203166002900480601f016020809104026020016040519081016040528092919081815260200182805460018160011615610100020316600290048015611ead5780601f10611e8257610100808354040283529160200191611ead565b820191906000526020600020905b815481529060010190602001808311611e9057829003601f168201915b5050505050611415565b5061264f565b60009450600093505b60178a815481101515611ed557fe5b90600052602060002090600d0201600501548410156123ff576000975060009550600092505b60178a815481101515611f0a57fe5b90600052602060002090600d0201600401805490508310156121445760178a815481101515611f3557fe5b90600052602060002090600d020160040183815481101515611f5357fe5b906000526020600020900160009054906101000a900473ffffffffffffffffffffffffffffffffffffffff1691508860178b815481101515611f9157fe5b90600052602060002090600d020160030160008473ffffffffffffffffffffffffffffffffffffffff1673ffffffffffffffffffffffffffffffffffffffff16815260200190815260200160002060030154101515611fef57612137565b8760178b815481101515611fff57fe5b90600052602060002090600d020160030160008473ffffffffffffffffffffffffffffffffffffffff1673ffffffffffffffffffffffffffffffffffffffff1681526020019081526020016000206003015411156120c65760178a81548110151561206657fe5b90600052602060002090600d020160030160008373ffffffffffffffffffffffffffffffffffffffff1673ffffffffffffffffffffffffffffffffffffffff16815260200190815260200160002060030154975082955060009650612136565b8760178b8154811015156120d657fe5b90600052602060002090600d020160030160008473ffffffffffffffffffffffffffffffffffffffff1673ffffffffffffffffffffffffffffffffffffffff168152602001908152602001600020600301541415612135576001870196505b5b5b8280600101935050611efb565b6000881415612152576123ef565b600087111561231457600090505b60178a81548110151561216f57fe5b90600052602060002090600d02016004018054905081101561230f5760178a81548110151561219a57fe5b90600052602060002090600d020160050154841015156121b957612302565b8760178b8154811015156121c957fe5b90600052602060002090600d020160030160008473ffffffffffffffffffffffffffffffffffffffff1673ffffffffffffffffffffffffffffffffffffffff1681526020019081526020016000206003015414156123015760178a81548110151561223057fe5b90600052602060002090600d0201600a018054806001018281612253919061491f565b9160005260206000209001600060178d81548110151561226f57fe5b90600052602060002090600d02016004018481548110151561228d57fe5b906000526020600020900160009054906101000a900473ffffffffffffffffffffffffffffffffffffffff16909190916101000a81548173ffffffffffffffffffffffffffffffffffffffff021916908373ffffffffffffffffffffffffffffffffffffffff160217905550506001840193505b5b8080600101915050612160565b6123ee565b60178a81548110151561232357fe5b90600052602060002090600d0201600a018054806001018281612346919061491f565b9160005260206000209001600060178d81548110151561236257fe5b90600052602060002090600d02016004018981548110151561238057fe5b906000526020600020900160009054906101000a900473ffffffffffffffffffffffffffffffffffffffff16909190916101000a81548173ffffffffffffffffffffffffffffffffffffffff021916908373ffffffffffffffffffffffffffffffffffffffff160217905550505b5b8798508380600101945050611ec6565b600160178b81548110151561241057fe5b90600052602060002090600d020160090160006101000a81548160ff0219169083151502179055506000601460006101000a81548160ff0219169083151502179055507f6a6e9488d1e543a71df6a63c3b9ef8b855bca0541ba53a29c0ea65d1e0cfebb38a60178c81548110151561248457fe5b90600052602060002090600d020160040160178d8154811015156124a457fe5b90600052602060002090600d0201600a0160178e8154811015156124c457fe5b90600052602060002090600d0201600b0154604051808581526020018060200180602001848152602001838103835286818154815260200191508054801561256157602002820191906000526020600020905b8160009054906101000a900473ffffffffffffffffffffffffffffffffffffffff1673ffffffffffffffffffffffffffffffffffffffff1681526020019060010190808311612517575b505083810382528581815481526020019150805480156125d657602002820191906000526020600020905b8160009054906101000a900473ffffffffffffffffffffffffffffffffffffffff1673ffffffffffffffffffffffffffffffffffffffff168152602001906001019080831161258c575b5050965050505050505060405180910390a1601b60003373ffffffffffffffffffffffffffffffffffffffff1673ffffffffffffffffffffffffffffffffffffffff168152602001908152602001600020805480600101828161263991906148f3565b916000526020600020900160008c909190915055505b50505050505050505050565b60135481565b601a6020528160005260406000208181548110151561267c57fe5b9060005260206000209001600091509150505481565b61269a614701565b60078054600181600116156101000203166002900480601f0160208091040260200160405190810160405280929190818152602001828054600181600116156101000203166002900480156127305780601f1061270557610100808354040283529160200191612730565b820191906000526020600020905b81548152906001019060200180831161271357829003601f168201915b5050505050905090565b60178181548110151561274957fe5b90600052602060002090600d02016000915090508060000160009054906101000a900473ffffffffffffffffffffffffffffffffffffffff169080600101908060050154908060060154908060070154908060080154908060090160009054906101000a900460ff16908060090160019054906101000a900460ff169080600b01549080600c015490508a565b60005481565b6127e461494b565b6017828154811015156127f357fe5b90600052602060002090600d020160040180548060200260200160405190810160405280929190818152602001828054801561288457602002820191906000526020600020905b8160009054906101000a900473ffffffffffffffffffffffffffffffffffffffff1673ffffffffffffffffffffffffffffffffffffffff168152602001906001019080831161283a575b50505050509050919050565b60165481565b6019602052816000526040600020818154811015156128b157fe5b9060005260206000209001600091509150505481565b6128cf614715565b601a60008373ffffffffffffffffffffffffffffffffffffffff1673ffffffffffffffffffffffffffffffffffffffff16815260200190815260200160002080548060200260200160405190810160405280929190818152602001828054801561295857602002820191906000526020600020905b815481526020019060010190808311612944575b50505050509050919050565b60008061296f61494b565b60178481548110151561297e57fe5b90600052602060002090600d020160090160009054906101000a900460ff166017858154811015156129ac57fe5b90600052602060002090600d020160090160019054906101000a900460ff166017868154811015156129da57fe5b90600052602060002090600d0201600a0180805480602002602001604051908101604052809291908181526020018280548015612a6c57602002820191906000526020600020905b8160009054906101000a900473ffffffffffffffffffffffffffffffffffffffff1673ffffffffffffffffffffffffffffffffffffffff1681526020019060010190808311612a22575b505050505090509250925092509193909250565b6000806000612a8d61495f565b601785815481101515612a9c57fe5b90600052602060002090600d020160090160019054906101000a900460ff16151515612ac757600080fd5b601785815481101515612ad657fe5b90600052602060002090600d020160090160009054906101000a900460ff161515612b0057600080fd5b600b54601786815481101515612b1257fe5b90600052602060002090600d02016006015401421115612bae576001601786815481101515612b3d57fe5b90600052602060002090600d020160090160016101000a81548160ff0219169083151502179055507fd3844af45b09228a143d3e565e053517b81b3e6b1ee574de327db2ba09eebefe85600060405180838152602001821515151581526020019250505060405180910390a1613503565b600860009054906101000a900473ffffffffffffffffffffffffffffffffffffffff16935060016015541115612db457600092505b600d80549050831015612db3578373ffffffffffffffffffffffffffffffffffffffff16630e9defff8573ffffffffffffffffffffffffffffffffffffffff16635549ea51600d87815481101515612c3757fe5b906000526020600020900160009054906101000a900473ffffffffffffffffffffffffffffffffffffffff166000604051602001526040518263ffffffff167c0100000000000000000000000000000000000000000000000000000000028152600401808273ffffffffffffffffffffffffffffffffffffffff1673ffffffffffffffffffffffffffffffffffffffff168152602001915050602060405180830381600087803b1515612ce957600080fd5b6102c65a03f11515612cfa57600080fd5b505050604051805190506040518263ffffffff167c010000000000000000000000000000000000000000000000000000000002815260040180828152602001915050600060405180830381600087803b1515612d5557600080fd5b6102c65a03f11515612d6657600080fd5b505050600d83815481101515612d7857fe5b906000526020600020900160006101000a81549073ffffffffffffffffffffffffffffffffffffffff02191690558280600101935050612be3565b5b600091505b601785815481101515612dc857fe5b90600052602060002090600d0201600a018054905082101561339157601785815481101515612df357fe5b90600052602060002090600d02016003016000601787815481101515612e1557fe5b90600052602060002090600d0201600a0184815481101515612e3357fe5b906000526020600020900160009054906101000a900473ffffffffffffffffffffffffffffffffffffffff1673ffffffffffffffffffffffffffffffffffffffff1673ffffffffffffffffffffffffffffffffffffffff16815260200190815260200160002060a06040519081016040529081600082018054600181600116156101000203166002900480601f016020809104026020016040519081016040528092919081815260200182805460018160011615610100020316600290048015612f3e5780601f10612f1357610100808354040283529160200191612f3e565b820191906000526020600020905b815481529060010190602001808311612f2157829003601f168201915b505050505081526020016001820154600019166000191681526020016002820160009054906101000a900460ff1660ff1660ff1681526020016002820160019054906101000a900460ff1660ff1660ff16815260200160038201548152505090508373ffffffffffffffffffffffffffffffffffffffff1663696c5219601787815481101515612fca57fe5b90600052602060002090600d0201600a0184815481101515612fe857fe5b906000526020600020900160009054906101000a900473ffffffffffffffffffffffffffffffffffffffff1683600001518460200151856040015186606001516000604051602001526040518663ffffffff167c0100000000000000000000000000000000000000000000000000000000028152600401808673ffffffffffffffffffffffffffffffffffffffff1673ffffffffffffffffffffffffffffffffffffffff1681526020018060200185600019166000191681526020018460ff1660ff1681526020018360ff1660ff168152602001828103825286818151815260200191508051906020019080838360005b838110156130f45780820151818401526020810190506130d9565b50505050905090810190601f1680156131215780820380516001836020036101000a031916815260200191505b509650505050505050602060405180830381600087803b151561314357600080fd5b6102c65a03f1151561315457600080fd5b505050604051805190505060016018600060178881548110151561317457fe5b90600052602060002090600d0201600a018581548110151561319257fe5b906000526020600020900160009054906101000a900473ffffffffffffffffffffffffffffffffffffffff1673ffffffffffffffffffffffffffffffffffffffff1673ffffffffffffffffffffffffffffffffffffffff16815260200190815260200160002060008282540192505081905550600d805490508210156132c85760178581548110151561322157fe5b90600052602060002090600d0201600a018281548110151561323f57fe5b906000526020600020900160009054906101000a900473ffffffffffffffffffffffffffffffffffffffff16600d8381548110151561327a57fe5b906000526020600020900160006101000a81548173ffffffffffffffffffffffffffffffffffffffff021916908373ffffffffffffffffffffffffffffffffffffffff160217905550613384565b600d80548060010182816132dc919061491f565b916000526020600020900160006017888154811015156132f857fe5b90600052602060002090600d0201600a018581548110151561331657fe5b906000526020600020900160009054906101000a900473ffffffffffffffffffffffffffffffffffffffff16909190916101000a81548173ffffffffffffffffffffffffffffffffffffffff021916908373ffffffffffffffffffffffffffffffffffffffff160217905550505b8180600101925050612db9565b60016017868154811015156133a257fe5b90600052602060002090600d020160090160016101000a81548160ff021916908315150217905550601c60003373ffffffffffffffffffffffffffffffffffffffff1673ffffffffffffffffffffffffffffffffffffffff168152602001908152602001600020805480600101828161341b91906148f3565b9160005260206000209001600087909190915055507feaab7a5bfae8aa5ea8ea163762c60c8863cfea36cff6674f02eff6509623474160178681548110151561346057fe5b90600052602060002090600d0201600a0186604051808060200183815260200182810382528481815481526020019150805480156134f357602002820191906000526020600020905b8160009054906101000a900473ffffffffffffffffffffffffffffffffffffffff1673ffffffffffffffffffffffffffffffffffffffff16815260200190600101908083116134a9575b5050935050505060405180910390a15b5050505050565b600d8181548110151561351957fe5b90600052602060002090016000915054906101000a900473ffffffffffffffffffffffffffffffffffffffff1681565b60186020528060005260406000206000915090505481565b600460009054906101000a900460ff1681565b600e5481565b600060178281548110151561358b57fe5b90600052602060002090600d020160020160003373ffffffffffffffffffffffffffffffffffffffff1673ffffffffffffffffffffffffffffffffffffffff16815260200190815260200160002060000160009054906101000a900460ff169050919050565b60078054600181600116156101000203166002900480601f0160208091040260200160405190810160405280929190818152602001828054600181600116156101000203166002900480156136875780601f1061365c57610100808354040283529160200191613687565b820191906000526020600020905b81548152906001019060200180831161366a57829003601f168201915b505050505081565b613697614715565b601b60008373ffffffffffffffffffffffffffffffffffffffff1673ffffffffffffffffffffffffffffffffffffffff16815260200190815260200160002080548060200260200160405190810160405280929190818152602001828054801561372057602002820191906000526020600020905b81548152602001906001019080831161370c575b50505050509050919050565b60105481565b601460009054906101000a900460ff1681565b60155481565b600f60009054906101000a900460ff1681565b613766614715565b601960008373ffffffffffffffffffffffffffffffffffffffff1673ffffffffffffffffffffffffffffffffffffffff1681526020019081526020016000208054806020026020016040519081016040528092919081815260200182805480156137ef57602002820191906000526020600020905b8154815260200190600101908083116137db575b50505050509050919050565b600080600960009054906101000a900473ffffffffffffffffffffffffffffffffffffffff1691508173ffffffffffffffffffffffffffffffffffffffff1663d323a4f8336000604051602001526040518263ffffffff167c0100000000000000000000000000000000000000000000000000000000028152600401808273ffffffffffffffffffffffffffffffffffffffff1673ffffffffffffffffffffffffffffffffffffffff168152602001915050602060405180830381600087803b15156138c657600080fd5b6102c65a03f115156138d757600080fd5b5050506040518051905015156138ec57600080fd5b600091506017848154811015156138ff57fe5b90600052602060002090600d020160020160003373ffffffffffffffffffffffffffffffffffffffff1673ffffffffffffffffffffffffffffffffffffffff16815260200190815260200160002060000160009054906101000a900460ff1615151561396a57600080fd5b60178481548110151561397957fe5b90600052602060002090600d020160090160009054906101000a900460ff161515156139a457600080fd5b426017858154811015156139b457fe5b90600052602060002090600d0201600701541015156139d257600080fd5b426017858154811015156139e257fe5b90600052602060002090600d020160080154111515613a0057600080fd5b6001601785815481101515613a1157fe5b90600052602060002090600d020160050154018351101515613a3257600080fd5b60008351111515613a4257600080fd5b600090505b8251811015613dd857601784815481101515613a5f57fe5b90600052602060002090600d020160020160003373ffffffffffffffffffffffffffffffffffffffff1673ffffffffffffffffffffffffffffffffffffffff16815260200190815260200160002060010160008483815181101515613ac057fe5b9060200190602002015173ffffffffffffffffffffffffffffffffffffffff1673ffffffffffffffffffffffffffffffffffffffff16815260200190815260200160002060009054906101000a900460ff16151515613b1e57600080fd5b601784815481101515613b2d57fe5b90600052602060002090600d020160020160008483815181101515613b4e57fe5b9060200190602002015173ffffffffffffffffffffffffffffffffffffffff1673ffffffffffffffffffffffffffffffffffffffff16815260200190815260200160002060000160019054906101000a900460ff1615613d715780601785815481101515613bb857fe5b90600052602060002090600d02016005015403601785815481101515613bda57fe5b90600052602060002090600d020160030160008584815181101515613bfb57fe5b9060200190602002015173ffffffffffffffffffffffffffffffffffffffff1673ffffffffffffffffffffffffffffffffffffffff1681526020019081526020016000206003016000828254019250508190555080601785815481101515613c5f57fe5b90600052602060002090600d02016005015403601785815481101515613c8157fe5b90600052602060002090600d0201600b01600082825401925050819055506001601785815481101515613cb057fe5b90600052602060002090600d020160020160003373ffffffffffffffffffffffffffffffffffffffff1673ffffffffffffffffffffffffffffffffffffffff16815260200190815260200160002060010160008584815181101515613d1157fe5b9060200190602002015173ffffffffffffffffffffffffffffffffffffffff1673ffffffffffffffffffffffffffffffffffffffff16815260200190815260200160002060006101000a81548160ff021916908315150217905550613dcb565b6001601785815481101515613d8257fe5b90600052602060002090600d020160030160008073ffffffffffffffffffffffffffffffffffffffff168152602001908152602001600020600301600082825401925050819055505b8080600101915050613a47565b6001601785815481101515613de957fe5b90600052602060002090600d020160020160003373ffffffffffffffffffffffffffffffffffffffff1673ffffffffffffffffffffffffffffffffffffffff16815260200190815260200160002060000160006101000a81548160ff0219169083151502179055506001601785815481101515613e6257fe5b90600052602060002090600d0201600c0160008282540192505081905550601a60003373ffffffffffffffffffffffffffffffffffffffff1673ffffffffffffffffffffffffffffffffffffffff1681526020019081526020016000208054806001018281613ed191906148f3565b9160005260206000209001600086909190915055507f64bbf4ffdc825afb14eb0f410f1141b85c43dfa5ee8ae25eb7cdf85ec997cd8f3385604051808373ffffffffffffffffffffffffffffffffffffffff1673ffffffffffffffffffffffffffffffffffffffff1681526020018281526020019250505060405180910390a150505050565b600c5481565b60115481565b6000600960009054906101000a900473ffffffffffffffffffffffffffffffffffffffff1690508073ffffffffffffffffffffffffffffffffffffffff1663d323a4f8336000604051602001526040518263ffffffff167c0100000000000000000000000000000000000000000000000000000000028152600401808273ffffffffffffffffffffffffffffffffffffffff1673ffffffffffffffffffffffffffffffffffffffff168152602001915050602060405180830381600087803b151561402d57600080fd5b6102c65a03f1151561403e57600080fd5b50505060405180519050151561405357600080fd5b6000905060178681548110151561406657fe5b90600052602060002090600d020160090160009054906101000a900460ff1615151561409157600080fd5b426017878154811015156140a157fe5b90600052602060002090600d0201600701541115156140bf57600080fd5b601154601860003373ffffffffffffffffffffffffffffffffffffffff1673ffffffffffffffffffffffffffffffffffffffff1681526020019081526020016000205410151561410e57600080fd5b60178681548110151561411d57fe5b90600052602060002090600d020160020160003373ffffffffffffffffffffffffffffffffffffffff1673ffffffffffffffffffffffffffffffffffffffff16815260200190815260200160002060000160019054906101000a900460ff1615151561418857600080fd5b60178681548110151561419757fe5b90600052602060002090600d020160040180548060010182816141ba919061491f565b9160005260206000209001600033909190916101000a81548173ffffffffffffffffffffffffffffffffffffffff021916908373ffffffffffffffffffffffffffffffffffffffff16021790555050600160178781548110151561421a57fe5b90600052602060002090600d020160020160003373ffffffffffffffffffffffffffffffffffffffff1673ffffffffffffffffffffffffffffffffffffffff16815260200190815260200160002060000160016101000a81548160ff0219169083151502179055508460178781548110151561429257fe5b90600052602060002090600d020160030160003373ffffffffffffffffffffffffffffffffffffffff1673ffffffffffffffffffffffffffffffffffffffff16815260200190815260200160002060000190805190602001906142f692919061499e565b508360178781548110151561430757fe5b90600052602060002090600d020160030160003373ffffffffffffffffffffffffffffffffffffffff1673ffffffffffffffffffffffffffffffffffffffff16815260200190815260200160002060010181600019169055508260178781548110151561437057fe5b90600052602060002090600d020160030160003373ffffffffffffffffffffffffffffffffffffffff1673ffffffffffffffffffffffffffffffffffffffff16815260200190815260200160002060020160006101000a81548160ff021916908360ff160217905550816017878154811015156143e957fe5b90600052602060002090600d020160030160003373ffffffffffffffffffffffffffffffffffffffff1673ffffffffffffffffffffffffffffffffffffffff16815260200190815260200160002060020160016101000a81548160ff021916908360ff160217905550600060178781548110151561446357fe5b90600052602060002090600d020160030160003373ffffffffffffffffffffffffffffffffffffffff1673ffffffffffffffffffffffffffffffffffffffff168152602001908152602001600020600301819055507ff8889d073f0366f70b5fd3ef060e300b4071afc6e31d114717b21bf374f270eb863387878787604051808781526020018673ffffffffffffffffffffffffffffffffffffffff1673ffffffffffffffffffffffffffffffffffffffff1681526020018060200185600019166000191681526020018460ff1660ff1681526020018360ff1660ff168152602001828103825286818151815260200191508051906020019080838360005b8381101561457d578082015181840152602081019050614562565b50505050905090810190601f1680156145aa5780820380516001836020036101000a031916815260200191505b5097505050505050505060405180910390a1505050505050565b6145cc61494b565b600a80548060200260200160405190810160405280929190818152602001828054801561464e57602002820191906000526020600020905b8160009054906101000a900473ffffffffffffffffffffffffffffffffffffffff1673ffffffffffffffffffffffffffffffffffffffff1681526020019060010190808311614604575b5050505050905090565b601b6020528160005260406000208181548110151561467357fe5b9060005260206000209001600091509150505481565b600460019054906101000a900460ff1681565b600a818154811015156146ab57fe5b90600052602060002090016000915054906101000a900473ffffffffffffffffffffffffffffffffffffffff1681565b600860009054906101000a900473ffffffffffffffffffffffffffffffffffffffff1681565b602060405190810160405280600081525090565b602060405190810160405280600081525090565b61018060405190810160405280600073ffffffffffffffffffffffffffffffffffffffff16815260200161475b614a1e565b8152602001614768614a32565b8152602001600081526020016000815260200160008152602001600081526020016000151581526020016000151581526020016147a3614a32565b815260200160008152602001600081525090565b8154818355818115116147e457600d0281600d0283600052602060002091820191016147e39190614a46565b5b505050565b828054600181600116156101000203166002900490600052602060002090601f016020900481019282601f1061482a57805160ff1916838001178555614858565b82800160010185558215614858579182015b8281111561485757825182559160200191906001019061483c565b5b5090506148659190614b14565b5090565b8280548282559060005260206000209081019282156148e2579160200282015b828111156148e15782518260006101000a81548173ffffffffffffffffffffffffffffffffffffffff021916908373ffffffffffffffffffffffffffffffffffffffff16021790555091602001919060010190614889565b5b5090506148ef9190614b39565b5090565b81548183558181151161491a578183600052602060002091820191016149199190614b14565b5b505050565b815481835581811511614946578183600052602060002091820191016149459190614b14565b5b505050565b602060405190810160405280600081525090565b60a060405190810160405280614973614a1e565b815260200160008019168152602001600060ff168152602001600060ff168152602001600081525090565b828054600181600116156101000203166002900490600052602060002090601f016020900481019282601f106149df57805160ff1916838001178555614a0d565b82800160010185558215614a0d579182015b82811115614a0c5782518255916020019190600101906149f1565b5b509050614a1a9190614b14565b5090565b602060405190810160405280600081525090565b602060405190810160405280600081525090565b614b1191905b80821115614b0d57600080820160006101000a81549073ffffffffffffffffffffffffffffffffffffffff0219169055600182016000614a8c9190614b7c565b600482016000614a9c9190614bc4565b60058201600090556006820160009055600782016000905560088201600090556009820160006101000a81549060ff02191690556009820160016101000a81549060ff0219169055600a82016000614af49190614bc4565b600b820160009055600c82016000905550600d01614a4c565b5090565b90565b614b3691905b80821115614b32576000816000905550600101614b1a565b5090565b90565b614b7991905b80821115614b7557600081816101000a81549073ffffffffffffffffffffffffffffffffffffffff021916905550600101614b3f565b5090565b90565b50805460018160011615610100020316600290046000825580601f10614ba25750614bc1565b601f016020900490600052602060002090810190614bc09190614b14565b5b50565b5080546000825590600052602060002090810190614be29190614b14565b505600a165627a7a7230582084c6d966e3a99195a974c9599110c5badcf22f8614d41f4a5e2244b149b931c80029",
  "source": "pragma solidity ^0.4.11;\n\n// Standard contract for a presidential election procedure\n\nimport \"../standardProcedure.sol\";\nimport \"../standardOrgan.sol\";\nimport \"../procedures/cyclicalManyToManyElectionProcedure.sol\";\n\n\n\n\ncontract deployCyclicalManyToManyElectionProcedure is cyclicalManyToManyElectionProcedure {\n\n    function deployCyclicalManyToManyElectionProcedure (address _referenceOrganContract, address _affectedOrganContract, string _name) public {\n    //     // Variables for Presidential election\n    // voterRegistry = 0x0000;\n    // quorumSize = 40;\n    // ballotDuration = 7 days;\n    // candidacyDuration = 7 days;\n    // ballotFrequency = 2 years;\n    // nextElectionDate = now;\n    // neutralVoteAccepted = true;\n    // reelectionMaximum = 2;\n    // totalBallotNumber = 0;\n\n        // Variables for testing\n        // Adress of voter registry organ\n    referenceOrganContract = _referenceOrganContract;\n    // Adress of president registry organ\n    affectedOrganContract = _affectedOrganContract;\n\n    // Procedure name \n    procedureName = _name;\n    \n    linkedOrgans = [referenceOrganContract,affectedOrganContract];\n\n    quorumSize = 40;\n    ballotDuration = 3 minutes;\n    candidacyDuration = 3 minutes;\n    ballotFrequency = 9 minutes;\n    // ballotDuration = 10 seconds;\n    // candidacyDuration = 10 seconds;\n    // ballotFrequency = 30 seconds;\n\n    nextElectionDate = now;\n    neutralVoteAccepted = true;\n    reelectionMaximum = 2;\n    totalBallotNumber = 0;\n    voterToCandidateRatio = 2;\n\n    kelsenVersionNumber = 1;\n    lastElectionNumber = 0;\n    }\n}\n",
  "sourcePath": "/Users/henrilieutaud/Documents/Mes documents/97/Workshop/Kelsen/solidity/contracts/deploy/deployCyclicalManyToManyElectionProcedure.sol",
  "compiler": {
    "name": "solc",
    "version": "0.4.19+commit.c4cbbb05.Emscripten.clang"
  },
  "schemaVersion": "2.0.0",
  "updatedAt": "2018-05-15T09:52:44.259Z"
}