{
  "contractName": "deployCyclicalManyToManyElectionProcedure",
  "abi": [
    {
      "constant": true,
      "inputs": [
        {
          "name": "",
          "type": "address"
        },
        {
          "name": "",
          "type": "uint256"
        }
      ],
      "name": "ballotToEnforcer",
      "outputs": [
        {
          "name": "",
          "type": "uint256"
        }
      ],
      "payable": false,
      "stateMutability": "view",
      "type": "function"
    },
    {
      "constant": true,
      "inputs": [
        {
          "name": "_ballotNumber",
          "type": "uint256"
        }
      ],
      "name": "getSingleBallotInfo",
      "outputs": [
        {
          "name": "_name",
          "type": "string"
        },
        {
          "name": "_startDate",
          "type": "uint256"
        },
        {
          "name": "_candidacyEndDate",
          "type": "uint256"
        },
        {
          "name": "_electionEndDate",
          "type": "uint256"
        },
        {
          "name": "_electedOfficialSlotNumber",
          "type": "uint256"
        }
      ],
      "payable": false,
      "stateMutability": "view",
      "type": "function"
    },
    {
      "constant": true,
      "inputs": [
        {
          "name": "_ballotNumber",
          "type": "uint256"
        }
      ],
      "name": "getBallotDates",
      "outputs": [
        {
          "name": "startDate",
          "type": "uint256"
        },
        {
          "name": "endDate",
          "type": "uint256"
        }
      ],
      "payable": false,
      "stateMutability": "view",
      "type": "function"
    },
    {
      "constant": true,
      "inputs": [],
      "name": "procedureTypeNumber",
      "outputs": [
        {
          "name": "",
          "type": "int256"
        }
      ],
      "payable": false,
      "stateMutability": "view",
      "type": "function"
    },
    {
      "constant": true,
      "inputs": [],
      "name": "quorumSize",
      "outputs": [
        {
          "name": "",
          "type": "uint256"
        }
      ],
      "payable": false,
      "stateMutability": "view",
      "type": "function"
    },
    {
      "constant": true,
      "inputs": [],
      "name": "ballotFrequency",
      "outputs": [
        {
          "name": "",
          "type": "uint256"
        }
      ],
      "payable": false,
      "stateMutability": "view",
      "type": "function"
    },
    {
      "constant": true,
      "inputs": [
        {
          "name": "_userAddress",
          "type": "address"
        }
      ],
      "name": "getBallotToEnforcer",
      "outputs": [
        {
          "name": "",
          "type": "uint256[]"
        }
      ],
      "payable": false,
      "stateMutability": "view",
      "type": "function"
    },
    {
      "constant": true,
      "inputs": [
        {
          "name": "_ballotNumber",
          "type": "uint256"
        },
        {
          "name": "_candidateAddress",
          "type": "address"
        }
      ],
      "name": "getCandidateVoteNumber",
      "outputs": [
        {
          "name": "voteReceived",
          "type": "uint256"
        }
      ],
      "payable": false,
      "stateMutability": "view",
      "type": "function"
    },
    {
      "constant": true,
      "inputs": [],
      "name": "referenceOrganContract",
      "outputs": [
        {
          "name": "",
          "type": "address"
        }
      ],
      "payable": false,
      "stateMutability": "view",
      "type": "function"
    },
    {
      "constant": false,
      "inputs": [
        {
          "name": "_ballotName",
          "type": "string"
        }
      ],
      "name": "createBallot",
      "outputs": [
        {
          "name": "ballotNumber",
          "type": "uint256"
        }
      ],
      "payable": false,
      "stateMutability": "nonpayable",
      "type": "function"
    },
    {
      "constant": false,
      "inputs": [
        {
          "name": "_ballotNumber",
          "type": "uint256"
        }
      ],
      "name": "endBallot",
      "outputs": [],
      "payable": false,
      "stateMutability": "nonpayable",
      "type": "function"
    },
    {
      "constant": true,
      "inputs": [],
      "name": "voterToCandidateRatio",
      "outputs": [
        {
          "name": "",
          "type": "uint256"
        }
      ],
      "payable": false,
      "stateMutability": "view",
      "type": "function"
    },
    {
      "constant": true,
      "inputs": [
        {
          "name": "",
          "type": "address"
        },
        {
          "name": "",
          "type": "uint256"
        }
      ],
      "name": "ballotToVoter",
      "outputs": [
        {
          "name": "",
          "type": "uint256"
        }
      ],
      "payable": false,
      "stateMutability": "view",
      "type": "function"
    },
    {
      "constant": true,
      "inputs": [
        {
          "name": "",
          "type": "uint256"
        }
      ],
      "name": "ballots",
      "outputs": [
        {
          "name": "creator",
          "type": "address"
        },
        {
          "name": "name",
          "type": "string"
        },
        {
          "name": "electedOfficialSlotNumber",
          "type": "uint256"
        },
        {
          "name": "startDate",
          "type": "uint256"
        },
        {
          "name": "candidacyEndDate",
          "type": "uint256"
        },
        {
          "name": "electionEndDate",
          "type": "uint256"
        },
        {
          "name": "wasEnded",
          "type": "bool"
        },
        {
          "name": "wasEnforced",
          "type": "bool"
        },
        {
          "name": "totalVoteCount",
          "type": "uint256"
        }
      ],
      "payable": false,
      "stateMutability": "view",
      "type": "function"
    },
    {
      "constant": true,
      "inputs": [],
      "name": "kelsenVersionNumber",
      "outputs": [
        {
          "name": "",
          "type": "int256"
        }
      ],
      "payable": false,
      "stateMutability": "view",
      "type": "function"
    },
    {
      "constant": true,
      "inputs": [
        {
          "name": "_ballotNumber",
          "type": "uint256"
        }
      ],
      "name": "getCandidateList",
      "outputs": [
        {
          "name": "_candidateList",
          "type": "address[]"
        }
      ],
      "payable": false,
      "stateMutability": "view",
      "type": "function"
    },
    {
      "constant": true,
      "inputs": [],
      "name": "lastElectionNumber",
      "outputs": [
        {
          "name": "",
          "type": "uint256"
        }
      ],
      "payable": false,
      "stateMutability": "view",
      "type": "function"
    },
    {
      "constant": true,
      "inputs": [
        {
          "name": "",
          "type": "address"
        },
        {
          "name": "",
          "type": "uint256"
        }
      ],
      "name": "ballotToCreator",
      "outputs": [
        {
          "name": "",
          "type": "uint256"
        }
      ],
      "payable": false,
      "stateMutability": "view",
      "type": "function"
    },
    {
      "constant": true,
      "inputs": [
        {
          "name": "_userAddress",
          "type": "address"
        }
      ],
      "name": "getBallotToVoter",
      "outputs": [
        {
          "name": "",
          "type": "uint256[]"
        }
      ],
      "payable": false,
      "stateMutability": "view",
      "type": "function"
    },
    {
      "constant": false,
      "inputs": [
        {
          "name": "_ballotNumber",
          "type": "uint256"
        }
      ],
      "name": "enforceBallot",
      "outputs": [],
      "payable": false,
      "stateMutability": "nonpayable",
      "type": "function"
    },
    {
      "constant": true,
      "inputs": [
        {
          "name": "",
          "type": "uint256"
        }
      ],
      "name": "currentModerators",
      "outputs": [
        {
          "name": "",
          "type": "address"
        }
      ],
      "payable": false,
      "stateMutability": "view",
      "type": "function"
    },
    {
      "constant": true,
      "inputs": [
        {
          "name": "",
          "type": "address"
        }
      ],
      "name": "cumulatedCandidacies",
      "outputs": [
        {
          "name": "",
          "type": "uint256"
        }
      ],
      "payable": false,
      "stateMutability": "view",
      "type": "function"
    },
    {
      "constant": true,
      "inputs": [],
      "name": "isAnOrgan",
      "outputs": [
        {
          "name": "",
          "type": "bool"
        }
      ],
      "payable": false,
      "stateMutability": "view",
      "type": "function"
    },
    {
      "constant": true,
      "inputs": [],
      "name": "ballotDuration",
      "outputs": [
        {
          "name": "",
          "type": "uint256"
        }
      ],
      "payable": false,
      "stateMutability": "view",
      "type": "function"
    },
    {
      "constant": true,
      "inputs": [
        {
          "name": "_ballotNumber",
          "type": "uint256"
        }
      ],
      "name": "haveIVoted",
      "outputs": [
        {
          "name": "IHaveVoted",
          "type": "bool"
        }
      ],
      "payable": false,
      "stateMutability": "view",
      "type": "function"
    },
    {
      "constant": true,
      "inputs": [
        {
          "name": "_userAddress",
          "type": "address"
        }
      ],
      "name": "getBallotToCounter",
      "outputs": [
        {
          "name": "",
          "type": "uint256[]"
        }
      ],
      "payable": false,
      "stateMutability": "view",
      "type": "function"
    },
    {
      "constant": true,
      "inputs": [],
      "name": "candidacyDuration",
      "outputs": [
        {
          "name": "",
          "type": "uint256"
        }
      ],
      "payable": false,
      "stateMutability": "view",
      "type": "function"
    },
    {
      "constant": true,
      "inputs": [],
      "name": "isBallotCurrentlyRunning",
      "outputs": [
        {
          "name": "",
          "type": "bool"
        }
      ],
      "payable": false,
      "stateMutability": "view",
      "type": "function"
    },
    {
      "constant": true,
      "inputs": [],
      "name": "totalBallotNumber",
      "outputs": [
        {
          "name": "",
          "type": "uint256"
        }
      ],
      "payable": false,
      "stateMutability": "view",
      "type": "function"
    },
    {
      "constant": true,
      "inputs": [],
      "name": "neutralVoteAccepted",
      "outputs": [
        {
          "name": "",
          "type": "bool"
        }
      ],
      "payable": false,
      "stateMutability": "view",
      "type": "function"
    },
    {
      "constant": true,
      "inputs": [
        {
          "name": "_userAddress",
          "type": "address"
        }
      ],
      "name": "getBallotToCreator",
      "outputs": [
        {
          "name": "",
          "type": "uint256[]"
        }
      ],
      "payable": false,
      "stateMutability": "view",
      "type": "function"
    },
    {
      "constant": false,
      "inputs": [
        {
          "name": "_ballotNumber",
          "type": "uint256"
        },
        {
          "name": "_candidateAddresses",
          "type": "address[]"
        }
      ],
      "name": "vote",
      "outputs": [],
      "payable": false,
      "stateMutability": "nonpayable",
      "type": "function"
    },
    {
      "constant": true,
      "inputs": [
        {
          "name": "_ballotNumber",
          "type": "uint256"
        }
      ],
      "name": "getBallotResult",
      "outputs": [
        {
          "name": "_wasEnded",
          "type": "bool"
        },
        {
          "name": "_wasEnforced",
          "type": "bool"
        },
        {
          "name": "_winningCandidates",
          "type": "address[]"
        },
        {
          "name": "_totalVoteCount",
          "type": "uint256"
        }
      ],
      "payable": false,
      "stateMutability": "view",
      "type": "function"
    },
    {
      "constant": true,
      "inputs": [],
      "name": "nextElectionDate",
      "outputs": [
        {
          "name": "",
          "type": "uint256"
        }
      ],
      "payable": false,
      "stateMutability": "view",
      "type": "function"
    },
    {
      "constant": true,
      "inputs": [],
      "name": "reelectionMaximum",
      "outputs": [
        {
          "name": "",
          "type": "uint256"
        }
      ],
      "payable": false,
      "stateMutability": "view",
      "type": "function"
    },
    {
      "constant": false,
      "inputs": [
        {
          "name": "_ballotNumber",
          "type": "uint256"
        },
        {
          "name": "_name",
          "type": "string"
        },
        {
          "name": "_ipfsHash",
          "type": "bytes32"
        },
        {
          "name": "_hash_function",
          "type": "uint8"
        },
        {
          "name": "_size",
          "type": "uint8"
        }
      ],
      "name": "presentCandidacy",
      "outputs": [],
      "payable": false,
      "stateMutability": "nonpayable",
      "type": "function"
    },
    {
      "constant": true,
      "inputs": [
        {
          "name": "",
          "type": "address"
        },
        {
          "name": "",
          "type": "uint256"
        }
      ],
      "name": "ballotToCounter",
      "outputs": [
        {
          "name": "",
          "type": "uint256"
        }
      ],
      "payable": false,
      "stateMutability": "view",
      "type": "function"
    },
    {
      "constant": true,
      "inputs": [],
      "name": "isAProcedure",
      "outputs": [
        {
          "name": "",
          "type": "bool"
        }
      ],
      "payable": false,
      "stateMutability": "view",
      "type": "function"
    },
    {
      "constant": true,
      "inputs": [],
      "name": "affectedOrganContract",
      "outputs": [
        {
          "name": "",
          "type": "address"
        }
      ],
      "payable": false,
      "stateMutability": "view",
      "type": "function"
    },
    {
      "inputs": [
        {
          "name": "_referenceOrganContract",
          "type": "address"
        },
        {
          "name": "_affectedOrganContract",
          "type": "address"
        }
      ],
      "payable": false,
      "stateMutability": "nonpayable",
      "type": "constructor"
    },
    {
      "anonymous": false,
      "inputs": [
        {
          "indexed": false,
          "name": "_from",
          "type": "address"
        },
        {
          "indexed": false,
          "name": "_name",
          "type": "string"
        },
        {
          "indexed": false,
          "name": "_startDate",
          "type": "uint256"
        },
        {
          "indexed": false,
          "name": "_candidacyEndDate",
          "type": "uint256"
        },
        {
          "indexed": false,
          "name": "_endDate",
          "type": "uint256"
        },
        {
          "indexed": false,
          "name": "_ballotNumber",
          "type": "uint256"
        }
      ],
      "name": "ballotCreationEvent",
      "type": "event"
    },
    {
      "anonymous": false,
      "inputs": [
        {
          "indexed": false,
          "name": "_ballotNumber",
          "type": "uint256"
        },
        {
          "indexed": false,
          "name": "_candidateAddress",
          "type": "address"
        },
        {
          "indexed": false,
          "name": "_name",
          "type": "string"
        },
        {
          "indexed": false,
          "name": "_ipfsHash",
          "type": "bytes32"
        },
        {
          "indexed": false,
          "name": "_hash_function",
          "type": "uint8"
        },
        {
          "indexed": false,
          "name": "_size",
          "type": "uint8"
        }
      ],
      "name": "presentCandidacyEvent",
      "type": "event"
    },
    {
      "anonymous": false,
      "inputs": [
        {
          "indexed": false,
          "name": "_from",
          "type": "address"
        },
        {
          "indexed": false,
          "name": "_ballotNumber",
          "type": "uint256"
        }
      ],
      "name": "votedOnElectionEvent",
      "type": "event"
    },
    {
      "anonymous": false,
      "inputs": [
        {
          "indexed": false,
          "name": "_ballotNumber",
          "type": "uint256"
        },
        {
          "indexed": false,
          "name": "_candidateList",
          "type": "address[]"
        },
        {
          "indexed": false,
          "name": "_winningCandidates",
          "type": "address[]"
        },
        {
          "indexed": false,
          "name": "_totalVoteCount",
          "type": "uint256"
        }
      ],
      "name": "ballotWasCounted",
      "type": "event"
    },
    {
      "anonymous": false,
      "inputs": [
        {
          "indexed": false,
          "name": "_ballotNumber",
          "type": "uint256"
        },
        {
          "indexed": false,
          "name": "_wasRebooted",
          "type": "bool"
        }
      ],
      "name": "ballotResultException",
      "type": "event"
    },
    {
      "anonymous": false,
      "inputs": [
        {
          "indexed": false,
          "name": "_winningCandidates",
          "type": "address[]"
        },
        {
          "indexed": false,
          "name": "_ballotNumber",
          "type": "uint256"
        }
      ],
      "name": "ballotWasEnforced",
      "type": "event"
    }
  ],
  "bytecode": "0x60606040526002600355341561001457600080fd5b6040516040806148f78339810160405280805190602001909190805190602001909190505081600560006101000a81548173ffffffffffffffffffffffffffffffffffffffff021916908373ffffffffffffffffffffffffffffffffffffffff16021790555080600460006101000a81548173ffffffffffffffffffffffffffffffffffffffff021916908373ffffffffffffffffffffffffffffffffffffffff1602179055506028600d8190555060b460098190555060b4600b8190555061021c600681905550426007819055506001600a60006101000a81548160ff0219169083151502179055506002600c8190555060006010819055506002600e819055506000600160006101000a81548160ff02191690831515021790555060018060016101000a81548160ff02191690831515021790555060016000819055506000601181905550505061478b8061016c6000396000f3006060604052600436106101e3576000357c0100000000000000000000000000000000000000000000000000000000900463ffffffff1680631899706d146101e857806318fe2d731461023e57806319060ef1146102f65780632647d7f9146103345780633068ef4d1461035d578063322af16f14610386578063325bc6ea146103af578063346820981461043d578063446192af1461049357806346a86576146104e857806348fcc14414610559578063503c3d091461057c57806356453fbf146105a55780635c632b38146105fb5780635dbe4d2814610720578063618bde0a14610749578063680aee50146107c15780636be87354146107ea57806372805e31146108405780638cd1ff51146108ce5780639eaa613f146108f1578063a4c797f714610954578063a8bef97a146109a1578063ab8f9536146109ce578063ac37af1c146109f7578063b064124d14610a32578063b0c2dede14610ac0578063b4b71cd214610ae9578063b9f43cc514610b16578063bdf7f47214610b3f578063bf0fac8314610b6c578063c5bf93ba14610bfa578063ce65c4e314610c5d578063d0746b7a14610cf2578063d9b84d4c14610d1b578063de0db92e14610d44578063e76f506e14610dcf578063e80b30a514610e25578063fe7800e114610e52575b600080fd5b34156101f357600080fd5b610228600480803573ffffffffffffffffffffffffffffffffffffffff16906020019091908035906020019091905050610ea7565b6040518082815260200191505060405180910390f35b341561024957600080fd5b61025f6004808035906020019091905050610ed8565b6040518080602001868152602001858152602001848152602001838152602001828103825287818151815260200191508051906020019080838360005b838110156102b757808201518184015260208101905061029c565b50505050905090810190601f1680156102e45780820380516001836020036101000a031916815260200191505b50965050505050505060405180910390f35b341561030157600080fd5b6103176004808035906020019091905050611039565b604051808381526020018281526020019250505060405180910390f35b341561033f57600080fd5b610347611087565b6040518082815260200191505060405180910390f35b341561036857600080fd5b61037061108d565b6040518082815260200191505060405180910390f35b341561039157600080fd5b610399611093565b6040518082815260200191505060405180910390f35b34156103ba57600080fd5b6103e6600480803573ffffffffffffffffffffffffffffffffffffffff16906020019091905050611099565b6040518080602001828103825283818151815260200191508051906020019060200280838360005b8381101561042957808201518184015260208101905061040e565b505050509050019250505060405180910390f35b341561044857600080fd5b61047d600480803590602001909190803573ffffffffffffffffffffffffffffffffffffffff16906020019091905050611136565b6040518082815260200191505060405180910390f35b341561049e57600080fd5b6104a66111da565b604051808273ffffffffffffffffffffffffffffffffffffffff1673ffffffffffffffffffffffffffffffffffffffff16815260200191505060405180910390f35b34156104f357600080fd5b610543600480803590602001908201803590602001908080601f01602080910402602001604051908101604052809392919081815260200183838082843782019150505050505091905050611200565b6040518082815260200191505060405180910390f35b341561056457600080fd5b61057a60048080359060200190919050506116e3565b005b341561058757600080fd5b61058f61242f565b6040518082815260200191505060405180910390f35b34156105b057600080fd5b6105e5600480803573ffffffffffffffffffffffffffffffffffffffff16906020019091908035906020019091905050612435565b6040518082815260200191505060405180910390f35b341561060657600080fd5b61061c6004808035906020019091905050612466565b604051808a73ffffffffffffffffffffffffffffffffffffffff1673ffffffffffffffffffffffffffffffffffffffff16815260200180602001898152602001888152602001878152602001868152602001851515151581526020018415151515815260200183815260200182810382528a8181546001816001161561010002031660029004815260200191508054600181600116156101000203166002900480156107095780601f106106de57610100808354040283529160200191610709565b820191906000526020600020905b8154815290600101906020018083116106ec57829003601f168201915b50509a505050505050505050505060405180910390f35b341561072b57600080fd5b6107336124fc565b6040518082815260200191505060405180910390f35b341561075457600080fd5b61076a6004808035906020019091905050612502565b6040518080602001828103825283818151815260200191508051906020019060200280838360005b838110156107ad578082015181840152602081019050610792565b505050509050019250505060405180910390f35b34156107cc57600080fd5b6107d46125b6565b6040518082815260200191505060405180910390f35b34156107f557600080fd5b61082a600480803573ffffffffffffffffffffffffffffffffffffffff169060200190919080359060200190919050506125bc565b6040518082815260200191505060405180910390f35b341561084b57600080fd5b610877600480803573ffffffffffffffffffffffffffffffffffffffff169060200190919050506125ed565b6040518080602001828103825283818151815260200191508051906020019060200280838360005b838110156108ba57808201518184015260208101905061089f565b505050509050019250505060405180910390f35b34156108d957600080fd5b6108ef600480803590602001909190505061268a565b005b34156108fc57600080fd5b6109126004808035906020019091905050613114565b604051808273ffffffffffffffffffffffffffffffffffffffff1673ffffffffffffffffffffffffffffffffffffffff16815260200191505060405180910390f35b341561095f57600080fd5b61098b600480803573ffffffffffffffffffffffffffffffffffffffff16906020019091905050613153565b6040518082815260200191505060405180910390f35b34156109ac57600080fd5b6109b461316b565b604051808215151515815260200191505060405180910390f35b34156109d957600080fd5b6109e161317e565b6040518082815260200191505060405180910390f35b3415610a0257600080fd5b610a186004808035906020019091905050613184565b604051808215151515815260200191505060405180910390f35b3415610a3d57600080fd5b610a69600480803573ffffffffffffffffffffffffffffffffffffffff169060200190919050506131fb565b6040518080602001828103825283818151815260200191508051906020019060200280838360005b83811015610aac578082015181840152602081019050610a91565b505050509050019250505060405180910390f35b3415610acb57600080fd5b610ad3613298565b6040518082815260200191505060405180910390f35b3415610af457600080fd5b610afc61329e565b604051808215151515815260200191505060405180910390f35b3415610b2157600080fd5b610b296132b1565b6040518082815260200191505060405180910390f35b3415610b4a57600080fd5b610b526132b7565b604051808215151515815260200191505060405180910390f35b3415610b7757600080fd5b610ba3600480803573ffffffffffffffffffffffffffffffffffffffff169060200190919050506132ca565b6040518080602001828103825283818151815260200191508051906020019060200280838360005b83811015610be6578082015181840152602081019050610bcb565b505050509050019250505060405180910390f35b3415610c0557600080fd5b610c5b600480803590602001909190803590602001908201803590602001908080602002602001604051908101604052809392919081815260200183836020028082843782019150505050505091905050613367565b005b3415610c6857600080fd5b610c7e6004808035906020019091905050613a73565b60405180851515151581526020018415151515815260200180602001838152602001828103825284818151815260200191508051906020019060200280838360005b83811015610cdb578082015181840152602081019050610cc0565b505050509050019550505050505060405180910390f35b3415610cfd57600080fd5b610d05613bb4565b6040518082815260200191505060405180910390f35b3415610d2657600080fd5b610d2e613bba565b6040518082815260200191505060405180910390f35b3415610d4f57600080fd5b610dcd600480803590602001909190803590602001908201803590602001908080601f016020809104026020016040519081016040528093929190818152602001838380828437820191505050505050919080356000191690602001909190803560ff1690602001909190803560ff16906020019091905050613bc0565b005b3415610dda57600080fd5b610e0f600480803573ffffffffffffffffffffffffffffffffffffffff16906020019091908035906020019091905050614221565b6040518082815260200191505060405180910390f35b3415610e3057600080fd5b610e38614252565b604051808215151515815260200191505060405180910390f35b3415610e5d57600080fd5b610e65614264565b604051808273ffffffffffffffffffffffffffffffffffffffff1673ffffffffffffffffffffffffffffffffffffffff16815260200191505060405180910390f35b601760205281600052604060002081815481101515610ec257fe5b9060005260206000209001600091509150505481565b610ee061428a565b600080600080601286815481101515610ef557fe5b90600052602060002090600c0201600101601287815481101515610f1557fe5b90600052602060002090600c020160060154601288815481101515610f3657fe5b90600052602060002090600c020160070154601289815481101515610f5757fe5b90600052602060002090600c02016008015460128a815481101515610f7857fe5b90600052602060002090600c020160050154848054600181600116156101000203166002900480601f01602080910402602001604051908101604052809291908181526020018280546001816001161561010002031660029004801561101f5780601f10610ff45761010080835404028352916020019161101f565b820191906000526020600020905b81548152906001019060200180831161100257829003601f168201915b505050505094509450945094509450945091939590929450565b60008060128381548110151561104b57fe5b90600052602060002090600c02016006015460128481548110151561106c57fe5b90600052602060002090600c02016008015491509150915091565b60035481565b600d5481565b60065481565b6110a161429e565b601760008373ffffffffffffffffffffffffffffffffffffffff1673ffffffffffffffffffffffffffffffffffffffff16815260200190815260200160002080548060200260200160405190810160405280929190818152602001828054801561112a57602002820191906000526020600020905b815481526020019060010190808311611116575b50505050509050919050565b600060128381548110151561114757fe5b90600052602060002090600c020160090160019054906101000a900460ff16151561117157600080fd5b60128381548110151561118057fe5b90600052602060002090600c020160030160008373ffffffffffffffffffffffffffffffffffffffff1673ffffffffffffffffffffffffffffffffffffffff16815260200190815260200160002060030154905092915050565b600560009054906101000a900473ffffffffffffffffffffffffffffffffffffffff1681565b600061120a6142b2565b6000801515600f60009054906101000a900460ff16151514151561122d57600080fd5b6007544211151561123d57600080fd5b6000601280549050111561128757601260115481548110151561125c57fe5b90600052602060002090600c020160090160009054906101000a900460ff16151561128657600080fd5b5b33826000019073ffffffffffffffffffffffffffffffffffffffff16908173ffffffffffffffffffffffffffffffffffffffff168152505083826020018190525042826080018181525050600b5442018260a0018181525050600954600b544201018260c001818152505060008260e0019015159081151581525050600082610140018181525050600560009054906101000a900473ffffffffffffffffffffffffffffffffffffffff169050600e548173ffffffffffffffffffffffffffffffffffffffff1663234d34de6000604051602001526040518163ffffffff167c0100000000000000000000000000000000000000000000000000000000028152600401602060405180830381600087803b15156113a357600080fd5b6102c65a03f115156113b457600080fd5b505050604051805190508115156113c757fe5b048260600181815250506000826060015114156113ea5760018260600181815250505b60009050601280548060010182816114029190614339565b91600052602060002090600c0201600084909190915060008201518160000160006101000a81548173ffffffffffffffffffffffffffffffffffffffff021916908373ffffffffffffffffffffffffffffffffffffffff160217905550602082015181600101908051906020019061147b92919061436b565b5060408201518160040190805190602001906114989291906143eb565b50606082015181600501556080820151816006015560a0820151816007015560c0820151816008015560e08201518160090160006101000a81548160ff0219169083151502179055506101008201518160090160016101000a81548160ff02191690831515021790555061012082015181600a01908051906020019061151f9291906143eb565b5061014082015181600b0155505050600160128054905003925060016010600082825401925050819055506001600f60006101000a81548160ff0219169083151502179055506006544201600781905550826011819055507fdb79682a2650346f5fbfd232c0059da59a89b2a64c3fb7d75ccf58ff939be0d5338584608001518560a001518660c0015188604051808773ffffffffffffffffffffffffffffffffffffffff1673ffffffffffffffffffffffffffffffffffffffff16815260200180602001868152602001858152602001848152602001838152602001828103825287818151815260200191508051906020019080838360005b83811015611634578082015181840152602081019050611619565b50505050905090810190601f1680156116615780820380516001836020036101000a031916815260200191505b5097505050505050505060405180910390a1601460003373ffffffffffffffffffffffffffffffffffffffff1673ffffffffffffffffffffffffffffffffffffffff16815260200190815260200160002080548060010182816116c49190614475565b9160005260206000209001600085909190915055508292505050919050565b600080600080600080600080600060128a81548110151561170057fe5b90600052602060002090600c020160090160009054906101000a900460ff1615151561172b57600080fd5b4260128b81548110151561173b57fe5b90600052602060002090600c02016008015410151561175957600080fd5b600060128b81548110151561176a57fe5b90600052602060002090600c02016004018054905014806117ab5750600060128b81548110151561179757fe5b90600052602060002090600c0201600b0154145b1561195257600142036007819055506000600f60006101000a81548160ff021916908315150217905550600160128b8154811015156117e657fe5b90600052602060002090600c020160090160006101000a81548160ff021916908315150217905550600160128b81548110151561181f57fe5b90600052602060002090600c020160090160016101000a81548160ff0219169083151502179055507fd3844af45b09228a143d3e565e053517b81b3e6b1ee574de327db2ba09eebefe8a600160405180838152602001821515151581526020019250505060405180910390a161194c60128b81548110151561189d57fe5b90600052602060002090600c02016001018054600181600116156101000203166002900480601f0160208091040260200160405190810160405280929190818152602001828054600181600116156101000203166002900480156119425780601f1061191757610100808354040283529160200191611942565b820191906000526020600020905b81548152906001019060200180831161192557829003601f168201915b5050505050611200565b50612423565b60128a81548110151561196157fe5b90600052602060002090600c02016005015460128b81548110151561198257fe5b90600052602060002090600c02016004018054905010156119e65760128a8154811015156119ac57fe5b90600052602060002090600c02016004018054905060128b8154811015156119d057fe5b90600052602060002090600c0201600501819055505b7fffffffffffffffffffffffffffffffffffffffffffffffffffffffffffffffff9850600097506000965060009550600560009054906101000a900473ffffffffffffffffffffffffffffffffffffffff1694508473ffffffffffffffffffffffffffffffffffffffff1663234d34de6000604051602001526040518163ffffffff167c0100000000000000000000000000000000000000000000000000000000028152600401602060405180830381600087803b1515611aa657600080fd5b6102c65a03f11515611ab757600080fd5b50505060405180519050600d5402606460128c815481101515611ad657fe5b90600052602060002090600c0201600b0154021015611c9157600160128b815481101515611b0057fe5b90600052602060002090600c020160090160016101000a81548160ff021916908315150217905550600142036007819055506000600f60006101000a81548160ff021916908315150217905550600160128b815481101515611b5e57fe5b90600052602060002090600c020160090160006101000a81548160ff0219169083151502179055507fd3844af45b09228a143d3e565e053517b81b3e6b1ee574de327db2ba09eebefe8a600160405180838152602001821515151581526020019250505060405180910390a1611c8b60128b815481101515611bdc57fe5b90600052602060002090600c02016001018054600181600116156101000203166002900480601f016020809104026020016040519081016040528092919081815260200182805460018160011615610100020316600290048015611c815780601f10611c5657610100808354040283529160200191611c81565b820191906000526020600020905b815481529060010190602001808311611c6457829003601f168201915b5050505050611200565b50612423565b60009450600093505b60128a815481101515611ca957fe5b90600052602060002090600c0201600501548410156121d3576000975060009550600092505b60128a815481101515611cde57fe5b90600052602060002090600c020160040180549050831015611f185760128a815481101515611d0957fe5b90600052602060002090600c020160040183815481101515611d2757fe5b906000526020600020900160009054906101000a900473ffffffffffffffffffffffffffffffffffffffff1691508860128b815481101515611d6557fe5b90600052602060002090600c020160030160008473ffffffffffffffffffffffffffffffffffffffff1673ffffffffffffffffffffffffffffffffffffffff16815260200190815260200160002060030154101515611dc357611f0b565b8760128b815481101515611dd357fe5b90600052602060002090600c020160030160008473ffffffffffffffffffffffffffffffffffffffff1673ffffffffffffffffffffffffffffffffffffffff168152602001908152602001600020600301541115611e9a5760128a815481101515611e3a57fe5b90600052602060002090600c020160030160008373ffffffffffffffffffffffffffffffffffffffff1673ffffffffffffffffffffffffffffffffffffffff16815260200190815260200160002060030154975082955060009650611f0a565b8760128b815481101515611eaa57fe5b90600052602060002090600c020160030160008473ffffffffffffffffffffffffffffffffffffffff1673ffffffffffffffffffffffffffffffffffffffff168152602001908152602001600020600301541415611f09576001870196505b5b5b8280600101935050611ccf565b6000881415611f26576121c3565b60008711156120e857600090505b60128a815481101515611f4357fe5b90600052602060002090600c0201600401805490508110156120e35760128a815481101515611f6e57fe5b90600052602060002090600c02016005015484101515611f8d576120d6565b8760128b815481101515611f9d57fe5b90600052602060002090600c020160030160008473ffffffffffffffffffffffffffffffffffffffff1673ffffffffffffffffffffffffffffffffffffffff1681526020019081526020016000206003015414156120d55760128a81548110151561200457fe5b90600052602060002090600c0201600a01805480600101828161202791906144a1565b9160005260206000209001600060128d81548110151561204357fe5b90600052602060002090600c02016004018481548110151561206157fe5b906000526020600020900160009054906101000a900473ffffffffffffffffffffffffffffffffffffffff16909190916101000a81548173ffffffffffffffffffffffffffffffffffffffff021916908373ffffffffffffffffffffffffffffffffffffffff160217905550506001840193505b5b8080600101915050611f34565b6121c2565b60128a8154811015156120f757fe5b90600052602060002090600c0201600a01805480600101828161211a91906144a1565b9160005260206000209001600060128d81548110151561213657fe5b90600052602060002090600c02016004018981548110151561215457fe5b906000526020600020900160009054906101000a900473ffffffffffffffffffffffffffffffffffffffff16909190916101000a81548173ffffffffffffffffffffffffffffffffffffffff021916908373ffffffffffffffffffffffffffffffffffffffff160217905550505b5b8798508380600101945050611c9a565b600160128b8154811015156121e457fe5b90600052602060002090600c020160090160006101000a81548160ff0219169083151502179055506000600f60006101000a81548160ff0219169083151502179055507f6a6e9488d1e543a71df6a63c3b9ef8b855bca0541ba53a29c0ea65d1e0cfebb38a60128c81548110151561225857fe5b90600052602060002090600c020160040160128d81548110151561227857fe5b90600052602060002090600c0201600a0160128e81548110151561229857fe5b90600052602060002090600c0201600b0154604051808581526020018060200180602001848152602001838103835286818154815260200191508054801561233557602002820191906000526020600020905b8160009054906101000a900473ffffffffffffffffffffffffffffffffffffffff1673ffffffffffffffffffffffffffffffffffffffff16815260200190600101908083116122eb575b505083810382528581815481526020019150805480156123aa57602002820191906000526020600020905b8160009054906101000a900473ffffffffffffffffffffffffffffffffffffffff1673ffffffffffffffffffffffffffffffffffffffff1681526020019060010190808311612360575b5050965050505050505060405180910390a1601660003373ffffffffffffffffffffffffffffffffffffffff1673ffffffffffffffffffffffffffffffffffffffff168152602001908152602001600020805480600101828161240d9190614475565b916000526020600020900160008c909190915055505b50505050505050505050565b600e5481565b60156020528160005260406000208181548110151561245057fe5b9060005260206000209001600091509150505481565b60128181548110151561247557fe5b90600052602060002090600c02016000915090508060000160009054906101000a900473ffffffffffffffffffffffffffffffffffffffff169080600101908060050154908060060154908060070154908060080154908060090160009054906101000a900460ff16908060090160019054906101000a900460ff169080600b0154905089565b60005481565b61250a6144cd565b60128281548110151561251957fe5b90600052602060002090600c02016004018054806020026020016040519081016040528092919081815260200182805480156125aa57602002820191906000526020600020905b8160009054906101000a900473ffffffffffffffffffffffffffffffffffffffff1673ffffffffffffffffffffffffffffffffffffffff1681526020019060010190808311612560575b50505050509050919050565b60115481565b6014602052816000526040600020818154811015156125d757fe5b9060005260206000209001600091509150505481565b6125f561429e565b601560008373ffffffffffffffffffffffffffffffffffffffff1673ffffffffffffffffffffffffffffffffffffffff16815260200190815260200160002080548060200260200160405190810160405280929190818152602001828054801561267e57602002820191906000526020600020905b81548152602001906001019080831161266a575b50505050509050919050565b60008060006126976144e1565b6012858154811015156126a657fe5b90600052602060002090600c020160090160019054906101000a900460ff161515156126d157600080fd5b6012858154811015156126e057fe5b90600052602060002090600c020160090160009054906101000a900460ff16151561270a57600080fd5b60065460128681548110151561271c57fe5b90600052602060002090600c020160060154014211156127b857600160128681548110151561274757fe5b90600052602060002090600c020160090160016101000a81548160ff0219169083151502179055507fd3844af45b09228a143d3e565e053517b81b3e6b1ee574de327db2ba09eebefe85600060405180838152602001821515151581526020019250505060405180910390a161310d565b600460009054906101000a900473ffffffffffffffffffffffffffffffffffffffff169350600160105411156129be57600092505b6008805490508310156129bd578373ffffffffffffffffffffffffffffffffffffffff16630e9defff8573ffffffffffffffffffffffffffffffffffffffff16635549ea5160088781548110151561284157fe5b906000526020600020900160009054906101000a900473ffffffffffffffffffffffffffffffffffffffff166000604051602001526040518263ffffffff167c0100000000000000000000000000000000000000000000000000000000028152600401808273ffffffffffffffffffffffffffffffffffffffff1673ffffffffffffffffffffffffffffffffffffffff168152602001915050602060405180830381600087803b15156128f357600080fd5b6102c65a03f1151561290457600080fd5b505050604051805190506040518263ffffffff167c010000000000000000000000000000000000000000000000000000000002815260040180828152602001915050600060405180830381600087803b151561295f57600080fd5b6102c65a03f1151561297057600080fd5b50505060088381548110151561298257fe5b906000526020600020900160006101000a81549073ffffffffffffffffffffffffffffffffffffffff021916905582806001019350506127ed565b5b600091505b6012858154811015156129d257fe5b90600052602060002090600c0201600a0180549050821015612f9b576012858154811015156129fd57fe5b90600052602060002090600c02016003016000601287815481101515612a1f57fe5b90600052602060002090600c0201600a0184815481101515612a3d57fe5b906000526020600020900160009054906101000a900473ffffffffffffffffffffffffffffffffffffffff1673ffffffffffffffffffffffffffffffffffffffff1673ffffffffffffffffffffffffffffffffffffffff16815260200190815260200160002060a06040519081016040529081600082018054600181600116156101000203166002900480601f016020809104026020016040519081016040528092919081815260200182805460018160011615610100020316600290048015612b485780601f10612b1d57610100808354040283529160200191612b48565b820191906000526020600020905b815481529060010190602001808311612b2b57829003601f168201915b505050505081526020016001820154600019166000191681526020016002820160009054906101000a900460ff1660ff1660ff1681526020016002820160019054906101000a900460ff1660ff1660ff16815260200160038201548152505090508373ffffffffffffffffffffffffffffffffffffffff1663696c5219601287815481101515612bd457fe5b90600052602060002090600c0201600a0184815481101515612bf257fe5b906000526020600020900160009054906101000a900473ffffffffffffffffffffffffffffffffffffffff1683600001518460200151856040015186606001516000604051602001526040518663ffffffff167c0100000000000000000000000000000000000000000000000000000000028152600401808673ffffffffffffffffffffffffffffffffffffffff1673ffffffffffffffffffffffffffffffffffffffff1681526020018060200185600019166000191681526020018460ff1660ff1681526020018360ff1660ff168152602001828103825286818151815260200191508051906020019080838360005b83811015612cfe578082015181840152602081019050612ce3565b50505050905090810190601f168015612d2b5780820380516001836020036101000a031916815260200191505b509650505050505050602060405180830381600087803b1515612d4d57600080fd5b6102c65a03f11515612d5e57600080fd5b5050506040518051905050600160136000601288815481101515612d7e57fe5b90600052602060002090600c0201600a0185815481101515612d9c57fe5b906000526020600020900160009054906101000a900473ffffffffffffffffffffffffffffffffffffffff1673ffffffffffffffffffffffffffffffffffffffff1673ffffffffffffffffffffffffffffffffffffffff16815260200190815260200160002060008282540192505081905550600880549050821015612ed257601285815481101515612e2b57fe5b90600052602060002090600c0201600a0182815481101515612e4957fe5b906000526020600020900160009054906101000a900473ffffffffffffffffffffffffffffffffffffffff16600883815481101515612e8457fe5b906000526020600020900160006101000a81548173ffffffffffffffffffffffffffffffffffffffff021916908373ffffffffffffffffffffffffffffffffffffffff160217905550612f8e565b60088054806001018281612ee691906144a1565b91600052602060002090016000601288815481101515612f0257fe5b90600052602060002090600c0201600a0185815481101515612f2057fe5b906000526020600020900160009054906101000a900473ffffffffffffffffffffffffffffffffffffffff16909190916101000a81548173ffffffffffffffffffffffffffffffffffffffff021916908373ffffffffffffffffffffffffffffffffffffffff160217905550505b81806001019250506129c3565b6001601286815481101515612fac57fe5b90600052602060002090600c020160090160016101000a81548160ff021916908315150217905550601760003373ffffffffffffffffffffffffffffffffffffffff1673ffffffffffffffffffffffffffffffffffffffff16815260200190815260200160002080548060010182816130259190614475565b9160005260206000209001600087909190915055507feaab7a5bfae8aa5ea8ea163762c60c8863cfea36cff6674f02eff6509623474160128681548110151561306a57fe5b90600052602060002090600c0201600a0186604051808060200183815260200182810382528481815481526020019150805480156130fd57602002820191906000526020600020905b8160009054906101000a900473ffffffffffffffffffffffffffffffffffffffff1673ffffffffffffffffffffffffffffffffffffffff16815260200190600101908083116130b3575b5050935050505060405180910390a15b5050505050565b60088181548110151561312357fe5b90600052602060002090016000915054906101000a900473ffffffffffffffffffffffffffffffffffffffff1681565b60136020528060005260406000206000915090505481565b600160009054906101000a900460ff1681565b60095481565b600060128281548110151561319557fe5b90600052602060002090600c020160020160003373ffffffffffffffffffffffffffffffffffffffff1673ffffffffffffffffffffffffffffffffffffffff16815260200190815260200160002060000160009054906101000a900460ff169050919050565b61320361429e565b601660008373ffffffffffffffffffffffffffffffffffffffff1673ffffffffffffffffffffffffffffffffffffffff16815260200190815260200160002080548060200260200160405190810160405280929190818152602001828054801561328c57602002820191906000526020600020905b815481526020019060010190808311613278575b50505050509050919050565b600b5481565b600f60009054906101000a900460ff1681565b60105481565b600a60009054906101000a900460ff1681565b6132d261429e565b601460008373ffffffffffffffffffffffffffffffffffffffff1673ffffffffffffffffffffffffffffffffffffffff16815260200190815260200160002080548060200260200160405190810160405280929190818152602001828054801561335b57602002820191906000526020600020905b815481526020019060010190808311613347575b50505050509050919050565b600080600560009054906101000a900473ffffffffffffffffffffffffffffffffffffffff1691508173ffffffffffffffffffffffffffffffffffffffff1663d323a4f8336000604051602001526040518263ffffffff167c0100000000000000000000000000000000000000000000000000000000028152600401808273ffffffffffffffffffffffffffffffffffffffff1673ffffffffffffffffffffffffffffffffffffffff168152602001915050602060405180830381600087803b151561343257600080fd5b6102c65a03f1151561344357600080fd5b50505060405180519050151561345857600080fd5b6000915060128481548110151561346b57fe5b90600052602060002090600c020160020160003373ffffffffffffffffffffffffffffffffffffffff1673ffffffffffffffffffffffffffffffffffffffff16815260200190815260200160002060000160009054906101000a900460ff161515156134d657600080fd5b6012848154811015156134e557fe5b90600052602060002090600c020160090160009054906101000a900460ff1615151561351057600080fd5b4260128581548110151561352057fe5b90600052602060002090600c02016007015410151561353e57600080fd5b4260128581548110151561354e57fe5b90600052602060002090600c02016008015411151561356c57600080fd5b600160128581548110151561357d57fe5b90600052602060002090600c02016005015401835110151561359e57600080fd5b600083511115156135ae57600080fd5b600090505b82518110156138f4576012848154811015156135cb57fe5b90600052602060002090600c020160020160003373ffffffffffffffffffffffffffffffffffffffff1673ffffffffffffffffffffffffffffffffffffffff1681526020019081526020016000206001016000848381518110151561362c57fe5b9060200190602002015173ffffffffffffffffffffffffffffffffffffffff1673ffffffffffffffffffffffffffffffffffffffff16815260200190815260200160002060009054906101000a900460ff1615151561368a57600080fd5b60128481548110151561369957fe5b90600052602060002090600c0201600201600084838151811015156136ba57fe5b9060200190602002015173ffffffffffffffffffffffffffffffffffffffff1673ffffffffffffffffffffffffffffffffffffffff16815260200190815260200160002060000160019054906101000a900460ff161561388d578060128581548110151561372457fe5b90600052602060002090600c0201600501540360128581548110151561374657fe5b90600052602060002090600c02016003016000858481518110151561376757fe5b9060200190602002015173ffffffffffffffffffffffffffffffffffffffff1673ffffffffffffffffffffffffffffffffffffffff1681526020019081526020016000206003016000828254019250508190555060016012858154811015156137cc57fe5b90600052602060002090600c020160020160003373ffffffffffffffffffffffffffffffffffffffff1673ffffffffffffffffffffffffffffffffffffffff1681526020019081526020016000206001016000858481518110151561382d57fe5b9060200190602002015173ffffffffffffffffffffffffffffffffffffffff1673ffffffffffffffffffffffffffffffffffffffff16815260200190815260200160002060006101000a81548160ff0219169083151502179055506138e7565b600160128581548110151561389e57fe5b90600052602060002090600c020160030160008073ffffffffffffffffffffffffffffffffffffffff168152602001908152602001600020600301600082825401925050819055505b80806001019150506135b3565b600160128581548110151561390557fe5b90600052602060002090600c020160020160003373ffffffffffffffffffffffffffffffffffffffff1673ffffffffffffffffffffffffffffffffffffffff16815260200190815260200160002060000160006101000a81548160ff021916908315150217905550600160128581548110151561397e57fe5b90600052602060002090600c0201600b0160008282540192505081905550601560003373ffffffffffffffffffffffffffffffffffffffff1673ffffffffffffffffffffffffffffffffffffffff16815260200190815260200160002080548060010182816139ed9190614475565b9160005260206000209001600086909190915055507f64bbf4ffdc825afb14eb0f410f1141b85c43dfa5ee8ae25eb7cdf85ec997cd8f3385604051808373ffffffffffffffffffffffffffffffffffffffff1673ffffffffffffffffffffffffffffffffffffffff1681526020018281526020019250505060405180910390a150505050565b600080613a7e6144cd565b6000601285815481101515613a8f57fe5b90600052602060002090600c020160090160009054906101000a900460ff16601286815481101515613abd57fe5b90600052602060002090600c020160090160019054906101000a900460ff16601287815481101515613aeb57fe5b90600052602060002090600c0201600a01601288815481101515613b0b57fe5b90600052602060002090600c0201600b015481805480602002602001604051908101604052809291908181526020018280548015613b9e57602002820191906000526020600020905b8160009054906101000a900473ffffffffffffffffffffffffffffffffffffffff1673ffffffffffffffffffffffffffffffffffffffff1681526020019060010190808311613b54575b5050505050915093509350935093509193509193565b60075481565b600c5481565b6000600560009054906101000a900473ffffffffffffffffffffffffffffffffffffffff1690508073ffffffffffffffffffffffffffffffffffffffff1663d323a4f8336000604051602001526040518263ffffffff167c0100000000000000000000000000000000000000000000000000000000028152600401808273ffffffffffffffffffffffffffffffffffffffff1673ffffffffffffffffffffffffffffffffffffffff168152602001915050602060405180830381600087803b1515613c8a57600080fd5b6102c65a03f11515613c9b57600080fd5b505050604051805190501515613cb057600080fd5b60009050601286815481101515613cc357fe5b90600052602060002090600c020160090160009054906101000a900460ff16151515613cee57600080fd5b42601287815481101515613cfe57fe5b90600052602060002090600c020160070154111515613d1c57600080fd5b600c54601360003373ffffffffffffffffffffffffffffffffffffffff1673ffffffffffffffffffffffffffffffffffffffff16815260200190815260200160002054101515613d6b57600080fd5b601286815481101515613d7a57fe5b90600052602060002090600c020160020160003373ffffffffffffffffffffffffffffffffffffffff1673ffffffffffffffffffffffffffffffffffffffff16815260200190815260200160002060000160019054906101000a900460ff16151515613de557600080fd5b601286815481101515613df457fe5b90600052602060002090600c02016004018054806001018281613e1791906144a1565b9160005260206000209001600033909190916101000a81548173ffffffffffffffffffffffffffffffffffffffff021916908373ffffffffffffffffffffffffffffffffffffffff160217905550506001601287815481101515613e7757fe5b90600052602060002090600c020160020160003373ffffffffffffffffffffffffffffffffffffffff1673ffffffffffffffffffffffffffffffffffffffff16815260200190815260200160002060000160016101000a81548160ff02191690831515021790555084601287815481101515613eef57fe5b90600052602060002090600c020160030160003373ffffffffffffffffffffffffffffffffffffffff1673ffffffffffffffffffffffffffffffffffffffff1681526020019081526020016000206000019080519060200190613f53929190614520565b5083601287815481101515613f6457fe5b90600052602060002090600c020160030160003373ffffffffffffffffffffffffffffffffffffffff1673ffffffffffffffffffffffffffffffffffffffff168152602001908152602001600020600101816000191690555082601287815481101515613fcd57fe5b90600052602060002090600c020160030160003373ffffffffffffffffffffffffffffffffffffffff1673ffffffffffffffffffffffffffffffffffffffff16815260200190815260200160002060020160006101000a81548160ff021916908360ff1602179055508160128781548110151561404657fe5b90600052602060002090600c020160030160003373ffffffffffffffffffffffffffffffffffffffff1673ffffffffffffffffffffffffffffffffffffffff16815260200190815260200160002060020160016101000a81548160ff021916908360ff16021790555060006012878154811015156140c057fe5b90600052602060002090600c020160030160003373ffffffffffffffffffffffffffffffffffffffff1673ffffffffffffffffffffffffffffffffffffffff168152602001908152602001600020600301819055507ff8889d073f0366f70b5fd3ef060e300b4071afc6e31d114717b21bf374f270eb863387878787604051808781526020018673ffffffffffffffffffffffffffffffffffffffff1673ffffffffffffffffffffffffffffffffffffffff1681526020018060200185600019166000191681526020018460ff1660ff1681526020018360ff1660ff168152602001828103825286818151815260200191508051906020019080838360005b838110156141da5780820151818401526020810190506141bf565b50505050905090810190601f1680156142075780820380516001836020036101000a031916815260200191505b5097505050505050505060405180910390a1505050505050565b60166020528160005260406000208181548110151561423c57fe5b9060005260206000209001600091509150505481565b6001809054906101000a900460ff1681565b600460009054906101000a900473ffffffffffffffffffffffffffffffffffffffff1681565b602060405190810160405280600081525090565b602060405190810160405280600081525090565b61016060405190810160405280600073ffffffffffffffffffffffffffffffffffffffff1681526020016142e46145a0565b81526020016142f16145b4565b81526020016000815260200160008152602001600081526020016000815260200160001515815260200160001515815260200161432c6145b4565b8152602001600081525090565b81548183558181151161436657600c0281600c02836000526020600020918201910161436591906145c8565b5b505050565b828054600181600116156101000203166002900490600052602060002090601f016020900481019282601f106143ac57805160ff19168380011785556143da565b828001600101855582156143da579182015b828111156143d95782518255916020019190600101906143be565b5b5090506143e7919061468e565b5090565b828054828255906000526020600020908101928215614464579160200282015b828111156144635782518260006101000a81548173ffffffffffffffffffffffffffffffffffffffff021916908373ffffffffffffffffffffffffffffffffffffffff1602179055509160200191906001019061440b565b5b50905061447191906146b3565b5090565b81548183558181151161449c5781836000526020600020918201910161449b919061468e565b5b505050565b8154818355818115116144c8578183600052602060002091820191016144c7919061468e565b5b505050565b602060405190810160405280600081525090565b60a0604051908101604052806144f56145a0565b815260200160008019168152602001600060ff168152602001600060ff168152602001600081525090565b828054600181600116156101000203166002900490600052602060002090601f016020900481019282601f1061456157805160ff191683800117855561458f565b8280016001018555821561458f579182015b8281111561458e578251825591602001919060010190614573565b5b50905061459c919061468e565b5090565b602060405190810160405280600081525090565b602060405190810160405280600081525090565b61468b91905b8082111561468757600080820160006101000a81549073ffffffffffffffffffffffffffffffffffffffff021916905560018201600061460e91906146f6565b60048201600061461e919061473e565b60058201600090556006820160009055600782016000905560088201600090556009820160006101000a81549060ff02191690556009820160016101000a81549060ff0219169055600a82016000614676919061473e565b600b82016000905550600c016145ce565b5090565b90565b6146b091905b808211156146ac576000816000905550600101614694565b5090565b90565b6146f391905b808211156146ef57600081816101000a81549073ffffffffffffffffffffffffffffffffffffffff0219169055506001016146b9565b5090565b90565b50805460018160011615610100020316600290046000825580601f1061471c575061473b565b601f01602090049060005260206000209081019061473a919061468e565b5b50565b508054600082559060005260206000209081019061475c919061468e565b505600a165627a7a7230582094ace071b56d679b4c44acd859c659e8e97ae03e5aed762aa2bee7695a1a9c0f0029",
  "source": "pragma solidity ^0.4.11;\n\n// Standard contract for a presidential election procedure\n\nimport \"../standardProcedure.sol\";\nimport \"../standardOrgan.sol\";\nimport \"../procedures/cyclicalManyToManyElectionProcedure.sol\";\n\n\n\n\ncontract deployCyclicalManyToManyElectionProcedure is cyclicalManyToManyElectionProcedure {\n\n    function deployCyclicalManyToManyElectionProcedure (address _referenceOrganContract, address _affectedOrganContract) public {\n    //     // Variables for Presidential election\n    // voterRegistry = 0x0000;\n    // quorumSize = 40;\n    // ballotDuration = 7 days;\n    // candidacyDuration = 7 days;\n    // ballotFrequency = 2 years;\n    // nextElectionDate = now;\n    // neutralVoteAccepted = true;\n    // reelectionMaximum = 2;\n    // totalBallotNumber = 0;\n\n        // Variables for testing\n        // Adress of voter registry organ\n    referenceOrganContract = _referenceOrganContract;\n    // Adress of president registry organ\n    affectedOrganContract = _affectedOrganContract;\n    quorumSize = 40;\n    ballotDuration = 3 minutes;\n    candidacyDuration = 3 minutes;\n    ballotFrequency = 9 minutes;\n    // ballotDuration = 10 seconds;\n    // candidacyDuration = 10 seconds;\n    // ballotFrequency = 30 seconds;\n\n    nextElectionDate = now;\n    neutralVoteAccepted = true;\n    reelectionMaximum = 2;\n    totalBallotNumber = 0;\n    voterToCandidateRatio = 2;\n\n    isAnOrgan = false;\n    isAProcedure = true;\n    kelsenVersionNumber = 1;\n    lastElectionNumber = 0;\n    }\n}\n",
  "sourcePath": "/Users/henrilieutaud/Documents/Mes documents/97/Workshop/Kelsen/solidity/contracts/deploy/deployCyclicalManyToManyElectionProcedure.sol",
  "compiler": {
    "name": "solc",
    "version": "0.4.19+commit.c4cbbb05.Emscripten.clang"
  },
  "schemaVersion": "2.0.0",
  "updatedAt": "2018-05-09T14:16:36.297Z"
}