{
  "contractName": "deployVoteOnAdminsAndMastersProcedure",
  "abi": [
    {
      "constant": true,
      "inputs": [
        {
          "name": "_propositionNumber",
          "type": "uint256"
        }
      ],
      "name": "getPropositionStatus",
      "outputs": [
        {
          "name": "_wasCounted",
          "type": "bool"
        },
        {
          "name": "_wasEnded",
          "type": "bool"
        }
      ],
      "payable": false,
      "stateMutability": "view",
      "type": "function"
    },
    {
      "constant": true,
      "inputs": [
        {
          "name": "_userAddress",
          "type": "address"
        }
      ],
      "name": "getPropositionsUsedByUser",
      "outputs": [
        {
          "name": "",
          "type": "uint256[]"
        }
      ],
      "payable": false,
      "stateMutability": "view",
      "type": "function"
    },
    {
      "constant": true,
      "inputs": [
        {
          "name": "_userAddress",
          "type": "address"
        }
      ],
      "name": "getPropositionsPromulgatedByUser",
      "outputs": [
        {
          "name": "",
          "type": "uint256[]"
        }
      ],
      "payable": false,
      "stateMutability": "view",
      "type": "function"
    },
    {
      "constant": true,
      "inputs": [
        {
          "name": "",
          "type": "address"
        },
        {
          "name": "",
          "type": "uint256"
        }
      ],
      "name": "propositionToUser",
      "outputs": [
        {
          "name": "",
          "type": "uint256"
        }
      ],
      "payable": false,
      "stateMutability": "view",
      "type": "function"
    },
    {
      "constant": false,
      "inputs": [
        {
          "name": "_targetOrgan",
          "type": "address"
        },
        {
          "name": "_contractToAdd",
          "type": "address"
        },
        {
          "name": "_contractToRemove",
          "type": "address"
        },
        {
          "name": "_ipfsHash",
          "type": "bytes32"
        },
        {
          "name": "_hash_function",
          "type": "uint8"
        },
        {
          "name": "_size",
          "type": "uint8"
        },
        {
          "name": "_name",
          "type": "string"
        },
        {
          "name": "_canAdd",
          "type": "bool"
        },
        {
          "name": "_canDelete",
          "type": "bool"
        },
        {
          "name": "_canDeposit",
          "type": "bool"
        },
        {
          "name": "_canSpend",
          "type": "bool"
        },
        {
          "name": "_propositionType",
          "type": "uint256"
        }
      ],
      "name": "createProposition",
      "outputs": [
        {
          "name": "propositionNumber",
          "type": "uint256"
        }
      ],
      "payable": false,
      "stateMutability": "nonpayable",
      "type": "function"
    },
    {
      "constant": false,
      "inputs": [
        {
          "name": "_propositionNumber",
          "type": "uint256"
        }
      ],
      "name": "veto",
      "outputs": [],
      "payable": false,
      "stateMutability": "nonpayable",
      "type": "function"
    },
    {
      "constant": true,
      "inputs": [],
      "name": "procedureTypeNumber",
      "outputs": [
        {
          "name": "",
          "type": "int256"
        }
      ],
      "payable": false,
      "stateMutability": "view",
      "type": "function"
    },
    {
      "constant": true,
      "inputs": [],
      "name": "quorumSize",
      "outputs": [
        {
          "name": "",
          "type": "uint256"
        }
      ],
      "payable": false,
      "stateMutability": "view",
      "type": "function"
    },
    {
      "constant": true,
      "inputs": [
        {
          "name": "_propositionNumber",
          "type": "uint256"
        }
      ],
      "name": "getPropositionDetails",
      "outputs": [
        {
          "name": "_addressToAdd",
          "type": "address"
        },
        {
          "name": "_addressToRemove",
          "type": "address"
        },
        {
          "name": "_canAdd",
          "type": "bool"
        },
        {
          "name": "_canDelete",
          "type": "bool"
        },
        {
          "name": "_canDeposit",
          "type": "bool"
        },
        {
          "name": "_canSpend",
          "type": "bool"
        },
        {
          "name": "_name",
          "type": "string"
        }
      ],
      "payable": false,
      "stateMutability": "view",
      "type": "function"
    },
    {
      "constant": true,
      "inputs": [
        {
          "name": "_userAddress",
          "type": "address"
        }
      ],
      "name": "getPropositionsVetoedByUser",
      "outputs": [
        {
          "name": "",
          "type": "uint256[]"
        }
      ],
      "payable": false,
      "stateMutability": "view",
      "type": "function"
    },
    {
      "constant": true,
      "inputs": [
        {
          "name": "_propositionNumber",
          "type": "uint256"
        }
      ],
      "name": "getPropositionDocumentation",
      "outputs": [
        {
          "name": "_addressToAdd",
          "type": "address"
        },
        {
          "name": "_addressToRemove",
          "type": "address"
        },
        {
          "name": "_ipfsHash",
          "type": "bytes32"
        },
        {
          "name": "_hash_function",
          "type": "uint8"
        },
        {
          "name": "_size",
          "type": "uint8"
        },
        {
          "name": "_propositionType",
          "type": "uint256"
        }
      ],
      "payable": false,
      "stateMutability": "view",
      "type": "function"
    },
    {
      "constant": true,
      "inputs": [
        {
          "name": "",
          "type": "address"
        },
        {
          "name": "",
          "type": "uint256"
        }
      ],
      "name": "propositionToPromulgator",
      "outputs": [
        {
          "name": "",
          "type": "uint256"
        }
      ],
      "payable": false,
      "stateMutability": "view",
      "type": "function"
    },
    {
      "constant": true,
      "inputs": [],
      "name": "getProcedureName",
      "outputs": [
        {
          "name": "_procedureName",
          "type": "string"
        }
      ],
      "payable": false,
      "stateMutability": "view",
      "type": "function"
    },
    {
      "constant": true,
      "inputs": [],
      "name": "kelsenVersionNumber",
      "outputs": [
        {
          "name": "",
          "type": "int256"
        }
      ],
      "payable": false,
      "stateMutability": "view",
      "type": "function"
    },
    {
      "constant": false,
      "inputs": [
        {
          "name": "_propositionNumber",
          "type": "uint256"
        }
      ],
      "name": "archiveDefunctProposition",
      "outputs": [],
      "payable": false,
      "stateMutability": "nonpayable",
      "type": "function"
    },
    {
      "constant": true,
      "inputs": [],
      "name": "membersWithVetoOrganContract",
      "outputs": [
        {
          "name": "",
          "type": "address"
        }
      ],
      "payable": false,
      "stateMutability": "view",
      "type": "function"
    },
    {
      "constant": true,
      "inputs": [
        {
          "name": "_propositionNumber",
          "type": "uint256"
        }
      ],
      "name": "getVotedPropositionResults",
      "outputs": [
        {
          "name": "_wasVetoed",
          "type": "bool"
        },
        {
          "name": "_wasAccepted",
          "type": "bool"
        }
      ],
      "payable": false,
      "stateMutability": "view",
      "type": "function"
    },
    {
      "constant": true,
      "inputs": [
        {
          "name": "",
          "type": "address"
        },
        {
          "name": "",
          "type": "uint256"
        }
      ],
      "name": "propositionToVoter",
      "outputs": [
        {
          "name": "",
          "type": "uint256"
        }
      ],
      "payable": false,
      "stateMutability": "view",
      "type": "function"
    },
    {
      "constant": true,
      "inputs": [],
      "name": "finalPromulgatorsOrganContract",
      "outputs": [
        {
          "name": "",
          "type": "address"
        }
      ],
      "payable": false,
      "stateMutability": "view",
      "type": "function"
    },
    {
      "constant": true,
      "inputs": [],
      "name": "totalPropositionNumber",
      "outputs": [
        {
          "name": "",
          "type": "uint256"
        }
      ],
      "payable": false,
      "stateMutability": "view",
      "type": "function"
    },
    {
      "constant": true,
      "inputs": [],
      "name": "majoritySize",
      "outputs": [
        {
          "name": "",
          "type": "uint256"
        }
      ],
      "payable": false,
      "stateMutability": "view",
      "type": "function"
    },
    {
      "constant": true,
      "inputs": [],
      "name": "isAnOrgan",
      "outputs": [
        {
          "name": "",
          "type": "bool"
        }
      ],
      "payable": false,
      "stateMutability": "view",
      "type": "function"
    },
    {
      "constant": true,
      "inputs": [
        {
          "name": "propositionNumber",
          "type": "uint256"
        }
      ],
      "name": "haveIVoted",
      "outputs": [
        {
          "name": "IHaveVoted",
          "type": "bool"
        }
      ],
      "payable": false,
      "stateMutability": "view",
      "type": "function"
    },
    {
      "constant": true,
      "inputs": [],
      "name": "procedureName",
      "outputs": [
        {
          "name": "",
          "type": "string"
        }
      ],
      "payable": false,
      "stateMutability": "view",
      "type": "function"
    },
    {
      "constant": true,
      "inputs": [
        {
          "name": "_propositionNumber",
          "type": "uint256"
        }
      ],
      "name": "getVotedPropositionStats",
      "outputs": [
        {
          "name": "_totalVoters",
          "type": "uint256"
        },
        {
          "name": "_totalVoteCount",
          "type": "uint256"
        },
        {
          "name": "_voteFor",
          "type": "uint256"
        }
      ],
      "payable": false,
      "stateMutability": "view",
      "type": "function"
    },
    {
      "constant": true,
      "inputs": [],
      "name": "votingPeriodDuration",
      "outputs": [
        {
          "name": "",
          "type": "uint256"
        }
      ],
      "payable": false,
      "stateMutability": "view",
      "type": "function"
    },
    {
      "constant": false,
      "inputs": [
        {
          "name": "_propositionNumber",
          "type": "uint256"
        },
        {
          "name": "_acceptProposition",
          "type": "bool"
        }
      ],
      "name": "vote",
      "outputs": [],
      "payable": false,
      "stateMutability": "nonpayable",
      "type": "function"
    },
    {
      "constant": true,
      "inputs": [
        {
          "name": "_userAddress",
          "type": "address"
        }
      ],
      "name": "getPropositionsCreatedByUser",
      "outputs": [
        {
          "name": "",
          "type": "uint256[]"
        }
      ],
      "payable": false,
      "stateMutability": "view",
      "type": "function"
    },
    {
      "constant": true,
      "inputs": [
        {
          "name": "",
          "type": "uint256"
        }
      ],
      "name": "propositionsWaitingPromulgation",
      "outputs": [
        {
          "name": "",
          "type": "bool"
        }
      ],
      "payable": false,
      "stateMutability": "view",
      "type": "function"
    },
    {
      "constant": true,
      "inputs": [],
      "name": "promulgationPeriodDuration",
      "outputs": [
        {
          "name": "",
          "type": "uint256"
        }
      ],
      "payable": false,
      "stateMutability": "view",
      "type": "function"
    },
    {
      "constant": true,
      "inputs": [],
      "name": "votersOrganContract",
      "outputs": [
        {
          "name": "",
          "type": "address"
        }
      ],
      "payable": false,
      "stateMutability": "view",
      "type": "function"
    },
    {
      "constant": true,
      "inputs": [
        {
          "name": "_propositionNumber",
          "type": "uint256"
        }
      ],
      "name": "getPropositionDates",
      "outputs": [
        {
          "name": "_startDate",
          "type": "uint256"
        },
        {
          "name": "_votingPeriodEndDate",
          "type": "uint256"
        },
        {
          "name": "_promulgatorWindowEndDate",
          "type": "uint256"
        }
      ],
      "payable": false,
      "stateMutability": "view",
      "type": "function"
    },
    {
      "constant": false,
      "inputs": [
        {
          "name": "_propositionNumber",
          "type": "uint256"
        },
        {
          "name": "_promulgate",
          "type": "bool"
        }
      ],
      "name": "promulgateProposition",
      "outputs": [],
      "payable": false,
      "stateMutability": "nonpayable",
      "type": "function"
    },
    {
      "constant": true,
      "inputs": [
        {
          "name": "",
          "type": "address"
        },
        {
          "name": "",
          "type": "uint256"
        }
      ],
      "name": "propositionToVetoer",
      "outputs": [
        {
          "name": "",
          "type": "uint256"
        }
      ],
      "payable": false,
      "stateMutability": "view",
      "type": "function"
    },
    {
      "constant": false,
      "inputs": [
        {
          "name": "_propositionNumber",
          "type": "uint256"
        }
      ],
      "name": "endPropositionVote",
      "outputs": [
        {
          "name": "hasBeenAccepted",
          "type": "bool"
        }
      ],
      "payable": false,
      "stateMutability": "nonpayable",
      "type": "function"
    },
    {
      "constant": true,
      "inputs": [
        {
          "name": "",
          "type": "uint256"
        }
      ],
      "name": "propositionsWaitingEndOfVote",
      "outputs": [
        {
          "name": "",
          "type": "bool"
        }
      ],
      "payable": false,
      "stateMutability": "view",
      "type": "function"
    },
    {
      "constant": true,
      "inputs": [],
      "name": "getLinkedOrgans",
      "outputs": [
        {
          "name": "_linkedOrgans",
          "type": "address[]"
        }
      ],
      "payable": false,
      "stateMutability": "view",
      "type": "function"
    },
    {
      "constant": true,
      "inputs": [],
      "name": "isAProcedure",
      "outputs": [
        {
          "name": "",
          "type": "bool"
        }
      ],
      "payable": false,
      "stateMutability": "view",
      "type": "function"
    },
    {
      "constant": true,
      "inputs": [
        {
          "name": "",
          "type": "uint256"
        }
      ],
      "name": "linkedOrgans",
      "outputs": [
        {
          "name": "",
          "type": "address"
        }
      ],
      "payable": false,
      "stateMutability": "view",
      "type": "function"
    },
    {
      "inputs": [
        {
          "name": "_votersOrganContract",
          "type": "address"
        },
        {
          "name": "_membersWithVetoOrganContract",
          "type": "address"
        },
        {
          "name": "_finalPromulgatorsOrganContract",
          "type": "address"
        },
        {
          "name": "_quorumSize",
          "type": "uint256"
        },
        {
          "name": "_votingPeriodDuration",
          "type": "uint256"
        },
        {
          "name": "_promulgationPeriodDuration",
          "type": "uint256"
        },
        {
          "name": "_name",
          "type": "string"
        }
      ],
      "payable": false,
      "stateMutability": "nonpayable",
      "type": "constructor"
    },
    {
      "anonymous": false,
      "inputs": [
        {
          "indexed": false,
          "name": "_from",
          "type": "address"
        },
        {
          "indexed": false,
          "name": "_targetOrgan",
          "type": "address"
        },
        {
          "indexed": false,
          "name": "_propositionType",
          "type": "uint256"
        },
        {
          "indexed": false,
          "name": "_propositionNumber",
          "type": "uint256"
        }
      ],
      "name": "createPropositionEvent",
      "type": "event"
    },
    {
      "anonymous": false,
      "inputs": [
        {
          "indexed": false,
          "name": "_contractToAdd",
          "type": "address"
        },
        {
          "indexed": false,
          "name": "_contractToRemove",
          "type": "address"
        }
      ],
      "name": "createPropositionDetails",
      "type": "event"
    },
    {
      "anonymous": false,
      "inputs": [
        {
          "indexed": false,
          "name": "_propositionNumber",
          "type": "uint256"
        },
        {
          "indexed": false,
          "name": "_canAdd",
          "type": "bool"
        },
        {
          "indexed": false,
          "name": "_canDelete",
          "type": "bool"
        },
        {
          "indexed": false,
          "name": "_name",
          "type": "string"
        }
      ],
      "name": "createMasterPropositionEvent",
      "type": "event"
    },
    {
      "anonymous": false,
      "inputs": [
        {
          "indexed": false,
          "name": "_propositionNumber",
          "type": "uint256"
        },
        {
          "indexed": false,
          "name": "_canAdd",
          "type": "bool"
        },
        {
          "indexed": false,
          "name": "_canDelete",
          "type": "bool"
        },
        {
          "indexed": false,
          "name": "_canDeposit",
          "type": "bool"
        },
        {
          "indexed": false,
          "name": "_canSpend",
          "type": "bool"
        },
        {
          "indexed": false,
          "name": "_name",
          "type": "string"
        }
      ],
      "name": "createAdminPropositionEvent",
      "type": "event"
    },
    {
      "anonymous": false,
      "inputs": [
        {
          "indexed": false,
          "name": "_propositionNumber",
          "type": "uint256"
        },
        {
          "indexed": false,
          "name": "_ipfsHash",
          "type": "bytes32"
        },
        {
          "indexed": false,
          "name": "_hash_function",
          "type": "uint8"
        },
        {
          "indexed": false,
          "name": "_size",
          "type": "uint8"
        },
        {
          "indexed": false,
          "name": "name",
          "type": "string"
        }
      ],
      "name": "createNormPropositionEvent",
      "type": "event"
    },
    {
      "anonymous": false,
      "inputs": [
        {
          "indexed": false,
          "name": "_from",
          "type": "address"
        },
        {
          "indexed": false,
          "name": "_propositionNumber",
          "type": "uint256"
        }
      ],
      "name": "voteOnProposition",
      "type": "event"
    },
    {
      "anonymous": false,
      "inputs": [
        {
          "indexed": false,
          "name": "_from",
          "type": "address"
        },
        {
          "indexed": false,
          "name": "_propositionNumber",
          "type": "uint256"
        }
      ],
      "name": "vetoProposition",
      "type": "event"
    },
    {
      "anonymous": false,
      "inputs": [
        {
          "indexed": false,
          "name": "_from",
          "type": "address"
        },
        {
          "indexed": false,
          "name": "_propositionNumber",
          "type": "uint256"
        }
      ],
      "name": "countVotes",
      "type": "event"
    },
    {
      "anonymous": false,
      "inputs": [
        {
          "indexed": false,
          "name": "_from",
          "type": "address"
        },
        {
          "indexed": false,
          "name": "_propositionNumber",
          "type": "uint256"
        },
        {
          "indexed": false,
          "name": "_promulgate",
          "type": "bool"
        }
      ],
      "name": "promulgatePropositionEvent",
      "type": "event"
    }
  ],
  "bytecode": "0x60606040526000600460006101000a81548160ff0219169083151502179055506001600460016101000a81548160ff0219169083151502179055506006805534156200004a57600080fd5b604051620056bb380380620056bb8339810160405280805190602001909190805190602001909190805190602001909190805190602001909190805190602001909190805190602001909190805182019190505086600860006101000a81548173ffffffffffffffffffffffffffffffffffffffff021916908373ffffffffffffffffffffffffffffffffffffffff16021790555085600960006101000a81548173ffffffffffffffffffffffffffffffffffffffff021916908373ffffffffffffffffffffffffffffffffffffffff16021790555084600a60006101000a81548173ffffffffffffffffffffffffffffffffffffffff021916908373ffffffffffffffffffffffffffffffffffffffff160217905550606060405190810160405280600860009054906101000a900473ffffffffffffffffffffffffffffffffffffffff1673ffffffffffffffffffffffffffffffffffffffff1673ffffffffffffffffffffffffffffffffffffffff168152602001600960009054906101000a900473ffffffffffffffffffffffffffffffffffffffff1673ffffffffffffffffffffffffffffffffffffffff1673ffffffffffffffffffffffffffffffffffffffff168152602001600a60009054906101000a900473ffffffffffffffffffffffffffffffffffffffff1673ffffffffffffffffffffffffffffffffffffffff1673ffffffffffffffffffffffffffffffffffffffff16815250600b90600362000279929190620002bd565b508060079080519060200190620002929291906200034c565b5083600e8190555082600c8190555081600d8190555060016000819055505050505050505062000441565b82805482825590600052602060002090810192821562000339579160200282015b82811115620003385782518260006101000a81548173ffffffffffffffffffffffffffffffffffffffff021916908373ffffffffffffffffffffffffffffffffffffffff16021790555091602001919060010190620002de565b5b509050620003489190620003d3565b5090565b828054600181600116156101000203166002900490600052602060002090601f016020900481019282601f106200038f57805160ff1916838001178555620003c0565b82800160010185558215620003c0579182015b82811115620003bf578251825591602001919060010190620003a2565b5b509050620003cf919062000419565b5090565b6200041691905b808211156200041257600081816101000a81549073ffffffffffffffffffffffffffffffffffffffff021916905550600101620003da565b5090565b90565b6200043e91905b808211156200043a57600081600090555060010162000420565b5090565b90565b61526a80620004516000396000f3006060604052600436106101e3576000357c0100000000000000000000000000000000000000000000000000000000900463ffffffff1680630366af3d146101e857806305cf00571461022e57806307e7a224146102bc5780630b2e34b01461034a5780630f2d671e146103a05780631d28dec7146104c85780632647d7f9146104eb5780633068ef4d1461051457806337443feb1461053d5780633c0848ee1461066b5780633ef4cfbb146106f95780635332eea1146107bf57806359908afe146108155780635dbe4d28146108a3578063615d9bff146108cc57806364cdd61e146108ef5780636a95d38d1461094457806375ff60c41461098a578063880d3f54146109e05780638f3b07a414610a355780639f32551b14610a5e578063a8bef97a14610a87578063ac37af1c14610ab4578063adb4018b14610aef578063aff7cfc714610b7d578063b5fdb88e14610bc2578063c9d27afe14610beb578063cb20a2fd14610c19578063cd43eb1f14610ca7578063cd87c2b614610ce2578063ce784b7714610d0b578063ce88840314610d60578063d64ff06314610da5578063d858849414610dd3578063e09ecb8714610e29578063e36f6e4e14610e64578063e570050114610e9f578063e80b30a514610f09578063f2edc61614610f36575b600080fd5b34156101f357600080fd5b6102096004808035906020019091905050610f99565b6040518083151515158152602001821515151581526020019250505060405180910390f35b341561023957600080fd5b610265600480803573ffffffffffffffffffffffffffffffffffffffff16906020019091905050611001565b6040518080602001828103825283818151815260200191508051906020019060200280838360005b838110156102a857808201518184015260208101905061028d565b505050509050019250505060405180910390f35b34156102c757600080fd5b6102f3600480803573ffffffffffffffffffffffffffffffffffffffff1690602001909190505061109e565b6040518080602001828103825283818151815260200191508051906020019060200280838360005b8381101561033657808201518184015260208101905061031b565b505050509050019250505060405180910390f35b341561035557600080fd5b61038a600480803573ffffffffffffffffffffffffffffffffffffffff1690602001909190803590602001909190505061113b565b6040518082815260200191505060405180910390f35b34156103ab57600080fd5b6104b2600480803573ffffffffffffffffffffffffffffffffffffffff1690602001909190803573ffffffffffffffffffffffffffffffffffffffff1690602001909190803573ffffffffffffffffffffffffffffffffffffffff169060200190919080356000191690602001909190803560ff1690602001909190803560ff1690602001909190803590602001908201803590602001908080601f01602080910402602001604051908101604052809392919081815260200183838082843782019150505050505091908035151590602001909190803515159060200190919080351515906020019091908035151590602001909190803590602001909190505061116c565b6040518082815260200191505060405180910390f35b34156104d357600080fd5b6104e96004808035906020019091905050611bf5565b005b34156104f657600080fd5b6104fe611e5f565b6040518082815260200191505060405180910390f35b341561051f57600080fd5b610527611e65565b6040518082815260200191505060405180910390f35b341561054857600080fd5b61055e6004808035906020019091905050611e6b565b604051808873ffffffffffffffffffffffffffffffffffffffff1673ffffffffffffffffffffffffffffffffffffffff1681526020018773ffffffffffffffffffffffffffffffffffffffff1673ffffffffffffffffffffffffffffffffffffffff1681526020018615151515815260200185151515158152602001841515151581526020018315151515815260200180602001828103825283818151815260200191508051906020019080838360005b8381101561062a57808201518184015260208101905061060f565b50505050905090810190601f1680156106575780820380516001836020036101000a031916815260200191505b509850505050505050505060405180910390f35b341561067657600080fd5b6106a2600480803573ffffffffffffffffffffffffffffffffffffffff1690602001909190505061208b565b6040518080602001828103825283818151815260200191508051906020019060200280838360005b838110156106e55780820151818401526020810190506106ca565b505050509050019250505060405180910390f35b341561070457600080fd5b61071a6004808035906020019091905050612128565b604051808773ffffffffffffffffffffffffffffffffffffffff1673ffffffffffffffffffffffffffffffffffffffff1681526020018673ffffffffffffffffffffffffffffffffffffffff1673ffffffffffffffffffffffffffffffffffffffff16815260200185600019166000191681526020018460ff1660ff1681526020018360ff1660ff168152602001828152602001965050505050505060405180910390f35b34156107ca57600080fd5b6107ff600480803573ffffffffffffffffffffffffffffffffffffffff16906020019091908035906020019091905050612266565b6040518082815260200191505060405180910390f35b341561082057600080fd5b610828612297565b6040518080602001828103825283818151815260200191508051906020019080838360005b8381101561086857808201518184015260208101905061084d565b50505050905090810190601f1680156108955780820380516001836020036101000a031916815260200191505b509250505060405180910390f35b34156108ae57600080fd5b6108b661233f565b6040518082815260200191505060405180910390f35b34156108d757600080fd5b6108ed6004808035906020019091905050612345565b005b34156108fa57600080fd5b61090261271a565b604051808273ffffffffffffffffffffffffffffffffffffffff1673ffffffffffffffffffffffffffffffffffffffff16815260200191505060405180910390f35b341561094f57600080fd5b6109656004808035906020019091905050612740565b6040518083151515158152602001821515151581526020019250505060405180910390f35b341561099557600080fd5b6109ca600480803573ffffffffffffffffffffffffffffffffffffffff169060200190919080359060200190919050506127e1565b6040518082815260200191505060405180910390f35b34156109eb57600080fd5b6109f3612812565b604051808273ffffffffffffffffffffffffffffffffffffffff1673ffffffffffffffffffffffffffffffffffffffff16815260200191505060405180910390f35b3415610a4057600080fd5b610a48612838565b6040518082815260200191505060405180910390f35b3415610a6957600080fd5b610a7161283e565b6040518082815260200191505060405180910390f35b3415610a9257600080fd5b610a9a612844565b604051808215151515815260200191505060405180910390f35b3415610abf57600080fd5b610ad56004808035906020019091905050612857565b604051808215151515815260200191505060405180910390f35b3415610afa57600080fd5b610b026128cb565b6040518080602001828103825283818151815260200191508051906020019080838360005b83811015610b42578082015181840152602081019050610b27565b50505050905090810190601f168015610b6f5780820380516001836020036101000a031916815260200191505b509250505060405180910390f35b3415610b8857600080fd5b610b9e6004808035906020019091905050612969565b60405180848152602001838152602001828152602001935050505060405180910390f35b3415610bcd57600080fd5b610bd5612a17565b6040518082815260200191505060405180910390f35b3415610bf657600080fd5b610c1760048080359060200190919080351515906020019091905050612a1d565b005b3415610c2457600080fd5b610c50600480803573ffffffffffffffffffffffffffffffffffffffff16906020019091905050612da8565b6040518080602001828103825283818151815260200191508051906020019060200280838360005b83811015610c93578082015181840152602081019050610c78565b505050509050019250505060405180910390f35b3415610cb257600080fd5b610cc86004808035906020019091905050612e45565b604051808215151515815260200191505060405180910390f35b3415610ced57600080fd5b610cf5612e78565b6040518082815260200191505060405180910390f35b3415610d1657600080fd5b610d1e612e7e565b604051808273ffffffffffffffffffffffffffffffffffffffff1673ffffffffffffffffffffffffffffffffffffffff16815260200191505060405180910390f35b3415610d6b57600080fd5b610d816004808035906020019091905050612ea4565b60405180848152602001838152602001828152602001935050505060405180910390f35b3415610db057600080fd5b610dd160048080359060200190919080351515906020019091905050612f1d565b005b3415610dde57600080fd5b610e13600480803573ffffffffffffffffffffffffffffffffffffffff169060200190919080359060200190919050506148dd565b6040518082815260200191505060405180910390f35b3415610e3457600080fd5b610e4a600480803590602001909190505061490e565b604051808215151515815260200191505060405180910390f35b3415610e6f57600080fd5b610e856004808035906020019091905050614cb9565b604051808215151515815260200191505060405180910390f35b3415610eaa57600080fd5b610eb2614cec565b6040518080602001828103825283818151815260200191508051906020019060200280838360005b83811015610ef5578082015181840152602081019050610eda565b505050509050019250505060405180910390f35b3415610f1457600080fd5b610f1c614d80565b604051808215151515815260200191505060405180910390f35b3415610f4157600080fd5b610f576004808035906020019091905050614d93565b604051808273ffffffffffffffffffffffffffffffffffffffff1673ffffffffffffffffffffffffffffffffffffffff16815260200191505060405180910390f35b600080601183815481101515610fab57fe5b90600052602060002090600e0201600b0160019054906101000a900460ff16601184815481101515610fd957fe5b90600052602060002090600e0201600b0160039054906101000a900460ff1691509150915091565b611009614dd2565b601560008373ffffffffffffffffffffffffffffffffffffffff1673ffffffffffffffffffffffffffffffffffffffff16815260200190815260200160002080548060200260200160405190810160405280929190818152602001828054801561109257602002820191906000526020600020905b81548152602001906001019080831161107e575b50505050509050919050565b6110a6614dd2565b601760008373ffffffffffffffffffffffffffffffffffffffff1673ffffffffffffffffffffffffffffffffffffffff16815260200190815260200160002080548060200260200160405190810160405280929190818152602001828054801561112f57602002820191906000526020600020905b81548152602001906001019080831161111b575b50505050509050919050565b60146020528160005260406000208181548110151561115657fe5b9060005260206000209001600091509150505481565b600080611177614de6565b600860009054906101000a900473ffffffffffffffffffffffffffffffffffffffff1691508173ffffffffffffffffffffffffffffffffffffffff1663d323a4f8336000604051602001526040518263ffffffff167c0100000000000000000000000000000000000000000000000000000000028152600401808273ffffffffffffffffffffffffffffffffffffffff1673ffffffffffffffffffffffffffffffffffffffff168152602001915050602060405180830381600087803b151561123f57600080fd5b6102c65a03f1151561125057600080fd5b50505060405180519050151561126557600080fd5b600091508e816000019073ffffffffffffffffffffffffffffffffffffffff16908173ffffffffffffffffffffffffffffffffffffffff16815250508d816020019073ffffffffffffffffffffffffffffffffffffffff16908173ffffffffffffffffffffffffffffffffffffffff16815250508c816040019073ffffffffffffffffffffffffffffffffffffffff16908173ffffffffffffffffffffffffffffffffffffffff16815250508b816060019060001916908160001916815250508a816080019060ff16908160ff1681525050898160a0019060ff16908160ff1681525050878160e00190151590811515815250508681610100019015159081151581525050848161012001901515908115158152505085816101400190151590811515815250508381610160018181525050888160c001819052504281610180018181525050600c544201816101a00181815250506000816101c00190151590811515815250506000816102200190151590811515815250506000816101e00190151590811515815250506000816102000190151590811515815250506000816102600181815250506000816102400181815250506011805480600101828161142e9190614ee1565b91600052602060002090600e0201600083909190915060008201518160000160006101000a81548173ffffffffffffffffffffffffffffffffffffffff021916908373ffffffffffffffffffffffffffffffffffffffff16021790555060208201518160010160006101000a81548173ffffffffffffffffffffffffffffffffffffffff021916908373ffffffffffffffffffffffffffffffffffffffff16021790555060408201518160020160006101000a81548173ffffffffffffffffffffffffffffffffffffffff021916908373ffffffffffffffffffffffffffffffffffffffff1602179055506060820151816003019060001916905560808201518160040160006101000a81548160ff021916908360ff16021790555060a08201518160040160016101000a81548160ff021916908360ff16021790555060c0820151816005019080519060200190611587929190614f13565b5060e08201518160060160006101000a81548160ff0219169083151502179055506101008201518160060160016101000a81548160ff0219169083151502179055506101208201518160060160026101000a81548160ff0219169083151502179055506101408201518160060160036101000a81548160ff021916908315150217905550610160820151816007015561018082015181600901556101a082015181600a01556101c082015181600b0160006101000a81548160ff0219169083151502179055506101e082015181600b0160016101000a81548160ff02191690831515021790555061020082015181600b0160026101000a81548160ff02191690831515021790555061022082015181600b0160036101000a81548160ff02191690831515021790555061024082015181600c015561026082015181600d01555050506116d1614de6565b905060016011805490500392506001600f60008282540192505081905550601460003373ffffffffffffffffffffffffffffffffffffffff1673ffffffffffffffffffffffffffffffffffffffff16815260200190815260200160002080548060010182816117409190614f93565b916000526020600020900160008590919091505550601280548060010182816117699190614fbf565b91600052602060002090602091828204019190066001909190916101000a81548160ff02191690831515021790555050601380548060010182816117ad9190614fbf565b91600052602060002090602091828204019190066000909190916101000a81548160ff021916908315150217905550507f2c230862c7869ceafe2db15dda54a94fd7e87a574af1360a09e7a6f8acbc6bd33360118581548110151561180e57fe5b90600052602060002090600e020160000160009054906101000a900473ffffffffffffffffffffffffffffffffffffffff168686604051808573ffffffffffffffffffffffffffffffffffffffff1673ffffffffffffffffffffffffffffffffffffffff1681526020018473ffffffffffffffffffffffffffffffffffffffff1673ffffffffffffffffffffffffffffffffffffffff16815260200183815260200182815260200194505050505060405180910390a17fe00280f434fd134c148d59d0345a47457ed75114c60d70d759e43848b8faf7f58e8e604051808373ffffffffffffffffffffffffffffffffffffffff1673ffffffffffffffffffffffffffffffffffffffff1681526020018273ffffffffffffffffffffffffffffffffffffffff1673ffffffffffffffffffffffffffffffffffffffff1681526020019250505060405180910390a16000841415611a25577fec3d420ffa4da7a9686480af8bca59e8924642e69b2af65e3cebfa7b3fd60dbb8389898c60405180858152602001841515151581526020018315151515815260200180602001828103825283818151815260200191508051906020019080838360005b838110156119e35780820151818401526020810190506119c8565b50505050905090810190601f168015611a105780820380516001836020036101000a031916815260200191505b509550505050505060405180910390a1611be3565b6001841415611b07577f1f3b72c309501b6d3e1f9d91571c6faef20f943d351b92f44d8c5c8b9d9ad84c83898989898e604051808781526020018615151515815260200185151515158152602001841515151581526020018315151515815260200180602001828103825283818151815260200191508051906020019080838360005b83811015611ac3578082015181840152602081019050611aa8565b50505050905090810190601f168015611af05780820380516001836020036101000a031916815260200191505b5097505050505050505060405180910390a1611be2565b6002841415611be1577f5c96618013629f155bcf67ccd4858a79107e88a36d2a03d3f6c25f97a6b3fc5a838d8d8d8d6040518086815260200185600019166000191681526020018460ff1660ff1681526020018360ff1660ff16815260200180602001828103825283818151815260200191508051906020019080838360005b83811015611ba2578082015181840152602081019050611b87565b50505050905090810190601f168015611bcf5780820380516001836020036101000a031916815260200191505b50965050505050505060405180910390a15b5b5b50509c9b505050505050505050505050565b6000600960009054906101000a900473ffffffffffffffffffffffffffffffffffffffff1690508073ffffffffffffffffffffffffffffffffffffffff1663d323a4f8336000604051602001526040518263ffffffff167c0100000000000000000000000000000000000000000000000000000000028152600401808273ffffffffffffffffffffffffffffffffffffffff1673ffffffffffffffffffffffffffffffffffffffff168152602001915050602060405180830381600087803b1515611cbf57600080fd5b6102c65a03f11515611cd057600080fd5b505050604051805190501515611ce557600080fd5b60009050601182815481101515611cf857fe5b90600052602060002090600e0201600b0160019054906101000a900460ff16151515611d2357600080fd5b42601183815481101515611d3357fe5b90600052602060002090600e0201600a0154111515611d5157600080fd5b6001601183815481101515611d6257fe5b90600052602060002090600e0201600b0160006101000a81548160ff021916908315150217905550601660003373ffffffffffffffffffffffffffffffffffffffff1673ffffffffffffffffffffffffffffffffffffffff1681526020019081526020016000208054806001018281611ddb9190614f93565b9160005260206000209001600084909190915055507f62901d9c2f788a5c877cf5a2659a041eedf9a980c6dd3ed22a4878bcc228619b3383604051808373ffffffffffffffffffffffffffffffffffffffff1673ffffffffffffffffffffffffffffffffffffffff1681526020018281526020019250505060405180910390a15050565b60065481565b600e5481565b600080600080600080611e7c614ff9565b601188815481101515611e8b57fe5b90600052602060002090600e020160010160009054906101000a900473ffffffffffffffffffffffffffffffffffffffff16601189815481101515611ecc57fe5b90600052602060002090600e020160020160009054906101000a900473ffffffffffffffffffffffffffffffffffffffff1660118a815481101515611f0d57fe5b90600052602060002090600e020160060160009054906101000a900460ff1660118b815481101515611f3b57fe5b90600052602060002090600e020160060160019054906101000a900460ff1660118c815481101515611f6957fe5b90600052602060002090600e020160060160039054906101000a900460ff1660118d815481101515611f9757fe5b90600052602060002090600e020160060160029054906101000a900460ff1660118e815481101515611fc557fe5b90600052602060002090600e0201600501808054600181600116156101000203166002900480601f01602080910402602001604051908101604052809291908181526020018280546001816001161561010002031660029004801561206b5780601f106120405761010080835404028352916020019161206b565b820191906000526020600020905b81548152906001019060200180831161204e57829003601f168201915b505050505090509650965096509650965096509650919395979092949650565b612093614dd2565b601660008373ffffffffffffffffffffffffffffffffffffffff1673ffffffffffffffffffffffffffffffffffffffff16815260200190815260200160002080548060200260200160405190810160405280929190818152602001828054801561211c57602002820191906000526020600020905b815481526020019060010190808311612108575b50505050509050919050565b60008060008060008060118781548110151561214057fe5b90600052602060002090600e020160010160009054906101000a900473ffffffffffffffffffffffffffffffffffffffff1660118881548110151561218157fe5b90600052602060002090600e020160020160009054906101000a900473ffffffffffffffffffffffffffffffffffffffff166011898154811015156121c257fe5b90600052602060002090600e02016003015460118a8154811015156121e357fe5b90600052602060002090600e020160040160009054906101000a900460ff1660118b81548110151561221157fe5b90600052602060002090600e020160040160019054906101000a900460ff1660118c81548110151561223f57fe5b90600052602060002090600e02016007015495509550955095509550955091939550919395565b60176020528160005260406000208181548110151561228157fe5b9060005260206000209001600091509150505481565b61229f614ff9565b60078054600181600116156101000203166002900480601f0160208091040260200160405190810160405280929190818152602001828054600181600116156101000203166002900480156123355780601f1061230a57610100808354040283529160200191612335565b820191906000526020600020905b81548152906001019060200180831161231857829003601f168201915b5050505050905090565b60005481565b600080600060118481548110151561235957fe5b90600052602060002090600e020160000160009054906101000a900473ffffffffffffffffffffffffffffffffffffffff169250600260118581548110151561239e57fe5b90600052602060002090600e0201600701541015612486578273ffffffffffffffffffffffffffffffffffffffff1663f720f80b306000604051604001526040518263ffffffff167c0100000000000000000000000000000000000000000000000000000000028152600401808273ffffffffffffffffffffffffffffffffffffffff1673ffffffffffffffffffffffffffffffffffffffff1681526020019150506040805180830381600087803b151561245857600080fd5b6102c65a03f1151561246957600080fd5b505050604051805190602001805190508092508193505050612552565b8273ffffffffffffffffffffffffffffffffffffffff166324d7806c306000604051604001526040518263ffffffff167c0100000000000000000000000000000000000000000000000000000000028152600401808273ffffffffffffffffffffffffffffffffffffffff1673ffffffffffffffffffffffffffffffffffffffff1681526020019150506040805180830381600087803b151561252857600080fd5b6102c65a03f1151561253957600080fd5b5050506040518051906020018051905080925081935050505b811580156125b75750600060118581548110151561256c57fe5b90600052602060002090600e020160010160009054906101000a900473ffffffffffffffffffffffffffffffffffffffff1673ffffffffffffffffffffffffffffffffffffffff1614155b80612623575080158015612622575060006011858154811015156125d757fe5b90600052602060002090600e020160020160009054906101000a900473ffffffffffffffffffffffffffffffffffffffff1673ffffffffffffffffffffffffffffffffffffffff1614155b5b1561269c57600160118581548110151561263957fe5b90600052602060002090600e0201600b0160036101000a81548160ff021916908315150217905550600060138581548110151561267257fe5b90600052602060002090602091828204019190066101000a81548160ff0219169083151502179055505b7fed7c73834db4ae22add7f637175d8a32a1dddae4c154ccd25195b77df4c8d18d33856000604051808473ffffffffffffffffffffffffffffffffffffffff1673ffffffffffffffffffffffffffffffffffffffff16815260200183815260200182151515158152602001935050505060405180910390a150505050565b600960009054906101000a900473ffffffffffffffffffffffffffffffffffffffff1681565b60008060118381548110151561275257fe5b90600052602060002090600e0201600b0160019054906101000a900460ff16151561277c57600080fd5b60118381548110151561278b57fe5b90600052602060002090600e0201600b0160009054906101000a900460ff166011848154811015156127b957fe5b90600052602060002090600e0201600b0160029054906101000a900460ff1691509150915091565b6015602052816000526040600020818154811015156127fc57fe5b9060005260206000209001600091509150505481565b600a60009054906101000a900473ffffffffffffffffffffffffffffffffffffffff1681565b600f5481565b60105481565b600460009054906101000a900460ff1681565b600060118281548110151561286857fe5b90600052602060002090600e020160080160003373ffffffffffffffffffffffffffffffffffffffff1673ffffffffffffffffffffffffffffffffffffffff16815260200190815260200160002060009054906101000a900460ff169050919050565b60078054600181600116156101000203166002900480601f0160208091040260200160405190810160405280929190818152602001828054600181600116156101000203166002900480156129615780601f1061293657610100808354040283529160200191612961565b820191906000526020600020905b81548152906001019060200180831161294457829003601f168201915b505050505081565b600080600060118481548110151561297d57fe5b90600052602060002090600e0201600b0160019054906101000a900460ff1615156129a757600080fd5b6011848154811015156129b657fe5b90600052602060002090600e0201600d01546011858154811015156129d757fe5b90600052602060002090600e0201600d01546011868154811015156129f857fe5b90600052602060002090600e0201600c01549250925092509193909250565b600c5481565b6000600860009054906101000a900473ffffffffffffffffffffffffffffffffffffffff1690508073ffffffffffffffffffffffffffffffffffffffff1663d323a4f8336000604051602001526040518263ffffffff167c0100000000000000000000000000000000000000000000000000000000028152600401808273ffffffffffffffffffffffffffffffffffffffff1673ffffffffffffffffffffffffffffffffffffffff168152602001915050602060405180830381600087803b1515612ae757600080fd5b6102c65a03f11515612af857600080fd5b505050604051805190501515612b0d57600080fd5b60009050601183815481101515612b2057fe5b90600052602060002090600e020160080160003373ffffffffffffffffffffffffffffffffffffffff1673ffffffffffffffffffffffffffffffffffffffff16815260200190815260200160002060009054906101000a900460ff16151515612b8857600080fd5b601183815481101515612b9757fe5b90600052602060002090600e0201600b0160019054906101000a900460ff16151515612bc257600080fd5b42601184815481101515612bd257fe5b90600052602060002090600e0201600a0154111515612bf057600080fd5b600115158215151415612c2d576001601184815481101515612c0e57fe5b90600052602060002090600e0201600c01600082825401925050819055505b6001601184815481101515612c3e57fe5b90600052602060002090600e020160080160003373ffffffffffffffffffffffffffffffffffffffff1673ffffffffffffffffffffffffffffffffffffffff16815260200190815260200160002060006101000a81548160ff0219169083151502179055506001601184815481101515612cb457fe5b90600052602060002090600e0201600d0160008282540192505081905550601560003373ffffffffffffffffffffffffffffffffffffffff1673ffffffffffffffffffffffffffffffffffffffff1681526020019081526020016000208054806001018281612d239190614f93565b9160005260206000209001600085909190915055507fd1faddd599b0d6b58c83de71d7ff5395895b5891894dcd37f2482f33b2a1c43d3384604051808373ffffffffffffffffffffffffffffffffffffffff1673ffffffffffffffffffffffffffffffffffffffff1681526020018281526020019250505060405180910390a1505050565b612db0614dd2565b601460008373ffffffffffffffffffffffffffffffffffffffff1673ffffffffffffffffffffffffffffffffffffffff168152602001908152602001600020805480602002602001604051908101604052809291908181526020018280548015612e3957602002820191906000526020600020905b815481526020019060010190808311612e25575b50505050509050919050565b601381815481101515612e5457fe5b9060005260206000209060209182820401919006915054906101000a900460ff1681565b600d5481565b600860009054906101000a900473ffffffffffffffffffffffffffffffffffffffff1681565b6000806000601184815481101515612eb857fe5b90600052602060002090600e020160090154601185815481101515612ed957fe5b90600052602060002090600e0201600a0154600d54601187815481101515612efd57fe5b90600052602060002090600e0201600a0154019250925092509193909250565b600080601184815481101515612f2f57fe5b90600052602060002090600e0201600b0160039054906101000a900460ff16151515612f5a57600080fd5b601184815481101515612f6957fe5b90600052602060002090600e0201600b0160019054906101000a900460ff161515612f9357600080fd5b600d54601185815481101515612fa557fe5b90600052602060002090600e0201600a0154014210156130b657600a60009054906101000a900473ffffffffffffffffffffffffffffffffffffffff1691508173ffffffffffffffffffffffffffffffffffffffff1663d323a4f8336000604051602001526040518263ffffffff167c0100000000000000000000000000000000000000000000000000000000028152600401808273ffffffffffffffffffffffffffffffffffffffff1673ffffffffffffffffffffffffffffffffffffffff168152602001915050602060405180830381600087803b151561308757600080fd5b6102c65a03f1151561309857600080fd5b5050506040518051905015156130ad57600080fd5b600091506130c3565b8215156130c257600080fd5b5b6011848154811015156130d257fe5b90600052602060002090600e0201600b0160029054906101000a900460ff1615156130fc57600080fd5b8215806131c15750600060118581548110151561311557fe5b90600052602060002090600e020160010160009054906101000a900473ffffffffffffffffffffffffffffffffffffffff1673ffffffffffffffffffffffffffffffffffffffff161480156131c05750600060118581548110151561317657fe5b90600052602060002090600e020160020160009054906101000a900473ffffffffffffffffffffffffffffffffffffffff1673ffffffffffffffffffffffffffffffffffffffff16145b5b156132045760016011858154811015156131d757fe5b90600052602060002090600e0201600b0160036101000a81548160ff021916908315150217905550614787565b60118481548110151561321357fe5b90600052602060002090600e020160000160009054906101000a900473ffffffffffffffffffffffffffffffffffffffff169050600060118581548110151561325857fe5b90600052602060002090600e020160010160009054906101000a900473ffffffffffffffffffffffffffffffffffffffff1673ffffffffffffffffffffffffffffffffffffffff161415156143a25760006011858154811015156132b857fe5b90600052602060002090600e020160020160009054906101000a900473ffffffffffffffffffffffffffffffffffffffff1673ffffffffffffffffffffffffffffffffffffffff16141515613c4257600060118581548110151561331857fe5b90600052602060002090600e02016007015414156135b2578073ffffffffffffffffffffffffffffffffffffffff16630e6adcdf60118681548110151561335b57fe5b90600052602060002090600e020160020160009054906101000a900473ffffffffffffffffffffffffffffffffffffffff1660118781548110151561339c57fe5b90600052602060002090600e020160010160009054906101000a900473ffffffffffffffffffffffffffffffffffffffff166011888154811015156133dd57fe5b90600052602060002090600e020160060160009054906101000a900460ff1660118981548110151561340b57fe5b90600052602060002090600e020160060160019054906101000a900460ff1660118a81548110151561343957fe5b90600052602060002090600e02016005016040518663ffffffff167c0100000000000000000000000000000000000000000000000000000000028152600401808673ffffffffffffffffffffffffffffffffffffffff1673ffffffffffffffffffffffffffffffffffffffff1681526020018573ffffffffffffffffffffffffffffffffffffffff1673ffffffffffffffffffffffffffffffffffffffff1681526020018415151515815260200183151515158152602001806020018281038252838181546001816001161561010002031660029004815260200191508054600181600116156101000203166002900480156135765780601f1061354b57610100808354040283529160200191613576565b820191906000526020600020905b81548152906001019060200180831161355957829003601f168201915b50509650505050505050600060405180830381600087803b151561359957600080fd5b6102c65a03f115156135aa57600080fd5b505050613c3d565b60016011858154811015156135c357fe5b90600052602060002090600e02016007015414156138cf578073ffffffffffffffffffffffffffffffffffffffff16638186c35060118681548110151561360657fe5b90600052602060002090600e020160020160009054906101000a900473ffffffffffffffffffffffffffffffffffffffff1660118781548110151561364757fe5b90600052602060002090600e020160010160009054906101000a900473ffffffffffffffffffffffffffffffffffffffff1660118881548110151561368857fe5b90600052602060002090600e020160060160009054906101000a900460ff166011898154811015156136b657fe5b90600052602060002090600e020160060160019054906101000a900460ff1660118a8154811015156136e457fe5b90600052602060002090600e020160060160039054906101000a900460ff1660118b81548110151561371257fe5b90600052602060002090600e020160060160029054906101000a900460ff1660118c81548110151561374057fe5b90600052602060002090600e02016005016040518863ffffffff167c0100000000000000000000000000000000000000000000000000000000028152600401808873ffffffffffffffffffffffffffffffffffffffff1673ffffffffffffffffffffffffffffffffffffffff1681526020018773ffffffffffffffffffffffffffffffffffffffff1673ffffffffffffffffffffffffffffffffffffffff16815260200186151515158152602001851515151581526020018415151515815260200183151515158152602001806020018281038252838181546001816001161561010002031660029004815260200191508054600181600116156101000203166002900480156138915780601f1061386657610100808354040283529160200191613891565b820191906000526020600020905b81548152906001019060200180831161387457829003601f168201915b505098505050505050505050600060405180830381600087803b15156138b657600080fd5b6102c65a03f115156138c757600080fd5b505050613c3c565b60026011858154811015156138e057fe5b90600052602060002090600e0201600701541415613c3b578073ffffffffffffffffffffffffffffffffffffffff1663cd26b87b8273ffffffffffffffffffffffffffffffffffffffff16635549ea5160118881548110151561393f57fe5b90600052602060002090600e020160020160009054906101000a900473ffffffffffffffffffffffffffffffffffffffff166000604051602001526040518263ffffffff167c0100000000000000000000000000000000000000000000000000000000028152600401808273ffffffffffffffffffffffffffffffffffffffff1673ffffffffffffffffffffffffffffffffffffffff168152602001915050602060405180830381600087803b15156139f757600080fd5b6102c65a03f11515613a0857600080fd5b50505060405180519050601187815481101515613a2157fe5b90600052602060002090600e020160010160009054906101000a900473ffffffffffffffffffffffffffffffffffffffff16601188815481101515613a6257fe5b90600052602060002090600e0201600501601189815481101515613a8257fe5b90600052602060002090600e02016003015460118a815481101515613aa357fe5b90600052602060002090600e020160040160009054906101000a900460ff1660118b815481101515613ad157fe5b90600052602060002090600e020160040160019054906101000a900460ff166040518763ffffffff167c0100000000000000000000000000000000000000000000000000000000028152600401808781526020018673ffffffffffffffffffffffffffffffffffffffff1673ffffffffffffffffffffffffffffffffffffffff1681526020018060200185600019166000191681526020018460ff1660ff1681526020018360ff1660ff168152602001828103825286818154600181600116156101000203166002900481526020019150805460018160011615610100020316600290048015613c025780601f10613bd757610100808354040283529160200191613c02565b820191906000526020600020905b815481529060010190602001808311613be557829003601f168201915b5050975050505050505050600060405180830381600087803b1515613c2657600080fd5b6102c65a03f11515613c3757600080fd5b5050505b5b5b61439d565b6000601185815481101515613c5357fe5b90600052602060002090600e0201600701541415613e79578073ffffffffffffffffffffffffffffffffffffffff1663ca1885f7601186815481101515613c9657fe5b90600052602060002090600e020160010160009054906101000a900473ffffffffffffffffffffffffffffffffffffffff16601187815481101515613cd757fe5b90600052602060002090600e020160060160009054906101000a900460ff16601188815481101515613d0557fe5b90600052602060002090600e020160060160019054906101000a900460ff16601189815481101515613d3357fe5b90600052602060002090600e02016005016040518563ffffffff167c0100000000000000000000000000000000000000000000000000000000028152600401808573ffffffffffffffffffffffffffffffffffffffff1673ffffffffffffffffffffffffffffffffffffffff168152602001841515151581526020018315151515815260200180602001828103825283818154600181600116156101000203166002900481526020019150805460018160011615610100020316600290048015613e3e5780601f10613e1357610100808354040283529160200191613e3e565b820191906000526020600020905b815481529060010190602001808311613e2157829003601f168201915b505095505050505050600060405180830381600087803b1515613e6057600080fd5b6102c65a03f11515613e7157600080fd5b50505061439c565b6001601185815481101515613e8a57fe5b90600052602060002090600e0201600701541415614122578073ffffffffffffffffffffffffffffffffffffffff166378ebd005601186815481101515613ecd57fe5b90600052602060002090600e020160010160009054906101000a900473ffffffffffffffffffffffffffffffffffffffff16601187815481101515613f0e57fe5b90600052602060002090600e020160060160009054906101000a900460ff16601188815481101515613f3c57fe5b90600052602060002090600e020160060160019054906101000a900460ff16601189815481101515613f6a57fe5b90600052602060002090600e020160060160039054906101000a900460ff1660118a815481101515613f9857fe5b90600052602060002090600e020160060160029054906101000a900460ff1660118b815481101515613fc657fe5b90600052602060002090600e02016005016040518763ffffffff167c0100000000000000000000000000000000000000000000000000000000028152600401808773ffffffffffffffffffffffffffffffffffffffff1673ffffffffffffffffffffffffffffffffffffffff16815260200186151515158152602001851515151581526020018415151515815260200183151515158152602001806020018281038252838181546001816001161561010002031660029004815260200191508054600181600116156101000203166002900480156140e55780601f106140ba576101008083540402835291602001916140e5565b820191906000526020600020905b8154815290600101906020018083116140c857829003601f168201915b5050975050505050505050600060405180830381600087803b151561410957600080fd5b6102c65a03f1151561411a57600080fd5b50505061439b565b600260118581548110151561413357fe5b90600052602060002090600e020160070154141561439a578073ffffffffffffffffffffffffffffffffffffffff1663696c521960118681548110151561417657fe5b90600052602060002090600e020160010160009054906101000a900473ffffffffffffffffffffffffffffffffffffffff166011878154811015156141b757fe5b90600052602060002090600e02016005016011888154811015156141d757fe5b90600052602060002090600e0201600301546011898154811015156141f857fe5b90600052602060002090600e020160040160009054906101000a900460ff1660118a81548110151561422657fe5b90600052602060002090600e020160040160019054906101000a900460ff166000604051602001526040518663ffffffff167c0100000000000000000000000000000000000000000000000000000000028152600401808673ffffffffffffffffffffffffffffffffffffffff1673ffffffffffffffffffffffffffffffffffffffff1681526020018060200185600019166000191681526020018460ff1660ff1681526020018360ff1660ff16815260200182810382528681815460018160011615610100020316600290048152602001915080546001816001161561010002031660029004801561435a5780601f1061432f5761010080835404028352916020019161435a565b820191906000526020600020905b81548152906001019060200180831161433d57829003601f168201915b50509650505050505050602060405180830381600087803b151561437d57600080fd5b6102c65a03f1151561438e57600080fd5b50505060405180519050505b5b5b5b614786565b60006011858154811015156143b357fe5b90600052602060002090600e02016007015414156144be578073ffffffffffffffffffffffffffffffffffffffff166331a791986011868154811015156143f657fe5b90600052602060002090600e020160020160009054906101000a900473ffffffffffffffffffffffffffffffffffffffff166040518263ffffffff167c0100000000000000000000000000000000000000000000000000000000028152600401808273ffffffffffffffffffffffffffffffffffffffff1673ffffffffffffffffffffffffffffffffffffffff168152602001915050600060405180830381600087803b15156144a557600080fd5b6102c65a03f115156144b657600080fd5b505050614785565b60016011858154811015156144cf57fe5b90600052602060002090600e02016007015414156145da578073ffffffffffffffffffffffffffffffffffffffff166311c6041860118681548110151561451257fe5b90600052602060002090600e020160020160009054906101000a900473ffffffffffffffffffffffffffffffffffffffff166040518263ffffffff167c0100000000000000000000000000000000000000000000000000000000028152600401808273ffffffffffffffffffffffffffffffffffffffff1673ffffffffffffffffffffffffffffffffffffffff168152602001915050600060405180830381600087803b15156145c157600080fd5b6102c65a03f115156145d257600080fd5b505050614784565b60026011858154811015156145eb57fe5b90600052602060002090600e0201600701541415614783578073ffffffffffffffffffffffffffffffffffffffff16630e9defff8273ffffffffffffffffffffffffffffffffffffffff16635549ea5160118881548110151561464a57fe5b90600052602060002090600e020160020160009054906101000a900473ffffffffffffffffffffffffffffffffffffffff166000604051602001526040518263ffffffff167c0100000000000000000000000000000000000000000000000000000000028152600401808273ffffffffffffffffffffffffffffffffffffffff1673ffffffffffffffffffffffffffffffffffffffff168152602001915050602060405180830381600087803b151561470257600080fd5b6102c65a03f1151561471357600080fd5b505050604051805190506040518263ffffffff167c010000000000000000000000000000000000000000000000000000000002815260040180828152602001915050600060405180830381600087803b151561476e57600080fd5b6102c65a03f1151561477f57600080fd5b5050505b5b5b5b5b600160118581548110151561479857fe5b90600052602060002090600e0201600b0160036101000a81548160ff02191690831515021790555060006013858154811015156147d157fe5b90600052602060002090602091828204019190066101000a81548160ff021916908315150217905550601760003373ffffffffffffffffffffffffffffffffffffffff1673ffffffffffffffffffffffffffffffffffffffff168152602001908152602001600020805480600101828161484b9190614f93565b9160005260206000209001600086909190915055507fed7c73834db4ae22add7f637175d8a32a1dddae4c154ccd25195b77df4c8d18d338585604051808473ffffffffffffffffffffffffffffffffffffffff1673ffffffffffffffffffffffffffffffffffffffff16815260200183815260200182151515158152602001935050505060405180910390a150505050565b6016602052816000526040600020818154811015156148f857fe5b9060005260206000209001600091509150505481565b60008060118381548110151561492057fe5b90600052602060002090600e0201600b0160019054906101000a900460ff1615151561494b57600080fd5b4260118481548110151561495b57fe5b90600052602060002090600e0201600a015410151561497957600080fd5b600860009054906101000a900473ffffffffffffffffffffffffffffffffffffffff1690506011838154811015156149ad57fe5b90600052602060002090600e0201600b0160009054906101000a900460ff1615614a13576000915060016011848154811015156149e657fe5b90600052602060002090600e0201600b0160036101000a81548160ff021916908315150217905550614b63565b8073ffffffffffffffffffffffffffffffffffffffff1663234d34de6000604051602001526040518163ffffffff167c0100000000000000000000000000000000000000000000000000000000028152600401602060405180830381600087803b1515614a7f57600080fd5b6102c65a03f11515614a9057600080fd5b50505060405180519050600e54026064601185815481101515614aaf57fe5b90600052602060002090600e0201600d01540210158015614b1657506064601184815481101515614adc57fe5b90600052602060002090600e0201600d015402601054601185815481101515614b0157fe5b90600052602060002090600e0201600c015402115b15614b245760019150614b62565b600091506001601184815481101515614b3957fe5b90600052602060002090600e0201600b0160036101000a81548160ff0219169083151502179055505b5b6001601184815481101515614b7457fe5b90600052602060002090600e0201600b0160016101000a81548160ff02191690831515021790555081601184815481101515614bac57fe5b90600052602060002090600e0201600b0160026101000a81548160ff0219169083151502179055506000601284815481101515614be557fe5b90600052602060002090602091828204019190066101000a81548160ff0219169083151502179055506001601384815481101515614c1f57fe5b90600052602060002090602091828204019190066101000a81548160ff0219169083151502179055507f297f1f08d2ef8c90272f7ee3e1d4272015a96cdff8a252b60547b9e432e723603384604051808373ffffffffffffffffffffffffffffffffffffffff1673ffffffffffffffffffffffffffffffffffffffff1681526020018281526020019250505060405180910390a150919050565b601281815481101515614cc857fe5b9060005260206000209060209182820401919006915054906101000a900460ff1681565b614cf461500d565b600b805480602002602001604051908101604052809291908181526020018280548015614d7657602002820191906000526020600020905b8160009054906101000a900473ffffffffffffffffffffffffffffffffffffffff1673ffffffffffffffffffffffffffffffffffffffff1681526020019060010190808311614d2c575b5050505050905090565b600460019054906101000a900460ff1681565b600b81815481101515614da257fe5b90600052602060002090016000915054906101000a900473ffffffffffffffffffffffffffffffffffffffff1681565b602060405190810160405280600081525090565b61028060405190810160405280600073ffffffffffffffffffffffffffffffffffffffff168152602001600073ffffffffffffffffffffffffffffffffffffffff168152602001600073ffffffffffffffffffffffffffffffffffffffff16815260200160008019168152602001600060ff168152602001600060ff168152602001614e70615021565b815260200160001515815260200160001515815260200160001515815260200160001515815260200160008152602001600081526020016000815260200160001515815260200160001515815260200160001515815260200160001515815260200160008152602001600081525090565b815481835581811511614f0e57600e0281600e028360005260206000209182019101614f0d9190615035565b5b505050565b828054600181600116156101000203166002900490600052602060002090601f016020900481019282601f10614f5457805160ff1916838001178555614f82565b82800160010185558215614f82579182015b82811115614f81578251825591602001919060010190614f66565b5b509050614f8f91906151d1565b5090565b815481835581811511614fba57818360005260206000209182019101614fb991906151d1565b5b505050565b815481835581811511614ff457601f016020900481601f01602090048360005260206000209182019101614ff391906151d1565b5b505050565b602060405190810160405280600081525090565b602060405190810160405280600081525090565b602060405190810160405280600081525090565b6151ce91905b808211156151ca57600080820160006101000a81549073ffffffffffffffffffffffffffffffffffffffff02191690556001820160006101000a81549073ffffffffffffffffffffffffffffffffffffffff02191690556002820160006101000a81549073ffffffffffffffffffffffffffffffffffffffff021916905560038201600090556004820160006101000a81549060ff02191690556004820160016101000a81549060ff02191690556005820160006150f991906151f6565b6006820160006101000a81549060ff02191690556006820160016101000a81549060ff02191690556006820160026101000a81549060ff02191690556006820160036101000a81549060ff021916905560078201600090556009820160009055600a820160009055600b820160006101000a81549060ff0219169055600b820160016101000a81549060ff0219169055600b820160026101000a81549060ff0219169055600b820160036101000a81549060ff0219169055600c820160009055600d82016000905550600e0161503b565b5090565b90565b6151f391905b808211156151ef5760008160009055506001016151d7565b5090565b90565b50805460018160011615610100020316600290046000825580601f1061521c575061523b565b601f01602090049060005260206000209081019061523a91906151d1565b5b505600a165627a7a72305820cd0ae59492ae17267cc710c70d8ade14b8b8449e0dfa721911acc43bb72e586d0029",
  "source": "pragma solidity ^0.4.11;\n\n// Standard contract for a presidential election procedure\n\nimport \"../standardProcedure.sol\";\nimport \"../standardOrgan.sol\";\nimport \"../procedures/voteOnAdminsAndMastersProcedure.sol\";\n\n\n\n\ncontract deployVoteOnAdminsAndMastersProcedure is voteOnAdminsAndMastersProcedure {\n\nfunction deployVoteOnAdminsAndMastersProcedure (address _votersOrganContract, address _membersWithVetoOrganContract, address _finalPromulgatorsOrganContract, uint _quorumSize, uint _votingPeriodDuration, uint _promulgationPeriodDuration, string _name) public {\n\n    votersOrganContract = _votersOrganContract;\n    membersWithVetoOrganContract = _membersWithVetoOrganContract;\n    finalPromulgatorsOrganContract = _finalPromulgatorsOrganContract; \n    linkedOrgans = [votersOrganContract,membersWithVetoOrganContract,finalPromulgatorsOrganContract];\n\n    // Procedure name \n    procedureName = _name;\n\n    quorumSize = _quorumSize;\n    // votingPeriodDuration = 3 minutes;\n    // promulgationPeriodDuration = 3 minutes;\n\n    votingPeriodDuration = _votingPeriodDuration;\n    promulgationPeriodDuration = _promulgationPeriodDuration;\n\n    kelsenVersionNumber = 1;\n\n    }\n}\n",
  "sourcePath": "/Users/henrilieutaud/Documents/Mes documents/97/Workshop/Kelsen/solidity/contracts/deploy/deployVoteOnAdminsAndMastersProcedure.sol",
  "compiler": {
    "name": "solc",
    "version": "0.4.19+commit.c4cbbb05.Emscripten.clang"
  },
  "schemaVersion": "2.0.0",
  "updatedAt": "2018-05-15T09:52:44.263Z"
}