{
  "contractName": "deployVoteOnNormsProcedure",
  "abi": [
    {
      "constant": true,
      "inputs": [
        {
          "name": "_propositionNumber",
          "type": "uint256"
        }
      ],
      "name": "getPropositionStatus",
      "outputs": [
        {
          "name": "_wasCounted",
          "type": "bool"
        },
        {
          "name": "_wasEnded",
          "type": "bool"
        }
      ],
      "payable": false,
      "stateMutability": "view",
      "type": "function"
    },
    {
      "constant": true,
      "inputs": [
        {
          "name": "_userAddress",
          "type": "address"
        }
      ],
      "name": "getPropositionsUsedByUser",
      "outputs": [
        {
          "name": "",
          "type": "uint256[]"
        }
      ],
      "payable": false,
      "stateMutability": "view",
      "type": "function"
    },
    {
      "constant": true,
      "inputs": [
        {
          "name": "_userAddress",
          "type": "address"
        }
      ],
      "name": "getPropositionsPromulgatedByUser",
      "outputs": [
        {
          "name": "",
          "type": "uint256[]"
        }
      ],
      "payable": false,
      "stateMutability": "view",
      "type": "function"
    },
    {
      "constant": true,
      "inputs": [
        {
          "name": "",
          "type": "address"
        },
        {
          "name": "",
          "type": "uint256"
        }
      ],
      "name": "propositionToUser",
      "outputs": [
        {
          "name": "",
          "type": "uint256"
        }
      ],
      "payable": false,
      "stateMutability": "view",
      "type": "function"
    },
    {
      "constant": false,
      "inputs": [
        {
          "name": "_propositionNumber",
          "type": "uint256"
        }
      ],
      "name": "veto",
      "outputs": [],
      "payable": false,
      "stateMutability": "nonpayable",
      "type": "function"
    },
    {
      "constant": true,
      "inputs": [],
      "name": "procedureTypeNumber",
      "outputs": [
        {
          "name": "",
          "type": "int256"
        }
      ],
      "payable": false,
      "stateMutability": "view",
      "type": "function"
    },
    {
      "constant": true,
      "inputs": [],
      "name": "quorumSize",
      "outputs": [
        {
          "name": "",
          "type": "uint256"
        }
      ],
      "payable": false,
      "stateMutability": "view",
      "type": "function"
    },
    {
      "constant": true,
      "inputs": [
        {
          "name": "_propositionNumber",
          "type": "uint256"
        }
      ],
      "name": "getPropositionDetails",
      "outputs": [
        {
          "name": "_addressToAdd",
          "type": "address"
        },
        {
          "name": "_addressToRemove",
          "type": "address"
        },
        {
          "name": "_ipfsHash",
          "type": "bytes32"
        },
        {
          "name": "_hash_function",
          "type": "uint8"
        },
        {
          "name": "_size",
          "type": "uint8"
        },
        {
          "name": "_name",
          "type": "string"
        }
      ],
      "payable": false,
      "stateMutability": "view",
      "type": "function"
    },
    {
      "constant": true,
      "inputs": [
        {
          "name": "_userAddress",
          "type": "address"
        }
      ],
      "name": "getPropositionsVetoedByUser",
      "outputs": [
        {
          "name": "",
          "type": "uint256[]"
        }
      ],
      "payable": false,
      "stateMutability": "view",
      "type": "function"
    },
    {
      "constant": true,
      "inputs": [
        {
          "name": "",
          "type": "address"
        },
        {
          "name": "",
          "type": "uint256"
        }
      ],
      "name": "propositionToPromulgator",
      "outputs": [
        {
          "name": "",
          "type": "uint256"
        }
      ],
      "payable": false,
      "stateMutability": "view",
      "type": "function"
    },
    {
      "constant": true,
      "inputs": [],
      "name": "kelsenVersionNumber",
      "outputs": [
        {
          "name": "",
          "type": "int256"
        }
      ],
      "payable": false,
      "stateMutability": "view",
      "type": "function"
    },
    {
      "constant": true,
      "inputs": [],
      "name": "membersWithVetoOrganContract",
      "outputs": [
        {
          "name": "",
          "type": "address"
        }
      ],
      "payable": false,
      "stateMutability": "view",
      "type": "function"
    },
    {
      "constant": false,
      "inputs": [
        {
          "name": "_contractToAdd",
          "type": "address"
        },
        {
          "name": "_contractToRemove",
          "type": "address"
        },
        {
          "name": "_ipfsHash",
          "type": "bytes32"
        },
        {
          "name": "_hash_function",
          "type": "uint8"
        },
        {
          "name": "_size",
          "type": "uint8"
        },
        {
          "name": "_name",
          "type": "string"
        }
      ],
      "name": "createProposition",
      "outputs": [
        {
          "name": "propositionNumber",
          "type": "uint256"
        }
      ],
      "payable": false,
      "stateMutability": "nonpayable",
      "type": "function"
    },
    {
      "constant": true,
      "inputs": [
        {
          "name": "_propositionNumber",
          "type": "uint256"
        }
      ],
      "name": "getVotedPropositionResults",
      "outputs": [
        {
          "name": "_startDate",
          "type": "uint256"
        },
        {
          "name": "_totalVoteCount",
          "type": "uint256"
        },
        {
          "name": "_voteFor",
          "type": "uint256"
        },
        {
          "name": "_wasVetoed",
          "type": "bool"
        },
        {
          "name": "_wasAccepted",
          "type": "bool"
        }
      ],
      "payable": false,
      "stateMutability": "view",
      "type": "function"
    },
    {
      "constant": true,
      "inputs": [
        {
          "name": "",
          "type": "address"
        },
        {
          "name": "",
          "type": "uint256"
        }
      ],
      "name": "propositionToVoter",
      "outputs": [
        {
          "name": "",
          "type": "uint256"
        }
      ],
      "payable": false,
      "stateMutability": "view",
      "type": "function"
    },
    {
      "constant": true,
      "inputs": [],
      "name": "finalPromulgatorsOrganContract",
      "outputs": [
        {
          "name": "",
          "type": "address"
        }
      ],
      "payable": false,
      "stateMutability": "view",
      "type": "function"
    },
    {
      "constant": true,
      "inputs": [],
      "name": "totalPropositionNumber",
      "outputs": [
        {
          "name": "",
          "type": "uint256"
        }
      ],
      "payable": false,
      "stateMutability": "view",
      "type": "function"
    },
    {
      "constant": true,
      "inputs": [],
      "name": "requiredMajorityNumerator",
      "outputs": [
        {
          "name": "",
          "type": "uint256"
        }
      ],
      "payable": false,
      "stateMutability": "view",
      "type": "function"
    },
    {
      "constant": true,
      "inputs": [],
      "name": "isAnOrgan",
      "outputs": [
        {
          "name": "",
          "type": "bool"
        }
      ],
      "payable": false,
      "stateMutability": "view",
      "type": "function"
    },
    {
      "constant": true,
      "inputs": [
        {
          "name": "propositionNumber",
          "type": "uint256"
        }
      ],
      "name": "haveIVoted",
      "outputs": [
        {
          "name": "IHaveVoted",
          "type": "bool"
        }
      ],
      "payable": false,
      "stateMutability": "view",
      "type": "function"
    },
    {
      "constant": true,
      "inputs": [],
      "name": "votingPeriodDuration",
      "outputs": [
        {
          "name": "",
          "type": "uint256"
        }
      ],
      "payable": false,
      "stateMutability": "view",
      "type": "function"
    },
    {
      "constant": false,
      "inputs": [
        {
          "name": "_propositionNumber",
          "type": "uint256"
        },
        {
          "name": "_acceptProposition",
          "type": "bool"
        }
      ],
      "name": "vote",
      "outputs": [],
      "payable": false,
      "stateMutability": "nonpayable",
      "type": "function"
    },
    {
      "constant": true,
      "inputs": [
        {
          "name": "_userAddress",
          "type": "address"
        }
      ],
      "name": "getPropositionsCreatedByUser",
      "outputs": [
        {
          "name": "",
          "type": "uint256[]"
        }
      ],
      "payable": false,
      "stateMutability": "view",
      "type": "function"
    },
    {
      "constant": true,
      "inputs": [
        {
          "name": "",
          "type": "uint256"
        }
      ],
      "name": "propositionsWaitingPromulgation",
      "outputs": [
        {
          "name": "",
          "type": "bool"
        }
      ],
      "payable": false,
      "stateMutability": "view",
      "type": "function"
    },
    {
      "constant": true,
      "inputs": [],
      "name": "promulgationPeriodDuration",
      "outputs": [
        {
          "name": "",
          "type": "uint256"
        }
      ],
      "payable": false,
      "stateMutability": "view",
      "type": "function"
    },
    {
      "constant": true,
      "inputs": [],
      "name": "votersOrganContract",
      "outputs": [
        {
          "name": "",
          "type": "address"
        }
      ],
      "payable": false,
      "stateMutability": "view",
      "type": "function"
    },
    {
      "constant": true,
      "inputs": [
        {
          "name": "_propositionNumber",
          "type": "uint256"
        }
      ],
      "name": "getPropositionDates",
      "outputs": [
        {
          "name": "_startDate",
          "type": "uint256"
        },
        {
          "name": "_votingPeriodEndDate",
          "type": "uint256"
        },
        {
          "name": "_promulgatorWindowEndDate",
          "type": "uint256"
        }
      ],
      "payable": false,
      "stateMutability": "view",
      "type": "function"
    },
    {
      "constant": false,
      "inputs": [
        {
          "name": "_propositionNumber",
          "type": "uint256"
        },
        {
          "name": "_promulgate",
          "type": "bool"
        }
      ],
      "name": "promulgateProposition",
      "outputs": [],
      "payable": false,
      "stateMutability": "nonpayable",
      "type": "function"
    },
    {
      "constant": true,
      "inputs": [
        {
          "name": "",
          "type": "address"
        },
        {
          "name": "",
          "type": "uint256"
        }
      ],
      "name": "propositionToVetoer",
      "outputs": [
        {
          "name": "",
          "type": "uint256"
        }
      ],
      "payable": false,
      "stateMutability": "view",
      "type": "function"
    },
    {
      "constant": false,
      "inputs": [
        {
          "name": "_propositionNumber",
          "type": "uint256"
        }
      ],
      "name": "endPropositionVote",
      "outputs": [
        {
          "name": "hasBeenAccepted",
          "type": "bool"
        }
      ],
      "payable": false,
      "stateMutability": "nonpayable",
      "type": "function"
    },
    {
      "constant": true,
      "inputs": [
        {
          "name": "",
          "type": "uint256"
        }
      ],
      "name": "propositionsWaitingEndOfVote",
      "outputs": [
        {
          "name": "",
          "type": "bool"
        }
      ],
      "payable": false,
      "stateMutability": "view",
      "type": "function"
    },
    {
      "constant": true,
      "inputs": [],
      "name": "getLinkedOrgans",
      "outputs": [
        {
          "name": "_linkedOrgans",
          "type": "address[]"
        }
      ],
      "payable": false,
      "stateMutability": "view",
      "type": "function"
    },
    {
      "constant": true,
      "inputs": [],
      "name": "isAProcedure",
      "outputs": [
        {
          "name": "",
          "type": "bool"
        }
      ],
      "payable": false,
      "stateMutability": "view",
      "type": "function"
    },
    {
      "constant": true,
      "inputs": [],
      "name": "requiredMajorityDenominator",
      "outputs": [
        {
          "name": "",
          "type": "uint256"
        }
      ],
      "payable": false,
      "stateMutability": "view",
      "type": "function"
    },
    {
      "constant": true,
      "inputs": [
        {
          "name": "",
          "type": "uint256"
        }
      ],
      "name": "linkedOrgans",
      "outputs": [
        {
          "name": "",
          "type": "address"
        }
      ],
      "payable": false,
      "stateMutability": "view",
      "type": "function"
    },
    {
      "constant": true,
      "inputs": [],
      "name": "affectedOrganContract",
      "outputs": [
        {
          "name": "",
          "type": "address"
        }
      ],
      "payable": false,
      "stateMutability": "view",
      "type": "function"
    },
    {
      "inputs": [
        {
          "name": "_affectedOrganContract",
          "type": "address"
        },
        {
          "name": "_votersOrganContract",
          "type": "address"
        },
        {
          "name": "_membersWithVetoOrganContract",
          "type": "address"
        },
        {
          "name": "_finalPromulgatorsOrganContract",
          "type": "address"
        },
        {
          "name": "_quorumSize",
          "type": "uint256"
        },
        {
          "name": "_votingPeriodDuration",
          "type": "uint256"
        },
        {
          "name": "_promulgationPeriodDuration",
          "type": "uint256"
        }
      ],
      "payable": false,
      "stateMutability": "nonpayable",
      "type": "constructor"
    },
    {
      "anonymous": false,
      "inputs": [
        {
          "indexed": false,
          "name": "_from",
          "type": "address"
        },
        {
          "indexed": false,
          "name": "_contractToAdd",
          "type": "address"
        },
        {
          "indexed": false,
          "name": "_contractToRemove",
          "type": "address"
        },
        {
          "indexed": false,
          "name": "_ipfsHash",
          "type": "bytes32"
        },
        {
          "indexed": false,
          "name": "_hash_function",
          "type": "uint8"
        },
        {
          "indexed": false,
          "name": "_size",
          "type": "uint8"
        }
      ],
      "name": "createPropositionEvent",
      "type": "event"
    },
    {
      "anonymous": false,
      "inputs": [
        {
          "indexed": false,
          "name": "_from",
          "type": "address"
        },
        {
          "indexed": false,
          "name": "_propositionNumber",
          "type": "uint256"
        }
      ],
      "name": "voteOnProposition",
      "type": "event"
    },
    {
      "anonymous": false,
      "inputs": [
        {
          "indexed": false,
          "name": "_from",
          "type": "address"
        },
        {
          "indexed": false,
          "name": "_propositionNumber",
          "type": "uint256"
        }
      ],
      "name": "vetoProposition",
      "type": "event"
    },
    {
      "anonymous": false,
      "inputs": [
        {
          "indexed": false,
          "name": "_from",
          "type": "address"
        },
        {
          "indexed": false,
          "name": "_propositionNumber",
          "type": "uint256"
        }
      ],
      "name": "countVotes",
      "type": "event"
    },
    {
      "anonymous": false,
      "inputs": [
        {
          "indexed": false,
          "name": "_from",
          "type": "address"
        },
        {
          "indexed": false,
          "name": "_propositionNumber",
          "type": "uint256"
        },
        {
          "indexed": false,
          "name": "_promulgate",
          "type": "bool"
        }
      ],
      "name": "promulgatePropositionEvent",
      "type": "event"
    }
  ],
  "bytecode": "0x60606040526000600460006101000a81548160ff0219169083151502179055506001600460016101000a81548160ff0219169083151502179055506005805534156200004a57600080fd5b60405160e08062003afc8339810160405280805190602001909190805190602001909190805190602001909190805190602001909190805190602001909190805190602001909190805190602001909190505086600660006101000a81548173ffffffffffffffffffffffffffffffffffffffff021916908373ffffffffffffffffffffffffffffffffffffffff16021790555085600760006101000a81548173ffffffffffffffffffffffffffffffffffffffff021916908373ffffffffffffffffffffffffffffffffffffffff16021790555084600860006101000a81548173ffffffffffffffffffffffffffffffffffffffff021916908373ffffffffffffffffffffffffffffffffffffffff16021790555083600960006101000a81548173ffffffffffffffffffffffffffffffffffffffff021916908373ffffffffffffffffffffffffffffffffffffffff160217905550608060405190810160405280600660009054906101000a900473ffffffffffffffffffffffffffffffffffffffff1673ffffffffffffffffffffffffffffffffffffffff1673ffffffffffffffffffffffffffffffffffffffff168152602001600760009054906101000a900473ffffffffffffffffffffffffffffffffffffffff1673ffffffffffffffffffffffffffffffffffffffff1673ffffffffffffffffffffffffffffffffffffffff168152602001600860009054906101000a900473ffffffffffffffffffffffffffffffffffffffff1673ffffffffffffffffffffffffffffffffffffffff1673ffffffffffffffffffffffffffffffffffffffff168152602001600960009054906101000a900473ffffffffffffffffffffffffffffffffffffffff1673ffffffffffffffffffffffffffffffffffffffff1673ffffffffffffffffffffffffffffffffffffffff16815250600a9060046200030d92919062000338565b5082600d8190555081600b8190555080600c819055506001600081905550505050505050506200040d565b828054828255906000526020600020908101928215620003b4579160200282015b82811115620003b35782518260006101000a81548173ffffffffffffffffffffffffffffffffffffffff021916908373ffffffffffffffffffffffffffffffffffffffff1602179055509160200191906001019062000359565b5b509050620003c39190620003c7565b5090565b6200040a91905b808211156200040657600081816101000a81549073ffffffffffffffffffffffffffffffffffffffff021916905550600101620003ce565b5090565b90565b6136df806200041d6000396000f3006060604052600436106101c2576000357c0100000000000000000000000000000000000000000000000000000000900463ffffffff1680630366af3d146101c757806305cf00571461020d57806307e7a2241461029b5780630b2e34b0146103295780631d28dec71461037f5780632647d7f9146103a25780633068ef4d146103cb57806337443feb146103f45780633c0848ee1461051f5780635332eea1146105ad5780635dbe4d281461060357806364cdd61e1461062c5780636a0ce3aa146106815780636a95d38d1461075557806375ff60c4146107b0578063880d3f54146108065780638f3b07a41461085b5780639b88fba714610884578063a8bef97a146108ad578063ac37af1c146108da578063b5fdb88e14610915578063c9d27afe1461093e578063cb20a2fd1461096c578063cd43eb1f146109fa578063cd87c2b614610a35578063ce784b7714610a5e578063ce88840314610ab3578063d64ff06314610af8578063d858849414610b26578063e09ecb8714610b7c578063e36f6e4e14610bb7578063e570050114610bf2578063e80b30a514610c5c578063eb9141e914610c89578063f2edc61614610cb2578063fe7800e114610d15575b600080fd5b34156101d257600080fd5b6101e86004808035906020019091905050610d6a565b6040518083151515158152602001821515151581526020019250505060405180910390f35b341561021857600080fd5b610244600480803573ffffffffffffffffffffffffffffffffffffffff16906020019091905050610dd2565b6040518080602001828103825283818151815260200191508051906020019060200280838360005b8381101561028757808201518184015260208101905061026c565b505050509050019250505060405180910390f35b34156102a657600080fd5b6102d2600480803573ffffffffffffffffffffffffffffffffffffffff16906020019091905050610e6f565b6040518080602001828103825283818151815260200191508051906020019060200280838360005b838110156103155780820151818401526020810190506102fa565b505050509050019250505060405180910390f35b341561033457600080fd5b610369600480803573ffffffffffffffffffffffffffffffffffffffff16906020019091908035906020019091905050610f0c565b6040518082815260200191505060405180910390f35b341561038a57600080fd5b6103a06004808035906020019091905050610f3d565b005b34156103ad57600080fd5b6103b56111a7565b6040518082815260200191505060405180910390f35b34156103d657600080fd5b6103de6111ad565b6040518082815260200191505060405180910390f35b34156103ff57600080fd5b61041560048080359060200190919050506111b3565b604051808773ffffffffffffffffffffffffffffffffffffffff1673ffffffffffffffffffffffffffffffffffffffff1681526020018673ffffffffffffffffffffffffffffffffffffffff1673ffffffffffffffffffffffffffffffffffffffff16815260200185600019166000191681526020018460ff1660ff1681526020018360ff1660ff16815260200180602001828103825283818151815260200191508051906020019080838360005b838110156104df5780820151818401526020810190506104c4565b50505050905090810190601f16801561050c5780820380516001836020036101000a031916815260200191505b5097505050505050505060405180910390f35b341561052a57600080fd5b610556600480803573ffffffffffffffffffffffffffffffffffffffff16906020019091905050611393565b6040518080602001828103825283818151815260200191508051906020019060200280838360005b8381101561059957808201518184015260208101905061057e565b505050509050019250505060405180910390f35b34156105b857600080fd5b6105ed600480803573ffffffffffffffffffffffffffffffffffffffff16906020019091908035906020019091905050611430565b6040518082815260200191505060405180910390f35b341561060e57600080fd5b610616611461565b6040518082815260200191505060405180910390f35b341561063757600080fd5b61063f611467565b604051808273ffffffffffffffffffffffffffffffffffffffff1673ffffffffffffffffffffffffffffffffffffffff16815260200191505060405180910390f35b341561068c57600080fd5b61073f600480803573ffffffffffffffffffffffffffffffffffffffff1690602001909190803573ffffffffffffffffffffffffffffffffffffffff169060200190919080356000191690602001909190803560ff1690602001909190803560ff1690602001909190803590602001908201803590602001908080601f0160208091040260200160405190810160405280939291908181526020018383808284378201915050505050509190505061148d565b6040518082815260200191505060405180910390f35b341561076057600080fd5b6107766004808035906020019091905050611aa2565b6040518086815260200185815260200184815260200183151515158152602001821515151581526020019550505050505060405180910390f35b34156107bb57600080fd5b6107f0600480803573ffffffffffffffffffffffffffffffffffffffff16906020019091908035906020019091905050611bb5565b6040518082815260200191505060405180910390f35b341561081157600080fd5b610819611be6565b604051808273ffffffffffffffffffffffffffffffffffffffff1673ffffffffffffffffffffffffffffffffffffffff16815260200191505060405180910390f35b341561086657600080fd5b61086e611c0c565b6040518082815260200191505060405180910390f35b341561088f57600080fd5b610897611c12565b6040518082815260200191505060405180910390f35b34156108b857600080fd5b6108c0611c18565b604051808215151515815260200191505060405180910390f35b34156108e557600080fd5b6108fb6004808035906020019091905050611c2b565b604051808215151515815260200191505060405180910390f35b341561092057600080fd5b610928611c9f565b6040518082815260200191505060405180910390f35b341561094957600080fd5b61096a60048080359060200190919080351515906020019091905050611ca5565b005b341561097757600080fd5b6109a3600480803573ffffffffffffffffffffffffffffffffffffffff16906020019091905050612030565b6040518080602001828103825283818151815260200191508051906020019060200280838360005b838110156109e65780820151818401526020810190506109cb565b505050509050019250505060405180910390f35b3415610a0557600080fd5b610a1b60048080359060200190919050506120cd565b604051808215151515815260200191505060405180910390f35b3415610a4057600080fd5b610a48612100565b6040518082815260200191505060405180910390f35b3415610a6957600080fd5b610a71612106565b604051808273ffffffffffffffffffffffffffffffffffffffff1673ffffffffffffffffffffffffffffffffffffffff16815260200191505060405180910390f35b3415610abe57600080fd5b610ad4600480803590602001909190505061212c565b60405180848152602001838152602001828152602001935050505060405180910390f35b3415610b0357600080fd5b610b24600480803590602001909190803515159060200190919050506121a5565b005b3415610b3157600080fd5b610b66600480803573ffffffffffffffffffffffffffffffffffffffff16906020019091908035906020019091905050612de3565b6040518082815260200191505060405180910390f35b3415610b8757600080fd5b610b9d6004808035906020019091905050612e14565b604051808215151515815260200191505060405180910390f35b3415610bc257600080fd5b610bd860048080359060200190919050506131c9565b604051808215151515815260200191505060405180910390f35b3415610bfd57600080fd5b610c056131fc565b6040518080602001828103825283818151815260200191508051906020019060200280838360005b83811015610c48578082015181840152602081019050610c2d565b505050509050019250505060405180910390f35b3415610c6757600080fd5b610c6f613290565b604051808215151515815260200191505060405180910390f35b3415610c9457600080fd5b610c9c6132a3565b6040518082815260200191505060405180910390f35b3415610cbd57600080fd5b610cd360048080359060200190919050506132a9565b604051808273ffffffffffffffffffffffffffffffffffffffff1673ffffffffffffffffffffffffffffffffffffffff16815260200191505060405180910390f35b3415610d2057600080fd5b610d286132e8565b604051808273ffffffffffffffffffffffffffffffffffffffff1673ffffffffffffffffffffffffffffffffffffffff16815260200191505060405180910390f35b600080601183815481101515610d7c57fe5b90600052602060002090600b020160080160019054906101000a900460ff16601184815481101515610daa57fe5b90600052602060002090600b020160080160039054906101000a900460ff1691509150915091565b610dda61330e565b601560008373ffffffffffffffffffffffffffffffffffffffff1673ffffffffffffffffffffffffffffffffffffffff168152602001908152602001600020805480602002602001604051908101604052809291908181526020018280548015610e6357602002820191906000526020600020905b815481526020019060010190808311610e4f575b50505050509050919050565b610e7761330e565b601760008373ffffffffffffffffffffffffffffffffffffffff1673ffffffffffffffffffffffffffffffffffffffff168152602001908152602001600020805480602002602001604051908101604052809291908181526020018280548015610f0057602002820191906000526020600020905b815481526020019060010190808311610eec575b50505050509050919050565b601460205281600052604060002081815481101515610f2757fe5b9060005260206000209001600091509150505481565b6000600860009054906101000a900473ffffffffffffffffffffffffffffffffffffffff1690508073ffffffffffffffffffffffffffffffffffffffff1663d323a4f8336000604051602001526040518263ffffffff167c0100000000000000000000000000000000000000000000000000000000028152600401808273ffffffffffffffffffffffffffffffffffffffff1673ffffffffffffffffffffffffffffffffffffffff168152602001915050602060405180830381600087803b151561100757600080fd5b6102c65a03f1151561101857600080fd5b50505060405180519050151561102d57600080fd5b6000905060118281548110151561104057fe5b90600052602060002090600b020160080160019054906101000a900460ff1615151561106b57600080fd5b4260118381548110151561107b57fe5b90600052602060002090600b02016007015411151561109957600080fd5b60016011838154811015156110aa57fe5b90600052602060002090600b020160080160006101000a81548160ff021916908315150217905550601660003373ffffffffffffffffffffffffffffffffffffffff1673ffffffffffffffffffffffffffffffffffffffff16815260200190815260200160002080548060010182816111239190613322565b9160005260206000209001600084909190915055507f62901d9c2f788a5c877cf5a2659a041eedf9a980c6dd3ed22a4878bcc228619b3383604051808373ffffffffffffffffffffffffffffffffffffffff1673ffffffffffffffffffffffffffffffffffffffff1681526020018281526020019250505060405180910390a15050565b60055481565b600d5481565b60008060008060006111c361334e565b6011878154811015156111d257fe5b90600052602060002090600b020160000160009054906101000a900473ffffffffffffffffffffffffffffffffffffffff1660118881548110151561121357fe5b90600052602060002090600b020160010160009054906101000a900473ffffffffffffffffffffffffffffffffffffffff1660118981548110151561125457fe5b90600052602060002090600b02016002015460118a81548110151561127557fe5b90600052602060002090600b020160030160009054906101000a900460ff1660118b8154811015156112a357fe5b90600052602060002090600b020160030160019054906101000a900460ff1660118c8154811015156112d157fe5b90600052602060002090600b0201600401808054600181600116156101000203166002900480601f0160208091040260200160405190810160405280929190818152602001828054600181600116156101000203166002900480156113775780601f1061134c57610100808354040283529160200191611377565b820191906000526020600020905b81548152906001019060200180831161135a57829003601f168201915b5050505050905095509550955095509550955091939550919395565b61139b61330e565b601660008373ffffffffffffffffffffffffffffffffffffffff1673ffffffffffffffffffffffffffffffffffffffff16815260200190815260200160002080548060200260200160405190810160405280929190818152602001828054801561142457602002820191906000526020600020905b815481526020019060010190808311611410575b50505050509050919050565b60176020528160005260406000208181548110151561144b57fe5b9060005260206000209001600091509150505481565b60005481565b600860009054906101000a900473ffffffffffffffffffffffffffffffffffffffff1681565b600080611498613362565b600760009054906101000a900473ffffffffffffffffffffffffffffffffffffffff1691508173ffffffffffffffffffffffffffffffffffffffff1663d323a4f8336000604051602001526040518263ffffffff167c0100000000000000000000000000000000000000000000000000000000028152600401808273ffffffffffffffffffffffffffffffffffffffff1673ffffffffffffffffffffffffffffffffffffffff168152602001915050602060405180830381600087803b151561156057600080fd5b6102c65a03f1151561157157600080fd5b50505060405180519050151561158657600080fd5b6000915088816000019073ffffffffffffffffffffffffffffffffffffffff16908173ffffffffffffffffffffffffffffffffffffffff168152505087816020019073ffffffffffffffffffffffffffffffffffffffff16908173ffffffffffffffffffffffffffffffffffffffff1681525050868160400190600019169081600019168152505085816060019060ff16908160ff168152505084816080019060ff16908160ff1681525050838160a00181905250428160c0018181525050600b5442018160e00181815250506000816101000190151590811515815250506000816101600190151590811515815250506000816101200190151590811515815250506000816101400190151590811515815250506000816101a0018181525050600081610180018181525050601180548060010182816116c79190613415565b91600052602060002090600b0201600083909190915060008201518160000160006101000a81548173ffffffffffffffffffffffffffffffffffffffff021916908373ffffffffffffffffffffffffffffffffffffffff16021790555060208201518160010160006101000a81548173ffffffffffffffffffffffffffffffffffffffff021916908373ffffffffffffffffffffffffffffffffffffffff1602179055506040820151816002019060001916905560608201518160030160006101000a81548160ff021916908360ff16021790555060808201518160030160016101000a81548160ff021916908360ff16021790555060a08201518160040190805190602001906117d9929190613447565b5060c0820151816006015560e082015181600701556101008201518160080160006101000a81548160ff0219169083151502179055506101208201518160080160016101000a81548160ff0219169083151502179055506101408201518160080160026101000a81548160ff0219169083151502179055506101608201518160080160036101000a81548160ff02191690831515021790555061018082015181600901556101a082015181600a0155505050611893613362565b905060016011805490500392506001600e60008282540192505081905550601460003373ffffffffffffffffffffffffffffffffffffffff1673ffffffffffffffffffffffffffffffffffffffff16815260200190815260200160002080548060010182816119029190613322565b9160005260206000209001600085909190915055506012805480600101828161192b91906134c7565b91600052602060002090602091828204019190066001909190916101000a81548160ff021916908315150217905550506013805480600101828161196f91906134c7565b91600052602060002090602091828204019190066000909190916101000a81548160ff021916908315150217905550507fcbae1a68d02d2d9470bb1902dd80b406384bbcba468813051691b7ae8af0baa9338a8a8a8a8a604051808773ffffffffffffffffffffffffffffffffffffffff1673ffffffffffffffffffffffffffffffffffffffff1681526020018673ffffffffffffffffffffffffffffffffffffffff1673ffffffffffffffffffffffffffffffffffffffff1681526020018573ffffffffffffffffffffffffffffffffffffffff1673ffffffffffffffffffffffffffffffffffffffff16815260200184600019166000191681526020018360ff1660ff1681526020018260ff1660ff168152602001965050505050505060405180910390a150509695505050505050565b6000806000806000601186815481101515611ab957fe5b90600052602060002090600b020160080160019054906101000a900460ff161515611ae357600080fd5b601186815481101515611af257fe5b90600052602060002090600b020160060154601187815481101515611b1357fe5b90600052602060002090600b0201600a0154601188815481101515611b3457fe5b90600052602060002090600b020160090154601189815481101515611b5557fe5b90600052602060002090600b020160080160009054906101000a900460ff1660118a815481101515611b8357fe5b90600052602060002090600b020160080160029054906101000a900460ff169450945094509450945091939590929450565b601560205281600052604060002081815481101515611bd057fe5b9060005260206000209001600091509150505481565b600960009054906101000a900473ffffffffffffffffffffffffffffffffffffffff1681565b600e5481565b600f5481565b600460009054906101000a900460ff1681565b6000601182815481101515611c3c57fe5b90600052602060002090600b020160050160003373ffffffffffffffffffffffffffffffffffffffff1673ffffffffffffffffffffffffffffffffffffffff16815260200190815260200160002060009054906101000a900460ff169050919050565b600b5481565b6000600760009054906101000a900473ffffffffffffffffffffffffffffffffffffffff1690508073ffffffffffffffffffffffffffffffffffffffff1663d323a4f8336000604051602001526040518263ffffffff167c0100000000000000000000000000000000000000000000000000000000028152600401808273ffffffffffffffffffffffffffffffffffffffff1673ffffffffffffffffffffffffffffffffffffffff168152602001915050602060405180830381600087803b1515611d6f57600080fd5b6102c65a03f11515611d8057600080fd5b505050604051805190501515611d9557600080fd5b60009050601183815481101515611da857fe5b90600052602060002090600b020160050160003373ffffffffffffffffffffffffffffffffffffffff1673ffffffffffffffffffffffffffffffffffffffff16815260200190815260200160002060009054906101000a900460ff16151515611e1057600080fd5b601183815481101515611e1f57fe5b90600052602060002090600b020160080160019054906101000a900460ff16151515611e4a57600080fd5b42601184815481101515611e5a57fe5b90600052602060002090600b020160070154111515611e7857600080fd5b600115158215151415611eb5576001601184815481101515611e9657fe5b90600052602060002090600b0201600901600082825401925050819055505b6001601184815481101515611ec657fe5b90600052602060002090600b020160050160003373ffffffffffffffffffffffffffffffffffffffff1673ffffffffffffffffffffffffffffffffffffffff16815260200190815260200160002060006101000a81548160ff0219169083151502179055506001601184815481101515611f3c57fe5b90600052602060002090600b0201600a0160008282540192505081905550601560003373ffffffffffffffffffffffffffffffffffffffff1673ffffffffffffffffffffffffffffffffffffffff1681526020019081526020016000208054806001018281611fab9190613322565b9160005260206000209001600085909190915055507fd1faddd599b0d6b58c83de71d7ff5395895b5891894dcd37f2482f33b2a1c43d3384604051808373ffffffffffffffffffffffffffffffffffffffff1673ffffffffffffffffffffffffffffffffffffffff1681526020018281526020019250505060405180910390a1505050565b61203861330e565b601460008373ffffffffffffffffffffffffffffffffffffffff1673ffffffffffffffffffffffffffffffffffffffff1681526020019081526020016000208054806020026020016040519081016040528092919081815260200182805480156120c157602002820191906000526020600020905b8154815260200190600101908083116120ad575b50505050509050919050565b6013818154811015156120dc57fe5b9060005260206000209060209182820401919006915054906101000a900460ff1681565b600c5481565b600760009054906101000a900473ffffffffffffffffffffffffffffffffffffffff1681565b600080600060118481548110151561214057fe5b90600052602060002090600b02016006015460118581548110151561216157fe5b90600052602060002090600b020160070154600c5460118781548110151561218557fe5b90600052602060002090600b020160070154019250925092509193909250565b6000806011848154811015156121b757fe5b90600052602060002090600b020160080160039054906101000a900460ff161515156121e257600080fd5b6011848154811015156121f157fe5b90600052602060002090600b020160080160019054906101000a900460ff16151561221b57600080fd5b600c5460118581548110151561222d57fe5b90600052602060002090600b0201600701540142101561233e57600960009054906101000a900473ffffffffffffffffffffffffffffffffffffffff1691508173ffffffffffffffffffffffffffffffffffffffff1663d323a4f8336000604051602001526040518263ffffffff167c0100000000000000000000000000000000000000000000000000000000028152600401808273ffffffffffffffffffffffffffffffffffffffff1673ffffffffffffffffffffffffffffffffffffffff168152602001915050602060405180830381600087803b151561230f57600080fd5b6102c65a03f1151561232057600080fd5b50505060405180519050151561233557600080fd5b6000915061234b565b82151561234a57600080fd5b5b60118481548110151561235a57fe5b90600052602060002090600b020160080160029054906101000a900460ff16151561238457600080fd5b8215806124495750600060118581548110151561239d57fe5b90600052602060002090600b020160000160009054906101000a900473ffffffffffffffffffffffffffffffffffffffff1673ffffffffffffffffffffffffffffffffffffffff16148015612448575060006011858154811015156123fe57fe5b90600052602060002090600b020160010160009054906101000a900473ffffffffffffffffffffffffffffffffffffffff1673ffffffffffffffffffffffffffffffffffffffff16145b5b1561248c57600160118581548110151561245f57fe5b90600052602060002090600b020160080160036101000a81548160ff021916908315150217905550612c8d565b600660009054906101000a900473ffffffffffffffffffffffffffffffffffffffff16905060006011858154811015156124c257fe5b90600052602060002090600b020160000160009054906101000a900473ffffffffffffffffffffffffffffffffffffffff1673ffffffffffffffffffffffffffffffffffffffff16141515612b0c57600060118581548110151561252257fe5b90600052602060002090600b020160010160009054906101000a900473ffffffffffffffffffffffffffffffffffffffff1673ffffffffffffffffffffffffffffffffffffffff161415156128b8578073ffffffffffffffffffffffffffffffffffffffff1663cd26b87b8273ffffffffffffffffffffffffffffffffffffffff16635549ea516011888154811015156125b857fe5b90600052602060002090600b020160010160009054906101000a900473ffffffffffffffffffffffffffffffffffffffff166000604051602001526040518263ffffffff167c0100000000000000000000000000000000000000000000000000000000028152600401808273ffffffffffffffffffffffffffffffffffffffff1673ffffffffffffffffffffffffffffffffffffffff168152602001915050602060405180830381600087803b151561267057600080fd5b6102c65a03f1151561268157600080fd5b5050506040518051905060118781548110151561269a57fe5b90600052602060002090600b020160000160009054906101000a900473ffffffffffffffffffffffffffffffffffffffff166011888154811015156126db57fe5b90600052602060002090600b02016004016011898154811015156126fb57fe5b90600052602060002090600b02016002015460118a81548110151561271c57fe5b90600052602060002090600b020160030160009054906101000a900460ff1660118b81548110151561274a57fe5b90600052602060002090600b020160030160019054906101000a900460ff166040518763ffffffff167c0100000000000000000000000000000000000000000000000000000000028152600401808781526020018673ffffffffffffffffffffffffffffffffffffffff1673ffffffffffffffffffffffffffffffffffffffff1681526020018060200185600019166000191681526020018460ff1660ff1681526020018360ff1660ff16815260200182810382528681815460018160011615610100020316600290048152602001915080546001816001161561010002031660029004801561287b5780601f106128505761010080835404028352916020019161287b565b820191906000526020600020905b81548152906001019060200180831161285e57829003601f168201915b5050975050505050505050600060405180830381600087803b151561289f57600080fd5b6102c65a03f115156128b057600080fd5b505050612b07565b8073ffffffffffffffffffffffffffffffffffffffff1663696c52196011868154811015156128e357fe5b90600052602060002090600b020160000160009054906101000a900473ffffffffffffffffffffffffffffffffffffffff1660118781548110151561292457fe5b90600052602060002090600b020160040160118881548110151561294457fe5b90600052602060002090600b02016002015460118981548110151561296557fe5b90600052602060002090600b020160030160009054906101000a900460ff1660118a81548110151561299357fe5b90600052602060002090600b020160030160019054906101000a900460ff166000604051602001526040518663ffffffff167c0100000000000000000000000000000000000000000000000000000000028152600401808673ffffffffffffffffffffffffffffffffffffffff1673ffffffffffffffffffffffffffffffffffffffff1681526020018060200185600019166000191681526020018460ff1660ff1681526020018360ff1660ff168152602001828103825286818154600181600116156101000203166002900481526020019150805460018160011615610100020316600290048015612ac75780601f10612a9c57610100808354040283529160200191612ac7565b820191906000526020600020905b815481529060010190602001808311612aaa57829003601f168201915b50509650505050505050602060405180830381600087803b1515612aea57600080fd5b6102c65a03f11515612afb57600080fd5b50505060405180519050505b612c8c565b8073ffffffffffffffffffffffffffffffffffffffff16630e9defff8273ffffffffffffffffffffffffffffffffffffffff16635549ea51601188815481101515612b5357fe5b90600052602060002090600b020160010160009054906101000a900473ffffffffffffffffffffffffffffffffffffffff166000604051602001526040518263ffffffff167c0100000000000000000000000000000000000000000000000000000000028152600401808273ffffffffffffffffffffffffffffffffffffffff1673ffffffffffffffffffffffffffffffffffffffff168152602001915050602060405180830381600087803b1515612c0b57600080fd5b6102c65a03f11515612c1c57600080fd5b505050604051805190506040518263ffffffff167c010000000000000000000000000000000000000000000000000000000002815260040180828152602001915050600060405180830381600087803b1515612c7757600080fd5b6102c65a03f11515612c8857600080fd5b5050505b5b6001601185815481101515612c9e57fe5b90600052602060002090600b020160080160036101000a81548160ff0219169083151502179055506000601385815481101515612cd757fe5b90600052602060002090602091828204019190066101000a81548160ff021916908315150217905550601760003373ffffffffffffffffffffffffffffffffffffffff1673ffffffffffffffffffffffffffffffffffffffff1681526020019081526020016000208054806001018281612d519190613322565b9160005260206000209001600086909190915055507fed7c73834db4ae22add7f637175d8a32a1dddae4c154ccd25195b77df4c8d18d338585604051808473ffffffffffffffffffffffffffffffffffffffff1673ffffffffffffffffffffffffffffffffffffffff16815260200183815260200182151515158152602001935050505060405180910390a150505050565b601660205281600052604060002081815481101515612dfe57fe5b9060005260206000209001600091509150505481565b600080601183815481101515612e2657fe5b90600052602060002090600b020160080160019054906101000a900460ff16151515612e5157600080fd5b42601184815481101515612e6157fe5b90600052602060002090600b020160070154101515612e7f57600080fd5b600760009054906101000a900473ffffffffffffffffffffffffffffffffffffffff169050601183815481101515612eb357fe5b90600052602060002090600b020160080160009054906101000a900460ff1615612f1957600091506001601184815481101515612eec57fe5b90600052602060002090600b020160080160036101000a81548160ff021916908315150217905550613073565b8073ffffffffffffffffffffffffffffffffffffffff1663234d34de6000604051602001526040518163ffffffff167c0100000000000000000000000000000000000000000000000000000000028152600401602060405180830381600087803b1515612f8557600080fd5b6102c65a03f11515612f9657600080fd5b50505060405180519050600d54026064601185815481101515612fb557fe5b90600052602060002090600b0201600a015402101580156130265750601183815481101515612fe057fe5b90600052602060002090600b0201600a0154600f5460105460118681548110151561300757fe5b90600052602060002090600b0201600901540281151561302357fe5b04115b156130345760019150613072565b60009150600160118481548110151561304957fe5b90600052602060002090600b020160080160036101000a81548160ff0219169083151502179055505b5b600160118481548110151561308457fe5b90600052602060002090600b020160080160016101000a81548160ff021916908315150217905550816011848154811015156130bc57fe5b90600052602060002090600b020160080160026101000a81548160ff02191690831515021790555060006012848154811015156130f557fe5b90600052602060002090602091828204019190066101000a81548160ff021916908315150217905550600160138481548110151561312f57fe5b90600052602060002090602091828204019190066101000a81548160ff0219169083151502179055507f297f1f08d2ef8c90272f7ee3e1d4272015a96cdff8a252b60547b9e432e723603384604051808373ffffffffffffffffffffffffffffffffffffffff1673ffffffffffffffffffffffffffffffffffffffff1681526020018281526020019250505060405180910390a150919050565b6012818154811015156131d857fe5b9060005260206000209060209182820401919006915054906101000a900460ff1681565b613204613501565b600a80548060200260200160405190810160405280929190818152602001828054801561328657602002820191906000526020600020905b8160009054906101000a900473ffffffffffffffffffffffffffffffffffffffff1673ffffffffffffffffffffffffffffffffffffffff168152602001906001019080831161323c575b5050505050905090565b600460019054906101000a900460ff1681565b60105481565b600a818154811015156132b857fe5b90600052602060002090016000915054906101000a900473ffffffffffffffffffffffffffffffffffffffff1681565b600660009054906101000a900473ffffffffffffffffffffffffffffffffffffffff1681565b602060405190810160405280600081525090565b815481835581811511613349578183600052602060002091820191016133489190613515565b5b505050565b602060405190810160405280600081525090565b6101c060405190810160405280600073ffffffffffffffffffffffffffffffffffffffff168152602001600073ffffffffffffffffffffffffffffffffffffffff16815260200160008019168152602001600060ff168152602001600060ff1681526020016133cf61353a565b8152602001600081526020016000815260200160001515815260200160001515815260200160001515815260200160001515815260200160008152602001600081525090565b81548183558181151161344257600b0281600b028360005260206000209182019101613441919061354e565b5b505050565b828054600181600116156101000203166002900490600052602060002090601f016020900481019282601f1061348857805160ff19168380011785556134b6565b828001600101855582156134b6579182015b828111156134b557825182559160200191906001019061349a565b5b5090506134c39190613515565b5090565b8154818355818115116134fc57601f016020900481601f016020900483600052602060002091820191016134fb9190613515565b5b505050565b602060405190810160405280600081525090565b61353791905b8082111561353357600081600090555060010161351b565b5090565b90565b602060405190810160405280600081525090565b61366891905b8082111561366457600080820160006101000a81549073ffffffffffffffffffffffffffffffffffffffff02191690556001820160006101000a81549073ffffffffffffffffffffffffffffffffffffffff021916905560028201600090556003820160006101000a81549060ff02191690556003820160016101000a81549060ff02191690556004820160006135eb919061366b565b600682016000905560078201600090556008820160006101000a81549060ff02191690556008820160016101000a81549060ff02191690556008820160026101000a81549060ff02191690556008820160036101000a81549060ff02191690556009820160009055600a82016000905550600b01613554565b5090565b90565b50805460018160011615610100020316600290046000825580601f1061369157506136b0565b601f0160209004906000526020600020908101906136af9190613515565b5b505600a165627a7a7230582049bc07a9a2335c28a39d4428a3448fee0de32454aca428b593401a58e97dc13d0029",
  "source": "pragma solidity ^0.4.11;\n\n// Standard contract for a presidential election procedure\n\nimport \"../standardProcedure.sol\";\nimport \"../standardOrgan.sol\";\nimport \"../procedures/voteOnNormsProcedure.sol\";\n\n\n\n\ncontract deployVoteOnNormsProcedure is voteOnNormsProcedure {\n\nfunction deployVoteOnNormsProcedure (address _affectedOrganContract, address _votersOrganContract, address _membersWithVetoOrganContract, address _finalPromulgatorsOrganContract, uint _quorumSize, uint _votingPeriodDuration, uint _promulgationPeriodDuration) public {\n\n    affectedOrganContract = _affectedOrganContract;\n    votersOrganContract = _votersOrganContract;\n    membersWithVetoOrganContract = _membersWithVetoOrganContract;\n    finalPromulgatorsOrganContract = _finalPromulgatorsOrganContract; \n    linkedOrgans = [affectedOrganContract,votersOrganContract,membersWithVetoOrganContract,finalPromulgatorsOrganContract];\n\n\n    quorumSize = _quorumSize;\n    // votingPeriodDuration = 3 minutes;\n    // promulgationPeriodDuration = 3 minutes;\n\n    votingPeriodDuration = _votingPeriodDuration;\n    promulgationPeriodDuration = _promulgationPeriodDuration;\n\n\n    kelsenVersionNumber = 1;\n\n    }\n}\n",
  "sourcePath": "/Users/henrilieutaud/Documents/Mes documents/97/Workshop/Kelsen/solidity/contracts/deploy/deployVoteOnNormsProcedure.sol",
  "compiler": {
    "name": "solc",
    "version": "0.4.19+commit.c4cbbb05.Emscripten.clang"
  },
  "schemaVersion": "2.0.0",
  "updatedAt": "2018-05-14T16:41:34.547Z"
}