{
  "contractName": "deployVoteOnExpenseProcedure",
  "abi": [
    {
      "constant": true,
      "inputs": [
        {
          "name": "_propositionNumber",
          "type": "uint256"
        }
      ],
      "name": "getPropositionStatus",
      "outputs": [
        {
          "name": "_wasCounted",
          "type": "bool"
        },
        {
          "name": "_wasEnded",
          "type": "bool"
        }
      ],
      "payable": false,
      "stateMutability": "view",
      "type": "function"
    },
    {
      "constant": true,
      "inputs": [
        {
          "name": "_userAddress",
          "type": "address"
        }
      ],
      "name": "getPropositionsUsedByUser",
      "outputs": [
        {
          "name": "",
          "type": "uint256[]"
        }
      ],
      "payable": false,
      "stateMutability": "view",
      "type": "function"
    },
    {
      "constant": true,
      "inputs": [
        {
          "name": "_userAddress",
          "type": "address"
        }
      ],
      "name": "getPropositionsPromulgatedByUser",
      "outputs": [
        {
          "name": "",
          "type": "uint256[]"
        }
      ],
      "payable": false,
      "stateMutability": "view",
      "type": "function"
    },
    {
      "constant": true,
      "inputs": [
        {
          "name": "",
          "type": "address"
        },
        {
          "name": "",
          "type": "uint256"
        }
      ],
      "name": "propositionToUser",
      "outputs": [
        {
          "name": "",
          "type": "uint256"
        }
      ],
      "payable": false,
      "stateMutability": "view",
      "type": "function"
    },
    {
      "constant": false,
      "inputs": [
        {
          "name": "_propositionNumber",
          "type": "uint256"
        }
      ],
      "name": "veto",
      "outputs": [],
      "payable": false,
      "stateMutability": "nonpayable",
      "type": "function"
    },
    {
      "constant": false,
      "inputs": [
        {
          "name": "_payoutAddress",
          "type": "address"
        },
        {
          "name": "_amount",
          "type": "uint256"
        },
        {
          "name": "_ipfsHash",
          "type": "bytes32"
        },
        {
          "name": "_hash_function",
          "type": "uint8"
        },
        {
          "name": "_size",
          "type": "uint8"
        },
        {
          "name": "_name",
          "type": "string"
        }
      ],
      "name": "createProposition",
      "outputs": [
        {
          "name": "propositionNumber",
          "type": "uint256"
        }
      ],
      "payable": false,
      "stateMutability": "nonpayable",
      "type": "function"
    },
    {
      "constant": true,
      "inputs": [],
      "name": "procedureTypeNumber",
      "outputs": [
        {
          "name": "",
          "type": "int256"
        }
      ],
      "payable": false,
      "stateMutability": "view",
      "type": "function"
    },
    {
      "constant": true,
      "inputs": [],
      "name": "quorumSize",
      "outputs": [
        {
          "name": "",
          "type": "uint256"
        }
      ],
      "payable": false,
      "stateMutability": "view",
      "type": "function"
    },
    {
      "constant": true,
      "inputs": [
        {
          "name": "_propositionNumber",
          "type": "uint256"
        }
      ],
      "name": "getPropositionDetails",
      "outputs": [
        {
          "name": "_payoutAddress",
          "type": "address"
        },
        {
          "name": "_amount",
          "type": "uint256"
        },
        {
          "name": "_ipfsHash",
          "type": "bytes32"
        },
        {
          "name": "_hash_function",
          "type": "uint8"
        },
        {
          "name": "_size",
          "type": "uint8"
        },
        {
          "name": "_name",
          "type": "string"
        }
      ],
      "payable": false,
      "stateMutability": "view",
      "type": "function"
    },
    {
      "constant": true,
      "inputs": [
        {
          "name": "_userAddress",
          "type": "address"
        }
      ],
      "name": "getPropositionsVetoedByUser",
      "outputs": [
        {
          "name": "",
          "type": "uint256[]"
        }
      ],
      "payable": false,
      "stateMutability": "view",
      "type": "function"
    },
    {
      "constant": true,
      "inputs": [
        {
          "name": "",
          "type": "address"
        },
        {
          "name": "",
          "type": "uint256"
        }
      ],
      "name": "propositionToPromulgator",
      "outputs": [
        {
          "name": "",
          "type": "uint256"
        }
      ],
      "payable": false,
      "stateMutability": "view",
      "type": "function"
    },
    {
      "constant": true,
      "inputs": [],
      "name": "kelsenVersionNumber",
      "outputs": [
        {
          "name": "",
          "type": "int256"
        }
      ],
      "payable": false,
      "stateMutability": "view",
      "type": "function"
    },
    {
      "constant": true,
      "inputs": [],
      "name": "membersWithVetoOrganContract",
      "outputs": [
        {
          "name": "",
          "type": "address"
        }
      ],
      "payable": false,
      "stateMutability": "view",
      "type": "function"
    },
    {
      "constant": true,
      "inputs": [
        {
          "name": "_propositionNumber",
          "type": "uint256"
        }
      ],
      "name": "getVotedPropositionResults",
      "outputs": [
        {
          "name": "_startDate",
          "type": "uint256"
        },
        {
          "name": "_totalVoteCount",
          "type": "uint256"
        },
        {
          "name": "_voteFor",
          "type": "uint256"
        },
        {
          "name": "_wasVetoed",
          "type": "bool"
        },
        {
          "name": "_wasAccepted",
          "type": "bool"
        }
      ],
      "payable": false,
      "stateMutability": "view",
      "type": "function"
    },
    {
      "constant": true,
      "inputs": [
        {
          "name": "",
          "type": "address"
        },
        {
          "name": "",
          "type": "uint256"
        }
      ],
      "name": "propositionToVoter",
      "outputs": [
        {
          "name": "",
          "type": "uint256"
        }
      ],
      "payable": false,
      "stateMutability": "view",
      "type": "function"
    },
    {
      "constant": true,
      "inputs": [],
      "name": "finalPromulgatorsOrganContract",
      "outputs": [
        {
          "name": "",
          "type": "address"
        }
      ],
      "payable": false,
      "stateMutability": "view",
      "type": "function"
    },
    {
      "constant": true,
      "inputs": [],
      "name": "totalPropositionNumber",
      "outputs": [
        {
          "name": "",
          "type": "uint256"
        }
      ],
      "payable": false,
      "stateMutability": "view",
      "type": "function"
    },
    {
      "constant": true,
      "inputs": [],
      "name": "requiredMajorityNumerator",
      "outputs": [
        {
          "name": "",
          "type": "uint256"
        }
      ],
      "payable": false,
      "stateMutability": "view",
      "type": "function"
    },
    {
      "constant": true,
      "inputs": [],
      "name": "isAnOrgan",
      "outputs": [
        {
          "name": "",
          "type": "bool"
        }
      ],
      "payable": false,
      "stateMutability": "view",
      "type": "function"
    },
    {
      "constant": true,
      "inputs": [
        {
          "name": "propositionNumber",
          "type": "uint256"
        }
      ],
      "name": "haveIVoted",
      "outputs": [
        {
          "name": "IHaveVoted",
          "type": "bool"
        }
      ],
      "payable": false,
      "stateMutability": "view",
      "type": "function"
    },
    {
      "constant": true,
      "inputs": [],
      "name": "votingPeriodDuration",
      "outputs": [
        {
          "name": "",
          "type": "uint256"
        }
      ],
      "payable": false,
      "stateMutability": "view",
      "type": "function"
    },
    {
      "constant": false,
      "inputs": [
        {
          "name": "_propositionNumber",
          "type": "uint256"
        },
        {
          "name": "_acceptProposition",
          "type": "bool"
        }
      ],
      "name": "vote",
      "outputs": [],
      "payable": false,
      "stateMutability": "nonpayable",
      "type": "function"
    },
    {
      "constant": true,
      "inputs": [
        {
          "name": "_userAddress",
          "type": "address"
        }
      ],
      "name": "getPropositionsCreatedByUser",
      "outputs": [
        {
          "name": "",
          "type": "uint256[]"
        }
      ],
      "payable": false,
      "stateMutability": "view",
      "type": "function"
    },
    {
      "constant": true,
      "inputs": [
        {
          "name": "",
          "type": "uint256"
        }
      ],
      "name": "propositionsWaitingPromulgation",
      "outputs": [
        {
          "name": "",
          "type": "bool"
        }
      ],
      "payable": false,
      "stateMutability": "view",
      "type": "function"
    },
    {
      "constant": true,
      "inputs": [],
      "name": "promulgationPeriodDuration",
      "outputs": [
        {
          "name": "",
          "type": "uint256"
        }
      ],
      "payable": false,
      "stateMutability": "view",
      "type": "function"
    },
    {
      "constant": true,
      "inputs": [],
      "name": "votersOrganContract",
      "outputs": [
        {
          "name": "",
          "type": "address"
        }
      ],
      "payable": false,
      "stateMutability": "view",
      "type": "function"
    },
    {
      "constant": true,
      "inputs": [
        {
          "name": "_propositionNumber",
          "type": "uint256"
        }
      ],
      "name": "getPropositionDates",
      "outputs": [
        {
          "name": "_startDate",
          "type": "uint256"
        },
        {
          "name": "_votingPeriodEndDate",
          "type": "uint256"
        },
        {
          "name": "_promulgatorWindowEndDate",
          "type": "uint256"
        }
      ],
      "payable": false,
      "stateMutability": "view",
      "type": "function"
    },
    {
      "constant": false,
      "inputs": [
        {
          "name": "_propositionNumber",
          "type": "uint256"
        },
        {
          "name": "_promulgate",
          "type": "bool"
        }
      ],
      "name": "promulgateProposition",
      "outputs": [],
      "payable": false,
      "stateMutability": "nonpayable",
      "type": "function"
    },
    {
      "constant": true,
      "inputs": [
        {
          "name": "",
          "type": "address"
        },
        {
          "name": "",
          "type": "uint256"
        }
      ],
      "name": "propositionToVetoer",
      "outputs": [
        {
          "name": "",
          "type": "uint256"
        }
      ],
      "payable": false,
      "stateMutability": "view",
      "type": "function"
    },
    {
      "constant": false,
      "inputs": [
        {
          "name": "_propositionNumber",
          "type": "uint256"
        }
      ],
      "name": "endPropositionVote",
      "outputs": [
        {
          "name": "hasBeenAccepted",
          "type": "bool"
        }
      ],
      "payable": false,
      "stateMutability": "nonpayable",
      "type": "function"
    },
    {
      "constant": true,
      "inputs": [
        {
          "name": "",
          "type": "uint256"
        }
      ],
      "name": "propositionsWaitingEndOfVote",
      "outputs": [
        {
          "name": "",
          "type": "bool"
        }
      ],
      "payable": false,
      "stateMutability": "view",
      "type": "function"
    },
    {
      "constant": true,
      "inputs": [],
      "name": "getLinkedOrgans",
      "outputs": [
        {
          "name": "_linkedOrgans",
          "type": "address[]"
        }
      ],
      "payable": false,
      "stateMutability": "view",
      "type": "function"
    },
    {
      "constant": true,
      "inputs": [],
      "name": "isAProcedure",
      "outputs": [
        {
          "name": "",
          "type": "bool"
        }
      ],
      "payable": false,
      "stateMutability": "view",
      "type": "function"
    },
    {
      "constant": true,
      "inputs": [],
      "name": "requiredMajorityDenominator",
      "outputs": [
        {
          "name": "",
          "type": "uint256"
        }
      ],
      "payable": false,
      "stateMutability": "view",
      "type": "function"
    },
    {
      "constant": true,
      "inputs": [
        {
          "name": "",
          "type": "uint256"
        }
      ],
      "name": "linkedOrgans",
      "outputs": [
        {
          "name": "",
          "type": "address"
        }
      ],
      "payable": false,
      "stateMutability": "view",
      "type": "function"
    },
    {
      "constant": true,
      "inputs": [],
      "name": "affectedOrganContract",
      "outputs": [
        {
          "name": "",
          "type": "address"
        }
      ],
      "payable": false,
      "stateMutability": "view",
      "type": "function"
    },
    {
      "inputs": [
        {
          "name": "_affectedOrganContract",
          "type": "address"
        },
        {
          "name": "_votersOrganContract",
          "type": "address"
        },
        {
          "name": "_membersWithVetoOrganContract",
          "type": "address"
        },
        {
          "name": "_finalPromulgatorsOrganContract",
          "type": "address"
        },
        {
          "name": "_quorumSize",
          "type": "uint256"
        },
        {
          "name": "_votingPeriodDuration",
          "type": "uint256"
        },
        {
          "name": "_promulgationPeriodDuration",
          "type": "uint256"
        }
      ],
      "payable": false,
      "stateMutability": "nonpayable",
      "type": "constructor"
    },
    {
      "anonymous": false,
      "inputs": [
        {
          "indexed": false,
          "name": "_from",
          "type": "address"
        },
        {
          "indexed": false,
          "name": "_payoutAddress",
          "type": "address"
        },
        {
          "indexed": false,
          "name": "_amount",
          "type": "uint256"
        },
        {
          "indexed": false,
          "name": "_ipfsHash",
          "type": "bytes32"
        },
        {
          "indexed": false,
          "name": "_hash_function",
          "type": "uint8"
        },
        {
          "indexed": false,
          "name": "_size",
          "type": "uint8"
        }
      ],
      "name": "createPropositionEvent",
      "type": "event"
    },
    {
      "anonymous": false,
      "inputs": [
        {
          "indexed": false,
          "name": "_from",
          "type": "address"
        },
        {
          "indexed": false,
          "name": "_propositionNumber",
          "type": "uint256"
        }
      ],
      "name": "voteOnProposition",
      "type": "event"
    },
    {
      "anonymous": false,
      "inputs": [
        {
          "indexed": false,
          "name": "_from",
          "type": "address"
        },
        {
          "indexed": false,
          "name": "_propositionNumber",
          "type": "uint256"
        }
      ],
      "name": "vetoProposition",
      "type": "event"
    },
    {
      "anonymous": false,
      "inputs": [
        {
          "indexed": false,
          "name": "_from",
          "type": "address"
        },
        {
          "indexed": false,
          "name": "_propositionNumber",
          "type": "uint256"
        }
      ],
      "name": "countVotes",
      "type": "event"
    },
    {
      "anonymous": false,
      "inputs": [
        {
          "indexed": false,
          "name": "_from",
          "type": "address"
        },
        {
          "indexed": false,
          "name": "_propositionNumber",
          "type": "uint256"
        },
        {
          "indexed": false,
          "name": "_promulgate",
          "type": "bool"
        }
      ],
      "name": "promulgatePropositionEvent",
      "type": "event"
    }
  ],
  "bytecode": "0x60606040526000600460006101000a81548160ff0219169083151502179055506001600460016101000a81548160ff021916908315150217905550600860055534156200004b57600080fd5b60405160e080620032d48339810160405280805190602001909190805190602001909190805190602001909190805190602001909190805190602001909190805190602001909190805190602001909190505086600660006101000a81548173ffffffffffffffffffffffffffffffffffffffff021916908373ffffffffffffffffffffffffffffffffffffffff16021790555085600760006101000a81548173ffffffffffffffffffffffffffffffffffffffff021916908373ffffffffffffffffffffffffffffffffffffffff16021790555084600860006101000a81548173ffffffffffffffffffffffffffffffffffffffff021916908373ffffffffffffffffffffffffffffffffffffffff16021790555083600960006101000a81548173ffffffffffffffffffffffffffffffffffffffff021916908373ffffffffffffffffffffffffffffffffffffffff160217905550608060405190810160405280600660009054906101000a900473ffffffffffffffffffffffffffffffffffffffff1673ffffffffffffffffffffffffffffffffffffffff1673ffffffffffffffffffffffffffffffffffffffff168152602001600760009054906101000a900473ffffffffffffffffffffffffffffffffffffffff1673ffffffffffffffffffffffffffffffffffffffff1673ffffffffffffffffffffffffffffffffffffffff168152602001600860009054906101000a900473ffffffffffffffffffffffffffffffffffffffff1673ffffffffffffffffffffffffffffffffffffffff1673ffffffffffffffffffffffffffffffffffffffff168152602001600960009054906101000a900473ffffffffffffffffffffffffffffffffffffffff1673ffffffffffffffffffffffffffffffffffffffff1673ffffffffffffffffffffffffffffffffffffffff16815250600a9060046200030e92919062000339565b5082600d8190555081600b8190555080600c819055506001600081905550505050505050506200040e565b828054828255906000526020600020908101928215620003b5579160200282015b82811115620003b45782518260006101000a81548173ffffffffffffffffffffffffffffffffffffffff021916908373ffffffffffffffffffffffffffffffffffffffff160217905550916020019190600101906200035a565b5b509050620003c49190620003c8565b5090565b6200040b91905b808211156200040757600081816101000a81549073ffffffffffffffffffffffffffffffffffffffff021916905550600101620003cf565b5090565b90565b612eb6806200041e6000396000f3006060604052600436106101c2576000357c0100000000000000000000000000000000000000000000000000000000900463ffffffff1680630366af3d146101c757806305cf00571461020d57806307e7a2241461029b5780630b2e34b0146103295780631d28dec71461037f5780632443eaa7146103a25780632647d7f9146104605780633068ef4d1461048957806337443feb146104b25780633c0848ee146105b15780635332eea11461063f5780635dbe4d281461069557806364cdd61e146106be5780636a95d38d1461071357806375ff60c41461076e578063880d3f54146107c45780638f3b07a4146108195780639b88fba714610842578063a8bef97a1461086b578063ac37af1c14610898578063b5fdb88e146108d3578063c9d27afe146108fc578063cb20a2fd1461092a578063cd43eb1f146109b8578063cd87c2b6146109f3578063ce784b7714610a1c578063ce88840314610a71578063d64ff06314610ab6578063d858849414610ae4578063e09ecb8714610b3a578063e36f6e4e14610b75578063e570050114610bb0578063e80b30a514610c1a578063eb9141e914610c47578063f2edc61614610c70578063fe7800e114610cd3575b600080fd5b34156101d257600080fd5b6101e86004808035906020019091905050610d28565b6040518083151515158152602001821515151581526020019250505060405180910390f35b341561021857600080fd5b610244600480803573ffffffffffffffffffffffffffffffffffffffff16906020019091905050610d90565b6040518080602001828103825283818151815260200191508051906020019060200280838360005b8381101561028757808201518184015260208101905061026c565b505050509050019250505060405180910390f35b34156102a657600080fd5b6102d2600480803573ffffffffffffffffffffffffffffffffffffffff16906020019091905050610e2d565b6040518080602001828103825283818151815260200191508051906020019060200280838360005b838110156103155780820151818401526020810190506102fa565b505050509050019250505060405180910390f35b341561033457600080fd5b610369600480803573ffffffffffffffffffffffffffffffffffffffff16906020019091908035906020019091905050610eca565b6040518082815260200191505060405180910390f35b341561038a57600080fd5b6103a06004808035906020019091905050610efb565b005b34156103ad57600080fd5b61044a600480803573ffffffffffffffffffffffffffffffffffffffff169060200190919080359060200190919080356000191690602001909190803560ff1690602001909190803560ff1690602001909190803590602001908201803590602001908080601f01602080910402602001604051908101604052809392919081815260200183838082843782019150505050505091905050611165565b6040518082815260200191505060405180910390f35b341561046b57600080fd5b6104736116e3565b6040518082815260200191505060405180910390f35b341561049457600080fd5b61049c6116e9565b6040518082815260200191505060405180910390f35b34156104bd57600080fd5b6104d360048080359060200190919050506116ef565b604051808773ffffffffffffffffffffffffffffffffffffffff1673ffffffffffffffffffffffffffffffffffffffff16815260200186815260200185600019166000191681526020018460ff1660ff1681526020018360ff1660ff16815260200180602001828103825283818151815260200191508051906020019080838360005b83811015610571578082015181840152602081019050610556565b50505050905090810190601f16801561059e5780820380516001836020036101000a031916815260200191505b5097505050505050505060405180910390f35b34156105bc57600080fd5b6105e8600480803573ffffffffffffffffffffffffffffffffffffffff169060200190919050506118af565b6040518080602001828103825283818151815260200191508051906020019060200280838360005b8381101561062b578082015181840152602081019050610610565b505050509050019250505060405180910390f35b341561064a57600080fd5b61067f600480803573ffffffffffffffffffffffffffffffffffffffff1690602001909190803590602001909190505061194c565b6040518082815260200191505060405180910390f35b34156106a057600080fd5b6106a861197d565b6040518082815260200191505060405180910390f35b34156106c957600080fd5b6106d1611983565b604051808273ffffffffffffffffffffffffffffffffffffffff1673ffffffffffffffffffffffffffffffffffffffff16815260200191505060405180910390f35b341561071e57600080fd5b61073460048080359060200190919050506119a9565b6040518086815260200185815260200184815260200183151515158152602001821515151581526020019550505050505060405180910390f35b341561077957600080fd5b6107ae600480803573ffffffffffffffffffffffffffffffffffffffff16906020019091908035906020019091905050611abc565b6040518082815260200191505060405180910390f35b34156107cf57600080fd5b6107d7611aed565b604051808273ffffffffffffffffffffffffffffffffffffffff1673ffffffffffffffffffffffffffffffffffffffff16815260200191505060405180910390f35b341561082457600080fd5b61082c611b13565b6040518082815260200191505060405180910390f35b341561084d57600080fd5b610855611b19565b6040518082815260200191505060405180910390f35b341561087657600080fd5b61087e611b1f565b604051808215151515815260200191505060405180910390f35b34156108a357600080fd5b6108b96004808035906020019091905050611b32565b604051808215151515815260200191505060405180910390f35b34156108de57600080fd5b6108e6611ba6565b6040518082815260200191505060405180910390f35b341561090757600080fd5b61092860048080359060200190919080351515906020019091905050611bac565b005b341561093557600080fd5b610961600480803573ffffffffffffffffffffffffffffffffffffffff16906020019091905050611f37565b6040518080602001828103825283818151815260200191508051906020019060200280838360005b838110156109a4578082015181840152602081019050610989565b505050509050019250505060405180910390f35b34156109c357600080fd5b6109d96004808035906020019091905050611fd4565b604051808215151515815260200191505060405180910390f35b34156109fe57600080fd5b610a06612007565b6040518082815260200191505060405180910390f35b3415610a2757600080fd5b610a2f61200d565b604051808273ffffffffffffffffffffffffffffffffffffffff1673ffffffffffffffffffffffffffffffffffffffff16815260200191505060405180910390f35b3415610a7c57600080fd5b610a926004808035906020019091905050612033565b60405180848152602001838152602001828152602001935050505060405180910390f35b3415610ac157600080fd5b610ae2600480803590602001909190803515159060200190919050506120ac565b005b3415610aef57600080fd5b610b24600480803573ffffffffffffffffffffffffffffffffffffffff169060200190919080359060200190919050506125ef565b6040518082815260200191505060405180910390f35b3415610b4557600080fd5b610b5b6004808035906020019091905050612620565b604051808215151515815260200191505060405180910390f35b3415610b8057600080fd5b610b9660048080359060200190919050506129d5565b604051808215151515815260200191505060405180910390f35b3415610bbb57600080fd5b610bc3612a08565b6040518080602001828103825283818151815260200191508051906020019060200280838360005b83811015610c06578082015181840152602081019050610beb565b505050509050019250505060405180910390f35b3415610c2557600080fd5b610c2d612a9c565b604051808215151515815260200191505060405180910390f35b3415610c5257600080fd5b610c5a612aaf565b6040518082815260200191505060405180910390f35b3415610c7b57600080fd5b610c916004808035906020019091905050612ab5565b604051808273ffffffffffffffffffffffffffffffffffffffff1673ffffffffffffffffffffffffffffffffffffffff16815260200191505060405180910390f35b3415610cde57600080fd5b610ce6612af4565b604051808273ffffffffffffffffffffffffffffffffffffffff1673ffffffffffffffffffffffffffffffffffffffff16815260200191505060405180910390f35b600080601183815481101515610d3a57fe5b90600052602060002090600b020160080160019054906101000a900460ff16601184815481101515610d6857fe5b90600052602060002090600b020160080160039054906101000a900460ff1691509150915091565b610d98612b1a565b601560008373ffffffffffffffffffffffffffffffffffffffff1673ffffffffffffffffffffffffffffffffffffffff168152602001908152602001600020805480602002602001604051908101604052809291908181526020018280548015610e2157602002820191906000526020600020905b815481526020019060010190808311610e0d575b50505050509050919050565b610e35612b1a565b601760008373ffffffffffffffffffffffffffffffffffffffff1673ffffffffffffffffffffffffffffffffffffffff168152602001908152602001600020805480602002602001604051908101604052809291908181526020018280548015610ebe57602002820191906000526020600020905b815481526020019060010190808311610eaa575b50505050509050919050565b601460205281600052604060002081815481101515610ee557fe5b9060005260206000209001600091509150505481565b6000600860009054906101000a900473ffffffffffffffffffffffffffffffffffffffff1690508073ffffffffffffffffffffffffffffffffffffffff1663d323a4f8336000604051602001526040518263ffffffff167c0100000000000000000000000000000000000000000000000000000000028152600401808273ffffffffffffffffffffffffffffffffffffffff1673ffffffffffffffffffffffffffffffffffffffff168152602001915050602060405180830381600087803b1515610fc557600080fd5b6102c65a03f11515610fd657600080fd5b505050604051805190501515610feb57600080fd5b60009050601182815481101515610ffe57fe5b90600052602060002090600b020160080160019054906101000a900460ff1615151561102957600080fd5b4260118381548110151561103957fe5b90600052602060002090600b02016007015411151561105757600080fd5b600160118381548110151561106857fe5b90600052602060002090600b020160080160006101000a81548160ff021916908315150217905550601660003373ffffffffffffffffffffffffffffffffffffffff1673ffffffffffffffffffffffffffffffffffffffff16815260200190815260200160002080548060010182816110e19190612b2e565b9160005260206000209001600084909190915055507f62901d9c2f788a5c877cf5a2659a041eedf9a980c6dd3ed22a4878bcc228619b3383604051808373ffffffffffffffffffffffffffffffffffffffff1673ffffffffffffffffffffffffffffffffffffffff1681526020018281526020019250505060405180910390a15050565b600080611170612b5a565b600760009054906101000a900473ffffffffffffffffffffffffffffffffffffffff1691508173ffffffffffffffffffffffffffffffffffffffff1663d323a4f8336000604051602001526040518263ffffffff167c0100000000000000000000000000000000000000000000000000000000028152600401808273ffffffffffffffffffffffffffffffffffffffff1673ffffffffffffffffffffffffffffffffffffffff168152602001915050602060405180830381600087803b151561123857600080fd5b6102c65a03f1151561124957600080fd5b50505060405180519050151561125e57600080fd5b6000915088816000019073ffffffffffffffffffffffffffffffffffffffff16908173ffffffffffffffffffffffffffffffffffffffff168152505087816020018181525050868160400190600019169081600019168152505085816060019060ff16908160ff168152505084816080019060ff16908160ff1681525050838160a00181905250428160c0018181525050600b5442018160e00181815250506000816101000190151590811515815250506000816101600190151590811515815250506000816101200190151590811515815250506000816101400190151590811515815250506000816101a0018181525050600081610180018181525050601180548060010182816113719190612bf7565b91600052602060002090600b0201600083909190915060008201518160000160006101000a81548173ffffffffffffffffffffffffffffffffffffffff021916908373ffffffffffffffffffffffffffffffffffffffff160217905550602082015181600101556040820151816002019060001916905560608201518160030160006101000a81548160ff021916908360ff16021790555060808201518160030160016101000a81548160ff021916908360ff16021790555060a0820151816004019080519060200190611446929190612c29565b5060c0820151816006015560e082015181600701556101008201518160080160006101000a81548160ff0219169083151502179055506101208201518160080160016101000a81548160ff0219169083151502179055506101408201518160080160026101000a81548160ff0219169083151502179055506101608201518160080160036101000a81548160ff02191690831515021790555061018082015181600901556101a082015181600a0155505050611500612b5a565b905060016011805490500392506001600e60008282540192505081905550601460003373ffffffffffffffffffffffffffffffffffffffff1673ffffffffffffffffffffffffffffffffffffffff168152602001908152602001600020805480600101828161156f9190612b2e565b916000526020600020900160008590919091505550601280548060010182816115989190612ca9565b91600052602060002090602091828204019190066001909190916101000a81548160ff02191690831515021790555050601380548060010182816115dc9190612ca9565b91600052602060002090602091828204019190066000909190916101000a81548160ff021916908315150217905550507fb31df5b39bb8b6149d4ed034d3ec80aa9b0b980ddf993635151a04592ea49b85338a8a8a8a8a604051808773ffffffffffffffffffffffffffffffffffffffff1673ffffffffffffffffffffffffffffffffffffffff1681526020018673ffffffffffffffffffffffffffffffffffffffff1673ffffffffffffffffffffffffffffffffffffffff16815260200185815260200184600019166000191681526020018360ff1660ff1681526020018260ff1660ff168152602001965050505050505060405180910390a150509695505050505050565b60055481565b600d5481565b60008060008060006116ff612ce3565b60118781548110151561170e57fe5b90600052602060002090600b020160000160009054906101000a900473ffffffffffffffffffffffffffffffffffffffff1660118881548110151561174f57fe5b90600052602060002090600b02016001015460118981548110151561177057fe5b90600052602060002090600b02016002015460118a81548110151561179157fe5b90600052602060002090600b020160030160009054906101000a900460ff1660118b8154811015156117bf57fe5b90600052602060002090600b020160030160019054906101000a900460ff1660118c8154811015156117ed57fe5b90600052602060002090600b0201600401808054600181600116156101000203166002900480601f0160208091040260200160405190810160405280929190818152602001828054600181600116156101000203166002900480156118935780601f1061186857610100808354040283529160200191611893565b820191906000526020600020905b81548152906001019060200180831161187657829003601f168201915b5050505050905095509550955095509550955091939550919395565b6118b7612b1a565b601660008373ffffffffffffffffffffffffffffffffffffffff1673ffffffffffffffffffffffffffffffffffffffff16815260200190815260200160002080548060200260200160405190810160405280929190818152602001828054801561194057602002820191906000526020600020905b81548152602001906001019080831161192c575b50505050509050919050565b60176020528160005260406000208181548110151561196757fe5b9060005260206000209001600091509150505481565b60005481565b600860009054906101000a900473ffffffffffffffffffffffffffffffffffffffff1681565b60008060008060006011868154811015156119c057fe5b90600052602060002090600b020160080160019054906101000a900460ff1615156119ea57600080fd5b6011868154811015156119f957fe5b90600052602060002090600b020160060154601187815481101515611a1a57fe5b90600052602060002090600b0201600a0154601188815481101515611a3b57fe5b90600052602060002090600b020160090154601189815481101515611a5c57fe5b90600052602060002090600b020160080160009054906101000a900460ff1660118a815481101515611a8a57fe5b90600052602060002090600b020160080160029054906101000a900460ff169450945094509450945091939590929450565b601560205281600052604060002081815481101515611ad757fe5b9060005260206000209001600091509150505481565b600960009054906101000a900473ffffffffffffffffffffffffffffffffffffffff1681565b600e5481565b600f5481565b600460009054906101000a900460ff1681565b6000601182815481101515611b4357fe5b90600052602060002090600b020160050160003373ffffffffffffffffffffffffffffffffffffffff1673ffffffffffffffffffffffffffffffffffffffff16815260200190815260200160002060009054906101000a900460ff169050919050565b600b5481565b6000600760009054906101000a900473ffffffffffffffffffffffffffffffffffffffff1690508073ffffffffffffffffffffffffffffffffffffffff1663d323a4f8336000604051602001526040518263ffffffff167c0100000000000000000000000000000000000000000000000000000000028152600401808273ffffffffffffffffffffffffffffffffffffffff1673ffffffffffffffffffffffffffffffffffffffff168152602001915050602060405180830381600087803b1515611c7657600080fd5b6102c65a03f11515611c8757600080fd5b505050604051805190501515611c9c57600080fd5b60009050601183815481101515611caf57fe5b90600052602060002090600b020160050160003373ffffffffffffffffffffffffffffffffffffffff1673ffffffffffffffffffffffffffffffffffffffff16815260200190815260200160002060009054906101000a900460ff16151515611d1757600080fd5b601183815481101515611d2657fe5b90600052602060002090600b020160080160019054906101000a900460ff16151515611d5157600080fd5b42601184815481101515611d6157fe5b90600052602060002090600b020160070154111515611d7f57600080fd5b600115158215151415611dbc576001601184815481101515611d9d57fe5b90600052602060002090600b0201600901600082825401925050819055505b6001601184815481101515611dcd57fe5b90600052602060002090600b020160050160003373ffffffffffffffffffffffffffffffffffffffff1673ffffffffffffffffffffffffffffffffffffffff16815260200190815260200160002060006101000a81548160ff0219169083151502179055506001601184815481101515611e4357fe5b90600052602060002090600b0201600a0160008282540192505081905550601560003373ffffffffffffffffffffffffffffffffffffffff1673ffffffffffffffffffffffffffffffffffffffff1681526020019081526020016000208054806001018281611eb29190612b2e565b9160005260206000209001600085909190915055507fd1faddd599b0d6b58c83de71d7ff5395895b5891894dcd37f2482f33b2a1c43d3384604051808373ffffffffffffffffffffffffffffffffffffffff1673ffffffffffffffffffffffffffffffffffffffff1681526020018281526020019250505060405180910390a1505050565b611f3f612b1a565b601460008373ffffffffffffffffffffffffffffffffffffffff1673ffffffffffffffffffffffffffffffffffffffff168152602001908152602001600020805480602002602001604051908101604052809291908181526020018280548015611fc857602002820191906000526020600020905b815481526020019060010190808311611fb4575b50505050509050919050565b601381815481101515611fe357fe5b9060005260206000209060209182820401919006915054906101000a900460ff1681565b600c5481565b600760009054906101000a900473ffffffffffffffffffffffffffffffffffffffff1681565b600080600060118481548110151561204757fe5b90600052602060002090600b02016006015460118581548110151561206857fe5b90600052602060002090600b020160070154600c5460118781548110151561208c57fe5b90600052602060002090600b020160070154019250925092509193909250565b6000806011848154811015156120be57fe5b90600052602060002090600b020160080160039054906101000a900460ff161515156120e957600080fd5b6011848154811015156120f857fe5b90600052602060002090600b020160080160019054906101000a900460ff16151561212257600080fd5b600c5460118581548110151561213457fe5b90600052602060002090600b0201600701540142101561224557600960009054906101000a900473ffffffffffffffffffffffffffffffffffffffff1691508173ffffffffffffffffffffffffffffffffffffffff1663d323a4f8336000604051602001526040518263ffffffff167c0100000000000000000000000000000000000000000000000000000000028152600401808273ffffffffffffffffffffffffffffffffffffffff1673ffffffffffffffffffffffffffffffffffffffff168152602001915050602060405180830381600087803b151561221657600080fd5b6102c65a03f1151561222757600080fd5b50505060405180519050151561223c57600080fd5b60009150612252565b82151561225157600080fd5b5b60118481548110151561226157fe5b90600052602060002090600b020160080160029054906101000a900460ff16151561228b57600080fd5b82158061231a575060006011858154811015156122a457fe5b90600052602060002090600b020160000160009054906101000a900473ffffffffffffffffffffffffffffffffffffffff1673ffffffffffffffffffffffffffffffffffffffff161480156123195750600060118581548110151561230557fe5b90600052602060002090600b020160010154145b5b1561235d57600160118581548110151561233057fe5b90600052602060002090600b020160080160036101000a81548160ff021916908315150217905550612499565b600660009054906101000a900473ffffffffffffffffffffffffffffffffffffffff1690508073ffffffffffffffffffffffffffffffffffffffff1663117de2fd6011868154811015156123ad57fe5b90600052602060002090600b020160000160009054906101000a900473ffffffffffffffffffffffffffffffffffffffff166011878154811015156123ee57fe5b90600052602060002090600b0201600101546040518363ffffffff167c0100000000000000000000000000000000000000000000000000000000028152600401808373ffffffffffffffffffffffffffffffffffffffff1673ffffffffffffffffffffffffffffffffffffffff16815260200182815260200192505050600060405180830381600087803b151561248457600080fd5b6102c65a03f1151561249557600080fd5b5050505b60016011858154811015156124aa57fe5b90600052602060002090600b020160080160036101000a81548160ff02191690831515021790555060006013858154811015156124e357fe5b90600052602060002090602091828204019190066101000a81548160ff021916908315150217905550601760003373ffffffffffffffffffffffffffffffffffffffff1673ffffffffffffffffffffffffffffffffffffffff168152602001908152602001600020805480600101828161255d9190612b2e565b9160005260206000209001600086909190915055507fed7c73834db4ae22add7f637175d8a32a1dddae4c154ccd25195b77df4c8d18d338585604051808473ffffffffffffffffffffffffffffffffffffffff1673ffffffffffffffffffffffffffffffffffffffff16815260200183815260200182151515158152602001935050505060405180910390a150505050565b60166020528160005260406000208181548110151561260a57fe5b9060005260206000209001600091509150505481565b60008060118381548110151561263257fe5b90600052602060002090600b020160080160019054906101000a900460ff1615151561265d57600080fd5b4260118481548110151561266d57fe5b90600052602060002090600b02016007015410151561268b57600080fd5b600760009054906101000a900473ffffffffffffffffffffffffffffffffffffffff1690506011838154811015156126bf57fe5b90600052602060002090600b020160080160009054906101000a900460ff1615612725576000915060016011848154811015156126f857fe5b90600052602060002090600b020160080160036101000a81548160ff02191690831515021790555061287f565b8073ffffffffffffffffffffffffffffffffffffffff1663234d34de6000604051602001526040518163ffffffff167c0100000000000000000000000000000000000000000000000000000000028152600401602060405180830381600087803b151561279157600080fd5b6102c65a03f115156127a257600080fd5b50505060405180519050600d540260646011858154811015156127c157fe5b90600052602060002090600b0201600a0154021015801561283257506011838154811015156127ec57fe5b90600052602060002090600b0201600a0154600f5460105460118681548110151561281357fe5b90600052602060002090600b0201600901540281151561282f57fe5b04115b15612840576001915061287e565b60009150600160118481548110151561285557fe5b90600052602060002090600b020160080160036101000a81548160ff0219169083151502179055505b5b600160118481548110151561289057fe5b90600052602060002090600b020160080160016101000a81548160ff021916908315150217905550816011848154811015156128c857fe5b90600052602060002090600b020160080160026101000a81548160ff021916908315150217905550600060128481548110151561290157fe5b90600052602060002090602091828204019190066101000a81548160ff021916908315150217905550600160138481548110151561293b57fe5b90600052602060002090602091828204019190066101000a81548160ff0219169083151502179055507f297f1f08d2ef8c90272f7ee3e1d4272015a96cdff8a252b60547b9e432e723603384604051808373ffffffffffffffffffffffffffffffffffffffff1673ffffffffffffffffffffffffffffffffffffffff1681526020018281526020019250505060405180910390a150919050565b6012818154811015156129e457fe5b9060005260206000209060209182820401919006915054906101000a900460ff1681565b612a10612cf7565b600a805480602002602001604051908101604052809291908181526020018280548015612a9257602002820191906000526020600020905b8160009054906101000a900473ffffffffffffffffffffffffffffffffffffffff1673ffffffffffffffffffffffffffffffffffffffff1681526020019060010190808311612a48575b5050505050905090565b600460019054906101000a900460ff1681565b60105481565b600a81815481101515612ac457fe5b90600052602060002090016000915054906101000a900473ffffffffffffffffffffffffffffffffffffffff1681565b600660009054906101000a900473ffffffffffffffffffffffffffffffffffffffff1681565b602060405190810160405280600081525090565b815481835581811511612b5557818360005260206000209182019101612b549190612d0b565b5b505050565b6101c060405190810160405280600073ffffffffffffffffffffffffffffffffffffffff1681526020016000815260200160008019168152602001600060ff168152602001600060ff168152602001612bb1612d30565b8152602001600081526020016000815260200160001515815260200160001515815260200160001515815260200160001515815260200160008152602001600081525090565b815481835581811511612c2457600b0281600b028360005260206000209182019101612c239190612d44565b5b505050565b828054600181600116156101000203166002900490600052602060002090601f016020900481019282601f10612c6a57805160ff1916838001178555612c98565b82800160010185558215612c98579182015b82811115612c97578251825591602001919060010190612c7c565b5b509050612ca59190612d0b565b5090565b815481835581811511612cde57601f016020900481601f01602090048360005260206000209182019101612cdd9190612d0b565b5b505050565b602060405190810160405280600081525090565b602060405190810160405280600081525090565b612d2d91905b80821115612d29576000816000905550600101612d11565b5090565b90565b602060405190810160405280600081525090565b612e3f91905b80821115612e3b57600080820160006101000a81549073ffffffffffffffffffffffffffffffffffffffff0219169055600182016000905560028201600090556003820160006101000a81549060ff02191690556003820160016101000a81549060ff0219169055600482016000612dc29190612e42565b600682016000905560078201600090556008820160006101000a81549060ff02191690556008820160016101000a81549060ff02191690556008820160026101000a81549060ff02191690556008820160036101000a81549060ff02191690556009820160009055600a82016000905550600b01612d4a565b5090565b90565b50805460018160011615610100020316600290046000825580601f10612e685750612e87565b601f016020900490600052602060002090810190612e869190612d0b565b5b505600a165627a7a72305820c75b1663fd3e2451adc24cc863c2c71fbafc6b698d85a5561f313a0673b6af8e0029",
  "source": "pragma solidity ^0.4.11;\n\n// Standard contract for a presidential election procedure\n\nimport \"../standardProcedure.sol\";\nimport \"../standardOrgan.sol\";\nimport \"../procedures/voteOnExpenseProcedure.sol\";\n\n\n\n\ncontract deployVoteOnExpenseProcedure is voteOnExpenseProcedure {\n\nfunction deployVoteOnExpenseProcedure (address _affectedOrganContract, address _votersOrganContract, address _membersWithVetoOrganContract, address _finalPromulgatorsOrganContract, uint _quorumSize, uint _votingPeriodDuration, uint _promulgationPeriodDuration) public {\n\n    affectedOrganContract = _affectedOrganContract;\n    votersOrganContract = _votersOrganContract;\n    membersWithVetoOrganContract = _membersWithVetoOrganContract;\n    finalPromulgatorsOrganContract = _finalPromulgatorsOrganContract; \n    linkedOrgans = [affectedOrganContract,votersOrganContract,membersWithVetoOrganContract,finalPromulgatorsOrganContract];\n\n    quorumSize = _quorumSize;\n    // votingPeriodDuration = 3 minutes;\n    // promulgationPeriodDuration = 3 minutes;\n\n    votingPeriodDuration = _votingPeriodDuration;\n    promulgationPeriodDuration = _promulgationPeriodDuration;\n\n    kelsenVersionNumber = 1;\n\n    }\n}\n",
  "sourcePath": "/Users/henrilieutaud/Documents/Mes documents/97/Workshop/Kelsen/solidity/contracts/deploy/deployVoteOnExpenseProcedure.sol",
  "compiler": {
    "name": "solc",
    "version": "0.4.19+commit.c4cbbb05.Emscripten.clang"
  },
  "schemaVersion": "2.0.0",
  "updatedAt": "2018-05-14T16:41:17.312Z"
}