{
  "contractName": "deployCyclicalManyToManyElectionProcedure",
  "abi": [
    {
      "constant": true,
      "inputs": [
        {
          "name": "",
          "type": "address"
        },
        {
          "name": "",
          "type": "uint256"
        }
      ],
      "name": "ballotToEnforcer",
      "outputs": [
        {
          "name": "",
          "type": "uint256"
        }
      ],
      "payable": false,
      "stateMutability": "view",
      "type": "function"
    },
    {
      "constant": true,
      "inputs": [
        {
          "name": "_ballotNumber",
          "type": "uint256"
        }
      ],
      "name": "getSingleBallotInfo",
      "outputs": [
        {
          "name": "_name",
          "type": "string"
        },
        {
          "name": "_startDate",
          "type": "uint256"
        },
        {
          "name": "_candidacyEndDate",
          "type": "uint256"
        },
        {
          "name": "_electionEndDate",
          "type": "uint256"
        },
        {
          "name": "_electedOfficialSlotNumber",
          "type": "uint256"
        }
      ],
      "payable": false,
      "stateMutability": "view",
      "type": "function"
    },
    {
      "constant": true,
      "inputs": [
        {
          "name": "_ballotNumber",
          "type": "uint256"
        }
      ],
      "name": "getBallotDates",
      "outputs": [
        {
          "name": "startDate",
          "type": "uint256"
        },
        {
          "name": "endDate",
          "type": "uint256"
        }
      ],
      "payable": false,
      "stateMutability": "view",
      "type": "function"
    },
    {
      "constant": true,
      "inputs": [],
      "name": "procedureTypeNumber",
      "outputs": [
        {
          "name": "",
          "type": "int256"
        }
      ],
      "payable": false,
      "stateMutability": "view",
      "type": "function"
    },
    {
      "constant": true,
      "inputs": [],
      "name": "quorumSize",
      "outputs": [
        {
          "name": "",
          "type": "uint256"
        }
      ],
      "payable": false,
      "stateMutability": "view",
      "type": "function"
    },
    {
      "constant": true,
      "inputs": [],
      "name": "ballotFrequency",
      "outputs": [
        {
          "name": "",
          "type": "uint256"
        }
      ],
      "payable": false,
      "stateMutability": "view",
      "type": "function"
    },
    {
      "constant": true,
      "inputs": [
        {
          "name": "_userAddress",
          "type": "address"
        }
      ],
      "name": "getBallotToEnforcer",
      "outputs": [
        {
          "name": "",
          "type": "uint256[]"
        }
      ],
      "payable": false,
      "stateMutability": "view",
      "type": "function"
    },
    {
      "constant": true,
      "inputs": [
        {
          "name": "_ballotNumber",
          "type": "uint256"
        },
        {
          "name": "_candidateAddress",
          "type": "address"
        }
      ],
      "name": "getCandidateVoteNumber",
      "outputs": [
        {
          "name": "voteReceived",
          "type": "uint256"
        }
      ],
      "payable": false,
      "stateMutability": "view",
      "type": "function"
    },
    {
      "constant": true,
      "inputs": [],
      "name": "referenceOrganContract",
      "outputs": [
        {
          "name": "",
          "type": "address"
        }
      ],
      "payable": false,
      "stateMutability": "view",
      "type": "function"
    },
    {
      "constant": false,
      "inputs": [
        {
          "name": "_ballotName",
          "type": "string"
        }
      ],
      "name": "createBallot",
      "outputs": [
        {
          "name": "ballotNumber",
          "type": "uint256"
        }
      ],
      "payable": false,
      "stateMutability": "nonpayable",
      "type": "function"
    },
    {
      "constant": false,
      "inputs": [
        {
          "name": "_ballotNumber",
          "type": "uint256"
        }
      ],
      "name": "endBallot",
      "outputs": [],
      "payable": false,
      "stateMutability": "nonpayable",
      "type": "function"
    },
    {
      "constant": true,
      "inputs": [],
      "name": "voterToCandidateRatio",
      "outputs": [
        {
          "name": "",
          "type": "uint256"
        }
      ],
      "payable": false,
      "stateMutability": "view",
      "type": "function"
    },
    {
      "constant": true,
      "inputs": [
        {
          "name": "",
          "type": "address"
        },
        {
          "name": "",
          "type": "uint256"
        }
      ],
      "name": "ballotToVoter",
      "outputs": [
        {
          "name": "",
          "type": "uint256"
        }
      ],
      "payable": false,
      "stateMutability": "view",
      "type": "function"
    },
    {
      "constant": true,
      "inputs": [
        {
          "name": "",
          "type": "uint256"
        }
      ],
      "name": "ballots",
      "outputs": [
        {
          "name": "creator",
          "type": "address"
        },
        {
          "name": "name",
          "type": "string"
        },
        {
          "name": "electedOfficialSlotNumber",
          "type": "uint256"
        },
        {
          "name": "startDate",
          "type": "uint256"
        },
        {
          "name": "candidacyEndDate",
          "type": "uint256"
        },
        {
          "name": "electionEndDate",
          "type": "uint256"
        },
        {
          "name": "wasEnded",
          "type": "bool"
        },
        {
          "name": "wasEnforced",
          "type": "bool"
        },
        {
          "name": "totalVoteCount",
          "type": "uint256"
        }
      ],
      "payable": false,
      "stateMutability": "view",
      "type": "function"
    },
    {
      "constant": true,
      "inputs": [],
      "name": "kelsenVersionNumber",
      "outputs": [
        {
          "name": "",
          "type": "int256"
        }
      ],
      "payable": false,
      "stateMutability": "view",
      "type": "function"
    },
    {
      "constant": true,
      "inputs": [
        {
          "name": "_ballotNumber",
          "type": "uint256"
        }
      ],
      "name": "getCandidateList",
      "outputs": [
        {
          "name": "_candidateList",
          "type": "address[]"
        }
      ],
      "payable": false,
      "stateMutability": "view",
      "type": "function"
    },
    {
      "constant": true,
      "inputs": [],
      "name": "lastElectionNumber",
      "outputs": [
        {
          "name": "",
          "type": "uint256"
        }
      ],
      "payable": false,
      "stateMutability": "view",
      "type": "function"
    },
    {
      "constant": true,
      "inputs": [
        {
          "name": "",
          "type": "address"
        },
        {
          "name": "",
          "type": "uint256"
        }
      ],
      "name": "ballotToCreator",
      "outputs": [
        {
          "name": "",
          "type": "uint256"
        }
      ],
      "payable": false,
      "stateMutability": "view",
      "type": "function"
    },
    {
      "constant": true,
      "inputs": [
        {
          "name": "_userAddress",
          "type": "address"
        }
      ],
      "name": "getBallotToVoter",
      "outputs": [
        {
          "name": "",
          "type": "uint256[]"
        }
      ],
      "payable": false,
      "stateMutability": "view",
      "type": "function"
    },
    {
      "constant": false,
      "inputs": [
        {
          "name": "_ballotNumber",
          "type": "uint256"
        }
      ],
      "name": "enforceBallot",
      "outputs": [],
      "payable": false,
      "stateMutability": "nonpayable",
      "type": "function"
    },
    {
      "constant": true,
      "inputs": [
        {
          "name": "",
          "type": "uint256"
        }
      ],
      "name": "currentModerators",
      "outputs": [
        {
          "name": "",
          "type": "address"
        }
      ],
      "payable": false,
      "stateMutability": "view",
      "type": "function"
    },
    {
      "constant": true,
      "inputs": [
        {
          "name": "",
          "type": "address"
        }
      ],
      "name": "cumulatedCandidacies",
      "outputs": [
        {
          "name": "",
          "type": "uint256"
        }
      ],
      "payable": false,
      "stateMutability": "view",
      "type": "function"
    },
    {
      "constant": true,
      "inputs": [],
      "name": "isAnOrgan",
      "outputs": [
        {
          "name": "",
          "type": "bool"
        }
      ],
      "payable": false,
      "stateMutability": "view",
      "type": "function"
    },
    {
      "constant": true,
      "inputs": [],
      "name": "ballotDuration",
      "outputs": [
        {
          "name": "",
          "type": "uint256"
        }
      ],
      "payable": false,
      "stateMutability": "view",
      "type": "function"
    },
    {
      "constant": true,
      "inputs": [
        {
          "name": "_ballotNumber",
          "type": "uint256"
        }
      ],
      "name": "haveIVoted",
      "outputs": [
        {
          "name": "IHaveVoted",
          "type": "bool"
        }
      ],
      "payable": false,
      "stateMutability": "view",
      "type": "function"
    },
    {
      "constant": true,
      "inputs": [
        {
          "name": "_userAddress",
          "type": "address"
        }
      ],
      "name": "getBallotToCounter",
      "outputs": [
        {
          "name": "",
          "type": "uint256[]"
        }
      ],
      "payable": false,
      "stateMutability": "view",
      "type": "function"
    },
    {
      "constant": true,
      "inputs": [],
      "name": "candidacyDuration",
      "outputs": [
        {
          "name": "",
          "type": "uint256"
        }
      ],
      "payable": false,
      "stateMutability": "view",
      "type": "function"
    },
    {
      "constant": true,
      "inputs": [],
      "name": "isBallotCurrentlyRunning",
      "outputs": [
        {
          "name": "",
          "type": "bool"
        }
      ],
      "payable": false,
      "stateMutability": "view",
      "type": "function"
    },
    {
      "constant": true,
      "inputs": [],
      "name": "totalBallotNumber",
      "outputs": [
        {
          "name": "",
          "type": "uint256"
        }
      ],
      "payable": false,
      "stateMutability": "view",
      "type": "function"
    },
    {
      "constant": true,
      "inputs": [],
      "name": "neutralVoteAccepted",
      "outputs": [
        {
          "name": "",
          "type": "bool"
        }
      ],
      "payable": false,
      "stateMutability": "view",
      "type": "function"
    },
    {
      "constant": true,
      "inputs": [
        {
          "name": "_userAddress",
          "type": "address"
        }
      ],
      "name": "getBallotToCreator",
      "outputs": [
        {
          "name": "",
          "type": "uint256[]"
        }
      ],
      "payable": false,
      "stateMutability": "view",
      "type": "function"
    },
    {
      "constant": false,
      "inputs": [
        {
          "name": "_ballotNumber",
          "type": "uint256"
        },
        {
          "name": "_candidateAddresses",
          "type": "address[]"
        }
      ],
      "name": "vote",
      "outputs": [],
      "payable": false,
      "stateMutability": "nonpayable",
      "type": "function"
    },
    {
      "constant": true,
      "inputs": [
        {
          "name": "_ballotNumber",
          "type": "uint256"
        }
      ],
      "name": "getBallotResult",
      "outputs": [
        {
          "name": "_wasEnded",
          "type": "bool"
        },
        {
          "name": "_wasEnforced",
          "type": "bool"
        },
        {
          "name": "_winningCandidates",
          "type": "address[]"
        },
        {
          "name": "_totalVoteCount",
          "type": "uint256"
        }
      ],
      "payable": false,
      "stateMutability": "view",
      "type": "function"
    },
    {
      "constant": true,
      "inputs": [],
      "name": "nextElectionDate",
      "outputs": [
        {
          "name": "",
          "type": "uint256"
        }
      ],
      "payable": false,
      "stateMutability": "view",
      "type": "function"
    },
    {
      "constant": true,
      "inputs": [],
      "name": "reelectionMaximum",
      "outputs": [
        {
          "name": "",
          "type": "uint256"
        }
      ],
      "payable": false,
      "stateMutability": "view",
      "type": "function"
    },
    {
      "constant": false,
      "inputs": [
        {
          "name": "_ballotNumber",
          "type": "uint256"
        },
        {
          "name": "_name",
          "type": "string"
        },
        {
          "name": "_ipfsHash",
          "type": "bytes32"
        },
        {
          "name": "_hash_function",
          "type": "uint8"
        },
        {
          "name": "_size",
          "type": "uint8"
        }
      ],
      "name": "presentCandidacy",
      "outputs": [],
      "payable": false,
      "stateMutability": "nonpayable",
      "type": "function"
    },
    {
      "constant": true,
      "inputs": [],
      "name": "getLinkedOrgans",
      "outputs": [
        {
          "name": "_linkedOrgans",
          "type": "address[]"
        }
      ],
      "payable": false,
      "stateMutability": "view",
      "type": "function"
    },
    {
      "constant": true,
      "inputs": [
        {
          "name": "",
          "type": "address"
        },
        {
          "name": "",
          "type": "uint256"
        }
      ],
      "name": "ballotToCounter",
      "outputs": [
        {
          "name": "",
          "type": "uint256"
        }
      ],
      "payable": false,
      "stateMutability": "view",
      "type": "function"
    },
    {
      "constant": true,
      "inputs": [],
      "name": "isAProcedure",
      "outputs": [
        {
          "name": "",
          "type": "bool"
        }
      ],
      "payable": false,
      "stateMutability": "view",
      "type": "function"
    },
    {
      "constant": true,
      "inputs": [
        {
          "name": "",
          "type": "uint256"
        }
      ],
      "name": "linkedOrgans",
      "outputs": [
        {
          "name": "",
          "type": "address"
        }
      ],
      "payable": false,
      "stateMutability": "view",
      "type": "function"
    },
    {
      "constant": true,
      "inputs": [],
      "name": "affectedOrganContract",
      "outputs": [
        {
          "name": "",
          "type": "address"
        }
      ],
      "payable": false,
      "stateMutability": "view",
      "type": "function"
    },
    {
      "inputs": [
        {
          "name": "_referenceOrganContract",
          "type": "address"
        },
        {
          "name": "_affectedOrganContract",
          "type": "address"
        }
      ],
      "payable": false,
      "stateMutability": "nonpayable",
      "type": "constructor"
    },
    {
      "anonymous": false,
      "inputs": [
        {
          "indexed": false,
          "name": "_from",
          "type": "address"
        },
        {
          "indexed": false,
          "name": "_name",
          "type": "string"
        },
        {
          "indexed": false,
          "name": "_startDate",
          "type": "uint256"
        },
        {
          "indexed": false,
          "name": "_candidacyEndDate",
          "type": "uint256"
        },
        {
          "indexed": false,
          "name": "_endDate",
          "type": "uint256"
        },
        {
          "indexed": false,
          "name": "_ballotNumber",
          "type": "uint256"
        }
      ],
      "name": "ballotCreationEvent",
      "type": "event"
    },
    {
      "anonymous": false,
      "inputs": [
        {
          "indexed": false,
          "name": "_ballotNumber",
          "type": "uint256"
        },
        {
          "indexed": false,
          "name": "_candidateAddress",
          "type": "address"
        },
        {
          "indexed": false,
          "name": "_name",
          "type": "string"
        },
        {
          "indexed": false,
          "name": "_ipfsHash",
          "type": "bytes32"
        },
        {
          "indexed": false,
          "name": "_hash_function",
          "type": "uint8"
        },
        {
          "indexed": false,
          "name": "_size",
          "type": "uint8"
        }
      ],
      "name": "presentCandidacyEvent",
      "type": "event"
    },
    {
      "anonymous": false,
      "inputs": [
        {
          "indexed": false,
          "name": "_from",
          "type": "address"
        },
        {
          "indexed": false,
          "name": "_ballotNumber",
          "type": "uint256"
        }
      ],
      "name": "votedOnElectionEvent",
      "type": "event"
    },
    {
      "anonymous": false,
      "inputs": [
        {
          "indexed": false,
          "name": "_ballotNumber",
          "type": "uint256"
        },
        {
          "indexed": false,
          "name": "_candidateList",
          "type": "address[]"
        },
        {
          "indexed": false,
          "name": "_winningCandidates",
          "type": "address[]"
        },
        {
          "indexed": false,
          "name": "_totalVoteCount",
          "type": "uint256"
        }
      ],
      "name": "ballotWasCounted",
      "type": "event"
    },
    {
      "anonymous": false,
      "inputs": [
        {
          "indexed": false,
          "name": "_ballotNumber",
          "type": "uint256"
        },
        {
          "indexed": false,
          "name": "_wasRebooted",
          "type": "bool"
        }
      ],
      "name": "ballotResultException",
      "type": "event"
    },
    {
      "anonymous": false,
      "inputs": [
        {
          "indexed": false,
          "name": "_winningCandidates",
          "type": "address[]"
        },
        {
          "indexed": false,
          "name": "_ballotNumber",
          "type": "uint256"
        }
      ],
      "name": "ballotWasEnforced",
      "type": "event"
    }
  ],
  "bytecode": "0x60606040526000600460006101000a81548160ff0219169083151502179055506001600460016101000a81548160ff021916908315150217905550600260055534156200004b57600080fd5b60405160408062004c518339810160405280805190602001909190805190602001909190505081600760006101000a81548173ffffffffffffffffffffffffffffffffffffffff021916908373ffffffffffffffffffffffffffffffffffffffff16021790555080600660006101000a81548173ffffffffffffffffffffffffffffffffffffffff021916908373ffffffffffffffffffffffffffffffffffffffff1602179055506040805190810160405280600760009054906101000a900473ffffffffffffffffffffffffffffffffffffffff1673ffffffffffffffffffffffffffffffffffffffff1673ffffffffffffffffffffffffffffffffffffffff168152602001600660009054906101000a900473ffffffffffffffffffffffffffffffffffffffff1673ffffffffffffffffffffffffffffffffffffffff1673ffffffffffffffffffffffffffffffffffffffff168152506008906002620001b69291906200022a565b50602860108190555060b4600c8190555060b4600e8190555061021c60098190555042600a819055506001600d60006101000a81548160ff0219169083151502179055506002600f8190555060006013819055506002601181905550600160008190555060006014819055505050620002ff565b828054828255906000526020600020908101928215620002a6579160200282015b82811115620002a55782518260006101000a81548173ffffffffffffffffffffffffffffffffffffffff021916908373ffffffffffffffffffffffffffffffffffffffff160217905550916020019190600101906200024b565b5b509050620002b59190620002b9565b5090565b620002fc91905b80821115620002f857600081816101000a81549073ffffffffffffffffffffffffffffffffffffffff021916905550600101620002c0565b5090565b90565b614942806200030f6000396000f3006060604052600436106101f9576000357c0100000000000000000000000000000000000000000000000000000000900463ffffffff1680631899706d146101fe57806318fe2d731461025457806319060ef11461030c5780632647d7f91461034a5780633068ef4d14610373578063322af16f1461039c578063325bc6ea146103c55780633468209814610453578063446192af146104a957806346a86576146104fe57806348fcc1441461056f578063503c3d091461059257806356453fbf146105bb5780635c632b38146106115780635dbe4d2814610736578063618bde0a1461075f578063680aee50146107d75780636be873541461080057806372805e31146108565780638cd1ff51146108e45780639eaa613f14610907578063a4c797f71461096a578063a8bef97a146109b7578063ab8f9536146109e4578063ac37af1c14610a0d578063b064124d14610a48578063b0c2dede14610ad6578063b4b71cd214610aff578063b9f43cc514610b2c578063bdf7f47214610b55578063bf0fac8314610b82578063c5bf93ba14610c10578063ce65c4e314610c73578063d0746b7a14610d08578063d9b84d4c14610d31578063de0db92e14610d5a578063e570050114610de5578063e76f506e14610e4f578063e80b30a514610ea5578063f2edc61614610ed2578063fe7800e114610f35575b600080fd5b341561020957600080fd5b61023e600480803573ffffffffffffffffffffffffffffffffffffffff16906020019091908035906020019091905050610f8a565b6040518082815260200191505060405180910390f35b341561025f57600080fd5b6102756004808035906020019091905050610fbb565b6040518080602001868152602001858152602001848152602001838152602001828103825287818151815260200191508051906020019080838360005b838110156102cd5780820151818401526020810190506102b2565b50505050905090810190601f1680156102fa5780820380516001836020036101000a031916815260200191505b50965050505050505060405180910390f35b341561031757600080fd5b61032d600480803590602001909190505061111c565b604051808381526020018281526020019250505060405180910390f35b341561035557600080fd5b61035d61116a565b6040518082815260200191505060405180910390f35b341561037e57600080fd5b610386611170565b6040518082815260200191505060405180910390f35b34156103a757600080fd5b6103af611176565b6040518082815260200191505060405180910390f35b34156103d057600080fd5b6103fc600480803573ffffffffffffffffffffffffffffffffffffffff1690602001909190505061117c565b6040518080602001828103825283818151815260200191508051906020019060200280838360005b8381101561043f578082015181840152602081019050610424565b505050509050019250505060405180910390f35b341561045e57600080fd5b610493600480803590602001909190803573ffffffffffffffffffffffffffffffffffffffff16906020019091905050611219565b6040518082815260200191505060405180910390f35b34156104b457600080fd5b6104bc6112bd565b604051808273ffffffffffffffffffffffffffffffffffffffff1673ffffffffffffffffffffffffffffffffffffffff16815260200191505060405180910390f35b341561050957600080fd5b610559600480803590602001908201803590602001908080601f016020809104026020016040519081016040528093929190818152602001838380828437820191505050505050919050506112e3565b6040518082815260200191505060405180910390f35b341561057a57600080fd5b61059060048080359060200190919050506117c6565b005b341561059d57600080fd5b6105a5612512565b6040518082815260200191505060405180910390f35b34156105c657600080fd5b6105fb600480803573ffffffffffffffffffffffffffffffffffffffff16906020019091908035906020019091905050612518565b6040518082815260200191505060405180910390f35b341561061c57600080fd5b6106326004808035906020019091905050612549565b604051808a73ffffffffffffffffffffffffffffffffffffffff1673ffffffffffffffffffffffffffffffffffffffff16815260200180602001898152602001888152602001878152602001868152602001851515151581526020018415151515815260200183815260200182810382528a81815460018160011615610100020316600290048152602001915080546001816001161561010002031660029004801561071f5780601f106106f45761010080835404028352916020019161071f565b820191906000526020600020905b81548152906001019060200180831161070257829003601f168201915b50509a505050505050505050505060405180910390f35b341561074157600080fd5b6107496125df565b6040518082815260200191505060405180910390f35b341561076a57600080fd5b61078060048080359060200190919050506125e5565b6040518080602001828103825283818151815260200191508051906020019060200280838360005b838110156107c35780820151818401526020810190506107a8565b505050509050019250505060405180910390f35b34156107e257600080fd5b6107ea612699565b6040518082815260200191505060405180910390f35b341561080b57600080fd5b610840600480803573ffffffffffffffffffffffffffffffffffffffff1690602001909190803590602001909190505061269f565b6040518082815260200191505060405180910390f35b341561086157600080fd5b61088d600480803573ffffffffffffffffffffffffffffffffffffffff169060200190919050506126d0565b6040518080602001828103825283818151815260200191508051906020019060200280838360005b838110156108d05780820151818401526020810190506108b5565b505050509050019250505060405180910390f35b34156108ef57600080fd5b610905600480803590602001909190505061276d565b005b341561091257600080fd5b61092860048080359060200190919050506131f7565b604051808273ffffffffffffffffffffffffffffffffffffffff1673ffffffffffffffffffffffffffffffffffffffff16815260200191505060405180910390f35b341561097557600080fd5b6109a1600480803573ffffffffffffffffffffffffffffffffffffffff16906020019091905050613236565b6040518082815260200191505060405180910390f35b34156109c257600080fd5b6109ca61324e565b604051808215151515815260200191505060405180910390f35b34156109ef57600080fd5b6109f7613261565b6040518082815260200191505060405180910390f35b3415610a1857600080fd5b610a2e6004808035906020019091905050613267565b604051808215151515815260200191505060405180910390f35b3415610a5357600080fd5b610a7f600480803573ffffffffffffffffffffffffffffffffffffffff169060200190919050506132de565b6040518080602001828103825283818151815260200191508051906020019060200280838360005b83811015610ac2578082015181840152602081019050610aa7565b505050509050019250505060405180910390f35b3415610ae157600080fd5b610ae961337b565b6040518082815260200191505060405180910390f35b3415610b0a57600080fd5b610b12613381565b604051808215151515815260200191505060405180910390f35b3415610b3757600080fd5b610b3f613394565b6040518082815260200191505060405180910390f35b3415610b6057600080fd5b610b6861339a565b604051808215151515815260200191505060405180910390f35b3415610b8d57600080fd5b610bb9600480803573ffffffffffffffffffffffffffffffffffffffff169060200190919050506133ad565b6040518080602001828103825283818151815260200191508051906020019060200280838360005b83811015610bfc578082015181840152602081019050610be1565b505050509050019250505060405180910390f35b3415610c1b57600080fd5b610c7160048080359060200190919080359060200190820180359060200190808060200260200160405190810160405280939291908181526020018383602002808284378201915050505050509190505061344a565b005b3415610c7e57600080fd5b610c946004808035906020019091905050613b56565b60405180851515151581526020018415151515815260200180602001838152602001828103825284818151815260200191508051906020019060200280838360005b83811015610cf1578082015181840152602081019050610cd6565b505050509050019550505050505060405180910390f35b3415610d1357600080fd5b610d1b613c97565b6040518082815260200191505060405180910390f35b3415610d3c57600080fd5b610d44613c9d565b6040518082815260200191505060405180910390f35b3415610d6557600080fd5b610de3600480803590602001909190803590602001908201803590602001908080601f016020809104026020016040519081016040528093929190818152602001838380828437820191505050505050919080356000191690602001909190803560ff1690602001909190803560ff16906020019091905050613ca3565b005b3415610df057600080fd5b610df8614304565b6040518080602001828103825283818151815260200191508051906020019060200280838360005b83811015610e3b578082015181840152602081019050610e20565b505050509050019250505060405180910390f35b3415610e5a57600080fd5b610e8f600480803573ffffffffffffffffffffffffffffffffffffffff16906020019091908035906020019091905050614398565b6040518082815260200191505060405180910390f35b3415610eb057600080fd5b610eb86143c9565b604051808215151515815260200191505060405180910390f35b3415610edd57600080fd5b610ef360048080359060200190919050506143dc565b604051808273ffffffffffffffffffffffffffffffffffffffff1673ffffffffffffffffffffffffffffffffffffffff16815260200191505060405180910390f35b3415610f4057600080fd5b610f4861441b565b604051808273ffffffffffffffffffffffffffffffffffffffff1673ffffffffffffffffffffffffffffffffffffffff16815260200191505060405180910390f35b601a60205281600052604060002081815481101515610fa557fe5b9060005260206000209001600091509150505481565b610fc3614441565b600080600080601586815481101515610fd857fe5b90600052602060002090600c0201600101601587815481101515610ff857fe5b90600052602060002090600c02016006015460158881548110151561101957fe5b90600052602060002090600c02016007015460158981548110151561103a57fe5b90600052602060002090600c02016008015460158a81548110151561105b57fe5b90600052602060002090600c020160050154848054600181600116156101000203166002900480601f0160208091040260200160405190810160405280929190818152602001828054600181600116156101000203166002900480156111025780601f106110d757610100808354040283529160200191611102565b820191906000526020600020905b8154815290600101906020018083116110e557829003601f168201915b505050505094509450945094509450945091939590929450565b60008060158381548110151561112e57fe5b90600052602060002090600c02016006015460158481548110151561114f57fe5b90600052602060002090600c02016008015491509150915091565b60055481565b60105481565b60095481565b611184614455565b601a60008373ffffffffffffffffffffffffffffffffffffffff1673ffffffffffffffffffffffffffffffffffffffff16815260200190815260200160002080548060200260200160405190810160405280929190818152602001828054801561120d57602002820191906000526020600020905b8154815260200190600101908083116111f9575b50505050509050919050565b600060158381548110151561122a57fe5b90600052602060002090600c020160090160019054906101000a900460ff16151561125457600080fd5b60158381548110151561126357fe5b90600052602060002090600c020160030160008373ffffffffffffffffffffffffffffffffffffffff1673ffffffffffffffffffffffffffffffffffffffff16815260200190815260200160002060030154905092915050565b600760009054906101000a900473ffffffffffffffffffffffffffffffffffffffff1681565b60006112ed614469565b6000801515601260009054906101000a900460ff16151514151561131057600080fd5b600a544211151561132057600080fd5b6000601580549050111561136a57601560145481548110151561133f57fe5b90600052602060002090600c020160090160009054906101000a900460ff16151561136957600080fd5b5b33826000019073ffffffffffffffffffffffffffffffffffffffff16908173ffffffffffffffffffffffffffffffffffffffff168152505083826020018190525042826080018181525050600e5442018260a0018181525050600c54600e544201018260c001818152505060008260e0019015159081151581525050600082610140018181525050600760009054906101000a900473ffffffffffffffffffffffffffffffffffffffff1690506011548173ffffffffffffffffffffffffffffffffffffffff1663234d34de6000604051602001526040518163ffffffff167c0100000000000000000000000000000000000000000000000000000000028152600401602060405180830381600087803b151561148657600080fd5b6102c65a03f1151561149757600080fd5b505050604051805190508115156114aa57fe5b048260600181815250506000826060015114156114cd5760018260600181815250505b60009050601580548060010182816114e591906144f0565b91600052602060002090600c0201600084909190915060008201518160000160006101000a81548173ffffffffffffffffffffffffffffffffffffffff021916908373ffffffffffffffffffffffffffffffffffffffff160217905550602082015181600101908051906020019061155e929190614522565b50604082015181600401908051906020019061157b9291906145a2565b50606082015181600501556080820151816006015560a0820151816007015560c0820151816008015560e08201518160090160006101000a81548160ff0219169083151502179055506101008201518160090160016101000a81548160ff02191690831515021790555061012082015181600a0190805190602001906116029291906145a2565b5061014082015181600b0155505050600160158054905003925060016013600082825401925050819055506001601260006101000a81548160ff0219169083151502179055506009544201600a81905550826014819055507fdb79682a2650346f5fbfd232c0059da59a89b2a64c3fb7d75ccf58ff939be0d5338584608001518560a001518660c0015188604051808773ffffffffffffffffffffffffffffffffffffffff1673ffffffffffffffffffffffffffffffffffffffff16815260200180602001868152602001858152602001848152602001838152602001828103825287818151815260200191508051906020019080838360005b838110156117175780820151818401526020810190506116fc565b50505050905090810190601f1680156117445780820380516001836020036101000a031916815260200191505b5097505050505050505060405180910390a1601760003373ffffffffffffffffffffffffffffffffffffffff1673ffffffffffffffffffffffffffffffffffffffff16815260200190815260200160002080548060010182816117a7919061462c565b9160005260206000209001600085909190915055508292505050919050565b600080600080600080600080600060158a8154811015156117e357fe5b90600052602060002090600c020160090160009054906101000a900460ff1615151561180e57600080fd5b4260158b81548110151561181e57fe5b90600052602060002090600c02016008015410151561183c57600080fd5b600060158b81548110151561184d57fe5b90600052602060002090600c020160040180549050148061188e5750600060158b81548110151561187a57fe5b90600052602060002090600c0201600b0154145b15611a355760014203600a819055506000601260006101000a81548160ff021916908315150217905550600160158b8154811015156118c957fe5b90600052602060002090600c020160090160006101000a81548160ff021916908315150217905550600160158b81548110151561190257fe5b90600052602060002090600c020160090160016101000a81548160ff0219169083151502179055507fd3844af45b09228a143d3e565e053517b81b3e6b1ee574de327db2ba09eebefe8a600160405180838152602001821515151581526020019250505060405180910390a1611a2f60158b81548110151561198057fe5b90600052602060002090600c02016001018054600181600116156101000203166002900480601f016020809104026020016040519081016040528092919081815260200182805460018160011615610100020316600290048015611a255780601f106119fa57610100808354040283529160200191611a25565b820191906000526020600020905b815481529060010190602001808311611a0857829003601f168201915b50505050506112e3565b50612506565b60158a815481101515611a4457fe5b90600052602060002090600c02016005015460158b815481101515611a6557fe5b90600052602060002090600c0201600401805490501015611ac95760158a815481101515611a8f57fe5b90600052602060002090600c02016004018054905060158b815481101515611ab357fe5b90600052602060002090600c0201600501819055505b7fffffffffffffffffffffffffffffffffffffffffffffffffffffffffffffffff9850600097506000965060009550600760009054906101000a900473ffffffffffffffffffffffffffffffffffffffff1694508473ffffffffffffffffffffffffffffffffffffffff1663234d34de6000604051602001526040518163ffffffff167c0100000000000000000000000000000000000000000000000000000000028152600401602060405180830381600087803b1515611b8957600080fd5b6102c65a03f11515611b9a57600080fd5b5050506040518051905060105402606460158c815481101515611bb957fe5b90600052602060002090600c0201600b0154021015611d7457600160158b815481101515611be357fe5b90600052602060002090600c020160090160016101000a81548160ff02191690831515021790555060014203600a819055506000601260006101000a81548160ff021916908315150217905550600160158b815481101515611c4157fe5b90600052602060002090600c020160090160006101000a81548160ff0219169083151502179055507fd3844af45b09228a143d3e565e053517b81b3e6b1ee574de327db2ba09eebefe8a600160405180838152602001821515151581526020019250505060405180910390a1611d6e60158b815481101515611cbf57fe5b90600052602060002090600c02016001018054600181600116156101000203166002900480601f016020809104026020016040519081016040528092919081815260200182805460018160011615610100020316600290048015611d645780601f10611d3957610100808354040283529160200191611d64565b820191906000526020600020905b815481529060010190602001808311611d4757829003601f168201915b50505050506112e3565b50612506565b60009450600093505b60158a815481101515611d8c57fe5b90600052602060002090600c0201600501548410156122b6576000975060009550600092505b60158a815481101515611dc157fe5b90600052602060002090600c020160040180549050831015611ffb5760158a815481101515611dec57fe5b90600052602060002090600c020160040183815481101515611e0a57fe5b906000526020600020900160009054906101000a900473ffffffffffffffffffffffffffffffffffffffff1691508860158b815481101515611e4857fe5b90600052602060002090600c020160030160008473ffffffffffffffffffffffffffffffffffffffff1673ffffffffffffffffffffffffffffffffffffffff16815260200190815260200160002060030154101515611ea657611fee565b8760158b815481101515611eb657fe5b90600052602060002090600c020160030160008473ffffffffffffffffffffffffffffffffffffffff1673ffffffffffffffffffffffffffffffffffffffff168152602001908152602001600020600301541115611f7d5760158a815481101515611f1d57fe5b90600052602060002090600c020160030160008373ffffffffffffffffffffffffffffffffffffffff1673ffffffffffffffffffffffffffffffffffffffff16815260200190815260200160002060030154975082955060009650611fed565b8760158b815481101515611f8d57fe5b90600052602060002090600c020160030160008473ffffffffffffffffffffffffffffffffffffffff1673ffffffffffffffffffffffffffffffffffffffff168152602001908152602001600020600301541415611fec576001870196505b5b5b8280600101935050611db2565b6000881415612009576122a6565b60008711156121cb57600090505b60158a81548110151561202657fe5b90600052602060002090600c0201600401805490508110156121c65760158a81548110151561205157fe5b90600052602060002090600c02016005015484101515612070576121b9565b8760158b81548110151561208057fe5b90600052602060002090600c020160030160008473ffffffffffffffffffffffffffffffffffffffff1673ffffffffffffffffffffffffffffffffffffffff1681526020019081526020016000206003015414156121b85760158a8154811015156120e757fe5b90600052602060002090600c0201600a01805480600101828161210a9190614658565b9160005260206000209001600060158d81548110151561212657fe5b90600052602060002090600c02016004018481548110151561214457fe5b906000526020600020900160009054906101000a900473ffffffffffffffffffffffffffffffffffffffff16909190916101000a81548173ffffffffffffffffffffffffffffffffffffffff021916908373ffffffffffffffffffffffffffffffffffffffff160217905550506001840193505b5b8080600101915050612017565b6122a5565b60158a8154811015156121da57fe5b90600052602060002090600c0201600a0180548060010182816121fd9190614658565b9160005260206000209001600060158d81548110151561221957fe5b90600052602060002090600c02016004018981548110151561223757fe5b906000526020600020900160009054906101000a900473ffffffffffffffffffffffffffffffffffffffff16909190916101000a81548173ffffffffffffffffffffffffffffffffffffffff021916908373ffffffffffffffffffffffffffffffffffffffff160217905550505b5b8798508380600101945050611d7d565b600160158b8154811015156122c757fe5b90600052602060002090600c020160090160006101000a81548160ff0219169083151502179055506000601260006101000a81548160ff0219169083151502179055507f6a6e9488d1e543a71df6a63c3b9ef8b855bca0541ba53a29c0ea65d1e0cfebb38a60158c81548110151561233b57fe5b90600052602060002090600c020160040160158d81548110151561235b57fe5b90600052602060002090600c0201600a0160158e81548110151561237b57fe5b90600052602060002090600c0201600b0154604051808581526020018060200180602001848152602001838103835286818154815260200191508054801561241857602002820191906000526020600020905b8160009054906101000a900473ffffffffffffffffffffffffffffffffffffffff1673ffffffffffffffffffffffffffffffffffffffff16815260200190600101908083116123ce575b5050838103825285818154815260200191508054801561248d57602002820191906000526020600020905b8160009054906101000a900473ffffffffffffffffffffffffffffffffffffffff1673ffffffffffffffffffffffffffffffffffffffff1681526020019060010190808311612443575b5050965050505050505060405180910390a1601960003373ffffffffffffffffffffffffffffffffffffffff1673ffffffffffffffffffffffffffffffffffffffff16815260200190815260200160002080548060010182816124f0919061462c565b916000526020600020900160008c909190915055505b50505050505050505050565b60115481565b60186020528160005260406000208181548110151561253357fe5b9060005260206000209001600091509150505481565b60158181548110151561255857fe5b90600052602060002090600c02016000915090508060000160009054906101000a900473ffffffffffffffffffffffffffffffffffffffff169080600101908060050154908060060154908060070154908060080154908060090160009054906101000a900460ff16908060090160019054906101000a900460ff169080600b0154905089565b60005481565b6125ed614684565b6015828154811015156125fc57fe5b90600052602060002090600c020160040180548060200260200160405190810160405280929190818152602001828054801561268d57602002820191906000526020600020905b8160009054906101000a900473ffffffffffffffffffffffffffffffffffffffff1673ffffffffffffffffffffffffffffffffffffffff1681526020019060010190808311612643575b50505050509050919050565b60145481565b6017602052816000526040600020818154811015156126ba57fe5b9060005260206000209001600091509150505481565b6126d8614455565b601860008373ffffffffffffffffffffffffffffffffffffffff1673ffffffffffffffffffffffffffffffffffffffff16815260200190815260200160002080548060200260200160405190810160405280929190818152602001828054801561276157602002820191906000526020600020905b81548152602001906001019080831161274d575b50505050509050919050565b600080600061277a614698565b60158581548110151561278957fe5b90600052602060002090600c020160090160019054906101000a900460ff161515156127b457600080fd5b6015858154811015156127c357fe5b90600052602060002090600c020160090160009054906101000a900460ff1615156127ed57600080fd5b6009546015868154811015156127ff57fe5b90600052602060002090600c0201600601540142111561289b57600160158681548110151561282a57fe5b90600052602060002090600c020160090160016101000a81548160ff0219169083151502179055507fd3844af45b09228a143d3e565e053517b81b3e6b1ee574de327db2ba09eebefe85600060405180838152602001821515151581526020019250505060405180910390a16131f0565b600660009054906101000a900473ffffffffffffffffffffffffffffffffffffffff16935060016013541115612aa157600092505b600b80549050831015612aa0578373ffffffffffffffffffffffffffffffffffffffff16630e9defff8573ffffffffffffffffffffffffffffffffffffffff16635549ea51600b8781548110151561292457fe5b906000526020600020900160009054906101000a900473ffffffffffffffffffffffffffffffffffffffff166000604051602001526040518263ffffffff167c0100000000000000000000000000000000000000000000000000000000028152600401808273ffffffffffffffffffffffffffffffffffffffff1673ffffffffffffffffffffffffffffffffffffffff168152602001915050602060405180830381600087803b15156129d657600080fd5b6102c65a03f115156129e757600080fd5b505050604051805190506040518263ffffffff167c010000000000000000000000000000000000000000000000000000000002815260040180828152602001915050600060405180830381600087803b1515612a4257600080fd5b6102c65a03f11515612a5357600080fd5b505050600b83815481101515612a6557fe5b906000526020600020900160006101000a81549073ffffffffffffffffffffffffffffffffffffffff021916905582806001019350506128d0565b5b600091505b601585815481101515612ab557fe5b90600052602060002090600c0201600a018054905082101561307e57601585815481101515612ae057fe5b90600052602060002090600c02016003016000601587815481101515612b0257fe5b90600052602060002090600c0201600a0184815481101515612b2057fe5b906000526020600020900160009054906101000a900473ffffffffffffffffffffffffffffffffffffffff1673ffffffffffffffffffffffffffffffffffffffff1673ffffffffffffffffffffffffffffffffffffffff16815260200190815260200160002060a06040519081016040529081600082018054600181600116156101000203166002900480601f016020809104026020016040519081016040528092919081815260200182805460018160011615610100020316600290048015612c2b5780601f10612c0057610100808354040283529160200191612c2b565b820191906000526020600020905b815481529060010190602001808311612c0e57829003601f168201915b505050505081526020016001820154600019166000191681526020016002820160009054906101000a900460ff1660ff1660ff1681526020016002820160019054906101000a900460ff1660ff1660ff16815260200160038201548152505090508373ffffffffffffffffffffffffffffffffffffffff1663696c5219601587815481101515612cb757fe5b90600052602060002090600c0201600a0184815481101515612cd557fe5b906000526020600020900160009054906101000a900473ffffffffffffffffffffffffffffffffffffffff1683600001518460200151856040015186606001516000604051602001526040518663ffffffff167c0100000000000000000000000000000000000000000000000000000000028152600401808673ffffffffffffffffffffffffffffffffffffffff1673ffffffffffffffffffffffffffffffffffffffff1681526020018060200185600019166000191681526020018460ff1660ff1681526020018360ff1660ff168152602001828103825286818151815260200191508051906020019080838360005b83811015612de1578082015181840152602081019050612dc6565b50505050905090810190601f168015612e0e5780820380516001836020036101000a031916815260200191505b509650505050505050602060405180830381600087803b1515612e3057600080fd5b6102c65a03f11515612e4157600080fd5b5050506040518051905050600160166000601588815481101515612e6157fe5b90600052602060002090600c0201600a0185815481101515612e7f57fe5b906000526020600020900160009054906101000a900473ffffffffffffffffffffffffffffffffffffffff1673ffffffffffffffffffffffffffffffffffffffff1673ffffffffffffffffffffffffffffffffffffffff16815260200190815260200160002060008282540192505081905550600b80549050821015612fb557601585815481101515612f0e57fe5b90600052602060002090600c0201600a0182815481101515612f2c57fe5b906000526020600020900160009054906101000a900473ffffffffffffffffffffffffffffffffffffffff16600b83815481101515612f6757fe5b906000526020600020900160006101000a81548173ffffffffffffffffffffffffffffffffffffffff021916908373ffffffffffffffffffffffffffffffffffffffff160217905550613071565b600b8054806001018281612fc99190614658565b91600052602060002090016000601588815481101515612fe557fe5b90600052602060002090600c0201600a018581548110151561300357fe5b906000526020600020900160009054906101000a900473ffffffffffffffffffffffffffffffffffffffff16909190916101000a81548173ffffffffffffffffffffffffffffffffffffffff021916908373ffffffffffffffffffffffffffffffffffffffff160217905550505b8180600101925050612aa6565b600160158681548110151561308f57fe5b90600052602060002090600c020160090160016101000a81548160ff021916908315150217905550601a60003373ffffffffffffffffffffffffffffffffffffffff1673ffffffffffffffffffffffffffffffffffffffff1681526020019081526020016000208054806001018281613108919061462c565b9160005260206000209001600087909190915055507feaab7a5bfae8aa5ea8ea163762c60c8863cfea36cff6674f02eff6509623474160158681548110151561314d57fe5b90600052602060002090600c0201600a0186604051808060200183815260200182810382528481815481526020019150805480156131e057602002820191906000526020600020905b8160009054906101000a900473ffffffffffffffffffffffffffffffffffffffff1673ffffffffffffffffffffffffffffffffffffffff1681526020019060010190808311613196575b5050935050505060405180910390a15b5050505050565b600b8181548110151561320657fe5b90600052602060002090016000915054906101000a900473ffffffffffffffffffffffffffffffffffffffff1681565b60166020528060005260406000206000915090505481565b600460009054906101000a900460ff1681565b600c5481565b600060158281548110151561327857fe5b90600052602060002090600c020160020160003373ffffffffffffffffffffffffffffffffffffffff1673ffffffffffffffffffffffffffffffffffffffff16815260200190815260200160002060000160009054906101000a900460ff169050919050565b6132e6614455565b601960008373ffffffffffffffffffffffffffffffffffffffff1673ffffffffffffffffffffffffffffffffffffffff16815260200190815260200160002080548060200260200160405190810160405280929190818152602001828054801561336f57602002820191906000526020600020905b81548152602001906001019080831161335b575b50505050509050919050565b600e5481565b601260009054906101000a900460ff1681565b60135481565b600d60009054906101000a900460ff1681565b6133b5614455565b601760008373ffffffffffffffffffffffffffffffffffffffff1673ffffffffffffffffffffffffffffffffffffffff16815260200190815260200160002080548060200260200160405190810160405280929190818152602001828054801561343e57602002820191906000526020600020905b81548152602001906001019080831161342a575b50505050509050919050565b600080600760009054906101000a900473ffffffffffffffffffffffffffffffffffffffff1691508173ffffffffffffffffffffffffffffffffffffffff1663d323a4f8336000604051602001526040518263ffffffff167c0100000000000000000000000000000000000000000000000000000000028152600401808273ffffffffffffffffffffffffffffffffffffffff1673ffffffffffffffffffffffffffffffffffffffff168152602001915050602060405180830381600087803b151561351557600080fd5b6102c65a03f1151561352657600080fd5b50505060405180519050151561353b57600080fd5b6000915060158481548110151561354e57fe5b90600052602060002090600c020160020160003373ffffffffffffffffffffffffffffffffffffffff1673ffffffffffffffffffffffffffffffffffffffff16815260200190815260200160002060000160009054906101000a900460ff161515156135b957600080fd5b6015848154811015156135c857fe5b90600052602060002090600c020160090160009054906101000a900460ff161515156135f357600080fd5b4260158581548110151561360357fe5b90600052602060002090600c02016007015410151561362157600080fd5b4260158581548110151561363157fe5b90600052602060002090600c02016008015411151561364f57600080fd5b600160158581548110151561366057fe5b90600052602060002090600c02016005015401835110151561368157600080fd5b6000835111151561369157600080fd5b600090505b82518110156139d7576015848154811015156136ae57fe5b90600052602060002090600c020160020160003373ffffffffffffffffffffffffffffffffffffffff1673ffffffffffffffffffffffffffffffffffffffff1681526020019081526020016000206001016000848381518110151561370f57fe5b9060200190602002015173ffffffffffffffffffffffffffffffffffffffff1673ffffffffffffffffffffffffffffffffffffffff16815260200190815260200160002060009054906101000a900460ff1615151561376d57600080fd5b60158481548110151561377c57fe5b90600052602060002090600c02016002016000848381518110151561379d57fe5b9060200190602002015173ffffffffffffffffffffffffffffffffffffffff1673ffffffffffffffffffffffffffffffffffffffff16815260200190815260200160002060000160019054906101000a900460ff1615613970578060158581548110151561380757fe5b90600052602060002090600c0201600501540360158581548110151561382957fe5b90600052602060002090600c02016003016000858481518110151561384a57fe5b9060200190602002015173ffffffffffffffffffffffffffffffffffffffff1673ffffffffffffffffffffffffffffffffffffffff1681526020019081526020016000206003016000828254019250508190555060016015858154811015156138af57fe5b90600052602060002090600c020160020160003373ffffffffffffffffffffffffffffffffffffffff1673ffffffffffffffffffffffffffffffffffffffff1681526020019081526020016000206001016000858481518110151561391057fe5b9060200190602002015173ffffffffffffffffffffffffffffffffffffffff1673ffffffffffffffffffffffffffffffffffffffff16815260200190815260200160002060006101000a81548160ff0219169083151502179055506139ca565b600160158581548110151561398157fe5b90600052602060002090600c020160030160008073ffffffffffffffffffffffffffffffffffffffff168152602001908152602001600020600301600082825401925050819055505b8080600101915050613696565b60016015858154811015156139e857fe5b90600052602060002090600c020160020160003373ffffffffffffffffffffffffffffffffffffffff1673ffffffffffffffffffffffffffffffffffffffff16815260200190815260200160002060000160006101000a81548160ff0219169083151502179055506001601585815481101515613a6157fe5b90600052602060002090600c0201600b0160008282540192505081905550601860003373ffffffffffffffffffffffffffffffffffffffff1673ffffffffffffffffffffffffffffffffffffffff1681526020019081526020016000208054806001018281613ad0919061462c565b9160005260206000209001600086909190915055507f64bbf4ffdc825afb14eb0f410f1141b85c43dfa5ee8ae25eb7cdf85ec997cd8f3385604051808373ffffffffffffffffffffffffffffffffffffffff1673ffffffffffffffffffffffffffffffffffffffff1681526020018281526020019250505060405180910390a150505050565b600080613b61614684565b6000601585815481101515613b7257fe5b90600052602060002090600c020160090160009054906101000a900460ff16601586815481101515613ba057fe5b90600052602060002090600c020160090160019054906101000a900460ff16601587815481101515613bce57fe5b90600052602060002090600c0201600a01601588815481101515613bee57fe5b90600052602060002090600c0201600b015481805480602002602001604051908101604052809291908181526020018280548015613c8157602002820191906000526020600020905b8160009054906101000a900473ffffffffffffffffffffffffffffffffffffffff1673ffffffffffffffffffffffffffffffffffffffff1681526020019060010190808311613c37575b5050505050915093509350935093509193509193565b600a5481565b600f5481565b6000600760009054906101000a900473ffffffffffffffffffffffffffffffffffffffff1690508073ffffffffffffffffffffffffffffffffffffffff1663d323a4f8336000604051602001526040518263ffffffff167c0100000000000000000000000000000000000000000000000000000000028152600401808273ffffffffffffffffffffffffffffffffffffffff1673ffffffffffffffffffffffffffffffffffffffff168152602001915050602060405180830381600087803b1515613d6d57600080fd5b6102c65a03f11515613d7e57600080fd5b505050604051805190501515613d9357600080fd5b60009050601586815481101515613da657fe5b90600052602060002090600c020160090160009054906101000a900460ff16151515613dd157600080fd5b42601587815481101515613de157fe5b90600052602060002090600c020160070154111515613dff57600080fd5b600f54601660003373ffffffffffffffffffffffffffffffffffffffff1673ffffffffffffffffffffffffffffffffffffffff16815260200190815260200160002054101515613e4e57600080fd5b601586815481101515613e5d57fe5b90600052602060002090600c020160020160003373ffffffffffffffffffffffffffffffffffffffff1673ffffffffffffffffffffffffffffffffffffffff16815260200190815260200160002060000160019054906101000a900460ff16151515613ec857600080fd5b601586815481101515613ed757fe5b90600052602060002090600c02016004018054806001018281613efa9190614658565b9160005260206000209001600033909190916101000a81548173ffffffffffffffffffffffffffffffffffffffff021916908373ffffffffffffffffffffffffffffffffffffffff160217905550506001601587815481101515613f5a57fe5b90600052602060002090600c020160020160003373ffffffffffffffffffffffffffffffffffffffff1673ffffffffffffffffffffffffffffffffffffffff16815260200190815260200160002060000160016101000a81548160ff02191690831515021790555084601587815481101515613fd257fe5b90600052602060002090600c020160030160003373ffffffffffffffffffffffffffffffffffffffff1673ffffffffffffffffffffffffffffffffffffffff16815260200190815260200160002060000190805190602001906140369291906146d7565b508360158781548110151561404757fe5b90600052602060002090600c020160030160003373ffffffffffffffffffffffffffffffffffffffff1673ffffffffffffffffffffffffffffffffffffffff1681526020019081526020016000206001018160001916905550826015878154811015156140b057fe5b90600052602060002090600c020160030160003373ffffffffffffffffffffffffffffffffffffffff1673ffffffffffffffffffffffffffffffffffffffff16815260200190815260200160002060020160006101000a81548160ff021916908360ff1602179055508160158781548110151561412957fe5b90600052602060002090600c020160030160003373ffffffffffffffffffffffffffffffffffffffff1673ffffffffffffffffffffffffffffffffffffffff16815260200190815260200160002060020160016101000a81548160ff021916908360ff16021790555060006015878154811015156141a357fe5b90600052602060002090600c020160030160003373ffffffffffffffffffffffffffffffffffffffff1673ffffffffffffffffffffffffffffffffffffffff168152602001908152602001600020600301819055507ff8889d073f0366f70b5fd3ef060e300b4071afc6e31d114717b21bf374f270eb863387878787604051808781526020018673ffffffffffffffffffffffffffffffffffffffff1673ffffffffffffffffffffffffffffffffffffffff1681526020018060200185600019166000191681526020018460ff1660ff1681526020018360ff1660ff168152602001828103825286818151815260200191508051906020019080838360005b838110156142bd5780820151818401526020810190506142a2565b50505050905090810190601f1680156142ea5780820380516001836020036101000a031916815260200191505b5097505050505050505060405180910390a1505050505050565b61430c614684565b600880548060200260200160405190810160405280929190818152602001828054801561438e57602002820191906000526020600020905b8160009054906101000a900473ffffffffffffffffffffffffffffffffffffffff1673ffffffffffffffffffffffffffffffffffffffff1681526020019060010190808311614344575b5050505050905090565b6019602052816000526040600020818154811015156143b357fe5b9060005260206000209001600091509150505481565b600460019054906101000a900460ff1681565b6008818154811015156143eb57fe5b90600052602060002090016000915054906101000a900473ffffffffffffffffffffffffffffffffffffffff1681565b600660009054906101000a900473ffffffffffffffffffffffffffffffffffffffff1681565b602060405190810160405280600081525090565b602060405190810160405280600081525090565b61016060405190810160405280600073ffffffffffffffffffffffffffffffffffffffff16815260200161449b614757565b81526020016144a861476b565b8152602001600081526020016000815260200160008152602001600081526020016000151581526020016000151581526020016144e361476b565b8152602001600081525090565b81548183558181151161451d57600c0281600c02836000526020600020918201910161451c919061477f565b5b505050565b828054600181600116156101000203166002900490600052602060002090601f016020900481019282601f1061456357805160ff1916838001178555614591565b82800160010185558215614591579182015b82811115614590578251825591602001919060010190614575565b5b50905061459e9190614845565b5090565b82805482825590600052602060002090810192821561461b579160200282015b8281111561461a5782518260006101000a81548173ffffffffffffffffffffffffffffffffffffffff021916908373ffffffffffffffffffffffffffffffffffffffff160217905550916020019190600101906145c2565b5b509050614628919061486a565b5090565b815481835581811511614653578183600052602060002091820191016146529190614845565b5b505050565b81548183558181151161467f5781836000526020600020918201910161467e9190614845565b5b505050565b602060405190810160405280600081525090565b60a0604051908101604052806146ac614757565b815260200160008019168152602001600060ff168152602001600060ff168152602001600081525090565b828054600181600116156101000203166002900490600052602060002090601f016020900481019282601f1061471857805160ff1916838001178555614746565b82800160010185558215614746579182015b8281111561474557825182559160200191906001019061472a565b5b5090506147539190614845565b5090565b602060405190810160405280600081525090565b602060405190810160405280600081525090565b61484291905b8082111561483e57600080820160006101000a81549073ffffffffffffffffffffffffffffffffffffffff02191690556001820160006147c591906148ad565b6004820160006147d591906148f5565b60058201600090556006820160009055600782016000905560088201600090556009820160006101000a81549060ff02191690556009820160016101000a81549060ff0219169055600a8201600061482d91906148f5565b600b82016000905550600c01614785565b5090565b90565b61486791905b8082111561486357600081600090555060010161484b565b5090565b90565b6148aa91905b808211156148a657600081816101000a81549073ffffffffffffffffffffffffffffffffffffffff021916905550600101614870565b5090565b90565b50805460018160011615610100020316600290046000825580601f106148d357506148f2565b601f0160209004906000526020600020908101906148f19190614845565b5b50565b50805460008255906000526020600020908101906149139190614845565b505600a165627a7a72305820c528974359cc9030f1f88868c2a4215e22ab9cfc109ccc25110cf31a30afa4fb0029",
  "source": "pragma solidity ^0.4.11;\n\n// Standard contract for a presidential election procedure\n\nimport \"../standardProcedure.sol\";\nimport \"../standardOrgan.sol\";\nimport \"../procedures/cyclicalManyToManyElectionProcedure.sol\";\n\n\n\n\ncontract deployCyclicalManyToManyElectionProcedure is cyclicalManyToManyElectionProcedure {\n\n    function deployCyclicalManyToManyElectionProcedure (address _referenceOrganContract, address _affectedOrganContract) public {\n    //     // Variables for Presidential election\n    // voterRegistry = 0x0000;\n    // quorumSize = 40;\n    // ballotDuration = 7 days;\n    // candidacyDuration = 7 days;\n    // ballotFrequency = 2 years;\n    // nextElectionDate = now;\n    // neutralVoteAccepted = true;\n    // reelectionMaximum = 2;\n    // totalBallotNumber = 0;\n\n        // Variables for testing\n        // Adress of voter registry organ\n    referenceOrganContract = _referenceOrganContract;\n    // Adress of president registry organ\n    affectedOrganContract = _affectedOrganContract;\n\n    linkedOrgans = [referenceOrganContract,affectedOrganContract];\n\n    quorumSize = 40;\n    ballotDuration = 3 minutes;\n    candidacyDuration = 3 minutes;\n    ballotFrequency = 9 minutes;\n    // ballotDuration = 10 seconds;\n    // candidacyDuration = 10 seconds;\n    // ballotFrequency = 30 seconds;\n\n    nextElectionDate = now;\n    neutralVoteAccepted = true;\n    reelectionMaximum = 2;\n    totalBallotNumber = 0;\n    voterToCandidateRatio = 2;\n\n    kelsenVersionNumber = 1;\n    lastElectionNumber = 0;\n    }\n}\n",
  "sourcePath": "/Users/henrilieutaud/Documents/Mes documents/97/Workshop/Kelsen/solidity/contracts/deploy/deployCyclicalManyToManyElectionProcedure.sol",
  "compiler": {
    "name": "solc",
    "version": "0.4.19+commit.c4cbbb05.Emscripten.clang"
  },
  "schemaVersion": "2.0.0",
  "updatedAt": "2018-05-14T16:41:34.546Z"
}