{
  "contractName": "depositFundsProcedure",
  "abi": [
    {
      "constant": true,
      "inputs": [
        {
          "name": "",
          "type": "address"
        }
      ],
      "name": "amountDepositedToReceiverAddress",
      "outputs": [
        {
          "name": "",
          "type": "uint256"
        }
      ],
      "payable": false,
      "stateMutability": "view",
      "type": "function"
    },
    {
      "constant": true,
      "inputs": [],
      "name": "procedureTypeNumber",
      "outputs": [
        {
          "name": "",
          "type": "int256"
        }
      ],
      "payable": false,
      "stateMutability": "view",
      "type": "function"
    },
    {
      "constant": true,
      "inputs": [],
      "name": "defaultReceivingOrganContract",
      "outputs": [
        {
          "name": "",
          "type": "address"
        }
      ],
      "payable": false,
      "stateMutability": "view",
      "type": "function"
    },
    {
      "constant": true,
      "inputs": [],
      "name": "kelsenVersionNumber",
      "outputs": [
        {
          "name": "",
          "type": "int256"
        }
      ],
      "payable": false,
      "stateMutability": "view",
      "type": "function"
    },
    {
      "constant": true,
      "inputs": [],
      "name": "authorizedDepositorsOrganContract",
      "outputs": [
        {
          "name": "",
          "type": "address"
        }
      ],
      "payable": false,
      "stateMutability": "view",
      "type": "function"
    },
    {
      "constant": true,
      "inputs": [
        {
          "name": "",
          "type": "address"
        }
      ],
      "name": "amountDepositedByDepositorAddress",
      "outputs": [
        {
          "name": "",
          "type": "uint256"
        }
      ],
      "payable": false,
      "stateMutability": "view",
      "type": "function"
    },
    {
      "constant": true,
      "inputs": [],
      "name": "isAnOrgan",
      "outputs": [
        {
          "name": "",
          "type": "bool"
        }
      ],
      "payable": false,
      "stateMutability": "view",
      "type": "function"
    },
    {
      "constant": true,
      "inputs": [],
      "name": "isAProcedure",
      "outputs": [
        {
          "name": "",
          "type": "bool"
        }
      ],
      "payable": false,
      "stateMutability": "view",
      "type": "function"
    },
    {
      "constant": true,
      "inputs": [
        {
          "name": "",
          "type": "uint256"
        }
      ],
      "name": "linkedOrgans",
      "outputs": [
        {
          "name": "",
          "type": "address"
        }
      ],
      "payable": false,
      "stateMutability": "view",
      "type": "function"
    },
    {
      "payable": true,
      "stateMutability": "payable",
      "type": "fallback"
    },
    {
      "anonymous": false,
      "inputs": [
        {
          "indexed": false,
          "name": "_from",
          "type": "address"
        },
        {
          "indexed": false,
          "name": "_payoutAddress",
          "type": "address"
        },
        {
          "indexed": false,
          "name": "_amount",
          "type": "uint256"
        }
      ],
      "name": "depositedFunds",
      "type": "event"
    },
    {
      "constant": false,
      "inputs": [
        {
          "name": "_targetOrgan",
          "type": "address"
        }
      ],
      "name": "depositToOrgan",
      "outputs": [],
      "payable": true,
      "stateMutability": "payable",
      "type": "function"
    },
    {
      "constant": true,
      "inputs": [
        {
          "name": "_userAddress",
          "type": "address"
        }
      ],
      "name": "getFundsDepositedByUser",
      "outputs": [
        {
          "name": "",
          "type": "uint256"
        }
      ],
      "payable": false,
      "stateMutability": "view",
      "type": "function"
    },
    {
      "constant": true,
      "inputs": [
        {
          "name": "_organAddress",
          "type": "address"
        }
      ],
      "name": "getFundsDepositedToOrgan",
      "outputs": [
        {
          "name": "",
          "type": "uint256"
        }
      ],
      "payable": false,
      "stateMutability": "view",
      "type": "function"
    },
    {
      "constant": true,
      "inputs": [],
      "name": "getLinkedOrgans",
      "outputs": [
        {
          "name": "_linkedOrgans",
          "type": "address[]"
        }
      ],
      "payable": false,
      "stateMutability": "view",
      "type": "function"
    }
  ],
  "bytecode": "0x60606040526000600460006101000a81548160ff0219169083151502179055506001600460016101000a81548160ff0219169083151502179055506009600555341561004a57600080fd5b610c6a806100596000396000f3006060604052600436106100c5576000357c0100000000000000000000000000000000000000000000000000000000900463ffffffff1680630ef63945146103de5780632403afe71461042b5780632647d7f9146104785780634499fa0e146104a15780635dbe4d28146104f65780636a91ec1a1461051f578063791854d61461056c57806386042717146105c1578063a3ffea82146105ef578063a8bef97a1461063c578063e570050114610669578063e80b30a5146106d3578063f2edc61614610700575b6000600660009054906101000a900473ffffffffffffffffffffffffffffffffffffffff1690506000600660009054906101000a900473ffffffffffffffffffffffffffffffffffffffff1673ffffffffffffffffffffffffffffffffffffffff161415156101f8578073ffffffffffffffffffffffffffffffffffffffff1663d323a4f8336000604051602001526040518263ffffffff167c0100000000000000000000000000000000000000000000000000000000028152600401808273ffffffffffffffffffffffffffffffffffffffff1673ffffffffffffffffffffffffffffffffffffffff168152602001915050602060405180830381600087803b15156101d157600080fd5b6102c65a03f115156101e257600080fd5b5050506040518051905015156101f757600080fd5b5b60009050600760009054906101000a900473ffffffffffffffffffffffffffffffffffffffff1673ffffffffffffffffffffffffffffffffffffffff166108fc349081150290604051600060405180830381858888f19350505050151561025e57600080fd5b34600960003373ffffffffffffffffffffffffffffffffffffffff1673ffffffffffffffffffffffffffffffffffffffff1681526020019081526020016000206000828254019250508190555034600a6000600760009054906101000a900473ffffffffffffffffffffffffffffffffffffffff1673ffffffffffffffffffffffffffffffffffffffff1673ffffffffffffffffffffffffffffffffffffffff168152602001908152602001600020600082825401925050819055507f9ba2320cd77403ddf10e62bb77145a1658f32e86971f41eef53b724d39bcb0a833600760009054906101000a900473ffffffffffffffffffffffffffffffffffffffff1634604051808473ffffffffffffffffffffffffffffffffffffffff1673ffffffffffffffffffffffffffffffffffffffff1681526020018373ffffffffffffffffffffffffffffffffffffffff1673ffffffffffffffffffffffffffffffffffffffff168152602001828152602001935050505060405180910390a150005b34156103e957600080fd5b610415600480803573ffffffffffffffffffffffffffffffffffffffff16906020019091905050610763565b6040518082815260200191505060405180910390f35b341561043657600080fd5b610462600480803573ffffffffffffffffffffffffffffffffffffffff1690602001909190505061077b565b6040518082815260200191505060405180910390f35b341561048357600080fd5b61048b6107c4565b6040518082815260200191505060405180910390f35b34156104ac57600080fd5b6104b46107ca565b604051808273ffffffffffffffffffffffffffffffffffffffff1673ffffffffffffffffffffffffffffffffffffffff16815260200191505060405180910390f35b341561050157600080fd5b6105096107f0565b6040518082815260200191505060405180910390f35b341561052a57600080fd5b610556600480803573ffffffffffffffffffffffffffffffffffffffff169060200190919050506107f6565b6040518082815260200191505060405180910390f35b341561057757600080fd5b61057f61083f565b604051808273ffffffffffffffffffffffffffffffffffffffff1673ffffffffffffffffffffffffffffffffffffffff16815260200191505060405180910390f35b6105ed600480803573ffffffffffffffffffffffffffffffffffffffff16906020019091905050610865565b005b34156105fa57600080fd5b610626600480803573ffffffffffffffffffffffffffffffffffffffff16906020019091905050610b19565b6040518082815260200191505060405180910390f35b341561064757600080fd5b61064f610b31565b604051808215151515815260200191505060405180910390f35b341561067457600080fd5b61067c610b44565b6040518080602001828103825283818151815260200191508051906020019060200280838360005b838110156106bf5780820151818401526020810190506106a4565b505050509050019250505060405180910390f35b34156106de57600080fd5b6106e6610bd8565b604051808215151515815260200191505060405180910390f35b341561070b57600080fd5b6107216004808035906020019091905050610beb565b604051808273ffffffffffffffffffffffffffffffffffffffff1673ffffffffffffffffffffffffffffffffffffffff16815260200191505060405180910390f35b600a6020528060005260406000206000915090505481565b6000600a60008373ffffffffffffffffffffffffffffffffffffffff1673ffffffffffffffffffffffffffffffffffffffff168152602001908152602001600020549050919050565b60055481565b600760009054906101000a900473ffffffffffffffffffffffffffffffffffffffff1681565b60005481565b6000600960008373ffffffffffffffffffffffffffffffffffffffff1673ffffffffffffffffffffffffffffffffffffffff168152602001908152602001600020549050919050565b600660009054906101000a900473ffffffffffffffffffffffffffffffffffffffff1681565b6000600660009054906101000a900473ffffffffffffffffffffffffffffffffffffffff1690506000600660009054906101000a900473ffffffffffffffffffffffffffffffffffffffff1673ffffffffffffffffffffffffffffffffffffffff16141515610998578073ffffffffffffffffffffffffffffffffffffffff1663d323a4f8336000604051602001526040518263ffffffff167c0100000000000000000000000000000000000000000000000000000000028152600401808273ffffffffffffffffffffffffffffffffffffffff1673ffffffffffffffffffffffffffffffffffffffff168152602001915050602060405180830381600087803b151561097157600080fd5b6102c65a03f1151561098257600080fd5b50505060405180519050151561099757600080fd5b5b600090508173ffffffffffffffffffffffffffffffffffffffff166108fc349081150290604051600060405180830381858888f1935050505015156109dc57600080fd5b34600960003373ffffffffffffffffffffffffffffffffffffffff1673ffffffffffffffffffffffffffffffffffffffff1681526020019081526020016000206000828254019250508190555034600a60008473ffffffffffffffffffffffffffffffffffffffff1673ffffffffffffffffffffffffffffffffffffffff168152602001908152602001600020600082825401925050819055507f9ba2320cd77403ddf10e62bb77145a1658f32e86971f41eef53b724d39bcb0a8338334604051808473ffffffffffffffffffffffffffffffffffffffff1673ffffffffffffffffffffffffffffffffffffffff1681526020018373ffffffffffffffffffffffffffffffffffffffff1673ffffffffffffffffffffffffffffffffffffffff168152602001828152602001935050505060405180910390a15050565b60096020528060005260406000206000915090505481565b600460009054906101000a900460ff1681565b610b4c610c2a565b6008805480602002602001604051908101604052809291908181526020018280548015610bce57602002820191906000526020600020905b8160009054906101000a900473ffffffffffffffffffffffffffffffffffffffff1673ffffffffffffffffffffffffffffffffffffffff1681526020019060010190808311610b84575b5050505050905090565b600460019054906101000a900460ff1681565b600881815481101515610bfa57fe5b90600052602060002090016000915054906101000a900473ffffffffffffffffffffffffffffffffffffffff1681565b6020604051908101604052806000815250905600a165627a7a7230582052c1906490d1ca7d74b7f5a03ea88a08365a236994e38f8c3b7da1c732ba18cd0029",
  "source": "pragma solidity ^0.4.11;\n\n// Standard contract for promulgation of a norm\n\nimport \"../standardProcedure.sol\";\nimport \"../standardOrgan.sol\";\n\n\ncontract depositFundsProcedure is Procedure{\n    // 1: Cyclical many to one election (Presidential Election)\n    // 2: Cyclical many to many election (Moderators Election)\n    // 3: Simple norm nomination \n    // 4: Simple admins and master nomination\n    // 5: Vote on Norms \n    // 6: Vote on masters and admins \n    // 7: Cooptation\n    // 8: Vote on an expense\n    // 9: Deposit funds on an organ\n    int public procedureTypeNumber = 9;\n\n    // Where are authorized depositors registered. If authorizedDepositorsOrganContract is set to 0, anyone can deposit funds\n    address public authorizedDepositorsOrganContract;\n\n    // Default organ to which deposits are sent\n    address public defaultReceivingOrganContract;\n\n    // Gathering connected organs for easier DAO mapping\n    address[] public linkedOrgans;\n\n    // Mapping each proposition to the user creating it\n    mapping (address => uint) public amountDepositedByDepositorAddress;    \n\n    // Mapping each proposition to the user who participated\n    mapping (address => uint) public amountDepositedToReceiverAddress;\n\n    // Events\n    event depositedFunds(address _from, address _payoutAddress, uint _amount);\n\n    function () public payable {\n\n        // Instanciating Organ\n        Organ authorizedDepositorsOrgan = Organ(authorizedDepositorsOrganContract);\n\n        // Checking if depositors are restricted\n        if (authorizedDepositorsOrganContract != 0x0000) {\n\n            require(authorizedDepositorsOrgan.isNorm(msg.sender));\n            \n        }\n\n        delete authorizedDepositorsOrgan;\n\n        // Sending funds to organ\n        defaultReceivingOrganContract.transfer(msg.value);\n\n        // Recording value transfer\n        amountDepositedByDepositorAddress[msg.sender] += msg.value;\n        amountDepositedToReceiverAddress[defaultReceivingOrganContract] += msg.value;\n\n        // Log event\n        depositedFunds(msg.sender, defaultReceivingOrganContract, msg.value);\n\n\n    }\n\n        function depositToOrgan(address _targetOrgan) public payable {\n\n        // Instanciating Organ\n        Organ authorizedDepositorsOrgan = Organ(authorizedDepositorsOrganContract);\n\n        // Checking if depositors are restricted\n        if (authorizedDepositorsOrganContract != 0x0000) {\n\n            require(authorizedDepositorsOrgan.isNorm(msg.sender));\n            \n        }\n\n        delete authorizedDepositorsOrgan;\n\n        // Sending funds to organ\n        _targetOrgan.transfer(msg.value);\n\n        // Recording value transfer\n        amountDepositedByDepositorAddress[msg.sender] += msg.value;\n        amountDepositedToReceiverAddress[_targetOrgan] += msg.value;\n\n        // Log event\n        depositedFunds(msg.sender, _targetOrgan, msg.value);\n\n\n    }\n\n\n    function getFundsDepositedByUser(address _userAddress) public view returns (uint)\n    {return amountDepositedByDepositorAddress[_userAddress];}    \n    function getFundsDepositedToOrgan(address _organAddress) public view returns (uint)\n    {return amountDepositedToReceiverAddress[_organAddress];} \n    function getLinkedOrgans() public view returns (address[] _linkedOrgans)\n    {return linkedOrgans;}   \n\n}\n\n",
  "sourcePath": "/Users/henrilieutaud/Documents/Mes documents/97/Workshop/Kelsen/solidity/contracts/procedures/depositFundsProcedure.sol",
  "compiler": {
    "name": "solc",
    "version": "0.4.19+commit.c4cbbb05.Emscripten.clang"
  },
  "schemaVersion": "2.0.0",
  "updatedAt": "2018-05-14T16:41:17.309Z"
}