{
  "contractName": "depositFundsProcedure",
  "abi": [
    {
      "constant": true,
      "inputs": [
        {
          "name": "",
          "type": "address"
        }
      ],
      "name": "amountDepositedToReceiverAddress",
      "outputs": [
        {
          "name": "",
          "type": "uint256"
        }
      ],
      "payable": false,
      "stateMutability": "view",
      "type": "function"
    },
    {
      "constant": true,
      "inputs": [],
      "name": "procedureTypeNumber",
      "outputs": [
        {
          "name": "",
          "type": "int256"
        }
      ],
      "payable": false,
      "stateMutability": "view",
      "type": "function"
    },
    {
      "constant": true,
      "inputs": [],
      "name": "defaultReceivingOrganContract",
      "outputs": [
        {
          "name": "",
          "type": "address"
        }
      ],
      "payable": false,
      "stateMutability": "view",
      "type": "function"
    },
    {
      "constant": true,
      "inputs": [],
      "name": "kelsenVersionNumber",
      "outputs": [
        {
          "name": "",
          "type": "int256"
        }
      ],
      "payable": false,
      "stateMutability": "view",
      "type": "function"
    },
    {
      "constant": true,
      "inputs": [],
      "name": "authorizedDepositorsOrganContract",
      "outputs": [
        {
          "name": "",
          "type": "address"
        }
      ],
      "payable": false,
      "stateMutability": "view",
      "type": "function"
    },
    {
      "constant": true,
      "inputs": [
        {
          "name": "",
          "type": "address"
        }
      ],
      "name": "amountDepositedByDepositorAddress",
      "outputs": [
        {
          "name": "",
          "type": "uint256"
        }
      ],
      "payable": false,
      "stateMutability": "view",
      "type": "function"
    },
    {
      "constant": true,
      "inputs": [],
      "name": "isAnOrgan",
      "outputs": [
        {
          "name": "",
          "type": "bool"
        }
      ],
      "payable": false,
      "stateMutability": "view",
      "type": "function"
    },
    {
      "constant": true,
      "inputs": [],
      "name": "procedureName",
      "outputs": [
        {
          "name": "",
          "type": "string"
        }
      ],
      "payable": false,
      "stateMutability": "view",
      "type": "function"
    },
    {
      "constant": true,
      "inputs": [],
      "name": "isAProcedure",
      "outputs": [
        {
          "name": "",
          "type": "bool"
        }
      ],
      "payable": false,
      "stateMutability": "view",
      "type": "function"
    },
    {
      "constant": true,
      "inputs": [
        {
          "name": "",
          "type": "uint256"
        }
      ],
      "name": "linkedOrgans",
      "outputs": [
        {
          "name": "",
          "type": "address"
        }
      ],
      "payable": false,
      "stateMutability": "view",
      "type": "function"
    },
    {
      "payable": true,
      "stateMutability": "payable",
      "type": "fallback"
    },
    {
      "anonymous": false,
      "inputs": [
        {
          "indexed": false,
          "name": "_from",
          "type": "address"
        },
        {
          "indexed": false,
          "name": "_payoutAddress",
          "type": "address"
        },
        {
          "indexed": false,
          "name": "_amount",
          "type": "uint256"
        }
      ],
      "name": "depositedFunds",
      "type": "event"
    },
    {
      "constant": false,
      "inputs": [
        {
          "name": "_targetOrgan",
          "type": "address"
        }
      ],
      "name": "depositToOrgan",
      "outputs": [],
      "payable": true,
      "stateMutability": "payable",
      "type": "function"
    },
    {
      "constant": true,
      "inputs": [
        {
          "name": "_userAddress",
          "type": "address"
        }
      ],
      "name": "getFundsDepositedByUser",
      "outputs": [
        {
          "name": "",
          "type": "uint256"
        }
      ],
      "payable": false,
      "stateMutability": "view",
      "type": "function"
    },
    {
      "constant": true,
      "inputs": [
        {
          "name": "_organAddress",
          "type": "address"
        }
      ],
      "name": "getFundsDepositedToOrgan",
      "outputs": [
        {
          "name": "",
          "type": "uint256"
        }
      ],
      "payable": false,
      "stateMutability": "view",
      "type": "function"
    },
    {
      "constant": true,
      "inputs": [],
      "name": "getLinkedOrgans",
      "outputs": [
        {
          "name": "_linkedOrgans",
          "type": "address[]"
        }
      ],
      "payable": false,
      "stateMutability": "view",
      "type": "function"
    },
    {
      "constant": true,
      "inputs": [],
      "name": "getProcedureName",
      "outputs": [
        {
          "name": "_procedureName",
          "type": "string"
        }
      ],
      "payable": false,
      "stateMutability": "view",
      "type": "function"
    }
  ],
  "bytecode": "0x60606040526000600460006101000a81548160ff0219169083151502179055506001600460016101000a81548160ff0219169083151502179055506009600655341561004a57600080fd5b610ef6806100596000396000f3006060604052600436106100db576000357c0100000000000000000000000000000000000000000000000000000000900463ffffffff1680630ef63945146103f45780632403afe7146104415780632647d7f91461048e5780634499fa0e146104b757806359908afe1461050c5780635dbe4d281461059a5780636a91ec1a146105c3578063791854d6146106105780638604271714610665578063a3ffea8214610693578063a8bef97a146106e0578063adb4018b1461070d578063e57005011461079b578063e80b30a514610805578063f2edc61614610832575b6000600860009054906101000a900473ffffffffffffffffffffffffffffffffffffffff1690506000600860009054906101000a900473ffffffffffffffffffffffffffffffffffffffff1673ffffffffffffffffffffffffffffffffffffffff1614151561020e578073ffffffffffffffffffffffffffffffffffffffff1663d323a4f8336000604051602001526040518263ffffffff167c0100000000000000000000000000000000000000000000000000000000028152600401808273ffffffffffffffffffffffffffffffffffffffff1673ffffffffffffffffffffffffffffffffffffffff168152602001915050602060405180830381600087803b15156101e757600080fd5b6102c65a03f115156101f857600080fd5b50505060405180519050151561020d57600080fd5b5b60009050600960009054906101000a900473ffffffffffffffffffffffffffffffffffffffff1673ffffffffffffffffffffffffffffffffffffffff166108fc349081150290604051600060405180830381858888f19350505050151561027457600080fd5b34600b60003373ffffffffffffffffffffffffffffffffffffffff1673ffffffffffffffffffffffffffffffffffffffff1681526020019081526020016000206000828254019250508190555034600c6000600960009054906101000a900473ffffffffffffffffffffffffffffffffffffffff1673ffffffffffffffffffffffffffffffffffffffff1673ffffffffffffffffffffffffffffffffffffffff168152602001908152602001600020600082825401925050819055507f9ba2320cd77403ddf10e62bb77145a1658f32e86971f41eef53b724d39bcb0a833600960009054906101000a900473ffffffffffffffffffffffffffffffffffffffff1634604051808473ffffffffffffffffffffffffffffffffffffffff1673ffffffffffffffffffffffffffffffffffffffff1681526020018373ffffffffffffffffffffffffffffffffffffffff1673ffffffffffffffffffffffffffffffffffffffff168152602001828152602001935050505060405180910390a150005b34156103ff57600080fd5b61042b600480803573ffffffffffffffffffffffffffffffffffffffff16906020019091905050610895565b6040518082815260200191505060405180910390f35b341561044c57600080fd5b610478600480803573ffffffffffffffffffffffffffffffffffffffff169060200190919050506108ad565b6040518082815260200191505060405180910390f35b341561049957600080fd5b6104a16108f6565b6040518082815260200191505060405180910390f35b34156104c257600080fd5b6104ca6108fc565b604051808273ffffffffffffffffffffffffffffffffffffffff1673ffffffffffffffffffffffffffffffffffffffff16815260200191505060405180910390f35b341561051757600080fd5b61051f610922565b6040518080602001828103825283818151815260200191508051906020019080838360005b8381101561055f578082015181840152602081019050610544565b50505050905090810190601f16801561058c5780820380516001836020036101000a031916815260200191505b509250505060405180910390f35b34156105a557600080fd5b6105ad6109ca565b6040518082815260200191505060405180910390f35b34156105ce57600080fd5b6105fa600480803573ffffffffffffffffffffffffffffffffffffffff169060200190919050506109d0565b6040518082815260200191505060405180910390f35b341561061b57600080fd5b610623610a19565b604051808273ffffffffffffffffffffffffffffffffffffffff1673ffffffffffffffffffffffffffffffffffffffff16815260200191505060405180910390f35b610691600480803573ffffffffffffffffffffffffffffffffffffffff16906020019091905050610a3f565b005b341561069e57600080fd5b6106ca600480803573ffffffffffffffffffffffffffffffffffffffff16906020019091905050610cf3565b6040518082815260200191505060405180910390f35b34156106eb57600080fd5b6106f3610d0b565b604051808215151515815260200191505060405180910390f35b341561071857600080fd5b610720610d1e565b6040518080602001828103825283818151815260200191508051906020019080838360005b83811015610760578082015181840152602081019050610745565b50505050905090810190601f16801561078d5780820380516001836020036101000a031916815260200191505b509250505060405180910390f35b34156107a657600080fd5b6107ae610dbc565b6040518080602001828103825283818151815260200191508051906020019060200280838360005b838110156107f15780820151818401526020810190506107d6565b505050509050019250505060405180910390f35b341561081057600080fd5b610818610e50565b604051808215151515815260200191505060405180910390f35b341561083d57600080fd5b6108536004808035906020019091905050610e63565b604051808273ffffffffffffffffffffffffffffffffffffffff1673ffffffffffffffffffffffffffffffffffffffff16815260200191505060405180910390f35b600c6020528060005260406000206000915090505481565b6000600c60008373ffffffffffffffffffffffffffffffffffffffff1673ffffffffffffffffffffffffffffffffffffffff168152602001908152602001600020549050919050565b60065481565b600960009054906101000a900473ffffffffffffffffffffffffffffffffffffffff1681565b61092a610ea2565b60078054600181600116156101000203166002900480601f0160208091040260200160405190810160405280929190818152602001828054600181600116156101000203166002900480156109c05780601f10610995576101008083540402835291602001916109c0565b820191906000526020600020905b8154815290600101906020018083116109a357829003601f168201915b5050505050905090565b60005481565b6000600b60008373ffffffffffffffffffffffffffffffffffffffff1673ffffffffffffffffffffffffffffffffffffffff168152602001908152602001600020549050919050565b600860009054906101000a900473ffffffffffffffffffffffffffffffffffffffff1681565b6000600860009054906101000a900473ffffffffffffffffffffffffffffffffffffffff1690506000600860009054906101000a900473ffffffffffffffffffffffffffffffffffffffff1673ffffffffffffffffffffffffffffffffffffffff16141515610b72578073ffffffffffffffffffffffffffffffffffffffff1663d323a4f8336000604051602001526040518263ffffffff167c0100000000000000000000000000000000000000000000000000000000028152600401808273ffffffffffffffffffffffffffffffffffffffff1673ffffffffffffffffffffffffffffffffffffffff168152602001915050602060405180830381600087803b1515610b4b57600080fd5b6102c65a03f11515610b5c57600080fd5b505050604051805190501515610b7157600080fd5b5b600090508173ffffffffffffffffffffffffffffffffffffffff166108fc349081150290604051600060405180830381858888f193505050501515610bb657600080fd5b34600b60003373ffffffffffffffffffffffffffffffffffffffff1673ffffffffffffffffffffffffffffffffffffffff1681526020019081526020016000206000828254019250508190555034600c60008473ffffffffffffffffffffffffffffffffffffffff1673ffffffffffffffffffffffffffffffffffffffff168152602001908152602001600020600082825401925050819055507f9ba2320cd77403ddf10e62bb77145a1658f32e86971f41eef53b724d39bcb0a8338334604051808473ffffffffffffffffffffffffffffffffffffffff1673ffffffffffffffffffffffffffffffffffffffff1681526020018373ffffffffffffffffffffffffffffffffffffffff1673ffffffffffffffffffffffffffffffffffffffff168152602001828152602001935050505060405180910390a15050565b600b6020528060005260406000206000915090505481565b600460009054906101000a900460ff1681565b60078054600181600116156101000203166002900480601f016020809104026020016040519081016040528092919081815260200182805460018160011615610100020316600290048015610db45780601f10610d8957610100808354040283529160200191610db4565b820191906000526020600020905b815481529060010190602001808311610d9757829003601f168201915b505050505081565b610dc4610eb6565b600a805480602002602001604051908101604052809291908181526020018280548015610e4657602002820191906000526020600020905b8160009054906101000a900473ffffffffffffffffffffffffffffffffffffffff1673ffffffffffffffffffffffffffffffffffffffff1681526020019060010190808311610dfc575b5050505050905090565b600460019054906101000a900460ff1681565b600a81815481101515610e7257fe5b90600052602060002090016000915054906101000a900473ffffffffffffffffffffffffffffffffffffffff1681565b602060405190810160405280600081525090565b6020604051908101604052806000815250905600a165627a7a72305820126c7ffa4b731f85e174638300944e8f9fae28252ee5b8764af2ea22683d8d6b0029",
  "source": "pragma solidity ^0.4.11;\n\n// Standard contract for promulgation of a norm\n\nimport \"../standardProcedure.sol\";\nimport \"../standardOrgan.sol\";\n\n\ncontract depositFundsProcedure is Procedure{\n    // 1: Cyclical many to one election (Presidential Election)\n    // 2: Cyclical many to many election (Moderators Election)\n    // 3: Simple norm nomination \n    // 4: Simple admins and master nomination\n    // 5: Vote on Norms \n    // 6: Vote on masters and admins \n    // 7: Cooptation\n    // 8: Vote on an expense\n    // 9: Deposit funds on an organ\n    int public procedureTypeNumber = 9;\n\n    // Storage for procedure name\n    string public procedureName;\n\n    // Where are authorized depositors registered. If authorizedDepositorsOrganContract is set to 0, anyone can deposit funds\n    address public authorizedDepositorsOrganContract;\n\n    // Default organ to which deposits are sent\n    address public defaultReceivingOrganContract;\n\n    // Gathering connected organs for easier DAO mapping\n    address[] public linkedOrgans;\n\n    // Mapping each proposition to the user creating it\n    mapping (address => uint) public amountDepositedByDepositorAddress;    \n\n    // Mapping each proposition to the user who participated\n    mapping (address => uint) public amountDepositedToReceiverAddress;\n\n    // Events\n    event depositedFunds(address _from, address _payoutAddress, uint _amount);\n\n    function () public payable {\n\n        // Instanciating Organ\n        Organ authorizedDepositorsOrgan = Organ(authorizedDepositorsOrganContract);\n\n        // Checking if depositors are restricted\n        if (authorizedDepositorsOrganContract != 0x0000) {\n\n            require(authorizedDepositorsOrgan.isNorm(msg.sender));\n            \n        }\n\n        delete authorizedDepositorsOrgan;\n\n        // Sending funds to organ\n        defaultReceivingOrganContract.transfer(msg.value);\n\n        // Recording value transfer\n        amountDepositedByDepositorAddress[msg.sender] += msg.value;\n        amountDepositedToReceiverAddress[defaultReceivingOrganContract] += msg.value;\n\n        // Log event\n        depositedFunds(msg.sender, defaultReceivingOrganContract, msg.value);\n\n\n    }\n\n        function depositToOrgan(address _targetOrgan) public payable {\n\n        // Instanciating Organ\n        Organ authorizedDepositorsOrgan = Organ(authorizedDepositorsOrganContract);\n\n        // Checking if depositors are restricted\n        if (authorizedDepositorsOrganContract != 0x0000) {\n\n            require(authorizedDepositorsOrgan.isNorm(msg.sender));\n            \n        }\n\n        delete authorizedDepositorsOrgan;\n\n        // Sending funds to organ\n        _targetOrgan.transfer(msg.value);\n\n        // Recording value transfer\n        amountDepositedByDepositorAddress[msg.sender] += msg.value;\n        amountDepositedToReceiverAddress[_targetOrgan] += msg.value;\n\n        // Log event\n        depositedFunds(msg.sender, _targetOrgan, msg.value);\n\n\n    }\n\n\n    function getFundsDepositedByUser(address _userAddress) public view returns (uint)\n    {return amountDepositedByDepositorAddress[_userAddress];}    \n    function getFundsDepositedToOrgan(address _organAddress) public view returns (uint)\n    {return amountDepositedToReceiverAddress[_organAddress];} \n    function getLinkedOrgans() public view returns (address[] _linkedOrgans)\n    {return linkedOrgans;}   \n    function getProcedureName() public view returns (string _procedureName)\n    {return procedureName;}\n\n}\n\n",
  "sourcePath": "/Users/henrilieutaud/Documents/Mes documents/97/Workshop/Kelsen/solidity/contracts/procedures/depositFundsProcedure.sol",
  "compiler": {
    "name": "solc",
    "version": "0.4.19+commit.c4cbbb05.Emscripten.clang"
  },
  "schemaVersion": "2.0.0",
  "updatedAt": "2018-05-15T09:52:44.267Z"
}