{
  "contractName": "depositFundsProcedure",
  "abi": [
    {
      "constant": true,
      "inputs": [
        {
          "name": "",
          "type": "address"
        }
      ],
      "name": "amountDepositedToReceiverAddress",
      "outputs": [
        {
          "name": "",
          "type": "uint256"
        }
      ],
      "payable": false,
      "stateMutability": "view",
      "type": "function"
    },
    {
      "constant": true,
      "inputs": [],
      "name": "procedureTypeNumber",
      "outputs": [
        {
          "name": "",
          "type": "int256"
        }
      ],
      "payable": false,
      "stateMutability": "view",
      "type": "function"
    },
    {
      "constant": true,
      "inputs": [],
      "name": "defaultReceivingOrganContract",
      "outputs": [
        {
          "name": "",
          "type": "address"
        }
      ],
      "payable": false,
      "stateMutability": "view",
      "type": "function"
    },
    {
      "constant": true,
      "inputs": [],
      "name": "kelsenVersionNumber",
      "outputs": [
        {
          "name": "",
          "type": "int256"
        }
      ],
      "payable": false,
      "stateMutability": "view",
      "type": "function"
    },
    {
      "constant": true,
      "inputs": [],
      "name": "authorizedDepositorsOrganContract",
      "outputs": [
        {
          "name": "",
          "type": "address"
        }
      ],
      "payable": false,
      "stateMutability": "view",
      "type": "function"
    },
    {
      "constant": true,
      "inputs": [
        {
          "name": "",
          "type": "address"
        }
      ],
      "name": "amountDepositedByDepositorAddress",
      "outputs": [
        {
          "name": "",
          "type": "uint256"
        }
      ],
      "payable": false,
      "stateMutability": "view",
      "type": "function"
    },
    {
      "constant": true,
      "inputs": [],
      "name": "isAnOrgan",
      "outputs": [
        {
          "name": "",
          "type": "bool"
        }
      ],
      "payable": false,
      "stateMutability": "view",
      "type": "function"
    },
    {
      "constant": true,
      "inputs": [],
      "name": "isAProcedure",
      "outputs": [
        {
          "name": "",
          "type": "bool"
        }
      ],
      "payable": false,
      "stateMutability": "view",
      "type": "function"
    },
    {
      "payable": true,
      "stateMutability": "payable",
      "type": "fallback"
    },
    {
      "anonymous": false,
      "inputs": [
        {
          "indexed": false,
          "name": "_from",
          "type": "address"
        },
        {
          "indexed": false,
          "name": "_payoutAddress",
          "type": "address"
        },
        {
          "indexed": false,
          "name": "_amount",
          "type": "uint256"
        }
      ],
      "name": "depositedFunds",
      "type": "event"
    },
    {
      "constant": false,
      "inputs": [
        {
          "name": "_targetOrgan",
          "type": "address"
        }
      ],
      "name": "depositToOrgan",
      "outputs": [],
      "payable": true,
      "stateMutability": "payable",
      "type": "function"
    },
    {
      "constant": true,
      "inputs": [
        {
          "name": "_userAddress",
          "type": "address"
        }
      ],
      "name": "getFundsDepositedByUser",
      "outputs": [
        {
          "name": "",
          "type": "uint256"
        }
      ],
      "payable": false,
      "stateMutability": "view",
      "type": "function"
    },
    {
      "constant": true,
      "inputs": [
        {
          "name": "_organAddress",
          "type": "address"
        }
      ],
      "name": "getFundsDepositedToOrgan",
      "outputs": [
        {
          "name": "",
          "type": "uint256"
        }
      ],
      "payable": false,
      "stateMutability": "view",
      "type": "function"
    }
  ],
  "bytecode": "0x60606040526000600360006101000a81548160ff0219169083151502179055506001600360016101000a81548160ff0219169083151502179055506009600455341561004a57600080fd5b610a9f806100596000396000f3006060604052600436106100af576000357c0100000000000000000000000000000000000000000000000000000000900463ffffffff1680630ef63945146103c85780632403afe7146104155780632647d7f9146104625780634499fa0e1461048b5780635dbe4d28146104e05780636a91ec1a14610509578063791854d61461055657806386042717146105ab578063a3ffea82146105d9578063a8bef97a14610626578063e80b30a514610653575b6000600560009054906101000a900473ffffffffffffffffffffffffffffffffffffffff1690506000600560009054906101000a900473ffffffffffffffffffffffffffffffffffffffff1673ffffffffffffffffffffffffffffffffffffffff161415156101e2578073ffffffffffffffffffffffffffffffffffffffff1663d323a4f8336000604051602001526040518263ffffffff167c0100000000000000000000000000000000000000000000000000000000028152600401808273ffffffffffffffffffffffffffffffffffffffff1673ffffffffffffffffffffffffffffffffffffffff168152602001915050602060405180830381600087803b15156101bb57600080fd5b6102c65a03f115156101cc57600080fd5b5050506040518051905015156101e157600080fd5b5b60009050600660009054906101000a900473ffffffffffffffffffffffffffffffffffffffff1673ffffffffffffffffffffffffffffffffffffffff166108fc349081150290604051600060405180830381858888f19350505050151561024857600080fd5b34600760003373ffffffffffffffffffffffffffffffffffffffff1673ffffffffffffffffffffffffffffffffffffffff168152602001908152602001600020600082825401925050819055503460086000600660009054906101000a900473ffffffffffffffffffffffffffffffffffffffff1673ffffffffffffffffffffffffffffffffffffffff1673ffffffffffffffffffffffffffffffffffffffff168152602001908152602001600020600082825401925050819055507f9ba2320cd77403ddf10e62bb77145a1658f32e86971f41eef53b724d39bcb0a833600660009054906101000a900473ffffffffffffffffffffffffffffffffffffffff1634604051808473ffffffffffffffffffffffffffffffffffffffff1673ffffffffffffffffffffffffffffffffffffffff1681526020018373ffffffffffffffffffffffffffffffffffffffff1673ffffffffffffffffffffffffffffffffffffffff168152602001828152602001935050505060405180910390a150005b34156103d357600080fd5b6103ff600480803573ffffffffffffffffffffffffffffffffffffffff16906020019091905050610680565b6040518082815260200191505060405180910390f35b341561042057600080fd5b61044c600480803573ffffffffffffffffffffffffffffffffffffffff16906020019091905050610698565b6040518082815260200191505060405180910390f35b341561046d57600080fd5b6104756106e1565b6040518082815260200191505060405180910390f35b341561049657600080fd5b61049e6106e7565b604051808273ffffffffffffffffffffffffffffffffffffffff1673ffffffffffffffffffffffffffffffffffffffff16815260200191505060405180910390f35b34156104eb57600080fd5b6104f361070d565b6040518082815260200191505060405180910390f35b341561051457600080fd5b610540600480803573ffffffffffffffffffffffffffffffffffffffff16906020019091905050610713565b6040518082815260200191505060405180910390f35b341561056157600080fd5b61056961075c565b604051808273ffffffffffffffffffffffffffffffffffffffff1673ffffffffffffffffffffffffffffffffffffffff16815260200191505060405180910390f35b6105d7600480803573ffffffffffffffffffffffffffffffffffffffff16906020019091905050610782565b005b34156105e457600080fd5b610610600480803573ffffffffffffffffffffffffffffffffffffffff16906020019091905050610a36565b6040518082815260200191505060405180910390f35b341561063157600080fd5b610639610a4e565b604051808215151515815260200191505060405180910390f35b341561065e57600080fd5b610666610a61565b604051808215151515815260200191505060405180910390f35b60086020528060005260406000206000915090505481565b6000600860008373ffffffffffffffffffffffffffffffffffffffff1673ffffffffffffffffffffffffffffffffffffffff168152602001908152602001600020549050919050565b60045481565b600660009054906101000a900473ffffffffffffffffffffffffffffffffffffffff1681565b60005481565b6000600760008373ffffffffffffffffffffffffffffffffffffffff1673ffffffffffffffffffffffffffffffffffffffff168152602001908152602001600020549050919050565b600560009054906101000a900473ffffffffffffffffffffffffffffffffffffffff1681565b6000600560009054906101000a900473ffffffffffffffffffffffffffffffffffffffff1690506000600560009054906101000a900473ffffffffffffffffffffffffffffffffffffffff1673ffffffffffffffffffffffffffffffffffffffff161415156108b5578073ffffffffffffffffffffffffffffffffffffffff1663d323a4f8336000604051602001526040518263ffffffff167c0100000000000000000000000000000000000000000000000000000000028152600401808273ffffffffffffffffffffffffffffffffffffffff1673ffffffffffffffffffffffffffffffffffffffff168152602001915050602060405180830381600087803b151561088e57600080fd5b6102c65a03f1151561089f57600080fd5b5050506040518051905015156108b457600080fd5b5b600090508173ffffffffffffffffffffffffffffffffffffffff166108fc349081150290604051600060405180830381858888f1935050505015156108f957600080fd5b34600760003373ffffffffffffffffffffffffffffffffffffffff1673ffffffffffffffffffffffffffffffffffffffff1681526020019081526020016000206000828254019250508190555034600860008473ffffffffffffffffffffffffffffffffffffffff1673ffffffffffffffffffffffffffffffffffffffff168152602001908152602001600020600082825401925050819055507f9ba2320cd77403ddf10e62bb77145a1658f32e86971f41eef53b724d39bcb0a8338334604051808473ffffffffffffffffffffffffffffffffffffffff1673ffffffffffffffffffffffffffffffffffffffff1681526020018373ffffffffffffffffffffffffffffffffffffffff1673ffffffffffffffffffffffffffffffffffffffff168152602001828152602001935050505060405180910390a15050565b60076020528060005260406000206000915090505481565b600160009054906101000a900460ff1681565b6001809054906101000a900460ff16815600a165627a7a723058207a1f6da77f82fc910048cb5b20e67c23d5b1f5da811b4e644b7ccf9f016e2e000029",
  "source": "pragma solidity ^0.4.11;\n\n// Standard contract for promulgation of a norm\n\nimport \"../standardProcedure.sol\";\nimport \"../standardOrgan.sol\";\n\n\ncontract depositFundsProcedure is Procedure{\n    // 1: Cyclical many to one election (Presidential Election)\n    // 2: Cyclical many to many election (Moderators Election)\n    // 3: Simple norm nomination \n    // 4: Simple admins and master nomination\n    // 5: Vote on Norms \n    // 6: Vote on masters and admins \n    // 7: Cooptation\n    // 8: Vote on an expense\n    // 9: Deposit funds on an organ\n    int public procedureTypeNumber = 9;\n\n    // Where are authorized depositors registered. If authorizedDepositorsOrganContract is set to 0, anyone can deposit funds\n    address public authorizedDepositorsOrganContract;\n\n    // Default organ to which deposits are sent\n    address public defaultReceivingOrganContract;\n\n    // Mapping each proposition to the user creating it\n    mapping (address => uint) public amountDepositedByDepositorAddress;    \n\n    // Mapping each proposition to the user who participated\n    mapping (address => uint) public amountDepositedToReceiverAddress;\n\n    // Events\n    event depositedFunds(address _from, address _payoutAddress, uint _amount);\n\n    function () public payable {\n\n        // Instanciating Organ\n        Organ authorizedDepositorsOrgan = Organ(authorizedDepositorsOrganContract);\n\n        // Checking if depositors are restricted\n        if (authorizedDepositorsOrganContract != 0x0000) {\n\n            require(authorizedDepositorsOrgan.isNorm(msg.sender));\n            \n        }\n\n        delete authorizedDepositorsOrgan;\n\n        // Sending funds to organ\n        defaultReceivingOrganContract.transfer(msg.value);\n\n        // Recording value transfer\n        amountDepositedByDepositorAddress[msg.sender] += msg.value;\n        amountDepositedToReceiverAddress[defaultReceivingOrganContract] += msg.value;\n\n        // Log event\n        depositedFunds(msg.sender, defaultReceivingOrganContract, msg.value);\n\n\n    }\n\n        function depositToOrgan(address _targetOrgan) public payable {\n\n        // Instanciating Organ\n        Organ authorizedDepositorsOrgan = Organ(authorizedDepositorsOrganContract);\n\n        // Checking if depositors are restricted\n        if (authorizedDepositorsOrganContract != 0x0000) {\n\n            require(authorizedDepositorsOrgan.isNorm(msg.sender));\n            \n        }\n\n        delete authorizedDepositorsOrgan;\n\n        // Sending funds to organ\n        _targetOrgan.transfer(msg.value);\n\n        // Recording value transfer\n        amountDepositedByDepositorAddress[msg.sender] += msg.value;\n        amountDepositedToReceiverAddress[_targetOrgan] += msg.value;\n\n        // Log event\n        depositedFunds(msg.sender, _targetOrgan, msg.value);\n\n\n    }\n\n\n    function getFundsDepositedByUser(address _userAddress) public view returns (uint)\n    {return amountDepositedByDepositorAddress[_userAddress];}    \n    function getFundsDepositedToOrgan(address _organAddress) public view returns (uint)\n    {return amountDepositedToReceiverAddress[_organAddress];}    \n\n}\n\n",
  "sourcePath": "/Users/henrilieutaud/Documents/Mes documents/97/Workshop/Kelsen/solidity/contracts/procedures/depositFundsProcedure.sol",
  "compiler": {
    "name": "solc",
    "version": "0.4.19+commit.c4cbbb05.Emscripten.clang"
  },
  "schemaVersion": "2.0.0",
  "updatedAt": "2018-05-14T09:49:41.466Z"
}