{
  "contractName": "Kelsen",
  "abi": [
    {
      "constant": true,
      "inputs": [],
      "name": "kelsenVersionNumber",
      "outputs": [
        {
          "name": "",
          "type": "int256"
        }
      ],
      "payable": false,
      "stateMutability": "view",
      "type": "function"
    },
    {
      "constant": true,
      "inputs": [],
      "name": "isAnOrgan",
      "outputs": [
        {
          "name": "",
          "type": "bool"
        }
      ],
      "payable": false,
      "stateMutability": "view",
      "type": "function"
    },
    {
      "constant": true,
      "inputs": [],
      "name": "isAProcedure",
      "outputs": [
        {
          "name": "",
          "type": "bool"
        }
      ],
      "payable": false,
      "stateMutability": "view",
      "type": "function"
    }
  ],
  "bytecode": "0x6060604052341561000f57600080fd5b6101298061001e6000396000f3006060604052600436106053576000357c0100000000000000000000000000000000000000000000000000000000900463ffffffff1680635dbe4d28146058578063a8bef97a14607e578063e80b30a51460a8575b600080fd5b3415606257600080fd5b606860d2565b6040518082815260200191505060405180910390f35b3415608857600080fd5b608e60d8565b604051808215151515815260200191505060405180910390f35b341560b257600080fd5b60b860eb565b604051808215151515815260200191505060405180910390f35b60005481565b600160009054906101000a900460ff1681565b6001809054906101000a900460ff16815600a165627a7a72305820ac3a47bb76077636d2a47d6055b61a1af551bd797aca5581040ac5c7ed2726c30029",
  "source": "pragma solidity ^0.4.11;\n\n/// @title Standard organ contract\n\ncontract Kelsen {\n        // Identifiers for Dapp using Kelsen\n    int public kelsenVersionNumber;\n    bool public isAnOrgan;\n    bool public isAProcedure;\n}\n",
  "sourcePath": "/Users/henrilieutaud/Documents/Mes documents/97/Workshop/Kelsen/solidity/contracts/Kelsen.sol",
  "compiler": {
    "name": "solc",
    "version": "0.4.19+commit.c4cbbb05.Emscripten.clang"
  },
  "schemaVersion": "2.0.0",
  "updatedAt": "2018-05-14T16:41:15.341Z"
}