{
  "contractName": "normsCooptationProcedure",
  "abi": [
    {
      "constant": true,
      "inputs": [
        {
          "name": "",
          "type": "address"
        },
        {
          "name": "",
          "type": "uint256"
        }
      ],
      "name": "propositionToUser",
      "outputs": [
        {
          "name": "",
          "type": "uint256"
        }
      ],
      "payable": false,
      "stateMutability": "view",
      "type": "function"
    },
    {
      "constant": true,
      "inputs": [],
      "name": "procedureTypeNumber",
      "outputs": [
        {
          "name": "",
          "type": "int256"
        }
      ],
      "payable": false,
      "stateMutability": "view",
      "type": "function"
    },
    {
      "constant": true,
      "inputs": [],
      "name": "quorumSize",
      "outputs": [
        {
          "name": "",
          "type": "uint256"
        }
      ],
      "payable": false,
      "stateMutability": "view",
      "type": "function"
    },
    {
      "constant": true,
      "inputs": [
        {
          "name": "",
          "type": "address"
        },
        {
          "name": "",
          "type": "uint256"
        }
      ],
      "name": "propositionToPromulgator",
      "outputs": [
        {
          "name": "",
          "type": "uint256"
        }
      ],
      "payable": false,
      "stateMutability": "view",
      "type": "function"
    },
    {
      "constant": true,
      "inputs": [],
      "name": "kelsenVersionNumber",
      "outputs": [
        {
          "name": "",
          "type": "int256"
        }
      ],
      "payable": false,
      "stateMutability": "view",
      "type": "function"
    },
    {
      "constant": true,
      "inputs": [],
      "name": "membersWithVetoOrganContract",
      "outputs": [
        {
          "name": "",
          "type": "address"
        }
      ],
      "payable": false,
      "stateMutability": "view",
      "type": "function"
    },
    {
      "constant": true,
      "inputs": [
        {
          "name": "",
          "type": "address"
        },
        {
          "name": "",
          "type": "uint256"
        }
      ],
      "name": "propositionToVoter",
      "outputs": [
        {
          "name": "",
          "type": "uint256"
        }
      ],
      "payable": false,
      "stateMutability": "view",
      "type": "function"
    },
    {
      "constant": true,
      "inputs": [],
      "name": "finalPromulgatorsOrganContract",
      "outputs": [
        {
          "name": "",
          "type": "address"
        }
      ],
      "payable": false,
      "stateMutability": "view",
      "type": "function"
    },
    {
      "constant": true,
      "inputs": [],
      "name": "totalPropositionNumber",
      "outputs": [
        {
          "name": "",
          "type": "uint256"
        }
      ],
      "payable": false,
      "stateMutability": "view",
      "type": "function"
    },
    {
      "constant": true,
      "inputs": [],
      "name": "isAnOrgan",
      "outputs": [
        {
          "name": "",
          "type": "bool"
        }
      ],
      "payable": false,
      "stateMutability": "view",
      "type": "function"
    },
    {
      "constant": true,
      "inputs": [],
      "name": "votingPeriodDuration",
      "outputs": [
        {
          "name": "",
          "type": "uint256"
        }
      ],
      "payable": false,
      "stateMutability": "view",
      "type": "function"
    },
    {
      "constant": true,
      "inputs": [],
      "name": "membersOrganContract",
      "outputs": [
        {
          "name": "",
          "type": "address"
        }
      ],
      "payable": false,
      "stateMutability": "view",
      "type": "function"
    },
    {
      "constant": true,
      "inputs": [
        {
          "name": "",
          "type": "uint256"
        }
      ],
      "name": "propositionsWaitingPromulgation",
      "outputs": [
        {
          "name": "",
          "type": "bool"
        }
      ],
      "payable": false,
      "stateMutability": "view",
      "type": "function"
    },
    {
      "constant": true,
      "inputs": [],
      "name": "promulgationPeriodDuration",
      "outputs": [
        {
          "name": "",
          "type": "uint256"
        }
      ],
      "payable": false,
      "stateMutability": "view",
      "type": "function"
    },
    {
      "constant": true,
      "inputs": [
        {
          "name": "",
          "type": "address"
        },
        {
          "name": "",
          "type": "uint256"
        }
      ],
      "name": "propositionToVetoer",
      "outputs": [
        {
          "name": "",
          "type": "uint256"
        }
      ],
      "payable": false,
      "stateMutability": "view",
      "type": "function"
    },
    {
      "constant": true,
      "inputs": [
        {
          "name": "",
          "type": "uint256"
        }
      ],
      "name": "propositionsWaitingEndOfVote",
      "outputs": [
        {
          "name": "",
          "type": "bool"
        }
      ],
      "payable": false,
      "stateMutability": "view",
      "type": "function"
    },
    {
      "constant": true,
      "inputs": [],
      "name": "isAProcedure",
      "outputs": [
        {
          "name": "",
          "type": "bool"
        }
      ],
      "payable": false,
      "stateMutability": "view",
      "type": "function"
    },
    {
      "constant": true,
      "inputs": [
        {
          "name": "",
          "type": "uint256"
        }
      ],
      "name": "linkedOrgans",
      "outputs": [
        {
          "name": "",
          "type": "address"
        }
      ],
      "payable": false,
      "stateMutability": "view",
      "type": "function"
    },
    {
      "anonymous": false,
      "inputs": [
        {
          "indexed": false,
          "name": "_candidateAddress",
          "type": "address"
        },
        {
          "indexed": false,
          "name": "_deposit",
          "type": "uint256"
        },
        {
          "indexed": false,
          "name": "_ipfsHash",
          "type": "bytes32"
        },
        {
          "indexed": false,
          "name": "_hash_function",
          "type": "uint8"
        },
        {
          "indexed": false,
          "name": "_size",
          "type": "uint8"
        }
      ],
      "name": "createPropositionEvent",
      "type": "event"
    },
    {
      "anonymous": false,
      "inputs": [
        {
          "indexed": false,
          "name": "_from",
          "type": "address"
        },
        {
          "indexed": false,
          "name": "_propositionNumber",
          "type": "uint256"
        }
      ],
      "name": "voteOnProposition",
      "type": "event"
    },
    {
      "anonymous": false,
      "inputs": [
        {
          "indexed": false,
          "name": "_from",
          "type": "address"
        },
        {
          "indexed": false,
          "name": "_propositionNumber",
          "type": "uint256"
        },
        {
          "indexed": false,
          "name": "_decision",
          "type": "bool"
        }
      ],
      "name": "vetoProposition",
      "type": "event"
    },
    {
      "anonymous": false,
      "inputs": [
        {
          "indexed": false,
          "name": "_from",
          "type": "address"
        },
        {
          "indexed": false,
          "name": "_propositionNumber",
          "type": "uint256"
        }
      ],
      "name": "countVotes",
      "type": "event"
    },
    {
      "anonymous": false,
      "inputs": [
        {
          "indexed": false,
          "name": "_from",
          "type": "address"
        },
        {
          "indexed": false,
          "name": "_propositionNumber",
          "type": "uint256"
        }
      ],
      "name": "promulgatePropositionEvent",
      "type": "event"
    },
    {
      "anonymous": false,
      "inputs": [
        {
          "indexed": false,
          "name": "_from",
          "type": "address"
        },
        {
          "indexed": false,
          "name": "_propositionNumber",
          "type": "uint256"
        },
        {
          "indexed": false,
          "name": "_value",
          "type": "uint256"
        }
      ],
      "name": "withdrawal",
      "type": "event"
    },
    {
      "constant": false,
      "inputs": [
        {
          "name": "_name",
          "type": "string"
        },
        {
          "name": "_ipfsHash",
          "type": "bytes32"
        },
        {
          "name": "_hash_function",
          "type": "uint8"
        },
        {
          "name": "_size",
          "type": "uint8"
        }
      ],
      "name": "createProposition",
      "outputs": [
        {
          "name": "propositionNumber",
          "type": "uint256"
        }
      ],
      "payable": true,
      "stateMutability": "payable",
      "type": "function"
    },
    {
      "constant": false,
      "inputs": [
        {
          "name": "_propositionNumber",
          "type": "uint256"
        },
        {
          "name": "_acceptProposition",
          "type": "bool"
        }
      ],
      "name": "vote",
      "outputs": [],
      "payable": false,
      "stateMutability": "nonpayable",
      "type": "function"
    },
    {
      "constant": false,
      "inputs": [
        {
          "name": "_propositionNumber",
          "type": "uint256"
        },
        {
          "name": "_acceptProposition",
          "type": "bool"
        }
      ],
      "name": "veto",
      "outputs": [],
      "payable": false,
      "stateMutability": "nonpayable",
      "type": "function"
    },
    {
      "constant": false,
      "inputs": [
        {
          "name": "_propositionNumber",
          "type": "uint256"
        }
      ],
      "name": "endPropositionVote",
      "outputs": [
        {
          "name": "hasBeenAccepted",
          "type": "bool"
        }
      ],
      "payable": false,
      "stateMutability": "nonpayable",
      "type": "function"
    },
    {
      "constant": false,
      "inputs": [
        {
          "name": "_propositionNumber",
          "type": "uint256"
        }
      ],
      "name": "promulgateProposition",
      "outputs": [],
      "payable": false,
      "stateMutability": "nonpayable",
      "type": "function"
    },
    {
      "constant": false,
      "inputs": [
        {
          "name": "_propositionNumber",
          "type": "uint256"
        }
      ],
      "name": "withDrawPayout",
      "outputs": [],
      "payable": false,
      "stateMutability": "nonpayable",
      "type": "function"
    },
    {
      "constant": true,
      "inputs": [
        {
          "name": "_propositionNumber",
          "type": "uint256"
        }
      ],
      "name": "getPropositionDetails",
      "outputs": [
        {
          "name": "_candidateAddress",
          "type": "address"
        },
        {
          "name": "_name",
          "type": "string"
        },
        {
          "name": "_ipfsHash",
          "type": "bytes32"
        },
        {
          "name": "_hash_function",
          "type": "uint8"
        },
        {
          "name": "_size",
          "type": "uint8"
        }
      ],
      "payable": false,
      "stateMutability": "view",
      "type": "function"
    },
    {
      "constant": true,
      "inputs": [
        {
          "name": "_propositionNumber",
          "type": "uint256"
        }
      ],
      "name": "getPropositionDates",
      "outputs": [
        {
          "name": "_startDate",
          "type": "uint256"
        },
        {
          "name": "_votingPeriodEndDate",
          "type": "uint256"
        },
        {
          "name": "_promulgatorWindowEndDate",
          "type": "uint256"
        }
      ],
      "payable": false,
      "stateMutability": "view",
      "type": "function"
    },
    {
      "constant": true,
      "inputs": [
        {
          "name": "_propositionNumber",
          "type": "uint256"
        }
      ],
      "name": "getPropositionStatus",
      "outputs": [
        {
          "name": "_wasCounted",
          "type": "bool"
        },
        {
          "name": "_wasEnacted",
          "type": "bool"
        }
      ],
      "payable": false,
      "stateMutability": "view",
      "type": "function"
    },
    {
      "constant": true,
      "inputs": [
        {
          "name": "_propositionNumber",
          "type": "uint256"
        }
      ],
      "name": "getVotedPropositionResults",
      "outputs": [
        {
          "name": "totalVoters",
          "type": "uint256"
        },
        {
          "name": "_totalVoteCount",
          "type": "uint256"
        },
        {
          "name": "_voteFor",
          "type": "uint256"
        },
        {
          "name": "_vetoCount",
          "type": "uint256"
        },
        {
          "name": "_notVetoCount",
          "type": "uint256"
        },
        {
          "name": "_wasAccepted",
          "type": "bool"
        }
      ],
      "payable": false,
      "stateMutability": "view",
      "type": "function"
    },
    {
      "constant": true,
      "inputs": [
        {
          "name": "_userAddress",
          "type": "address"
        }
      ],
      "name": "getPropositionsCreatedByUser",
      "outputs": [
        {
          "name": "",
          "type": "uint256[]"
        }
      ],
      "payable": false,
      "stateMutability": "view",
      "type": "function"
    },
    {
      "constant": true,
      "inputs": [
        {
          "name": "_userAddress",
          "type": "address"
        }
      ],
      "name": "getPropositionsVetoedByUser",
      "outputs": [
        {
          "name": "",
          "type": "uint256[]"
        }
      ],
      "payable": false,
      "stateMutability": "view",
      "type": "function"
    },
    {
      "constant": true,
      "inputs": [
        {
          "name": "_userAddress",
          "type": "address"
        }
      ],
      "name": "getPropositionsPromulgatedByUser",
      "outputs": [
        {
          "name": "",
          "type": "uint256[]"
        }
      ],
      "payable": false,
      "stateMutability": "view",
      "type": "function"
    },
    {
      "constant": true,
      "inputs": [
        {
          "name": "_userAddress",
          "type": "address"
        }
      ],
      "name": "getPropositionsUsedByUser",
      "outputs": [
        {
          "name": "",
          "type": "uint256[]"
        }
      ],
      "payable": false,
      "stateMutability": "view",
      "type": "function"
    },
    {
      "constant": true,
      "inputs": [
        {
          "name": "propositionNumber",
          "type": "uint256"
        }
      ],
      "name": "haveIVoted",
      "outputs": [
        {
          "name": "IHaveVoted",
          "type": "bool"
        }
      ],
      "payable": false,
      "stateMutability": "view",
      "type": "function"
    },
    {
      "constant": true,
      "inputs": [],
      "name": "getLinkedOrgans",
      "outputs": [
        {
          "name": "_linkedOrgans",
          "type": "address[]"
        }
      ],
      "payable": false,
      "stateMutability": "view",
      "type": "function"
    }
  ],
  "bytecode": "0x60606040526000600460006101000a81548160ff0219169083151502179055506001600460016101000a81548160ff0219169083151502179055506007600555341561004a57600080fd5b6136fd806100596000396000f3006060604052600436106101ac576000357c0100000000000000000000000000000000000000000000000000000000900463ffffffff1680630366af3d146101b157806305cf0057146101f757806307e7a224146102855780630b2e34b0146103135780632647d7f9146103695780633068ef4d1461039257806337443feb146103bb5780633c0848ee146104b35780635332eea1146105415780635ac85212146105975780635b9d7345146105ba5780635dbe4d28146105dd5780635e8b72441461060657806364cdd61e146106345780636a95d38d1461068957806375ff60c4146106e7578063880d3f541461073d5780638f3b07a414610792578063a8bef97a146107bb578063a990cfde146107e8578063ac37af1c14610873578063b5fdb88e146108ae578063b945d9e7146108d7578063c9d27afe1461092c578063cb20a2fd1461095a578063cd43eb1f146109e8578063cd87c2b614610a23578063ce88840314610a4c578063d858849414610a91578063e09ecb8714610ae7578063e36f6e4e14610b22578063e570050114610b5d578063e80b30a514610bc7578063f2edc61614610bf4575b600080fd5b34156101bc57600080fd5b6101d26004808035906020019091905050610c57565b6040518083151515158152602001821515151581526020019250505060405180910390f35b341561020257600080fd5b61022e600480803573ffffffffffffffffffffffffffffffffffffffff16906020019091905050610cbf565b6040518080602001828103825283818151815260200191508051906020019060200280838360005b83811015610271578082015181840152602081019050610256565b505050509050019250505060405180910390f35b341561029057600080fd5b6102bc600480803573ffffffffffffffffffffffffffffffffffffffff16906020019091905050610d5c565b6040518080602001828103825283818151815260200191508051906020019060200280838360005b838110156102ff5780820151818401526020810190506102e4565b505050509050019250505060405180910390f35b341561031e57600080fd5b610353600480803573ffffffffffffffffffffffffffffffffffffffff16906020019091908035906020019091905050610df9565b6040518082815260200191505060405180910390f35b341561037457600080fd5b61037c610e2a565b6040518082815260200191505060405180910390f35b341561039d57600080fd5b6103a5610e30565b6040518082815260200191505060405180910390f35b34156103c657600080fd5b6103dc6004808035906020019091905050610e36565b604051808673ffffffffffffffffffffffffffffffffffffffff1673ffffffffffffffffffffffffffffffffffffffff1681526020018060200185600019166000191681526020018460ff1660ff1681526020018360ff1660ff168152602001828103825286818151815260200191508051906020019080838360005b83811015610474578082015181840152602081019050610459565b50505050905090810190601f1680156104a15780820380516001836020036101000a031916815260200191505b50965050505050505060405180910390f35b34156104be57600080fd5b6104ea600480803573ffffffffffffffffffffffffffffffffffffffff16906020019091905050610fd2565b6040518080602001828103825283818151815260200191508051906020019060200280838360005b8381101561052d578082015181840152602081019050610512565b505050509050019250505060405180910390f35b341561054c57600080fd5b610581600480803573ffffffffffffffffffffffffffffffffffffffff1690602001909190803590602001909190505061106f565b6040518082815260200191505060405180910390f35b34156105a257600080fd5b6105b860048080359060200190919050506110a0565b005b34156105c557600080fd5b6105db6004808035906020019091905050611402565b005b34156105e857600080fd5b6105f0611990565b6040518082815260200191505060405180910390f35b341561061157600080fd5b61063260048080359060200190919080351515906020019091905050611996565b005b341561063f57600080fd5b610647611d72565b604051808273ffffffffffffffffffffffffffffffffffffffff1673ffffffffffffffffffffffffffffffffffffffff16815260200191505060405180910390f35b341561069457600080fd5b6106aa6004808035906020019091905050611d98565b6040518087815260200186815260200185815260200184815260200183815260200182151515158152602001965050505050505060405180910390f35b34156106f257600080fd5b610727600480803573ffffffffffffffffffffffffffffffffffffffff16906020019091908035906020019091905050611ec2565b6040518082815260200191505060405180910390f35b341561074857600080fd5b610750611ef3565b604051808273ffffffffffffffffffffffffffffffffffffffff1673ffffffffffffffffffffffffffffffffffffffff16815260200191505060405180910390f35b341561079d57600080fd5b6107a5611f19565b6040518082815260200191505060405180910390f35b34156107c657600080fd5b6107ce611f1f565b604051808215151515815260200191505060405180910390f35b61085d600480803590602001908201803590602001908080601f016020809104026020016040519081016040528093929190818152602001838380828437820191505050505050919080356000191690602001909190803560ff1690602001909190803560ff16906020019091905050611f32565b6040518082815260200191505060405180910390f35b341561087e57600080fd5b6108946004808035906020019091905050612634565b604051808215151515815260200191505060405180910390f35b34156108b957600080fd5b6108c16126a8565b6040518082815260200191505060405180910390f35b34156108e257600080fd5b6108ea6126ae565b604051808273ffffffffffffffffffffffffffffffffffffffff1673ffffffffffffffffffffffffffffffffffffffff16815260200191505060405180910390f35b341561093757600080fd5b610958600480803590602001909190803515159060200190919050506126d4565b005b341561096557600080fd5b610991600480803573ffffffffffffffffffffffffffffffffffffffff16906020019091905050612aa6565b6040518080602001828103825283818151815260200191508051906020019060200280838360005b838110156109d45780820151818401526020810190506109b9565b505050509050019250505060405180910390f35b34156109f357600080fd5b610a096004808035906020019091905050612b43565b604051808215151515815260200191505060405180910390f35b3415610a2e57600080fd5b610a36612b76565b6040518082815260200191505060405180910390f35b3415610a5757600080fd5b610a6d6004808035906020019091905050612b7c565b60405180848152602001838152602001828152602001935050505060405180910390f35b3415610a9c57600080fd5b610ad1600480803573ffffffffffffffffffffffffffffffffffffffff16906020019091908035906020019091905050612bfd565b6040518082815260200191505060405180910390f35b3415610af257600080fd5b610b086004808035906020019091905050612c2e565b604051808215151515815260200191505060405180910390f35b3415610b2d57600080fd5b610b436004808035906020019091905050613237565b604051808215151515815260200191505060405180910390f35b3415610b6857600080fd5b610b7061326a565b6040518080602001828103825283818151815260200191508051906020019060200280838360005b83811015610bb3578082015181840152602081019050610b98565b505050509050019250505060405180910390f35b3415610bd257600080fd5b610bda6132fe565b604051808215151515815260200191505060405180910390f35b3415610bff57600080fd5b610c156004808035906020019091905050613311565b604051808273ffffffffffffffffffffffffffffffffffffffff1673ffffffffffffffffffffffffffffffffffffffff16815260200191505060405180910390f35b600080600f83815481101515610c6957fe5b90600052602060002090600f020160030160019054906101000a900460ff16600f84815481101515610c9757fe5b90600052602060002090600f020160030160029054906101000a900460ff1691509150915091565b610cc7613350565b601360008373ffffffffffffffffffffffffffffffffffffffff1673ffffffffffffffffffffffffffffffffffffffff168152602001908152602001600020805480602002602001604051908101604052809291908181526020018280548015610d5057602002820191906000526020600020905b815481526020019060010190808311610d3c575b50505050509050919050565b610d64613350565b601560008373ffffffffffffffffffffffffffffffffffffffff1673ffffffffffffffffffffffffffffffffffffffff168152602001908152602001600020805480602002602001604051908101604052809291908181526020018280548015610ded57602002820191906000526020600020905b815481526020019060010190808311610dd9575b50505050509050919050565b601260205281600052604060002081815481101515610e1457fe5b9060005260206000209001600091509150505481565b60055481565b600d5481565b6000610e40613364565b6000806000600f86815481101515610e5457fe5b90600052602060002090600f020160090160009054906101000a900473ffffffffffffffffffffffffffffffffffffffff16600f87815481101515610e9557fe5b90600052602060002090600f0201600a01600f88815481101515610eb557fe5b90600052602060002090600f0201600b0154600f89815481101515610ed657fe5b90600052602060002090600f0201600c0160009054906101000a900460ff16600f8a815481101515610f0457fe5b90600052602060002090600f0201600c0160019054906101000a900460ff16838054600181600116156101000203166002900480601f016020809104026020016040519081016040528092919081815260200182805460018160011615610100020316600290048015610fb85780601f10610f8d57610100808354040283529160200191610fb8565b820191906000526020600020905b815481529060010190602001808311610f9b57829003601f168201915b505050505093509450945094509450945091939590929450565b610fda613350565b601460008373ffffffffffffffffffffffffffffffffffffffff1673ffffffffffffffffffffffffffffffffffffffff16815260200190815260200160002080548060200260200160405190810160405280929190818152602001828054801561106357602002820191906000526020600020905b81548152602001906001019080831161104f575b50505050509050919050565b60156020528160005260406000208181548110151561108a57fe5b9060005260206000209001600091509150505481565b6000600f828154811015156110b157fe5b90600052602060002090600f020160030160029054906101000a900460ff1615156110db57600080fd5b600f828154811015156110ea57fe5b90600052602060002090600f020160000160003373ffffffffffffffffffffffffffffffffffffffff1673ffffffffffffffffffffffffffffffffffffffff16815260200190815260200160002060009054906101000a900460ff16151561115157600080fd5b600f8281548110151561116057fe5b90600052602060002090600f020160030160009054906101000a900460ff161515600f8381548110151561119057fe5b90600052602060002090600f020160010160003373ffffffffffffffffffffffffffffffffffffffff1673ffffffffffffffffffffffffffffffffffffffff16815260200190815260200160002060009054906101000a900460ff1615151415156111fa57600080fd5b6000600f8381548110151561120b57fe5b90600052602060002090600f020160000160003373ffffffffffffffffffffffffffffffffffffffff1673ffffffffffffffffffffffffffffffffffffffff16815260200190815260200160002060006101000a81548160ff021916908315150217905550600660009054906101000a900473ffffffffffffffffffffffffffffffffffffffff1690508073ffffffffffffffffffffffffffffffffffffffff1663117de2fd33600f858154811015156112c157fe5b90600052602060002090600f0201600e01546040518363ffffffff167c0100000000000000000000000000000000000000000000000000000000028152600401808373ffffffffffffffffffffffffffffffffffffffff1673ffffffffffffffffffffffffffffffffffffffff16815260200182815260200192505050600060405180830381600087803b151561135757600080fd5b6102c65a03f1151561136857600080fd5b5050507f2e4d3189c330c7bfcce65176d6c0b1b49698fd9638f1dbba37a5bfb7e55a28333383600f8581548110151561139d57fe5b90600052602060002090600f0201600e0154604051808473ffffffffffffffffffffffffffffffffffffffff1673ffffffffffffffffffffffffffffffffffffffff168152602001838152602001828152602001935050505060405180910390a15050565b600080600f8381548110151561141457fe5b90600052602060002090600f020160030160029054906101000a900460ff1615151561143f57600080fd5b600f8381548110151561144e57fe5b90600052602060002090600f020160030160019054906101000a900460ff16151561147857600080fd5b600c54600b54600f8581548110151561148d57fe5b90600052602060002090600f020160020154010142101561159b57600860009054906101000a900473ffffffffffffffffffffffffffffffffffffffff1691508173ffffffffffffffffffffffffffffffffffffffff1663d323a4f8336000604051602001526040518263ffffffff167c0100000000000000000000000000000000000000000000000000000000028152600401808273ffffffffffffffffffffffffffffffffffffffff1673ffffffffffffffffffffffffffffffffffffffff168152602001915050602060405180830381600087803b151561157057600080fd5b6102c65a03f1151561158157600080fd5b50505060405180519050151561159657600080fd5b600091505b600f838154811015156115aa57fe5b90600052602060002090600f020160030160009054906101000a900460ff1615156115d457600080fd5b600660009054906101000a900473ffffffffffffffffffffffffffffffffffffffff1690508073ffffffffffffffffffffffffffffffffffffffff1663696c5219600f8581548110151561162457fe5b90600052602060002090600f020160090160009054906101000a900473ffffffffffffffffffffffffffffffffffffffff16600f8681548110151561166557fe5b90600052602060002090600f0201600a01600f8781548110151561168557fe5b90600052602060002090600f0201600b0154600f888154811015156116a657fe5b90600052602060002090600f0201600c0160009054906101000a900460ff16600f898154811015156116d457fe5b90600052602060002090600f0201600c0160019054906101000a900460ff166000604051602001526040518663ffffffff167c0100000000000000000000000000000000000000000000000000000000028152600401808673ffffffffffffffffffffffffffffffffffffffff1673ffffffffffffffffffffffffffffffffffffffff1681526020018060200185600019166000191681526020018460ff1660ff1681526020018360ff1660ff1681526020018281038252868181546001816001161561010002031660029004815260200191508054600181600116156101000203166002900480156118085780601f106117dd57610100808354040283529160200191611808565b820191906000526020600020905b8154815290600101906020018083116117eb57829003601f168201915b50509650505050505050602060405180830381600087803b151561182b57600080fd5b6102c65a03f1151561183c57600080fd5b50505060405180519050506001600f8481548110151561185857fe5b90600052602060002090600f020160030160026101000a81548160ff021916908315150217905550600060118481548110151561189157fe5b90600052602060002090602091828204019190066101000a81548160ff021916908315150217905550601560003373ffffffffffffffffffffffffffffffffffffffff1673ffffffffffffffffffffffffffffffffffffffff168152602001908152602001600020805480600101828161190b9190613378565b9160005260206000209001600085909190915055507f6488668a970b37da2333b4e2f299369ec2545de1cb7772a523818f23e0e5f8b43384604051808373ffffffffffffffffffffffffffffffffffffffff1673ffffffffffffffffffffffffffffffffffffffff1681526020018281526020019250505060405180910390a1505050565b60005481565b6000600f838154811015156119a757fe5b90600052602060002090600f020160000160003373ffffffffffffffffffffffffffffffffffffffff1673ffffffffffffffffffffffffffffffffffffffff16815260200190815260200160002060009054906101000a900460ff16151515611a0f57600080fd5b600760009054906101000a900473ffffffffffffffffffffffffffffffffffffffff1690508073ffffffffffffffffffffffffffffffffffffffff1663d323a4f8336000604051602001526040518263ffffffff167c0100000000000000000000000000000000000000000000000000000000028152600401808273ffffffffffffffffffffffffffffffffffffffff1673ffffffffffffffffffffffffffffffffffffffff168152602001915050602060405180830381600087803b1515611ad757600080fd5b6102c65a03f11515611ae857600080fd5b505050604051805190501515611afd57600080fd5b60009050600f83815481101515611b1057fe5b90600052602060002090600f020160030160019054906101000a900460ff16151515611b3b57600080fd5b8115611b75576001600f84815481101515611b5257fe5b90600052602060002090600f020160070160008282540192505081905550611ba5565b6001600f84815481101515611b8657fe5b90600052602060002090600f0201600601600082825401925050819055505b6001600f84815481101515611bb657fe5b90600052602060002090600f020160000160003373ffffffffffffffffffffffffffffffffffffffff1673ffffffffffffffffffffffffffffffffffffffff16815260200190815260200160002060006101000a81548160ff02191690831515021790555081600f84815481101515611c2b57fe5b90600052602060002090600f020160010160003373ffffffffffffffffffffffffffffffffffffffff1673ffffffffffffffffffffffffffffffffffffffff16815260200190815260200160002060006101000a81548160ff021916908315150217905550601460003373ffffffffffffffffffffffffffffffffffffffff1673ffffffffffffffffffffffffffffffffffffffff1681526020019081526020016000208054806001018281611ce19190613378565b9160005260206000209001600085909190915055507f784f91034367c5f65754729da97be44b2d8e37d9ccfd9f568442de3a84f3fe1f338484604051808473ffffffffffffffffffffffffffffffffffffffff1673ffffffffffffffffffffffffffffffffffffffff16815260200183815260200182151515158152602001935050505060405180910390a1505050565b600760009054906101000a900473ffffffffffffffffffffffffffffffffffffffff1681565b600080600080600080600f87815481101515611db057fe5b90600052602060002090600f020160030160019054906101000a900460ff161515611dda57600080fd5b600f87815481101515611de957fe5b90600052602060002090600f020160050154600f88815481101515611e0a57fe5b90600052602060002090600f020160050154600f89815481101515611e2b57fe5b90600052602060002090600f020160040154600f8a815481101515611e4c57fe5b90600052602060002090600f020160060154600f8b815481101515611e6d57fe5b90600052602060002090600f020160070154600f8c815481101515611e8e57fe5b90600052602060002090600f020160030160009054906101000a900460ff1695509550955095509550955091939550919395565b601360205281600052604060002081815481101515611edd57fe5b9060005260206000209001600091509150505481565b600860009054906101000a900473ffffffffffffffffffffffffffffffffffffffff1681565b600e5481565b600460009054906101000a900460ff1681565b600080611f3d6133a4565b600660009054906101000a900473ffffffffffffffffffffffffffffffffffffffff1691508173ffffffffffffffffffffffffffffffffffffffff1663d323a4f8336000604051602001526040518263ffffffff167c0100000000000000000000000000000000000000000000000000000000028152600401808273ffffffffffffffffffffffffffffffffffffffff1673ffffffffffffffffffffffffffffffffffffffff168152602001915050602060405180830381600087803b151561200557600080fd5b6102c65a03f1151561201657600080fd5b5050506040518051905015151561202c57600080fd5b8173ffffffffffffffffffffffffffffffffffffffff1663234d34de6000604051602001526040518163ffffffff167c0100000000000000000000000000000000000000000000000000000000028152600401602060405180830381600087803b151561209857600080fd5b6102c65a03f115156120a957600080fd5b50505060405180519050600a5402341115156120c457600080fd5b6064600d548373ffffffffffffffffffffffffffffffffffffffff1663234d34de6000604051602001526040518163ffffffff167c0100000000000000000000000000000000000000000000000000000000028152600401602060405180830381600087803b151561213557600080fd5b6102c65a03f1151561214657600080fd5b505050604051805190500281151561215a57fe5b048161010001818152505060008161010001511415612180576001816101000181815250505b600091503381610120019073ffffffffffffffffffffffffffffffffffffffff16908173ffffffffffffffffffffffffffffffffffffffff16815250508581610160019060001916908160001916815250508481610180019060ff16908160ff168152505083816101a0019060ff16908160ff16815250508681610140018190525034816101c00181815250504281600001818152505060008160600190151590811515815250506000816040019015159081151581525050600081602001901515908115158152505060008160a0018181525050600081608001818152505060008160c001818152505060008160e00181815250506000816101e0018181525050600f8054806001018281612296919061344d565b91600052602060002090600f020160008390919091506000820151816002015560208201518160030160006101000a81548160ff02191690831515021790555060408201518160030160016101000a81548160ff02191690831515021790555060608201518160030160026101000a81548160ff0219169083151502179055506080820151816004015560a0820151816005015560c0820151816006015560e0820151816007015561010082015181600801556101208201518160090160006101000a81548173ffffffffffffffffffffffffffffffffffffffff021916908373ffffffffffffffffffffffffffffffffffffffff16021790555061014082015181600a0190805190602001906123ae92919061347f565b5061016082015181600b019060001916905561018082015181600c0160006101000a81548160ff021916908360ff1602179055506101a082015181600c0160016101000a81548160ff021916908360ff1602179055506101c082015181600d01556101e082015181600e01555050506124256133a4565b90506001600f805490500392506001600e60008282540192505081905550601260003373ffffffffffffffffffffffffffffffffffffffff1673ffffffffffffffffffffffffffffffffffffffff16815260200190815260200160002080548060010182816124949190613378565b916000526020600020900160008590919091505550601080548060010182816124bd91906134ff565b91600052602060002090602091828204019190066001909190916101000a81548160ff021916908315150217905550506011805480600101828161250191906134ff565b91600052602060002090602091828204019190066000909190916101000a81548160ff021916908315150217905550507f362fe28119932e029adb55bc2d8adcd4902c1f751a356d510fc4492728b1112d3334888888604051808673ffffffffffffffffffffffffffffffffffffffff1673ffffffffffffffffffffffffffffffffffffffff16815260200185815260200184600019166000191681526020018360ff1660ff1681526020018260ff1660ff1681526020019550505050505060405180910390a1600660009054906101000a900473ffffffffffffffffffffffffffffffffffffffff1673ffffffffffffffffffffffffffffffffffffffff166108fc349081150290604051600060405180830381858888f19350505050151561262a57600080fd5b5050949350505050565b6000600f8281548110151561264557fe5b90600052602060002090600f020160000160003373ffffffffffffffffffffffffffffffffffffffff1673ffffffffffffffffffffffffffffffffffffffff16815260200190815260200160002060009054906101000a900460ff169050919050565b600b5481565b600660009054906101000a900473ffffffffffffffffffffffffffffffffffffffff1681565b6000600660009054906101000a900473ffffffffffffffffffffffffffffffffffffffff1690508073ffffffffffffffffffffffffffffffffffffffff1663d323a4f8336000604051602001526040518263ffffffff167c0100000000000000000000000000000000000000000000000000000000028152600401808273ffffffffffffffffffffffffffffffffffffffff1673ffffffffffffffffffffffffffffffffffffffff168152602001915050602060405180830381600087803b151561279e57600080fd5b6102c65a03f115156127af57600080fd5b5050506040518051905015156127c457600080fd5b60009050600f838154811015156127d757fe5b90600052602060002090600f020160000160003373ffffffffffffffffffffffffffffffffffffffff1673ffffffffffffffffffffffffffffffffffffffff16815260200190815260200160002060009054906101000a900460ff1615151561283f57600080fd5b600f8381548110151561284e57fe5b90600052602060002090600f020160030160019054906101000a900460ff1615151561287957600080fd5b6001151582151514156128b6576001600f8481548110151561289757fe5b90600052602060002090600f0201600401600082825401925050819055505b6001600f848154811015156128c757fe5b90600052602060002090600f020160000160003373ffffffffffffffffffffffffffffffffffffffff1673ffffffffffffffffffffffffffffffffffffffff16815260200190815260200160002060006101000a81548160ff02191690831515021790555081600f8481548110151561293c57fe5b90600052602060002090600f020160010160003373ffffffffffffffffffffffffffffffffffffffff1673ffffffffffffffffffffffffffffffffffffffff16815260200190815260200160002060006101000a81548160ff0219169083151502179055506001600f848154811015156129b257fe5b90600052602060002090600f020160050160008282540192505081905550601360003373ffffffffffffffffffffffffffffffffffffffff1673ffffffffffffffffffffffffffffffffffffffff1681526020019081526020016000208054806001018281612a219190613378565b9160005260206000209001600085909190915055507fd1faddd599b0d6b58c83de71d7ff5395895b5891894dcd37f2482f33b2a1c43d3384604051808373ffffffffffffffffffffffffffffffffffffffff1673ffffffffffffffffffffffffffffffffffffffff1681526020018281526020019250505060405180910390a1505050565b612aae613350565b601260008373ffffffffffffffffffffffffffffffffffffffff1673ffffffffffffffffffffffffffffffffffffffff168152602001908152602001600020805480602002602001604051908101604052809291908181526020018280548015612b3757602002820191906000526020600020905b815481526020019060010190808311612b23575b50505050509050919050565b601181815481101515612b5257fe5b9060005260206000209060209182820401919006915054906101000a900460ff1681565b600c5481565b6000806000600f84815481101515612b9057fe5b90600052602060002090600f020160020154600b54600f86815481101515612bb457fe5b90600052602060002090600f02016002015401600c54600b54600f88815481101515612bdc57fe5b90600052602060002090600f02016002015401019250925092509193909250565b601460205281600052604060002081815481101515612c1857fe5b9060005260206000209001600091509150505481565b600080600f83815481101515612c4057fe5b90600052602060002090600f020160030160019054906101000a900460ff16151515612c6b57600080fd5b42600b54600f85815481101515612c7e57fe5b90600052602060002090600f02016002015401101515612c9d57600080fd5b600f83815481101515612cac57fe5b90600052602060002090600f020160080154600f84815481101515612ccd57fe5b90600052602060002090600f02016005015410151515612cec57600080fd5b600760009054906101000a900473ffffffffffffffffffffffffffffffffffffffff169050600090508073ffffffffffffffffffffffffffffffffffffffff1663234d34de6000604051602001526040518163ffffffff167c0100000000000000000000000000000000000000000000000000000000028152600401602060405180830381600087803b1515612d8157600080fd5b6102c65a03f11515612d9257600080fd5b50505060405180519050600f84815481101515612dab57fe5b90600052602060002090600f020160060154101515612e9857600091506001600f84815481101515612dd957fe5b90600052602060002090600f020160030160026101000a81548160ff021916908315150217905550600f83815481101515612e1057fe5b90600052602060002090600f020160040154600f84815481101515612e3157fe5b90600052602060002090600f02016005015403600f84815481101515612e5357fe5b90600052602060002090600f0201600d0154811515612e6e57fe5b04600f84815481101515612e7e57fe5b90600052602060002090600f0201600e01819055506130de565b8073ffffffffffffffffffffffffffffffffffffffff1663234d34de6000604051602001526040518163ffffffff167c0100000000000000000000000000000000000000000000000000000000028152600401602060405180830381600087803b1515612f0457600080fd5b6102c65a03f11515612f1557600080fd5b50505060405180519050600f84815481101515612f2e57fe5b90600052602060002090600f020160070154101580612f8f5750600f83815481101515612f5757fe5b90600052602060002090600f0201600501546002600f85815481101515612f7a57fe5b90600052602060002090600f02016004015402115b1561300d5760019150600f83815481101515612fa757fe5b90600052602060002090600f020160040154600f84815481101515612fc857fe5b90600052602060002090600f0201600d0154811515612fe357fe5b04600f84815481101515612ff357fe5b90600052602060002090600f0201600e01819055506130dd565b600091506001600f8481548110151561302257fe5b90600052602060002090600f020160030160026101000a81548160ff021916908315150217905550600f8381548110151561305957fe5b90600052602060002090600f020160040154600f8481548110151561307a57fe5b90600052602060002090600f02016005015403600f8481548110151561309c57fe5b90600052602060002090600f0201600d01548115156130b757fe5b04600f848154811015156130c757fe5b90600052602060002090600f0201600e01819055505b5b6001600f848154811015156130ef57fe5b90600052602060002090600f020160030160016101000a81548160ff02191690831515021790555081600f8481548110151561312757fe5b90600052602060002090600f020160030160006101000a81548160ff021916908315150217905550600060108481548110151561316057fe5b90600052602060002090602091828204019190066101000a81548160ff021916908315150217905550600160118481548110151561319a57fe5b90600052602060002090602091828204019190066101000a81548160ff0219169083151502179055507f297f1f08d2ef8c90272f7ee3e1d4272015a96cdff8a252b60547b9e432e723603384604051808373ffffffffffffffffffffffffffffffffffffffff1673ffffffffffffffffffffffffffffffffffffffff1681526020018281526020019250505060405180910390a181915050919050565b60108181548110151561324657fe5b9060005260206000209060209182820401919006915054906101000a900460ff1681565b613272613539565b60098054806020026020016040519081016040528092919081815260200182805480156132f457602002820191906000526020600020905b8160009054906101000a900473ffffffffffffffffffffffffffffffffffffffff1673ffffffffffffffffffffffffffffffffffffffff16815260200190600101908083116132aa575b5050505050905090565b600460019054906101000a900460ff1681565b60098181548110151561332057fe5b90600052602060002090016000915054906101000a900473ffffffffffffffffffffffffffffffffffffffff1681565b602060405190810160405280600081525090565b602060405190810160405280600081525090565b81548183558181151161339f5781836000526020600020918201910161339e919061354d565b5b505050565b61020060405190810160405280600081526020016000151581526020016000151581526020016000151581526020016000815260200160008152602001600081526020016000815260200160008152602001600073ffffffffffffffffffffffffffffffffffffffff16815260200161341b613572565b815260200160008019168152602001600060ff168152602001600060ff16815260200160008152602001600081525090565b81548183558181151161347a57600f0281600f0283600052602060002091820191016134799190613586565b5b505050565b828054600181600116156101000203166002900490600052602060002090601f016020900481019282601f106134c057805160ff19168380011785556134ee565b828001600101855582156134ee579182015b828111156134ed5782518255916020019190600101906134d2565b5b5090506134fb919061354d565b5090565b81548183558181151161353457601f016020900481601f01602090048360005260206000209182019101613533919061354d565b5b505050565b602060405190810160405280600081525090565b61356f91905b8082111561356b576000816000905550600101613553565b5090565b90565b602060405190810160405280600081525090565b61368691905b8082111561368257600060028201600090556003820160006101000a81549060ff02191690556003820160016101000a81549060ff02191690556003820160026101000a81549060ff0219169055600482016000905560058201600090556006820160009055600782016000905560088201600090556009820160006101000a81549073ffffffffffffffffffffffffffffffffffffffff0219169055600a820160006136399190613689565b600b820160009055600c820160006101000a81549060ff0219169055600c820160016101000a81549060ff0219169055600d820160009055600e82016000905550600f0161358c565b5090565b90565b50805460018160011615610100020316600290046000825580601f106136af57506136ce565b601f0160209004906000526020600020908101906136cd919061354d565b5b505600a165627a7a72305820893637168055aea2cf3dde364f532d18755a64e541353c1afdc36c97a45d1e090029",
  "source": "pragma solidity ^0.4.11;\n\n// Standard contract for promulgation of a norm\n\nimport \"../standardProcedure.sol\";\nimport \"../standardOrgan.sol\";\n\n\ncontract normsCooptationProcedure is Procedure{\n    // 1: Cyclical many to one election (Presidential Election)\n    // 2: Cyclical many to many election (Moderators Election)\n    // 3: Simple norm nomination \n    // 4: Simple admins and master nomination\n    // 5: Vote on Norms \n    // 6: Vote on masters and admins \n    // 7: Norms cooptation\n    int public procedureTypeNumber = 7;\n\n    // Which organ will be affected\n    address public membersOrganContract;\n\n    // Organ in which the voters with veto power are registered\n    address public membersWithVetoOrganContract;\n\n    // Organ in which final promulgators are listed\n    address public finalPromulgatorsOrganContract;\n\n    // Gathering connected organs for easier DAO mapping\n    address[] public linkedOrgans;\n\n    // ############## Variable to set up when declaring the procedure\n    // ####### Vote creation process\n    uint minimumDepositSize;\n\n    // ####### Voting process\n    // Time for participant to vote\n    uint public votingPeriodDuration;\n\n    // Time for the final promulgators to promulgate\n    uint public promulgationPeriodDuration;\n\n    // ####### Resolution process\n    // Minimum participation to validate election\n    uint public quorumSize;\n\n    // Variable of the procedure to keep track of propositions\n    uint public totalPropositionNumber;\n\n    // Proposition structure\n    struct Proposition {\n        // **** Voting variables\n        // Mapping to track if each user voted\n        mapping(address => bool) hasUserVoted;\n        // Mapping to track user votes\n        mapping(address => bool) whatHasUserVoted;\n        // Time of proposition creation\n        uint startDate;\n        // Was the proposition accepted?\n        bool wasAccepted;\n        // Was the proposition counted?\n        bool wasCounted;\n        // Was the proposition acted upon?\n        bool wasEnacted;\n        // How many people voted YES?\n        uint voteFor;\n        // How many people voted?\n        uint totalVoteCount;\n        // Was the proposition vetoed by the Vetoing members?\n        uint vetoCount;\n        // Was the proposition validated by the Vetoing members?\n        uint notVetoCount;\n        // How many members need to vote to enact proposition?\n        uint requiredQuorum;\n        // Proposition details\n        address candidateAddress;\n        string name;\n        bytes32 ipfsHash; // ID of proposal on IPFS\n        uint8 hash_function;\n        uint8 size;\n        uint deposit;\n        uint payoutPerUser;\n    }\n\n\n    // A dynamically-sized array of `Proposition` structs.\n    Proposition[] propositions;\n\n    // Dynamic size array of status of propositions\n    bool[] public propositionsWaitingEndOfVote;\n    bool[] public propositionsWaitingPromulgation;\n\n    // Mapping each proposition to the user creating it\n    mapping (address => uint[]) public propositionToUser;    \n\n    // Mapping each proposition to the user who participated\n    mapping (address => uint[]) public propositionToVoter;\n\n    // Mapping each proposition to the user vetoing it\n    mapping (address => uint[]) public propositionToVetoer;\n\n    // Mapping each proposition to the user promulgating it\n    mapping (address => uint[]) public propositionToPromulgator;\n\n    \n\n    // Events\n    event createPropositionEvent(address _candidateAddress, uint _deposit, bytes32 _ipfsHash, uint8 _hash_function, uint8 _size);\n    event voteOnProposition(address _from, uint _propositionNumber);\n    event vetoProposition(address _from, uint _propositionNumber, bool _decision);\n    event countVotes(address _from, uint _propositionNumber);\n    event promulgatePropositionEvent(address _from, uint _propositionNumber);\n    event withdrawal(address _from, uint _propositionNumber, uint _value);\n\n    /// Create a new ballot to choose one of `proposalNames`.\n    function createProposition(string _name, bytes32 _ipfsHash, uint8 _hash_function, uint8 _size) public payable returns (uint propositionNumber){\n\n            // Checking that the proposition is not made on an existing member\n            Organ membersOrgan = Organ(membersOrganContract);\n            require(!membersOrgan.isNorm(msg.sender));\n\n            // Check that deposit size is enough\n            require(msg.value > minimumDepositSize * membersOrgan.getActiveNormNumber());\n\n            // Creating new proposition \n            Proposition memory newProposition;\n            \n            // Calculating required quorum\n            newProposition.requiredQuorum = membersOrgan.getActiveNormNumber()*quorumSize/100;\n            if (newProposition.requiredQuorum == 0){\n                newProposition.requiredQuorum = 1;\n            }\n            delete membersOrgan;\n\n            \n            newProposition.candidateAddress = msg.sender;\n            newProposition.ipfsHash = _ipfsHash;\n            newProposition.hash_function = _hash_function;\n            newProposition.size = _size;\n            newProposition.name = _name;\n            newProposition.deposit = msg.value;\n\n            // Instanciating proposition\n\n            newProposition.startDate = now;\n            newProposition.wasEnacted = false;\n            newProposition.wasCounted = false;\n            newProposition.wasAccepted = false;\n            newProposition.totalVoteCount = 0;\n            newProposition.voteFor = 0;\n            newProposition.vetoCount = 0;\n            newProposition.notVetoCount = 0;\n            newProposition.payoutPerUser = 0;\n\n            // newProposition.voteAgainst = 0;\n            propositions.push(newProposition);\n            delete newProposition;\n\n            propositionNumber = propositions.length - 1;\n\n            // Tracking propositions being deposed\n            totalPropositionNumber += 1;\n            propositionToUser[msg.sender].push(propositionNumber);\n            propositionsWaitingEndOfVote.push(true);\n            propositionsWaitingPromulgation.push(false);\n\n            // proposition creation event\n            createPropositionEvent(msg.sender, msg.value, _ipfsHash, _hash_function, _size);\n\n            // Sending deposit to organ\n            membersOrganContract.transfer(msg.value);\n    }\n\n    // Vote for a proposition\n    function vote(uint _propositionNumber, bool _acceptProposition) public {\n\n        // Check the voter is able to vote on a proposition\n        Organ membersOrgan = Organ(membersOrganContract);\n        require(membersOrgan.isNorm(msg.sender));\n        delete membersOrgan;\n        \n        // Check if voter already voted\n        require(!propositions[_propositionNumber].hasUserVoted[msg.sender]);\n\n        // Check if vote is still active\n        require(!propositions[_propositionNumber].wasCounted);\n\n        // Adding vote\n        if(_acceptProposition == true)\n        {propositions[_propositionNumber].voteFor += 1;}\n\n        // Log that user voted\n        propositions[_propositionNumber].hasUserVoted[msg.sender] = true;\n\n        // Log what the user voted\n        propositions[_propositionNumber].whatHasUserVoted[msg.sender] = _acceptProposition;\n        \n        // Adding vote count\n        propositions[_propositionNumber].totalVoteCount += 1;\n\n        // Log that user voted on this proposition\n        propositionToVoter[msg.sender].push(_propositionNumber);\n\n        // create vote event\n        voteOnProposition(msg.sender, _propositionNumber);\n    }\n\n        /// Veto a candidate\n    function veto(uint _propositionNumber, bool _acceptProposition) public {\n\n        // Check if voter already voted\n        require(!propositions[_propositionNumber].hasUserVoted[msg.sender]);\n\n        // Check the voter is able to veto the proposition\n        Organ membersWithVetoOrgan = Organ(membersWithVetoOrganContract);\n        require(membersWithVetoOrgan.isNorm(msg.sender));\n        delete membersWithVetoOrgan;\n        \n        // Check if vote is still active\n        require(!propositions[_propositionNumber].wasCounted);\n\n        // Log decision\n        if (_acceptProposition) {\n            propositions[_propositionNumber].notVetoCount += 1;\n        }\n       else {\n            propositions[_propositionNumber].vetoCount += 1;\n       }\n\n       // Log that user voted\n        propositions[_propositionNumber].hasUserVoted[msg.sender] = true;\n\n        // Log what the user voted\n        propositions[_propositionNumber].whatHasUserVoted[msg.sender] = _acceptProposition;\n\n        // Log that user vetoed this proposition\n        propositionToVetoer[msg.sender].push(_propositionNumber);\n\n        //  Create veto event\n        vetoProposition(msg.sender, _propositionNumber, _acceptProposition);\n\n    }\n\n    // The vote is finished and we close it. This does not trigger the outcome of the vote. PromulgateProposition() should be called after\n    function endPropositionVote(uint _propositionNumber) public returns (bool hasBeenAccepted) {\n        // We check if the vote was already counted\n        require(!propositions[_propositionNumber].wasCounted);\n\n        // Checking that the vote can be closed\n        require(propositions[_propositionNumber].startDate + votingPeriodDuration < now);\n\n        // Checking that the vote received enough votes to be closed\n        require((propositions[_propositionNumber].totalVoteCount >= propositions[_propositionNumber].requiredQuorum));\n\n        // Checking if members with vetoed blocked/forced the proposition\n        Organ membersWithVetoOrgan = Organ(membersWithVetoOrganContract);\n\n\n        delete membersWithVetoOrgan;\n        // We check that Quorum was obtained and that a majority of votes were cast in favor of the proposition\n        if (propositions[_propositionNumber].vetoCount >= membersWithVetoOrgan.getActiveNormNumber())\n            {hasBeenAccepted=false;\n                propositions[_propositionNumber].wasEnacted = true;\n                propositions[_propositionNumber].payoutPerUser = propositions[_propositionNumber].deposit/(propositions[_propositionNumber].totalVoteCount-propositions[_propositionNumber].voteFor);}\n        else if ((propositions[_propositionNumber].notVetoCount >= membersWithVetoOrgan.getActiveNormNumber()) || (propositions[_propositionNumber].voteFor*2 > propositions[_propositionNumber].totalVoteCount) )\n            {hasBeenAccepted = true;\n            propositions[_propositionNumber].payoutPerUser = propositions[_propositionNumber].deposit/propositions[_propositionNumber].voteFor;}\n        else \n            {hasBeenAccepted=false;\n            propositions[_propositionNumber].wasEnacted = true;\n            propositions[_propositionNumber].payoutPerUser = propositions[_propositionNumber].deposit/(propositions[_propositionNumber].totalVoteCount-propositions[_propositionNumber].voteFor);}\n\n\n        // ############## Updating ballot values if vote concluded\n        propositions[_propositionNumber].wasCounted = true;\n        propositions[_propositionNumber].wasAccepted = hasBeenAccepted;\n        propositionsWaitingEndOfVote[_propositionNumber] = false;\n        propositionsWaitingPromulgation[_propositionNumber] = true;\n\n        // Calculating payout per user\n\n\n        countVotes(msg.sender, _propositionNumber);\n\n        return hasBeenAccepted;\n    }\n\n    function promulgateProposition(uint _propositionNumber) public\n    {\n        // Checking if ballot was already enforced\n        require(!propositions[_propositionNumber].wasEnacted );\n\n        // Checking the ballot was counted\n        require(propositions[_propositionNumber].wasCounted);\n\n        // If promulgation is happening before endOfVote + promulgationPeriodDuration, check caller is an official promulgator\n        if (now < propositions[_propositionNumber].startDate + votingPeriodDuration + promulgationPeriodDuration)\n            {        // Check the voter is able to promulgate the proposition\n            Organ promulgatorsOrgan = Organ(finalPromulgatorsOrganContract);\n            require(promulgatorsOrgan.isNorm(msg.sender));\n            delete promulgatorsOrgan;\n            }\n\n        // Checking the ballot was accepted\n        require(propositions[_propositionNumber].wasAccepted);\n\n        // We initiate the Organ interface to add a norm\n\n        Organ membersOrgan = Organ(membersOrganContract);\n         // Adding a new norm\n        membersOrgan.addNorm(propositions[_propositionNumber].candidateAddress, propositions[_propositionNumber].name , propositions[_propositionNumber].ipfsHash, propositions[_propositionNumber].hash_function, propositions[_propositionNumber].size );\n                \n            \n\n        \n        propositions[_propositionNumber].wasEnacted = true;\n        propositionsWaitingPromulgation[_propositionNumber] = false;\n        propositionToPromulgator[msg.sender].push(_propositionNumber);\n        // promulgation event\n        promulgatePropositionEvent(msg.sender, _propositionNumber);\n\n    }\n\n     function withDrawPayout(uint _propositionNumber) public {\n        // Checking if ballot was already enforced\n        require(propositions[_propositionNumber].wasEnacted );\n\n        // Checking that the user voted, or that he did not already cash out\n        require(propositions[_propositionNumber].hasUserVoted[msg.sender] );\n\n        // Checking that the user voted as the crowd\n        require(propositions[_propositionNumber].whatHasUserVoted[msg.sender] == propositions[_propositionNumber].wasAccepted);\n\n        // Disabling the possibilit to cash out\n        propositions[_propositionNumber].hasUserVoted[msg.sender] = false;\n\n        // Send payment\n        Organ membersOrgan = Organ(membersOrganContract);\n        membersOrgan.payout(msg.sender, propositions[_propositionNumber].payoutPerUser);\n\n        // Log event\n        withdrawal(msg.sender, _propositionNumber, propositions[_propositionNumber].payoutPerUser);\n\n     }\n\n        //////////////////////// Functions to communicate with other contracts\n    function getPropositionDetails(uint _propositionNumber) public view returns (address _candidateAddress, string _name, bytes32 _ipfsHash, uint8 _hash_function, uint8 _size){\n        return (propositions[_propositionNumber].candidateAddress, propositions[_propositionNumber].name, propositions[_propositionNumber].ipfsHash, propositions[_propositionNumber].hash_function, propositions[_propositionNumber].size);\n    }\n    function getPropositionDates(uint _propositionNumber) public view returns (uint _startDate, uint _votingPeriodEndDate, uint _promulgatorWindowEndDate){\n        return (propositions[_propositionNumber].startDate, propositions[_propositionNumber].startDate + votingPeriodDuration, propositions[_propositionNumber].startDate + votingPeriodDuration + promulgationPeriodDuration);\n    }\n    function getPropositionStatus(uint _propositionNumber) public view returns (bool _wasCounted, bool _wasEnacted){\n        return (propositions[_propositionNumber].wasCounted, propositions[_propositionNumber].wasEnacted);\n    }\n    function getVotedPropositionResults(uint _propositionNumber) public view returns (uint totalVoters, uint _totalVoteCount, uint _voteFor, uint _vetoCount, uint _notVetoCount, bool _wasAccepted){\n        require(propositions[_propositionNumber].wasCounted);\n        return (propositions[_propositionNumber].totalVoteCount, propositions[_propositionNumber].totalVoteCount, propositions[_propositionNumber].voteFor, propositions[_propositionNumber].vetoCount, propositions[_propositionNumber].notVetoCount, propositions[_propositionNumber].wasAccepted);\n        }\n    function getPropositionsCreatedByUser(address _userAddress) public view returns (uint[])\n    {return propositionToUser[_userAddress];}    \n    function getPropositionsVetoedByUser(address _userAddress) public view returns (uint[])\n    {return propositionToVetoer[_userAddress];}  \n    function getPropositionsPromulgatedByUser(address _userAddress) public view returns (uint[])\n    {return propositionToPromulgator[_userAddress];}  \n    function getPropositionsUsedByUser(address _userAddress) public view returns (uint[])\n    {return propositionToVoter[_userAddress];}  \n    function haveIVoted(uint propositionNumber) public view returns (bool IHaveVoted)\n    {return propositions[propositionNumber].hasUserVoted[msg.sender];}\n    function getLinkedOrgans() public view returns (address[] _linkedOrgans)\n    {return linkedOrgans;}\n\n}\n\n",
  "sourcePath": "/Users/henrilieutaud/Documents/Mes documents/97/Workshop/Kelsen/solidity/contracts/procedures/normsCooptationProcedure.sol",
  "compiler": {
    "name": "solc",
    "version": "0.4.19+commit.c4cbbb05.Emscripten.clang"
  },
  "schemaVersion": "2.0.0",
  "updatedAt": "2018-05-14T16:57:58.667Z"
}