{
  "contractName": "Procedure",
  "abi": [
    {
      "constant": true,
      "inputs": [],
      "name": "procedureTypeNumber",
      "outputs": [
        {
          "name": "",
          "type": "int256"
        }
      ],
      "payable": false,
      "stateMutability": "view",
      "type": "function"
    },
    {
      "constant": true,
      "inputs": [],
      "name": "kelsenVersionNumber",
      "outputs": [
        {
          "name": "",
          "type": "int256"
        }
      ],
      "payable": false,
      "stateMutability": "view",
      "type": "function"
    },
    {
      "constant": true,
      "inputs": [],
      "name": "isAnOrgan",
      "outputs": [
        {
          "name": "",
          "type": "bool"
        }
      ],
      "payable": false,
      "stateMutability": "view",
      "type": "function"
    },
    {
      "constant": true,
      "inputs": [],
      "name": "isAProcedure",
      "outputs": [
        {
          "name": "",
          "type": "bool"
        }
      ],
      "payable": false,
      "stateMutability": "view",
      "type": "function"
    }
  ],
  "bytecode": "0x60606040526000600360006101000a81548160ff0219169083151502179055506001600360016101000a81548160ff021916908315150217905550341561004557600080fd5b610171806100546000396000f300606060405260043610610062576000357c0100000000000000000000000000000000000000000000000000000000900463ffffffff1680632647d7f9146100675780635dbe4d2814610090578063a8bef97a146100b9578063e80b30a5146100e6575b600080fd5b341561007257600080fd5b61007a610113565b6040518082815260200191505060405180910390f35b341561009b57600080fd5b6100a3610119565b6040518082815260200191505060405180910390f35b34156100c457600080fd5b6100cc61011f565b604051808215151515815260200191505060405180910390f35b34156100f157600080fd5b6100f9610132565b604051808215151515815260200191505060405180910390f35b60025481565b60005481565b600360009054906101000a900460ff1681565b600360019054906101000a900460ff16815600a165627a7a72305820d1d885bcfabfc17b1e6af3ce4aec59e8a1d950d818af9386923f15d6f36ce8020029",
  "source": "pragma solidity ^0.4.11;\n\n/// @title Standard organ contract\n\nimport \"./Kelsen.sol\";\n\n\ncontract Procedure is Kelsen {\n    // Identifiers to adapt procedure interface\n    int public procedureTypeNumber;\n    bool public isAnOrgan = false;\n    bool public isAProcedure = true;\n}\n",
  "sourcePath": "/Users/henrilieutaud/Documents/Mes documents/97/Workshop/Kelsen/solidity/contracts/standardProcedure.sol",
  "compiler": {
    "name": "solc",
    "version": "0.4.19+commit.c4cbbb05.Emscripten.clang"
  },
  "schemaVersion": "2.0.0",
  "updatedAt": "2018-05-14T09:52:50.140Z"
}