{
  "contractName": "simpleNormNominationProcedure",
  "abi": [
    {
      "constant": true,
      "inputs": [],
      "name": "procedureTypeNumber",
      "outputs": [
        {
          "name": "",
          "type": "int256"
        }
      ],
      "payable": false,
      "stateMutability": "view",
      "type": "function"
    },
    {
      "constant": true,
      "inputs": [],
      "name": "kelsenVersionNumber",
      "outputs": [
        {
          "name": "",
          "type": "int256"
        }
      ],
      "payable": false,
      "stateMutability": "view",
      "type": "function"
    },
    {
      "constant": true,
      "inputs": [],
      "name": "authorizedNominatersOrgan",
      "outputs": [
        {
          "name": "",
          "type": "address"
        }
      ],
      "payable": false,
      "stateMutability": "view",
      "type": "function"
    },
    {
      "constant": true,
      "inputs": [],
      "name": "isAnOrgan",
      "outputs": [
        {
          "name": "",
          "type": "bool"
        }
      ],
      "payable": false,
      "stateMutability": "view",
      "type": "function"
    },
    {
      "constant": true,
      "inputs": [],
      "name": "isAProcedure",
      "outputs": [
        {
          "name": "",
          "type": "bool"
        }
      ],
      "payable": false,
      "stateMutability": "view",
      "type": "function"
    },
    {
      "constant": false,
      "inputs": [
        {
          "name": "_targetOrgan",
          "type": "address"
        },
        {
          "name": "_normAdress",
          "type": "address"
        },
        {
          "name": "_name",
          "type": "string"
        },
        {
          "name": "_ipfsHash",
          "type": "bytes32"
        },
        {
          "name": "_hash_function",
          "type": "uint8"
        },
        {
          "name": "_size",
          "type": "uint8"
        }
      ],
      "name": "addNorm",
      "outputs": [
        {
          "name": "newNormNumber",
          "type": "uint256"
        }
      ],
      "payable": false,
      "stateMutability": "nonpayable",
      "type": "function"
    },
    {
      "constant": false,
      "inputs": [
        {
          "name": "_targetOrgan",
          "type": "address"
        },
        {
          "name": "_normNumber",
          "type": "uint256"
        }
      ],
      "name": "remNorm",
      "outputs": [],
      "payable": false,
      "stateMutability": "nonpayable",
      "type": "function"
    },
    {
      "constant": false,
      "inputs": [
        {
          "name": "_targetOrgan",
          "type": "address"
        },
        {
          "name": "_oldNormNumber",
          "type": "uint256"
        },
        {
          "name": "_newNormAdress",
          "type": "address"
        },
        {
          "name": "_name",
          "type": "string"
        },
        {
          "name": "_ipfsHash",
          "type": "bytes32"
        },
        {
          "name": "_hash_function",
          "type": "uint8"
        },
        {
          "name": "_size",
          "type": "uint8"
        }
      ],
      "name": "replaceNorm",
      "outputs": [],
      "payable": false,
      "stateMutability": "nonpayable",
      "type": "function"
    }
  ],
  "bytecode": "0x60606040526000600360006101000a81548160ff0219169083151502179055506001600360016101000a81548160ff0219169083151502179055506003600455341561004a57600080fd5b610cbb806100596000396000f30060606040526004361061008e576000357c0100000000000000000000000000000000000000000000000000000000900463ffffffff1680632647d7f91461009357806326a1d187146100bc578063418414ff146100fe5780635dbe4d28146101d25780637d3575f0146101fb578063a587f936146102c4578063a8bef97a14610319578063e80b30a514610346575b600080fd5b341561009e57600080fd5b6100a6610373565b6040518082815260200191505060405180910390f35b34156100c757600080fd5b6100fc600480803573ffffffffffffffffffffffffffffffffffffffff16906020019091908035906020019091905050610379565b005b341561010957600080fd5b6101bc600480803573ffffffffffffffffffffffffffffffffffffffff1690602001909190803573ffffffffffffffffffffffffffffffffffffffff1690602001909190803590602001908201803590602001908080601f016020809104026020016040519081016040528093929190818152602001838380828437820191505050505050919080356000191690602001909190803560ff1690602001909190803560ff169060200190919050506105d0565b6040518082815260200191505060405180910390f35b34156101dd57600080fd5b6101e561090b565b6040518082815260200191505060405180910390f35b341561020657600080fd5b6102c2600480803573ffffffffffffffffffffffffffffffffffffffff1690602001909190803590602001909190803573ffffffffffffffffffffffffffffffffffffffff1690602001909190803590602001908201803590602001908080601f016020809104026020016040519081016040528093929190818152602001838380828437820191505050505050919080356000191690602001909190803560ff1690602001909190803560ff16906020019091905050610911565b005b34156102cf57600080fd5b6102d7610c43565b604051808273ffffffffffffffffffffffffffffffffffffffff1673ffffffffffffffffffffffffffffffffffffffff16815260200191505060405180910390f35b341561032457600080fd5b61032c610c69565b604051808215151515815260200191505060405180910390f35b341561035157600080fd5b610359610c7c565b604051808215151515815260200191505060405180910390f35b60045481565b600080600080600560009054906101000a900473ffffffffffffffffffffffffffffffffffffffff1693508373ffffffffffffffffffffffffffffffffffffffff1663d323a4f8336000604051602001526040518263ffffffff167c0100000000000000000000000000000000000000000000000000000000028152600401808273ffffffffffffffffffffffffffffffffffffffff1673ffffffffffffffffffffffffffffffffffffffff168152602001915050602060405180830381600087803b151561044757600080fd5b6102c65a03f1151561045857600080fd5b50505060405180519050151561046d57600080fd5b600093508592508273ffffffffffffffffffffffffffffffffffffffff166324d7806c306000604051604001526040518263ffffffff167c0100000000000000000000000000000000000000000000000000000000028152600401808273ffffffffffffffffffffffffffffffffffffffff1673ffffffffffffffffffffffffffffffffffffffff1681526020019150506040805180830381600087803b151561051657600080fd5b6102c65a03f1151561052757600080fd5b50505060405180519060200180519050809250819350505080156105c8578273ffffffffffffffffffffffffffffffffffffffff16630e9defff866040518263ffffffff167c010000000000000000000000000000000000000000000000000000000002815260040180828152602001915050600060405180830381600087803b15156105b357600080fd5b6102c65a03f115156105c457600080fd5b5050505b505050505050565b6000806000806000600560009054906101000a900473ffffffffffffffffffffffffffffffffffffffff1693508373ffffffffffffffffffffffffffffffffffffffff1663d323a4f8336000604051602001526040518263ffffffff167c0100000000000000000000000000000000000000000000000000000000028152600401808273ffffffffffffffffffffffffffffffffffffffff1673ffffffffffffffffffffffffffffffffffffffff168152602001915050602060405180830381600087803b15156106a057600080fd5b6102c65a03f115156106b157600080fd5b5050506040518051905015156106c657600080fd5b600093508a92508273ffffffffffffffffffffffffffffffffffffffff166324d7806c306000604051604001526040518263ffffffff167c0100000000000000000000000000000000000000000000000000000000028152600401808273ffffffffffffffffffffffffffffffffffffffff1673ffffffffffffffffffffffffffffffffffffffff1681526020019150506040805180830381600087803b151561076f57600080fd5b6102c65a03f1151561078057600080fd5b50505060405180519060200180519050809250819350505081156108fc578273ffffffffffffffffffffffffffffffffffffffff1663696c52198b8b8b8b8b6000604051602001526040518663ffffffff167c0100000000000000000000000000000000000000000000000000000000028152600401808673ffffffffffffffffffffffffffffffffffffffff1673ffffffffffffffffffffffffffffffffffffffff1681526020018060200185600019166000191681526020018460ff1660ff1681526020018360ff1660ff168152602001828103825286818151815260200191508051906020019080838360005b8381101561088b578082015181840152602081019050610870565b50505050905090810190601f1680156108b85780820380516001836020036101000a031916815260200191505b509650505050505050602060405180830381600087803b15156108da57600080fd5b6102c65a03f115156108eb57600080fd5b5050506040518051905094506108fd565b5b505050509695505050505050565b60005481565b600080600080600560009054906101000a900473ffffffffffffffffffffffffffffffffffffffff1693508373ffffffffffffffffffffffffffffffffffffffff1663d323a4f8336000604051602001526040518263ffffffff167c0100000000000000000000000000000000000000000000000000000000028152600401808273ffffffffffffffffffffffffffffffffffffffff1673ffffffffffffffffffffffffffffffffffffffff168152602001915050602060405180830381600087803b15156109df57600080fd5b6102c65a03f115156109f057600080fd5b505050604051805190501515610a0557600080fd5b600093508a92508273ffffffffffffffffffffffffffffffffffffffff166324d7806c306000604051604001526040518263ffffffff167c0100000000000000000000000000000000000000000000000000000000028152600401808273ffffffffffffffffffffffffffffffffffffffff1673ffffffffffffffffffffffffffffffffffffffff1681526020019150506040805180830381600087803b1515610aae57600080fd5b6102c65a03f11515610abf57600080fd5b505050604051805190602001805190508092508193505050818015610ae15750805b15610c36578273ffffffffffffffffffffffffffffffffffffffff1663cd26b87b8b8b8b8b8b8b6040518763ffffffff167c0100000000000000000000000000000000000000000000000000000000028152600401808781526020018673ffffffffffffffffffffffffffffffffffffffff1673ffffffffffffffffffffffffffffffffffffffff1681526020018060200185600019166000191681526020018460ff1660ff1681526020018360ff1660ff168152602001828103825286818151815260200191508051906020019080838360005b83811015610bd1578082015181840152602081019050610bb6565b50505050905090810190601f168015610bfe5780820380516001836020036101000a031916815260200191505b50975050505050505050600060405180830381600087803b1515610c2157600080fd5b6102c65a03f11515610c3257600080fd5b5050505b5050505050505050505050565b600560009054906101000a900473ffffffffffffffffffffffffffffffffffffffff1681565b600360009054906101000a900460ff1681565b600360019054906101000a900460ff16815600a165627a7a723058202ccebd21e9453e25b24b7eccabf309176985311eec42ba1a9a49f4455bed77410029",
  "source": "pragma solidity ^0.4.11;\n\n// Standard contract for a presidential election procedure\n\nimport \"../standardProcedure.sol\";\nimport \"../standardOrgan.sol\";\n\ncontract simpleNormNominationProcedure is Procedure{\n\n    // 1: Cyclical many to one election (Presidential Election)\n    // 2: Cyclical many to many election (Moderators Election)\n    // 3: Simple norm nomination \n    // 4: Simple admins and master nomination\n    // 5: Vote on Norms \n    // 6: Vote on masters and admins \n    // 7: Cooptation\n    int public procedureTypeNumber = 3;\n    // address public affectedOrganContract;\n    address public authorizedNominatersOrgan;\n    \n\n    function addNorm(address _targetOrgan, address _normAdress, string _name, bytes32 _ipfsHash, uint8 _hash_function, uint8 _size)  public returns (uint newNormNumber) {\n\n        // Checking if caller is an admin\n        Organ authorizedNominatorsInstance = Organ(authorizedNominatersOrgan);\n        require(authorizedNominatorsInstance.isNorm(msg.sender));\n        delete authorizedNominatorsInstance;\n\n        // Checking that the nomination procedure is an admin to the target organ\n        Organ targetOrganInstance = Organ(_targetOrgan);\n        bool canAdd;\n        bool canDelete;\n        (canAdd, canDelete) = targetOrganInstance.isAdmin(address(this));\n\n        \n        // Adding a norm if the procedure is allowed\n        if (canAdd) {\n\n            return targetOrganInstance.addNorm(_normAdress, _name, _ipfsHash, _hash_function, _size);\n        }\n\n    }\n    function remNorm(address _targetOrgan, uint _normNumber) public {\n\n        // Checking if caller is an admin\n        Organ authorizedNominatorsInstance = Organ(authorizedNominatersOrgan);\n        require(authorizedNominatorsInstance.isNorm(msg.sender));\n        delete authorizedNominatorsInstance;\n\n        // Checking that the nomination procedure is an admin to the target organ\n        Organ targetOrganInstance = Organ(_targetOrgan);\n        bool canAdd;\n        bool canDelete;\n        (canAdd, canDelete) = targetOrganInstance.isAdmin(address(this));\n\n        \n        // Removing a norm if the procedure is allowed\n        if (canDelete) {\n\n            targetOrganInstance.remNorm(_normNumber);\n        }\n\n    }\n    function replaceNorm(address _targetOrgan, uint _oldNormNumber, address _newNormAdress, string _name, bytes32 _ipfsHash, uint8 _hash_function, uint8 _size) public {\n\n        // Checking if caller is an admin\n        Organ authorizedNominatorsInstance = Organ(authorizedNominatersOrgan);\n        require(authorizedNominatorsInstance.isNorm(msg.sender));\n        delete authorizedNominatorsInstance;\n\n        // Checking that the nomination procedure is an admin to the target organ\n        Organ targetOrganInstance = Organ(_targetOrgan);\n        bool canAdd;\n        bool canDelete;\n        (canAdd, canDelete) = targetOrganInstance.isAdmin(address(this));\n\n        // Replacing an admin if the procedure is allowed\n        if (canAdd && canDelete) {\n\n            targetOrganInstance.replaceNorm(_oldNormNumber, _newNormAdress, _name, _ipfsHash, _hash_function, _size);\n\n        }\n        \n    }\n\n  \n\n}",
  "sourcePath": "/Users/henrilieutaud/Documents/Mes documents/97/Workshop/Kelsen/solidity/contracts/procedures/simpleNormNominationProcedure.sol",
  "compiler": {
    "name": "solc",
    "version": "0.4.19+commit.c4cbbb05.Emscripten.clang"
  },
  "schemaVersion": "2.0.0",
  "updatedAt": "2018-05-14T09:52:50.109Z"
}