{
  "contractName": "simpleNormNominationProcedure",
  "abi": [
    {
      "constant": true,
      "inputs": [],
      "name": "procedureTypeNumber",
      "outputs": [
        {
          "name": "",
          "type": "int256"
        }
      ],
      "payable": false,
      "stateMutability": "view",
      "type": "function"
    },
    {
      "constant": true,
      "inputs": [],
      "name": "kelsenVersionNumber",
      "outputs": [
        {
          "name": "",
          "type": "int256"
        }
      ],
      "payable": false,
      "stateMutability": "view",
      "type": "function"
    },
    {
      "constant": true,
      "inputs": [],
      "name": "authorizedNominatersOrgan",
      "outputs": [
        {
          "name": "",
          "type": "address"
        }
      ],
      "payable": false,
      "stateMutability": "view",
      "type": "function"
    },
    {
      "constant": true,
      "inputs": [],
      "name": "isAnOrgan",
      "outputs": [
        {
          "name": "",
          "type": "bool"
        }
      ],
      "payable": false,
      "stateMutability": "view",
      "type": "function"
    },
    {
      "constant": true,
      "inputs": [],
      "name": "procedureName",
      "outputs": [
        {
          "name": "",
          "type": "string"
        }
      ],
      "payable": false,
      "stateMutability": "view",
      "type": "function"
    },
    {
      "constant": true,
      "inputs": [],
      "name": "isAProcedure",
      "outputs": [
        {
          "name": "",
          "type": "bool"
        }
      ],
      "payable": false,
      "stateMutability": "view",
      "type": "function"
    },
    {
      "constant": true,
      "inputs": [
        {
          "name": "",
          "type": "uint256"
        }
      ],
      "name": "linkedOrgans",
      "outputs": [
        {
          "name": "",
          "type": "address"
        }
      ],
      "payable": false,
      "stateMutability": "view",
      "type": "function"
    },
    {
      "constant": false,
      "inputs": [
        {
          "name": "_targetOrgan",
          "type": "address"
        },
        {
          "name": "_normAdress",
          "type": "address"
        },
        {
          "name": "_name",
          "type": "string"
        },
        {
          "name": "_ipfsHash",
          "type": "bytes32"
        },
        {
          "name": "_hash_function",
          "type": "uint8"
        },
        {
          "name": "_size",
          "type": "uint8"
        }
      ],
      "name": "addNorm",
      "outputs": [
        {
          "name": "newNormNumber",
          "type": "uint256"
        }
      ],
      "payable": false,
      "stateMutability": "nonpayable",
      "type": "function"
    },
    {
      "constant": false,
      "inputs": [
        {
          "name": "_targetOrgan",
          "type": "address"
        },
        {
          "name": "_normNumber",
          "type": "uint256"
        }
      ],
      "name": "remNorm",
      "outputs": [],
      "payable": false,
      "stateMutability": "nonpayable",
      "type": "function"
    },
    {
      "constant": false,
      "inputs": [
        {
          "name": "_targetOrgan",
          "type": "address"
        },
        {
          "name": "_oldNormNumber",
          "type": "uint256"
        },
        {
          "name": "_newNormAdress",
          "type": "address"
        },
        {
          "name": "_name",
          "type": "string"
        },
        {
          "name": "_ipfsHash",
          "type": "bytes32"
        },
        {
          "name": "_hash_function",
          "type": "uint8"
        },
        {
          "name": "_size",
          "type": "uint8"
        }
      ],
      "name": "replaceNorm",
      "outputs": [],
      "payable": false,
      "stateMutability": "nonpayable",
      "type": "function"
    },
    {
      "constant": true,
      "inputs": [],
      "name": "getLinkedOrgans",
      "outputs": [
        {
          "name": "_linkedOrgans",
          "type": "address[]"
        }
      ],
      "payable": false,
      "stateMutability": "view",
      "type": "function"
    },
    {
      "constant": true,
      "inputs": [],
      "name": "getProcedureName",
      "outputs": [
        {
          "name": "_procedureName",
          "type": "string"
        }
      ],
      "payable": false,
      "stateMutability": "view",
      "type": "function"
    }
  ],
  "bytecode": "0x60606040526000600460006101000a81548160ff0219169083151502179055506001600460016101000a81548160ff0219169083151502179055506003600655341561004a57600080fd5b611111806100596000396000f3006060604052600436106100ba576000357c0100000000000000000000000000000000000000000000000000000000900463ffffffff1680632647d7f9146100bf57806326a1d187146100e8578063418414ff1461012a57806359908afe146101fe5780635dbe4d281461028c5780637d3575f0146102b5578063a587f9361461037e578063a8bef97a146103d3578063adb4018b14610400578063e57005011461048e578063e80b30a5146104f8578063f2edc61614610525575b600080fd5b34156100ca57600080fd5b6100d2610588565b6040518082815260200191505060405180910390f35b34156100f357600080fd5b610128600480803573ffffffffffffffffffffffffffffffffffffffff1690602001909190803590602001909190505061058e565b005b341561013557600080fd5b6101e8600480803573ffffffffffffffffffffffffffffffffffffffff1690602001909190803573ffffffffffffffffffffffffffffffffffffffff1690602001909190803590602001908201803590602001908080601f016020809104026020016040519081016040528093929190818152602001838380828437820191505050505050919080356000191690602001909190803560ff1690602001909190803560ff169060200190919050506107e5565b6040518082815260200191505060405180910390f35b341561020957600080fd5b610211610b20565b6040518080602001828103825283818151815260200191508051906020019080838360005b83811015610251578082015181840152602081019050610236565b50505050905090810190601f16801561027e5780820380516001836020036101000a031916815260200191505b509250505060405180910390f35b341561029757600080fd5b61029f610bc8565b6040518082815260200191505060405180910390f35b34156102c057600080fd5b61037c600480803573ffffffffffffffffffffffffffffffffffffffff1690602001909190803590602001909190803573ffffffffffffffffffffffffffffffffffffffff1690602001909190803590602001908201803590602001908080601f016020809104026020016040519081016040528093929190818152602001838380828437820191505050505050919080356000191690602001909190803560ff1690602001909190803560ff16906020019091905050610bce565b005b341561038957600080fd5b610391610f00565b604051808273ffffffffffffffffffffffffffffffffffffffff1673ffffffffffffffffffffffffffffffffffffffff16815260200191505060405180910390f35b34156103de57600080fd5b6103e6610f26565b604051808215151515815260200191505060405180910390f35b341561040b57600080fd5b610413610f39565b6040518080602001828103825283818151815260200191508051906020019080838360005b83811015610453578082015181840152602081019050610438565b50505050905090810190601f1680156104805780820380516001836020036101000a031916815260200191505b509250505060405180910390f35b341561049957600080fd5b6104a1610fd7565b6040518080602001828103825283818151815260200191508051906020019060200280838360005b838110156104e45780820151818401526020810190506104c9565b505050509050019250505060405180910390f35b341561050357600080fd5b61050b61106b565b604051808215151515815260200191505060405180910390f35b341561053057600080fd5b610546600480803590602001909190505061107e565b604051808273ffffffffffffffffffffffffffffffffffffffff1673ffffffffffffffffffffffffffffffffffffffff16815260200191505060405180910390f35b60065481565b600080600080600760009054906101000a900473ffffffffffffffffffffffffffffffffffffffff1693508373ffffffffffffffffffffffffffffffffffffffff1663d323a4f8336000604051602001526040518263ffffffff167c0100000000000000000000000000000000000000000000000000000000028152600401808273ffffffffffffffffffffffffffffffffffffffff1673ffffffffffffffffffffffffffffffffffffffff168152602001915050602060405180830381600087803b151561065c57600080fd5b6102c65a03f1151561066d57600080fd5b50505060405180519050151561068257600080fd5b600093508592508273ffffffffffffffffffffffffffffffffffffffff166324d7806c306000604051604001526040518263ffffffff167c0100000000000000000000000000000000000000000000000000000000028152600401808273ffffffffffffffffffffffffffffffffffffffff1673ffffffffffffffffffffffffffffffffffffffff1681526020019150506040805180830381600087803b151561072b57600080fd5b6102c65a03f1151561073c57600080fd5b50505060405180519060200180519050809250819350505080156107dd578273ffffffffffffffffffffffffffffffffffffffff16630e9defff866040518263ffffffff167c010000000000000000000000000000000000000000000000000000000002815260040180828152602001915050600060405180830381600087803b15156107c857600080fd5b6102c65a03f115156107d957600080fd5b5050505b505050505050565b6000806000806000600760009054906101000a900473ffffffffffffffffffffffffffffffffffffffff1693508373ffffffffffffffffffffffffffffffffffffffff1663d323a4f8336000604051602001526040518263ffffffff167c0100000000000000000000000000000000000000000000000000000000028152600401808273ffffffffffffffffffffffffffffffffffffffff1673ffffffffffffffffffffffffffffffffffffffff168152602001915050602060405180830381600087803b15156108b557600080fd5b6102c65a03f115156108c657600080fd5b5050506040518051905015156108db57600080fd5b600093508a92508273ffffffffffffffffffffffffffffffffffffffff166324d7806c306000604051604001526040518263ffffffff167c0100000000000000000000000000000000000000000000000000000000028152600401808273ffffffffffffffffffffffffffffffffffffffff1673ffffffffffffffffffffffffffffffffffffffff1681526020019150506040805180830381600087803b151561098457600080fd5b6102c65a03f1151561099557600080fd5b5050506040518051906020018051905080925081935050508115610b11578273ffffffffffffffffffffffffffffffffffffffff1663696c52198b8b8b8b8b6000604051602001526040518663ffffffff167c0100000000000000000000000000000000000000000000000000000000028152600401808673ffffffffffffffffffffffffffffffffffffffff1673ffffffffffffffffffffffffffffffffffffffff1681526020018060200185600019166000191681526020018460ff1660ff1681526020018360ff1660ff168152602001828103825286818151815260200191508051906020019080838360005b83811015610aa0578082015181840152602081019050610a85565b50505050905090810190601f168015610acd5780820380516001836020036101000a031916815260200191505b509650505050505050602060405180830381600087803b1515610aef57600080fd5b6102c65a03f11515610b0057600080fd5b505050604051805190509450610b12565b5b505050509695505050505050565b610b286110bd565b60098054600181600116156101000203166002900480601f016020809104026020016040519081016040528092919081815260200182805460018160011615610100020316600290048015610bbe5780601f10610b9357610100808354040283529160200191610bbe565b820191906000526020600020905b815481529060010190602001808311610ba157829003601f168201915b5050505050905090565b60005481565b600080600080600760009054906101000a900473ffffffffffffffffffffffffffffffffffffffff1693508373ffffffffffffffffffffffffffffffffffffffff1663d323a4f8336000604051602001526040518263ffffffff167c0100000000000000000000000000000000000000000000000000000000028152600401808273ffffffffffffffffffffffffffffffffffffffff1673ffffffffffffffffffffffffffffffffffffffff168152602001915050602060405180830381600087803b1515610c9c57600080fd5b6102c65a03f11515610cad57600080fd5b505050604051805190501515610cc257600080fd5b600093508a92508273ffffffffffffffffffffffffffffffffffffffff166324d7806c306000604051604001526040518263ffffffff167c0100000000000000000000000000000000000000000000000000000000028152600401808273ffffffffffffffffffffffffffffffffffffffff1673ffffffffffffffffffffffffffffffffffffffff1681526020019150506040805180830381600087803b1515610d6b57600080fd5b6102c65a03f11515610d7c57600080fd5b505050604051805190602001805190508092508193505050818015610d9e5750805b15610ef3578273ffffffffffffffffffffffffffffffffffffffff1663cd26b87b8b8b8b8b8b8b6040518763ffffffff167c0100000000000000000000000000000000000000000000000000000000028152600401808781526020018673ffffffffffffffffffffffffffffffffffffffff1673ffffffffffffffffffffffffffffffffffffffff1681526020018060200185600019166000191681526020018460ff1660ff1681526020018360ff1660ff168152602001828103825286818151815260200191508051906020019080838360005b83811015610e8e578082015181840152602081019050610e73565b50505050905090810190601f168015610ebb5780820380516001836020036101000a031916815260200191505b50975050505050505050600060405180830381600087803b1515610ede57600080fd5b6102c65a03f11515610eef57600080fd5b5050505b5050505050505050505050565b600760009054906101000a900473ffffffffffffffffffffffffffffffffffffffff1681565b600460009054906101000a900460ff1681565b60098054600181600116156101000203166002900480601f016020809104026020016040519081016040528092919081815260200182805460018160011615610100020316600290048015610fcf5780601f10610fa457610100808354040283529160200191610fcf565b820191906000526020600020905b815481529060010190602001808311610fb257829003601f168201915b505050505081565b610fdf6110d1565b600880548060200260200160405190810160405280929190818152602001828054801561106157602002820191906000526020600020905b8160009054906101000a900473ffffffffffffffffffffffffffffffffffffffff1673ffffffffffffffffffffffffffffffffffffffff1681526020019060010190808311611017575b5050505050905090565b600460019054906101000a900460ff1681565b60088181548110151561108d57fe5b90600052602060002090016000915054906101000a900473ffffffffffffffffffffffffffffffffffffffff1681565b602060405190810160405280600081525090565b6020604051908101604052806000815250905600a165627a7a72305820fc440f2ef53fe629e1a8040b8c845f5b4bb23670da03cc9668aaf8cb86e470980029",
  "source": "pragma solidity ^0.4.11;\n\n// Standard contract for a presidential election procedure\n\nimport \"../standardProcedure.sol\";\nimport \"../standardOrgan.sol\";\n\ncontract simpleNormNominationProcedure is Procedure{\n\n    // 1: Cyclical many to one election (Presidential Election)\n    // 2: Cyclical many to many election (Moderators Election)\n    // 3: Simple norm nomination \n    // 4: Simple admins and master nomination\n    // 5: Vote on Norms \n    // 6: Vote on masters and admins \n    // 7: Cooptation\n    int public procedureTypeNumber = 3;\n    // address public affectedOrganContract;\n    address public authorizedNominatersOrgan;\n\n    // Gathering connected organs for easier DAO mapping\n    address[] public linkedOrgans;\n\n    // Storage for procedure name\n    string public procedureName;\n    \n\n    function addNorm(address _targetOrgan, address _normAdress, string _name, bytes32 _ipfsHash, uint8 _hash_function, uint8 _size)  public returns (uint newNormNumber) {\n\n        // Checking if caller is an admin\n        Organ authorizedNominatorsInstance = Organ(authorizedNominatersOrgan);\n        require(authorizedNominatorsInstance.isNorm(msg.sender));\n        delete authorizedNominatorsInstance;\n\n        // Checking that the nomination procedure is an admin to the target organ\n        Organ targetOrganInstance = Organ(_targetOrgan);\n        bool canAdd;\n        bool canDelete;\n        (canAdd, canDelete) = targetOrganInstance.isAdmin(address(this));\n\n        \n        // Adding a norm if the procedure is allowed\n        if (canAdd) {\n\n            return targetOrganInstance.addNorm(_normAdress, _name, _ipfsHash, _hash_function, _size);\n        }\n\n    }\n    function remNorm(address _targetOrgan, uint _normNumber) public {\n\n        // Checking if caller is an admin\n        Organ authorizedNominatorsInstance = Organ(authorizedNominatersOrgan);\n        require(authorizedNominatorsInstance.isNorm(msg.sender));\n        delete authorizedNominatorsInstance;\n\n        // Checking that the nomination procedure is an admin to the target organ\n        Organ targetOrganInstance = Organ(_targetOrgan);\n        bool canAdd;\n        bool canDelete;\n        (canAdd, canDelete) = targetOrganInstance.isAdmin(address(this));\n\n        \n        // Removing a norm if the procedure is allowed\n        if (canDelete) {\n\n            targetOrganInstance.remNorm(_normNumber);\n        }\n\n    }\n    function replaceNorm(address _targetOrgan, uint _oldNormNumber, address _newNormAdress, string _name, bytes32 _ipfsHash, uint8 _hash_function, uint8 _size) public {\n\n        // Checking if caller is an admin\n        Organ authorizedNominatorsInstance = Organ(authorizedNominatersOrgan);\n        require(authorizedNominatorsInstance.isNorm(msg.sender));\n        delete authorizedNominatorsInstance;\n\n        // Checking that the nomination procedure is an admin to the target organ\n        Organ targetOrganInstance = Organ(_targetOrgan);\n        bool canAdd;\n        bool canDelete;\n        (canAdd, canDelete) = targetOrganInstance.isAdmin(address(this));\n\n        // Replacing an admin if the procedure is allowed\n        if (canAdd && canDelete) {\n\n            targetOrganInstance.replaceNorm(_oldNormNumber, _newNormAdress, _name, _ipfsHash, _hash_function, _size);\n\n        }\n        \n    }\n    function getLinkedOrgans() public view returns (address[] _linkedOrgans)\n    {return linkedOrgans;}\n    function getProcedureName() public view returns (string _procedureName)\n    {return procedureName;}\n\n  \n\n}",
  "sourcePath": "/Users/henrilieutaud/Documents/Mes documents/97/Workshop/Kelsen/solidity/contracts/procedures/simpleNormNominationProcedure.sol",
  "compiler": {
    "name": "solc",
    "version": "0.4.19+commit.c4cbbb05.Emscripten.clang"
  },
  "schemaVersion": "2.0.0",
  "updatedAt": "2018-05-15T09:52:44.274Z"
}