{
  "contractName": "simpleAdminsAndMasterNominationProcedure",
  "abi": [
    {
      "constant": true,
      "inputs": [],
      "name": "procedureTypeNumber",
      "outputs": [
        {
          "name": "",
          "type": "int256"
        }
      ],
      "payable": false,
      "stateMutability": "view",
      "type": "function"
    },
    {
      "constant": true,
      "inputs": [],
      "name": "kelsenVersionNumber",
      "outputs": [
        {
          "name": "",
          "type": "int256"
        }
      ],
      "payable": false,
      "stateMutability": "view",
      "type": "function"
    },
    {
      "constant": true,
      "inputs": [],
      "name": "authorizedReformersOrgan",
      "outputs": [
        {
          "name": "",
          "type": "address"
        }
      ],
      "payable": false,
      "stateMutability": "view",
      "type": "function"
    },
    {
      "constant": true,
      "inputs": [],
      "name": "isAnOrgan",
      "outputs": [
        {
          "name": "",
          "type": "bool"
        }
      ],
      "payable": false,
      "stateMutability": "view",
      "type": "function"
    },
    {
      "constant": true,
      "inputs": [],
      "name": "isAProcedure",
      "outputs": [
        {
          "name": "",
          "type": "bool"
        }
      ],
      "payable": false,
      "stateMutability": "view",
      "type": "function"
    },
    {
      "constant": false,
      "inputs": [
        {
          "name": "_organToReform",
          "type": "address"
        },
        {
          "name": "_newAdmin",
          "type": "address"
        },
        {
          "name": "_canAdd",
          "type": "bool"
        },
        {
          "name": "_canDelete",
          "type": "bool"
        },
        {
          "name": "_canDeposit",
          "type": "bool"
        },
        {
          "name": "_canSpend",
          "type": "bool"
        },
        {
          "name": "_name",
          "type": "string"
        }
      ],
      "name": "addAdmin",
      "outputs": [
        {
          "name": "_success",
          "type": "bool"
        }
      ],
      "payable": false,
      "stateMutability": "nonpayable",
      "type": "function"
    },
    {
      "constant": false,
      "inputs": [
        {
          "name": "_organToReform",
          "type": "address"
        },
        {
          "name": "_oldAdmin",
          "type": "address"
        }
      ],
      "name": "remAdmin",
      "outputs": [
        {
          "name": "_success",
          "type": "bool"
        }
      ],
      "payable": false,
      "stateMutability": "nonpayable",
      "type": "function"
    },
    {
      "constant": false,
      "inputs": [
        {
          "name": "_organToReform",
          "type": "address"
        },
        {
          "name": "_oldAdmin",
          "type": "address"
        },
        {
          "name": "_newAdmin",
          "type": "address"
        },
        {
          "name": "_canAdd",
          "type": "bool"
        },
        {
          "name": "_canDelete",
          "type": "bool"
        },
        {
          "name": "_canDeposit",
          "type": "bool"
        },
        {
          "name": "_canSpend",
          "type": "bool"
        },
        {
          "name": "_name",
          "type": "string"
        }
      ],
      "name": "replaceAdmin",
      "outputs": [
        {
          "name": "_success",
          "type": "bool"
        }
      ],
      "payable": false,
      "stateMutability": "nonpayable",
      "type": "function"
    },
    {
      "constant": false,
      "inputs": [
        {
          "name": "_organToReform",
          "type": "address"
        },
        {
          "name": "_newMaster",
          "type": "address"
        },
        {
          "name": "_canAdd",
          "type": "bool"
        },
        {
          "name": "_canDelete",
          "type": "bool"
        },
        {
          "name": "_name",
          "type": "string"
        }
      ],
      "name": "addMaster",
      "outputs": [
        {
          "name": "_success",
          "type": "bool"
        }
      ],
      "payable": false,
      "stateMutability": "nonpayable",
      "type": "function"
    },
    {
      "constant": false,
      "inputs": [
        {
          "name": "_organToReform",
          "type": "address"
        },
        {
          "name": "_oldMaster",
          "type": "address"
        }
      ],
      "name": "remMaster",
      "outputs": [
        {
          "name": "_success",
          "type": "bool"
        }
      ],
      "payable": false,
      "stateMutability": "nonpayable",
      "type": "function"
    },
    {
      "constant": false,
      "inputs": [
        {
          "name": "_organToReform",
          "type": "address"
        },
        {
          "name": "_oldMaster",
          "type": "address"
        },
        {
          "name": "_newMaster",
          "type": "address"
        },
        {
          "name": "_canAdd",
          "type": "bool"
        },
        {
          "name": "_canDelete",
          "type": "bool"
        },
        {
          "name": "_name",
          "type": "string"
        }
      ],
      "name": "replaceMaster",
      "outputs": [
        {
          "name": "_success",
          "type": "bool"
        }
      ],
      "payable": false,
      "stateMutability": "nonpayable",
      "type": "function"
    }
  ],
  "bytecode": "0x60606040526004600355341561001457600080fd5b611918806100236000396000f3006060604052600436106100af576000357c0100000000000000000000000000000000000000000000000000000000900463ffffffff1680630ce80744146100b45780631d595bf41461019c5780632647d7f91461020c5780635dbe4d28146102355780636d6480ef1461025e5780636f784009146102b357806376eafbc0146103b1578063a8bef97a14610490578063e80b30a5146104bd578063f69c8751146104ea578063fd4538e11461055a575b600080fd5b34156100bf57600080fd5b610182600480803573ffffffffffffffffffffffffffffffffffffffff1690602001909190803573ffffffffffffffffffffffffffffffffffffffff1690602001909190803573ffffffffffffffffffffffffffffffffffffffff169060200190919080351515906020019091908035151590602001909190803590602001908201803590602001908080601f01602080910402602001604051908101604052809392919081815260200183838082843782019150505050505091905050610623565b604051808215151515815260200191505060405180910390f35b34156101a757600080fd5b6101f2600480803573ffffffffffffffffffffffffffffffffffffffff1690602001909190803573ffffffffffffffffffffffffffffffffffffffff16906020019091905050610984565b604051808215151515815260200191505060405180910390f35b341561021757600080fd5b61021f610c1f565b6040518082815260200191505060405180910390f35b341561024057600080fd5b610248610c25565b6040518082815260200191505060405180910390f35b341561026957600080fd5b610271610c2b565b604051808273ffffffffffffffffffffffffffffffffffffffff1673ffffffffffffffffffffffffffffffffffffffff16815260200191505060405180910390f35b34156102be57600080fd5b610397600480803573ffffffffffffffffffffffffffffffffffffffff1690602001909190803573ffffffffffffffffffffffffffffffffffffffff1690602001909190803573ffffffffffffffffffffffffffffffffffffffff16906020019091908035151590602001909190803515159060200190919080351515906020019091908035151590602001909190803590602001908201803590602001908080601f01602080910402602001604051908101604052809392919081815260200183838082843782019150505050505091905050610c51565b604051808215151515815260200191505060405180910390f35b34156103bc57600080fd5b610476600480803573ffffffffffffffffffffffffffffffffffffffff1690602001909190803573ffffffffffffffffffffffffffffffffffffffff16906020019091908035151590602001909190803515159060200190919080351515906020019091908035151590602001909190803590602001908201803590602001908080601f01602080910402602001604051908101604052809392919081815260200183838082843782019150505050505091905050610fcc565b604051808215151515815260200191505060405180910390f35b341561049b57600080fd5b6104a3611309565b604051808215151515815260200191505060405180910390f35b34156104c857600080fd5b6104d061131c565b604051808215151515815260200191505060405180910390f35b34156104f557600080fd5b610540600480803573ffffffffffffffffffffffffffffffffffffffff1690602001909190803573ffffffffffffffffffffffffffffffffffffffff1690602001909190505061132e565b604051808215151515815260200191505060405180910390f35b341561056557600080fd5b610609600480803573ffffffffffffffffffffffffffffffffffffffff1690602001909190803573ffffffffffffffffffffffffffffffffffffffff169060200190919080351515906020019091908035151590602001909190803590602001908201803590602001908080601f016020809104026020016040519081016040528093929190818152602001838380828437820191505050505050919050506115c9565b604051808215151515815260200191505060405180910390f35b6000806000806000600460009054906101000a900473ffffffffffffffffffffffffffffffffffffffff1693508373ffffffffffffffffffffffffffffffffffffffff1663d323a4f8336000604051602001526040518263ffffffff167c0100000000000000000000000000000000000000000000000000000000028152600401808273ffffffffffffffffffffffffffffffffffffffff1673ffffffffffffffffffffffffffffffffffffffff168152602001915050602060405180830381600087803b15156106f357600080fd5b6102c65a03f1151561070457600080fd5b50505060405180519050151561071957600080fd5b600093508a92508273ffffffffffffffffffffffffffffffffffffffff1663f720f80b306000604051604001526040518263ffffffff167c0100000000000000000000000000000000000000000000000000000000028152600401808273ffffffffffffffffffffffffffffffffffffffff1673ffffffffffffffffffffffffffffffffffffffff1681526020019150506040805180830381600087803b15156107c257600080fd5b6102c65a03f115156107d357600080fd5b5050506040518051906020018051905080925081935050508180156107f55750805b1561096a578273ffffffffffffffffffffffffffffffffffffffff16630e6adcdf8b8b8b8b8b6040518663ffffffff167c0100000000000000000000000000000000000000000000000000000000028152600401808673ffffffffffffffffffffffffffffffffffffffff1673ffffffffffffffffffffffffffffffffffffffff1681526020018573ffffffffffffffffffffffffffffffffffffffff1673ffffffffffffffffffffffffffffffffffffffff168152602001841515151581526020018315151515815260200180602001828103825283818151815260200191508051906020019080838360005b838110156108fe5780820151818401526020810190506108e3565b50505050905090810190601f16801561092b5780820380516001836020036101000a031916815260200191505b509650505050505050600060405180830381600087803b151561094d57600080fd5b6102c65a03f1151561095e57600080fd5b5050506001945061096f565b600094505b60009250849450505050509695505050505050565b6000806000806000600460009054906101000a900473ffffffffffffffffffffffffffffffffffffffff1693508373ffffffffffffffffffffffffffffffffffffffff1663d323a4f8336000604051602001526040518263ffffffff167c0100000000000000000000000000000000000000000000000000000000028152600401808273ffffffffffffffffffffffffffffffffffffffff1673ffffffffffffffffffffffffffffffffffffffff168152602001915050602060405180830381600087803b1515610a5457600080fd5b6102c65a03f11515610a6557600080fd5b505050604051805190501515610a7a57600080fd5b600093508692508273ffffffffffffffffffffffffffffffffffffffff1663f720f80b306000604051604001526040518263ffffffff167c0100000000000000000000000000000000000000000000000000000000028152600401808273ffffffffffffffffffffffffffffffffffffffff1673ffffffffffffffffffffffffffffffffffffffff1681526020019150506040805180830381600087803b1515610b2357600080fd5b6102c65a03f11515610b3457600080fd5b5050506040518051906020018051905080925081935050508015610c09578273ffffffffffffffffffffffffffffffffffffffff166311c60418876040518263ffffffff167c0100000000000000000000000000000000000000000000000000000000028152600401808273ffffffffffffffffffffffffffffffffffffffff1673ffffffffffffffffffffffffffffffffffffffff168152602001915050600060405180830381600087803b1515610bec57600080fd5b6102c65a03f11515610bfd57600080fd5b50505060019450610c0e565b600094505b600092508494505050505092915050565b60035481565b60005481565b600460009054906101000a900473ffffffffffffffffffffffffffffffffffffffff1681565b6000806000806000600460009054906101000a900473ffffffffffffffffffffffffffffffffffffffff1693508373ffffffffffffffffffffffffffffffffffffffff1663d323a4f8336000604051602001526040518263ffffffff167c0100000000000000000000000000000000000000000000000000000000028152600401808273ffffffffffffffffffffffffffffffffffffffff1673ffffffffffffffffffffffffffffffffffffffff168152602001915050602060405180830381600087803b1515610d2157600080fd5b6102c65a03f11515610d3257600080fd5b505050604051805190501515610d4757600080fd5b600093508c92508273ffffffffffffffffffffffffffffffffffffffff1663f720f80b306000604051604001526040518263ffffffff167c0100000000000000000000000000000000000000000000000000000000028152600401808273ffffffffffffffffffffffffffffffffffffffff1673ffffffffffffffffffffffffffffffffffffffff1681526020019150506040805180830381600087803b1515610df057600080fd5b6102c65a03f11515610e0157600080fd5b505050604051805190602001805190508092508193505050818015610e235750805b15610fb0578273ffffffffffffffffffffffffffffffffffffffff16638186c3508d8d8d8d8d8d8d6040518863ffffffff167c0100000000000000000000000000000000000000000000000000000000028152600401808873ffffffffffffffffffffffffffffffffffffffff1673ffffffffffffffffffffffffffffffffffffffff1681526020018773ffffffffffffffffffffffffffffffffffffffff1673ffffffffffffffffffffffffffffffffffffffff1681526020018615151515815260200185151515158152602001841515151581526020018315151515815260200180602001828103825283818151815260200191508051906020019080838360005b83811015610f42578082015181840152602081019050610f27565b50505050905090810190601f168015610f6f5780820380516001836020036101000a031916815260200191505b5098505050505050505050600060405180830381600087803b1515610f9357600080fd5b6102c65a03f11515610fa457600080fd5b50505060019450610fb5565b600094505b600092508494505050505098975050505050505050565b6000806000806000600460009054906101000a900473ffffffffffffffffffffffffffffffffffffffff1693508373ffffffffffffffffffffffffffffffffffffffff1663d323a4f8336000604051602001526040518263ffffffff167c0100000000000000000000000000000000000000000000000000000000028152600401808273ffffffffffffffffffffffffffffffffffffffff1673ffffffffffffffffffffffffffffffffffffffff168152602001915050602060405180830381600087803b151561109c57600080fd5b6102c65a03f115156110ad57600080fd5b5050506040518051905015156110c257600080fd5b600093508b92508273ffffffffffffffffffffffffffffffffffffffff1663f720f80b306000604051604001526040518263ffffffff167c0100000000000000000000000000000000000000000000000000000000028152600401808273ffffffffffffffffffffffffffffffffffffffff1673ffffffffffffffffffffffffffffffffffffffff1681526020019150506040805180830381600087803b151561116b57600080fd5b6102c65a03f1151561117c57600080fd5b50505060405180519060200180519050809250819350505081156112ee578273ffffffffffffffffffffffffffffffffffffffff166378ebd0058c8c8c8c8c8c6040518763ffffffff167c0100000000000000000000000000000000000000000000000000000000028152600401808773ffffffffffffffffffffffffffffffffffffffff1673ffffffffffffffffffffffffffffffffffffffff1681526020018615151515815260200185151515158152602001841515151581526020018315151515815260200180602001828103825283818151815260200191508051906020019080838360005b83811015611281578082015181840152602081019050611266565b50505050905090810190601f1680156112ae5780820380516001836020036101000a031916815260200191505b50975050505050505050600060405180830381600087803b15156112d157600080fd5b6102c65a03f115156112e257600080fd5b505050600194506112f3565b600094505b6000925084945050505050979650505050505050565b600160009054906101000a900460ff1681565b6001809054906101000a900460ff1681565b6000806000806000600460009054906101000a900473ffffffffffffffffffffffffffffffffffffffff1693508373ffffffffffffffffffffffffffffffffffffffff1663d323a4f8336000604051602001526040518263ffffffff167c0100000000000000000000000000000000000000000000000000000000028152600401808273ffffffffffffffffffffffffffffffffffffffff1673ffffffffffffffffffffffffffffffffffffffff168152602001915050602060405180830381600087803b15156113fe57600080fd5b6102c65a03f1151561140f57600080fd5b50505060405180519050151561142457600080fd5b600093508692508273ffffffffffffffffffffffffffffffffffffffff1663f720f80b306000604051604001526040518263ffffffff167c0100000000000000000000000000000000000000000000000000000000028152600401808273ffffffffffffffffffffffffffffffffffffffff1673ffffffffffffffffffffffffffffffffffffffff1681526020019150506040805180830381600087803b15156114cd57600080fd5b6102c65a03f115156114de57600080fd5b50505060405180519060200180519050809250819350505080156115b3578273ffffffffffffffffffffffffffffffffffffffff166331a79198876040518263ffffffff167c0100000000000000000000000000000000000000000000000000000000028152600401808273ffffffffffffffffffffffffffffffffffffffff1673ffffffffffffffffffffffffffffffffffffffff168152602001915050600060405180830381600087803b151561159657600080fd5b6102c65a03f115156115a757600080fd5b505050600194506115b8565b600094505b600092508494505050505092915050565b6000806000806000600460009054906101000a900473ffffffffffffffffffffffffffffffffffffffff1693508373ffffffffffffffffffffffffffffffffffffffff1663d323a4f8336000604051602001526040518263ffffffff167c0100000000000000000000000000000000000000000000000000000000028152600401808273ffffffffffffffffffffffffffffffffffffffff1673ffffffffffffffffffffffffffffffffffffffff168152602001915050602060405180830381600087803b151561169957600080fd5b6102c65a03f115156116aa57600080fd5b5050506040518051905015156116bf57600080fd5b600093508992508273ffffffffffffffffffffffffffffffffffffffff1663f720f80b306000604051604001526040518263ffffffff167c0100000000000000000000000000000000000000000000000000000000028152600401808273ffffffffffffffffffffffffffffffffffffffff1673ffffffffffffffffffffffffffffffffffffffff1681526020019150506040805180830381600087803b151561176857600080fd5b6102c65a03f1151561177957600080fd5b50505060405180519060200180519050809250819350505081156118d3578273ffffffffffffffffffffffffffffffffffffffff1663ca1885f78a8a8a8a6040518563ffffffff167c0100000000000000000000000000000000000000000000000000000000028152600401808573ffffffffffffffffffffffffffffffffffffffff1673ffffffffffffffffffffffffffffffffffffffff168152602001841515151581526020018315151515815260200180602001828103825283818151815260200191508051906020019080838360005b8381101561186857808201518184015260208101905061184d565b50505050905090810190601f1680156118955780820380516001836020036101000a031916815260200191505b5095505050505050600060405180830381600087803b15156118b657600080fd5b6102c65a03f115156118c757600080fd5b505050600194506118d8565b600094505b6000925084945050505050959450505050505600a165627a7a7230582003e1afc9b2e736d494f3d50bb7040b83d550422c92bab86467d3c4056261a8c70029",
  "source": "pragma solidity ^0.4.11;\n\n// Standard contract for a presidential election procedure\n\nimport \"../standardProcedure.sol\";\nimport \"../standardOrgan.sol\";\n\ncontract simpleAdminsAndMasterNominationProcedure is Procedure{\n\n    // 1: Cyclical many to one election (Presidential Election)\n    // 2: Cyclical many to many election (Moderators Election)\n    // 3: Simple norm nomination \n    // 4: Simple admins and master nomination\n    // 5: Vote on Norms \n    // 6: Vote on masters and admins \n    // 7: Cooptation\n    int public procedureTypeNumber = 4;\n    // address public affectedOrganContract;\n    address public authorizedReformersOrgan;\n    \n\n    function addAdmin(address _organToReform, address _newAdmin, bool _canAdd, bool _canDelete, bool _canDeposit, bool _canSpend, string _name) public returns (bool _success){\n\n        // Checking if caller is an admin\n        Organ authorizedReformersInstance = Organ(authorizedReformersOrgan);\n        require(authorizedReformersInstance.isNorm(msg.sender));\n        delete authorizedReformersInstance;\n\n        // Checking that the constitutionnal procedure is a master to the target organ\n        Organ organToReformInstance = Organ(_organToReform);\n        bool canAdd;\n        bool canDelete;\n        (canAdd, canDelete) = organToReformInstance.isMaster(address(this));\n\n        \n        // Adding an admin if the procedure is allowed\n        if (canAdd) {\n\n            organToReformInstance.addAdmin(_newAdmin, _canAdd, _canDelete, _canDeposit, _canSpend, _name);\n            _success = true;\n        }\n        else { _success = false;}\n\n        delete organToReformInstance;\n\n        return _success;\n\n    }\n    function remAdmin(address _organToReform, address _oldAdmin) public returns (bool _success){\n\n        // Checking if caller is an admin\n        Organ authorizedReformersInstance = Organ(authorizedReformersOrgan);\n        require(authorizedReformersInstance.isNorm(msg.sender));\n        delete authorizedReformersInstance;\n\n        // Checking that the constitutionnal procedure is a master to the target organ\n        Organ organToReformInstance = Organ(_organToReform);\n        bool canAdd;\n        bool canDelete;\n        (canAdd, canDelete) = organToReformInstance.isMaster(address(this));\n\n        \n        // Removing an admin if the procedure is allowed\n        if (canDelete) {\n\n            organToReformInstance.remAdmin(_oldAdmin);\n            _success = true;\n        }\n        else { _success = false;}\n\n        delete organToReformInstance;\n\n        return _success;\n\n    }\n    function replaceAdmin(address _organToReform, address _oldAdmin, address _newAdmin, bool _canAdd, bool _canDelete, bool _canDeposit, bool _canSpend, string _name) public returns (bool _success){\n\n        // Checking if caller is an admin\n        Organ authorizedReformersInstance = Organ(authorizedReformersOrgan);\n        require(authorizedReformersInstance.isNorm(msg.sender));\n        delete authorizedReformersInstance;\n\n        // Checking that the constitutionnal procedure is a master to the target organ\n        Organ organToReformInstance = Organ(_organToReform);\n        bool canAdd;\n        bool canDelete;\n        (canAdd, canDelete) = organToReformInstance.isMaster(address(this));\n\n        // Replacing an admin if the procedure is allowed\n        if (canAdd && canDelete) {\n\n            organToReformInstance.replaceAdmin(_oldAdmin, _newAdmin, _canAdd, _canDelete, _canDeposit, _canSpend, _name );\n            _success = true;\n        }\n        else { _success = false;}\n\n        delete organToReformInstance;\n\n        return _success;\n\n    }\n\n        function addMaster(address _organToReform, address _newMaster, bool _canAdd, bool _canDelete, string _name) public returns (bool _success){\n\n        // Checking if caller is an admin\n        Organ authorizedReformersInstance = Organ(authorizedReformersOrgan);\n        require(authorizedReformersInstance.isNorm(msg.sender));\n        delete authorizedReformersInstance;\n\n        // Checking that the constitutionnal procedure is a master to the target organ\n        Organ organToReformInstance = Organ(_organToReform);\n        bool canAdd;\n        bool canDelete;\n        (canAdd, canDelete) = organToReformInstance.isMaster(address(this));\n\n        \n        // Adding an master if the procedure is allowed\n        if (canAdd) {\n\n            organToReformInstance.addMaster(_newMaster, _canAdd, _canDelete, _name);\n            _success = true;\n        }\n        else { _success = false;}\n\n        delete organToReformInstance;\n\n        return _success;\n\n    }\n    function remMaster(address _organToReform, address _oldMaster) public returns (bool _success){\n\n        // Checking if caller is an admin\n        Organ authorizedReformersInstance = Organ(authorizedReformersOrgan);\n        require(authorizedReformersInstance.isNorm(msg.sender));\n        delete authorizedReformersInstance;\n                \n        // Checking that the constitutionnal procedure is a master to the target organ\n        Organ organToReformInstance = Organ(_organToReform);\n        bool canAdd;\n        bool canDelete;\n        (canAdd, canDelete) = organToReformInstance.isMaster(address(this));\n\n        \n        // Removing an master if the procedure is allowed\n        if (canDelete) {\n\n            organToReformInstance.remMaster(_oldMaster);\n            _success = true;\n        }\n        else { _success = false;}\n\n        delete organToReformInstance;\n\n        return _success;\n\n    }\n    function replaceMaster(address _organToReform, address _oldMaster, address _newMaster, bool _canAdd, bool _canDelete, string _name) public returns (bool _success){\n        // Checking if caller is an admin\n        Organ authorizedReformersInstance = Organ(authorizedReformersOrgan);\n        require(authorizedReformersInstance.isNorm(msg.sender));\n        delete authorizedReformersInstance;\n        \n        // Checking that the constitutionnal procedure is a master to the target organ\n        Organ organToReformInstance = Organ(_organToReform);\n        bool canAdd;\n        bool canDelete;\n        (canAdd, canDelete) = organToReformInstance.isMaster(address(this));\n\n        // Replacing an master if the procedure is allowed\n        if (canAdd && canDelete) {\n\n            organToReformInstance.replaceMaster(_oldMaster, _newMaster, _canAdd, _canDelete, _name );\n            _success = true;\n        }\n        else { _success = false;}\n\n        delete organToReformInstance;\n\n        return _success;\n\n    }\n\n  \n\n}",
  "sourcePath": "/Users/henrilieutaud/Documents/Mes documents/97/Workshop/Kelsen/solidity/contracts/procedures/simpleAdminsAndMasterNominationProcedure.sol",
  "compiler": {
    "name": "solc",
    "version": "0.4.19+commit.c4cbbb05.Emscripten.clang"
  },
  "schemaVersion": "2.0.0",
  "updatedAt": "2018-05-09T14:16:36.359Z"
}