{
  "contractName": "simpleAdminsAndMasterNominationProcedure",
  "abi": [
    {
      "constant": true,
      "inputs": [],
      "name": "procedureTypeNumber",
      "outputs": [
        {
          "name": "",
          "type": "int256"
        }
      ],
      "payable": false,
      "stateMutability": "view",
      "type": "function"
    },
    {
      "constant": true,
      "inputs": [],
      "name": "kelsenVersionNumber",
      "outputs": [
        {
          "name": "",
          "type": "int256"
        }
      ],
      "payable": false,
      "stateMutability": "view",
      "type": "function"
    },
    {
      "constant": true,
      "inputs": [],
      "name": "authorizedReformersOrgan",
      "outputs": [
        {
          "name": "",
          "type": "address"
        }
      ],
      "payable": false,
      "stateMutability": "view",
      "type": "function"
    },
    {
      "constant": true,
      "inputs": [],
      "name": "isAnOrgan",
      "outputs": [
        {
          "name": "",
          "type": "bool"
        }
      ],
      "payable": false,
      "stateMutability": "view",
      "type": "function"
    },
    {
      "constant": true,
      "inputs": [],
      "name": "procedureName",
      "outputs": [
        {
          "name": "",
          "type": "string"
        }
      ],
      "payable": false,
      "stateMutability": "view",
      "type": "function"
    },
    {
      "constant": true,
      "inputs": [],
      "name": "isAProcedure",
      "outputs": [
        {
          "name": "",
          "type": "bool"
        }
      ],
      "payable": false,
      "stateMutability": "view",
      "type": "function"
    },
    {
      "constant": true,
      "inputs": [
        {
          "name": "",
          "type": "uint256"
        }
      ],
      "name": "linkedOrgans",
      "outputs": [
        {
          "name": "",
          "type": "address"
        }
      ],
      "payable": false,
      "stateMutability": "view",
      "type": "function"
    },
    {
      "constant": false,
      "inputs": [
        {
          "name": "_organToReform",
          "type": "address"
        },
        {
          "name": "_newAdmin",
          "type": "address"
        },
        {
          "name": "_canAdd",
          "type": "bool"
        },
        {
          "name": "_canDelete",
          "type": "bool"
        },
        {
          "name": "_canDeposit",
          "type": "bool"
        },
        {
          "name": "_canSpend",
          "type": "bool"
        },
        {
          "name": "_name",
          "type": "string"
        }
      ],
      "name": "addAdmin",
      "outputs": [
        {
          "name": "_success",
          "type": "bool"
        }
      ],
      "payable": false,
      "stateMutability": "nonpayable",
      "type": "function"
    },
    {
      "constant": false,
      "inputs": [
        {
          "name": "_organToReform",
          "type": "address"
        },
        {
          "name": "_oldAdmin",
          "type": "address"
        }
      ],
      "name": "remAdmin",
      "outputs": [
        {
          "name": "_success",
          "type": "bool"
        }
      ],
      "payable": false,
      "stateMutability": "nonpayable",
      "type": "function"
    },
    {
      "constant": false,
      "inputs": [
        {
          "name": "_organToReform",
          "type": "address"
        },
        {
          "name": "_oldAdmin",
          "type": "address"
        },
        {
          "name": "_newAdmin",
          "type": "address"
        },
        {
          "name": "_canAdd",
          "type": "bool"
        },
        {
          "name": "_canDelete",
          "type": "bool"
        },
        {
          "name": "_canDeposit",
          "type": "bool"
        },
        {
          "name": "_canSpend",
          "type": "bool"
        },
        {
          "name": "_name",
          "type": "string"
        }
      ],
      "name": "replaceAdmin",
      "outputs": [
        {
          "name": "_success",
          "type": "bool"
        }
      ],
      "payable": false,
      "stateMutability": "nonpayable",
      "type": "function"
    },
    {
      "constant": false,
      "inputs": [
        {
          "name": "_organToReform",
          "type": "address"
        },
        {
          "name": "_newMaster",
          "type": "address"
        },
        {
          "name": "_canAdd",
          "type": "bool"
        },
        {
          "name": "_canDelete",
          "type": "bool"
        },
        {
          "name": "_name",
          "type": "string"
        }
      ],
      "name": "addMaster",
      "outputs": [
        {
          "name": "_success",
          "type": "bool"
        }
      ],
      "payable": false,
      "stateMutability": "nonpayable",
      "type": "function"
    },
    {
      "constant": false,
      "inputs": [
        {
          "name": "_organToReform",
          "type": "address"
        },
        {
          "name": "_oldMaster",
          "type": "address"
        }
      ],
      "name": "remMaster",
      "outputs": [
        {
          "name": "_success",
          "type": "bool"
        }
      ],
      "payable": false,
      "stateMutability": "nonpayable",
      "type": "function"
    },
    {
      "constant": false,
      "inputs": [
        {
          "name": "_organToReform",
          "type": "address"
        },
        {
          "name": "_oldMaster",
          "type": "address"
        },
        {
          "name": "_newMaster",
          "type": "address"
        },
        {
          "name": "_canAdd",
          "type": "bool"
        },
        {
          "name": "_canDelete",
          "type": "bool"
        },
        {
          "name": "_name",
          "type": "string"
        }
      ],
      "name": "replaceMaster",
      "outputs": [
        {
          "name": "_success",
          "type": "bool"
        }
      ],
      "payable": false,
      "stateMutability": "nonpayable",
      "type": "function"
    },
    {
      "constant": true,
      "inputs": [],
      "name": "getLinkedOrgans",
      "outputs": [
        {
          "name": "_linkedOrgans",
          "type": "address[]"
        }
      ],
      "payable": false,
      "stateMutability": "view",
      "type": "function"
    },
    {
      "constant": true,
      "inputs": [],
      "name": "getProcedureName",
      "outputs": [
        {
          "name": "_procedureName",
          "type": "string"
        }
      ],
      "payable": false,
      "stateMutability": "view",
      "type": "function"
    }
  ],
  "bytecode": "0x60606040526000600460006101000a81548160ff0219169083151502179055506001600460016101000a81548160ff0219169083151502179055506004600655341561004a57600080fd5b611d6f806100596000396000f3006060604052600436106100db576000357c0100000000000000000000000000000000000000000000000000000000900463ffffffff1680630ce80744146100e05780631d595bf4146101c85780632647d7f91461023857806359908afe146102615780635dbe4d28146102ef5780636d6480ef146103185780636f7840091461036d57806376eafbc01461046b578063a8bef97a1461054a578063adb4018b14610577578063e570050114610605578063e80b30a51461066f578063f2edc6161461069c578063f69c8751146106ff578063fd4538e11461076f575b600080fd5b34156100eb57600080fd5b6101ae600480803573ffffffffffffffffffffffffffffffffffffffff1690602001909190803573ffffffffffffffffffffffffffffffffffffffff1690602001909190803573ffffffffffffffffffffffffffffffffffffffff169060200190919080351515906020019091908035151590602001909190803590602001908201803590602001908080601f01602080910402602001604051908101604052809392919081815260200183838082843782019150505050505091905050610838565b604051808215151515815260200191505060405180910390f35b34156101d357600080fd5b61021e600480803573ffffffffffffffffffffffffffffffffffffffff1690602001909190803573ffffffffffffffffffffffffffffffffffffffff16906020019091905050610b99565b604051808215151515815260200191505060405180910390f35b341561024357600080fd5b61024b610e34565b6040518082815260200191505060405180910390f35b341561026c57600080fd5b610274610e3a565b6040518080602001828103825283818151815260200191508051906020019080838360005b838110156102b4578082015181840152602081019050610299565b50505050905090810190601f1680156102e15780820380516001836020036101000a031916815260200191505b509250505060405180910390f35b34156102fa57600080fd5b610302610ee2565b6040518082815260200191505060405180910390f35b341561032357600080fd5b61032b610ee8565b604051808273ffffffffffffffffffffffffffffffffffffffff1673ffffffffffffffffffffffffffffffffffffffff16815260200191505060405180910390f35b341561037857600080fd5b610451600480803573ffffffffffffffffffffffffffffffffffffffff1690602001909190803573ffffffffffffffffffffffffffffffffffffffff1690602001909190803573ffffffffffffffffffffffffffffffffffffffff16906020019091908035151590602001909190803515159060200190919080351515906020019091908035151590602001909190803590602001908201803590602001908080601f01602080910402602001604051908101604052809392919081815260200183838082843782019150505050505091905050610f0e565b604051808215151515815260200191505060405180910390f35b341561047657600080fd5b610530600480803573ffffffffffffffffffffffffffffffffffffffff1690602001909190803573ffffffffffffffffffffffffffffffffffffffff16906020019091908035151590602001909190803515159060200190919080351515906020019091908035151590602001909190803590602001908201803590602001908080601f01602080910402602001604051908101604052809392919081815260200183838082843782019150505050505091905050611289565b604051808215151515815260200191505060405180910390f35b341561055557600080fd5b61055d6115c6565b604051808215151515815260200191505060405180910390f35b341561058257600080fd5b61058a6115d9565b6040518080602001828103825283818151815260200191508051906020019080838360005b838110156105ca5780820151818401526020810190506105af565b50505050905090810190601f1680156105f75780820380516001836020036101000a031916815260200191505b509250505060405180910390f35b341561061057600080fd5b610618611677565b6040518080602001828103825283818151815260200191508051906020019060200280838360005b8381101561065b578082015181840152602081019050610640565b505050509050019250505060405180910390f35b341561067a57600080fd5b61068261170b565b604051808215151515815260200191505060405180910390f35b34156106a757600080fd5b6106bd600480803590602001909190505061171e565b604051808273ffffffffffffffffffffffffffffffffffffffff1673ffffffffffffffffffffffffffffffffffffffff16815260200191505060405180910390f35b341561070a57600080fd5b610755600480803573ffffffffffffffffffffffffffffffffffffffff1690602001909190803573ffffffffffffffffffffffffffffffffffffffff1690602001909190505061175d565b604051808215151515815260200191505060405180910390f35b341561077a57600080fd5b61081e600480803573ffffffffffffffffffffffffffffffffffffffff1690602001909190803573ffffffffffffffffffffffffffffffffffffffff169060200190919080351515906020019091908035151590602001909190803590602001908201803590602001908080601f016020809104026020016040519081016040528093929190818152602001838380828437820191505050505050919050506119f8565b604051808215151515815260200191505060405180910390f35b6000806000806000600760009054906101000a900473ffffffffffffffffffffffffffffffffffffffff1693508373ffffffffffffffffffffffffffffffffffffffff1663d323a4f8336000604051602001526040518263ffffffff167c0100000000000000000000000000000000000000000000000000000000028152600401808273ffffffffffffffffffffffffffffffffffffffff1673ffffffffffffffffffffffffffffffffffffffff168152602001915050602060405180830381600087803b151561090857600080fd5b6102c65a03f1151561091957600080fd5b50505060405180519050151561092e57600080fd5b600093508a92508273ffffffffffffffffffffffffffffffffffffffff1663f720f80b306000604051604001526040518263ffffffff167c0100000000000000000000000000000000000000000000000000000000028152600401808273ffffffffffffffffffffffffffffffffffffffff1673ffffffffffffffffffffffffffffffffffffffff1681526020019150506040805180830381600087803b15156109d757600080fd5b6102c65a03f115156109e857600080fd5b505050604051805190602001805190508092508193505050818015610a0a5750805b15610b7f578273ffffffffffffffffffffffffffffffffffffffff16630e6adcdf8b8b8b8b8b6040518663ffffffff167c0100000000000000000000000000000000000000000000000000000000028152600401808673ffffffffffffffffffffffffffffffffffffffff1673ffffffffffffffffffffffffffffffffffffffff1681526020018573ffffffffffffffffffffffffffffffffffffffff1673ffffffffffffffffffffffffffffffffffffffff168152602001841515151581526020018315151515815260200180602001828103825283818151815260200191508051906020019080838360005b83811015610b13578082015181840152602081019050610af8565b50505050905090810190601f168015610b405780820380516001836020036101000a031916815260200191505b509650505050505050600060405180830381600087803b1515610b6257600080fd5b6102c65a03f11515610b7357600080fd5b50505060019450610b84565b600094505b60009250849450505050509695505050505050565b6000806000806000600760009054906101000a900473ffffffffffffffffffffffffffffffffffffffff1693508373ffffffffffffffffffffffffffffffffffffffff1663d323a4f8336000604051602001526040518263ffffffff167c0100000000000000000000000000000000000000000000000000000000028152600401808273ffffffffffffffffffffffffffffffffffffffff1673ffffffffffffffffffffffffffffffffffffffff168152602001915050602060405180830381600087803b1515610c6957600080fd5b6102c65a03f11515610c7a57600080fd5b505050604051805190501515610c8f57600080fd5b600093508692508273ffffffffffffffffffffffffffffffffffffffff1663f720f80b306000604051604001526040518263ffffffff167c0100000000000000000000000000000000000000000000000000000000028152600401808273ffffffffffffffffffffffffffffffffffffffff1673ffffffffffffffffffffffffffffffffffffffff1681526020019150506040805180830381600087803b1515610d3857600080fd5b6102c65a03f11515610d4957600080fd5b5050506040518051906020018051905080925081935050508015610e1e578273ffffffffffffffffffffffffffffffffffffffff166311c60418876040518263ffffffff167c0100000000000000000000000000000000000000000000000000000000028152600401808273ffffffffffffffffffffffffffffffffffffffff1673ffffffffffffffffffffffffffffffffffffffff168152602001915050600060405180830381600087803b1515610e0157600080fd5b6102c65a03f11515610e1257600080fd5b50505060019450610e23565b600094505b600092508494505050505092915050565b60065481565b610e42611d1b565b60088054600181600116156101000203166002900480601f016020809104026020016040519081016040528092919081815260200182805460018160011615610100020316600290048015610ed85780601f10610ead57610100808354040283529160200191610ed8565b820191906000526020600020905b815481529060010190602001808311610ebb57829003601f168201915b5050505050905090565b60005481565b600760009054906101000a900473ffffffffffffffffffffffffffffffffffffffff1681565b6000806000806000600760009054906101000a900473ffffffffffffffffffffffffffffffffffffffff1693508373ffffffffffffffffffffffffffffffffffffffff1663d323a4f8336000604051602001526040518263ffffffff167c0100000000000000000000000000000000000000000000000000000000028152600401808273ffffffffffffffffffffffffffffffffffffffff1673ffffffffffffffffffffffffffffffffffffffff168152602001915050602060405180830381600087803b1515610fde57600080fd5b6102c65a03f11515610fef57600080fd5b50505060405180519050151561100457600080fd5b600093508c92508273ffffffffffffffffffffffffffffffffffffffff1663f720f80b306000604051604001526040518263ffffffff167c0100000000000000000000000000000000000000000000000000000000028152600401808273ffffffffffffffffffffffffffffffffffffffff1673ffffffffffffffffffffffffffffffffffffffff1681526020019150506040805180830381600087803b15156110ad57600080fd5b6102c65a03f115156110be57600080fd5b5050506040518051906020018051905080925081935050508180156110e05750805b1561126d578273ffffffffffffffffffffffffffffffffffffffff16638186c3508d8d8d8d8d8d8d6040518863ffffffff167c0100000000000000000000000000000000000000000000000000000000028152600401808873ffffffffffffffffffffffffffffffffffffffff1673ffffffffffffffffffffffffffffffffffffffff1681526020018773ffffffffffffffffffffffffffffffffffffffff1673ffffffffffffffffffffffffffffffffffffffff1681526020018615151515815260200185151515158152602001841515151581526020018315151515815260200180602001828103825283818151815260200191508051906020019080838360005b838110156111ff5780820151818401526020810190506111e4565b50505050905090810190601f16801561122c5780820380516001836020036101000a031916815260200191505b5098505050505050505050600060405180830381600087803b151561125057600080fd5b6102c65a03f1151561126157600080fd5b50505060019450611272565b600094505b600092508494505050505098975050505050505050565b6000806000806000600760009054906101000a900473ffffffffffffffffffffffffffffffffffffffff1693508373ffffffffffffffffffffffffffffffffffffffff1663d323a4f8336000604051602001526040518263ffffffff167c0100000000000000000000000000000000000000000000000000000000028152600401808273ffffffffffffffffffffffffffffffffffffffff1673ffffffffffffffffffffffffffffffffffffffff168152602001915050602060405180830381600087803b151561135957600080fd5b6102c65a03f1151561136a57600080fd5b50505060405180519050151561137f57600080fd5b600093508b92508273ffffffffffffffffffffffffffffffffffffffff1663f720f80b306000604051604001526040518263ffffffff167c0100000000000000000000000000000000000000000000000000000000028152600401808273ffffffffffffffffffffffffffffffffffffffff1673ffffffffffffffffffffffffffffffffffffffff1681526020019150506040805180830381600087803b151561142857600080fd5b6102c65a03f1151561143957600080fd5b50505060405180519060200180519050809250819350505081156115ab578273ffffffffffffffffffffffffffffffffffffffff166378ebd0058c8c8c8c8c8c6040518763ffffffff167c0100000000000000000000000000000000000000000000000000000000028152600401808773ffffffffffffffffffffffffffffffffffffffff1673ffffffffffffffffffffffffffffffffffffffff1681526020018615151515815260200185151515158152602001841515151581526020018315151515815260200180602001828103825283818151815260200191508051906020019080838360005b8381101561153e578082015181840152602081019050611523565b50505050905090810190601f16801561156b5780820380516001836020036101000a031916815260200191505b50975050505050505050600060405180830381600087803b151561158e57600080fd5b6102c65a03f1151561159f57600080fd5b505050600194506115b0565b600094505b6000925084945050505050979650505050505050565b600460009054906101000a900460ff1681565b60088054600181600116156101000203166002900480601f01602080910402602001604051908101604052809291908181526020018280546001816001161561010002031660029004801561166f5780601f106116445761010080835404028352916020019161166f565b820191906000526020600020905b81548152906001019060200180831161165257829003601f168201915b505050505081565b61167f611d2f565b600980548060200260200160405190810160405280929190818152602001828054801561170157602002820191906000526020600020905b8160009054906101000a900473ffffffffffffffffffffffffffffffffffffffff1673ffffffffffffffffffffffffffffffffffffffff16815260200190600101908083116116b7575b5050505050905090565b600460019054906101000a900460ff1681565b60098181548110151561172d57fe5b90600052602060002090016000915054906101000a900473ffffffffffffffffffffffffffffffffffffffff1681565b6000806000806000600760009054906101000a900473ffffffffffffffffffffffffffffffffffffffff1693508373ffffffffffffffffffffffffffffffffffffffff1663d323a4f8336000604051602001526040518263ffffffff167c0100000000000000000000000000000000000000000000000000000000028152600401808273ffffffffffffffffffffffffffffffffffffffff1673ffffffffffffffffffffffffffffffffffffffff168152602001915050602060405180830381600087803b151561182d57600080fd5b6102c65a03f1151561183e57600080fd5b50505060405180519050151561185357600080fd5b600093508692508273ffffffffffffffffffffffffffffffffffffffff1663f720f80b306000604051604001526040518263ffffffff167c0100000000000000000000000000000000000000000000000000000000028152600401808273ffffffffffffffffffffffffffffffffffffffff1673ffffffffffffffffffffffffffffffffffffffff1681526020019150506040805180830381600087803b15156118fc57600080fd5b6102c65a03f1151561190d57600080fd5b50505060405180519060200180519050809250819350505080156119e2578273ffffffffffffffffffffffffffffffffffffffff166331a79198876040518263ffffffff167c0100000000000000000000000000000000000000000000000000000000028152600401808273ffffffffffffffffffffffffffffffffffffffff1673ffffffffffffffffffffffffffffffffffffffff168152602001915050600060405180830381600087803b15156119c557600080fd5b6102c65a03f115156119d657600080fd5b505050600194506119e7565b600094505b600092508494505050505092915050565b6000806000806000600760009054906101000a900473ffffffffffffffffffffffffffffffffffffffff1693508373ffffffffffffffffffffffffffffffffffffffff1663d323a4f8336000604051602001526040518263ffffffff167c0100000000000000000000000000000000000000000000000000000000028152600401808273ffffffffffffffffffffffffffffffffffffffff1673ffffffffffffffffffffffffffffffffffffffff168152602001915050602060405180830381600087803b1515611ac857600080fd5b6102c65a03f11515611ad957600080fd5b505050604051805190501515611aee57600080fd5b600093508992508273ffffffffffffffffffffffffffffffffffffffff1663f720f80b306000604051604001526040518263ffffffff167c0100000000000000000000000000000000000000000000000000000000028152600401808273ffffffffffffffffffffffffffffffffffffffff1673ffffffffffffffffffffffffffffffffffffffff1681526020019150506040805180830381600087803b1515611b9757600080fd5b6102c65a03f11515611ba857600080fd5b5050506040518051906020018051905080925081935050508115611d02578273ffffffffffffffffffffffffffffffffffffffff1663ca1885f78a8a8a8a6040518563ffffffff167c0100000000000000000000000000000000000000000000000000000000028152600401808573ffffffffffffffffffffffffffffffffffffffff1673ffffffffffffffffffffffffffffffffffffffff168152602001841515151581526020018315151515815260200180602001828103825283818151815260200191508051906020019080838360005b83811015611c97578082015181840152602081019050611c7c565b50505050905090810190601f168015611cc45780820380516001836020036101000a031916815260200191505b5095505050505050600060405180830381600087803b1515611ce557600080fd5b6102c65a03f11515611cf657600080fd5b50505060019450611d07565b600094505b600092508494505050505095945050505050565b602060405190810160405280600081525090565b6020604051908101604052806000815250905600a165627a7a72305820352ff9b3443762748b25b6520717fd367d62305ae4b8fddf9666682d99c4e73a0029",
  "source": "pragma solidity ^0.4.11;\n\n// Standard contract for a presidential election procedure\n\nimport \"../standardProcedure.sol\";\nimport \"../standardOrgan.sol\";\n\ncontract simpleAdminsAndMasterNominationProcedure is Procedure{\n\n    // 1: Cyclical many to one election (Presidential Election)\n    // 2: Cyclical many to many election (Moderators Election)\n    // 3: Simple norm nomination \n    // 4: Simple admins and master nomination\n    // 5: Vote on Norms \n    // 6: Vote on masters and admins \n    // 7: Cooptation\n    int public procedureTypeNumber = 4;\n    // address public affectedOrganContract;\n    address public authorizedReformersOrgan;\n\n    // Storage for procedure name\n    string public procedureName;\n\n    // Gathering connected organs for easier DAO mapping\n    address[] public linkedOrgans;\n    \n\n    function addAdmin(address _organToReform, address _newAdmin, bool _canAdd, bool _canDelete, bool _canDeposit, bool _canSpend, string _name) public returns (bool _success){\n\n        // Checking if caller is an admin\n        Organ authorizedReformersInstance = Organ(authorizedReformersOrgan);\n        require(authorizedReformersInstance.isNorm(msg.sender));\n        delete authorizedReformersInstance;\n\n        // Checking that the constitutionnal procedure is a master to the target organ\n        Organ organToReformInstance = Organ(_organToReform);\n        bool canAdd;\n        bool canDelete;\n        (canAdd, canDelete) = organToReformInstance.isMaster(address(this));\n\n        \n        // Adding an admin if the procedure is allowed\n        if (canAdd) {\n\n            organToReformInstance.addAdmin(_newAdmin, _canAdd, _canDelete, _canDeposit, _canSpend, _name);\n            _success = true;\n        }\n        else { _success = false;}\n\n        delete organToReformInstance;\n\n        return _success;\n\n    }\n    function remAdmin(address _organToReform, address _oldAdmin) public returns (bool _success){\n\n        // Checking if caller is an admin\n        Organ authorizedReformersInstance = Organ(authorizedReformersOrgan);\n        require(authorizedReformersInstance.isNorm(msg.sender));\n        delete authorizedReformersInstance;\n\n        // Checking that the constitutionnal procedure is a master to the target organ\n        Organ organToReformInstance = Organ(_organToReform);\n        bool canAdd;\n        bool canDelete;\n        (canAdd, canDelete) = organToReformInstance.isMaster(address(this));\n\n        \n        // Removing an admin if the procedure is allowed\n        if (canDelete) {\n\n            organToReformInstance.remAdmin(_oldAdmin);\n            _success = true;\n        }\n        else { _success = false;}\n\n        delete organToReformInstance;\n\n        return _success;\n\n    }\n    function replaceAdmin(address _organToReform, address _oldAdmin, address _newAdmin, bool _canAdd, bool _canDelete, bool _canDeposit, bool _canSpend, string _name) public returns (bool _success){\n\n        // Checking if caller is an admin\n        Organ authorizedReformersInstance = Organ(authorizedReformersOrgan);\n        require(authorizedReformersInstance.isNorm(msg.sender));\n        delete authorizedReformersInstance;\n\n        // Checking that the constitutionnal procedure is a master to the target organ\n        Organ organToReformInstance = Organ(_organToReform);\n        bool canAdd;\n        bool canDelete;\n        (canAdd, canDelete) = organToReformInstance.isMaster(address(this));\n\n        // Replacing an admin if the procedure is allowed\n        if (canAdd && canDelete) {\n\n            organToReformInstance.replaceAdmin(_oldAdmin, _newAdmin, _canAdd, _canDelete, _canDeposit, _canSpend, _name );\n            _success = true;\n        }\n        else { _success = false;}\n\n        delete organToReformInstance;\n\n        return _success;\n\n    }\n\n        function addMaster(address _organToReform, address _newMaster, bool _canAdd, bool _canDelete, string _name) public returns (bool _success){\n\n        // Checking if caller is an admin\n        Organ authorizedReformersInstance = Organ(authorizedReformersOrgan);\n        require(authorizedReformersInstance.isNorm(msg.sender));\n        delete authorizedReformersInstance;\n\n        // Checking that the constitutionnal procedure is a master to the target organ\n        Organ organToReformInstance = Organ(_organToReform);\n        bool canAdd;\n        bool canDelete;\n        (canAdd, canDelete) = organToReformInstance.isMaster(address(this));\n\n        \n        // Adding an master if the procedure is allowed\n        if (canAdd) {\n\n            organToReformInstance.addMaster(_newMaster, _canAdd, _canDelete, _name);\n            _success = true;\n        }\n        else { _success = false;}\n\n        delete organToReformInstance;\n\n        return _success;\n\n    }\n    function remMaster(address _organToReform, address _oldMaster) public returns (bool _success){\n\n        // Checking if caller is an admin\n        Organ authorizedReformersInstance = Organ(authorizedReformersOrgan);\n        require(authorizedReformersInstance.isNorm(msg.sender));\n        delete authorizedReformersInstance;\n                \n        // Checking that the constitutionnal procedure is a master to the target organ\n        Organ organToReformInstance = Organ(_organToReform);\n        bool canAdd;\n        bool canDelete;\n        (canAdd, canDelete) = organToReformInstance.isMaster(address(this));\n\n        \n        // Removing an master if the procedure is allowed\n        if (canDelete) {\n\n            organToReformInstance.remMaster(_oldMaster);\n            _success = true;\n        }\n        else { _success = false;}\n\n        delete organToReformInstance;\n\n        return _success;\n\n    }\n    function replaceMaster(address _organToReform, address _oldMaster, address _newMaster, bool _canAdd, bool _canDelete, string _name) public returns (bool _success){\n        // Checking if caller is an admin\n        Organ authorizedReformersInstance = Organ(authorizedReformersOrgan);\n        require(authorizedReformersInstance.isNorm(msg.sender));\n        delete authorizedReformersInstance;\n        \n        // Checking that the constitutionnal procedure is a master to the target organ\n        Organ organToReformInstance = Organ(_organToReform);\n        bool canAdd;\n        bool canDelete;\n        (canAdd, canDelete) = organToReformInstance.isMaster(address(this));\n\n        // Replacing an master if the procedure is allowed\n        if (canAdd && canDelete) {\n\n            organToReformInstance.replaceMaster(_oldMaster, _newMaster, _canAdd, _canDelete, _name );\n            _success = true;\n        }\n        else { _success = false;}\n\n        delete organToReformInstance;\n\n        return _success;\n\n    }\n    function getLinkedOrgans() public view returns (address[] _linkedOrgans)\n    {return linkedOrgans;}\n\n    function getProcedureName() public view returns (string _procedureName)\n    {return procedureName;}\n  \n\n}",
  "sourcePath": "/Users/henrilieutaud/Documents/Mes documents/97/Workshop/Kelsen/solidity/contracts/procedures/simpleAdminsAndMasterNominationProcedure.sol",
  "compiler": {
    "name": "solc",
    "version": "0.4.19+commit.c4cbbb05.Emscripten.clang"
  },
  "schemaVersion": "2.0.0",
  "updatedAt": "2018-05-15T09:52:44.271Z"
}