{
  "contractName": "simpleNormNominationProcedure",
  "abi": [
    {
      "constant": true,
      "inputs": [],
      "name": "procedureTypeNumber",
      "outputs": [
        {
          "name": "",
          "type": "int256"
        }
      ],
      "payable": false,
      "stateMutability": "view",
      "type": "function"
    },
    {
      "constant": true,
      "inputs": [],
      "name": "kelsenVersionNumber",
      "outputs": [
        {
          "name": "",
          "type": "int256"
        }
      ],
      "payable": false,
      "stateMutability": "view",
      "type": "function"
    },
    {
      "constant": true,
      "inputs": [],
      "name": "authorizedNominatersOrgan",
      "outputs": [
        {
          "name": "",
          "type": "address"
        }
      ],
      "payable": false,
      "stateMutability": "view",
      "type": "function"
    },
    {
      "constant": true,
      "inputs": [],
      "name": "isAnOrgan",
      "outputs": [
        {
          "name": "",
          "type": "bool"
        }
      ],
      "payable": false,
      "stateMutability": "view",
      "type": "function"
    },
    {
      "constant": true,
      "inputs": [],
      "name": "isAProcedure",
      "outputs": [
        {
          "name": "",
          "type": "bool"
        }
      ],
      "payable": false,
      "stateMutability": "view",
      "type": "function"
    },
    {
      "constant": true,
      "inputs": [
        {
          "name": "",
          "type": "uint256"
        }
      ],
      "name": "linkedOrgans",
      "outputs": [
        {
          "name": "",
          "type": "address"
        }
      ],
      "payable": false,
      "stateMutability": "view",
      "type": "function"
    },
    {
      "constant": false,
      "inputs": [
        {
          "name": "_targetOrgan",
          "type": "address"
        },
        {
          "name": "_normAdress",
          "type": "address"
        },
        {
          "name": "_name",
          "type": "string"
        },
        {
          "name": "_ipfsHash",
          "type": "bytes32"
        },
        {
          "name": "_hash_function",
          "type": "uint8"
        },
        {
          "name": "_size",
          "type": "uint8"
        }
      ],
      "name": "addNorm",
      "outputs": [
        {
          "name": "newNormNumber",
          "type": "uint256"
        }
      ],
      "payable": false,
      "stateMutability": "nonpayable",
      "type": "function"
    },
    {
      "constant": false,
      "inputs": [
        {
          "name": "_targetOrgan",
          "type": "address"
        },
        {
          "name": "_normNumber",
          "type": "uint256"
        }
      ],
      "name": "remNorm",
      "outputs": [],
      "payable": false,
      "stateMutability": "nonpayable",
      "type": "function"
    },
    {
      "constant": false,
      "inputs": [
        {
          "name": "_targetOrgan",
          "type": "address"
        },
        {
          "name": "_oldNormNumber",
          "type": "uint256"
        },
        {
          "name": "_newNormAdress",
          "type": "address"
        },
        {
          "name": "_name",
          "type": "string"
        },
        {
          "name": "_ipfsHash",
          "type": "bytes32"
        },
        {
          "name": "_hash_function",
          "type": "uint8"
        },
        {
          "name": "_size",
          "type": "uint8"
        }
      ],
      "name": "replaceNorm",
      "outputs": [],
      "payable": false,
      "stateMutability": "nonpayable",
      "type": "function"
    },
    {
      "constant": true,
      "inputs": [],
      "name": "getLinkedOrgans",
      "outputs": [
        {
          "name": "_linkedOrgans",
          "type": "address[]"
        }
      ],
      "payable": false,
      "stateMutability": "view",
      "type": "function"
    }
  ],
  "bytecode": "0x60606040526000600460006101000a81548160ff0219169083151502179055506001600460016101000a81548160ff0219169083151502179055506003600555341561004a57600080fd5b610e85806100596000396000f3006060604052600436106100a4576000357c0100000000000000000000000000000000000000000000000000000000900463ffffffff1680632647d7f9146100a957806326a1d187146100d2578063418414ff146101145780635dbe4d28146101e85780637d3575f014610211578063a587f936146102da578063a8bef97a1461032f578063e57005011461035c578063e80b30a5146103c6578063f2edc616146103f3575b600080fd5b34156100b457600080fd5b6100bc610456565b6040518082815260200191505060405180910390f35b34156100dd57600080fd5b610112600480803573ffffffffffffffffffffffffffffffffffffffff1690602001909190803590602001909190505061045c565b005b341561011f57600080fd5b6101d2600480803573ffffffffffffffffffffffffffffffffffffffff1690602001909190803573ffffffffffffffffffffffffffffffffffffffff1690602001909190803590602001908201803590602001908080601f016020809104026020016040519081016040528093929190818152602001838380828437820191505050505050919080356000191690602001909190803560ff1690602001909190803560ff169060200190919050506106b3565b6040518082815260200191505060405180910390f35b34156101f357600080fd5b6101fb6109ee565b6040518082815260200191505060405180910390f35b341561021c57600080fd5b6102d8600480803573ffffffffffffffffffffffffffffffffffffffff1690602001909190803590602001909190803573ffffffffffffffffffffffffffffffffffffffff1690602001909190803590602001908201803590602001908080601f016020809104026020016040519081016040528093929190818152602001838380828437820191505050505050919080356000191690602001909190803560ff1690602001909190803560ff169060200190919050506109f4565b005b34156102e557600080fd5b6102ed610d26565b604051808273ffffffffffffffffffffffffffffffffffffffff1673ffffffffffffffffffffffffffffffffffffffff16815260200191505060405180910390f35b341561033a57600080fd5b610342610d4c565b604051808215151515815260200191505060405180910390f35b341561036757600080fd5b61036f610d5f565b6040518080602001828103825283818151815260200191508051906020019060200280838360005b838110156103b2578082015181840152602081019050610397565b505050509050019250505060405180910390f35b34156103d157600080fd5b6103d9610df3565b604051808215151515815260200191505060405180910390f35b34156103fe57600080fd5b6104146004808035906020019091905050610e06565b604051808273ffffffffffffffffffffffffffffffffffffffff1673ffffffffffffffffffffffffffffffffffffffff16815260200191505060405180910390f35b60055481565b600080600080600660009054906101000a900473ffffffffffffffffffffffffffffffffffffffff1693508373ffffffffffffffffffffffffffffffffffffffff1663d323a4f8336000604051602001526040518263ffffffff167c0100000000000000000000000000000000000000000000000000000000028152600401808273ffffffffffffffffffffffffffffffffffffffff1673ffffffffffffffffffffffffffffffffffffffff168152602001915050602060405180830381600087803b151561052a57600080fd5b6102c65a03f1151561053b57600080fd5b50505060405180519050151561055057600080fd5b600093508592508273ffffffffffffffffffffffffffffffffffffffff166324d7806c306000604051604001526040518263ffffffff167c0100000000000000000000000000000000000000000000000000000000028152600401808273ffffffffffffffffffffffffffffffffffffffff1673ffffffffffffffffffffffffffffffffffffffff1681526020019150506040805180830381600087803b15156105f957600080fd5b6102c65a03f1151561060a57600080fd5b50505060405180519060200180519050809250819350505080156106ab578273ffffffffffffffffffffffffffffffffffffffff16630e9defff866040518263ffffffff167c010000000000000000000000000000000000000000000000000000000002815260040180828152602001915050600060405180830381600087803b151561069657600080fd5b6102c65a03f115156106a757600080fd5b5050505b505050505050565b6000806000806000600660009054906101000a900473ffffffffffffffffffffffffffffffffffffffff1693508373ffffffffffffffffffffffffffffffffffffffff1663d323a4f8336000604051602001526040518263ffffffff167c0100000000000000000000000000000000000000000000000000000000028152600401808273ffffffffffffffffffffffffffffffffffffffff1673ffffffffffffffffffffffffffffffffffffffff168152602001915050602060405180830381600087803b151561078357600080fd5b6102c65a03f1151561079457600080fd5b5050506040518051905015156107a957600080fd5b600093508a92508273ffffffffffffffffffffffffffffffffffffffff166324d7806c306000604051604001526040518263ffffffff167c0100000000000000000000000000000000000000000000000000000000028152600401808273ffffffffffffffffffffffffffffffffffffffff1673ffffffffffffffffffffffffffffffffffffffff1681526020019150506040805180830381600087803b151561085257600080fd5b6102c65a03f1151561086357600080fd5b50505060405180519060200180519050809250819350505081156109df578273ffffffffffffffffffffffffffffffffffffffff1663696c52198b8b8b8b8b6000604051602001526040518663ffffffff167c0100000000000000000000000000000000000000000000000000000000028152600401808673ffffffffffffffffffffffffffffffffffffffff1673ffffffffffffffffffffffffffffffffffffffff1681526020018060200185600019166000191681526020018460ff1660ff1681526020018360ff1660ff168152602001828103825286818151815260200191508051906020019080838360005b8381101561096e578082015181840152602081019050610953565b50505050905090810190601f16801561099b5780820380516001836020036101000a031916815260200191505b509650505050505050602060405180830381600087803b15156109bd57600080fd5b6102c65a03f115156109ce57600080fd5b5050506040518051905094506109e0565b5b505050509695505050505050565b60005481565b600080600080600660009054906101000a900473ffffffffffffffffffffffffffffffffffffffff1693508373ffffffffffffffffffffffffffffffffffffffff1663d323a4f8336000604051602001526040518263ffffffff167c0100000000000000000000000000000000000000000000000000000000028152600401808273ffffffffffffffffffffffffffffffffffffffff1673ffffffffffffffffffffffffffffffffffffffff168152602001915050602060405180830381600087803b1515610ac257600080fd5b6102c65a03f11515610ad357600080fd5b505050604051805190501515610ae857600080fd5b600093508a92508273ffffffffffffffffffffffffffffffffffffffff166324d7806c306000604051604001526040518263ffffffff167c0100000000000000000000000000000000000000000000000000000000028152600401808273ffffffffffffffffffffffffffffffffffffffff1673ffffffffffffffffffffffffffffffffffffffff1681526020019150506040805180830381600087803b1515610b9157600080fd5b6102c65a03f11515610ba257600080fd5b505050604051805190602001805190508092508193505050818015610bc45750805b15610d19578273ffffffffffffffffffffffffffffffffffffffff1663cd26b87b8b8b8b8b8b8b6040518763ffffffff167c0100000000000000000000000000000000000000000000000000000000028152600401808781526020018673ffffffffffffffffffffffffffffffffffffffff1673ffffffffffffffffffffffffffffffffffffffff1681526020018060200185600019166000191681526020018460ff1660ff1681526020018360ff1660ff168152602001828103825286818151815260200191508051906020019080838360005b83811015610cb4578082015181840152602081019050610c99565b50505050905090810190601f168015610ce15780820380516001836020036101000a031916815260200191505b50975050505050505050600060405180830381600087803b1515610d0457600080fd5b6102c65a03f11515610d1557600080fd5b5050505b5050505050505050505050565b600660009054906101000a900473ffffffffffffffffffffffffffffffffffffffff1681565b600460009054906101000a900460ff1681565b610d67610e45565b6007805480602002602001604051908101604052809291908181526020018280548015610de957602002820191906000526020600020905b8160009054906101000a900473ffffffffffffffffffffffffffffffffffffffff1673ffffffffffffffffffffffffffffffffffffffff1681526020019060010190808311610d9f575b5050505050905090565b600460019054906101000a900460ff1681565b600781815481101515610e1557fe5b90600052602060002090016000915054906101000a900473ffffffffffffffffffffffffffffffffffffffff1681565b6020604051908101604052806000815250905600a165627a7a7230582093a2c0e06a852d02e92d63e7df662392369ad4516510cee794fbd5029cf1bda50029",
  "source": "pragma solidity ^0.4.11;\n\n// Standard contract for a presidential election procedure\n\nimport \"../standardProcedure.sol\";\nimport \"../standardOrgan.sol\";\n\ncontract simpleNormNominationProcedure is Procedure{\n\n    // 1: Cyclical many to one election (Presidential Election)\n    // 2: Cyclical many to many election (Moderators Election)\n    // 3: Simple norm nomination \n    // 4: Simple admins and master nomination\n    // 5: Vote on Norms \n    // 6: Vote on masters and admins \n    // 7: Cooptation\n    int public procedureTypeNumber = 3;\n    // address public affectedOrganContract;\n    address public authorizedNominatersOrgan;\n\n    // Gathering connected organs for easier DAO mapping\n    address[] public linkedOrgans;\n    \n\n    function addNorm(address _targetOrgan, address _normAdress, string _name, bytes32 _ipfsHash, uint8 _hash_function, uint8 _size)  public returns (uint newNormNumber) {\n\n        // Checking if caller is an admin\n        Organ authorizedNominatorsInstance = Organ(authorizedNominatersOrgan);\n        require(authorizedNominatorsInstance.isNorm(msg.sender));\n        delete authorizedNominatorsInstance;\n\n        // Checking that the nomination procedure is an admin to the target organ\n        Organ targetOrganInstance = Organ(_targetOrgan);\n        bool canAdd;\n        bool canDelete;\n        (canAdd, canDelete) = targetOrganInstance.isAdmin(address(this));\n\n        \n        // Adding a norm if the procedure is allowed\n        if (canAdd) {\n\n            return targetOrganInstance.addNorm(_normAdress, _name, _ipfsHash, _hash_function, _size);\n        }\n\n    }\n    function remNorm(address _targetOrgan, uint _normNumber) public {\n\n        // Checking if caller is an admin\n        Organ authorizedNominatorsInstance = Organ(authorizedNominatersOrgan);\n        require(authorizedNominatorsInstance.isNorm(msg.sender));\n        delete authorizedNominatorsInstance;\n\n        // Checking that the nomination procedure is an admin to the target organ\n        Organ targetOrganInstance = Organ(_targetOrgan);\n        bool canAdd;\n        bool canDelete;\n        (canAdd, canDelete) = targetOrganInstance.isAdmin(address(this));\n\n        \n        // Removing a norm if the procedure is allowed\n        if (canDelete) {\n\n            targetOrganInstance.remNorm(_normNumber);\n        }\n\n    }\n    function replaceNorm(address _targetOrgan, uint _oldNormNumber, address _newNormAdress, string _name, bytes32 _ipfsHash, uint8 _hash_function, uint8 _size) public {\n\n        // Checking if caller is an admin\n        Organ authorizedNominatorsInstance = Organ(authorizedNominatersOrgan);\n        require(authorizedNominatorsInstance.isNorm(msg.sender));\n        delete authorizedNominatorsInstance;\n\n        // Checking that the nomination procedure is an admin to the target organ\n        Organ targetOrganInstance = Organ(_targetOrgan);\n        bool canAdd;\n        bool canDelete;\n        (canAdd, canDelete) = targetOrganInstance.isAdmin(address(this));\n\n        // Replacing an admin if the procedure is allowed\n        if (canAdd && canDelete) {\n\n            targetOrganInstance.replaceNorm(_oldNormNumber, _newNormAdress, _name, _ipfsHash, _hash_function, _size);\n\n        }\n        \n    }\n    function getLinkedOrgans() public view returns (address[] _linkedOrgans)\n    {return linkedOrgans;}\n\n  \n\n}",
  "sourcePath": "/Users/henrilieutaud/Documents/Mes documents/97/Workshop/Kelsen/solidity/contracts/procedures/simpleNormNominationProcedure.sol",
  "compiler": {
    "name": "solc",
    "version": "0.4.19+commit.c4cbbb05.Emscripten.clang"
  },
  "schemaVersion": "2.0.0",
  "updatedAt": "2018-05-14T16:41:34.561Z"
}