{
  "contractName": "voteOnNormsProcedure",
  "abi": [
    {
      "constant": true,
      "inputs": [
        {
          "name": "",
          "type": "address"
        },
        {
          "name": "",
          "type": "uint256"
        }
      ],
      "name": "propositionToUser",
      "outputs": [
        {
          "name": "",
          "type": "uint256"
        }
      ],
      "payable": false,
      "stateMutability": "view",
      "type": "function"
    },
    {
      "constant": true,
      "inputs": [],
      "name": "procedureTypeNumber",
      "outputs": [
        {
          "name": "",
          "type": "int256"
        }
      ],
      "payable": false,
      "stateMutability": "view",
      "type": "function"
    },
    {
      "constant": true,
      "inputs": [],
      "name": "quorumSize",
      "outputs": [
        {
          "name": "",
          "type": "uint256"
        }
      ],
      "payable": false,
      "stateMutability": "view",
      "type": "function"
    },
    {
      "constant": true,
      "inputs": [
        {
          "name": "",
          "type": "address"
        },
        {
          "name": "",
          "type": "uint256"
        }
      ],
      "name": "propositionToPromulgator",
      "outputs": [
        {
          "name": "",
          "type": "uint256"
        }
      ],
      "payable": false,
      "stateMutability": "view",
      "type": "function"
    },
    {
      "constant": true,
      "inputs": [],
      "name": "kelsenVersionNumber",
      "outputs": [
        {
          "name": "",
          "type": "int256"
        }
      ],
      "payable": false,
      "stateMutability": "view",
      "type": "function"
    },
    {
      "constant": true,
      "inputs": [],
      "name": "membersWithVetoOrganContract",
      "outputs": [
        {
          "name": "",
          "type": "address"
        }
      ],
      "payable": false,
      "stateMutability": "view",
      "type": "function"
    },
    {
      "constant": true,
      "inputs": [
        {
          "name": "",
          "type": "address"
        },
        {
          "name": "",
          "type": "uint256"
        }
      ],
      "name": "propositionToVoter",
      "outputs": [
        {
          "name": "",
          "type": "uint256"
        }
      ],
      "payable": false,
      "stateMutability": "view",
      "type": "function"
    },
    {
      "constant": true,
      "inputs": [],
      "name": "finalPromulgatorsOrganContract",
      "outputs": [
        {
          "name": "",
          "type": "address"
        }
      ],
      "payable": false,
      "stateMutability": "view",
      "type": "function"
    },
    {
      "constant": true,
      "inputs": [],
      "name": "totalPropositionNumber",
      "outputs": [
        {
          "name": "",
          "type": "uint256"
        }
      ],
      "payable": false,
      "stateMutability": "view",
      "type": "function"
    },
    {
      "constant": true,
      "inputs": [],
      "name": "requiredMajorityNumerator",
      "outputs": [
        {
          "name": "",
          "type": "uint256"
        }
      ],
      "payable": false,
      "stateMutability": "view",
      "type": "function"
    },
    {
      "constant": true,
      "inputs": [],
      "name": "isAnOrgan",
      "outputs": [
        {
          "name": "",
          "type": "bool"
        }
      ],
      "payable": false,
      "stateMutability": "view",
      "type": "function"
    },
    {
      "constant": true,
      "inputs": [],
      "name": "votingPeriodDuration",
      "outputs": [
        {
          "name": "",
          "type": "uint256"
        }
      ],
      "payable": false,
      "stateMutability": "view",
      "type": "function"
    },
    {
      "constant": true,
      "inputs": [
        {
          "name": "",
          "type": "uint256"
        }
      ],
      "name": "propositionsWaitingPromulgation",
      "outputs": [
        {
          "name": "",
          "type": "bool"
        }
      ],
      "payable": false,
      "stateMutability": "view",
      "type": "function"
    },
    {
      "constant": true,
      "inputs": [],
      "name": "promulgationPeriodDuration",
      "outputs": [
        {
          "name": "",
          "type": "uint256"
        }
      ],
      "payable": false,
      "stateMutability": "view",
      "type": "function"
    },
    {
      "constant": true,
      "inputs": [],
      "name": "votersOrganContract",
      "outputs": [
        {
          "name": "",
          "type": "address"
        }
      ],
      "payable": false,
      "stateMutability": "view",
      "type": "function"
    },
    {
      "constant": true,
      "inputs": [
        {
          "name": "",
          "type": "address"
        },
        {
          "name": "",
          "type": "uint256"
        }
      ],
      "name": "propositionToVetoer",
      "outputs": [
        {
          "name": "",
          "type": "uint256"
        }
      ],
      "payable": false,
      "stateMutability": "view",
      "type": "function"
    },
    {
      "constant": true,
      "inputs": [
        {
          "name": "",
          "type": "uint256"
        }
      ],
      "name": "propositionsWaitingEndOfVote",
      "outputs": [
        {
          "name": "",
          "type": "bool"
        }
      ],
      "payable": false,
      "stateMutability": "view",
      "type": "function"
    },
    {
      "constant": true,
      "inputs": [],
      "name": "isAProcedure",
      "outputs": [
        {
          "name": "",
          "type": "bool"
        }
      ],
      "payable": false,
      "stateMutability": "view",
      "type": "function"
    },
    {
      "constant": true,
      "inputs": [],
      "name": "requiredMajorityDenominator",
      "outputs": [
        {
          "name": "",
          "type": "uint256"
        }
      ],
      "payable": false,
      "stateMutability": "view",
      "type": "function"
    },
    {
      "constant": true,
      "inputs": [
        {
          "name": "",
          "type": "uint256"
        }
      ],
      "name": "linkedOrgans",
      "outputs": [
        {
          "name": "",
          "type": "address"
        }
      ],
      "payable": false,
      "stateMutability": "view",
      "type": "function"
    },
    {
      "constant": true,
      "inputs": [],
      "name": "affectedOrganContract",
      "outputs": [
        {
          "name": "",
          "type": "address"
        }
      ],
      "payable": false,
      "stateMutability": "view",
      "type": "function"
    },
    {
      "anonymous": false,
      "inputs": [
        {
          "indexed": false,
          "name": "_from",
          "type": "address"
        },
        {
          "indexed": false,
          "name": "_contractToAdd",
          "type": "address"
        },
        {
          "indexed": false,
          "name": "_contractToRemove",
          "type": "address"
        },
        {
          "indexed": false,
          "name": "_ipfsHash",
          "type": "bytes32"
        },
        {
          "indexed": false,
          "name": "_hash_function",
          "type": "uint8"
        },
        {
          "indexed": false,
          "name": "_size",
          "type": "uint8"
        }
      ],
      "name": "createPropositionEvent",
      "type": "event"
    },
    {
      "anonymous": false,
      "inputs": [
        {
          "indexed": false,
          "name": "_from",
          "type": "address"
        },
        {
          "indexed": false,
          "name": "_propositionNumber",
          "type": "uint256"
        }
      ],
      "name": "voteOnProposition",
      "type": "event"
    },
    {
      "anonymous": false,
      "inputs": [
        {
          "indexed": false,
          "name": "_from",
          "type": "address"
        },
        {
          "indexed": false,
          "name": "_propositionNumber",
          "type": "uint256"
        }
      ],
      "name": "vetoProposition",
      "type": "event"
    },
    {
      "anonymous": false,
      "inputs": [
        {
          "indexed": false,
          "name": "_from",
          "type": "address"
        },
        {
          "indexed": false,
          "name": "_propositionNumber",
          "type": "uint256"
        }
      ],
      "name": "countVotes",
      "type": "event"
    },
    {
      "anonymous": false,
      "inputs": [
        {
          "indexed": false,
          "name": "_from",
          "type": "address"
        },
        {
          "indexed": false,
          "name": "_propositionNumber",
          "type": "uint256"
        },
        {
          "indexed": false,
          "name": "_promulgate",
          "type": "bool"
        }
      ],
      "name": "promulgatePropositionEvent",
      "type": "event"
    },
    {
      "constant": false,
      "inputs": [
        {
          "name": "_contractToAdd",
          "type": "address"
        },
        {
          "name": "_contractToRemove",
          "type": "address"
        },
        {
          "name": "_ipfsHash",
          "type": "bytes32"
        },
        {
          "name": "_hash_function",
          "type": "uint8"
        },
        {
          "name": "_size",
          "type": "uint8"
        },
        {
          "name": "_name",
          "type": "string"
        }
      ],
      "name": "createProposition",
      "outputs": [
        {
          "name": "propositionNumber",
          "type": "uint256"
        }
      ],
      "payable": false,
      "stateMutability": "nonpayable",
      "type": "function"
    },
    {
      "constant": false,
      "inputs": [
        {
          "name": "_propositionNumber",
          "type": "uint256"
        },
        {
          "name": "_acceptProposition",
          "type": "bool"
        }
      ],
      "name": "vote",
      "outputs": [],
      "payable": false,
      "stateMutability": "nonpayable",
      "type": "function"
    },
    {
      "constant": false,
      "inputs": [
        {
          "name": "_propositionNumber",
          "type": "uint256"
        }
      ],
      "name": "veto",
      "outputs": [],
      "payable": false,
      "stateMutability": "nonpayable",
      "type": "function"
    },
    {
      "constant": false,
      "inputs": [
        {
          "name": "_propositionNumber",
          "type": "uint256"
        }
      ],
      "name": "endPropositionVote",
      "outputs": [
        {
          "name": "hasBeenAccepted",
          "type": "bool"
        }
      ],
      "payable": false,
      "stateMutability": "nonpayable",
      "type": "function"
    },
    {
      "constant": false,
      "inputs": [
        {
          "name": "_propositionNumber",
          "type": "uint256"
        },
        {
          "name": "_promulgate",
          "type": "bool"
        }
      ],
      "name": "promulgateProposition",
      "outputs": [],
      "payable": false,
      "stateMutability": "nonpayable",
      "type": "function"
    },
    {
      "constant": true,
      "inputs": [
        {
          "name": "_propositionNumber",
          "type": "uint256"
        }
      ],
      "name": "getPropositionDetails",
      "outputs": [
        {
          "name": "_addressToAdd",
          "type": "address"
        },
        {
          "name": "_addressToRemove",
          "type": "address"
        },
        {
          "name": "_ipfsHash",
          "type": "bytes32"
        },
        {
          "name": "_hash_function",
          "type": "uint8"
        },
        {
          "name": "_size",
          "type": "uint8"
        }
      ],
      "payable": false,
      "stateMutability": "view",
      "type": "function"
    },
    {
      "constant": true,
      "inputs": [
        {
          "name": "_propositionNumber",
          "type": "uint256"
        }
      ],
      "name": "getPropositionDates",
      "outputs": [
        {
          "name": "_startDate",
          "type": "uint256"
        },
        {
          "name": "_votingPeriodEndDate",
          "type": "uint256"
        },
        {
          "name": "_promulgatorWindowEndDate",
          "type": "uint256"
        }
      ],
      "payable": false,
      "stateMutability": "view",
      "type": "function"
    },
    {
      "constant": true,
      "inputs": [
        {
          "name": "_propositionNumber",
          "type": "uint256"
        }
      ],
      "name": "getPropositionStatus",
      "outputs": [
        {
          "name": "_wasCounted",
          "type": "bool"
        },
        {
          "name": "_wasEnded",
          "type": "bool"
        }
      ],
      "payable": false,
      "stateMutability": "view",
      "type": "function"
    },
    {
      "constant": true,
      "inputs": [
        {
          "name": "_propositionNumber",
          "type": "uint256"
        }
      ],
      "name": "getVotedPropositionResults",
      "outputs": [
        {
          "name": "_wasVetoed",
          "type": "bool"
        },
        {
          "name": "_wasAccepted",
          "type": "bool"
        }
      ],
      "payable": false,
      "stateMutability": "view",
      "type": "function"
    },
    {
      "constant": true,
      "inputs": [
        {
          "name": "_propositionNumber",
          "type": "uint256"
        }
      ],
      "name": "getVotedPropositionStats",
      "outputs": [
        {
          "name": "_totalVoters",
          "type": "uint256"
        },
        {
          "name": "_totalVoteCount",
          "type": "uint256"
        },
        {
          "name": "_voteFor",
          "type": "uint256"
        }
      ],
      "payable": false,
      "stateMutability": "view",
      "type": "function"
    },
    {
      "constant": true,
      "inputs": [
        {
          "name": "_userAddress",
          "type": "address"
        }
      ],
      "name": "getPropositionsCreatedByUser",
      "outputs": [
        {
          "name": "",
          "type": "uint256[]"
        }
      ],
      "payable": false,
      "stateMutability": "view",
      "type": "function"
    },
    {
      "constant": true,
      "inputs": [
        {
          "name": "_userAddress",
          "type": "address"
        }
      ],
      "name": "getPropositionsVetoedByUser",
      "outputs": [
        {
          "name": "",
          "type": "uint256[]"
        }
      ],
      "payable": false,
      "stateMutability": "view",
      "type": "function"
    },
    {
      "constant": true,
      "inputs": [
        {
          "name": "_userAddress",
          "type": "address"
        }
      ],
      "name": "getPropositionsPromulgatedByUser",
      "outputs": [
        {
          "name": "",
          "type": "uint256[]"
        }
      ],
      "payable": false,
      "stateMutability": "view",
      "type": "function"
    },
    {
      "constant": true,
      "inputs": [
        {
          "name": "_userAddress",
          "type": "address"
        }
      ],
      "name": "getPropositionsUsedByUser",
      "outputs": [
        {
          "name": "",
          "type": "uint256[]"
        }
      ],
      "payable": false,
      "stateMutability": "view",
      "type": "function"
    },
    {
      "constant": true,
      "inputs": [
        {
          "name": "propositionNumber",
          "type": "uint256"
        }
      ],
      "name": "haveIVoted",
      "outputs": [
        {
          "name": "IHaveVoted",
          "type": "bool"
        }
      ],
      "payable": false,
      "stateMutability": "view",
      "type": "function"
    },
    {
      "constant": true,
      "inputs": [],
      "name": "getLinkedOrgans",
      "outputs": [
        {
          "name": "_linkedOrgans",
          "type": "address[]"
        }
      ],
      "payable": false,
      "stateMutability": "view",
      "type": "function"
    }
  ],
  "bytecode": "0x60606040526000600460006101000a81548160ff0219169083151502179055506001600460016101000a81548160ff02191690831515021790555060058055341561004957600080fd5b613610806100586000396000f3006060604052600436106101cd576000357c0100000000000000000000000000000000000000000000000000000000900463ffffffff1680630366af3d146101d257806305cf00571461021857806307e7a224146102a65780630b2e34b0146103345780631d28dec71461038a5780632647d7f9146103ad5780633068ef4d146103d657806337443feb146103ff5780633c0848ee146104be5780635332eea11461054c5780635dbe4d28146105a257806364cdd61e146105cb5780636a0ce3aa146106205780636a95d38d146106f457806375ff60c41461073a578063880d3f54146107905780638f3b07a4146107e55780639b88fba71461080e578063a8bef97a14610837578063ac37af1c14610864578063aff7cfc71461089f578063b5fdb88e146108e4578063c9d27afe1461090d578063cb20a2fd1461093b578063cd43eb1f146109c9578063cd87c2b614610a04578063ce784b7714610a2d578063ce88840314610a82578063d64ff06314610ac7578063d858849414610af5578063e09ecb8714610b4b578063e36f6e4e14610b86578063e570050114610bc1578063e80b30a514610c2b578063eb9141e914610c58578063f2edc61614610c81578063fe7800e114610ce4575b600080fd5b34156101dd57600080fd5b6101f36004808035906020019091905050610d39565b6040518083151515158152602001821515151581526020019250505060405180910390f35b341561022357600080fd5b61024f600480803573ffffffffffffffffffffffffffffffffffffffff16906020019091905050610da1565b6040518080602001828103825283818151815260200191508051906020019060200280838360005b83811015610292578082015181840152602081019050610277565b505050509050019250505060405180910390f35b34156102b157600080fd5b6102dd600480803573ffffffffffffffffffffffffffffffffffffffff16906020019091905050610e3e565b6040518080602001828103825283818151815260200191508051906020019060200280838360005b83811015610320578082015181840152602081019050610305565b505050509050019250505060405180910390f35b341561033f57600080fd5b610374600480803573ffffffffffffffffffffffffffffffffffffffff16906020019091908035906020019091905050610edb565b6040518082815260200191505060405180910390f35b341561039557600080fd5b6103ab6004808035906020019091905050610f0c565b005b34156103b857600080fd5b6103c0611176565b6040518082815260200191505060405180910390f35b34156103e157600080fd5b6103e961117c565b6040518082815260200191505060405180910390f35b341561040a57600080fd5b6104206004808035906020019091905050611182565b604051808673ffffffffffffffffffffffffffffffffffffffff1673ffffffffffffffffffffffffffffffffffffffff1681526020018573ffffffffffffffffffffffffffffffffffffffff1673ffffffffffffffffffffffffffffffffffffffff16815260200184600019166000191681526020018360ff1660ff1681526020018260ff1660ff1681526020019550505050505060405180910390f35b34156104c957600080fd5b6104f5600480803573ffffffffffffffffffffffffffffffffffffffff1690602001909190505061129c565b6040518080602001828103825283818151815260200191508051906020019060200280838360005b8381101561053857808201518184015260208101905061051d565b505050509050019250505060405180910390f35b341561055757600080fd5b61058c600480803573ffffffffffffffffffffffffffffffffffffffff16906020019091908035906020019091905050611339565b6040518082815260200191505060405180910390f35b34156105ad57600080fd5b6105b561136a565b6040518082815260200191505060405180910390f35b34156105d657600080fd5b6105de611370565b604051808273ffffffffffffffffffffffffffffffffffffffff1673ffffffffffffffffffffffffffffffffffffffff16815260200191505060405180910390f35b341561062b57600080fd5b6106de600480803573ffffffffffffffffffffffffffffffffffffffff1690602001909190803573ffffffffffffffffffffffffffffffffffffffff169060200190919080356000191690602001909190803560ff1690602001909190803560ff1690602001909190803590602001908201803590602001908080601f01602080910402602001604051908101604052809392919081815260200183838082843782019150505050505091905050611396565b6040518082815260200191505060405180910390f35b34156106ff57600080fd5b61071560048080359060200190919050506119ab565b6040518083151515158152602001821515151581526020019250505060405180910390f35b341561074557600080fd5b61077a600480803573ffffffffffffffffffffffffffffffffffffffff16906020019091908035906020019091905050611a4c565b6040518082815260200191505060405180910390f35b341561079b57600080fd5b6107a3611a7d565b604051808273ffffffffffffffffffffffffffffffffffffffff1673ffffffffffffffffffffffffffffffffffffffff16815260200191505060405180910390f35b34156107f057600080fd5b6107f8611aa3565b6040518082815260200191505060405180910390f35b341561081957600080fd5b610821611aa9565b6040518082815260200191505060405180910390f35b341561084257600080fd5b61084a611aaf565b604051808215151515815260200191505060405180910390f35b341561086f57600080fd5b6108856004808035906020019091905050611ac2565b604051808215151515815260200191505060405180910390f35b34156108aa57600080fd5b6108c06004808035906020019091905050611b36565b60405180848152602001838152602001828152602001935050505060405180910390f35b34156108ef57600080fd5b6108f7611be4565b6040518082815260200191505060405180910390f35b341561091857600080fd5b61093960048080359060200190919080351515906020019091905050611bea565b005b341561094657600080fd5b610972600480803573ffffffffffffffffffffffffffffffffffffffff16906020019091905050611f75565b6040518080602001828103825283818151815260200191508051906020019060200280838360005b838110156109b557808201518184015260208101905061099a565b505050509050019250505060405180910390f35b34156109d457600080fd5b6109ea6004808035906020019091905050612012565b604051808215151515815260200191505060405180910390f35b3415610a0f57600080fd5b610a17612045565b6040518082815260200191505060405180910390f35b3415610a3857600080fd5b610a4061204b565b604051808273ffffffffffffffffffffffffffffffffffffffff1673ffffffffffffffffffffffffffffffffffffffff16815260200191505060405180910390f35b3415610a8d57600080fd5b610aa36004808035906020019091905050612071565b60405180848152602001838152602001828152602001935050505060405180910390f35b3415610ad257600080fd5b610af3600480803590602001909190803515159060200190919050506120ea565b005b3415610b0057600080fd5b610b35600480803573ffffffffffffffffffffffffffffffffffffffff16906020019091908035906020019091905050612d28565b6040518082815260200191505060405180910390f35b3415610b5657600080fd5b610b6c6004808035906020019091905050612d59565b604051808215151515815260200191505060405180910390f35b3415610b9157600080fd5b610ba7600480803590602001909190505061310e565b604051808215151515815260200191505060405180910390f35b3415610bcc57600080fd5b610bd4613141565b6040518080602001828103825283818151815260200191508051906020019060200280838360005b83811015610c17578082015181840152602081019050610bfc565b505050509050019250505060405180910390f35b3415610c3657600080fd5b610c3e6131d5565b604051808215151515815260200191505060405180910390f35b3415610c6357600080fd5b610c6b6131e8565b6040518082815260200191505060405180910390f35b3415610c8c57600080fd5b610ca260048080359060200190919050506131ee565b604051808273ffffffffffffffffffffffffffffffffffffffff1673ffffffffffffffffffffffffffffffffffffffff16815260200191505060405180910390f35b3415610cef57600080fd5b610cf761322d565b604051808273ffffffffffffffffffffffffffffffffffffffff1673ffffffffffffffffffffffffffffffffffffffff16815260200191505060405180910390f35b600080601183815481101515610d4b57fe5b90600052602060002090600b020160080160019054906101000a900460ff16601184815481101515610d7957fe5b90600052602060002090600b020160080160039054906101000a900460ff1691509150915091565b610da9613253565b601560008373ffffffffffffffffffffffffffffffffffffffff1673ffffffffffffffffffffffffffffffffffffffff168152602001908152602001600020805480602002602001604051908101604052809291908181526020018280548015610e3257602002820191906000526020600020905b815481526020019060010190808311610e1e575b50505050509050919050565b610e46613253565b601760008373ffffffffffffffffffffffffffffffffffffffff1673ffffffffffffffffffffffffffffffffffffffff168152602001908152602001600020805480602002602001604051908101604052809291908181526020018280548015610ecf57602002820191906000526020600020905b815481526020019060010190808311610ebb575b50505050509050919050565b601460205281600052604060002081815481101515610ef657fe5b9060005260206000209001600091509150505481565b6000600860009054906101000a900473ffffffffffffffffffffffffffffffffffffffff1690508073ffffffffffffffffffffffffffffffffffffffff1663d323a4f8336000604051602001526040518263ffffffff167c0100000000000000000000000000000000000000000000000000000000028152600401808273ffffffffffffffffffffffffffffffffffffffff1673ffffffffffffffffffffffffffffffffffffffff168152602001915050602060405180830381600087803b1515610fd657600080fd5b6102c65a03f11515610fe757600080fd5b505050604051805190501515610ffc57600080fd5b6000905060118281548110151561100f57fe5b90600052602060002090600b020160080160019054906101000a900460ff1615151561103a57600080fd5b4260118381548110151561104a57fe5b90600052602060002090600b02016007015411151561106857600080fd5b600160118381548110151561107957fe5b90600052602060002090600b020160080160006101000a81548160ff021916908315150217905550601660003373ffffffffffffffffffffffffffffffffffffffff1673ffffffffffffffffffffffffffffffffffffffff16815260200190815260200160002080548060010182816110f29190613267565b9160005260206000209001600084909190915055507f62901d9c2f788a5c877cf5a2659a041eedf9a980c6dd3ed22a4878bcc228619b3383604051808373ffffffffffffffffffffffffffffffffffffffff1673ffffffffffffffffffffffffffffffffffffffff1681526020018281526020019250505060405180910390a15050565b60055481565b600d5481565b600080600080600060118681548110151561119957fe5b90600052602060002090600b020160000160009054906101000a900473ffffffffffffffffffffffffffffffffffffffff166011878154811015156111da57fe5b90600052602060002090600b020160010160009054906101000a900473ffffffffffffffffffffffffffffffffffffffff1660118881548110151561121b57fe5b90600052602060002090600b02016002015460118981548110151561123c57fe5b90600052602060002090600b020160030160009054906101000a900460ff1660118a81548110151561126a57fe5b90600052602060002090600b020160030160019054906101000a900460ff169450945094509450945091939590929450565b6112a4613253565b601660008373ffffffffffffffffffffffffffffffffffffffff1673ffffffffffffffffffffffffffffffffffffffff16815260200190815260200160002080548060200260200160405190810160405280929190818152602001828054801561132d57602002820191906000526020600020905b815481526020019060010190808311611319575b50505050509050919050565b60176020528160005260406000208181548110151561135457fe5b9060005260206000209001600091509150505481565b60005481565b600860009054906101000a900473ffffffffffffffffffffffffffffffffffffffff1681565b6000806113a1613293565b600760009054906101000a900473ffffffffffffffffffffffffffffffffffffffff1691508173ffffffffffffffffffffffffffffffffffffffff1663d323a4f8336000604051602001526040518263ffffffff167c0100000000000000000000000000000000000000000000000000000000028152600401808273ffffffffffffffffffffffffffffffffffffffff1673ffffffffffffffffffffffffffffffffffffffff168152602001915050602060405180830381600087803b151561146957600080fd5b6102c65a03f1151561147a57600080fd5b50505060405180519050151561148f57600080fd5b6000915088816000019073ffffffffffffffffffffffffffffffffffffffff16908173ffffffffffffffffffffffffffffffffffffffff168152505087816020019073ffffffffffffffffffffffffffffffffffffffff16908173ffffffffffffffffffffffffffffffffffffffff1681525050868160400190600019169081600019168152505085816060019060ff16908160ff168152505084816080019060ff16908160ff1681525050838160a00181905250428160c0018181525050600b5442018160e00181815250506000816101000190151590811515815250506000816101600190151590811515815250506000816101200190151590811515815250506000816101400190151590811515815250506000816101a0018181525050600081610180018181525050601180548060010182816115d09190613346565b91600052602060002090600b0201600083909190915060008201518160000160006101000a81548173ffffffffffffffffffffffffffffffffffffffff021916908373ffffffffffffffffffffffffffffffffffffffff16021790555060208201518160010160006101000a81548173ffffffffffffffffffffffffffffffffffffffff021916908373ffffffffffffffffffffffffffffffffffffffff1602179055506040820151816002019060001916905560608201518160030160006101000a81548160ff021916908360ff16021790555060808201518160030160016101000a81548160ff021916908360ff16021790555060a08201518160040190805190602001906116e2929190613378565b5060c0820151816006015560e082015181600701556101008201518160080160006101000a81548160ff0219169083151502179055506101208201518160080160016101000a81548160ff0219169083151502179055506101408201518160080160026101000a81548160ff0219169083151502179055506101608201518160080160036101000a81548160ff02191690831515021790555061018082015181600901556101a082015181600a015550505061179c613293565b905060016011805490500392506001600e60008282540192505081905550601460003373ffffffffffffffffffffffffffffffffffffffff1673ffffffffffffffffffffffffffffffffffffffff168152602001908152602001600020805480600101828161180b9190613267565b9160005260206000209001600085909190915055506012805480600101828161183491906133f8565b91600052602060002090602091828204019190066001909190916101000a81548160ff021916908315150217905550506013805480600101828161187891906133f8565b91600052602060002090602091828204019190066000909190916101000a81548160ff021916908315150217905550507fcbae1a68d02d2d9470bb1902dd80b406384bbcba468813051691b7ae8af0baa9338a8a8a8a8a604051808773ffffffffffffffffffffffffffffffffffffffff1673ffffffffffffffffffffffffffffffffffffffff1681526020018673ffffffffffffffffffffffffffffffffffffffff1673ffffffffffffffffffffffffffffffffffffffff1681526020018573ffffffffffffffffffffffffffffffffffffffff1673ffffffffffffffffffffffffffffffffffffffff16815260200184600019166000191681526020018360ff1660ff1681526020018260ff1660ff168152602001965050505050505060405180910390a150509695505050505050565b6000806011838154811015156119bd57fe5b90600052602060002090600b020160080160019054906101000a900460ff1615156119e757600080fd5b6011838154811015156119f657fe5b90600052602060002090600b020160080160009054906101000a900460ff16601184815481101515611a2457fe5b90600052602060002090600b020160080160029054906101000a900460ff1691509150915091565b601560205281600052604060002081815481101515611a6757fe5b9060005260206000209001600091509150505481565b600960009054906101000a900473ffffffffffffffffffffffffffffffffffffffff1681565b600e5481565b600f5481565b600460009054906101000a900460ff1681565b6000601182815481101515611ad357fe5b90600052602060002090600b020160050160003373ffffffffffffffffffffffffffffffffffffffff1673ffffffffffffffffffffffffffffffffffffffff16815260200190815260200160002060009054906101000a900460ff169050919050565b6000806000601184815481101515611b4a57fe5b90600052602060002090600b020160080160019054906101000a900460ff161515611b7457600080fd5b601184815481101515611b8357fe5b90600052602060002090600b0201600a0154601185815481101515611ba457fe5b90600052602060002090600b0201600a0154601186815481101515611bc557fe5b90600052602060002090600b0201600901549250925092509193909250565b600b5481565b6000600760009054906101000a900473ffffffffffffffffffffffffffffffffffffffff1690508073ffffffffffffffffffffffffffffffffffffffff1663d323a4f8336000604051602001526040518263ffffffff167c0100000000000000000000000000000000000000000000000000000000028152600401808273ffffffffffffffffffffffffffffffffffffffff1673ffffffffffffffffffffffffffffffffffffffff168152602001915050602060405180830381600087803b1515611cb457600080fd5b6102c65a03f11515611cc557600080fd5b505050604051805190501515611cda57600080fd5b60009050601183815481101515611ced57fe5b90600052602060002090600b020160050160003373ffffffffffffffffffffffffffffffffffffffff1673ffffffffffffffffffffffffffffffffffffffff16815260200190815260200160002060009054906101000a900460ff16151515611d5557600080fd5b601183815481101515611d6457fe5b90600052602060002090600b020160080160019054906101000a900460ff16151515611d8f57600080fd5b42601184815481101515611d9f57fe5b90600052602060002090600b020160070154111515611dbd57600080fd5b600115158215151415611dfa576001601184815481101515611ddb57fe5b90600052602060002090600b0201600901600082825401925050819055505b6001601184815481101515611e0b57fe5b90600052602060002090600b020160050160003373ffffffffffffffffffffffffffffffffffffffff1673ffffffffffffffffffffffffffffffffffffffff16815260200190815260200160002060006101000a81548160ff0219169083151502179055506001601184815481101515611e8157fe5b90600052602060002090600b0201600a0160008282540192505081905550601560003373ffffffffffffffffffffffffffffffffffffffff1673ffffffffffffffffffffffffffffffffffffffff1681526020019081526020016000208054806001018281611ef09190613267565b9160005260206000209001600085909190915055507fd1faddd599b0d6b58c83de71d7ff5395895b5891894dcd37f2482f33b2a1c43d3384604051808373ffffffffffffffffffffffffffffffffffffffff1673ffffffffffffffffffffffffffffffffffffffff1681526020018281526020019250505060405180910390a1505050565b611f7d613253565b601460008373ffffffffffffffffffffffffffffffffffffffff1673ffffffffffffffffffffffffffffffffffffffff16815260200190815260200160002080548060200260200160405190810160405280929190818152602001828054801561200657602002820191906000526020600020905b815481526020019060010190808311611ff2575b50505050509050919050565b60138181548110151561202157fe5b9060005260206000209060209182820401919006915054906101000a900460ff1681565b600c5481565b600760009054906101000a900473ffffffffffffffffffffffffffffffffffffffff1681565b600080600060118481548110151561208557fe5b90600052602060002090600b0201600601546011858154811015156120a657fe5b90600052602060002090600b020160070154600c546011878154811015156120ca57fe5b90600052602060002090600b020160070154019250925092509193909250565b6000806011848154811015156120fc57fe5b90600052602060002090600b020160080160039054906101000a900460ff1615151561212757600080fd5b60118481548110151561213657fe5b90600052602060002090600b020160080160019054906101000a900460ff16151561216057600080fd5b600c5460118581548110151561217257fe5b90600052602060002090600b0201600701540142101561228357600960009054906101000a900473ffffffffffffffffffffffffffffffffffffffff1691508173ffffffffffffffffffffffffffffffffffffffff1663d323a4f8336000604051602001526040518263ffffffff167c0100000000000000000000000000000000000000000000000000000000028152600401808273ffffffffffffffffffffffffffffffffffffffff1673ffffffffffffffffffffffffffffffffffffffff168152602001915050602060405180830381600087803b151561225457600080fd5b6102c65a03f1151561226557600080fd5b50505060405180519050151561227a57600080fd5b60009150612290565b82151561228f57600080fd5b5b60118481548110151561229f57fe5b90600052602060002090600b020160080160029054906101000a900460ff1615156122c957600080fd5b82158061238e575060006011858154811015156122e257fe5b90600052602060002090600b020160000160009054906101000a900473ffffffffffffffffffffffffffffffffffffffff1673ffffffffffffffffffffffffffffffffffffffff1614801561238d5750600060118581548110151561234357fe5b90600052602060002090600b020160010160009054906101000a900473ffffffffffffffffffffffffffffffffffffffff1673ffffffffffffffffffffffffffffffffffffffff16145b5b156123d15760016011858154811015156123a457fe5b90600052602060002090600b020160080160036101000a81548160ff021916908315150217905550612bd2565b600660009054906101000a900473ffffffffffffffffffffffffffffffffffffffff169050600060118581548110151561240757fe5b90600052602060002090600b020160000160009054906101000a900473ffffffffffffffffffffffffffffffffffffffff1673ffffffffffffffffffffffffffffffffffffffff16141515612a5157600060118581548110151561246757fe5b90600052602060002090600b020160010160009054906101000a900473ffffffffffffffffffffffffffffffffffffffff1673ffffffffffffffffffffffffffffffffffffffff161415156127fd578073ffffffffffffffffffffffffffffffffffffffff1663cd26b87b8273ffffffffffffffffffffffffffffffffffffffff16635549ea516011888154811015156124fd57fe5b90600052602060002090600b020160010160009054906101000a900473ffffffffffffffffffffffffffffffffffffffff166000604051602001526040518263ffffffff167c0100000000000000000000000000000000000000000000000000000000028152600401808273ffffffffffffffffffffffffffffffffffffffff1673ffffffffffffffffffffffffffffffffffffffff168152602001915050602060405180830381600087803b15156125b557600080fd5b6102c65a03f115156125c657600080fd5b505050604051805190506011878154811015156125df57fe5b90600052602060002090600b020160000160009054906101000a900473ffffffffffffffffffffffffffffffffffffffff1660118881548110151561262057fe5b90600052602060002090600b020160040160118981548110151561264057fe5b90600052602060002090600b02016002015460118a81548110151561266157fe5b90600052602060002090600b020160030160009054906101000a900460ff1660118b81548110151561268f57fe5b90600052602060002090600b020160030160019054906101000a900460ff166040518763ffffffff167c0100000000000000000000000000000000000000000000000000000000028152600401808781526020018673ffffffffffffffffffffffffffffffffffffffff1673ffffffffffffffffffffffffffffffffffffffff1681526020018060200185600019166000191681526020018460ff1660ff1681526020018360ff1660ff1681526020018281038252868181546001816001161561010002031660029004815260200191508054600181600116156101000203166002900480156127c05780601f10612795576101008083540402835291602001916127c0565b820191906000526020600020905b8154815290600101906020018083116127a357829003601f168201915b5050975050505050505050600060405180830381600087803b15156127e457600080fd5b6102c65a03f115156127f557600080fd5b505050612a4c565b8073ffffffffffffffffffffffffffffffffffffffff1663696c521960118681548110151561282857fe5b90600052602060002090600b020160000160009054906101000a900473ffffffffffffffffffffffffffffffffffffffff1660118781548110151561286957fe5b90600052602060002090600b020160040160118881548110151561288957fe5b90600052602060002090600b0201600201546011898154811015156128aa57fe5b90600052602060002090600b020160030160009054906101000a900460ff1660118a8154811015156128d857fe5b90600052602060002090600b020160030160019054906101000a900460ff166000604051602001526040518663ffffffff167c0100000000000000000000000000000000000000000000000000000000028152600401808673ffffffffffffffffffffffffffffffffffffffff1673ffffffffffffffffffffffffffffffffffffffff1681526020018060200185600019166000191681526020018460ff1660ff1681526020018360ff1660ff168152602001828103825286818154600181600116156101000203166002900481526020019150805460018160011615610100020316600290048015612a0c5780601f106129e157610100808354040283529160200191612a0c565b820191906000526020600020905b8154815290600101906020018083116129ef57829003601f168201915b50509650505050505050602060405180830381600087803b1515612a2f57600080fd5b6102c65a03f11515612a4057600080fd5b50505060405180519050505b612bd1565b8073ffffffffffffffffffffffffffffffffffffffff16630e9defff8273ffffffffffffffffffffffffffffffffffffffff16635549ea51601188815481101515612a9857fe5b90600052602060002090600b020160010160009054906101000a900473ffffffffffffffffffffffffffffffffffffffff166000604051602001526040518263ffffffff167c0100000000000000000000000000000000000000000000000000000000028152600401808273ffffffffffffffffffffffffffffffffffffffff1673ffffffffffffffffffffffffffffffffffffffff168152602001915050602060405180830381600087803b1515612b5057600080fd5b6102c65a03f11515612b6157600080fd5b505050604051805190506040518263ffffffff167c010000000000000000000000000000000000000000000000000000000002815260040180828152602001915050600060405180830381600087803b1515612bbc57600080fd5b6102c65a03f11515612bcd57600080fd5b5050505b5b6001601185815481101515612be357fe5b90600052602060002090600b020160080160036101000a81548160ff0219169083151502179055506000601385815481101515612c1c57fe5b90600052602060002090602091828204019190066101000a81548160ff021916908315150217905550601760003373ffffffffffffffffffffffffffffffffffffffff1673ffffffffffffffffffffffffffffffffffffffff1681526020019081526020016000208054806001018281612c969190613267565b9160005260206000209001600086909190915055507fed7c73834db4ae22add7f637175d8a32a1dddae4c154ccd25195b77df4c8d18d338585604051808473ffffffffffffffffffffffffffffffffffffffff1673ffffffffffffffffffffffffffffffffffffffff16815260200183815260200182151515158152602001935050505060405180910390a150505050565b601660205281600052604060002081815481101515612d4357fe5b9060005260206000209001600091509150505481565b600080601183815481101515612d6b57fe5b90600052602060002090600b020160080160019054906101000a900460ff16151515612d9657600080fd5b42601184815481101515612da657fe5b90600052602060002090600b020160070154101515612dc457600080fd5b600760009054906101000a900473ffffffffffffffffffffffffffffffffffffffff169050601183815481101515612df857fe5b90600052602060002090600b020160080160009054906101000a900460ff1615612e5e57600091506001601184815481101515612e3157fe5b90600052602060002090600b020160080160036101000a81548160ff021916908315150217905550612fb8565b8073ffffffffffffffffffffffffffffffffffffffff1663234d34de6000604051602001526040518163ffffffff167c0100000000000000000000000000000000000000000000000000000000028152600401602060405180830381600087803b1515612eca57600080fd5b6102c65a03f11515612edb57600080fd5b50505060405180519050600d54026064601185815481101515612efa57fe5b90600052602060002090600b0201600a01540210158015612f6b5750601183815481101515612f2557fe5b90600052602060002090600b0201600a0154600f54601054601186815481101515612f4c57fe5b90600052602060002090600b02016009015402811515612f6857fe5b04115b15612f795760019150612fb7565b600091506001601184815481101515612f8e57fe5b90600052602060002090600b020160080160036101000a81548160ff0219169083151502179055505b5b6001601184815481101515612fc957fe5b90600052602060002090600b020160080160016101000a81548160ff0219169083151502179055508160118481548110151561300157fe5b90600052602060002090600b020160080160026101000a81548160ff021916908315150217905550600060128481548110151561303a57fe5b90600052602060002090602091828204019190066101000a81548160ff021916908315150217905550600160138481548110151561307457fe5b90600052602060002090602091828204019190066101000a81548160ff0219169083151502179055507f297f1f08d2ef8c90272f7ee3e1d4272015a96cdff8a252b60547b9e432e723603384604051808373ffffffffffffffffffffffffffffffffffffffff1673ffffffffffffffffffffffffffffffffffffffff1681526020018281526020019250505060405180910390a150919050565b60128181548110151561311d57fe5b9060005260206000209060209182820401919006915054906101000a900460ff1681565b613149613432565b600a8054806020026020016040519081016040528092919081815260200182805480156131cb57602002820191906000526020600020905b8160009054906101000a900473ffffffffffffffffffffffffffffffffffffffff1673ffffffffffffffffffffffffffffffffffffffff1681526020019060010190808311613181575b5050505050905090565b600460019054906101000a900460ff1681565b60105481565b600a818154811015156131fd57fe5b90600052602060002090016000915054906101000a900473ffffffffffffffffffffffffffffffffffffffff1681565b600660009054906101000a900473ffffffffffffffffffffffffffffffffffffffff1681565b602060405190810160405280600081525090565b81548183558181151161328e5781836000526020600020918201910161328d9190613446565b5b505050565b6101c060405190810160405280600073ffffffffffffffffffffffffffffffffffffffff168152602001600073ffffffffffffffffffffffffffffffffffffffff16815260200160008019168152602001600060ff168152602001600060ff16815260200161330061346b565b8152602001600081526020016000815260200160001515815260200160001515815260200160001515815260200160001515815260200160008152602001600081525090565b81548183558181151161337357600b0281600b028360005260206000209182019101613372919061347f565b5b505050565b828054600181600116156101000203166002900490600052602060002090601f016020900481019282601f106133b957805160ff19168380011785556133e7565b828001600101855582156133e7579182015b828111156133e65782518255916020019190600101906133cb565b5b5090506133f49190613446565b5090565b81548183558181151161342d57601f016020900481601f0160209004836000526020600020918201910161342c9190613446565b5b505050565b602060405190810160405280600081525090565b61346891905b8082111561346457600081600090555060010161344c565b5090565b90565b602060405190810160405280600081525090565b61359991905b8082111561359557600080820160006101000a81549073ffffffffffffffffffffffffffffffffffffffff02191690556001820160006101000a81549073ffffffffffffffffffffffffffffffffffffffff021916905560028201600090556003820160006101000a81549060ff02191690556003820160016101000a81549060ff021916905560048201600061351c919061359c565b600682016000905560078201600090556008820160006101000a81549060ff02191690556008820160016101000a81549060ff02191690556008820160026101000a81549060ff02191690556008820160036101000a81549060ff02191690556009820160009055600a82016000905550600b01613485565b5090565b90565b50805460018160011615610100020316600290046000825580601f106135c257506135e1565b601f0160209004906000526020600020908101906135e09190613446565b5b505600a165627a7a7230582031c1b393d380da50e493ce50826395fa924a915cc9cf53a9986be0f2be692da10029",
  "source": "pragma solidity ^0.4.11;\n\n// Standard contract for promulgation of a norm\n\nimport \"../standardProcedure.sol\";\nimport \"../standardOrgan.sol\";\n\n\ncontract voteOnNormsProcedure is Procedure{\n    // 1: Cyclical many to one election (Presidential Election)\n    // 2: Cyclical many to many election (Moderators Election)\n    // 3: Simple norm nomination \n    // 4: Simple admins and master nomination\n    // 5: Vote on Norms \n    // 6: Vote on masters and admins \n    // 7: Cooptation\n    int public procedureTypeNumber = 5;\n\n    // Which organ will be affected\n    address public affectedOrganContract;\n\n    // Organ in which the voters are registered\n    address public votersOrganContract;\n\n    // Organ in which the voters with veto power are registered\n    address public membersWithVetoOrganContract;\n\n    // Organ in which final promulgators are listed\n    address public finalPromulgatorsOrganContract;\n\n    // Gathering connected organs for easier DAO mapping\n    address[] public linkedOrgans;\n\n    // ############## Variable to set up when declaring the procedure\n    // ####### Vote creation process\n\n    // ####### Voting process\n    // Time for participant to vote\n    uint public votingPeriodDuration;\n\n    // Time for president to promulgat\n    uint public promulgationPeriodDuration;\n\n    // ####### Resolution process\n    // Minimum participation to validate election\n    uint public quorumSize;\n\n    // Variable of the procedure to keep track of propositions\n    uint public totalPropositionNumber;\n\n    // Variables to measure vote threshold. If majority threshold is 3/5, then requiredMajorityNumerator= 3 and requiredMajorityDenominator = 5\n    uint public requiredMajorityNumerator;\n    uint public requiredMajorityDenominator;\n\n    // Proposition structure\n    struct Proposition {\n\n        // Proposition details\n        address contractToAdd;\n        address contractToRemove;\n        bytes32 ipfsHash; // ID of proposal on IPFS\n        uint8 hash_function;\n        uint8 size;\n        string name;\n\n        // **** Voting variables\n        // Mapping to track user votes\n        mapping(address => bool) hasUserVoted;\n        uint startDate;\n        uint votingPeriodEndDate;\n        bool wasVetoed;\n        bool wasCounted;\n        bool wasAccepted;\n        bool wasEnded;\n        uint voteFor;\n        // uint voteAgainst;\n        uint totalVoteCount;\n    }\n\n\n\n    // A dynamically-sized array of `Proposition` structs.\n    Proposition[] propositions;\n\n    // Dynamic size array of status of propositions\n    bool[] public propositionsWaitingEndOfVote;\n    bool[] public propositionsWaitingPromulgation;\n\n    // Mapping each proposition to the user creating it\n    mapping (address => uint[]) public propositionToUser;    \n\n    // Mapping each proposition to the user who participated\n    mapping (address => uint[]) public propositionToVoter;\n\n    // Mapping each proposition to the user vetoing it\n    mapping (address => uint[]) public propositionToVetoer;\n\n    // Mapping each proposition to the user promulgating it\n    mapping (address => uint[]) public propositionToPromulgator;\n\n    \n\n    // Events\n    event createPropositionEvent(address _from, address _contractToAdd, address _contractToRemove, bytes32 _ipfsHash, uint8 _hash_function, uint8 _size);\n    event voteOnProposition(address _from, uint _propositionNumber);\n    event vetoProposition(address _from, uint _propositionNumber);\n    event countVotes(address _from, uint _propositionNumber);\n    event promulgatePropositionEvent(address _from, uint _propositionNumber, bool _promulgate);\n\n    /// Create a new ballot to choose one of `proposalNames`.\n    function createProposition(address _contractToAdd, address _contractToRemove, bytes32 _ipfsHash, uint8 _hash_function, uint8 _size, string _name) public returns (uint propositionNumber){\n\n            // Check the proposition creator is able to make a proposition\n            Organ voterRegistryOrgan = Organ(votersOrganContract);\n            require(voterRegistryOrgan.isNorm(msg.sender));\n            delete voterRegistryOrgan;\n\n            // Retrieving proposition details\n            Proposition memory newProposition;\n            newProposition.contractToAdd = _contractToAdd;\n            newProposition.contractToRemove = _contractToRemove;\n            newProposition.ipfsHash = _ipfsHash;\n            newProposition.hash_function = _hash_function;\n            newProposition.size = _size;\n            newProposition.name = _name;\n\n            // Instanciating proposition\n\n            newProposition.startDate = now;\n            newProposition.votingPeriodEndDate = now + votingPeriodDuration;            \n            newProposition.wasVetoed = false;\n            newProposition.wasEnded = false;\n            newProposition.wasCounted = false;\n            newProposition.wasAccepted = false;\n            newProposition.totalVoteCount = 0;\n            newProposition.voteFor = 0;\n            // newProposition.voteAgainst = 0;\n            propositions.push(newProposition);\n            delete newProposition;\n\n            propositionNumber = propositions.length - 1;\n\n            // Tracking proposition being deposed\n            totalPropositionNumber += 1;\n            propositionToUser[msg.sender].push(propositionNumber);\n            propositionsWaitingEndOfVote.push(true);\n            propositionsWaitingPromulgation.push(false);\n\n            // proposition creation event\n            createPropositionEvent(msg.sender, _contractToAdd, _contractToRemove, _ipfsHash, _hash_function, _size);\n\n    }\n\n    /// Vote for a proposition\n    function vote(uint _propositionNumber, bool _acceptProposition) public {\n        // Check the voter is able to vote on a proposition\n        Organ voterRegistryOrgan = Organ(votersOrganContract);\n        require(voterRegistryOrgan.isNorm(msg.sender));\n        delete voterRegistryOrgan;\n        \n        // Check if voter already voted\n        require(!propositions[_propositionNumber].hasUserVoted[msg.sender]);\n\n        // Check if vote is still active\n        require(!propositions[_propositionNumber].wasCounted);\n\n        // Check if voting period ended\n        require(propositions[_propositionNumber].votingPeriodEndDate > now);\n\n        // Adding vote\n        if(_acceptProposition == true)\n        {propositions[_propositionNumber].voteFor += 1;}\n\n        // Loggin that user voted\n        propositions[_propositionNumber].hasUserVoted[msg.sender] = true;\n        \n        // Adding vote count\n        propositions[_propositionNumber].totalVoteCount += 1;\n\n        // Logging that user voted\n        propositionToVoter[msg.sender].push(_propositionNumber);\n\n        // create vote event\n        voteOnProposition(msg.sender, _propositionNumber);\n    }\n\n        /// Vote for a candidate\n    function veto(uint _propositionNumber) public {\n\n        // Check the voter is able to veto the proposition\n        Organ membersWithVetoOrgan = Organ(membersWithVetoOrganContract);\n        require(membersWithVetoOrgan.isNorm(msg.sender));\n        delete membersWithVetoOrgan;\n        \n        // Check if vote is still active\n        require(!propositions[_propositionNumber].wasCounted);\n\n        // Check if voting period ended\n        require(propositions[_propositionNumber].votingPeriodEndDate > now);\n\n        // Log that proposition was vetoed\n        propositions[_propositionNumber].wasVetoed = true;\n\n        // Log that user vetoed this proposition\n        propositionToVetoer[msg.sender].push(_propositionNumber);\n\n        //  Create veto event\n        vetoProposition(msg.sender, _propositionNumber);\n\n    }\n\n    // The vote is finished and we close it. This triggers the outcome of the vote.\n\n    function endPropositionVote(uint _propositionNumber) public returns (bool hasBeenAccepted) {\n        // We check if the vote was already counted\n        require(!propositions[_propositionNumber].wasCounted);\n\n        // Checking that the vote can be closed\n        require(propositions[_propositionNumber].votingPeriodEndDate < now);\n\n        Organ voterRegistryOrgan = Organ(votersOrganContract);\n\n        // We check that Quorum was obtained and that a majority of votes were cast in favor of the proposition\n        if (propositions[_propositionNumber].wasVetoed )\n            {hasBeenAccepted=false;\n                propositions[_propositionNumber].wasEnded = true;}\n        else if\n            ((propositions[_propositionNumber].totalVoteCount*100 >= quorumSize*voterRegistryOrgan.getActiveNormNumber()) && (propositions[_propositionNumber].voteFor*requiredMajorityDenominator/requiredMajorityNumerator > propositions[_propositionNumber].totalVoteCount))\n            {hasBeenAccepted = true;}\n        else \n            {hasBeenAccepted=false;\n            propositions[_propositionNumber].wasEnded = true;}\n\n\n        // ############## Updating ballot values if vote concluded\n        propositions[_propositionNumber].wasCounted = true;\n        propositions[_propositionNumber].wasAccepted = hasBeenAccepted;\n        propositionsWaitingEndOfVote[_propositionNumber] = false;\n        propositionsWaitingPromulgation[_propositionNumber] = true;\n\n        countVotes(msg.sender, _propositionNumber);\n    }\n    function promulgateProposition(uint _propositionNumber, bool _promulgate) public\n    {\n        // Checking if ballot was already enforced\n        require(!propositions[_propositionNumber].wasEnded );\n\n        // Checking the ballot was counted\n        require(propositions[_propositionNumber].wasCounted);\n\n        // If promulgation is happening before endOfVote + promulgationPeriodDuration, check caller is an official promulgator\n        if (now < propositions[_propositionNumber].votingPeriodEndDate + promulgationPeriodDuration)\n            {        // Check the voter is able to promulgate the proposition\n            Organ promulgatorsOrgan = Organ(finalPromulgatorsOrganContract);\n            require(promulgatorsOrgan.isNorm(msg.sender));\n            delete promulgatorsOrgan;\n            }\n        else { // If Promulgator did not promulgate, the only option is validating\n            require(_promulgate);\n            }\n\n        // Checking the ballot was accepted\n        require(propositions[_propositionNumber].wasAccepted);\n\n        if ((!_promulgate)||((propositions[_propositionNumber].contractToAdd == 0x0000) && (propositions[_propositionNumber].contractToRemove == 0x0000)) )\n        {\n            // The promulgator choses to invalidate the promulgation\n            propositions[_propositionNumber].wasEnded = true;\n        }\n        else\n        {\n            // We initiate the Organ interface to add a norm\n\n        Organ affectedOrgan = Organ(affectedOrganContract);\n\n            if(propositions[_propositionNumber].contractToAdd != 0x0000)\n            {\n                if (propositions[_propositionNumber].contractToRemove != 0x0000)\n                    { \n                        // Replacing a norm\n                        affectedOrgan.replaceNorm(affectedOrgan.getAddressPositionInNorm(propositions[_propositionNumber].contractToRemove) , propositions[_propositionNumber].contractToAdd, propositions[_propositionNumber].name , propositions[_propositionNumber].ipfsHash, propositions[_propositionNumber].hash_function, propositions[_propositionNumber].size);\n                    }\n                else\n                {\n                    // Adding a new norm\n                    affectedOrgan.addNorm(propositions[_propositionNumber].contractToAdd, propositions[_propositionNumber].name , propositions[_propositionNumber].ipfsHash, propositions[_propositionNumber].hash_function, propositions[_propositionNumber].size );\n                }\n            }\n            else \n            {\n                // Removing a contract\n                affectedOrgan.remNorm(affectedOrgan.getAddressPositionInNorm(propositions[_propositionNumber].contractToRemove));\n            }        \n            \n        }\n        propositions[_propositionNumber].wasEnded = true;\n        propositionsWaitingPromulgation[_propositionNumber] = false;\n        propositionToPromulgator[msg.sender].push(_propositionNumber);\n\n\n        // promulgation event\n        promulgatePropositionEvent(msg.sender, _propositionNumber, _promulgate);\n\n    }\n\n        //////////////////////// Functions to communicate with other contracts\n    function getPropositionDetails(uint _propositionNumber) public view returns (address _addressToAdd, address _addressToRemove, bytes32 _ipfsHash, uint8 _hash_function, uint8 _size){\n        return (propositions[_propositionNumber].contractToAdd, propositions[_propositionNumber].contractToRemove, propositions[_propositionNumber].ipfsHash, propositions[_propositionNumber].hash_function, propositions[_propositionNumber].size);\n    }\n    function getPropositionDates(uint _propositionNumber) public view returns (uint _startDate, uint _votingPeriodEndDate, uint _promulgatorWindowEndDate){\n        return (propositions[_propositionNumber].startDate, propositions[_propositionNumber].votingPeriodEndDate, propositions[_propositionNumber].votingPeriodEndDate + promulgationPeriodDuration);\n    }\n    function getPropositionStatus(uint _propositionNumber) public view returns (bool _wasCounted, bool _wasEnded){\n        return (propositions[_propositionNumber].wasCounted, propositions[_propositionNumber].wasEnded);\n    }\n    function getVotedPropositionResults(uint _propositionNumber) public view returns (bool _wasVetoed, bool _wasAccepted){\n        require(propositions[_propositionNumber].wasCounted);\n        return (propositions[_propositionNumber].wasVetoed, propositions[_propositionNumber].wasAccepted);\n    }\n    function getVotedPropositionStats(uint _propositionNumber) public view returns (uint _totalVoters, uint _totalVoteCount, uint _voteFor)\n        {require(propositions[_propositionNumber].wasCounted);\n        return (propositions[_propositionNumber].totalVoteCount, propositions[_propositionNumber].totalVoteCount, propositions[_propositionNumber].voteFor);}\n\n    function getPropositionsCreatedByUser(address _userAddress) public view returns (uint[])\n    {return propositionToUser[_userAddress];}    \n    function getPropositionsVetoedByUser(address _userAddress) public view returns (uint[])\n    {return propositionToVetoer[_userAddress];}  \n    function getPropositionsPromulgatedByUser(address _userAddress) public view returns (uint[])\n    {return propositionToPromulgator[_userAddress];}  \n    function getPropositionsUsedByUser(address _userAddress) public view returns (uint[])\n    {return propositionToVoter[_userAddress];}  \n    function haveIVoted(uint propositionNumber) public view returns (bool IHaveVoted)\n    {return propositions[propositionNumber].hasUserVoted[msg.sender];}\n    function getLinkedOrgans() public view returns (address[] _linkedOrgans)\n    {return linkedOrgans;}\n\n}\n\n",
  "sourcePath": "/Users/henrilieutaud/Documents/Mes documents/97/Workshop/Kelsen/solidity/contracts/procedures/voteOnNormsProcedure.sol",
  "compiler": {
    "name": "solc",
    "version": "0.4.19+commit.c4cbbb05.Emscripten.clang"
  },
  "schemaVersion": "2.0.0",
  "updatedAt": "2018-05-14T16:53:37.311Z"
}