{
  "contractName": "voteOnExpenseProcedure",
  "abi": [
    {
      "constant": true,
      "inputs": [
        {
          "name": "",
          "type": "address"
        },
        {
          "name": "",
          "type": "uint256"
        }
      ],
      "name": "propositionToUser",
      "outputs": [
        {
          "name": "",
          "type": "uint256"
        }
      ],
      "payable": false,
      "stateMutability": "view",
      "type": "function"
    },
    {
      "constant": true,
      "inputs": [],
      "name": "procedureTypeNumber",
      "outputs": [
        {
          "name": "",
          "type": "int256"
        }
      ],
      "payable": false,
      "stateMutability": "view",
      "type": "function"
    },
    {
      "constant": true,
      "inputs": [],
      "name": "quorumSize",
      "outputs": [
        {
          "name": "",
          "type": "uint256"
        }
      ],
      "payable": false,
      "stateMutability": "view",
      "type": "function"
    },
    {
      "constant": true,
      "inputs": [
        {
          "name": "",
          "type": "address"
        },
        {
          "name": "",
          "type": "uint256"
        }
      ],
      "name": "propositionToPromulgator",
      "outputs": [
        {
          "name": "",
          "type": "uint256"
        }
      ],
      "payable": false,
      "stateMutability": "view",
      "type": "function"
    },
    {
      "constant": true,
      "inputs": [],
      "name": "kelsenVersionNumber",
      "outputs": [
        {
          "name": "",
          "type": "int256"
        }
      ],
      "payable": false,
      "stateMutability": "view",
      "type": "function"
    },
    {
      "constant": true,
      "inputs": [],
      "name": "membersWithVetoOrganContract",
      "outputs": [
        {
          "name": "",
          "type": "address"
        }
      ],
      "payable": false,
      "stateMutability": "view",
      "type": "function"
    },
    {
      "constant": true,
      "inputs": [
        {
          "name": "",
          "type": "address"
        },
        {
          "name": "",
          "type": "uint256"
        }
      ],
      "name": "propositionToVoter",
      "outputs": [
        {
          "name": "",
          "type": "uint256"
        }
      ],
      "payable": false,
      "stateMutability": "view",
      "type": "function"
    },
    {
      "constant": true,
      "inputs": [],
      "name": "finalPromulgatorsOrganContract",
      "outputs": [
        {
          "name": "",
          "type": "address"
        }
      ],
      "payable": false,
      "stateMutability": "view",
      "type": "function"
    },
    {
      "constant": true,
      "inputs": [],
      "name": "totalPropositionNumber",
      "outputs": [
        {
          "name": "",
          "type": "uint256"
        }
      ],
      "payable": false,
      "stateMutability": "view",
      "type": "function"
    },
    {
      "constant": true,
      "inputs": [],
      "name": "requiredMajorityNumerator",
      "outputs": [
        {
          "name": "",
          "type": "uint256"
        }
      ],
      "payable": false,
      "stateMutability": "view",
      "type": "function"
    },
    {
      "constant": true,
      "inputs": [],
      "name": "isAnOrgan",
      "outputs": [
        {
          "name": "",
          "type": "bool"
        }
      ],
      "payable": false,
      "stateMutability": "view",
      "type": "function"
    },
    {
      "constant": true,
      "inputs": [],
      "name": "votingPeriodDuration",
      "outputs": [
        {
          "name": "",
          "type": "uint256"
        }
      ],
      "payable": false,
      "stateMutability": "view",
      "type": "function"
    },
    {
      "constant": true,
      "inputs": [
        {
          "name": "",
          "type": "uint256"
        }
      ],
      "name": "propositionsWaitingPromulgation",
      "outputs": [
        {
          "name": "",
          "type": "bool"
        }
      ],
      "payable": false,
      "stateMutability": "view",
      "type": "function"
    },
    {
      "constant": true,
      "inputs": [],
      "name": "promulgationPeriodDuration",
      "outputs": [
        {
          "name": "",
          "type": "uint256"
        }
      ],
      "payable": false,
      "stateMutability": "view",
      "type": "function"
    },
    {
      "constant": true,
      "inputs": [],
      "name": "votersOrganContract",
      "outputs": [
        {
          "name": "",
          "type": "address"
        }
      ],
      "payable": false,
      "stateMutability": "view",
      "type": "function"
    },
    {
      "constant": true,
      "inputs": [
        {
          "name": "",
          "type": "address"
        },
        {
          "name": "",
          "type": "uint256"
        }
      ],
      "name": "propositionToVetoer",
      "outputs": [
        {
          "name": "",
          "type": "uint256"
        }
      ],
      "payable": false,
      "stateMutability": "view",
      "type": "function"
    },
    {
      "constant": true,
      "inputs": [
        {
          "name": "",
          "type": "uint256"
        }
      ],
      "name": "propositionsWaitingEndOfVote",
      "outputs": [
        {
          "name": "",
          "type": "bool"
        }
      ],
      "payable": false,
      "stateMutability": "view",
      "type": "function"
    },
    {
      "constant": true,
      "inputs": [],
      "name": "isAProcedure",
      "outputs": [
        {
          "name": "",
          "type": "bool"
        }
      ],
      "payable": false,
      "stateMutability": "view",
      "type": "function"
    },
    {
      "constant": true,
      "inputs": [],
      "name": "requiredMajorityDenominator",
      "outputs": [
        {
          "name": "",
          "type": "uint256"
        }
      ],
      "payable": false,
      "stateMutability": "view",
      "type": "function"
    },
    {
      "constant": true,
      "inputs": [
        {
          "name": "",
          "type": "uint256"
        }
      ],
      "name": "linkedOrgans",
      "outputs": [
        {
          "name": "",
          "type": "address"
        }
      ],
      "payable": false,
      "stateMutability": "view",
      "type": "function"
    },
    {
      "constant": true,
      "inputs": [],
      "name": "affectedOrganContract",
      "outputs": [
        {
          "name": "",
          "type": "address"
        }
      ],
      "payable": false,
      "stateMutability": "view",
      "type": "function"
    },
    {
      "anonymous": false,
      "inputs": [
        {
          "indexed": false,
          "name": "_from",
          "type": "address"
        },
        {
          "indexed": false,
          "name": "_payoutAddress",
          "type": "address"
        },
        {
          "indexed": false,
          "name": "_amount",
          "type": "uint256"
        },
        {
          "indexed": false,
          "name": "_ipfsHash",
          "type": "bytes32"
        },
        {
          "indexed": false,
          "name": "_hash_function",
          "type": "uint8"
        },
        {
          "indexed": false,
          "name": "_size",
          "type": "uint8"
        }
      ],
      "name": "createPropositionEvent",
      "type": "event"
    },
    {
      "anonymous": false,
      "inputs": [
        {
          "indexed": false,
          "name": "_from",
          "type": "address"
        },
        {
          "indexed": false,
          "name": "_propositionNumber",
          "type": "uint256"
        }
      ],
      "name": "voteOnProposition",
      "type": "event"
    },
    {
      "anonymous": false,
      "inputs": [
        {
          "indexed": false,
          "name": "_from",
          "type": "address"
        },
        {
          "indexed": false,
          "name": "_propositionNumber",
          "type": "uint256"
        }
      ],
      "name": "vetoProposition",
      "type": "event"
    },
    {
      "anonymous": false,
      "inputs": [
        {
          "indexed": false,
          "name": "_from",
          "type": "address"
        },
        {
          "indexed": false,
          "name": "_propositionNumber",
          "type": "uint256"
        }
      ],
      "name": "countVotes",
      "type": "event"
    },
    {
      "anonymous": false,
      "inputs": [
        {
          "indexed": false,
          "name": "_from",
          "type": "address"
        },
        {
          "indexed": false,
          "name": "_propositionNumber",
          "type": "uint256"
        },
        {
          "indexed": false,
          "name": "_promulgate",
          "type": "bool"
        }
      ],
      "name": "promulgatePropositionEvent",
      "type": "event"
    },
    {
      "constant": false,
      "inputs": [
        {
          "name": "_payoutAddress",
          "type": "address"
        },
        {
          "name": "_amount",
          "type": "uint256"
        },
        {
          "name": "_ipfsHash",
          "type": "bytes32"
        },
        {
          "name": "_hash_function",
          "type": "uint8"
        },
        {
          "name": "_size",
          "type": "uint8"
        },
        {
          "name": "_name",
          "type": "string"
        }
      ],
      "name": "createProposition",
      "outputs": [
        {
          "name": "propositionNumber",
          "type": "uint256"
        }
      ],
      "payable": false,
      "stateMutability": "nonpayable",
      "type": "function"
    },
    {
      "constant": false,
      "inputs": [
        {
          "name": "_propositionNumber",
          "type": "uint256"
        },
        {
          "name": "_acceptProposition",
          "type": "bool"
        }
      ],
      "name": "vote",
      "outputs": [],
      "payable": false,
      "stateMutability": "nonpayable",
      "type": "function"
    },
    {
      "constant": false,
      "inputs": [
        {
          "name": "_propositionNumber",
          "type": "uint256"
        }
      ],
      "name": "veto",
      "outputs": [],
      "payable": false,
      "stateMutability": "nonpayable",
      "type": "function"
    },
    {
      "constant": false,
      "inputs": [
        {
          "name": "_propositionNumber",
          "type": "uint256"
        }
      ],
      "name": "endPropositionVote",
      "outputs": [
        {
          "name": "hasBeenAccepted",
          "type": "bool"
        }
      ],
      "payable": false,
      "stateMutability": "nonpayable",
      "type": "function"
    },
    {
      "constant": false,
      "inputs": [
        {
          "name": "_propositionNumber",
          "type": "uint256"
        },
        {
          "name": "_promulgate",
          "type": "bool"
        }
      ],
      "name": "promulgateProposition",
      "outputs": [],
      "payable": false,
      "stateMutability": "nonpayable",
      "type": "function"
    },
    {
      "constant": true,
      "inputs": [
        {
          "name": "_propositionNumber",
          "type": "uint256"
        }
      ],
      "name": "getPropositionDetails",
      "outputs": [
        {
          "name": "_payoutAddress",
          "type": "address"
        },
        {
          "name": "_amount",
          "type": "uint256"
        },
        {
          "name": "_ipfsHash",
          "type": "bytes32"
        },
        {
          "name": "_hash_function",
          "type": "uint8"
        },
        {
          "name": "_size",
          "type": "uint8"
        },
        {
          "name": "_name",
          "type": "string"
        }
      ],
      "payable": false,
      "stateMutability": "view",
      "type": "function"
    },
    {
      "constant": true,
      "inputs": [
        {
          "name": "_propositionNumber",
          "type": "uint256"
        }
      ],
      "name": "getPropositionDates",
      "outputs": [
        {
          "name": "_startDate",
          "type": "uint256"
        },
        {
          "name": "_votingPeriodEndDate",
          "type": "uint256"
        },
        {
          "name": "_promulgatorWindowEndDate",
          "type": "uint256"
        }
      ],
      "payable": false,
      "stateMutability": "view",
      "type": "function"
    },
    {
      "constant": true,
      "inputs": [
        {
          "name": "_propositionNumber",
          "type": "uint256"
        }
      ],
      "name": "getPropositionStatus",
      "outputs": [
        {
          "name": "_wasCounted",
          "type": "bool"
        },
        {
          "name": "_wasEnded",
          "type": "bool"
        }
      ],
      "payable": false,
      "stateMutability": "view",
      "type": "function"
    },
    {
      "constant": true,
      "inputs": [
        {
          "name": "_propositionNumber",
          "type": "uint256"
        }
      ],
      "name": "getVotedPropositionResults",
      "outputs": [
        {
          "name": "_wasVetoed",
          "type": "bool"
        },
        {
          "name": "_wasAccepted",
          "type": "bool"
        }
      ],
      "payable": false,
      "stateMutability": "view",
      "type": "function"
    },
    {
      "constant": true,
      "inputs": [
        {
          "name": "_propositionNumber",
          "type": "uint256"
        }
      ],
      "name": "getVotedPropositionStats",
      "outputs": [
        {
          "name": "_totalVoters",
          "type": "uint256"
        },
        {
          "name": "_totalVoteCount",
          "type": "uint256"
        },
        {
          "name": "_voteFor",
          "type": "uint256"
        }
      ],
      "payable": false,
      "stateMutability": "view",
      "type": "function"
    },
    {
      "constant": true,
      "inputs": [
        {
          "name": "_userAddress",
          "type": "address"
        }
      ],
      "name": "getPropositionsCreatedByUser",
      "outputs": [
        {
          "name": "",
          "type": "uint256[]"
        }
      ],
      "payable": false,
      "stateMutability": "view",
      "type": "function"
    },
    {
      "constant": true,
      "inputs": [
        {
          "name": "_userAddress",
          "type": "address"
        }
      ],
      "name": "getPropositionsVetoedByUser",
      "outputs": [
        {
          "name": "",
          "type": "uint256[]"
        }
      ],
      "payable": false,
      "stateMutability": "view",
      "type": "function"
    },
    {
      "constant": true,
      "inputs": [
        {
          "name": "_userAddress",
          "type": "address"
        }
      ],
      "name": "getPropositionsPromulgatedByUser",
      "outputs": [
        {
          "name": "",
          "type": "uint256[]"
        }
      ],
      "payable": false,
      "stateMutability": "view",
      "type": "function"
    },
    {
      "constant": true,
      "inputs": [
        {
          "name": "_userAddress",
          "type": "address"
        }
      ],
      "name": "getPropositionsUsedByUser",
      "outputs": [
        {
          "name": "",
          "type": "uint256[]"
        }
      ],
      "payable": false,
      "stateMutability": "view",
      "type": "function"
    },
    {
      "constant": true,
      "inputs": [
        {
          "name": "propositionNumber",
          "type": "uint256"
        }
      ],
      "name": "haveIVoted",
      "outputs": [
        {
          "name": "IHaveVoted",
          "type": "bool"
        }
      ],
      "payable": false,
      "stateMutability": "view",
      "type": "function"
    },
    {
      "constant": true,
      "inputs": [],
      "name": "getLinkedOrgans",
      "outputs": [
        {
          "name": "_linkedOrgans",
          "type": "address[]"
        }
      ],
      "payable": false,
      "stateMutability": "view",
      "type": "function"
    }
  ],
  "bytecode": "0x60606040526000600460006101000a81548160ff0219169083151502179055506001600460016101000a81548160ff0219169083151502179055506008600555341561004a57600080fd5b612f2d806100596000396000f3006060604052600436106101cd576000357c0100000000000000000000000000000000000000000000000000000000900463ffffffff1680630366af3d146101d257806305cf00571461021857806307e7a224146102a65780630b2e34b0146103345780631d28dec71461038a5780632443eaa7146103ad5780632647d7f91461046b5780633068ef4d1461049457806337443feb146104bd5780633c0848ee146105bc5780635332eea11461064a5780635dbe4d28146106a057806364cdd61e146106c95780636a95d38d1461071e57806375ff60c414610764578063880d3f54146107ba5780638f3b07a41461080f5780639b88fba714610838578063a8bef97a14610861578063ac37af1c1461088e578063aff7cfc7146108c9578063b5fdb88e1461090e578063c9d27afe14610937578063cb20a2fd14610965578063cd43eb1f146109f3578063cd87c2b614610a2e578063ce784b7714610a57578063ce88840314610aac578063d64ff06314610af1578063d858849414610b1f578063e09ecb8714610b75578063e36f6e4e14610bb0578063e570050114610beb578063e80b30a514610c55578063eb9141e914610c82578063f2edc61614610cab578063fe7800e114610d0e575b600080fd5b34156101dd57600080fd5b6101f36004808035906020019091905050610d63565b6040518083151515158152602001821515151581526020019250505060405180910390f35b341561022357600080fd5b61024f600480803573ffffffffffffffffffffffffffffffffffffffff16906020019091905050610dcb565b6040518080602001828103825283818151815260200191508051906020019060200280838360005b83811015610292578082015181840152602081019050610277565b505050509050019250505060405180910390f35b34156102b157600080fd5b6102dd600480803573ffffffffffffffffffffffffffffffffffffffff16906020019091905050610e68565b6040518080602001828103825283818151815260200191508051906020019060200280838360005b83811015610320578082015181840152602081019050610305565b505050509050019250505060405180910390f35b341561033f57600080fd5b610374600480803573ffffffffffffffffffffffffffffffffffffffff16906020019091908035906020019091905050610f05565b6040518082815260200191505060405180910390f35b341561039557600080fd5b6103ab6004808035906020019091905050610f36565b005b34156103b857600080fd5b610455600480803573ffffffffffffffffffffffffffffffffffffffff169060200190919080359060200190919080356000191690602001909190803560ff1690602001909190803560ff1690602001909190803590602001908201803590602001908080601f016020809104026020016040519081016040528093929190818152602001838380828437820191505050505050919050506111a0565b6040518082815260200191505060405180910390f35b341561047657600080fd5b61047e61171e565b6040518082815260200191505060405180910390f35b341561049f57600080fd5b6104a7611724565b6040518082815260200191505060405180910390f35b34156104c857600080fd5b6104de600480803590602001909190505061172a565b604051808773ffffffffffffffffffffffffffffffffffffffff1673ffffffffffffffffffffffffffffffffffffffff16815260200186815260200185600019166000191681526020018460ff1660ff1681526020018360ff1660ff16815260200180602001828103825283818151815260200191508051906020019080838360005b8381101561057c578082015181840152602081019050610561565b50505050905090810190601f1680156105a95780820380516001836020036101000a031916815260200191505b5097505050505050505060405180910390f35b34156105c757600080fd5b6105f3600480803573ffffffffffffffffffffffffffffffffffffffff169060200190919050506118ea565b6040518080602001828103825283818151815260200191508051906020019060200280838360005b8381101561063657808201518184015260208101905061061b565b505050509050019250505060405180910390f35b341561065557600080fd5b61068a600480803573ffffffffffffffffffffffffffffffffffffffff16906020019091908035906020019091905050611987565b6040518082815260200191505060405180910390f35b34156106ab57600080fd5b6106b36119b8565b6040518082815260200191505060405180910390f35b34156106d457600080fd5b6106dc6119be565b604051808273ffffffffffffffffffffffffffffffffffffffff1673ffffffffffffffffffffffffffffffffffffffff16815260200191505060405180910390f35b341561072957600080fd5b61073f60048080359060200190919050506119e4565b6040518083151515158152602001821515151581526020019250505060405180910390f35b341561076f57600080fd5b6107a4600480803573ffffffffffffffffffffffffffffffffffffffff16906020019091908035906020019091905050611a85565b6040518082815260200191505060405180910390f35b34156107c557600080fd5b6107cd611ab6565b604051808273ffffffffffffffffffffffffffffffffffffffff1673ffffffffffffffffffffffffffffffffffffffff16815260200191505060405180910390f35b341561081a57600080fd5b610822611adc565b6040518082815260200191505060405180910390f35b341561084357600080fd5b61084b611ae2565b6040518082815260200191505060405180910390f35b341561086c57600080fd5b610874611ae8565b604051808215151515815260200191505060405180910390f35b341561089957600080fd5b6108af6004808035906020019091905050611afb565b604051808215151515815260200191505060405180910390f35b34156108d457600080fd5b6108ea6004808035906020019091905050611b6f565b60405180848152602001838152602001828152602001935050505060405180910390f35b341561091957600080fd5b610921611c1d565b6040518082815260200191505060405180910390f35b341561094257600080fd5b61096360048080359060200190919080351515906020019091905050611c23565b005b341561097057600080fd5b61099c600480803573ffffffffffffffffffffffffffffffffffffffff16906020019091905050611fae565b6040518080602001828103825283818151815260200191508051906020019060200280838360005b838110156109df5780820151818401526020810190506109c4565b505050509050019250505060405180910390f35b34156109fe57600080fd5b610a14600480803590602001909190505061204b565b604051808215151515815260200191505060405180910390f35b3415610a3957600080fd5b610a4161207e565b6040518082815260200191505060405180910390f35b3415610a6257600080fd5b610a6a612084565b604051808273ffffffffffffffffffffffffffffffffffffffff1673ffffffffffffffffffffffffffffffffffffffff16815260200191505060405180910390f35b3415610ab757600080fd5b610acd60048080359060200190919050506120aa565b60405180848152602001838152602001828152602001935050505060405180910390f35b3415610afc57600080fd5b610b1d60048080359060200190919080351515906020019091905050612123565b005b3415610b2a57600080fd5b610b5f600480803573ffffffffffffffffffffffffffffffffffffffff16906020019091908035906020019091905050612666565b6040518082815260200191505060405180910390f35b3415610b8057600080fd5b610b966004808035906020019091905050612697565b604051808215151515815260200191505060405180910390f35b3415610bbb57600080fd5b610bd16004808035906020019091905050612a4c565b604051808215151515815260200191505060405180910390f35b3415610bf657600080fd5b610bfe612a7f565b6040518080602001828103825283818151815260200191508051906020019060200280838360005b83811015610c41578082015181840152602081019050610c26565b505050509050019250505060405180910390f35b3415610c6057600080fd5b610c68612b13565b604051808215151515815260200191505060405180910390f35b3415610c8d57600080fd5b610c95612b26565b6040518082815260200191505060405180910390f35b3415610cb657600080fd5b610ccc6004808035906020019091905050612b2c565b604051808273ffffffffffffffffffffffffffffffffffffffff1673ffffffffffffffffffffffffffffffffffffffff16815260200191505060405180910390f35b3415610d1957600080fd5b610d21612b6b565b604051808273ffffffffffffffffffffffffffffffffffffffff1673ffffffffffffffffffffffffffffffffffffffff16815260200191505060405180910390f35b600080601183815481101515610d7557fe5b90600052602060002090600b020160080160019054906101000a900460ff16601184815481101515610da357fe5b90600052602060002090600b020160080160039054906101000a900460ff1691509150915091565b610dd3612b91565b601560008373ffffffffffffffffffffffffffffffffffffffff1673ffffffffffffffffffffffffffffffffffffffff168152602001908152602001600020805480602002602001604051908101604052809291908181526020018280548015610e5c57602002820191906000526020600020905b815481526020019060010190808311610e48575b50505050509050919050565b610e70612b91565b601760008373ffffffffffffffffffffffffffffffffffffffff1673ffffffffffffffffffffffffffffffffffffffff168152602001908152602001600020805480602002602001604051908101604052809291908181526020018280548015610ef957602002820191906000526020600020905b815481526020019060010190808311610ee5575b50505050509050919050565b601460205281600052604060002081815481101515610f2057fe5b9060005260206000209001600091509150505481565b6000600860009054906101000a900473ffffffffffffffffffffffffffffffffffffffff1690508073ffffffffffffffffffffffffffffffffffffffff1663d323a4f8336000604051602001526040518263ffffffff167c0100000000000000000000000000000000000000000000000000000000028152600401808273ffffffffffffffffffffffffffffffffffffffff1673ffffffffffffffffffffffffffffffffffffffff168152602001915050602060405180830381600087803b151561100057600080fd5b6102c65a03f1151561101157600080fd5b50505060405180519050151561102657600080fd5b6000905060118281548110151561103957fe5b90600052602060002090600b020160080160019054906101000a900460ff1615151561106457600080fd5b4260118381548110151561107457fe5b90600052602060002090600b02016007015411151561109257600080fd5b60016011838154811015156110a357fe5b90600052602060002090600b020160080160006101000a81548160ff021916908315150217905550601660003373ffffffffffffffffffffffffffffffffffffffff1673ffffffffffffffffffffffffffffffffffffffff168152602001908152602001600020805480600101828161111c9190612ba5565b9160005260206000209001600084909190915055507f62901d9c2f788a5c877cf5a2659a041eedf9a980c6dd3ed22a4878bcc228619b3383604051808373ffffffffffffffffffffffffffffffffffffffff1673ffffffffffffffffffffffffffffffffffffffff1681526020018281526020019250505060405180910390a15050565b6000806111ab612bd1565b600760009054906101000a900473ffffffffffffffffffffffffffffffffffffffff1691508173ffffffffffffffffffffffffffffffffffffffff1663d323a4f8336000604051602001526040518263ffffffff167c0100000000000000000000000000000000000000000000000000000000028152600401808273ffffffffffffffffffffffffffffffffffffffff1673ffffffffffffffffffffffffffffffffffffffff168152602001915050602060405180830381600087803b151561127357600080fd5b6102c65a03f1151561128457600080fd5b50505060405180519050151561129957600080fd5b6000915088816000019073ffffffffffffffffffffffffffffffffffffffff16908173ffffffffffffffffffffffffffffffffffffffff168152505087816020018181525050868160400190600019169081600019168152505085816060019060ff16908160ff168152505084816080019060ff16908160ff1681525050838160a00181905250428160c0018181525050600b5442018160e00181815250506000816101000190151590811515815250506000816101600190151590811515815250506000816101200190151590811515815250506000816101400190151590811515815250506000816101a0018181525050600081610180018181525050601180548060010182816113ac9190612c6e565b91600052602060002090600b0201600083909190915060008201518160000160006101000a81548173ffffffffffffffffffffffffffffffffffffffff021916908373ffffffffffffffffffffffffffffffffffffffff160217905550602082015181600101556040820151816002019060001916905560608201518160030160006101000a81548160ff021916908360ff16021790555060808201518160030160016101000a81548160ff021916908360ff16021790555060a0820151816004019080519060200190611481929190612ca0565b5060c0820151816006015560e082015181600701556101008201518160080160006101000a81548160ff0219169083151502179055506101208201518160080160016101000a81548160ff0219169083151502179055506101408201518160080160026101000a81548160ff0219169083151502179055506101608201518160080160036101000a81548160ff02191690831515021790555061018082015181600901556101a082015181600a015550505061153b612bd1565b905060016011805490500392506001600e60008282540192505081905550601460003373ffffffffffffffffffffffffffffffffffffffff1673ffffffffffffffffffffffffffffffffffffffff16815260200190815260200160002080548060010182816115aa9190612ba5565b916000526020600020900160008590919091505550601280548060010182816115d39190612d20565b91600052602060002090602091828204019190066001909190916101000a81548160ff02191690831515021790555050601380548060010182816116179190612d20565b91600052602060002090602091828204019190066000909190916101000a81548160ff021916908315150217905550507fb31df5b39bb8b6149d4ed034d3ec80aa9b0b980ddf993635151a04592ea49b85338a8a8a8a8a604051808773ffffffffffffffffffffffffffffffffffffffff1673ffffffffffffffffffffffffffffffffffffffff1681526020018673ffffffffffffffffffffffffffffffffffffffff1673ffffffffffffffffffffffffffffffffffffffff16815260200185815260200184600019166000191681526020018360ff1660ff1681526020018260ff1660ff168152602001965050505050505060405180910390a150509695505050505050565b60055481565b600d5481565b600080600080600061173a612d5a565b60118781548110151561174957fe5b90600052602060002090600b020160000160009054906101000a900473ffffffffffffffffffffffffffffffffffffffff1660118881548110151561178a57fe5b90600052602060002090600b0201600101546011898154811015156117ab57fe5b90600052602060002090600b02016002015460118a8154811015156117cc57fe5b90600052602060002090600b020160030160009054906101000a900460ff1660118b8154811015156117fa57fe5b90600052602060002090600b020160030160019054906101000a900460ff1660118c81548110151561182857fe5b90600052602060002090600b0201600401808054600181600116156101000203166002900480601f0160208091040260200160405190810160405280929190818152602001828054600181600116156101000203166002900480156118ce5780601f106118a3576101008083540402835291602001916118ce565b820191906000526020600020905b8154815290600101906020018083116118b157829003601f168201915b5050505050905095509550955095509550955091939550919395565b6118f2612b91565b601660008373ffffffffffffffffffffffffffffffffffffffff1673ffffffffffffffffffffffffffffffffffffffff16815260200190815260200160002080548060200260200160405190810160405280929190818152602001828054801561197b57602002820191906000526020600020905b815481526020019060010190808311611967575b50505050509050919050565b6017602052816000526040600020818154811015156119a257fe5b9060005260206000209001600091509150505481565b60005481565b600860009054906101000a900473ffffffffffffffffffffffffffffffffffffffff1681565b6000806011838154811015156119f657fe5b90600052602060002090600b020160080160019054906101000a900460ff161515611a2057600080fd5b601183815481101515611a2f57fe5b90600052602060002090600b020160080160009054906101000a900460ff16601184815481101515611a5d57fe5b90600052602060002090600b020160080160029054906101000a900460ff1691509150915091565b601560205281600052604060002081815481101515611aa057fe5b9060005260206000209001600091509150505481565b600960009054906101000a900473ffffffffffffffffffffffffffffffffffffffff1681565b600e5481565b600f5481565b600460009054906101000a900460ff1681565b6000601182815481101515611b0c57fe5b90600052602060002090600b020160050160003373ffffffffffffffffffffffffffffffffffffffff1673ffffffffffffffffffffffffffffffffffffffff16815260200190815260200160002060009054906101000a900460ff169050919050565b6000806000601184815481101515611b8357fe5b90600052602060002090600b020160080160019054906101000a900460ff161515611bad57600080fd5b601184815481101515611bbc57fe5b90600052602060002090600b0201600a0154601185815481101515611bdd57fe5b90600052602060002090600b0201600a0154601186815481101515611bfe57fe5b90600052602060002090600b0201600901549250925092509193909250565b600b5481565b6000600760009054906101000a900473ffffffffffffffffffffffffffffffffffffffff1690508073ffffffffffffffffffffffffffffffffffffffff1663d323a4f8336000604051602001526040518263ffffffff167c0100000000000000000000000000000000000000000000000000000000028152600401808273ffffffffffffffffffffffffffffffffffffffff1673ffffffffffffffffffffffffffffffffffffffff168152602001915050602060405180830381600087803b1515611ced57600080fd5b6102c65a03f11515611cfe57600080fd5b505050604051805190501515611d1357600080fd5b60009050601183815481101515611d2657fe5b90600052602060002090600b020160050160003373ffffffffffffffffffffffffffffffffffffffff1673ffffffffffffffffffffffffffffffffffffffff16815260200190815260200160002060009054906101000a900460ff16151515611d8e57600080fd5b601183815481101515611d9d57fe5b90600052602060002090600b020160080160019054906101000a900460ff16151515611dc857600080fd5b42601184815481101515611dd857fe5b90600052602060002090600b020160070154111515611df657600080fd5b600115158215151415611e33576001601184815481101515611e1457fe5b90600052602060002090600b0201600901600082825401925050819055505b6001601184815481101515611e4457fe5b90600052602060002090600b020160050160003373ffffffffffffffffffffffffffffffffffffffff1673ffffffffffffffffffffffffffffffffffffffff16815260200190815260200160002060006101000a81548160ff0219169083151502179055506001601184815481101515611eba57fe5b90600052602060002090600b0201600a0160008282540192505081905550601560003373ffffffffffffffffffffffffffffffffffffffff1673ffffffffffffffffffffffffffffffffffffffff1681526020019081526020016000208054806001018281611f299190612ba5565b9160005260206000209001600085909190915055507fd1faddd599b0d6b58c83de71d7ff5395895b5891894dcd37f2482f33b2a1c43d3384604051808373ffffffffffffffffffffffffffffffffffffffff1673ffffffffffffffffffffffffffffffffffffffff1681526020018281526020019250505060405180910390a1505050565b611fb6612b91565b601460008373ffffffffffffffffffffffffffffffffffffffff1673ffffffffffffffffffffffffffffffffffffffff16815260200190815260200160002080548060200260200160405190810160405280929190818152602001828054801561203f57602002820191906000526020600020905b81548152602001906001019080831161202b575b50505050509050919050565b60138181548110151561205a57fe5b9060005260206000209060209182820401919006915054906101000a900460ff1681565b600c5481565b600760009054906101000a900473ffffffffffffffffffffffffffffffffffffffff1681565b60008060006011848154811015156120be57fe5b90600052602060002090600b0201600601546011858154811015156120df57fe5b90600052602060002090600b020160070154600c5460118781548110151561210357fe5b90600052602060002090600b020160070154019250925092509193909250565b60008060118481548110151561213557fe5b90600052602060002090600b020160080160039054906101000a900460ff1615151561216057600080fd5b60118481548110151561216f57fe5b90600052602060002090600b020160080160019054906101000a900460ff16151561219957600080fd5b600c546011858154811015156121ab57fe5b90600052602060002090600b020160070154014210156122bc57600960009054906101000a900473ffffffffffffffffffffffffffffffffffffffff1691508173ffffffffffffffffffffffffffffffffffffffff1663d323a4f8336000604051602001526040518263ffffffff167c0100000000000000000000000000000000000000000000000000000000028152600401808273ffffffffffffffffffffffffffffffffffffffff1673ffffffffffffffffffffffffffffffffffffffff168152602001915050602060405180830381600087803b151561228d57600080fd5b6102c65a03f1151561229e57600080fd5b5050506040518051905015156122b357600080fd5b600091506122c9565b8215156122c857600080fd5b5b6011848154811015156122d857fe5b90600052602060002090600b020160080160029054906101000a900460ff16151561230257600080fd5b8215806123915750600060118581548110151561231b57fe5b90600052602060002090600b020160000160009054906101000a900473ffffffffffffffffffffffffffffffffffffffff1673ffffffffffffffffffffffffffffffffffffffff161480156123905750600060118581548110151561237c57fe5b90600052602060002090600b020160010154145b5b156123d45760016011858154811015156123a757fe5b90600052602060002090600b020160080160036101000a81548160ff021916908315150217905550612510565b600660009054906101000a900473ffffffffffffffffffffffffffffffffffffffff1690508073ffffffffffffffffffffffffffffffffffffffff1663117de2fd60118681548110151561242457fe5b90600052602060002090600b020160000160009054906101000a900473ffffffffffffffffffffffffffffffffffffffff1660118781548110151561246557fe5b90600052602060002090600b0201600101546040518363ffffffff167c0100000000000000000000000000000000000000000000000000000000028152600401808373ffffffffffffffffffffffffffffffffffffffff1673ffffffffffffffffffffffffffffffffffffffff16815260200182815260200192505050600060405180830381600087803b15156124fb57600080fd5b6102c65a03f1151561250c57600080fd5b5050505b600160118581548110151561252157fe5b90600052602060002090600b020160080160036101000a81548160ff021916908315150217905550600060138581548110151561255a57fe5b90600052602060002090602091828204019190066101000a81548160ff021916908315150217905550601760003373ffffffffffffffffffffffffffffffffffffffff1673ffffffffffffffffffffffffffffffffffffffff16815260200190815260200160002080548060010182816125d49190612ba5565b9160005260206000209001600086909190915055507fed7c73834db4ae22add7f637175d8a32a1dddae4c154ccd25195b77df4c8d18d338585604051808473ffffffffffffffffffffffffffffffffffffffff1673ffffffffffffffffffffffffffffffffffffffff16815260200183815260200182151515158152602001935050505060405180910390a150505050565b60166020528160005260406000208181548110151561268157fe5b9060005260206000209001600091509150505481565b6000806011838154811015156126a957fe5b90600052602060002090600b020160080160019054906101000a900460ff161515156126d457600080fd5b426011848154811015156126e457fe5b90600052602060002090600b02016007015410151561270257600080fd5b600760009054906101000a900473ffffffffffffffffffffffffffffffffffffffff16905060118381548110151561273657fe5b90600052602060002090600b020160080160009054906101000a900460ff161561279c5760009150600160118481548110151561276f57fe5b90600052602060002090600b020160080160036101000a81548160ff0219169083151502179055506128f6565b8073ffffffffffffffffffffffffffffffffffffffff1663234d34de6000604051602001526040518163ffffffff167c0100000000000000000000000000000000000000000000000000000000028152600401602060405180830381600087803b151561280857600080fd5b6102c65a03f1151561281957600080fd5b50505060405180519050600d5402606460118581548110151561283857fe5b90600052602060002090600b0201600a015402101580156128a9575060118381548110151561286357fe5b90600052602060002090600b0201600a0154600f5460105460118681548110151561288a57fe5b90600052602060002090600b020160090154028115156128a657fe5b04115b156128b757600191506128f5565b6000915060016011848154811015156128cc57fe5b90600052602060002090600b020160080160036101000a81548160ff0219169083151502179055505b5b600160118481548110151561290757fe5b90600052602060002090600b020160080160016101000a81548160ff0219169083151502179055508160118481548110151561293f57fe5b90600052602060002090600b020160080160026101000a81548160ff021916908315150217905550600060128481548110151561297857fe5b90600052602060002090602091828204019190066101000a81548160ff02191690831515021790555060016013848154811015156129b257fe5b90600052602060002090602091828204019190066101000a81548160ff0219169083151502179055507f297f1f08d2ef8c90272f7ee3e1d4272015a96cdff8a252b60547b9e432e723603384604051808373ffffffffffffffffffffffffffffffffffffffff1673ffffffffffffffffffffffffffffffffffffffff1681526020018281526020019250505060405180910390a150919050565b601281815481101515612a5b57fe5b9060005260206000209060209182820401919006915054906101000a900460ff1681565b612a87612d6e565b600a805480602002602001604051908101604052809291908181526020018280548015612b0957602002820191906000526020600020905b8160009054906101000a900473ffffffffffffffffffffffffffffffffffffffff1673ffffffffffffffffffffffffffffffffffffffff1681526020019060010190808311612abf575b5050505050905090565b600460019054906101000a900460ff1681565b60105481565b600a81815481101515612b3b57fe5b90600052602060002090016000915054906101000a900473ffffffffffffffffffffffffffffffffffffffff1681565b600660009054906101000a900473ffffffffffffffffffffffffffffffffffffffff1681565b602060405190810160405280600081525090565b815481835581811511612bcc57818360005260206000209182019101612bcb9190612d82565b5b505050565b6101c060405190810160405280600073ffffffffffffffffffffffffffffffffffffffff1681526020016000815260200160008019168152602001600060ff168152602001600060ff168152602001612c28612da7565b8152602001600081526020016000815260200160001515815260200160001515815260200160001515815260200160001515815260200160008152602001600081525090565b815481835581811511612c9b57600b0281600b028360005260206000209182019101612c9a9190612dbb565b5b505050565b828054600181600116156101000203166002900490600052602060002090601f016020900481019282601f10612ce157805160ff1916838001178555612d0f565b82800160010185558215612d0f579182015b82811115612d0e578251825591602001919060010190612cf3565b5b509050612d1c9190612d82565b5090565b815481835581811511612d5557601f016020900481601f01602090048360005260206000209182019101612d549190612d82565b5b505050565b602060405190810160405280600081525090565b602060405190810160405280600081525090565b612da491905b80821115612da0576000816000905550600101612d88565b5090565b90565b602060405190810160405280600081525090565b612eb691905b80821115612eb257600080820160006101000a81549073ffffffffffffffffffffffffffffffffffffffff0219169055600182016000905560028201600090556003820160006101000a81549060ff02191690556003820160016101000a81549060ff0219169055600482016000612e399190612eb9565b600682016000905560078201600090556008820160006101000a81549060ff02191690556008820160016101000a81549060ff02191690556008820160026101000a81549060ff02191690556008820160036101000a81549060ff02191690556009820160009055600a82016000905550600b01612dc1565b5090565b90565b50805460018160011615610100020316600290046000825580601f10612edf5750612efe565b601f016020900490600052602060002090810190612efd9190612d82565b5b505600a165627a7a723058209f25bdd5a818a17913ee37803e436b9c5bdcef8f25236c5f2477d78786731fc10029",
  "source": "pragma solidity ^0.4.11;\n\n// Standard contract for promulgation of a norm\n\nimport \"../standardProcedure.sol\";\nimport \"../standardOrgan.sol\";\n\n\ncontract voteOnExpenseProcedure is Procedure{\n    // 1: Cyclical many to one election (Presidential Election)\n    // 2: Cyclical many to many election (Moderators Election)\n    // 3: Simple norm nomination \n    // 4: Simple admins and master nomination\n    // 5: Vote on Norms \n    // 6: Vote on masters and admins \n    // 7: Cooptation\n    // 8: Vote on an expense\n    int public procedureTypeNumber = 8;\n\n    // Which organ will be affected\n    address public affectedOrganContract;\n\n    // Organ in which the voters are registered\n    address public votersOrganContract;\n\n    // Organ in which the voters with veto power are registered\n    address public membersWithVetoOrganContract;\n\n    // Organ in which final promulgators are listed\n    address public finalPromulgatorsOrganContract;\n\n    // Gathering connected organs for easier DAO mapping\n    address[] public linkedOrgans;\n\n    // ############## Variable to set up when declaring the procedure\n    // ####### Vote creation process\n\n    // ####### Voting process\n    // Time for participant to vote\n    uint public votingPeriodDuration;\n\n    // Time for president to promulgat\n    uint public promulgationPeriodDuration;\n\n    // ####### Resolution process\n    // Minimum participation to validate election\n    uint public quorumSize;\n\n    // Variable of the procedure to keep track of propositions\n    uint public totalPropositionNumber;\n\n    // Variables to measure vote threshold. If majority threshold is 3/5, then requiredMajorityNumerator= 3 and requiredMajorityDenominator = 5\n    uint public requiredMajorityNumerator;\n    uint public requiredMajorityDenominator;\n\n    // Proposition structure\n    struct Proposition {\n\n        // Proposition details\n        address payoutAddress;\n        uint amount;\n        bytes32 ipfsHash; // ID of proposal on IPFS\n        uint8 hash_function;\n        uint8 size;\n        string name;\n\n        // **** Voting variables\n        // Mapping to track user votes\n        mapping(address => bool) hasUserVoted;\n        uint startDate;\n        uint votingPeriodEndDate;\n        bool wasVetoed;\n        bool wasCounted;\n        bool wasAccepted;\n        bool wasEnded;\n        uint voteFor;\n        // uint voteAgainst;\n        uint totalVoteCount;\n    }\n\n\n\n    // A dynamically-sized array of `Proposition` structs.\n    Proposition[] propositions;\n\n    // Dynamic size array of status of propositions\n    bool[] public propositionsWaitingEndOfVote;\n    bool[] public propositionsWaitingPromulgation;\n\n    // Mapping each proposition to the user creating it\n    mapping (address => uint[]) public propositionToUser;    \n\n    // Mapping each proposition to the user who participated\n    mapping (address => uint[]) public propositionToVoter;\n\n    // Mapping each proposition to the user vetoing it\n    mapping (address => uint[]) public propositionToVetoer;\n\n    // Mapping each proposition to the user promulgating it\n    mapping (address => uint[]) public propositionToPromulgator;\n\n    \n\n    // Events\n    event createPropositionEvent(address _from, address _payoutAddress, uint _amount, bytes32 _ipfsHash, uint8 _hash_function, uint8 _size);\n    event voteOnProposition(address _from, uint _propositionNumber);\n    event vetoProposition(address _from, uint _propositionNumber);\n    event countVotes(address _from, uint _propositionNumber);\n    event promulgatePropositionEvent(address _from, uint _propositionNumber, bool _promulgate);\n\n    /// Create a new ballot to choose one of `proposalNames`.\n    function createProposition(address _payoutAddress, uint _amount, bytes32 _ipfsHash, uint8 _hash_function, uint8 _size, string _name) public returns (uint propositionNumber){\n\n            // Check the proposition creator is able to make a proposition\n            Organ voterRegistryOrgan = Organ(votersOrganContract);\n            require(voterRegistryOrgan.isNorm(msg.sender));\n            delete voterRegistryOrgan;\n\n            // Retrieving proposition details\n            Proposition memory newProposition;\n            newProposition.payoutAddress = _payoutAddress;\n            newProposition.amount = _amount;\n            newProposition.ipfsHash = _ipfsHash;\n            newProposition.hash_function = _hash_function;\n            newProposition.size = _size;\n            newProposition.name = _name;\n\n            // Instanciating proposition\n\n            newProposition.startDate = now;\n            newProposition.votingPeriodEndDate = now + votingPeriodDuration;            \n            newProposition.wasVetoed = false;\n            newProposition.wasEnded = false;\n            newProposition.wasCounted = false;\n            newProposition.wasAccepted = false;\n            newProposition.totalVoteCount = 0;\n            newProposition.voteFor = 0;\n            // newProposition.voteAgainst = 0;\n            propositions.push(newProposition);\n            delete newProposition;\n\n            propositionNumber = propositions.length - 1;\n\n            // Tracking proposition being deposed\n            totalPropositionNumber += 1;\n            propositionToUser[msg.sender].push(propositionNumber);\n            propositionsWaitingEndOfVote.push(true);\n            propositionsWaitingPromulgation.push(false);\n\n            // proposition creation event\n            createPropositionEvent(msg.sender, _payoutAddress, _amount, _ipfsHash, _hash_function, _size);\n\n    }\n\n    /// Vote for a proposition\n    function vote(uint _propositionNumber, bool _acceptProposition) public {\n        // Check the voter is able to vote on a proposition\n        Organ voterRegistryOrgan = Organ(votersOrganContract);\n        require(voterRegistryOrgan.isNorm(msg.sender));\n        delete voterRegistryOrgan;\n        \n        // Check if voter already voted\n        require(!propositions[_propositionNumber].hasUserVoted[msg.sender]);\n\n        // Check if vote is still active\n        require(!propositions[_propositionNumber].wasCounted);\n\n        // Check if voting period ended\n        require(propositions[_propositionNumber].votingPeriodEndDate > now);\n\n        // Adding vote\n        if(_acceptProposition == true)\n        {propositions[_propositionNumber].voteFor += 1;}\n\n        // Loggin that user voted\n        propositions[_propositionNumber].hasUserVoted[msg.sender] = true;\n        \n        // Adding vote count\n        propositions[_propositionNumber].totalVoteCount += 1;\n\n        // Logging that user voted\n        propositionToVoter[msg.sender].push(_propositionNumber);\n\n        // create vote event\n        voteOnProposition(msg.sender, _propositionNumber);\n    }\n\n        /// Vote for a candidate\n    function veto(uint _propositionNumber) public {\n\n        // Check the voter is able to veto the proposition\n        Organ membersWithVetoOrgan = Organ(membersWithVetoOrganContract);\n        require(membersWithVetoOrgan.isNorm(msg.sender));\n        delete membersWithVetoOrgan;\n        \n        // Check if vote is still active\n        require(!propositions[_propositionNumber].wasCounted);\n\n        // Check if voting period ended\n        require(propositions[_propositionNumber].votingPeriodEndDate > now);\n\n        // Log that proposition was vetoed\n        propositions[_propositionNumber].wasVetoed = true;\n\n        // Log that user vetoed this proposition\n        propositionToVetoer[msg.sender].push(_propositionNumber);\n\n        //  Create veto event\n        vetoProposition(msg.sender, _propositionNumber);\n\n    }\n\n    // The vote is finished and we close it. This triggers the outcome of the vote.\n\n    function endPropositionVote(uint _propositionNumber) public returns (bool hasBeenAccepted) {\n        // We check if the vote was already counted\n        require(!propositions[_propositionNumber].wasCounted);\n\n        // Checking that the vote can be closed\n        require(propositions[_propositionNumber].votingPeriodEndDate < now);\n\n        Organ voterRegistryOrgan = Organ(votersOrganContract);\n\n        // We check that Quorum was obtained and that a majority of votes were cast in favor of the proposition\n        if (propositions[_propositionNumber].wasVetoed )\n            {hasBeenAccepted=false;\n                propositions[_propositionNumber].wasEnded = true;}\n        else if\n            ((propositions[_propositionNumber].totalVoteCount*100 >= quorumSize*voterRegistryOrgan.getActiveNormNumber()) && (propositions[_propositionNumber].voteFor*requiredMajorityDenominator/requiredMajorityNumerator > propositions[_propositionNumber].totalVoteCount))\n            {hasBeenAccepted = true;}\n        else \n            {hasBeenAccepted=false;\n            propositions[_propositionNumber].wasEnded = true;}\n\n\n        // ############## Updating ballot values if vote concluded\n        propositions[_propositionNumber].wasCounted = true;\n        propositions[_propositionNumber].wasAccepted = hasBeenAccepted;\n        propositionsWaitingEndOfVote[_propositionNumber] = false;\n        propositionsWaitingPromulgation[_propositionNumber] = true;\n\n        countVotes(msg.sender, _propositionNumber);\n    }\n    function promulgateProposition(uint _propositionNumber, bool _promulgate) public\n    {\n        // Checking if ballot was already enforced\n        require(!propositions[_propositionNumber].wasEnded );\n\n        // Checking the ballot was counted\n        require(propositions[_propositionNumber].wasCounted);\n\n        // If promulgation is happening before endOfVote + promulgationPeriodDuration, check caller is an official promulgator\n        if (now < propositions[_propositionNumber].votingPeriodEndDate + promulgationPeriodDuration)\n            {        // Check the voter is able to promulgate the proposition\n            Organ promulgatorsOrgan = Organ(finalPromulgatorsOrganContract);\n            require(promulgatorsOrgan.isNorm(msg.sender));\n            delete promulgatorsOrgan;\n            }\n        else { // If Promulgator did not promulgate, the only option is validating\n            require(_promulgate);\n            }\n\n        // Checking the ballot was accepted\n        require(propositions[_propositionNumber].wasAccepted);\n\n        if ((!_promulgate)||((propositions[_propositionNumber].payoutAddress == 0x0000) && (propositions[_propositionNumber].amount == 0)) )\n        {\n            // The promulgator choses to invalidate the promulgation\n            propositions[_propositionNumber].wasEnded = true;\n        }\n        else\n        {\n            // We initiate the Organ interface to add a norm\n\n        Organ affectedOrgan = Organ(affectedOrganContract);\n        affectedOrgan.payout(propositions[_propositionNumber].payoutAddress, propositions[_propositionNumber].amount);\n    \n            \n        }\n        propositions[_propositionNumber].wasEnded = true;\n        propositionsWaitingPromulgation[_propositionNumber] = false;\n        propositionToPromulgator[msg.sender].push(_propositionNumber);\n\n\n        // promulgation event\n        promulgatePropositionEvent(msg.sender, _propositionNumber, _promulgate);\n\n    }\n\n        //////////////////////// Functions to communicate with other contracts\n    function getPropositionDetails(uint _propositionNumber) public view returns (address _payoutAddress, uint _amount, bytes32 _ipfsHash, uint8 _hash_function, uint8 _size, string _name){\n        return (propositions[_propositionNumber].payoutAddress, propositions[_propositionNumber].amount, propositions[_propositionNumber].ipfsHash, propositions[_propositionNumber].hash_function, propositions[_propositionNumber].size,propositions[_propositionNumber].name);\n    }\n    function getPropositionDates(uint _propositionNumber) public view returns (uint _startDate, uint _votingPeriodEndDate, uint _promulgatorWindowEndDate){\n        return (propositions[_propositionNumber].startDate, propositions[_propositionNumber].votingPeriodEndDate, propositions[_propositionNumber].votingPeriodEndDate + promulgationPeriodDuration);\n    }\n    function getPropositionStatus(uint _propositionNumber) public view returns (bool _wasCounted, bool _wasEnded){\n        return (propositions[_propositionNumber].wasCounted, propositions[_propositionNumber].wasEnded);\n    }\n    function getVotedPropositionResults(uint _propositionNumber) public view returns (bool _wasVetoed, bool _wasAccepted){\n        require(propositions[_propositionNumber].wasCounted);\n        return (propositions[_propositionNumber].wasVetoed, propositions[_propositionNumber].wasAccepted);\n    }\n    function getVotedPropositionStats(uint _propositionNumber) public view returns (uint _totalVoters, uint _totalVoteCount, uint _voteFor)\n        {require(propositions[_propositionNumber].wasCounted);\n        return (propositions[_propositionNumber].totalVoteCount, propositions[_propositionNumber].totalVoteCount, propositions[_propositionNumber].voteFor);}\n\n    function getPropositionsCreatedByUser(address _userAddress) public view returns (uint[])\n    {return propositionToUser[_userAddress];}    \n    function getPropositionsVetoedByUser(address _userAddress) public view returns (uint[])\n    {return propositionToVetoer[_userAddress];}  \n    function getPropositionsPromulgatedByUser(address _userAddress) public view returns (uint[])\n    {return propositionToPromulgator[_userAddress];}  \n    function getPropositionsUsedByUser(address _userAddress) public view returns (uint[])\n    {return propositionToVoter[_userAddress];}  \n    function haveIVoted(uint propositionNumber) public view returns (bool IHaveVoted)\n    {return propositions[propositionNumber].hasUserVoted[msg.sender];}\n    function getLinkedOrgans() public view returns (address[] _linkedOrgans)\n    {return linkedOrgans;}\n\n}\n\n",
  "sourcePath": "/Users/henrilieutaud/Documents/Mes documents/97/Workshop/Kelsen/solidity/contracts/procedures/voteOnExpenseProcedure.sol",
  "compiler": {
    "name": "solc",
    "version": "0.4.19+commit.c4cbbb05.Emscripten.clang"
  },
  "schemaVersion": "2.0.0",
  "updatedAt": "2018-05-14T16:57:58.677Z"
}