{
  "contractName": "voteOnNormsProcedure",
  "abi": [
    {
      "constant": true,
      "inputs": [
        {
          "name": "",
          "type": "address"
        },
        {
          "name": "",
          "type": "uint256"
        }
      ],
      "name": "propositionToUser",
      "outputs": [
        {
          "name": "",
          "type": "uint256"
        }
      ],
      "payable": false,
      "stateMutability": "view",
      "type": "function"
    },
    {
      "constant": true,
      "inputs": [],
      "name": "procedureTypeNumber",
      "outputs": [
        {
          "name": "",
          "type": "int256"
        }
      ],
      "payable": false,
      "stateMutability": "view",
      "type": "function"
    },
    {
      "constant": true,
      "inputs": [],
      "name": "quorumSize",
      "outputs": [
        {
          "name": "",
          "type": "uint256"
        }
      ],
      "payable": false,
      "stateMutability": "view",
      "type": "function"
    },
    {
      "constant": true,
      "inputs": [
        {
          "name": "",
          "type": "address"
        },
        {
          "name": "",
          "type": "uint256"
        }
      ],
      "name": "propositionToPromulgator",
      "outputs": [
        {
          "name": "",
          "type": "uint256"
        }
      ],
      "payable": false,
      "stateMutability": "view",
      "type": "function"
    },
    {
      "constant": true,
      "inputs": [],
      "name": "kelsenVersionNumber",
      "outputs": [
        {
          "name": "",
          "type": "int256"
        }
      ],
      "payable": false,
      "stateMutability": "view",
      "type": "function"
    },
    {
      "constant": true,
      "inputs": [],
      "name": "membersWithVetoOrganContract",
      "outputs": [
        {
          "name": "",
          "type": "address"
        }
      ],
      "payable": false,
      "stateMutability": "view",
      "type": "function"
    },
    {
      "constant": true,
      "inputs": [
        {
          "name": "",
          "type": "address"
        },
        {
          "name": "",
          "type": "uint256"
        }
      ],
      "name": "propositionToVoter",
      "outputs": [
        {
          "name": "",
          "type": "uint256"
        }
      ],
      "payable": false,
      "stateMutability": "view",
      "type": "function"
    },
    {
      "constant": true,
      "inputs": [],
      "name": "finalPromulgatorsOrganContract",
      "outputs": [
        {
          "name": "",
          "type": "address"
        }
      ],
      "payable": false,
      "stateMutability": "view",
      "type": "function"
    },
    {
      "constant": true,
      "inputs": [],
      "name": "totalPropositionNumber",
      "outputs": [
        {
          "name": "",
          "type": "uint256"
        }
      ],
      "payable": false,
      "stateMutability": "view",
      "type": "function"
    },
    {
      "constant": true,
      "inputs": [],
      "name": "requiredMajorityNumerator",
      "outputs": [
        {
          "name": "",
          "type": "uint256"
        }
      ],
      "payable": false,
      "stateMutability": "view",
      "type": "function"
    },
    {
      "constant": true,
      "inputs": [],
      "name": "isAnOrgan",
      "outputs": [
        {
          "name": "",
          "type": "bool"
        }
      ],
      "payable": false,
      "stateMutability": "view",
      "type": "function"
    },
    {
      "constant": true,
      "inputs": [],
      "name": "procedureName",
      "outputs": [
        {
          "name": "",
          "type": "string"
        }
      ],
      "payable": false,
      "stateMutability": "view",
      "type": "function"
    },
    {
      "constant": true,
      "inputs": [],
      "name": "votingPeriodDuration",
      "outputs": [
        {
          "name": "",
          "type": "uint256"
        }
      ],
      "payable": false,
      "stateMutability": "view",
      "type": "function"
    },
    {
      "constant": true,
      "inputs": [
        {
          "name": "",
          "type": "uint256"
        }
      ],
      "name": "propositionsWaitingPromulgation",
      "outputs": [
        {
          "name": "",
          "type": "bool"
        }
      ],
      "payable": false,
      "stateMutability": "view",
      "type": "function"
    },
    {
      "constant": true,
      "inputs": [],
      "name": "promulgationPeriodDuration",
      "outputs": [
        {
          "name": "",
          "type": "uint256"
        }
      ],
      "payable": false,
      "stateMutability": "view",
      "type": "function"
    },
    {
      "constant": true,
      "inputs": [],
      "name": "votersOrganContract",
      "outputs": [
        {
          "name": "",
          "type": "address"
        }
      ],
      "payable": false,
      "stateMutability": "view",
      "type": "function"
    },
    {
      "constant": true,
      "inputs": [
        {
          "name": "",
          "type": "address"
        },
        {
          "name": "",
          "type": "uint256"
        }
      ],
      "name": "propositionToVetoer",
      "outputs": [
        {
          "name": "",
          "type": "uint256"
        }
      ],
      "payable": false,
      "stateMutability": "view",
      "type": "function"
    },
    {
      "constant": true,
      "inputs": [
        {
          "name": "",
          "type": "uint256"
        }
      ],
      "name": "propositionsWaitingEndOfVote",
      "outputs": [
        {
          "name": "",
          "type": "bool"
        }
      ],
      "payable": false,
      "stateMutability": "view",
      "type": "function"
    },
    {
      "constant": true,
      "inputs": [],
      "name": "isAProcedure",
      "outputs": [
        {
          "name": "",
          "type": "bool"
        }
      ],
      "payable": false,
      "stateMutability": "view",
      "type": "function"
    },
    {
      "constant": true,
      "inputs": [],
      "name": "requiredMajorityDenominator",
      "outputs": [
        {
          "name": "",
          "type": "uint256"
        }
      ],
      "payable": false,
      "stateMutability": "view",
      "type": "function"
    },
    {
      "constant": true,
      "inputs": [
        {
          "name": "",
          "type": "uint256"
        }
      ],
      "name": "linkedOrgans",
      "outputs": [
        {
          "name": "",
          "type": "address"
        }
      ],
      "payable": false,
      "stateMutability": "view",
      "type": "function"
    },
    {
      "constant": true,
      "inputs": [],
      "name": "affectedOrganContract",
      "outputs": [
        {
          "name": "",
          "type": "address"
        }
      ],
      "payable": false,
      "stateMutability": "view",
      "type": "function"
    },
    {
      "anonymous": false,
      "inputs": [
        {
          "indexed": false,
          "name": "_from",
          "type": "address"
        },
        {
          "indexed": false,
          "name": "_contractToAdd",
          "type": "address"
        },
        {
          "indexed": false,
          "name": "_contractToRemove",
          "type": "address"
        },
        {
          "indexed": false,
          "name": "_ipfsHash",
          "type": "bytes32"
        },
        {
          "indexed": false,
          "name": "_hash_function",
          "type": "uint8"
        },
        {
          "indexed": false,
          "name": "_size",
          "type": "uint8"
        }
      ],
      "name": "createPropositionEvent",
      "type": "event"
    },
    {
      "anonymous": false,
      "inputs": [
        {
          "indexed": false,
          "name": "_from",
          "type": "address"
        },
        {
          "indexed": false,
          "name": "_propositionNumber",
          "type": "uint256"
        }
      ],
      "name": "voteOnProposition",
      "type": "event"
    },
    {
      "anonymous": false,
      "inputs": [
        {
          "indexed": false,
          "name": "_from",
          "type": "address"
        },
        {
          "indexed": false,
          "name": "_propositionNumber",
          "type": "uint256"
        }
      ],
      "name": "vetoProposition",
      "type": "event"
    },
    {
      "anonymous": false,
      "inputs": [
        {
          "indexed": false,
          "name": "_from",
          "type": "address"
        },
        {
          "indexed": false,
          "name": "_propositionNumber",
          "type": "uint256"
        }
      ],
      "name": "countVotes",
      "type": "event"
    },
    {
      "anonymous": false,
      "inputs": [
        {
          "indexed": false,
          "name": "_from",
          "type": "address"
        },
        {
          "indexed": false,
          "name": "_propositionNumber",
          "type": "uint256"
        },
        {
          "indexed": false,
          "name": "_promulgate",
          "type": "bool"
        }
      ],
      "name": "promulgatePropositionEvent",
      "type": "event"
    },
    {
      "constant": false,
      "inputs": [
        {
          "name": "_contractToAdd",
          "type": "address"
        },
        {
          "name": "_contractToRemove",
          "type": "address"
        },
        {
          "name": "_ipfsHash",
          "type": "bytes32"
        },
        {
          "name": "_hash_function",
          "type": "uint8"
        },
        {
          "name": "_size",
          "type": "uint8"
        },
        {
          "name": "_name",
          "type": "string"
        }
      ],
      "name": "createProposition",
      "outputs": [
        {
          "name": "propositionNumber",
          "type": "uint256"
        }
      ],
      "payable": false,
      "stateMutability": "nonpayable",
      "type": "function"
    },
    {
      "constant": false,
      "inputs": [
        {
          "name": "_propositionNumber",
          "type": "uint256"
        },
        {
          "name": "_acceptProposition",
          "type": "bool"
        }
      ],
      "name": "vote",
      "outputs": [],
      "payable": false,
      "stateMutability": "nonpayable",
      "type": "function"
    },
    {
      "constant": false,
      "inputs": [
        {
          "name": "_propositionNumber",
          "type": "uint256"
        }
      ],
      "name": "veto",
      "outputs": [],
      "payable": false,
      "stateMutability": "nonpayable",
      "type": "function"
    },
    {
      "constant": false,
      "inputs": [
        {
          "name": "_propositionNumber",
          "type": "uint256"
        }
      ],
      "name": "endPropositionVote",
      "outputs": [
        {
          "name": "hasBeenAccepted",
          "type": "bool"
        }
      ],
      "payable": false,
      "stateMutability": "nonpayable",
      "type": "function"
    },
    {
      "constant": false,
      "inputs": [
        {
          "name": "_propositionNumber",
          "type": "uint256"
        },
        {
          "name": "_promulgate",
          "type": "bool"
        }
      ],
      "name": "promulgateProposition",
      "outputs": [],
      "payable": false,
      "stateMutability": "nonpayable",
      "type": "function"
    },
    {
      "constant": true,
      "inputs": [
        {
          "name": "_propositionNumber",
          "type": "uint256"
        }
      ],
      "name": "getPropositionDetails",
      "outputs": [
        {
          "name": "_addressToAdd",
          "type": "address"
        },
        {
          "name": "_addressToRemove",
          "type": "address"
        },
        {
          "name": "_ipfsHash",
          "type": "bytes32"
        },
        {
          "name": "_hash_function",
          "type": "uint8"
        },
        {
          "name": "_size",
          "type": "uint8"
        }
      ],
      "payable": false,
      "stateMutability": "view",
      "type": "function"
    },
    {
      "constant": true,
      "inputs": [
        {
          "name": "_propositionNumber",
          "type": "uint256"
        }
      ],
      "name": "getPropositionDates",
      "outputs": [
        {
          "name": "_startDate",
          "type": "uint256"
        },
        {
          "name": "_votingPeriodEndDate",
          "type": "uint256"
        },
        {
          "name": "_promulgatorWindowEndDate",
          "type": "uint256"
        }
      ],
      "payable": false,
      "stateMutability": "view",
      "type": "function"
    },
    {
      "constant": true,
      "inputs": [
        {
          "name": "_propositionNumber",
          "type": "uint256"
        }
      ],
      "name": "getPropositionStatus",
      "outputs": [
        {
          "name": "_wasCounted",
          "type": "bool"
        },
        {
          "name": "_wasEnded",
          "type": "bool"
        }
      ],
      "payable": false,
      "stateMutability": "view",
      "type": "function"
    },
    {
      "constant": true,
      "inputs": [
        {
          "name": "_propositionNumber",
          "type": "uint256"
        }
      ],
      "name": "getVotedPropositionResults",
      "outputs": [
        {
          "name": "_wasVetoed",
          "type": "bool"
        },
        {
          "name": "_wasAccepted",
          "type": "bool"
        }
      ],
      "payable": false,
      "stateMutability": "view",
      "type": "function"
    },
    {
      "constant": true,
      "inputs": [
        {
          "name": "_propositionNumber",
          "type": "uint256"
        }
      ],
      "name": "getVotedPropositionStats",
      "outputs": [
        {
          "name": "_totalVoters",
          "type": "uint256"
        },
        {
          "name": "_totalVoteCount",
          "type": "uint256"
        },
        {
          "name": "_voteFor",
          "type": "uint256"
        }
      ],
      "payable": false,
      "stateMutability": "view",
      "type": "function"
    },
    {
      "constant": true,
      "inputs": [
        {
          "name": "_userAddress",
          "type": "address"
        }
      ],
      "name": "getPropositionsCreatedByUser",
      "outputs": [
        {
          "name": "",
          "type": "uint256[]"
        }
      ],
      "payable": false,
      "stateMutability": "view",
      "type": "function"
    },
    {
      "constant": true,
      "inputs": [
        {
          "name": "_userAddress",
          "type": "address"
        }
      ],
      "name": "getPropositionsVetoedByUser",
      "outputs": [
        {
          "name": "",
          "type": "uint256[]"
        }
      ],
      "payable": false,
      "stateMutability": "view",
      "type": "function"
    },
    {
      "constant": true,
      "inputs": [
        {
          "name": "_userAddress",
          "type": "address"
        }
      ],
      "name": "getPropositionsPromulgatedByUser",
      "outputs": [
        {
          "name": "",
          "type": "uint256[]"
        }
      ],
      "payable": false,
      "stateMutability": "view",
      "type": "function"
    },
    {
      "constant": true,
      "inputs": [
        {
          "name": "_userAddress",
          "type": "address"
        }
      ],
      "name": "getPropositionsUsedByUser",
      "outputs": [
        {
          "name": "",
          "type": "uint256[]"
        }
      ],
      "payable": false,
      "stateMutability": "view",
      "type": "function"
    },
    {
      "constant": true,
      "inputs": [
        {
          "name": "propositionNumber",
          "type": "uint256"
        }
      ],
      "name": "haveIVoted",
      "outputs": [
        {
          "name": "IHaveVoted",
          "type": "bool"
        }
      ],
      "payable": false,
      "stateMutability": "view",
      "type": "function"
    },
    {
      "constant": true,
      "inputs": [],
      "name": "getLinkedOrgans",
      "outputs": [
        {
          "name": "_linkedOrgans",
          "type": "address[]"
        }
      ],
      "payable": false,
      "stateMutability": "view",
      "type": "function"
    },
    {
      "constant": true,
      "inputs": [],
      "name": "getProcedureName",
      "outputs": [
        {
          "name": "_procedureName",
          "type": "string"
        }
      ],
      "payable": false,
      "stateMutability": "view",
      "type": "function"
    }
  ],
  "bytecode": "0x60606040526000600460006101000a81548160ff0219169083151502179055506001600460016101000a81548160ff0219169083151502179055506005600655341561004a57600080fd5b61389c806100596000396000f3006060604052600436106101e3576000357c0100000000000000000000000000000000000000000000000000000000900463ffffffff1680630366af3d146101e857806305cf00571461022e57806307e7a224146102bc5780630b2e34b01461034a5780631d28dec7146103a05780632647d7f9146103c35780633068ef4d146103ec57806337443feb146104155780633c0848ee146104d45780635332eea11461056257806359908afe146105b85780635dbe4d281461064657806364cdd61e1461066f5780636a0ce3aa146106c45780636a95d38d1461079857806375ff60c4146107de578063880d3f54146108345780638f3b07a4146108895780639b88fba7146108b2578063a8bef97a146108db578063ac37af1c14610908578063adb4018b14610943578063aff7cfc7146109d1578063b5fdb88e14610a16578063c9d27afe14610a3f578063cb20a2fd14610a6d578063cd43eb1f14610afb578063cd87c2b614610b36578063ce784b7714610b5f578063ce88840314610bb4578063d64ff06314610bf9578063d858849414610c27578063e09ecb8714610c7d578063e36f6e4e14610cb8578063e570050114610cf3578063e80b30a514610d5d578063eb9141e914610d8a578063f2edc61614610db3578063fe7800e114610e16575b600080fd5b34156101f357600080fd5b6102096004808035906020019091905050610e6b565b6040518083151515158152602001821515151581526020019250505060405180910390f35b341561023957600080fd5b610265600480803573ffffffffffffffffffffffffffffffffffffffff16906020019091905050610ed3565b6040518080602001828103825283818151815260200191508051906020019060200280838360005b838110156102a857808201518184015260208101905061028d565b505050509050019250505060405180910390f35b34156102c757600080fd5b6102f3600480803573ffffffffffffffffffffffffffffffffffffffff16906020019091905050610f70565b6040518080602001828103825283818151815260200191508051906020019060200280838360005b8381101561033657808201518184015260208101905061031b565b505050509050019250505060405180910390f35b341561035557600080fd5b61038a600480803573ffffffffffffffffffffffffffffffffffffffff1690602001909190803590602001909190505061100d565b6040518082815260200191505060405180910390f35b34156103ab57600080fd5b6103c1600480803590602001909190505061103e565b005b34156103ce57600080fd5b6103d66112a8565b6040518082815260200191505060405180910390f35b34156103f757600080fd5b6103ff6112ae565b6040518082815260200191505060405180910390f35b341561042057600080fd5b61043660048080359060200190919050506112b4565b604051808673ffffffffffffffffffffffffffffffffffffffff1673ffffffffffffffffffffffffffffffffffffffff1681526020018573ffffffffffffffffffffffffffffffffffffffff1673ffffffffffffffffffffffffffffffffffffffff16815260200184600019166000191681526020018360ff1660ff1681526020018260ff1660ff1681526020019550505050505060405180910390f35b34156104df57600080fd5b61050b600480803573ffffffffffffffffffffffffffffffffffffffff169060200190919050506113ce565b6040518080602001828103825283818151815260200191508051906020019060200280838360005b8381101561054e578082015181840152602081019050610533565b505050509050019250505060405180910390f35b341561056d57600080fd5b6105a2600480803573ffffffffffffffffffffffffffffffffffffffff1690602001909190803590602001909190505061146b565b6040518082815260200191505060405180910390f35b34156105c357600080fd5b6105cb61149c565b6040518080602001828103825283818151815260200191508051906020019080838360005b8381101561060b5780820151818401526020810190506105f0565b50505050905090810190601f1680156106385780820380516001836020036101000a031916815260200191505b509250505060405180910390f35b341561065157600080fd5b610659611544565b6040518082815260200191505060405180910390f35b341561067a57600080fd5b61068261154a565b604051808273ffffffffffffffffffffffffffffffffffffffff1673ffffffffffffffffffffffffffffffffffffffff16815260200191505060405180910390f35b34156106cf57600080fd5b610782600480803573ffffffffffffffffffffffffffffffffffffffff1690602001909190803573ffffffffffffffffffffffffffffffffffffffff169060200190919080356000191690602001909190803560ff1690602001909190803560ff1690602001909190803590602001908201803590602001908080601f01602080910402602001604051908101604052809392919081815260200183838082843782019150505050505091905050611570565b6040518082815260200191505060405180910390f35b34156107a357600080fd5b6107b96004808035906020019091905050611b85565b6040518083151515158152602001821515151581526020019250505060405180910390f35b34156107e957600080fd5b61081e600480803573ffffffffffffffffffffffffffffffffffffffff16906020019091908035906020019091905050611c26565b6040518082815260200191505060405180910390f35b341561083f57600080fd5b610847611c57565b604051808273ffffffffffffffffffffffffffffffffffffffff1673ffffffffffffffffffffffffffffffffffffffff16815260200191505060405180910390f35b341561089457600080fd5b61089c611c7d565b6040518082815260200191505060405180910390f35b34156108bd57600080fd5b6108c5611c83565b6040518082815260200191505060405180910390f35b34156108e657600080fd5b6108ee611c89565b604051808215151515815260200191505060405180910390f35b341561091357600080fd5b6109296004808035906020019091905050611c9c565b604051808215151515815260200191505060405180910390f35b341561094e57600080fd5b610956611d10565b6040518080602001828103825283818151815260200191508051906020019080838360005b8381101561099657808201518184015260208101905061097b565b50505050905090810190601f1680156109c35780820380516001836020036101000a031916815260200191505b509250505060405180910390f35b34156109dc57600080fd5b6109f26004808035906020019091905050611dae565b60405180848152602001838152602001828152602001935050505060405180910390f35b3415610a2157600080fd5b610a29611e5c565b6040518082815260200191505060405180910390f35b3415610a4a57600080fd5b610a6b60048080359060200190919080351515906020019091905050611e62565b005b3415610a7857600080fd5b610aa4600480803573ffffffffffffffffffffffffffffffffffffffff169060200190919050506121ed565b6040518080602001828103825283818151815260200191508051906020019060200280838360005b83811015610ae7578082015181840152602081019050610acc565b505050509050019250505060405180910390f35b3415610b0657600080fd5b610b1c600480803590602001909190505061228a565b604051808215151515815260200191505060405180910390f35b3415610b4157600080fd5b610b496122bd565b6040518082815260200191505060405180910390f35b3415610b6a57600080fd5b610b726122c3565b604051808273ffffffffffffffffffffffffffffffffffffffff1673ffffffffffffffffffffffffffffffffffffffff16815260200191505060405180910390f35b3415610bbf57600080fd5b610bd560048080359060200190919050506122e9565b60405180848152602001838152602001828152602001935050505060405180910390f35b3415610c0457600080fd5b610c2560048080359060200190919080351515906020019091905050612362565b005b3415610c3257600080fd5b610c67600480803573ffffffffffffffffffffffffffffffffffffffff16906020019091908035906020019091905050612fa0565b6040518082815260200191505060405180910390f35b3415610c8857600080fd5b610c9e6004808035906020019091905050612fd1565b604051808215151515815260200191505060405180910390f35b3415610cc357600080fd5b610cd96004808035906020019091905050613386565b604051808215151515815260200191505060405180910390f35b3415610cfe57600080fd5b610d066133b9565b6040518080602001828103825283818151815260200191508051906020019060200280838360005b83811015610d49578082015181840152602081019050610d2e565b505050509050019250505060405180910390f35b3415610d6857600080fd5b610d7061344d565b604051808215151515815260200191505060405180910390f35b3415610d9557600080fd5b610d9d613460565b6040518082815260200191505060405180910390f35b3415610dbe57600080fd5b610dd46004808035906020019091905050613466565b604051808273ffffffffffffffffffffffffffffffffffffffff1673ffffffffffffffffffffffffffffffffffffffff16815260200191505060405180910390f35b3415610e2157600080fd5b610e296134a5565b604051808273ffffffffffffffffffffffffffffffffffffffff1673ffffffffffffffffffffffffffffffffffffffff16815260200191505060405180910390f35b600080601383815481101515610e7d57fe5b90600052602060002090600b020160080160019054906101000a900460ff16601384815481101515610eab57fe5b90600052602060002090600b020160080160039054906101000a900460ff1691509150915091565b610edb6134cb565b601760008373ffffffffffffffffffffffffffffffffffffffff1673ffffffffffffffffffffffffffffffffffffffff168152602001908152602001600020805480602002602001604051908101604052809291908181526020018280548015610f6457602002820191906000526020600020905b815481526020019060010190808311610f50575b50505050509050919050565b610f786134cb565b601960008373ffffffffffffffffffffffffffffffffffffffff1673ffffffffffffffffffffffffffffffffffffffff16815260200190815260200160002080548060200260200160405190810160405280929190818152602001828054801561100157602002820191906000526020600020905b815481526020019060010190808311610fed575b50505050509050919050565b60166020528160005260406000208181548110151561102857fe5b9060005260206000209001600091509150505481565b6000600a60009054906101000a900473ffffffffffffffffffffffffffffffffffffffff1690508073ffffffffffffffffffffffffffffffffffffffff1663d323a4f8336000604051602001526040518263ffffffff167c0100000000000000000000000000000000000000000000000000000000028152600401808273ffffffffffffffffffffffffffffffffffffffff1673ffffffffffffffffffffffffffffffffffffffff168152602001915050602060405180830381600087803b151561110857600080fd5b6102c65a03f1151561111957600080fd5b50505060405180519050151561112e57600080fd5b6000905060138281548110151561114157fe5b90600052602060002090600b020160080160019054906101000a900460ff1615151561116c57600080fd5b4260138381548110151561117c57fe5b90600052602060002090600b02016007015411151561119a57600080fd5b60016013838154811015156111ab57fe5b90600052602060002090600b020160080160006101000a81548160ff021916908315150217905550601860003373ffffffffffffffffffffffffffffffffffffffff1673ffffffffffffffffffffffffffffffffffffffff168152602001908152602001600020805480600101828161122491906134df565b9160005260206000209001600084909190915055507f62901d9c2f788a5c877cf5a2659a041eedf9a980c6dd3ed22a4878bcc228619b3383604051808373ffffffffffffffffffffffffffffffffffffffff1673ffffffffffffffffffffffffffffffffffffffff1681526020018281526020019250505060405180910390a15050565b60065481565b600f5481565b60008060008060006013868154811015156112cb57fe5b90600052602060002090600b020160000160009054906101000a900473ffffffffffffffffffffffffffffffffffffffff1660138781548110151561130c57fe5b90600052602060002090600b020160010160009054906101000a900473ffffffffffffffffffffffffffffffffffffffff1660138881548110151561134d57fe5b90600052602060002090600b02016002015460138981548110151561136e57fe5b90600052602060002090600b020160030160009054906101000a900460ff1660138a81548110151561139c57fe5b90600052602060002090600b020160030160019054906101000a900460ff169450945094509450945091939590929450565b6113d66134cb565b601860008373ffffffffffffffffffffffffffffffffffffffff1673ffffffffffffffffffffffffffffffffffffffff16815260200190815260200160002080548060200260200160405190810160405280929190818152602001828054801561145f57602002820191906000526020600020905b81548152602001906001019080831161144b575b50505050509050919050565b60196020528160005260406000208181548110151561148657fe5b9060005260206000209001600091509150505481565b6114a461350b565b60078054600181600116156101000203166002900480601f01602080910402602001604051908101604052809291908181526020018280546001816001161561010002031660029004801561153a5780601f1061150f5761010080835404028352916020019161153a565b820191906000526020600020905b81548152906001019060200180831161151d57829003601f168201915b5050505050905090565b60005481565b600a60009054906101000a900473ffffffffffffffffffffffffffffffffffffffff1681565b60008061157b61351f565b600960009054906101000a900473ffffffffffffffffffffffffffffffffffffffff1691508173ffffffffffffffffffffffffffffffffffffffff1663d323a4f8336000604051602001526040518263ffffffff167c0100000000000000000000000000000000000000000000000000000000028152600401808273ffffffffffffffffffffffffffffffffffffffff1673ffffffffffffffffffffffffffffffffffffffff168152602001915050602060405180830381600087803b151561164357600080fd5b6102c65a03f1151561165457600080fd5b50505060405180519050151561166957600080fd5b6000915088816000019073ffffffffffffffffffffffffffffffffffffffff16908173ffffffffffffffffffffffffffffffffffffffff168152505087816020019073ffffffffffffffffffffffffffffffffffffffff16908173ffffffffffffffffffffffffffffffffffffffff1681525050868160400190600019169081600019168152505085816060019060ff16908160ff168152505084816080019060ff16908160ff1681525050838160a00181905250428160c0018181525050600d5442018160e00181815250506000816101000190151590811515815250506000816101600190151590811515815250506000816101200190151590811515815250506000816101400190151590811515815250506000816101a0018181525050600081610180018181525050601380548060010182816117aa91906135d2565b91600052602060002090600b0201600083909190915060008201518160000160006101000a81548173ffffffffffffffffffffffffffffffffffffffff021916908373ffffffffffffffffffffffffffffffffffffffff16021790555060208201518160010160006101000a81548173ffffffffffffffffffffffffffffffffffffffff021916908373ffffffffffffffffffffffffffffffffffffffff1602179055506040820151816002019060001916905560608201518160030160006101000a81548160ff021916908360ff16021790555060808201518160030160016101000a81548160ff021916908360ff16021790555060a08201518160040190805190602001906118bc929190613604565b5060c0820151816006015560e082015181600701556101008201518160080160006101000a81548160ff0219169083151502179055506101208201518160080160016101000a81548160ff0219169083151502179055506101408201518160080160026101000a81548160ff0219169083151502179055506101608201518160080160036101000a81548160ff02191690831515021790555061018082015181600901556101a082015181600a015550505061197661351f565b905060016013805490500392506001601060008282540192505081905550601660003373ffffffffffffffffffffffffffffffffffffffff1673ffffffffffffffffffffffffffffffffffffffff16815260200190815260200160002080548060010182816119e591906134df565b91600052602060002090016000859091909150555060148054806001018281611a0e9190613684565b91600052602060002090602091828204019190066001909190916101000a81548160ff0219169083151502179055505060158054806001018281611a529190613684565b91600052602060002090602091828204019190066000909190916101000a81548160ff021916908315150217905550507fcbae1a68d02d2d9470bb1902dd80b406384bbcba468813051691b7ae8af0baa9338a8a8a8a8a604051808773ffffffffffffffffffffffffffffffffffffffff1673ffffffffffffffffffffffffffffffffffffffff1681526020018673ffffffffffffffffffffffffffffffffffffffff1673ffffffffffffffffffffffffffffffffffffffff1681526020018573ffffffffffffffffffffffffffffffffffffffff1673ffffffffffffffffffffffffffffffffffffffff16815260200184600019166000191681526020018360ff1660ff1681526020018260ff1660ff168152602001965050505050505060405180910390a150509695505050505050565b600080601383815481101515611b9757fe5b90600052602060002090600b020160080160019054906101000a900460ff161515611bc157600080fd5b601383815481101515611bd057fe5b90600052602060002090600b020160080160009054906101000a900460ff16601384815481101515611bfe57fe5b90600052602060002090600b020160080160029054906101000a900460ff1691509150915091565b601760205281600052604060002081815481101515611c4157fe5b9060005260206000209001600091509150505481565b600b60009054906101000a900473ffffffffffffffffffffffffffffffffffffffff1681565b60105481565b60115481565b600460009054906101000a900460ff1681565b6000601382815481101515611cad57fe5b90600052602060002090600b020160050160003373ffffffffffffffffffffffffffffffffffffffff1673ffffffffffffffffffffffffffffffffffffffff16815260200190815260200160002060009054906101000a900460ff169050919050565b60078054600181600116156101000203166002900480601f016020809104026020016040519081016040528092919081815260200182805460018160011615610100020316600290048015611da65780601f10611d7b57610100808354040283529160200191611da6565b820191906000526020600020905b815481529060010190602001808311611d8957829003601f168201915b505050505081565b6000806000601384815481101515611dc257fe5b90600052602060002090600b020160080160019054906101000a900460ff161515611dec57600080fd5b601384815481101515611dfb57fe5b90600052602060002090600b0201600a0154601385815481101515611e1c57fe5b90600052602060002090600b0201600a0154601386815481101515611e3d57fe5b90600052602060002090600b0201600901549250925092509193909250565b600d5481565b6000600960009054906101000a900473ffffffffffffffffffffffffffffffffffffffff1690508073ffffffffffffffffffffffffffffffffffffffff1663d323a4f8336000604051602001526040518263ffffffff167c0100000000000000000000000000000000000000000000000000000000028152600401808273ffffffffffffffffffffffffffffffffffffffff1673ffffffffffffffffffffffffffffffffffffffff168152602001915050602060405180830381600087803b1515611f2c57600080fd5b6102c65a03f11515611f3d57600080fd5b505050604051805190501515611f5257600080fd5b60009050601383815481101515611f6557fe5b90600052602060002090600b020160050160003373ffffffffffffffffffffffffffffffffffffffff1673ffffffffffffffffffffffffffffffffffffffff16815260200190815260200160002060009054906101000a900460ff16151515611fcd57600080fd5b601383815481101515611fdc57fe5b90600052602060002090600b020160080160019054906101000a900460ff1615151561200757600080fd5b4260138481548110151561201757fe5b90600052602060002090600b02016007015411151561203557600080fd5b60011515821515141561207257600160138481548110151561205357fe5b90600052602060002090600b0201600901600082825401925050819055505b600160138481548110151561208357fe5b90600052602060002090600b020160050160003373ffffffffffffffffffffffffffffffffffffffff1673ffffffffffffffffffffffffffffffffffffffff16815260200190815260200160002060006101000a81548160ff02191690831515021790555060016013848154811015156120f957fe5b90600052602060002090600b0201600a0160008282540192505081905550601760003373ffffffffffffffffffffffffffffffffffffffff1673ffffffffffffffffffffffffffffffffffffffff168152602001908152602001600020805480600101828161216891906134df565b9160005260206000209001600085909190915055507fd1faddd599b0d6b58c83de71d7ff5395895b5891894dcd37f2482f33b2a1c43d3384604051808373ffffffffffffffffffffffffffffffffffffffff1673ffffffffffffffffffffffffffffffffffffffff1681526020018281526020019250505060405180910390a1505050565b6121f56134cb565b601660008373ffffffffffffffffffffffffffffffffffffffff1673ffffffffffffffffffffffffffffffffffffffff16815260200190815260200160002080548060200260200160405190810160405280929190818152602001828054801561227e57602002820191906000526020600020905b81548152602001906001019080831161226a575b50505050509050919050565b60158181548110151561229957fe5b9060005260206000209060209182820401919006915054906101000a900460ff1681565b600e5481565b600960009054906101000a900473ffffffffffffffffffffffffffffffffffffffff1681565b60008060006013848154811015156122fd57fe5b90600052602060002090600b02016006015460138581548110151561231e57fe5b90600052602060002090600b020160070154600e5460138781548110151561234257fe5b90600052602060002090600b020160070154019250925092509193909250565b60008060138481548110151561237457fe5b90600052602060002090600b020160080160039054906101000a900460ff1615151561239f57600080fd5b6013848154811015156123ae57fe5b90600052602060002090600b020160080160019054906101000a900460ff1615156123d857600080fd5b600e546013858154811015156123ea57fe5b90600052602060002090600b020160070154014210156124fb57600b60009054906101000a900473ffffffffffffffffffffffffffffffffffffffff1691508173ffffffffffffffffffffffffffffffffffffffff1663d323a4f8336000604051602001526040518263ffffffff167c0100000000000000000000000000000000000000000000000000000000028152600401808273ffffffffffffffffffffffffffffffffffffffff1673ffffffffffffffffffffffffffffffffffffffff168152602001915050602060405180830381600087803b15156124cc57600080fd5b6102c65a03f115156124dd57600080fd5b5050506040518051905015156124f257600080fd5b60009150612508565b82151561250757600080fd5b5b60138481548110151561251757fe5b90600052602060002090600b020160080160029054906101000a900460ff16151561254157600080fd5b8215806126065750600060138581548110151561255a57fe5b90600052602060002090600b020160000160009054906101000a900473ffffffffffffffffffffffffffffffffffffffff1673ffffffffffffffffffffffffffffffffffffffff16148015612605575060006013858154811015156125bb57fe5b90600052602060002090600b020160010160009054906101000a900473ffffffffffffffffffffffffffffffffffffffff1673ffffffffffffffffffffffffffffffffffffffff16145b5b1561264957600160138581548110151561261c57fe5b90600052602060002090600b020160080160036101000a81548160ff021916908315150217905550612e4a565b600860009054906101000a900473ffffffffffffffffffffffffffffffffffffffff169050600060138581548110151561267f57fe5b90600052602060002090600b020160000160009054906101000a900473ffffffffffffffffffffffffffffffffffffffff1673ffffffffffffffffffffffffffffffffffffffff16141515612cc95760006013858154811015156126df57fe5b90600052602060002090600b020160010160009054906101000a900473ffffffffffffffffffffffffffffffffffffffff1673ffffffffffffffffffffffffffffffffffffffff16141515612a75578073ffffffffffffffffffffffffffffffffffffffff1663cd26b87b8273ffffffffffffffffffffffffffffffffffffffff16635549ea5160138881548110151561277557fe5b90600052602060002090600b020160010160009054906101000a900473ffffffffffffffffffffffffffffffffffffffff166000604051602001526040518263ffffffff167c0100000000000000000000000000000000000000000000000000000000028152600401808273ffffffffffffffffffffffffffffffffffffffff1673ffffffffffffffffffffffffffffffffffffffff168152602001915050602060405180830381600087803b151561282d57600080fd5b6102c65a03f1151561283e57600080fd5b5050506040518051905060138781548110151561285757fe5b90600052602060002090600b020160000160009054906101000a900473ffffffffffffffffffffffffffffffffffffffff1660138881548110151561289857fe5b90600052602060002090600b02016004016013898154811015156128b857fe5b90600052602060002090600b02016002015460138a8154811015156128d957fe5b90600052602060002090600b020160030160009054906101000a900460ff1660138b81548110151561290757fe5b90600052602060002090600b020160030160019054906101000a900460ff166040518763ffffffff167c0100000000000000000000000000000000000000000000000000000000028152600401808781526020018673ffffffffffffffffffffffffffffffffffffffff1673ffffffffffffffffffffffffffffffffffffffff1681526020018060200185600019166000191681526020018460ff1660ff1681526020018360ff1660ff168152602001828103825286818154600181600116156101000203166002900481526020019150805460018160011615610100020316600290048015612a385780601f10612a0d57610100808354040283529160200191612a38565b820191906000526020600020905b815481529060010190602001808311612a1b57829003601f168201915b5050975050505050505050600060405180830381600087803b1515612a5c57600080fd5b6102c65a03f11515612a6d57600080fd5b505050612cc4565b8073ffffffffffffffffffffffffffffffffffffffff1663696c5219601386815481101515612aa057fe5b90600052602060002090600b020160000160009054906101000a900473ffffffffffffffffffffffffffffffffffffffff16601387815481101515612ae157fe5b90600052602060002090600b0201600401601388815481101515612b0157fe5b90600052602060002090600b020160020154601389815481101515612b2257fe5b90600052602060002090600b020160030160009054906101000a900460ff1660138a815481101515612b5057fe5b90600052602060002090600b020160030160019054906101000a900460ff166000604051602001526040518663ffffffff167c0100000000000000000000000000000000000000000000000000000000028152600401808673ffffffffffffffffffffffffffffffffffffffff1673ffffffffffffffffffffffffffffffffffffffff1681526020018060200185600019166000191681526020018460ff1660ff1681526020018360ff1660ff168152602001828103825286818154600181600116156101000203166002900481526020019150805460018160011615610100020316600290048015612c845780601f10612c5957610100808354040283529160200191612c84565b820191906000526020600020905b815481529060010190602001808311612c6757829003601f168201915b50509650505050505050602060405180830381600087803b1515612ca757600080fd5b6102c65a03f11515612cb857600080fd5b50505060405180519050505b612e49565b8073ffffffffffffffffffffffffffffffffffffffff16630e9defff8273ffffffffffffffffffffffffffffffffffffffff16635549ea51601388815481101515612d1057fe5b90600052602060002090600b020160010160009054906101000a900473ffffffffffffffffffffffffffffffffffffffff166000604051602001526040518263ffffffff167c0100000000000000000000000000000000000000000000000000000000028152600401808273ffffffffffffffffffffffffffffffffffffffff1673ffffffffffffffffffffffffffffffffffffffff168152602001915050602060405180830381600087803b1515612dc857600080fd5b6102c65a03f11515612dd957600080fd5b505050604051805190506040518263ffffffff167c010000000000000000000000000000000000000000000000000000000002815260040180828152602001915050600060405180830381600087803b1515612e3457600080fd5b6102c65a03f11515612e4557600080fd5b5050505b5b6001601385815481101515612e5b57fe5b90600052602060002090600b020160080160036101000a81548160ff0219169083151502179055506000601585815481101515612e9457fe5b90600052602060002090602091828204019190066101000a81548160ff021916908315150217905550601960003373ffffffffffffffffffffffffffffffffffffffff1673ffffffffffffffffffffffffffffffffffffffff1681526020019081526020016000208054806001018281612f0e91906134df565b9160005260206000209001600086909190915055507fed7c73834db4ae22add7f637175d8a32a1dddae4c154ccd25195b77df4c8d18d338585604051808473ffffffffffffffffffffffffffffffffffffffff1673ffffffffffffffffffffffffffffffffffffffff16815260200183815260200182151515158152602001935050505060405180910390a150505050565b601860205281600052604060002081815481101515612fbb57fe5b9060005260206000209001600091509150505481565b600080601383815481101515612fe357fe5b90600052602060002090600b020160080160019054906101000a900460ff1615151561300e57600080fd5b4260138481548110151561301e57fe5b90600052602060002090600b02016007015410151561303c57600080fd5b600960009054906101000a900473ffffffffffffffffffffffffffffffffffffffff16905060138381548110151561307057fe5b90600052602060002090600b020160080160009054906101000a900460ff16156130d6576000915060016013848154811015156130a957fe5b90600052602060002090600b020160080160036101000a81548160ff021916908315150217905550613230565b8073ffffffffffffffffffffffffffffffffffffffff1663234d34de6000604051602001526040518163ffffffff167c0100000000000000000000000000000000000000000000000000000000028152600401602060405180830381600087803b151561314257600080fd5b6102c65a03f1151561315357600080fd5b50505060405180519050600f5402606460138581548110151561317257fe5b90600052602060002090600b0201600a015402101580156131e3575060138381548110151561319d57fe5b90600052602060002090600b0201600a01546011546012546013868154811015156131c457fe5b90600052602060002090600b020160090154028115156131e057fe5b04115b156131f1576001915061322f565b60009150600160138481548110151561320657fe5b90600052602060002090600b020160080160036101000a81548160ff0219169083151502179055505b5b600160138481548110151561324157fe5b90600052602060002090600b020160080160016101000a81548160ff0219169083151502179055508160138481548110151561327957fe5b90600052602060002090600b020160080160026101000a81548160ff02191690831515021790555060006014848154811015156132b257fe5b90600052602060002090602091828204019190066101000a81548160ff02191690831515021790555060016015848154811015156132ec57fe5b90600052602060002090602091828204019190066101000a81548160ff0219169083151502179055507f297f1f08d2ef8c90272f7ee3e1d4272015a96cdff8a252b60547b9e432e723603384604051808373ffffffffffffffffffffffffffffffffffffffff1673ffffffffffffffffffffffffffffffffffffffff1681526020018281526020019250505060405180910390a150919050565b60148181548110151561339557fe5b9060005260206000209060209182820401919006915054906101000a900460ff1681565b6133c16136be565b600c80548060200260200160405190810160405280929190818152602001828054801561344357602002820191906000526020600020905b8160009054906101000a900473ffffffffffffffffffffffffffffffffffffffff1673ffffffffffffffffffffffffffffffffffffffff16815260200190600101908083116133f9575b5050505050905090565b600460019054906101000a900460ff1681565b60125481565b600c8181548110151561347557fe5b90600052602060002090016000915054906101000a900473ffffffffffffffffffffffffffffffffffffffff1681565b600860009054906101000a900473ffffffffffffffffffffffffffffffffffffffff1681565b602060405190810160405280600081525090565b8154818355818115116135065781836000526020600020918201910161350591906136d2565b5b505050565b602060405190810160405280600081525090565b6101c060405190810160405280600073ffffffffffffffffffffffffffffffffffffffff168152602001600073ffffffffffffffffffffffffffffffffffffffff16815260200160008019168152602001600060ff168152602001600060ff16815260200161358c6136f7565b8152602001600081526020016000815260200160001515815260200160001515815260200160001515815260200160001515815260200160008152602001600081525090565b8154818355818115116135ff57600b0281600b0283600052602060002091820191016135fe919061370b565b5b505050565b828054600181600116156101000203166002900490600052602060002090601f016020900481019282601f1061364557805160ff1916838001178555613673565b82800160010185558215613673579182015b82811115613672578251825591602001919060010190613657565b5b50905061368091906136d2565b5090565b8154818355818115116136b957601f016020900481601f016020900483600052602060002091820191016136b891906136d2565b5b505050565b602060405190810160405280600081525090565b6136f491905b808211156136f05760008160009055506001016136d8565b5090565b90565b602060405190810160405280600081525090565b61382591905b8082111561382157600080820160006101000a81549073ffffffffffffffffffffffffffffffffffffffff02191690556001820160006101000a81549073ffffffffffffffffffffffffffffffffffffffff021916905560028201600090556003820160006101000a81549060ff02191690556003820160016101000a81549060ff02191690556004820160006137a89190613828565b600682016000905560078201600090556008820160006101000a81549060ff02191690556008820160016101000a81549060ff02191690556008820160026101000a81549060ff02191690556008820160036101000a81549060ff02191690556009820160009055600a82016000905550600b01613711565b5090565b90565b50805460018160011615610100020316600290046000825580601f1061384e575061386d565b601f01602090049060005260206000209081019061386c91906136d2565b5b505600a165627a7a72305820a6bba9be3122bfbd7d291cbbccab1b03aa8f9c87ddaf88768f7a458d94ca50770029",
  "source": "pragma solidity ^0.4.11;\n\n// Standard contract for promulgation of a norm\n\nimport \"../standardProcedure.sol\";\nimport \"../standardOrgan.sol\";\n\n\ncontract voteOnNormsProcedure is Procedure{\n    // 1: Cyclical many to one election (Presidential Election)\n    // 2: Cyclical many to many election (Moderators Election)\n    // 3: Simple norm nomination \n    // 4: Simple admins and master nomination\n    // 5: Vote on Norms \n    // 6: Vote on masters and admins \n    // 7: Cooptation\n    int public procedureTypeNumber = 5;\n\n    // Storage for procedure name\n    string public procedureName;\n\n    // Which organ will be affected\n    address public affectedOrganContract;\n\n    // Organ in which the voters are registered\n    address public votersOrganContract;\n\n    // Organ in which the voters with veto power are registered\n    address public membersWithVetoOrganContract;\n\n    // Organ in which final promulgators are listed\n    address public finalPromulgatorsOrganContract;\n\n    // Gathering connected organs for easier DAO mapping\n    address[] public linkedOrgans;\n\n    // ############## Variable to set up when declaring the procedure\n    // ####### Vote creation process\n\n    // ####### Voting process\n    // Time for participant to vote\n    uint public votingPeriodDuration;\n\n    // Time for president to promulgat\n    uint public promulgationPeriodDuration;\n\n    // ####### Resolution process\n    // Minimum participation to validate election\n    uint public quorumSize;\n\n    // Variable of the procedure to keep track of propositions\n    uint public totalPropositionNumber;\n\n    // Variables to measure vote threshold. If majority threshold is 3/5, then requiredMajorityNumerator= 3 and requiredMajorityDenominator = 5\n    uint public requiredMajorityNumerator;\n    uint public requiredMajorityDenominator;\n\n    // Proposition structure\n    struct Proposition {\n\n        // Proposition details\n        address contractToAdd;\n        address contractToRemove;\n        bytes32 ipfsHash; // ID of proposal on IPFS\n        uint8 hash_function;\n        uint8 size;\n        string name;\n\n        // **** Voting variables\n        // Mapping to track user votes\n        mapping(address => bool) hasUserVoted;\n        uint startDate;\n        uint votingPeriodEndDate;\n        bool wasVetoed;\n        bool wasCounted;\n        bool wasAccepted;\n        bool wasEnded;\n        uint voteFor;\n        // uint voteAgainst;\n        uint totalVoteCount;\n    }\n\n\n\n    // A dynamically-sized array of `Proposition` structs.\n    Proposition[] propositions;\n\n    // Dynamic size array of status of propositions\n    bool[] public propositionsWaitingEndOfVote;\n    bool[] public propositionsWaitingPromulgation;\n\n    // Mapping each proposition to the user creating it\n    mapping (address => uint[]) public propositionToUser;    \n\n    // Mapping each proposition to the user who participated\n    mapping (address => uint[]) public propositionToVoter;\n\n    // Mapping each proposition to the user vetoing it\n    mapping (address => uint[]) public propositionToVetoer;\n\n    // Mapping each proposition to the user promulgating it\n    mapping (address => uint[]) public propositionToPromulgator;\n\n    \n\n    // Events\n    event createPropositionEvent(address _from, address _contractToAdd, address _contractToRemove, bytes32 _ipfsHash, uint8 _hash_function, uint8 _size);\n    event voteOnProposition(address _from, uint _propositionNumber);\n    event vetoProposition(address _from, uint _propositionNumber);\n    event countVotes(address _from, uint _propositionNumber);\n    event promulgatePropositionEvent(address _from, uint _propositionNumber, bool _promulgate);\n\n    /// Create a new ballot to choose one of `proposalNames`.\n    function createProposition(address _contractToAdd, address _contractToRemove, bytes32 _ipfsHash, uint8 _hash_function, uint8 _size, string _name) public returns (uint propositionNumber){\n\n            // Check the proposition creator is able to make a proposition\n            Organ voterRegistryOrgan = Organ(votersOrganContract);\n            require(voterRegistryOrgan.isNorm(msg.sender));\n            delete voterRegistryOrgan;\n\n            // Retrieving proposition details\n            Proposition memory newProposition;\n            newProposition.contractToAdd = _contractToAdd;\n            newProposition.contractToRemove = _contractToRemove;\n            newProposition.ipfsHash = _ipfsHash;\n            newProposition.hash_function = _hash_function;\n            newProposition.size = _size;\n            newProposition.name = _name;\n\n            // Instanciating proposition\n\n            newProposition.startDate = now;\n            newProposition.votingPeriodEndDate = now + votingPeriodDuration;            \n            newProposition.wasVetoed = false;\n            newProposition.wasEnded = false;\n            newProposition.wasCounted = false;\n            newProposition.wasAccepted = false;\n            newProposition.totalVoteCount = 0;\n            newProposition.voteFor = 0;\n            // newProposition.voteAgainst = 0;\n            propositions.push(newProposition);\n            delete newProposition;\n\n            propositionNumber = propositions.length - 1;\n\n            // Tracking proposition being deposed\n            totalPropositionNumber += 1;\n            propositionToUser[msg.sender].push(propositionNumber);\n            propositionsWaitingEndOfVote.push(true);\n            propositionsWaitingPromulgation.push(false);\n\n            // proposition creation event\n            createPropositionEvent(msg.sender, _contractToAdd, _contractToRemove, _ipfsHash, _hash_function, _size);\n\n    }\n\n    /// Vote for a proposition\n    function vote(uint _propositionNumber, bool _acceptProposition) public {\n        // Check the voter is able to vote on a proposition\n        Organ voterRegistryOrgan = Organ(votersOrganContract);\n        require(voterRegistryOrgan.isNorm(msg.sender));\n        delete voterRegistryOrgan;\n        \n        // Check if voter already voted\n        require(!propositions[_propositionNumber].hasUserVoted[msg.sender]);\n\n        // Check if vote is still active\n        require(!propositions[_propositionNumber].wasCounted);\n\n        // Check if voting period ended\n        require(propositions[_propositionNumber].votingPeriodEndDate > now);\n\n        // Adding vote\n        if(_acceptProposition == true)\n        {propositions[_propositionNumber].voteFor += 1;}\n\n        // Loggin that user voted\n        propositions[_propositionNumber].hasUserVoted[msg.sender] = true;\n        \n        // Adding vote count\n        propositions[_propositionNumber].totalVoteCount += 1;\n\n        // Logging that user voted\n        propositionToVoter[msg.sender].push(_propositionNumber);\n\n        // create vote event\n        voteOnProposition(msg.sender, _propositionNumber);\n    }\n\n        /// Vote for a candidate\n    function veto(uint _propositionNumber) public {\n\n        // Check the voter is able to veto the proposition\n        Organ membersWithVetoOrgan = Organ(membersWithVetoOrganContract);\n        require(membersWithVetoOrgan.isNorm(msg.sender));\n        delete membersWithVetoOrgan;\n        \n        // Check if vote is still active\n        require(!propositions[_propositionNumber].wasCounted);\n\n        // Check if voting period ended\n        require(propositions[_propositionNumber].votingPeriodEndDate > now);\n\n        // Log that proposition was vetoed\n        propositions[_propositionNumber].wasVetoed = true;\n\n        // Log that user vetoed this proposition\n        propositionToVetoer[msg.sender].push(_propositionNumber);\n\n        //  Create veto event\n        vetoProposition(msg.sender, _propositionNumber);\n\n    }\n\n    // The vote is finished and we close it. This triggers the outcome of the vote.\n\n    function endPropositionVote(uint _propositionNumber) public returns (bool hasBeenAccepted) {\n        // We check if the vote was already counted\n        require(!propositions[_propositionNumber].wasCounted);\n\n        // Checking that the vote can be closed\n        require(propositions[_propositionNumber].votingPeriodEndDate < now);\n\n        Organ voterRegistryOrgan = Organ(votersOrganContract);\n\n        // We check that Quorum was obtained and that a majority of votes were cast in favor of the proposition\n        if (propositions[_propositionNumber].wasVetoed )\n            {hasBeenAccepted=false;\n                propositions[_propositionNumber].wasEnded = true;}\n        else if\n            ((propositions[_propositionNumber].totalVoteCount*100 >= quorumSize*voterRegistryOrgan.getActiveNormNumber()) && (propositions[_propositionNumber].voteFor*requiredMajorityDenominator/requiredMajorityNumerator > propositions[_propositionNumber].totalVoteCount))\n            {hasBeenAccepted = true;}\n        else \n            {hasBeenAccepted=false;\n            propositions[_propositionNumber].wasEnded = true;}\n\n\n        // ############## Updating ballot values if vote concluded\n        propositions[_propositionNumber].wasCounted = true;\n        propositions[_propositionNumber].wasAccepted = hasBeenAccepted;\n        propositionsWaitingEndOfVote[_propositionNumber] = false;\n        propositionsWaitingPromulgation[_propositionNumber] = true;\n\n        countVotes(msg.sender, _propositionNumber);\n    }\n    function promulgateProposition(uint _propositionNumber, bool _promulgate) public\n    {\n        // Checking if ballot was already enforced\n        require(!propositions[_propositionNumber].wasEnded );\n\n        // Checking the ballot was counted\n        require(propositions[_propositionNumber].wasCounted);\n\n        // If promulgation is happening before endOfVote + promulgationPeriodDuration, check caller is an official promulgator\n        if (now < propositions[_propositionNumber].votingPeriodEndDate + promulgationPeriodDuration)\n            {        // Check the voter is able to promulgate the proposition\n            Organ promulgatorsOrgan = Organ(finalPromulgatorsOrganContract);\n            require(promulgatorsOrgan.isNorm(msg.sender));\n            delete promulgatorsOrgan;\n            }\n        else { // If Promulgator did not promulgate, the only option is validating\n            require(_promulgate);\n            }\n\n        // Checking the ballot was accepted\n        require(propositions[_propositionNumber].wasAccepted);\n\n        if ((!_promulgate)||((propositions[_propositionNumber].contractToAdd == 0x0000) && (propositions[_propositionNumber].contractToRemove == 0x0000)) )\n        {\n            // The promulgator choses to invalidate the promulgation\n            propositions[_propositionNumber].wasEnded = true;\n        }\n        else\n        {\n            // We initiate the Organ interface to add a norm\n\n        Organ affectedOrgan = Organ(affectedOrganContract);\n\n            if(propositions[_propositionNumber].contractToAdd != 0x0000)\n            {\n                if (propositions[_propositionNumber].contractToRemove != 0x0000)\n                    { \n                        // Replacing a norm\n                        affectedOrgan.replaceNorm(affectedOrgan.getAddressPositionInNorm(propositions[_propositionNumber].contractToRemove) , propositions[_propositionNumber].contractToAdd, propositions[_propositionNumber].name , propositions[_propositionNumber].ipfsHash, propositions[_propositionNumber].hash_function, propositions[_propositionNumber].size);\n                    }\n                else\n                {\n                    // Adding a new norm\n                    affectedOrgan.addNorm(propositions[_propositionNumber].contractToAdd, propositions[_propositionNumber].name , propositions[_propositionNumber].ipfsHash, propositions[_propositionNumber].hash_function, propositions[_propositionNumber].size );\n                }\n            }\n            else \n            {\n                // Removing a contract\n                affectedOrgan.remNorm(affectedOrgan.getAddressPositionInNorm(propositions[_propositionNumber].contractToRemove));\n            }        \n            \n        }\n        propositions[_propositionNumber].wasEnded = true;\n        propositionsWaitingPromulgation[_propositionNumber] = false;\n        propositionToPromulgator[msg.sender].push(_propositionNumber);\n\n\n        // promulgation event\n        promulgatePropositionEvent(msg.sender, _propositionNumber, _promulgate);\n\n    }\n\n        //////////////////////// Functions to communicate with other contracts\n    function getPropositionDetails(uint _propositionNumber) public view returns (address _addressToAdd, address _addressToRemove, bytes32 _ipfsHash, uint8 _hash_function, uint8 _size){\n        return (propositions[_propositionNumber].contractToAdd, propositions[_propositionNumber].contractToRemove, propositions[_propositionNumber].ipfsHash, propositions[_propositionNumber].hash_function, propositions[_propositionNumber].size);\n    }\n    function getPropositionDates(uint _propositionNumber) public view returns (uint _startDate, uint _votingPeriodEndDate, uint _promulgatorWindowEndDate){\n        return (propositions[_propositionNumber].startDate, propositions[_propositionNumber].votingPeriodEndDate, propositions[_propositionNumber].votingPeriodEndDate + promulgationPeriodDuration);\n    }\n    function getPropositionStatus(uint _propositionNumber) public view returns (bool _wasCounted, bool _wasEnded){\n        return (propositions[_propositionNumber].wasCounted, propositions[_propositionNumber].wasEnded);\n    }\n    function getVotedPropositionResults(uint _propositionNumber) public view returns (bool _wasVetoed, bool _wasAccepted){\n        require(propositions[_propositionNumber].wasCounted);\n        return (propositions[_propositionNumber].wasVetoed, propositions[_propositionNumber].wasAccepted);\n    }\n    function getVotedPropositionStats(uint _propositionNumber) public view returns (uint _totalVoters, uint _totalVoteCount, uint _voteFor)\n        {require(propositions[_propositionNumber].wasCounted);\n        return (propositions[_propositionNumber].totalVoteCount, propositions[_propositionNumber].totalVoteCount, propositions[_propositionNumber].voteFor);}\n\n    function getPropositionsCreatedByUser(address _userAddress) public view returns (uint[])\n    {return propositionToUser[_userAddress];}    \n    function getPropositionsVetoedByUser(address _userAddress) public view returns (uint[])\n    {return propositionToVetoer[_userAddress];}  \n    function getPropositionsPromulgatedByUser(address _userAddress) public view returns (uint[])\n    {return propositionToPromulgator[_userAddress];}  \n    function getPropositionsUsedByUser(address _userAddress) public view returns (uint[])\n    {return propositionToVoter[_userAddress];}  \n    function haveIVoted(uint propositionNumber) public view returns (bool IHaveVoted)\n    {return propositions[propositionNumber].hasUserVoted[msg.sender];}\n    function getLinkedOrgans() public view returns (address[] _linkedOrgans)\n    {return linkedOrgans;}\n    function getProcedureName() public view returns (string _procedureName)\n    {return procedureName;}\n\n}\n\n",
  "sourcePath": "/Users/henrilieutaud/Documents/Mes documents/97/Workshop/Kelsen/solidity/contracts/procedures/voteOnNormsProcedure.sol",
  "compiler": {
    "name": "solc",
    "version": "0.4.19+commit.c4cbbb05.Emscripten.clang"
  },
  "schemaVersion": "2.0.0",
  "updatedAt": "2018-05-15T09:52:44.341Z"
}