{
  "contractName": "voteOnAdminsAndMastersProcedure",
  "abi": [
    {
      "constant": true,
      "inputs": [
        {
          "name": "",
          "type": "address"
        },
        {
          "name": "",
          "type": "uint256"
        }
      ],
      "name": "propositionToUser",
      "outputs": [
        {
          "name": "",
          "type": "uint256"
        }
      ],
      "payable": false,
      "stateMutability": "view",
      "type": "function"
    },
    {
      "constant": true,
      "inputs": [],
      "name": "procedureTypeNumber",
      "outputs": [
        {
          "name": "",
          "type": "int256"
        }
      ],
      "payable": false,
      "stateMutability": "view",
      "type": "function"
    },
    {
      "constant": true,
      "inputs": [],
      "name": "quorumSize",
      "outputs": [
        {
          "name": "",
          "type": "uint256"
        }
      ],
      "payable": false,
      "stateMutability": "view",
      "type": "function"
    },
    {
      "constant": true,
      "inputs": [
        {
          "name": "",
          "type": "address"
        },
        {
          "name": "",
          "type": "uint256"
        }
      ],
      "name": "propositionToPromulgator",
      "outputs": [
        {
          "name": "",
          "type": "uint256"
        }
      ],
      "payable": false,
      "stateMutability": "view",
      "type": "function"
    },
    {
      "constant": true,
      "inputs": [],
      "name": "kelsenVersionNumber",
      "outputs": [
        {
          "name": "",
          "type": "int256"
        }
      ],
      "payable": false,
      "stateMutability": "view",
      "type": "function"
    },
    {
      "constant": true,
      "inputs": [],
      "name": "membersWithVetoOrganContract",
      "outputs": [
        {
          "name": "",
          "type": "address"
        }
      ],
      "payable": false,
      "stateMutability": "view",
      "type": "function"
    },
    {
      "constant": true,
      "inputs": [
        {
          "name": "",
          "type": "address"
        },
        {
          "name": "",
          "type": "uint256"
        }
      ],
      "name": "propositionToVoter",
      "outputs": [
        {
          "name": "",
          "type": "uint256"
        }
      ],
      "payable": false,
      "stateMutability": "view",
      "type": "function"
    },
    {
      "constant": true,
      "inputs": [],
      "name": "finalPromulgatorsOrganContract",
      "outputs": [
        {
          "name": "",
          "type": "address"
        }
      ],
      "payable": false,
      "stateMutability": "view",
      "type": "function"
    },
    {
      "constant": true,
      "inputs": [],
      "name": "totalPropositionNumber",
      "outputs": [
        {
          "name": "",
          "type": "uint256"
        }
      ],
      "payable": false,
      "stateMutability": "view",
      "type": "function"
    },
    {
      "constant": true,
      "inputs": [],
      "name": "majoritySize",
      "outputs": [
        {
          "name": "",
          "type": "uint256"
        }
      ],
      "payable": false,
      "stateMutability": "view",
      "type": "function"
    },
    {
      "constant": true,
      "inputs": [],
      "name": "isAnOrgan",
      "outputs": [
        {
          "name": "",
          "type": "bool"
        }
      ],
      "payable": false,
      "stateMutability": "view",
      "type": "function"
    },
    {
      "constant": true,
      "inputs": [],
      "name": "votingPeriodDuration",
      "outputs": [
        {
          "name": "",
          "type": "uint256"
        }
      ],
      "payable": false,
      "stateMutability": "view",
      "type": "function"
    },
    {
      "constant": true,
      "inputs": [
        {
          "name": "",
          "type": "uint256"
        }
      ],
      "name": "propositionsWaitingPromulgation",
      "outputs": [
        {
          "name": "",
          "type": "bool"
        }
      ],
      "payable": false,
      "stateMutability": "view",
      "type": "function"
    },
    {
      "constant": true,
      "inputs": [],
      "name": "promulgationPeriodDuration",
      "outputs": [
        {
          "name": "",
          "type": "uint256"
        }
      ],
      "payable": false,
      "stateMutability": "view",
      "type": "function"
    },
    {
      "constant": true,
      "inputs": [],
      "name": "votersOrganContract",
      "outputs": [
        {
          "name": "",
          "type": "address"
        }
      ],
      "payable": false,
      "stateMutability": "view",
      "type": "function"
    },
    {
      "constant": true,
      "inputs": [
        {
          "name": "",
          "type": "address"
        },
        {
          "name": "",
          "type": "uint256"
        }
      ],
      "name": "propositionToVetoer",
      "outputs": [
        {
          "name": "",
          "type": "uint256"
        }
      ],
      "payable": false,
      "stateMutability": "view",
      "type": "function"
    },
    {
      "constant": true,
      "inputs": [
        {
          "name": "",
          "type": "uint256"
        }
      ],
      "name": "propositionsWaitingEndOfVote",
      "outputs": [
        {
          "name": "",
          "type": "bool"
        }
      ],
      "payable": false,
      "stateMutability": "view",
      "type": "function"
    },
    {
      "constant": true,
      "inputs": [],
      "name": "isAProcedure",
      "outputs": [
        {
          "name": "",
          "type": "bool"
        }
      ],
      "payable": false,
      "stateMutability": "view",
      "type": "function"
    },
    {
      "constant": true,
      "inputs": [
        {
          "name": "",
          "type": "uint256"
        }
      ],
      "name": "linkedOrgans",
      "outputs": [
        {
          "name": "",
          "type": "address"
        }
      ],
      "payable": false,
      "stateMutability": "view",
      "type": "function"
    },
    {
      "anonymous": false,
      "inputs": [
        {
          "indexed": false,
          "name": "_from",
          "type": "address"
        },
        {
          "indexed": false,
          "name": "_targetOrgan",
          "type": "address"
        },
        {
          "indexed": false,
          "name": "_propositionType",
          "type": "uint256"
        },
        {
          "indexed": false,
          "name": "_propositionNumber",
          "type": "uint256"
        }
      ],
      "name": "createPropositionEvent",
      "type": "event"
    },
    {
      "anonymous": false,
      "inputs": [
        {
          "indexed": false,
          "name": "_contractToAdd",
          "type": "address"
        },
        {
          "indexed": false,
          "name": "_contractToRemove",
          "type": "address"
        }
      ],
      "name": "createPropositionDetails",
      "type": "event"
    },
    {
      "anonymous": false,
      "inputs": [
        {
          "indexed": false,
          "name": "_propositionNumber",
          "type": "uint256"
        },
        {
          "indexed": false,
          "name": "_canAdd",
          "type": "bool"
        },
        {
          "indexed": false,
          "name": "_canDelete",
          "type": "bool"
        },
        {
          "indexed": false,
          "name": "_name",
          "type": "string"
        }
      ],
      "name": "createMasterPropositionEvent",
      "type": "event"
    },
    {
      "anonymous": false,
      "inputs": [
        {
          "indexed": false,
          "name": "_propositionNumber",
          "type": "uint256"
        },
        {
          "indexed": false,
          "name": "_canAdd",
          "type": "bool"
        },
        {
          "indexed": false,
          "name": "_canDelete",
          "type": "bool"
        },
        {
          "indexed": false,
          "name": "_canDeposit",
          "type": "bool"
        },
        {
          "indexed": false,
          "name": "_canSpend",
          "type": "bool"
        },
        {
          "indexed": false,
          "name": "_name",
          "type": "string"
        }
      ],
      "name": "createAdminPropositionEvent",
      "type": "event"
    },
    {
      "anonymous": false,
      "inputs": [
        {
          "indexed": false,
          "name": "_propositionNumber",
          "type": "uint256"
        },
        {
          "indexed": false,
          "name": "_ipfsHash",
          "type": "bytes32"
        },
        {
          "indexed": false,
          "name": "_hash_function",
          "type": "uint8"
        },
        {
          "indexed": false,
          "name": "_size",
          "type": "uint8"
        },
        {
          "indexed": false,
          "name": "name",
          "type": "string"
        }
      ],
      "name": "createNormPropositionEvent",
      "type": "event"
    },
    {
      "anonymous": false,
      "inputs": [
        {
          "indexed": false,
          "name": "_from",
          "type": "address"
        },
        {
          "indexed": false,
          "name": "_propositionNumber",
          "type": "uint256"
        }
      ],
      "name": "voteOnProposition",
      "type": "event"
    },
    {
      "anonymous": false,
      "inputs": [
        {
          "indexed": false,
          "name": "_from",
          "type": "address"
        },
        {
          "indexed": false,
          "name": "_propositionNumber",
          "type": "uint256"
        }
      ],
      "name": "vetoProposition",
      "type": "event"
    },
    {
      "anonymous": false,
      "inputs": [
        {
          "indexed": false,
          "name": "_from",
          "type": "address"
        },
        {
          "indexed": false,
          "name": "_propositionNumber",
          "type": "uint256"
        }
      ],
      "name": "countVotes",
      "type": "event"
    },
    {
      "anonymous": false,
      "inputs": [
        {
          "indexed": false,
          "name": "_from",
          "type": "address"
        },
        {
          "indexed": false,
          "name": "_propositionNumber",
          "type": "uint256"
        },
        {
          "indexed": false,
          "name": "_promulgate",
          "type": "bool"
        }
      ],
      "name": "promulgatePropositionEvent",
      "type": "event"
    },
    {
      "constant": false,
      "inputs": [
        {
          "name": "_targetOrgan",
          "type": "address"
        },
        {
          "name": "_contractToAdd",
          "type": "address"
        },
        {
          "name": "_contractToRemove",
          "type": "address"
        },
        {
          "name": "_ipfsHash",
          "type": "bytes32"
        },
        {
          "name": "_hash_function",
          "type": "uint8"
        },
        {
          "name": "_size",
          "type": "uint8"
        },
        {
          "name": "_name",
          "type": "string"
        },
        {
          "name": "_canAdd",
          "type": "bool"
        },
        {
          "name": "_canDelete",
          "type": "bool"
        },
        {
          "name": "_canDeposit",
          "type": "bool"
        },
        {
          "name": "_canSpend",
          "type": "bool"
        },
        {
          "name": "_propositionType",
          "type": "uint256"
        }
      ],
      "name": "createProposition",
      "outputs": [
        {
          "name": "propositionNumber",
          "type": "uint256"
        }
      ],
      "payable": false,
      "stateMutability": "nonpayable",
      "type": "function"
    },
    {
      "constant": false,
      "inputs": [
        {
          "name": "_propositionNumber",
          "type": "uint256"
        },
        {
          "name": "_acceptProposition",
          "type": "bool"
        }
      ],
      "name": "vote",
      "outputs": [],
      "payable": false,
      "stateMutability": "nonpayable",
      "type": "function"
    },
    {
      "constant": false,
      "inputs": [
        {
          "name": "_propositionNumber",
          "type": "uint256"
        }
      ],
      "name": "veto",
      "outputs": [],
      "payable": false,
      "stateMutability": "nonpayable",
      "type": "function"
    },
    {
      "constant": false,
      "inputs": [
        {
          "name": "_propositionNumber",
          "type": "uint256"
        }
      ],
      "name": "endPropositionVote",
      "outputs": [
        {
          "name": "hasBeenAccepted",
          "type": "bool"
        }
      ],
      "payable": false,
      "stateMutability": "nonpayable",
      "type": "function"
    },
    {
      "constant": false,
      "inputs": [
        {
          "name": "_propositionNumber",
          "type": "uint256"
        },
        {
          "name": "_promulgate",
          "type": "bool"
        }
      ],
      "name": "promulgateProposition",
      "outputs": [],
      "payable": false,
      "stateMutability": "nonpayable",
      "type": "function"
    },
    {
      "constant": false,
      "inputs": [
        {
          "name": "_propositionNumber",
          "type": "uint256"
        }
      ],
      "name": "archiveDefunctProposition",
      "outputs": [],
      "payable": false,
      "stateMutability": "nonpayable",
      "type": "function"
    },
    {
      "constant": true,
      "inputs": [
        {
          "name": "_propositionNumber",
          "type": "uint256"
        }
      ],
      "name": "getPropositionDetails",
      "outputs": [
        {
          "name": "_addressToAdd",
          "type": "address"
        },
        {
          "name": "_addressToRemove",
          "type": "address"
        },
        {
          "name": "_canAdd",
          "type": "bool"
        },
        {
          "name": "_canDelete",
          "type": "bool"
        },
        {
          "name": "_canDeposit",
          "type": "bool"
        },
        {
          "name": "_canSpend",
          "type": "bool"
        },
        {
          "name": "_name",
          "type": "string"
        }
      ],
      "payable": false,
      "stateMutability": "view",
      "type": "function"
    },
    {
      "constant": true,
      "inputs": [
        {
          "name": "_propositionNumber",
          "type": "uint256"
        }
      ],
      "name": "getPropositionDocumentation",
      "outputs": [
        {
          "name": "_addressToAdd",
          "type": "address"
        },
        {
          "name": "_addressToRemove",
          "type": "address"
        },
        {
          "name": "_ipfsHash",
          "type": "bytes32"
        },
        {
          "name": "_hash_function",
          "type": "uint8"
        },
        {
          "name": "_size",
          "type": "uint8"
        },
        {
          "name": "_propositionType",
          "type": "uint256"
        }
      ],
      "payable": false,
      "stateMutability": "view",
      "type": "function"
    },
    {
      "constant": true,
      "inputs": [
        {
          "name": "_propositionNumber",
          "type": "uint256"
        }
      ],
      "name": "getPropositionDates",
      "outputs": [
        {
          "name": "_startDate",
          "type": "uint256"
        },
        {
          "name": "_votingPeriodEndDate",
          "type": "uint256"
        },
        {
          "name": "_promulgatorWindowEndDate",
          "type": "uint256"
        }
      ],
      "payable": false,
      "stateMutability": "view",
      "type": "function"
    },
    {
      "constant": true,
      "inputs": [
        {
          "name": "_propositionNumber",
          "type": "uint256"
        }
      ],
      "name": "getPropositionStatus",
      "outputs": [
        {
          "name": "_wasCounted",
          "type": "bool"
        },
        {
          "name": "_wasEnded",
          "type": "bool"
        }
      ],
      "payable": false,
      "stateMutability": "view",
      "type": "function"
    },
    {
      "constant": true,
      "inputs": [
        {
          "name": "_propositionNumber",
          "type": "uint256"
        }
      ],
      "name": "getVotedPropositionResults",
      "outputs": [
        {
          "name": "_wasVetoed",
          "type": "bool"
        },
        {
          "name": "_wasAccepted",
          "type": "bool"
        }
      ],
      "payable": false,
      "stateMutability": "view",
      "type": "function"
    },
    {
      "constant": true,
      "inputs": [
        {
          "name": "_propositionNumber",
          "type": "uint256"
        }
      ],
      "name": "getVotedPropositionStats",
      "outputs": [
        {
          "name": "_totalVoters",
          "type": "uint256"
        },
        {
          "name": "_totalVoteCount",
          "type": "uint256"
        },
        {
          "name": "_voteFor",
          "type": "uint256"
        }
      ],
      "payable": false,
      "stateMutability": "view",
      "type": "function"
    },
    {
      "constant": true,
      "inputs": [
        {
          "name": "_userAddress",
          "type": "address"
        }
      ],
      "name": "getPropositionsCreatedByUser",
      "outputs": [
        {
          "name": "",
          "type": "uint256[]"
        }
      ],
      "payable": false,
      "stateMutability": "view",
      "type": "function"
    },
    {
      "constant": true,
      "inputs": [
        {
          "name": "_userAddress",
          "type": "address"
        }
      ],
      "name": "getPropositionsVetoedByUser",
      "outputs": [
        {
          "name": "",
          "type": "uint256[]"
        }
      ],
      "payable": false,
      "stateMutability": "view",
      "type": "function"
    },
    {
      "constant": true,
      "inputs": [
        {
          "name": "_userAddress",
          "type": "address"
        }
      ],
      "name": "getPropositionsPromulgatedByUser",
      "outputs": [
        {
          "name": "",
          "type": "uint256[]"
        }
      ],
      "payable": false,
      "stateMutability": "view",
      "type": "function"
    },
    {
      "constant": true,
      "inputs": [
        {
          "name": "_userAddress",
          "type": "address"
        }
      ],
      "name": "getPropositionsUsedByUser",
      "outputs": [
        {
          "name": "",
          "type": "uint256[]"
        }
      ],
      "payable": false,
      "stateMutability": "view",
      "type": "function"
    },
    {
      "constant": true,
      "inputs": [
        {
          "name": "propositionNumber",
          "type": "uint256"
        }
      ],
      "name": "haveIVoted",
      "outputs": [
        {
          "name": "IHaveVoted",
          "type": "bool"
        }
      ],
      "payable": false,
      "stateMutability": "view",
      "type": "function"
    },
    {
      "constant": true,
      "inputs": [],
      "name": "getLinkedOrgans",
      "outputs": [
        {
          "name": "_linkedOrgans",
          "type": "address[]"
        }
      ],
      "payable": false,
      "stateMutability": "view",
      "type": "function"
    }
  ],
  "bytecode": "0x60606040526000600460006101000a81548160ff0219169083151502179055506001600460016101000a81548160ff0219169083151502179055506006600555341561004a57600080fd5b614ff2806100596000396000f3006060604052600436106101cd576000357c0100000000000000000000000000000000000000000000000000000000900463ffffffff1680630366af3d146101d257806305cf00571461021857806307e7a224146102a65780630b2e34b0146103345780630f2d671e1461038a5780631d28dec7146104b25780632647d7f9146104d55780633068ef4d146104fe57806337443feb146105275780633c0848ee146106555780633ef4cfbb146106e35780635332eea1146107a95780635dbe4d28146107ff578063615d9bff1461082857806364cdd61e1461084b5780636a95d38d146108a057806375ff60c4146108e6578063880d3f541461093c5780638f3b07a4146109915780639f32551b146109ba578063a8bef97a146109e3578063ac37af1c14610a10578063aff7cfc714610a4b578063b5fdb88e14610a90578063c9d27afe14610ab9578063cb20a2fd14610ae7578063cd43eb1f14610b75578063cd87c2b614610bb0578063ce784b7714610bd9578063ce88840314610c2e578063d64ff06314610c73578063d858849414610ca1578063e09ecb8714610cf7578063e36f6e4e14610d32578063e570050114610d6d578063e80b30a514610dd7578063f2edc61614610e04575b600080fd5b34156101dd57600080fd5b6101f36004808035906020019091905050610e67565b6040518083151515158152602001821515151581526020019250505060405180910390f35b341561022357600080fd5b61024f600480803573ffffffffffffffffffffffffffffffffffffffff16906020019091905050610ecf565b6040518080602001828103825283818151815260200191508051906020019060200280838360005b83811015610292578082015181840152602081019050610277565b505050509050019250505060405180910390f35b34156102b157600080fd5b6102dd600480803573ffffffffffffffffffffffffffffffffffffffff16906020019091905050610f6c565b6040518080602001828103825283818151815260200191508051906020019060200280838360005b83811015610320578082015181840152602081019050610305565b505050509050019250505060405180910390f35b341561033f57600080fd5b610374600480803573ffffffffffffffffffffffffffffffffffffffff16906020019091908035906020019091905050611009565b6040518082815260200191505060405180910390f35b341561039557600080fd5b61049c600480803573ffffffffffffffffffffffffffffffffffffffff1690602001909190803573ffffffffffffffffffffffffffffffffffffffff1690602001909190803573ffffffffffffffffffffffffffffffffffffffff169060200190919080356000191690602001909190803560ff1690602001909190803560ff1690602001909190803590602001908201803590602001908080601f01602080910402602001604051908101604052809392919081815260200183838082843782019150505050505091908035151590602001909190803515159060200190919080351515906020019091908035151590602001909190803590602001909190505061103a565b6040518082815260200191505060405180910390f35b34156104bd57600080fd5b6104d36004808035906020019091905050611ac3565b005b34156104e057600080fd5b6104e8611d2d565b6040518082815260200191505060405180910390f35b341561050957600080fd5b610511611d33565b6040518082815260200191505060405180910390f35b341561053257600080fd5b6105486004808035906020019091905050611d39565b604051808873ffffffffffffffffffffffffffffffffffffffff1673ffffffffffffffffffffffffffffffffffffffff1681526020018773ffffffffffffffffffffffffffffffffffffffff1673ffffffffffffffffffffffffffffffffffffffff1681526020018615151515815260200185151515158152602001841515151581526020018315151515815260200180602001828103825283818151815260200191508051906020019080838360005b838110156106145780820151818401526020810190506105f9565b50505050905090810190601f1680156106415780820380516001836020036101000a031916815260200191505b509850505050505050505060405180910390f35b341561066057600080fd5b61068c600480803573ffffffffffffffffffffffffffffffffffffffff16906020019091905050611f59565b6040518080602001828103825283818151815260200191508051906020019060200280838360005b838110156106cf5780820151818401526020810190506106b4565b505050509050019250505060405180910390f35b34156106ee57600080fd5b6107046004808035906020019091905050611ff6565b604051808773ffffffffffffffffffffffffffffffffffffffff1673ffffffffffffffffffffffffffffffffffffffff1681526020018673ffffffffffffffffffffffffffffffffffffffff1673ffffffffffffffffffffffffffffffffffffffff16815260200185600019166000191681526020018460ff1660ff1681526020018360ff1660ff168152602001828152602001965050505050505060405180910390f35b34156107b457600080fd5b6107e9600480803573ffffffffffffffffffffffffffffffffffffffff16906020019091908035906020019091905050612134565b6040518082815260200191505060405180910390f35b341561080a57600080fd5b610812612165565b6040518082815260200191505060405180910390f35b341561083357600080fd5b610849600480803590602001909190505061216b565b005b341561085657600080fd5b61085e612540565b604051808273ffffffffffffffffffffffffffffffffffffffff1673ffffffffffffffffffffffffffffffffffffffff16815260200191505060405180910390f35b34156108ab57600080fd5b6108c16004808035906020019091905050612566565b6040518083151515158152602001821515151581526020019250505060405180910390f35b34156108f157600080fd5b610926600480803573ffffffffffffffffffffffffffffffffffffffff16906020019091908035906020019091905050612607565b6040518082815260200191505060405180910390f35b341561094757600080fd5b61094f612638565b604051808273ffffffffffffffffffffffffffffffffffffffff1673ffffffffffffffffffffffffffffffffffffffff16815260200191505060405180910390f35b341561099c57600080fd5b6109a461265e565b6040518082815260200191505060405180910390f35b34156109c557600080fd5b6109cd612664565b6040518082815260200191505060405180910390f35b34156109ee57600080fd5b6109f661266a565b604051808215151515815260200191505060405180910390f35b3415610a1b57600080fd5b610a31600480803590602001909190505061267d565b604051808215151515815260200191505060405180910390f35b3415610a5657600080fd5b610a6c60048080359060200190919050506126f1565b60405180848152602001838152602001828152602001935050505060405180910390f35b3415610a9b57600080fd5b610aa361279f565b6040518082815260200191505060405180910390f35b3415610ac457600080fd5b610ae5600480803590602001909190803515159060200190919050506127a5565b005b3415610af257600080fd5b610b1e600480803573ffffffffffffffffffffffffffffffffffffffff16906020019091905050612b30565b6040518080602001828103825283818151815260200191508051906020019060200280838360005b83811015610b61578082015181840152602081019050610b46565b505050509050019250505060405180910390f35b3415610b8057600080fd5b610b966004808035906020019091905050612bcd565b604051808215151515815260200191505060405180910390f35b3415610bbb57600080fd5b610bc3612c00565b6040518082815260200191505060405180910390f35b3415610be457600080fd5b610bec612c06565b604051808273ffffffffffffffffffffffffffffffffffffffff1673ffffffffffffffffffffffffffffffffffffffff16815260200191505060405180910390f35b3415610c3957600080fd5b610c4f6004808035906020019091905050612c2c565b60405180848152602001838152602001828152602001935050505060405180910390f35b3415610c7e57600080fd5b610c9f60048080359060200190919080351515906020019091905050612ca5565b005b3415610cac57600080fd5b610ce1600480803573ffffffffffffffffffffffffffffffffffffffff16906020019091908035906020019091905050614665565b6040518082815260200191505060405180910390f35b3415610d0257600080fd5b610d186004808035906020019091905050614696565b604051808215151515815260200191505060405180910390f35b3415610d3d57600080fd5b610d536004808035906020019091905050614a41565b604051808215151515815260200191505060405180910390f35b3415610d7857600080fd5b610d80614a74565b6040518080602001828103825283818151815260200191508051906020019060200280838360005b83811015610dc3578082015181840152602081019050610da8565b505050509050019250505060405180910390f35b3415610de257600080fd5b610dea614b08565b604051808215151515815260200191505060405180910390f35b3415610e0f57600080fd5b610e256004808035906020019091905050614b1b565b604051808273ffffffffffffffffffffffffffffffffffffffff1673ffffffffffffffffffffffffffffffffffffffff16815260200191505060405180910390f35b600080600f83815481101515610e7957fe5b90600052602060002090600e0201600b0160019054906101000a900460ff16600f84815481101515610ea757fe5b90600052602060002090600e0201600b0160039054906101000a900460ff1691509150915091565b610ed7614b5a565b601360008373ffffffffffffffffffffffffffffffffffffffff1673ffffffffffffffffffffffffffffffffffffffff168152602001908152602001600020805480602002602001604051908101604052809291908181526020018280548015610f6057602002820191906000526020600020905b815481526020019060010190808311610f4c575b50505050509050919050565b610f74614b5a565b601560008373ffffffffffffffffffffffffffffffffffffffff1673ffffffffffffffffffffffffffffffffffffffff168152602001908152602001600020805480602002602001604051908101604052809291908181526020018280548015610ffd57602002820191906000526020600020905b815481526020019060010190808311610fe9575b50505050509050919050565b60126020528160005260406000208181548110151561102457fe5b9060005260206000209001600091509150505481565b600080611045614b6e565b600660009054906101000a900473ffffffffffffffffffffffffffffffffffffffff1691508173ffffffffffffffffffffffffffffffffffffffff1663d323a4f8336000604051602001526040518263ffffffff167c0100000000000000000000000000000000000000000000000000000000028152600401808273ffffffffffffffffffffffffffffffffffffffff1673ffffffffffffffffffffffffffffffffffffffff168152602001915050602060405180830381600087803b151561110d57600080fd5b6102c65a03f1151561111e57600080fd5b50505060405180519050151561113357600080fd5b600091508e816000019073ffffffffffffffffffffffffffffffffffffffff16908173ffffffffffffffffffffffffffffffffffffffff16815250508d816020019073ffffffffffffffffffffffffffffffffffffffff16908173ffffffffffffffffffffffffffffffffffffffff16815250508c816040019073ffffffffffffffffffffffffffffffffffffffff16908173ffffffffffffffffffffffffffffffffffffffff16815250508b816060019060001916908160001916815250508a816080019060ff16908160ff1681525050898160a0019060ff16908160ff1681525050878160e00190151590811515815250508681610100019015159081151581525050848161012001901515908115158152505085816101400190151590811515815250508381610160018181525050888160c001819052504281610180018181525050600a544201816101a00181815250506000816101c00190151590811515815250506000816102200190151590811515815250506000816101e0019015159081151581525050600081610200019015159081151581525050600081610260018181525050600081610240018181525050600f80548060010182816112fc9190614c69565b91600052602060002090600e0201600083909190915060008201518160000160006101000a81548173ffffffffffffffffffffffffffffffffffffffff021916908373ffffffffffffffffffffffffffffffffffffffff16021790555060208201518160010160006101000a81548173ffffffffffffffffffffffffffffffffffffffff021916908373ffffffffffffffffffffffffffffffffffffffff16021790555060408201518160020160006101000a81548173ffffffffffffffffffffffffffffffffffffffff021916908373ffffffffffffffffffffffffffffffffffffffff1602179055506060820151816003019060001916905560808201518160040160006101000a81548160ff021916908360ff16021790555060a08201518160040160016101000a81548160ff021916908360ff16021790555060c0820151816005019080519060200190611455929190614c9b565b5060e08201518160060160006101000a81548160ff0219169083151502179055506101008201518160060160016101000a81548160ff0219169083151502179055506101208201518160060160026101000a81548160ff0219169083151502179055506101408201518160060160036101000a81548160ff021916908315150217905550610160820151816007015561018082015181600901556101a082015181600a01556101c082015181600b0160006101000a81548160ff0219169083151502179055506101e082015181600b0160016101000a81548160ff02191690831515021790555061020082015181600b0160026101000a81548160ff02191690831515021790555061022082015181600b0160036101000a81548160ff02191690831515021790555061024082015181600c015561026082015181600d015550505061159f614b6e565b90506001600f805490500392506001600d60008282540192505081905550601260003373ffffffffffffffffffffffffffffffffffffffff1673ffffffffffffffffffffffffffffffffffffffff168152602001908152602001600020805480600101828161160e9190614d1b565b916000526020600020900160008590919091505550601080548060010182816116379190614d47565b91600052602060002090602091828204019190066001909190916101000a81548160ff021916908315150217905550506011805480600101828161167b9190614d47565b91600052602060002090602091828204019190066000909190916101000a81548160ff021916908315150217905550507f2c230862c7869ceafe2db15dda54a94fd7e87a574af1360a09e7a6f8acbc6bd333600f858154811015156116dc57fe5b90600052602060002090600e020160000160009054906101000a900473ffffffffffffffffffffffffffffffffffffffff168686604051808573ffffffffffffffffffffffffffffffffffffffff1673ffffffffffffffffffffffffffffffffffffffff1681526020018473ffffffffffffffffffffffffffffffffffffffff1673ffffffffffffffffffffffffffffffffffffffff16815260200183815260200182815260200194505050505060405180910390a17fe00280f434fd134c148d59d0345a47457ed75114c60d70d759e43848b8faf7f58e8e604051808373ffffffffffffffffffffffffffffffffffffffff1673ffffffffffffffffffffffffffffffffffffffff1681526020018273ffffffffffffffffffffffffffffffffffffffff1673ffffffffffffffffffffffffffffffffffffffff1681526020019250505060405180910390a160008414156118f3577fec3d420ffa4da7a9686480af8bca59e8924642e69b2af65e3cebfa7b3fd60dbb8389898c60405180858152602001841515151581526020018315151515815260200180602001828103825283818151815260200191508051906020019080838360005b838110156118b1578082015181840152602081019050611896565b50505050905090810190601f1680156118de5780820380516001836020036101000a031916815260200191505b509550505050505060405180910390a1611ab1565b60018414156119d5577f1f3b72c309501b6d3e1f9d91571c6faef20f943d351b92f44d8c5c8b9d9ad84c83898989898e604051808781526020018615151515815260200185151515158152602001841515151581526020018315151515815260200180602001828103825283818151815260200191508051906020019080838360005b83811015611991578082015181840152602081019050611976565b50505050905090810190601f1680156119be5780820380516001836020036101000a031916815260200191505b5097505050505050505060405180910390a1611ab0565b6002841415611aaf577f5c96618013629f155bcf67ccd4858a79107e88a36d2a03d3f6c25f97a6b3fc5a838d8d8d8d6040518086815260200185600019166000191681526020018460ff1660ff1681526020018360ff1660ff16815260200180602001828103825283818151815260200191508051906020019080838360005b83811015611a70578082015181840152602081019050611a55565b50505050905090810190601f168015611a9d5780820380516001836020036101000a031916815260200191505b50965050505050505060405180910390a15b5b5b50509c9b505050505050505050505050565b6000600760009054906101000a900473ffffffffffffffffffffffffffffffffffffffff1690508073ffffffffffffffffffffffffffffffffffffffff1663d323a4f8336000604051602001526040518263ffffffff167c0100000000000000000000000000000000000000000000000000000000028152600401808273ffffffffffffffffffffffffffffffffffffffff1673ffffffffffffffffffffffffffffffffffffffff168152602001915050602060405180830381600087803b1515611b8d57600080fd5b6102c65a03f11515611b9e57600080fd5b505050604051805190501515611bb357600080fd5b60009050600f82815481101515611bc657fe5b90600052602060002090600e0201600b0160019054906101000a900460ff16151515611bf157600080fd5b42600f83815481101515611c0157fe5b90600052602060002090600e0201600a0154111515611c1f57600080fd5b6001600f83815481101515611c3057fe5b90600052602060002090600e0201600b0160006101000a81548160ff021916908315150217905550601460003373ffffffffffffffffffffffffffffffffffffffff1673ffffffffffffffffffffffffffffffffffffffff1681526020019081526020016000208054806001018281611ca99190614d1b565b9160005260206000209001600084909190915055507f62901d9c2f788a5c877cf5a2659a041eedf9a980c6dd3ed22a4878bcc228619b3383604051808373ffffffffffffffffffffffffffffffffffffffff1673ffffffffffffffffffffffffffffffffffffffff1681526020018281526020019250505060405180910390a15050565b60055481565b600c5481565b600080600080600080611d4a614d81565b600f88815481101515611d5957fe5b90600052602060002090600e020160010160009054906101000a900473ffffffffffffffffffffffffffffffffffffffff16600f89815481101515611d9a57fe5b90600052602060002090600e020160020160009054906101000a900473ffffffffffffffffffffffffffffffffffffffff16600f8a815481101515611ddb57fe5b90600052602060002090600e020160060160009054906101000a900460ff16600f8b815481101515611e0957fe5b90600052602060002090600e020160060160019054906101000a900460ff16600f8c815481101515611e3757fe5b90600052602060002090600e020160060160039054906101000a900460ff16600f8d815481101515611e6557fe5b90600052602060002090600e020160060160029054906101000a900460ff16600f8e815481101515611e9357fe5b90600052602060002090600e0201600501808054600181600116156101000203166002900480601f016020809104026020016040519081016040528092919081815260200182805460018160011615610100020316600290048015611f395780601f10611f0e57610100808354040283529160200191611f39565b820191906000526020600020905b815481529060010190602001808311611f1c57829003601f168201915b505050505090509650965096509650965096509650919395979092949650565b611f61614b5a565b601460008373ffffffffffffffffffffffffffffffffffffffff1673ffffffffffffffffffffffffffffffffffffffff168152602001908152602001600020805480602002602001604051908101604052809291908181526020018280548015611fea57602002820191906000526020600020905b815481526020019060010190808311611fd6575b50505050509050919050565b600080600080600080600f8781548110151561200e57fe5b90600052602060002090600e020160010160009054906101000a900473ffffffffffffffffffffffffffffffffffffffff16600f8881548110151561204f57fe5b90600052602060002090600e020160020160009054906101000a900473ffffffffffffffffffffffffffffffffffffffff16600f8981548110151561209057fe5b90600052602060002090600e020160030154600f8a8154811015156120b157fe5b90600052602060002090600e020160040160009054906101000a900460ff16600f8b8154811015156120df57fe5b90600052602060002090600e020160040160019054906101000a900460ff16600f8c81548110151561210d57fe5b90600052602060002090600e02016007015495509550955095509550955091939550919395565b60156020528160005260406000208181548110151561214f57fe5b9060005260206000209001600091509150505481565b60005481565b6000806000600f8481548110151561217f57fe5b90600052602060002090600e020160000160009054906101000a900473ffffffffffffffffffffffffffffffffffffffff1692506002600f858154811015156121c457fe5b90600052602060002090600e02016007015410156122ac578273ffffffffffffffffffffffffffffffffffffffff1663f720f80b306000604051604001526040518263ffffffff167c0100000000000000000000000000000000000000000000000000000000028152600401808273ffffffffffffffffffffffffffffffffffffffff1673ffffffffffffffffffffffffffffffffffffffff1681526020019150506040805180830381600087803b151561227e57600080fd5b6102c65a03f1151561228f57600080fd5b505050604051805190602001805190508092508193505050612378565b8273ffffffffffffffffffffffffffffffffffffffff166324d7806c306000604051604001526040518263ffffffff167c0100000000000000000000000000000000000000000000000000000000028152600401808273ffffffffffffffffffffffffffffffffffffffff1673ffffffffffffffffffffffffffffffffffffffff1681526020019150506040805180830381600087803b151561234e57600080fd5b6102c65a03f1151561235f57600080fd5b5050506040518051906020018051905080925081935050505b811580156123dd57506000600f8581548110151561239257fe5b90600052602060002090600e020160010160009054906101000a900473ffffffffffffffffffffffffffffffffffffffff1673ffffffffffffffffffffffffffffffffffffffff1614155b8061244957508015801561244857506000600f858154811015156123fd57fe5b90600052602060002090600e020160020160009054906101000a900473ffffffffffffffffffffffffffffffffffffffff1673ffffffffffffffffffffffffffffffffffffffff1614155b5b156124c2576001600f8581548110151561245f57fe5b90600052602060002090600e0201600b0160036101000a81548160ff021916908315150217905550600060118581548110151561249857fe5b90600052602060002090602091828204019190066101000a81548160ff0219169083151502179055505b7fed7c73834db4ae22add7f637175d8a32a1dddae4c154ccd25195b77df4c8d18d33856000604051808473ffffffffffffffffffffffffffffffffffffffff1673ffffffffffffffffffffffffffffffffffffffff16815260200183815260200182151515158152602001935050505060405180910390a150505050565b600760009054906101000a900473ffffffffffffffffffffffffffffffffffffffff1681565b600080600f8381548110151561257857fe5b90600052602060002090600e0201600b0160019054906101000a900460ff1615156125a257600080fd5b600f838154811015156125b157fe5b90600052602060002090600e0201600b0160009054906101000a900460ff16600f848154811015156125df57fe5b90600052602060002090600e0201600b0160029054906101000a900460ff1691509150915091565b60136020528160005260406000208181548110151561262257fe5b9060005260206000209001600091509150505481565b600860009054906101000a900473ffffffffffffffffffffffffffffffffffffffff1681565b600d5481565b600e5481565b600460009054906101000a900460ff1681565b6000600f8281548110151561268e57fe5b90600052602060002090600e020160080160003373ffffffffffffffffffffffffffffffffffffffff1673ffffffffffffffffffffffffffffffffffffffff16815260200190815260200160002060009054906101000a900460ff169050919050565b6000806000600f8481548110151561270557fe5b90600052602060002090600e0201600b0160019054906101000a900460ff16151561272f57600080fd5b600f8481548110151561273e57fe5b90600052602060002090600e0201600d0154600f8581548110151561275f57fe5b90600052602060002090600e0201600d0154600f8681548110151561278057fe5b90600052602060002090600e0201600c01549250925092509193909250565b600a5481565b6000600660009054906101000a900473ffffffffffffffffffffffffffffffffffffffff1690508073ffffffffffffffffffffffffffffffffffffffff1663d323a4f8336000604051602001526040518263ffffffff167c0100000000000000000000000000000000000000000000000000000000028152600401808273ffffffffffffffffffffffffffffffffffffffff1673ffffffffffffffffffffffffffffffffffffffff168152602001915050602060405180830381600087803b151561286f57600080fd5b6102c65a03f1151561288057600080fd5b50505060405180519050151561289557600080fd5b60009050600f838154811015156128a857fe5b90600052602060002090600e020160080160003373ffffffffffffffffffffffffffffffffffffffff1673ffffffffffffffffffffffffffffffffffffffff16815260200190815260200160002060009054906101000a900460ff1615151561291057600080fd5b600f8381548110151561291f57fe5b90600052602060002090600e0201600b0160019054906101000a900460ff1615151561294a57600080fd5b42600f8481548110151561295a57fe5b90600052602060002090600e0201600a015411151561297857600080fd5b6001151582151514156129b5576001600f8481548110151561299657fe5b90600052602060002090600e0201600c01600082825401925050819055505b6001600f848154811015156129c657fe5b90600052602060002090600e020160080160003373ffffffffffffffffffffffffffffffffffffffff1673ffffffffffffffffffffffffffffffffffffffff16815260200190815260200160002060006101000a81548160ff0219169083151502179055506001600f84815481101515612a3c57fe5b90600052602060002090600e0201600d0160008282540192505081905550601360003373ffffffffffffffffffffffffffffffffffffffff1673ffffffffffffffffffffffffffffffffffffffff1681526020019081526020016000208054806001018281612aab9190614d1b565b9160005260206000209001600085909190915055507fd1faddd599b0d6b58c83de71d7ff5395895b5891894dcd37f2482f33b2a1c43d3384604051808373ffffffffffffffffffffffffffffffffffffffff1673ffffffffffffffffffffffffffffffffffffffff1681526020018281526020019250505060405180910390a1505050565b612b38614b5a565b601260008373ffffffffffffffffffffffffffffffffffffffff1673ffffffffffffffffffffffffffffffffffffffff168152602001908152602001600020805480602002602001604051908101604052809291908181526020018280548015612bc157602002820191906000526020600020905b815481526020019060010190808311612bad575b50505050509050919050565b601181815481101515612bdc57fe5b9060005260206000209060209182820401919006915054906101000a900460ff1681565b600b5481565b600660009054906101000a900473ffffffffffffffffffffffffffffffffffffffff1681565b6000806000600f84815481101515612c4057fe5b90600052602060002090600e020160090154600f85815481101515612c6157fe5b90600052602060002090600e0201600a0154600b54600f87815481101515612c8557fe5b90600052602060002090600e0201600a0154019250925092509193909250565b600080600f84815481101515612cb757fe5b90600052602060002090600e0201600b0160039054906101000a900460ff16151515612ce257600080fd5b600f84815481101515612cf157fe5b90600052602060002090600e0201600b0160019054906101000a900460ff161515612d1b57600080fd5b600b54600f85815481101515612d2d57fe5b90600052602060002090600e0201600a015401421015612e3e57600860009054906101000a900473ffffffffffffffffffffffffffffffffffffffff1691508173ffffffffffffffffffffffffffffffffffffffff1663d323a4f8336000604051602001526040518263ffffffff167c0100000000000000000000000000000000000000000000000000000000028152600401808273ffffffffffffffffffffffffffffffffffffffff1673ffffffffffffffffffffffffffffffffffffffff168152602001915050602060405180830381600087803b1515612e0f57600080fd5b6102c65a03f11515612e2057600080fd5b505050604051805190501515612e3557600080fd5b60009150612e4b565b821515612e4a57600080fd5b5b600f84815481101515612e5a57fe5b90600052602060002090600e0201600b0160029054906101000a900460ff161515612e8457600080fd5b821580612f4957506000600f85815481101515612e9d57fe5b90600052602060002090600e020160010160009054906101000a900473ffffffffffffffffffffffffffffffffffffffff1673ffffffffffffffffffffffffffffffffffffffff16148015612f4857506000600f85815481101515612efe57fe5b90600052602060002090600e020160020160009054906101000a900473ffffffffffffffffffffffffffffffffffffffff1673ffffffffffffffffffffffffffffffffffffffff16145b5b15612f8c576001600f85815481101515612f5f57fe5b90600052602060002090600e0201600b0160036101000a81548160ff02191690831515021790555061450f565b600f84815481101515612f9b57fe5b90600052602060002090600e020160000160009054906101000a900473ffffffffffffffffffffffffffffffffffffffff1690506000600f85815481101515612fe057fe5b90600052602060002090600e020160010160009054906101000a900473ffffffffffffffffffffffffffffffffffffffff1673ffffffffffffffffffffffffffffffffffffffff1614151561412a576000600f8581548110151561304057fe5b90600052602060002090600e020160020160009054906101000a900473ffffffffffffffffffffffffffffffffffffffff1673ffffffffffffffffffffffffffffffffffffffff161415156139ca576000600f858154811015156130a057fe5b90600052602060002090600e020160070154141561333a578073ffffffffffffffffffffffffffffffffffffffff16630e6adcdf600f868154811015156130e357fe5b90600052602060002090600e020160020160009054906101000a900473ffffffffffffffffffffffffffffffffffffffff16600f8781548110151561312457fe5b90600052602060002090600e020160010160009054906101000a900473ffffffffffffffffffffffffffffffffffffffff16600f8881548110151561316557fe5b90600052602060002090600e020160060160009054906101000a900460ff16600f8981548110151561319357fe5b90600052602060002090600e020160060160019054906101000a900460ff16600f8a8154811015156131c157fe5b90600052602060002090600e02016005016040518663ffffffff167c0100000000000000000000000000000000000000000000000000000000028152600401808673ffffffffffffffffffffffffffffffffffffffff1673ffffffffffffffffffffffffffffffffffffffff1681526020018573ffffffffffffffffffffffffffffffffffffffff1673ffffffffffffffffffffffffffffffffffffffff1681526020018415151515815260200183151515158152602001806020018281038252838181546001816001161561010002031660029004815260200191508054600181600116156101000203166002900480156132fe5780601f106132d3576101008083540402835291602001916132fe565b820191906000526020600020905b8154815290600101906020018083116132e157829003601f168201915b50509650505050505050600060405180830381600087803b151561332157600080fd5b6102c65a03f1151561333257600080fd5b5050506139c5565b6001600f8581548110151561334b57fe5b90600052602060002090600e0201600701541415613657578073ffffffffffffffffffffffffffffffffffffffff16638186c350600f8681548110151561338e57fe5b90600052602060002090600e020160020160009054906101000a900473ffffffffffffffffffffffffffffffffffffffff16600f878154811015156133cf57fe5b90600052602060002090600e020160010160009054906101000a900473ffffffffffffffffffffffffffffffffffffffff16600f8881548110151561341057fe5b90600052602060002090600e020160060160009054906101000a900460ff16600f8981548110151561343e57fe5b90600052602060002090600e020160060160019054906101000a900460ff16600f8a81548110151561346c57fe5b90600052602060002090600e020160060160039054906101000a900460ff16600f8b81548110151561349a57fe5b90600052602060002090600e020160060160029054906101000a900460ff16600f8c8154811015156134c857fe5b90600052602060002090600e02016005016040518863ffffffff167c0100000000000000000000000000000000000000000000000000000000028152600401808873ffffffffffffffffffffffffffffffffffffffff1673ffffffffffffffffffffffffffffffffffffffff1681526020018773ffffffffffffffffffffffffffffffffffffffff1673ffffffffffffffffffffffffffffffffffffffff16815260200186151515158152602001851515151581526020018415151515815260200183151515158152602001806020018281038252838181546001816001161561010002031660029004815260200191508054600181600116156101000203166002900480156136195780601f106135ee57610100808354040283529160200191613619565b820191906000526020600020905b8154815290600101906020018083116135fc57829003601f168201915b505098505050505050505050600060405180830381600087803b151561363e57600080fd5b6102c65a03f1151561364f57600080fd5b5050506139c4565b6002600f8581548110151561366857fe5b90600052602060002090600e02016007015414156139c3578073ffffffffffffffffffffffffffffffffffffffff1663cd26b87b8273ffffffffffffffffffffffffffffffffffffffff16635549ea51600f888154811015156136c757fe5b90600052602060002090600e020160020160009054906101000a900473ffffffffffffffffffffffffffffffffffffffff166000604051602001526040518263ffffffff167c0100000000000000000000000000000000000000000000000000000000028152600401808273ffffffffffffffffffffffffffffffffffffffff1673ffffffffffffffffffffffffffffffffffffffff168152602001915050602060405180830381600087803b151561377f57600080fd5b6102c65a03f1151561379057600080fd5b50505060405180519050600f878154811015156137a957fe5b90600052602060002090600e020160010160009054906101000a900473ffffffffffffffffffffffffffffffffffffffff16600f888154811015156137ea57fe5b90600052602060002090600e0201600501600f8981548110151561380a57fe5b90600052602060002090600e020160030154600f8a81548110151561382b57fe5b90600052602060002090600e020160040160009054906101000a900460ff16600f8b81548110151561385957fe5b90600052602060002090600e020160040160019054906101000a900460ff166040518763ffffffff167c0100000000000000000000000000000000000000000000000000000000028152600401808781526020018673ffffffffffffffffffffffffffffffffffffffff1673ffffffffffffffffffffffffffffffffffffffff1681526020018060200185600019166000191681526020018460ff1660ff1681526020018360ff1660ff16815260200182810382528681815460018160011615610100020316600290048152602001915080546001816001161561010002031660029004801561398a5780601f1061395f5761010080835404028352916020019161398a565b820191906000526020600020905b81548152906001019060200180831161396d57829003601f168201915b5050975050505050505050600060405180830381600087803b15156139ae57600080fd5b6102c65a03f115156139bf57600080fd5b5050505b5b5b614125565b6000600f858154811015156139db57fe5b90600052602060002090600e0201600701541415613c01578073ffffffffffffffffffffffffffffffffffffffff1663ca1885f7600f86815481101515613a1e57fe5b90600052602060002090600e020160010160009054906101000a900473ffffffffffffffffffffffffffffffffffffffff16600f87815481101515613a5f57fe5b90600052602060002090600e020160060160009054906101000a900460ff16600f88815481101515613a8d57fe5b90600052602060002090600e020160060160019054906101000a900460ff16600f89815481101515613abb57fe5b90600052602060002090600e02016005016040518563ffffffff167c0100000000000000000000000000000000000000000000000000000000028152600401808573ffffffffffffffffffffffffffffffffffffffff1673ffffffffffffffffffffffffffffffffffffffff168152602001841515151581526020018315151515815260200180602001828103825283818154600181600116156101000203166002900481526020019150805460018160011615610100020316600290048015613bc65780601f10613b9b57610100808354040283529160200191613bc6565b820191906000526020600020905b815481529060010190602001808311613ba957829003601f168201915b505095505050505050600060405180830381600087803b1515613be857600080fd5b6102c65a03f11515613bf957600080fd5b505050614124565b6001600f85815481101515613c1257fe5b90600052602060002090600e0201600701541415613eaa578073ffffffffffffffffffffffffffffffffffffffff166378ebd005600f86815481101515613c5557fe5b90600052602060002090600e020160010160009054906101000a900473ffffffffffffffffffffffffffffffffffffffff16600f87815481101515613c9657fe5b90600052602060002090600e020160060160009054906101000a900460ff16600f88815481101515613cc457fe5b90600052602060002090600e020160060160019054906101000a900460ff16600f89815481101515613cf257fe5b90600052602060002090600e020160060160039054906101000a900460ff16600f8a815481101515613d2057fe5b90600052602060002090600e020160060160029054906101000a900460ff16600f8b815481101515613d4e57fe5b90600052602060002090600e02016005016040518763ffffffff167c0100000000000000000000000000000000000000000000000000000000028152600401808773ffffffffffffffffffffffffffffffffffffffff1673ffffffffffffffffffffffffffffffffffffffff1681526020018615151515815260200185151515158152602001841515151581526020018315151515815260200180602001828103825283818154600181600116156101000203166002900481526020019150805460018160011615610100020316600290048015613e6d5780601f10613e4257610100808354040283529160200191613e6d565b820191906000526020600020905b815481529060010190602001808311613e5057829003601f168201915b5050975050505050505050600060405180830381600087803b1515613e9157600080fd5b6102c65a03f11515613ea257600080fd5b505050614123565b6002600f85815481101515613ebb57fe5b90600052602060002090600e0201600701541415614122578073ffffffffffffffffffffffffffffffffffffffff1663696c5219600f86815481101515613efe57fe5b90600052602060002090600e020160010160009054906101000a900473ffffffffffffffffffffffffffffffffffffffff16600f87815481101515613f3f57fe5b90600052602060002090600e0201600501600f88815481101515613f5f57fe5b90600052602060002090600e020160030154600f89815481101515613f8057fe5b90600052602060002090600e020160040160009054906101000a900460ff16600f8a815481101515613fae57fe5b90600052602060002090600e020160040160019054906101000a900460ff166000604051602001526040518663ffffffff167c0100000000000000000000000000000000000000000000000000000000028152600401808673ffffffffffffffffffffffffffffffffffffffff1673ffffffffffffffffffffffffffffffffffffffff1681526020018060200185600019166000191681526020018460ff1660ff1681526020018360ff1660ff1681526020018281038252868181546001816001161561010002031660029004815260200191508054600181600116156101000203166002900480156140e25780601f106140b7576101008083540402835291602001916140e2565b820191906000526020600020905b8154815290600101906020018083116140c557829003601f168201915b50509650505050505050602060405180830381600087803b151561410557600080fd5b6102c65a03f1151561411657600080fd5b50505060405180519050505b5b5b5b61450e565b6000600f8581548110151561413b57fe5b90600052602060002090600e0201600701541415614246578073ffffffffffffffffffffffffffffffffffffffff166331a79198600f8681548110151561417e57fe5b90600052602060002090600e020160020160009054906101000a900473ffffffffffffffffffffffffffffffffffffffff166040518263ffffffff167c0100000000000000000000000000000000000000000000000000000000028152600401808273ffffffffffffffffffffffffffffffffffffffff1673ffffffffffffffffffffffffffffffffffffffff168152602001915050600060405180830381600087803b151561422d57600080fd5b6102c65a03f1151561423e57600080fd5b50505061450d565b6001600f8581548110151561425757fe5b90600052602060002090600e0201600701541415614362578073ffffffffffffffffffffffffffffffffffffffff166311c60418600f8681548110151561429a57fe5b90600052602060002090600e020160020160009054906101000a900473ffffffffffffffffffffffffffffffffffffffff166040518263ffffffff167c0100000000000000000000000000000000000000000000000000000000028152600401808273ffffffffffffffffffffffffffffffffffffffff1673ffffffffffffffffffffffffffffffffffffffff168152602001915050600060405180830381600087803b151561434957600080fd5b6102c65a03f1151561435a57600080fd5b50505061450c565b6002600f8581548110151561437357fe5b90600052602060002090600e020160070154141561450b578073ffffffffffffffffffffffffffffffffffffffff16630e9defff8273ffffffffffffffffffffffffffffffffffffffff16635549ea51600f888154811015156143d257fe5b90600052602060002090600e020160020160009054906101000a900473ffffffffffffffffffffffffffffffffffffffff166000604051602001526040518263ffffffff167c0100000000000000000000000000000000000000000000000000000000028152600401808273ffffffffffffffffffffffffffffffffffffffff1673ffffffffffffffffffffffffffffffffffffffff168152602001915050602060405180830381600087803b151561448a57600080fd5b6102c65a03f1151561449b57600080fd5b505050604051805190506040518263ffffffff167c010000000000000000000000000000000000000000000000000000000002815260040180828152602001915050600060405180830381600087803b15156144f657600080fd5b6102c65a03f1151561450757600080fd5b5050505b5b5b5b5b6001600f8581548110151561452057fe5b90600052602060002090600e0201600b0160036101000a81548160ff021916908315150217905550600060118581548110151561455957fe5b90600052602060002090602091828204019190066101000a81548160ff021916908315150217905550601560003373ffffffffffffffffffffffffffffffffffffffff1673ffffffffffffffffffffffffffffffffffffffff16815260200190815260200160002080548060010182816145d39190614d1b565b9160005260206000209001600086909190915055507fed7c73834db4ae22add7f637175d8a32a1dddae4c154ccd25195b77df4c8d18d338585604051808473ffffffffffffffffffffffffffffffffffffffff1673ffffffffffffffffffffffffffffffffffffffff16815260200183815260200182151515158152602001935050505060405180910390a150505050565b60146020528160005260406000208181548110151561468057fe5b9060005260206000209001600091509150505481565b600080600f838154811015156146a857fe5b90600052602060002090600e0201600b0160019054906101000a900460ff161515156146d357600080fd5b42600f848154811015156146e357fe5b90600052602060002090600e0201600a015410151561470157600080fd5b600660009054906101000a900473ffffffffffffffffffffffffffffffffffffffff169050600f8381548110151561473557fe5b90600052602060002090600e0201600b0160009054906101000a900460ff161561479b57600091506001600f8481548110151561476e57fe5b90600052602060002090600e0201600b0160036101000a81548160ff0219169083151502179055506148eb565b8073ffffffffffffffffffffffffffffffffffffffff1663234d34de6000604051602001526040518163ffffffff167c0100000000000000000000000000000000000000000000000000000000028152600401602060405180830381600087803b151561480757600080fd5b6102c65a03f1151561481857600080fd5b50505060405180519050600c54026064600f8581548110151561483757fe5b90600052602060002090600e0201600d0154021015801561489e57506064600f8481548110151561486457fe5b90600052602060002090600e0201600d015402600e54600f8581548110151561488957fe5b90600052602060002090600e0201600c015402115b156148ac57600191506148ea565b600091506001600f848154811015156148c157fe5b90600052602060002090600e0201600b0160036101000a81548160ff0219169083151502179055505b5b6001600f848154811015156148fc57fe5b90600052602060002090600e0201600b0160016101000a81548160ff02191690831515021790555081600f8481548110151561493457fe5b90600052602060002090600e0201600b0160026101000a81548160ff021916908315150217905550600060108481548110151561496d57fe5b90600052602060002090602091828204019190066101000a81548160ff02191690831515021790555060016011848154811015156149a757fe5b90600052602060002090602091828204019190066101000a81548160ff0219169083151502179055507f297f1f08d2ef8c90272f7ee3e1d4272015a96cdff8a252b60547b9e432e723603384604051808373ffffffffffffffffffffffffffffffffffffffff1673ffffffffffffffffffffffffffffffffffffffff1681526020018281526020019250505060405180910390a150919050565b601081815481101515614a5057fe5b9060005260206000209060209182820401919006915054906101000a900460ff1681565b614a7c614d95565b6009805480602002602001604051908101604052809291908181526020018280548015614afe57602002820191906000526020600020905b8160009054906101000a900473ffffffffffffffffffffffffffffffffffffffff1673ffffffffffffffffffffffffffffffffffffffff1681526020019060010190808311614ab4575b5050505050905090565b600460019054906101000a900460ff1681565b600981815481101515614b2a57fe5b90600052602060002090016000915054906101000a900473ffffffffffffffffffffffffffffffffffffffff1681565b602060405190810160405280600081525090565b61028060405190810160405280600073ffffffffffffffffffffffffffffffffffffffff168152602001600073ffffffffffffffffffffffffffffffffffffffff168152602001600073ffffffffffffffffffffffffffffffffffffffff16815260200160008019168152602001600060ff168152602001600060ff168152602001614bf8614da9565b815260200160001515815260200160001515815260200160001515815260200160001515815260200160008152602001600081526020016000815260200160001515815260200160001515815260200160001515815260200160001515815260200160008152602001600081525090565b815481835581811511614c9657600e0281600e028360005260206000209182019101614c959190614dbd565b5b505050565b828054600181600116156101000203166002900490600052602060002090601f016020900481019282601f10614cdc57805160ff1916838001178555614d0a565b82800160010185558215614d0a579182015b82811115614d09578251825591602001919060010190614cee565b5b509050614d179190614f59565b5090565b815481835581811511614d4257818360005260206000209182019101614d419190614f59565b5b505050565b815481835581811511614d7c57601f016020900481601f01602090048360005260206000209182019101614d7b9190614f59565b5b505050565b602060405190810160405280600081525090565b602060405190810160405280600081525090565b602060405190810160405280600081525090565b614f5691905b80821115614f5257600080820160006101000a81549073ffffffffffffffffffffffffffffffffffffffff02191690556001820160006101000a81549073ffffffffffffffffffffffffffffffffffffffff02191690556002820160006101000a81549073ffffffffffffffffffffffffffffffffffffffff021916905560038201600090556004820160006101000a81549060ff02191690556004820160016101000a81549060ff0219169055600582016000614e819190614f7e565b6006820160006101000a81549060ff02191690556006820160016101000a81549060ff02191690556006820160026101000a81549060ff02191690556006820160036101000a81549060ff021916905560078201600090556009820160009055600a820160009055600b820160006101000a81549060ff0219169055600b820160016101000a81549060ff0219169055600b820160026101000a81549060ff0219169055600b820160036101000a81549060ff0219169055600c820160009055600d82016000905550600e01614dc3565b5090565b90565b614f7b91905b80821115614f77576000816000905550600101614f5f565b5090565b90565b50805460018160011615610100020316600290046000825580601f10614fa45750614fc3565b601f016020900490600052602060002090810190614fc29190614f59565b5b505600a165627a7a7230582035308bde7c377906e4b695c878273a0e08ccbdce412af706fc7c71c4ecb5a0360029",
  "source": "pragma solidity ^0.4.11;\n\n// Standard contract for promulgation of a norm\n\nimport \"../standardProcedure.sol\";\nimport \"../standardOrgan.sol\";\n\n\ncontract voteOnAdminsAndMastersProcedure is Procedure{\n    // 1: Cyclical many to one election (Presidential Election)\n    // 2: Cyclical many to many election (Moderators Election)\n    // 3: Simple norm nomination \n    // 4: Simple admins and master nomination\n    // 5: Vote on Norms \n    // 6: Vote on masters and admins \n    // 7: Cooptation\n    int public procedureTypeNumber = 6;\n\n    // Organ in which the voters are registered\n    address public votersOrganContract;\n\n    // Organ in which the voters with veto power are registered\n    address public membersWithVetoOrganContract;\n\n    // Organ in which final promulgators are listed\n    address public finalPromulgatorsOrganContract;\n\n    // Gathering connected organs for easier DAO mapping\n    address[] public linkedOrgans;\n\n    // ############## Variable to set up when declaring the procedure\n    // ####### Vote creation process\n\n    // ####### Voting process\n    // Time for participant to vote\n    uint public votingPeriodDuration;\n\n    // Time for president to promulgat\n    uint public promulgationPeriodDuration;\n\n    // ####### Resolution process\n    // Minimum participation to validate election. This is a percentage value; for 40% quorum, quorumSize = 40\n    uint public quorumSize;\n\n    // Variable of the procedure to keep track of propositions\n    uint public totalPropositionNumber;\n\n    // Minimum proportion of votes to win election. This is a percentage value; for 50% majority, majoritySize = 50\n    uint public majoritySize;\n\n    // Proposition structure\n    struct Proposition {\n\n        // Proposition details\n        address targetOrgan;\n        address contractToAdd;\n        address contractToRemove;\n        bytes32 ipfsHash; // ID of proposal on IPFS\n        uint8 hash_function;\n        uint8 size;\n        string name; // Admin name\n        bool canAdd;  // if true, Admin can add norms\n        bool canDelete;  // if true, Admin can delete norms\n        bool canSpend;\n        bool canDeposit;\n        uint propositionType;\n\n\n        // **** Voting variables\n        // Mapping to track user votes\n        mapping(address => bool) hasUserVoted;\n        uint startDate;\n        uint votingPeriodEndDate;\n        bool wasVetoed;\n        bool wasCounted;\n        bool wasAccepted;\n        bool wasEnded;\n        uint voteFor;\n        // uint voteAgainst;\n        uint totalVoteCount;\n\n    }\n\n\n\n    // A dynamically-sized array of `Proposition` structs.\n    Proposition[] propositions;\n\n    // Dynamic size array of status of propositions\n    bool[] public propositionsWaitingEndOfVote;\n    bool[] public propositionsWaitingPromulgation;\n\n    // Mapping each proposition to the user creating it\n    mapping (address => uint[]) public propositionToUser;    \n\n    // Mapping each proposition to the user who participated\n    mapping (address => uint[]) public propositionToVoter;\n\n    // Mapping each proposition to the user vetoing it\n    mapping (address => uint[]) public propositionToVetoer;\n\n    // Mapping each proposition to the user promulgating it\n    mapping (address => uint[]) public propositionToPromulgator;\n\n    \n\n    // Events\n\n    event createPropositionEvent(address _from, address _targetOrgan, uint _propositionType, uint _propositionNumber);\n    event createPropositionDetails(address _contractToAdd, address _contractToRemove);\n    event createMasterPropositionEvent(uint _propositionNumber, bool _canAdd, bool _canDelete, string _name);\n    event createAdminPropositionEvent(uint _propositionNumber, bool _canAdd, bool _canDelete, bool _canDeposit, bool _canSpend, string _name);\n    event createNormPropositionEvent(uint _propositionNumber, bytes32 _ipfsHash, uint8 _hash_function, uint8 _size, string name);\n\n    event voteOnProposition(address _from, uint _propositionNumber);\n    event vetoProposition(address _from, uint _propositionNumber);\n    event countVotes(address _from, uint _propositionNumber);\n    event promulgatePropositionEvent(address _from, uint _propositionNumber, bool _promulgate);\n\n    /// Create a new ballot to choose one of `proposalNames`.\n    function createProposition(address _targetOrgan, address _contractToAdd, address _contractToRemove, bytes32 _ipfsHash, uint8 _hash_function, uint8 _size, string _name, bool _canAdd, bool _canDelete, bool _canDeposit, bool _canSpend, uint _propositionType) public returns (uint propositionNumber){\n\n            // Check the proposition creator is able to make a proposition\n            Organ voterRegistryOrgan = Organ(votersOrganContract);\n            require(voterRegistryOrgan.isNorm(msg.sender));\n            delete voterRegistryOrgan;\n\n            // Retrieving proposition details\n            Proposition memory newProposition;\n            newProposition.targetOrgan = _targetOrgan;\n            newProposition.contractToAdd = _contractToAdd;\n            newProposition.contractToRemove = _contractToRemove;\n            newProposition.ipfsHash = _ipfsHash;\n            newProposition.hash_function = _hash_function;\n            newProposition.size = _size;\n            newProposition.canAdd = _canAdd;\n            newProposition.canDelete = _canDelete;\n            newProposition.canSpend = _canSpend;\n            newProposition.canDeposit = _canDeposit;\n            newProposition.propositionType = _propositionType;\n            newProposition.name = _name;\n\n            // Instanciating proposition\n\n            newProposition.startDate = now;\n            newProposition.votingPeriodEndDate = now + votingPeriodDuration;            \n            newProposition.wasVetoed = false;\n            newProposition.wasEnded = false;\n            newProposition.wasCounted = false;\n            newProposition.wasAccepted = false;\n            newProposition.totalVoteCount = 0;\n            newProposition.voteFor = 0;\n            // newProposition.voteAgainst = 0;\n            propositions.push(newProposition);\n            delete newProposition;\n\n            propositionNumber = propositions.length - 1;\n\n            // Tracking proposition being deposed\n            totalPropositionNumber += 1;\n            propositionToUser[msg.sender].push(propositionNumber);\n            propositionsWaitingEndOfVote.push(true);\n            propositionsWaitingPromulgation.push(false);\n\n            // proposition creation event\n            createPropositionEvent(msg.sender, propositions[propositionNumber].targetOrgan, _propositionType, propositionNumber);\n            createPropositionDetails(_contractToAdd, _contractToRemove);\n            if (_propositionType == 0)\n            {\n                // Master proposition event\n            createMasterPropositionEvent(propositionNumber, _canAdd, _canDelete, _name);\n            }\n            else if (_propositionType == 1)\n            {\n                // Admin proposition event\n            createAdminPropositionEvent(propositionNumber, _canAdd, _canDelete, _canDeposit, _canSpend, _name);\n            }\n            else if (_propositionType == 2)\n            {\n                // Norm proposition event\n            createNormPropositionEvent(propositionNumber, _ipfsHash, _hash_function, _size, _name);\n            }\n\n    }\n\n    /// Vote for a proposition\n    function vote(uint _propositionNumber, bool _acceptProposition) public {\n        // Check the voter is able to vote on a proposition\n        Organ voterRegistryOrgan = Organ(votersOrganContract);\n        require(voterRegistryOrgan.isNorm(msg.sender));\n        delete voterRegistryOrgan;\n        \n        // Check if voter already voted\n        require(!propositions[_propositionNumber].hasUserVoted[msg.sender]);\n\n        // Check if vote is still active\n        require(!propositions[_propositionNumber].wasCounted);\n\n        // Check if voting period ended\n        require(propositions[_propositionNumber].votingPeriodEndDate > now);\n\n        // Adding vote\n        if(_acceptProposition == true)\n        {propositions[_propositionNumber].voteFor += 1;}\n\n        // Loggin that user voted\n        propositions[_propositionNumber].hasUserVoted[msg.sender] = true;\n        \n        // Adding vote count\n        propositions[_propositionNumber].totalVoteCount += 1;\n\n        // Logging that user voted\n        propositionToVoter[msg.sender].push(_propositionNumber);\n\n        // create vote event\n        voteOnProposition(msg.sender, _propositionNumber);\n    }\n\n        /// Vote for a candidate\n    function veto(uint _propositionNumber) public {\n\n        // Check the voter is able to veto the proposition\n        Organ membersWithVetoOrgan = Organ(membersWithVetoOrganContract);\n        require(membersWithVetoOrgan.isNorm(msg.sender));\n        delete membersWithVetoOrgan;\n        \n        // Check if vote is still active\n        require(!propositions[_propositionNumber].wasCounted);\n\n        // Check if voting period ended\n        require(propositions[_propositionNumber].votingPeriodEndDate > now);\n\n        // Log that proposition was vetoed\n        propositions[_propositionNumber].wasVetoed = true;\n\n        // Log that user vetoed this proposition\n        propositionToVetoer[msg.sender].push(_propositionNumber);\n\n        //  Create veto event\n        vetoProposition(msg.sender, _propositionNumber);\n\n    }\n\n    // The vote is finished and we close it. This triggers the outcome of the vote.\n\n    function endPropositionVote(uint _propositionNumber) public returns (bool hasBeenAccepted) {\n        // We check if the vote was already counted\n        require(!propositions[_propositionNumber].wasCounted);\n\n        // Checking that the vote can be closed\n        require(propositions[_propositionNumber].votingPeriodEndDate < now);\n\n        Organ voterRegistryOrgan = Organ(votersOrganContract);\n\n        // We check that Quorum was obtained and that a majority of votes were cast in favor of the proposition\n        if (propositions[_propositionNumber].wasVetoed )\n            {hasBeenAccepted=false;\n                propositions[_propositionNumber].wasEnded = true;}\n        else if\n            ((propositions[_propositionNumber].totalVoteCount*100 >= quorumSize*voterRegistryOrgan.getActiveNormNumber()) && (propositions[_propositionNumber].voteFor*majoritySize > propositions[_propositionNumber].totalVoteCount*100))\n            {hasBeenAccepted = true;}\n        else \n            {hasBeenAccepted=false;\n            propositions[_propositionNumber].wasEnded = true;}\n\n\n        // ############## Updating ballot values if vote concluded\n        propositions[_propositionNumber].wasCounted = true;\n        propositions[_propositionNumber].wasAccepted = hasBeenAccepted;\n        propositionsWaitingEndOfVote[_propositionNumber] = false;\n        propositionsWaitingPromulgation[_propositionNumber] = true;\n\n        countVotes(msg.sender, _propositionNumber);\n    }\n\n    function promulgateProposition(uint _propositionNumber, bool _promulgate) public {\n        // Checking if ballot was already enforced\n        require(!propositions[_propositionNumber].wasEnded );\n\n        // Checking the ballot was counted\n        require(propositions[_propositionNumber].wasCounted);\n\n        // If promulgation is happening before endOfVote + promulgationPeriodDuration, check caller is an official promulgator\n        if (now < propositions[_propositionNumber].votingPeriodEndDate + promulgationPeriodDuration)\n            {        // Check the voter is able to promulgate the proposition\n            Organ promulgatorsOrgan = Organ(finalPromulgatorsOrganContract);\n            require(promulgatorsOrgan.isNorm(msg.sender));\n            delete promulgatorsOrgan;\n            }\n        else { // If Promulgator did not promulgate, the only option is validating\n            require(_promulgate);\n            }\n\n        // Checking the ballot was accepted\n        require(propositions[_propositionNumber].wasAccepted);\n\n        if ((!_promulgate)||((propositions[_propositionNumber].contractToAdd == 0x0000) && (propositions[_propositionNumber].contractToRemove == 0x0000)) )\n        {\n            // The promulgator choses to invalidate the promulgation\n            propositions[_propositionNumber].wasEnded = true;\n        }\n        else\n        {\n            // We initiate the Organ interface to add an Admin\n\n            Organ affectedOrgan = Organ(propositions[_propositionNumber].targetOrgan);\n\n            if(propositions[_propositionNumber].contractToAdd != 0x0000)\n            {\n                if (propositions[_propositionNumber].contractToRemove != 0x0000)\n                    { \n                        // Replacing\n                        if (propositions[_propositionNumber].propositionType == 0)\n                        {\n                        affectedOrgan.replaceMaster(propositions[_propositionNumber].contractToRemove, propositions[_propositionNumber].contractToAdd, propositions[_propositionNumber].canAdd, propositions[_propositionNumber].canDelete, propositions[_propositionNumber].name);\n                        }\n                        else if (propositions[_propositionNumber].propositionType == 1)\n                        {\n                        // Replacing an Admin\n                        affectedOrgan.replaceAdmin(propositions[_propositionNumber].contractToRemove, propositions[_propositionNumber].contractToAdd, propositions[_propositionNumber].canAdd, propositions[_propositionNumber].canDelete, propositions[_propositionNumber].canDeposit, propositions[_propositionNumber].canSpend, propositions[_propositionNumber].name);\n                        }\n                        else if (propositions[_propositionNumber].propositionType == 2)\n                        {\n                        affectedOrgan.replaceNorm(affectedOrgan.getAddressPositionInNorm(propositions[_propositionNumber].contractToRemove) , propositions[_propositionNumber].contractToAdd, propositions[_propositionNumber].name , propositions[_propositionNumber].ipfsHash, propositions[_propositionNumber].hash_function, propositions[_propositionNumber].size);\n                        }\n\n                    }\n                else\n                {\n                    // Adding\n                        if (propositions[_propositionNumber].propositionType == 0)\n                        {\n                        affectedOrgan.addMaster(propositions[_propositionNumber].contractToAdd, propositions[_propositionNumber].canAdd, propositions[_propositionNumber].canDelete, propositions[_propositionNumber].name);\n                        }\n                        else if (propositions[_propositionNumber].propositionType == 1)\n                        {\n                        // Adding an Admin\n                        affectedOrgan.addAdmin(propositions[_propositionNumber].contractToAdd, propositions[_propositionNumber].canAdd, propositions[_propositionNumber].canDelete, propositions[_propositionNumber].canDeposit, propositions[_propositionNumber].canSpend, propositions[_propositionNumber].name);\n                        }\n                        else if (propositions[_propositionNumber].propositionType == 2)\n                        {\n                        affectedOrgan.addNorm(propositions[_propositionNumber].contractToAdd, propositions[_propositionNumber].name , propositions[_propositionNumber].ipfsHash, propositions[_propositionNumber].hash_function, propositions[_propositionNumber].size );\n\n                        }\n                }\n            }\n            else \n            {\n                // Removing\n                if (propositions[_propositionNumber].propositionType == 0)\n                {\n                affectedOrgan.remMaster(propositions[_propositionNumber].contractToRemove);\n                }\n                else if (propositions[_propositionNumber].propositionType == 1)\n                {\n                // Removing an Admin\n                affectedOrgan.remAdmin(propositions[_propositionNumber].contractToRemove);\n                }\n                else if (propositions[_propositionNumber].propositionType == 2)\n                {\n                // Removing a norm\n                affectedOrgan.remNorm(affectedOrgan.getAddressPositionInNorm(propositions[_propositionNumber].contractToRemove));\n                }\n                \n            }        \n            \n        }\n        propositions[_propositionNumber].wasEnded = true;\n        propositionsWaitingPromulgation[_propositionNumber] = false;\n        propositionToPromulgator[msg.sender].push(_propositionNumber);\n\n\n        // promulgation event\n        promulgatePropositionEvent(msg.sender, _propositionNumber, _promulgate);\n\n    }\n\n    function archiveDefunctProposition(uint _propositionNumber) public {\n        // If a proposition contains an instruction that can not be executed (eg \"add an admin\" without having canAdd enabled), this proposition can be closed\n\n        Organ targetOrganContract = Organ(propositions[_propositionNumber].targetOrgan);\n        bool canAdd;\n        bool canDelete;\n        if (propositions[_propositionNumber].propositionType < 2){\n            (canAdd, canDelete) = targetOrganContract.isMaster(address(this));\n        }\n        else {\n            (canAdd, canDelete) = targetOrganContract.isAdmin(address(this));\n        }\n        \n        if ((!canAdd && (propositions[_propositionNumber].contractToAdd != 0x0000)) || (!canDelete && (propositions[_propositionNumber].contractToRemove != 0x0000)) )\n        {\n            propositions[_propositionNumber].wasEnded = true;\n            propositionsWaitingPromulgation[_propositionNumber] = false;\n        }\n        promulgatePropositionEvent(msg.sender, _propositionNumber, false);\n\n    }\n\n\n    //////////////////////// Functions to communicate with other contracts\n\n    function getPropositionDetails(uint _propositionNumber) public view returns (address _addressToAdd, address _addressToRemove, bool _canAdd, bool _canDelete, bool _canDeposit, bool _canSpend, string _name){\n        return (propositions[_propositionNumber].contractToAdd, propositions[_propositionNumber].contractToRemove, propositions[_propositionNumber].canAdd, propositions[_propositionNumber].canDelete, propositions[_propositionNumber].canDeposit, propositions[_propositionNumber].canSpend, propositions[_propositionNumber].name);\n    }\n    function getPropositionDocumentation(uint _propositionNumber) public view returns (address _addressToAdd, address _addressToRemove, bytes32 _ipfsHash, uint8 _hash_function, uint8 _size, uint _propositionType){\n        return (propositions[_propositionNumber].contractToAdd, propositions[_propositionNumber].contractToRemove, propositions[_propositionNumber].ipfsHash, propositions[_propositionNumber].hash_function, propositions[_propositionNumber].size, propositions[_propositionNumber].propositionType);\n    }\n    function getPropositionDates(uint _propositionNumber) public view returns (uint _startDate, uint _votingPeriodEndDate, uint _promulgatorWindowEndDate){\n        return (propositions[_propositionNumber].startDate, propositions[_propositionNumber].votingPeriodEndDate, propositions[_propositionNumber].votingPeriodEndDate + promulgationPeriodDuration);\n    }\n    function getPropositionStatus(uint _propositionNumber) public view returns (bool _wasCounted, bool _wasEnded){\n        return (propositions[_propositionNumber].wasCounted, propositions[_propositionNumber].wasEnded);\n    }\n    function getVotedPropositionResults(uint _propositionNumber) public view returns (bool _wasVetoed, bool _wasAccepted){\n        require(propositions[_propositionNumber].wasCounted);\n        return (propositions[_propositionNumber].wasVetoed, propositions[_propositionNumber].wasAccepted);\n        }\n    function getVotedPropositionStats(uint _propositionNumber) public view returns (uint _totalVoters, uint _totalVoteCount, uint _voteFor)\n        {require(propositions[_propositionNumber].wasCounted);\n        return (propositions[_propositionNumber].totalVoteCount, propositions[_propositionNumber].totalVoteCount, propositions[_propositionNumber].voteFor);}\n\n    function getPropositionsCreatedByUser(address _userAddress) public view returns (uint[])\n    {return propositionToUser[_userAddress];}    \n    function getPropositionsVetoedByUser(address _userAddress) public view returns (uint[])\n    {return propositionToVetoer[_userAddress];}  \n    function getPropositionsPromulgatedByUser(address _userAddress) public view returns (uint[])\n    {return propositionToPromulgator[_userAddress];}  \n    function getPropositionsUsedByUser(address _userAddress) public view returns (uint[])\n    {return propositionToVoter[_userAddress];}  \n    function haveIVoted(uint propositionNumber) public view returns (bool IHaveVoted)\n    {return propositions[propositionNumber].hasUserVoted[msg.sender];}\n    function getLinkedOrgans() public view returns (address[] _linkedOrgans)\n    {return linkedOrgans;}\n\n}\n\n",
  "sourcePath": "/Users/henrilieutaud/Documents/Mes documents/97/Workshop/Kelsen/solidity/contracts/procedures/voteOnAdminsAndMastersProcedure.sol",
  "compiler": {
    "name": "solc",
    "version": "0.4.19+commit.c4cbbb05.Emscripten.clang"
  },
  "schemaVersion": "2.0.0",
  "updatedAt": "2018-05-14T16:57:58.730Z"
}