{
  "_format": "hh-sol-artifact-1",
  "contractName": "NominationProcedure",
  "sourceName": "contracts/procedures/Nomination.sol",
  "abi": [
    {
      "anonymous": false,
      "inputs": [
        {
          "indexed": false,
          "internalType": "uint8",
          "name": "version",
          "type": "uint8"
        }
      ],
      "name": "Initialized",
      "type": "event"
    },
    {
      "inputs": [],
      "name": "INTERFACE_ID",
      "outputs": [
        {
          "internalType": "bytes4",
          "name": "",
          "type": "bytes4"
        }
      ],
      "stateMutability": "view",
      "type": "function"
    },
    {
      "inputs": [
        {
          "internalType": "uint256",
          "name": "proposalKey",
          "type": "uint256"
        }
      ],
      "name": "adoptProposal",
      "outputs": [],
      "stateMutability": "nonpayable",
      "type": "function"
    },
    {
      "inputs": [
        {
          "internalType": "uint256",
          "name": "proposalKey",
          "type": "uint256"
        }
      ],
      "name": "applyProposal",
      "outputs": [],
      "stateMutability": "nonpayable",
      "type": "function"
    },
    {
      "inputs": [
        {
          "internalType": "uint256",
          "name": "proposalKey",
          "type": "uint256"
        },
        {
          "internalType": "string",
          "name": "reason",
          "type": "string"
        }
      ],
      "name": "blockProposal",
      "outputs": [],
      "stateMutability": "nonpayable",
      "type": "function"
    },
    {
      "inputs": [],
      "name": "getProcedure",
      "outputs": [
        {
          "internalType": "string",
          "name": "cid",
          "type": "string"
        },
        {
          "internalType": "address payable",
          "name": "proposers",
          "type": "address"
        },
        {
          "internalType": "address payable",
          "name": "moderators",
          "type": "address"
        },
        {
          "internalType": "address payable",
          "name": "deciders",
          "type": "address"
        },
        {
          "internalType": "bool",
          "name": "withModeration",
          "type": "bool"
        },
        {
          "internalType": "uint256",
          "name": "proposalsLength",
          "type": "uint256"
        },
        {
          "internalType": "bytes4",
          "name": "interfaceId",
          "type": "bytes4"
        }
      ],
      "stateMutability": "view",
      "type": "function"
    },
    {
      "inputs": [
        {
          "internalType": "uint256",
          "name": "proposalKey",
          "type": "uint256"
        }
      ],
      "name": "getProposal",
      "outputs": [
        {
          "components": [
            {
              "internalType": "address payable",
              "name": "creator",
              "type": "address"
            },
            {
              "internalType": "string",
              "name": "cid",
              "type": "string"
            },
            {
              "internalType": "string",
              "name": "blockReason",
              "type": "string"
            },
            {
              "internalType": "bool",
              "name": "presented",
              "type": "bool"
            },
            {
              "internalType": "bool",
              "name": "blocked",
              "type": "bool"
            },
            {
              "internalType": "bool",
              "name": "adopted",
              "type": "bool"
            },
            {
              "internalType": "bool",
              "name": "applied",
              "type": "bool"
            },
            {
              "components": [
                {
                  "internalType": "uint256",
                  "name": "index",
                  "type": "uint256"
                },
                {
                  "internalType": "address payable",
                  "name": "target",
                  "type": "address"
                },
                {
                  "internalType": "bytes",
                  "name": "data",
                  "type": "bytes"
                },
                {
                  "internalType": "uint256",
                  "name": "value",
                  "type": "uint256"
                },
                {
                  "internalType": "bool",
                  "name": "processed",
                  "type": "bool"
                }
              ],
              "internalType": "struct ProcedureLibrary.Operation[]",
              "name": "operations",
              "type": "tuple[]"
            }
          ],
          "internalType": "struct ProcedureLibrary.Proposal",
          "name": "",
          "type": "tuple"
        }
      ],
      "stateMutability": "view",
      "type": "function"
    },
    {
      "inputs": [],
      "name": "getTrustedForwarder",
      "outputs": [
        {
          "internalType": "address",
          "name": "forwarder",
          "type": "address"
        }
      ],
      "stateMutability": "view",
      "type": "function"
    },
    {
      "inputs": [
        {
          "internalType": "string",
          "name": "_cid",
          "type": "string"
        },
        {
          "internalType": "address payable",
          "name": "_proposers",
          "type": "address"
        },
        {
          "internalType": "address payable",
          "name": "_moderators",
          "type": "address"
        },
        {
          "internalType": "address payable",
          "name": "_deciders",
          "type": "address"
        },
        {
          "internalType": "bool",
          "name": "_withModeration",
          "type": "bool"
        },
        {
          "internalType": "address",
          "name": "_trustedForwarder",
          "type": "address"
        }
      ],
      "name": "initialize",
      "outputs": [],
      "stateMutability": "nonpayable",
      "type": "function"
    },
    {
      "inputs": [
        {
          "internalType": "address",
          "name": "forwarder",
          "type": "address"
        }
      ],
      "name": "isTrustedForwarder",
      "outputs": [
        {
          "internalType": "bool",
          "name": "",
          "type": "bool"
        }
      ],
      "stateMutability": "view",
      "type": "function"
    },
    {
      "inputs": [
        {
          "internalType": "uint256",
          "name": "proposalKey",
          "type": "uint256"
        }
      ],
      "name": "nominate",
      "outputs": [],
      "stateMutability": "nonpayable",
      "type": "function"
    },
    {
      "inputs": [
        {
          "internalType": "uint256",
          "name": "proposalKey",
          "type": "uint256"
        }
      ],
      "name": "presentProposal",
      "outputs": [],
      "stateMutability": "nonpayable",
      "type": "function"
    },
    {
      "inputs": [
        {
          "internalType": "string",
          "name": "cid",
          "type": "string"
        },
        {
          "components": [
            {
              "internalType": "uint256",
              "name": "index",
              "type": "uint256"
            },
            {
              "internalType": "address payable",
              "name": "target",
              "type": "address"
            },
            {
              "internalType": "bytes",
              "name": "data",
              "type": "bytes"
            },
            {
              "internalType": "uint256",
              "name": "value",
              "type": "uint256"
            },
            {
              "internalType": "bool",
              "name": "processed",
              "type": "bool"
            }
          ],
          "internalType": "struct ProcedureLibrary.Operation[]",
          "name": "operations",
          "type": "tuple[]"
        }
      ],
      "name": "propose",
      "outputs": [
        {
          "internalType": "uint256",
          "name": "proposalKey",
          "type": "uint256"
        }
      ],
      "stateMutability": "nonpayable",
      "type": "function"
    },
    {
      "inputs": [
        {
          "internalType": "uint256",
          "name": "proposalKey",
          "type": "uint256"
        }
      ],
      "name": "rejectProposal",
      "outputs": [],
      "stateMutability": "nonpayable",
      "type": "function"
    },
    {
      "inputs": [
        {
          "internalType": "bytes4",
          "name": "interfaceId",
          "type": "bytes4"
        }
      ],
      "name": "supportsInterface",
      "outputs": [
        {
          "internalType": "bool",
          "name": "",
          "type": "bool"
        }
      ],
      "stateMutability": "view",
      "type": "function"
    },
    {
      "inputs": [
        {
          "internalType": "address payable",
          "name": "admin",
          "type": "address"
        }
      ],
      "name": "updateAdmin",
      "outputs": [],
      "stateMutability": "nonpayable",
      "type": "function"
    },
    {
      "inputs": [
        {
          "internalType": "string",
          "name": "cid",
          "type": "string"
        }
      ],
      "name": "updateCid",
      "outputs": [],
      "stateMutability": "nonpayable",
      "type": "function"
    }
  ],
  "bytecode": "0x608060405234801561001057600080fd5b506001805561001d610022565b6100e1565b600054610100900460ff161561008e5760405162461bcd60e51b815260206004820152602760248201527f496e697469616c697a61626c653a20636f6e747261637420697320696e697469604482015266616c697a696e6760c81b606482015260840160405180910390fd5b60005460ff908116146100df576000805460ff191660ff9081179091556040519081527f7f26b83ff96e1f2b6a682f133852f6798a09c465da95921460cefb38474024989060200160405180910390a15b565b611c09806100f06000396000f3fe608060405234801561001057600080fd5b50600436106100d05760003560e01c806301ffc9a7146100d557806309b862b9146100fd578063164d7c35146101245780631e39060714610139578063572b6c051461014c5780637823c5081461015f5780637983f0c11461017257806395f8c6fe14610185578063bc28d878146101a6578063bf5dec0f146101b9578063c5f28e49146101cc578063c7f758a8146101df578063ce1b815f146101ff578063e2f273bd1461021a578063f03f542b1461022d578063f22d9c7a14610240575b600080fd5b6100e86100e3366004611238565b61025b565b60405190151581526020015b60405180910390f35b61010b63071dbd3360e41b81565b6040516001600160e01b031990911681526020016100f4565b61013761013236600461137a565b610286565b005b610137610147366004611414565b610438565b6100e861015a36600461142d565b6104b6565b61013761016d366004611414565b6104ca565b610137610180366004611414565b610558565b61019861019336600461144a565b610574565b6040519081526020016100f4565b6101376101b4366004611414565b610603565b6101376101c73660046115ad565b610616565b6101376101da366004611414565b610689565b6101f26101ed366004611414565b610750565b6040516100f49190611713565b6002546040516001600160a01b0390911681526020016100f4565b61013761022836600461142d565b610a5c565b61013761023b3660046117ca565b610abb565b610248610afe565b6040516100f49796959493929190611806565b60006001600160e01b0319821663c5f28e4960e01b1480610280575061028082610be4565b92915050565b600054610100900460ff16158080156102a65750600054600160ff909116105b806102c05750303b1580156102c0575060005460ff166001145b6103285760405162461bcd60e51b815260206004820152602e60248201527f496e697469616c697a61626c653a20636f6e747261637420697320616c72656160448201526d191e481a5b9a5d1a585b1a5e995960921b60648201526084015b60405180910390fd5b6000805460ff19166001179055801561034b576000805461ff0019166101001790555b73__$13c1892630333e40e5fd53472016634f49$__6382ad07366003898989898989610375610c19565b6040518963ffffffff1660e01b8152600401610398989796959493929190611862565b60006040518083038186803b1580156103b057600080fd5b505af41580156103c4573d6000803e3d6000fd5b5050600280546001600160a01b0319166001600160a01b038616179055506103e99050565b801561042f576000805461ff0019169055604051600181527f7f26b83ff96e1f2b6a682f133852f6798a09c465da95921460cefb38474024989060200160405180910390a15b50505050505050565b610440610c47565b60405163851816a560e01b8152600360048201526024810182905273__$13c1892630333e40e5fd53472016634f49$__9063851816a59060440160006040518083038186803b15801561049257600080fd5b505af41580156104a6573d6000803e3d6000fd5b505050506104b360018055565b50565b6002546001600160a01b0391821691161490565b73__$13c1892630333e40e5fd53472016634f49$__63ccddc3926003836104ef610c19565b6040516001600160e01b031960e086901b168152600481019390935260248301919091526001600160a01b031660448201526064015b60006040518083038186803b15801561053d57600080fd5b505af4158015610551573d6000803e3d6000fd5b5050505050565b610560610c47565b61056b600382610ca0565b6104b360018055565b600073__$13c1892630333e40e5fd53472016634f49$__63895ef0116003858561059c610c19565b6040518563ffffffff1660e01b81526004016105bb94939291906118bf565b602060405180830381865af41580156105d8573d6000803e3d6000fd5b505050506040513d601f19601f820116820180604052508101906105fc9190611988565b9392505050565b61060b610c47565b61056b600382610d7b565b73__$13c1892630333e40e5fd53472016634f49$__63d831225b600385858561063d610c19565b6040518663ffffffff1660e01b815260040161065d9594939291906119a1565b60006040518083038186803b15801561067557600080fd5b505af415801561042f573d6000803e3d6000fd5b6006546001600160a01b031673__$13c1892630333e40e5fd53472016634f49$__637c3b86fe826106b8610c19565b6040516001600160e01b031960e085901b1681526001600160a01b03928316600482015291166024820152604401602060405180830381865af4158015610703573d6000803e3d6000fd5b505050506040513d601f19601f8201168201806040525081019061072791906119f1565b6107435760405162461bcd60e51b815260040161031f90611a0e565b61074c82610558565b5050565b604080516101008101825260008082526060602083018190529282018390528282018190526080820181905260a0820181905260c082015260e08101919091526000828152600860209081526040918290208251610100810190935280546001600160a01b0316835260018101805491928401916107cd90611a36565b80601f01602080910402602001604051908101604052809291908181526020018280546107f990611a36565b80156108465780601f1061081b57610100808354040283529160200191610846565b820191906000526020600020905b81548152906001019060200180831161082957829003601f168201915b5050505050815260200160028201805461085f90611a36565b80601f016020809104026020016040519081016040528092919081815260200182805461088b90611a36565b80156108d85780601f106108ad576101008083540402835291602001916108d8565b820191906000526020600020905b8154815290600101906020018083116108bb57829003601f168201915b5050509183525050600382015460ff808216151560208085019190915261010083048216151560408086019190915262010000840483161515606086015263010000009093049091161515608084015260048401805483518184028101840190945280845260a090940193909160009084015b82821015610a4e5760008481526020908190206040805160a081018252600586029092018054835260018101546001600160a01b0316938301939093526002830180549293929184019161099e90611a36565b80601f01602080910402602001604051908101604052809291908181526020018280546109ca90611a36565b8015610a175780601f106109ec57610100808354040283529160200191610a17565b820191906000526020600020905b8154815290600101906020018083116109fa57829003601f168201915b5050509183525050600382015460208083019190915260049092015460ff161515604090910152908252600192909201910161094b565b505050915250909392505050565b73__$13c1892630333e40e5fd53472016634f49$__630fb4dd44600383610a81610c19565b6040516001600160e01b031960e086901b16815260048101939093526001600160a01b039182166024840152166044820152606401610525565b73__$13c1892630333e40e5fd53472016634f49$__6344462e93600383610ae0610c19565b6040518463ffffffff1660e01b815260040161052593929190611a70565b600454600554600654600a54600954600380546060966000968796879687968796879690956001600160a01b0390811695811694169260ff16919063071dbd3360e41b908790610b4d90611a36565b80601f0160208091040260200160405190810160405280929190818152602001828054610b7990611a36565b8015610bc65780601f10610b9b57610100808354040283529160200191610bc6565b820191906000526020600020905b815481529060010190602001808311610ba957829003601f168201915b50505050509650965096509650965096509650965090919293949596565b60006001600160e01b0319821663071dbd3360e41b148061028057506301ffc9a760e01b6001600160e01b0319831614610280565b600060143610801590610c305750610c30336104b6565b15610c42575060131936013560601c90565b503390565b600260015403610c995760405162461bcd60e51b815260206004820152601f60248201527f5265656e7472616e637947756172643a207265656e7472616e742063616c6c00604482015260640161031f565b6002600155565b60008181526005830160205260409020600301548290829060ff168015610ce15750600081815260058301602052604090206003015462010000900460ff16155b8015610d08575060008181526005830160205260409020600301546301000000900460ff16155b8015610d2d57506000818152600583016020526040902060030154610100900460ff16155b610d495760405162461bcd60e51b815260040161031f90611a0e565b60008381526005850160205260409020600301805462ff0000191662010000179055610d758484610e4d565b50505050565b60008181526005830160205260409020600301548290829060ff168015610dbc5750600081815260058301602052604090206003015462010000900460ff16155b8015610de3575060008181526005830160205260409020600301546301000000900460ff16155b8015610e0857506000818152600583016020526040902060030154610100900460ff16155b610e245760405162461bcd60e51b815260040161031f90611a0e565b50506000908152600590910160205260409020600301805463ffff000019166301000000179055565b60008181526005830160205260409020600301548290829062010000900460ff168015610e95575060008181526005830160205260409020600301546301000000900460ff16155b8015610eba57506000818152600583016020526040902060030154610100900460ff16155b610ed65760405162461bcd60e51b815260040161031f90611a0e565b60005b60008481526005860160205260409020600401548110156111e65760008481526005860160205260409020600401805482908110610f1957610f19611aa1565b600091825260209091206004600590920201015460ff166111d65760008481526005860160205260408120600401805483908110610f5957610f59611aa1565b60009182526020909120600160059092020101546001600160a01b0316146110a45760008481526005860160205260408120600401805483908110610fa057610fa0611aa1565b60009182526020808320600592830201600101548884529189019052604090912060040180546001600160a01b039092169184908110610fe257610fe2611aa1565b906000526020600020906005020160030154876005016000888152602001908152602001600020600401848154811061101d5761101d611aa1565b906000526020600020906005020160020160405161103b9190611ab7565b60006040518083038185875af1925050503d8060008114611078576040519150601f19603f3d011682016040523d82523d6000602084013e61107d565b606091505b505090508061109e5760405162461bcd60e51b815260040161031f90611b56565b5061118a565b600084815260058601602052604081206004018054339190849081106110cc576110cc611aa1565b906000526020600020906005020160030154876005016000888152602001908152602001600020600401848154811061110757611107611aa1565b90600052602060002090600502016002016040516111259190611ab7565b60006040518083038185875af1925050503d8060008114611162576040519150601f19603f3d011682016040523d82523d6000602084013e611167565b606091505b50509050806111885760405162461bcd60e51b815260040161031f90611b56565b505b60008481526005860160205260409020600401805460019190839081106111b3576111b3611aa1565b60009182526020909120600590910201600401805460ff19169115159190911790555b6111df81611bac565b9050610ed9565b506000838152600585016020526040808220600301805463ff000000191663010000001790555184917f371ea0b2792b493783478379b73e5d65d5f7e3d03fe343fbe6396d87ece6562491a250505050565b60006020828403121561124a57600080fd5b81356001600160e01b0319811681146105fc57600080fd5b634e487b7160e01b600052604160045260246000fd5b60405160a081016001600160401b038111828210171561129a5761129a611262565b60405290565b604051601f8201601f191681016001600160401b03811182821017156112c8576112c8611262565b604052919050565b60006001600160401b038311156112e9576112e9611262565b6112fc601f8401601f19166020016112a0565b905082815283838301111561131057600080fd5b828260208301376000602084830101529392505050565b600082601f83011261133857600080fd5b6105fc838335602085016112d0565b6001600160a01b03811681146104b357600080fd5b80151581146104b357600080fd5b80356113758161135c565b919050565b60008060008060008060c0878903121561139357600080fd5b86356001600160401b038111156113a957600080fd5b6113b589828a01611327565b96505060208701356113c681611347565b945060408701356113d681611347565b935060608701356113e681611347565b925060808701356113f68161135c565b915060a087013561140681611347565b809150509295509295509295565b60006020828403121561142657600080fd5b5035919050565b60006020828403121561143f57600080fd5b81356105fc81611347565b600080604080848603121561145e57600080fd5b83356001600160401b038082111561147557600080fd5b61148187838801611327565b945060209150818601358181111561149857600080fd5b8601601f810188136114a957600080fd5b8035828111156114bb576114bb611262565b8060051b6114ca8582016112a0565b918252828101850191858101908b8411156114e457600080fd5b86850192505b8383101561159b5782358681111561150157600080fd5b850160a0818e03601f1901121561151757600080fd5b61151f611278565b8882013581528982013561153281611347565b818a01526060820135888111156115495760008081fd5b8201603f81018f1361155b5760008081fd5b61156b8f8b8301358d84016112d0565b8b83015250608080830135606083015261158760a0840161136a565b9082015283525091860191908601906114ea565b80985050505050505050509250929050565b6000806000604084860312156115c257600080fd5b8335925060208401356001600160401b03808211156115e057600080fd5b818601915086601f8301126115f457600080fd5b81358181111561160357600080fd5b87602082850101111561161557600080fd5b6020830194508093505050509250925092565b6001600160a01b03169052565b6000815180845260005b8181101561165b5760208185018101518683018201520161163f565b506000602082860101526020601f19601f83011685010191505092915050565b600081518084526020808501808196508360051b8101915082860160005b85811015611706578284038952815180518552858101516001600160a01b03168686015260408082015160a082880181905291906116d983890182611635565b606085810151908a0152608094850151151594909801939093525050509784019790840190600101611699565b5091979650505050505050565b60208152611725602082018351611628565b60006020830151610100806040850152611743610120850183611635565b91506040850151601f19808685030160608701526117618483611635565b935060608701519150611778608087018315159052565b608087015180151560a0880152915060a087015180151560c0880152915060c087015180151560e0880152915060e08701519150808685030183870152506117c0838261167b565b9695505050505050565b6000602082840312156117dc57600080fd5b81356001600160401b038111156117f257600080fd5b6117fe84828501611327565b949350505050565b60e08152600061181960e083018a611635565b6001600160a01b039889166020840152968816604083015250939095166060840152901515608083015260a08201526001600160e01b031990921660c090920191909152919050565b60006101008a835280602084015261187c8184018b611635565b6001600160a01b03998a16604085015297891660608401525050938616608085015291151560a0840152841660c083015290921660e09092019190915292915050565b60006080868352602081818501526118d982850188611635565b6040858203818701528188518084528484019150848160051b850101858b0160005b8381101561196657868303601f19018552815180518452888101516001600160a01b0316898501528681015160a08886018190529061193c82870182611635565b60608481015190880152928c01511515958c019590955250948801949250908701906001016118fb565b50508097505050505050505061197f6060830184611628565b95945050505050565b60006020828403121561199a57600080fd5b5051919050565b85815284602082015260806040820152826080820152828460a0830137600081840160a0908101919091526001600160a01b03929092166060820152601f909201601f1916909101019392505050565b600060208284031215611a0357600080fd5b81516105fc8161135c565b6020808252600e908201526d139bdd08185d5d1a1bdc9a5e995960921b604082015260600190565b600181811c90821680611a4a57607f821691505b602082108103611a6a57634e487b7160e01b600052602260045260246000fd5b50919050565b838152606060208201526000611a896060830185611635565b905060018060a01b0383166040830152949350505050565b634e487b7160e01b600052603260045260246000fd5b600080835481600182811c915080831680611ad357607f831692505b60208084108203611af257634e487b7160e01b86526022600452602486fd5b818015611b065760018114611b1b57611b48565b60ff1986168952841515850289019650611b48565b60008a81526020902060005b86811015611b405781548b820152908501908301611b27565b505084890196505b509498975050505050505050565b60208082526036908201527f50726f706f73616c206e6f74206170706c6965642c20756e6465726c79696e67604082015275103a3930b739b0b1ba34b7b7103932bb32b93a32b21760511b606082015260800190565b600060018201611bcc57634e487b7160e01b600052601160045260246000fd5b506001019056fea26469706673582212204effd6f205d41866ac3705e358827cd496d019895617512494970bf404a22e5764736f6c63430008130033",
  "linkReferences": {
    "contracts/libraries/ProcedureLibrary.sol": {
      "ProcedureLibrary": [
        {
          "length": 20,
          "start": 1085
        },
        {
          "length": 20,
          "start": 1357
        },
        {
          "length": 20,
          "start": 1468
        },
        {
          "length": 20,
          "start": 1640
        },
        {
          "length": 20,
          "start": 1800
        },
        {
          "length": 20,
          "start": 1927
        },
        {
          "length": 20,
          "start": 2894
        },
        {
          "length": 20,
          "start": 2989
        }
      ]
    }
  },
  "deployedLinkReferences": {
    "contracts/libraries/ProcedureLibrary.sol": {
      "ProcedureLibrary": [
        {
          "length": 20,
          "start": 845
        },
        {
          "length": 20,
          "start": 1117
        },
        {
          "length": 20,
          "start": 1228
        },
        {
          "length": 20,
          "start": 1400
        },
        {
          "length": 20,
          "start": 1560
        },
        {
          "length": 20,
          "start": 1687
        },
        {
          "length": 20,
          "start": 2654
        },
        {
          "length": 20,
          "start": 2749
        }
      ]
    }
  }
}