{
  "_format": "hh-sol-artifact-1",
  "contractName": "VoteProcedure",
  "sourceName": "contracts/procedures/Vote.sol",
  "abi": [
    {
      "inputs": [],
      "name": "InvalidInitialization",
      "type": "error"
    },
    {
      "inputs": [],
      "name": "NotInitializing",
      "type": "error"
    },
    {
      "inputs": [],
      "name": "ReentrancyGuardReentrantCall",
      "type": "error"
    },
    {
      "anonymous": false,
      "inputs": [
        {
          "indexed": false,
          "internalType": "uint64",
          "name": "version",
          "type": "uint64"
        }
      ],
      "name": "Initialized",
      "type": "event"
    },
    {
      "anonymous": false,
      "inputs": [
        {
          "indexed": true,
          "internalType": "uint256",
          "name": "proposalKey",
          "type": "uint256"
        }
      ],
      "name": "ProposalApplied",
      "type": "event"
    },
    {
      "inputs": [],
      "name": "INTERFACE_ID",
      "outputs": [
        {
          "internalType": "bytes4",
          "name": "",
          "type": "bytes4"
        }
      ],
      "stateMutability": "view",
      "type": "function"
    },
    {
      "inputs": [
        {
          "internalType": "uint256",
          "name": "proposalKey",
          "type": "uint256"
        }
      ],
      "name": "adoptProposal",
      "outputs": [],
      "stateMutability": "nonpayable",
      "type": "function"
    },
    {
      "inputs": [
        {
          "internalType": "uint256",
          "name": "proposalKey",
          "type": "uint256"
        }
      ],
      "name": "applyProposal",
      "outputs": [],
      "stateMutability": "nonpayable",
      "type": "function"
    },
    {
      "inputs": [
        {
          "internalType": "uint256",
          "name": "proposalKey",
          "type": "uint256"
        },
        {
          "internalType": "string",
          "name": "reason",
          "type": "string"
        }
      ],
      "name": "blockProposal",
      "outputs": [],
      "stateMutability": "nonpayable",
      "type": "function"
    },
    {
      "inputs": [
        {
          "internalType": "uint256",
          "name": "proposalKey",
          "type": "uint256"
        }
      ],
      "name": "count",
      "outputs": [
        {
          "internalType": "bool",
          "name": "approved",
          "type": "bool"
        }
      ],
      "stateMutability": "view",
      "type": "function"
    },
    {
      "inputs": [
        {
          "internalType": "uint256",
          "name": "_proposalKey",
          "type": "uint256"
        }
      ],
      "name": "getElection",
      "outputs": [
        {
          "internalType": "uint256",
          "name": "start",
          "type": "uint256"
        },
        {
          "internalType": "bool",
          "name": "hasVoted",
          "type": "bool"
        },
        {
          "internalType": "uint256",
          "name": "votesCount",
          "type": "uint256"
        }
      ],
      "stateMutability": "view",
      "type": "function"
    },
    {
      "inputs": [],
      "name": "getProcedure",
      "outputs": [
        {
          "internalType": "string",
          "name": "cid",
          "type": "string"
        },
        {
          "internalType": "address payable",
          "name": "proposers",
          "type": "address"
        },
        {
          "internalType": "address payable",
          "name": "moderators",
          "type": "address"
        },
        {
          "internalType": "address payable",
          "name": "deciders",
          "type": "address"
        },
        {
          "internalType": "bool",
          "name": "withModeration",
          "type": "bool"
        },
        {
          "internalType": "uint256",
          "name": "proposalsLength",
          "type": "uint256"
        },
        {
          "internalType": "bytes4",
          "name": "interfaceId",
          "type": "bytes4"
        }
      ],
      "stateMutability": "view",
      "type": "function"
    },
    {
      "inputs": [
        {
          "internalType": "uint256",
          "name": "proposalKey",
          "type": "uint256"
        }
      ],
      "name": "getProposal",
      "outputs": [
        {
          "components": [
            {
              "internalType": "address payable",
              "name": "creator",
              "type": "address"
            },
            {
              "internalType": "string",
              "name": "cid",
              "type": "string"
            },
            {
              "internalType": "string",
              "name": "blockReason",
              "type": "string"
            },
            {
              "internalType": "bool",
              "name": "presented",
              "type": "bool"
            },
            {
              "internalType": "bool",
              "name": "blocked",
              "type": "bool"
            },
            {
              "internalType": "bool",
              "name": "adopted",
              "type": "bool"
            },
            {
              "internalType": "bool",
              "name": "applied",
              "type": "bool"
            },
            {
              "components": [
                {
                  "internalType": "uint256",
                  "name": "index",
                  "type": "uint256"
                },
                {
                  "internalType": "address payable",
                  "name": "target",
                  "type": "address"
                },
                {
                  "internalType": "bytes",
                  "name": "data",
                  "type": "bytes"
                },
                {
                  "internalType": "uint256",
                  "name": "value",
                  "type": "uint256"
                },
                {
                  "internalType": "bool",
                  "name": "processed",
                  "type": "bool"
                }
              ],
              "internalType": "struct ProcedureLibrary.Operation[]",
              "name": "operations",
              "type": "tuple[]"
            }
          ],
          "internalType": "struct ProcedureLibrary.Proposal",
          "name": "",
          "type": "tuple"
        }
      ],
      "stateMutability": "view",
      "type": "function"
    },
    {
      "inputs": [
        {
          "internalType": "string",
          "name": "",
          "type": "string"
        },
        {
          "internalType": "address payable",
          "name": "",
          "type": "address"
        },
        {
          "internalType": "address payable",
          "name": "",
          "type": "address"
        },
        {
          "internalType": "address payable",
          "name": "",
          "type": "address"
        },
        {
          "internalType": "bool",
          "name": "",
          "type": "bool"
        },
        {
          "internalType": "address",
          "name": "",
          "type": "address"
        }
      ],
      "name": "initialize",
      "outputs": [],
      "stateMutability": "pure",
      "type": "function"
    },
    {
      "inputs": [
        {
          "internalType": "string",
          "name": "_cid",
          "type": "string"
        },
        {
          "internalType": "address payable",
          "name": "_proposers",
          "type": "address"
        },
        {
          "internalType": "address payable",
          "name": "_moderators",
          "type": "address"
        },
        {
          "internalType": "address payable",
          "name": "_deciders",
          "type": "address"
        },
        {
          "internalType": "bool",
          "name": "_withModeration",
          "type": "bool"
        },
        {
          "internalType": "address",
          "name": "_trustedForwarder",
          "type": "address"
        },
        {
          "internalType": "uint32",
          "name": "_quorumSize",
          "type": "uint32"
        },
        {
          "internalType": "uint32",
          "name": "_voteDuration",
          "type": "uint32"
        },
        {
          "internalType": "uint32",
          "name": "_majoritySize",
          "type": "uint32"
        }
      ],
      "name": "initialize",
      "outputs": [],
      "stateMutability": "nonpayable",
      "type": "function"
    },
    {
      "inputs": [
        {
          "internalType": "address",
          "name": "forwarder",
          "type": "address"
        }
      ],
      "name": "isTrustedForwarder",
      "outputs": [
        {
          "internalType": "bool",
          "name": "",
          "type": "bool"
        }
      ],
      "stateMutability": "view",
      "type": "function"
    },
    {
      "inputs": [],
      "name": "majoritySize",
      "outputs": [
        {
          "internalType": "uint32",
          "name": "",
          "type": "uint32"
        }
      ],
      "stateMutability": "view",
      "type": "function"
    },
    {
      "inputs": [
        {
          "internalType": "uint256",
          "name": "proposalKey",
          "type": "uint256"
        }
      ],
      "name": "presentProposal",
      "outputs": [],
      "stateMutability": "nonpayable",
      "type": "function"
    },
    {
      "inputs": [
        {
          "internalType": "string",
          "name": "_cid",
          "type": "string"
        },
        {
          "components": [
            {
              "internalType": "uint256",
              "name": "index",
              "type": "uint256"
            },
            {
              "internalType": "address payable",
              "name": "target",
              "type": "address"
            },
            {
              "internalType": "bytes",
              "name": "data",
              "type": "bytes"
            },
            {
              "internalType": "uint256",
              "name": "value",
              "type": "uint256"
            },
            {
              "internalType": "bool",
              "name": "processed",
              "type": "bool"
            }
          ],
          "internalType": "struct ProcedureLibrary.Operation[]",
          "name": "_operations",
          "type": "tuple[]"
        }
      ],
      "name": "propose",
      "outputs": [
        {
          "internalType": "uint256",
          "name": "proposalKey",
          "type": "uint256"
        }
      ],
      "stateMutability": "nonpayable",
      "type": "function"
    },
    {
      "inputs": [],
      "name": "quorumSize",
      "outputs": [
        {
          "internalType": "uint32",
          "name": "",
          "type": "uint32"
        }
      ],
      "stateMutability": "view",
      "type": "function"
    },
    {
      "inputs": [
        {
          "internalType": "uint256",
          "name": "proposalKey",
          "type": "uint256"
        }
      ],
      "name": "rejectProposal",
      "outputs": [],
      "stateMutability": "nonpayable",
      "type": "function"
    },
    {
      "inputs": [
        {
          "internalType": "bytes4",
          "name": "interfaceId",
          "type": "bytes4"
        }
      ],
      "name": "supportsInterface",
      "outputs": [
        {
          "internalType": "bool",
          "name": "",
          "type": "bool"
        }
      ],
      "stateMutability": "view",
      "type": "function"
    },
    {
      "inputs": [],
      "name": "trustedForwarder",
      "outputs": [
        {
          "internalType": "address",
          "name": "",
          "type": "address"
        }
      ],
      "stateMutability": "view",
      "type": "function"
    },
    {
      "inputs": [
        {
          "internalType": "address payable",
          "name": "admin",
          "type": "address"
        }
      ],
      "name": "updateAdmin",
      "outputs": [],
      "stateMutability": "nonpayable",
      "type": "function"
    },
    {
      "inputs": [
        {
          "internalType": "string",
          "name": "cid",
          "type": "string"
        }
      ],
      "name": "updateCid",
      "outputs": [],
      "stateMutability": "nonpayable",
      "type": "function"
    },
    {
      "inputs": [
        {
          "internalType": "uint256",
          "name": "proposalKey",
          "type": "uint256"
        },
        {
          "internalType": "bool",
          "name": "approval",
          "type": "bool"
        }
      ],
      "name": "vote",
      "outputs": [],
      "stateMutability": "nonpayable",
      "type": "function"
    },
    {
      "inputs": [],
      "name": "voteDuration",
      "outputs": [
        {
          "internalType": "uint32",
          "name": "",
          "type": "uint32"
        }
      ],
      "stateMutability": "view",
      "type": "function"
    }
  ],
  "bytecode": "0x60806040523480156200001157600080fd5b5060016000556200002162000027565b620000db565b7ff0c57e16840df040f15088dc2f81fe391c3923bec73e23a9662efc9c229c6a00805468010000000000000000900460ff1615620000785760405163f92ee8a960e01b815260040160405180910390fd5b80546001600160401b0390811614620000d85780546001600160401b0319166001600160401b0390811782556040519081527fc7f505b2f371ae2175ee4913f4499e1f2633a7b5936321eed1cdaeb6115181d29060200160405180910390a15b50565b61290280620000eb6000396000f3fe608060405234801561001057600080fd5b50600436106101125760003560e01c806301ffc9a71461011757806309b862b91461013f578063164d7c35146101665780631e3906071461017b5780633068ef4d1461018e5780633b3546c8146101b357806356364499146101c6578063572b6c05146101dd57806369e48eac146101f05780637823c508146102035780637983f0c1146102165780637da0a8771461022957806395f8c6fe146102445780639d710777146102655780639f32551b14610293578063bc28d878146102aa578063bf5dec0f146102bd578063c7f758a8146102d0578063c9d27afe146102f0578063e2f273bd14610303578063f03f542b14610316578063f22d9c7a14610329575b600080fd5b61012a610125366004611c9a565b610344565b60405190151581526020015b60405180910390f35b61014d63071dbd3360e41b81565b6040516001600160e01b03199091168152602001610136565b610179610174366004611ddd565b61036f565b005b610179610189366004611e77565b6103b1565b600c5461019e9063ffffffff1681565b60405163ffffffff9091168152602001610136565b61012a6101c1366004611e77565b610430565b600c5461019e90600160201b900463ffffffff1681565b61012a6101eb366004611e90565b610727565b6101796101fe366004611ec1565b61073b565b610179610211366004611e77565b610794565b610179610224366004611e77565b61085a565b6001546040516001600160a01b039091168152602001610136565b610257610252366004611f9a565b610927565b604051908152602001610136565b610278610273366004611e77565b610a13565b60408051938452911515602084015290820152606001610136565b600c5461019e90600160401b900463ffffffff1681565b6101796102b8366004611e77565b610a71565b6101796102cb3660046120fd565b610a8e565b6102e36102de366004611e77565b610b99565b6040516101369190612263565b6101796102fe36600461231a565b610ea5565b610179610311366004611e90565b611172565b61017961032436600461234a565b611200565b610331611243565b6040516101369796959493929190612386565b60006001600160e01b031982166364e93d7f60e11b1480610369575061036982611329565b92915050565b60405162461bcd60e51b81526020600482015260126024820152714d697373696e6720706172616d657465727360701b60448201526064015b60405180910390fd5b6103b961135e565b60405163851816a560e01b8152600260048201526024810182905273__$13c1892630333e40e5fd53472016634f49$__9063851816a59060440160006040518083038186803b15801561040b57600080fd5b505af415801561041f573d6000803e3d6000fd5b5050505061042d6001600055565b50565b6000818152600b602052604081205461047a5760405162461bcd60e51b815260206004820152600c60248201526b27379032b632b1ba34b7b71760a11b60448201526064016103a8565b600c546000838152600b60205260409020546104a391600160201b900463ffffffff16906123f8565b4210156104e85760405162461bcd60e51b815260206004820152601360248201527222b632b1ba34b7b7103737ba1032b73232b21760691b60448201526064016103a8565b6005546040805163685b3cb560e01b815290516000926001600160a01b03169163685b3cb591600480830192869291908290030181865afa158015610531573d6000803e3d6000fd5b505050506040513d6000823e601f3d908101601f19168201604052610559919081019061240b565b50600c54909450620186a09350610579925084915063ffffffff166124b5565b61058391906124cc565b6000848152600b602052604090206003015410156105a45750600092915050565b6000805b6000858152600b602052604090206002015481101561069a576000858152600b6020526040812060028101805460019092019291849081106105ec576105ec6124ee565b60009182526020808320909101546001600160a01b0316835282019290925260400190205460ff16801561067557506000858152600b602052604081206002810180546001909201929184908110610646576106466124ee565b60009182526020808320909101546001600160a01b0316835282019290925260400190205460ff610100909104165b15610688578161068481612504565b9250505b8061069281612504565b9150506105a8565b506000848152600b60205260409020600301546106e35760405162461bcd60e51b81526020600482015260076024820152664e6f20766f746560c81b60448201526064016103a8565b600c546000858152600b6020526040902060030154620186a09161071591600160401b90910463ffffffff16906124b5565b61071f91906124cc565b109392505050565b6001546001600160a01b0391821691161490565b610749898989898989611388565b600c805463ffffffff9485166001600160401b031990911617600160201b938516939093029290921763ffffffff60401b1916600160401b9190931602919091179055505050505050565b6004546001600160a01b031673__$13c1892630333e40e5fd53472016634f49$__637c3b86fe826107c361151b565b6040518363ffffffff1660e01b81526004016107e092919061251d565b602060405180830381865af41580156107fd573d6000803e3d6000fd5b505050506040513d601f19601f820116820180604052508101906108219190612537565b61083d5760405162461bcd60e51b81526004016103a890612554565b61084682611563565b506000908152600b60205260409020429055565b6004546001600160a01b031673__$13c1892630333e40e5fd53472016634f49$__637c3b86fe8261088961151b565b6040518363ffffffff1660e01b81526004016108a692919061251d565b602060405180830381865af41580156108c3573d6000803e3d6000fd5b505050506040513d601f19601f820116820180604052508101906108e79190612537565b6109035760405162461bcd60e51b81526004016103a890612554565b61090c82610430565b1561091e5761091a826115c2565b5050565b61091a82610a71565b6003546000906001600160a01b031673__$13c1892630333e40e5fd53472016634f49$__637c3b86fe8261095961151b565b6040518363ffffffff1660e01b815260040161097692919061251d565b602060405180830381865af4158015610993573d6000803e3d6000fd5b505050506040513d601f19601f820116820180604052508101906109b79190612537565b6109d35760405162461bcd60e51b81526004016103a890612554565b6109dd84846115d5565b60008181526007602052604090206003015490925060ff1615610a0c576000828152600b602052604090204290555b5092915050565b6000818152600b602052604081208054829182919060010182610a3461151b565b6001600160a01b031681526020808201929092526040908101600090812054888252600b909352206003015491945060ff16925090509193909250565b610a7961135e565b610a84600282611664565b61042d6001600055565b6004546001600160a01b031673__$13c1892630333e40e5fd53472016634f49$__637c3b86fe82610abd61151b565b6040518363ffffffff1660e01b8152600401610ada92919061251d565b602060405180830381865af4158015610af7573d6000803e3d6000fd5b505050506040513d601f19601f82011682018060405250810190610b1b9190612537565b610b375760405162461bcd60e51b81526004016103a890612554565b6000848152600b60205260408120549003610b885760405162461bcd60e51b815260206004820152601160248201527022b632b1ba34b7b71039ba30b93a32b21760791b60448201526064016103a8565b610b93848484611736565b50505050565b604080516101008101825260008082526060602083018190529282018390528282018190526080820181905260a0820181905260c082015260e08101919091526000828152600760209081526040918290208251610100810190935280546001600160a01b031683526001810180549192840191610c169061257c565b80601f0160208091040260200160405190810160405280929190818152602001828054610c429061257c565b8015610c8f5780601f10610c6457610100808354040283529160200191610c8f565b820191906000526020600020905b815481529060010190602001808311610c7257829003601f168201915b50505050508152602001600282018054610ca89061257c565b80601f0160208091040260200160405190810160405280929190818152602001828054610cd49061257c565b8015610d215780601f10610cf657610100808354040283529160200191610d21565b820191906000526020600020905b815481529060010190602001808311610d0457829003601f168201915b5050509183525050600382015460ff808216151560208085019190915261010083048216151560408086019190915262010000840483161515606086015263010000009093049091161515608084015260048401805483518184028101840190945280845260a090940193909160009084015b82821015610e975760008481526020908190206040805160a081018252600586029092018054835260018101546001600160a01b03169383019390935260028301805492939291840191610de79061257c565b80601f0160208091040260200160405190810160405280929190818152602001828054610e139061257c565b8015610e605780601f10610e3557610100808354040283529160200191610e60565b820191906000526020600020905b815481529060010190602001808311610e4357829003601f168201915b5050509183525050600382015460208083019190915260049092015460ff1615156040909101529082526001929092019101610d94565b505050915250909392505050565b6005546001600160a01b031673__$13c1892630333e40e5fd53472016634f49$__637c3b86fe82610ed461151b565b6040518363ffffffff1660e01b8152600401610ef192919061251d565b602060405180830381865af4158015610f0e573d6000803e3d6000fd5b505050506040513d601f19601f82011682018060405250810190610f329190612537565b610f4e5760405162461bcd60e51b81526004016103a890612554565b6000838152600b60205260409020544211610fa35760405162461bcd60e51b815260206004820152601560248201527422b632b1ba34b7b7103737ba1039ba30b93a32b21760591b60448201526064016103a8565b600c546000848152600b6020526040902054610fcc91600160201b900463ffffffff16906123f8565b421061100c5760405162461bcd60e51b815260206004820152600f60248201526e22b632b1ba34b7b71032b73232b21760891b60448201526064016103a8565b6000838152600b602052604081206001019061102661151b565b6001600160a01b0316815260208101919091526040016000205460ff16156110845760405162461bcd60e51b8152602060048201526011602482015270223ab83634b1b0ba32903932b1b7b9321760791b60448201526064016103a8565b6040518060400160405280600115158152602001831515815250600b600085815260200190815260200160002060010160006110be61151b565b6001600160a01b0316815260208082019290925260409081016000908120845181549585015161ffff1990961690151561ff001916176101009515159590950294909417909355858352600b909152902060020161111a61151b565b81546001810183556000928352602080842090910180546001600160a01b0319166001600160a01b039390931692909217909155848252600b90526040812060030180549161116883612504565b9190505550505050565b73__$13c1892630333e40e5fd53472016634f49$__630fb4dd4460028361119761151b565b6040516001600160e01b031960e086901b16815260048101939093526001600160a01b0391821660248401521660448201526064015b60006040518083038186803b1580156111e557600080fd5b505af41580156111f9573d6000803e3d6000fd5b5050505050565b73__$13c1892630333e40e5fd53472016634f49$__6344462e9360028361122561151b565b6040518463ffffffff1660e01b81526004016111cd939291906125b6565b600354600454600554600954600854600280546060966000968796879687968796879690956001600160a01b0390811695811694169260ff16919063071dbd3360e41b9087906112929061257c565b80601f01602080910402602001604051908101604052809291908181526020018280546112be9061257c565b801561130b5780601f106112e05761010080835404028352916020019161130b565b820191906000526020600020905b8154815290600101906020018083116112ee57829003601f168201915b50505050509650965096509650965096509650965090919293949596565b60006001600160e01b0319821663071dbd3360e41b148061036957506301ffc9a760e01b6001600160e01b0319831614610369565b60026000540361138157604051633ee5aeb560e01b815260040160405180910390fd5b6002600055565b60006113926117b2565b805490915060ff600160401b82041615906001600160401b03166000811580156113b95750825b90506000826001600160401b031660011480156113d55750303b155b9050811580156113e3575080155b156114015760405163f92ee8a960e01b815260040160405180910390fd5b84546001600160401b0319166001178555831561142a57845460ff60401b1916600160401b1785555b73__$13c1892630333e40e5fd53472016634f49$__6382ad073660028d8d8d8d8d8d61145461151b565b6040518963ffffffff1660e01b81526004016114779897969594939291906125e7565b60006040518083038186803b15801561148f57600080fd5b505af41580156114a3573d6000803e3d6000fd5b5050600180546001600160a01b0319166001600160a01b038a16179055506114c89050565b831561150e57845460ff60401b19168555604051600181527fc7f505b2f371ae2175ee4913f4499e1f2633a7b5936321eed1cdaeb6115181d29060200160405180910390a15b5050505050505050505050565b6000366014808210801590611534575061153433610727565b1561155b5761154836828403816000612644565b6115519161266e565b60601c9250505090565b339250505090565b73__$13c1892630333e40e5fd53472016634f49$__63ccddc39260028361158861151b565b6040516001600160e01b031960e086901b168152600481019390935260248301919091526001600160a01b031660448201526064016111cd565b6115ca61135e565b610a846002826117db565b600073__$13c1892630333e40e5fd53472016634f49$__63895ef011600285856115fd61151b565b6040518563ffffffff1660e01b815260040161161c949392919061269e565b602060405180830381865af4158015611639573d6000803e3d6000fd5b505050506040513d601f19601f8201168201806040525081019061165d9190612767565b9392505050565b60008181526005830160205260409020600301548290829060ff1680156116a55750600081815260058301602052604090206003015462010000900460ff16155b80156116cc575060008181526005830160205260409020600301546301000000900460ff16155b80156116f157506000818152600583016020526040902060030154610100900460ff16155b61170d5760405162461bcd60e51b81526004016103a890612554565b50506000908152600590910160205260409020600301805463ffff000019166301000000179055565b73__$13c1892630333e40e5fd53472016634f49$__63d831225b600285858561175d61151b565b6040518663ffffffff1660e01b815260040161177d959493929190612780565b60006040518083038186803b15801561179557600080fd5b505af41580156117a9573d6000803e3d6000fd5b50505050505050565b6000807ff0c57e16840df040f15088dc2f81fe391c3923bec73e23a9662efc9c229c6a00610369565b60008181526005830160205260409020600301548290829060ff16801561181c5750600081815260058301602052604090206003015462010000900460ff16155b8015611843575060008181526005830160205260409020600301546301000000900460ff16155b801561186857506000818152600583016020526040902060030154610100900460ff16155b6118845760405162461bcd60e51b81526004016103a890612554565b60008381526005850160205260409020600301805462ff000019166201000090811791829055610b939186918691839183910460ff1680156118e1575060008181526005830160205260409020600301546301000000900460ff16155b801561190657506000818152600583016020526040902060030154610100900460ff16155b6119225760405162461bcd60e51b81526004016103a890612554565b60005b6000848152600586016020526040902060040154811015611c325760008481526005860160205260409020600401805482908110611965576119656124ee565b600091825260209091206004600590920201015460ff16611c2257600084815260058601602052604081206004018054839081106119a5576119a56124ee565b60009182526020909120600160059092020101546001600160a01b031614611af057600084815260058601602052604081206004018054839081106119ec576119ec6124ee565b60009182526020808320600592830201600101548884529189019052604090912060040180546001600160a01b039092169184908110611a2e57611a2e6124ee565b9060005260206000209060050201600301548760050160008881526020019081526020016000206004018481548110611a6957611a696124ee565b9060005260206000209060050201600201604051611a8791906127d0565b60006040518083038185875af1925050503d8060008114611ac4576040519150601f19603f3d011682016040523d82523d6000602084013e611ac9565b606091505b5050905080611aea5760405162461bcd60e51b81526004016103a89061286f565b50611bd6565b60008481526005860160205260408120600401805433919084908110611b1857611b186124ee565b9060005260206000209060050201600301548760050160008881526020019081526020016000206004018481548110611b5357611b536124ee565b9060005260206000209060050201600201604051611b7191906127d0565b60006040518083038185875af1925050503d8060008114611bae576040519150601f19603f3d011682016040523d82523d6000602084013e611bb3565b606091505b5050905080611bd45760405162461bcd60e51b81526004016103a89061286f565b505b6000848152600586016020526040902060040180546001919083908110611bff57611bff6124ee565b60009182526020909120600590910201600401805460ff19169115159190911790555b611c2b81612504565b9050611925565b506000838152600585016020526040808220600301805463ff000000191663010000001790555184917f371ea0b2792b493783478379b73e5d65d5f7e3d03fe343fbe6396d87ece6562491a250505050565b6001600160e01b03198116811461042d57600080fd5b600060208284031215611cac57600080fd5b813561165d81611c84565b634e487b7160e01b600052604160045260246000fd5b60405160a081016001600160401b0381118282101715611cef57611cef611cb7565b60405290565b604051601f8201601f191681016001600160401b0381118282101715611d1d57611d1d611cb7565b604052919050565b60006001600160401b03821115611d3e57611d3e611cb7565b50601f01601f191660200190565b6000611d5f611d5a84611d25565b611cf5565b9050828152838383011115611d7357600080fd5b828260208301376000602084830101529392505050565b600082601f830112611d9b57600080fd5b61165d83833560208501611d4c565b6001600160a01b038116811461042d57600080fd5b801515811461042d57600080fd5b8035611dd881611dbf565b919050565b60008060008060008060c08789031215611df657600080fd5b86356001600160401b03811115611e0c57600080fd5b611e1889828a01611d8a565b9650506020870135611e2981611daa565b94506040870135611e3981611daa565b93506060870135611e4981611daa565b92506080870135611e5981611dbf565b915060a0870135611e6981611daa565b809150509295509295509295565b600060208284031215611e8957600080fd5b5035919050565b600060208284031215611ea257600080fd5b813561165d81611daa565b803563ffffffff81168114611dd857600080fd5b60008060008060008060008060006101208a8c031215611ee057600080fd5b89356001600160401b03811115611ef657600080fd5b611f028c828d01611d8a565b99505060208a0135611f1381611daa565b975060408a0135611f2381611daa565b965060608a0135611f3381611daa565b955060808a0135611f4381611dbf565b945060a08a0135611f5381611daa565b9350611f6160c08b01611ead565b9250611f6f60e08b01611ead565b9150611f7e6101008b01611ead565b90509295985092959850929598565b6001600160a01b03169052565b6000806040808486031215611fae57600080fd5b83356001600160401b0380821115611fc557600080fd5b611fd187838801611d8a565b9450602091508186013581811115611fe857600080fd5b8601601f81018813611ff957600080fd5b80358281111561200b5761200b611cb7565b8060051b61201a858201611cf5565b918252828101850191858101908b84111561203457600080fd5b86850192505b838310156120eb5782358681111561205157600080fd5b850160a0818e03601f1901121561206757600080fd5b61206f611ccd565b8882013581528982013561208281611daa565b818a01526060820135888111156120995760008081fd5b8201603f81018f136120ab5760008081fd5b6120bb8f8b8301358d8401611d4c565b8b8301525060808083013560608301526120d760a08401611dcd565b90820152835250918601919086019061203a565b80985050505050505050509250929050565b60008060006040848603121561211257600080fd5b8335925060208401356001600160401b038082111561213057600080fd5b818601915086601f83011261214457600080fd5b81358181111561215357600080fd5b87602082850101111561216557600080fd5b6020830194508093505050509250925092565b60005b8381101561219357818101518382015260200161217b565b50506000910152565b600081518084526121b4816020860160208601612178565b601f01601f19169290920160200192915050565b600082825180855260208086019550808260051b84010181860160005b8481101561225657858303601f19018952815180518452848101516001600160a01b03168585015260408082015160a082870181905291906122298388018261219c565b606085810151908901526080948501511515949097019390935250505097830197908301906001016121e5565b5090979650505050505050565b60208152612275602082018351611f8d565b6000602083015161010080604085015261229361012085018361219c565b91506040850151601f19808685030160608701526122b1848361219c565b9350606087015191506122c8608087018315159052565b608087015180151560a0880152915060a087015180151560c0880152915060c087015180151560e0880152915060e087015191508086850301838701525061231083826121c8565b9695505050505050565b6000806040838503121561232d57600080fd5b82359150602083013561233f81611dbf565b809150509250929050565b60006020828403121561235c57600080fd5b81356001600160401b0381111561237257600080fd5b61237e84828501611d8a565b949350505050565b60e08152600061239960e083018a61219c565b6001600160a01b039889166020840152968816604083015250939095166060840152901515608083015260a08201526001600160e01b031990921660c090920191909152919050565b634e487b7160e01b600052601160045260246000fd5b80820180821115610369576103696123e2565b600080600080600060a0868803121561242357600080fd5b85516001600160401b0381111561243957600080fd5b8601601f8101881361244a57600080fd5b8051612458611d5a82611d25565b81815289602083850101111561246d57600080fd5b61247e826020830160208601612178565b80975050505060208601519350604086015192506060860151915060808601516124a781611c84565b809150509295509295909350565b8082028115828204841417610369576103696123e2565b6000826124e957634e487b7160e01b600052601260045260246000fd5b500490565b634e487b7160e01b600052603260045260246000fd5b600060018201612516576125166123e2565b5060010190565b6001600160a01b0392831681529116602082015260400190565b60006020828403121561254957600080fd5b815161165d81611dbf565b6020808252600e908201526d139bdd08185d5d1a1bdc9a5e995960921b604082015260600190565b600181811c9082168061259057607f821691505b6020821081036125b057634e487b7160e01b600052602260045260246000fd5b50919050565b8381526060602082015260006125cf606083018561219c565b905060018060a01b0383166040830152949350505050565b60006101008a83528060208401526126018184018b61219c565b6001600160a01b03998a16604085015297891660608401525050938616608085015291151560a0840152841660c083015290921660e09092019190915292915050565b6000808585111561265457600080fd5b8386111561266157600080fd5b5050820193919092039150565b6001600160601b031981358181169160148510156126965780818660140360031b1b83161692505b505092915050565b60006080868352602081818501526126b88285018861219c565b6040858203818701528188518084528484019150848160051b850101858b0160005b8381101561274557868303601f19018552815180518452888101516001600160a01b0316898501528681015160a08886018190529061271b8287018261219c565b60608481015190880152928c01511515958c019590955250948801949250908701906001016126da565b50508097505050505050505061275e6060830184611f8d565b95945050505050565b60006020828403121561277957600080fd5b5051919050565b85815284602082015260806040820152826080820152828460a0830137600081840160a0908101919091526001600160a01b03929092166060820152601f909201601f1916909101019392505050565b600080835481600182811c9150808316806127ec57607f831692505b6020808410820361280b57634e487b7160e01b86526022600452602486fd5b81801561281f576001811461283457612861565b60ff1986168952841515850289019650612861565b60008a81526020902060005b868110156128595781548b820152908501908301612840565b505084890196505b509498975050505050505050565b6020808252603e908201527f4661696c656420746f206170706c792070726f706f73616c3a2074686520756e60408201527f6465726c79696e67207472616e73616374696f6e2072657665727465642e000060608201526080019056fea264697066735822122005bcb1ea5a7adcef1f18f2ee8091a2c413ed5c9ec784c9967b141090d7c1d08364736f6c63430008140033",
  "linkReferences": {
    "contracts/libraries/ProcedureLibrary.sol": {
      "ProcedureLibrary": [
        {
          "length": 20,
          "start": 1217
        },
        {
          "length": 20,
          "start": 2189
        },
        {
          "length": 20,
          "start": 2387
        },
        {
          "length": 20,
          "start": 2595
        },
        {
          "length": 20,
          "start": 2951
        },
        {
          "length": 20,
          "start": 3998
        },
        {
          "length": 20,
          "start": 4703
        },
        {
          "length": 20,
          "start": 4845
        },
        {
          "length": 20,
          "start": 5399
        },
        {
          "length": 20,
          "start": 5712
        },
        {
          "length": 20,
          "start": 5828
        },
        {
          "length": 20,
          "start": 6179
        }
      ]
    }
  },
  "deployedLinkReferences": {
    "contracts/libraries/ProcedureLibrary.sol": {
      "ProcedureLibrary": [
        {
          "length": 20,
          "start": 982
        },
        {
          "length": 20,
          "start": 1954
        },
        {
          "length": 20,
          "start": 2152
        },
        {
          "length": 20,
          "start": 2360
        },
        {
          "length": 20,
          "start": 2716
        },
        {
          "length": 20,
          "start": 3763
        },
        {
          "length": 20,
          "start": 4468
        },
        {
          "length": 20,
          "start": 4610
        },
        {
          "length": 20,
          "start": 5164
        },
        {
          "length": 20,
          "start": 5477
        },
        {
          "length": 20,
          "start": 5593
        },
        {
          "length": 20,
          "start": 5944
        }
      ]
    }
  }
}