{
  "_format": "hh-sol-artifact-1",
  "contractName": "OrganLibrary",
  "sourceName": "contracts/libraries/OrganLibrary.sol",
  "abi": [
    {
      "anonymous": false,
      "inputs": [
        {
          "indexed": false,
          "internalType": "address",
          "name": "from",
          "type": "address"
        },
        {
          "indexed": false,
          "internalType": "address",
          "name": "admin",
          "type": "address"
        }
      ],
      "name": "adminUpdated",
      "type": "event"
    },
    {
      "anonymous": false,
      "inputs": [
        {
          "indexed": false,
          "internalType": "address",
          "name": "from",
          "type": "address"
        },
        {
          "indexed": false,
          "internalType": "string",
          "name": "cid",
          "type": "string"
        }
      ],
      "name": "cidUpdated",
      "type": "event"
    },
    {
      "anonymous": false,
      "inputs": [
        {
          "indexed": false,
          "internalType": "address",
          "name": "operator",
          "type": "address"
        },
        {
          "indexed": false,
          "internalType": "address",
          "name": "from",
          "type": "address"
        },
        {
          "indexed": false,
          "internalType": "address",
          "name": "to",
          "type": "address"
        },
        {
          "indexed": false,
          "internalType": "uint256",
          "name": "amount",
          "type": "uint256"
        }
      ],
      "name": "coinsReceived",
      "type": "event"
    },
    {
      "anonymous": false,
      "inputs": [
        {
          "indexed": false,
          "internalType": "address",
          "name": "operator",
          "type": "address"
        },
        {
          "indexed": false,
          "internalType": "address",
          "name": "from",
          "type": "address"
        },
        {
          "indexed": false,
          "internalType": "address",
          "name": "to",
          "type": "address"
        },
        {
          "indexed": false,
          "internalType": "uint256",
          "name": "amount",
          "type": "uint256"
        }
      ],
      "name": "coinsTransferred",
      "type": "event"
    },
    {
      "anonymous": false,
      "inputs": [
        {
          "indexed": false,
          "internalType": "address",
          "name": "operator",
          "type": "address"
        },
        {
          "indexed": false,
          "internalType": "address",
          "name": "from",
          "type": "address"
        },
        {
          "indexed": false,
          "internalType": "uint256",
          "name": "tokenId",
          "type": "uint256"
        }
      ],
      "name": "collectibleReceived",
      "type": "event"
    },
    {
      "anonymous": false,
      "inputs": [
        {
          "indexed": false,
          "internalType": "address",
          "name": "operator",
          "type": "address"
        },
        {
          "indexed": false,
          "internalType": "address",
          "name": "to",
          "type": "address"
        },
        {
          "indexed": false,
          "internalType": "uint256",
          "name": "tokenId",
          "type": "uint256"
        }
      ],
      "name": "collectibleTransferred",
      "type": "event"
    },
    {
      "anonymous": false,
      "inputs": [
        {
          "indexed": false,
          "internalType": "address",
          "name": "from",
          "type": "address"
        },
        {
          "indexed": false,
          "internalType": "uint256",
          "name": "index",
          "type": "uint256"
        },
        {
          "indexed": false,
          "internalType": "address",
          "name": "addr",
          "type": "address"
        },
        {
          "indexed": false,
          "internalType": "string",
          "name": "cid",
          "type": "string"
        }
      ],
      "name": "entryAdded",
      "type": "event"
    },
    {
      "anonymous": false,
      "inputs": [
        {
          "indexed": false,
          "internalType": "address",
          "name": "from",
          "type": "address"
        },
        {
          "indexed": false,
          "internalType": "uint256",
          "name": "index",
          "type": "uint256"
        }
      ],
      "name": "entryRemoved",
      "type": "event"
    },
    {
      "anonymous": false,
      "inputs": [
        {
          "indexed": false,
          "internalType": "address",
          "name": "from",
          "type": "address"
        },
        {
          "indexed": false,
          "internalType": "uint256",
          "name": "amount",
          "type": "uint256"
        }
      ],
      "name": "etherReceived",
      "type": "event"
    },
    {
      "anonymous": false,
      "inputs": [
        {
          "indexed": false,
          "internalType": "address",
          "name": "from",
          "type": "address"
        },
        {
          "indexed": false,
          "internalType": "address",
          "name": "to",
          "type": "address"
        },
        {
          "indexed": false,
          "internalType": "uint256",
          "name": "amount",
          "type": "uint256"
        }
      ],
      "name": "etherTransferred",
      "type": "event"
    },
    {
      "anonymous": false,
      "inputs": [
        {
          "indexed": false,
          "internalType": "address",
          "name": "from",
          "type": "address"
        },
        {
          "indexed": false,
          "internalType": "address",
          "name": "procedure",
          "type": "address"
        },
        {
          "indexed": false,
          "internalType": "bytes2",
          "name": "permissions",
          "type": "bytes2"
        }
      ],
      "name": "procedureAdded",
      "type": "event"
    },
    {
      "anonymous": false,
      "inputs": [
        {
          "indexed": false,
          "internalType": "address",
          "name": "from",
          "type": "address"
        },
        {
          "indexed": false,
          "internalType": "address",
          "name": "procedure",
          "type": "address"
        }
      ],
      "name": "procedureRemoved",
      "type": "event"
    },
    {
      "inputs": [],
      "name": "PERMISSION_ADD_ENTRIES",
      "outputs": [
        {
          "internalType": "bytes2",
          "name": "",
          "type": "bytes2"
        }
      ],
      "stateMutability": "view",
      "type": "function"
    },
    {
      "inputs": [],
      "name": "PERMISSION_ADD_PROCEDURES",
      "outputs": [
        {
          "internalType": "bytes2",
          "name": "",
          "type": "bytes2"
        }
      ],
      "stateMutability": "view",
      "type": "function"
    },
    {
      "inputs": [],
      "name": "PERMISSION_DEPOSIT_COINS",
      "outputs": [
        {
          "internalType": "bytes2",
          "name": "",
          "type": "bytes2"
        }
      ],
      "stateMutability": "view",
      "type": "function"
    },
    {
      "inputs": [],
      "name": "PERMISSION_DEPOSIT_COLLECTIBLES",
      "outputs": [
        {
          "internalType": "bytes2",
          "name": "",
          "type": "bytes2"
        }
      ],
      "stateMutability": "view",
      "type": "function"
    },
    {
      "inputs": [],
      "name": "PERMISSION_DEPOSIT_ETHER",
      "outputs": [
        {
          "internalType": "bytes2",
          "name": "",
          "type": "bytes2"
        }
      ],
      "stateMutability": "view",
      "type": "function"
    },
    {
      "inputs": [],
      "name": "PERMISSION_REMOVE_ENTRIES",
      "outputs": [
        {
          "internalType": "bytes2",
          "name": "",
          "type": "bytes2"
        }
      ],
      "stateMutability": "view",
      "type": "function"
    },
    {
      "inputs": [],
      "name": "PERMISSION_REMOVE_PROCEDURES",
      "outputs": [
        {
          "internalType": "bytes2",
          "name": "",
          "type": "bytes2"
        }
      ],
      "stateMutability": "view",
      "type": "function"
    },
    {
      "inputs": [],
      "name": "PERMISSION_UPDATE_METADATA",
      "outputs": [
        {
          "internalType": "bytes2",
          "name": "",
          "type": "bytes2"
        }
      ],
      "stateMutability": "view",
      "type": "function"
    },
    {
      "inputs": [],
      "name": "PERMISSION_WITHDRAW_COINS",
      "outputs": [
        {
          "internalType": "bytes2",
          "name": "",
          "type": "bytes2"
        }
      ],
      "stateMutability": "view",
      "type": "function"
    },
    {
      "inputs": [],
      "name": "PERMISSION_WITHDRAW_COLLECTIBLES",
      "outputs": [
        {
          "internalType": "bytes2",
          "name": "",
          "type": "bytes2"
        }
      ],
      "stateMutability": "view",
      "type": "function"
    },
    {
      "inputs": [],
      "name": "PERMISSION_WITHDRAW_ETHER",
      "outputs": [
        {
          "internalType": "bytes2",
          "name": "",
          "type": "bytes2"
        }
      ],
      "stateMutability": "view",
      "type": "function"
    }
  ],
  "bytecode": "0x61248561003a600b82828239805160001a60731461002d57634e487b7160e01b600052600060045260246000fd5b30600052607381538281f3fe730000000000000000000000000000000000000000301460806040526004361061015e5760003560e01c8063051488a8146101635780631ceaa38a1461018c57806324f8b7df146101ae5780632d2a4205146101dc5780633b1a16cf146101e75780634227d174146101f25780634bc01d121461021257806350be2a0d1461023257806359352859146102525780636337a8d5146102655780636bca3df7146102705780637573ea45146102905780638114cbea1461029b578063842519fb146102a6578063863e5d16146102b157806388c7fc54146102ec5780638a8b325a146102f75780638d6ee760146103175780638ebc3a881461032257806392023c471461032d5780639710d1811461034d578063b0248ab814610358578063b0bd74a414610378578063ba3ac48614610398578063bfbb1b1f146103b8578063c9303814146103e5578063ca42cca814610405578063dd67b85614610418575b600080fd5b61016e600160f81b81565b6040516001600160f01b031990911681526020015b60405180910390f35b81801561019857600080fd5b506101ac6101a736600461196c565b610438565b005b8180156101ba57600080fd5b506101ce6101c93660046119df565b610563565b604051908152602001610183565b61016e600160f51b81565b61016e600160fa1b81565b8180156101fe57600080fd5b506101ac61020d366004611ae5565b610698565b81801561021e57600080fd5b506101ac61022d366004611b3f565b61075a565b81801561023e57600080fd5b506101ac61024d36600461196c565b61084a565b6101ce610260366004611b7e565b610966565b61016e600160f31b81565b81801561027c57600080fd5b506101ac61028b366004611ba0565b610994565b61016e600160f01b81565b61016e600160f41b81565b61016e600160f91b81565b6102c46102bf366004611b7e565b610a64565b604080516001600160a01b0390931683526001600160f01b0319909116602083015201610183565b61016e600160f61b81565b81801561030357600080fd5b506101ac610312366004611c00565b610a9e565b61016e600160f21b81565b61016e600160f11b81565b81801561033957600080fd5b506101ac610348366004611cc1565b610b46565b61016e600160f71b81565b81801561036457600080fd5b506101ac610373366004611d07565b610da6565b81801561038457600080fd5b506101ac61039336600461196c565b610e95565b8180156103a457600080fd5b506101ac6103b3366004611d3e565b610f3f565b8180156103c457600080fd5b506103d86103d3366004611dc7565b611136565b6040516101839190611e98565b8180156103f157600080fd5b506101ac610400366004611edc565b611497565b6101ce610413366004611f7f565b611662565b81801561042457600080fd5b506101ac610433366004611f98565b611670565b6001600160a01b03831660009081526005860160205260409020548590600160f81b90859060f01b82168214806104915750600080805260058401602052604090205460f01b82166001600160f01b0319908116908316145b6104b65760405162461bcd60e51b81526004016104ad90611fc6565b60405180910390fd5b604051634decdde360e11b81526060906001600160a01b03891690639bd9bbc6906104e990899089908690600401612035565b600060405180830381600087803b15801561050357600080fd5b505af1158015610517573d6000803e3d6000fd5b505050507f9df0034edd0538407262676cf5883fee08c9655adc9aa709deaf4d58fc3946e8888888886040516105509493929190612065565b60405180910390a1505050505050505050565b6001600160a01b03811660009081526005850160205260408120548590600160f01b90849060f01b82168214806105bc5750600080805260058401602052604090205460f01b82166001600160f01b0319908116908316145b6105d85760405162461bcd60e51b81526004016104ad90611fc6565b6105e56003890188611716565b156106025760405162461bcd60e51b81526004016104ad9061208f565b6001600160f01b0319861660000361062c5760405162461bcd60e51b81526004016104ad906120ba565b6106396003890188611732565b506001600160a01b038716600090815260058901602052604090819020805461ffff191660f089901c17905551600080516020612430833981519152906106859087908a908a906120ea565b60405180910390a1505050949350505050565b6001600160a01b03811660009081526005840160205260409020548390600160f41b90839060f01b82168214806106f15750600080805260058401602052604090205460f01b82166001600160f01b0319908116908316145b61070d5760405162461bcd60e51b81526004016104ad90611fc6565b8561071886826121a0565b507fa991ce5b410db3ebc88a3442f64764e791b0d8ca9a9380a81f6c626e1949923e848660405161074a92919061225f565b60405180910390a1505050505050565b6001600160a01b03811660009081526005850160205260409020548490600160f61b90839060f01b82168214806107b35750600080805260058401602052604090205460f01b82166001600160f01b0319908116908316145b6107cf5760405162461bcd60e51b81526004016104ad90611fc6565b6040516001600160a01b0387169086156108fc029087906000818181858888f19350505050158015610805573d6000803e3d6000fd5b507f888f4e5e3828b86878e550f0d9966a72db1fa81bed7bd7537481075f6b2c237d8487876040516108399392919061228b565b60405180910390a150505050505050565b6001600160a01b03831660009081526005860160205260409020548590600160fa1b90859060f01b82168214806108a35750600080805260058401602052604090205460f01b82166001600160f01b0319908116908316145b6108bf5760405162461bcd60e51b81526004016104ad90611fc6565b604051632142170760e11b81526001600160a01b038816906342842e0e906108ef9089908990899060040161228b565b600060405180830381600087803b15801561090957600080fd5b505af115801561091d573d6000803e3d6000fd5b505050507f8e804bbf6f6b1556cf1371c58fce001012969e584497e633a931750c479c70a78786866040516109549392919061228b565b60405180910390a15050505050505050565b600082600101828154811061097d5761097d6122af565b906000526020600020906002020190505b92915050565b60006001600160a01b0384166109aa57816109ac565b835b6001600160a01b03811660009081526005870160205260409020805461ffff191661ffff17905590506109e26003860182611732565b50846109ee84826121a0565b5060408051808201825260008082528251602080820190945281815283830190815260018981018054808301825590845294909220835160029095020180546001600160a01b0319166001600160a01b039095169490941784555191929190820190610a5a90826121a0565b5050505050505050565b600080610a746003850184611747565b6001600160a01b038116600090815260058601602052604090205490925060f01b90509250929050565b6001600160a01b03821660009081526005850160205260409020548490600160f91b90849060f01b8216821480610af75750600080805260058401602052604090205460f01b82166001600160f01b0319908116908316145b610b135760405162461bcd60e51b81526004016104ad90611fc6565b7fe5e97c239ef97530361e497f81ff5c1271fd4ea83a1876459ace5eea3e428fac8686866040516108399392919061228b565b6001600160a01b03811660009081526005850160205260409020548490600160f31b90839060f01b8216821480610b9f5750600080805260058401602052604090205460f01b82166001600160f01b0319908116908316145b610bbb5760405162461bcd60e51b81526004016104ad90611fc6565b6001600160a01b03841660009081526005880160205260409020548790600160f21b90869060f01b8216821480610c145750600080805260058401602052604090205460f01b82166001600160f01b0319908116908316145b610c305760405162461bcd60e51b81526004016104ad90611fc6565b87516001600160a01b031615610c785787516001600160a01b0316600090815260068b016020526040902054610c785760405162461bcd60e51b81526004016104ad906122c5565b60008a60060160008c6001018c81548110610c9557610c956122af565b600091825260208083206002909202909101546001600160a01b03168352820192909252604090810190912091909155516000805160206123d083398151915290610ce39089908c906122f0565b60405180910390a1878a6001018a81548110610d0157610d016122af565b600091825260209182902083516002929092020180546001600160a01b0319166001600160a01b03909216919091178155908201516001820190610d4590826121a0565b505088516001600160a01b0316600090815260068c0160209081526040918290208c90558a51908b015191516000805160206124108339815191529350610d92928b928e92909190612309565b60405180910390a150505050505050505050565b6001600160a01b03811660009081526005840160205260409020548390600160f11b90839060f01b8216821480610dff5750600080805260058401602052604090205460f01b82166001600160f01b0319908116908316145b610e1b5760405162461bcd60e51b81526004016104ad90611fc6565b610e286003870186611716565b610e445760405162461bcd60e51b81526004016104ad906122c5565b610e516003870186611753565b506001600160a01b038516600090815260058701602052604090819020805461ffff19169055516000805160206123f08339815191529061074a9086908890612346565b6001600160a01b03831660009081526005860160205260409020548590600160f71b90859060f01b8216821480610eee5750600080805260058401602052604090205460f01b82166001600160f01b0319908116908316145b610f0a5760405162461bcd60e51b81526004016104ad90611fc6565b7f2cd05e0dd8d1973240403d6f7b5af34f709ea79a0f5199fcc9ebc4102919fd40878787876040516109549493929190612065565b6001600160a01b03811660009081526005860160205260409020548590600160f11b90839060f01b8216821480610f985750600080805260058401602052604090205460f01b82166001600160f01b0319908116908316145b610fb45760405162461bcd60e51b81526004016104ad90611fc6565b6001600160a01b03841660009081526005890160205260409020548890600160f01b90869060f01b821682148061100d5750600080805260058401602052604090205460f01b82166001600160f01b0319908116908316145b6110295760405162461bcd60e51b81526004016104ad90611fc6565b61103660038c018b611716565b6110525760405162461bcd60e51b81526004016104ad906122c5565b6001600160f01b031988166110795760405162461bcd60e51b81526004016104ad906120ba565b886001600160a01b03168a6001600160a01b0316146110af5761109e8b8a8a8a610563565b506110aa8b8b89610da6565b6110d9565b6001600160a01b038916600090815260058c0160205260409020805461ffff191660f08a901c1790555b6000805160206123f0833981519152878b6040516110f8929190612346565b60405180910390a1600080516020612430833981519152878a8a604051611121939291906120ea565b60405180910390a15050505050505050505050565b6001600160a01b03811660009081526005840160205260409020546060908490600160f21b90849060f01b82168214806111925750600080805260058401602052604090205460f01b82166001600160f01b0319908116908316145b6111ae5760405162461bcd60e51b81526004016104ad90611fc6565b60008651116111f75760405162461bcd60e51b815260206004820152601560248201527427379032b73a3934b2b99039b832b1b4b334b2b21760591b60448201526064016104ad565b85516001600160401b0381111561121057611210611a30565b604051908082528060200260200182016040528015611239578160200160208202803683370190505b50935060005b865181101561148c5760006001600160a01b0316878281518110611265576112656122af565b6020026020010151600001516001600160a01b0316146112e357876006016000888381518110611297576112976122af565b6020026020010151600001516001600160a01b03166001600160a01b03168152602001908152602001600020546000146112e35760405162461bcd60e51b81526004016104ad9061208f565b876001018782815181106112f9576112f96122af565b602090810291909101810151825460018082018555600094855293839020825160029092020180546001600160a01b0319166001600160a01b0390921691909117815591810151909282019061134f90826121a0565b5050506001888101546113629190612376565b858281518110611374576113746122af565b602002602001018181525050848181518110611392576113926122af565b60200260200101518860060160008984815181106113b2576113b26122af565b6020026020010151600001516001600160a01b03166001600160a01b03168152602001908152602001600020819055508760020160008154809291906113f790612389565b91905055506000805160206124108339815191528686838151811061141e5761141e6122af565b6020026020010151898481518110611438576114386122af565b6020026020010151600001518a8581518110611456576114566122af565b6020026020010151602001516040516114729493929190612309565b60405180910390a18061148481612389565b91505061123f565b505050509392505050565b6001600160a01b03811660009081526005840160205260409020548390600160f31b90839060f01b82168214806114f05750600080805260058401602052604090205460f01b82166001600160f01b0319908116908316145b61150c5760405162461bcd60e51b81526004016104ad90611fc6565b60005b855181101561165957600087600101878381518110611530576115306122af565b602002602001015181548110611548576115486122af565b600091825260209091206002909102015487516001600160a01b039091169150600189019088908490811061157f5761157f6122af565b602002602001015181548110611597576115976122af565b60009182526020822060029091020180546001600160a01b0319168155906115c260018301826118f1565b50506002880180549060006115d6836123a2565b90915550506001600160a01b03811615611606576001600160a01b03811660009081526006890160205260408120555b6000805160206123d083398151915286888481518110611628576116286122af565b602002602001015160405161163e9291906122f0565b60405180910390a1508061165181612389565b91505061150f565b50505050505050565b600061098e82600301611768565b6001600160a01b03811660009081526005840160205260409020548390600160f51b90839060f01b82168214806116c95750600080805260058401602052604090205460f01b82166001600160f01b0319908116908316145b6116e55760405162461bcd60e51b81526004016104ad90611fc6565b7fcbbd8e1693c80baea4b26f9f5b28e2fea72633c6953e2dc612f123c5b8cf9d49848660405161074a9291906122f0565b600061172b836001600160a01b038416611772565b9392505050565b600061172b836001600160a01b03841661178a565b600061172b83836117d4565b600061172b836001600160a01b0384166117fe565b600061098e825490565b60009081526001919091016020526040902054151590565b60006117968383611772565b6117cc5750815460018181018455600084815260208082209093018490558454848252828601909352604090209190915561098e565b50600061098e565b60008260000182815481106117eb576117eb6122af565b9060005260206000200154905092915050565b600081815260018301602052604081205480156118e7576000611822600183612376565b855490915060009061183690600190612376565b905081811461189b576000866000018281548110611856576118566122af565b9060005260206000200154905080876000018481548110611879576118796122af565b6000918252602080832090910192909255918252600188019052604090208390555b85548690806118ac576118ac6123b9565b60019003818190600052602060002001600090559055856001016000868152602001908152602001600020600090556001935050505061098e565b600091505061098e565b5080546118fd90612117565b6000825580601f1061190d575050565b601f01602090049060005260206000209081019061192b919061192e565b50565b5b80821115611943576000815560010161192f565b5090565b6001600160a01b038116811461192b57600080fd5b803561196781611947565b919050565b600080600080600060a0868803121561198457600080fd5b85359450602086013561199681611947565b935060408601356119a681611947565b925060608601356119b681611947565b949793965091946080013592915050565b80356001600160f01b03198116811461196757600080fd5b600080600080608085870312156119f557600080fd5b843593506020850135611a0781611947565b9250611a15604086016119c7565b91506060850135611a2581611947565b939692955090935050565b634e487b7160e01b600052604160045260246000fd5b604051601f8201601f191681016001600160401b0381118282101715611a6e57611a6e611a30565b604052919050565b600082601f830112611a8757600080fd5b81356001600160401b03811115611aa057611aa0611a30565b611ab3601f8201601f1916602001611a46565b818152846020838601011115611ac857600080fd5b816020850160208301376000918101602001919091529392505050565b600080600060608486031215611afa57600080fd5b8335925060208401356001600160401b03811115611b1757600080fd5b611b2386828701611a76565b9250506040840135611b3481611947565b809150509250925092565b60008060008060808587031215611b5557600080fd5b843593506020850135611b6781611947565b9250604085013591506060850135611a2581611947565b60008060408385031215611b9157600080fd5b50508035926020909101359150565b60008060008060808587031215611bb657600080fd5b843593506020850135611bc881611947565b925060408501356001600160401b03811115611be357600080fd5b611bef87828801611a76565b9250506060850135611a2581611947565b60008060008060808587031215611c1657600080fd5b843593506020850135611c2881611947565b92506040850135611c3881611947565b9396929550929360600135925050565b600060408284031215611c5a57600080fd5b604080519081016001600160401b038082118383101715611c7d57611c7d611a30565b8160405282935084359150611c9182611947565b90825260208401359080821115611ca757600080fd5b50611cb485828601611a76565b6020830152505092915050565b60008060008060808587031215611cd757600080fd5b843593506020850135925060408501356001600160401b03811115611cfb57600080fd5b611bef87828801611c48565b600080600060608486031215611d1c57600080fd5b833592506020840135611d2e81611947565b91506040840135611b3481611947565b600080600080600060a08688031215611d5657600080fd5b853594506020860135611d6881611947565b93506040860135611d7881611947565b9250611d86606087016119c7565b91506080860135611d9681611947565b809150509295509295909350565b60006001600160401b03821115611dbd57611dbd611a30565b5060051b60200190565b600080600060608486031215611ddc57600080fd5b833592506020808501356001600160401b0380821115611dfb57600080fd5b818701915087601f830112611e0f57600080fd5b8135611e22611e1d82611da4565b611a46565b81815260059190911b8301840190848101908a831115611e4157600080fd5b8585015b83811015611e7957803585811115611e5d5760008081fd5b611e6b8d89838a0101611c48565b845250918601918601611e45565b50809750505050505050611e8f6040850161195c565b90509250925092565b6020808252825182820181905260009190848201906040850190845b81811015611ed057835183529284019291840191600101611eb4565b50909695505050505050565b600080600060608486031215611ef157600080fd5b833592506020808501356001600160401b03811115611f0f57600080fd5b8501601f81018713611f2057600080fd5b8035611f2e611e1d82611da4565b81815260059190911b82018301908381019089831115611f4d57600080fd5b928401925b82841015611f6b57833582529284019290840190611f52565b8096505050505050611e8f6040850161195c565b600060208284031215611f9157600080fd5b5035919050565b600080600060608486031215611fad57600080fd5b83359250602084013591506040840135611b3481611947565b6020808252600f908201526e2737ba1030baba3437b934bd32b21760891b604082015260600190565b6000815180845260005b8181101561201557602081850181015186830182015201611ff9565b506000602082860101526020601f19601f83011685010191505092915050565b60018060a01b038416815282602082015260606040820152600061205c6060830184611fef565b95945050505050565b6001600160a01b039485168152928416602084015292166040820152606081019190915260800190565b602080825260119082015270223ab83634b1b0ba32903932b1b7b9321760791b604082015260600190565b6020808252601690820152752bb937b733903832b936b4b9b9b4b7b7399039b2ba1760511b604082015260600190565b6001600160a01b0393841681529190921660208201526001600160f01b0319909116604082015260600190565b600181811c9082168061212b57607f821691505b60208210810361214b57634e487b7160e01b600052602260045260246000fd5b50919050565b601f82111561219b57600081815260208120601f850160051c810160208610156121785750805b601f850160051c820191505b8181101561219757828155600101612184565b5050505b505050565b81516001600160401b038111156121b9576121b9611a30565b6121cd816121c78454612117565b84612151565b602080601f83116001811461220257600084156121ea5750858301515b600019600386901b1c1916600185901b178555612197565b600085815260208120601f198616915b8281101561223157888601518255948401946001909101908401612212565b508582101561224f5787850151600019600388901b60f8161c191681555b5050505050600190811b01905550565b6001600160a01b038316815260406020820181905260009061228390830184611fef565b949350505050565b6001600160a01b039384168152919092166020820152604081019190915260600190565b634e487b7160e01b600052603260045260246000fd5b6020808252601190820152702932b1b7b932103737ba103337bab7321760791b604082015260600190565b6001600160a01b03929092168252602082015260400190565b6001600160a01b038581168252602082018590528316604082015260806060820181905260009061233c90830184611fef565b9695505050505050565b6001600160a01b0392831681529116602082015260400190565b634e487b7160e01b600052601160045260246000fd5b8181038181111561098e5761098e612360565b60006001820161239b5761239b612360565b5060010190565b6000816123b1576123b1612360565b506000190190565b634e487b7160e01b600052603160045260246000fdfeb66f1ae02a95bcbfd5cb608041f8225a5fd4bda29310bd2541e95c1c8ff04d78f4198b630a5831df7cbdb26981a0a5fece69d524f9d5b2bd4daf698b4dfdb2185003f7799863596cac1c738a57d5e036c06baf264d77bb9db675e9c04ba9105fdf8ecb67ccb8275f1c628a7275de366fac017387946044d9dcd4046962982a4ea2646970667358221220d17451793f9816fd44379060dcca84f1367da1e3747e33e8e8eae3d28437abe564736f6c63430008130033",
  "linkReferences": {},
  "deployedLinkReferences": {}
}