{
  "_format": "hh-sol-artifact-1",
  "contractName": "GsnEip712Library",
  "sourceName": "@opengsn/contracts/src/utils/GsnEip712Library.sol",
  "abi": [
    {
      "inputs": [],
      "name": "EIP712DOMAIN_TYPEHASH",
      "outputs": [
        {
          "internalType": "bytes32",
          "name": "",
          "type": "bytes32"
        }
      ],
      "stateMutability": "view",
      "type": "function"
    },
    {
      "inputs": [],
      "name": "GENERIC_PARAMS",
      "outputs": [
        {
          "internalType": "string",
          "name": "",
          "type": "string"
        }
      ],
      "stateMutability": "view",
      "type": "function"
    },
    {
      "inputs": [],
      "name": "RELAYDATA_TYPE",
      "outputs": [
        {
          "internalType": "bytes",
          "name": "",
          "type": "bytes"
        }
      ],
      "stateMutability": "view",
      "type": "function"
    },
    {
      "inputs": [],
      "name": "RELAYDATA_TYPEHASH",
      "outputs": [
        {
          "internalType": "bytes32",
          "name": "",
          "type": "bytes32"
        }
      ],
      "stateMutability": "view",
      "type": "function"
    },
    {
      "inputs": [],
      "name": "RELAY_REQUEST_NAME",
      "outputs": [
        {
          "internalType": "string",
          "name": "",
          "type": "string"
        }
      ],
      "stateMutability": "view",
      "type": "function"
    },
    {
      "inputs": [],
      "name": "RELAY_REQUEST_SUFFIX",
      "outputs": [
        {
          "internalType": "string",
          "name": "",
          "type": "string"
        }
      ],
      "stateMutability": "view",
      "type": "function"
    },
    {
      "inputs": [],
      "name": "RELAY_REQUEST_TYPE",
      "outputs": [
        {
          "internalType": "bytes",
          "name": "",
          "type": "bytes"
        }
      ],
      "stateMutability": "view",
      "type": "function"
    },
    {
      "inputs": [],
      "name": "RELAY_REQUEST_TYPEHASH",
      "outputs": [
        {
          "internalType": "bytes32",
          "name": "",
          "type": "bytes32"
        }
      ],
      "stateMutability": "view",
      "type": "function"
    }
  ],
  "bytecode": "0x61054061003a600b82828239805160001a60731461002d57634e487b7160e01b600052600060045260246000fd5b30600052607381538281f3fe73000000000000000000000000000000000000000030146080604052600436106100825760003560e01c8063066a310c146100875780636225e61b146100a5578063931cd38f146100ad578063987673f7146100b5578063abf0d3f4146100e0578063c46cf83f146100f6578063c49f91d3146100fe578063cc0c62b214610125575b600080fd5b61008f61012d565b60405161009c9190610338565b60405180910390f35b61008f610149565b61008f6101e1565b61008f6040518060400160405280600c81526020016b14995b185e54995c5d595cdd60a21b81525081565b6100e861020a565b60405190815260200161009c565b61008f6102a9565b6100e87f8b73c3c69bb8fe3d512ecc4cf759cc79239f7b179b0ffacaa9a75d522b39400f81565b6100e86102c5565b6040518060a00160405280606181526020016103ee6061913981565b6040518060400160405280600c81526020016b14995b185e54995c5d595cdd60a21b8152506040518060a00160405280606181526020016103ee606191396040518060e0016040528060bc815260200161044f60bc91396040516020016101b09190610352565b60408051601f19818403018152908290526101cf93929160200161038e565b60405160208183030381529060405281565b6040518060e0016040528060bc815260200161044f60bc91396040516020016101cf9190610352565b6040518060400160405280600c81526020016b14995b185e54995c5d595cdd60a21b8152506040518060a00160405280606181526020016103ee606191396040518060e0016040528060bc815260200161044f60bc91396040516020016102719190610352565b60408051601f198184030181529082905261029093929160200161038e565b6040516020818303038152906040528051906020012081565b6040518060e0016040528060bc815260200161044f60bc913981565b6040518060e0016040528060bc815260200161044f60bc91398051906020012081565b60005b838110156103035781810151838201526020016102eb565b50506000910152565b600081518084526103248160208601602086016102e8565b601f01601f19169290920160200192915050565b60208152600061034b602083018461030c565b9392505050565b7352656c6179446174612072656c6179446174612960601b8152600082516103818160148501602087016102e8565b9190910160140192915050565b600084516103a08184602089016102e8565b600560fb1b90830190815284516103be8160018401602089016102e8565b600b60fa1b6001929091019182015283516103e08160028401602088016102e8565b016002019594505050505056fe616464726573732066726f6d2c6164647265737320746f2c75696e743235362076616c75652c75696e74323536206761732c75696e74323536206e6f6e63652c627974657320646174612c75696e743235362076616c6964556e74696c54696d6552656c6179446174612875696e74323536206d61784665655065724761732c75696e74323536206d61785072696f726974794665655065724761732c75696e74323536207472616e73616374696f6e43616c6c64617461476173557365642c616464726573732072656c6179576f726b65722c61646472657373207061796d61737465722c6164647265737320666f727761726465722c6279746573207061796d6173746572446174612c75696e7432353620636c69656e74496429a264697066735822122093c315682be3308f5e5873b3f95ce9997750303ffcec2c00c5be335cc1c0602f64736f6c63430008130033",
  "linkReferences": {},
  "deployedLinkReferences": {}
}