{
  "_format": "hh-sol-artifact-1",
  "contractName": "MetaGasStation",
  "sourceName": "contracts/MetaGasStation.sol",
  "abi": [
    {
      "inputs": [
        {
          "internalType": "address payable",
          "name": "_whitelistsOrgan",
          "type": "address"
        }
      ],
      "stateMutability": "nonpayable",
      "type": "constructor"
    },
    {
      "anonymous": false,
      "inputs": [
        {
          "indexed": true,
          "internalType": "address",
          "name": "previousOwner",
          "type": "address"
        },
        {
          "indexed": true,
          "internalType": "address",
          "name": "newOwner",
          "type": "address"
        }
      ],
      "name": "OwnershipTransferred",
      "type": "event"
    },
    {
      "anonymous": false,
      "inputs": [
        {
          "indexed": true,
          "internalType": "address",
          "name": "payer",
          "type": "address"
        },
        {
          "indexed": true,
          "internalType": "address",
          "name": "whitelist",
          "type": "address"
        },
        {
          "indexed": true,
          "internalType": "uint256",
          "name": "gasUseWithoutPost",
          "type": "uint256"
        }
      ],
      "name": "PostRelayed",
      "type": "event"
    },
    {
      "inputs": [],
      "name": "CALLDATA_SIZE_LIMIT",
      "outputs": [
        {
          "internalType": "uint256",
          "name": "",
          "type": "uint256"
        }
      ],
      "stateMutability": "view",
      "type": "function"
    },
    {
      "inputs": [],
      "name": "FORWARDER_HUB_OVERHEAD",
      "outputs": [
        {
          "internalType": "uint256",
          "name": "",
          "type": "uint256"
        }
      ],
      "stateMutability": "view",
      "type": "function"
    },
    {
      "inputs": [],
      "name": "PAYMASTER_ACCEPTANCE_BUDGET",
      "outputs": [
        {
          "internalType": "uint256",
          "name": "",
          "type": "uint256"
        }
      ],
      "stateMutability": "view",
      "type": "function"
    },
    {
      "inputs": [],
      "name": "POST_RELAYED_CALL_GAS_LIMIT",
      "outputs": [
        {
          "internalType": "uint256",
          "name": "",
          "type": "uint256"
        }
      ],
      "stateMutability": "view",
      "type": "function"
    },
    {
      "inputs": [],
      "name": "PRE_RELAYED_CALL_GAS_LIMIT",
      "outputs": [
        {
          "internalType": "uint256",
          "name": "",
          "type": "uint256"
        }
      ],
      "stateMutability": "view",
      "type": "function"
    },
    {
      "inputs": [],
      "name": "getGasAndDataLimits",
      "outputs": [
        {
          "components": [
            {
              "internalType": "uint256",
              "name": "acceptanceBudget",
              "type": "uint256"
            },
            {
              "internalType": "uint256",
              "name": "preRelayedCallGasLimit",
              "type": "uint256"
            },
            {
              "internalType": "uint256",
              "name": "postRelayedCallGasLimit",
              "type": "uint256"
            },
            {
              "internalType": "uint256",
              "name": "calldataSizeLimit",
              "type": "uint256"
            }
          ],
          "internalType": "struct IPaymaster.GasAndDataLimits",
          "name": "limits",
          "type": "tuple"
        }
      ],
      "stateMutability": "view",
      "type": "function"
    },
    {
      "inputs": [],
      "name": "getRelayHub",
      "outputs": [
        {
          "internalType": "address",
          "name": "",
          "type": "address"
        }
      ],
      "stateMutability": "view",
      "type": "function"
    },
    {
      "inputs": [],
      "name": "getTrustedForwarder",
      "outputs": [
        {
          "internalType": "address",
          "name": "",
          "type": "address"
        }
      ],
      "stateMutability": "view",
      "type": "function"
    },
    {
      "inputs": [],
      "name": "owner",
      "outputs": [
        {
          "internalType": "address",
          "name": "",
          "type": "address"
        }
      ],
      "stateMutability": "view",
      "type": "function"
    },
    {
      "inputs": [
        {
          "internalType": "bytes",
          "name": "context",
          "type": "bytes"
        },
        {
          "internalType": "bool",
          "name": "success",
          "type": "bool"
        },
        {
          "internalType": "uint256",
          "name": "gasUseWithoutPost",
          "type": "uint256"
        },
        {
          "components": [
            {
              "internalType": "uint256",
              "name": "maxFeePerGas",
              "type": "uint256"
            },
            {
              "internalType": "uint256",
              "name": "maxPriorityFeePerGas",
              "type": "uint256"
            },
            {
              "internalType": "uint256",
              "name": "transactionCalldataGasUsed",
              "type": "uint256"
            },
            {
              "internalType": "address",
              "name": "relayWorker",
              "type": "address"
            },
            {
              "internalType": "address",
              "name": "paymaster",
              "type": "address"
            },
            {
              "internalType": "address",
              "name": "forwarder",
              "type": "address"
            },
            {
              "internalType": "bytes",
              "name": "paymasterData",
              "type": "bytes"
            },
            {
              "internalType": "uint256",
              "name": "clientId",
              "type": "uint256"
            }
          ],
          "internalType": "struct GsnTypes.RelayData",
          "name": "relayData",
          "type": "tuple"
        }
      ],
      "name": "postRelayedCall",
      "outputs": [],
      "stateMutability": "nonpayable",
      "type": "function"
    },
    {
      "inputs": [
        {
          "components": [
            {
              "components": [
                {
                  "internalType": "address",
                  "name": "from",
                  "type": "address"
                },
                {
                  "internalType": "address",
                  "name": "to",
                  "type": "address"
                },
                {
                  "internalType": "uint256",
                  "name": "value",
                  "type": "uint256"
                },
                {
                  "internalType": "uint256",
                  "name": "gas",
                  "type": "uint256"
                },
                {
                  "internalType": "uint256",
                  "name": "nonce",
                  "type": "uint256"
                },
                {
                  "internalType": "bytes",
                  "name": "data",
                  "type": "bytes"
                },
                {
                  "internalType": "uint256",
                  "name": "validUntilTime",
                  "type": "uint256"
                }
              ],
              "internalType": "struct IForwarder.ForwardRequest",
              "name": "request",
              "type": "tuple"
            },
            {
              "components": [
                {
                  "internalType": "uint256",
                  "name": "maxFeePerGas",
                  "type": "uint256"
                },
                {
                  "internalType": "uint256",
                  "name": "maxPriorityFeePerGas",
                  "type": "uint256"
                },
                {
                  "internalType": "uint256",
                  "name": "transactionCalldataGasUsed",
                  "type": "uint256"
                },
                {
                  "internalType": "address",
                  "name": "relayWorker",
                  "type": "address"
                },
                {
                  "internalType": "address",
                  "name": "paymaster",
                  "type": "address"
                },
                {
                  "internalType": "address",
                  "name": "forwarder",
                  "type": "address"
                },
                {
                  "internalType": "bytes",
                  "name": "paymasterData",
                  "type": "bytes"
                },
                {
                  "internalType": "uint256",
                  "name": "clientId",
                  "type": "uint256"
                }
              ],
              "internalType": "struct GsnTypes.RelayData",
              "name": "relayData",
              "type": "tuple"
            }
          ],
          "internalType": "struct GsnTypes.RelayRequest",
          "name": "relayRequest",
          "type": "tuple"
        },
        {
          "internalType": "bytes",
          "name": "signature",
          "type": "bytes"
        },
        {
          "internalType": "bytes",
          "name": "approvalData",
          "type": "bytes"
        },
        {
          "internalType": "uint256",
          "name": "maxPossibleGas",
          "type": "uint256"
        }
      ],
      "name": "preRelayedCall",
      "outputs": [
        {
          "internalType": "bytes",
          "name": "",
          "type": "bytes"
        },
        {
          "internalType": "bool",
          "name": "",
          "type": "bool"
        }
      ],
      "stateMutability": "nonpayable",
      "type": "function"
    },
    {
      "inputs": [],
      "name": "renounceOwnership",
      "outputs": [],
      "stateMutability": "nonpayable",
      "type": "function"
    },
    {
      "inputs": [
        {
          "internalType": "contract IRelayHub",
          "name": "hub",
          "type": "address"
        }
      ],
      "name": "setRelayHub",
      "outputs": [],
      "stateMutability": "nonpayable",
      "type": "function"
    },
    {
      "inputs": [
        {
          "internalType": "address",
          "name": "forwarder",
          "type": "address"
        }
      ],
      "name": "setTrustedForwarder",
      "outputs": [],
      "stateMutability": "nonpayable",
      "type": "function"
    },
    {
      "inputs": [
        {
          "internalType": "bytes4",
          "name": "interfaceId",
          "type": "bytes4"
        }
      ],
      "name": "supportsInterface",
      "outputs": [
        {
          "internalType": "bool",
          "name": "",
          "type": "bool"
        }
      ],
      "stateMutability": "view",
      "type": "function"
    },
    {
      "inputs": [
        {
          "internalType": "address",
          "name": "newOwner",
          "type": "address"
        }
      ],
      "name": "transferOwnership",
      "outputs": [],
      "stateMutability": "nonpayable",
      "type": "function"
    },
    {
      "inputs": [],
      "name": "versionPaymaster",
      "outputs": [
        {
          "internalType": "string",
          "name": "",
          "type": "string"
        }
      ],
      "stateMutability": "view",
      "type": "function"
    },
    {
      "inputs": [],
      "name": "whitelistsOrgan",
      "outputs": [
        {
          "internalType": "address payable",
          "name": "",
          "type": "address"
        }
      ],
      "stateMutability": "view",
      "type": "function"
    },
    {
      "inputs": [
        {
          "internalType": "uint256",
          "name": "amount",
          "type": "uint256"
        },
        {
          "internalType": "address payable",
          "name": "target",
          "type": "address"
        }
      ],
      "name": "withdrawRelayHubDepositTo",
      "outputs": [],
      "stateMutability": "nonpayable",
      "type": "function"
    },
    {
      "stateMutability": "payable",
      "type": "receive"
    }
  ],
  "bytecode": "0x608060405234801561001057600080fd5b5060405161145238038061145283398101604081905261002f916100ad565b6100383361005d565b600380546001600160a01b0319166001600160a01b03929092169190911790556100dd565b600080546001600160a01b038381166001600160a01b0319831681178455604051919092169283917f8be0079c531659141344cd1fd0a4f28419497f9722a3daafe3b4186f6b6457e09190a35050565b6000602082840312156100bf57600080fd5b81516001600160a01b03811681146100d657600080fd5b9392505050565b611366806100ec6000396000f3fe6080604052600436106100e75760003560e01c8062be5dd4146101ab57806301ffc9a7146101e25780632d14c4b7146102125780634701cf24146102325780635c5e3db11461025f578063715018a61461028357806376fa01c3146102985780637bb05264146102b85780637bdf2ec7146102d85780638da5cb5b146102ed578063921276ea14610302578063b039a88f1461033e578063b90b41cf14610386578063bbdaa3c91461039c578063ce1b815f146103b3578063da742228146103c8578063df463a66146103e8578063f2fde38b146103fd578063f9c002f71461041d57600080fd5b366101a6576001546001600160a01b03166101455760405162461bcd60e51b81526020600482015260196024820152781c995b185e481a1d58881859191c995cdcc81b9bdd081cd95d603a1b60448201526064015b60405180910390fd5b60015460405163aa67c91960e01b81526001600160a01b039091169063aa67c919903490610177903090600401610f6d565b6000604051808303818588803b15801561019057600080fd5b505af11580156101a4573d6000803e3d6000fd5b005b600080fd5b3480156101b757600080fd5b506101cb6101c6366004610fc9565b610434565b6040516101d99291906110bd565b60405180910390f35b3480156101ee57600080fd5b506102026101fd3660046110e1565b610482565b60405190151581526020016101d9565b34801561021e57600080fd5b506101a461022d366004611120565b6104d4565b34801561023e57600080fd5b50600354610252906001600160a01b031681565b6040516101d99190610f6d565b34801561026b57600080fd5b5061027561290481565b6040519081526020016101d9565b34801561028f57600080fd5b506101a4610546565b3480156102a457600080fd5b506101a46102b336600461115e565b61055a565b3480156102c457600080fd5b506101a46102d33660046111ed565b610576565b3480156102e457600080fd5b50610252610606565b3480156102f957600080fd5b50610252610615565b34801561030e57600080fd5b50604080518082018252600d81526c0332e302e302d626574612e313609c1b602082015290516101d9919061120a565b34801561034a57600080fd5b50610353610624565b6040516101d991908151815260208083015190820152604080830151908201526060918201519181019190915260800190565b34801561039257600080fd5b5061027561c35081565b3480156103a857600080fd5b506102756201adb081565b3480156103bf57600080fd5b5061025261068d565b3480156103d457600080fd5b506101a46103e33660046111ed565b61069c565b3480156103f457600080fd5b5061027561072c565b34801561040957600080fd5b506101a46104183660046111ed565b61073e565b34801561042957600080fd5b50610275620186a081565b606060006104406107b7565b6104498861081f565b610452886108a8565b61045b88610902565b610465858561096b565b6104738888888888886109c0565b91509150965096945050505050565b60006001600160e01b031982166370d596f560e11b14806104b357506001600160e01b03198216630704183b60e11b145b806104ce57506301ffc9a760e01b6001600160e01b03198316145b92915050565b6104dc610ba0565b60015460405163f3fef3a360e01b81526001600160a01b038381166004830152602482018590529091169063f3fef3a390604401600060405180830381600087803b15801561052a57600080fd5b505af115801561053e573d6000803e3d6000fd5b505050505050565b61054e610ba0565b6105586000610bff565b565b6105626107b7565b61056f8585858585610c4f565b5050505050565b61057e610ba0565b6105986001600160a01b03821663e9fb30f760e01b610cac565b6105e45760405162461bcd60e51b815260206004820152601f60248201527f746172676574206973206e6f7420612076616c6964204952656c617948756200604482015260640161013c565b600180546001600160a01b0319166001600160a01b0392909216919091179055565b6001546001600160a01b031690565b6000546001600160a01b031690565b61064f6040518060800160405280600081526020016000815260200160008152602001600081525090565b604051806080016040528061c350620186a061066b919061121d565b8152602001620186a081526020016201adb08152602001612904815250905090565b6002546001600160a01b031690565b6106a4610ba0565b6106be6001600160a01b0382166309788f9960e21b610cac565b61070a5760405162461bcd60e51b815260206004820181905260248201527f746172676574206973206e6f7420612076616c69642049466f72776172646572604482015260640161013c565b600280546001600160a01b0319166001600160a01b0392909216919091179055565b61073b61c350620186a061121d565b81565b610746610ba0565b6001600160a01b0381166107ab5760405162461bcd60e51b815260206004820152602660248201527f4f776e61626c653a206e6577206f776e657220697320746865207a65726f206160448201526564647265737360d01b606482015260840161013c565b6107b481610bff565b50565b6107bf610606565b6001600160a01b0316336001600160a01b0316146105585760405162461bcd60e51b815260206004820152601e60248201527f63616e206f6e6c792062652063616c6c65642062792052656c61794875620000604482015260640161013c565b61082c602082018261123e565b61083d9060c081019060a0016111ed565b6001600160a01b031661084e61068d565b6001600160a01b03161461089f5760405162461bcd60e51b8152602060048201526018602482015277119bdc9dd85c99195c881a5cc81b9bdd081d1c9d5cdd195960421b604482015260640161013c565b6107b481610ccf565b6108b2818061125e565b60400135156107b45760405162461bcd60e51b815260206004820152601c60248201527b1d985b1d59481d1c985b9cd9995c881b9bdd081cdd5c1c1bdc9d195960221b604482015260640161013c565b61090f602082018261123e565b61091d9060c0810190611274565b1590506107b45760405162461bcd60e51b815260206004820152601c60248201527b73686f756c642068617665206e6f207061796d61737465724461746160201b604482015260640161013c565b60008190036109bc5760405162461bcd60e51b815260206004820181905260248201527f617070726f76616c446174612073686f756c64206e6f7420626520656d707479604482015260640161013c565b5050565b60606000806109d1858701876111ed565b905060006109df8a8061125e565b6109ed9060208101906111ed565b600354604051631795f8c760e11b81529192506001600160a01b031690632f2bf18e90610a1e908590600401610f6d565b602060405180830381865afa158015610a3b573d6000803e3d6000fd5b505050506040513d601f19601f82011682018060405250810190610a5f91906112ba565b600003610aae5760405162461bcd60e51b815260206004820152601d60248201527f57686974656c697374206973206e6f742077686974656c69737465642e000000604482015260640161013c565b604051631795f8c760e11b81526001600160a01b03831690632f2bf18e90610ada908490600401610f6d565b602060405180830381865afa158015610af7573d6000803e3d6000fd5b505050506040513d601f19601f82011682018060405250810190610b1b91906112ba565b600003610b655760405162461bcd60e51b81526020600482015260186024820152772ab9b2b91034b9903737ba103bb434ba32b634b9ba32b21760411b604482015260640161013c565b604080516001600160a01b03928316602082015292909116828201528051808303820181526060909201905298600098509650505050505050565b33610ba9610615565b6001600160a01b0316146105585760405162461bcd60e51b815260206004820181905260248201527f4f776e61626c653a2063616c6c6572206973206e6f7420746865206f776e6572604482015260640161013c565b600080546001600160a01b038381166001600160a01b0319831681178455604051919092169283917f8be0079c531659141344cd1fd0a4f28419497f9722a3daafe3b4186f6b6457e09190a35050565b600080610c5e868801886112d3565b9150915083816001600160a01b0316836001600160a01b03167f9660e8454e1dda13c84bf2d52dc1bc731748e3159bb626fe0400f9053d8b591860405160405180910390a450505050505050565b6000610cb783610eb1565b8015610cc85750610cc88383610ee4565b9392505050565b600080610cdc838061125e565b610ced9060408101906020016111ed565b6001600160a01b031663572b6c0560e01b610d0b602086018661123e565b610d1c9060c081019060a0016111ed565b604051602401610d2c9190610f6d565b60408051601f198184030181529181526020820180516001600160e01b03166001600160e01b0319909416939093179092529051610d6a9190611301565b600060405180830381855afa9150503d8060008114610da5576040519150601f19603f3d011682016040523d82523d6000602084013e610daa565b606091505b509150915081610dfb5760405162461bcd60e51b815260206004820152601c60248201527b1a5cd51c9d5cdd1959119bdc9dd85c99195c8e881c995d995c9d195960221b604482015260640161013c565b8051602014610e4c5760405162461bcd60e51b815260206004820181905260248201527f697354727573746564466f727761726465723a2062616420726573706f6e7365604482015260640161013c565b80806020019051810190610e609190611313565b610eac5760405162461bcd60e51b815260206004820152601f60248201527f696e76616c696420666f7277617264657220666f7220726563697069656e7400604482015260640161013c565b505050565b6000610ec4826301ffc9a760e01b610ee4565b80156104ce5750610edd826001600160e01b0319610ee4565b1592915050565b604080516001600160e01b03198316602480830191909152825180830390910181526044909101909152602080820180516001600160e01b03166301ffc9a760e01b178152825160009392849283928392918391908a617530fa92503d91506000519050828015610f56575060208210155b8015610f625750600081115b979650505050505050565b6001600160a01b0391909116815260200190565b60008083601f840112610f9357600080fd5b5081356001600160401b03811115610faa57600080fd5b602083019150836020828501011115610fc257600080fd5b9250929050565b60008060008060008060808789031215610fe257600080fd5b86356001600160401b0380821115610ff957600080fd5b908801906040828b03121561100d57600080fd5b9096506020880135908082111561102357600080fd5b61102f8a838b01610f81565b9097509550604089013591508082111561104857600080fd5b5061105589828a01610f81565b979a9699509497949695606090950135949350505050565b60005b83811015611088578181015183820152602001611070565b50506000910152565b600081518084526110a981602086016020860161106d565b601f01601f19169290920160200192915050565b6040815260006110d06040830185611091565b905082151560208301529392505050565b6000602082840312156110f357600080fd5b81356001600160e01b031981168114610cc857600080fd5b6001600160a01b03811681146107b457600080fd5b6000806040838503121561113357600080fd5b8235915060208301356111458161110b565b809150509250929050565b80151581146107b457600080fd5b60008060008060006080868803121561117657600080fd5b85356001600160401b038082111561118d57600080fd5b61119989838a01610f81565b9097509550602088013591506111ae82611150565b90935060408701359250606087013590808211156111cb57600080fd5b50860161010081890312156111df57600080fd5b809150509295509295909350565b6000602082840312156111ff57600080fd5b8135610cc88161110b565b602081526000610cc86020830184611091565b808201808211156104ce57634e487b7160e01b600052601160045260246000fd5b6000823560fe1983360301811261125457600080fd5b9190910192915050565b6000823560de1983360301811261125457600080fd5b6000808335601e1984360301811261128b57600080fd5b8301803591506001600160401b038211156112a557600080fd5b602001915036819003821315610fc257600080fd5b6000602082840312156112cc57600080fd5b5051919050565b600080604083850312156112e657600080fd5b82356112f18161110b565b915060208301356111458161110b565b6000825161125481846020870161106d565b60006020828403121561132557600080fd5b8151610cc88161115056fea26469706673582212204c31a9d25dee68ae3f7a2abce12c1214efae74a999c83e53c37a2814b651591f64736f6c63430008130033",
  "linkReferences": {},
  "deployedLinkReferences": {}
}