{
  "_format": "hh-sol-artifact-1",
  "contractName": "OrganigramClient",
  "sourceName": "contracts/OrganigramClient.sol",
  "abi": [
    {
      "inputs": [
        {
          "internalType": "string",
          "name": "cid",
          "type": "string"
        },
        {
          "internalType": "address",
          "name": "trustedForwarder",
          "type": "address"
        },
        {
          "internalType": "bytes32",
          "name": "salt",
          "type": "bytes32"
        }
      ],
      "stateMutability": "nonpayable",
      "type": "constructor"
    },
    {
      "inputs": [
        {
          "internalType": "address",
          "name": "target",
          "type": "address"
        }
      ],
      "name": "AddressEmptyCode",
      "type": "error"
    },
    {
      "inputs": [],
      "name": "FailedCall",
      "type": "error"
    },
    {
      "inputs": [],
      "name": "FailedDeployment",
      "type": "error"
    },
    {
      "inputs": [
        {
          "internalType": "uint256",
          "name": "balance",
          "type": "uint256"
        },
        {
          "internalType": "uint256",
          "name": "needed",
          "type": "uint256"
        }
      ],
      "name": "InsufficientBalance",
      "type": "error"
    },
    {
      "anonymous": false,
      "inputs": [
        {
          "indexed": false,
          "internalType": "address payable",
          "name": "asset",
          "type": "address"
        }
      ],
      "name": "assetDeployed",
      "type": "event"
    },
    {
      "anonymous": false,
      "inputs": [
        {
          "indexed": false,
          "internalType": "address payable",
          "name": "organ",
          "type": "address"
        }
      ],
      "name": "organDeployed",
      "type": "event"
    },
    {
      "anonymous": false,
      "inputs": [
        {
          "indexed": false,
          "internalType": "address payable",
          "name": "procedureType",
          "type": "address"
        },
        {
          "indexed": false,
          "internalType": "address payable",
          "name": "procedure",
          "type": "address"
        }
      ],
      "name": "procedureDeployed",
      "type": "event"
    },
    {
      "inputs": [],
      "name": "asset",
      "outputs": [
        {
          "internalType": "address payable",
          "name": "",
          "type": "address"
        }
      ],
      "stateMutability": "view",
      "type": "function"
    },
    {
      "inputs": [
        {
          "internalType": "string",
          "name": "name",
          "type": "string"
        },
        {
          "internalType": "string",
          "name": "symbol",
          "type": "string"
        },
        {
          "internalType": "uint256",
          "name": "initialSupply",
          "type": "uint256"
        },
        {
          "internalType": "bytes32",
          "name": "salt",
          "type": "bytes32"
        }
      ],
      "name": "deployAsset",
      "outputs": [
        {
          "internalType": "address payable",
          "name": "clone",
          "type": "address"
        }
      ],
      "stateMutability": "nonpayable",
      "type": "function"
    },
    {
      "inputs": [
        {
          "components": [
            {
              "internalType": "string",
              "name": "name",
              "type": "string"
            },
            {
              "internalType": "string",
              "name": "symbol",
              "type": "string"
            },
            {
              "internalType": "uint256",
              "name": "initialSupply",
              "type": "uint256"
            },
            {
              "internalType": "bytes32",
              "name": "salt",
              "type": "bytes32"
            }
          ],
          "internalType": "struct OrganigramClient.DeployAssetArgs[]",
          "name": "batch",
          "type": "tuple[]"
        }
      ],
      "name": "deployAssets",
      "outputs": [
        {
          "internalType": "address payable[]",
          "name": "clones",
          "type": "address[]"
        }
      ],
      "stateMutability": "nonpayable",
      "type": "function"
    },
    {
      "inputs": [
        {
          "internalType": "address[]",
          "name": "_permissionAddresses",
          "type": "address[]"
        },
        {
          "internalType": "bytes2[]",
          "name": "_permissionValues",
          "type": "bytes2[]"
        },
        {
          "internalType": "string",
          "name": "cid",
          "type": "string"
        },
        {
          "components": [
            {
              "internalType": "address",
              "name": "addr",
              "type": "address"
            },
            {
              "internalType": "string",
              "name": "cid",
              "type": "string"
            }
          ],
          "internalType": "struct CoreLibrary.Entry[]",
          "name": "entries",
          "type": "tuple[]"
        },
        {
          "internalType": "bytes32",
          "name": "salt",
          "type": "bytes32"
        }
      ],
      "name": "deployOrgan",
      "outputs": [
        {
          "internalType": "address payable",
          "name": "clone",
          "type": "address"
        }
      ],
      "stateMutability": "nonpayable",
      "type": "function"
    },
    {
      "inputs": [
        {
          "components": [
            {
              "internalType": "address[]",
              "name": "permissionAddresses",
              "type": "address[]"
            },
            {
              "internalType": "bytes2[]",
              "name": "permissionValues",
              "type": "bytes2[]"
            },
            {
              "internalType": "string",
              "name": "cid",
              "type": "string"
            },
            {
              "components": [
                {
                  "internalType": "address",
                  "name": "addr",
                  "type": "address"
                },
                {
                  "internalType": "string",
                  "name": "cid",
                  "type": "string"
                }
              ],
              "internalType": "struct CoreLibrary.Entry[]",
              "name": "entries",
              "type": "tuple[]"
            },
            {
              "internalType": "bytes32",
              "name": "salt",
              "type": "bytes32"
            }
          ],
          "internalType": "struct OrganigramClient.DeployOrganArgs[]",
          "name": "organBatch",
          "type": "tuple[]"
        },
        {
          "components": [
            {
              "internalType": "string",
              "name": "name",
              "type": "string"
            },
            {
              "internalType": "string",
              "name": "symbol",
              "type": "string"
            },
            {
              "internalType": "uint256",
              "name": "initialSupply",
              "type": "uint256"
            },
            {
              "internalType": "bytes32",
              "name": "salt",
              "type": "bytes32"
            }
          ],
          "internalType": "struct OrganigramClient.DeployAssetArgs[]",
          "name": "assetBatch",
          "type": "tuple[]"
        },
        {
          "components": [
            {
              "internalType": "address payable",
              "name": "procedureType",
              "type": "address"
            },
            {
              "internalType": "bytes",
              "name": "data",
              "type": "bytes"
            },
            {
              "internalType": "bytes32",
              "name": "salt",
              "type": "bytes32"
            }
          ],
          "internalType": "struct OrganigramClient.DeployProcedureArgs[]",
          "name": "procedureBatch",
          "type": "tuple[]"
        }
      ],
      "name": "deployOrganigram",
      "outputs": [
        {
          "internalType": "address payable[]",
          "name": "organsDeployed",
          "type": "address[]"
        },
        {
          "internalType": "address payable[]",
          "name": "assetsDeployed",
          "type": "address[]"
        },
        {
          "internalType": "address payable[]",
          "name": "proceduresDeployed",
          "type": "address[]"
        }
      ],
      "stateMutability": "nonpayable",
      "type": "function"
    },
    {
      "inputs": [
        {
          "components": [
            {
              "internalType": "address[]",
              "name": "permissionAddresses",
              "type": "address[]"
            },
            {
              "internalType": "bytes2[]",
              "name": "permissionValues",
              "type": "bytes2[]"
            },
            {
              "internalType": "string",
              "name": "cid",
              "type": "string"
            },
            {
              "components": [
                {
                  "internalType": "address",
                  "name": "addr",
                  "type": "address"
                },
                {
                  "internalType": "string",
                  "name": "cid",
                  "type": "string"
                }
              ],
              "internalType": "struct CoreLibrary.Entry[]",
              "name": "entries",
              "type": "tuple[]"
            },
            {
              "internalType": "bytes32",
              "name": "salt",
              "type": "bytes32"
            }
          ],
          "internalType": "struct OrganigramClient.DeployOrganArgs[]",
          "name": "batch",
          "type": "tuple[]"
        }
      ],
      "name": "deployOrgans",
      "outputs": [
        {
          "internalType": "address payable[]",
          "name": "clones",
          "type": "address[]"
        }
      ],
      "stateMutability": "nonpayable",
      "type": "function"
    },
    {
      "inputs": [
        {
          "internalType": "address payable",
          "name": "procedureType",
          "type": "address"
        },
        {
          "internalType": "bytes",
          "name": "data",
          "type": "bytes"
        },
        {
          "internalType": "bytes32",
          "name": "salt",
          "type": "bytes32"
        }
      ],
      "name": "deployProcedure",
      "outputs": [
        {
          "internalType": "address payable",
          "name": "procedure",
          "type": "address"
        }
      ],
      "stateMutability": "nonpayable",
      "type": "function"
    },
    {
      "inputs": [
        {
          "components": [
            {
              "internalType": "address payable",
              "name": "procedureType",
              "type": "address"
            },
            {
              "internalType": "bytes",
              "name": "data",
              "type": "bytes"
            },
            {
              "internalType": "bytes32",
              "name": "salt",
              "type": "bytes32"
            }
          ],
          "internalType": "struct OrganigramClient.DeployProcedureArgs[]",
          "name": "batch",
          "type": "tuple[]"
        }
      ],
      "name": "deployProcedures",
      "outputs": [
        {
          "internalType": "address payable[]",
          "name": "created",
          "type": "address[]"
        }
      ],
      "stateMutability": "nonpayable",
      "type": "function"
    },
    {
      "inputs": [
        {
          "internalType": "address",
          "name": "forwarder",
          "type": "address"
        }
      ],
      "name": "isTrustedForwarder",
      "outputs": [
        {
          "internalType": "bool",
          "name": "",
          "type": "bool"
        }
      ],
      "stateMutability": "view",
      "type": "function"
    },
    {
      "inputs": [],
      "name": "organ",
      "outputs": [
        {
          "internalType": "address payable",
          "name": "",
          "type": "address"
        }
      ],
      "stateMutability": "view",
      "type": "function"
    },
    {
      "inputs": [],
      "name": "proceduresRegistry",
      "outputs": [
        {
          "internalType": "address payable",
          "name": "",
          "type": "address"
        }
      ],
      "stateMutability": "view",
      "type": "function"
    },
    {
      "inputs": [
        {
          "components": [
            {
              "internalType": "address",
              "name": "addr",
              "type": "address"
            },
            {
              "internalType": "string",
              "name": "cid",
              "type": "string"
            }
          ],
          "internalType": "struct CoreLibrary.Entry[]",
          "name": "entries",
          "type": "tuple[]"
        }
      ],
      "name": "registerProcedures",
      "outputs": [],
      "stateMutability": "nonpayable",
      "type": "function"
    },
    {
      "inputs": [],
      "name": "trustedForwarder",
      "outputs": [
        {
          "internalType": "address",
          "name": "",
          "type": "address"
        }
      ],
      "stateMutability": "view",
      "type": "function"
    }
  ],
  "bytecode": "0x60806040523480156200001157600080fd5b50604051620050e5380380620050e583398101604081905262000034916200057e565b600080546001600160a01b0319166001600160a01b0384161790556040516200005d9062000509565b604051809103906000f0801580156200007a573d6000803e3d6000fd5b50600180546001600160a01b0319166001600160a01b0392909216919091179055604051620000a99062000517565b604051809103906000f080158015620000c6573d6000803e3d6000fd5b50600280546001600160a01b0319166001600160a01b0392909216919091179055604080516001808252818301909252600091602080830190803683375050604080516001808252818301909252929350600092915060208083019080368337019050509050620001366200021f565b826000815181106200014c576200014c62000654565b60200260200101906001600160a01b031690816001600160a01b03168152505061ffff60f01b8160008151811062000188576200018862000654565b6001600160f01b03199290921660209283029190910182015260408051600080825292810190915281620001e0565b604080518082019091526000815260606020820152815260200190600190039081620001b75790505b509050620001f2838388848862000273565b600380546001600160a01b0319166001600160a01b0392909216919091179055506200083e945050505050565b60003660148082108015906200023f57506000546001600160a01b031633145b156200026b5762000256368284038160006200066a565b620002619162000696565b60601c9250505090565b339250505090565b60008451865114620002bd5760405162461bcd60e51b815260206004820152600e60248201526d098cadccee8d09ad2e6dac2e8c6d60931b60448201526064015b60405180910390fd5b85516000036200037d5760408051600180825281830190925290602080830190803683375050604080516001808252818301909252929850905060208083019080368337019050509450620003116200021f565b8660008151811062000327576200032762000654565b60200260200101906001600160a01b031690816001600160a01b03168152505061ffff60f01b8560008151811062000363576200036362000654565b6001600160f01b0319909216602092830291909101909101525b60015462000395906001600160a01b03168362000459565b90506001600160a01b0381166375f5a96c87878787620003bd6000546001600160a01b031690565b6040518663ffffffff1660e01b8152600401620003df95949392919062000768565b600060405180830381600087803b158015620003fa57600080fd5b505af11580156200040f573d6000803e3d6000fd5b50506040516001600160a01b03841681527f202014427320c50c0380517ce838caad271af96933667d01b4724957874563ea9250602001905060405180910390a195945050505050565b6000620004688383836200046f565b9392505050565b6000814710156200049d5760405163cf47918160e01b815247600482015260248101839052604401620002b4565b763d602d80600a3d3981f3363d3d373d3d3d363d730000008460601b60e81c176000526e5af43d82803e903d91602b57fd5bf38460781b17602052826037600984f590506001600160a01b038116620004685760405163b06ebf3d60e01b815260040160405180910390fd5b61211c806200230083390190565b610cc9806200441c83390190565b634e487b7160e01b600052604160045260246000fd5b60005b83811015620005585781810151838201526020016200053e565b50506000910152565b80516001600160a01b03811681146200057957600080fd5b919050565b6000806000606084860312156200059457600080fd5b83516001600160401b0380821115620005ac57600080fd5b818601915086601f830112620005c157600080fd5b815181811115620005d657620005d662000525565b604051601f8201601f19908116603f0116810190838211818310171562000601576200060162000525565b816040528281528960208487010111156200061b57600080fd5b6200062e8360208301602088016200053b565b8097505050505050620006446020850162000561565b9150604084015190509250925092565b634e487b7160e01b600052603260045260246000fd5b600080858511156200067b57600080fd5b838611156200068957600080fd5b5050820193919092039150565b6001600160601b03198135818116916014851015620006bf5780818660140360031b1b83161692505b505092915050565b60008151808452620006e18160208601602086016200053b565b601f01601f19169290920160200192915050565b6000815180845260208085019450848260051b860182860160005b858110156200075b578383038952815180516001600160a01b0316845285015160408685018190526200074681860183620006c7565b9a87019a945050509084019060010162000710565b5090979650505050505050565b60a0808252865190820181905260009060209060c0840190828a01845b82811015620007ac5781516001600160a01b03168452928401929084019060010162000785565b5050508381038285015287518082528883019183019060005b81811015620007ed5783516001600160f01b03191683529284019291840191600101620007c5565b50508481036040860152620008038189620006c7565b9250505082810360608401526200081b8186620006f5565b9150506200083460808301846001600160a01b03169052565b9695505050505050565b611ab2806200084e6000396000f3fe608060405234801561001057600080fd5b50600436106100ae5760003560e01c8062776e7e146100b357806338d52e0f146100dc5780633cab20c5146100fc57806350d1c4b71461010f578063572b6c05146101225780637da0a877146101455780638baba4cb1461014d578063b6096e3814610162578063c4a3439914610175578063c9e7845d14610188578063e58089091461019b578063ecbe6955146101bd578063f88b99a6146101d0575b600080fd5b6100c66100c1366004610ff0565b6101e3565b6040516100d39190611070565b60405180910390f35b6002546100ef906001600160a01b031681565b6040516100d39190611083565b6001546100ef906001600160a01b031681565b6003546100ef906001600160a01b031681565b6101356101303660046110ac565b6102f8565b60405190151581526020016100d3565b6100ef61030c565b61016061015b366004611193565b61031b565b005b6100ef6101703660046111c7565b61044b565b6100ef6101833660046112f5565b6105bd565b6100c66101963660046114e3565b61077d565b6101ae6101a93660046115ea565b6108aa565b6040516100d393929190611671565b6100c66101cb3660046116aa565b6108d9565b6100ef6101de3660046116de565b6109ca565b606081516001600160401b038111156101fe576101fe610d86565b604051908082528060200260200182016040528015610227578160200160208202803683370190505b50905060005b82518110156102f2576102b683828151811061024b5761024b611751565b60200260200101516000015184838151811061026957610269611751565b60200260200101516020015185848151811061028757610287611751565b6020026020010151604001518685815181106102a5576102a5611751565b6020026020010151606001516109ca565b8282815181106102c8576102c8611751565b6001600160a01b0390921660209283029190910190910152806102ea81611767565b91505061022d565b50919050565b6000546001600160a01b0391821691161490565b6000546001600160a01b031690565b60005b81518110156103cf5761035582828151811061033c5761033c611751565b6020026020010151600001516371dbd33060e01b610a8f565b6103bf5760405162461bcd60e51b815260206004820152603060248201527f416e20656e74727920696e20706172616d6574657273206973206e6f7420612060448201526f3b30b634b210383937b1b2b23ab9329760811b60648201526084015b60405180910390fd5b6103c881611767565b905061031e565b50600354604051630d610b5760e41b81526001600160a01b039091169063d610b57090610400908490600401611850565b6000604051808303816000875af115801561041f573d6000803e3d6000fd5b505050506040513d6000823e601f3d908101601f191682016040526104479190810190611863565b5050565b600061045e8463071dbd3360e41b610a8f565b61049d5760405162461bcd60e51b815260206004820152601060248201526f2737ba103090383937b1b2b23ab9329760811b60448201526064016103b6565b600354604051631795f8c760e11b81526000916001600160a01b031690632f2bf18e906104ce908890600401611083565b602060405180830381865afa1580156104eb573d6000803e3d6000fd5b505050506040513d601f19601f8201168201806040525081019061050f91906118e8565b116105535760405162461bcd60e51b8152602060048201526014602482015273283937b1b2b23ab932903737ba103337bab7321760611b60448201526064016103b6565b61055d8483610aab565b604080516001600160a01b038088168252831660208201529192507ffb61149ef44a0a903dfd072ceca23f39f66f4d6246d4126abe9c8dadbe1a71c3910160405180910390a18251156105b6576105b48184610ab9565b505b9392505050565b600084518651146106015760405162461bcd60e51b815260206004820152600e60248201526d098cadccee8d09ad2e6dac2e8c6d60931b60448201526064016103b6565b85516000036106b85760408051600180825281830190925290602080830190803683375050604080516001808252818301909252929850905060208083019080368337019050509450610652610ac7565b8660008151811061066557610665611751565b60200260200101906001600160a01b031690816001600160a01b03168152505061ffff60f01b8560008151811061069e5761069e611751565b6001600160f01b0319909216602092830291909101909101525b6001546106ce906001600160a01b031683610aab565b9050806001600160a01b03166375f5a96c878787876106eb61030c565b6040518663ffffffff1660e01b815260040161070b959493929190611901565b600060405180830381600087803b15801561072557600080fd5b505af1158015610739573d6000803e3d6000fd5b505050507f202014427320c50c0380517ce838caad271af96933667d01b4724957874563ea8160405161076c9190611083565b60405180910390a195945050505050565b606081516001600160401b0381111561079857610798610d86565b6040519080825280602002602001820160405280156107c1578160200160208202803683370190505b50905060005b82518110156102f25761086e8382815181106107e5576107e5611751565b60200260200101516000015184838151811061080357610803611751565b60200260200101516020015185848151811061082157610821611751565b60200260200101516040015186858151811061083f5761083f611751565b60200260200101516060015187868151811061085d5761085d611751565b6020026020010151608001516105bd565b82828151811061088057610880611751565b6001600160a01b0390921660209283029190910190910152806108a281611767565b9150506107c7565b60608060606108b88661077d565b92506108c3856101e3565b91506108ce846108d9565b905093509350939050565b606081516001600160401b038111156108f4576108f4610d86565b60405190808252806020026020018201604052801561091d578160200160208202803683370190505b50905060005b82518110156102f25761098e83828151811061094157610941611751565b60200260200101516000015184838151811061095f5761095f611751565b60200260200101516020015185848151811061097d5761097d611751565b60200260200101516040015161044b565b8282815181106109a0576109a0611751565b6001600160a01b0390921660209283029190910190910152806109c281611767565b915050610923565b6002546000906109e3906001600160a01b031683610aab565b9050806001600160a01b031663f542033f86866109fe610ac7565b876040518563ffffffff1660e01b8152600401610a1e94939291906119c4565b600060405180830381600087803b158015610a3857600080fd5b505af1158015610a4c573d6000803e3d6000fd5b505050507f098a7e6f315d14dd59aac63cfe1be4db126e2ae6210ce0c770960fa170dae7a981604051610a7f9190611083565b60405180910390a1949350505050565b6000610a9a83610b0f565b80156105b657506105b68383610b43565b60006105b683836000610bcd565b60606105b683836000610c64565b6000366014808210801590610ae05750610ae0336102f8565b15610b0757610af436828403816000611a06565b610afd91611a30565b60601c9250505090565b339250505090565b6000610b22826301ffc9a760e01b610b43565b8015610b3d5750610b3b826001600160e01b0319610b43565b155b92915050565b6040516001600160e01b031982166024820152600090819060440160408051601f19818403018152919052602080820180516001600160e01b03166301ffc9a760e01b178152825192935060009283928392909183918a617530fa92503d91506000519050828015610bb6575060208210155b8015610bc25750600081115b979650505050505050565b600081471015610bf95760405163cf47918160e01b8152476004820152602481018390526044016103b6565b763d602d80600a3d3981f3363d3d373d3d3d363d730000008460601b60e81c176000526e5af43d82803e903d91602b57fd5bf38460781b17602052826037600984f590506001600160a01b0381166105b65760405163b06ebf3d60e01b815260040160405180910390fd5b606081471015610c905760405163cf47918160e01b8152476004820152602481018390526044016103b6565b600080856001600160a01b03168486604051610cac9190611a60565b60006040518083038185875af1925050503d8060008114610ce9576040519150601f19603f3d011682016040523d82523d6000602084013e610cee565b606091505b5091509150610cfe868383610d08565b9695505050505050565b606082610d1d57610d1882610d5b565b6105b6565b8151158015610d3457506001600160a01b0384163b155b15610d545783604051639996b31560e01b81526004016103b69190611083565b50806105b6565b805115610d6a57805160208201fd5b60405163d6bda27560e01b815260040160405180910390fd5b50565b634e487b7160e01b600052604160045260246000fd5b604051608081016001600160401b0381118282101715610dbe57610dbe610d86565b60405290565b604080519081016001600160401b0381118282101715610dbe57610dbe610d86565b60405160a081016001600160401b0381118282101715610dbe57610dbe610d86565b604051606081016001600160401b0381118282101715610dbe57610dbe610d86565b604051601f8201601f191681016001600160401b0381118282101715610e5257610e52610d86565b604052919050565b60006001600160401b03821115610e7357610e73610d86565b5060051b60200190565b600082601f830112610e8e57600080fd5b81356001600160401b03811115610ea757610ea7610d86565b610eba601f8201601f1916602001610e2a565b818152846020838601011115610ecf57600080fd5b816020850160208301376000918101602001919091529392505050565b600082601f830112610efd57600080fd5b81356020610f12610f0d83610e5a565b610e2a565b82815260059290921b84018101918181019086841115610f3157600080fd5b8286015b84811015610fe55780356001600160401b0380821115610f555760008081fd5b908801906080828b03601f1901811315610f6f5760008081fd5b610f77610d9c565b8784013583811115610f895760008081fd5b610f978d8a83880101610e7d565b82525060408085013584811115610fae5760008081fd5b610fbc8e8b83890101610e7d565b838b01525060608581013591830191909152919093013590830152508352918301918301610f35565b509695505050505050565b60006020828403121561100257600080fd5b81356001600160401b0381111561101857600080fd5b61102484828501610eec565b949350505050565b600081518084526020808501945080840160005b838110156110655781516001600160a01b031687529582019590820190600101611040565b509495945050505050565b6020815260006105b6602083018461102c565b6001600160a01b0391909116815260200190565b6001600160a01b0381168114610d8357600080fd5b6000602082840312156110be57600080fd5b81356105b681611097565b600082601f8301126110da57600080fd5b813560206110ea610f0d83610e5a565b82815260059290921b8401810191818101908684111561110957600080fd5b8286015b84811015610fe55780356001600160401b038082111561112d5760008081fd5b908801906040828b03601f19018113156111475760008081fd5b61114f610dc4565b8784013561115c81611097565b81529083013590828211156111715760008081fd5b61117f8c8984870101610e7d565b81890152865250505091830191830161110d565b6000602082840312156111a557600080fd5b81356001600160401b038111156111bb57600080fd5b611024848285016110c9565b6000806000606084860312156111dc57600080fd5b83356111e781611097565b925060208401356001600160401b0381111561120257600080fd5b61120e86828701610e7d565b925050604084013590509250925092565b600082601f83011261123057600080fd5b81356020611240610f0d83610e5a565b82815260059290921b8401810191818101908684111561125f57600080fd5b8286015b84811015610fe557803561127681611097565b8352918301918301611263565b600082601f83011261129457600080fd5b813560206112a4610f0d83610e5a565b82815260059290921b840181019181810190868411156112c357600080fd5b8286015b84811015610fe55780356001600160f01b0319811681146112e85760008081fd5b83529183019183016112c7565b600080600080600060a0868803121561130d57600080fd5b85356001600160401b038082111561132457600080fd5b61133089838a0161121f565b9650602088013591508082111561134657600080fd5b61135289838a01611283565b9550604088013591508082111561136857600080fd5b61137489838a01610e7d565b9450606088013591508082111561138a57600080fd5b50611397888289016110c9565b95989497509295608001359392505050565b600082601f8301126113ba57600080fd5b813560206113ca610f0d83610e5a565b82815260059290921b840181019181810190868411156113e957600080fd5b8286015b84811015610fe55780356001600160401b038082111561140d5760008081fd5b9088019060a0828b03601f19018113156114275760008081fd5b61142f610de6565b87840135838111156114415760008081fd5b61144f8d8a8388010161121f565b825250604080850135848111156114665760008081fd5b6114748e8b83890101611283565b8a840152506060808601358581111561148d5760008081fd5b61149b8f8c838a0101610e7d565b83850152506080915081860135858111156114b65760008081fd5b6114c48f8c838a01016110c9565b91840191909152509190930135908301525083529183019183016113ed565b6000602082840312156114f557600080fd5b81356001600160401b0381111561150b57600080fd5b611024848285016113a9565b600082601f83011261152857600080fd5b81356020611538610f0d83610e5a565b82815260059290921b8401810191818101908684111561155757600080fd5b8286015b84811015610fe55780356001600160401b038082111561157b5760008081fd5b908801906060828b03601f19018113156115955760008081fd5b61159d610e08565b878401356115aa81611097565b8152604084810135848111156115c05760008081fd5b6115ce8e8b83890101610e7d565b8a8401525091909301359083015250835291830191830161155b565b6000806000606084860312156115ff57600080fd5b83356001600160401b038082111561161657600080fd5b611622878388016113a9565b9450602086013591508082111561163857600080fd5b61164487838801610eec565b9350604086013591508082111561165a57600080fd5b5061166786828701611517565b9150509250925092565b606081526000611684606083018661102c565b8281036020840152611696818661102c565b90508281036040840152610cfe818561102c565b6000602082840312156116bc57600080fd5b81356001600160401b038111156116d257600080fd5b61102484828501611517565b600080600080608085870312156116f457600080fd5b84356001600160401b038082111561170b57600080fd5b61171788838901610e7d565b9550602087013591508082111561172d57600080fd5b5061173a87828801610e7d565b949794965050505060408301359260600135919050565b634e487b7160e01b600052603260045260246000fd5b60006001820161178757634e487b7160e01b600052601160045260246000fd5b5060010190565b60005b838110156117a9578181015183820152602001611791565b50506000910152565b600081518084526117ca81602086016020860161178e565b601f01601f19169290920160200192915050565b600081518084526020808501808196508360051b8101915082860160005b85811015611843578284038952815180516001600160a01b03168552850151604086860181905261182f818701836117b2565b9a87019a95505050908401906001016117fc565b5091979650505050505050565b6020815260006105b660208301846117de565b6000602080838503121561187657600080fd5b82516001600160401b0381111561188c57600080fd5b8301601f8101851361189d57600080fd5b80516118ab610f0d82610e5a565b81815260059190911b820183019083810190878311156118ca57600080fd5b928401925b82841015610bc2578351825292840192908401906118cf565b6000602082840312156118fa57600080fd5b5051919050565b60a0808252865190820181905260009060209060c0840190828a01845b828110156119435781516001600160a01b03168452928401929084019060010161191e565b5050508381038285015287518082528883019183019060005b818110156119825783516001600160f01b0319168352928401929184019160010161195c565b5050848103604086015261199681896117b2565b9250505082810360608401526119ac81866117de565b915050610cfe60808301846001600160a01b03169052565b6080815260006119d760808301876117b2565b82810360208401526119e981876117b2565b6001600160a01b0395909516604084015250506060015292915050565b60008085851115611a1657600080fd5b83861115611a2357600080fd5b5050820193919092039150565b6001600160601b03198135818116916014851015611a585780818660140360031b1b83161692505b505092915050565b60008251611a7281846020870161178e565b919091019291505056fea2646970667358221220b86d79cb78e35daa835cfe40a4e444db2517ccf4924d9e46cf3d062194cdb29e64736f6c63430008140033608060405234801561001057600080fd5b5061001961001e565b6100d0565b7ff0c57e16840df040f15088dc2f81fe391c3923bec73e23a9662efc9c229c6a00805468010000000000000000900460ff161561006e5760405163f92ee8a960e01b815260040160405180910390fd5b80546001600160401b03908116146100cd5780546001600160401b0319166001600160401b0390811782556040519081527fc7f505b2f371ae2175ee4913f4499e1f2633a7b5936321eed1cdaeb6115181d29060200160405180910390a15b50565b61203c80620000e06000396000f3fe60806040526004361061011e5760003560e01c806223de29146101b057806301ffc9a7146101d0578063150b7a0214610205578063160a79251461023e5780632f2bf18e14610290578063572b6c05146102d4578063685b3cb5146102f457806375ab97821461031a57806375f5a96c1461033a5780637615eb811461035a5780637da0a8771461037a5780639d2018bf146103a2578063a9059cbb146103c2578063bae78d7b146103e2578063bc197c811461040f578063bdb3e1c41461043b578063c969a43a1461045b578063d610b5701461047b578063dcf48963146104a8578063e074bb47146104c8578063f03f542b146104e8578063f23a6e6114610508578063f49b584814610534578063ffb5e2761461055457600080fd5b366101ab5773__$eade74fbb29c82369931f57fe28cd62d78$__63dd67b85660013461014861059c565b6040516001600160e01b031960e086901b168152600481019390935260248301919091526001600160a01b0316604482015260640160006040518083038186803b15801561019557600080fd5b505af41580156101a9573d6000803e3d6000fd5b005b600080fd5b3480156101bc57600080fd5b506101a96101cb3660046112c6565b6105e4565b3480156101dc57600080fd5b506101f06101eb366004611376565b61065e565b60405190151581526020015b60405180910390f35b34801561021157600080fd5b5061022561022036600461145c565b610700565b6040516001600160e01b031990911681526020016101fc565b34801561024a57600080fd5b506102776102593660046114c7565b6001600160a01b031660009081526006602052604090205460f01b90565b6040516001600160f01b031990911681526020016101fc565b34801561029c57600080fd5b506102c66102ab3660046114c7565b6001600160a01b031660009081526007602052604090205490565b6040519081526020016101fc565b3480156102e057600080fd5b506101f06102ef3660046114c7565b610795565b34801561030057600080fd5b506103096107a9565b6040516101fc95949392919061152a565b34801561032657600080fd5b506101a96103353660046112c6565b6108d8565b34801561034657600080fd5b506101a9610355366004611710565b61091f565b34801561036657600080fd5b506101a9610375366004611886565b610aa4565b34801561038657600080fd5b506000546040516001600160a01b0390911681526020016101fc565b3480156103ae57600080fd5b506101a96103bd3660046118c2565b610b1a565b3480156103ce57600080fd5b506101a96103dd3660046118fb565b610bcc565b3480156103ee57600080fd5b506104026103fd366004611927565b610be7565b6040516101fc9190611940565b34801561041b57600080fd5b5061022561042a36600461196d565b63bc197c8160e01b95945050505050565b34801561044757600080fd5b506101a9610456366004611a1a565b610d2d565b34801561046757600080fd5b506101a9610476366004611a6b565b610daa565b34801561048757600080fd5b5061049b610496366004611ab6565b610e52565b6040516101fc9190611aea565b3480156104b457600080fd5b506101a96104c3366004611b2e565b610edc565b3480156104d457600080fd5b506101a96104e33660046114c7565b610f55565b3480156104f457600080fd5b506101a9610503366004611b74565b610fb4565b34801561051457600080fd5b50610225610523366004611bb5565b63f23a6e6160e01b95945050505050565b34801561054057600080fd5b506101a961054f366004611a1a565b610ff9565b34801561056057600080fd5b5061057461056f366004611927565b61101e565b604080516001600160a01b0390931683526001600160f01b03199091166020830152016101fc565b60003660148082108015906105b557506105b533610795565b156105dc576105c936828403816000611c1d565b6105d291611c47565b60601c9250505090565b339250505090565b604051632c2f5d2960e21b815273__$eade74fbb29c82369931f57fe28cd62d78$__9063b0bd74a490610624906001908c908c908c908c90600401611c77565b60006040518083038186803b15801561063c57600080fd5b505af4158015610650573d6000803e3d6000fd5b505050505050505050505050565b60006001600160e01b031982166223de2960e01b148061068e57506001600160e01b03198216633ad5cbc160e11b145b806106a957506001600160e01b03198216630a85bd0160e11b145b806106c457506001600160e01b03198216630271189760e51b145b806106df57506001600160e01b0319821663164bbd8160e21b145b806106fa57506301ffc9a760e01b6001600160e01b03198316145b92915050565b604051634545992d60e11b8152600160048201526001600160a01b038086166024830152841660448201526064810183905260009073__$eade74fbb29c82369931f57fe28cd62d78$__90638a8b325a9060840160006040518083038186803b15801561076c57600080fd5b505af4158015610780573d6000803e3d6000fd5b50630a85bd0160e11b98975050505050505050565b6000546001600160a01b0391821691161490565b604051631f0de07d60e31b815260016004820181905260609160009182918291829173__$eade74fbb29c82369931f57fe28cd62d78$__9063f86f03e890602401602060405180830381865af4158015610807573d6000803e3d6000fd5b505050506040513d601f19601f8201168201806040525081019061082b9190611ca5565b600254600354835463164bbd8160e21b90859061084790611cbe565b80601f016020809104026020016040519081016040528092919081815260200182805461087390611cbe565b80156108c05780601f10610895576101008083540402835291602001916108c0565b820191906000526020600020905b8154815290600101906020018083116108a357829003601f168201915b50505050509450945094509450945094509091929394565b73__$eade74fbb29c82369931f57fe28cd62d78$__631ceaa38a60016108fc61059c565b8b8a8a6040518663ffffffff1660e01b8152600401610624959493929190611c77565b60006109296110a6565b805490915060ff600160401b82041615906001600160401b03166000811580156109505750825b90506000826001600160401b0316600114801561096c5750303b155b90508115801561097a575080155b156109985760405163f92ee8a960e01b815260040160405180910390fd5b84546001600160401b031916600117855583156109c157845460ff60401b1916600160401b1785555b604051634420f5e560e11b815273__$eade74fbb29c82369931f57fe28cd62d78$__90638841ebca90610a01906001908e908e908e908e90600401611d71565b60006040518083038186803b158015610a1957600080fd5b505af4158015610a2d573d6000803e3d6000fd5b5050600080546001600160a01b0319166001600160a01b038a1617905550610a529050565b8315610a9857845460ff60401b19168555604051600181527fc7f505b2f371ae2175ee4913f4499e1f2633a7b5936321eed1cdaeb6115181d29060200160405180910390a15b50505050505050505050565b73__$eade74fbb29c82369931f57fe28cd62d78$__63c9303814600183610ac961059c565b6040518463ffffffff1660e01b8152600401610ae793929190611e32565b60006040518083038186803b158015610aff57600080fd5b505af4158015610b13573d6000803e3d6000fd5b5050505050565b73__$eade74fbb29c82369931f57fe28cd62d78$__6386cfbc3760018484610b4061059c565b6040516001600160e01b031960e087901b16815260048101949094526001600160a01b0392831660248501526001600160f01b03199091166044840152166064820152608401602060405180830381865af4158015610ba3573d6000803e3d6000fd5b505050506040513d601f19601f82011682018060405250810190610bc79190611ca5565b505050565b610be38282610bd961059c565b60019291906110cf565b5050565b60408051808201825260008152606060208201529051635935285960e01b8152600160048201526024810183905273__$eade74fbb29c82369931f57fe28cd62d78$__90635935285990604401602060405180830381865af4158015610c51573d6000803e3d6000fd5b505050506040513d601f19601f82011682018060405250810190610c759190611ca5565b6040805180820190915281546001600160a01b03168152600182018054919291602084019190610ca490611cbe565b80601f0160208091040260200160405190810160405280929190818152602001828054610cd090611cbe565b8015610d1d5780601f10610cf257610100808354040283529160200191610d1d565b820191906000526020600020905b815481529060010190602001808311610d0057829003601f168201915b5050505050815250509050919050565b73__$eade74fbb29c82369931f57fe28cd62d78$__6350be2a0d600186610d5261059c565b86866040518663ffffffff1660e01b8152600401610d74959493929190611c77565b60006040518083038186803b158015610d8c57600080fd5b505af4158015610da0573d6000803e3d6000fd5b5050505050505050565b73__$eade74fbb29c82369931f57fe28cd62d78$__63e382527f6001858585610dd161059c565b6040516001600160e01b031960e088901b16815260048101959095526001600160a01b03938416602486015291831660448501526001600160f01b031916606484015216608482015260a40160006040518083038186803b158015610e3557600080fd5b505af4158015610e49573d6000803e3d6000fd5b50505050505050565b606073__$eade74fbb29c82369931f57fe28cd62d78$__63bfbb1b1f600184610e7961059c565b6040518463ffffffff1660e01b8152600401610e9793929190611e95565b600060405180830381865af4158015610eb4573d6000803e3d6000fd5b505050506040513d6000823e601f3d908101601f191682016040526106fa9190810190611ec6565b73__$eade74fbb29c82369931f57fe28cd62d78$__6392023c4760018484610f0261059c565b6040518563ffffffff1660e01b8152600401610f219493929190611f56565b60006040518083038186803b158015610f3957600080fd5b505af4158015610f4d573d6000803e3d6000fd5b505050505050565b73__$eade74fbb29c82369931f57fe28cd62d78$__63110ee176600183610f7a61059c565b6040516001600160e01b031960e086901b16815260048101939093526001600160a01b039182166024840152166044820152606401610ae7565b73__$eade74fbb29c82369931f57fe28cd62d78$__634227d17460018484610fda61059c565b6040518563ffffffff1660e01b8152600401610f219493929190611f8e565b73__$eade74fbb29c82369931f57fe28cd62d78$__631ceaa38a600186610d5261059c565b604051630806feeb60e01b81526001600482015260248101829052600090819073__$eade74fbb29c82369931f57fe28cd62d78$__90630806feeb906044016040805180830381865af4158015611079573d6000803e3d6000fd5b505050506040513d601f19601f8201168201806040525081019061109d9190611fd7565b91509150915091565b6000807ff0c57e16840df040f15088dc2f81fe391c3923bec73e23a9662efc9c229c6a006106fa565b6001600160a01b03811660009081526005850160205260409020548490600160f61b90839060f01b82168214806111285750600080805260058401602052604090205460f01b82166001600160f01b0319908116908316145b61116b5760405162461bcd60e51b815260206004820152600f60248201526e2737ba1030baba3437b934bd32b21760891b60448201526064015b60405180910390fd5b6000866001600160a01b03168660405160006040518083038185875af1925050503d80600081146111b8576040519150601f19603f3d011682016040523d82523d6000602084013e6111bd565b606091505b50509050806112015760405162461bcd60e51b815260206004820152601060248201526f2a3930b739b332b9103330b4b632b21760811b6044820152606401611162565b604080516001600160a01b038088168252891660208201529081018790527f888f4e5e3828b86878e550f0d9966a72db1fa81bed7bd7537481075f6b2c237d9060600160405180910390a15050505050505050565b6001600160a01b038116811461126b57600080fd5b50565b803561127981611256565b919050565b60008083601f84011261129057600080fd5b5081356001600160401b038111156112a757600080fd5b6020830191508360208285010111156112bf57600080fd5b9250929050565b60008060008060008060008060c0898b0312156112e257600080fd5b88356112ed81611256565b975060208901356112fd81611256565b9650604089013561130d81611256565b95506060890135945060808901356001600160401b038082111561133057600080fd5b61133c8c838d0161127e565b909650945060a08b013591508082111561135557600080fd5b506113628b828c0161127e565b999c989b5096995094979396929594505050565b60006020828403121561138857600080fd5b81356001600160e01b0319811681146113a057600080fd5b9392505050565b634e487b7160e01b600052604160045260246000fd5b604051601f8201601f191681016001600160401b03811182821017156113e5576113e56113a7565b604052919050565b600082601f8301126113fe57600080fd5b81356001600160401b03811115611417576114176113a7565b61142a601f8201601f19166020016113bd565b81815284602083860101111561143f57600080fd5b816020850160208301376000918101602001919091529392505050565b6000806000806080858703121561147257600080fd5b843561147d81611256565b9350602085013561148d81611256565b92506040850135915060608501356001600160401b038111156114af57600080fd5b6114bb878288016113ed565b91505092959194509250565b6000602082840312156114d957600080fd5b81356113a081611256565b6000815180845260005b8181101561150a576020818501810151868301820152016114ee565b506000602082860101526020601f19601f83011685010191505092915050565b60a08152600061153d60a08301886114e4565b602083019690965250604081019390935260608301919091526001600160e01b031916608090910152919050565b60006001600160401b03821115611584576115846113a7565b5060051b60200190565b6001600160f01b03198116811461126b57600080fd5b600082601f8301126115b557600080fd5b813560206115ca6115c58361156b565b6113bd565b82815260059290921b840181019181810190868411156115e957600080fd5b8286015b8481101561160d5780356116008161158e565b83529183019183016115ed565b509695505050505050565b60006040828403121561162a57600080fd5b604080519081016001600160401b03808211838310171561164d5761164d6113a7565b816040528293508435915061166182611256565b9082526020840135908082111561167757600080fd5b50611684858286016113ed565b6020830152505092915050565b600082601f8301126116a257600080fd5b813560206116b26115c58361156b565b82815260059290921b840181019181810190868411156116d157600080fd5b8286015b8481101561160d5780356001600160401b038111156116f45760008081fd5b6117028986838b0101611618565b8452509183019183016116d5565b600080600080600060a0868803121561172857600080fd5b85356001600160401b038082111561173f57600080fd5b818801915088601f83011261175357600080fd5b813560206117636115c58361156b565b82815260059290921b8401810191818101908c84111561178257600080fd5b948201945b838610156117a957853561179a81611256565b82529482019490820190611787565b995050890135925050808211156117bf57600080fd5b6117cb89838a016115a4565b955060408801359150808211156117e157600080fd5b6117ed89838a016113ed565b9450606088013591508082111561180357600080fd5b5061181088828901611691565b92505061181f6080870161126e565b90509295509295909350565b600082601f83011261183c57600080fd5b8135602061184c6115c58361156b565b82815260059290921b8401810191818101908684111561186b57600080fd5b8286015b8481101561160d578035835291830191830161186f565b60006020828403121561189857600080fd5b81356001600160401b038111156118ae57600080fd5b6118ba8482850161182b565b949350505050565b600080604083850312156118d557600080fd5b82356118e081611256565b915060208301356118f08161158e565b809150509250929050565b6000806040838503121561190e57600080fd5b823561191981611256565b946020939093013593505050565b60006020828403121561193957600080fd5b5035919050565b602080825282516001600160a01b0316828201528201516040808301526000906118ba60608401826114e4565b600080600080600060a0868803121561198557600080fd5b853561199081611256565b945060208601356119a081611256565b935060408601356001600160401b03808211156119bc57600080fd5b6119c889838a0161182b565b945060608801359150808211156119de57600080fd5b6119ea89838a0161182b565b93506080880135915080821115611a0057600080fd5b50611a0d888289016113ed565b9150509295509295909350565b60008060008060808587031215611a3057600080fd5b8435611a3b81611256565b93506020850135611a4b81611256565b92506040850135611a5b81611256565b9396929550929360600135925050565b600080600060608486031215611a8057600080fd5b8335611a8b81611256565b92506020840135611a9b81611256565b91506040840135611aab8161158e565b809150509250925092565b600060208284031215611ac857600080fd5b81356001600160401b03811115611ade57600080fd5b6118ba84828501611691565b6020808252825182820181905260009190848201906040850190845b81811015611b2257835183529284019291840191600101611b06565b50909695505050505050565b60008060408385031215611b4157600080fd5b8235915060208301356001600160401b03811115611b5e57600080fd5b611b6a85828601611618565b9150509250929050565b60008060208385031215611b8757600080fd5b82356001600160401b03811115611b9d57600080fd5b611ba98582860161127e565b90969095509350505050565b600080600080600060a08688031215611bcd57600080fd5b8535611bd881611256565b94506020860135611be881611256565b9350604086013592506060860135915060808601356001600160401b03811115611c1157600080fd5b611a0d888289016113ed565b60008085851115611c2d57600080fd5b83861115611c3a57600080fd5b5050820193919092039150565b6001600160601b03198135818116916014851015611c6f5780818660140360031b1b83161692505b505092915050565b9485526001600160a01b03938416602086015291831660408501529091166060830152608082015260a00190565b600060208284031215611cb757600080fd5b5051919050565b600181811c90821680611cd257607f821691505b602082108103611cf257634e487b7160e01b600052602260045260246000fd5b50919050565b60018060a01b03815116825260006020820151604060208501526118ba60408501826114e4565b6000815180845260208085019450848260051b860182860160005b85811015611d64578383038952611d52838351611cf8565b98850198925090840190600101611d3a565b5090979650505050505050565b600060a08201878352602060a08185015281885180845260c086019150828a01935060005b81811015611dbb5784516001600160a01b031683529383019391830191600101611d96565b50508481036040860152875180825290820192508188019060005b81811015611dfc5782516001600160f01b03191685529383019391830191600101611dd6565b505050508281036060840152611e1281866114e4565b90508281036080840152611e268185611d1f565b98975050505050505050565b6000606082018583526020606081850152818651808452608086019150828801935060005b81811015611e7357845183529383019391830191600101611e57565b50506001600160a01b0395909516604094909401939093525091949350505050565b838152606060208201526000611eae6060830185611d1f565b905060018060a01b0383166040830152949350505050565b60006020808385031215611ed957600080fd5b82516001600160401b03811115611eef57600080fd5b8301601f81018513611f0057600080fd5b8051611f0e6115c58261156b565b81815260059190911b82018301908381019087831115611f2d57600080fd5b928401925b82841015611f4b57835182529284019290840190611f32565b979650505050505050565b848152836020820152608060408201526000611f756080830185611cf8565b905060018060a01b038316606083015295945050505050565b848152606060208201528260608201528284608083013760008184016080908101919091526001600160a01b03929092166040820152601f909201601f19169091010192915050565b60008060408385031215611fea57600080fd5b8251611ff581611256565b60208401519092506118f08161158e56fea26469706673582212205e3eb1a8490b56e5a1440d265c03f1018ff2c70aeee60dd718ff7ad43d26e68264736f6c63430008140033608060405234801561001057600080fd5b5061001961001e565b6100d0565b7ff0c57e16840df040f15088dc2f81fe391c3923bec73e23a9662efc9c229c6a00805468010000000000000000900460ff161561006e5760405163f92ee8a960e01b815260040160405180910390fd5b80546001600160401b03908116146100cd5780546001600160401b0319166001600160401b0390811782556040519081527fc7f505b2f371ae2175ee4913f4499e1f2633a7b5936321eed1cdaeb6115181d29060200160405180910390a15b50565b610bea806100df6000396000f3fe608060405234801561001057600080fd5b506004361061008e5760003560e01c806306fdde0314610093578063095ea7b3146100b157806318160ddd146100d457806323b872dd146100ea578063313ce567146100fd57806370a082311461010c57806395d89b411461011f578063a9059cbb14610127578063dd62ed3e1461013a578063f542033f1461014d575b600080fd5b61009b610162565b6040516100a891906107d5565b60405180910390f35b6100c46100bf36600461083f565b610203565b60405190151581526020016100a8565b6100dc61021d565b6040519081526020016100a8565b6100c46100f8366004610869565b610232565b604051601281526020016100a8565b6100dc61011a3660046108a5565b610256565b61009b610281565b6100c461013536600461083f565b61029e565b6100dc6101483660046108c7565b6102ac565b61016061015b36600461099c565b6102e8565b005b6060600061016e6103ef565b905080600301805461017f90610a17565b80601f01602080910402602001604051908101604052809291908181526020018280546101ab90610a17565b80156101f85780601f106101cd576101008083540402835291602001916101f8565b820191906000526020600020905b8154815290600101906020018083116101db57829003601f168201915b505050505091505090565b600033610211818585610413565b60019150505b92915050565b6000806102286103ef565b6002015492915050565b600033610240858285610425565b61024b858585610482565b506001949350505050565b6000806102616103ef565b6001600160a01b0390931660009081526020939093525050604090205490565b6060600061028d6103ef565b905080600401805461017f90610a17565b600033610211818585610482565b6000806102b76103ef565b6001600160a01b03948516600090815260019190910160209081526040808320959096168252939093525050205490565b60006102f26104e1565b805490915060ff600160401b82041615906001600160401b03166000811580156103195750825b90506000826001600160401b031660011480156103355750303b155b905081158015610343575080155b156103615760405163f92ee8a960e01b815260040160405180910390fd5b84546001600160401b0319166001178555831561038a57845460ff60401b1916600160401b1785555b610394898961050a565b61039e8787610520565b83156103e457845460ff60401b19168555604051600181527fc7f505b2f371ae2175ee4913f4499e1f2633a7b5936321eed1cdaeb6115181d29060200160405180910390a15b505050505050505050565b7f52c63247e1f47db19d5ce0460030c497f067ca4cebf71ba98eeadabe20bace0090565b6104208383836001610556565b505050565b600061043184846102ac565b905060001981101561047c578181101561046d57828183604051637dc7a0d960e11b815260040161046493929190610a51565b60405180910390fd5b61047c84848484036000610556565b50505050565b6001600160a01b0383166104ac576000604051634b637e8f60e11b81526004016104649190610a72565b6001600160a01b0382166104d657600060405163ec442f0560e01b81526004016104649190610a72565b61042083838361063b565b6000807ff0c57e16840df040f15088dc2f81fe391c3923bec73e23a9662efc9c229c6a00610217565b610512610763565b61051c828261078a565b5050565b6001600160a01b03821661054a57600060405163ec442f0560e01b81526004016104649190610a72565b61051c6000838361063b565b60006105606103ef565b90506001600160a01b03851661058c57600060405163e602df0560e01b81526004016104649190610a72565b6001600160a01b0384166105b6576000604051634a1406b160e11b81526004016104649190610a72565b6001600160a01b0380861660009081526001830160209081526040808320938816835292905220839055811561063457836001600160a01b0316856001600160a01b03167f8c5be1e5ebec7d5bd14f71427d1e84f3dd0314c0f7b2291e5b200ac8c7c3b9258560405161062b91815260200190565b60405180910390a35b5050505050565b60006106456103ef565b90506001600160a01b03841661067457818160020160008282546106699190610a86565b909155506106d39050565b6001600160a01b038416600090815260208290526040902054828110156106b45784818460405163391434e360e21b815260040161046493929190610a51565b6001600160a01b03851660009081526020839052604090209083900390555b6001600160a01b0383166106f1576002810180548390039055610710565b6001600160a01b03831660009081526020829052604090208054830190555b826001600160a01b0316846001600160a01b03167fddf252ad1be2c89b69c2b068fc378daa952ba7f163c4a11628f55a4df523b3ef8460405161075591815260200190565b60405180910390a350505050565b61076b6107bb565b61078857604051631afcd79f60e31b815260040160405180910390fd5b565b610792610763565b600061079c6103ef565b9050600381016107ac8482610af5565b506004810161047c8382610af5565b60006107c56104e1565b54600160401b900460ff16919050565b600060208083528351808285015260005b81811015610802578581018301518582016040015282016107e6565b506000604082860101526040601f19601f8301168501019250505092915050565b80356001600160a01b038116811461083a57600080fd5b919050565b6000806040838503121561085257600080fd5b61085b83610823565b946020939093013593505050565b60008060006060848603121561087e57600080fd5b61088784610823565b925061089560208501610823565b9150604084013590509250925092565b6000602082840312156108b757600080fd5b6108c082610823565b9392505050565b600080604083850312156108da57600080fd5b6108e383610823565b91506108f160208401610823565b90509250929050565b634e487b7160e01b600052604160045260246000fd5b600082601f83011261092157600080fd5b81356001600160401b038082111561093b5761093b6108fa565b604051601f8301601f19908116603f01168101908282118183101715610963576109636108fa565b8160405283815286602085880101111561097c57600080fd5b836020870160208301376000602085830101528094505050505092915050565b600080600080608085870312156109b257600080fd5b84356001600160401b03808211156109c957600080fd5b6109d588838901610910565b955060208701359150808211156109eb57600080fd5b506109f887828801610910565b935050610a0760408601610823565b9396929550929360600135925050565b600181811c90821680610a2b57607f821691505b602082108103610a4b57634e487b7160e01b600052602260045260246000fd5b50919050565b6001600160a01b039390931683526020830191909152604082015260600190565b6001600160a01b0391909116815260200190565b8082018082111561021757634e487b7160e01b600052601160045260246000fd5b601f82111561042057600081815260208120601f850160051c81016020861015610ace5750805b601f850160051c820191505b81811015610aed57828155600101610ada565b505050505050565b81516001600160401b03811115610b0e57610b0e6108fa565b610b2281610b1c8454610a17565b84610aa7565b602080601f831160018114610b575760008415610b3f5750858301515b600019600386901b1c1916600185901b178555610aed565b600085815260208120601f198616915b82811015610b8657888601518255948401946001909101908401610b67565b5085821015610ba45787850151600019600388901b60f8161c191681555b5050505050600190811b0190555056fea26469706673582212206c01b1da4986df5cb1ae1b6fa680b11a43dff8727679b22f88dba2bf60def61e64736f6c63430008140033",
  "linkReferences": {
    "contracts/libraries/OrganLibrary.sol": {
      "OrganLibrary": [
        {
          "length": 20,
          "start": 9477
        },
        {
          "length": 20,
          "start": 10707
        },
        {
          "length": 20,
          "start": 11031
        },
        {
          "length": 20,
          "start": 11181
        },
        {
          "length": 20,
          "start": 11450
        },
        {
          "length": 20,
          "start": 11696
        },
        {
          "length": 20,
          "start": 11910
        },
        {
          "length": 20,
          "start": 12028
        },
        {
          "length": 20,
          "start": 12279
        },
        {
          "length": 20,
          "start": 12559
        },
        {
          "length": 20,
          "start": 12684
        },
        {
          "length": 20,
          "start": 12854
        },
        {
          "length": 20,
          "start": 12990
        },
        {
          "length": 20,
          "start": 13111
        },
        {
          "length": 20,
          "start": 13206
        },
        {
          "length": 20,
          "start": 13275
        },
        {
          "length": 20,
          "start": 13344
        }
      ]
    }
  },
  "deployedLinkReferences": {}
}