{
  "_format": "hh-sol-artifact-1",
  "contractName": "Organ",
  "sourceName": "contracts/Organ.sol",
  "abi": [
    {
      "inputs": [],
      "stateMutability": "nonpayable",
      "type": "constructor"
    },
    {
      "inputs": [],
      "name": "InvalidInitialization",
      "type": "error"
    },
    {
      "inputs": [],
      "name": "NotInitializing",
      "type": "error"
    },
    {
      "anonymous": false,
      "inputs": [
        {
          "indexed": false,
          "internalType": "uint64",
          "name": "version",
          "type": "uint64"
        }
      ],
      "name": "Initialized",
      "type": "event"
    },
    {
      "anonymous": false,
      "inputs": [
        {
          "indexed": false,
          "internalType": "address",
          "name": "from",
          "type": "address"
        },
        {
          "indexed": false,
          "internalType": "address",
          "name": "to",
          "type": "address"
        },
        {
          "indexed": false,
          "internalType": "uint256",
          "name": "amount",
          "type": "uint256"
        }
      ],
      "name": "etherTransferred",
      "type": "event"
    },
    {
      "inputs": [
        {
          "components": [
            {
              "internalType": "address",
              "name": "addr",
              "type": "address"
            },
            {
              "internalType": "string",
              "name": "cid",
              "type": "string"
            }
          ],
          "internalType": "struct CoreLibrary.Entry[]",
          "name": "entries",
          "type": "tuple[]"
        }
      ],
      "name": "addEntries",
      "outputs": [
        {
          "internalType": "uint256[]",
          "name": "indexes",
          "type": "uint256[]"
        }
      ],
      "stateMutability": "nonpayable",
      "type": "function"
    },
    {
      "inputs": [
        {
          "internalType": "address",
          "name": "permissionAddress",
          "type": "address"
        },
        {
          "internalType": "bytes2",
          "name": "permissionValue",
          "type": "bytes2"
        }
      ],
      "name": "addPermission",
      "outputs": [],
      "stateMutability": "nonpayable",
      "type": "function"
    },
    {
      "inputs": [
        {
          "internalType": "uint256",
          "name": "index",
          "type": "uint256"
        }
      ],
      "name": "getEntry",
      "outputs": [
        {
          "components": [
            {
              "internalType": "address",
              "name": "addr",
              "type": "address"
            },
            {
              "internalType": "string",
              "name": "cid",
              "type": "string"
            }
          ],
          "internalType": "struct CoreLibrary.Entry",
          "name": "entry",
          "type": "tuple"
        }
      ],
      "stateMutability": "view",
      "type": "function"
    },
    {
      "inputs": [
        {
          "internalType": "address",
          "name": "addr",
          "type": "address"
        }
      ],
      "name": "getEntryIndexForAddress",
      "outputs": [
        {
          "internalType": "uint256",
          "name": "index",
          "type": "uint256"
        }
      ],
      "stateMutability": "view",
      "type": "function"
    },
    {
      "inputs": [],
      "name": "getOrgan",
      "outputs": [
        {
          "internalType": "string",
          "name": "cid",
          "type": "string"
        },
        {
          "internalType": "uint256",
          "name": "permissionsLength",
          "type": "uint256"
        },
        {
          "internalType": "uint256",
          "name": "entriesLength",
          "type": "uint256"
        },
        {
          "internalType": "uint256",
          "name": "entriesCount",
          "type": "uint256"
        },
        {
          "internalType": "bytes4",
          "name": "interfaceId",
          "type": "bytes4"
        }
      ],
      "stateMutability": "view",
      "type": "function"
    },
    {
      "inputs": [
        {
          "internalType": "uint256",
          "name": "index",
          "type": "uint256"
        }
      ],
      "name": "getPermission",
      "outputs": [
        {
          "internalType": "address",
          "name": "addr",
          "type": "address"
        },
        {
          "internalType": "bytes2",
          "name": "perms",
          "type": "bytes2"
        }
      ],
      "stateMutability": "view",
      "type": "function"
    },
    {
      "inputs": [
        {
          "internalType": "address",
          "name": "addr",
          "type": "address"
        }
      ],
      "name": "getPermissions",
      "outputs": [
        {
          "internalType": "bytes2",
          "name": "perms",
          "type": "bytes2"
        }
      ],
      "stateMutability": "view",
      "type": "function"
    },
    {
      "inputs": [
        {
          "internalType": "address[]",
          "name": "permissionAddresses",
          "type": "address[]"
        },
        {
          "internalType": "bytes2[]",
          "name": "permissionValues",
          "type": "bytes2[]"
        },
        {
          "internalType": "string",
          "name": "cid",
          "type": "string"
        },
        {
          "components": [
            {
              "internalType": "address",
              "name": "addr",
              "type": "address"
            },
            {
              "internalType": "string",
              "name": "cid",
              "type": "string"
            }
          ],
          "internalType": "struct CoreLibrary.Entry[]",
          "name": "entries",
          "type": "tuple[]"
        },
        {
          "internalType": "address",
          "name": "forwarder",
          "type": "address"
        }
      ],
      "name": "initialize",
      "outputs": [],
      "stateMutability": "nonpayable",
      "type": "function"
    },
    {
      "inputs": [
        {
          "internalType": "address",
          "name": "forwarder",
          "type": "address"
        }
      ],
      "name": "isTrustedForwarder",
      "outputs": [
        {
          "internalType": "bool",
          "name": "",
          "type": "bool"
        }
      ],
      "stateMutability": "view",
      "type": "function"
    },
    {
      "inputs": [
        {
          "internalType": "address",
          "name": "",
          "type": "address"
        },
        {
          "internalType": "address",
          "name": "",
          "type": "address"
        },
        {
          "internalType": "uint256[]",
          "name": "",
          "type": "uint256[]"
        },
        {
          "internalType": "uint256[]",
          "name": "",
          "type": "uint256[]"
        },
        {
          "internalType": "bytes",
          "name": "",
          "type": "bytes"
        }
      ],
      "name": "onERC1155BatchReceived",
      "outputs": [
        {
          "internalType": "bytes4",
          "name": "",
          "type": "bytes4"
        }
      ],
      "stateMutability": "nonpayable",
      "type": "function"
    },
    {
      "inputs": [
        {
          "internalType": "address",
          "name": "",
          "type": "address"
        },
        {
          "internalType": "address",
          "name": "",
          "type": "address"
        },
        {
          "internalType": "uint256",
          "name": "",
          "type": "uint256"
        },
        {
          "internalType": "uint256",
          "name": "",
          "type": "uint256"
        },
        {
          "internalType": "bytes",
          "name": "",
          "type": "bytes"
        }
      ],
      "name": "onERC1155Received",
      "outputs": [
        {
          "internalType": "bytes4",
          "name": "",
          "type": "bytes4"
        }
      ],
      "stateMutability": "nonpayable",
      "type": "function"
    },
    {
      "inputs": [
        {
          "internalType": "address",
          "name": "operator",
          "type": "address"
        },
        {
          "internalType": "address",
          "name": "from",
          "type": "address"
        },
        {
          "internalType": "uint256",
          "name": "tokenId",
          "type": "uint256"
        },
        {
          "internalType": "bytes",
          "name": "",
          "type": "bytes"
        }
      ],
      "name": "onERC721Received",
      "outputs": [
        {
          "internalType": "bytes4",
          "name": "",
          "type": "bytes4"
        }
      ],
      "stateMutability": "nonpayable",
      "type": "function"
    },
    {
      "inputs": [
        {
          "internalType": "uint256[]",
          "name": "indexes",
          "type": "uint256[]"
        }
      ],
      "name": "removeEntries",
      "outputs": [],
      "stateMutability": "nonpayable",
      "type": "function"
    },
    {
      "inputs": [
        {
          "internalType": "address",
          "name": "permissionAddress",
          "type": "address"
        }
      ],
      "name": "removePermission",
      "outputs": [],
      "stateMutability": "nonpayable",
      "type": "function"
    },
    {
      "inputs": [
        {
          "internalType": "uint256",
          "name": "index",
          "type": "uint256"
        },
        {
          "components": [
            {
              "internalType": "address",
              "name": "addr",
              "type": "address"
            },
            {
              "internalType": "string",
              "name": "cid",
              "type": "string"
            }
          ],
          "internalType": "struct CoreLibrary.Entry",
          "name": "entry",
          "type": "tuple"
        }
      ],
      "name": "replaceEntry",
      "outputs": [],
      "stateMutability": "nonpayable",
      "type": "function"
    },
    {
      "inputs": [
        {
          "internalType": "address",
          "name": "oldPermissionAddress",
          "type": "address"
        },
        {
          "internalType": "address",
          "name": "newPermissionAddress",
          "type": "address"
        },
        {
          "internalType": "bytes2",
          "name": "newPermissionValue",
          "type": "bytes2"
        }
      ],
      "name": "replacePermission",
      "outputs": [],
      "stateMutability": "nonpayable",
      "type": "function"
    },
    {
      "inputs": [
        {
          "internalType": "bytes4",
          "name": "interfaceId",
          "type": "bytes4"
        }
      ],
      "name": "supportsInterface",
      "outputs": [
        {
          "internalType": "bool",
          "name": "",
          "type": "bool"
        }
      ],
      "stateMutability": "view",
      "type": "function"
    },
    {
      "inputs": [
        {
          "internalType": "address",
          "name": "operator",
          "type": "address"
        },
        {
          "internalType": "address",
          "name": "from",
          "type": "address"
        },
        {
          "internalType": "address",
          "name": "to",
          "type": "address"
        },
        {
          "internalType": "uint256",
          "name": "amount",
          "type": "uint256"
        },
        {
          "internalType": "bytes",
          "name": "",
          "type": "bytes"
        },
        {
          "internalType": "bytes",
          "name": "",
          "type": "bytes"
        }
      ],
      "name": "tokensReceived",
      "outputs": [],
      "stateMutability": "nonpayable",
      "type": "function"
    },
    {
      "inputs": [
        {
          "internalType": "address",
          "name": "operator",
          "type": "address"
        },
        {
          "internalType": "address",
          "name": "",
          "type": "address"
        },
        {
          "internalType": "address",
          "name": "to",
          "type": "address"
        },
        {
          "internalType": "uint256",
          "name": "amount",
          "type": "uint256"
        },
        {
          "internalType": "bytes",
          "name": "",
          "type": "bytes"
        },
        {
          "internalType": "bytes",
          "name": "",
          "type": "bytes"
        }
      ],
      "name": "tokensToSend",
      "outputs": [],
      "stateMutability": "nonpayable",
      "type": "function"
    },
    {
      "inputs": [
        {
          "internalType": "address payable",
          "name": "to",
          "type": "address"
        },
        {
          "internalType": "uint256",
          "name": "value",
          "type": "uint256"
        }
      ],
      "name": "transfer",
      "outputs": [],
      "stateMutability": "nonpayable",
      "type": "function"
    },
    {
      "inputs": [
        {
          "internalType": "address",
          "name": "token",
          "type": "address"
        },
        {
          "internalType": "address",
          "name": "",
          "type": "address"
        },
        {
          "internalType": "address",
          "name": "to",
          "type": "address"
        },
        {
          "internalType": "uint256",
          "name": "amount",
          "type": "uint256"
        }
      ],
      "name": "transferCoins",
      "outputs": [],
      "stateMutability": "nonpayable",
      "type": "function"
    },
    {
      "inputs": [
        {
          "internalType": "address",
          "name": "token",
          "type": "address"
        },
        {
          "internalType": "address",
          "name": "",
          "type": "address"
        },
        {
          "internalType": "address",
          "name": "to",
          "type": "address"
        },
        {
          "internalType": "uint256",
          "name": "tokenId",
          "type": "uint256"
        }
      ],
      "name": "transferCollectible",
      "outputs": [],
      "stateMutability": "nonpayable",
      "type": "function"
    },
    {
      "inputs": [],
      "name": "trustedForwarder",
      "outputs": [
        {
          "internalType": "address",
          "name": "",
          "type": "address"
        }
      ],
      "stateMutability": "view",
      "type": "function"
    },
    {
      "inputs": [
        {
          "internalType": "string",
          "name": "cid",
          "type": "string"
        }
      ],
      "name": "updateCid",
      "outputs": [],
      "stateMutability": "nonpayable",
      "type": "function"
    },
    {
      "stateMutability": "payable",
      "type": "receive"
    }
  ],
  "bytecode": "0x608060405234801561001057600080fd5b5061001961001e565b6100d0565b7ff0c57e16840df040f15088dc2f81fe391c3923bec73e23a9662efc9c229c6a00805468010000000000000000900460ff161561006e5760405163f92ee8a960e01b815260040160405180910390fd5b80546001600160401b03908116146100cd5780546001600160401b0319166001600160401b0390811782556040519081527fc7f505b2f371ae2175ee4913f4499e1f2633a7b5936321eed1cdaeb6115181d29060200160405180910390a15b50565b61203c80620000e06000396000f3fe60806040526004361061011e5760003560e01c806223de29146101b057806301ffc9a7146101d0578063150b7a0214610205578063160a79251461023e5780632f2bf18e14610290578063572b6c05146102d4578063685b3cb5146102f457806375ab97821461031a57806375f5a96c1461033a5780637615eb811461035a5780637da0a8771461037a5780639d2018bf146103a2578063a9059cbb146103c2578063bae78d7b146103e2578063bc197c811461040f578063bdb3e1c41461043b578063c969a43a1461045b578063d610b5701461047b578063dcf48963146104a8578063e074bb47146104c8578063f03f542b146104e8578063f23a6e6114610508578063f49b584814610534578063ffb5e2761461055457600080fd5b366101ab5773__$eade74fbb29c82369931f57fe28cd62d78$__63dd67b85660013461014861059c565b6040516001600160e01b031960e086901b168152600481019390935260248301919091526001600160a01b0316604482015260640160006040518083038186803b15801561019557600080fd5b505af41580156101a9573d6000803e3d6000fd5b005b600080fd5b3480156101bc57600080fd5b506101a96101cb3660046112c6565b6105e4565b3480156101dc57600080fd5b506101f06101eb366004611376565b61065e565b60405190151581526020015b60405180910390f35b34801561021157600080fd5b5061022561022036600461145c565b610700565b6040516001600160e01b031990911681526020016101fc565b34801561024a57600080fd5b506102776102593660046114c7565b6001600160a01b031660009081526006602052604090205460f01b90565b6040516001600160f01b031990911681526020016101fc565b34801561029c57600080fd5b506102c66102ab3660046114c7565b6001600160a01b031660009081526007602052604090205490565b6040519081526020016101fc565b3480156102e057600080fd5b506101f06102ef3660046114c7565b610795565b34801561030057600080fd5b506103096107a9565b6040516101fc95949392919061152a565b34801561032657600080fd5b506101a96103353660046112c6565b6108d8565b34801561034657600080fd5b506101a9610355366004611710565b61091f565b34801561036657600080fd5b506101a9610375366004611886565b610aa4565b34801561038657600080fd5b506000546040516001600160a01b0390911681526020016101fc565b3480156103ae57600080fd5b506101a96103bd3660046118c2565b610b1a565b3480156103ce57600080fd5b506101a96103dd3660046118fb565b610bcc565b3480156103ee57600080fd5b506104026103fd366004611927565b610be7565b6040516101fc9190611940565b34801561041b57600080fd5b5061022561042a36600461196d565b63bc197c8160e01b95945050505050565b34801561044757600080fd5b506101a9610456366004611a1a565b610d2d565b34801561046757600080fd5b506101a9610476366004611a6b565b610daa565b34801561048757600080fd5b5061049b610496366004611ab6565b610e52565b6040516101fc9190611aea565b3480156104b457600080fd5b506101a96104c3366004611b2e565b610edc565b3480156104d457600080fd5b506101a96104e33660046114c7565b610f55565b3480156104f457600080fd5b506101a9610503366004611b74565b610fb4565b34801561051457600080fd5b50610225610523366004611bb5565b63f23a6e6160e01b95945050505050565b34801561054057600080fd5b506101a961054f366004611a1a565b610ff9565b34801561056057600080fd5b5061057461056f366004611927565b61101e565b604080516001600160a01b0390931683526001600160f01b03199091166020830152016101fc565b60003660148082108015906105b557506105b533610795565b156105dc576105c936828403816000611c1d565b6105d291611c47565b60601c9250505090565b339250505090565b604051632c2f5d2960e21b815273__$eade74fbb29c82369931f57fe28cd62d78$__9063b0bd74a490610624906001908c908c908c908c90600401611c77565b60006040518083038186803b15801561063c57600080fd5b505af4158015610650573d6000803e3d6000fd5b505050505050505050505050565b60006001600160e01b031982166223de2960e01b148061068e57506001600160e01b03198216633ad5cbc160e11b145b806106a957506001600160e01b03198216630a85bd0160e11b145b806106c457506001600160e01b03198216630271189760e51b145b806106df57506001600160e01b0319821663164bbd8160e21b145b806106fa57506301ffc9a760e01b6001600160e01b03198316145b92915050565b604051634545992d60e11b8152600160048201526001600160a01b038086166024830152841660448201526064810183905260009073__$eade74fbb29c82369931f57fe28cd62d78$__90638a8b325a9060840160006040518083038186803b15801561076c57600080fd5b505af4158015610780573d6000803e3d6000fd5b50630a85bd0160e11b98975050505050505050565b6000546001600160a01b0391821691161490565b604051631f0de07d60e31b815260016004820181905260609160009182918291829173__$eade74fbb29c82369931f57fe28cd62d78$__9063f86f03e890602401602060405180830381865af4158015610807573d6000803e3d6000fd5b505050506040513d601f19601f8201168201806040525081019061082b9190611ca5565b600254600354835463164bbd8160e21b90859061084790611cbe565b80601f016020809104026020016040519081016040528092919081815260200182805461087390611cbe565b80156108c05780601f10610895576101008083540402835291602001916108c0565b820191906000526020600020905b8154815290600101906020018083116108a357829003601f168201915b50505050509450945094509450945094509091929394565b73__$eade74fbb29c82369931f57fe28cd62d78$__631ceaa38a60016108fc61059c565b8b8a8a6040518663ffffffff1660e01b8152600401610624959493929190611c77565b60006109296110a6565b805490915060ff600160401b82041615906001600160401b03166000811580156109505750825b90506000826001600160401b0316600114801561096c5750303b155b90508115801561097a575080155b156109985760405163f92ee8a960e01b815260040160405180910390fd5b84546001600160401b031916600117855583156109c157845460ff60401b1916600160401b1785555b604051634420f5e560e11b815273__$eade74fbb29c82369931f57fe28cd62d78$__90638841ebca90610a01906001908e908e908e908e90600401611d71565b60006040518083038186803b158015610a1957600080fd5b505af4158015610a2d573d6000803e3d6000fd5b5050600080546001600160a01b0319166001600160a01b038a1617905550610a529050565b8315610a9857845460ff60401b19168555604051600181527fc7f505b2f371ae2175ee4913f4499e1f2633a7b5936321eed1cdaeb6115181d29060200160405180910390a15b50505050505050505050565b73__$eade74fbb29c82369931f57fe28cd62d78$__63c9303814600183610ac961059c565b6040518463ffffffff1660e01b8152600401610ae793929190611e32565b60006040518083038186803b158015610aff57600080fd5b505af4158015610b13573d6000803e3d6000fd5b5050505050565b73__$eade74fbb29c82369931f57fe28cd62d78$__6386cfbc3760018484610b4061059c565b6040516001600160e01b031960e087901b16815260048101949094526001600160a01b0392831660248501526001600160f01b03199091166044840152166064820152608401602060405180830381865af4158015610ba3573d6000803e3d6000fd5b505050506040513d601f19601f82011682018060405250810190610bc79190611ca5565b505050565b610be38282610bd961059c565b60019291906110cf565b5050565b60408051808201825260008152606060208201529051635935285960e01b8152600160048201526024810183905273__$eade74fbb29c82369931f57fe28cd62d78$__90635935285990604401602060405180830381865af4158015610c51573d6000803e3d6000fd5b505050506040513d601f19601f82011682018060405250810190610c759190611ca5565b6040805180820190915281546001600160a01b03168152600182018054919291602084019190610ca490611cbe565b80601f0160208091040260200160405190810160405280929190818152602001828054610cd090611cbe565b8015610d1d5780601f10610cf257610100808354040283529160200191610d1d565b820191906000526020600020905b815481529060010190602001808311610d0057829003601f168201915b5050505050815250509050919050565b73__$eade74fbb29c82369931f57fe28cd62d78$__6350be2a0d600186610d5261059c565b86866040518663ffffffff1660e01b8152600401610d74959493929190611c77565b60006040518083038186803b158015610d8c57600080fd5b505af4158015610da0573d6000803e3d6000fd5b5050505050505050565b73__$eade74fbb29c82369931f57fe28cd62d78$__63e382527f6001858585610dd161059c565b6040516001600160e01b031960e088901b16815260048101959095526001600160a01b03938416602486015291831660448501526001600160f01b031916606484015216608482015260a40160006040518083038186803b158015610e3557600080fd5b505af4158015610e49573d6000803e3d6000fd5b50505050505050565b606073__$eade74fbb29c82369931f57fe28cd62d78$__63bfbb1b1f600184610e7961059c565b6040518463ffffffff1660e01b8152600401610e9793929190611e95565b600060405180830381865af4158015610eb4573d6000803e3d6000fd5b505050506040513d6000823e601f3d908101601f191682016040526106fa9190810190611ec6565b73__$eade74fbb29c82369931f57fe28cd62d78$__6392023c4760018484610f0261059c565b6040518563ffffffff1660e01b8152600401610f219493929190611f56565b60006040518083038186803b158015610f3957600080fd5b505af4158015610f4d573d6000803e3d6000fd5b505050505050565b73__$eade74fbb29c82369931f57fe28cd62d78$__63110ee176600183610f7a61059c565b6040516001600160e01b031960e086901b16815260048101939093526001600160a01b039182166024840152166044820152606401610ae7565b73__$eade74fbb29c82369931f57fe28cd62d78$__634227d17460018484610fda61059c565b6040518563ffffffff1660e01b8152600401610f219493929190611f8e565b73__$eade74fbb29c82369931f57fe28cd62d78$__631ceaa38a600186610d5261059c565b604051630806feeb60e01b81526001600482015260248101829052600090819073__$eade74fbb29c82369931f57fe28cd62d78$__90630806feeb906044016040805180830381865af4158015611079573d6000803e3d6000fd5b505050506040513d601f19601f8201168201806040525081019061109d9190611fd7565b91509150915091565b6000807ff0c57e16840df040f15088dc2f81fe391c3923bec73e23a9662efc9c229c6a006106fa565b6001600160a01b03811660009081526005850160205260409020548490600160f61b90839060f01b82168214806111285750600080805260058401602052604090205460f01b82166001600160f01b0319908116908316145b61116b5760405162461bcd60e51b815260206004820152600f60248201526e2737ba1030baba3437b934bd32b21760891b60448201526064015b60405180910390fd5b6000866001600160a01b03168660405160006040518083038185875af1925050503d80600081146111b8576040519150601f19603f3d011682016040523d82523d6000602084013e6111bd565b606091505b50509050806112015760405162461bcd60e51b815260206004820152601060248201526f2a3930b739b332b9103330b4b632b21760811b6044820152606401611162565b604080516001600160a01b038088168252891660208201529081018790527f888f4e5e3828b86878e550f0d9966a72db1fa81bed7bd7537481075f6b2c237d9060600160405180910390a15050505050505050565b6001600160a01b038116811461126b57600080fd5b50565b803561127981611256565b919050565b60008083601f84011261129057600080fd5b5081356001600160401b038111156112a757600080fd5b6020830191508360208285010111156112bf57600080fd5b9250929050565b60008060008060008060008060c0898b0312156112e257600080fd5b88356112ed81611256565b975060208901356112fd81611256565b9650604089013561130d81611256565b95506060890135945060808901356001600160401b038082111561133057600080fd5b61133c8c838d0161127e565b909650945060a08b013591508082111561135557600080fd5b506113628b828c0161127e565b999c989b5096995094979396929594505050565b60006020828403121561138857600080fd5b81356001600160e01b0319811681146113a057600080fd5b9392505050565b634e487b7160e01b600052604160045260246000fd5b604051601f8201601f191681016001600160401b03811182821017156113e5576113e56113a7565b604052919050565b600082601f8301126113fe57600080fd5b81356001600160401b03811115611417576114176113a7565b61142a601f8201601f19166020016113bd565b81815284602083860101111561143f57600080fd5b816020850160208301376000918101602001919091529392505050565b6000806000806080858703121561147257600080fd5b843561147d81611256565b9350602085013561148d81611256565b92506040850135915060608501356001600160401b038111156114af57600080fd5b6114bb878288016113ed565b91505092959194509250565b6000602082840312156114d957600080fd5b81356113a081611256565b6000815180845260005b8181101561150a576020818501810151868301820152016114ee565b506000602082860101526020601f19601f83011685010191505092915050565b60a08152600061153d60a08301886114e4565b602083019690965250604081019390935260608301919091526001600160e01b031916608090910152919050565b60006001600160401b03821115611584576115846113a7565b5060051b60200190565b6001600160f01b03198116811461126b57600080fd5b600082601f8301126115b557600080fd5b813560206115ca6115c58361156b565b6113bd565b82815260059290921b840181019181810190868411156115e957600080fd5b8286015b8481101561160d5780356116008161158e565b83529183019183016115ed565b509695505050505050565b60006040828403121561162a57600080fd5b604080519081016001600160401b03808211838310171561164d5761164d6113a7565b816040528293508435915061166182611256565b9082526020840135908082111561167757600080fd5b50611684858286016113ed565b6020830152505092915050565b600082601f8301126116a257600080fd5b813560206116b26115c58361156b565b82815260059290921b840181019181810190868411156116d157600080fd5b8286015b8481101561160d5780356001600160401b038111156116f45760008081fd5b6117028986838b0101611618565b8452509183019183016116d5565b600080600080600060a0868803121561172857600080fd5b85356001600160401b038082111561173f57600080fd5b818801915088601f83011261175357600080fd5b813560206117636115c58361156b565b82815260059290921b8401810191818101908c84111561178257600080fd5b948201945b838610156117a957853561179a81611256565b82529482019490820190611787565b995050890135925050808211156117bf57600080fd5b6117cb89838a016115a4565b955060408801359150808211156117e157600080fd5b6117ed89838a016113ed565b9450606088013591508082111561180357600080fd5b5061181088828901611691565b92505061181f6080870161126e565b90509295509295909350565b600082601f83011261183c57600080fd5b8135602061184c6115c58361156b565b82815260059290921b8401810191818101908684111561186b57600080fd5b8286015b8481101561160d578035835291830191830161186f565b60006020828403121561189857600080fd5b81356001600160401b038111156118ae57600080fd5b6118ba8482850161182b565b949350505050565b600080604083850312156118d557600080fd5b82356118e081611256565b915060208301356118f08161158e565b809150509250929050565b6000806040838503121561190e57600080fd5b823561191981611256565b946020939093013593505050565b60006020828403121561193957600080fd5b5035919050565b602080825282516001600160a01b0316828201528201516040808301526000906118ba60608401826114e4565b600080600080600060a0868803121561198557600080fd5b853561199081611256565b945060208601356119a081611256565b935060408601356001600160401b03808211156119bc57600080fd5b6119c889838a0161182b565b945060608801359150808211156119de57600080fd5b6119ea89838a0161182b565b93506080880135915080821115611a0057600080fd5b50611a0d888289016113ed565b9150509295509295909350565b60008060008060808587031215611a3057600080fd5b8435611a3b81611256565b93506020850135611a4b81611256565b92506040850135611a5b81611256565b9396929550929360600135925050565b600080600060608486031215611a8057600080fd5b8335611a8b81611256565b92506020840135611a9b81611256565b91506040840135611aab8161158e565b809150509250925092565b600060208284031215611ac857600080fd5b81356001600160401b03811115611ade57600080fd5b6118ba84828501611691565b6020808252825182820181905260009190848201906040850190845b81811015611b2257835183529284019291840191600101611b06565b50909695505050505050565b60008060408385031215611b4157600080fd5b8235915060208301356001600160401b03811115611b5e57600080fd5b611b6a85828601611618565b9150509250929050565b60008060208385031215611b8757600080fd5b82356001600160401b03811115611b9d57600080fd5b611ba98582860161127e565b90969095509350505050565b600080600080600060a08688031215611bcd57600080fd5b8535611bd881611256565b94506020860135611be881611256565b9350604086013592506060860135915060808601356001600160401b03811115611c1157600080fd5b611a0d888289016113ed565b60008085851115611c2d57600080fd5b83861115611c3a57600080fd5b5050820193919092039150565b6001600160601b03198135818116916014851015611c6f5780818660140360031b1b83161692505b505092915050565b9485526001600160a01b03938416602086015291831660408501529091166060830152608082015260a00190565b600060208284031215611cb757600080fd5b5051919050565b600181811c90821680611cd257607f821691505b602082108103611cf257634e487b7160e01b600052602260045260246000fd5b50919050565b60018060a01b03815116825260006020820151604060208501526118ba60408501826114e4565b6000815180845260208085019450848260051b860182860160005b85811015611d64578383038952611d52838351611cf8565b98850198925090840190600101611d3a565b5090979650505050505050565b600060a08201878352602060a08185015281885180845260c086019150828a01935060005b81811015611dbb5784516001600160a01b031683529383019391830191600101611d96565b50508481036040860152875180825290820192508188019060005b81811015611dfc5782516001600160f01b03191685529383019391830191600101611dd6565b505050508281036060840152611e1281866114e4565b90508281036080840152611e268185611d1f565b98975050505050505050565b6000606082018583526020606081850152818651808452608086019150828801935060005b81811015611e7357845183529383019391830191600101611e57565b50506001600160a01b0395909516604094909401939093525091949350505050565b838152606060208201526000611eae6060830185611d1f565b905060018060a01b0383166040830152949350505050565b60006020808385031215611ed957600080fd5b82516001600160401b03811115611eef57600080fd5b8301601f81018513611f0057600080fd5b8051611f0e6115c58261156b565b81815260059190911b82018301908381019087831115611f2d57600080fd5b928401925b82841015611f4b57835182529284019290840190611f32565b979650505050505050565b848152836020820152608060408201526000611f756080830185611cf8565b905060018060a01b038316606083015295945050505050565b848152606060208201528260608201528284608083013760008184016080908101919091526001600160a01b03929092166040820152601f909201601f19169091010192915050565b60008060408385031215611fea57600080fd5b8251611ff581611256565b60208401519092506118f08161158e56fea26469706673582212205e3eb1a8490b56e5a1440d265c03f1018ff2c70aeee60dd718ff7ad43d26e68264736f6c63430008140033",
  "linkReferences": {
    "contracts/libraries/OrganLibrary.sol": {
      "OrganLibrary": [
        {
          "length": 20,
          "start": 517
        },
        {
          "length": 20,
          "start": 1747
        },
        {
          "length": 20,
          "start": 2071
        },
        {
          "length": 20,
          "start": 2221
        },
        {
          "length": 20,
          "start": 2490
        },
        {
          "length": 20,
          "start": 2736
        },
        {
          "length": 20,
          "start": 2950
        },
        {
          "length": 20,
          "start": 3068
        },
        {
          "length": 20,
          "start": 3319
        },
        {
          "length": 20,
          "start": 3599
        },
        {
          "length": 20,
          "start": 3724
        },
        {
          "length": 20,
          "start": 3894
        },
        {
          "length": 20,
          "start": 4030
        },
        {
          "length": 20,
          "start": 4151
        },
        {
          "length": 20,
          "start": 4246
        },
        {
          "length": 20,
          "start": 4315
        },
        {
          "length": 20,
          "start": 4384
        }
      ]
    }
  },
  "deployedLinkReferences": {
    "contracts/libraries/OrganLibrary.sol": {
      "OrganLibrary": [
        {
          "length": 20,
          "start": 293
        },
        {
          "length": 20,
          "start": 1523
        },
        {
          "length": 20,
          "start": 1847
        },
        {
          "length": 20,
          "start": 1997
        },
        {
          "length": 20,
          "start": 2266
        },
        {
          "length": 20,
          "start": 2512
        },
        {
          "length": 20,
          "start": 2726
        },
        {
          "length": 20,
          "start": 2844
        },
        {
          "length": 20,
          "start": 3095
        },
        {
          "length": 20,
          "start": 3375
        },
        {
          "length": 20,
          "start": 3500
        },
        {
          "length": 20,
          "start": 3670
        },
        {
          "length": 20,
          "start": 3806
        },
        {
          "length": 20,
          "start": 3927
        },
        {
          "length": 20,
          "start": 4022
        },
        {
          "length": 20,
          "start": 4091
        },
        {
          "length": 20,
          "start": 4160
        }
      ]
    }
  }
}