{
  "_format": "hh-sol-artifact-1",
  "contractName": "OrganLibrary",
  "sourceName": "contracts/libraries/OrganLibrary.sol",
  "abi": [
    {
      "inputs": [
        {
          "internalType": "address",
          "name": "proc",
          "type": "address"
        }
      ],
      "name": "DuplicateProcedure",
      "type": "error"
    },
    {
      "inputs": [],
      "name": "LengthMismatch",
      "type": "error"
    },
    {
      "inputs": [],
      "name": "ZeroAddress",
      "type": "error"
    },
    {
      "anonymous": false,
      "inputs": [
        {
          "indexed": false,
          "internalType": "address",
          "name": "from",
          "type": "address"
        },
        {
          "indexed": false,
          "internalType": "address",
          "name": "admin",
          "type": "address"
        }
      ],
      "name": "adminUpdated",
      "type": "event"
    },
    {
      "anonymous": false,
      "inputs": [
        {
          "indexed": false,
          "internalType": "address",
          "name": "from",
          "type": "address"
        },
        {
          "indexed": false,
          "internalType": "string",
          "name": "cid",
          "type": "string"
        }
      ],
      "name": "cidUpdated",
      "type": "event"
    },
    {
      "anonymous": false,
      "inputs": [
        {
          "indexed": false,
          "internalType": "address",
          "name": "operator",
          "type": "address"
        },
        {
          "indexed": false,
          "internalType": "address",
          "name": "from",
          "type": "address"
        },
        {
          "indexed": false,
          "internalType": "address",
          "name": "to",
          "type": "address"
        },
        {
          "indexed": false,
          "internalType": "uint256",
          "name": "amount",
          "type": "uint256"
        }
      ],
      "name": "coinsReceived",
      "type": "event"
    },
    {
      "anonymous": false,
      "inputs": [
        {
          "indexed": false,
          "internalType": "address",
          "name": "operator",
          "type": "address"
        },
        {
          "indexed": false,
          "internalType": "address",
          "name": "from",
          "type": "address"
        },
        {
          "indexed": false,
          "internalType": "address",
          "name": "to",
          "type": "address"
        },
        {
          "indexed": false,
          "internalType": "uint256",
          "name": "amount",
          "type": "uint256"
        }
      ],
      "name": "coinsTransferred",
      "type": "event"
    },
    {
      "anonymous": false,
      "inputs": [
        {
          "indexed": false,
          "internalType": "address",
          "name": "operator",
          "type": "address"
        },
        {
          "indexed": false,
          "internalType": "address",
          "name": "from",
          "type": "address"
        },
        {
          "indexed": false,
          "internalType": "uint256",
          "name": "tokenId",
          "type": "uint256"
        }
      ],
      "name": "collectibleReceived",
      "type": "event"
    },
    {
      "anonymous": false,
      "inputs": [
        {
          "indexed": false,
          "internalType": "address",
          "name": "operator",
          "type": "address"
        },
        {
          "indexed": false,
          "internalType": "address",
          "name": "to",
          "type": "address"
        },
        {
          "indexed": false,
          "internalType": "uint256",
          "name": "tokenId",
          "type": "uint256"
        }
      ],
      "name": "collectibleTransferred",
      "type": "event"
    },
    {
      "anonymous": false,
      "inputs": [
        {
          "indexed": false,
          "internalType": "address",
          "name": "from",
          "type": "address"
        },
        {
          "indexed": false,
          "internalType": "uint256",
          "name": "index",
          "type": "uint256"
        },
        {
          "indexed": false,
          "internalType": "address",
          "name": "addr",
          "type": "address"
        },
        {
          "indexed": false,
          "internalType": "string",
          "name": "cid",
          "type": "string"
        }
      ],
      "name": "entryAdded",
      "type": "event"
    },
    {
      "anonymous": false,
      "inputs": [
        {
          "indexed": false,
          "internalType": "address",
          "name": "from",
          "type": "address"
        },
        {
          "indexed": false,
          "internalType": "uint256",
          "name": "index",
          "type": "uint256"
        }
      ],
      "name": "entryRemoved",
      "type": "event"
    },
    {
      "anonymous": false,
      "inputs": [
        {
          "indexed": false,
          "internalType": "address",
          "name": "from",
          "type": "address"
        },
        {
          "indexed": false,
          "internalType": "uint256",
          "name": "amount",
          "type": "uint256"
        }
      ],
      "name": "etherReceived",
      "type": "event"
    },
    {
      "anonymous": false,
      "inputs": [
        {
          "indexed": false,
          "internalType": "address",
          "name": "from",
          "type": "address"
        },
        {
          "indexed": false,
          "internalType": "address",
          "name": "to",
          "type": "address"
        },
        {
          "indexed": false,
          "internalType": "uint256",
          "name": "amount",
          "type": "uint256"
        }
      ],
      "name": "etherTransferred",
      "type": "event"
    },
    {
      "anonymous": false,
      "inputs": [
        {
          "indexed": false,
          "internalType": "address",
          "name": "from",
          "type": "address"
        },
        {
          "indexed": false,
          "internalType": "address",
          "name": "procedure",
          "type": "address"
        },
        {
          "indexed": false,
          "internalType": "bytes2",
          "name": "permissions",
          "type": "bytes2"
        }
      ],
      "name": "procedureAdded",
      "type": "event"
    },
    {
      "anonymous": false,
      "inputs": [
        {
          "indexed": false,
          "internalType": "address",
          "name": "from",
          "type": "address"
        },
        {
          "indexed": false,
          "internalType": "address",
          "name": "procedure",
          "type": "address"
        }
      ],
      "name": "procedureRemoved",
      "type": "event"
    },
    {
      "inputs": [],
      "name": "PERMISSION_ADD_ENTRIES",
      "outputs": [
        {
          "internalType": "bytes2",
          "name": "",
          "type": "bytes2"
        }
      ],
      "stateMutability": "view",
      "type": "function"
    },
    {
      "inputs": [],
      "name": "PERMISSION_ADD_PROCEDURES",
      "outputs": [
        {
          "internalType": "bytes2",
          "name": "",
          "type": "bytes2"
        }
      ],
      "stateMutability": "view",
      "type": "function"
    },
    {
      "inputs": [],
      "name": "PERMISSION_DEPOSIT_COINS",
      "outputs": [
        {
          "internalType": "bytes2",
          "name": "",
          "type": "bytes2"
        }
      ],
      "stateMutability": "view",
      "type": "function"
    },
    {
      "inputs": [],
      "name": "PERMISSION_DEPOSIT_COLLECTIBLES",
      "outputs": [
        {
          "internalType": "bytes2",
          "name": "",
          "type": "bytes2"
        }
      ],
      "stateMutability": "view",
      "type": "function"
    },
    {
      "inputs": [],
      "name": "PERMISSION_DEPOSIT_ETHER",
      "outputs": [
        {
          "internalType": "bytes2",
          "name": "",
          "type": "bytes2"
        }
      ],
      "stateMutability": "view",
      "type": "function"
    },
    {
      "inputs": [],
      "name": "PERMISSION_REMOVE_ENTRIES",
      "outputs": [
        {
          "internalType": "bytes2",
          "name": "",
          "type": "bytes2"
        }
      ],
      "stateMutability": "view",
      "type": "function"
    },
    {
      "inputs": [],
      "name": "PERMISSION_REMOVE_PROCEDURES",
      "outputs": [
        {
          "internalType": "bytes2",
          "name": "",
          "type": "bytes2"
        }
      ],
      "stateMutability": "view",
      "type": "function"
    },
    {
      "inputs": [],
      "name": "PERMISSION_UPDATE_METADATA",
      "outputs": [
        {
          "internalType": "bytes2",
          "name": "",
          "type": "bytes2"
        }
      ],
      "stateMutability": "view",
      "type": "function"
    },
    {
      "inputs": [],
      "name": "PERMISSION_WITHDRAW_COINS",
      "outputs": [
        {
          "internalType": "bytes2",
          "name": "",
          "type": "bytes2"
        }
      ],
      "stateMutability": "view",
      "type": "function"
    },
    {
      "inputs": [],
      "name": "PERMISSION_WITHDRAW_COLLECTIBLES",
      "outputs": [
        {
          "internalType": "bytes2",
          "name": "",
          "type": "bytes2"
        }
      ],
      "stateMutability": "view",
      "type": "function"
    },
    {
      "inputs": [],
      "name": "PERMISSION_WITHDRAW_ETHER",
      "outputs": [
        {
          "internalType": "bytes2",
          "name": "",
          "type": "bytes2"
        }
      ],
      "stateMutability": "view",
      "type": "function"
    }
  ],
  "bytecode": "0x61265261003a600b82828239805160001a60731461002d57634e487b7160e01b600052600060045260246000fd5b30600052607381538281f3fe730000000000000000000000000000000000000000301460806040526004361061015e5760003560e01c8063051488a8146101635780631ceaa38a1461018c57806324f8b7df146101ae5780632d2a4205146101dc5780633b1a16cf146101e75780634227d174146101f25780634bc01d121461021257806350be2a0d1461023257806359352859146102525780636337a8d5146102655780636fb28203146102705780637573ea45146102905780638114cbea1461029b578063842519fb146102a6578063863e5d16146102b157806388c7fc54146102ec5780638a8b325a146102f75780638d6ee760146103175780638ebc3a881461032257806392023c471461032d5780639710d1811461034d578063b0248ab814610358578063b0bd74a414610378578063ba3ac48614610398578063bfbb1b1f146103b8578063c9303814146103e5578063ca42cca814610405578063dd67b85614610418575b600080fd5b61016e600160f81b81565b6040516001600160f01b031990911681526020015b60405180910390f35b81801561019857600080fd5b506101ac6101a7366004611a2a565b610438565b005b8180156101ba57600080fd5b506101ce6101c9366004611a9d565b610563565b604051908152602001610183565b61016e600160f51b81565b61016e600160fa1b81565b8180156101fe57600080fd5b506101ac61020d366004611ba3565b610698565b81801561021e57600080fd5b506101ac61022d366004611bfd565b61075a565b81801561023e57600080fd5b506101ac61024d366004611a2a565b61084a565b6101ce610260366004611c3c565b610966565b61016e600160f31b81565b81801561027c57600080fd5b506101ac61028b366004611cf3565b610994565b61016e600160f01b81565b61016e600160f41b81565b61016e600160f91b81565b6102c46102bf366004611c3c565b610b2b565b604080516001600160a01b0390931683526001600160f01b0319909116602083015201610183565b61016e600160f61b81565b81801561030357600080fd5b506101ac610312366004611de4565b610b65565b61016e600160f21b81565b61016e600160f11b81565b81801561033957600080fd5b506101ac610348366004611ea5565b610c0d565b61016e600160f71b81565b81801561036457600080fd5b506101ac610373366004611efc565b610e6d565b81801561038457600080fd5b506101ac610393366004611a2a565b610f5c565b8180156103a457600080fd5b506101ac6103b3366004611f33565b611006565b8180156103c457600080fd5b506103d86103d3366004611f99565b6111fd565b6040516101839190612065565b8180156103f157600080fd5b506101ac6104003660046120a9565b61155e565b6101ce61041336600461214c565b611720565b81801561042457600080fd5b506101ac610433366004612165565b61172e565b6001600160a01b03831660009081526005860160205260409020548590600160f81b90859060f01b82168214806104915750600080805260058401602052604090205460f01b82166001600160f01b0319908116908316145b6104b65760405162461bcd60e51b81526004016104ad90612193565b60405180910390fd5b604051634decdde360e11b81526060906001600160a01b03891690639bd9bbc6906104e990899089908690600401612202565b600060405180830381600087803b15801561050357600080fd5b505af1158015610517573d6000803e3d6000fd5b505050507f9df0034edd0538407262676cf5883fee08c9655adc9aa709deaf4d58fc3946e8888888886040516105509493929190612232565b60405180910390a1505050505050505050565b6001600160a01b03811660009081526005850160205260408120548590600160f01b90849060f01b82168214806105bc5750600080805260058401602052604090205460f01b82166001600160f01b0319908116908316145b6105d85760405162461bcd60e51b81526004016104ad90612193565b6105e560038901886117d4565b156106025760405162461bcd60e51b81526004016104ad9061225c565b6001600160f01b0319861660000361062c5760405162461bcd60e51b81526004016104ad90612287565b61063960038901886117f0565b506001600160a01b038716600090815260058901602052604090819020805461ffff191660f089901c179055516000805160206125fd833981519152906106859087908a908a906122b7565b60405180910390a1505050949350505050565b6001600160a01b03811660009081526005840160205260409020548390600160f41b90839060f01b82168214806106f15750600080805260058401602052604090205460f01b82166001600160f01b0319908116908316145b61070d5760405162461bcd60e51b81526004016104ad90612193565b85610718868261236d565b507fa991ce5b410db3ebc88a3442f64764e791b0d8ca9a9380a81f6c626e1949923e848660405161074a92919061242c565b60405180910390a1505050505050565b6001600160a01b03811660009081526005850160205260409020548490600160f61b90839060f01b82168214806107b35750600080805260058401602052604090205460f01b82166001600160f01b0319908116908316145b6107cf5760405162461bcd60e51b81526004016104ad90612193565b6040516001600160a01b0387169086156108fc029087906000818181858888f19350505050158015610805573d6000803e3d6000fd5b507f888f4e5e3828b86878e550f0d9966a72db1fa81bed7bd7537481075f6b2c237d84878760405161083993929190612458565b60405180910390a150505050505050565b6001600160a01b03831660009081526005860160205260409020548590600160fa1b90859060f01b82168214806108a35750600080805260058401602052604090205460f01b82166001600160f01b0319908116908316145b6108bf5760405162461bcd60e51b81526004016104ad90612193565b604051632142170760e11b81526001600160a01b038816906342842e0e906108ef90899089908990600401612458565b600060405180830381600087803b15801561090957600080fd5b505af115801561091d573d6000803e3d6000fd5b505050507f8e804bbf6f6b1556cf1371c58fce001012969e584497e633a931750c479c70a787868660405161095493929190612458565b60405180910390a15050505050505050565b600082600101828154811061097d5761097d61247c565b906000526020600020906002020190505b92915050565b81518351146109b9576040516001621398b960e31b0319815260040160405180910390fd5b60005b8351811015610aaa5760008482815181106109d9576109d961247c565b6020026020010151905060006001600160a01b0316816001600160a01b031603610a165760405163d92e233d60e01b815260040160405180910390fd5b610a2360038701826117f0565b610a4b576040516365ffc12160e11b81526001600160a01b03821660048201526024016104ad565b838281518110610a5d57610a5d61247c565b6020908102919091018101516001600160a01b039290921660009081526005880190915260409020805461ffff191660f09290921c91909117905580610aa2816124a8565b9150506109bc565b5083610ab6828261236d565b5060408051808201825260008082528251602080820190945281815283830190815260018881018054808301825590845294909220835160029095020180546001600160a01b0319166001600160a01b039095169490941784555191929190820190610b22908261236d565b50505050505050565b600080610b3b6003850184611805565b6001600160a01b038116600090815260058601602052604090205490925060f01b90509250929050565b6001600160a01b03821660009081526005850160205260409020548490600160f91b90849060f01b8216821480610bbe5750600080805260058401602052604090205460f01b82166001600160f01b0319908116908316145b610bda5760405162461bcd60e51b81526004016104ad90612193565b7fe5e97c239ef97530361e497f81ff5c1271fd4ea83a1876459ace5eea3e428fac86868660405161083993929190612458565b6001600160a01b03811660009081526005850160205260409020548490600160f31b90839060f01b8216821480610c665750600080805260058401602052604090205460f01b82166001600160f01b0319908116908316145b610c825760405162461bcd60e51b81526004016104ad90612193565b6001600160a01b03841660009081526005880160205260409020548790600160f21b90869060f01b8216821480610cdb5750600080805260058401602052604090205460f01b82166001600160f01b0319908116908316145b610cf75760405162461bcd60e51b81526004016104ad90612193565b87516001600160a01b031615610d3f5787516001600160a01b0316600090815260068b016020526040902054610d3f5760405162461bcd60e51b81526004016104ad906124c1565b60008a60060160008c6001018c81548110610d5c57610d5c61247c565b600091825260208083206002909202909101546001600160a01b031683528201929092526040908101909120919091555160008051602061259d83398151915290610daa9089908c906124ec565b60405180910390a1878a6001018a81548110610dc857610dc861247c565b600091825260209182902083516002929092020180546001600160a01b0319166001600160a01b03909216919091178155908201516001820190610e0c908261236d565b505088516001600160a01b0316600090815260068c0160209081526040918290208c90558a51908b015191516000805160206125dd8339815191529350610e59928b928e92909190612505565b60405180910390a150505050505050505050565b6001600160a01b03811660009081526005840160205260409020548390600160f11b90839060f01b8216821480610ec65750600080805260058401602052604090205460f01b82166001600160f01b0319908116908316145b610ee25760405162461bcd60e51b81526004016104ad90612193565b610eef60038701866117d4565b610f0b5760405162461bcd60e51b81526004016104ad906124c1565b610f186003870186611811565b506001600160a01b038516600090815260058701602052604090819020805461ffff19169055516000805160206125bd8339815191529061074a9086908890612542565b6001600160a01b03831660009081526005860160205260409020548590600160f71b90859060f01b8216821480610fb55750600080805260058401602052604090205460f01b82166001600160f01b0319908116908316145b610fd15760405162461bcd60e51b81526004016104ad90612193565b7f2cd05e0dd8d1973240403d6f7b5af34f709ea79a0f5199fcc9ebc4102919fd40878787876040516109549493929190612232565b6001600160a01b03811660009081526005860160205260409020548590600160f11b90839060f01b821682148061105f5750600080805260058401602052604090205460f01b82166001600160f01b0319908116908316145b61107b5760405162461bcd60e51b81526004016104ad90612193565b6001600160a01b03841660009081526005890160205260409020548890600160f01b90869060f01b82168214806110d45750600080805260058401602052604090205460f01b82166001600160f01b0319908116908316145b6110f05760405162461bcd60e51b81526004016104ad90612193565b6110fd60038c018b6117d4565b6111195760405162461bcd60e51b81526004016104ad906124c1565b6001600160f01b031988166111405760405162461bcd60e51b81526004016104ad90612287565b886001600160a01b03168a6001600160a01b031614611176576111658b8a8a8a610563565b506111718b8b89610e6d565b6111a0565b6001600160a01b038916600090815260058c0160205260409020805461ffff191660f08a901c1790555b6000805160206125bd833981519152878b6040516111bf929190612542565b60405180910390a16000805160206125fd833981519152878a8a6040516111e8939291906122b7565b60405180910390a15050505050505050505050565b6001600160a01b03811660009081526005840160205260409020546060908490600160f21b90849060f01b82168214806112595750600080805260058401602052604090205460f01b82166001600160f01b0319908116908316145b6112755760405162461bcd60e51b81526004016104ad90612193565b60008651116112be5760405162461bcd60e51b815260206004820152601560248201527427379032b73a3934b2b99039b832b1b4b334b2b21760591b60448201526064016104ad565b85516001600160401b038111156112d7576112d7611aee565b604051908082528060200260200182016040528015611300578160200160208202803683370190505b50935060005b86518110156115535760006001600160a01b031687828151811061132c5761132c61247c565b6020026020010151600001516001600160a01b0316146113aa5787600601600088838151811061135e5761135e61247c565b6020026020010151600001516001600160a01b03166001600160a01b03168152602001908152602001600020546000146113aa5760405162461bcd60e51b81526004016104ad9061225c565b876001018782815181106113c0576113c061247c565b602090810291909101810151825460018082018555600094855293839020825160029092020180546001600160a01b0319166001600160a01b03909216919091178155918101519092820190611416908261236d565b505050600188810154611429919061255c565b85828151811061143b5761143b61247c565b6020026020010181815250508481815181106114595761145961247c565b60200260200101518860060160008984815181106114795761147961247c565b6020026020010151600001516001600160a01b03166001600160a01b03168152602001908152602001600020819055508760020160008154809291906114be906124a8565b91905055506000805160206125dd833981519152868683815181106114e5576114e561247c565b60200260200101518984815181106114ff576114ff61247c565b6020026020010151600001518a858151811061151d5761151d61247c565b6020026020010151602001516040516115399493929190612505565b60405180910390a18061154b816124a8565b915050611306565b505050509392505050565b6001600160a01b03811660009081526005840160205260409020548390600160f31b90839060f01b82168214806115b75750600080805260058401602052604090205460f01b82166001600160f01b0319908116908316145b6115d35760405162461bcd60e51b81526004016104ad90612193565b60005b8551811015610b22576000876001018783815181106115f7576115f761247c565b60200260200101518154811061160f5761160f61247c565b600091825260209091206002909102015487516001600160a01b03909116915060018901908890849081106116465761164661247c565b60200260200101518154811061165e5761165e61247c565b60009182526020822060029091020180546001600160a01b03191681559061168960018301826119af565b505060028801805490600061169d8361256f565b90915550506001600160a01b038116156116cd576001600160a01b03811660009081526006890160205260408120555b60008051602061259d833981519152868884815181106116ef576116ef61247c565b60200260200101516040516117059291906124ec565b60405180910390a15080611718816124a8565b9150506115d6565b600061098e82600301611826565b6001600160a01b03811660009081526005840160205260409020548390600160f51b90839060f01b82168214806117875750600080805260058401602052604090205460f01b82166001600160f01b0319908116908316145b6117a35760405162461bcd60e51b81526004016104ad90612193565b7fcbbd8e1693c80baea4b26f9f5b28e2fea72633c6953e2dc612f123c5b8cf9d49848660405161074a9291906124ec565b60006117e9836001600160a01b038416611830565b9392505050565b60006117e9836001600160a01b038416611848565b60006117e98383611892565b60006117e9836001600160a01b0384166118bc565b600061098e825490565b60009081526001919091016020526040902054151590565b60006118548383611830565b61188a5750815460018181018455600084815260208082209093018490558454848252828601909352604090209190915561098e565b50600061098e565b60008260000182815481106118a9576118a961247c565b9060005260206000200154905092915050565b600081815260018301602052604081205480156119a55760006118e060018361255c565b85549091506000906118f49060019061255c565b90508082146119595760008660000182815481106119145761191461247c565b90600052602060002001549050808760000184815481106119375761193761247c565b6000918252602080832090910192909255918252600188019052604090208390555b855486908061196a5761196a612586565b60019003818190600052602060002001600090559055856001016000868152602001908152602001600020600090556001935050505061098e565b600091505061098e565b5080546119bb906122e4565b6000825580601f106119cb575050565b601f0160209004906000526020600020908101906119e991906119ec565b50565b5b80821115611a0157600081556001016119ed565b5090565b6001600160a01b03811681146119e957600080fd5b8035611a2581611a05565b919050565b600080600080600060a08688031215611a4257600080fd5b853594506020860135611a5481611a05565b93506040860135611a6481611a05565b92506060860135611a7481611a05565b949793965091946080013592915050565b80356001600160f01b031981168114611a2557600080fd5b60008060008060808587031215611ab357600080fd5b843593506020850135611ac581611a05565b9250611ad360408601611a85565b91506060850135611ae381611a05565b939692955090935050565b634e487b7160e01b600052604160045260246000fd5b604051601f8201601f191681016001600160401b0381118282101715611b2c57611b2c611aee565b604052919050565b600082601f830112611b4557600080fd5b81356001600160401b03811115611b5e57611b5e611aee565b611b71601f8201601f1916602001611b04565b818152846020838601011115611b8657600080fd5b816020850160208301376000918101602001919091529392505050565b600080600060608486031215611bb857600080fd5b8335925060208401356001600160401b03811115611bd557600080fd5b611be186828701611b34565b9250506040840135611bf281611a05565b809150509250925092565b60008060008060808587031215611c1357600080fd5b843593506020850135611c2581611a05565b9250604085013591506060850135611ae381611a05565b60008060408385031215611c4f57600080fd5b50508035926020909101359150565b60006001600160401b03821115611c7757611c77611aee565b5060051b60200190565b600082601f830112611c9257600080fd5b81356020611ca7611ca283611c5e565b611b04565b82815260059290921b84018101918181019086841115611cc657600080fd5b8286015b84811015611ce857611cdb81611a85565b8352918301918301611cca565b509695505050505050565b60008060008060808587031215611d0957600080fd5b843593506020808601356001600160401b0380821115611d2857600080fd5b818801915088601f830112611d3c57600080fd5b8135611d4a611ca282611c5e565b81815260059190911b8301840190848101908b831115611d6957600080fd5b938501935b82851015611d90578435611d8181611a05565b82529385019390850190611d6e565b975050506040880135925080831115611da857600080fd5b611db489848a01611c81565b94506060880135925080831115611dca57600080fd5b5050611dd887828801611b34565b91505092959194509250565b60008060008060808587031215611dfa57600080fd5b843593506020850135611e0c81611a05565b92506040850135611e1c81611a05565b9396929550929360600135925050565b600060408284031215611e3e57600080fd5b604080519081016001600160401b038082118383101715611e6157611e61611aee565b8160405282935084359150611e7582611a05565b90825260208401359080821115611e8b57600080fd5b50611e9885828601611b34565b6020830152505092915050565b60008060008060808587031215611ebb57600080fd5b843593506020850135925060408501356001600160401b03811115611edf57600080fd5b611eeb87828801611e2c565b9250506060850135611ae381611a05565b600080600060608486031215611f1157600080fd5b833592506020840135611f2381611a05565b91506040840135611bf281611a05565b600080600080600060a08688031215611f4b57600080fd5b853594506020860135611f5d81611a05565b93506040860135611f6d81611a05565b9250611f7b60608701611a85565b91506080860135611f8b81611a05565b809150509295509295909350565b600080600060608486031215611fae57600080fd5b833592506020808501356001600160401b0380821115611fcd57600080fd5b818701915087601f830112611fe157600080fd5b8135611fef611ca282611c5e565b81815260059190911b8301840190848101908a83111561200e57600080fd5b8585015b838110156120465780358581111561202a5760008081fd5b6120388d89838a0101611e2c565b845250918601918601612012565b5080975050505050505061205c60408501611a1a565b90509250925092565b6020808252825182820181905260009190848201906040850190845b8181101561209d57835183529284019291840191600101612081565b50909695505050505050565b6000806000606084860312156120be57600080fd5b833592506020808501356001600160401b038111156120dc57600080fd5b8501601f810187136120ed57600080fd5b80356120fb611ca282611c5e565b81815260059190911b8201830190838101908983111561211a57600080fd5b928401925b828410156121385783358252928401929084019061211f565b809650505050505061205c60408501611a1a565b60006020828403121561215e57600080fd5b5035919050565b60008060006060848603121561217a57600080fd5b83359250602084013591506040840135611bf281611a05565b6020808252600f908201526e2737ba1030baba3437b934bd32b21760891b604082015260600190565b6000815180845260005b818110156121e2576020818501810151868301820152016121c6565b506000602082860101526020601f19601f83011685010191505092915050565b60018060a01b038416815282602082015260606040820152600061222960608301846121bc565b95945050505050565b6001600160a01b039485168152928416602084015292166040820152606081019190915260800190565b602080825260119082015270223ab83634b1b0ba32903932b1b7b9321760791b604082015260600190565b6020808252601690820152752bb937b733903832b936b4b9b9b4b7b7399039b2ba1760511b604082015260600190565b6001600160a01b0393841681529190921660208201526001600160f01b0319909116604082015260600190565b600181811c908216806122f857607f821691505b60208210810361231857634e487b7160e01b600052602260045260246000fd5b50919050565b601f82111561236857600081815260208120601f850160051c810160208610156123455750805b601f850160051c820191505b8181101561236457828155600101612351565b5050505b505050565b81516001600160401b0381111561238657612386611aee565b61239a8161239484546122e4565b8461231e565b602080601f8311600181146123cf57600084156123b75750858301515b600019600386901b1c1916600185901b178555612364565b600085815260208120601f198616915b828110156123fe578886015182559484019460019091019084016123df565b508582101561241c5787850151600019600388901b60f8161c191681555b5050505050600190811b01905550565b6001600160a01b0383168152604060208201819052600090612450908301846121bc565b949350505050565b6001600160a01b039384168152919092166020820152604081019190915260600190565b634e487b7160e01b600052603260045260246000fd5b634e487b7160e01b600052601160045260246000fd5b6000600182016124ba576124ba612492565b5060010190565b6020808252601190820152702932b1b7b932103737ba103337bab7321760791b604082015260600190565b6001600160a01b03929092168252602082015260400190565b6001600160a01b0385811682526020820185905283166040820152608060608201819052600090612538908301846121bc565b9695505050505050565b6001600160a01b0392831681529116602082015260400190565b8181038181111561098e5761098e612492565b60008161257e5761257e612492565b506000190190565b634e487b7160e01b600052603160045260246000fdfeb66f1ae02a95bcbfd5cb608041f8225a5fd4bda29310bd2541e95c1c8ff04d78f4198b630a5831df7cbdb26981a0a5fece69d524f9d5b2bd4daf698b4dfdb2185003f7799863596cac1c738a57d5e036c06baf264d77bb9db675e9c04ba9105fdf8ecb67ccb8275f1c628a7275de366fac017387946044d9dcd4046962982a4ea2646970667358221220ec1d524d452cb5b8bd144ba4d2913e610abfc1aa900633fd3536806ae77f5c4364736f6c63430008140033",
  "linkReferences": {},
  "deployedLinkReferences": {}
}