{
  "_format": "hh-sol-artifact-1",
  "contractName": "Organ",
  "sourceName": "contracts/Organ.sol",
  "abi": [
    {
      "inputs": [],
      "stateMutability": "nonpayable",
      "type": "constructor"
    },
    {
      "inputs": [],
      "name": "InvalidInitialization",
      "type": "error"
    },
    {
      "inputs": [],
      "name": "NotInitializing",
      "type": "error"
    },
    {
      "anonymous": false,
      "inputs": [
        {
          "indexed": false,
          "internalType": "uint64",
          "name": "version",
          "type": "uint64"
        }
      ],
      "name": "Initialized",
      "type": "event"
    },
    {
      "inputs": [
        {
          "components": [
            {
              "internalType": "address",
              "name": "addr",
              "type": "address"
            },
            {
              "internalType": "string",
              "name": "cid",
              "type": "string"
            }
          ],
          "internalType": "struct CoreLibrary.Entry[]",
          "name": "entries",
          "type": "tuple[]"
        }
      ],
      "name": "addEntries",
      "outputs": [
        {
          "internalType": "uint256[]",
          "name": "indexes",
          "type": "uint256[]"
        }
      ],
      "stateMutability": "nonpayable",
      "type": "function"
    },
    {
      "inputs": [
        {
          "internalType": "address",
          "name": "permissionAddress",
          "type": "address"
        },
        {
          "internalType": "bytes2",
          "name": "permissionValue",
          "type": "bytes2"
        }
      ],
      "name": "addPermission",
      "outputs": [],
      "stateMutability": "nonpayable",
      "type": "function"
    },
    {
      "inputs": [
        {
          "internalType": "uint256",
          "name": "index",
          "type": "uint256"
        }
      ],
      "name": "getEntry",
      "outputs": [
        {
          "components": [
            {
              "internalType": "address",
              "name": "addr",
              "type": "address"
            },
            {
              "internalType": "string",
              "name": "cid",
              "type": "string"
            }
          ],
          "internalType": "struct CoreLibrary.Entry",
          "name": "entry",
          "type": "tuple"
        }
      ],
      "stateMutability": "view",
      "type": "function"
    },
    {
      "inputs": [
        {
          "internalType": "address",
          "name": "addr",
          "type": "address"
        }
      ],
      "name": "getEntryIndexForAddress",
      "outputs": [
        {
          "internalType": "uint256",
          "name": "index",
          "type": "uint256"
        }
      ],
      "stateMutability": "view",
      "type": "function"
    },
    {
      "inputs": [],
      "name": "getOrgan",
      "outputs": [
        {
          "internalType": "string",
          "name": "cid",
          "type": "string"
        },
        {
          "internalType": "uint256",
          "name": "permissionsLength",
          "type": "uint256"
        },
        {
          "internalType": "uint256",
          "name": "entriesLength",
          "type": "uint256"
        },
        {
          "internalType": "uint256",
          "name": "entriesCount",
          "type": "uint256"
        },
        {
          "internalType": "bytes4",
          "name": "interfaceId",
          "type": "bytes4"
        }
      ],
      "stateMutability": "view",
      "type": "function"
    },
    {
      "inputs": [
        {
          "internalType": "uint256",
          "name": "index",
          "type": "uint256"
        }
      ],
      "name": "getPermission",
      "outputs": [
        {
          "internalType": "address",
          "name": "addr",
          "type": "address"
        },
        {
          "internalType": "bytes2",
          "name": "perms",
          "type": "bytes2"
        }
      ],
      "stateMutability": "view",
      "type": "function"
    },
    {
      "inputs": [
        {
          "internalType": "address",
          "name": "addr",
          "type": "address"
        }
      ],
      "name": "getPermissions",
      "outputs": [
        {
          "internalType": "bytes2",
          "name": "perms",
          "type": "bytes2"
        }
      ],
      "stateMutability": "view",
      "type": "function"
    },
    {
      "inputs": [
        {
          "internalType": "address[]",
          "name": "permissionAddresses",
          "type": "address[]"
        },
        {
          "internalType": "bytes2[]",
          "name": "permissionValues",
          "type": "bytes2[]"
        },
        {
          "internalType": "string",
          "name": "cid",
          "type": "string"
        },
        {
          "internalType": "address",
          "name": "forwarder",
          "type": "address"
        }
      ],
      "name": "initialize",
      "outputs": [],
      "stateMutability": "nonpayable",
      "type": "function"
    },
    {
      "inputs": [
        {
          "internalType": "address",
          "name": "forwarder",
          "type": "address"
        }
      ],
      "name": "isTrustedForwarder",
      "outputs": [
        {
          "internalType": "bool",
          "name": "",
          "type": "bool"
        }
      ],
      "stateMutability": "view",
      "type": "function"
    },
    {
      "inputs": [
        {
          "internalType": "address",
          "name": "",
          "type": "address"
        },
        {
          "internalType": "address",
          "name": "",
          "type": "address"
        },
        {
          "internalType": "uint256[]",
          "name": "",
          "type": "uint256[]"
        },
        {
          "internalType": "uint256[]",
          "name": "",
          "type": "uint256[]"
        },
        {
          "internalType": "bytes",
          "name": "",
          "type": "bytes"
        }
      ],
      "name": "onERC1155BatchReceived",
      "outputs": [
        {
          "internalType": "bytes4",
          "name": "",
          "type": "bytes4"
        }
      ],
      "stateMutability": "nonpayable",
      "type": "function"
    },
    {
      "inputs": [
        {
          "internalType": "address",
          "name": "",
          "type": "address"
        },
        {
          "internalType": "address",
          "name": "",
          "type": "address"
        },
        {
          "internalType": "uint256",
          "name": "",
          "type": "uint256"
        },
        {
          "internalType": "uint256",
          "name": "",
          "type": "uint256"
        },
        {
          "internalType": "bytes",
          "name": "",
          "type": "bytes"
        }
      ],
      "name": "onERC1155Received",
      "outputs": [
        {
          "internalType": "bytes4",
          "name": "",
          "type": "bytes4"
        }
      ],
      "stateMutability": "nonpayable",
      "type": "function"
    },
    {
      "inputs": [
        {
          "internalType": "address",
          "name": "operator",
          "type": "address"
        },
        {
          "internalType": "address",
          "name": "from",
          "type": "address"
        },
        {
          "internalType": "uint256",
          "name": "tokenId",
          "type": "uint256"
        },
        {
          "internalType": "bytes",
          "name": "",
          "type": "bytes"
        }
      ],
      "name": "onERC721Received",
      "outputs": [
        {
          "internalType": "bytes4",
          "name": "",
          "type": "bytes4"
        }
      ],
      "stateMutability": "nonpayable",
      "type": "function"
    },
    {
      "inputs": [
        {
          "internalType": "uint256[]",
          "name": "indexes",
          "type": "uint256[]"
        }
      ],
      "name": "removeEntries",
      "outputs": [],
      "stateMutability": "nonpayable",
      "type": "function"
    },
    {
      "inputs": [
        {
          "internalType": "address",
          "name": "permissionAddress",
          "type": "address"
        }
      ],
      "name": "removePermission",
      "outputs": [],
      "stateMutability": "nonpayable",
      "type": "function"
    },
    {
      "inputs": [
        {
          "internalType": "uint256",
          "name": "index",
          "type": "uint256"
        },
        {
          "components": [
            {
              "internalType": "address",
              "name": "addr",
              "type": "address"
            },
            {
              "internalType": "string",
              "name": "cid",
              "type": "string"
            }
          ],
          "internalType": "struct CoreLibrary.Entry",
          "name": "entry",
          "type": "tuple"
        }
      ],
      "name": "replaceEntry",
      "outputs": [],
      "stateMutability": "nonpayable",
      "type": "function"
    },
    {
      "inputs": [
        {
          "internalType": "address",
          "name": "oldPermissionAddress",
          "type": "address"
        },
        {
          "internalType": "address",
          "name": "newPermissionAddress",
          "type": "address"
        },
        {
          "internalType": "bytes2",
          "name": "newPermissionValue",
          "type": "bytes2"
        }
      ],
      "name": "replacePermission",
      "outputs": [],
      "stateMutability": "nonpayable",
      "type": "function"
    },
    {
      "inputs": [
        {
          "internalType": "bytes4",
          "name": "interfaceId",
          "type": "bytes4"
        }
      ],
      "name": "supportsInterface",
      "outputs": [
        {
          "internalType": "bool",
          "name": "",
          "type": "bool"
        }
      ],
      "stateMutability": "view",
      "type": "function"
    },
    {
      "inputs": [
        {
          "internalType": "address",
          "name": "operator",
          "type": "address"
        },
        {
          "internalType": "address",
          "name": "from",
          "type": "address"
        },
        {
          "internalType": "address",
          "name": "to",
          "type": "address"
        },
        {
          "internalType": "uint256",
          "name": "amount",
          "type": "uint256"
        },
        {
          "internalType": "bytes",
          "name": "",
          "type": "bytes"
        },
        {
          "internalType": "bytes",
          "name": "",
          "type": "bytes"
        }
      ],
      "name": "tokensReceived",
      "outputs": [],
      "stateMutability": "nonpayable",
      "type": "function"
    },
    {
      "inputs": [
        {
          "internalType": "address",
          "name": "operator",
          "type": "address"
        },
        {
          "internalType": "address",
          "name": "from",
          "type": "address"
        },
        {
          "internalType": "address",
          "name": "to",
          "type": "address"
        },
        {
          "internalType": "uint256",
          "name": "amount",
          "type": "uint256"
        },
        {
          "internalType": "bytes",
          "name": "",
          "type": "bytes"
        },
        {
          "internalType": "bytes",
          "name": "",
          "type": "bytes"
        }
      ],
      "name": "tokensToSend",
      "outputs": [],
      "stateMutability": "nonpayable",
      "type": "function"
    },
    {
      "inputs": [
        {
          "internalType": "address payable",
          "name": "to",
          "type": "address"
        },
        {
          "internalType": "uint256",
          "name": "value",
          "type": "uint256"
        }
      ],
      "name": "transfer",
      "outputs": [],
      "stateMutability": "nonpayable",
      "type": "function"
    },
    {
      "inputs": [
        {
          "internalType": "address",
          "name": "token",
          "type": "address"
        },
        {
          "internalType": "address",
          "name": "from",
          "type": "address"
        },
        {
          "internalType": "address",
          "name": "to",
          "type": "address"
        },
        {
          "internalType": "uint256",
          "name": "amount",
          "type": "uint256"
        }
      ],
      "name": "transferCoins",
      "outputs": [],
      "stateMutability": "nonpayable",
      "type": "function"
    },
    {
      "inputs": [
        {
          "internalType": "address",
          "name": "token",
          "type": "address"
        },
        {
          "internalType": "address",
          "name": "from",
          "type": "address"
        },
        {
          "internalType": "address",
          "name": "to",
          "type": "address"
        },
        {
          "internalType": "uint256",
          "name": "tokenId",
          "type": "uint256"
        }
      ],
      "name": "transferCollectible",
      "outputs": [],
      "stateMutability": "nonpayable",
      "type": "function"
    },
    {
      "inputs": [],
      "name": "trustedForwarder",
      "outputs": [
        {
          "internalType": "address",
          "name": "",
          "type": "address"
        }
      ],
      "stateMutability": "view",
      "type": "function"
    },
    {
      "inputs": [
        {
          "internalType": "string",
          "name": "cid",
          "type": "string"
        }
      ],
      "name": "updateCid",
      "outputs": [],
      "stateMutability": "nonpayable",
      "type": "function"
    },
    {
      "stateMutability": "payable",
      "type": "receive"
    }
  ],
  "bytecode": "0x608060405234801561001057600080fd5b5061001961001e565b6100d0565b7ff0c57e16840df040f15088dc2f81fe391c3923bec73e23a9662efc9c229c6a00805468010000000000000000900460ff161561006e5760405163f92ee8a960e01b815260040160405180910390fd5b80546001600160401b03908116146100cd5780546001600160401b0319166001600160401b0390811782556040519081527fc7f505b2f371ae2175ee4913f4499e1f2633a7b5936321eed1cdaeb6115181d29060200160405180910390a15b50565b611ebb806100df6000396000f3fe60806040526004361061011e5760003560e01c806223de29146101b057806301ffc9a7146101d0578063150b7a0214610205578063160a79251461023e5780632f2bf18e14610290578063572b6c05146102d4578063685b3cb5146102f457806375ab97821461031a5780637615eb811461033a5780637da0a8771461035a5780639d2018bf14610382578063a9059cbb146103a2578063bae78d7b146103c2578063bc197c81146103ef578063bdb3e1c41461041b578063c969a43a1461043b578063d610b5701461045b578063dbf67b8214610488578063dcf48963146104a8578063e074bb47146104c8578063f03f542b146104e8578063f23a6e6114610508578063f49b584814610534578063ffb5e2761461055457600080fd5b366101ab5773__$eade74fbb29c82369931f57fe28cd62d78$__63dd67b85660013461014861059c565b6040516001600160e01b031960e086901b168152600481019390935260248301919091526001600160a01b0316604482015260640160006040518083038186803b15801561019557600080fd5b505af41580156101a9573d6000803e3d6000fd5b005b600080fd5b3480156101bc57600080fd5b506101a96101cb366004611192565b6105e4565b3480156101dc57600080fd5b506101f06101eb366004611242565b61065e565b60405190151581526020015b60405180910390f35b34801561021157600080fd5b50610225610220366004611328565b610700565b6040516001600160e01b031990911681526020016101fc565b34801561024a57600080fd5b50610277610259366004611393565b6001600160a01b031660009081526006602052604090205460f01b90565b6040516001600160f01b031990911681526020016101fc565b34801561029c57600080fd5b506102c66102ab366004611393565b6001600160a01b031660009081526007602052604090205490565b6040519081526020016101fc565b3480156102e057600080fd5b506101f06102ef366004611393565b610795565b34801561030057600080fd5b506103096107a9565b6040516101fc9594939291906113f6565b34801561032657600080fd5b506101a9610335366004611192565b6108d8565b34801561034657600080fd5b506101a96103553660046114c5565b610918565b34801561036657600080fd5b506000546040516001600160a01b0390911681526020016101fc565b34801561038e57600080fd5b506101a961039d366004611517565b61098e565b3480156103ae57600080fd5b506101a96103bd366004611550565b610a40565b3480156103ce57600080fd5b506103e26103dd36600461157c565b610ad8565b6040516101fc9190611595565b3480156103fb57600080fd5b5061022561040a3660046115c2565b63bc197c8160e01b95945050505050565b34801561042757600080fd5b506101a961043636600461166f565b610c1e565b34801561044757600080fd5b506101a96104563660046116c0565b610c94565b34801561046757600080fd5b5061047b610476366004611784565b610d3c565b6040516101fc9190611834565b34801561049457600080fd5b506101a96104a33660046118dc565b610dc6565b3480156104b457600080fd5b506101a96104c33660046119d2565b610f48565b3480156104d457600080fd5b506101a96104e3366004611393565b610f8d565b3480156104f457600080fd5b506101a9610503366004611a18565b610fec565b34801561051457600080fd5b50610225610523366004611a59565b63f23a6e6160e01b95945050505050565b34801561054057600080fd5b506101a961054f36600461166f565b611031565b34801561056057600080fd5b5061057461056f36600461157c565b611071565b604080516001600160a01b0390931683526001600160f01b03199091166020830152016101fc565b60003660148082108015906105b557506105b533610795565b156105dc576105c936828403816000611ac1565b6105d291611aeb565b60601c9250505090565b339250505090565b604051632c2f5d2960e21b815273__$eade74fbb29c82369931f57fe28cd62d78$__9063b0bd74a490610624906001908c908c908c908c90600401611b1b565b60006040518083038186803b15801561063c57600080fd5b505af4158015610650573d6000803e3d6000fd5b505050505050505050505050565b60006001600160e01b031982166223de2960e01b148061068e57506001600160e01b03198216633ad5cbc160e11b145b806106a957506001600160e01b03198216630a85bd0160e11b145b806106c457506001600160e01b03198216630271189760e51b145b806106df57506001600160e01b03198216637b96927560e11b145b806106fa57506301ffc9a760e01b6001600160e01b03198316145b92915050565b604051634545992d60e11b8152600160048201526001600160a01b038086166024830152841660448201526064810183905260009073__$eade74fbb29c82369931f57fe28cd62d78$__90638a8b325a9060840160006040518083038186803b15801561076c57600080fd5b505af4158015610780573d6000803e3d6000fd5b50630a85bd0160e11b98975050505050505050565b6000546001600160a01b0391821691161490565b604051631f0de07d60e31b815260016004820181905260609160009182918291829173__$eade74fbb29c82369931f57fe28cd62d78$__9063f86f03e890602401602060405180830381865af4158015610807573d6000803e3d6000fd5b505050506040513d601f19601f8201168201806040525081019061082b9190611b49565b6002546003548354637b96927560e11b90859061084790611b62565b80601f016020809104026020016040519081016040528092919081815260200182805461087390611b62565b80156108c05780601f10610895576101008083540402835291602001916108c0565b820191906000526020600020905b8154815290600101906020018083116108a357829003601f168201915b50505050509450945094509450945094509091929394565b604051630e7551c560e11b815273__$eade74fbb29c82369931f57fe28cd62d78$__90631ceaa38a90610624906001908c908c908c908c90600401611b1b565b73__$eade74fbb29c82369931f57fe28cd62d78$__63c930381460018361093d61059c565b6040518463ffffffff1660e01b815260040161095b93929190611b9c565b60006040518083038186803b15801561097357600080fd5b505af4158015610987573d6000803e3d6000fd5b5050505050565b73__$eade74fbb29c82369931f57fe28cd62d78$__6386cfbc37600184846109b461059c565b6040516001600160e01b031960e087901b16815260048101949094526001600160a01b0392831660248501526001600160f01b03199091166044840152166064820152608401602060405180830381865af4158015610a17573d6000803e3d6000fd5b505050506040513d601f19601f82011682018060405250810190610a3b9190611b49565b505050565b73__$eade74fbb29c82369931f57fe28cd62d78$__634bc01d1260018484610a6661059c565b6040516001600160e01b031960e087901b16815260048101949094526001600160a01b03928316602485015260448401919091521660648201526084015b60006040518083038186803b158015610abc57600080fd5b505af4158015610ad0573d6000803e3d6000fd5b505050505050565b60408051808201825260008152606060208201529051635935285960e01b8152600160048201526024810183905273__$eade74fbb29c82369931f57fe28cd62d78$__90635935285990604401602060405180830381865af4158015610b42573d6000803e3d6000fd5b505050506040513d601f19601f82011682018060405250810190610b669190611b49565b6040805180820190915281546001600160a01b03168152600182018054919291602084019190610b9590611b62565b80601f0160208091040260200160405190810160405280929190818152602001828054610bc190611b62565b8015610c0e5780601f10610be357610100808354040283529160200191610c0e565b820191906000526020600020905b815481529060010190602001808311610bf157829003601f168201915b5050505050815250509050919050565b6040516350be2a0d60e01b815273__$eade74fbb29c82369931f57fe28cd62d78$__906350be2a0d90610c5e906001908890889088908890600401611b1b565b60006040518083038186803b158015610c7657600080fd5b505af4158015610c8a573d6000803e3d6000fd5b5050505050505050565b73__$eade74fbb29c82369931f57fe28cd62d78$__63e382527f6001858585610cbb61059c565b6040516001600160e01b031960e088901b16815260048101959095526001600160a01b03938416602486015291831660448501526001600160f01b031916606484015216608482015260a40160006040518083038186803b158015610d1f57600080fd5b505af4158015610d33573d6000803e3d6000fd5b50505050505050565b606073__$eade74fbb29c82369931f57fe28cd62d78$__63bfbb1b1f600184610d6361059c565b6040518463ffffffff1660e01b8152600401610d8193929190611c26565b600060405180830381865af4158015610d9e573d6000803e3d6000fd5b505050506040513d6000823e601f3d908101601f191682016040526106fa9190810190611ca4565b6000610dd06110f9565b805490915060ff600160401b82041615906001600160401b0316600081158015610df75750825b90506000826001600160401b03166001148015610e135750303b155b905081158015610e21575080155b15610e3f5760405163f92ee8a960e01b815260040160405180910390fd5b84546001600160401b03191660011785558315610e6857845460ff60401b1916600160401b1785555b604051636fb2820360e01b815273__$eade74fbb29c82369931f57fe28cd62d78$__90636fb2820390610ea6906001908d908d908d90600401611d34565b60006040518083038186803b158015610ebe57600080fd5b505af4158015610ed2573d6000803e3d6000fd5b5050600080546001600160a01b0319166001600160a01b038a1617905550610ef79050565b8315610f3d57845460ff60401b19168555604051600181527fc7f505b2f371ae2175ee4913f4499e1f2633a7b5936321eed1cdaeb6115181d29060200160405180910390a15b505050505050505050565b73__$eade74fbb29c82369931f57fe28cd62d78$__6392023c4760018484610f6e61059c565b6040518563ffffffff1660e01b8152600401610aa49493929190611dd5565b73__$eade74fbb29c82369931f57fe28cd62d78$__63110ee176600183610fb261059c565b6040516001600160e01b031960e086901b16815260048101939093526001600160a01b03918216602484015216604482015260640161095b565b73__$eade74fbb29c82369931f57fe28cd62d78$__634227d1746001848461101261059c565b6040518563ffffffff1660e01b8152600401610aa49493929190611e0d565b604051630e7551c560e11b815273__$eade74fbb29c82369931f57fe28cd62d78$__90631ceaa38a90610c5e906001908890889088908890600401611b1b565b604051630806feeb60e01b81526001600482015260248101829052600090819073__$eade74fbb29c82369931f57fe28cd62d78$__90630806feeb906044016040805180830381865af41580156110cc573d6000803e3d6000fd5b505050506040513d601f19601f820116820180604052508101906110f09190611e56565b91509150915091565b6000807ff0c57e16840df040f15088dc2f81fe391c3923bec73e23a9662efc9c229c6a006106fa565b6001600160a01b038116811461113757600080fd5b50565b803561114581611122565b919050565b60008083601f84011261115c57600080fd5b5081356001600160401b0381111561117357600080fd5b60208301915083602082850101111561118b57600080fd5b9250929050565b60008060008060008060008060c0898b0312156111ae57600080fd5b88356111b981611122565b975060208901356111c981611122565b965060408901356111d981611122565b95506060890135945060808901356001600160401b03808211156111fc57600080fd5b6112088c838d0161114a565b909650945060a08b013591508082111561122157600080fd5b5061122e8b828c0161114a565b999c989b5096995094979396929594505050565b60006020828403121561125457600080fd5b81356001600160e01b03198116811461126c57600080fd5b9392505050565b634e487b7160e01b600052604160045260246000fd5b604051601f8201601f191681016001600160401b03811182821017156112b1576112b1611273565b604052919050565b600082601f8301126112ca57600080fd5b81356001600160401b038111156112e3576112e3611273565b6112f6601f8201601f1916602001611289565b81815284602083860101111561130b57600080fd5b816020850160208301376000918101602001919091529392505050565b6000806000806080858703121561133e57600080fd5b843561134981611122565b9350602085013561135981611122565b92506040850135915060608501356001600160401b0381111561137b57600080fd5b611387878288016112b9565b91505092959194509250565b6000602082840312156113a557600080fd5b813561126c81611122565b6000815180845260005b818110156113d6576020818501810151868301820152016113ba565b506000602082860101526020601f19601f83011685010191505092915050565b60a08152600061140960a08301886113b0565b602083019690965250604081019390935260608301919091526001600160e01b031916608090910152919050565b60006001600160401b0382111561145057611450611273565b5060051b60200190565b600082601f83011261146b57600080fd5b8135602061148061147b83611437565b611289565b82815260059290921b8401810191818101908684111561149f57600080fd5b8286015b848110156114ba57803583529183019183016114a3565b509695505050505050565b6000602082840312156114d757600080fd5b81356001600160401b038111156114ed57600080fd5b6114f98482850161145a565b949350505050565b6001600160f01b03198116811461113757600080fd5b6000806040838503121561152a57600080fd5b823561153581611122565b9150602083013561154581611501565b809150509250929050565b6000806040838503121561156357600080fd5b823561156e81611122565b946020939093013593505050565b60006020828403121561158e57600080fd5b5035919050565b602080825282516001600160a01b0316828201528201516040808301526000906114f960608401826113b0565b600080600080600060a086880312156115da57600080fd5b85356115e581611122565b945060208601356115f581611122565b935060408601356001600160401b038082111561161157600080fd5b61161d89838a0161145a565b9450606088013591508082111561163357600080fd5b61163f89838a0161145a565b9350608088013591508082111561165557600080fd5b50611662888289016112b9565b9150509295509295909350565b6000806000806080858703121561168557600080fd5b843561169081611122565b935060208501356116a081611122565b925060408501356116b081611122565b9396929550929360600135925050565b6000806000606084860312156116d557600080fd5b83356116e081611122565b925060208401356116f081611122565b9150604084013561170081611501565b809150509250925092565b60006040828403121561171d57600080fd5b604080519081016001600160401b03808211838310171561174057611740611273565b816040528293508435915061175482611122565b9082526020840135908082111561176a57600080fd5b50611777858286016112b9565b6020830152505092915050565b6000602080838503121561179757600080fd5b82356001600160401b03808211156117ae57600080fd5b818501915085601f8301126117c257600080fd5b81356117d061147b82611437565b81815260059190911b830184019084810190888311156117ef57600080fd5b8585015b838110156118275780358581111561180b5760008081fd5b6118198b89838a010161170b565b8452509186019186016117f3565b5098975050505050505050565b6020808252825182820181905260009190848201906040850190845b8181101561186c57835183529284019291840191600101611850565b50909695505050505050565b600082601f83011261188957600080fd5b8135602061189961147b83611437565b82815260059290921b840181019181810190868411156118b857600080fd5b8286015b848110156114ba5780356118cf81611501565b83529183019183016118bc565b600080600080608085870312156118f257600080fd5b84356001600160401b038082111561190957600080fd5b818701915087601f83011261191d57600080fd5b8135602061192d61147b83611437565b82815260059290921b8401810191818101908b84111561194c57600080fd5b948201945b8386101561197357853561196481611122565b82529482019490820190611951565b9850508801359250508082111561198957600080fd5b61199588838901611878565b945060408701359150808211156119ab57600080fd5b506119b8878288016112b9565b9250506119c76060860161113a565b905092959194509250565b600080604083850312156119e557600080fd5b8235915060208301356001600160401b03811115611a0257600080fd5b611a0e8582860161170b565b9150509250929050565b60008060208385031215611a2b57600080fd5b82356001600160401b03811115611a4157600080fd5b611a4d8582860161114a565b90969095509350505050565b600080600080600060a08688031215611a7157600080fd5b8535611a7c81611122565b94506020860135611a8c81611122565b9350604086013592506060860135915060808601356001600160401b03811115611ab557600080fd5b611662888289016112b9565b60008085851115611ad157600080fd5b83861115611ade57600080fd5b5050820193919092039150565b6001600160601b03198135818116916014851015611b135780818660140360031b1b83161692505b505092915050565b9485526001600160a01b03938416602086015291831660408501529091166060830152608082015260a00190565b600060208284031215611b5b57600080fd5b5051919050565b600181811c90821680611b7657607f821691505b602082108103611b9657634e487b7160e01b600052602260045260246000fd5b50919050565b6000606082018583526020606081850152818651808452608086019150828801935060005b81811015611bdd57845183529383019391830191600101611bc1565b50506001600160a01b0395909516604094909401939093525091949350505050565b60018060a01b03815116825260006020820151604060208501526114f960408501826113b0565b600060608201858352602060608185015281865180845260808601915060808160051b870101935082880160005b82811015611c8257607f19888703018452611c70868351611bff565b95509284019290840190600101611c54565b505050506001600160a01b039490941660409390930192909252509392505050565b60006020808385031215611cb757600080fd5b82516001600160401b03811115611ccd57600080fd5b8301601f81018513611cde57600080fd5b8051611cec61147b82611437565b81815260059190911b82018301908381019087831115611d0b57600080fd5b928401925b82841015611d2957835182529284019290840190611d10565b979650505050505050565b600060808201868352602060808185015281875180845260a086019150828901935060005b81811015611d7e5784516001600160a01b031683529383019391830191600101611d59565b50508481036040860152865180825290820192508187019060005b81811015611dbf5782516001600160f01b03191685529383019391830191600101611d99565b505050508281036060840152611d2981856113b0565b848152836020820152608060408201526000611df46080830185611bff565b905060018060a01b038316606083015295945050505050565b848152606060208201528260608201528284608083013760008184016080908101919091526001600160a01b03929092166040820152601f909201601f19169091010192915050565b60008060408385031215611e6957600080fd5b8251611e7481611122565b60208401519092506115458161150156fea2646970667358221220c8993223237f4a008c1aeb2cf963a0cdcd261c66dd6443252ea910522c2c58a564736f6c63430008140033",
  "linkReferences": {
    "contracts/libraries/OrganLibrary.sol": {
      "OrganLibrary": [
        {
          "length": 20,
          "start": 516
        },
        {
          "length": 20,
          "start": 1746
        },
        {
          "length": 20,
          "start": 2070
        },
        {
          "length": 20,
          "start": 2220
        },
        {
          "length": 20,
          "start": 2502
        },
        {
          "length": 20,
          "start": 2553
        },
        {
          "length": 20,
          "start": 2671
        },
        {
          "length": 20,
          "start": 2849
        },
        {
          "length": 20,
          "start": 3047
        },
        {
          "length": 20,
          "start": 3340
        },
        {
          "length": 20,
          "start": 3445
        },
        {
          "length": 20,
          "start": 3615
        },
        {
          "length": 20,
          "start": 3926
        },
        {
          "length": 20,
          "start": 4137
        },
        {
          "length": 20,
          "start": 4206
        },
        {
          "length": 20,
          "start": 4301
        },
        {
          "length": 20,
          "start": 4383
        },
        {
          "length": 20,
          "start": 4466
        }
      ]
    }
  },
  "deployedLinkReferences": {
    "contracts/libraries/OrganLibrary.sol": {
      "OrganLibrary": [
        {
          "length": 20,
          "start": 293
        },
        {
          "length": 20,
          "start": 1523
        },
        {
          "length": 20,
          "start": 1847
        },
        {
          "length": 20,
          "start": 1997
        },
        {
          "length": 20,
          "start": 2279
        },
        {
          "length": 20,
          "start": 2330
        },
        {
          "length": 20,
          "start": 2448
        },
        {
          "length": 20,
          "start": 2626
        },
        {
          "length": 20,
          "start": 2824
        },
        {
          "length": 20,
          "start": 3117
        },
        {
          "length": 20,
          "start": 3222
        },
        {
          "length": 20,
          "start": 3392
        },
        {
          "length": 20,
          "start": 3703
        },
        {
          "length": 20,
          "start": 3914
        },
        {
          "length": 20,
          "start": 3983
        },
        {
          "length": 20,
          "start": 4078
        },
        {
          "length": 20,
          "start": 4160
        },
        {
          "length": 20,
          "start": 4243
        }
      ]
    }
  }
}