{
  "_format": "hh-sol-artifact-1",
  "contractName": "OrganigramClient",
  "sourceName": "contracts/OrganigramClient.sol",
  "abi": [
    {
      "inputs": [
        {
          "internalType": "string",
          "name": "cid",
          "type": "string"
        },
        {
          "internalType": "address",
          "name": "trustedForwarder",
          "type": "address"
        },
        {
          "internalType": "bytes32",
          "name": "salt",
          "type": "bytes32"
        }
      ],
      "stateMutability": "nonpayable",
      "type": "constructor"
    },
    {
      "inputs": [
        {
          "internalType": "address",
          "name": "target",
          "type": "address"
        }
      ],
      "name": "AddressEmptyCode",
      "type": "error"
    },
    {
      "inputs": [],
      "name": "FailedCall",
      "type": "error"
    },
    {
      "inputs": [],
      "name": "FailedDeployment",
      "type": "error"
    },
    {
      "inputs": [
        {
          "internalType": "uint256",
          "name": "balance",
          "type": "uint256"
        },
        {
          "internalType": "uint256",
          "name": "needed",
          "type": "uint256"
        }
      ],
      "name": "InsufficientBalance",
      "type": "error"
    },
    {
      "anonymous": false,
      "inputs": [
        {
          "indexed": false,
          "internalType": "address payable",
          "name": "organ",
          "type": "address"
        }
      ],
      "name": "organCreated",
      "type": "event"
    },
    {
      "anonymous": false,
      "inputs": [
        {
          "indexed": false,
          "internalType": "address payable",
          "name": "procedureType",
          "type": "address"
        },
        {
          "indexed": false,
          "internalType": "address payable",
          "name": "procedure",
          "type": "address"
        }
      ],
      "name": "procedureCreated",
      "type": "event"
    },
    {
      "inputs": [
        {
          "internalType": "string",
          "name": "name",
          "type": "string"
        },
        {
          "internalType": "string",
          "name": "symbol",
          "type": "string"
        },
        {
          "internalType": "uint256",
          "name": "initialSupply",
          "type": "uint256"
        },
        {
          "internalType": "bytes32",
          "name": "salt",
          "type": "bytes32"
        }
      ],
      "name": "createAsset",
      "outputs": [
        {
          "internalType": "address payable",
          "name": "clone",
          "type": "address"
        }
      ],
      "stateMutability": "nonpayable",
      "type": "function"
    },
    {
      "inputs": [
        {
          "components": [
            {
              "internalType": "string",
              "name": "name",
              "type": "string"
            },
            {
              "internalType": "string",
              "name": "symbol",
              "type": "string"
            },
            {
              "internalType": "uint256",
              "name": "initialSupply",
              "type": "uint256"
            },
            {
              "internalType": "bytes32",
              "name": "salt",
              "type": "bytes32"
            }
          ],
          "internalType": "struct OrganigramClient.CreateAssetArgs[]",
          "name": "batch",
          "type": "tuple[]"
        }
      ],
      "name": "createAssets",
      "outputs": [
        {
          "internalType": "address payable[]",
          "name": "clones",
          "type": "address[]"
        }
      ],
      "stateMutability": "nonpayable",
      "type": "function"
    },
    {
      "inputs": [
        {
          "internalType": "address[]",
          "name": "_procedures",
          "type": "address[]"
        },
        {
          "internalType": "bytes2[]",
          "name": "_permissions",
          "type": "bytes2[]"
        },
        {
          "internalType": "string",
          "name": "cid",
          "type": "string"
        },
        {
          "internalType": "bytes32",
          "name": "salt",
          "type": "bytes32"
        }
      ],
      "name": "createOrgan",
      "outputs": [
        {
          "internalType": "address payable",
          "name": "clone",
          "type": "address"
        }
      ],
      "stateMutability": "nonpayable",
      "type": "function"
    },
    {
      "inputs": [
        {
          "components": [
            {
              "internalType": "address[]",
              "name": "procedures",
              "type": "address[]"
            },
            {
              "internalType": "bytes2[]",
              "name": "permissions",
              "type": "bytes2[]"
            },
            {
              "internalType": "string",
              "name": "cid",
              "type": "string"
            },
            {
              "internalType": "bytes32",
              "name": "salt",
              "type": "bytes32"
            }
          ],
          "internalType": "struct OrganigramClient.CreateOrganArgs[]",
          "name": "batch",
          "type": "tuple[]"
        }
      ],
      "name": "createOrgans",
      "outputs": [
        {
          "internalType": "address payable[]",
          "name": "clones",
          "type": "address[]"
        }
      ],
      "stateMutability": "nonpayable",
      "type": "function"
    },
    {
      "inputs": [
        {
          "internalType": "address payable",
          "name": "procedureType",
          "type": "address"
        },
        {
          "internalType": "bytes",
          "name": "data",
          "type": "bytes"
        },
        {
          "internalType": "bytes32",
          "name": "salt",
          "type": "bytes32"
        }
      ],
      "name": "createProcedure",
      "outputs": [
        {
          "internalType": "address payable",
          "name": "procedure",
          "type": "address"
        }
      ],
      "stateMutability": "nonpayable",
      "type": "function"
    },
    {
      "inputs": [
        {
          "components": [
            {
              "internalType": "address payable",
              "name": "procedureType",
              "type": "address"
            },
            {
              "internalType": "bytes",
              "name": "data",
              "type": "bytes"
            },
            {
              "internalType": "bytes32",
              "name": "salt",
              "type": "bytes32"
            }
          ],
          "internalType": "struct OrganigramClient.CreateProcedureArgs[]",
          "name": "batch",
          "type": "tuple[]"
        }
      ],
      "name": "createProcedures",
      "outputs": [
        {
          "internalType": "address payable[]",
          "name": "created",
          "type": "address[]"
        }
      ],
      "stateMutability": "nonpayable",
      "type": "function"
    },
    {
      "inputs": [
        {
          "components": [
            {
              "internalType": "address[]",
              "name": "procedures",
              "type": "address[]"
            },
            {
              "internalType": "bytes2[]",
              "name": "permissions",
              "type": "bytes2[]"
            },
            {
              "internalType": "string",
              "name": "cid",
              "type": "string"
            },
            {
              "internalType": "bytes32",
              "name": "salt",
              "type": "bytes32"
            }
          ],
          "internalType": "struct OrganigramClient.CreateOrganArgs[]",
          "name": "organBatch",
          "type": "tuple[]"
        },
        {
          "components": [
            {
              "internalType": "string",
              "name": "name",
              "type": "string"
            },
            {
              "internalType": "string",
              "name": "symbol",
              "type": "string"
            },
            {
              "internalType": "uint256",
              "name": "initialSupply",
              "type": "uint256"
            },
            {
              "internalType": "bytes32",
              "name": "salt",
              "type": "bytes32"
            }
          ],
          "internalType": "struct OrganigramClient.CreateAssetArgs[]",
          "name": "assetBatch",
          "type": "tuple[]"
        },
        {
          "components": [
            {
              "internalType": "address payable",
              "name": "procedureType",
              "type": "address"
            },
            {
              "internalType": "bytes",
              "name": "data",
              "type": "bytes"
            },
            {
              "internalType": "bytes32",
              "name": "salt",
              "type": "bytes32"
            }
          ],
          "internalType": "struct OrganigramClient.CreateProcedureArgs[]",
          "name": "procedureBatch",
          "type": "tuple[]"
        }
      ],
      "name": "deployOrganigram",
      "outputs": [
        {
          "internalType": "address payable[]",
          "name": "organsCreated",
          "type": "address[]"
        },
        {
          "internalType": "address payable[]",
          "name": "assetsCreated",
          "type": "address[]"
        },
        {
          "internalType": "address payable[]",
          "name": "proceduresCreated",
          "type": "address[]"
        }
      ],
      "stateMutability": "nonpayable",
      "type": "function"
    },
    {
      "inputs": [
        {
          "internalType": "address",
          "name": "forwarder",
          "type": "address"
        }
      ],
      "name": "isTrustedForwarder",
      "outputs": [
        {
          "internalType": "bool",
          "name": "",
          "type": "bool"
        }
      ],
      "stateMutability": "view",
      "type": "function"
    },
    {
      "inputs": [],
      "name": "organ",
      "outputs": [
        {
          "internalType": "address payable",
          "name": "",
          "type": "address"
        }
      ],
      "stateMutability": "view",
      "type": "function"
    },
    {
      "inputs": [],
      "name": "procedures",
      "outputs": [
        {
          "internalType": "address payable",
          "name": "",
          "type": "address"
        }
      ],
      "stateMutability": "view",
      "type": "function"
    },
    {
      "inputs": [
        {
          "components": [
            {
              "internalType": "address",
              "name": "addr",
              "type": "address"
            },
            {
              "internalType": "string",
              "name": "cid",
              "type": "string"
            }
          ],
          "internalType": "struct CoreLibrary.Entry[]",
          "name": "entries",
          "type": "tuple[]"
        }
      ],
      "name": "registerProcedures",
      "outputs": [],
      "stateMutability": "nonpayable",
      "type": "function"
    },
    {
      "inputs": [],
      "name": "trustedForwarder",
      "outputs": [
        {
          "internalType": "address",
          "name": "",
          "type": "address"
        }
      ],
      "stateMutability": "view",
      "type": "function"
    }
  ],
  "bytecode": "0x60806040523480156200001157600080fd5b5060405162004df938038062004df98339810160408190526200003491620004db565b600080546001600160a01b0319166001600160a01b0384161790556040516200005d9062000474565b604051809103906000f0801580156200007a573d6000803e3d6000fd5b50600180546001600160a01b0319166001600160a01b039290921691909117815560408051828152808201909152600091602080830190803683375050604080516001808252818301909252929350600092915060208083019080368337019050509050620000e86200018d565b82600081518110620000fe57620000fe620005b1565b60200260200101906001600160a01b031690816001600160a01b03168152505061ffff60f01b816000815181106200013a576200013a620005b1565b6001600160f01b0319909216602092830291909101909101526200016182828786620001e1565b600280546001600160a01b0319166001600160a01b039290921691909117905550620007119350505050565b6000366014808210801590620001ad57506000546001600160a01b031633145b15620001d957620001c436828403816000620005c7565b620001cf91620005f3565b60601c9250505090565b339250505090565b600083518551146200022b5760405162461bcd60e51b815260206004820152600e60248201526d098cadccee8d09ad2e6dac2e8c6d60931b60448201526064015b60405180910390fd5b8451600003620002eb57604080516001808252818301909252906020808301908036833750506040805160018082528183019092529297509050602080830190803683370190505093506200027f6200018d565b85600081518110620002955762000295620005b1565b60200260200101906001600160a01b031690816001600160a01b03168152505061ffff60f01b84600081518110620002d157620002d1620005b1565b6001600160f01b0319909216602092830291909101909101525b60015462000303906001600160a01b031683620003c4565b90506001600160a01b03811663dbf67b828686866200032a6000546001600160a01b031690565b6040518563ffffffff1660e01b81526004016200034b949392919062000652565b600060405180830381600087803b1580156200036657600080fd5b505af11580156200037b573d6000803e3d6000fd5b50506040516001600160a01b03841681527fbdc35d95624895b50b28f056a8e7430069f783195ce87d981f2f0a38d6ef05d79250602001905060405180910390a1949350505050565b6000620003d3838383620003da565b9392505050565b600081471015620004085760405163cf47918160e01b81524760048201526024810183905260440162000222565b763d602d80600a3d3981f3363d3d373d3d3d363d730000008460601b60e81c176000526e5af43d82803e903d91602b57fd5bf38460781b17602052826037600984f590506001600160a01b038116620003d35760405163b06ebf3d60e01b815260040160405180910390fd5b611f968062002e6383390190565b634e487b7160e01b600052604160045260246000fd5b60005b83811015620004b55781810151838201526020016200049b565b50506000910152565b80516001600160a01b0381168114620004d657600080fd5b919050565b600080600060608486031215620004f157600080fd5b83516001600160401b03808211156200050957600080fd5b818601915086601f8301126200051e57600080fd5b81518181111562000533576200053362000482565b604051601f8201601f19908116603f011681019083821181831017156200055e576200055e62000482565b816040528281528960208487010111156200057857600080fd5b6200058b83602083016020880162000498565b8097505050505050620005a160208501620004be565b9150604084015190509250925092565b634e487b7160e01b600052603260045260246000fd5b60008085851115620005d857600080fd5b83861115620005e657600080fd5b5050820193919092039150565b6001600160601b031981358181169160148510156200061c5780818660140360031b1b83161692505b505092915050565b600081518084526200063e81602086016020860162000498565b601f01601f19169290920160200192915050565b6080808252855190820181905260009060209060a0840190828901845b82811015620006965781516001600160a01b0316845292840192908401906001016200066f565b5050508381038285015286518082528783019183019060005b81811015620006d75783516001600160f01b03191683529284019291840191600101620006af565b50508481036040860152620006ed818862000624565b93505050506200070860608301846001600160a01b03169052565b95945050505050565b61274280620007216000396000f3fe60806040523480156200001157600080fd5b5060043610620000b25760003560e01c806317c5e56214620000b75780632ca38c6914620000e85780633cab20c5146200010b578063572b6c05146200011f5780636429f23314620001475780637da0a877146200016d5780638baba4cb146200017757806394ea47eb14620001905780639d6a3ee814620001a7578063ab50966514620001be578063ea05725d14620001d5578063f7864ad514620001ec575b600080fd5b620000ce620000c836600462001365565b62000203565b604051620000df939291906200143c565b60405180910390f35b600254620000fc906001600160a01b031681565b604051620000df91906200147b565b600154620000fc906001600160a01b031681565b62000136620001303660046200148f565b62000238565b6040519015158152602001620000df565b6200015e62000158366004620014af565b6200024c565b604051620000df9190620014ef565b620000fc62000359565b6200018e6200018836600462001504565b62000368565b005b6200015e620001a13660046200160d565b620004a7565b620000fc620001b836600462001645565b620005cf565b620000fc620001cf366004620016de565b62000790565b620000fc620001e63660046200173c565b62000912565b6200015e620001fd366004620017b6565b62000993565b6060806060620002138662000993565b92506200022085620004a7565b91506200022d846200024c565b905093509350939050565b6000546001600160a01b0391821691161490565b606081516001600160401b038111156200026a576200026a62000ded565b60405190808252806020026020018201604052801562000294578160200160208202803683370190505b50905060005b8251811015620003535762000311838281518110620002bd57620002bd620017ee565b602002602001015160000151848381518110620002de57620002de620017ee565b602002602001015160200151858481518110620002ff57620002ff620017ee565b60200260200101516040015162000790565b828281518110620003265762000326620017ee565b6001600160a01b0390921660209283029190910190910152806200034a8162001804565b9150506200029a565b50919050565b6000546001600160a01b031690565b60005b81518110156200042657620003a88282815181106200038e576200038e620017ee565b6020026020010151600001516371dbd33060e01b62000abb565b620004135760405162461bcd60e51b815260206004820152603060248201527f416e20656e74727920696e20706172616d6574657273206973206e6f7420612060448201526f3b30b634b210383937b1b2b23ab9329760811b60648201526084015b60405180910390fd5b6200041e8162001804565b90506200036b565b50600154604051630d610b5760e41b81526001600160a01b039091169063d610b570906200045990849060040162001880565b6000604051808303816000875af115801562000479573d6000803e3d6000fd5b505050506040513d6000823e601f3d908101601f19168201604052620004a3919081019062001901565b5050565b606081516001600160401b03811115620004c557620004c562000ded565b604051908082528060200260200182016040528015620004ef578160200160208202803683370190505b50905060005b825181101562000353576200058d838281518110620005185762000518620017ee565b602002602001015160000151848381518110620005395762000539620017ee565b6020026020010151602001518584815181106200055a576200055a620017ee565b6020026020010151604001518685815181106200057b576200057b620017ee565b60200260200101516060015162000912565b828281518110620005a257620005a2620017ee565b6001600160a01b039092166020928302919091019091015280620005c68162001804565b915050620004f5565b60008351855114620006155760405162461bcd60e51b815260206004820152600e60248201526d098cadccee8d09ad2e6dac2e8c6d60931b60448201526064016200040a565b8451600003620006d557604080516001808252818301909252906020808301908036833750506040805160018082528183019092529297509050602080830190803683370190505093506200066962000adc565b856000815181106200067f576200067f620017ee565b60200260200101906001600160a01b031690816001600160a01b03168152505061ffff60f01b84600081518110620006bb57620006bb620017ee565b6001600160f01b0319909216602092830291909101909101525b600154620006ed906001600160a01b03168362000b2c565b9050806001600160a01b031663dbf67b828686866200070b62000359565b6040518563ffffffff1660e01b81526004016200072c94939291906200198f565b600060405180830381600087803b1580156200074757600080fd5b505af11580156200075c573d6000803e3d6000fd5b50505050600080516020620026ed833981519152816040516200078091906200147b565b60405180910390a1949350505050565b6000620007a58463071dbd3360e41b62000abb565b620007e65760405162461bcd60e51b815260206004820152601060248201526f2737ba103090383937b1b2b23ab9329760811b60448201526064016200040a565b600254604051631795f8c760e11b81526000916001600160a01b031690632f2bf18e90620008199088906004016200147b565b602060405180830381865afa15801562000837573d6000803e3d6000fd5b505050506040513d601f19601f820116820180604052508101906200085d919062001a4e565b11620008a35760405162461bcd60e51b8152602060048201526014602482015273283937b1b2b23ab932903737ba103337bab7321760611b60448201526064016200040a565b620008af848362000b2c565b604080516001600160a01b038088168252831660208201529192507f5f60683fdfc7d4b0c5533010d4113438b4e5400730348133ffba191c00a8e35f910160405180910390a18251156200090b5762000909818462000b3c565b505b9392505050565b600080858585604051620009269062000ddf565b620009349392919062001a68565b604051809103906000f08015801562000951573d6000803e3d6000fd5b50905062000960818462000b2c565b9150600080516020620026ed833981519152826040516200098291906200147b565b60405180910390a150949350505050565b606081516001600160401b03811115620009b157620009b162000ded565b604051908082528060200260200182016040528015620009db578160200160208202803683370190505b50905060005b8251811015620003535762000a7983828151811062000a045762000a04620017ee565b60200260200101516000015184838151811062000a255762000a25620017ee565b60200260200101516020015185848151811062000a465762000a46620017ee565b60200260200101516040015186858151811062000a675762000a67620017ee565b602002602001015160600151620005cf565b82828151811062000a8e5762000a8e620017ee565b6001600160a01b03909216602092830291909101909101528062000ab28162001804565b915050620009e1565b600062000ac88362000b4c565b80156200090b57506200090b838362000b85565b600036601480821080159062000af8575062000af83362000238565b1562000b245762000b0f3682840381600062001aa2565b62000b1a9162001ace565b60601c9250505090565b339250505090565b60006200090b8383600062000c11565b60606200090b8383600062000cab565b600062000b61826301ffc9a760e01b62000b85565b801562000b7f575062000b7d826001600160e01b031962000b85565b155b92915050565b6040516001600160e01b031982166024820152600090819060440160408051601f19818403018152919052602080820180516001600160e01b03166301ffc9a760e01b178152825192935060009283928392909183918a617530fa92503d9150600051905082801562000bf9575060208210155b801562000c065750600081115b979650505050505050565b60008147101562000c3f5760405163cf47918160e01b8152476004820152602481018390526044016200040a565b763d602d80600a3d3981f3363d3d373d3d3d363d730000008460601b60e81c176000526e5af43d82803e903d91602b57fd5bf38460781b17602052826037600984f590506001600160a01b0381166200090b5760405163b06ebf3d60e01b815260040160405180910390fd5b60608147101562000cd95760405163cf47918160e01b8152476004820152602481018390526044016200040a565b600080856001600160a01b0316848660405162000cf7919062001aff565b60006040518083038185875af1925050503d806000811462000d36576040519150601f19603f3d011682016040523d82523d6000602084013e62000d3b565b606091505b509150915062000d4d86838362000d57565b9695505050505050565b60608262000d705762000d6a8262000db3565b6200090b565b815115801562000d8857506001600160a01b0384163b155b1562000dab5783604051639996b31560e01b81526004016200040a91906200147b565b50806200090b565b80511562000dc357805160208201fd5b60405163d6bda27560e01b815260040160405180910390fd5b50565b610bcf8062001b1e83390190565b634e487b7160e01b600052604160045260246000fd5b604051608081016001600160401b038111828210171562000e285762000e2862000ded565b60405290565b604051606081016001600160401b038111828210171562000e285762000e2862000ded565b604080519081016001600160401b038111828210171562000e285762000e2862000ded565b604051601f8201601f191681016001600160401b038111828210171562000ea35762000ea362000ded565b604052919050565b60006001600160401b0382111562000ec75762000ec762000ded565b5060051b60200190565b6001600160a01b038116811462000ddc57600080fd5b600082601f83011262000ef957600080fd5b8135602062000f1262000f0c8362000eab565b62000e78565b82815260059290921b8401810191818101908684111562000f3257600080fd5b8286015b8481101562000f5a57803562000f4c8162000ed1565b835291830191830162000f36565b509695505050505050565b600082601f83011262000f7757600080fd5b8135602062000f8a62000f0c8362000eab565b82815260059290921b8401810191818101908684111562000faa57600080fd5b8286015b8481101562000f5a5780356001600160f01b03198116811462000fd15760008081fd5b835291830191830162000fae565b600082601f83011262000ff157600080fd5b81356001600160401b038111156200100d576200100d62000ded565b62001022601f8201601f191660200162000e78565b8181528460208386010111156200103857600080fd5b816020850160208301376000918101602001919091529392505050565b600082601f8301126200106757600080fd5b813560206200107a62000f0c8362000eab565b82815260059290921b840181019181810190868411156200109a57600080fd5b8286015b8481101562000f5a5780356001600160401b0380821115620010c05760008081fd5b908801906080828b03601f1901811315620010db5760008081fd5b620010e562000e03565b8784013583811115620010f85760008081fd5b620011088d8a8388010162000ee7565b82525060408085013584811115620011205760008081fd5b620011308e8b8389010162000f65565b8a84015250606080860135858111156200114a5760008081fd5b6200115a8f8c838a010162000fdf565b92840192909252949092013593810193909352505083529183019183016200109e565b600082601f8301126200118f57600080fd5b81356020620011a262000f0c8362000eab565b82815260059290921b84018101918181019086841115620011c257600080fd5b8286015b8481101562000f5a5780356001600160401b0380821115620011e85760008081fd5b908801906080828b03601f1901811315620012035760008081fd5b6200120d62000e03565b8784013583811115620012205760008081fd5b620012308d8a8388010162000fdf565b82525060408085013584811115620012485760008081fd5b620012588e8b8389010162000fdf565b838b01525060608581013591830191909152919093013590830152508352918301918301620011c6565b600082601f8301126200129457600080fd5b81356020620012a762000f0c8362000eab565b82815260059290921b84018101918181019086841115620012c757600080fd5b8286015b8481101562000f5a5780356001600160401b0380821115620012ed5760008081fd5b908801906060828b03601f1901811315620013085760008081fd5b6200131262000e2e565b87840135620013218162000ed1565b815260408481013584811115620013385760008081fd5b620013488e8b8389010162000fdf565b8a84015250919093013590830152508352918301918301620012cb565b6000806000606084860312156200137b57600080fd5b83356001600160401b03808211156200139357600080fd5b620013a18783880162001055565b94506020860135915080821115620013b857600080fd5b620013c6878388016200117d565b93506040860135915080821115620013dd57600080fd5b50620013ec8682870162001282565b9150509250925092565b600081518084526020808501945080840160005b83811015620014315781516001600160a01b0316875295820195908201906001016200140a565b509495945050505050565b606081526000620014516060830186620013f6565b8281036020840152620014658186620013f6565b9050828103604084015262000d4d8185620013f6565b6001600160a01b0391909116815260200190565b600060208284031215620014a257600080fd5b81356200090b8162000ed1565b600060208284031215620014c257600080fd5b81356001600160401b03811115620014d957600080fd5b620014e78482850162001282565b949350505050565b6020815260006200090b6020830184620013f6565b600060208083850312156200151857600080fd5b82356001600160401b03808211156200153057600080fd5b818501915085601f8301126200154557600080fd5b81356200155662000f0c8262000eab565b81815260059190911b830184019084810190888311156200157657600080fd5b8585015b838110156200160057803585811115620015945760008081fd5b86016040818c03601f1901811315620015ad5760008081fd5b620015b762000e53565b89830135620015c68162000ed1565b8152908201359087821115620015dc5760008081fd5b620015ec8d8b8486010162000fdf565b818b0152855250509186019186016200157a565b5098975050505050505050565b6000602082840312156200162057600080fd5b81356001600160401b038111156200163757600080fd5b620014e7848285016200117d565b600080600080608085870312156200165c57600080fd5b84356001600160401b03808211156200167457600080fd5b620016828883890162000ee7565b955060208701359150808211156200169957600080fd5b620016a78883890162000f65565b94506040870135915080821115620016be57600080fd5b50620016cd8782880162000fdf565b949793965093946060013593505050565b600080600060608486031215620016f457600080fd5b8335620017018162000ed1565b925060208401356001600160401b038111156200171d57600080fd5b6200172b8682870162000fdf565b925050604084013590509250925092565b600080600080608085870312156200175357600080fd5b84356001600160401b03808211156200176b57600080fd5b620017798883890162000fdf565b955060208701359150808211156200179057600080fd5b506200179f8782880162000fdf565b949794965050505060408301359260600135919050565b600060208284031215620017c957600080fd5b81356001600160401b03811115620017e057600080fd5b620014e78482850162001055565b634e487b7160e01b600052603260045260246000fd5b6000600182016200182557634e487b7160e01b600052601160045260246000fd5b5060010190565b60005b83811015620018495781810151838201526020016200182f565b50506000910152565b600081518084526200186c8160208601602086016200182c565b601f01601f19169290920160200192915050565b60006020808301818452808551808352604092508286019150828160051b87010184880160005b83811015620018f357888303603f19018552815180516001600160a01b03168452870151878401879052620018df8785018262001852565b9588019593505090860190600101620018a7565b509098975050505050505050565b600060208083850312156200191557600080fd5b82516001600160401b038111156200192c57600080fd5b8301601f810185136200193e57600080fd5b80516200194f62000f0c8262000eab565b81815260059190911b820183019083810190878311156200196f57600080fd5b928401925b8284101562000c065783518252928401929084019062001974565b6080808252855190820181905260009060209060a0840190828901845b82811015620019d35781516001600160a01b031684529284019290840190600101620019ac565b5050508381038285015286518082528783019183019060005b8181101562001a145783516001600160f01b03191683529284019291840191600101620019ec565b5050848103604086015262001a2a818862001852565b935050505062001a4560608301846001600160a01b03169052565b95945050505050565b60006020828403121562001a6157600080fd5b5051919050565b60608152600062001a7d606083018662001852565b828103602084015262001a91818662001852565b915050826040830152949350505050565b6000808585111562001ab357600080fd5b8386111562001ac157600080fd5b5050820193919092039150565b6001600160601b0319813581811691601485101562001af75780818660140360031b1b83161692505b505092915050565b6000825162001b138184602087016200182c565b919091019291505056fe60806040523480156200001157600080fd5b5060405162000bcf38038062000bcf8339810160408190526200003491620002b8565b82826003620000448382620003ba565b506004620000538282620003ba565b505050620000716200006a6200007a60201b60201c565b826200007e565b505050620004ae565b3390565b6001600160a01b038216620000ae5760405163ec442f0560e01b8152600060048201526024015b60405180910390fd5b620000bc60008383620000c0565b5050565b6001600160a01b038316620000ef578060026000828254620000e3919062000486565b90915550620001639050565b6001600160a01b03831660009081526020819052604090205481811015620001445760405163391434e360e21b81526001600160a01b03851660048201526024810182905260448101839052606401620000a5565b6001600160a01b03841660009081526020819052604090209082900390555b6001600160a01b0382166200018157600280548290039055620001a0565b6001600160a01b03821660009081526020819052604090208054820190555b816001600160a01b0316836001600160a01b03167fddf252ad1be2c89b69c2b068fc378daa952ba7f163c4a11628f55a4df523b3ef83604051620001e691815260200190565b60405180910390a3505050565b634e487b7160e01b600052604160045260246000fd5b600082601f8301126200021b57600080fd5b81516001600160401b0380821115620002385762000238620001f3565b604051601f8301601f19908116603f01168101908282118183101715620002635762000263620001f3565b816040528381526020925086838588010111156200028057600080fd5b600091505b83821015620002a4578582018301518183018401529082019062000285565b600093810190920192909252949350505050565b600080600060608486031215620002ce57600080fd5b83516001600160401b0380821115620002e657600080fd5b620002f48783880162000209565b945060208601519150808211156200030b57600080fd5b506200031a8682870162000209565b925050604084015190509250925092565b600181811c908216806200034057607f821691505b6020821081036200036157634e487b7160e01b600052602260045260246000fd5b50919050565b601f821115620003b557600081815260208120601f850160051c81016020861015620003905750805b601f850160051c820191505b81811015620003b1578281556001016200039c565b5050505b505050565b81516001600160401b03811115620003d657620003d6620001f3565b620003ee81620003e784546200032b565b8462000367565b602080601f8311600181146200042657600084156200040d5750858301515b600019600386901b1c1916600185901b178555620003b1565b600085815260208120601f198616915b82811015620004575788860151825594840194600190910190840162000436565b5085821015620004765787850151600019600388901b60f8161c191681555b5050505050600190811b01905550565b80820180821115620004a857634e487b7160e01b600052601160045260246000fd5b92915050565b61071180620004be6000396000f3fe608060405234801561001057600080fd5b50600436106100835760003560e01c806306fdde0314610088578063095ea7b3146100a657806318160ddd146100c957806323b872dd146100db578063313ce567146100ee57806370a08231146100fd57806395d89b4114610126578063a9059cbb1461012e578063dd62ed3e14610141575b600080fd5b610090610154565b60405161009d9190610526565b60405180910390f35b6100b96100b4366004610590565b6101e6565b604051901515815260200161009d565b6002545b60405190815260200161009d565b6100b96100e93660046105ba565b610200565b6040516012815260200161009d565b6100cd61010b3660046105f6565b6001600160a01b031660009081526020819052604090205490565b610090610224565b6100b961013c366004610590565b610233565b6100cd61014f366004610618565b610241565b6060600380546101639061064b565b80601f016020809104026020016040519081016040528092919081815260200182805461018f9061064b565b80156101dc5780601f106101b1576101008083540402835291602001916101dc565b820191906000526020600020905b8154815290600101906020018083116101bf57829003601f168201915b5050505050905090565b6000336101f481858561026c565b60019150505b92915050565b60003361020e85828561027e565b6102198585856102db565b506001949350505050565b6060600480546101639061064b565b6000336101f48185856102db565b6001600160a01b03918216600090815260016020908152604080832093909416825291909152205490565b610279838383600161033a565b505050565b600061028a8484610241565b90506000198110156102d557818110156102c657828183604051637dc7a0d960e11b81526004016102bd93929190610685565b60405180910390fd5b6102d58484848403600061033a565b50505050565b6001600160a01b038316610305576000604051634b637e8f60e11b81526004016102bd91906106a6565b6001600160a01b03821661032f57600060405163ec442f0560e01b81526004016102bd91906106a6565b61027983838361040f565b6001600160a01b03841661036457600060405163e602df0560e01b81526004016102bd91906106a6565b6001600160a01b03831661038e576000604051634a1406b160e11b81526004016102bd91906106a6565b6001600160a01b03808516600090815260016020908152604080832093871683529290522082905580156102d557826001600160a01b0316846001600160a01b03167f8c5be1e5ebec7d5bd14f71427d1e84f3dd0314c0f7b2291e5b200ac8c7c3b9258460405161040191815260200190565b60405180910390a350505050565b6001600160a01b03831661043a57806002600082825461042f91906106ba565b909155506104999050565b6001600160a01b0383166000908152602081905260409020548181101561047a5783818360405163391434e360e21b81526004016102bd93929190610685565b6001600160a01b03841660009081526020819052604090209082900390555b6001600160a01b0382166104b5576002805482900390556104d4565b6001600160a01b03821660009081526020819052604090208054820190555b816001600160a01b0316836001600160a01b03167fddf252ad1be2c89b69c2b068fc378daa952ba7f163c4a11628f55a4df523b3ef8360405161051991815260200190565b60405180910390a3505050565b600060208083528351808285015260005b8181101561055357858101830151858201604001528201610537565b506000604082860101526040601f19601f8301168501019250505092915050565b80356001600160a01b038116811461058b57600080fd5b919050565b600080604083850312156105a357600080fd5b6105ac83610574565b946020939093013593505050565b6000806000606084860312156105cf57600080fd5b6105d884610574565b92506105e660208501610574565b9150604084013590509250925092565b60006020828403121561060857600080fd5b61061182610574565b9392505050565b6000806040838503121561062b57600080fd5b61063483610574565b915061064260208401610574565b90509250929050565b600181811c9082168061065f57607f821691505b60208210810361067f57634e487b7160e01b600052602260045260246000fd5b50919050565b6001600160a01b039390931683526020830191909152604082015260600190565b6001600160a01b0391909116815260200190565b808201808211156101fa57634e487b7160e01b600052601160045260246000fdfea26469706673582212209adde090a2ce2a6b7b8fb71583ad7f5571915c7bb82d002c32616d6fbcd7caa364736f6c63430008140033bdc35d95624895b50b28f056a8e7430069f783195ce87d981f2f0a38d6ef05d7a264697066735822122025a9fbac54d3babfe9ee8b7cad70b7639c614fad36a02434ad8afac0f077daf364736f6c63430008140033608060405234801561001057600080fd5b5061001961001e565b6100d0565b7ff0c57e16840df040f15088dc2f81fe391c3923bec73e23a9662efc9c229c6a00805468010000000000000000900460ff161561006e5760405163f92ee8a960e01b815260040160405180910390fd5b80546001600160401b03908116146100cd5780546001600160401b0319166001600160401b0390811782556040519081527fc7f505b2f371ae2175ee4913f4499e1f2633a7b5936321eed1cdaeb6115181d29060200160405180910390a15b50565b611eb7806100df6000396000f3fe60806040526004361061011e5760003560e01c806223de29146101b057806301ffc9a7146101d0578063150b7a0214610205578063160a79251461023e57806319b9404c146102905780632f2bf18e146102b0578063572b6c05146102f4578063685b3cb51461031457806375ab97821461033a5780637615eb811461035a5780637da0a8771461037a5780637f0a4e27146103a2578063a9059cbb146103c2578063bae78d7b146103e2578063bc197c811461040f578063bdb3e1c41461043b578063d0922d4a1461045b578063d28fbf0a1461047b578063d610b570146104c3578063dbf67b82146104f0578063dcf4896314610510578063f03f542b14610530578063f23a6e6114610550578063f49b58481461057c57600080fd5b366101ab5773__$eade74fbb29c82369931f57fe28cd62d78$__63dd67b85660013461014861059c565b6040516001600160e01b031960e086901b168152600481019390935260248301919091526001600160a01b0316604482015260640160006040518083038186803b15801561019557600080fd5b505af41580156101a9573d6000803e3d6000fd5b005b600080fd5b3480156101bc57600080fd5b506101a96101cb36600461118e565b6105e4565b3480156101dc57600080fd5b506101f06101eb36600461123e565b61065e565b60405190151581526020015b60405180910390f35b34801561021157600080fd5b50610225610220366004611324565b610700565b6040516001600160e01b031990911681526020016101fc565b34801561024a57600080fd5b5061027761025936600461138f565b6001600160a01b031660009081526006602052604090205460f01b90565b6040516001600160f01b031990911681526020016101fc565b34801561029c57600080fd5b506101a96102ab36600461138f565b610795565b3480156102bc57600080fd5b506102e66102cb36600461138f565b6001600160a01b031660009081526007602052604090205490565b6040519081526020016101fc565b34801561030057600080fd5b506101f061030f36600461138f565b610823565b34801561032057600080fd5b50610329610837565b6040516101fc9594939291906113f2565b34801561034657600080fd5b506101a961035536600461118e565b610966565b34801561036657600080fd5b506101a96103753660046114c1565b6109a6565b34801561038657600080fd5b506000546040516001600160a01b0390911681526020016101fc565b3480156103ae57600080fd5b506101a96103bd366004611513565b6109e9565b3480156103ce57600080fd5b506101a96103dd36600461154c565b610a9b565b3480156103ee57600080fd5b506104026103fd366004611578565b610b33565b6040516101fc9190611591565b34801561041b57600080fd5b5061022561042a3660046115be565b63bc197c8160e01b95945050505050565b34801561044757600080fd5b506101a961045636600461166b565b610c79565b34801561046757600080fd5b506101a96104763660046116bc565b610cef565b34801561048757600080fd5b5061049b610496366004611578565b610d97565b604080516001600160a01b0390931683526001600160f01b03199091166020830152016101fc565b3480156104cf57600080fd5b506104e36104de366004611780565b610e1f565b6040516101fc9190611830565b3480156104fc57600080fd5b506101a961050b3660046118d8565b610ea9565b34801561051c57600080fd5b506101a961052b3660046119ce565b61102b565b34801561053c57600080fd5b506101a961054b366004611a14565b611070565b34801561055c57600080fd5b5061022561056b366004611a55565b63f23a6e6160e01b95945050505050565b34801561058857600080fd5b506101a961059736600461166b565b6110b5565b60003660148082108015906105b557506105b533610823565b156105dc576105c936828403816000611abd565b6105d291611ae7565b60601c9250505090565b339250505090565b604051632c2f5d2960e21b815273__$eade74fbb29c82369931f57fe28cd62d78$__9063b0bd74a490610624906001908c908c908c908c90600401611b17565b60006040518083038186803b15801561063c57600080fd5b505af4158015610650573d6000803e3d6000fd5b505050505050505050505050565b60006001600160e01b031982166223de2960e01b148061068e57506001600160e01b03198216633ad5cbc160e11b145b806106a957506001600160e01b03198216630a85bd0160e11b145b806106c457506001600160e01b03198216630271189760e51b145b806106df57506001600160e01b0319821663d80b5d7560e01b145b806106fa57506301ffc9a760e01b6001600160e01b03198316145b92915050565b604051634545992d60e11b8152600160048201526001600160a01b038086166024830152841660448201526064810183905260009073__$eade74fbb29c82369931f57fe28cd62d78$__90638a8b325a9060840160006040518083038186803b15801561076c57600080fd5b505af4158015610780573d6000803e3d6000fd5b50630a85bd0160e11b98975050505050505050565b73__$eade74fbb29c82369931f57fe28cd62d78$__63b0248ab86001836107ba61059c565b6040516001600160e01b031960e086901b16815260048101939093526001600160a01b0391821660248401521660448201526064015b60006040518083038186803b15801561080857600080fd5b505af415801561081c573d6000803e3d6000fd5b5050505050565b6000546001600160a01b0391821691161490565b604051631948599560e31b815260016004820181905260609160009182918291829173__$eade74fbb29c82369931f57fe28cd62d78$__9063ca42cca890602401602060405180830381865af4158015610895573d6000803e3d6000fd5b505050506040513d601f19601f820116820180604052508101906108b99190611b45565b600254600354835463d80b5d7560e01b9085906108d590611b5e565b80601f016020809104026020016040519081016040528092919081815260200182805461090190611b5e565b801561094e5780601f106109235761010080835404028352916020019161094e565b820191906000526020600020905b81548152906001019060200180831161093157829003601f168201915b50505050509450945094509450945094509091929394565b604051630e7551c560e11b815273__$eade74fbb29c82369931f57fe28cd62d78$__90631ceaa38a90610624906001908c908c908c908c90600401611b17565b73__$eade74fbb29c82369931f57fe28cd62d78$__63c93038146001836109cb61059c565b6040518463ffffffff1660e01b81526004016107f093929190611b98565b73__$eade74fbb29c82369931f57fe28cd62d78$__6324f8b7df60018484610a0f61059c565b6040516001600160e01b031960e087901b16815260048101949094526001600160a01b0392831660248501526001600160f01b03199091166044840152166064820152608401602060405180830381865af4158015610a72573d6000803e3d6000fd5b505050506040513d601f19601f82011682018060405250810190610a969190611b45565b505050565b73__$eade74fbb29c82369931f57fe28cd62d78$__634bc01d1260018484610ac161059c565b6040516001600160e01b031960e087901b16815260048101949094526001600160a01b03928316602485015260448401919091521660648201526084015b60006040518083038186803b158015610b1757600080fd5b505af4158015610b2b573d6000803e3d6000fd5b505050505050565b60408051808201825260008152606060208201529051635935285960e01b8152600160048201526024810183905273__$eade74fbb29c82369931f57fe28cd62d78$__90635935285990604401602060405180830381865af4158015610b9d573d6000803e3d6000fd5b505050506040513d601f19601f82011682018060405250810190610bc19190611b45565b6040805180820190915281546001600160a01b03168152600182018054919291602084019190610bf090611b5e565b80601f0160208091040260200160405190810160405280929190818152602001828054610c1c90611b5e565b8015610c695780601f10610c3e57610100808354040283529160200191610c69565b820191906000526020600020905b815481529060010190602001808311610c4c57829003601f168201915b5050505050815250509050919050565b6040516350be2a0d60e01b815273__$eade74fbb29c82369931f57fe28cd62d78$__906350be2a0d90610cb9906001908890889088908890600401611b17565b60006040518083038186803b158015610cd157600080fd5b505af4158015610ce5573d6000803e3d6000fd5b5050505050505050565b73__$eade74fbb29c82369931f57fe28cd62d78$__63ba3ac4866001858585610d1661059c565b6040516001600160e01b031960e088901b16815260048101959095526001600160a01b03938416602486015291831660448501526001600160f01b031916606484015216608482015260a40160006040518083038186803b158015610d7a57600080fd5b505af4158015610d8e573d6000803e3d6000fd5b50505050505050565b60405163431f2e8b60e11b81526001600482015260248101829052600090819073__$eade74fbb29c82369931f57fe28cd62d78$__9063863e5d16906044016040805180830381865af4158015610df2573d6000803e3d6000fd5b505050506040513d601f19601f82011682018060405250810190610e169190611bfb565b91509150915091565b606073__$eade74fbb29c82369931f57fe28cd62d78$__63bfbb1b1f600184610e4661059c565b6040518463ffffffff1660e01b8152600401610e6493929190611c51565b600060405180830381865af4158015610e81573d6000803e3d6000fd5b505050506040513d6000823e601f3d908101601f191682016040526106fa9190810190611ccf565b6000610eb36110f5565b805490915060ff600160401b82041615906001600160401b0316600081158015610eda5750825b90506000826001600160401b03166001148015610ef65750303b155b905081158015610f04575080155b15610f225760405163f92ee8a960e01b815260040160405180910390fd5b84546001600160401b03191660011785558315610f4b57845460ff60401b1916600160401b1785555b604051636fb2820360e01b815273__$eade74fbb29c82369931f57fe28cd62d78$__90636fb2820390610f89906001908d908d908d90600401611d5f565b60006040518083038186803b158015610fa157600080fd5b505af4158015610fb5573d6000803e3d6000fd5b5050600080546001600160a01b0319166001600160a01b038a1617905550610fda9050565b831561102057845460ff60401b19168555604051600181527fc7f505b2f371ae2175ee4913f4499e1f2633a7b5936321eed1cdaeb6115181d29060200160405180910390a15b505050505050505050565b73__$eade74fbb29c82369931f57fe28cd62d78$__6392023c476001848461105161059c565b6040518563ffffffff1660e01b8152600401610aff9493929190611e00565b73__$eade74fbb29c82369931f57fe28cd62d78$__634227d1746001848461109661059c565b6040518563ffffffff1660e01b8152600401610aff9493929190611e38565b604051630e7551c560e11b815273__$eade74fbb29c82369931f57fe28cd62d78$__90631ceaa38a90610cb9906001908890889088908890600401611b17565b6000807ff0c57e16840df040f15088dc2f81fe391c3923bec73e23a9662efc9c229c6a006106fa565b6001600160a01b038116811461113357600080fd5b50565b80356111418161111e565b919050565b60008083601f84011261115857600080fd5b5081356001600160401b0381111561116f57600080fd5b60208301915083602082850101111561118757600080fd5b9250929050565b60008060008060008060008060c0898b0312156111aa57600080fd5b88356111b58161111e565b975060208901356111c58161111e565b965060408901356111d58161111e565b95506060890135945060808901356001600160401b03808211156111f857600080fd5b6112048c838d01611146565b909650945060a08b013591508082111561121d57600080fd5b5061122a8b828c01611146565b999c989b5096995094979396929594505050565b60006020828403121561125057600080fd5b81356001600160e01b03198116811461126857600080fd5b9392505050565b634e487b7160e01b600052604160045260246000fd5b604051601f8201601f191681016001600160401b03811182821017156112ad576112ad61126f565b604052919050565b600082601f8301126112c657600080fd5b81356001600160401b038111156112df576112df61126f565b6112f2601f8201601f1916602001611285565b81815284602083860101111561130757600080fd5b816020850160208301376000918101602001919091529392505050565b6000806000806080858703121561133a57600080fd5b84356113458161111e565b935060208501356113558161111e565b92506040850135915060608501356001600160401b0381111561137757600080fd5b611383878288016112b5565b91505092959194509250565b6000602082840312156113a157600080fd5b81356112688161111e565b6000815180845260005b818110156113d2576020818501810151868301820152016113b6565b506000602082860101526020601f19601f83011685010191505092915050565b60a08152600061140560a08301886113ac565b602083019690965250604081019390935260608301919091526001600160e01b031916608090910152919050565b60006001600160401b0382111561144c5761144c61126f565b5060051b60200190565b600082601f83011261146757600080fd5b8135602061147c61147783611433565b611285565b82815260059290921b8401810191818101908684111561149b57600080fd5b8286015b848110156114b6578035835291830191830161149f565b509695505050505050565b6000602082840312156114d357600080fd5b81356001600160401b038111156114e957600080fd5b6114f584828501611456565b949350505050565b6001600160f01b03198116811461113357600080fd5b6000806040838503121561152657600080fd5b82356115318161111e565b91506020830135611541816114fd565b809150509250929050565b6000806040838503121561155f57600080fd5b823561156a8161111e565b946020939093013593505050565b60006020828403121561158a57600080fd5b5035919050565b602080825282516001600160a01b0316828201528201516040808301526000906114f560608401826113ac565b600080600080600060a086880312156115d657600080fd5b85356115e18161111e565b945060208601356115f18161111e565b935060408601356001600160401b038082111561160d57600080fd5b61161989838a01611456565b9450606088013591508082111561162f57600080fd5b61163b89838a01611456565b9350608088013591508082111561165157600080fd5b5061165e888289016112b5565b9150509295509295909350565b6000806000806080858703121561168157600080fd5b843561168c8161111e565b9350602085013561169c8161111e565b925060408501356116ac8161111e565b9396929550929360600135925050565b6000806000606084860312156116d157600080fd5b83356116dc8161111e565b925060208401356116ec8161111e565b915060408401356116fc816114fd565b809150509250925092565b60006040828403121561171957600080fd5b604080519081016001600160401b03808211838310171561173c5761173c61126f565b81604052829350843591506117508261111e565b9082526020840135908082111561176657600080fd5b50611773858286016112b5565b6020830152505092915050565b6000602080838503121561179357600080fd5b82356001600160401b03808211156117aa57600080fd5b818501915085601f8301126117be57600080fd5b81356117cc61147782611433565b81815260059190911b830184019084810190888311156117eb57600080fd5b8585015b83811015611823578035858111156118075760008081fd5b6118158b89838a0101611707565b8452509186019186016117ef565b5098975050505050505050565b6020808252825182820181905260009190848201906040850190845b818110156118685783518352928401929184019160010161184c565b50909695505050505050565b600082601f83011261188557600080fd5b8135602061189561147783611433565b82815260059290921b840181019181810190868411156118b457600080fd5b8286015b848110156114b65780356118cb816114fd565b83529183019183016118b8565b600080600080608085870312156118ee57600080fd5b84356001600160401b038082111561190557600080fd5b818701915087601f83011261191957600080fd5b8135602061192961147783611433565b82815260059290921b8401810191818101908b84111561194857600080fd5b948201945b8386101561196f5785356119608161111e565b8252948201949082019061194d565b9850508801359250508082111561198557600080fd5b61199188838901611874565b945060408701359150808211156119a757600080fd5b506119b4878288016112b5565b9250506119c360608601611136565b905092959194509250565b600080604083850312156119e157600080fd5b8235915060208301356001600160401b038111156119fe57600080fd5b611a0a85828601611707565b9150509250929050565b60008060208385031215611a2757600080fd5b82356001600160401b03811115611a3d57600080fd5b611a4985828601611146565b90969095509350505050565b600080600080600060a08688031215611a6d57600080fd5b8535611a788161111e565b94506020860135611a888161111e565b9350604086013592506060860135915060808601356001600160401b03811115611ab157600080fd5b61165e888289016112b5565b60008085851115611acd57600080fd5b83861115611ada57600080fd5b5050820193919092039150565b6001600160601b03198135818116916014851015611b0f5780818660140360031b1b83161692505b505092915050565b9485526001600160a01b03938416602086015291831660408501529091166060830152608082015260a00190565b600060208284031215611b5757600080fd5b5051919050565b600181811c90821680611b7257607f821691505b602082108103611b9257634e487b7160e01b600052602260045260246000fd5b50919050565b6000606082018583526020606081850152818651808452608086019150828801935060005b81811015611bd957845183529383019391830191600101611bbd565b50506001600160a01b0395909516604094909401939093525091949350505050565b60008060408385031215611c0e57600080fd5b8251611c198161111e565b6020840151909250611541816114fd565b60018060a01b03815116825260006020820151604060208501526114f560408501826113ac565b600060608201858352602060608185015281865180845260808601915060808160051b870101935082880160005b82811015611cad57607f19888703018452611c9b868351611c2a565b95509284019290840190600101611c7f565b505050506001600160a01b039490941660409390930192909252509392505050565b60006020808385031215611ce257600080fd5b82516001600160401b03811115611cf857600080fd5b8301601f81018513611d0957600080fd5b8051611d1761147782611433565b81815260059190911b82018301908381019087831115611d3657600080fd5b928401925b82841015611d5457835182529284019290840190611d3b565b979650505050505050565b600060808201868352602060808185015281875180845260a086019150828901935060005b81811015611da95784516001600160a01b031683529383019391830191600101611d84565b50508481036040860152865180825290820192508187019060005b81811015611dea5782516001600160f01b03191685529383019391830191600101611dc4565b505050508281036060840152611d5481856113ac565b848152836020820152608060408201526000611e1f6080830185611c2a565b905060018060a01b038316606083015295945050505050565b848152606060208201528260608201528284608083013760008184016080908101919091526001600160a01b03929092166040820152601f909201601f1916909101019291505056fea2646970667358221220a33fcd4a9f6cce424848a325f7bbf09cd347690f4290e4fe5db83b4a7e89753664736f6c63430008140033",
  "linkReferences": {
    "contracts/libraries/OrganLibrary.sol": {
      "OrganLibrary": [
        {
          "length": 20,
          "start": 12391
        },
        {
          "length": 20,
          "start": 13621
        },
        {
          "length": 20,
          "start": 13945
        },
        {
          "length": 20,
          "start": 14041
        },
        {
          "length": 20,
          "start": 14237
        },
        {
          "length": 20,
          "start": 14519
        },
        {
          "length": 20,
          "start": 14570
        },
        {
          "length": 20,
          "start": 14637
        },
        {
          "length": 20,
          "start": 14815
        },
        {
          "length": 20,
          "start": 15013
        },
        {
          "length": 20,
          "start": 15306
        },
        {
          "length": 20,
          "start": 15411
        },
        {
          "length": 20,
          "start": 15611
        },
        {
          "length": 20,
          "start": 15717
        },
        {
          "length": 20,
          "start": 16028
        },
        {
          "length": 20,
          "start": 16239
        },
        {
          "length": 20,
          "start": 16308
        },
        {
          "length": 20,
          "start": 16390
        }
      ]
    }
  },
  "deployedLinkReferences": {}
}