{
  "_format": "hh-sol-artifact-1",
  "contractName": "OrganLibrary",
  "sourceName": "contracts/libraries/OrganLibrary.sol",
  "abi": [
    {
      "inputs": [
        {
          "internalType": "address",
          "name": "perm",
          "type": "address"
        }
      ],
      "name": "DuplicatePermission",
      "type": "error"
    },
    {
      "inputs": [],
      "name": "LengthMismatch",
      "type": "error"
    },
    {
      "inputs": [],
      "name": "ZeroAddress",
      "type": "error"
    },
    {
      "anonymous": false,
      "inputs": [
        {
          "indexed": false,
          "internalType": "address",
          "name": "from",
          "type": "address"
        },
        {
          "indexed": false,
          "internalType": "address",
          "name": "admin",
          "type": "address"
        }
      ],
      "name": "adminUpdated",
      "type": "event"
    },
    {
      "anonymous": false,
      "inputs": [
        {
          "indexed": false,
          "internalType": "address",
          "name": "from",
          "type": "address"
        },
        {
          "indexed": false,
          "internalType": "string",
          "name": "cid",
          "type": "string"
        }
      ],
      "name": "cidUpdated",
      "type": "event"
    },
    {
      "anonymous": false,
      "inputs": [
        {
          "indexed": false,
          "internalType": "address",
          "name": "operator",
          "type": "address"
        },
        {
          "indexed": false,
          "internalType": "address",
          "name": "from",
          "type": "address"
        },
        {
          "indexed": false,
          "internalType": "address",
          "name": "to",
          "type": "address"
        },
        {
          "indexed": false,
          "internalType": "uint256",
          "name": "amount",
          "type": "uint256"
        }
      ],
      "name": "coinsReceived",
      "type": "event"
    },
    {
      "anonymous": false,
      "inputs": [
        {
          "indexed": false,
          "internalType": "address",
          "name": "operator",
          "type": "address"
        },
        {
          "indexed": false,
          "internalType": "address",
          "name": "from",
          "type": "address"
        },
        {
          "indexed": false,
          "internalType": "address",
          "name": "to",
          "type": "address"
        },
        {
          "indexed": false,
          "internalType": "uint256",
          "name": "amount",
          "type": "uint256"
        }
      ],
      "name": "coinsTransferred",
      "type": "event"
    },
    {
      "anonymous": false,
      "inputs": [
        {
          "indexed": false,
          "internalType": "address",
          "name": "operator",
          "type": "address"
        },
        {
          "indexed": false,
          "internalType": "address",
          "name": "from",
          "type": "address"
        },
        {
          "indexed": false,
          "internalType": "uint256",
          "name": "tokenId",
          "type": "uint256"
        }
      ],
      "name": "collectibleReceived",
      "type": "event"
    },
    {
      "anonymous": false,
      "inputs": [
        {
          "indexed": false,
          "internalType": "address",
          "name": "operator",
          "type": "address"
        },
        {
          "indexed": false,
          "internalType": "address",
          "name": "to",
          "type": "address"
        },
        {
          "indexed": false,
          "internalType": "uint256",
          "name": "tokenId",
          "type": "uint256"
        }
      ],
      "name": "collectibleTransferred",
      "type": "event"
    },
    {
      "anonymous": false,
      "inputs": [
        {
          "indexed": false,
          "internalType": "address",
          "name": "from",
          "type": "address"
        },
        {
          "indexed": false,
          "internalType": "uint256",
          "name": "index",
          "type": "uint256"
        },
        {
          "indexed": false,
          "internalType": "address",
          "name": "addr",
          "type": "address"
        },
        {
          "indexed": false,
          "internalType": "string",
          "name": "cid",
          "type": "string"
        }
      ],
      "name": "entryAdded",
      "type": "event"
    },
    {
      "anonymous": false,
      "inputs": [
        {
          "indexed": false,
          "internalType": "address",
          "name": "from",
          "type": "address"
        },
        {
          "indexed": false,
          "internalType": "uint256",
          "name": "index",
          "type": "uint256"
        }
      ],
      "name": "entryRemoved",
      "type": "event"
    },
    {
      "anonymous": false,
      "inputs": [
        {
          "indexed": false,
          "internalType": "address",
          "name": "from",
          "type": "address"
        },
        {
          "indexed": false,
          "internalType": "uint256",
          "name": "amount",
          "type": "uint256"
        }
      ],
      "name": "etherReceived",
      "type": "event"
    },
    {
      "anonymous": false,
      "inputs": [
        {
          "indexed": false,
          "internalType": "address",
          "name": "from",
          "type": "address"
        },
        {
          "indexed": false,
          "internalType": "address",
          "name": "to",
          "type": "address"
        },
        {
          "indexed": false,
          "internalType": "uint256",
          "name": "amount",
          "type": "uint256"
        }
      ],
      "name": "etherTransferred",
      "type": "event"
    },
    {
      "anonymous": false,
      "inputs": [
        {
          "indexed": false,
          "internalType": "address",
          "name": "from",
          "type": "address"
        },
        {
          "indexed": false,
          "internalType": "address",
          "name": "permissionAddress",
          "type": "address"
        },
        {
          "indexed": false,
          "internalType": "bytes2",
          "name": "permissionValue",
          "type": "bytes2"
        }
      ],
      "name": "permissionAdded",
      "type": "event"
    },
    {
      "anonymous": false,
      "inputs": [
        {
          "indexed": false,
          "internalType": "address",
          "name": "from",
          "type": "address"
        },
        {
          "indexed": false,
          "internalType": "address",
          "name": "permissionAddress",
          "type": "address"
        }
      ],
      "name": "permissionRemoved",
      "type": "event"
    },
    {
      "inputs": [],
      "name": "PERMISSION_ADD_ENTRIES",
      "outputs": [
        {
          "internalType": "bytes2",
          "name": "",
          "type": "bytes2"
        }
      ],
      "stateMutability": "view",
      "type": "function"
    },
    {
      "inputs": [],
      "name": "PERMISSION_ADD_PERMISSIONS",
      "outputs": [
        {
          "internalType": "bytes2",
          "name": "",
          "type": "bytes2"
        }
      ],
      "stateMutability": "view",
      "type": "function"
    },
    {
      "inputs": [],
      "name": "PERMISSION_DEPOSIT_COINS",
      "outputs": [
        {
          "internalType": "bytes2",
          "name": "",
          "type": "bytes2"
        }
      ],
      "stateMutability": "view",
      "type": "function"
    },
    {
      "inputs": [],
      "name": "PERMISSION_DEPOSIT_COLLECTIBLES",
      "outputs": [
        {
          "internalType": "bytes2",
          "name": "",
          "type": "bytes2"
        }
      ],
      "stateMutability": "view",
      "type": "function"
    },
    {
      "inputs": [],
      "name": "PERMISSION_DEPOSIT_ETHER",
      "outputs": [
        {
          "internalType": "bytes2",
          "name": "",
          "type": "bytes2"
        }
      ],
      "stateMutability": "view",
      "type": "function"
    },
    {
      "inputs": [],
      "name": "PERMISSION_REMOVE_ENTRIES",
      "outputs": [
        {
          "internalType": "bytes2",
          "name": "",
          "type": "bytes2"
        }
      ],
      "stateMutability": "view",
      "type": "function"
    },
    {
      "inputs": [],
      "name": "PERMISSION_REMOVE_PERMISSIONS",
      "outputs": [
        {
          "internalType": "bytes2",
          "name": "",
          "type": "bytes2"
        }
      ],
      "stateMutability": "view",
      "type": "function"
    },
    {
      "inputs": [],
      "name": "PERMISSION_UPDATE_METADATA",
      "outputs": [
        {
          "internalType": "bytes2",
          "name": "",
          "type": "bytes2"
        }
      ],
      "stateMutability": "view",
      "type": "function"
    },
    {
      "inputs": [],
      "name": "PERMISSION_WITHDRAW_COINS",
      "outputs": [
        {
          "internalType": "bytes2",
          "name": "",
          "type": "bytes2"
        }
      ],
      "stateMutability": "view",
      "type": "function"
    },
    {
      "inputs": [],
      "name": "PERMISSION_WITHDRAW_COLLECTIBLES",
      "outputs": [
        {
          "internalType": "bytes2",
          "name": "",
          "type": "bytes2"
        }
      ],
      "stateMutability": "view",
      "type": "function"
    },
    {
      "inputs": [],
      "name": "PERMISSION_WITHDRAW_ETHER",
      "outputs": [
        {
          "internalType": "bytes2",
          "name": "",
          "type": "bytes2"
        }
      ],
      "stateMutability": "view",
      "type": "function"
    }
  ],
  "bytecode": "0x61282561003a600b82828239805160001a60731461002d57634e487b7160e01b600052600060045260246000fd5b30600052607381538281f3fe730000000000000000000000000000000000000000301460806040526004361061015e5760003560e01c8063051488a8146101635780630806feeb1461018c578063110ee176146101c75780631ceaa38a146101e95780631fb1b395146102095780632d2a4205146102145780633b1a16cf1461021f5780634227d1741461022a5780634bc01d121461024a57806350be2a0d1461026a578063593528591461028a5780636337a8d5146102ab578063772fc60d146102b65780638114cbea146102c1578063842519fb146102cc57806386cfbc37146102d75780638841ebca146102f757806388c7fc54146103175780638a8b325a146103225780638d6ee7601461034257806392023c471461034d5780639710d1811461036d578063b0bd74a414610378578063bfbb1b1f14610398578063c9303814146103c5578063dd67b856146103e5578063e382527f14610405578063f86f03e814610425575b600080fd5b61016e600160f81b81565b6040516001600160f01b031990911681526020015b60405180910390f35b61019f61019a366004611bbd565b610438565b604080516001600160a01b0390931683526001600160f01b0319909116602083015201610183565b8180156101d357600080fd5b506101e76101e2366004611c04565b610472565b005b8180156101f557600080fd5b506101e7610204366004611c46565b61057a565b61016e600160f11b81565b61016e600160f51b81565b61016e600160fa1b81565b81801561023657600080fd5b506101e7610245366004611d56565b61069c565b81801561025657600080fd5b506101e7610265366004611da5565b61074e565b81801561027657600080fd5b506101e7610285366004611c46565b61083e565b61029d610298366004611bbd565b61095a565b604051908152602001610183565b61016e600160f31b81565b61016e600160f01b81565b61016e600160f41b81565b61016e600160f91b81565b8180156102e357600080fd5b5061029d6102f2366004611e07565b610988565b81801561030357600080fd5b506101e7610312366004611fda565b610abd565b61016e600160f61b81565b81801561032e57600080fd5b506101e761033d3660046120f0565b610e03565b61016e600160f21b81565b81801561035957600080fd5b506101e7610368366004612138565b610eab565b61016e600160f71b81565b81801561038457600080fd5b506101e7610393366004611c46565b61110b565b8180156103a457600080fd5b506103b86103b336600461218f565b6111b5565b60405161018391906121cd565b8180156103d157600080fd5b506101e76103e0366004612211565b611516565b8180156103f157600080fd5b506101e76104003660046122bd565b6116e1565b81801561041157600080fd5b506101e76104203660046122eb565b611787565b61029d610433366004612351565b61197e565b600080610448600385018461198c565b6001600160a01b038116600090815260058601602052604090205490925060f01b90509250929050565b6001600160a01b03811660009081526005840160205260409020548390600160f11b90839060f01b82168214806104cb5750600080805260058401602052604090205460f01b82166001600160f01b0319908116908316145b6104f05760405162461bcd60e51b81526004016104e79061236a565b60405180910390fd5b6104fd600387018661199f565b6105195760405162461bcd60e51b81526004016104e790612393565b61052660038701866119b4565b506001600160a01b038516600090815260058701602052604090819020805461ffff19169055516000805160206127b08339815191529061056a90869088906123be565b60405180910390a1505050505050565b6001600160a01b03831660009081526005860160205260409020548590600160f81b90859060f01b82168214806105d35750600080805260058401602052604090205460f01b82166001600160f01b0319908116908316145b6105ef5760405162461bcd60e51b81526004016104e79061236a565b604051634decdde360e11b81526060906001600160a01b03891690639bd9bbc6906106229089908990869060040161241e565b600060405180830381600087803b15801561063c57600080fd5b505af1158015610650573d6000803e3d6000fd5b505050507f9df0034edd0538407262676cf5883fee08c9655adc9aa709deaf4d58fc3946e888888888604051610689949392919061244e565b60405180910390a1505050505050505050565b6001600160a01b03811660009081526005840160205260409020548390600160f41b90839060f01b82168214806106f55750600080805260058401602052604090205460f01b82166001600160f01b0319908116908316145b6107115760405162461bcd60e51b81526004016104e79061236a565b8561071c86826124fd565b507fa991ce5b410db3ebc88a3442f64764e791b0d8ca9a9380a81f6c626e1949923e848660405161056a9291906125bc565b6001600160a01b03811660009081526005850160205260409020548490600160f61b90839060f01b82168214806107a75750600080805260058401602052604090205460f01b82166001600160f01b0319908116908316145b6107c35760405162461bcd60e51b81526004016104e79061236a565b6040516001600160a01b0387169086156108fc029087906000818181858888f193505050501580156107f9573d6000803e3d6000fd5b507f888f4e5e3828b86878e550f0d9966a72db1fa81bed7bd7537481075f6b2c237d84878760405161082d939291906125e8565b60405180910390a150505050505050565b6001600160a01b03831660009081526005860160205260409020548590600160fa1b90859060f01b82168214806108975750600080805260058401602052604090205460f01b82166001600160f01b0319908116908316145b6108b35760405162461bcd60e51b81526004016104e79061236a565b604051632142170760e11b81526001600160a01b038816906342842e0e906108e3908990899089906004016125e8565b600060405180830381600087803b1580156108fd57600080fd5b505af1158015610911573d6000803e3d6000fd5b505050507f8e804bbf6f6b1556cf1371c58fce001012969e584497e633a931750c479c70a7878686604051610948939291906125e8565b60405180910390a15050505050505050565b60008260010182815481106109715761097161260c565b906000526020600020906002020190505b92915050565b6001600160a01b03811660009081526005850160205260408120548590600160f01b90849060f01b82168214806109e15750600080805260058401602052604090205460f01b82166001600160f01b0319908116908316145b6109fd5760405162461bcd60e51b81526004016104e79061236a565b610a0a600389018861199f565b15610a275760405162461bcd60e51b81526004016104e790612622565b6001600160f01b03198616600003610a515760405162461bcd60e51b81526004016104e79061264d565b610a5e60038901886119c9565b506001600160a01b038716600090815260058901602052604090819020805461ffff191660f089901c179055516000805160206127d083398151915290610aaa9087908a908a9061267d565b60405180910390a1505050949350505050565b84610ac883826124fd565b5060408051808201825260008082528251602080820190945281815283830190815260018981018054808301825590845294909220835160029095020180546001600160a01b0319166001600160a01b039095169490941784555191929190820190610b3490826124fd565b5050508251845114610b5c576040516001621398b960e31b0319815260040160405180910390fd5b60005b8451811015610c4d576000858281518110610b7c57610b7c61260c565b6020026020010151905060006001600160a01b0316816001600160a01b031603610bb95760405163d92e233d60e01b815260040160405180910390fd5b610bc660038801826119c9565b610bee5760405163121ba96d60e31b81526001600160a01b03821660048201526024016104e7565b848281518110610c0057610c0061260c565b6020908102919091018101516001600160a01b039290921660009081526005890190915260409020805461ffff191660f09290921c91909117905580610c45816126c0565b915050610b5f565b5060005b8151811015610dfb5760006001600160a01b0316828281518110610c7757610c7761260c565b6020026020010151600001516001600160a01b031614610cf557856006016000838381518110610ca957610ca961260c565b6020026020010151600001516001600160a01b03166001600160a01b0316815260200190815260200160002054600014610cf55760405162461bcd60e51b81526004016104e790612622565b85600101828281518110610d0b57610d0b61260c565b602090810291909101810151825460018082018555600094855293839020825160029092020180546001600160a01b0319166001600160a01b03909216919091178155918101519092820190610d6190826124fd565b50505060006001600160a01b0316828281518110610d8157610d8161260c565b6020026020010151600001516001600160a01b031614610de957600186810154610dab91906126d9565b866006016000848481518110610dc357610dc361260c565b602090810291909101810151516001600160a01b03168252810191909152604001600020555b80610df3816126c0565b915050610c51565b505050505050565b6001600160a01b03821660009081526005850160205260409020548490600160f91b90849060f01b8216821480610e5c5750600080805260058401602052604090205460f01b82166001600160f01b0319908116908316145b610e785760405162461bcd60e51b81526004016104e79061236a565b7fe5e97c239ef97530361e497f81ff5c1271fd4ea83a1876459ace5eea3e428fac86868660405161082d939291906125e8565b6001600160a01b03811660009081526005850160205260409020548490600160f31b90839060f01b8216821480610f045750600080805260058401602052604090205460f01b82166001600160f01b0319908116908316145b610f205760405162461bcd60e51b81526004016104e79061236a565b6001600160a01b03841660009081526005880160205260409020548790600160f21b90869060f01b8216821480610f795750600080805260058401602052604090205460f01b82166001600160f01b0319908116908316145b610f955760405162461bcd60e51b81526004016104e79061236a565b87516001600160a01b031615610fdd5787516001600160a01b0316600090815260068b016020526040902054610fdd5760405162461bcd60e51b81526004016104e790612393565b60008a60060160008c6001018c81548110610ffa57610ffa61260c565b600091825260208083206002909202909101546001600160a01b0316835282019290925260409081019091209190915551600080516020612770833981519152906110489089908c906126ec565b60405180910390a1878a6001018a815481106110665761106661260c565b600091825260209182902083516002929092020180546001600160a01b0319166001600160a01b039092169190911781559082015160018201906110aa90826124fd565b505088516001600160a01b0316600090815260068c0160209081526040918290208c90558a51908b0151915160008051602061279083398151915293506110f7928b928e92909190612705565b60405180910390a150505050505050505050565b6001600160a01b03831660009081526005860160205260409020548590600160f71b90859060f01b82168214806111645750600080805260058401602052604090205460f01b82166001600160f01b0319908116908316145b6111805760405162461bcd60e51b81526004016104e79061236a565b7f2cd05e0dd8d1973240403d6f7b5af34f709ea79a0f5199fcc9ebc4102919fd4087878787604051610948949392919061244e565b6001600160a01b03811660009081526005840160205260409020546060908490600160f21b90849060f01b82168214806112115750600080805260058401602052604090205460f01b82166001600160f01b0319908116908316145b61122d5760405162461bcd60e51b81526004016104e79061236a565b60008651116112765760405162461bcd60e51b815260206004820152601560248201527427379032b73a3934b2b99039b832b1b4b334b2b21760591b60448201526064016104e7565b85516001600160401b0381111561128f5761128f611ca1565b6040519080825280602002602001820160405280156112b8578160200160208202803683370190505b50935060005b865181101561150b5760006001600160a01b03168782815181106112e4576112e461260c565b6020026020010151600001516001600160a01b031614611362578760060160008883815181106113165761131661260c565b6020026020010151600001516001600160a01b03166001600160a01b03168152602001908152602001600020546000146113625760405162461bcd60e51b81526004016104e790612622565b876001018782815181106113785761137861260c565b602090810291909101810151825460018082018555600094855293839020825160029092020180546001600160a01b0319166001600160a01b039092169190911781559181015190928201906113ce90826124fd565b5050506001888101546113e191906126d9565b8582815181106113f3576113f361260c565b6020026020010181815250508481815181106114115761141161260c565b60200260200101518860060160008984815181106114315761143161260c565b6020026020010151600001516001600160a01b03166001600160a01b0316815260200190815260200160002081905550876002016000815480929190611476906126c0565b91905055506000805160206127908339815191528686838151811061149d5761149d61260c565b60200260200101518984815181106114b7576114b761260c565b6020026020010151600001518a85815181106114d5576114d561260c565b6020026020010151602001516040516114f19493929190612705565b60405180910390a180611503816126c0565b9150506112be565b505050509392505050565b6001600160a01b03811660009081526005840160205260409020548390600160f31b90839060f01b821682148061156f5750600080805260058401602052604090205460f01b82166001600160f01b0319908116908316145b61158b5760405162461bcd60e51b81526004016104e79061236a565b60005b85518110156116d8576000876001018783815181106115af576115af61260c565b6020026020010151815481106115c7576115c761260c565b600091825260209091206002909102015487516001600160a01b03909116915060018901908890849081106115fe576115fe61260c565b6020026020010151815481106116165761161661260c565b60009182526020822060029091020180546001600160a01b0319168155906116416001830182611b67565b505060028801805490600061165583612742565b90915550506001600160a01b03811615611685576001600160a01b03811660009081526006890160205260408120555b600080516020612770833981519152868884815181106116a7576116a761260c565b60200260200101516040516116bd9291906126ec565b60405180910390a150806116d0816126c0565b91505061158e565b50505050505050565b6001600160a01b03811660009081526005840160205260409020548390600160f51b90839060f01b821682148061173a5750600080805260058401602052604090205460f01b82166001600160f01b0319908116908316145b6117565760405162461bcd60e51b81526004016104e79061236a565b7fcbbd8e1693c80baea4b26f9f5b28e2fea72633c6953e2dc612f123c5b8cf9d49848660405161056a9291906126ec565b6001600160a01b03811660009081526005860160205260409020548590600160f11b90839060f01b82168214806117e05750600080805260058401602052604090205460f01b82166001600160f01b0319908116908316145b6117fc5760405162461bcd60e51b81526004016104e79061236a565b6001600160a01b03841660009081526005890160205260409020548890600160f01b90869060f01b82168214806118555750600080805260058401602052604090205460f01b82166001600160f01b0319908116908316145b6118715760405162461bcd60e51b81526004016104e79061236a565b61187e60038c018b61199f565b61189a5760405162461bcd60e51b81526004016104e790612393565b6001600160f01b031988166118c15760405162461bcd60e51b81526004016104e79061264d565b886001600160a01b03168a6001600160a01b0316146118f7576118e68b8a8a8a610988565b506118f28b8b89610472565b611921565b6001600160a01b038916600090815260058c0160205260409020805461ffff191660f08a901c1790555b6000805160206127b0833981519152878b6040516119409291906123be565b60405180910390a16000805160206127d0833981519152878a8a6040516119699392919061267d565b60405180910390a15050505050505050505050565b6000610982826003016119de565b600061199883836119e8565b9392505050565b6000611998836001600160a01b038416611a12565b6000611998836001600160a01b038416611a2a565b6000611998836001600160a01b038416611b1d565b6000610982825490565b60008260000182815481106119ff576119ff61260c565b9060005260206000200154905092915050565b60009081526001919091016020526040902054151590565b60008181526001830160205260408120548015611b13576000611a4e6001836126d9565b8554909150600090611a62906001906126d9565b9050808214611ac7576000866000018281548110611a8257611a8261260c565b9060005260206000200154905080876000018481548110611aa557611aa561260c565b6000918252602080832090910192909255918252600188019052604090208390555b8554869080611ad857611ad8612759565b600190038181906000526020600020016000905590558560010160008681526020019081526020016000206000905560019350505050610982565b6000915050610982565b6000611b298383611a12565b611b5f57508154600181810184556000848152602080822090930184905584548482528286019093526040902091909155610982565b506000610982565b508054611b7390612478565b6000825580601f10611b83575050565b601f016020900490600052602060002090810190611ba19190611ba4565b50565b5b80821115611bb95760008155600101611ba5565b5090565b60008060408385031215611bd057600080fd5b50508035926020909101359150565b6001600160a01b0381168114611ba157600080fd5b8035611bff81611bdf565b919050565b600080600060608486031215611c1957600080fd5b833592506020840135611c2b81611bdf565b91506040840135611c3b81611bdf565b809150509250925092565b600080600080600060a08688031215611c5e57600080fd5b853594506020860135611c7081611bdf565b93506040860135611c8081611bdf565b92506060860135611c9081611bdf565b949793965091946080013592915050565b634e487b7160e01b600052604160045260246000fd5b604051601f8201601f191681016001600160401b0381118282101715611cdf57611cdf611ca1565b604052919050565b600082601f830112611cf857600080fd5b81356001600160401b03811115611d1157611d11611ca1565b611d24601f8201601f1916602001611cb7565b818152846020838601011115611d3957600080fd5b816020850160208301376000918101602001919091529392505050565b600080600060608486031215611d6b57600080fd5b8335925060208401356001600160401b03811115611d8857600080fd5b611d9486828701611ce7565b9250506040840135611c3b81611bdf565b60008060008060808587031215611dbb57600080fd5b843593506020850135611dcd81611bdf565b9250604085013591506060850135611de481611bdf565b939692955090935050565b80356001600160f01b031981168114611bff57600080fd5b60008060008060808587031215611e1d57600080fd5b843593506020850135611e2f81611bdf565b9250611e3d60408601611def565b91506060850135611de481611bdf565b60006001600160401b03821115611e6657611e66611ca1565b5060051b60200190565b600082601f830112611e8157600080fd5b81356020611e96611e9183611e4d565b611cb7565b82815260059290921b84018101918181019086841115611eb557600080fd5b8286015b84811015611ed757611eca81611def565b8352918301918301611eb9565b509695505050505050565b600060408284031215611ef457600080fd5b604080519081016001600160401b038082118383101715611f1757611f17611ca1565b8160405282935084359150611f2b82611bdf565b90825260208401359080821115611f4157600080fd5b50611f4e85828601611ce7565b6020830152505092915050565b600082601f830112611f6c57600080fd5b81356020611f7c611e9183611e4d565b82815260059290921b84018101918181019086841115611f9b57600080fd5b8286015b84811015611ed75780356001600160401b03811115611fbe5760008081fd5b611fcc8986838b0101611ee2565b845250918301918301611f9f565b600080600080600060a08688031215611ff257600080fd5b853594506020808701356001600160401b038082111561201157600080fd5b818901915089601f83011261202557600080fd5b8135612033611e9182611e4d565b81815260059190911b8301840190848101908c83111561205257600080fd5b938501935b8285101561207957843561206a81611bdf565b82529385019390850190612057565b98505050604089013592508083111561209157600080fd5b61209d8a848b01611e70565b955060608901359250808311156120b357600080fd5b6120bf8a848b01611ce7565b945060808901359250808311156120d557600080fd5b50506120e388828901611f5b565b9150509295509295909350565b6000806000806080858703121561210657600080fd5b84359350602085013561211881611bdf565b9250604085013561212881611bdf565b9396929550929360600135925050565b6000806000806080858703121561214e57600080fd5b843593506020850135925060408501356001600160401b0381111561217257600080fd5b61217e87828801611ee2565b9250506060850135611de481611bdf565b6000806000606084860312156121a457600080fd5b8335925060208401356001600160401b038111156121c157600080fd5b611d9486828701611f5b565b6020808252825182820181905260009190848201906040850190845b81811015612205578351835292840192918401916001016121e9565b50909695505050505050565b60008060006060848603121561222657600080fd5b833592506020808501356001600160401b0381111561224457600080fd5b8501601f8101871361225557600080fd5b8035612263611e9182611e4d565b81815260059190911b8201830190838101908983111561228257600080fd5b928401925b828410156122a057833582529284019290840190612287565b80965050505050506122b460408501611bf4565b90509250925092565b6000806000606084860312156122d257600080fd5b83359250602084013591506040840135611c3b81611bdf565b600080600080600060a0868803121561230357600080fd5b85359450602086013561231581611bdf565b9350604086013561232581611bdf565b925061233360608701611def565b9150608086013561234381611bdf565b809150509295509295909350565b60006020828403121561236357600080fd5b5035919050565b6020808252600f908201526e2737ba1030baba3437b934bd32b21760891b604082015260600190565b6020808252601190820152702932b1b7b932103737ba103337bab7321760791b604082015260600190565b6001600160a01b0392831681529116602082015260400190565b6000815180845260005b818110156123fe576020818501810151868301820152016123e2565b506000602082860101526020601f19601f83011685010191505092915050565b60018060a01b038416815282602082015260606040820152600061244560608301846123d8565b95945050505050565b6001600160a01b039485168152928416602084015292166040820152606081019190915260800190565b600181811c9082168061248c57607f821691505b6020821081036124ac57634e487b7160e01b600052602260045260246000fd5b50919050565b601f8211156124f857600081815260208120601f850160051c810160208610156124d95750805b601f850160051c820191505b81811015610dfb578281556001016124e5565b505050565b81516001600160401b0381111561251657612516611ca1565b61252a816125248454612478565b846124b2565b602080601f83116001811461255f57600084156125475750858301515b600019600386901b1c1916600185901b178555610dfb565b600085815260208120601f198616915b8281101561258e5788860151825594840194600190910190840161256f565b50858210156125ac5787850151600019600388901b60f8161c191681555b5050505050600190811b01905550565b6001600160a01b03831681526040602082018190526000906125e0908301846123d8565b949350505050565b6001600160a01b039384168152919092166020820152604081019190915260600190565b634e487b7160e01b600052603260045260246000fd5b602080825260119082015270223ab83634b1b0ba32903932b1b7b9321760791b604082015260600190565b6020808252601690820152752bb937b733903832b936b4b9b9b4b7b7399039b2ba1760511b604082015260600190565b6001600160a01b0393841681529190921660208201526001600160f01b0319909116604082015260600190565b634e487b7160e01b600052601160045260246000fd5b6000600182016126d2576126d26126aa565b5060010190565b81810381811115610982576109826126aa565b6001600160a01b03929092168252602082015260400190565b6001600160a01b0385811682526020820185905283166040820152608060608201819052600090612738908301846123d8565b9695505050505050565b600081612751576127516126aa565b506000190190565b634e487b7160e01b600052603160045260246000fdfeb66f1ae02a95bcbfd5cb608041f8225a5fd4bda29310bd2541e95c1c8ff04d785003f7799863596cac1c738a57d5e036c06baf264d77bb9db675e9c04ba9105fbe2a634ad03af64b8a91137ccfe541ebc6fea80466d963cc9a78e33fe9d0a62902c07877f12bed8130e26bfbf6bd55d600d60c2b2efef277dffbfa969e1be780a26469706673582212203113b73282ffe9c4b41f651bf21b406bc6aca97bbe640b8bb96827eddf553a6564736f6c63430008140033",
  "linkReferences": {},
  "deployedLinkReferences": {}
}