{
  "_format": "hh-sol-artifact-1",
  "contractName": "OrganLibrary",
  "sourceName": "contracts/libraries/OrganLibrary.sol",
  "abi": [
    {
      "inputs": [
        {
          "internalType": "address",
          "name": "perm",
          "type": "address"
        }
      ],
      "name": "DuplicatePermission",
      "type": "error"
    },
    {
      "inputs": [],
      "name": "LengthMismatch",
      "type": "error"
    },
    {
      "inputs": [
        {
          "internalType": "address",
          "name": "token",
          "type": "address"
        }
      ],
      "name": "SafeERC20FailedOperation",
      "type": "error"
    },
    {
      "inputs": [],
      "name": "ZeroAddress",
      "type": "error"
    },
    {
      "anonymous": false,
      "inputs": [
        {
          "indexed": false,
          "internalType": "address",
          "name": "from",
          "type": "address"
        },
        {
          "indexed": false,
          "internalType": "address",
          "name": "admin",
          "type": "address"
        }
      ],
      "name": "adminUpdated",
      "type": "event"
    },
    {
      "anonymous": false,
      "inputs": [
        {
          "indexed": false,
          "internalType": "address",
          "name": "from",
          "type": "address"
        },
        {
          "indexed": false,
          "internalType": "string",
          "name": "cid",
          "type": "string"
        }
      ],
      "name": "cidUpdated",
      "type": "event"
    },
    {
      "anonymous": false,
      "inputs": [
        {
          "indexed": false,
          "internalType": "address",
          "name": "operator",
          "type": "address"
        },
        {
          "indexed": false,
          "internalType": "address",
          "name": "from",
          "type": "address"
        },
        {
          "indexed": false,
          "internalType": "address",
          "name": "to",
          "type": "address"
        },
        {
          "indexed": false,
          "internalType": "uint256",
          "name": "amount",
          "type": "uint256"
        }
      ],
      "name": "coinsReceived",
      "type": "event"
    },
    {
      "anonymous": false,
      "inputs": [
        {
          "indexed": false,
          "internalType": "address",
          "name": "operator",
          "type": "address"
        },
        {
          "indexed": false,
          "internalType": "address",
          "name": "from",
          "type": "address"
        },
        {
          "indexed": false,
          "internalType": "address",
          "name": "to",
          "type": "address"
        },
        {
          "indexed": false,
          "internalType": "uint256",
          "name": "amount",
          "type": "uint256"
        }
      ],
      "name": "coinsTransferred",
      "type": "event"
    },
    {
      "anonymous": false,
      "inputs": [
        {
          "indexed": false,
          "internalType": "address",
          "name": "operator",
          "type": "address"
        },
        {
          "indexed": false,
          "internalType": "address",
          "name": "from",
          "type": "address"
        },
        {
          "indexed": false,
          "internalType": "uint256",
          "name": "tokenId",
          "type": "uint256"
        }
      ],
      "name": "collectibleReceived",
      "type": "event"
    },
    {
      "anonymous": false,
      "inputs": [
        {
          "indexed": false,
          "internalType": "address",
          "name": "operator",
          "type": "address"
        },
        {
          "indexed": false,
          "internalType": "address",
          "name": "to",
          "type": "address"
        },
        {
          "indexed": false,
          "internalType": "uint256",
          "name": "tokenId",
          "type": "uint256"
        }
      ],
      "name": "collectibleTransferred",
      "type": "event"
    },
    {
      "anonymous": false,
      "inputs": [
        {
          "indexed": false,
          "internalType": "address",
          "name": "from",
          "type": "address"
        },
        {
          "indexed": false,
          "internalType": "uint256",
          "name": "index",
          "type": "uint256"
        },
        {
          "indexed": false,
          "internalType": "address",
          "name": "addr",
          "type": "address"
        },
        {
          "indexed": false,
          "internalType": "string",
          "name": "cid",
          "type": "string"
        }
      ],
      "name": "entryAdded",
      "type": "event"
    },
    {
      "anonymous": false,
      "inputs": [
        {
          "indexed": false,
          "internalType": "address",
          "name": "from",
          "type": "address"
        },
        {
          "indexed": false,
          "internalType": "uint256",
          "name": "index",
          "type": "uint256"
        }
      ],
      "name": "entryRemoved",
      "type": "event"
    },
    {
      "anonymous": false,
      "inputs": [
        {
          "indexed": false,
          "internalType": "address",
          "name": "from",
          "type": "address"
        },
        {
          "indexed": false,
          "internalType": "uint256",
          "name": "amount",
          "type": "uint256"
        }
      ],
      "name": "etherReceived",
      "type": "event"
    },
    {
      "anonymous": false,
      "inputs": [
        {
          "indexed": false,
          "internalType": "address",
          "name": "from",
          "type": "address"
        },
        {
          "indexed": false,
          "internalType": "address",
          "name": "to",
          "type": "address"
        },
        {
          "indexed": false,
          "internalType": "uint256",
          "name": "amount",
          "type": "uint256"
        }
      ],
      "name": "etherTransferred",
      "type": "event"
    },
    {
      "anonymous": false,
      "inputs": [
        {
          "indexed": false,
          "internalType": "address",
          "name": "from",
          "type": "address"
        },
        {
          "indexed": false,
          "internalType": "address",
          "name": "permissionAddress",
          "type": "address"
        },
        {
          "indexed": false,
          "internalType": "bytes2",
          "name": "permissionValue",
          "type": "bytes2"
        }
      ],
      "name": "permissionAdded",
      "type": "event"
    },
    {
      "anonymous": false,
      "inputs": [
        {
          "indexed": false,
          "internalType": "address",
          "name": "from",
          "type": "address"
        },
        {
          "indexed": false,
          "internalType": "address",
          "name": "permissionAddress",
          "type": "address"
        }
      ],
      "name": "permissionRemoved",
      "type": "event"
    },
    {
      "inputs": [],
      "name": "PERMISSION_ADD_ENTRIES",
      "outputs": [
        {
          "internalType": "bytes2",
          "name": "",
          "type": "bytes2"
        }
      ],
      "stateMutability": "view",
      "type": "function"
    },
    {
      "inputs": [],
      "name": "PERMISSION_ADD_PERMISSIONS",
      "outputs": [
        {
          "internalType": "bytes2",
          "name": "",
          "type": "bytes2"
        }
      ],
      "stateMutability": "view",
      "type": "function"
    },
    {
      "inputs": [],
      "name": "PERMISSION_DEPOSIT_COINS",
      "outputs": [
        {
          "internalType": "bytes2",
          "name": "",
          "type": "bytes2"
        }
      ],
      "stateMutability": "view",
      "type": "function"
    },
    {
      "inputs": [],
      "name": "PERMISSION_DEPOSIT_COLLECTIBLES",
      "outputs": [
        {
          "internalType": "bytes2",
          "name": "",
          "type": "bytes2"
        }
      ],
      "stateMutability": "view",
      "type": "function"
    },
    {
      "inputs": [],
      "name": "PERMISSION_DEPOSIT_ETHER",
      "outputs": [
        {
          "internalType": "bytes2",
          "name": "",
          "type": "bytes2"
        }
      ],
      "stateMutability": "view",
      "type": "function"
    },
    {
      "inputs": [],
      "name": "PERMISSION_REMOVE_ENTRIES",
      "outputs": [
        {
          "internalType": "bytes2",
          "name": "",
          "type": "bytes2"
        }
      ],
      "stateMutability": "view",
      "type": "function"
    },
    {
      "inputs": [],
      "name": "PERMISSION_REMOVE_PERMISSIONS",
      "outputs": [
        {
          "internalType": "bytes2",
          "name": "",
          "type": "bytes2"
        }
      ],
      "stateMutability": "view",
      "type": "function"
    },
    {
      "inputs": [],
      "name": "PERMISSION_UPDATE_METADATA",
      "outputs": [
        {
          "internalType": "bytes2",
          "name": "",
          "type": "bytes2"
        }
      ],
      "stateMutability": "view",
      "type": "function"
    },
    {
      "inputs": [],
      "name": "PERMISSION_WITHDRAW_COINS",
      "outputs": [
        {
          "internalType": "bytes2",
          "name": "",
          "type": "bytes2"
        }
      ],
      "stateMutability": "view",
      "type": "function"
    },
    {
      "inputs": [],
      "name": "PERMISSION_WITHDRAW_COLLECTIBLES",
      "outputs": [
        {
          "internalType": "bytes2",
          "name": "",
          "type": "bytes2"
        }
      ],
      "stateMutability": "view",
      "type": "function"
    },
    {
      "inputs": [],
      "name": "PERMISSION_WITHDRAW_ETHER",
      "outputs": [
        {
          "internalType": "bytes2",
          "name": "",
          "type": "bytes2"
        }
      ],
      "stateMutability": "view",
      "type": "function"
    }
  ],
  "bytecode": "0x6126df61003a600b82828239805160001a60731461002d57634e487b7160e01b600052600060045260246000fd5b30600052607381538281f3fe73000000000000000000000000000000000000000030146080604052600436106101535760003560e01c8063051488a8146101585780630806feeb14610181578063110ee176146101bc5780631ceaa38a146101de5780631fb1b395146101fe5780632d2a4205146102095780633b1a16cf146102145780634227d1741461021f57806350be2a0d1461023f578063593528591461025f5780636337a8d514610280578063772fc60d1461028b5780638114cbea14610296578063842519fb146102a157806386cfbc37146102ac5780638841ebca146102cc57806388c7fc54146102ec5780638a8b325a146102f75780638d6ee7601461031757806392023c47146103225780639710d18114610342578063b0bd74a41461034d578063bfbb1b1f1461036d578063c93038141461039a578063dd67b856146103ba578063e382527f146103da578063f86f03e8146103fa575b600080fd5b610163600160f81b81565b6040516001600160f01b031990911681526020015b60405180910390f35b61019461018f366004611b11565b61040d565b604080516001600160a01b0390931683526001600160f01b0319909116602083015201610178565b8180156101c857600080fd5b506101dc6101d7366004611b4f565b610447565b005b8180156101ea57600080fd5b506101dc6101f9366004611b8b565b61054f565b610163600160f11b81565b610163600160f51b81565b610163600160fa1b81565b81801561022b57600080fd5b506101dc61023a366004611c95565b61061f565b81801561024b57600080fd5b506101dc61025a366004611b8b565b6106d1565b61027261026d366004611b11565b6107db565b604051908152602001610178565b610163600160f31b81565b610163600160f01b81565b610163600160f41b81565b610163600160f91b81565b8180156102b857600080fd5b506102726102c7366004611cfa565b610809565b8180156102d857600080fd5b506101dc6102e7366004611ed0565b61093e565b610163600160f61b81565b81801561030357600080fd5b506101dc610312366004611fe4565b610c7b565b610163600160f21b81565b81801561032e57600080fd5b506101dc61033d366004612028565b610d34565b610163600160f71b81565b81801561035957600080fd5b506101dc610368366004611b8b565b610f94565b81801561037957600080fd5b5061038d61038836600461207d565b61103e565b60405161017891906120bb565b8180156103a657600080fd5b506101dc6103b53660046120ff565b61139f565b8180156103c657600080fd5b506101dc6103d53660046121a2565b61156a565b8180156103e657600080fd5b506101dc6103f53660046121ce565b611610565b61027261040836600461222c565b611807565b60008061041d6003850184611815565b6001600160a01b038116600090815260058601602052604090205490925060f01b90509250929050565b6001600160a01b03811660009081526005840160205260409020548390600160f11b90839060f01b82168214806104a05750600080805260058401602052604090205460f01b82166001600160f01b0319908116908316145b6104c55760405162461bcd60e51b81526004016104bc90612245565b60405180910390fd5b6104d26003870186611828565b6104ee5760405162461bcd60e51b81526004016104bc9061226e565b6104fb600387018661183d565b506001600160a01b038516600090815260058701602052604090819020805461ffff191690555160008051602061266a8339815191529061053f9086908890612299565b60405180910390a1505050505050565b6001600160a01b03831660009081526005860160205260409020548590600160f81b90859060f01b82168214806105a85750600080805260058401602052604090205460f01b82166001600160f01b0319908116908316145b6105c45760405162461bcd60e51b81526004016104bc90612245565b6105d86001600160a01b0388168686611852565b7f9df0034edd0538407262676cf5883fee08c9655adc9aa709deaf4d58fc3946e88630878760405161060d94939291906122b3565b60405180910390a15050505050505050565b6001600160a01b03811660009081526005840160205260409020548390600160f41b90839060f01b82168214806106785750600080805260058401602052604090205460f01b82166001600160f01b0319908116908316145b6106945760405162461bcd60e51b81526004016104bc90612245565b8561069f868261235d565b507fa991ce5b410db3ebc88a3442f64764e791b0d8ca9a9380a81f6c626e1949923e848660405161053f929190612462565b6001600160a01b03831660009081526005860160205260409020548590600160fa1b90859060f01b821682148061072a5750600080805260058401602052604090205460f01b82166001600160f01b0319908116908316145b6107465760405162461bcd60e51b81526004016104bc90612245565b604051632142170760e11b81526001600160a01b038816906342842e0e906107769030908990899060040161248e565b600060405180830381600087803b15801561079057600080fd5b505af11580156107a4573d6000803e3d6000fd5b505050507f8e804bbf6f6b1556cf1371c58fce001012969e584497e633a931750c479c70a786868660405161060d9392919061248e565b60008260010182815481106107f2576107f26124b2565b906000526020600020906002020190505b92915050565b6001600160a01b03811660009081526005850160205260408120548590600160f01b90849060f01b82168214806108625750600080805260058401602052604090205460f01b82166001600160f01b0319908116908316145b61087e5760405162461bcd60e51b81526004016104bc90612245565b61088b6003890188611828565b156108a85760405162461bcd60e51b81526004016104bc906124c8565b6001600160f01b031986166000036108d25760405162461bcd60e51b81526004016104bc906124f3565b6108df60038901886118af565b506001600160a01b038716600090815260058901602052604090819020805461ffff191660f089901c1790555160008051602061268a8339815191529061092b9087908a908a90612523565b60405180910390a1505050949350505050565b84610949838261235d565b5060408051808201825260008082528251602080820190945281815283830190815260018981018054808301825590845294909220835160029095020180546001600160a01b0319166001600160a01b0390951694909417845551919291908201906109b5908261235d565b50505082518451146109dd576040516001621398b960e31b0319815260040160405180910390fd5b60005b8451811015610ac55760008582815181106109fd576109fd6124b2565b6020026020010151905060006001600160a01b0316816001600160a01b031603610a3a5760405163d92e233d60e01b815260040160405180910390fd5b610a4760038801826118af565b610a66578060405163121ba96d60e31b81526004016104bc9190612550565b848281518110610a7857610a786124b2565b6020908102919091018101516001600160a01b039290921660009081526005890190915260409020805461ffff191660f09290921c91909117905580610abd8161257a565b9150506109e0565b5060005b8151811015610c735760006001600160a01b0316828281518110610aef57610aef6124b2565b6020026020010151600001516001600160a01b031614610b6d57856006016000838381518110610b2157610b216124b2565b6020026020010151600001516001600160a01b03166001600160a01b0316815260200190815260200160002054600014610b6d5760405162461bcd60e51b81526004016104bc906124c8565b85600101828281518110610b8357610b836124b2565b602090810291909101810151825460018082018555600094855293839020825160029092020180546001600160a01b0319166001600160a01b03909216919091178155918101519092820190610bd9908261235d565b50505060006001600160a01b0316828281518110610bf957610bf96124b2565b6020026020010151600001516001600160a01b031614610c6157600186810154610c239190612593565b866006016000848481518110610c3b57610c3b6124b2565b602090810291909101810151516001600160a01b03168252810191909152604001600020555b80610c6b8161257a565b915050610ac9565b505050505050565b6001600160a01b03821660009081526005850160205260409020548490600160f91b90849060f01b8216821480610cd45750600080805260058401602052604090205460f01b82166001600160f01b0319908116908316145b610cf05760405162461bcd60e51b81526004016104bc90612245565b7fe5e97c239ef97530361e497f81ff5c1271fd4ea83a1876459ace5eea3e428fac868686604051610d239392919061248e565b60405180910390a150505050505050565b6001600160a01b03811660009081526005850160205260409020548490600160f31b90839060f01b8216821480610d8d5750600080805260058401602052604090205460f01b82166001600160f01b0319908116908316145b610da95760405162461bcd60e51b81526004016104bc90612245565b6001600160a01b03841660009081526005880160205260409020548790600160f21b90869060f01b8216821480610e025750600080805260058401602052604090205460f01b82166001600160f01b0319908116908316145b610e1e5760405162461bcd60e51b81526004016104bc90612245565b87516001600160a01b031615610e665787516001600160a01b0316600090815260068b016020526040902054610e665760405162461bcd60e51b81526004016104bc9061226e565b60008a60060160008c6001018c81548110610e8357610e836124b2565b600091825260208083206002909202909101546001600160a01b031683528201929092526040908101909120919091555160008051602061262a83398151915290610ed19089908c906125a6565b60405180910390a1878a6001018a81548110610eef57610eef6124b2565b600091825260209182902083516002929092020180546001600160a01b0319166001600160a01b03909216919091178155908201516001820190610f33908261235d565b505088516001600160a01b0316600090815260068c0160209081526040918290208c90558a51908b0151915160008051602061264a8339815191529350610f80928b928e929091906125bf565b60405180910390a150505050505050505050565b6001600160a01b03831660009081526005860160205260409020548590600160f71b90859060f01b8216821480610fed5750600080805260058401602052604090205460f01b82166001600160f01b0319908116908316145b6110095760405162461bcd60e51b81526004016104bc90612245565b7f2cd05e0dd8d1973240403d6f7b5af34f709ea79a0f5199fcc9ebc4102919fd408787878760405161060d94939291906122b3565b6001600160a01b03811660009081526005840160205260409020546060908490600160f21b90849060f01b821682148061109a5750600080805260058401602052604090205460f01b82166001600160f01b0319908116908316145b6110b65760405162461bcd60e51b81526004016104bc90612245565b60008651116110ff5760405162461bcd60e51b815260206004820152601560248201527427379032b73a3934b2b99039b832b1b4b334b2b21760591b60448201526064016104bc565b85516001600160401b0381111561111857611118611be0565b604051908082528060200260200182016040528015611141578160200160208202803683370190505b50935060005b86518110156113945760006001600160a01b031687828151811061116d5761116d6124b2565b6020026020010151600001516001600160a01b0316146111eb5787600601600088838151811061119f5761119f6124b2565b6020026020010151600001516001600160a01b03166001600160a01b03168152602001908152602001600020546000146111eb5760405162461bcd60e51b81526004016104bc906124c8565b87600101878281518110611201576112016124b2565b602090810291909101810151825460018082018555600094855293839020825160029092020180546001600160a01b0319166001600160a01b03909216919091178155918101519092820190611257908261235d565b50505060018881015461126a9190612593565b85828151811061127c5761127c6124b2565b60200260200101818152505084818151811061129a5761129a6124b2565b60200260200101518860060160008984815181106112ba576112ba6124b2565b6020026020010151600001516001600160a01b03166001600160a01b03168152602001908152602001600020819055508760020160008154809291906112ff9061257a565b919050555060008051602061264a83398151915286868381518110611326576113266124b2565b6020026020010151898481518110611340576113406124b2565b6020026020010151600001518a858151811061135e5761135e6124b2565b60200260200101516020015160405161137a94939291906125bf565b60405180910390a18061138c8161257a565b915050611147565b505050509392505050565b6001600160a01b03811660009081526005840160205260409020548390600160f31b90839060f01b82168214806113f85750600080805260058401602052604090205460f01b82166001600160f01b0319908116908316145b6114145760405162461bcd60e51b81526004016104bc90612245565b60005b855181101561156157600087600101878381518110611438576114386124b2565b602002602001015181548110611450576114506124b2565b600091825260209091206002909102015487516001600160a01b0390911691506001890190889084908110611487576114876124b2565b60200260200101518154811061149f5761149f6124b2565b60009182526020822060029091020180546001600160a01b0319168155906114ca6001830182611abb565b50506002880180549060006114de836125fc565b90915550506001600160a01b0381161561150e576001600160a01b03811660009081526006890160205260408120555b60008051602061262a83398151915286888481518110611530576115306124b2565b60200260200101516040516115469291906125a6565b60405180910390a150806115598161257a565b915050611417565b50505050505050565b6001600160a01b03811660009081526005840160205260409020548390600160f51b90839060f01b82168214806115c35750600080805260058401602052604090205460f01b82166001600160f01b0319908116908316145b6115df5760405162461bcd60e51b81526004016104bc90612245565b7fcbbd8e1693c80baea4b26f9f5b28e2fea72633c6953e2dc612f123c5b8cf9d49848660405161053f9291906125a6565b6001600160a01b03811660009081526005860160205260409020548590600160f11b90839060f01b82168214806116695750600080805260058401602052604090205460f01b82166001600160f01b0319908116908316145b6116855760405162461bcd60e51b81526004016104bc90612245565b6001600160a01b03841660009081526005890160205260409020548890600160f01b90869060f01b82168214806116de5750600080805260058401602052604090205460f01b82166001600160f01b0319908116908316145b6116fa5760405162461bcd60e51b81526004016104bc90612245565b61170760038c018b611828565b6117235760405162461bcd60e51b81526004016104bc9061226e565b6001600160f01b0319881661174a5760405162461bcd60e51b81526004016104bc906124f3565b886001600160a01b03168a6001600160a01b0316146117805761176f8b8a8a8a610809565b5061177b8b8b89610447565b6117aa565b6001600160a01b038916600090815260058c0160205260409020805461ffff191660f08a901c1790555b60008051602061266a833981519152878b6040516117c9929190612299565b60405180910390a160008051602061268a833981519152878a8a6040516117f293929190612523565b60405180910390a15050505050505050505050565b6000610803826003016118c4565b600061182183836118ce565b9392505050565b6000611821836001600160a01b0384166118f8565b6000611821836001600160a01b038416611910565b6118aa83846001600160a01b031663a9059cbb85856040516024016118789291906125a6565b604051602081830303815290604052915060e01b6020820180516001600160e01b038381831617835250505050611a03565b505050565b6000611821836001600160a01b038416611a71565b6000610803825490565b60008260000182815481106118e5576118e56124b2565b9060005260206000200154905092915050565b60009081526001919091016020526040902054151590565b600081815260018301602052604081205480156119f9576000611934600183612593565b855490915060009061194890600190612593565b90508082146119ad576000866000018281548110611968576119686124b2565b906000526020600020015490508087600001848154811061198b5761198b6124b2565b6000918252602080832090910192909255918252600188019052604090208390555b85548690806119be576119be612613565b600190038181906000526020600020016000905590558560010160008681526020019081526020016000206000905560019350505050610803565b6000915050610803565b600080602060008451602086016000885af180611a26576040513d6000823e3d81fd5b50506000513d91508115611a3e578060011415611a4b565b6001600160a01b0384163b155b15611a6b5783604051635274afe760e01b81526004016104bc9190612550565b50505050565b6000611a7d83836118f8565b611ab357508154600181810184556000848152602080822090930184905584548482528286019093526040902091909155610803565b506000610803565b508054611ac7906122dd565b6000825580601f10611ad7575050565b601f016020900490600052602060002090810190611af59190611af8565b50565b5b80821115611b0d5760008155600101611af9565b5090565b60008060408385031215611b2457600080fd5b50508035926020909101359150565b80356001600160a01b0381168114611b4a57600080fd5b919050565b600080600060608486031215611b6457600080fd5b83359250611b7460208501611b33565b9150611b8260408501611b33565b90509250925092565b600080600080600060a08688031215611ba357600080fd5b85359450611bb360208701611b33565b9350611bc160408701611b33565b9250611bcf60608701611b33565b949793965091946080013592915050565b634e487b7160e01b600052604160045260246000fd5b604051601f8201601f191681016001600160401b0381118282101715611c1e57611c1e611be0565b604052919050565b600082601f830112611c3757600080fd5b81356001600160401b03811115611c5057611c50611be0565b611c63601f8201601f1916602001611bf6565b818152846020838601011115611c7857600080fd5b816020850160208301376000918101602001919091529392505050565b600080600060608486031215611caa57600080fd5b8335925060208401356001600160401b03811115611cc757600080fd5b611cd386828701611c26565b925050611b8260408501611b33565b80356001600160f01b031981168114611b4a57600080fd5b60008060008060808587031215611d1057600080fd5b84359350611d2060208601611b33565b9250611d2e60408601611ce2565b9150611d3c60608601611b33565b905092959194509250565b60006001600160401b03821115611d6057611d60611be0565b5060051b60200190565b600082601f830112611d7b57600080fd5b81356020611d90611d8b83611d47565b611bf6565b82815260059290921b84018101918181019086841115611daf57600080fd5b8286015b84811015611dd157611dc481611ce2565b8352918301918301611db3565b509695505050505050565b600060408284031215611dee57600080fd5b604080519081016001600160401b038082118383101715611e1157611e11611be0565b81604052829350611e2185611b33565b83526020850135915080821115611e3757600080fd5b50611e4485828601611c26565b6020830152505092915050565b600082601f830112611e6257600080fd5b81356020611e72611d8b83611d47565b82815260059290921b84018101918181019086841115611e9157600080fd5b8286015b84811015611dd15780356001600160401b03811115611eb45760008081fd5b611ec28986838b0101611ddc565b845250918301918301611e95565b600080600080600060a08688031215611ee857600080fd5b853594506020808701356001600160401b0380821115611f0757600080fd5b818901915089601f830112611f1b57600080fd5b8135611f29611d8b82611d47565b81815260059190911b8301840190848101908c831115611f4857600080fd5b938501935b82851015611f6d57611f5e85611b33565b82529385019390850190611f4d565b985050506040890135925080831115611f8557600080fd5b611f918a848b01611d6a565b95506060890135925080831115611fa757600080fd5b611fb38a848b01611c26565b94506080890135925080831115611fc957600080fd5b5050611fd788828901611e51565b9150509295509295909350565b60008060008060808587031215611ffa57600080fd5b8435935061200a60208601611b33565b925061201860408601611b33565b9396929550929360600135925050565b6000806000806080858703121561203e57600080fd5b843593506020850135925060408501356001600160401b0381111561206257600080fd5b61206e87828801611ddc565b925050611d3c60608601611b33565b60008060006060848603121561209257600080fd5b8335925060208401356001600160401b038111156120af57600080fd5b611cd386828701611e51565b6020808252825182820181905260009190848201906040850190845b818110156120f3578351835292840192918401916001016120d7565b50909695505050505050565b60008060006060848603121561211457600080fd5b833592506020808501356001600160401b0381111561213257600080fd5b8501601f8101871361214357600080fd5b8035612151611d8b82611d47565b81815260059190911b8201830190838101908983111561217057600080fd5b928401925b8284101561218e57833582529284019290840190612175565b8096505050505050611b8260408501611b33565b6000806000606084860312156121b757600080fd5b8335925060208401359150611b8260408501611b33565b600080600080600060a086880312156121e657600080fd5b853594506121f660208701611b33565b935061220460408701611b33565b925061221260608701611ce2565b915061222060808701611b33565b90509295509295909350565b60006020828403121561223e57600080fd5b5035919050565b6020808252600f908201526e2737ba1030baba3437b934bd32b21760891b604082015260600190565b6020808252601190820152702932b1b7b932103737ba103337bab7321760791b604082015260600190565b6001600160a01b0392831681529116602082015260400190565b6001600160a01b039485168152928416602084015292166040820152606081019190915260800190565b600181811c908216806122f157607f821691505b60208210810361231157634e487b7160e01b600052602260045260246000fd5b50919050565b601f8211156118aa57600081815260208120601f850160051c8101602086101561233e5750805b601f850160051c820191505b81811015610c735782815560010161234a565b81516001600160401b0381111561237657612376611be0565b61238a8161238484546122dd565b84612317565b602080601f8311600181146123bf57600084156123a75750858301515b600019600386901b1c1916600185901b178555610c73565b600085815260208120601f198616915b828110156123ee578886015182559484019460019091019084016123cf565b508582101561240c5787850151600019600388901b60f8161c191681555b5050505050600190811b01905550565b6000815180845260005b8181101561244257602081850181015186830182015201612426565b506000602082860101526020601f19601f83011685010191505092915050565b6001600160a01b03831681526040602082018190526000906124869083018461241c565b949350505050565b6001600160a01b039384168152919092166020820152604081019190915260600190565b634e487b7160e01b600052603260045260246000fd5b602080825260119082015270223ab83634b1b0ba32903932b1b7b9321760791b604082015260600190565b6020808252601690820152752bb937b733903832b936b4b9b9b4b7b7399039b2ba1760511b604082015260600190565b6001600160a01b0393841681529190921660208201526001600160f01b0319909116604082015260600190565b6001600160a01b0391909116815260200190565b634e487b7160e01b600052601160045260246000fd5b60006001820161258c5761258c612564565b5060010190565b8181038181111561080357610803612564565b6001600160a01b03929092168252602082015260400190565b6001600160a01b03858116825260208201859052831660408201526080606082018190526000906125f29083018461241c565b9695505050505050565b60008161260b5761260b612564565b506000190190565b634e487b7160e01b600052603160045260246000fdfeb66f1ae02a95bcbfd5cb608041f8225a5fd4bda29310bd2541e95c1c8ff04d785003f7799863596cac1c738a57d5e036c06baf264d77bb9db675e9c04ba9105fbe2a634ad03af64b8a91137ccfe541ebc6fea80466d963cc9a78e33fe9d0a62902c07877f12bed8130e26bfbf6bd55d600d60c2b2efef277dffbfa969e1be780a26469706673582212208f471c8d90eb49f113754f08071b66a257041f22c7f8bc770bc93501bf0552c364736f6c63430008140033",
  "linkReferences": {},
  "deployedLinkReferences": {}
}