{
  "_format": "hh-sol-artifact-1",
  "contractName": "Organ",
  "sourceName": "contracts/Organ.sol",
  "abi": [
    {
      "inputs": [],
      "stateMutability": "nonpayable",
      "type": "constructor"
    },
    {
      "inputs": [],
      "name": "InvalidInitialization",
      "type": "error"
    },
    {
      "inputs": [],
      "name": "NotInitializing",
      "type": "error"
    },
    {
      "anonymous": false,
      "inputs": [
        {
          "indexed": false,
          "internalType": "uint64",
          "name": "version",
          "type": "uint64"
        }
      ],
      "name": "Initialized",
      "type": "event"
    },
    {
      "inputs": [
        {
          "components": [
            {
              "internalType": "address",
              "name": "addr",
              "type": "address"
            },
            {
              "internalType": "string",
              "name": "cid",
              "type": "string"
            }
          ],
          "internalType": "struct CoreLibrary.Entry[]",
          "name": "entries",
          "type": "tuple[]"
        }
      ],
      "name": "addEntries",
      "outputs": [
        {
          "internalType": "uint256[]",
          "name": "indexes",
          "type": "uint256[]"
        }
      ],
      "stateMutability": "nonpayable",
      "type": "function"
    },
    {
      "inputs": [
        {
          "internalType": "address",
          "name": "procedure",
          "type": "address"
        },
        {
          "internalType": "bytes2",
          "name": "permissions",
          "type": "bytes2"
        }
      ],
      "name": "addProcedure",
      "outputs": [],
      "stateMutability": "nonpayable",
      "type": "function"
    },
    {
      "inputs": [
        {
          "internalType": "uint256",
          "name": "index",
          "type": "uint256"
        }
      ],
      "name": "getEntry",
      "outputs": [
        {
          "components": [
            {
              "internalType": "address",
              "name": "addr",
              "type": "address"
            },
            {
              "internalType": "string",
              "name": "cid",
              "type": "string"
            }
          ],
          "internalType": "struct CoreLibrary.Entry",
          "name": "entry",
          "type": "tuple"
        }
      ],
      "stateMutability": "view",
      "type": "function"
    },
    {
      "inputs": [
        {
          "internalType": "address",
          "name": "addr",
          "type": "address"
        }
      ],
      "name": "getEntryIndexForAddress",
      "outputs": [
        {
          "internalType": "uint256",
          "name": "index",
          "type": "uint256"
        }
      ],
      "stateMutability": "view",
      "type": "function"
    },
    {
      "inputs": [],
      "name": "getOrgan",
      "outputs": [
        {
          "internalType": "string",
          "name": "cid",
          "type": "string"
        },
        {
          "internalType": "uint256",
          "name": "proceduresLength",
          "type": "uint256"
        },
        {
          "internalType": "uint256",
          "name": "entriesLength",
          "type": "uint256"
        },
        {
          "internalType": "uint256",
          "name": "entriesCount",
          "type": "uint256"
        },
        {
          "internalType": "bytes4",
          "name": "interfaceId",
          "type": "bytes4"
        }
      ],
      "stateMutability": "view",
      "type": "function"
    },
    {
      "inputs": [
        {
          "internalType": "address",
          "name": "addr",
          "type": "address"
        }
      ],
      "name": "getPermissions",
      "outputs": [
        {
          "internalType": "bytes2",
          "name": "perms",
          "type": "bytes2"
        }
      ],
      "stateMutability": "view",
      "type": "function"
    },
    {
      "inputs": [
        {
          "internalType": "uint256",
          "name": "index",
          "type": "uint256"
        }
      ],
      "name": "getProcedure",
      "outputs": [
        {
          "internalType": "address",
          "name": "addr",
          "type": "address"
        },
        {
          "internalType": "bytes2",
          "name": "perms",
          "type": "bytes2"
        }
      ],
      "stateMutability": "view",
      "type": "function"
    },
    {
      "inputs": [
        {
          "internalType": "address payable",
          "name": "admin",
          "type": "address"
        },
        {
          "internalType": "string",
          "name": "cid",
          "type": "string"
        },
        {
          "internalType": "address",
          "name": "forwarder",
          "type": "address"
        }
      ],
      "name": "initialize",
      "outputs": [],
      "stateMutability": "nonpayable",
      "type": "function"
    },
    {
      "inputs": [
        {
          "internalType": "address",
          "name": "forwarder",
          "type": "address"
        }
      ],
      "name": "isTrustedForwarder",
      "outputs": [
        {
          "internalType": "bool",
          "name": "",
          "type": "bool"
        }
      ],
      "stateMutability": "view",
      "type": "function"
    },
    {
      "inputs": [
        {
          "internalType": "address",
          "name": "",
          "type": "address"
        },
        {
          "internalType": "address",
          "name": "",
          "type": "address"
        },
        {
          "internalType": "uint256[]",
          "name": "",
          "type": "uint256[]"
        },
        {
          "internalType": "uint256[]",
          "name": "",
          "type": "uint256[]"
        },
        {
          "internalType": "bytes",
          "name": "",
          "type": "bytes"
        }
      ],
      "name": "onERC1155BatchReceived",
      "outputs": [
        {
          "internalType": "bytes4",
          "name": "",
          "type": "bytes4"
        }
      ],
      "stateMutability": "nonpayable",
      "type": "function"
    },
    {
      "inputs": [
        {
          "internalType": "address",
          "name": "",
          "type": "address"
        },
        {
          "internalType": "address",
          "name": "",
          "type": "address"
        },
        {
          "internalType": "uint256",
          "name": "",
          "type": "uint256"
        },
        {
          "internalType": "uint256",
          "name": "",
          "type": "uint256"
        },
        {
          "internalType": "bytes",
          "name": "",
          "type": "bytes"
        }
      ],
      "name": "onERC1155Received",
      "outputs": [
        {
          "internalType": "bytes4",
          "name": "",
          "type": "bytes4"
        }
      ],
      "stateMutability": "nonpayable",
      "type": "function"
    },
    {
      "inputs": [
        {
          "internalType": "address",
          "name": "operator",
          "type": "address"
        },
        {
          "internalType": "address",
          "name": "from",
          "type": "address"
        },
        {
          "internalType": "uint256",
          "name": "tokenId",
          "type": "uint256"
        },
        {
          "internalType": "bytes",
          "name": "",
          "type": "bytes"
        }
      ],
      "name": "onERC721Received",
      "outputs": [
        {
          "internalType": "bytes4",
          "name": "",
          "type": "bytes4"
        }
      ],
      "stateMutability": "nonpayable",
      "type": "function"
    },
    {
      "inputs": [
        {
          "internalType": "uint256[]",
          "name": "indexes",
          "type": "uint256[]"
        }
      ],
      "name": "removeEntries",
      "outputs": [],
      "stateMutability": "nonpayable",
      "type": "function"
    },
    {
      "inputs": [
        {
          "internalType": "address",
          "name": "procedure",
          "type": "address"
        }
      ],
      "name": "removeProcedure",
      "outputs": [],
      "stateMutability": "nonpayable",
      "type": "function"
    },
    {
      "inputs": [
        {
          "internalType": "uint256",
          "name": "index",
          "type": "uint256"
        },
        {
          "components": [
            {
              "internalType": "address",
              "name": "addr",
              "type": "address"
            },
            {
              "internalType": "string",
              "name": "cid",
              "type": "string"
            }
          ],
          "internalType": "struct CoreLibrary.Entry",
          "name": "entry",
          "type": "tuple"
        }
      ],
      "name": "replaceEntry",
      "outputs": [],
      "stateMutability": "nonpayable",
      "type": "function"
    },
    {
      "inputs": [
        {
          "internalType": "address",
          "name": "oldProcedure",
          "type": "address"
        },
        {
          "internalType": "address",
          "name": "newProcedure",
          "type": "address"
        },
        {
          "internalType": "bytes2",
          "name": "permissions",
          "type": "bytes2"
        }
      ],
      "name": "replaceProcedure",
      "outputs": [],
      "stateMutability": "nonpayable",
      "type": "function"
    },
    {
      "inputs": [
        {
          "internalType": "bytes4",
          "name": "interfaceId",
          "type": "bytes4"
        }
      ],
      "name": "supportsInterface",
      "outputs": [
        {
          "internalType": "bool",
          "name": "",
          "type": "bool"
        }
      ],
      "stateMutability": "view",
      "type": "function"
    },
    {
      "inputs": [
        {
          "internalType": "address",
          "name": "operator",
          "type": "address"
        },
        {
          "internalType": "address",
          "name": "from",
          "type": "address"
        },
        {
          "internalType": "address",
          "name": "to",
          "type": "address"
        },
        {
          "internalType": "uint256",
          "name": "amount",
          "type": "uint256"
        },
        {
          "internalType": "bytes",
          "name": "",
          "type": "bytes"
        },
        {
          "internalType": "bytes",
          "name": "",
          "type": "bytes"
        }
      ],
      "name": "tokensReceived",
      "outputs": [],
      "stateMutability": "nonpayable",
      "type": "function"
    },
    {
      "inputs": [
        {
          "internalType": "address",
          "name": "operator",
          "type": "address"
        },
        {
          "internalType": "address",
          "name": "from",
          "type": "address"
        },
        {
          "internalType": "address",
          "name": "to",
          "type": "address"
        },
        {
          "internalType": "uint256",
          "name": "amount",
          "type": "uint256"
        },
        {
          "internalType": "bytes",
          "name": "",
          "type": "bytes"
        },
        {
          "internalType": "bytes",
          "name": "",
          "type": "bytes"
        }
      ],
      "name": "tokensToSend",
      "outputs": [],
      "stateMutability": "nonpayable",
      "type": "function"
    },
    {
      "inputs": [
        {
          "internalType": "address payable",
          "name": "to",
          "type": "address"
        },
        {
          "internalType": "uint256",
          "name": "value",
          "type": "uint256"
        }
      ],
      "name": "transfer",
      "outputs": [],
      "stateMutability": "nonpayable",
      "type": "function"
    },
    {
      "inputs": [
        {
          "internalType": "address",
          "name": "token",
          "type": "address"
        },
        {
          "internalType": "address",
          "name": "from",
          "type": "address"
        },
        {
          "internalType": "address",
          "name": "to",
          "type": "address"
        },
        {
          "internalType": "uint256",
          "name": "amount",
          "type": "uint256"
        }
      ],
      "name": "transferCoins",
      "outputs": [],
      "stateMutability": "nonpayable",
      "type": "function"
    },
    {
      "inputs": [
        {
          "internalType": "address",
          "name": "token",
          "type": "address"
        },
        {
          "internalType": "address",
          "name": "from",
          "type": "address"
        },
        {
          "internalType": "address",
          "name": "to",
          "type": "address"
        },
        {
          "internalType": "uint256",
          "name": "tokenId",
          "type": "uint256"
        }
      ],
      "name": "transferCollectible",
      "outputs": [],
      "stateMutability": "nonpayable",
      "type": "function"
    },
    {
      "inputs": [],
      "name": "trustedForwarder",
      "outputs": [
        {
          "internalType": "address",
          "name": "",
          "type": "address"
        }
      ],
      "stateMutability": "view",
      "type": "function"
    },
    {
      "inputs": [
        {
          "internalType": "string",
          "name": "cid",
          "type": "string"
        }
      ],
      "name": "updateCid",
      "outputs": [],
      "stateMutability": "nonpayable",
      "type": "function"
    },
    {
      "stateMutability": "payable",
      "type": "receive"
    }
  ],
  "bytecode": "0x608060405234801561001057600080fd5b5061001961001e565b6100d0565b7ff0c57e16840df040f15088dc2f81fe391c3923bec73e23a9662efc9c229c6a00805468010000000000000000900460ff161561006e5760405163f92ee8a960e01b815260040160405180910390fd5b80546001600160401b03908116146100cd5780546001600160401b0319166001600160401b0390811782556040519081527fc7f505b2f371ae2175ee4913f4499e1f2633a7b5936321eed1cdaeb6115181d29060200160405180910390a15b50565b611d3c806100df6000396000f3fe60806040526004361061011e5760003560e01c806223de29146101b057806301ffc9a7146101d0578063150b7a0214610205578063160a79251461023e57806319b9404c146102905780632f2bf18e146102b0578063572b6c05146102f4578063685b3cb51461031457806375ab97821461033a5780637615eb811461035a5780637bb7c0d81461037a5780637da0a8771461039a5780637f0a4e27146103c2578063a9059cbb146103e2578063bae78d7b14610402578063bc197c811461042f578063bdb3e1c41461045b578063d0922d4a1461047b578063d28fbf0a1461049b578063d610b570146104e3578063dcf4896314610510578063f03f542b14610530578063f23a6e6114610550578063f49b58481461057c57600080fd5b366101ab5773__$eade74fbb29c82369931f57fe28cd62d78$__63dd67b85660013461014861059c565b6040516001600160e01b031960e086901b168152600481019390935260248301919091526001600160a01b0316604482015260640160006040518083038186803b15801561019557600080fd5b505af41580156101a9573d6000803e3d6000fd5b005b600080fd5b3480156101bc57600080fd5b506101a96101cb36600461117a565b6105e4565b3480156101dc57600080fd5b506101f06101eb36600461122a565b61065e565b60405190151581526020015b60405180910390f35b34801561021157600080fd5b50610225610220366004611310565b610700565b6040516001600160e01b031990911681526020016101fc565b34801561024a57600080fd5b5061027761025936600461137b565b6001600160a01b031660009081526006602052604090205460f01b90565b6040516001600160f01b031990911681526020016101fc565b34801561029c57600080fd5b506101a96102ab36600461137b565b610795565b3480156102bc57600080fd5b506102e66102cb36600461137b565b6001600160a01b031660009081526007602052604090205490565b6040519081526020016101fc565b34801561030057600080fd5b506101f061030f36600461137b565b610823565b34801561032057600080fd5b50610329610837565b6040516101fc9594939291906113de565b34801561034657600080fd5b506101a961035536600461117a565b610966565b34801561036657600080fd5b506101a96103753660046114ad565b6109a6565b34801561038657600080fd5b506101a96103953660046114e9565b6109e9565b3480156103a657600080fd5b506000546040516001600160a01b0390911681526020016101fc565b3480156103ce57600080fd5b506101a96103dd366004611562565b610b71565b3480156103ee57600080fd5b506101a96103fd36600461159b565b610c23565b34801561040e57600080fd5b5061042261041d3660046115c7565b610cbb565b6040516101fc91906115e0565b34801561043b57600080fd5b5061022561044a36600461160d565b63bc197c8160e01b95945050505050565b34801561046757600080fd5b506101a96104763660046116ba565b610e01565b34801561048757600080fd5b506101a961049636600461170b565b610e6d565b3480156104a757600080fd5b506104bb6104b63660046115c7565b610f15565b604080516001600160a01b0390931683526001600160f01b03199091166020830152016101fc565b3480156104ef57600080fd5b506105036104fe3660046117c4565b610f9d565b6040516101fc9190611874565b34801561051c57600080fd5b506101a961052b3660046118b8565b611027565b34801561053c57600080fd5b506101a961054b3660046118fe565b61106c565b34801561055c57600080fd5b5061022561056b36600461193f565b63f23a6e6160e01b95945050505050565b34801561058857600080fd5b506101a96105973660046116ba565b6110b1565b60003660148082108015906105b557506105b533610823565b156105dc576105c9368284038160006119a7565b6105d2916119d1565b60601c9250505090565b339250505090565b604051632c2f5d2960e21b815273__$eade74fbb29c82369931f57fe28cd62d78$__9063b0bd74a490610624906001908c908c908c908c90600401611a01565b60006040518083038186803b15801561063c57600080fd5b505af4158015610650573d6000803e3d6000fd5b505050505050505050505050565b60006001600160e01b031982166223de2960e01b148061068e57506001600160e01b03198216633ad5cbc160e11b145b806106a957506001600160e01b03198216630a85bd0160e11b145b806106c457506001600160e01b03198216630271189760e51b145b806106df57506001600160e01b0319821663784ae62f60e01b145b806106fa57506301ffc9a760e01b6001600160e01b03198316145b92915050565b604051634545992d60e11b8152600160048201526001600160a01b038086166024830152841660448201526064810183905260009073__$eade74fbb29c82369931f57fe28cd62d78$__90638a8b325a9060840160006040518083038186803b15801561076c57600080fd5b505af4158015610780573d6000803e3d6000fd5b50630a85bd0160e11b98975050505050505050565b73__$eade74fbb29c82369931f57fe28cd62d78$__63b0248ab86001836107ba61059c565b6040516001600160e01b031960e086901b16815260048101939093526001600160a01b0391821660248401521660448201526064015b60006040518083038186803b15801561080857600080fd5b505af415801561081c573d6000803e3d6000fd5b5050505050565b6000546001600160a01b0391821691161490565b604051631948599560e31b815260016004820181905260609160009182918291829173__$eade74fbb29c82369931f57fe28cd62d78$__9063ca42cca890602401602060405180830381865af4158015610895573d6000803e3d6000fd5b505050506040513d601f19601f820116820180604052508101906108b99190611a2f565b600254600354835463784ae62f60e01b9085906108d590611a48565b80601f016020809104026020016040519081016040528092919081815260200182805461090190611a48565b801561094e5780601f106109235761010080835404028352916020019161094e565b820191906000526020600020905b81548152906001019060200180831161093157829003601f168201915b50505050509450945094509450945094509091929394565b604051630e7551c560e11b815273__$eade74fbb29c82369931f57fe28cd62d78$__90631ceaa38a90610624906001908c908c908c908c90600401611a01565b73__$eade74fbb29c82369931f57fe28cd62d78$__63c93038146001836109cb61059c565b6040518463ffffffff1660e01b81526004016107f093929190611a82565b60006109f36110f1565b805490915060ff600160401b82041615906001600160401b0316600081158015610a1a5750825b90506000826001600160401b03166001148015610a365750303b155b905081158015610a44575080155b15610a625760405163f92ee8a960e01b815260040160405180910390fd5b84546001600160401b03191660011785558315610a8b57845460ff60401b1916600160401b1785555b73__$eade74fbb29c82369931f57fe28cd62d78$__636bca3df760018a8a610ab161059c565b6040518563ffffffff1660e01b8152600401610ad09493929190611ae5565b60006040518083038186803b158015610ae857600080fd5b505af4158015610afc573d6000803e3d6000fd5b5050600080546001600160a01b0319166001600160a01b038a1617905550610b219050565b8315610b6757845460ff60401b19168555604051600181527fc7f505b2f371ae2175ee4913f4499e1f2633a7b5936321eed1cdaeb6115181d29060200160405180910390a15b5050505050505050565b73__$eade74fbb29c82369931f57fe28cd62d78$__6324f8b7df60018484610b9761059c565b6040516001600160e01b031960e087901b16815260048101949094526001600160a01b0392831660248501526001600160f01b03199091166044840152166064820152608401602060405180830381865af4158015610bfa573d6000803e3d6000fd5b505050506040513d601f19601f82011682018060405250810190610c1e9190611a2f565b505050565b73__$eade74fbb29c82369931f57fe28cd62d78$__634bc01d1260018484610c4961059c565b6040516001600160e01b031960e087901b16815260048101949094526001600160a01b03928316602485015260448401919091521660648201526084015b60006040518083038186803b158015610c9f57600080fd5b505af4158015610cb3573d6000803e3d6000fd5b505050505050565b60408051808201825260008152606060208201529051635935285960e01b8152600160048201526024810183905273__$eade74fbb29c82369931f57fe28cd62d78$__90635935285990604401602060405180830381865af4158015610d25573d6000803e3d6000fd5b505050506040513d601f19601f82011682018060405250810190610d499190611a2f565b6040805180820190915281546001600160a01b03168152600182018054919291602084019190610d7890611a48565b80601f0160208091040260200160405190810160405280929190818152602001828054610da490611a48565b8015610df15780601f10610dc657610100808354040283529160200191610df1565b820191906000526020600020905b815481529060010190602001808311610dd457829003601f168201915b5050505050815250509050919050565b6040516350be2a0d60e01b815273__$eade74fbb29c82369931f57fe28cd62d78$__906350be2a0d90610e41906001908890889088908890600401611a01565b60006040518083038186803b158015610e5957600080fd5b505af4158015610b67573d6000803e3d6000fd5b73__$eade74fbb29c82369931f57fe28cd62d78$__63ba3ac4866001858585610e9461059c565b6040516001600160e01b031960e088901b16815260048101959095526001600160a01b03938416602486015291831660448501526001600160f01b031916606484015216608482015260a40160006040518083038186803b158015610ef857600080fd5b505af4158015610f0c573d6000803e3d6000fd5b50505050505050565b60405163431f2e8b60e11b81526001600482015260248101829052600090819073__$eade74fbb29c82369931f57fe28cd62d78$__9063863e5d16906044016040805180830381865af4158015610f70573d6000803e3d6000fd5b505050506040513d601f19601f82011682018060405250810190610f949190611b21565b91509150915091565b606073__$eade74fbb29c82369931f57fe28cd62d78$__63bfbb1b1f600184610fc461059c565b6040518463ffffffff1660e01b8152600401610fe293929190611b77565b600060405180830381865af4158015610fff573d6000803e3d6000fd5b505050506040513d6000823e601f3d908101601f191682016040526106fa9190810190611bf5565b73__$eade74fbb29c82369931f57fe28cd62d78$__6392023c476001848461104d61059c565b6040518563ffffffff1660e01b8152600401610c879493929190611c85565b73__$eade74fbb29c82369931f57fe28cd62d78$__634227d1746001848461109261059c565b6040518563ffffffff1660e01b8152600401610c879493929190611cbd565b604051630e7551c560e11b815273__$eade74fbb29c82369931f57fe28cd62d78$__90631ceaa38a90610e41906001908890889088908890600401611a01565b6000807ff0c57e16840df040f15088dc2f81fe391c3923bec73e23a9662efc9c229c6a006106fa565b6001600160a01b038116811461112f57600080fd5b50565b60008083601f84011261114457600080fd5b5081356001600160401b0381111561115b57600080fd5b60208301915083602082850101111561117357600080fd5b9250929050565b60008060008060008060008060c0898b03121561119657600080fd5b88356111a18161111a565b975060208901356111b18161111a565b965060408901356111c18161111a565b95506060890135945060808901356001600160401b03808211156111e457600080fd5b6111f08c838d01611132565b909650945060a08b013591508082111561120957600080fd5b506112168b828c01611132565b999c989b5096995094979396929594505050565b60006020828403121561123c57600080fd5b81356001600160e01b03198116811461125457600080fd5b9392505050565b634e487b7160e01b600052604160045260246000fd5b604051601f8201601f191681016001600160401b03811182821017156112995761129961125b565b604052919050565b600082601f8301126112b257600080fd5b81356001600160401b038111156112cb576112cb61125b565b6112de601f8201601f1916602001611271565b8181528460208386010111156112f357600080fd5b816020850160208301376000918101602001919091529392505050565b6000806000806080858703121561132657600080fd5b84356113318161111a565b935060208501356113418161111a565b92506040850135915060608501356001600160401b0381111561136357600080fd5b61136f878288016112a1565b91505092959194509250565b60006020828403121561138d57600080fd5b81356112548161111a565b6000815180845260005b818110156113be576020818501810151868301820152016113a2565b506000602082860101526020601f19601f83011685010191505092915050565b60a0815260006113f160a0830188611398565b602083019690965250604081019390935260608301919091526001600160e01b031916608090910152919050565b60006001600160401b038211156114385761143861125b565b5060051b60200190565b600082601f83011261145357600080fd5b813560206114686114638361141f565b611271565b82815260059290921b8401810191818101908684111561148757600080fd5b8286015b848110156114a2578035835291830191830161148b565b509695505050505050565b6000602082840312156114bf57600080fd5b81356001600160401b038111156114d557600080fd5b6114e184828501611442565b949350505050565b6000806000606084860312156114fe57600080fd5b83356115098161111a565b925060208401356001600160401b0381111561152457600080fd5b611530868287016112a1565b92505060408401356115418161111a565b809150509250925092565b6001600160f01b03198116811461112f57600080fd5b6000806040838503121561157557600080fd5b82356115808161111a565b915060208301356115908161154c565b809150509250929050565b600080604083850312156115ae57600080fd5b82356115b98161111a565b946020939093013593505050565b6000602082840312156115d957600080fd5b5035919050565b602080825282516001600160a01b0316828201528201516040808301526000906114e16060840182611398565b600080600080600060a0868803121561162557600080fd5b85356116308161111a565b945060208601356116408161111a565b935060408601356001600160401b038082111561165c57600080fd5b61166889838a01611442565b9450606088013591508082111561167e57600080fd5b61168a89838a01611442565b935060808801359150808211156116a057600080fd5b506116ad888289016112a1565b9150509295509295909350565b600080600080608085870312156116d057600080fd5b84356116db8161111a565b935060208501356116eb8161111a565b925060408501356116fb8161111a565b9396929550929360600135925050565b60008060006060848603121561172057600080fd5b833561172b8161111a565b9250602084013561173b8161111a565b915060408401356115418161154c565b60006040828403121561175d57600080fd5b604080519081016001600160401b0380821183831017156117805761178061125b565b81604052829350843591506117948261111a565b908252602084013590808211156117aa57600080fd5b506117b7858286016112a1565b6020830152505092915050565b600060208083850312156117d757600080fd5b82356001600160401b03808211156117ee57600080fd5b818501915085601f83011261180257600080fd5b81356118106114638261141f565b81815260059190911b8301840190848101908883111561182f57600080fd5b8585015b838110156118675780358581111561184b5760008081fd5b6118598b89838a010161174b565b845250918601918601611833565b5098975050505050505050565b6020808252825182820181905260009190848201906040850190845b818110156118ac57835183529284019291840191600101611890565b50909695505050505050565b600080604083850312156118cb57600080fd5b8235915060208301356001600160401b038111156118e857600080fd5b6118f48582860161174b565b9150509250929050565b6000806020838503121561191157600080fd5b82356001600160401b0381111561192757600080fd5b61193385828601611132565b90969095509350505050565b600080600080600060a0868803121561195757600080fd5b85356119628161111a565b945060208601356119728161111a565b9350604086013592506060860135915060808601356001600160401b0381111561199b57600080fd5b6116ad888289016112a1565b600080858511156119b757600080fd5b838611156119c457600080fd5b5050820193919092039150565b6001600160601b031981358181169160148510156119f95780818660140360031b1b83161692505b505092915050565b9485526001600160a01b03938416602086015291831660408501529091166060830152608082015260a00190565b600060208284031215611a4157600080fd5b5051919050565b600181811c90821680611a5c57607f821691505b602082108103611a7c57634e487b7160e01b600052602260045260246000fd5b50919050565b6000606082018583526020606081850152818651808452608086019150828801935060005b81811015611ac357845183529383019391830191600101611aa7565b50506001600160a01b0395909516604094909401939093525091949350505050565b848152600060018060a01b03808616602084015260806040840152611b0d6080840186611398565b915080841660608401525095945050505050565b60008060408385031215611b3457600080fd5b8251611b3f8161111a565b60208401519092506115908161154c565b60018060a01b03815116825260006020820151604060208501526114e16040850182611398565b600060608201858352602060608185015281865180845260808601915060808160051b870101935082880160005b82811015611bd357607f19888703018452611bc1868351611b50565b95509284019290840190600101611ba5565b505050506001600160a01b039490941660409390930192909252509392505050565b60006020808385031215611c0857600080fd5b82516001600160401b03811115611c1e57600080fd5b8301601f81018513611c2f57600080fd5b8051611c3d6114638261141f565b81815260059190911b82018301908381019087831115611c5c57600080fd5b928401925b82841015611c7a57835182529284019290840190611c61565b979650505050505050565b848152836020820152608060408201526000611ca46080830185611b50565b905060018060a01b038316606083015295945050505050565b848152606060208201528260608201528284608083013760008184016080908101919091526001600160a01b03929092166040820152601f909201601f1916909101019291505056fea26469706673582212208b2311817156ba9744b0fa796333e54d13c79d783883d83e0197bdf25c611d7464736f6c63430008140033",
  "linkReferences": {
    "contracts/libraries/OrganLibrary.sol": {
      "OrganLibrary": [
        {
          "length": 20,
          "start": 516
        },
        {
          "length": 20,
          "start": 1746
        },
        {
          "length": 20,
          "start": 2070
        },
        {
          "length": 20,
          "start": 2166
        },
        {
          "length": 20,
          "start": 2362
        },
        {
          "length": 20,
          "start": 2644
        },
        {
          "length": 20,
          "start": 2695
        },
        {
          "length": 20,
          "start": 2924
        },
        {
          "length": 20,
          "start": 3154
        },
        {
          "length": 20,
          "start": 3332
        },
        {
          "length": 20,
          "start": 3530
        },
        {
          "length": 20,
          "start": 3823
        },
        {
          "length": 20,
          "start": 3918
        },
        {
          "length": 20,
          "start": 4118
        },
        {
          "length": 20,
          "start": 4224
        },
        {
          "length": 20,
          "start": 4360
        },
        {
          "length": 20,
          "start": 4429
        },
        {
          "length": 20,
          "start": 4511
        }
      ]
    }
  },
  "deployedLinkReferences": {
    "contracts/libraries/OrganLibrary.sol": {
      "OrganLibrary": [
        {
          "length": 20,
          "start": 293
        },
        {
          "length": 20,
          "start": 1523
        },
        {
          "length": 20,
          "start": 1847
        },
        {
          "length": 20,
          "start": 1943
        },
        {
          "length": 20,
          "start": 2139
        },
        {
          "length": 20,
          "start": 2421
        },
        {
          "length": 20,
          "start": 2472
        },
        {
          "length": 20,
          "start": 2701
        },
        {
          "length": 20,
          "start": 2931
        },
        {
          "length": 20,
          "start": 3109
        },
        {
          "length": 20,
          "start": 3307
        },
        {
          "length": 20,
          "start": 3600
        },
        {
          "length": 20,
          "start": 3695
        },
        {
          "length": 20,
          "start": 3895
        },
        {
          "length": 20,
          "start": 4001
        },
        {
          "length": 20,
          "start": 4137
        },
        {
          "length": 20,
          "start": 4206
        },
        {
          "length": 20,
          "start": 4288
        }
      ]
    }
  }
}