{
  "_format": "hh-sol-artifact-1",
  "contractName": "Organ",
  "sourceName": "contracts/Organ.sol",
  "abi": [
    {
      "inputs": [],
      "stateMutability": "nonpayable",
      "type": "constructor"
    },
    {
      "inputs": [],
      "name": "InvalidInitialization",
      "type": "error"
    },
    {
      "inputs": [],
      "name": "NotInitializing",
      "type": "error"
    },
    {
      "anonymous": false,
      "inputs": [
        {
          "indexed": false,
          "internalType": "uint64",
          "name": "version",
          "type": "uint64"
        }
      ],
      "name": "Initialized",
      "type": "event"
    },
    {
      "inputs": [
        {
          "components": [
            {
              "internalType": "address",
              "name": "addr",
              "type": "address"
            },
            {
              "internalType": "string",
              "name": "cid",
              "type": "string"
            }
          ],
          "internalType": "struct CoreLibrary.Entry[]",
          "name": "entries",
          "type": "tuple[]"
        }
      ],
      "name": "addEntries",
      "outputs": [
        {
          "internalType": "uint256[]",
          "name": "indexes",
          "type": "uint256[]"
        }
      ],
      "stateMutability": "nonpayable",
      "type": "function"
    },
    {
      "inputs": [
        {
          "internalType": "address",
          "name": "procedure",
          "type": "address"
        },
        {
          "internalType": "bytes2",
          "name": "permissions",
          "type": "bytes2"
        }
      ],
      "name": "addProcedure",
      "outputs": [],
      "stateMutability": "nonpayable",
      "type": "function"
    },
    {
      "inputs": [
        {
          "internalType": "uint256",
          "name": "index",
          "type": "uint256"
        }
      ],
      "name": "getEntry",
      "outputs": [
        {
          "components": [
            {
              "internalType": "address",
              "name": "addr",
              "type": "address"
            },
            {
              "internalType": "string",
              "name": "cid",
              "type": "string"
            }
          ],
          "internalType": "struct CoreLibrary.Entry",
          "name": "entry",
          "type": "tuple"
        }
      ],
      "stateMutability": "view",
      "type": "function"
    },
    {
      "inputs": [
        {
          "internalType": "address",
          "name": "addr",
          "type": "address"
        }
      ],
      "name": "getEntryIndexForAddress",
      "outputs": [
        {
          "internalType": "uint256",
          "name": "index",
          "type": "uint256"
        }
      ],
      "stateMutability": "view",
      "type": "function"
    },
    {
      "inputs": [],
      "name": "getOrgan",
      "outputs": [
        {
          "internalType": "string",
          "name": "cid",
          "type": "string"
        },
        {
          "internalType": "uint256",
          "name": "proceduresLength",
          "type": "uint256"
        },
        {
          "internalType": "uint256",
          "name": "entriesLength",
          "type": "uint256"
        },
        {
          "internalType": "uint256",
          "name": "entriesCount",
          "type": "uint256"
        },
        {
          "internalType": "bytes4",
          "name": "interfaceId",
          "type": "bytes4"
        }
      ],
      "stateMutability": "view",
      "type": "function"
    },
    {
      "inputs": [
        {
          "internalType": "address",
          "name": "addr",
          "type": "address"
        }
      ],
      "name": "getPermissions",
      "outputs": [
        {
          "internalType": "bytes2",
          "name": "perms",
          "type": "bytes2"
        }
      ],
      "stateMutability": "view",
      "type": "function"
    },
    {
      "inputs": [
        {
          "internalType": "uint256",
          "name": "index",
          "type": "uint256"
        }
      ],
      "name": "getProcedure",
      "outputs": [
        {
          "internalType": "address",
          "name": "addr",
          "type": "address"
        },
        {
          "internalType": "bytes2",
          "name": "perms",
          "type": "bytes2"
        }
      ],
      "stateMutability": "view",
      "type": "function"
    },
    {
      "inputs": [
        {
          "internalType": "address[]",
          "name": "procedures",
          "type": "address[]"
        },
        {
          "internalType": "bytes2[]",
          "name": "permissions",
          "type": "bytes2[]"
        },
        {
          "internalType": "string",
          "name": "cid",
          "type": "string"
        },
        {
          "internalType": "address",
          "name": "forwarder",
          "type": "address"
        }
      ],
      "name": "initialize",
      "outputs": [],
      "stateMutability": "nonpayable",
      "type": "function"
    },
    {
      "inputs": [
        {
          "internalType": "address",
          "name": "forwarder",
          "type": "address"
        }
      ],
      "name": "isTrustedForwarder",
      "outputs": [
        {
          "internalType": "bool",
          "name": "",
          "type": "bool"
        }
      ],
      "stateMutability": "view",
      "type": "function"
    },
    {
      "inputs": [
        {
          "internalType": "address",
          "name": "",
          "type": "address"
        },
        {
          "internalType": "address",
          "name": "",
          "type": "address"
        },
        {
          "internalType": "uint256[]",
          "name": "",
          "type": "uint256[]"
        },
        {
          "internalType": "uint256[]",
          "name": "",
          "type": "uint256[]"
        },
        {
          "internalType": "bytes",
          "name": "",
          "type": "bytes"
        }
      ],
      "name": "onERC1155BatchReceived",
      "outputs": [
        {
          "internalType": "bytes4",
          "name": "",
          "type": "bytes4"
        }
      ],
      "stateMutability": "nonpayable",
      "type": "function"
    },
    {
      "inputs": [
        {
          "internalType": "address",
          "name": "",
          "type": "address"
        },
        {
          "internalType": "address",
          "name": "",
          "type": "address"
        },
        {
          "internalType": "uint256",
          "name": "",
          "type": "uint256"
        },
        {
          "internalType": "uint256",
          "name": "",
          "type": "uint256"
        },
        {
          "internalType": "bytes",
          "name": "",
          "type": "bytes"
        }
      ],
      "name": "onERC1155Received",
      "outputs": [
        {
          "internalType": "bytes4",
          "name": "",
          "type": "bytes4"
        }
      ],
      "stateMutability": "nonpayable",
      "type": "function"
    },
    {
      "inputs": [
        {
          "internalType": "address",
          "name": "operator",
          "type": "address"
        },
        {
          "internalType": "address",
          "name": "from",
          "type": "address"
        },
        {
          "internalType": "uint256",
          "name": "tokenId",
          "type": "uint256"
        },
        {
          "internalType": "bytes",
          "name": "",
          "type": "bytes"
        }
      ],
      "name": "onERC721Received",
      "outputs": [
        {
          "internalType": "bytes4",
          "name": "",
          "type": "bytes4"
        }
      ],
      "stateMutability": "nonpayable",
      "type": "function"
    },
    {
      "inputs": [
        {
          "internalType": "uint256[]",
          "name": "indexes",
          "type": "uint256[]"
        }
      ],
      "name": "removeEntries",
      "outputs": [],
      "stateMutability": "nonpayable",
      "type": "function"
    },
    {
      "inputs": [
        {
          "internalType": "address",
          "name": "procedure",
          "type": "address"
        }
      ],
      "name": "removeProcedure",
      "outputs": [],
      "stateMutability": "nonpayable",
      "type": "function"
    },
    {
      "inputs": [
        {
          "internalType": "uint256",
          "name": "index",
          "type": "uint256"
        },
        {
          "components": [
            {
              "internalType": "address",
              "name": "addr",
              "type": "address"
            },
            {
              "internalType": "string",
              "name": "cid",
              "type": "string"
            }
          ],
          "internalType": "struct CoreLibrary.Entry",
          "name": "entry",
          "type": "tuple"
        }
      ],
      "name": "replaceEntry",
      "outputs": [],
      "stateMutability": "nonpayable",
      "type": "function"
    },
    {
      "inputs": [
        {
          "internalType": "address",
          "name": "oldProcedure",
          "type": "address"
        },
        {
          "internalType": "address",
          "name": "newProcedure",
          "type": "address"
        },
        {
          "internalType": "bytes2",
          "name": "permissions",
          "type": "bytes2"
        }
      ],
      "name": "replaceProcedure",
      "outputs": [],
      "stateMutability": "nonpayable",
      "type": "function"
    },
    {
      "inputs": [
        {
          "internalType": "bytes4",
          "name": "interfaceId",
          "type": "bytes4"
        }
      ],
      "name": "supportsInterface",
      "outputs": [
        {
          "internalType": "bool",
          "name": "",
          "type": "bool"
        }
      ],
      "stateMutability": "view",
      "type": "function"
    },
    {
      "inputs": [
        {
          "internalType": "address",
          "name": "operator",
          "type": "address"
        },
        {
          "internalType": "address",
          "name": "from",
          "type": "address"
        },
        {
          "internalType": "address",
          "name": "to",
          "type": "address"
        },
        {
          "internalType": "uint256",
          "name": "amount",
          "type": "uint256"
        },
        {
          "internalType": "bytes",
          "name": "",
          "type": "bytes"
        },
        {
          "internalType": "bytes",
          "name": "",
          "type": "bytes"
        }
      ],
      "name": "tokensReceived",
      "outputs": [],
      "stateMutability": "nonpayable",
      "type": "function"
    },
    {
      "inputs": [
        {
          "internalType": "address",
          "name": "operator",
          "type": "address"
        },
        {
          "internalType": "address",
          "name": "from",
          "type": "address"
        },
        {
          "internalType": "address",
          "name": "to",
          "type": "address"
        },
        {
          "internalType": "uint256",
          "name": "amount",
          "type": "uint256"
        },
        {
          "internalType": "bytes",
          "name": "",
          "type": "bytes"
        },
        {
          "internalType": "bytes",
          "name": "",
          "type": "bytes"
        }
      ],
      "name": "tokensToSend",
      "outputs": [],
      "stateMutability": "nonpayable",
      "type": "function"
    },
    {
      "inputs": [
        {
          "internalType": "address payable",
          "name": "to",
          "type": "address"
        },
        {
          "internalType": "uint256",
          "name": "value",
          "type": "uint256"
        }
      ],
      "name": "transfer",
      "outputs": [],
      "stateMutability": "nonpayable",
      "type": "function"
    },
    {
      "inputs": [
        {
          "internalType": "address",
          "name": "token",
          "type": "address"
        },
        {
          "internalType": "address",
          "name": "from",
          "type": "address"
        },
        {
          "internalType": "address",
          "name": "to",
          "type": "address"
        },
        {
          "internalType": "uint256",
          "name": "amount",
          "type": "uint256"
        }
      ],
      "name": "transferCoins",
      "outputs": [],
      "stateMutability": "nonpayable",
      "type": "function"
    },
    {
      "inputs": [
        {
          "internalType": "address",
          "name": "token",
          "type": "address"
        },
        {
          "internalType": "address",
          "name": "from",
          "type": "address"
        },
        {
          "internalType": "address",
          "name": "to",
          "type": "address"
        },
        {
          "internalType": "uint256",
          "name": "tokenId",
          "type": "uint256"
        }
      ],
      "name": "transferCollectible",
      "outputs": [],
      "stateMutability": "nonpayable",
      "type": "function"
    },
    {
      "inputs": [],
      "name": "trustedForwarder",
      "outputs": [
        {
          "internalType": "address",
          "name": "",
          "type": "address"
        }
      ],
      "stateMutability": "view",
      "type": "function"
    },
    {
      "inputs": [
        {
          "internalType": "string",
          "name": "cid",
          "type": "string"
        }
      ],
      "name": "updateCid",
      "outputs": [],
      "stateMutability": "nonpayable",
      "type": "function"
    },
    {
      "stateMutability": "payable",
      "type": "receive"
    }
  ],
  "bytecode": "0x608060405234801561001057600080fd5b5061001961001e565b6100d0565b7ff0c57e16840df040f15088dc2f81fe391c3923bec73e23a9662efc9c229c6a00805468010000000000000000900460ff161561006e5760405163f92ee8a960e01b815260040160405180910390fd5b80546001600160401b03908116146100cd5780546001600160401b0319166001600160401b0390811782556040519081527fc7f505b2f371ae2175ee4913f4499e1f2633a7b5936321eed1cdaeb6115181d29060200160405180910390a15b50565b611eb7806100df6000396000f3fe60806040526004361061011e5760003560e01c806223de29146101b057806301ffc9a7146101d0578063150b7a0214610205578063160a79251461023e57806319b9404c146102905780632f2bf18e146102b0578063572b6c05146102f4578063685b3cb51461031457806375ab97821461033a5780637615eb811461035a5780637da0a8771461037a5780637f0a4e27146103a2578063a9059cbb146103c2578063bae78d7b146103e2578063bc197c811461040f578063bdb3e1c41461043b578063d0922d4a1461045b578063d28fbf0a1461047b578063d610b570146104c3578063dbf67b82146104f0578063dcf4896314610510578063f03f542b14610530578063f23a6e6114610550578063f49b58481461057c57600080fd5b366101ab5773__$eade74fbb29c82369931f57fe28cd62d78$__63dd67b85660013461014861059c565b6040516001600160e01b031960e086901b168152600481019390935260248301919091526001600160a01b0316604482015260640160006040518083038186803b15801561019557600080fd5b505af41580156101a9573d6000803e3d6000fd5b005b600080fd5b3480156101bc57600080fd5b506101a96101cb36600461118e565b6105e4565b3480156101dc57600080fd5b506101f06101eb36600461123e565b61065e565b60405190151581526020015b60405180910390f35b34801561021157600080fd5b50610225610220366004611324565b610700565b6040516001600160e01b031990911681526020016101fc565b34801561024a57600080fd5b5061027761025936600461138f565b6001600160a01b031660009081526006602052604090205460f01b90565b6040516001600160f01b031990911681526020016101fc565b34801561029c57600080fd5b506101a96102ab36600461138f565b610795565b3480156102bc57600080fd5b506102e66102cb36600461138f565b6001600160a01b031660009081526007602052604090205490565b6040519081526020016101fc565b34801561030057600080fd5b506101f061030f36600461138f565b610823565b34801561032057600080fd5b50610329610837565b6040516101fc9594939291906113f2565b34801561034657600080fd5b506101a961035536600461118e565b610966565b34801561036657600080fd5b506101a96103753660046114c1565b6109a6565b34801561038657600080fd5b506000546040516001600160a01b0390911681526020016101fc565b3480156103ae57600080fd5b506101a96103bd366004611513565b6109e9565b3480156103ce57600080fd5b506101a96103dd36600461154c565b610a9b565b3480156103ee57600080fd5b506104026103fd366004611578565b610b33565b6040516101fc9190611591565b34801561041b57600080fd5b5061022561042a3660046115be565b63bc197c8160e01b95945050505050565b34801561044757600080fd5b506101a961045636600461166b565b610c79565b34801561046757600080fd5b506101a96104763660046116bc565b610cef565b34801561048757600080fd5b5061049b610496366004611578565b610d97565b604080516001600160a01b0390931683526001600160f01b03199091166020830152016101fc565b3480156104cf57600080fd5b506104e36104de366004611780565b610e1f565b6040516101fc9190611830565b3480156104fc57600080fd5b506101a961050b3660046118d8565b610ea9565b34801561051c57600080fd5b506101a961052b3660046119ce565b61102b565b34801561053c57600080fd5b506101a961054b366004611a14565b611070565b34801561055c57600080fd5b5061022561056b366004611a55565b63f23a6e6160e01b95945050505050565b34801561058857600080fd5b506101a961059736600461166b565b6110b5565b60003660148082108015906105b557506105b533610823565b156105dc576105c936828403816000611abd565b6105d291611ae7565b60601c9250505090565b339250505090565b604051632c2f5d2960e21b815273__$eade74fbb29c82369931f57fe28cd62d78$__9063b0bd74a490610624906001908c908c908c908c90600401611b17565b60006040518083038186803b15801561063c57600080fd5b505af4158015610650573d6000803e3d6000fd5b505050505050505050505050565b60006001600160e01b031982166223de2960e01b148061068e57506001600160e01b03198216633ad5cbc160e11b145b806106a957506001600160e01b03198216630a85bd0160e11b145b806106c457506001600160e01b03198216630271189760e51b145b806106df57506001600160e01b0319821663d80b5d7560e01b145b806106fa57506301ffc9a760e01b6001600160e01b03198316145b92915050565b604051634545992d60e11b8152600160048201526001600160a01b038086166024830152841660448201526064810183905260009073__$eade74fbb29c82369931f57fe28cd62d78$__90638a8b325a9060840160006040518083038186803b15801561076c57600080fd5b505af4158015610780573d6000803e3d6000fd5b50630a85bd0160e11b98975050505050505050565b73__$eade74fbb29c82369931f57fe28cd62d78$__63b0248ab86001836107ba61059c565b6040516001600160e01b031960e086901b16815260048101939093526001600160a01b0391821660248401521660448201526064015b60006040518083038186803b15801561080857600080fd5b505af415801561081c573d6000803e3d6000fd5b5050505050565b6000546001600160a01b0391821691161490565b604051631948599560e31b815260016004820181905260609160009182918291829173__$eade74fbb29c82369931f57fe28cd62d78$__9063ca42cca890602401602060405180830381865af4158015610895573d6000803e3d6000fd5b505050506040513d601f19601f820116820180604052508101906108b99190611b45565b600254600354835463d80b5d7560e01b9085906108d590611b5e565b80601f016020809104026020016040519081016040528092919081815260200182805461090190611b5e565b801561094e5780601f106109235761010080835404028352916020019161094e565b820191906000526020600020905b81548152906001019060200180831161093157829003601f168201915b50505050509450945094509450945094509091929394565b604051630e7551c560e11b815273__$eade74fbb29c82369931f57fe28cd62d78$__90631ceaa38a90610624906001908c908c908c908c90600401611b17565b73__$eade74fbb29c82369931f57fe28cd62d78$__63c93038146001836109cb61059c565b6040518463ffffffff1660e01b81526004016107f093929190611b98565b73__$eade74fbb29c82369931f57fe28cd62d78$__6324f8b7df60018484610a0f61059c565b6040516001600160e01b031960e087901b16815260048101949094526001600160a01b0392831660248501526001600160f01b03199091166044840152166064820152608401602060405180830381865af4158015610a72573d6000803e3d6000fd5b505050506040513d601f19601f82011682018060405250810190610a969190611b45565b505050565b73__$eade74fbb29c82369931f57fe28cd62d78$__634bc01d1260018484610ac161059c565b6040516001600160e01b031960e087901b16815260048101949094526001600160a01b03928316602485015260448401919091521660648201526084015b60006040518083038186803b158015610b1757600080fd5b505af4158015610b2b573d6000803e3d6000fd5b505050505050565b60408051808201825260008152606060208201529051635935285960e01b8152600160048201526024810183905273__$eade74fbb29c82369931f57fe28cd62d78$__90635935285990604401602060405180830381865af4158015610b9d573d6000803e3d6000fd5b505050506040513d601f19601f82011682018060405250810190610bc19190611b45565b6040805180820190915281546001600160a01b03168152600182018054919291602084019190610bf090611b5e565b80601f0160208091040260200160405190810160405280929190818152602001828054610c1c90611b5e565b8015610c695780601f10610c3e57610100808354040283529160200191610c69565b820191906000526020600020905b815481529060010190602001808311610c4c57829003601f168201915b5050505050815250509050919050565b6040516350be2a0d60e01b815273__$eade74fbb29c82369931f57fe28cd62d78$__906350be2a0d90610cb9906001908890889088908890600401611b17565b60006040518083038186803b158015610cd157600080fd5b505af4158015610ce5573d6000803e3d6000fd5b5050505050505050565b73__$eade74fbb29c82369931f57fe28cd62d78$__63ba3ac4866001858585610d1661059c565b6040516001600160e01b031960e088901b16815260048101959095526001600160a01b03938416602486015291831660448501526001600160f01b031916606484015216608482015260a40160006040518083038186803b158015610d7a57600080fd5b505af4158015610d8e573d6000803e3d6000fd5b50505050505050565b60405163431f2e8b60e11b81526001600482015260248101829052600090819073__$eade74fbb29c82369931f57fe28cd62d78$__9063863e5d16906044016040805180830381865af4158015610df2573d6000803e3d6000fd5b505050506040513d601f19601f82011682018060405250810190610e169190611bfb565b91509150915091565b606073__$eade74fbb29c82369931f57fe28cd62d78$__63bfbb1b1f600184610e4661059c565b6040518463ffffffff1660e01b8152600401610e6493929190611c51565b600060405180830381865af4158015610e81573d6000803e3d6000fd5b505050506040513d6000823e601f3d908101601f191682016040526106fa9190810190611ccf565b6000610eb36110f5565b805490915060ff600160401b82041615906001600160401b0316600081158015610eda5750825b90506000826001600160401b03166001148015610ef65750303b155b905081158015610f04575080155b15610f225760405163f92ee8a960e01b815260040160405180910390fd5b84546001600160401b03191660011785558315610f4b57845460ff60401b1916600160401b1785555b604051636fb2820360e01b815273__$eade74fbb29c82369931f57fe28cd62d78$__90636fb2820390610f89906001908d908d908d90600401611d5f565b60006040518083038186803b158015610fa157600080fd5b505af4158015610fb5573d6000803e3d6000fd5b5050600080546001600160a01b0319166001600160a01b038a1617905550610fda9050565b831561102057845460ff60401b19168555604051600181527fc7f505b2f371ae2175ee4913f4499e1f2633a7b5936321eed1cdaeb6115181d29060200160405180910390a15b505050505050505050565b73__$eade74fbb29c82369931f57fe28cd62d78$__6392023c476001848461105161059c565b6040518563ffffffff1660e01b8152600401610aff9493929190611e00565b73__$eade74fbb29c82369931f57fe28cd62d78$__634227d1746001848461109661059c565b6040518563ffffffff1660e01b8152600401610aff9493929190611e38565b604051630e7551c560e11b815273__$eade74fbb29c82369931f57fe28cd62d78$__90631ceaa38a90610cb9906001908890889088908890600401611b17565b6000807ff0c57e16840df040f15088dc2f81fe391c3923bec73e23a9662efc9c229c6a006106fa565b6001600160a01b038116811461113357600080fd5b50565b80356111418161111e565b919050565b60008083601f84011261115857600080fd5b5081356001600160401b0381111561116f57600080fd5b60208301915083602082850101111561118757600080fd5b9250929050565b60008060008060008060008060c0898b0312156111aa57600080fd5b88356111b58161111e565b975060208901356111c58161111e565b965060408901356111d58161111e565b95506060890135945060808901356001600160401b03808211156111f857600080fd5b6112048c838d01611146565b909650945060a08b013591508082111561121d57600080fd5b5061122a8b828c01611146565b999c989b5096995094979396929594505050565b60006020828403121561125057600080fd5b81356001600160e01b03198116811461126857600080fd5b9392505050565b634e487b7160e01b600052604160045260246000fd5b604051601f8201601f191681016001600160401b03811182821017156112ad576112ad61126f565b604052919050565b600082601f8301126112c657600080fd5b81356001600160401b038111156112df576112df61126f565b6112f2601f8201601f1916602001611285565b81815284602083860101111561130757600080fd5b816020850160208301376000918101602001919091529392505050565b6000806000806080858703121561133a57600080fd5b84356113458161111e565b935060208501356113558161111e565b92506040850135915060608501356001600160401b0381111561137757600080fd5b611383878288016112b5565b91505092959194509250565b6000602082840312156113a157600080fd5b81356112688161111e565b6000815180845260005b818110156113d2576020818501810151868301820152016113b6565b506000602082860101526020601f19601f83011685010191505092915050565b60a08152600061140560a08301886113ac565b602083019690965250604081019390935260608301919091526001600160e01b031916608090910152919050565b60006001600160401b0382111561144c5761144c61126f565b5060051b60200190565b600082601f83011261146757600080fd5b8135602061147c61147783611433565b611285565b82815260059290921b8401810191818101908684111561149b57600080fd5b8286015b848110156114b6578035835291830191830161149f565b509695505050505050565b6000602082840312156114d357600080fd5b81356001600160401b038111156114e957600080fd5b6114f584828501611456565b949350505050565b6001600160f01b03198116811461113357600080fd5b6000806040838503121561152657600080fd5b82356115318161111e565b91506020830135611541816114fd565b809150509250929050565b6000806040838503121561155f57600080fd5b823561156a8161111e565b946020939093013593505050565b60006020828403121561158a57600080fd5b5035919050565b602080825282516001600160a01b0316828201528201516040808301526000906114f560608401826113ac565b600080600080600060a086880312156115d657600080fd5b85356115e18161111e565b945060208601356115f18161111e565b935060408601356001600160401b038082111561160d57600080fd5b61161989838a01611456565b9450606088013591508082111561162f57600080fd5b61163b89838a01611456565b9350608088013591508082111561165157600080fd5b5061165e888289016112b5565b9150509295509295909350565b6000806000806080858703121561168157600080fd5b843561168c8161111e565b9350602085013561169c8161111e565b925060408501356116ac8161111e565b9396929550929360600135925050565b6000806000606084860312156116d157600080fd5b83356116dc8161111e565b925060208401356116ec8161111e565b915060408401356116fc816114fd565b809150509250925092565b60006040828403121561171957600080fd5b604080519081016001600160401b03808211838310171561173c5761173c61126f565b81604052829350843591506117508261111e565b9082526020840135908082111561176657600080fd5b50611773858286016112b5565b6020830152505092915050565b6000602080838503121561179357600080fd5b82356001600160401b03808211156117aa57600080fd5b818501915085601f8301126117be57600080fd5b81356117cc61147782611433565b81815260059190911b830184019084810190888311156117eb57600080fd5b8585015b83811015611823578035858111156118075760008081fd5b6118158b89838a0101611707565b8452509186019186016117ef565b5098975050505050505050565b6020808252825182820181905260009190848201906040850190845b818110156118685783518352928401929184019160010161184c565b50909695505050505050565b600082601f83011261188557600080fd5b8135602061189561147783611433565b82815260059290921b840181019181810190868411156118b457600080fd5b8286015b848110156114b65780356118cb816114fd565b83529183019183016118b8565b600080600080608085870312156118ee57600080fd5b84356001600160401b038082111561190557600080fd5b818701915087601f83011261191957600080fd5b8135602061192961147783611433565b82815260059290921b8401810191818101908b84111561194857600080fd5b948201945b8386101561196f5785356119608161111e565b8252948201949082019061194d565b9850508801359250508082111561198557600080fd5b61199188838901611874565b945060408701359150808211156119a757600080fd5b506119b4878288016112b5565b9250506119c360608601611136565b905092959194509250565b600080604083850312156119e157600080fd5b8235915060208301356001600160401b038111156119fe57600080fd5b611a0a85828601611707565b9150509250929050565b60008060208385031215611a2757600080fd5b82356001600160401b03811115611a3d57600080fd5b611a4985828601611146565b90969095509350505050565b600080600080600060a08688031215611a6d57600080fd5b8535611a788161111e565b94506020860135611a888161111e565b9350604086013592506060860135915060808601356001600160401b03811115611ab157600080fd5b61165e888289016112b5565b60008085851115611acd57600080fd5b83861115611ada57600080fd5b5050820193919092039150565b6001600160601b03198135818116916014851015611b0f5780818660140360031b1b83161692505b505092915050565b9485526001600160a01b03938416602086015291831660408501529091166060830152608082015260a00190565b600060208284031215611b5757600080fd5b5051919050565b600181811c90821680611b7257607f821691505b602082108103611b9257634e487b7160e01b600052602260045260246000fd5b50919050565b6000606082018583526020606081850152818651808452608086019150828801935060005b81811015611bd957845183529383019391830191600101611bbd565b50506001600160a01b0395909516604094909401939093525091949350505050565b60008060408385031215611c0e57600080fd5b8251611c198161111e565b6020840151909250611541816114fd565b60018060a01b03815116825260006020820151604060208501526114f560408501826113ac565b600060608201858352602060608185015281865180845260808601915060808160051b870101935082880160005b82811015611cad57607f19888703018452611c9b868351611c2a565b95509284019290840190600101611c7f565b505050506001600160a01b039490941660409390930192909252509392505050565b60006020808385031215611ce257600080fd5b82516001600160401b03811115611cf857600080fd5b8301601f81018513611d0957600080fd5b8051611d1761147782611433565b81815260059190911b82018301908381019087831115611d3657600080fd5b928401925b82841015611d5457835182529284019290840190611d3b565b979650505050505050565b600060808201868352602060808185015281875180845260a086019150828901935060005b81811015611da95784516001600160a01b031683529383019391830191600101611d84565b50508481036040860152865180825290820192508187019060005b81811015611dea5782516001600160f01b03191685529383019391830191600101611dc4565b505050508281036060840152611d5481856113ac565b848152836020820152608060408201526000611e1f6080830185611c2a565b905060018060a01b038316606083015295945050505050565b848152606060208201528260608201528284608083013760008184016080908101919091526001600160a01b03929092166040820152601f909201601f1916909101019291505056fea2646970667358221220a33fcd4a9f6cce424848a325f7bbf09cd347690f4290e4fe5db83b4a7e89753664736f6c63430008140033",
  "linkReferences": {
    "contracts/libraries/OrganLibrary.sol": {
      "OrganLibrary": [
        {
          "length": 20,
          "start": 516
        },
        {
          "length": 20,
          "start": 1746
        },
        {
          "length": 20,
          "start": 2070
        },
        {
          "length": 20,
          "start": 2166
        },
        {
          "length": 20,
          "start": 2362
        },
        {
          "length": 20,
          "start": 2644
        },
        {
          "length": 20,
          "start": 2695
        },
        {
          "length": 20,
          "start": 2762
        },
        {
          "length": 20,
          "start": 2940
        },
        {
          "length": 20,
          "start": 3138
        },
        {
          "length": 20,
          "start": 3431
        },
        {
          "length": 20,
          "start": 3536
        },
        {
          "length": 20,
          "start": 3736
        },
        {
          "length": 20,
          "start": 3842
        },
        {
          "length": 20,
          "start": 4153
        },
        {
          "length": 20,
          "start": 4364
        },
        {
          "length": 20,
          "start": 4433
        },
        {
          "length": 20,
          "start": 4515
        }
      ]
    }
  },
  "deployedLinkReferences": {
    "contracts/libraries/OrganLibrary.sol": {
      "OrganLibrary": [
        {
          "length": 20,
          "start": 293
        },
        {
          "length": 20,
          "start": 1523
        },
        {
          "length": 20,
          "start": 1847
        },
        {
          "length": 20,
          "start": 1943
        },
        {
          "length": 20,
          "start": 2139
        },
        {
          "length": 20,
          "start": 2421
        },
        {
          "length": 20,
          "start": 2472
        },
        {
          "length": 20,
          "start": 2539
        },
        {
          "length": 20,
          "start": 2717
        },
        {
          "length": 20,
          "start": 2915
        },
        {
          "length": 20,
          "start": 3208
        },
        {
          "length": 20,
          "start": 3313
        },
        {
          "length": 20,
          "start": 3513
        },
        {
          "length": 20,
          "start": 3619
        },
        {
          "length": 20,
          "start": 3930
        },
        {
          "length": 20,
          "start": 4141
        },
        {
          "length": 20,
          "start": 4210
        },
        {
          "length": 20,
          "start": 4292
        }
      ]
    }
  }
}