{
  "contractName": "ERC20VoteProcedure",
  "abi": [
    {
      "anonymous": false,
      "inputs": [
        {
          "indexed": false,
          "internalType": "uint8",
          "name": "version",
          "type": "uint8"
        }
      ],
      "name": "Initialized",
      "type": "event"
    },
    {
      "inputs": [],
      "name": "INTERFACE_ID",
      "outputs": [
        {
          "internalType": "bytes4",
          "name": "",
          "type": "bytes4"
        }
      ],
      "stateMutability": "view",
      "type": "function",
      "constant": true
    },
    {
      "inputs": [
        {
          "internalType": "uint256",
          "name": "proposalKey",
          "type": "uint256"
        }
      ],
      "name": "applyProposal",
      "outputs": [],
      "stateMutability": "nonpayable",
      "type": "function"
    },
    {
      "inputs": [],
      "name": "getProcedure",
      "outputs": [
        {
          "internalType": "string",
          "name": "cid",
          "type": "string"
        },
        {
          "internalType": "address payable",
          "name": "proposers",
          "type": "address"
        },
        {
          "internalType": "address payable",
          "name": "moderators",
          "type": "address"
        },
        {
          "internalType": "address payable",
          "name": "deciders",
          "type": "address"
        },
        {
          "internalType": "bool",
          "name": "withModeration",
          "type": "bool"
        },
        {
          "internalType": "uint256",
          "name": "proposalsLength",
          "type": "uint256"
        },
        {
          "internalType": "bytes4",
          "name": "interfaceId",
          "type": "bytes4"
        }
      ],
      "stateMutability": "view",
      "type": "function",
      "constant": true
    },
    {
      "inputs": [
        {
          "internalType": "uint256",
          "name": "proposalKey",
          "type": "uint256"
        }
      ],
      "name": "getProposal",
      "outputs": [
        {
          "components": [
            {
              "internalType": "address payable",
              "name": "creator",
              "type": "address"
            },
            {
              "internalType": "string",
              "name": "cid",
              "type": "string"
            },
            {
              "internalType": "string",
              "name": "blockReason",
              "type": "string"
            },
            {
              "internalType": "bool",
              "name": "presented",
              "type": "bool"
            },
            {
              "internalType": "bool",
              "name": "blocked",
              "type": "bool"
            },
            {
              "internalType": "bool",
              "name": "adopted",
              "type": "bool"
            },
            {
              "internalType": "bool",
              "name": "applied",
              "type": "bool"
            },
            {
              "components": [
                {
                  "internalType": "uint256",
                  "name": "index",
                  "type": "uint256"
                },
                {
                  "internalType": "address payable",
                  "name": "target",
                  "type": "address"
                },
                {
                  "internalType": "bytes",
                  "name": "data",
                  "type": "bytes"
                },
                {
                  "internalType": "uint256",
                  "name": "value",
                  "type": "uint256"
                },
                {
                  "internalType": "bool",
                  "name": "processed",
                  "type": "bool"
                }
              ],
              "internalType": "struct ProcedureLibrary.Operation[]",
              "name": "operations",
              "type": "tuple[]"
            }
          ],
          "internalType": "struct ProcedureLibrary.Proposal",
          "name": "",
          "type": "tuple"
        }
      ],
      "stateMutability": "view",
      "type": "function",
      "constant": true
    },
    {
      "inputs": [],
      "name": "getTrustedForwarder",
      "outputs": [
        {
          "internalType": "address",
          "name": "forwarder",
          "type": "address"
        }
      ],
      "stateMutability": "view",
      "type": "function",
      "constant": true
    },
    {
      "inputs": [
        {
          "internalType": "address",
          "name": "forwarder",
          "type": "address"
        }
      ],
      "name": "isTrustedForwarder",
      "outputs": [
        {
          "internalType": "bool",
          "name": "",
          "type": "bool"
        }
      ],
      "stateMutability": "view",
      "type": "function",
      "constant": true
    },
    {
      "inputs": [],
      "name": "majoritySize",
      "outputs": [
        {
          "internalType": "uint32",
          "name": "",
          "type": "uint32"
        }
      ],
      "stateMutability": "view",
      "type": "function",
      "constant": true
    },
    {
      "inputs": [],
      "name": "quorumSize",
      "outputs": [
        {
          "internalType": "uint32",
          "name": "",
          "type": "uint32"
        }
      ],
      "stateMutability": "view",
      "type": "function",
      "constant": true
    },
    {
      "inputs": [
        {
          "internalType": "uint256",
          "name": "proposalKey",
          "type": "uint256"
        }
      ],
      "name": "rejectProposal",
      "outputs": [],
      "stateMutability": "nonpayable",
      "type": "function"
    },
    {
      "inputs": [],
      "name": "tokenContract",
      "outputs": [
        {
          "internalType": "contract IERC20",
          "name": "",
          "type": "address"
        }
      ],
      "stateMutability": "view",
      "type": "function",
      "constant": true
    },
    {
      "inputs": [
        {
          "internalType": "address payable",
          "name": "admin",
          "type": "address"
        }
      ],
      "name": "updateAdmin",
      "outputs": [],
      "stateMutability": "nonpayable",
      "type": "function"
    },
    {
      "inputs": [
        {
          "internalType": "string",
          "name": "cid",
          "type": "string"
        }
      ],
      "name": "updateCid",
      "outputs": [],
      "stateMutability": "nonpayable",
      "type": "function"
    },
    {
      "inputs": [],
      "name": "voteDuration",
      "outputs": [
        {
          "internalType": "uint32",
          "name": "",
          "type": "uint32"
        }
      ],
      "stateMutability": "view",
      "type": "function",
      "constant": true
    },
    {
      "inputs": [
        {
          "internalType": "bytes4",
          "name": "interfaceId",
          "type": "bytes4"
        }
      ],
      "name": "supportsInterface",
      "outputs": [
        {
          "internalType": "bool",
          "name": "",
          "type": "bool"
        }
      ],
      "stateMutability": "view",
      "type": "function",
      "constant": true
    },
    {
      "inputs": [
        {
          "internalType": "string",
          "name": "",
          "type": "string"
        },
        {
          "internalType": "address payable",
          "name": "",
          "type": "address"
        },
        {
          "internalType": "address payable",
          "name": "",
          "type": "address"
        },
        {
          "internalType": "address payable",
          "name": "",
          "type": "address"
        },
        {
          "internalType": "bool",
          "name": "",
          "type": "bool"
        },
        {
          "internalType": "address",
          "name": "",
          "type": "address"
        }
      ],
      "name": "initialize",
      "outputs": [],
      "stateMutability": "pure",
      "type": "function",
      "constant": true
    },
    {
      "inputs": [
        {
          "internalType": "string",
          "name": "_metadata",
          "type": "string"
        },
        {
          "internalType": "address payable",
          "name": "_proposers",
          "type": "address"
        },
        {
          "internalType": "address payable",
          "name": "_moderators",
          "type": "address"
        },
        {
          "internalType": "address payable",
          "name": "_deciders",
          "type": "address"
        },
        {
          "internalType": "bool",
          "name": "_withModeration",
          "type": "bool"
        },
        {
          "internalType": "address",
          "name": "_trustedForwarder",
          "type": "address"
        },
        {
          "internalType": "address",
          "name": "_tokenContract",
          "type": "address"
        },
        {
          "internalType": "uint32",
          "name": "_quorumSize",
          "type": "uint32"
        },
        {
          "internalType": "uint32",
          "name": "_voteDuration",
          "type": "uint32"
        },
        {
          "internalType": "uint32",
          "name": "_majoritySize",
          "type": "uint32"
        }
      ],
      "name": "initialize",
      "outputs": [],
      "stateMutability": "nonpayable",
      "type": "function"
    },
    {
      "inputs": [
        {
          "internalType": "uint256",
          "name": "proposalKey",
          "type": "uint256"
        },
        {
          "internalType": "bool",
          "name": "approval",
          "type": "bool"
        }
      ],
      "name": "vote",
      "outputs": [],
      "stateMutability": "nonpayable",
      "type": "function"
    },
    {
      "inputs": [
        {
          "internalType": "uint256",
          "name": "proposalKey",
          "type": "uint256"
        }
      ],
      "name": "count",
      "outputs": [
        {
          "internalType": "bool",
          "name": "approved",
          "type": "bool"
        }
      ],
      "stateMutability": "view",
      "type": "function",
      "constant": true
    },
    {
      "inputs": [
        {
          "internalType": "string",
          "name": "_metadata",
          "type": "string"
        },
        {
          "components": [
            {
              "internalType": "uint256",
              "name": "index",
              "type": "uint256"
            },
            {
              "internalType": "address payable",
              "name": "target",
              "type": "address"
            },
            {
              "internalType": "bytes",
              "name": "data",
              "type": "bytes"
            },
            {
              "internalType": "uint256",
              "name": "value",
              "type": "uint256"
            },
            {
              "internalType": "bool",
              "name": "processed",
              "type": "bool"
            }
          ],
          "internalType": "struct ProcedureLibrary.Operation[]",
          "name": "_operations",
          "type": "tuple[]"
        }
      ],
      "name": "propose",
      "outputs": [
        {
          "internalType": "uint256",
          "name": "proposalKey",
          "type": "uint256"
        }
      ],
      "stateMutability": "nonpayable",
      "type": "function"
    },
    {
      "inputs": [
        {
          "internalType": "uint256",
          "name": "proposalKey",
          "type": "uint256"
        }
      ],
      "name": "presentProposal",
      "outputs": [],
      "stateMutability": "nonpayable",
      "type": "function"
    },
    {
      "inputs": [
        {
          "internalType": "uint256",
          "name": "proposalKey",
          "type": "uint256"
        },
        {
          "internalType": "string",
          "name": "reason",
          "type": "string"
        }
      ],
      "name": "blockProposal",
      "outputs": [],
      "stateMutability": "nonpayable",
      "type": "function"
    },
    {
      "inputs": [
        {
          "internalType": "uint256",
          "name": "proposalKey",
          "type": "uint256"
        }
      ],
      "name": "adoptProposal",
      "outputs": [],
      "stateMutability": "nonpayable",
      "type": "function"
    },
    {
      "inputs": [
        {
          "internalType": "uint256",
          "name": "_proposalKey",
          "type": "uint256"
        }
      ],
      "name": "getElection",
      "outputs": [
        {
          "internalType": "uint256",
          "name": "start",
          "type": "uint256"
        },
        {
          "internalType": "bool",
          "name": "hasVoted",
          "type": "bool"
        },
        {
          "internalType": "uint256",
          "name": "votesCount",
          "type": "uint256"
        }
      ],
      "stateMutability": "view",
      "type": "function",
      "constant": true
    }
  ],
  "bytecode": "0x60806040523480156200001157600080fd5b50600180556200002062000026565b620000e7565b600054610100900460ff1615620000935760405162461bcd60e51b815260206004820152602760248201527f496e697469616c697a61626c653a20636f6e747261637420697320696e697469604482015266616c697a696e6760c81b606482015260840160405180910390fd5b60005460ff90811614620000e5576000805460ff191660ff9081179091556040519081527f7f26b83ff96e1f2b6a682f133852f6798a09c465da95921460cefb38474024989060200160405180910390a15b565b612ac080620000f76000396000f3fe608060405234801561001057600080fd5b506004361061011d5760003560e01c806301ffc9a71461012257806309b862b91461014a578063164d7c35146101715780631e390607146101865780633068ef4d146101995780633b3546c8146101c557806346727fb0146101d857806355a373d6146101eb578063563644991461020b578063572b6c05146102225780637823c508146102355780637983f0c11461024857806395f8c6fe1461025b5780639d7107771461027c5780639f32551b146102aa578063bc28d878146102c1578063bf5dec0f146102d4578063c7f758a8146102e7578063c9d27afe14610307578063ce1b815f1461031a578063e2f273bd1461032b578063f03f542b1461033e578063f22d9c7a14610351575b600080fd5b610135610130366004611e8b565b61036c565b60405190151581526020015b60405180910390f35b61015863071dbd3360e41b81565b6040516001600160e01b03199091168152602001610141565b61018461017f366004611fd9565b610397565b005b610184610194366004612073565b6103d9565b600d546101b090600160a01b900463ffffffff1681565b60405163ffffffff9091168152602001610141565b6101356101d3366004612073565b610457565b6101846101e63660046120a0565b610905565b600d546101fe906001600160a01b031681565b604051610141919061217e565b600d546101b090600160c01b900463ffffffff1681565b610135610230366004612192565b610979565b610184610243366004612073565b61098d565b610184610256366004612073565b610a53565b61026e6102693660046121af565b610b20565b604051908152602001610141565b61028f61028a366004612073565b610c0c565b60408051938452911515602084015290820152606001610141565b600d546101b090600160e01b900463ffffffff1681565b6101846102cf366004612073565b610c6a565b6101846102e2366004612312565b610c86565b6102fa6102f5366004612073565b610d90565b6040516101419190612482565b610184610315366004612539565b61109c565b6002546001600160a01b03166101fe565b610184610339366004612192565b611366565b61018461034c366004612569565b6113f4565b610359611437565b60405161014197969594939291906125a5565b60006001600160e01b031982166364e93d7f60e11b148061039157506103918261151d565b92915050565b60405162461bcd60e51b81526020600482015260126024820152714d697373696e6720706172616d657465727360701b60448201526064015b60405180910390fd5b6103e1611552565b60405163851816a560e01b8152600360048201526024810182905273__ProcedureLibrary______________________9063851816a59060440160006040518083038186803b15801561043357600080fd5b505af4158015610447573d6000803e3d6000fd5b5050505061045460018055565b50565b6000818152600c60205260408120546104a05760405162461bcd60e51b815260206004820152600b60248201526a27379032b632b1ba34b7b760a91b60448201526064016103d0565b600d546000838152600c60205260409020546104c991600160c01b900463ffffffff1690612617565b42101561050d5760405162461bcd60e51b8152602060048201526012602482015271115b1958dd1a5bdb881b9bdd08195b99195960721b60448201526064016103d0565b6006546001600160a01b03161561061f576006546040805163685b3cb560e01b815290516000926001600160a01b03169163685b3cb591600480830192869291908290030181865afa158015610567573d6000803e3d6000fd5b505050506040513d6000823e601f3d908101601f1916820160405261058f919081019061262a565b50600d54909450620186a093506105b69250849150600160a01b900463ffffffff166126d4565b6105c091906126eb565b6000848152600c60205260409020600301541161061d5760405162461bcd60e51b815260206004820152601b60248201527a145d5bdc9d5b481a185cc81b9bdd081899595b881c995858da1959602a1b60448201526064016103d0565b505b60008060005b6000858152600c6020526040902060020154811015610884576000858152600c6020526040812060028101805460019092019291849081106106695761066961270d565b60009182526020808320909101546001600160a01b0316835282019290925260400190205460ff1615610872576000858152600c6020526040812060028101805460019092019291849081106106c1576106c161270d565b60009182526020808320909101546001600160a01b0316835282019290925260400190205460ff61010090910416156107b557600d546000868152600c6020526040902060020180546001600160a01b03909216916370a0823191908490811061072d5761072d61270d565b6000918252602090912001546040516001600160e01b031960e084901b168152610763916001600160a01b03169060040161217e565b602060405180830381865afa158015610780573d6000803e3d6000fd5b505050506040513d601f19601f820116820180604052508101906107a49190612723565b6107ae9084612617565b9250610872565b600d546000868152600c6020526040902060020180546001600160a01b03909216916370a082319190849081106107ee576107ee61270d565b6000918252602090912001546040516001600160e01b031960e084901b168152610824916001600160a01b03169060040161217e565b602060405180830381865afa158015610841573d6000803e3d6000fd5b505050506040513d601f19601f820116820180604052508101906108659190612723565b61086f9083612617565b91505b8061087c8161273c565b915050610625565b5060006108918284612617565b116108c85760405162461bcd60e51b81526020600482015260076024820152664e6f20766f746560c81b60448201526064016103d0565b600d54620186a090600160e01b900463ffffffff166108e78385612617565b6108f191906126d4565b6108fb91906126eb565b9091119392505050565b6109138a8a8a8a8a8a6115ab565b600d80546001600160a01b03959095166001600160c01b031990951694909417600160a01b63ffffffff94851602176001600160c01b0316600160c01b928416929092026001600160e01b031691909117600160e01b9190921602179055505050505050565b6002546001600160a01b0391821691161490565b6005546001600160a01b031673__ProcedureLibrary______________________637c3b86fe826109bc611758565b6040518363ffffffff1660e01b81526004016109d9929190612755565b602060405180830381865af41580156109f6573d6000803e3d6000fd5b505050506040513d601f19601f82011682018060405250810190610a1a919061276f565b610a365760405162461bcd60e51b81526004016103d09061278c565b610a3f82611786565b506000908152600c60205260409020429055565b6005546001600160a01b031673__ProcedureLibrary______________________637c3b86fe82610a82611758565b6040518363ffffffff1660e01b8152600401610a9f929190612755565b602060405180830381865af4158015610abc573d6000803e3d6000fd5b505050506040513d601f19601f82011682018060405250810190610ae0919061276f565b610afc5760405162461bcd60e51b81526004016103d09061278c565b610b0582610457565b15610b1757610b13826117e5565b5050565b610b1382610c6a565b6004546000906001600160a01b031673__ProcedureLibrary______________________637c3b86fe82610b52611758565b6040518363ffffffff1660e01b8152600401610b6f929190612755565b602060405180830381865af4158015610b8c573d6000803e3d6000fd5b505050506040513d601f19601f82011682018060405250810190610bb0919061276f565b610bcc5760405162461bcd60e51b81526004016103d09061278c565b610bd684846117f8565b60008181526008602052604090206003015490925060ff1615610c05576000828152600c602052604090204290555b5092915050565b6000818152600c602052604081208054829182919060010182610c2d611758565b6001600160a01b031681526020808201929092526040908101600090812054888252600c909352206003015491945060ff16925090509193909250565b610c72611552565b610c7d600382611887565b61045460018055565b6005546001600160a01b031673__ProcedureLibrary______________________637c3b86fe82610cb5611758565b6040518363ffffffff1660e01b8152600401610cd2929190612755565b602060405180830381865af4158015610cef573d6000803e3d6000fd5b505050506040513d601f19601f82011682018060405250810190610d13919061276f565b610d2f5760405162461bcd60e51b81526004016103d09061278c565b6000848152600c60205260408120549003610d7f5760405162461bcd60e51b815260206004820152601060248201526f115b1958dd1a5bdb881cdd185c9d195960821b60448201526064016103d0565b610d8a848484611959565b50505050565b604080516101008101825260008082526060602083018190529282018390528282018190526080820181905260a0820181905260c082015260e08101919091526000828152600860209081526040918290208251610100810190935280546001600160a01b031683526001810180549192840191610e0d906127b4565b80601f0160208091040260200160405190810160405280929190818152602001828054610e39906127b4565b8015610e865780601f10610e5b57610100808354040283529160200191610e86565b820191906000526020600020905b815481529060010190602001808311610e6957829003601f168201915b50505050508152602001600282018054610e9f906127b4565b80601f0160208091040260200160405190810160405280929190818152602001828054610ecb906127b4565b8015610f185780601f10610eed57610100808354040283529160200191610f18565b820191906000526020600020905b815481529060010190602001808311610efb57829003601f168201915b5050509183525050600382015460ff808216151560208085019190915261010083048216151560408086019190915262010000840483161515606086015263010000009093049091161515608084015260048401805483518184028101840190945280845260a090940193909160009084015b8282101561108e5760008481526020908190206040805160a081018252600586029092018054835260018101546001600160a01b03169383019390935260028301805492939291840191610fde906127b4565b80601f016020809104026020016040519081016040528092919081815260200182805461100a906127b4565b80156110575780601f1061102c57610100808354040283529160200191611057565b820191906000526020600020905b81548152906001019060200180831161103a57829003601f168201915b5050509183525050600382015460208083019190915260049092015460ff1615156040909101529082526001929092019101610f8b565b505050915250909392505050565b6006546001600160a01b031673__ProcedureLibrary______________________637c3b86fe826110cb611758565b6040518363ffffffff1660e01b81526004016110e8929190612755565b602060405180830381865af4158015611105573d6000803e3d6000fd5b505050506040513d601f19601f82011682018060405250810190611129919061276f565b6111455760405162461bcd60e51b81526004016103d09061278c565b6000838152600c602052604090205442116111995760405162461bcd60e51b8152602060048201526014602482015273115b1958dd1a5bdb881b9bdd081cdd185c9d195960621b60448201526064016103d0565b600d546000848152600c60205260409020546111c291600160c01b900463ffffffff1690612617565b42106112015760405162461bcd60e51b815260206004820152600e60248201526d115b1958dd1a5bdb88195b99195960921b60448201526064016103d0565b6000838152600c602052604081206001019061121b611758565b6001600160a01b0316815260208101919091526040016000205460ff16156112785760405162461bcd60e51b815260206004820152601060248201526f111d5c1b1a58d85d19481c9958dbdc9960821b60448201526064016103d0565b6040518060400160405280600115158152602001831515815250600c600085815260200190815260200160002060010160006112b2611758565b6001600160a01b0316815260208082019290925260409081016000908120845181549585015161ffff1990961690151561ff001916176101009515159590950294909417909355858352600c909152902060020161130e611758565b81546001810183556000928352602080842090910180546001600160a01b0319166001600160a01b039390931692909217909155848252600c90526040812060030180549161135c8361273c565b9190505550505050565b73__ProcedureLibrary______________________630fb4dd4460038361138b611758565b6040516001600160e01b031960e086901b16815260048101939093526001600160a01b0391821660248401521660448201526064015b60006040518083038186803b1580156113d957600080fd5b505af41580156113ed573d6000803e3d6000fd5b5050505050565b73__ProcedureLibrary______________________6344462e93600383611419611758565b6040518463ffffffff1660e01b81526004016113c1939291906127ee565b600454600554600654600a54600954600380546060966000968796879687968796879690956001600160a01b0390811695811694169260ff16919063071dbd3360e41b908790611486906127b4565b80601f01602080910402602001604051908101604052809291908181526020018280546114b2906127b4565b80156114ff5780601f106114d4576101008083540402835291602001916114ff565b820191906000526020600020905b8154815290600101906020018083116114e257829003601f168201915b50505050509650965096509650965096509650965090919293949596565b60006001600160e01b0319821663071dbd3360e41b148061039157506301ffc9a760e01b6001600160e01b0319831614610391565b6002600154036115a45760405162461bcd60e51b815260206004820152601f60248201527f5265656e7472616e637947756172643a207265656e7472616e742063616c6c0060448201526064016103d0565b6002600155565b600054610100900460ff16158080156115cb5750600054600160ff909116105b806115e55750303b1580156115e5575060005460ff166001145b6116485760405162461bcd60e51b815260206004820152602e60248201527f496e697469616c697a61626c653a20636f6e747261637420697320616c72656160448201526d191e481a5b9a5d1a585b1a5e995960921b60648201526084016103d0565b6000805460ff19166001179055801561166b576000805461ff0019166101001790555b73__ProcedureLibrary______________________6382ad07366003898989898989611695611758565b6040518963ffffffff1660e01b81526004016116b898979695949392919061281f565b60006040518083038186803b1580156116d057600080fd5b505af41580156116e4573d6000803e3d6000fd5b5050600280546001600160a01b0319166001600160a01b038616179055506117099050565b801561174f576000805461ff0019169055604051600181527f7f26b83ff96e1f2b6a682f133852f6798a09c465da95921460cefb38474024989060200160405180910390a15b50505050505050565b60006014361080159061176f575061176f33610979565b15611781575060131936013560601c90565b503390565b73__ProcedureLibrary______________________63ccddc3926003836117ab611758565b6040516001600160e01b031960e086901b168152600481019390935260248301919091526001600160a01b031660448201526064016113c1565b6117ed611552565b610c7d6003826119cc565b600073__ProcedureLibrary______________________63895ef01160038585611820611758565b6040518563ffffffff1660e01b815260040161183f949392919061287c565b602060405180830381865af415801561185c573d6000803e3d6000fd5b505050506040513d601f19601f820116820180604052508101906118809190612723565b9392505050565b60008181526005830160205260409020600301548290829060ff1680156118c85750600081815260058301602052604090206003015462010000900460ff16155b80156118ef575060008181526005830160205260409020600301546301000000900460ff16155b801561191457506000818152600583016020526040902060030154610100900460ff16155b6119305760405162461bcd60e51b81526004016103d09061278c565b50506000908152600590910160205260409020600301805463ffff000019166301000000179055565b73__ProcedureLibrary______________________63d831225b6003858585611980611758565b6040518663ffffffff1660e01b81526004016119a0959493929190612945565b60006040518083038186803b1580156119b857600080fd5b505af415801561174f573d6000803e3d6000fd5b60008181526005830160205260409020600301548290829060ff168015611a0d5750600081815260058301602052604090206003015462010000900460ff16155b8015611a34575060008181526005830160205260409020600301546301000000900460ff16155b8015611a5957506000818152600583016020526040902060030154610100900460ff16155b611a755760405162461bcd60e51b81526004016103d09061278c565b60008381526005850160205260409020600301805462ff000019166201000090811791829055610d8a9186918691839183910460ff168015611ad2575060008181526005830160205260409020600301546301000000900460ff16155b8015611af757506000818152600583016020526040902060030154610100900460ff16155b611b135760405162461bcd60e51b81526004016103d09061278c565b60005b6000848152600586016020526040902060040154811015611e235760008481526005860160205260409020600401805482908110611b5657611b5661270d565b600091825260209091206004600590920201015460ff16611e135760008481526005860160205260408120600401805483908110611b9657611b9661270d565b60009182526020909120600160059092020101546001600160a01b031614611ce15760008481526005860160205260408120600401805483908110611bdd57611bdd61270d565b60009182526020808320600592830201600101548884529189019052604090912060040180546001600160a01b039092169184908110611c1f57611c1f61270d565b9060005260206000209060050201600301548760050160008881526020019081526020016000206004018481548110611c5a57611c5a61270d565b9060005260206000209060050201600201604051611c789190612995565b60006040518083038185875af1925050503d8060008114611cb5576040519150601f19603f3d011682016040523d82523d6000602084013e611cba565b606091505b5050905080611cdb5760405162461bcd60e51b81526004016103d090612a34565b50611dc7565b60008481526005860160205260408120600401805433919084908110611d0957611d0961270d565b9060005260206000209060050201600301548760050160008881526020019081526020016000206004018481548110611d4457611d4461270d565b9060005260206000209060050201600201604051611d629190612995565b60006040518083038185875af1925050503d8060008114611d9f576040519150601f19603f3d011682016040523d82523d6000602084013e611da4565b606091505b5050905080611dc55760405162461bcd60e51b81526004016103d090612a34565b505b6000848152600586016020526040902060040180546001919083908110611df057611df061270d565b60009182526020909120600590910201600401805460ff19169115159190911790555b611e1c8161273c565b9050611b16565b506000838152600585016020526040808220600301805463ff000000191663010000001790555184917f371ea0b2792b493783478379b73e5d65d5f7e3d03fe343fbe6396d87ece6562491a250505050565b6001600160e01b03198116811461045457600080fd5b600060208284031215611e9d57600080fd5b813561188081611e75565b634e487b7160e01b600052604160045260246000fd5b60405160a081016001600160401b0381118282101715611ee057611ee0611ea8565b60405290565b604051601f8201601f191681016001600160401b0381118282101715611f0e57611f0e611ea8565b604052919050565b60006001600160401b03821115611f2f57611f2f611ea8565b50601f01601f191660200190565b6000611f50611f4b84611f16565b611ee6565b9050828152838383011115611f6457600080fd5b828260208301376000602084830101529392505050565b600082601f830112611f8c57600080fd5b61188083833560208501611f3d565b6001600160a01b038116811461045457600080fd5b801515811461045457600080fd5b8035611fc981611fb0565b919050565b8035611fc981611f9b565b60008060008060008060c08789031215611ff257600080fd5b86356001600160401b0381111561200857600080fd5b61201489828a01611f7b565b965050602087013561202581611f9b565b9450604087013561203581611f9b565b9350606087013561204581611f9b565b9250608087013561205581611fb0565b915060a087013561206581611f9b565b809150509295509295509295565b60006020828403121561208557600080fd5b5035919050565b803563ffffffff81168114611fc957600080fd5b6000806000806000806000806000806101408b8d0312156120c057600080fd5b8a356001600160401b038111156120d657600080fd5b6120e28d828e01611f7b565b9a505060208b01356120f381611f9b565b985060408b013561210381611f9b565b975060608b013561211381611f9b565b965060808b013561212381611fb0565b955060a08b013561213381611f9b565b945061214160c08c01611fce565b935061214f60e08c0161208c565b925061215e6101008c0161208c565b915061216d6101208c0161208c565b90509295989b9194979a5092959850565b6001600160a01b0391909116815260200190565b6000602082840312156121a457600080fd5b813561188081611f9b565b60008060408084860312156121c357600080fd5b83356001600160401b03808211156121da57600080fd5b6121e687838801611f7b565b94506020915081860135818111156121fd57600080fd5b8601601f8101881361220e57600080fd5b80358281111561222057612220611ea8565b8060051b61222f858201611ee6565b918252828101850191858101908b84111561224957600080fd5b86850192505b838310156123005782358681111561226657600080fd5b850160a0818e03601f1901121561227c57600080fd5b612284611ebe565b8882013581528982013561229781611f9b565b818a01526060820135888111156122ae5760008081fd5b8201603f81018f136122c05760008081fd5b6122d08f8b8301358d8401611f3d565b8b8301525060808083013560608301526122ec60a08401611fbe565b90820152835250918601919086019061224f565b80985050505050505050509250929050565b60008060006040848603121561232757600080fd5b8335925060208401356001600160401b038082111561234557600080fd5b818601915086601f83011261235957600080fd5b81358181111561236857600080fd5b87602082850101111561237a57600080fd5b6020830194508093505050509250925092565b6001600160a01b03169052565b60005b838110156123b557818101518382015260200161239d565b50506000910152565b600081518084526123d681602086016020860161239a565b601f01601f19169290920160200192915050565b600081518084526020808501808196508360051b8101915082860160005b85811015612475578284038952815180518552858101516001600160a01b03168686015260408082015160a08288018190529190612448838901826123be565b606085810151908a0152608094850151151594909801939093525050509784019790840190600101612408565b5091979650505050505050565b6020815261249460208201835161238d565b600060208301516101008060408501526124b26101208501836123be565b91506040850151601f19808685030160608701526124d084836123be565b9350606087015191506124e7608087018315159052565b608087015180151560a0880152915060a087015180151560c0880152915060c087015180151560e0880152915060e087015191508086850301838701525061252f83826123ea565b9695505050505050565b6000806040838503121561254c57600080fd5b82359150602083013561255e81611fb0565b809150509250929050565b60006020828403121561257b57600080fd5b81356001600160401b0381111561259157600080fd5b61259d84828501611f7b565b949350505050565b60e0815260006125b860e083018a6123be565b6001600160a01b039889166020840152968816604083015250939095166060840152901515608083015260a08201526001600160e01b031990921660c090920191909152919050565b634e487b7160e01b600052601160045260246000fd5b8082018082111561039157610391612601565b600080600080600060a0868803121561264257600080fd5b85516001600160401b0381111561265857600080fd5b8601601f8101881361266957600080fd5b8051612677611f4b82611f16565b81815289602083850101111561268c57600080fd5b61269d82602083016020860161239a565b80975050505060208601519350604086015192506060860151915060808601516126c681611e75565b809150509295509295909350565b808202811582820484141761039157610391612601565b60008261270857634e487b7160e01b600052601260045260246000fd5b500490565b634e487b7160e01b600052603260045260246000fd5b60006020828403121561273557600080fd5b5051919050565b60006001820161274e5761274e612601565b5060010190565b6001600160a01b0392831681529116602082015260400190565b60006020828403121561278157600080fd5b815161188081611fb0565b6020808252600e908201526d139bdd08185d5d1a1bdc9a5e995960921b604082015260600190565b600181811c908216806127c857607f821691505b6020821081036127e857634e487b7160e01b600052602260045260246000fd5b50919050565b83815260606020820152600061280760608301856123be565b905060018060a01b0383166040830152949350505050565b60006101008a83528060208401526128398184018b6123be565b6001600160a01b03998a16604085015297891660608401525050938616608085015291151560a0840152841660c083015290921660e09092019190915292915050565b6000608086835260208181850152612896828501886123be565b6040858203818701528188518084528484019150848160051b850101858b0160005b8381101561292357868303601f19018552815180518452888101516001600160a01b0316898501528681015160a0888601819052906128f9828701826123be565b60608481015190880152928c01511515958c019590955250948801949250908701906001016128b8565b50508097505050505050505061293c606083018461238d565b95945050505050565b85815284602082015260806040820152826080820152828460a0830137600081840160a0908101919091526001600160a01b03929092166060820152601f909201601f1916909101019392505050565b600080835481600182811c9150808316806129b157607f831692505b602080841082036129d057634e487b7160e01b86526022600452602486fd5b8180156129e457600181146129f957612a26565b60ff1986168952841515850289019650612a26565b60008a81526020902060005b86811015612a1e5781548b820152908501908301612a05565b505084890196505b509498975050505050505050565b60208082526036908201527f50726f706f73616c206e6f74206170706c6965642c20756e6465726c79696e67604082015275103a3930b739b0b1ba34b7b7103932bb32b93a32b21760511b60608201526080019056fea26469706673582212207409afc7a3b6c22e354e2170301c5871bd679bd14e5c876ef440b836f6c0949164736f6c63430008130033",
  "immutableReferences": {},
  "source": "// SPDX-License-Identifier: LGPL-3.0-or-later\npragma solidity 0.8.19;\npragma experimental ABIEncoderV2;\n\nimport \"@openzeppelin/contracts/token/ERC20/IERC20.sol\";\nimport \"../libraries/CoreLibrary.sol\";\nimport \"../Procedure.sol\";\n\nstruct Vote {\n    bool voted;\n    bool approved;\n}\n\nstruct Election {\n    // Map voters' addresses to votes.\n    uint256 start;\n    mapping(address => Vote) votes;\n    address[] voters;\n    uint256 votesCount;\n}\n\n/// @title ERC20 Vote Procedure.\n/// @notice An ERC20 Vote Procedure will execute operations based on the decision of a vote. The voter's relative weight in the vote depends on the amount of tokens they own of a certain asset.\ncontract ERC20VoteProcedure is Procedure {\n    using ProcedureLibrary for ProcedureLibrary.Operation;\n    /// @notice Function signature for vote().\n    bytes4 private constant _INTERFACE_VOTE = 0xc9d27afe;\n    mapping(uint256 => Election) internal elections;\n    /// @notice tokenContract is an ERC20 token contract representing the rights to vote.\n    IERC20 public tokenContract;\n    /// @notice quorumSize is the minimum percentage of votes required to validate a election.\n    /// @dev Minimum value (1) is 0.0001% (1/1000000) of all the votes cast.\n    uint32 public quorumSize;\n    /// @notice Duration of vote in seconds.\n    uint32 public voteDuration;\n    /// @notice majoritySize is the minimum percentage of votes required to validate a election.\n    /// @dev Minimum value (1) is 0.0001% (1/1000000) of all addresses allowed to vote.\n    uint32 public majoritySize; // \n\n    ///@notice Register EIP165 interfaces for introspection.\n    /// @param interfaceId The interface identifier.\n    /// @return isSupported True if the interface is supported, false otherwise.\n    function supportsInterface(\n        bytes4 interfaceId\n    ) public view virtual override returns (bool) {\n        return\n            interfaceId == _INTERFACE_VOTE ||\n            super.supportsInterface(interfaceId);\n    }\n\n    /// @notice Check that initialize parameters are correct.\n    function initialize(\n        string memory,\n        address payable,\n        address payable,\n        address payable,\n        bool,\n        address\n    ) public pure override {\n        revert(\"Missing parameters\");\n    }\n\n    /// @notice Initialize the procedure.\n    /// @param _metadata The procedure metadata.\n    /// @param _proposers The organ whose entries will be allowed to propose proposals.\n    /// @param _moderators The organ whose entries will be allowed to moderate proposals.\n    /// @param _deciders The organ whose entries will be allowed to adopt or refect proposals.\n    /// @param _withModeration Whether or not the procedure requires moderation.\n    /// @param _trustedForwarder The trusted forwarder contract.\n    /// @param _tokenContract The ERC20 token contract representing the rights to vote.\n    /// @param _quorumSize The minimum percentage of votes required to validate a election.\n    /// @param _voteDuration Duration of vote in seconds.\n    /// @param _majoritySize The minimum percentage of votes required to validate a election.\n    function initialize(\n        string memory _metadata,\n        address payable _proposers,\n        address payable _moderators,\n        address payable _deciders,\n        bool _withModeration,\n        address _trustedForwarder,\n        address _tokenContract,\n        uint32 _quorumSize,\n        uint32 _voteDuration,\n        uint32 _majoritySize\n    ) public virtual {\n        super.initialize(\n            _metadata,\n            _proposers,\n            _moderators,\n            _deciders,\n            _withModeration,\n            _trustedForwarder\n        );\n        // @todo : Check if tokenContract implements ERC20.\n        tokenContract = IERC20(_tokenContract);\n        quorumSize = _quorumSize;\n        voteDuration = _voteDuration;\n        majoritySize = _majoritySize;\n    }\n\n    /// @notice Vote for a proposal.\n    /// @param proposalKey The key used to identify the proposal.\n    /// @param approval True if the voter approves the proposal, false otherwise.\n    function vote(\n        uint256 proposalKey,\n        bool approval\n    ) public onlyInOrgan(procedureData.deciders) {\n        require(\n            block.timestamp > elections[proposalKey].start,\n            \"Election not started\"\n        );\n        require(\n            block.timestamp < (elections[proposalKey].start + voteDuration),\n            \"Election ended\"\n        );\n        require(\n            !elections[proposalKey].votes[_msgSender()].voted,\n            \"Duplicate record\"\n        );\n        elections[proposalKey].votes[_msgSender()] = Vote({\n            voted: true,\n            approved: approval\n        });\n        elections[proposalKey].voters.push(_msgSender());\n        elections[proposalKey].votesCount++;\n    }\n\n    /// @notice Count votes after election has ended.\n    /// @param proposalKey The key used to identify the proposal.\n    /// @return approved True if the election has been approved.\n    function count(uint256 proposalKey) public view returns (bool approved) {\n        require(elections[proposalKey].start > 0, \"No election\");\n        require(\n            block.timestamp >= (elections[proposalKey].start + voteDuration),\n            \"Election not ended\"\n        );\n        if (procedureData.deciders != address(0)) {\n            (, , , uint256 decidersCount, ) = IOrgan(procedureData.deciders)\n                .getOrgan();\n            require(\n                elections[proposalKey].votesCount >\n                    ((quorumSize * decidersCount) / 100000),\n                \"Quorum has not been reached\"\n            );\n        }\n        uint256 approvals;\n        uint256 objections;\n        for (uint256 i = 0; i < elections[proposalKey].voters.length; i++) {\n            if (\n                elections[proposalKey].votes[elections[proposalKey].voters[i]].voted\n            ) {\n                if (\n                    elections[proposalKey]\n                        .votes[elections[proposalKey].voters[i]]\n                        .approved\n                ) {\n                    approvals += tokenContract.balanceOf(\n                        elections[proposalKey].voters[i]\n                    );\n                } else {\n                    objections += tokenContract.balanceOf(\n                        elections[proposalKey].voters[i]\n                    );\n                }\n            }\n        }\n        require((approvals + objections) > 0, \"No vote\");\n        return (approvals >\n            (((approvals + objections) * majoritySize) / 100000));\n    }\n\n    /**\n      Procedure methods overrides.\n  */\n\n    /// @notice Propose a new election.\n    /// @dev Overrides ProcedureLibrary.propose.\n    /// @param _metadata IPFS multihash of the proposal metadata.\n    /// @param _operations Array of operations to execute if the proposal is approved.\n    /// @return proposalKey The key of the proposal.\n    function propose(\n        string memory _metadata,\n        ProcedureLibrary.Operation[] memory _operations\n    )\n        public\n        override\n        onlyInOrgan(procedureData.proposers)\n        returns (uint256 proposalKey)\n    {\n        proposalKey = super.propose(_metadata, _operations);\n        if (procedureData.proposals[proposalKey].presented) {\n            elections[proposalKey].start = block.timestamp;\n        }\n        return proposalKey;\n    }\n\n    /// @notice Present a election.\n    /// @dev Overrides ProcedureLibrary.presentProposal.\n    /// @param proposalKey The key of the proposal to present.\n    function presentProposal(\n        uint256 proposalKey\n    ) public override onlyInOrgan(procedureData.moderators) {\n        super.presentProposal(proposalKey);\n        elections[proposalKey].start = block.timestamp;\n    }\n\n    /// @notice A veto accepts arguments which defines a motivation as a IPFS multihash.\n    /// @dev Overrides Procedure.blockProposal.\n    /// @param proposalKey The key of the proposal to block.\n    /// @param reason The IPFS multihash of the document explaining why the proposal has been blocked.\n    function blockProposal(\n        uint256 proposalKey,\n        string calldata reason\n    ) public override onlyInOrgan(procedureData.moderators) {\n        require(elections[proposalKey].start != 0, \"Election started\");\n        super.blockProposal(proposalKey, reason);\n    }\n\n    /// @notice Enact the proposal.\n    /// @dev Overrides ProcedureLibrary.adoptProposal.\n    /// Having count here snapshots the votes.\n    /// If a high gas price transaction transfers a lot of tokens,\n    /// and then calls adoptProposal, the result of the vote could\n    /// be determined by the highest bidder.\n    /// @param proposalKey The key of the proposal to adopt.\n    function adoptProposal(\n        uint256 proposalKey\n    ) public override onlyInOrgan(procedureData.moderators) {\n        if (count(proposalKey)) {\n            super.adoptProposal(proposalKey);\n        } else {\n            super.rejectProposal(proposalKey);\n        }\n    }\n\n    /// @notice Get election information.\n    /// @param _proposalKey The key used to identify the proposal.\n    /// @return start Election start UNIX time.\n    /// @return hasVoted True if the sender has voted.\n    /// @return votesCount Number of votes cast so far.\n    function getElection(\n        uint256 _proposalKey\n    ) public view returns (uint256 start, bool hasVoted, uint256 votesCount) {\n        return (\n            elections[_proposalKey].start,\n            elections[_proposalKey].votes[_msgSender()].voted,\n            elections[_proposalKey].votesCount\n        );\n    }\n}\n",
  "sourcePath": "/Users/louis/organigram/packages/contracts/contracts/procedures/ERC20Vote.sol",
  "compiler": {
    "name": "solc",
    "version": "0.8.19+commit.7dd6d404.Emscripten.clang"
  },
  "schemaVersion": "3.4.16",
  "updatedAt": "2023-10-03T20:53:11.321Z",
  "networkType": "ethereum",
  "devdoc": {
    "events": {
      "Initialized(uint8)": {
        "details": "Triggered when the contract has been initialized or reinitialized."
      }
    },
    "kind": "dev",
    "methods": {
      "adoptProposal(uint256)": {
        "details": "Overrides ProcedureLibrary.adoptProposal. Having count here snapshots the votes. If a high gas price transaction transfers a lot of tokens, and then calls adoptProposal, the result of the vote could be determined by the highest bidder.",
        "params": {
          "proposalKey": "The key of the proposal to adopt."
        }
      },
      "blockProposal(uint256,string)": {
        "details": "Overrides Procedure.blockProposal.",
        "params": {
          "proposalKey": "The key of the proposal to block.",
          "reason": "The IPFS multihash of the document explaining why the proposal has been blocked."
        }
      },
      "count(uint256)": {
        "params": {
          "proposalKey": "The key used to identify the proposal."
        },
        "returns": {
          "approved": "True if the election has been approved."
        }
      },
      "getElection(uint256)": {
        "params": {
          "_proposalKey": "The key used to identify the proposal."
        },
        "returns": {
          "hasVoted": "True if the sender has voted.",
          "start": "Election start UNIX time.",
          "votesCount": "Number of votes cast so far."
        }
      },
      "getTrustedForwarder()": {
        "returns": {
          "forwarder": "The address of the Forwarder contract that is being used."
        }
      },
      "initialize(string,address,address,address,bool,address,address,uint32,uint32,uint32)": {
        "params": {
          "_deciders": "The organ whose entries will be allowed to adopt or refect proposals.",
          "_majoritySize": "The minimum percentage of votes required to validate a election.",
          "_metadata": "The procedure metadata.",
          "_moderators": "The organ whose entries will be allowed to moderate proposals.",
          "_proposers": "The organ whose entries will be allowed to propose proposals.",
          "_quorumSize": "The minimum percentage of votes required to validate a election.",
          "_tokenContract": "The ERC20 token contract representing the rights to vote.",
          "_trustedForwarder": "The trusted forwarder contract.",
          "_voteDuration": "Duration of vote in seconds.",
          "_withModeration": "Whether or not the procedure requires moderation."
        }
      },
      "isTrustedForwarder(address)": {
        "params": {
          "forwarder": "The address of the Forwarder contract that is being used."
        },
        "returns": {
          "_0": "isTrustedForwarder `true` if the Forwarder is trusted to forward relayed transactions by this Recipient."
        }
      },
      "presentProposal(uint256)": {
        "details": "Overrides ProcedureLibrary.presentProposal.",
        "params": {
          "proposalKey": "The key of the proposal to present."
        }
      },
      "propose(string,(uint256,address,bytes,uint256,bool)[])": {
        "details": "Overrides ProcedureLibrary.propose.",
        "params": {
          "_metadata": "IPFS multihash of the proposal metadata.",
          "_operations": "Array of operations to execute if the proposal is approved."
        },
        "returns": {
          "proposalKey": "The key of the proposal."
        }
      },
      "supportsInterface(bytes4)": {
        "params": {
          "interfaceId": "The interface identifier."
        },
        "returns": {
          "_0": "isSupported True if the interface is supported, false otherwise."
        }
      },
      "vote(uint256,bool)": {
        "params": {
          "approval": "True if the voter approves the proposal, false otherwise.",
          "proposalKey": "The key used to identify the proposal."
        }
      }
    },
    "stateVariables": {
      "majoritySize": {
        "details": "Minimum value (1) is 0.0001% (1/1000000) of all addresses allowed to vote."
      },
      "quorumSize": {
        "details": "Minimum value (1) is 0.0001% (1/1000000) of all the votes cast."
      }
    },
    "title": "ERC20 Vote Procedure.",
    "version": 1
  },
  "userdoc": {
    "kind": "user",
    "methods": {
      "adoptProposal(uint256)": {
        "notice": "Enact the proposal."
      },
      "applyProposal(uint256)": {
        "notice": "Apply proposal."
      },
      "blockProposal(uint256,string)": {
        "notice": "A veto accepts arguments which defines a motivation as a IPFS multihash."
      },
      "count(uint256)": {
        "notice": "Count votes after election has ended."
      },
      "getElection(uint256)": {
        "notice": "Get election information."
      },
      "getTrustedForwarder()": {
        "notice": ":warning: **Warning** :warning: The Forwarder can have a full control over your Recipient. Only trust verified Forwarder.Method is not a required method to allow Recipients to trust multiple Forwarders. Not recommended yet."
      },
      "initialize(string,address,address,address,bool,address)": {
        "notice": "Check that initialize parameters are correct."
      },
      "initialize(string,address,address,address,bool,address,address,uint32,uint32,uint32)": {
        "notice": "Initialize the procedure."
      },
      "isTrustedForwarder(address)": {
        "notice": ":warning: **Warning** :warning: The Forwarder can have a full control over your Recipient. Only trust verified Forwarder."
      },
      "majoritySize()": {
        "notice": "majoritySize is the minimum percentage of votes required to validate a election."
      },
      "presentProposal(uint256)": {
        "notice": "Present a election."
      },
      "propose(string,(uint256,address,bytes,uint256,bool)[])": {
        "notice": "Propose a new election."
      },
      "quorumSize()": {
        "notice": "quorumSize is the minimum percentage of votes required to validate a election."
      },
      "rejectProposal(uint256)": {
        "notice": "The procedure calls this method directly to adopt and apply proposal."
      },
      "supportsInterface(bytes4)": {
        "notice": "Register EIP165 interfaces for introspection."
      },
      "tokenContract()": {
        "notice": "tokenContract is an ERC20 token contract representing the rights to vote."
      },
      "updateCid(string)": {
        "notice": "Public API : Procedure Cid and Admin."
      },
      "vote(uint256,bool)": {
        "notice": "Vote for a proposal."
      },
      "voteDuration()": {
        "notice": "Duration of vote in seconds."
      }
    },
    "notice": "An ERC20 Vote Procedure will execute operations based on the decision of a vote. The voter's relative weight in the vote depends on the amount of tokens they own of a certain asset.",
    "version": 1
  }
}