{
  "contractName": "ExampleEnhancedCoin",
  "abi": [
    {
      "inputs": [
        {
          "internalType": "uint256",
          "name": "initialSupply",
          "type": "uint256"
        },
        {
          "internalType": "address[]",
          "name": "defaultOperators",
          "type": "address[]"
        },
        {
          "internalType": "string",
          "name": "_name",
          "type": "string"
        },
        {
          "internalType": "string",
          "name": "_symbol",
          "type": "string"
        }
      ],
      "stateMutability": "nonpayable",
      "type": "constructor"
    },
    {
      "anonymous": false,
      "inputs": [
        {
          "indexed": true,
          "internalType": "address",
          "name": "owner",
          "type": "address"
        },
        {
          "indexed": true,
          "internalType": "address",
          "name": "spender",
          "type": "address"
        },
        {
          "indexed": false,
          "internalType": "uint256",
          "name": "value",
          "type": "uint256"
        }
      ],
      "name": "Approval",
      "type": "event"
    },
    {
      "anonymous": false,
      "inputs": [
        {
          "indexed": true,
          "internalType": "address",
          "name": "operator",
          "type": "address"
        },
        {
          "indexed": true,
          "internalType": "address",
          "name": "tokenHolder",
          "type": "address"
        }
      ],
      "name": "AuthorizedOperator",
      "type": "event"
    },
    {
      "anonymous": false,
      "inputs": [
        {
          "indexed": true,
          "internalType": "address",
          "name": "operator",
          "type": "address"
        },
        {
          "indexed": true,
          "internalType": "address",
          "name": "from",
          "type": "address"
        },
        {
          "indexed": false,
          "internalType": "uint256",
          "name": "amount",
          "type": "uint256"
        },
        {
          "indexed": false,
          "internalType": "bytes",
          "name": "data",
          "type": "bytes"
        },
        {
          "indexed": false,
          "internalType": "bytes",
          "name": "operatorData",
          "type": "bytes"
        }
      ],
      "name": "Burned",
      "type": "event"
    },
    {
      "anonymous": false,
      "inputs": [
        {
          "indexed": true,
          "internalType": "address",
          "name": "operator",
          "type": "address"
        },
        {
          "indexed": true,
          "internalType": "address",
          "name": "to",
          "type": "address"
        },
        {
          "indexed": false,
          "internalType": "uint256",
          "name": "amount",
          "type": "uint256"
        },
        {
          "indexed": false,
          "internalType": "bytes",
          "name": "data",
          "type": "bytes"
        },
        {
          "indexed": false,
          "internalType": "bytes",
          "name": "operatorData",
          "type": "bytes"
        }
      ],
      "name": "Minted",
      "type": "event"
    },
    {
      "anonymous": false,
      "inputs": [
        {
          "indexed": true,
          "internalType": "address",
          "name": "operator",
          "type": "address"
        },
        {
          "indexed": true,
          "internalType": "address",
          "name": "tokenHolder",
          "type": "address"
        }
      ],
      "name": "RevokedOperator",
      "type": "event"
    },
    {
      "anonymous": false,
      "inputs": [
        {
          "indexed": true,
          "internalType": "address",
          "name": "operator",
          "type": "address"
        },
        {
          "indexed": true,
          "internalType": "address",
          "name": "from",
          "type": "address"
        },
        {
          "indexed": true,
          "internalType": "address",
          "name": "to",
          "type": "address"
        },
        {
          "indexed": false,
          "internalType": "uint256",
          "name": "amount",
          "type": "uint256"
        },
        {
          "indexed": false,
          "internalType": "bytes",
          "name": "data",
          "type": "bytes"
        },
        {
          "indexed": false,
          "internalType": "bytes",
          "name": "operatorData",
          "type": "bytes"
        }
      ],
      "name": "Sent",
      "type": "event"
    },
    {
      "anonymous": false,
      "inputs": [
        {
          "indexed": true,
          "internalType": "address",
          "name": "from",
          "type": "address"
        },
        {
          "indexed": true,
          "internalType": "address",
          "name": "to",
          "type": "address"
        },
        {
          "indexed": false,
          "internalType": "uint256",
          "name": "value",
          "type": "uint256"
        }
      ],
      "name": "Transfer",
      "type": "event"
    },
    {
      "inputs": [
        {
          "internalType": "address",
          "name": "holder",
          "type": "address"
        },
        {
          "internalType": "address",
          "name": "spender",
          "type": "address"
        }
      ],
      "name": "allowance",
      "outputs": [
        {
          "internalType": "uint256",
          "name": "",
          "type": "uint256"
        }
      ],
      "stateMutability": "view",
      "type": "function"
    },
    {
      "inputs": [
        {
          "internalType": "address",
          "name": "spender",
          "type": "address"
        },
        {
          "internalType": "uint256",
          "name": "value",
          "type": "uint256"
        }
      ],
      "name": "approve",
      "outputs": [
        {
          "internalType": "bool",
          "name": "",
          "type": "bool"
        }
      ],
      "stateMutability": "nonpayable",
      "type": "function"
    },
    {
      "inputs": [
        {
          "internalType": "address",
          "name": "operator",
          "type": "address"
        }
      ],
      "name": "authorizeOperator",
      "outputs": [],
      "stateMutability": "nonpayable",
      "type": "function"
    },
    {
      "inputs": [
        {
          "internalType": "address",
          "name": "tokenHolder",
          "type": "address"
        }
      ],
      "name": "balanceOf",
      "outputs": [
        {
          "internalType": "uint256",
          "name": "",
          "type": "uint256"
        }
      ],
      "stateMutability": "view",
      "type": "function"
    },
    {
      "inputs": [
        {
          "internalType": "uint256",
          "name": "amount",
          "type": "uint256"
        },
        {
          "internalType": "bytes",
          "name": "data",
          "type": "bytes"
        }
      ],
      "name": "burn",
      "outputs": [],
      "stateMutability": "nonpayable",
      "type": "function"
    },
    {
      "inputs": [],
      "name": "decimals",
      "outputs": [
        {
          "internalType": "uint8",
          "name": "",
          "type": "uint8"
        }
      ],
      "stateMutability": "pure",
      "type": "function"
    },
    {
      "inputs": [],
      "name": "defaultOperators",
      "outputs": [
        {
          "internalType": "address[]",
          "name": "",
          "type": "address[]"
        }
      ],
      "stateMutability": "view",
      "type": "function"
    },
    {
      "inputs": [],
      "name": "granularity",
      "outputs": [
        {
          "internalType": "uint256",
          "name": "",
          "type": "uint256"
        }
      ],
      "stateMutability": "view",
      "type": "function"
    },
    {
      "inputs": [
        {
          "internalType": "address",
          "name": "operator",
          "type": "address"
        },
        {
          "internalType": "address",
          "name": "tokenHolder",
          "type": "address"
        }
      ],
      "name": "isOperatorFor",
      "outputs": [
        {
          "internalType": "bool",
          "name": "",
          "type": "bool"
        }
      ],
      "stateMutability": "view",
      "type": "function"
    },
    {
      "inputs": [],
      "name": "name",
      "outputs": [
        {
          "internalType": "string",
          "name": "",
          "type": "string"
        }
      ],
      "stateMutability": "view",
      "type": "function"
    },
    {
      "inputs": [
        {
          "internalType": "address",
          "name": "account",
          "type": "address"
        },
        {
          "internalType": "uint256",
          "name": "amount",
          "type": "uint256"
        },
        {
          "internalType": "bytes",
          "name": "data",
          "type": "bytes"
        },
        {
          "internalType": "bytes",
          "name": "operatorData",
          "type": "bytes"
        }
      ],
      "name": "operatorBurn",
      "outputs": [],
      "stateMutability": "nonpayable",
      "type": "function"
    },
    {
      "inputs": [
        {
          "internalType": "address",
          "name": "sender",
          "type": "address"
        },
        {
          "internalType": "address",
          "name": "recipient",
          "type": "address"
        },
        {
          "internalType": "uint256",
          "name": "amount",
          "type": "uint256"
        },
        {
          "internalType": "bytes",
          "name": "data",
          "type": "bytes"
        },
        {
          "internalType": "bytes",
          "name": "operatorData",
          "type": "bytes"
        }
      ],
      "name": "operatorSend",
      "outputs": [],
      "stateMutability": "nonpayable",
      "type": "function"
    },
    {
      "inputs": [
        {
          "internalType": "address",
          "name": "operator",
          "type": "address"
        }
      ],
      "name": "revokeOperator",
      "outputs": [],
      "stateMutability": "nonpayable",
      "type": "function"
    },
    {
      "inputs": [
        {
          "internalType": "address",
          "name": "recipient",
          "type": "address"
        },
        {
          "internalType": "uint256",
          "name": "amount",
          "type": "uint256"
        },
        {
          "internalType": "bytes",
          "name": "data",
          "type": "bytes"
        }
      ],
      "name": "send",
      "outputs": [],
      "stateMutability": "nonpayable",
      "type": "function"
    },
    {
      "inputs": [],
      "name": "symbol",
      "outputs": [
        {
          "internalType": "string",
          "name": "",
          "type": "string"
        }
      ],
      "stateMutability": "view",
      "type": "function"
    },
    {
      "inputs": [],
      "name": "totalSupply",
      "outputs": [
        {
          "internalType": "uint256",
          "name": "",
          "type": "uint256"
        }
      ],
      "stateMutability": "view",
      "type": "function"
    },
    {
      "inputs": [
        {
          "internalType": "address",
          "name": "recipient",
          "type": "address"
        },
        {
          "internalType": "uint256",
          "name": "amount",
          "type": "uint256"
        }
      ],
      "name": "transfer",
      "outputs": [
        {
          "internalType": "bool",
          "name": "",
          "type": "bool"
        }
      ],
      "stateMutability": "nonpayable",
      "type": "function"
    },
    {
      "inputs": [
        {
          "internalType": "address",
          "name": "holder",
          "type": "address"
        },
        {
          "internalType": "address",
          "name": "recipient",
          "type": "address"
        },
        {
          "internalType": "uint256",
          "name": "amount",
          "type": "uint256"
        }
      ],
      "name": "transferFrom",
      "outputs": [
        {
          "internalType": "bool",
          "name": "",
          "type": "bool"
        }
      ],
      "stateMutability": "nonpayable",
      "type": "function"
    }
  ],
  "bytecode": "0x60806040523480156200001157600080fd5b506040516200209c3803806200209c833981016040819052620000349162000707565b8181846002620000458482620008aa565b506003620000548382620008aa565b5080516200006a90600490602084019062000586565b5060005b8151811015620000da5760016005600084848151811062000093576200009362000976565b6020908102919091018101516001600160a01b03168252810191909152604001600020805460ff191691151591909117905580620000d181620009a2565b9150506200006e565b506040516329965a1d60e01b815230600482018190527fac7fbab5f54a3ca8194167523c6753bfeb96a445279294b6125b68cce217705460248301526044820152731820a4b7618bde71dce8cdc73aab6c95905fad24906329965a1d90606401600060405180830381600087803b1580156200015557600080fd5b505af11580156200016a573d6000803e3d6000fd5b50506040516329965a1d60e01b815230600482018190527faea199e31a596269b42cdafd93407f14436db6e4cad65417994c2eb37381e05a60248301526044820152731820a4b7618bde71dce8cdc73aab6c95905fad2492506329965a1d9150606401600060405180830381600087803b158015620001e857600080fd5b505af1158015620001fd573d6000803e3d6000fd5b505050505050506200023b620002186200024560201b60201c565b604080516020808201835260008083528351918201909352918252879162000249565b5050505062000ac4565b3390565b620002598484848460016200025f565b50505050565b6001600160a01b038516620002bb5760405162461bcd60e51b815260206004820181905260248201527f4552433737373a206d696e7420746f20746865207a65726f206164647265737360448201526064015b60405180910390fd5b60003390508460016000828254620002d49190620009be565b90915550506001600160a01b0386166000908152602081905260408120805487929062000303908490620009be565b909155506200031b90508160008888888888620003b5565b856001600160a01b0316816001600160a01b03167f2fe5be0146f74c5bce36c0b80911af6c7d86ff27e89d5cfa61fc681327954e5d878787604051620003649392919062000a08565b60405180910390a36040518581526001600160a01b038716906000907fddf252ad1be2c89b69c2b068fc378daa952ba7f163c4a11628f55a4df523b3ef9060200160405180910390a3505050505050565b60405163555ddc6560e11b81526001600160a01b03861660048201527fb281fc8c12954d22544db45de3159a39272895b169a852b314f9cc762e44c53b6024820152600090731820a4b7618bde71dce8cdc73aab6c95905fad249063aabbb8ca90604401602060405180830381865afa15801562000437573d6000803e3d6000fd5b505050506040513d601f19601f820116820180604052508101906200045d919062000a41565b90506001600160a01b03811615620004df576040516223de2960e01b81526001600160a01b038216906223de2990620004a5908b908b908b908b908b908b9060040162000a66565b600060405180830381600087803b158015620004c057600080fd5b505af1158015620004d5573d6000803e3d6000fd5b505050506200057c565b81156200057c576001600160a01b0386163b156200057c5760405162461bcd60e51b815260206004820152604d60248201527f4552433737373a20746f6b656e20726563697069656e7420636f6e747261637460448201527f20686173206e6f20696d706c656d656e74657220666f7220455243373737546f60648201526c1ad95b9cd49958da5c1a595b9d609a1b608482015260a401620002b2565b5050505050505050565b828054828255906000526020600020908101928215620005de579160200282015b82811115620005de57825182546001600160a01b0319166001600160a01b03909116178255602090920191600190910190620005a7565b50620005ec929150620005f0565b5090565b5b80821115620005ec5760008155600101620005f1565b634e487b7160e01b600052604160045260246000fd5b604051601f8201601f191681016001600160401b038111828210171562000648576200064862000607565b604052919050565b80516001600160a01b03811681146200066857600080fd5b919050565b60005b838110156200068a57818101518382015260200162000670565b50506000910152565b600082601f830112620006a557600080fd5b81516001600160401b03811115620006c157620006c162000607565b620006d6601f8201601f19166020016200061d565b818152846020838601011115620006ec57600080fd5b620006ff8260208301602087016200066d565b949350505050565b600080600080608085870312156200071e57600080fd5b8451602080870151919550906001600160401b03808211156200074057600080fd5b818801915088601f8301126200075557600080fd5b8151818111156200076a576200076a62000607565b8060051b6200077b8582016200061d565b918252838101850191858101908c8411156200079657600080fd5b948601945b83861015620007bf57620007af8662000650565b825294860194908601906200079b565b60408c0151909950955050505080831115620007da57600080fd5b620007e889848a0162000693565b94506060880151925080831115620007ff57600080fd5b50506200080f8782880162000693565b91505092959194509250565b600181811c908216806200083057607f821691505b6020821081036200085157634e487b7160e01b600052602260045260246000fd5b50919050565b601f821115620008a557600081815260208120601f850160051c81016020861015620008805750805b601f850160051c820191505b81811015620008a1578281556001016200088c565b5050505b505050565b81516001600160401b03811115620008c657620008c662000607565b620008de81620008d784546200081b565b8462000857565b602080601f831160018114620009165760008415620008fd5750858301515b600019600386901b1c1916600185901b178555620008a1565b600085815260208120601f198616915b82811015620009475788860151825594840194600190910190840162000926565b5085821015620009665787850151600019600388901b60f8161c191681555b5050505050600190811b01905550565b634e487b7160e01b600052603260045260246000fd5b634e487b7160e01b600052601160045260246000fd5b600060018201620009b757620009b76200098c565b5060010190565b80820180821115620009d457620009d46200098c565b92915050565b60008151808452620009f48160208601602086016200066d565b601f01601f19169290920160200192915050565b83815260606020820152600062000a236060830185620009da565b828103604084015262000a378185620009da565b9695505050505050565b60006020828403121562000a5457600080fd5b62000a5f8262000650565b9392505050565b6001600160a01b0387811682528681166020830152851660408201526060810184905260c06080820181905260009062000aa390830185620009da565b82810360a084015262000ab78185620009da565b9998505050505050505050565b6115c88062000ad46000396000f3fe608060405234801561001057600080fd5b50600436106100e65760003560e01c806306e48538146100eb57806306fdde0314610109578063095ea7b31461011e57806318160ddd1461014157806323b872dd14610153578063313ce56714610166578063556f0dc71461017557806362ad1b831461017c57806370a0823114610191578063959b8c3f146101ba57806395d89b41146101cd5780639bd9bbc6146101d5578063a9059cbb146101e8578063d95b6371146101fb578063dd62ed3e1461020e578063fad8b32a14610221578063fc673c4f14610234578063fe9d930314610247575b600080fd5b6100f361025a565b6040516101009190611019565b60405180910390f35b6101116102bc565b60405161010091906110ac565b61013161012c3660046110d7565b610345565b6040519015158152602001610100565b6001545b604051908152602001610100565b610131610161366004611103565b61035f565b60405160128152602001610100565b6001610145565b61018f61018a3660046111e6565b6103a5565b005b61014561019f366004611278565b6001600160a01b031660009081526020819052604090205490565b61018f6101c8366004611278565b6103ea565b610111610507565b61018f6101e3366004611295565b610516565b6101316101f63660046110d7565b610539565b6101316102093660046112ed565b610571565b61014561021c3660046112ed565b610613565b61018f61022f366004611278565b61063e565b61018f610242366004611326565b610759565b61018f6102553660046113a5565b610791565b606060048054806020026020016040519081016040528092919081815260200182805480156102b257602002820191906000526020600020905b81546001600160a01b03168152600190910190602001808311610294575b5050505050905090565b6060600280546102cb906113eb565b80601f01602080910402602001604051908101604052809291908181526020018280546102f7906113eb565b80156102b25780601f10610319576101008083540402835291602001916102b2565b820191906000526020600020905b81548152906001019060200180831161032757509395945050505050565b6000336103538185856107b0565b60019150505b92915050565b60003361036d8582856108d7565b61039a8585856040518060200160405280600081525060405180602001604052806000815250600061094b565b506001949350505050565b6103af3386610571565b6103d45760405162461bcd60e51b81526004016103cb90611425565b60405180910390fd5b6103e38585858585600161094b565b5050505050565b6001600160a01b038116330361044e5760405162461bcd60e51b8152602060048201526024808201527f4552433737373a20617574686f72697a696e672073656c66206173206f70657260448201526330ba37b960e11b60648201526084016103cb565b6001600160a01b03811660009081526005602052604090205460ff161561049f573360009081526007602090815260408083206001600160a01b03851684529091529020805460ff191690556104ce565b3360009081526006602090815260408083206001600160a01b03851684529091529020805460ff191660011790555b60405133906001600160a01b038316907ff4caeb2d6ca8932a215a353d0703c326ec2d81fc68170f320eb2ab49e9df61f990600090a350565b6060600380546102cb906113eb565b6105343384848460405180602001604052806000815250600161094b565b505050565b60006105683384846040518060200160405280600081525060405180602001604052806000815250600061094b565b50600192915050565b6000816001600160a01b0316836001600160a01b031614806105dc57506001600160a01b03831660009081526005602052604090205460ff1680156105dc57506001600160a01b0380831660009081526007602090815260408083209387168352929052205460ff16155b8061060c57506001600160a01b0380831660009081526006602090815260408083209387168352929052205460ff165b9392505050565b6001600160a01b03918216600090815260086020908152604080832093909416825291909152205490565b336001600160a01b038216036106a05760405162461bcd60e51b815260206004820152602160248201527f4552433737373a207265766f6b696e672073656c66206173206f70657261746f6044820152603960f91b60648201526084016103cb565b6001600160a01b03811660009081526005602052604090205460ff16156106f4573360009081526007602090815260408083206001600160a01b03851684529091529020805460ff19166001179055610720565b3360009081526006602090815260408083206001600160a01b03851684529091529020805460ff191690555b60405133906001600160a01b038316907f50546e66e5f44d728365dc3908c63bc5cfeeab470722c1677e3073a6ac294aa190600090a350565b6107633385610571565b61077f5760405162461bcd60e51b81526004016103cb90611425565b61078b84848484610a47565b50505050565b6107ac33838360405180602001604052806000815250610a47565b5050565b6001600160a01b0383166108145760405162461bcd60e51b815260206004820152602560248201527f4552433737373a20617070726f76652066726f6d20746865207a65726f206164604482015264647265737360d81b60648201526084016103cb565b6001600160a01b0382166108765760405162461bcd60e51b815260206004820152602360248201527f4552433737373a20617070726f766520746f20746865207a65726f206164647260448201526265737360e81b60648201526084016103cb565b6001600160a01b0383811660008181526008602090815260408083209487168084529482529182902085905590518481527f8c5be1e5ebec7d5bd14f71427d1e84f3dd0314c0f7b2291e5b200ac8c7c3b925910160405180910390a3505050565b60006108e38484610613565b9050600019811461078b578181101561093e5760405162461bcd60e51b815260206004820152601e60248201527f4552433737373a20696e73756666696369656e7420616c6c6f77616e6365000060448201526064016103cb565b61078b84848484036107b0565b6001600160a01b0386166109b05760405162461bcd60e51b815260206004820152602660248201527f4552433737373a207472616e736665722066726f6d20746865207a65726f206160448201526564647265737360d01b60648201526084016103cb565b6001600160a01b038516610a125760405162461bcd60e51b8152602060048201526024808201527f4552433737373a207472616e7366657220746f20746865207a65726f206164646044820152637265737360e01b60648201526084016103cb565b33610a21818888888888610be9565b610a2f818888888888610d08565b610a3e81888888888888610e5c565b50505050505050565b6001600160a01b038416610aa85760405162461bcd60e51b815260206004820152602260248201527f4552433737373a206275726e2066726f6d20746865207a65726f206164647265604482015261737360f01b60648201526084016103cb565b33610ab881866000878787610be9565b6001600160a01b03851660009081526020819052604090205484811015610b2d5760405162461bcd60e51b815260206004820152602360248201527f4552433737373a206275726e20616d6f756e7420657863656564732062616c616044820152626e636560e81b60648201526084016103cb565b6001600160a01b0386166000908152602081905260408120868303905560018054879290610b5c908490611487565b92505081905550856001600160a01b0316826001600160a01b03167fa78a9be3a7b862d26933ad85fb11d80ef66b8f972d7cbba06621d583943a4098878787604051610baa9392919061149a565b60405180910390a36040518581526000906001600160a01b038816906000805160206115738339815191529060200160405180910390a3505050505050565b60405163555ddc6560e11b8152600090731820a4b7618bde71dce8cdc73aab6c95905fad249063aabbb8ca90610c459089907f29ddb589b1fb5fc7cf394961c1adf5f8c6454761adf795e67fe149f658abe895906004016114cf565b602060405180830381865afa158015610c62573d6000803e3d6000fd5b505050506040513d601f19601f82011682018060405250810190610c8691906114e8565b90506001600160a01b03811615610a3e57604051633ad5cbc160e11b81526001600160a01b038216906375ab978290610ccd908a908a908a908a908a908a90600401611505565b600060405180830381600087803b158015610ce757600080fd5b505af1158015610cfb573d6000803e3d6000fd5b5050505050505050505050565b6001600160a01b03851660009081526020819052604090205483811015610d815760405162461bcd60e51b815260206004820152602760248201527f4552433737373a207472616e7366657220616d6f756e7420657863656564732060448201526662616c616e636560c81b60648201526084016103cb565b6001600160a01b03808716600090815260208190526040808220878503905591871681529081208054869290610db890849061155f565b92505081905550846001600160a01b0316866001600160a01b0316886001600160a01b03167f06b541ddaa720db2b10a4d0cdac39b8d360425fc073085fac19bc82614677987878787604051610e109392919061149a565b60405180910390a4846001600160a01b0316866001600160a01b031660008051602061157383398151915286604051610e4b91815260200190565b60405180910390a350505050505050565b60405163555ddc6560e11b8152600090731820a4b7618bde71dce8cdc73aab6c95905fad249063aabbb8ca90610eb89089907fb281fc8c12954d22544db45de3159a39272895b169a852b314f9cc762e44c53b906004016114cf565b602060405180830381865afa158015610ed5573d6000803e3d6000fd5b505050506040513d601f19601f82011682018060405250810190610ef991906114e8565b90506001600160a01b03811615610f75576040516223de2960e01b81526001600160a01b038216906223de2990610f3e908b908b908b908b908b908b90600401611505565b600060405180830381600087803b158015610f5857600080fd5b505af1158015610f6c573d6000803e3d6000fd5b5050505061100f565b811561100f576001600160a01b0386163b1561100f5760405162461bcd60e51b815260206004820152604d60248201527f4552433737373a20746f6b656e20726563697069656e7420636f6e747261637460448201527f20686173206e6f20696d706c656d656e74657220666f7220455243373737546f60648201526c1ad95b9cd49958da5c1a595b9d609a1b608482015260a4016103cb565b5050505050505050565b6020808252825182820181905260009190848201906040850190845b8181101561105a5783516001600160a01b031683529284019291840191600101611035565b50909695505050505050565b6000815180845260005b8181101561108c57602081850181015186830182015201611070565b506000602082860101526020601f19601f83011685010191505092915050565b60208152600061060c6020830184611066565b6001600160a01b03811681146110d457600080fd5b50565b600080604083850312156110ea57600080fd5b82356110f5816110bf565b946020939093013593505050565b60008060006060848603121561111857600080fd5b8335611123816110bf565b92506020840135611133816110bf565b929592945050506040919091013590565b634e487b7160e01b600052604160045260246000fd5b600082601f83011261116b57600080fd5b81356001600160401b038082111561118557611185611144565b604051601f8301601f19908116603f011681019082821181831017156111ad576111ad611144565b816040528381528660208588010111156111c657600080fd5b836020870160208301376000602085830101528094505050505092915050565b600080600080600060a086880312156111fe57600080fd5b8535611209816110bf565b94506020860135611219816110bf565b93506040860135925060608601356001600160401b038082111561123c57600080fd5b61124889838a0161115a565b9350608088013591508082111561125e57600080fd5b5061126b8882890161115a565b9150509295509295909350565b60006020828403121561128a57600080fd5b813561060c816110bf565b6000806000606084860312156112aa57600080fd5b83356112b5816110bf565b92506020840135915060408401356001600160401b038111156112d757600080fd5b6112e38682870161115a565b9150509250925092565b6000806040838503121561130057600080fd5b823561130b816110bf565b9150602083013561131b816110bf565b809150509250929050565b6000806000806080858703121561133c57600080fd5b8435611347816110bf565b93506020850135925060408501356001600160401b038082111561136a57600080fd5b6113768883890161115a565b9350606087013591508082111561138c57600080fd5b506113998782880161115a565b91505092959194509250565b600080604083850312156113b857600080fd5b8235915060208301356001600160401b038111156113d557600080fd5b6113e18582860161115a565b9150509250929050565b600181811c908216806113ff57607f821691505b60208210810361141f57634e487b7160e01b600052602260045260246000fd5b50919050565b6020808252602c908201527f4552433737373a2063616c6c6572206973206e6f7420616e206f70657261746f60408201526b39103337b9103437b63232b960a11b606082015260800190565b634e487b7160e01b600052601160045260246000fd5b8181038181111561035957610359611471565b8381526060602082015260006114b36060830185611066565b82810360408401526114c58185611066565b9695505050505050565b6001600160a01b03929092168252602082015260400190565b6000602082840312156114fa57600080fd5b815161060c816110bf565b6001600160a01b0387811682528681166020830152851660408201526060810184905260c06080820181905260009061154090830185611066565b82810360a08401526115528185611066565b9998505050505050505050565b808201808211156103595761035961147156feddf252ad1be2c89b69c2b068fc378daa952ba7f163c4a11628f55a4df523b3efa26469706673582212208f12ee8c76ea83340929f6028ad45d091df1a588bcd6e1c725d4246df25dfa5d64736f6c63430008130033",
  "immutableReferences": {},
  "source": "// SPDX-License-Identifier: MIT\npragma solidity 0.8.19;\n\nimport \"@openzeppelin/contracts/token/ERC777/ERC777.sol\";\n\ncontract ExampleEnhancedCoin is ERC777 {\n  constructor(uint256 initialSupply, address[] memory defaultOperators, string memory _name, string memory _symbol)\n    ERC777(_name, _symbol, defaultOperators)\n  {\n    _mint(_msgSender(), initialSupply, \"\", \"\");\n  }\n}",
  "sourcePath": "/Users/louis/organigram/packages/contracts/contracts/utils/ExampleEnhancedCoin.sol",
  "compiler": {
    "name": "solc",
    "version": "0.8.19+commit.7dd6d404.Emscripten.clang"
  },
  "schemaVersion": "3.4.16",
  "updatedAt": "2023-10-01T15:05:50.617Z",
  "devdoc": {
    "events": {
      "Approval(address,address,uint256)": {
        "details": "Emitted when the allowance of a `spender` for an `owner` is set by a call to {approve}. `value` is the new allowance."
      },
      "AuthorizedOperator(address,address)": {
        "details": "Emitted when `operator` is made operator for `tokenHolder`."
      },
      "Burned(address,address,uint256,bytes,bytes)": {
        "details": "Emitted when `operator` destroys `amount` tokens from `account`. Note that some additional user `data` and `operatorData` can be logged in the event."
      },
      "Minted(address,address,uint256,bytes,bytes)": {
        "details": "Emitted when `amount` tokens are created by `operator` and assigned to `to`. Note that some additional user `data` and `operatorData` can be logged in the event."
      },
      "RevokedOperator(address,address)": {
        "details": "Emitted when `operator` is revoked its operator status for `tokenHolder`."
      },
      "Transfer(address,address,uint256)": {
        "details": "Emitted when `value` tokens are moved from one account (`from`) to another (`to`). Note that `value` may be zero."
      }
    },
    "kind": "dev",
    "methods": {
      "allowance(address,address)": {
        "details": "See {IERC20-allowance}. Note that operator and allowance concepts are orthogonal: operators may not have allowance, and accounts with allowance may not be operators themselves."
      },
      "approve(address,uint256)": {
        "details": "See {IERC20-approve}. NOTE: If `value` is the maximum `uint256`, the allowance is not updated on `transferFrom`. This is semantically equivalent to an infinite approval. Note that accounts cannot have allowance issued by their operators."
      },
      "authorizeOperator(address)": {
        "details": "See {IERC777-authorizeOperator}."
      },
      "balanceOf(address)": {
        "details": "Returns the amount of tokens owned by an account (`tokenHolder`)."
      },
      "burn(uint256,bytes)": {
        "details": "See {IERC777-burn}. Also emits a {IERC20-Transfer} event for ERC20 compatibility."
      },
      "decimals()": {
        "details": "See {ERC20-decimals}. Always returns 18, as per the [ERC777 EIP](https://eips.ethereum.org/EIPS/eip-777#backward-compatibility)."
      },
      "defaultOperators()": {
        "details": "See {IERC777-defaultOperators}."
      },
      "granularity()": {
        "details": "See {IERC777-granularity}. This implementation always returns `1`."
      },
      "isOperatorFor(address,address)": {
        "details": "See {IERC777-isOperatorFor}."
      },
      "name()": {
        "details": "See {IERC777-name}."
      },
      "operatorBurn(address,uint256,bytes,bytes)": {
        "details": "See {IERC777-operatorBurn}. Emits {Burned} and {IERC20-Transfer} events."
      },
      "operatorSend(address,address,uint256,bytes,bytes)": {
        "details": "See {IERC777-operatorSend}. Emits {Sent} and {IERC20-Transfer} events."
      },
      "revokeOperator(address)": {
        "details": "See {IERC777-revokeOperator}."
      },
      "send(address,uint256,bytes)": {
        "details": "See {IERC777-send}. Also emits a {IERC20-Transfer} event for ERC20 compatibility."
      },
      "symbol()": {
        "details": "See {IERC777-symbol}."
      },
      "totalSupply()": {
        "details": "See {IERC777-totalSupply}."
      },
      "transfer(address,uint256)": {
        "details": "See {IERC20-transfer}. Unlike `send`, `recipient` is _not_ required to implement the {IERC777Recipient} interface if it is a contract. Also emits a {Sent} event."
      },
      "transferFrom(address,address,uint256)": {
        "details": "See {IERC20-transferFrom}. NOTE: Does not update the allowance if the current allowance is the maximum `uint256`. Note that operator and allowance concepts are orthogonal: operators cannot call `transferFrom` (unless they have allowance), and accounts with allowance cannot call `operatorSend` (unless they are operators). Emits {Sent}, {IERC20-Transfer} and {IERC20-Approval} events."
      }
    },
    "version": 1
  },
  "userdoc": {
    "kind": "user",
    "methods": {},
    "version": 1
  }
}