{
  "contractName": "ExampleMultitoken",
  "abi": [
    {
      "inputs": [],
      "stateMutability": "nonpayable",
      "type": "constructor"
    },
    {
      "anonymous": false,
      "inputs": [
        {
          "indexed": true,
          "internalType": "address",
          "name": "account",
          "type": "address"
        },
        {
          "indexed": true,
          "internalType": "address",
          "name": "operator",
          "type": "address"
        },
        {
          "indexed": false,
          "internalType": "bool",
          "name": "approved",
          "type": "bool"
        }
      ],
      "name": "ApprovalForAll",
      "type": "event"
    },
    {
      "anonymous": false,
      "inputs": [
        {
          "indexed": true,
          "internalType": "address",
          "name": "operator",
          "type": "address"
        },
        {
          "indexed": true,
          "internalType": "address",
          "name": "from",
          "type": "address"
        },
        {
          "indexed": true,
          "internalType": "address",
          "name": "to",
          "type": "address"
        },
        {
          "indexed": false,
          "internalType": "uint256[]",
          "name": "ids",
          "type": "uint256[]"
        },
        {
          "indexed": false,
          "internalType": "uint256[]",
          "name": "values",
          "type": "uint256[]"
        }
      ],
      "name": "TransferBatch",
      "type": "event"
    },
    {
      "anonymous": false,
      "inputs": [
        {
          "indexed": true,
          "internalType": "address",
          "name": "operator",
          "type": "address"
        },
        {
          "indexed": true,
          "internalType": "address",
          "name": "from",
          "type": "address"
        },
        {
          "indexed": true,
          "internalType": "address",
          "name": "to",
          "type": "address"
        },
        {
          "indexed": false,
          "internalType": "uint256",
          "name": "id",
          "type": "uint256"
        },
        {
          "indexed": false,
          "internalType": "uint256",
          "name": "value",
          "type": "uint256"
        }
      ],
      "name": "TransferSingle",
      "type": "event"
    },
    {
      "anonymous": false,
      "inputs": [
        {
          "indexed": false,
          "internalType": "string",
          "name": "value",
          "type": "string"
        },
        {
          "indexed": true,
          "internalType": "uint256",
          "name": "id",
          "type": "uint256"
        }
      ],
      "name": "URI",
      "type": "event"
    },
    {
      "inputs": [],
      "name": "GOLD",
      "outputs": [
        {
          "internalType": "uint256",
          "name": "",
          "type": "uint256"
        }
      ],
      "stateMutability": "view",
      "type": "function"
    },
    {
      "inputs": [],
      "name": "SHIELD",
      "outputs": [
        {
          "internalType": "uint256",
          "name": "",
          "type": "uint256"
        }
      ],
      "stateMutability": "view",
      "type": "function"
    },
    {
      "inputs": [],
      "name": "SILVER",
      "outputs": [
        {
          "internalType": "uint256",
          "name": "",
          "type": "uint256"
        }
      ],
      "stateMutability": "view",
      "type": "function"
    },
    {
      "inputs": [],
      "name": "SWORD",
      "outputs": [
        {
          "internalType": "uint256",
          "name": "",
          "type": "uint256"
        }
      ],
      "stateMutability": "view",
      "type": "function"
    },
    {
      "inputs": [],
      "name": "THORS_HAMMER",
      "outputs": [
        {
          "internalType": "uint256",
          "name": "",
          "type": "uint256"
        }
      ],
      "stateMutability": "view",
      "type": "function"
    },
    {
      "inputs": [
        {
          "internalType": "address",
          "name": "account",
          "type": "address"
        },
        {
          "internalType": "uint256",
          "name": "id",
          "type": "uint256"
        }
      ],
      "name": "balanceOf",
      "outputs": [
        {
          "internalType": "uint256",
          "name": "",
          "type": "uint256"
        }
      ],
      "stateMutability": "view",
      "type": "function"
    },
    {
      "inputs": [
        {
          "internalType": "address[]",
          "name": "accounts",
          "type": "address[]"
        },
        {
          "internalType": "uint256[]",
          "name": "ids",
          "type": "uint256[]"
        }
      ],
      "name": "balanceOfBatch",
      "outputs": [
        {
          "internalType": "uint256[]",
          "name": "",
          "type": "uint256[]"
        }
      ],
      "stateMutability": "view",
      "type": "function"
    },
    {
      "inputs": [
        {
          "internalType": "address",
          "name": "account",
          "type": "address"
        },
        {
          "internalType": "address",
          "name": "operator",
          "type": "address"
        }
      ],
      "name": "isApprovedForAll",
      "outputs": [
        {
          "internalType": "bool",
          "name": "",
          "type": "bool"
        }
      ],
      "stateMutability": "view",
      "type": "function"
    },
    {
      "inputs": [
        {
          "internalType": "address",
          "name": "from",
          "type": "address"
        },
        {
          "internalType": "address",
          "name": "to",
          "type": "address"
        },
        {
          "internalType": "uint256[]",
          "name": "ids",
          "type": "uint256[]"
        },
        {
          "internalType": "uint256[]",
          "name": "amounts",
          "type": "uint256[]"
        },
        {
          "internalType": "bytes",
          "name": "data",
          "type": "bytes"
        }
      ],
      "name": "safeBatchTransferFrom",
      "outputs": [],
      "stateMutability": "nonpayable",
      "type": "function"
    },
    {
      "inputs": [
        {
          "internalType": "address",
          "name": "from",
          "type": "address"
        },
        {
          "internalType": "address",
          "name": "to",
          "type": "address"
        },
        {
          "internalType": "uint256",
          "name": "id",
          "type": "uint256"
        },
        {
          "internalType": "uint256",
          "name": "amount",
          "type": "uint256"
        },
        {
          "internalType": "bytes",
          "name": "data",
          "type": "bytes"
        }
      ],
      "name": "safeTransferFrom",
      "outputs": [],
      "stateMutability": "nonpayable",
      "type": "function"
    },
    {
      "inputs": [
        {
          "internalType": "address",
          "name": "operator",
          "type": "address"
        },
        {
          "internalType": "bool",
          "name": "approved",
          "type": "bool"
        }
      ],
      "name": "setApprovalForAll",
      "outputs": [],
      "stateMutability": "nonpayable",
      "type": "function"
    },
    {
      "inputs": [
        {
          "internalType": "bytes4",
          "name": "interfaceId",
          "type": "bytes4"
        }
      ],
      "name": "supportsInterface",
      "outputs": [
        {
          "internalType": "bool",
          "name": "",
          "type": "bool"
        }
      ],
      "stateMutability": "view",
      "type": "function"
    },
    {
      "inputs": [
        {
          "internalType": "uint256",
          "name": "",
          "type": "uint256"
        }
      ],
      "name": "uri",
      "outputs": [
        {
          "internalType": "string",
          "name": "",
          "type": "string"
        }
      ],
      "stateMutability": "view",
      "type": "function"
    }
  ],
  "bytecode": "0x60806040523480156200001157600080fd5b5060405180606001604052806027815260200162001b9f6027913962000037816200010f565b5062000064336000670de0b6b3a7640000604051806020016040528060008152506200012160201b60201c565b620000943360016b033b2e3c9fd0803ce8000000604051806020016040528060008152506200012160201b60201c565b620000b93360026001604051806020016040528060008152506200012160201b60201c565b620000e1336003633b9aca00604051806020016040528060008152506200012160201b60201c565b62000109336004633b9aca00604051806020016040528060008152506200012160201b60201c565b620007ae565b60026200011d8282620004f2565b5050565b6001600160a01b038416620001875760405162461bcd60e51b815260206004820152602160248201527f455243313135353a206d696e7420746f20746865207a65726f206164647265736044820152607360f81b60648201526084015b60405180910390fd5b336000620001958562000243565b90506000620001a48562000243565b90506000868152602081815260408083206001600160a01b038b16845290915281208054879290620001d8908490620005be565b909155505060408051878152602081018790526001600160a01b03808a1692600092918716917fc3d58168c5ae7397731d063d5bbf3d657854427343f4c083240f7aacaa2d0f62910160405180910390a46200023a8360008989898962000299565b50505050505050565b60408051600180825281830190925260609160009190602080830190803683370190505090508281600081518110620002805762000280620005e6565b602090810291909101015292915050565b505050505050565b6001600160a01b0384163b15620002915760405163f23a6e6160e01b81526001600160a01b0385169063f23a6e6190620002e0908990899088908890889060040162000644565b6020604051808303816000875af19250505080156200031e575060408051601f3d908101601f191682019092526200031b918101906200068b565b60015b620003de576200032d620006be565b806308c379a0036200036d5750620003446200070a565b806200035157506200036f565b8060405162461bcd60e51b81526004016200017e919062000799565b505b60405162461bcd60e51b815260206004820152603460248201527f455243313135353a207472616e7366657220746f206e6f6e2d4552433131353560448201527f526563656976657220696d706c656d656e74657200000000000000000000000060648201526084016200017e565b6001600160e01b0319811663f23a6e6160e01b146200023a5760405162461bcd60e51b815260206004820152602860248201527f455243313135353a204552433131353552656365697665722072656a656374656044820152676420746f6b656e7360c01b60648201526084016200017e565b634e487b7160e01b600052604160045260246000fd5b600181811c908216806200047c57607f821691505b6020821081036200049d57634e487b7160e01b600052602260045260246000fd5b50919050565b601f821115620004ed57600081815260208120601f850160051c81016020861015620004cc5750805b601f850160051c820191505b818110156200029157828155600101620004d8565b505050565b81516001600160401b038111156200050e576200050e62000451565b62000526816200051f845462000467565b84620004a3565b602080601f8311600181146200055e5760008415620005455750858301515b600019600386901b1c1916600185901b17855562000291565b600085815260208120601f198616915b828110156200058f578886015182559484019460019091019084016200056e565b5085821015620005ae5787850151600019600388901b60f8161c191681555b5050505050600190811b01905550565b80820180821115620005e057634e487b7160e01b600052601160045260246000fd5b92915050565b634e487b7160e01b600052603260045260246000fd5b6000815180845260005b81811015620006245760208185018101518683018201520162000606565b506000602082860101526020601f19601f83011685010191505092915050565b6001600160a01b03868116825285166020820152604081018490526060810183905260a0608082018190526000906200068090830184620005fc565b979650505050505050565b6000602082840312156200069e57600080fd5b81516001600160e01b031981168114620006b757600080fd5b9392505050565b600060033d1115620006d85760046000803e5060005160e01c5b90565b601f8201601f191681016001600160401b038111828210171562000703576200070362000451565b6040525050565b600060443d1015620007195790565b6040516003193d81016004833e81513d6001600160401b0380831160248401831017156200074957505050505090565b8285019150815181811115620007625750505050505090565b843d87010160208285010111156200077d5750505050505090565b6200078e60208286010187620006db565b509095945050505050565b602081526000620006b76020830184620005fc565b6113e180620007be6000396000f3fe608060405234801561001057600080fd5b50600436106100ae5760003560e01c8062fdd58e146100b357806301ffc9a7146100d95780630e89341c146100fc57806313dc989f1461011c5780632eb2c2d6146101245780633e4bee38146101395780634e1273f4146101415780635b2725ed14610161578063a22cb46514610169578063d562e2041461017c578063e3e55f0814610184578063e985e9c51461018c578063f242432a146101c8575b600080fd5b6100c66100c1366004610bab565b6101db565b6040519081526020015b60405180910390f35b6100ec6100e7366004610bee565b610274565b60405190151581526020016100d0565b61010f61010a366004610c12565b6102c4565b6040516100d09190610c71565b6100c6600381565b610137610132366004610dcd565b610358565b005b6100c6600081565b61015461014f366004610e76565b6103a4565b6040516100d09190610f7b565b6100c6600481565b610137610177366004610f8e565b6104cd565b6100c6600281565b6100c6600181565b6100ec61019a366004610fca565b6001600160a01b03918216600090815260016020908152604080832093909416825291909152205460ff1690565b6101376101d6366004610ffd565b6104dc565b60006001600160a01b03831661024b5760405162461bcd60e51b815260206004820152602a60248201527f455243313135353a2061646472657373207a65726f206973206e6f742061207660448201526930b634b21037bbb732b960b11b60648201526084015b60405180910390fd5b506000818152602081815260408083206001600160a01b03861684529091529020545b92915050565b60006001600160e01b03198216636cdb3d1360e11b14806102a557506001600160e01b031982166303a24d0760e21b145b8061026e57506301ffc9a760e01b6001600160e01b031983161461026e565b6060600280546102d390611061565b80601f01602080910402602001604051908101604052809291908181526020018280546102ff90611061565b801561034c5780601f106103215761010080835404028352916020019161034c565b820191906000526020600020905b81548152906001019060200180831161032f57829003601f168201915b50505050509050919050565b6001600160a01b0385163314806103745750610374853361019a565b6103905760405162461bcd60e51b81526004016102429061109b565b61039d8585858585610521565b5050505050565b606081518351146104095760405162461bcd60e51b815260206004820152602960248201527f455243313135353a206163636f756e747320616e6420696473206c656e677468604482015268040dad2e6dac2e8c6d60bb1b6064820152608401610242565b600083516001600160401b0381111561042457610424610c84565b60405190808252806020026020018201604052801561044d578160200160208202803683370190505b50905060005b84518110156104c557610498858281518110610471576104716110e9565b602002602001015185838151811061048b5761048b6110e9565b60200260200101516101db565b8282815181106104aa576104aa6110e9565b60209081029190910101526104be81611115565b9050610453565b509392505050565b6104d83383836106fe565b5050565b6001600160a01b0385163314806104f857506104f8853361019a565b6105145760405162461bcd60e51b81526004016102429061109b565b61039d85858585856107de565b81518351146105835760405162461bcd60e51b815260206004820152602860248201527f455243313135353a2069647320616e6420616d6f756e7473206c656e677468206044820152670dad2e6dac2e8c6d60c31b6064820152608401610242565b6001600160a01b0384166105a95760405162461bcd60e51b81526004016102429061112e565b3360005b84518110156106905760008582815181106105ca576105ca6110e9565b6020026020010151905060008583815181106105e8576105e86110e9565b602090810291909101810151600084815280835260408082206001600160a01b038e1683529093529190912054909150818110156106385760405162461bcd60e51b815260040161024290611173565b6000838152602081815260408083206001600160a01b038e8116855292528083208585039055908b168252812080548492906106759084906111bd565b925050819055505050508061068990611115565b90506105ad565b50846001600160a01b0316866001600160a01b0316826001600160a01b03167f4a39dc06d4c0dbc64b70af90fd698a233a518aa5d07e595d983b8c0526c8f7fb87876040516106e09291906111d0565b60405180910390a46106f6818787878787610908565b505050505050565b816001600160a01b0316836001600160a01b0316036107715760405162461bcd60e51b815260206004820152602960248201527f455243313135353a2073657474696e6720617070726f76616c20737461747573604482015268103337b91039b2b63360b91b6064820152608401610242565b6001600160a01b03838116600081815260016020908152604080832094871680845294825291829020805460ff191686151590811790915591519182527f17307eab39ab6107e8899845ad3d59bd9653f200f220920489ca2b5937696c31910160405180910390a3505050565b6001600160a01b0384166108045760405162461bcd60e51b81526004016102429061112e565b33600061081085610a73565b9050600061081d85610a73565b90506000868152602081815260408083206001600160a01b038c168452909152902054858110156108605760405162461bcd60e51b815260040161024290611173565b6000878152602081815260408083206001600160a01b038d8116855292528083208985039055908a1682528120805488929061089d9084906111bd565b909155505060408051888152602081018890526001600160a01b03808b16928c821692918816917fc3d58168c5ae7397731d063d5bbf3d657854427343f4c083240f7aacaa2d0f62910160405180910390a46108fd848a8a8a8a8a610abe565b505050505050505050565b61091a846001600160a01b0316610b80565b156106f65760405163bc197c8160e01b81526001600160a01b0385169063bc197c819061095390899089908890889088906004016111fe565b6020604051808303816000875af192505050801561098e575060408051601f3d908101601f1916820190925261098b9181019061125c565b60015b610a3a5761099a611279565b806308c379a0036109d357506109ae611295565b806109b957506109d5565b8060405162461bcd60e51b81526004016102429190610c71565b505b60405162461bcd60e51b815260206004820152603460248201527f455243313135353a207472616e7366657220746f206e6f6e2d455243313135356044820152732932b1b2b4bb32b91034b6b83632b6b2b73a32b960611b6064820152608401610242565b6001600160e01b0319811663bc197c8160e01b14610a6a5760405162461bcd60e51b81526004016102429061131e565b50505050505050565b60408051600180825281830190925260609160009190602080830190803683370190505090508281600081518110610aad57610aad6110e9565b602090810291909101015292915050565b610ad0846001600160a01b0316610b80565b156106f65760405163f23a6e6160e01b81526001600160a01b0385169063f23a6e6190610b099089908990889088908890600401611366565b6020604051808303816000875af1925050508015610b44575060408051601f3d908101601f19168201909252610b419181019061125c565b60015b610b505761099a611279565b6001600160e01b0319811663f23a6e6160e01b14610a6a5760405162461bcd60e51b81526004016102429061131e565b6001600160a01b03163b151590565b80356001600160a01b0381168114610ba657600080fd5b919050565b60008060408385031215610bbe57600080fd5b610bc783610b8f565b946020939093013593505050565b6001600160e01b031981168114610beb57600080fd5b50565b600060208284031215610c0057600080fd5b8135610c0b81610bd5565b9392505050565b600060208284031215610c2457600080fd5b5035919050565b6000815180845260005b81811015610c5157602081850181015186830182015201610c35565b506000602082860101526020601f19601f83011685010191505092915050565b602081526000610c0b6020830184610c2b565b634e487b7160e01b600052604160045260246000fd5b601f8201601f191681016001600160401b0381118282101715610cbf57610cbf610c84565b6040525050565b60006001600160401b03821115610cdf57610cdf610c84565b5060051b60200190565b600082601f830112610cfa57600080fd5b81356020610d0782610cc6565b604051610d148282610c9a565b83815260059390931b8501820192828101915086841115610d3457600080fd5b8286015b84811015610d4f5780358352918301918301610d38565b509695505050505050565b600082601f830112610d6b57600080fd5b81356001600160401b03811115610d8457610d84610c84565b604051610d9b601f8301601f191660200182610c9a565b818152846020838601011115610db057600080fd5b816020850160208301376000918101602001919091529392505050565b600080600080600060a08688031215610de557600080fd5b610dee86610b8f565b9450610dfc60208701610b8f565b935060408601356001600160401b0380821115610e1857600080fd5b610e2489838a01610ce9565b94506060880135915080821115610e3a57600080fd5b610e4689838a01610ce9565b93506080880135915080821115610e5c57600080fd5b50610e6988828901610d5a565b9150509295509295909350565b60008060408385031215610e8957600080fd5b82356001600160401b0380821115610ea057600080fd5b818501915085601f830112610eb457600080fd5b81356020610ec182610cc6565b604051610ece8282610c9a565b83815260059390931b8501820192828101915089841115610eee57600080fd5b948201945b83861015610f1357610f0486610b8f565b82529482019490820190610ef3565b96505086013592505080821115610f2957600080fd5b50610f3685828601610ce9565b9150509250929050565b600081518084526020808501945080840160005b83811015610f7057815187529582019590820190600101610f54565b509495945050505050565b602081526000610c0b6020830184610f40565b60008060408385031215610fa157600080fd5b610faa83610b8f565b915060208301358015158114610fbf57600080fd5b809150509250929050565b60008060408385031215610fdd57600080fd5b610fe683610b8f565b9150610ff460208401610b8f565b90509250929050565b600080600080600060a0868803121561101557600080fd5b61101e86610b8f565b945061102c60208701610b8f565b9350604086013592506060860135915060808601356001600160401b0381111561105557600080fd5b610e6988828901610d5a565b600181811c9082168061107557607f821691505b60208210810361109557634e487b7160e01b600052602260045260246000fd5b50919050565b6020808252602e908201527f455243313135353a2063616c6c6572206973206e6f7420746f6b656e206f776e60408201526d195c881bdc88185c1c1c9bdd995960921b606082015260800190565b634e487b7160e01b600052603260045260246000fd5b634e487b7160e01b600052601160045260246000fd5b600060018201611127576111276110ff565b5060010190565b60208082526025908201527f455243313135353a207472616e7366657220746f20746865207a65726f206164604082015264647265737360d81b606082015260800190565b6020808252602a908201527f455243313135353a20696e73756666696369656e742062616c616e636520666f60408201526939103a3930b739b332b960b11b606082015260800190565b8082018082111561026e5761026e6110ff565b6040815260006111e36040830185610f40565b82810360208401526111f58185610f40565b95945050505050565b6001600160a01b0386811682528516602082015260a06040820181905260009061122a90830186610f40565b828103606084015261123c8186610f40565b905082810360808401526112508185610c2b565b98975050505050505050565b60006020828403121561126e57600080fd5b8151610c0b81610bd5565b600060033d11156112925760046000803e5060005160e01c5b90565b600060443d10156112a35790565b6040516003193d81016004833e81513d6001600160401b0380831160248401831017156112d257505050505090565b82850191508151818111156112ea5750505050505090565b843d87010160208285010111156113045750505050505090565b61131360208286010187610c9a565b509095945050505050565b60208082526028908201527f455243313135353a204552433131353552656365697665722072656a656374656040820152676420746f6b656e7360c01b606082015260800190565b6001600160a01b03868116825285166020820152604081018490526060810183905260a0608082018190526000906113a090830184610c2b565b97965050505050505056fea2646970667358221220540c9645d545ca14f320f8546c280a55b4ef3a26152dc1ca94b2c3d052ffb08a64736f6c6343000813003368747470733a2f2f67616d652e6578616d706c652f6170692f6974656d2f7b69647d2e6a736f6e",
  "immutableReferences": {},
  "source": "// SPDX-License-Identifier: MIT\npragma solidity 0.8.19;\n\nimport \"@openzeppelin/contracts/token/ERC1155/ERC1155.sol\";\n\ncontract ExampleMultitoken is ERC1155 {\n  uint256 public constant GOLD = 0;\n  uint256 public constant SILVER = 1;\n  uint256 public constant THORS_HAMMER = 2;\n  uint256 public constant SWORD = 3;\n  uint256 public constant SHIELD = 4;\n\n  constructor() ERC1155(\"https://game.example/api/item/{id}.json\") {\n    _mint(_msgSender(), GOLD, 10**18, \"\");\n    _mint(_msgSender(), SILVER, 10**27, \"\");\n    _mint(_msgSender(), THORS_HAMMER, 1, \"\");\n    _mint(_msgSender(), SWORD, 10**9, \"\");\n    _mint(_msgSender(), SHIELD, 10**9, \"\");\n  }\n}",
  "sourcePath": "/Users/louis/organigram/packages/contracts/contracts/utils/ExampleMultitoken.sol",
  "compiler": {
    "name": "solc",
    "version": "0.8.19+commit.7dd6d404.Emscripten.clang"
  },
  "schemaVersion": "3.4.16",
  "updatedAt": "2023-10-01T15:05:50.626Z",
  "devdoc": {
    "events": {
      "ApprovalForAll(address,address,bool)": {
        "details": "Emitted when `account` grants or revokes permission to `operator` to transfer their tokens, according to `approved`."
      },
      "TransferBatch(address,address,address,uint256[],uint256[])": {
        "details": "Equivalent to multiple {TransferSingle} events, where `operator`, `from` and `to` are the same for all transfers."
      },
      "TransferSingle(address,address,address,uint256,uint256)": {
        "details": "Emitted when `value` tokens of token type `id` are transferred from `from` to `to` by `operator`."
      },
      "URI(string,uint256)": {
        "details": "Emitted when the URI for token type `id` changes to `value`, if it is a non-programmatic URI. If an {URI} event was emitted for `id`, the standard https://eips.ethereum.org/EIPS/eip-1155#metadata-extensions[guarantees] that `value` will equal the value returned by {IERC1155MetadataURI-uri}."
      }
    },
    "kind": "dev",
    "methods": {
      "balanceOf(address,uint256)": {
        "details": "See {IERC1155-balanceOf}. Requirements: - `account` cannot be the zero address."
      },
      "balanceOfBatch(address[],uint256[])": {
        "details": "See {IERC1155-balanceOfBatch}. Requirements: - `accounts` and `ids` must have the same length."
      },
      "isApprovedForAll(address,address)": {
        "details": "See {IERC1155-isApprovedForAll}."
      },
      "safeBatchTransferFrom(address,address,uint256[],uint256[],bytes)": {
        "details": "See {IERC1155-safeBatchTransferFrom}."
      },
      "safeTransferFrom(address,address,uint256,uint256,bytes)": {
        "details": "See {IERC1155-safeTransferFrom}."
      },
      "setApprovalForAll(address,bool)": {
        "details": "See {IERC1155-setApprovalForAll}."
      },
      "supportsInterface(bytes4)": {
        "details": "See {IERC165-supportsInterface}."
      },
      "uri(uint256)": {
        "details": "See {IERC1155MetadataURI-uri}. This implementation returns the same URI for *all* token types. It relies on the token type ID substitution mechanism https://eips.ethereum.org/EIPS/eip-1155#metadata[defined in the EIP]. Clients calling this function must replace the `\\{id\\}` substring with the actual token type ID."
      }
    },
    "version": 1
  },
  "userdoc": {
    "kind": "user",
    "methods": {},
    "version": 1
  }
}