{
  "contractName": "Kelsen",
  "abi": [
    {
      "inputs": [
        {
          "internalType": "bool",
          "name": "_isOrgan",
          "type": "bool"
        },
        {
          "internalType": "bool",
          "name": "_isProcedure",
          "type": "bool"
        }
      ],
      "stateMutability": "nonpayable",
      "type": "constructor"
    },
    {
      "inputs": [],
      "name": "isOrgan",
      "outputs": [
        {
          "internalType": "bool",
          "name": "",
          "type": "bool"
        }
      ],
      "stateMutability": "view",
      "type": "function"
    },
    {
      "inputs": [],
      "name": "isProcedure",
      "outputs": [
        {
          "internalType": "bool",
          "name": "",
          "type": "bool"
        }
      ],
      "stateMutability": "view",
      "type": "function"
    },
    {
      "inputs": [],
      "name": "kelsenVersion",
      "outputs": [
        {
          "internalType": "uint8",
          "name": "",
          "type": "uint8"
        }
      ],
      "stateMutability": "view",
      "type": "function"
    },
    {
      "inputs": [],
      "name": "getKelsenData",
      "outputs": [
        {
          "internalType": "bool",
          "name": "",
          "type": "bool"
        },
        {
          "internalType": "bool",
          "name": "",
          "type": "bool"
        },
        {
          "internalType": "uint8",
          "name": "",
          "type": "uint8"
        }
      ],
      "stateMutability": "view",
      "type": "function"
    }
  ],
  "bytecode": "0x608060405260036000806101000a81548160ff021916908360ff16021790555034801561002b57600080fd5b5060405161024d38038061024d8339818101604052604081101561004e57600080fd5b81019080805190602001909291908051906020019092919050505081600060016101000a81548160ff02191690831515021790555080600060026101000a81548160ff021916908315150217905550505061019f806100ae6000396000f3fe608060405234801561001057600080fd5b506004361061004c5760003560e01c8063249abcf714610051578063759913d61461008b57806390f2ee22146100af578063c91ebea8146100d1575b600080fd5b6100596100f3565b6040518084151515158152602001831515151581526020018260ff1660ff168152602001935050505060405180910390f35b610093610131565b604051808260ff1660ff16815260200191505060405180910390f35b6100b7610143565b604051808215151515815260200191505060405180910390f35b6100d9610156565b604051808215151515815260200191505060405180910390f35b60008060008060019054906101000a900460ff16600060029054906101000a900460ff166000809054906101000a900460ff16925092509250909192565b6000809054906101000a900460ff1681565b600060019054906101000a900460ff1681565b600060029054906101000a900460ff168156fea264697066735822122016de92c7d68019ae20c2be99d9673e2b896980d2789a773b40db5b9c7cb9d9b564736f6c63430006080033",
  "immutableReferences": {},
  "source": "// SPDX-License-Identifier: LGPL-3.0-or-later\npragma solidity ^0.6.0;\n\n/// @title Standard Kelsen contract.\n\ncontract Kelsen {\n    uint8 public kelsenVersion = 3;\n    bool public isOrgan;\n    bool public isProcedure;\n\n    constructor(bool _isOrgan, bool _isProcedure) public {\n        isOrgan = _isOrgan;\n        isProcedure = _isProcedure;\n    }\n\n    function getKelsenData()\n        public view returns(bool, bool, uint8)\n    {\n        return (isOrgan, isProcedure, kelsenVersion);\n    }\n}",
  "sourcePath": "/contracts/Kelsen.sol",
  "compiler": {
    "name": "solc",
    "version": "0.6.8+commit.0bbfe453.Emscripten.clang"
  },
  "schemaVersion": "3.2.3",
  "updatedAt": "2020-08-30T01:55:59.955Z",
  "devdoc": {
    "methods": {},
    "title": "Standard Kelsen contract."
  },
  "userdoc": {
    "methods": {}
  }
}