{
  "contractName": "NominationProcedure",
  "abi": [
    {
      "inputs": [],
      "name": "INTERFACE_ID",
      "outputs": [
        {
          "internalType": "bytes4",
          "name": "",
          "type": "bytes4"
        }
      ],
      "stateMutability": "view",
      "type": "function"
    },
    {
      "inputs": [
        {
          "internalType": "uint256",
          "name": "proposalKey",
          "type": "uint256"
        }
      ],
      "name": "adoptProposal",
      "outputs": [],
      "stateMutability": "nonpayable",
      "type": "function"
    },
    {
      "inputs": [
        {
          "internalType": "uint256",
          "name": "proposalKey",
          "type": "uint256"
        }
      ],
      "name": "applyProposal",
      "outputs": [],
      "stateMutability": "nonpayable",
      "type": "function"
    },
    {
      "inputs": [
        {
          "internalType": "uint256",
          "name": "proposalKey",
          "type": "uint256"
        },
        {
          "components": [
            {
              "internalType": "bytes32",
              "name": "ipfsHash",
              "type": "bytes32"
            },
            {
              "internalType": "uint8",
              "name": "hashFunction",
              "type": "uint8"
            },
            {
              "internalType": "uint8",
              "name": "hashSize",
              "type": "uint8"
            }
          ],
          "internalType": "struct CoreLibrary.Metadata",
          "name": "reason",
          "type": "tuple"
        }
      ],
      "name": "blockProposal",
      "outputs": [],
      "stateMutability": "nonpayable",
      "type": "function"
    },
    {
      "inputs": [],
      "name": "getProcedure",
      "outputs": [
        {
          "components": [
            {
              "internalType": "bytes32",
              "name": "ipfsHash",
              "type": "bytes32"
            },
            {
              "internalType": "uint8",
              "name": "hashFunction",
              "type": "uint8"
            },
            {
              "internalType": "uint8",
              "name": "hashSize",
              "type": "uint8"
            }
          ],
          "internalType": "struct CoreLibrary.Metadata",
          "name": "metadata",
          "type": "tuple"
        },
        {
          "internalType": "address payable",
          "name": "proposers",
          "type": "address"
        },
        {
          "internalType": "address payable",
          "name": "moderators",
          "type": "address"
        },
        {
          "internalType": "address payable",
          "name": "deciders",
          "type": "address"
        },
        {
          "internalType": "bool",
          "name": "withModeration",
          "type": "bool"
        },
        {
          "internalType": "uint256",
          "name": "proposalsLength",
          "type": "uint256"
        }
      ],
      "stateMutability": "view",
      "type": "function"
    },
    {
      "inputs": [
        {
          "internalType": "uint256",
          "name": "proposalKey",
          "type": "uint256"
        }
      ],
      "name": "getProposal",
      "outputs": [
        {
          "components": [
            {
              "internalType": "address payable",
              "name": "creator",
              "type": "address"
            },
            {
              "components": [
                {
                  "internalType": "bytes32",
                  "name": "ipfsHash",
                  "type": "bytes32"
                },
                {
                  "internalType": "uint8",
                  "name": "hashFunction",
                  "type": "uint8"
                },
                {
                  "internalType": "uint8",
                  "name": "hashSize",
                  "type": "uint8"
                }
              ],
              "internalType": "struct CoreLibrary.Metadata",
              "name": "metadata",
              "type": "tuple"
            },
            {
              "components": [
                {
                  "internalType": "bytes32",
                  "name": "ipfsHash",
                  "type": "bytes32"
                },
                {
                  "internalType": "uint8",
                  "name": "hashFunction",
                  "type": "uint8"
                },
                {
                  "internalType": "uint8",
                  "name": "hashSize",
                  "type": "uint8"
                }
              ],
              "internalType": "struct CoreLibrary.Metadata",
              "name": "blockReason",
              "type": "tuple"
            },
            {
              "internalType": "bool",
              "name": "presented",
              "type": "bool"
            },
            {
              "internalType": "bool",
              "name": "blocked",
              "type": "bool"
            },
            {
              "internalType": "bool",
              "name": "adopted",
              "type": "bool"
            },
            {
              "internalType": "bool",
              "name": "applied",
              "type": "bool"
            },
            {
              "components": [
                {
                  "internalType": "uint256",
                  "name": "index",
                  "type": "uint256"
                },
                {
                  "internalType": "address payable",
                  "name": "organ",
                  "type": "address"
                },
                {
                  "internalType": "bytes",
                  "name": "data",
                  "type": "bytes"
                },
                {
                  "internalType": "uint256",
                  "name": "value",
                  "type": "uint256"
                },
                {
                  "internalType": "bool",
                  "name": "processed",
                  "type": "bool"
                }
              ],
              "internalType": "struct ProcedureLibrary.Operation[]",
              "name": "operations",
              "type": "tuple[]"
            }
          ],
          "internalType": "struct ProcedureLibrary.Proposal",
          "name": "",
          "type": "tuple"
        }
      ],
      "stateMutability": "view",
      "type": "function"
    },
    {
      "inputs": [
        {
          "components": [
            {
              "internalType": "bytes32",
              "name": "ipfsHash",
              "type": "bytes32"
            },
            {
              "internalType": "uint8",
              "name": "hashFunction",
              "type": "uint8"
            },
            {
              "internalType": "uint8",
              "name": "hashSize",
              "type": "uint8"
            }
          ],
          "internalType": "struct CoreLibrary.Metadata",
          "name": "_metadata",
          "type": "tuple"
        },
        {
          "internalType": "address payable",
          "name": "_proposers",
          "type": "address"
        },
        {
          "internalType": "address payable",
          "name": "_moderators",
          "type": "address"
        },
        {
          "internalType": "address payable",
          "name": "_deciders",
          "type": "address"
        },
        {
          "internalType": "bool",
          "name": "_withModeration",
          "type": "bool"
        }
      ],
      "name": "initialize",
      "outputs": [],
      "stateMutability": "nonpayable",
      "type": "function"
    },
    {
      "inputs": [
        {
          "internalType": "uint256",
          "name": "proposalKey",
          "type": "uint256"
        }
      ],
      "name": "presentProposal",
      "outputs": [],
      "stateMutability": "nonpayable",
      "type": "function"
    },
    {
      "inputs": [
        {
          "components": [
            {
              "internalType": "bytes32",
              "name": "ipfsHash",
              "type": "bytes32"
            },
            {
              "internalType": "uint8",
              "name": "hashFunction",
              "type": "uint8"
            },
            {
              "internalType": "uint8",
              "name": "hashSize",
              "type": "uint8"
            }
          ],
          "internalType": "struct CoreLibrary.Metadata",
          "name": "metadata",
          "type": "tuple"
        },
        {
          "components": [
            {
              "internalType": "uint256",
              "name": "index",
              "type": "uint256"
            },
            {
              "internalType": "address payable",
              "name": "organ",
              "type": "address"
            },
            {
              "internalType": "bytes",
              "name": "data",
              "type": "bytes"
            },
            {
              "internalType": "uint256",
              "name": "value",
              "type": "uint256"
            },
            {
              "internalType": "bool",
              "name": "processed",
              "type": "bool"
            }
          ],
          "internalType": "struct ProcedureLibrary.Operation[]",
          "name": "operations",
          "type": "tuple[]"
        }
      ],
      "name": "propose",
      "outputs": [
        {
          "internalType": "uint256",
          "name": "proposalKey",
          "type": "uint256"
        }
      ],
      "stateMutability": "nonpayable",
      "type": "function"
    },
    {
      "inputs": [
        {
          "internalType": "address payable",
          "name": "admin",
          "type": "address"
        }
      ],
      "name": "updateAdmin",
      "outputs": [],
      "stateMutability": "nonpayable",
      "type": "function"
    },
    {
      "inputs": [
        {
          "components": [
            {
              "internalType": "bytes32",
              "name": "ipfsHash",
              "type": "bytes32"
            },
            {
              "internalType": "uint8",
              "name": "hashFunction",
              "type": "uint8"
            },
            {
              "internalType": "uint8",
              "name": "hashSize",
              "type": "uint8"
            }
          ],
          "internalType": "struct CoreLibrary.Metadata",
          "name": "metadata",
          "type": "tuple"
        }
      ],
      "name": "updateMetadata",
      "outputs": [],
      "stateMutability": "nonpayable",
      "type": "function"
    },
    {
      "inputs": [
        {
          "internalType": "bytes4",
          "name": "interfaceId",
          "type": "bytes4"
        }
      ],
      "name": "supportsInterface",
      "outputs": [
        {
          "internalType": "bool",
          "name": "",
          "type": "bool"
        }
      ],
      "stateMutability": "view",
      "type": "function"
    },
    {
      "inputs": [
        {
          "internalType": "uint256",
          "name": "proposalKey",
          "type": "uint256"
        }
      ],
      "name": "nominate",
      "outputs": [],
      "stateMutability": "nonpayable",
      "type": "function"
    }
  ],
  "bytecode": "0x608060405234801561001057600080fd5b5060408051606081018252600080825260208201818152828401828152935163ce5b8b1960e01b815260016004820152925160248401525160ff9081166044840152925190921660648201526084810182905260a4810182905260c4810182905260e481019190915273__ProcedureLibrary______________________9063ce5b8b19906101040160006040518083038186803b1580156100b157600080fd5b505af41580156100c5573d6000803e3d6000fd5b50505050611789806100d86000396000f3fe608060405234801561001057600080fd5b50600436106100af5760003560e01c806301ffc9a7146100b457806309b862b9146100dc5780631e390607146101035780634bd46ad1146101185780634d3f84071461012b5780635d5ee9201461013e5780637823c508146101515780637983f0c114610164578063c5f28e4914610177578063c7f758a81461018a578063e2f273bd146101aa578063eb3ebcb2146101bd578063f22d9c7a146101de575b600080fd5b6100c76100c236600461103b565b6101f8565b60405190151581526020015b60405180910390f35b6100ea63071dbd3360e41b81565b6040516001600160e01b031990911681526020016100d3565b6101166101113660046111bd565b610223565b005b6101166101263660046111ed565b610291565b610116610139366004611063565b610301565b61011661014c36600461107e565b61033b565b61011661015f3660046111bd565b610469565b6101166101723660046111bd565b6104a8565b6101166101853660046111bd565b6104b6565b61019d6101983660046111bd565b610577565b6040516100d391906115dd565b6101166101b8366004611005565b610770565b6101d06101cb3660046110e7565b6107b7565b6040519081526020016100d3565b6101e661084d565b6040516100d396959493929190611440565b60006001600160e01b0319821663c5f28e4960e01b148061021d575061021d826108aa565b92915050565b60405163851816a560e01b8152600160048201526024810182905273__ProcedureLibrary______________________9063851816a5906044015b60006040518083038186803b15801561027657600080fd5b505af415801561028a573d6000803e3d6000fd5b5050505050565b60405163930f8be960e01b815273__ProcedureLibrary______________________9063930f8be9906102cd9060019086908690600401611595565b60006040518083038186803b1580156102e557600080fd5b505af41580156102f9573d6000803e3d6000fd5b505050505050565b60405163534f408760e01b815273__ProcedureLibrary______________________9063534f40879061025e906001908590600401611483565b600054610100900460ff1680610354575060005460ff16155b6103bc5760405162461bcd60e51b815260206004820152602e60248201527f496e697469616c697a61626c653a20636f6e747261637420697320616c72656160448201526d191e481a5b9a5d1a585b1a5e995960921b60648201526084015b60405180910390fd5b600054610100900460ff161580156103de576000805461ffff19166101011790555b60405163ce5b8b1960e01b815273__ProcedureLibrary______________________9063ce5b8b1990610420906001908a908a908a908a908a90600401611497565b60006040518083038186803b15801561043857600080fd5b505af415801561044c573d6000803e3d6000fd5b5050505080156102f9576000805461ff0019169055505050505050565b6040516316a0f1cd60e11b8152600160048201526024810182905273__ProcedureLibrary______________________90632d41e39a9060440161025e565b6104b36001826108df565b50565b600554604051633e1dc37f60e11b81526001600160a01b03909116600482018190523360248301529073__ProcedureLibrary______________________90637c3b86fe9060440160206040518083038186803b15801561051657600080fd5b505af415801561052a573d6000803e3d6000fd5b505050506040513d601f19601f8201168201806040525081019061054e919061101f565b61056a5760405162461bcd60e51b81526004016103b390611418565b610573826104a8565b5050565b61057f610e18565b60008281526007602090815260408083208151610100808201845282546001600160a01b0316825283516060808201865260018501548252600285015460ff808216848a0152908490048116838801528488019290925285518082018752600386015481526004860154808416828a01528490048316818801528487015260058501548083161515918501919091529182048116151560808401526201000082048116151560a0840152630100000090910416151560c08201526006820180548451818702810187019095528085529195929460e0870194939192919084015b828210156107625760008481526020908190206040805160a081018252600586029092018054835260018101546001600160a01b031693830193909352600283018054929392918401916106b2906116cd565b80601f01602080910402602001604051908101604052809291908181526020018280546106de906116cd565b801561072b5780601f106107005761010080835404028352916020019161072b565b820191906000526020600020905b81548152906001019060200180831161070e57829003601f168201915b5050509183525050600382015460208083019190915260049092015460ff161515604090910152908252600192909201910161065f565b505050915250909392505050565b60405163474ab74960e11b8152600160048201526001600160a01b038216602482015273__ProcedureLibrary______________________90638e956e929060440161025e565b6040516303bd73a560e01b815260009073__ProcedureLibrary______________________906303bd73a5906107f690600190879087906004016114df565b60206040518083038186803b15801561080e57600080fd5b505af4158015610822573d6000803e3d6000fd5b505050506040513d601f19601f8201168201806040525081019061084691906111d5565b9392505050565b610855610e74565b5060035460045460055460095460085460408051606081018252600154815260025460ff8181166020840152610100909104811692820192909252956001600160a01b03908116958116941692169192939495565b60006001600160e01b0319821663071dbd3360e41b148061021d57506301ffc9a760e01b6001600160e01b031983161461021d565b60008181526006830160205260409020600501548290829060ff1680156109205750600081815260068301602052604090206005015462010000900460ff16155b8015610947575060008181526006830160205260409020600501546301000000900460ff16155b801561096c57506000818152600683016020526040902060050154610100900460ff16155b6109885760405162461bcd60e51b81526004016103b390611418565b60008381526006850160205260409020600501805462ff00001916620100001790556109b484846109ba565b50505050565b60008181526006830160205260409020600501548290829062010000900460ff168015610a02575060008181526006830160205260409020600501546301000000900460ff16155b8015610a2757506000818152600683016020526040902060050154610100900460ff16155b610a435760405162461bcd60e51b81526004016103b390611418565b60005b6000848152600680870160205260409091200154811015610dc65760008481526006808701602052604090912001805482908110610a9457634e487b7160e01b600052603260045260246000fd5b600091825260209091206004600590920201015460ff16610db657600084815260068087016020526040822001805483908110610ae157634e487b7160e01b600052603260045260246000fd5b60009182526020909120600160059092020101546001600160a01b031614610c5957600084815260068087016020526040822001805483908110610b3557634e487b7160e01b600052603260045260246000fd5b60009182526020808320600160059093020191909101548783526006808a0190925260409092200180546001600160a01b039092169184908110610b8957634e487b7160e01b600052603260045260246000fd5b9060005260206000209060050201600301548760060160008881526020019081526020016000206006018481548110610bd257634e487b7160e01b600052603260045260246000fd5b9060005260206000209060050201600201604051610bf09190611327565b60006040518083038185875af1925050503d8060008114610c2d576040519150601f19603f3d011682016040523d82523d6000602084013e610c32565b606091505b5050905080610c535760405162461bcd60e51b81526004016103b3906113c2565b50610d5a565b600084815260068087016020526040822001805433919084908110610c8e57634e487b7160e01b600052603260045260246000fd5b9060005260206000209060050201600301548760060160008881526020019081526020016000206006018481548110610cd757634e487b7160e01b600052603260045260246000fd5b9060005260206000209060050201600201604051610cf59190611327565b60006040518083038185875af1925050503d8060008114610d32576040519150601f19603f3d011682016040523d82523d6000602084013e610d37565b606091505b5050905080610d585760405162461bcd60e51b81526004016103b3906113c2565b505b60018560060160008681526020019081526020016000206006018281548110610d9357634e487b7160e01b600052603260045260246000fd5b60009182526020909120600590910201600401805460ff19169115159190911790555b610dbf81611708565b9050610a46565b506000838152600685016020526040808220600501805463ff000000191663010000001790555184917f371ea0b2792b493783478379b73e5d65d5f7e3d03fe343fbe6396d87ece6562491a250505050565b60405180610100016040528060006001600160a01b03168152602001610e3c610e74565b8152602001610e49610e74565b8152600060208201819052604082018190526060808301829052608083019190915260a09091015290565b604080516060810182526000808252602082018190529181019190915290565b80356001600160a01b0381168114610eab57600080fd5b919050565b8035610eab81611745565b600060608284031215610ecc578081fd5b604051606081016001600160401b0381118282101715610eee57610eee61172f565b60405282358152905080610f0460208401610ff4565b6020820152610f1560408401610ff4565b60408201525092915050565b600060a08284031215610f32578081fd5b610f3a611675565b9050813581526020610f4d818401610e94565b8282015260408301356001600160401b0380821115610f6b57600080fd5b818501915085601f830112610f7f57600080fd5b813581811115610f9157610f9161172f565b610fa3601f8201601f1916850161169d565b91508082528684828501011115610fb957600080fd5b808484018584013760008482840101525080604085015250505060608201356060820152610fe960808301610eb0565b608082015292915050565b803560ff81168114610eab57600080fd5b600060208284031215611016578081fd5b61084682610e94565b600060208284031215611030578081fd5b815161084681611745565b60006020828403121561104c578081fd5b81356001600160e01b031981168114610846578182fd5b600060608284031215611074578081fd5b6108468383610ebb565b600080600080600060e08688031215611095578081fd5b61109f8787610ebb565b94506110ad60608701610e94565b93506110bb60808701610e94565b92506110c960a08701610e94565b915060c08601356110d981611745565b809150509295509295909350565b600080608083850312156110f9578182fd5b6111038484610ebb565b915060608301356001600160401b038082111561111e578283fd5b818501915085601f830112611131578283fd5b81356020828211156111455761114561172f565b8160051b61115482820161169d565b8381528281019086840183880185018c101561116e578889fd5b8893505b858410156111ab5780358781111561118857898afd5b6111968d87838c0101610f21565b84525060019390930192918401918401611172565b50809750505050505050509250929050565b6000602082840312156111ce578081fd5b5035919050565b6000602082840312156111e6578081fd5b5051919050565b6000808284036080811215611200578283fd5b833592506060601f1982011215611215578182fd5b506020830190509250929050565b600081518084526020808501808196508360051b81019150828601855b858110156112ad578284038952815180518552858101516001600160a01b03168686015260408082015160a08288018190529190611280838901826112ba565b606085810151908a0152608094850151151594909801939093525050509784019790840190600101611240565b5091979650505050505050565b60008151808452815b818110156112df576020818501810151868301820152016112c3565b818111156112f05782602083870101525b50601f01601f19169290920160200192915050565b8051825260ff602082015116602083015260ff60408201511660408301525050565b600080835482600182811c91508083168061134357607f831692505b602080841082141561136357634e487b7160e01b87526022600452602487fd5b8180156113775760018114611388576113b4565b60ff198616895284890196506113b4565b60008a815260209020885b868110156113ac5781548b820152908501908301611393565b505084890196505b509498975050505050505050565b60208082526036908201527f50726f706f73616c206e6f74206170706c6965642c20756e6465726c79696e67604082015275103a3930b739b0b1ba34b7b7103932bb32b93a32b21760511b606082015260800190565b6020808252600e908201526d139bdd08185d5d1a1bdc9a5e995960921b604082015260600190565b610100810161144f8289611305565b6001600160a01b03968716606083015294861660808201529290941660a0830152151560c082015260e00191909152919050565b828152608081016108466020830184611305565b86815261010081016114ac6020830188611305565b6001600160a01b03958616608083015293851660a08201529190931660c082015291151560e09092019190915292915050565b600060a080830186845260206114f781860188611305565b6080838187015282875180855260c08801915060c08160051b8901019450838901875b828110156115845789870360bf19018452815180518852868101516001600160a01b031687890152604080820151818a018b905261155a8b8b01826112ba565b606084810151908c015292880151151599880199909952509650928501929085019060010161151a565b50949b9a5050505050505050505050565b600060a0820190508482528360208301528235604083015260ff6115bb60208501610ff4565b16606083015260ff6115cf60408501610ff4565b166080830152949350505050565b602081526115f76020820183516001600160a01b03169052565b6000602083015161160b6040840182611305565b50604083015161161e60a0840182611305565b50606083015115156101008301526080830151151561012083015260a0830151151561014083015260c0830151151561016083015260e08301516101808084015261166d6101a0840182611223565b949350505050565b60405160a081016001600160401b03811182821017156116975761169761172f565b60405290565b604051601f8201601f191681016001600160401b03811182821017156116c5576116c561172f565b604052919050565b600181811c908216806116e157607f821691505b6020821081141561170257634e487b7160e01b600052602260045260246000fd5b50919050565b600060001982141561172857634e487b7160e01b81526011600452602481fd5b5060010190565b634e487b7160e01b600052604160045260246000fd5b80151581146104b357600080fdfea2646970667358221220ae12c3dae8dbdda77ac54bb7fc519b1ad4bc3de5f7a951b41158302ab6e5db0564736f6c63430008040033",
  "immutableReferences": {},
  "source": "// SPDX-License-Identifier: LGPL-3.0-or-later\npragma solidity ^0.8.0;\npragma experimental ABIEncoderV2;\n\n/**\n    Nomination procedure.\n    A nomination applies an effect if nominator is in the nominaters organ.\n*/\n\nimport \"../libraries/CoreLibrary.sol\";\nimport \"../Procedure.sol\";\n\ncontract NominationProcedure is Procedure {\n    using CoreLibrary for CoreLibrary.Metadata;\n    bytes4 private constant _INTERFACE_NOMINATION = 0xc5f28e49; // nominate().\n\n    // Register EIP165 interfaces for introspection.\n    function supportsInterface(bytes4 interfaceId) public view virtual override returns (bool) {\n        return interfaceId == _INTERFACE_NOMINATION || super.supportsInterface(interfaceId);\n    }\n\n    function nominate(uint256 proposalKey)\n        public onlyInOrgan(procedureData.deciders)\n    {\n        super.adoptProposal(proposalKey);\n    }\n}",
  "sourcePath": "/Users/alex/Code/organigr.am-refactoring/packages/@organigram/contracts/contracts/procedures/Nomination.sol",
  "compiler": {
    "name": "solc",
    "version": "0.8.4+commit.c7e474f2.Emscripten.clang"
  },
  "schemaVersion": "3.4.1",
  "updatedAt": "2021-05-26T21:15:04.988Z",
  "devdoc": {
    "kind": "dev",
    "methods": {
      "supportsInterface(bytes4)": {
        "details": "See {IERC165-supportsInterface}."
      }
    },
    "version": 1
  },
  "userdoc": {
    "kind": "user",
    "methods": {
      "adoptProposal(uint256)": {
        "notice": "The procedure calls this method directly to adopt and apply proposal."
      },
      "applyProposal(uint256)": {
        "notice": "Apply proposal."
      },
      "blockProposal(uint256,(bytes32,uint8,uint8))": {
        "notice": "The procedure can override this method."
      },
      "presentProposal(uint256)": {
        "notice": "When moderation is enabled, moderators must accept the proposal. "
      },
      "propose((bytes32,uint8,uint8),(uint256,address,bytes,uint256,bool)[])": {
        "notice": "Public API : Proposals creation and update."
      },
      "updateMetadata((bytes32,uint8,uint8))": {
        "notice": "Public API : Procedure Metadata and Admin."
      }
    },
    "version": 1
  }
}