{
  "contractName": "NominationProcedure",
  "abi": [
    {
      "inputs": [],
      "name": "INTERFACE_ID",
      "outputs": [
        {
          "internalType": "bytes4",
          "name": "",
          "type": "bytes4"
        }
      ],
      "stateMutability": "view",
      "type": "function",
      "constant": true
    },
    {
      "inputs": [
        {
          "internalType": "uint256",
          "name": "proposalKey",
          "type": "uint256"
        }
      ],
      "name": "adoptProposal",
      "outputs": [],
      "stateMutability": "nonpayable",
      "type": "function"
    },
    {
      "inputs": [
        {
          "internalType": "uint256",
          "name": "proposalKey",
          "type": "uint256"
        }
      ],
      "name": "applyProposal",
      "outputs": [],
      "stateMutability": "nonpayable",
      "type": "function"
    },
    {
      "inputs": [
        {
          "internalType": "uint256",
          "name": "proposalKey",
          "type": "uint256"
        },
        {
          "components": [
            {
              "internalType": "bytes32",
              "name": "ipfsHash",
              "type": "bytes32"
            },
            {
              "internalType": "uint8",
              "name": "hashFunction",
              "type": "uint8"
            },
            {
              "internalType": "uint8",
              "name": "hashSize",
              "type": "uint8"
            }
          ],
          "internalType": "struct CoreLibrary.Metadata",
          "name": "reason",
          "type": "tuple"
        }
      ],
      "name": "blockProposal",
      "outputs": [],
      "stateMutability": "nonpayable",
      "type": "function"
    },
    {
      "inputs": [],
      "name": "getProcedure",
      "outputs": [
        {
          "components": [
            {
              "internalType": "bytes32",
              "name": "ipfsHash",
              "type": "bytes32"
            },
            {
              "internalType": "uint8",
              "name": "hashFunction",
              "type": "uint8"
            },
            {
              "internalType": "uint8",
              "name": "hashSize",
              "type": "uint8"
            }
          ],
          "internalType": "struct CoreLibrary.Metadata",
          "name": "metadata",
          "type": "tuple"
        },
        {
          "internalType": "address payable",
          "name": "proposers",
          "type": "address"
        },
        {
          "internalType": "address payable",
          "name": "moderators",
          "type": "address"
        },
        {
          "internalType": "address payable",
          "name": "deciders",
          "type": "address"
        },
        {
          "internalType": "bool",
          "name": "withModeration",
          "type": "bool"
        },
        {
          "internalType": "uint256",
          "name": "proposalsLength",
          "type": "uint256"
        }
      ],
      "stateMutability": "view",
      "type": "function",
      "constant": true
    },
    {
      "inputs": [
        {
          "internalType": "uint256",
          "name": "proposalKey",
          "type": "uint256"
        }
      ],
      "name": "getProposal",
      "outputs": [
        {
          "components": [
            {
              "internalType": "address payable",
              "name": "creator",
              "type": "address"
            },
            {
              "components": [
                {
                  "internalType": "bytes32",
                  "name": "ipfsHash",
                  "type": "bytes32"
                },
                {
                  "internalType": "uint8",
                  "name": "hashFunction",
                  "type": "uint8"
                },
                {
                  "internalType": "uint8",
                  "name": "hashSize",
                  "type": "uint8"
                }
              ],
              "internalType": "struct CoreLibrary.Metadata",
              "name": "metadata",
              "type": "tuple"
            },
            {
              "components": [
                {
                  "internalType": "bytes32",
                  "name": "ipfsHash",
                  "type": "bytes32"
                },
                {
                  "internalType": "uint8",
                  "name": "hashFunction",
                  "type": "uint8"
                },
                {
                  "internalType": "uint8",
                  "name": "hashSize",
                  "type": "uint8"
                }
              ],
              "internalType": "struct CoreLibrary.Metadata",
              "name": "blockReason",
              "type": "tuple"
            },
            {
              "internalType": "bool",
              "name": "presented",
              "type": "bool"
            },
            {
              "internalType": "bool",
              "name": "blocked",
              "type": "bool"
            },
            {
              "internalType": "bool",
              "name": "adopted",
              "type": "bool"
            },
            {
              "internalType": "bool",
              "name": "applied",
              "type": "bool"
            },
            {
              "components": [
                {
                  "internalType": "uint256",
                  "name": "index",
                  "type": "uint256"
                },
                {
                  "internalType": "address payable",
                  "name": "organ",
                  "type": "address"
                },
                {
                  "internalType": "bytes",
                  "name": "data",
                  "type": "bytes"
                },
                {
                  "internalType": "uint256",
                  "name": "value",
                  "type": "uint256"
                },
                {
                  "internalType": "bool",
                  "name": "processed",
                  "type": "bool"
                }
              ],
              "internalType": "struct ProcedureLibrary.Operation[]",
              "name": "operations",
              "type": "tuple[]"
            }
          ],
          "internalType": "struct ProcedureLibrary.Proposal",
          "name": "",
          "type": "tuple"
        }
      ],
      "stateMutability": "view",
      "type": "function",
      "constant": true
    },
    {
      "inputs": [
        {
          "components": [
            {
              "internalType": "bytes32",
              "name": "ipfsHash",
              "type": "bytes32"
            },
            {
              "internalType": "uint8",
              "name": "hashFunction",
              "type": "uint8"
            },
            {
              "internalType": "uint8",
              "name": "hashSize",
              "type": "uint8"
            }
          ],
          "internalType": "struct CoreLibrary.Metadata",
          "name": "_metadata",
          "type": "tuple"
        },
        {
          "internalType": "address payable",
          "name": "_proposers",
          "type": "address"
        },
        {
          "internalType": "address payable",
          "name": "_moderators",
          "type": "address"
        },
        {
          "internalType": "address payable",
          "name": "_deciders",
          "type": "address"
        },
        {
          "internalType": "bool",
          "name": "_withModeration",
          "type": "bool"
        }
      ],
      "name": "initialize",
      "outputs": [],
      "stateMutability": "nonpayable",
      "type": "function"
    },
    {
      "inputs": [
        {
          "internalType": "uint256",
          "name": "proposalKey",
          "type": "uint256"
        }
      ],
      "name": "presentProposal",
      "outputs": [],
      "stateMutability": "nonpayable",
      "type": "function"
    },
    {
      "inputs": [
        {
          "components": [
            {
              "internalType": "bytes32",
              "name": "ipfsHash",
              "type": "bytes32"
            },
            {
              "internalType": "uint8",
              "name": "hashFunction",
              "type": "uint8"
            },
            {
              "internalType": "uint8",
              "name": "hashSize",
              "type": "uint8"
            }
          ],
          "internalType": "struct CoreLibrary.Metadata",
          "name": "metadata",
          "type": "tuple"
        },
        {
          "components": [
            {
              "internalType": "uint256",
              "name": "index",
              "type": "uint256"
            },
            {
              "internalType": "address payable",
              "name": "organ",
              "type": "address"
            },
            {
              "internalType": "bytes",
              "name": "data",
              "type": "bytes"
            },
            {
              "internalType": "uint256",
              "name": "value",
              "type": "uint256"
            },
            {
              "internalType": "bool",
              "name": "processed",
              "type": "bool"
            }
          ],
          "internalType": "struct ProcedureLibrary.Operation[]",
          "name": "operations",
          "type": "tuple[]"
        }
      ],
      "name": "propose",
      "outputs": [
        {
          "internalType": "uint256",
          "name": "proposalKey",
          "type": "uint256"
        }
      ],
      "stateMutability": "nonpayable",
      "type": "function"
    },
    {
      "inputs": [
        {
          "internalType": "address payable",
          "name": "admin",
          "type": "address"
        }
      ],
      "name": "updateAdmin",
      "outputs": [],
      "stateMutability": "nonpayable",
      "type": "function"
    },
    {
      "inputs": [
        {
          "components": [
            {
              "internalType": "bytes32",
              "name": "ipfsHash",
              "type": "bytes32"
            },
            {
              "internalType": "uint8",
              "name": "hashFunction",
              "type": "uint8"
            },
            {
              "internalType": "uint8",
              "name": "hashSize",
              "type": "uint8"
            }
          ],
          "internalType": "struct CoreLibrary.Metadata",
          "name": "metadata",
          "type": "tuple"
        }
      ],
      "name": "updateMetadata",
      "outputs": [],
      "stateMutability": "nonpayable",
      "type": "function"
    },
    {
      "inputs": [
        {
          "internalType": "bytes4",
          "name": "interfaceId",
          "type": "bytes4"
        }
      ],
      "name": "supportsInterface",
      "outputs": [
        {
          "internalType": "bool",
          "name": "",
          "type": "bool"
        }
      ],
      "stateMutability": "view",
      "type": "function",
      "constant": true
    },
    {
      "inputs": [
        {
          "internalType": "uint256",
          "name": "proposalKey",
          "type": "uint256"
        }
      ],
      "name": "nominate",
      "outputs": [],
      "stateMutability": "nonpayable",
      "type": "function"
    }
  ],
  "bytecode": "0x608060405234801561001057600080fd5b5060408051606081018252600080825260208201818152828401828152935163ce5b8b1960e01b815260016004820152925160248401525160ff9081166044840152925190921660648201526084810182905260a4810182905260c4810182905260e481019190915273__ProcedureLibrary______________________9063ce5b8b19906101040160006040518083038186803b1580156100b157600080fd5b505af41580156100c5573d6000803e3d6000fd5b50505050611738806100d86000396000f3fe608060405234801561001057600080fd5b50600436106100af5760003560e01c806301ffc9a7146100b457806309b862b9146100dc5780631e390607146101035780634bd46ad1146101185780634d3f84071461012b5780635d5ee9201461013e5780637823c508146101515780637983f0c114610164578063c5f28e4914610177578063c7f758a81461018a578063e2f273bd146101aa578063eb3ebcb2146101bd578063f22d9c7a146101de575b600080fd5b6100c76100c2366004610efb565b6101f8565b60405190151581526020015b60405180910390f35b6100ea63071dbd3360e41b81565b6040516001600160e01b031990911681526020016100d3565b61011661011136600461114b565b610223565b005b61011661012636600461117d565b610291565b610116610139366004610f25565b610301565b61011661014c366004610f41565b61033b565b61011661015f36600461114b565b610469565b61011661017236600461114b565b6104a8565b61011661018536600461114b565b6104b6565b61019d61019836600461114b565b610577565b6040516100d39190611574565b6101166101b8366004610ec3565b610770565b6101d06101cb366004610fab565b6107b7565b6040519081526020016100d3565b6101e661084d565b6040516100d3969594939291906113d6565b60006001600160e01b0319821663c5f28e4960e01b148061021d575061021d826108aa565b92915050565b60405163851816a560e01b8152600160048201526024810182905273__ProcedureLibrary______________________9063851816a5906044015b60006040518083038186803b15801561027657600080fd5b505af415801561028a573d6000803e3d6000fd5b5050505050565b60405163930f8be960e01b815273__ProcedureLibrary______________________9063930f8be9906102cd906001908690869060040161152c565b60006040518083038186803b1580156102e557600080fd5b505af41580156102f9573d6000803e3d6000fd5b505050505050565b60405163534f408760e01b815273__ProcedureLibrary______________________9063534f40879061025e906001908590600401611419565b600054610100900460ff1680610354575060005460ff16155b6103bc5760405162461bcd60e51b815260206004820152602e60248201527f496e697469616c697a61626c653a20636f6e747261637420697320616c72656160448201526d191e481a5b9a5d1a585b1a5e995960921b60648201526084015b60405180910390fd5b600054610100900460ff161580156103de576000805461ffff19166101011790555b60405163ce5b8b1960e01b815273__ProcedureLibrary______________________9063ce5b8b1990610420906001908a908a908a908a908a9060040161142d565b60006040518083038186803b15801561043857600080fd5b505af415801561044c573d6000803e3d6000fd5b5050505080156102f9576000805461ff0019169055505050505050565b6040516316a0f1cd60e11b8152600160048201526024810182905273__ProcedureLibrary______________________90632d41e39a9060440161025e565b6104b36001826108df565b50565b600554604051633e1dc37f60e11b81526001600160a01b03909116600482018190523360248301529073__ProcedureLibrary______________________90637c3b86fe9060440160206040518083038186803b15801561051657600080fd5b505af415801561052a573d6000803e3d6000fd5b505050506040513d601f19601f8201168201806040525081019061054e9190610ede565b61056a5760405162461bcd60e51b81526004016103b3906113ae565b610573826104a8565b5050565b61057f610da8565b60008281526007602090815260408083208151610100808201845282546001600160a01b0316825283516060808201865260018501548252600285015460ff808216848a0152908490048116838801528488019290925285518082018752600386015481526004860154808416828a01528490048316818801528487015260058501548083161515918501919091529182048116151560808401526201000082048116151560a0840152630100000090910416151560c08201526006820180548451818702810187019095528085529195929460e0870194939192919084015b828210156107625760008481526020908190206040805160a081018252600586029092018054835260018101546001600160a01b031693830193909352600283018054929392918401916106b290611664565b80601f01602080910402602001604051908101604052809291908181526020018280546106de90611664565b801561072b5780601f106107005761010080835404028352916020019161072b565b820191906000526020600020905b81548152906001019060200180831161070e57829003601f168201915b5050509183525050600382015460208083019190915260049092015460ff161515604090910152908252600192909201910161065f565b505050915250909392505050565b60405163474ab74960e11b8152600160048201526001600160a01b038216602482015273__ProcedureLibrary______________________90638e956e929060440161025e565b6040516303bd73a560e01b815260009073__ProcedureLibrary______________________906303bd73a5906107f69060019087908790600401611475565b60206040518083038186803b15801561080e57600080fd5b505af4158015610822573d6000803e3d6000fd5b505050506040513d601f19601f820116820180604052508101906108469190611164565b9392505050565b610855610e04565b5060035460045460055460095460085460408051606081018252600154815260025460ff8181166020840152610100909104811692820192909252956001600160a01b03908116958116941692169192939495565b60006001600160e01b0319821663071dbd3360e41b148061021d57506301ffc9a760e01b6001600160e01b031983161461021d565b60008181526006830160205260409020600501548290829060ff1680156109205750600081815260068301602052604090206005015462010000900460ff16155b8015610947575060008181526006830160205260409020600501546301000000900460ff16155b801561096c57506000818152600683016020526040902060050154610100900460ff16155b6109885760405162461bcd60e51b81526004016103b3906113ae565b60008381526006850160205260409020600501805462ff00001916620100001790556109b484846109ba565b50505050565b60008181526006830160205260409020600501548290829062010000900460ff168015610a02575060008181526006830160205260409020600501546301000000900460ff16155b8015610a2757506000818152600683016020526040902060050154610100900460ff16155b610a435760405162461bcd60e51b81526004016103b3906113ae565b60005b6000848152600680870160205260409091200154811015610d565760008481526006808701602052604090912001805482908110610a8657610a866116c8565b600091825260209091206004600590920201015460ff16610d4657600084815260068087016020526040822001805483908110610ac557610ac56116c8565b60009182526020909120600160059092020101546001600160a01b031614610c1357600084815260068087016020526040822001805483908110610b0b57610b0b6116c8565b60009182526020808320600160059093020191909101548783526006808a0190925260409092200180546001600160a01b039092169184908110610b5157610b516116c8565b9060005260206000209060050201600301548760060160008881526020019081526020016000206006018481548110610b8c57610b8c6116c8565b9060005260206000209060050201600201604051610baa91906112bc565b60006040518083038185875af1925050503d8060008114610be7576040519150601f19603f3d011682016040523d82523d6000602084013e610bec565b606091505b5050905080610c0d5760405162461bcd60e51b81526004016103b390611358565b50610cf8565b600084815260068087016020526040822001805433919084908110610c3a57610c3a6116c8565b9060005260206000209060050201600301548760060160008881526020019081526020016000206006018481548110610c7557610c756116c8565b9060005260206000209060050201600201604051610c9391906112bc565b60006040518083038185875af1925050503d8060008114610cd0576040519150601f19603f3d011682016040523d82523d6000602084013e610cd5565b606091505b5050905080610cf65760405162461bcd60e51b81526004016103b390611358565b505b60018560060160008681526020019081526020016000206006018281548110610d2357610d236116c8565b60009182526020909120600590910201600401805460ff19169115159190911790555b610d4f8161169f565b9050610a46565b506000838152600685016020526040808220600501805463ff000000191663010000001790555184917f371ea0b2792b493783478379b73e5d65d5f7e3d03fe343fbe6396d87ece6562491a250505050565b60405180610100016040528060006001600160a01b03168152602001610dcc610e04565b8152602001610dd9610e04565b8152600060208201819052604082018190526060808301829052608083019190915260a09091015290565b604080516060810182526000808252602082018190529181019190915290565b80356001600160a01b0381168114610e3b57600080fd5b919050565b8035610e3b816116f4565b600060608284031215610e5d57600080fd5b604051606081016001600160401b0381118282101715610e7f57610e7f6116de565b60405282358152905080610e9560208401610eb2565b6020820152610ea660408401610eb2565b60408201525092915050565b803560ff81168114610e3b57600080fd5b600060208284031215610ed557600080fd5b61084682610e24565b600060208284031215610ef057600080fd5b8151610846816116f4565b600060208284031215610f0d57600080fd5b81356001600160e01b03198116811461084657600080fd5b600060608284031215610f3757600080fd5b6108468383610e4b565b600080600080600060e08688031215610f5957600080fd5b610f638787610e4b565b9450610f7160608701610e24565b9350610f7f60808701610e24565b9250610f8d60a08701610e24565b915060c0860135610f9d816116f4565b809150509295509295909350565b60008060808385031215610fbe57600080fd5b610fc88484610e4b565b915060608301356001600160401b0380821115610fe457600080fd5b818501915085601f830112610ff857600080fd5b81358181111561100a5761100a6116de565b61101960208260051b01611634565b80828252602082019150602085018960208560051b880101111561103c57600080fd5b60005b8481101561113b57858235111561105557600080fd5b81358701601f1960a0828e038201121561106e57600080fd5b61107661160c565b6020830135815261108960408401610e24565b60208201526060830135898111156110a057600080fd5b8301603f81018f136110b157600080fd5b60208101358a8111156110c6576110c66116de565b6110d7602085601f84011601611634565b93508084528f60408284010111156110ee57600080fd5b8060408301602086013760006020828601015250508160408201526080830135606082015261111f60a08401610e40565b608082015286525050602093840193919091019060010161103f565b5096999098509650505050505050565b60006020828403121561115d57600080fd5b5035919050565b60006020828403121561117657600080fd5b5051919050565b600080828403608081121561119157600080fd5b833592506060601f19820112156111a757600080fd5b506020830190509250929050565b600081518084526020808501808196508360051b8101915082860160005b85811015611240578284038952815180518552858101516001600160a01b03168686015260408082015160a082880181905291906112138389018261124d565b606085810151908a01526080948501511515949098019390935250505097840197908401906001016111d3565b5091979650505050505050565b6000815180845260005b8181101561127357602081850181015186830182015201611257565b81811115611285576000602083870101525b50601f01601f19169290920160200192915050565b8051825260ff602082015116602083015260ff60408201511660408301525050565b600080835481600182811c9150808316806112d857607f831692505b60208084108214156112f857634e487b7160e01b86526022600452602486fd5b81801561130c576001811461131d5761134a565b60ff1986168952848901965061134a565b60008a81526020902060005b868110156113425781548b820152908501908301611329565b505084890196505b509498975050505050505050565b60208082526036908201527f50726f706f73616c206e6f74206170706c6965642c20756e6465726c79696e67604082015275103a3930b739b0b1ba34b7b7103932bb32b93a32b21760511b606082015260800190565b6020808252600e908201526d139bdd08185d5d1a1bdc9a5e995960921b604082015260600190565b61010081016113e5828961129a565b6001600160a01b03968716606083015294861660808201529290941660a0830152151560c082015260e00191909152919050565b82815260808101610846602083018461129a565b8681526101008101611442602083018861129a565b6001600160a01b03958616608083015293851660a08201529190931660c082015291151560e09092019190915292915050565b600060a0808301868452602061148d8186018861129a565b6080838187015282875180855260c08801915060c08160051b890101945083890160005b8281101561151b5789870360bf19018452815180518852868101516001600160a01b031687890152604080820151818a018b90526114f18b8b018261124d565b606084810151908c01529288015115159988019990995250965092850192908501906001016114b1565b50949b9a5050505050505050505050565b600060a0820190508482528360208301528235604083015260ff61155260208501610eb2565b16606083015260ff61156660408501610eb2565b166080830152949350505050565b6020815261158e6020820183516001600160a01b03169052565b600060208301516115a2604084018261129a565b5060408301516115b560a084018261129a565b50606083015115156101008301526080830151151561012083015260a0830151151561014083015260c0830151151561016083015260e0830151610180808401526116046101a08401826111b5565b949350505050565b60405160a081016001600160401b038111828210171561162e5761162e6116de565b60405290565b604051601f8201601f191681016001600160401b038111828210171561165c5761165c6116de565b604052919050565b600181811c9082168061167857607f821691505b6020821081141561169957634e487b7160e01b600052602260045260246000fd5b50919050565b60006000198214156116c157634e487b7160e01b600052601160045260246000fd5b5060010190565b634e487b7160e01b600052603260045260246000fd5b634e487b7160e01b600052604160045260246000fd5b80151581146104b357600080fdfea264697066735822122037688daa617b81fbce1065231151c5bdb7553f8aacca5fc994f7a90cd59e1a8764736f6c63430008060033",
  "immutableReferences": {},
  "source": "// SPDX-License-Identifier: LGPL-3.0-or-later\npragma solidity ^0.8.0;\npragma experimental ABIEncoderV2;\n\n/**\n    Nomination procedure.\n    A nomination applies an effect if nominator is in the nominaters organ.\n*/\n\nimport \"../libraries/CoreLibrary.sol\";\nimport \"../Procedure.sol\";\n\ncontract NominationProcedure is Procedure {\n    using CoreLibrary for CoreLibrary.Metadata;\n    bytes4 private constant _INTERFACE_NOMINATION = 0xc5f28e49; // nominate().\n\n    // Register EIP165 interfaces for introspection.\n    function supportsInterface(bytes4 interfaceId) public view virtual override returns (bool) {\n        return interfaceId == _INTERFACE_NOMINATION || super.supportsInterface(interfaceId);\n    }\n\n    function nominate(uint256 proposalKey)\n        public onlyInOrgan(procedureData.deciders)\n    {\n        super.adoptProposal(proposalKey);\n    }\n}",
  "sourcePath": "/workspace/contracts/contracts/procedures/Nomination.sol",
  "compiler": {
    "name": "solc",
    "version": "0.8.6+commit.11564f7e.Emscripten.clang"
  },
  "schemaVersion": "3.4.1",
  "updatedAt": "2021-08-01T15:00:02.241Z",
  "networkType": "ethereum",
  "devdoc": {
    "kind": "dev",
    "methods": {
      "supportsInterface(bytes4)": {
        "details": "See {IERC165-supportsInterface}."
      }
    },
    "version": 1
  },
  "userdoc": {
    "kind": "user",
    "methods": {
      "adoptProposal(uint256)": {
        "notice": "The procedure calls this method directly to adopt and apply proposal."
      },
      "applyProposal(uint256)": {
        "notice": "Apply proposal."
      },
      "blockProposal(uint256,(bytes32,uint8,uint8))": {
        "notice": "The procedure can override this method."
      },
      "presentProposal(uint256)": {
        "notice": "When moderation is enabled, moderators must accept the proposal. "
      },
      "propose((bytes32,uint8,uint8),(uint256,address,bytes,uint256,bool)[])": {
        "notice": "Public API : Proposals creation and update."
      },
      "updateMetadata((bytes32,uint8,uint8))": {
        "notice": "Public API : Procedure Metadata and Admin."
      }
    },
    "version": 1
  }
}