{
  "contractName": "Organ",
  "abi": [
    {
      "inputs": [
        {
          "internalType": "address payable",
          "name": "admin",
          "type": "address"
        },
        {
          "internalType": "bytes32",
          "name": "metadataIpfsHash",
          "type": "bytes32"
        },
        {
          "internalType": "uint8",
          "name": "metadataHashFunction",
          "type": "uint8"
        },
        {
          "internalType": "uint8",
          "name": "metadataHashSize",
          "type": "uint8"
        }
      ],
      "stateMutability": "nonpayable",
      "type": "constructor"
    },
    {
      "inputs": [
        {
          "internalType": "bytes4",
          "name": "interfaceId",
          "type": "bytes4"
        }
      ],
      "name": "supportsInterface",
      "outputs": [
        {
          "internalType": "bool",
          "name": "",
          "type": "bool"
        }
      ],
      "stateMutability": "view",
      "type": "function",
      "constant": true
    },
    {
      "stateMutability": "payable",
      "type": "receive",
      "payable": true
    },
    {
      "inputs": [
        {
          "internalType": "address payable",
          "name": "to",
          "type": "address"
        },
        {
          "internalType": "uint256",
          "name": "value",
          "type": "uint256"
        }
      ],
      "name": "transfer",
      "outputs": [],
      "stateMutability": "nonpayable",
      "type": "function"
    },
    {
      "inputs": [
        {
          "internalType": "address",
          "name": "operator",
          "type": "address"
        },
        {
          "internalType": "address",
          "name": "from",
          "type": "address"
        },
        {
          "internalType": "address",
          "name": "to",
          "type": "address"
        },
        {
          "internalType": "uint256",
          "name": "amount",
          "type": "uint256"
        },
        {
          "internalType": "bytes",
          "name": "",
          "type": "bytes"
        },
        {
          "internalType": "bytes",
          "name": "",
          "type": "bytes"
        }
      ],
      "name": "tokensReceived",
      "outputs": [],
      "stateMutability": "nonpayable",
      "type": "function"
    },
    {
      "inputs": [
        {
          "internalType": "address",
          "name": "operator",
          "type": "address"
        },
        {
          "internalType": "address",
          "name": "from",
          "type": "address"
        },
        {
          "internalType": "address",
          "name": "to",
          "type": "address"
        },
        {
          "internalType": "uint256",
          "name": "amount",
          "type": "uint256"
        },
        {
          "internalType": "bytes",
          "name": "",
          "type": "bytes"
        },
        {
          "internalType": "bytes",
          "name": "",
          "type": "bytes"
        }
      ],
      "name": "tokensToSend",
      "outputs": [],
      "stateMutability": "nonpayable",
      "type": "function"
    },
    {
      "inputs": [
        {
          "internalType": "address",
          "name": "operator",
          "type": "address"
        },
        {
          "internalType": "address",
          "name": "from",
          "type": "address"
        },
        {
          "internalType": "address",
          "name": "to",
          "type": "address"
        },
        {
          "internalType": "uint256",
          "name": "amount",
          "type": "uint256"
        }
      ],
      "name": "transferCoins",
      "outputs": [],
      "stateMutability": "nonpayable",
      "type": "function"
    },
    {
      "inputs": [
        {
          "internalType": "address",
          "name": "operator",
          "type": "address"
        },
        {
          "internalType": "address",
          "name": "from",
          "type": "address"
        },
        {
          "internalType": "uint256",
          "name": "tokenId",
          "type": "uint256"
        },
        {
          "internalType": "bytes",
          "name": "",
          "type": "bytes"
        }
      ],
      "name": "onERC721Received",
      "outputs": [
        {
          "internalType": "bytes4",
          "name": "",
          "type": "bytes4"
        }
      ],
      "stateMutability": "nonpayable",
      "type": "function"
    },
    {
      "inputs": [
        {
          "internalType": "bytes32",
          "name": "ipfsHash",
          "type": "bytes32"
        },
        {
          "internalType": "uint8",
          "name": "hashFunction",
          "type": "uint8"
        },
        {
          "internalType": "uint8",
          "name": "hashSize",
          "type": "uint8"
        }
      ],
      "name": "updateMetadata",
      "outputs": [],
      "stateMutability": "nonpayable",
      "type": "function"
    },
    {
      "inputs": [
        {
          "components": [
            {
              "internalType": "address",
              "name": "addr",
              "type": "address"
            },
            {
              "internalType": "bytes32",
              "name": "ipfsHash",
              "type": "bytes32"
            },
            {
              "internalType": "uint8",
              "name": "hashFunction",
              "type": "uint8"
            },
            {
              "internalType": "uint8",
              "name": "hashSize",
              "type": "uint8"
            }
          ],
          "internalType": "struct OrganLibrary.Entry[]",
          "name": "entries",
          "type": "tuple[]"
        }
      ],
      "name": "addEntries",
      "outputs": [
        {
          "internalType": "uint256[]",
          "name": "indexes",
          "type": "uint256[]"
        }
      ],
      "stateMutability": "nonpayable",
      "type": "function"
    },
    {
      "inputs": [
        {
          "internalType": "uint256[]",
          "name": "indexes",
          "type": "uint256[]"
        }
      ],
      "name": "removeEntries",
      "outputs": [],
      "stateMutability": "nonpayable",
      "type": "function"
    },
    {
      "inputs": [
        {
          "internalType": "uint256",
          "name": "index",
          "type": "uint256"
        },
        {
          "internalType": "address payable",
          "name": "addr",
          "type": "address"
        },
        {
          "internalType": "bytes32",
          "name": "ipfsHash",
          "type": "bytes32"
        },
        {
          "internalType": "uint8",
          "name": "hashFunction",
          "type": "uint8"
        },
        {
          "internalType": "uint8",
          "name": "hashSize",
          "type": "uint8"
        }
      ],
      "name": "replaceEntry",
      "outputs": [],
      "stateMutability": "nonpayable",
      "type": "function"
    },
    {
      "inputs": [
        {
          "internalType": "address",
          "name": "procedure",
          "type": "address"
        },
        {
          "internalType": "bytes2",
          "name": "permissions",
          "type": "bytes2"
        }
      ],
      "name": "addProcedure",
      "outputs": [],
      "stateMutability": "nonpayable",
      "type": "function"
    },
    {
      "inputs": [
        {
          "internalType": "address",
          "name": "procedure",
          "type": "address"
        }
      ],
      "name": "removeProcedure",
      "outputs": [],
      "stateMutability": "nonpayable",
      "type": "function"
    },
    {
      "inputs": [
        {
          "internalType": "address",
          "name": "oldProcedure",
          "type": "address"
        },
        {
          "internalType": "address",
          "name": "newProcedure",
          "type": "address"
        },
        {
          "internalType": "bytes2",
          "name": "permissions",
          "type": "bytes2"
        }
      ],
      "name": "replaceProcedure",
      "outputs": [],
      "stateMutability": "nonpayable",
      "type": "function"
    },
    {
      "inputs": [],
      "name": "getEntriesLength",
      "outputs": [
        {
          "internalType": "uint256",
          "name": "length",
          "type": "uint256"
        }
      ],
      "stateMutability": "view",
      "type": "function",
      "constant": true
    },
    {
      "inputs": [
        {
          "internalType": "address",
          "name": "addr",
          "type": "address"
        }
      ],
      "name": "getEntryIndexForAddress",
      "outputs": [
        {
          "internalType": "uint256",
          "name": "index",
          "type": "uint256"
        }
      ],
      "stateMutability": "view",
      "type": "function",
      "constant": true
    },
    {
      "inputs": [
        {
          "internalType": "uint256",
          "name": "index",
          "type": "uint256"
        }
      ],
      "name": "getEntry",
      "outputs": [
        {
          "internalType": "address",
          "name": "addr",
          "type": "address"
        },
        {
          "internalType": "bytes32",
          "name": "ipfsHash",
          "type": "bytes32"
        },
        {
          "internalType": "uint8",
          "name": "hashFunction",
          "type": "uint8"
        },
        {
          "internalType": "uint8",
          "name": "hashSize",
          "type": "uint8"
        }
      ],
      "stateMutability": "view",
      "type": "function",
      "constant": true
    },
    {
      "inputs": [],
      "name": "getProceduresLength",
      "outputs": [
        {
          "internalType": "uint256",
          "name": "length",
          "type": "uint256"
        }
      ],
      "stateMutability": "view",
      "type": "function",
      "constant": true
    },
    {
      "inputs": [
        {
          "internalType": "uint256",
          "name": "index",
          "type": "uint256"
        }
      ],
      "name": "getProcedure",
      "outputs": [
        {
          "internalType": "address",
          "name": "procedure",
          "type": "address"
        },
        {
          "internalType": "bytes2",
          "name": "permissions",
          "type": "bytes2"
        }
      ],
      "stateMutability": "view",
      "type": "function",
      "constant": true
    },
    {
      "inputs": [
        {
          "internalType": "address",
          "name": "procedure",
          "type": "address"
        }
      ],
      "name": "getPermissions",
      "outputs": [
        {
          "internalType": "bytes2",
          "name": "permissions",
          "type": "bytes2"
        }
      ],
      "stateMutability": "view",
      "type": "function",
      "constant": true
    },
    {
      "inputs": [],
      "name": "getMetadata",
      "outputs": [
        {
          "internalType": "bytes32",
          "name": "ipfsHash",
          "type": "bytes32"
        },
        {
          "internalType": "uint8",
          "name": "hashFunction",
          "type": "uint8"
        },
        {
          "internalType": "uint8",
          "name": "hashSize",
          "type": "uint8"
        }
      ],
      "stateMutability": "view",
      "type": "function",
      "constant": true
    }
  ],
  "bytecode": "0x60806040523480156200001157600080fd5b50604051620018c0380380620018c0833981016040819052620000349162000131565b620000466301ffc9a760e01b620000d6565b6200005863bae78d7b60e01b620000d6565b604051631d1dc7ad60e21b815273__OrganLibrary__________________________906374771eb4906200009a906001908890889088908890600401620001cd565b60006040518083038186803b158015620000b357600080fd5b505af4158015620000c8573d6000803e3d6000fd5b505050505050505062000212565b6001600160e01b031980821614156200010c5760405162461bcd60e51b8152600401620001039062000196565b60405180910390fd5b6001600160e01b0319166000908152602081905260409020805460ff19166001179055565b6000806000806080858703121562000147578384fd5b84516001600160a01b03811681146200015e578485fd5b6020860151604087015191955093506200017881620001ff565b60608601519092506200018b81620001ff565b939692955090935050565b6020808252601c908201527f4552433136353a20696e76616c696420696e7465726661636520696400000000604082015260600190565b9485526001600160a01b03939093166020850152604084019190915260ff908116606084015216608082015260a00190565b60ff811681146200020f57600080fd5b50565b61169e80620002226000396000f3fe6080604052600436106100f25760003560e01c806223de291461016857806301ffc9a71461018a578063150b7a02146101c0578063160a7925146101ed57806319b9404c1461021a5780632f2bf18e1461023a57806339c2ae701461026757806375ab9782146102875780637615eb81146102a75780637a5b4f59146102c75780637a7ce65c146102eb5780637f0a4e271461030057806391bdfe6314610320578063981d5e7b14610340578063a0d10c9a1461036d578063a9059cbb14610382578063bae78d7b146103a2578063d0922d4a146103d2578063d28fbf0a146103f2578063f49b58481461042057610163565b3661016357604051631eb50c8b60e11b815273__OrganLibrary__________________________90633d6a1916906101319060019034906004016115a1565b60006040518083038186803b15801561014957600080fd5b505af415801561015d573d6000803e3d6000fd5b50505050005b600080fd5b34801561017457600080fd5b50610188610183366004610de6565b610440565b005b34801561019657600080fd5b506101aa6101a5366004611237565b6104ba565b6040516101b79190611380565b60405180910390f35b3480156101cc57600080fd5b506101e06101db366004610edd565b6104d9565b6040516101b791906113b9565b3480156101f957600080fd5b5061020d610208366004610d48565b61055b565b6040516101b7919061138b565b34801561022657600080fd5b50610188610235366004610d48565b6105ee565b34801561024657600080fd5b5061025a610255366004610d48565b61065b565b6040516101b791906113ce565b34801561027357600080fd5b506101886102823660046111ca565b610676565b34801561029357600080fd5b506101886102a2366004610de6565b6106e9565b3480156102b357600080fd5b506101886102c236600461109c565b610729565b3480156102d357600080fd5b506102dc610763565b6040516101b7939291906113a0565b3480156102f757600080fd5b5061025a6107fd565b34801561030c57600080fd5b5061018861031b366004610f94565b61088d565b34801561032c57600080fd5b5061018861033b36600461128f565b61091e565b34801561034c57600080fd5b5061036061035b366004610ffa565b610997565b6040516101b7919061133c565b34801561037957600080fd5b5061025a610a28565b34801561038e57600080fd5b5061018861039d366004610d6b565b610a2e565b3480156103ae57600080fd5b506103c26103bd36600461125f565b610a9e565b6040516101b79493929190611310565b3480156103de57600080fd5b506101886103ed366004610e93565b610b57565b3480156103fe57600080fd5b5061041261040d36600461125f565b610b95565b6040516101b79291906112ed565b34801561042c57600080fd5b5061018861043b366004610d96565b610c2c565b604051632c2f5d2960e21b815273__OrganLibrary__________________________9063b0bd74a490610480906001908c908c908c908c9060040161140d565b60006040518083038186803b15801561049857600080fd5b505af41580156104ac573d6000803e3d6000fd5b505050505050505050505050565b6001600160e01b03191660009081526020819052604090205460ff1690565b604051634545992d60e11b815260009073__OrganLibrary__________________________90638a8b325a9061051a9060019089908990899060040161146a565b60006040518083038186803b15801561053257600080fd5b505af4158015610546573d6000803e3d6000fd5b50630a85bd0160e11b98975050505050505050565b604051630400d3df60e31b815260009073__OrganLibrary__________________________906320069ef8906105989060019086906004016113d7565b60206040518083038186803b1580156105b057600080fd5b505af41580156105c4573d6000803e3d6000fd5b505050506040513d601f19601f820116820180604052508101906105e891906111ae565b92915050565b604051633974fa3360e01b815273__OrganLibrary__________________________90633974fa33906106289060019085906004016113d7565b60006040518083038186803b15801561064057600080fd5b505af4158015610654573d6000803e3d6000fd5b5050505050565b6001600160a01b031660009081526008602052604090205490565b60405163f59263df60e01b815273__OrganLibrary__________________________9063f59263df906106b490600190879087908790600401611580565b60006040518083038186803b1580156106cc57600080fd5b505af41580156106e0573d6000803e3d6000fd5b50505050505050565b604051630e7551c560e11b815273__OrganLibrary__________________________90631ceaa38a90610480906001908c908c908c908c9060040161140d565b604051638e15bab760e01b815273__OrganLibrary__________________________90638e15bab790610628906001908590600401611533565b604051634a2fda1b60e11b81526000908190819073__OrganLibrary__________________________9063945fb436906107a2906001906004016113ce565b60606040518083038186803b1580156107ba57600080fd5b505af41580156107ce573d6000803e3d6000fd5b505050506040513d601f19601f820116820180604052508101906107f29190611200565b925092509250909192565b604051631948599560e31b815260009073__OrganLibrary__________________________9063ca42cca890610838906001906004016113ce565b60206040518083038186803b15801561085057600080fd5b505af4158015610864573d6000803e3d6000fd5b505050506040513d601f19601f820116820180604052508101906108889190611277565b905090565b6040516399f3d1db60e01b815273__OrganLibrary__________________________906399f3d1db906108c9906001908690869060040161148f565b60206040518083038186803b1580156108e157600080fd5b505af41580156108f5573d6000803e3d6000fd5b505050506040513d601f19601f820116820180604052508101906109199190611277565b505050565b604051630ac08b4960e01b815273__OrganLibrary__________________________90630ac08b499061096090600190899089908990899089906004016115af565b60006040518083038186803b15801561097857600080fd5b505af415801561098c573d6000803e3d6000fd5b505050505050505050565b60405163784fced960e01b815260609073__OrganLibrary__________________________9063784fced9906109d49060019086906004016114b8565b60006040518083038186803b1580156109ec57600080fd5b505af4158015610a00573d6000803e3d6000fd5b505050506040513d6000823e601f3d908101601f191682016040526105e8919081019061112b565b60045490565b60405163432787d960e01b815273__OrganLibrary__________________________9063432787d990610a6a90600190869086906004016113ee565b60006040518083038186803b158015610a8257600080fd5b505af4158015610a96573d6000803e3d6000fd5b505050505050565b60008060008060016003018581548110610ab457fe5b6000918252602090912060039091020154600480546001600160a01b039092169187908110610adf57fe5b90600052602060002090600302016001015460016003018781548110610b0157fe5b60009182526020909120600260039092020101546004805460ff9092169189908110610b2957fe5b906000526020600020906003020160020160019054906101000a900460ff1693509350935093509193509193565b604051637c64ce1b60e11b815273__OrganLibrary__________________________9063f8c99c36906106b49060019087908790879060040161143b565b60405163431f2e8b60e11b8152600090819073__OrganLibrary__________________________9063863e5d1690610bd49060019087906004016115a1565b604080518083038186803b158015610beb57600080fd5b505af4158015610bff573d6000803e3d6000fd5b505050506040513d601f19601f82011682018060405250810190610c239190610fcc565b91509150915091565b604051630e7551c560e11b815273__OrganLibrary__________________________90631ceaa38a90610c6c90600190889088908890889060040161140d565b60006040518083038186803b158015610c8457600080fd5b505af4158015610c98573d6000803e3d6000fd5b5050505050505050565b60008083601f840112610cb3578182fd5b5081356001600160401b03811115610cc9578182fd5b602083019150836020828501011115610ce157600080fd5b9250929050565b600060808284031215610cf9578081fd5b610d0360806115e6565b90508135610d108161162b565b8152602082810135908201526040820135610d2a81611659565b60408201526060820135610d3d81611659565b606082015292915050565b600060208284031215610d59578081fd5b8135610d648161162b565b9392505050565b60008060408385031215610d7d578081fd5b8235610d888161162b565b946020939093013593505050565b60008060008060808587031215610dab578182fd5b8435610db68161162b565b93506020850135610dc68161162b565b92506040850135610dd68161162b565b9396929550929360600135925050565b60008060008060008060008060c0898b031215610e01578384fd5b8835610e0c8161162b565b97506020890135610e1c8161162b565b96506040890135610e2c8161162b565b95506060890135945060808901356001600160401b0380821115610e4e578586fd5b610e5a8c838d01610ca2565b909650945060a08b0135915080821115610e72578384fd5b50610e7f8b828c01610ca2565b999c989b5096995094979396929594505050565b600080600060608486031215610ea7578283fd5b8335610eb28161162b565b92506020840135610ec28161162b565b91506040840135610ed281611643565b809150509250925092565b60008060008060808587031215610ef2578182fd5b8435610efd8161162b565b9350602085810135610f0e8161162b565b93506040860135925060608601356001600160401b0380821115610f30578384fd5b818801915088601f830112610f43578384fd5b813581811115610f51578485fd5b610f63601f8201601f191685016115e6565b91508082528984828501011115610f78578485fd5b8084840185840137810190920192909252939692955090935050565b60008060408385031215610fa6578182fd5b8235610fb18161162b565b91506020830135610fc181611643565b809150509250929050565b60008060408385031215610fde578182fd5b8251610fe98161162b565b6020840151909250610fc181611643565b6000602080838503121561100c578182fd5b82356001600160401b03811115611021578283fd5b8301601f81018513611031578283fd5b803561104461103f8261160c565b6115e6565b818152838101908385016080808502860187018a1015611062578788fd5b8795505b8486101561108e576110788a83610ce8565b8452600195909501949286019290810190611066565b509098975050505050505050565b600060208083850312156110ae578182fd5b82356001600160401b038111156110c3578283fd5b8301601f810185136110d3578283fd5b80356110e161103f8261160c565b81815283810190838501858402850186018910156110fd578687fd5b8694505b8385101561111f578035835260019490940193918501918501611101565b50979650505050505050565b6000602080838503121561113d578182fd5b82516001600160401b03811115611152578283fd5b8301601f81018513611162578283fd5b805161117061103f8261160c565b818152838101908385018584028501860189101561118c578687fd5b8694505b8385101561111f578051835260019490940193918501918501611190565b6000602082840312156111bf578081fd5b8151610d6481611643565b6000806000606084860312156111de578081fd5b8335925060208401356111f081611659565b91506040840135610ed281611659565b600080600060608486031215611214578081fd5b83519250602084015161122681611659565b6040850151909250610ed281611659565b600060208284031215611248578081fd5b81356001600160e01b031981168114610d64578182fd5b600060208284031215611270578081fd5b5035919050565b600060208284031215611288578081fd5b5051919050565b600080600080600060a086880312156112a6578283fd5b8535945060208601356112b88161162b565b93506040860135925060608601356112cf81611659565b915060808601356112df81611659565b809150509295509295909350565b6001600160a01b039290921682526001600160f01b031916602082015260400190565b6001600160a01b03949094168452602084019290925260ff908116604084015216606082015260800190565b6020808252825182820181905260009190848201906040850190845b8181101561137457835183529284019291840191600101611358565b50909695505050505050565b901515815260200190565b6001600160f01b031991909116815260200190565b92835260ff918216602084015216604082015260600190565b6001600160e01b031991909116815260200190565b90815260200190565b9182526001600160a01b0316602082015260400190565b9283526001600160a01b03919091166020830152604082015260600190565b9485526001600160a01b03938416602086015291831660408501529091166060830152608082015260a00190565b9384526001600160a01b039283166020850152911660408301526001600160f01b031916606082015260800190565b9384526001600160a01b03928316602085015291166040830152606082015260800190565b9283526001600160a01b039190911660208301526001600160f01b031916604082015260600190565b6000604080830185845260208281860152818651808452606093508387019150828801865b8281101561152457815180516001600160a01b0316855285810151868601528781015160ff90811689870152908701511686850152608090930192908401906001016114dd565b50919998505050505050505050565b60006040820184835260206040818501528185518084526060860191508287019350845b8181101561157357845183529383019391830191600101611557565b5090979650505050505050565b938452602084019290925260ff908116604084015216606082015260800190565b918252602082015260400190565b95865260208601949094526001600160a01b03929092166040850152606084015260ff90811660808401521660a082015260c00190565b6040518181016001600160401b038111828210171561160457600080fd5b604052919050565b60006001600160401b03821115611621578081fd5b5060209081020190565b6001600160a01b038116811461164057600080fd5b50565b6001600160f01b03198116811461164057600080fd5b60ff8116811461164057600080fdfea264697066735822122013a2ea89e9d2c4b6198865202f6be9a6f8087c7cf0715e5d8dd184c52750140f64736f6c634300060c0033",
  "immutableReferences": {},
  "source": "// SPDX-License-Identifier: LGPL-3.0-or-later\npragma solidity ^0.6.0;\npragma experimental ABIEncoderV2;\n\nimport \"./libraries/OrganLibrary.sol\";\nimport \"@openzeppelin/contracts/introspection/ERC165.sol\";\nimport \"@openzeppelin/contracts/token/ERC777/IERC777Recipient.sol\";\nimport \"@openzeppelin/contracts/token/ERC777/IERC777Sender.sol\";\nimport \"@openzeppelin/contracts/token/ERC721/IERC721Receiver.sol\";\n\n/**\n    An organ contains a list of entries and a set of procedures.\n    A procedure is a contract that can effect changes on organs.\n    An entry can be a document and/or an address (a wallet or a contract).\n*/\n\ncontract Organ is\n    ERC165,\n    IERC777Recipient,\n    IERC777Sender,\n    IERC721Receiver\n{\n    using OrganLibrary for OrganLibrary.OrganData;\n    using OrganLibrary for OrganLibrary.Entry;\n    OrganLibrary.OrganData internal organData;\n    bytes4 private constant _INTERFACE_ID_ORGAN = 0xbae78d7b;\n\n    /**\n        Organ API.\n    */\n\n    constructor(\n        address payable admin,\n        bytes32 metadataIpfsHash,\n        uint8 metadataHashFunction,\n        uint8 metadataHashSize\n    ) public {\n        // Register EIP165 interface for introspection.\n        _registerInterface(_INTERFACE_ID_ORGAN);\n        organData.init(\n            admin,\n            metadataIpfsHash,\n            metadataHashFunction,\n            metadataHashSize\n        );\n    }\n\n    // Assets.\n\n    receive() external payable {\n        organData.receiveEther(msg.value);\n    }\n\n    // @TODO : Protect ether transfers against re-entrancy attacks.\n    function transfer(address payable to, uint256 value) public {\n        organData.transferEther(to, value);\n    }\n\n    // Implementing ERC-777 receiver interface.\n    function tokensReceived(\n        address operator,\n        address from,\n        address to,\n        uint256 amount,\n        bytes calldata, /*data*/\n        bytes calldata /*operatorData*/\n    ) external override {\n        organData.receiveCoins(operator, from, to, amount);\n    }\n\n    function tokensToSend(\n        address operator,\n        address from,\n        address to,\n        uint256 amount,\n        bytes calldata, /*userData*/\n        bytes calldata /*operatorData*/\n    ) external override {\n        organData.transferCoins(operator, from, to, amount);\n    }\n\n    function transferCoins(\n        address operator,\n        address from,\n        address to,\n        uint256 amount\n    ) external {\n        organData.transferCoins(operator, from, to, amount);\n    }\n\n    // Implementing ERC-721 receiver interface.\n    function onERC721Received(\n        address operator,\n        address from,\n        uint256 tokenId,\n        bytes memory /*data*/\n    ) public override returns (bytes4) {\n        organData.receiveCollectible(operator, from, tokenId);\n        return this.onERC721Received.selector;\n    }\n\n    function updateMetadata(\n        bytes32 ipfsHash,\n        uint8 hashFunction,\n        uint8 hashSize\n    ) public {\n        organData.updateMetadata(ipfsHash, hashFunction, hashSize);\n    }\n\n    /*\n        API for Procedure contract.\n    */\n\n    function addEntries(OrganLibrary.Entry[] memory entries)\n        public\n        returns (uint256[] memory indexes)\n    {\n        return organData.addEntries(entries);\n    }\n\n    function removeEntries(uint256[] memory indexes) public {\n        organData.removeEntries(indexes);\n    }\n\n    function replaceEntry(\n        uint256 index,\n        address payable addr,\n        bytes32 ipfsHash,\n        uint8 hashFunction,\n        uint8 hashSize\n    ) public {\n        organData.replaceEntry(index, addr, ipfsHash, hashFunction, hashSize);\n    }\n\n    // @TODO : Should be plural.\n    function addProcedure(address procedure, bytes2 permissions) public {\n        organData.addProcedure(procedure, permissions);\n    }\n\n    // @TODO : Should be plural.\n    function removeProcedure(address procedure) public {\n        organData.removeProcedure(procedure);\n    }\n\n    function replaceProcedure(\n        address oldProcedure,\n        address newProcedure,\n        bytes2 permissions\n    ) public {\n        organData.replaceProcedure(oldProcedure, newProcedure, permissions);\n    }\n\n    /*\n        Accessors.\n    */\n\n    function getEntriesLength() public view returns (uint256 length) {\n        return organData.entries.length;\n    }\n\n    function getEntryIndexForAddress(address addr)\n        public\n        view\n        returns (uint256 index)\n    {\n        return organData.addressIndexInEntries[addr];\n    }\n\n    function getEntry(uint256 index)\n        public\n        view\n        returns (\n            address addr,\n            bytes32 ipfsHash,\n            uint8 hashFunction,\n            uint8 hashSize\n        )\n    {\n        return (\n            organData.entries[index].addr,\n            organData.entries[index].ipfsHash,\n            organData.entries[index].hashFunction,\n            organData.entries[index].hashSize\n        );\n    }\n\n    function getProceduresLength() public view returns (uint256 length) {\n        return organData.getProceduresLength();\n    }\n\n    function getProcedure(uint256 index)\n        public\n        view\n        returns (address procedure, bytes2 permissions)\n    {\n        return organData.getProcedure(index);\n    }\n\n    function getPermissions(address procedure)\n        public\n        view\n        returns (bytes2 permissions)\n    {\n        return organData.getPermissions(procedure);\n    }\n\n    function getMetadata()\n        public\n        view\n        returns (\n            bytes32 ipfsHash,\n            uint8 hashFunction,\n            uint8 hashSize\n        )\n    {\n        return organData.getMetadata();\n    }\n}\n",
  "sourcePath": "/Users/alex/Code/organigr.am/packages/@organigram/contracts/contracts/Organ.sol",
  "compiler": {
    "name": "solc",
    "version": "0.6.12+commit.27d51765.Emscripten.clang"
  },
  "schemaVersion": "3.3.2",
  "updatedAt": "2020-12-04T21:03:34.414Z",
  "networkType": "ethereum",
  "devdoc": {
    "kind": "dev",
    "methods": {
      "supportsInterface(bytes4)": {
        "details": "See {IERC165-supportsInterface}. Time complexity O(1), guaranteed to always use less than 30 000 gas."
      }
    },
    "version": 1
  },
  "userdoc": {
    "kind": "user",
    "methods": {
      "constructor": "Organ API."
    },
    "notice": "An organ contains a list of entries and a set of procedures. A procedure is a contract that can effect changes on organs. An entry can be a document and/or an address (a wallet or a contract).",
    "version": 1
  }
}