{
  "contractName": "Organ",
  "abi": [
    {
      "inputs": [
        {
          "internalType": "address payable",
          "name": "admin",
          "type": "address"
        },
        {
          "internalType": "bytes32",
          "name": "metadataIpfsHash",
          "type": "bytes32"
        },
        {
          "internalType": "uint8",
          "name": "metadataHashFunction",
          "type": "uint8"
        },
        {
          "internalType": "uint8",
          "name": "metadataHashSize",
          "type": "uint8"
        }
      ],
      "stateMutability": "nonpayable",
      "type": "constructor"
    },
    {
      "inputs": [],
      "name": "getKelsenData",
      "outputs": [
        {
          "internalType": "bool",
          "name": "",
          "type": "bool"
        },
        {
          "internalType": "bool",
          "name": "",
          "type": "bool"
        },
        {
          "internalType": "uint8",
          "name": "",
          "type": "uint8"
        }
      ],
      "stateMutability": "view",
      "type": "function",
      "constant": true
    },
    {
      "inputs": [],
      "name": "isOrgan",
      "outputs": [
        {
          "internalType": "bool",
          "name": "",
          "type": "bool"
        }
      ],
      "stateMutability": "view",
      "type": "function",
      "constant": true
    },
    {
      "inputs": [],
      "name": "isProcedure",
      "outputs": [
        {
          "internalType": "bool",
          "name": "",
          "type": "bool"
        }
      ],
      "stateMutability": "view",
      "type": "function",
      "constant": true
    },
    {
      "inputs": [],
      "name": "kelsenVersion",
      "outputs": [
        {
          "internalType": "uint8",
          "name": "",
          "type": "uint8"
        }
      ],
      "stateMutability": "view",
      "type": "function",
      "constant": true
    },
    {
      "stateMutability": "payable",
      "type": "receive",
      "payable": true
    },
    {
      "inputs": [
        {
          "internalType": "address payable",
          "name": "to",
          "type": "address"
        },
        {
          "internalType": "uint256",
          "name": "value",
          "type": "uint256"
        }
      ],
      "name": "transfer",
      "outputs": [],
      "stateMutability": "nonpayable",
      "type": "function"
    },
    {
      "inputs": [
        {
          "internalType": "address",
          "name": "operator",
          "type": "address"
        },
        {
          "internalType": "address",
          "name": "from",
          "type": "address"
        },
        {
          "internalType": "address",
          "name": "to",
          "type": "address"
        },
        {
          "internalType": "uint256",
          "name": "amount",
          "type": "uint256"
        },
        {
          "internalType": "bytes",
          "name": "",
          "type": "bytes"
        },
        {
          "internalType": "bytes",
          "name": "",
          "type": "bytes"
        }
      ],
      "name": "tokensReceived",
      "outputs": [],
      "stateMutability": "nonpayable",
      "type": "function"
    },
    {
      "inputs": [
        {
          "internalType": "address",
          "name": "operator",
          "type": "address"
        },
        {
          "internalType": "address",
          "name": "from",
          "type": "address"
        },
        {
          "internalType": "address",
          "name": "to",
          "type": "address"
        },
        {
          "internalType": "uint256",
          "name": "amount",
          "type": "uint256"
        },
        {
          "internalType": "bytes",
          "name": "",
          "type": "bytes"
        },
        {
          "internalType": "bytes",
          "name": "",
          "type": "bytes"
        }
      ],
      "name": "tokensToSend",
      "outputs": [],
      "stateMutability": "nonpayable",
      "type": "function"
    },
    {
      "inputs": [
        {
          "internalType": "address",
          "name": "operator",
          "type": "address"
        },
        {
          "internalType": "address",
          "name": "from",
          "type": "address"
        },
        {
          "internalType": "address",
          "name": "to",
          "type": "address"
        },
        {
          "internalType": "uint256",
          "name": "amount",
          "type": "uint256"
        }
      ],
      "name": "transferCoins",
      "outputs": [],
      "stateMutability": "nonpayable",
      "type": "function"
    },
    {
      "inputs": [
        {
          "internalType": "address",
          "name": "operator",
          "type": "address"
        },
        {
          "internalType": "address",
          "name": "from",
          "type": "address"
        },
        {
          "internalType": "uint256",
          "name": "tokenId",
          "type": "uint256"
        },
        {
          "internalType": "bytes",
          "name": "",
          "type": "bytes"
        }
      ],
      "name": "onERC721Received",
      "outputs": [
        {
          "internalType": "bytes4",
          "name": "",
          "type": "bytes4"
        }
      ],
      "stateMutability": "nonpayable",
      "type": "function"
    },
    {
      "inputs": [
        {
          "internalType": "bytes32",
          "name": "ipfsHash",
          "type": "bytes32"
        },
        {
          "internalType": "uint8",
          "name": "hashFunction",
          "type": "uint8"
        },
        {
          "internalType": "uint8",
          "name": "hashSize",
          "type": "uint8"
        }
      ],
      "name": "updateMetadata",
      "outputs": [],
      "stateMutability": "nonpayable",
      "type": "function"
    },
    {
      "inputs": [
        {
          "components": [
            {
              "internalType": "address",
              "name": "addr",
              "type": "address"
            },
            {
              "internalType": "bytes32",
              "name": "ipfsHash",
              "type": "bytes32"
            },
            {
              "internalType": "uint8",
              "name": "hashFunction",
              "type": "uint8"
            },
            {
              "internalType": "uint8",
              "name": "hashSize",
              "type": "uint8"
            }
          ],
          "internalType": "struct OrganLibrary.Entry[]",
          "name": "entries",
          "type": "tuple[]"
        }
      ],
      "name": "addEntries",
      "outputs": [
        {
          "internalType": "uint256[]",
          "name": "indexes",
          "type": "uint256[]"
        }
      ],
      "stateMutability": "nonpayable",
      "type": "function"
    },
    {
      "inputs": [
        {
          "internalType": "uint256[]",
          "name": "indexes",
          "type": "uint256[]"
        }
      ],
      "name": "removeEntries",
      "outputs": [],
      "stateMutability": "nonpayable",
      "type": "function"
    },
    {
      "inputs": [
        {
          "internalType": "uint256",
          "name": "index",
          "type": "uint256"
        },
        {
          "internalType": "address payable",
          "name": "addr",
          "type": "address"
        },
        {
          "internalType": "bytes32",
          "name": "ipfsHash",
          "type": "bytes32"
        },
        {
          "internalType": "uint8",
          "name": "hashFunction",
          "type": "uint8"
        },
        {
          "internalType": "uint8",
          "name": "hashSize",
          "type": "uint8"
        }
      ],
      "name": "replaceEntry",
      "outputs": [],
      "stateMutability": "nonpayable",
      "type": "function"
    },
    {
      "inputs": [
        {
          "internalType": "address",
          "name": "procedure",
          "type": "address"
        },
        {
          "internalType": "bytes2",
          "name": "permissions",
          "type": "bytes2"
        }
      ],
      "name": "addProcedure",
      "outputs": [],
      "stateMutability": "nonpayable",
      "type": "function"
    },
    {
      "inputs": [
        {
          "internalType": "address",
          "name": "procedure",
          "type": "address"
        }
      ],
      "name": "removeProcedure",
      "outputs": [],
      "stateMutability": "nonpayable",
      "type": "function"
    },
    {
      "inputs": [
        {
          "internalType": "address",
          "name": "oldProcedure",
          "type": "address"
        },
        {
          "internalType": "address",
          "name": "newProcedure",
          "type": "address"
        },
        {
          "internalType": "bytes2",
          "name": "permissions",
          "type": "bytes2"
        }
      ],
      "name": "replaceProcedure",
      "outputs": [],
      "stateMutability": "nonpayable",
      "type": "function"
    },
    {
      "inputs": [],
      "name": "getEntriesLength",
      "outputs": [
        {
          "internalType": "uint256",
          "name": "length",
          "type": "uint256"
        }
      ],
      "stateMutability": "view",
      "type": "function",
      "constant": true
    },
    {
      "inputs": [
        {
          "internalType": "address",
          "name": "addr",
          "type": "address"
        }
      ],
      "name": "getEntryIndexForAddress",
      "outputs": [
        {
          "internalType": "uint256",
          "name": "index",
          "type": "uint256"
        }
      ],
      "stateMutability": "view",
      "type": "function",
      "constant": true
    },
    {
      "inputs": [
        {
          "internalType": "uint256",
          "name": "index",
          "type": "uint256"
        }
      ],
      "name": "getEntry",
      "outputs": [
        {
          "internalType": "address",
          "name": "addr",
          "type": "address"
        },
        {
          "internalType": "bytes32",
          "name": "ipfsHash",
          "type": "bytes32"
        },
        {
          "internalType": "uint8",
          "name": "hashFunction",
          "type": "uint8"
        },
        {
          "internalType": "uint8",
          "name": "hashSize",
          "type": "uint8"
        }
      ],
      "stateMutability": "view",
      "type": "function",
      "constant": true
    },
    {
      "inputs": [],
      "name": "getProceduresLength",
      "outputs": [
        {
          "internalType": "uint256",
          "name": "length",
          "type": "uint256"
        }
      ],
      "stateMutability": "view",
      "type": "function",
      "constant": true
    },
    {
      "inputs": [
        {
          "internalType": "uint256",
          "name": "index",
          "type": "uint256"
        }
      ],
      "name": "getProcedure",
      "outputs": [
        {
          "internalType": "address",
          "name": "procedure",
          "type": "address"
        },
        {
          "internalType": "bytes2",
          "name": "permissions",
          "type": "bytes2"
        }
      ],
      "stateMutability": "view",
      "type": "function",
      "constant": true
    },
    {
      "inputs": [
        {
          "internalType": "address",
          "name": "procedure",
          "type": "address"
        }
      ],
      "name": "getPermissions",
      "outputs": [
        {
          "internalType": "bytes2",
          "name": "permissions",
          "type": "bytes2"
        }
      ],
      "stateMutability": "view",
      "type": "function",
      "constant": true
    },
    {
      "inputs": [],
      "name": "getMetadata",
      "outputs": [
        {
          "internalType": "bytes32",
          "name": "ipfsHash",
          "type": "bytes32"
        },
        {
          "internalType": "uint8",
          "name": "hashFunction",
          "type": "uint8"
        },
        {
          "internalType": "uint8",
          "name": "hashSize",
          "type": "uint8"
        }
      ],
      "stateMutability": "view",
      "type": "function",
      "constant": true
    }
  ],
  "bytecode": "0x608060405260036000806101000a81548160ff021916908360ff1602179055503480156200002c57600080fd5b50604051620025bf380380620025bf833981810160405281019062000052919062000151565b6001600081600060016101000a81548160ff02191690831515021790555080600060026101000a81548160ff0219169083151502179055505050600173__OrganLibrary__________________________6374771eb49091868686866040518663ffffffff1660e01b8152600401620000d0959493929190620001f7565b60006040518083038186803b158015620000e957600080fd5b505af4158015620000fe573d6000803e3d6000fd5b505050505050505062000329565b6000815190506200011d81620002db565b92915050565b6000815190506200013481620002f5565b92915050565b6000815190506200014b816200030f565b92915050565b600080600080608085870312156200016857600080fd5b600062000178878288016200010c565b94505060206200018b8782880162000123565b93505060406200019e878288016200013a565b9250506060620001b1878288016200013a565b91505092959194509250565b620001c8816200029f565b82525050565b620001d98162000268565b82525050565b8082525050565b620001f18162000292565b82525050565b600060a0820190506200020e6000830188620001df565b6200021d6020830187620001bd565b6200022c6040830186620001ce565b6200023b6060830185620001e6565b6200024a6080830184620001e6565b9695505050505050565b6000620002618262000272565b9050919050565b6000819050919050565b600073ffffffffffffffffffffffffffffffffffffffff82169050919050565b600060ff82169050919050565b6000620002ac82620002b3565b9050919050565b6000620002c082620002c7565b9050919050565b6000620002d48262000272565b9050919050565b620002e68162000254565b8114620002f257600080fd5b50565b620003008162000268565b81146200030c57600080fd5b50565b6200031a8162000292565b81146200032657600080fd5b50565b61228680620003396000396000f3fe6080604052600436106101435760003560e01c80637a7ce65c116100b6578063a9059cbb1161006f578063a9059cbb146104d4578063bae78d7b146104fd578063c91ebea81461053d578063d0922d4a14610568578063d28fbf0a14610591578063f49b5848146105cf576101b6565b80637a7ce65c146103c45780637f0a4e27146103ef57806390f2ee221461041857806391bdfe6314610443578063981d5e7b1461046c578063a0d10c9a146104a9576101b6565b80632f2bf18e116101085780632f2bf18e146102b457806339c2ae70146102f1578063759913d61461031a57806375ab9782146103455780637615eb811461036e5780637a5b4f5914610397576101b6565b806223de29146101bb578063150b7a02146101e4578063160a79251461022157806319b9404c1461025e578063249abcf714610287576101b6565b366101b657600173__OrganLibrary__________________________633d6a19169091346040518363ffffffff1660e01b8152600401610184929190611ecc565b60006040518083038186803b15801561019c57600080fd5b505af41580156101b0573d6000803e3d6000fd5b50505050005b600080fd5b3480156101c757600080fd5b506101e260048036038101906101dd9190611416565b6105f8565b005b3480156101f057600080fd5b5061020b60048036038101906102069190611528565b610674565b6040516102189190611c7d565b60405180910390f35b34801561022d57600080fd5b506102486004803603810190610243919061134e565b6106f8565b6040516102559190611c2b565b60405180910390f35b34801561026a57600080fd5b506102856004803603810190610280919061134e565b61078d565b005b34801561029357600080fd5b5061029c6107fc565b6040516102ab93929190611bf4565b60405180910390f35b3480156102c057600080fd5b506102db60048036038101906102d6919061134e565b610839565b6040516102e89190611f56565b60405180910390f35b3480156102fd57600080fd5b5061031860048036038101906103139190611707565b610885565b005b34801561032657600080fd5b5061032f6108fa565b60405161033c9190611f71565b60405180910390f35b34801561035157600080fd5b5061036c60048036038101906103679190611416565b61090b565b005b34801561037a57600080fd5b506103956004803603810190610390919061165c565b610987565b005b3480156103a357600080fd5b506103ac6109f6565b6040516103bb93929190611c46565b60405180910390f35b3480156103d057600080fd5b506103d9610a90565b6040516103e69190611f56565b60405180910390f35b3480156103fb57600080fd5b50610416600480360381019061041191906115a3565b610b21565b005b34801561042457600080fd5b5061042d610bb4565b60405161043a9190611bd9565b60405180910390f35b34801561044f57600080fd5b5061046a600480360381019061046591906117f7565b610bc7565b005b34801561047857600080fd5b50610493600480360381019061048e919061161b565b610c42565b6040516104a09190611bb7565b60405180910390f35b3480156104b557600080fd5b506104be610cdc565b6040516104cb9190611f56565b60405180910390f35b3480156104e057600080fd5b506104fb60048036038101906104f69190611377565b610cec565b005b34801561050957600080fd5b50610524600480360381019061051f91906117a5565b610d5e565b6040516105349493929190611b72565b60405180910390f35b34801561054957600080fd5b50610552610e35565b60405161055f9190611bd9565b60405180910390f35b34801561057457600080fd5b5061058f600480360381019061058a91906114d9565b610e48565b005b34801561059d57600080fd5b506105b860048036038101906105b391906117a5565b610ebd565b6040516105c6929190611b49565b60405180910390f35b3480156105db57600080fd5b506105f660048036038101906105f191906113b3565b610f54565b005b600173__OrganLibrary__________________________63b0bd74a490918a8a8a8a6040518663ffffffff1660e01b815260040161063a959493929190611d13565b60006040518083038186803b15801561065257600080fd5b505af4158015610666573d6000803e3d6000fd5b505050505050505050505050565b6000600173__OrganLibrary__________________________638a8b325a90918787876040518563ffffffff1660e01b81526004016106b69493929190611dab565b60006040518083038186803b1580156106ce57600080fd5b505af41580156106e2573d6000803e3d6000fd5b5050505063150b7a0260e01b9050949350505050565b6000600173__OrganLibrary__________________________6320069ef89091846040518363ffffffff1660e01b8152600401610736929190611cb3565b60206040518083038186803b15801561074e57600080fd5b505af4158015610762573d6000803e3d6000fd5b505050506040513d601f19601f8201168201806040525081019061078691906116de565b9050919050565b600173__OrganLibrary__________________________633974fa339091836040518363ffffffff1660e01b81526004016107c9929190611cb3565b60006040518083038186803b1580156107e157600080fd5b505af41580156107f5573d6000803e3d6000fd5b5050505050565b60008060008060019054906101000a900460ff16600060029054906101000a900460ff1660008054906101000a900460ff16925092509250909192565b6000600160070160008373ffffffffffffffffffffffffffffffffffffffff1673ffffffffffffffffffffffffffffffffffffffff168152602001908152602001600020549050919050565b600173__OrganLibrary__________________________63f59263df90918585856040518563ffffffff1660e01b81526004016108c59493929190611e87565b60006040518083038186803b1580156108dd57600080fd5b505af41580156108f1573d6000803e3d6000fd5b50505050505050565b60008054906101000a900460ff1681565b600173__OrganLibrary__________________________631ceaa38a90918a8a8a8a6040518663ffffffff1660e01b815260040161094d959493929190611d13565b60006040518083038186803b15801561096557600080fd5b505af4158015610979573d6000803e3d6000fd5b505050505050505050505050565b600173__OrganLibrary__________________________638e15bab79091836040518363ffffffff1660e01b81526004016109c3929190611e57565b60006040518083038186803b1580156109db57600080fd5b505af41580156109ef573d6000803e3d6000fd5b5050505050565b6000806000600173__OrganLibrary__________________________63945fb43690916040518263ffffffff1660e01b8152600401610a359190611c98565b60606040518083038186803b158015610a4d57600080fd5b505af4158015610a61573d6000803e3d6000fd5b505050506040513d601f19601f82011682018060405250810190610a859190611756565b925092509250909192565b6000600173__OrganLibrary__________________________63ca42cca890916040518263ffffffff1660e01b8152600401610acc9190611c98565b60206040518083038186803b158015610ae457600080fd5b505af4158015610af8573d6000803e3d6000fd5b505050506040513d601f19601f82011682018060405250810190610b1c91906117ce565b905090565b600173__OrganLibrary__________________________6399f3d1db909184846040518463ffffffff1660e01b8152600401610b5f93929190611df0565b60206040518083038186803b158015610b7757600080fd5b505af4158015610b8b573d6000803e3d6000fd5b505050506040513d601f19601f82011682018060405250810190610baf91906117ce565b505050565b600060019054906101000a900460ff1681565b600173__OrganLibrary__________________________630ac08b49909187878787876040518763ffffffff1660e01b8152600401610c0b96959493929190611ef5565b60006040518083038186803b158015610c2357600080fd5b505af4158015610c37573d6000803e3d6000fd5b505050505050505050565b6060600173__OrganLibrary__________________________63784fced99091846040518363ffffffff1660e01b8152600401610c80929190611e27565b60006040518083038186803b158015610c9857600080fd5b505af4158015610cac573d6000803e3d6000fd5b505050506040513d6000823e3d601f19601f82011682018060405250810190610cd5919061169d565b9050919050565b6000600160030180549050905090565b600173__OrganLibrary__________________________63432787d9909184846040518463ffffffff1660e01b8152600401610d2a93929190611cdc565b60006040518083038186803b158015610d4257600080fd5b505af4158015610d56573d6000803e3d6000fd5b505050505050565b60008060008060016003018581548110610d7457fe5b906000526020600020906003020160000160009054906101000a900473ffffffffffffffffffffffffffffffffffffffff1660016003018681548110610db657fe5b90600052602060002090600302016001015460016003018781548110610dd857fe5b906000526020600020906003020160020160009054906101000a900460ff1660016003018881548110610e0757fe5b906000526020600020906003020160020160019054906101000a900460ff1693509350935093509193509193565b600060029054906101000a900460ff1681565b600173__OrganLibrary__________________________63f8c99c3690918585856040518563ffffffff1660e01b8152600401610e889493929190611d66565b60006040518083038186803b158015610ea057600080fd5b505af4158015610eb4573d6000803e3d6000fd5b50505050505050565b600080600173__OrganLibrary__________________________63863e5d169091856040518363ffffffff1660e01b8152600401610efc929190611ecc565b604080518083038186803b158015610f1357600080fd5b505af4158015610f27573d6000803e3d6000fd5b505050506040513d601f19601f82011682018060405250810190610f4b91906115df565b91509150915091565b600173__OrganLibrary__________________________631ceaa38a9091868686866040518663ffffffff1660e01b8152600401610f96959493929190611d13565b60006040518083038186803b158015610fae57600080fd5b505af4158015610fc2573d6000803e3d6000fd5b5050505050505050565b600081359050610fdb816121c6565b92915050565b600081519050610ff0816121c6565b92915050565b600081359050611005816121dd565b92915050565b600082601f83011261101c57600080fd5b813561102f61102a82611fb9565b611f8c565b9150818183526020840193506020810190508385608084028201111561105457600080fd5b60005b83811015611084578161106a8882611286565b845260208401935060808301925050600181019050611057565b5050505092915050565b600082601f83011261109f57600080fd5b81356110b26110ad82611fe1565b611f8c565b915081818352602084019350602081019050838560208402820111156110d757600080fd5b60005b8381101561110757816110ed88826112fa565b8452602084019350602083019250506001810190506110da565b5050505092915050565b600082601f83011261112257600080fd5b815161113561113082611fe1565b611f8c565b9150818183526020840193506020810190508385602084028201111561115a57600080fd5b60005b8381101561118a5781611170888261130f565b84526020840193506020830192505060018101905061115d565b5050505092915050565b6000813590506111a3816121f4565b92915050565b6000815190506111b8816121f4565b92915050565b6000813590506111cd8161220b565b92915050565b6000815190506111e28161220b565b92915050565b60008083601f8401126111fa57600080fd5b8235905067ffffffffffffffff81111561121357600080fd5b60208301915083600182028301111561122b57600080fd5b9250929050565b600082601f83011261124357600080fd5b813561125661125182612009565b611f8c565b9150808252602083016020830185838301111561127257600080fd5b61127d8382846121b7565b50505092915050565b60006080828403121561129857600080fd5b6112a26080611f8c565b905060006112b284828501610fcc565b60008301525060206112c6848285016111be565b60208301525060406112da84828501611324565b60408301525060606112ee84828501611324565b60608301525092915050565b60008135905061130981612222565b92915050565b60008151905061131e81612222565b92915050565b60008135905061133381612239565b92915050565b60008151905061134881612239565b92915050565b60006020828403121561136057600080fd5b600061136e84828501610fcc565b91505092915050565b6000806040838503121561138a57600080fd5b600061139885828601610ff6565b92505060206113a9858286016112fa565b9150509250929050565b600080600080608085870312156113c957600080fd5b60006113d787828801610fcc565b94505060206113e887828801610fcc565b93505060406113f987828801610fcc565b925050606061140a878288016112fa565b91505092959194509250565b60008060008060008060008060c0898b03121561143257600080fd5b60006114408b828c01610fcc565b98505060206114518b828c01610fcc565b97505060406114628b828c01610fcc565b96505060606114738b828c016112fa565b955050608089013567ffffffffffffffff81111561149057600080fd5b61149c8b828c016111e8565b945094505060a089013567ffffffffffffffff8111156114bb57600080fd5b6114c78b828c016111e8565b92509250509295985092959890939650565b6000806000606084860312156114ee57600080fd5b60006114fc86828701610fcc565b935050602061150d86828701610fcc565b925050604061151e86828701611194565b9150509250925092565b6000806000806080858703121561153e57600080fd5b600061154c87828801610fcc565b945050602061155d87828801610fcc565b935050604061156e878288016112fa565b925050606085013567ffffffffffffffff81111561158b57600080fd5b61159787828801611232565b91505092959194509250565b600080604083850312156115b657600080fd5b60006115c485828601610fcc565b92505060206115d585828601611194565b9150509250929050565b600080604083850312156115f257600080fd5b600061160085828601610fe1565b9250506020611611858286016111a9565b9150509250929050565b60006020828403121561162d57600080fd5b600082013567ffffffffffffffff81111561164757600080fd5b6116538482850161100b565b91505092915050565b60006020828403121561166e57600080fd5b600082013567ffffffffffffffff81111561168857600080fd5b6116948482850161108e565b91505092915050565b6000602082840312156116af57600080fd5b600082015167ffffffffffffffff8111156116c957600080fd5b6116d584828501611111565b91505092915050565b6000602082840312156116f057600080fd5b60006116fe848285016111a9565b91505092915050565b60008060006060848603121561171c57600080fd5b600061172a868287016111be565b935050602061173b86828701611324565b925050604061174c86828701611324565b9150509250925092565b60008060006060848603121561176b57600080fd5b6000611779868287016111d3565b935050602061178a86828701611339565b925050604061179b86828701611339565b9150509250925092565b6000602082840312156117b757600080fd5b60006117c5848285016112fa565b91505092915050565b6000602082840312156117e057600080fd5b60006117ee8482850161130f565b91505092915050565b600080600080600060a0868803121561180f57600080fd5b600061181d888289016112fa565b955050602061182e88828901610ff6565b945050604061183f888289016111be565b935050606061185088828901611324565b925050608061186188828901611324565b9150509295509295909350565b600061187a8383611a84565b60808301905092915050565b60006118928383611ae0565b60208301905092915050565b60006118aa8383611b0d565b60208301905092915050565b6118bf81612181565b82525050565b6118ce816120ca565b82525050565b6118dd816120b8565b82525050565b6118ec816120b8565b82525050565b6118fb816120b8565b82525050565b600061190c82612055565b6119168185612085565b935061192183612035565b8060005b83811015611952578151611939888261186e565b97506119448361206b565b925050600181019050611925565b5085935050505092915050565b600061196a82612060565b6119748185612096565b935061197f83612045565b8060005b838110156119b05781516119978882611886565b97506119a283612078565b925050600181019050611983565b5085935050505092915050565b60006119c882612060565b6119d281856120a7565b93506119dd83612045565b8060005b83811015611a0e5781516119f5888261189e565b9750611a0083612078565b9250506001810190506119e1565b5085935050505092915050565b611a24816120dc565b82525050565b611a33816120e8565b82525050565b611a42816120e8565b82525050565b611a5181612114565b82525050565b611a6081612114565b82525050565b611a6f81612114565b82525050565b611a7e8161211e565b82525050565b608082016000820151611a9a60008501826118f2565b506020820151611aad6020850182611a66565b506040820151611ac06040850182611b3a565b506060820151611ad36060850182611b3a565b50505050565b8082525050565b611ae98161216a565b82525050565b611af88161216a565b82525050565b611b078161216a565b82525050565b611b168161216a565b82525050565b611b2581612174565b82525050565b611b3481612174565b82525050565b611b4381612174565b82525050565b6000604082019050611b5e60008301856118d4565b611b6b6020830184611a2a565b9392505050565b6000608082019050611b8760008301876118d4565b611b946020830186611a48565b611ba16040830185611b1c565b611bae6060830184611b1c565b95945050505050565b60006020820190508181036000830152611bd1818461195f565b905092915050565b6000602082019050611bee6000830184611a1b565b92915050565b6000606082019050611c096000830186611a1b565b611c166020830185611a1b565b611c236040830184611b1c565b949350505050565b6000602082019050611c406000830184611a2a565b92915050565b6000606082019050611c5b6000830186611a48565b611c686020830185611b1c565b611c756040830184611b1c565b949350505050565b6000602082019050611c926000830184611a75565b92915050565b6000602082019050611cad6000830184611ad9565b92915050565b6000604082019050611cc86000830185611ad9565b611cd560208301846118e3565b9392505050565b6000606082019050611cf16000830186611ad9565b611cfe60208301856118c5565b611d0b6040830184611afe565b949350505050565b600060a082019050611d286000830188611ad9565b611d3560208301876118e3565b611d4260408301866118e3565b611d4f60608301856118e3565b611d5c6080830184611afe565b9695505050505050565b6000608082019050611d7b6000830187611ad9565b611d8860208301866118e3565b611d9560408301856118e3565b611da26060830184611a39565b95945050505050565b6000608082019050611dc06000830187611ad9565b611dcd60208301866118e3565b611dda60408301856118e3565b611de76060830184611afe565b95945050505050565b6000606082019050611e056000830186611ad9565b611e1260208301856118e3565b611e1f6040830184611a39565b949350505050565b6000604082019050611e3c6000830185611ad9565b8181036020830152611e4e8184611901565b90509392505050565b6000604082019050611e6c6000830185611ad9565b8181036020830152611e7e81846119bd565b90509392505050565b6000608082019050611e9c6000830187611ad9565b611ea96020830186611a57565b611eb66040830185611b2b565b611ec36060830184611b2b565b95945050505050565b6000604082019050611ee16000830185611ad9565b611eee6020830184611afe565b9392505050565b600060c082019050611f0a6000830189611ad9565b611f176020830188611afe565b611f2460408301876118b6565b611f316060830186611a57565b611f3e6080830185611b2b565b611f4b60a0830184611b2b565b979650505050505050565b6000602082019050611f6b6000830184611aef565b92915050565b6000602082019050611f866000830184611b1c565b92915050565b6000604051905081810181811067ffffffffffffffff82111715611faf57600080fd5b8060405250919050565b600067ffffffffffffffff821115611fd057600080fd5b602082029050602081019050919050565b600067ffffffffffffffff821115611ff857600080fd5b602082029050602081019050919050565b600067ffffffffffffffff82111561202057600080fd5b601f19601f8301169050602081019050919050565b6000819050602082019050919050565b6000819050602082019050919050565b600081519050919050565b600081519050919050565b6000602082019050919050565b6000602082019050919050565b600082825260208201905092915050565b600082825260208201905092915050565b600082825260208201905092915050565b60006120c38261214a565b9050919050565b60006120d58261214a565b9050919050565b60008115159050919050565b60007fffff00000000000000000000000000000000000000000000000000000000000082169050919050565b6000819050919050565b60007fffffffff0000000000000000000000000000000000000000000000000000000082169050919050565b600073ffffffffffffffffffffffffffffffffffffffff82169050919050565b6000819050919050565b600060ff82169050919050565b600061218c82612193565b9050919050565b600061219e826121a5565b9050919050565b60006121b08261214a565b9050919050565b82818337600083830152505050565b6121cf816120b8565b81146121da57600080fd5b50565b6121e6816120ca565b81146121f157600080fd5b50565b6121fd816120e8565b811461220857600080fd5b50565b61221481612114565b811461221f57600080fd5b50565b61222b8161216a565b811461223657600080fd5b50565b61224281612174565b811461224d57600080fd5b5056fea2646970667358221220fbeaa6cdf70c43e932b84c13ac804fb20c040aa0770f371cba76b7ff991f1c7c64736f6c634300060c0033",
  "immutableReferences": {},
  "source": "// SPDX-License-Identifier: LGPL-3.0-or-later\npragma solidity ^0.6.0;\npragma experimental ABIEncoderV2;\n\nimport \"./Kelsen.sol\";\nimport \"./libraries/OrganLibrary.sol\";\nimport \"@openzeppelin/contracts/token/ERC777/IERC777Recipient.sol\";\nimport \"@openzeppelin/contracts/token/ERC777/IERC777Sender.sol\";\nimport \"@openzeppelin/contracts/token/ERC721/IERC721Receiver.sol\";\n\n/**\n    An organ contains a list of entries and a set of procedures.\n    A procedure is a contract that can effect changes on organs.\n    An entry can be a document and/or an address (a wallet or a contract).\n*/\n\ncontract Organ is\n    Kelsen(true, false),\n    IERC777Recipient,\n    IERC777Sender,\n    IERC721Receiver\n{\n    using OrganLibrary for OrganLibrary.OrganData;\n    using OrganLibrary for OrganLibrary.Entry;\n\n    OrganLibrary.OrganData internal organData;\n\n    /**\n        Organ API.\n    */\n\n    constructor(\n        address payable admin,\n        bytes32 metadataIpfsHash,\n        uint8 metadataHashFunction,\n        uint8 metadataHashSize\n    ) public {\n        organData.init(\n            admin,\n            metadataIpfsHash,\n            metadataHashFunction,\n            metadataHashSize\n        );\n    }\n\n    // Assets.\n\n    receive() external payable {\n        organData.receiveEther(msg.value);\n    }\n\n    // @TODO : Protect ether transfers against re-entrancy attacks.\n    function transfer(address payable to, uint256 value) public {\n        organData.transferEther(to, value);\n    }\n\n    // Implementing ERC-777 receiver interface.\n    function tokensReceived(\n        address operator,\n        address from,\n        address to,\n        uint256 amount,\n        bytes calldata, /*data*/\n        bytes calldata /*operatorData*/\n    ) external override {\n        organData.receiveCoins(operator, from, to, amount);\n    }\n\n    function tokensToSend(\n        address operator,\n        address from,\n        address to,\n        uint256 amount,\n        bytes calldata, /*userData*/\n        bytes calldata /*operatorData*/\n    ) external override {\n        organData.transferCoins(operator, from, to, amount);\n    }\n\n    function transferCoins(\n        address operator,\n        address from,\n        address to,\n        uint256 amount\n    ) external {\n        organData.transferCoins(operator, from, to, amount);\n    }\n\n    // Implementing ERC-721 receiver interface.\n    function onERC721Received(\n        address operator,\n        address from,\n        uint256 tokenId,\n        bytes memory /*data*/\n    ) public override returns (bytes4) {\n        organData.receiveCollectible(operator, from, tokenId);\n        return this.onERC721Received.selector;\n    }\n\n    function updateMetadata(\n        bytes32 ipfsHash,\n        uint8 hashFunction,\n        uint8 hashSize\n    ) public {\n        organData.updateMetadata(ipfsHash, hashFunction, hashSize);\n    }\n\n    /*\n        API for Procedure contract.\n    */\n\n    function addEntries(OrganLibrary.Entry[] memory entries)\n        public\n        returns (uint256[] memory indexes)\n    {\n        return organData.addEntries(entries);\n    }\n\n    function removeEntries(uint256[] memory indexes) public {\n        organData.removeEntries(indexes);\n    }\n\n    function replaceEntry(\n        uint256 index,\n        address payable addr,\n        bytes32 ipfsHash,\n        uint8 hashFunction,\n        uint8 hashSize\n    ) public {\n        organData.replaceEntry(index, addr, ipfsHash, hashFunction, hashSize);\n    }\n\n    // @TODO : Should be plural.\n    function addProcedure(address procedure, bytes2 permissions) public {\n        organData.addProcedure(procedure, permissions);\n    }\n\n    // @TODO : Should be plural.\n    function removeProcedure(address procedure) public {\n        organData.removeProcedure(procedure);\n    }\n\n    function replaceProcedure(\n        address oldProcedure,\n        address newProcedure,\n        bytes2 permissions\n    ) public {\n        organData.replaceProcedure(oldProcedure, newProcedure, permissions);\n    }\n\n    /*\n        Accessors.\n    */\n\n    function getEntriesLength() public view returns (uint256 length) {\n        return organData.entries.length;\n    }\n\n    function getEntryIndexForAddress(address addr)\n        public\n        view\n        returns (uint256 index)\n    {\n        return organData.addressIndexInEntries[addr];\n    }\n\n    function getEntry(uint256 index)\n        public\n        view\n        returns (\n            address addr,\n            bytes32 ipfsHash,\n            uint8 hashFunction,\n            uint8 hashSize\n        )\n    {\n        return (\n            organData.entries[index].addr,\n            organData.entries[index].ipfsHash,\n            organData.entries[index].hashFunction,\n            organData.entries[index].hashSize\n        );\n    }\n\n    function getProceduresLength() public view returns (uint256 length) {\n        return organData.getProceduresLength();\n    }\n\n    function getProcedure(uint256 index)\n        public\n        view\n        returns (address procedure, bytes2 permissions)\n    {\n        return organData.getProcedure(index);\n    }\n\n    function getPermissions(address procedure)\n        public\n        view\n        returns (bytes2 permissions)\n    {\n        return organData.getPermissions(procedure);\n    }\n\n    function getMetadata()\n        public\n        view\n        returns (\n            bytes32 ipfsHash,\n            uint8 hashFunction,\n            uint8 hashSize\n        )\n    {\n        return organData.getMetadata();\n    }\n}\n",
  "sourcePath": "/Users/alex/Code/organigr.am/packages/@organigram/contracts/contracts/Organ.sol",
  "compiler": {
    "name": "solc",
    "version": "0.6.12+commit.27d51765.Emscripten.clang"
  },
  "schemaVersion": "3.3.2",
  "updatedAt": "2020-12-01T19:24:05.586Z",
  "networkType": "ethereum",
  "devdoc": {
    "kind": "dev",
    "methods": {},
    "version": 1
  },
  "userdoc": {
    "kind": "user",
    "methods": {
      "constructor": "Organ API."
    },
    "notice": "An organ contains a list of entries and a set of procedures. A procedure is a contract that can effect changes on organs. An entry can be a document and/or an address (a wallet or a contract).",
    "version": 1
  }
}