{
  "contractName": "Organ",
  "abi": [
    {
      "inputs": [
        {
          "internalType": "address payable",
          "name": "admin",
          "type": "address"
        },
        {
          "internalType": "bytes32",
          "name": "metadataIpfsHash",
          "type": "bytes32"
        },
        {
          "internalType": "uint8",
          "name": "metadataHashFunction",
          "type": "uint8"
        },
        {
          "internalType": "uint8",
          "name": "metadataHashSize",
          "type": "uint8"
        }
      ],
      "stateMutability": "nonpayable",
      "type": "constructor"
    },
    {
      "inputs": [
        {
          "internalType": "bytes4",
          "name": "interfaceId",
          "type": "bytes4"
        }
      ],
      "name": "supportsInterface",
      "outputs": [
        {
          "internalType": "bool",
          "name": "",
          "type": "bool"
        }
      ],
      "stateMutability": "view",
      "type": "function",
      "constant": true
    },
    {
      "stateMutability": "payable",
      "type": "receive",
      "payable": true
    },
    {
      "inputs": [
        {
          "internalType": "address payable",
          "name": "to",
          "type": "address"
        },
        {
          "internalType": "uint256",
          "name": "value",
          "type": "uint256"
        }
      ],
      "name": "transfer",
      "outputs": [],
      "stateMutability": "nonpayable",
      "type": "function"
    },
    {
      "inputs": [
        {
          "internalType": "address",
          "name": "operator",
          "type": "address"
        },
        {
          "internalType": "address",
          "name": "from",
          "type": "address"
        },
        {
          "internalType": "address",
          "name": "to",
          "type": "address"
        },
        {
          "internalType": "uint256",
          "name": "amount",
          "type": "uint256"
        },
        {
          "internalType": "bytes",
          "name": "",
          "type": "bytes"
        },
        {
          "internalType": "bytes",
          "name": "",
          "type": "bytes"
        }
      ],
      "name": "tokensReceived",
      "outputs": [],
      "stateMutability": "nonpayable",
      "type": "function"
    },
    {
      "inputs": [
        {
          "internalType": "address",
          "name": "operator",
          "type": "address"
        },
        {
          "internalType": "address",
          "name": "from",
          "type": "address"
        },
        {
          "internalType": "address",
          "name": "to",
          "type": "address"
        },
        {
          "internalType": "uint256",
          "name": "amount",
          "type": "uint256"
        },
        {
          "internalType": "bytes",
          "name": "",
          "type": "bytes"
        },
        {
          "internalType": "bytes",
          "name": "",
          "type": "bytes"
        }
      ],
      "name": "tokensToSend",
      "outputs": [],
      "stateMutability": "nonpayable",
      "type": "function"
    },
    {
      "inputs": [
        {
          "internalType": "address",
          "name": "operator",
          "type": "address"
        },
        {
          "internalType": "address",
          "name": "from",
          "type": "address"
        },
        {
          "internalType": "address",
          "name": "to",
          "type": "address"
        },
        {
          "internalType": "uint256",
          "name": "amount",
          "type": "uint256"
        }
      ],
      "name": "transferCoins",
      "outputs": [],
      "stateMutability": "nonpayable",
      "type": "function"
    },
    {
      "inputs": [
        {
          "internalType": "address",
          "name": "operator",
          "type": "address"
        },
        {
          "internalType": "address",
          "name": "from",
          "type": "address"
        },
        {
          "internalType": "uint256",
          "name": "tokenId",
          "type": "uint256"
        },
        {
          "internalType": "bytes",
          "name": "",
          "type": "bytes"
        }
      ],
      "name": "onERC721Received",
      "outputs": [
        {
          "internalType": "bytes4",
          "name": "",
          "type": "bytes4"
        }
      ],
      "stateMutability": "nonpayable",
      "type": "function"
    },
    {
      "inputs": [
        {
          "internalType": "bytes32",
          "name": "ipfsHash",
          "type": "bytes32"
        },
        {
          "internalType": "uint8",
          "name": "hashFunction",
          "type": "uint8"
        },
        {
          "internalType": "uint8",
          "name": "hashSize",
          "type": "uint8"
        }
      ],
      "name": "updateMetadata",
      "outputs": [],
      "stateMutability": "nonpayable",
      "type": "function"
    },
    {
      "inputs": [
        {
          "components": [
            {
              "internalType": "address",
              "name": "addr",
              "type": "address"
            },
            {
              "internalType": "bytes32",
              "name": "ipfsHash",
              "type": "bytes32"
            },
            {
              "internalType": "uint8",
              "name": "hashFunction",
              "type": "uint8"
            },
            {
              "internalType": "uint8",
              "name": "hashSize",
              "type": "uint8"
            }
          ],
          "internalType": "struct OrganLibrary.Entry[]",
          "name": "entries",
          "type": "tuple[]"
        }
      ],
      "name": "addEntries",
      "outputs": [
        {
          "internalType": "uint256[]",
          "name": "indexes",
          "type": "uint256[]"
        }
      ],
      "stateMutability": "nonpayable",
      "type": "function"
    },
    {
      "inputs": [
        {
          "internalType": "uint256[]",
          "name": "indexes",
          "type": "uint256[]"
        }
      ],
      "name": "removeEntries",
      "outputs": [],
      "stateMutability": "nonpayable",
      "type": "function"
    },
    {
      "inputs": [
        {
          "internalType": "uint256",
          "name": "index",
          "type": "uint256"
        },
        {
          "internalType": "address payable",
          "name": "addr",
          "type": "address"
        },
        {
          "internalType": "bytes32",
          "name": "ipfsHash",
          "type": "bytes32"
        },
        {
          "internalType": "uint8",
          "name": "hashFunction",
          "type": "uint8"
        },
        {
          "internalType": "uint8",
          "name": "hashSize",
          "type": "uint8"
        }
      ],
      "name": "replaceEntry",
      "outputs": [],
      "stateMutability": "nonpayable",
      "type": "function"
    },
    {
      "inputs": [
        {
          "internalType": "address",
          "name": "procedure",
          "type": "address"
        },
        {
          "internalType": "bytes2",
          "name": "permissions",
          "type": "bytes2"
        }
      ],
      "name": "addProcedure",
      "outputs": [],
      "stateMutability": "nonpayable",
      "type": "function"
    },
    {
      "inputs": [
        {
          "internalType": "address",
          "name": "procedure",
          "type": "address"
        }
      ],
      "name": "removeProcedure",
      "outputs": [],
      "stateMutability": "nonpayable",
      "type": "function"
    },
    {
      "inputs": [
        {
          "internalType": "address",
          "name": "oldProcedure",
          "type": "address"
        },
        {
          "internalType": "address",
          "name": "newProcedure",
          "type": "address"
        },
        {
          "internalType": "bytes2",
          "name": "permissions",
          "type": "bytes2"
        }
      ],
      "name": "replaceProcedure",
      "outputs": [],
      "stateMutability": "nonpayable",
      "type": "function"
    },
    {
      "inputs": [],
      "name": "getEntriesLength",
      "outputs": [
        {
          "internalType": "uint256",
          "name": "length",
          "type": "uint256"
        }
      ],
      "stateMutability": "view",
      "type": "function",
      "constant": true
    },
    {
      "inputs": [
        {
          "internalType": "address",
          "name": "addr",
          "type": "address"
        }
      ],
      "name": "getEntryIndexForAddress",
      "outputs": [
        {
          "internalType": "uint256",
          "name": "index",
          "type": "uint256"
        }
      ],
      "stateMutability": "view",
      "type": "function",
      "constant": true
    },
    {
      "inputs": [
        {
          "internalType": "uint256",
          "name": "index",
          "type": "uint256"
        }
      ],
      "name": "getEntry",
      "outputs": [
        {
          "internalType": "address",
          "name": "addr",
          "type": "address"
        },
        {
          "internalType": "bytes32",
          "name": "ipfsHash",
          "type": "bytes32"
        },
        {
          "internalType": "uint8",
          "name": "hashFunction",
          "type": "uint8"
        },
        {
          "internalType": "uint8",
          "name": "hashSize",
          "type": "uint8"
        }
      ],
      "stateMutability": "view",
      "type": "function",
      "constant": true
    },
    {
      "inputs": [],
      "name": "getProceduresLength",
      "outputs": [
        {
          "internalType": "uint256",
          "name": "length",
          "type": "uint256"
        }
      ],
      "stateMutability": "view",
      "type": "function",
      "constant": true
    },
    {
      "inputs": [
        {
          "internalType": "uint256",
          "name": "index",
          "type": "uint256"
        }
      ],
      "name": "getProcedure",
      "outputs": [
        {
          "internalType": "address",
          "name": "procedure",
          "type": "address"
        },
        {
          "internalType": "bytes2",
          "name": "permissions",
          "type": "bytes2"
        }
      ],
      "stateMutability": "view",
      "type": "function",
      "constant": true
    },
    {
      "inputs": [
        {
          "internalType": "address",
          "name": "procedure",
          "type": "address"
        }
      ],
      "name": "getPermissions",
      "outputs": [
        {
          "internalType": "bytes2",
          "name": "permissions",
          "type": "bytes2"
        }
      ],
      "stateMutability": "view",
      "type": "function",
      "constant": true
    },
    {
      "inputs": [],
      "name": "getMetadata",
      "outputs": [
        {
          "internalType": "bytes32",
          "name": "ipfsHash",
          "type": "bytes32"
        },
        {
          "internalType": "uint8",
          "name": "hashFunction",
          "type": "uint8"
        },
        {
          "internalType": "uint8",
          "name": "hashSize",
          "type": "uint8"
        }
      ],
      "stateMutability": "view",
      "type": "function",
      "constant": true
    }
  ],
  "bytecode": "0x60806040523480156200001157600080fd5b506040516200264b3803806200264b833981810160405281019062000037919062000204565b6200004f6301ffc9a760e01b620000e760201b60201c565b6200006763bae78d7b60e01b620000e760201b60201c565b600173__OrganLibrary__________________________6374771eb49091868686866040518663ffffffff1660e01b8152600401620000ab9594939291906200030e565b60006040518083038186803b158015620000c457600080fd5b505af4158015620000d9573d6000803e3d6000fd5b505050505050505062000451565b63ffffffff60e01b817bffffffffffffffffffffffffffffffffffffffffffffffffffffffff1916141562000153576040517f08c379a00000000000000000000000000000000000000000000000000000000081526004016200014a90620002ec565b60405180910390fd5b6001600080837bffffffffffffffffffffffffffffffffffffffffffffffffffffffff19167bffffffffffffffffffffffffffffffffffffffffffffffffffffffff1916815260200190815260200160002060006101000a81548160ff02191690831515021790555050565b600081519050620001d08162000403565b92915050565b600081519050620001e7816200041d565b92915050565b600081519050620001fe8162000437565b92915050565b600080600080608085870312156200021b57600080fd5b60006200022b87828801620001bf565b94505060206200023e87828801620001d6565b93505060406200025187828801620001ed565b92505060606200026487828801620001ed565b91505092959194509250565b6200027b81620003c7565b82525050565b6200028c8162000390565b82525050565b6000620002a1601c836200036b565b91507f4552433136353a20696e76616c696420696e74657266616365206964000000006000830152602082019050919050565b8082525050565b620002e681620003ba565b82525050565b60006020820190508181036000830152620003078162000292565b9050919050565b600060a082019050620003256000830188620002d4565b62000334602083018762000270565b62000343604083018662000281565b620003526060830185620002db565b620003616080830184620002db565b9695505050505050565b600082825260208201905092915050565b600062000389826200039a565b9050919050565b6000819050919050565b600073ffffffffffffffffffffffffffffffffffffffff82169050919050565b600060ff82169050919050565b6000620003d482620003db565b9050919050565b6000620003e882620003ef565b9050919050565b6000620003fc826200039a565b9050919050565b6200040e816200037c565b81146200041a57600080fd5b50565b620004288162000390565b81146200043457600080fd5b50565b6200044281620003ba565b81146200044e57600080fd5b50565b6121ea80620004616000396000f3fe6080604052600436106101225760003560e01c80637a7ce65c116100a0578063a9059cbb11610064578063a9059cbb1461046d578063bae78d7b14610496578063d0922d4a146104d6578063d28fbf0a146104ff578063f49b58481461053d57610195565b80637a7ce65c146103885780637f0a4e27146103b357806391bdfe63146103dc578063981d5e7b14610405578063a0d10c9a1461044257610195565b80632f2bf18e116100e75780632f2bf18e146102a357806339c2ae70146102e057806375ab9782146103095780637615eb81146103325780637a5b4f591461035b57610195565b806223de291461019a57806301ffc9a7146101c3578063150b7a0214610200578063160a79251461023d57806319b9404c1461027a57610195565b3661019557600173__OrganLibrary__________________________633d6a19169091346040518363ffffffff1660e01b8152600401610163929190611e34565b60006040518083038186803b15801561017b57600080fd5b505af415801561018f573d6000803e3d6000fd5b50505050005b600080fd5b3480156101a657600080fd5b506101c160048036038101906101bc919061138c565b610566565b005b3480156101cf57600080fd5b506101ea60048036038101906101e5919061171b565b6105e2565b6040516101f79190611b78565b60405180910390f35b34801561020c57600080fd5b506102276004803603810190610222919061149e565b610649565b6040516102349190611be5565b60405180910390f35b34801561024957600080fd5b50610264600480360381019061025f91906112c4565b6106cd565b6040516102719190611b93565b60405180910390f35b34801561028657600080fd5b506102a1600480360381019061029c91906112c4565b610762565b005b3480156102af57600080fd5b506102ca60048036038101906102c591906112c4565b6107d1565b6040516102d79190611ebe565b60405180910390f35b3480156102ec57600080fd5b506103076004803603810190610302919061167d565b61081d565b005b34801561031557600080fd5b50610330600480360381019061032b919061138c565b610892565b005b34801561033e57600080fd5b50610359600480360381019061035491906115d2565b61090e565b005b34801561036757600080fd5b5061037061097d565b60405161037f93929190611bae565b60405180910390f35b34801561039457600080fd5b5061039d610a17565b6040516103aa9190611ebe565b60405180910390f35b3480156103bf57600080fd5b506103da60048036038101906103d59190611519565b610aa8565b005b3480156103e857600080fd5b5061040360048036038101906103fe9190611796565b610b3b565b005b34801561041157600080fd5b5061042c60048036038101906104279190611591565b610bb6565b6040516104399190611b56565b60405180910390f35b34801561044e57600080fd5b50610457610c50565b6040516104649190611ebe565b60405180910390f35b34801561047957600080fd5b50610494600480360381019061048f91906112ed565b610c60565b005b3480156104a257600080fd5b506104bd60048036038101906104b89190611744565b610cd2565b6040516104cd9493929190611b11565b60405180910390f35b3480156104e257600080fd5b506104fd60048036038101906104f8919061144f565b610da9565b005b34801561050b57600080fd5b5061052660048036038101906105219190611744565b610e1e565b604051610534929190611ae8565b60405180910390f35b34801561054957600080fd5b50610564600480360381019061055f9190611329565b610eb5565b005b600173__OrganLibrary__________________________63b0bd74a490918a8a8a8a6040518663ffffffff1660e01b81526004016105a8959493929190611c7b565b60006040518083038186803b1580156105c057600080fd5b505af41580156105d4573d6000803e3d6000fd5b505050505050505050505050565b6000806000837bffffffffffffffffffffffffffffffffffffffffffffffffffffffff19167bffffffffffffffffffffffffffffffffffffffffffffffffffffffff1916815260200190815260200160002060009054906101000a900460ff169050919050565b6000600173__OrganLibrary__________________________638a8b325a90918787876040518563ffffffff1660e01b815260040161068b9493929190611d13565b60006040518083038186803b1580156106a357600080fd5b505af41580156106b7573d6000803e3d6000fd5b5050505063150b7a0260e01b9050949350505050565b6000600173__OrganLibrary__________________________6320069ef89091846040518363ffffffff1660e01b815260040161070b929190611c1b565b60206040518083038186803b15801561072357600080fd5b505af4158015610737573d6000803e3d6000fd5b505050506040513d601f19601f8201168201806040525081019061075b9190611654565b9050919050565b600173__OrganLibrary__________________________633974fa339091836040518363ffffffff1660e01b815260040161079e929190611c1b565b60006040518083038186803b1580156107b657600080fd5b505af41580156107ca573d6000803e3d6000fd5b5050505050565b6000600160070160008373ffffffffffffffffffffffffffffffffffffffff1673ffffffffffffffffffffffffffffffffffffffff168152602001908152602001600020549050919050565b600173__OrganLibrary__________________________63f59263df90918585856040518563ffffffff1660e01b815260040161085d9493929190611def565b60006040518083038186803b15801561087557600080fd5b505af4158015610889573d6000803e3d6000fd5b50505050505050565b600173__OrganLibrary__________________________631ceaa38a90918a8a8a8a6040518663ffffffff1660e01b81526004016108d4959493929190611c7b565b60006040518083038186803b1580156108ec57600080fd5b505af4158015610900573d6000803e3d6000fd5b505050505050505050505050565b600173__OrganLibrary__________________________638e15bab79091836040518363ffffffff1660e01b815260040161094a929190611dbf565b60006040518083038186803b15801561096257600080fd5b505af4158015610976573d6000803e3d6000fd5b5050505050565b6000806000600173__OrganLibrary__________________________63945fb43690916040518263ffffffff1660e01b81526004016109bc9190611c00565b60606040518083038186803b1580156109d457600080fd5b505af41580156109e8573d6000803e3d6000fd5b505050506040513d601f19601f82011682018060405250810190610a0c91906116cc565b925092509250909192565b6000600173__OrganLibrary__________________________63ca42cca890916040518263ffffffff1660e01b8152600401610a539190611c00565b60206040518083038186803b158015610a6b57600080fd5b505af4158015610a7f573d6000803e3d6000fd5b505050506040513d601f19601f82011682018060405250810190610aa3919061176d565b905090565b600173__OrganLibrary__________________________6399f3d1db909184846040518463ffffffff1660e01b8152600401610ae693929190611d58565b60206040518083038186803b158015610afe57600080fd5b505af4158015610b12573d6000803e3d6000fd5b505050506040513d601f19601f82011682018060405250810190610b36919061176d565b505050565b600173__OrganLibrary__________________________630ac08b49909187878787876040518763ffffffff1660e01b8152600401610b7f96959493929190611e5d565b60006040518083038186803b158015610b9757600080fd5b505af4158015610bab573d6000803e3d6000fd5b505050505050505050565b6060600173__OrganLibrary__________________________63784fced99091846040518363ffffffff1660e01b8152600401610bf4929190611d8f565b60006040518083038186803b158015610c0c57600080fd5b505af4158015610c20573d6000803e3d6000fd5b505050506040513d6000823e3d601f19601f82011682018060405250810190610c499190611613565b9050919050565b6000600160030180549050905090565b600173__OrganLibrary__________________________63432787d9909184846040518463ffffffff1660e01b8152600401610c9e93929190611c44565b60006040518083038186803b158015610cb657600080fd5b505af4158015610cca573d6000803e3d6000fd5b505050505050565b60008060008060016003018581548110610ce857fe5b906000526020600020906003020160000160009054906101000a900473ffffffffffffffffffffffffffffffffffffffff1660016003018681548110610d2a57fe5b90600052602060002090600302016001015460016003018781548110610d4c57fe5b906000526020600020906003020160020160009054906101000a900460ff1660016003018881548110610d7b57fe5b906000526020600020906003020160020160019054906101000a900460ff1693509350935093509193509193565b600173__OrganLibrary__________________________63f8c99c3690918585856040518563ffffffff1660e01b8152600401610de99493929190611cce565b60006040518083038186803b158015610e0157600080fd5b505af4158015610e15573d6000803e3d6000fd5b50505050505050565b600080600173__OrganLibrary__________________________63863e5d169091856040518363ffffffff1660e01b8152600401610e5d929190611e34565b604080518083038186803b158015610e7457600080fd5b505af4158015610e88573d6000803e3d6000fd5b505050506040513d601f19601f82011682018060405250810190610eac9190611555565b91509150915091565b600173__OrganLibrary__________________________631ceaa38a9091868686866040518663ffffffff1660e01b8152600401610ef7959493929190611c7b565b60006040518083038186803b158015610f0f57600080fd5b505af4158015610f23573d6000803e3d6000fd5b5050505050505050565b600081359050610f3c81612113565b92915050565b600081519050610f5181612113565b92915050565b600081359050610f668161212a565b92915050565b600082601f830112610f7d57600080fd5b8135610f90610f8b82611f06565b611ed9565b91508181835260208401935060208101905083856080840282011115610fb557600080fd5b60005b83811015610fe55781610fcb88826111fc565b845260208401935060808301925050600181019050610fb8565b5050505092915050565b600082601f83011261100057600080fd5b813561101361100e82611f2e565b611ed9565b9150818183526020840193506020810190508385602084028201111561103857600080fd5b60005b83811015611068578161104e8882611270565b84526020840193506020830192505060018101905061103b565b5050505092915050565b600082601f83011261108357600080fd5b815161109661109182611f2e565b611ed9565b915081818352602084019350602081019050838560208402820111156110bb57600080fd5b60005b838110156110eb57816110d18882611285565b8452602084019350602083019250506001810190506110be565b5050505092915050565b60008135905061110481612141565b92915050565b60008151905061111981612141565b92915050565b60008135905061112e81612158565b92915050565b60008151905061114381612158565b92915050565b6000813590506111588161216f565b92915050565b60008083601f84011261117057600080fd5b8235905067ffffffffffffffff81111561118957600080fd5b6020830191508360018202830111156111a157600080fd5b9250929050565b600082601f8301126111b957600080fd5b81356111cc6111c782611f56565b611ed9565b915080825260208301602083018583830111156111e857600080fd5b6111f3838284612104565b50505092915050565b60006080828403121561120e57600080fd5b6112186080611ed9565b9050600061122884828501610f2d565b600083015250602061123c8482850161111f565b60208301525060406112508482850161129a565b60408301525060606112648482850161129a565b60608301525092915050565b60008135905061127f81612186565b92915050565b60008151905061129481612186565b92915050565b6000813590506112a98161219d565b92915050565b6000815190506112be8161219d565b92915050565b6000602082840312156112d657600080fd5b60006112e484828501610f2d565b91505092915050565b6000806040838503121561130057600080fd5b600061130e85828601610f57565b925050602061131f85828601611270565b9150509250929050565b6000806000806080858703121561133f57600080fd5b600061134d87828801610f2d565b945050602061135e87828801610f2d565b935050604061136f87828801610f2d565b925050606061138087828801611270565b91505092959194509250565b60008060008060008060008060c0898b0312156113a857600080fd5b60006113b68b828c01610f2d565b98505060206113c78b828c01610f2d565b97505060406113d88b828c01610f2d565b96505060606113e98b828c01611270565b955050608089013567ffffffffffffffff81111561140657600080fd5b6114128b828c0161115e565b945094505060a089013567ffffffffffffffff81111561143157600080fd5b61143d8b828c0161115e565b92509250509295985092959890939650565b60008060006060848603121561146457600080fd5b600061147286828701610f2d565b935050602061148386828701610f2d565b9250506040611494868287016110f5565b9150509250925092565b600080600080608085870312156114b457600080fd5b60006114c287828801610f2d565b94505060206114d387828801610f2d565b93505060406114e487828801611270565b925050606085013567ffffffffffffffff81111561150157600080fd5b61150d878288016111a8565b91505092959194509250565b6000806040838503121561152c57600080fd5b600061153a85828601610f2d565b925050602061154b858286016110f5565b9150509250929050565b6000806040838503121561156857600080fd5b600061157685828601610f42565b92505060206115878582860161110a565b9150509250929050565b6000602082840312156115a357600080fd5b600082013567ffffffffffffffff8111156115bd57600080fd5b6115c984828501610f6c565b91505092915050565b6000602082840312156115e457600080fd5b600082013567ffffffffffffffff8111156115fe57600080fd5b61160a84828501610fef565b91505092915050565b60006020828403121561162557600080fd5b600082015167ffffffffffffffff81111561163f57600080fd5b61164b84828501611072565b91505092915050565b60006020828403121561166657600080fd5b60006116748482850161110a565b91505092915050565b60008060006060848603121561169257600080fd5b60006116a08682870161111f565b93505060206116b18682870161129a565b92505060406116c28682870161129a565b9150509250925092565b6000806000606084860312156116e157600080fd5b60006116ef86828701611134565b9350506020611700868287016112af565b9250506040611711868287016112af565b9150509250925092565b60006020828403121561172d57600080fd5b600061173b84828501611149565b91505092915050565b60006020828403121561175657600080fd5b600061176484828501611270565b91505092915050565b60006020828403121561177f57600080fd5b600061178d84828501611285565b91505092915050565b600080600080600060a086880312156117ae57600080fd5b60006117bc88828901611270565b95505060206117cd88828901610f57565b94505060406117de8882890161111f565b93505060606117ef8882890161129a565b92505060806118008882890161129a565b9150509295509295909350565b60006118198383611a23565b60808301905092915050565b60006118318383611a7f565b60208301905092915050565b60006118498383611aac565b60208301905092915050565b61185e816120ce565b82525050565b61186d81612017565b82525050565b61187c81612005565b82525050565b61188b81612005565b82525050565b61189a81612005565b82525050565b60006118ab82611fa2565b6118b58185611fd2565b93506118c083611f82565b8060005b838110156118f15781516118d8888261180d565b97506118e383611fb8565b9250506001810190506118c4565b5085935050505092915050565b600061190982611fad565b6119138185611fe3565b935061191e83611f92565b8060005b8381101561194f5781516119368882611825565b975061194183611fc5565b925050600181019050611922565b5085935050505092915050565b600061196782611fad565b6119718185611ff4565b935061197c83611f92565b8060005b838110156119ad578151611994888261183d565b975061199f83611fc5565b925050600181019050611980565b5085935050505092915050565b6119c381612029565b82525050565b6119d281612035565b82525050565b6119e181612035565b82525050565b6119f081612061565b82525050565b6119ff81612061565b82525050565b611a0e81612061565b82525050565b611a1d8161206b565b82525050565b608082016000820151611a396000850182611891565b506020820151611a4c6020850182611a05565b506040820151611a5f6040850182611ad9565b506060820151611a726060850182611ad9565b50505050565b8082525050565b611a88816120b7565b82525050565b611a97816120b7565b82525050565b611aa6816120b7565b82525050565b611ab5816120b7565b82525050565b611ac4816120c1565b82525050565b611ad3816120c1565b82525050565b611ae2816120c1565b82525050565b6000604082019050611afd6000830185611873565b611b0a60208301846119c9565b9392505050565b6000608082019050611b266000830187611873565b611b3360208301866119e7565b611b406040830185611abb565b611b4d6060830184611abb565b95945050505050565b60006020820190508181036000830152611b7081846118fe565b905092915050565b6000602082019050611b8d60008301846119ba565b92915050565b6000602082019050611ba860008301846119c9565b92915050565b6000606082019050611bc360008301866119e7565b611bd06020830185611abb565b611bdd6040830184611abb565b949350505050565b6000602082019050611bfa6000830184611a14565b92915050565b6000602082019050611c156000830184611a78565b92915050565b6000604082019050611c306000830185611a78565b611c3d6020830184611882565b9392505050565b6000606082019050611c596000830186611a78565b611c666020830185611864565b611c736040830184611a9d565b949350505050565b600060a082019050611c906000830188611a78565b611c9d6020830187611882565b611caa6040830186611882565b611cb76060830185611882565b611cc46080830184611a9d565b9695505050505050565b6000608082019050611ce36000830187611a78565b611cf06020830186611882565b611cfd6040830185611882565b611d0a60608301846119d8565b95945050505050565b6000608082019050611d286000830187611a78565b611d356020830186611882565b611d426040830185611882565b611d4f6060830184611a9d565b95945050505050565b6000606082019050611d6d6000830186611a78565b611d7a6020830185611882565b611d8760408301846119d8565b949350505050565b6000604082019050611da46000830185611a78565b8181036020830152611db681846118a0565b90509392505050565b6000604082019050611dd46000830185611a78565b8181036020830152611de6818461195c565b90509392505050565b6000608082019050611e046000830187611a78565b611e1160208301866119f6565b611e1e6040830185611aca565b611e2b6060830184611aca565b95945050505050565b6000604082019050611e496000830185611a78565b611e566020830184611a9d565b9392505050565b600060c082019050611e726000830189611a78565b611e7f6020830188611a9d565b611e8c6040830187611855565b611e9960608301866119f6565b611ea66080830185611aca565b611eb360a0830184611aca565b979650505050505050565b6000602082019050611ed36000830184611a8e565b92915050565b6000604051905081810181811067ffffffffffffffff82111715611efc57600080fd5b8060405250919050565b600067ffffffffffffffff821115611f1d57600080fd5b602082029050602081019050919050565b600067ffffffffffffffff821115611f4557600080fd5b602082029050602081019050919050565b600067ffffffffffffffff821115611f6d57600080fd5b601f19601f8301169050602081019050919050565b6000819050602082019050919050565b6000819050602082019050919050565b600081519050919050565b600081519050919050565b6000602082019050919050565b6000602082019050919050565b600082825260208201905092915050565b600082825260208201905092915050565b600082825260208201905092915050565b600061201082612097565b9050919050565b600061202282612097565b9050919050565b60008115159050919050565b60007fffff00000000000000000000000000000000000000000000000000000000000082169050919050565b6000819050919050565b60007fffffffff0000000000000000000000000000000000000000000000000000000082169050919050565b600073ffffffffffffffffffffffffffffffffffffffff82169050919050565b6000819050919050565b600060ff82169050919050565b60006120d9826120e0565b9050919050565b60006120eb826120f2565b9050919050565b60006120fd82612097565b9050919050565b82818337600083830152505050565b61211c81612005565b811461212757600080fd5b50565b61213381612017565b811461213e57600080fd5b50565b61214a81612035565b811461215557600080fd5b50565b61216181612061565b811461216c57600080fd5b50565b6121788161206b565b811461218357600080fd5b50565b61218f816120b7565b811461219a57600080fd5b50565b6121a6816120c1565b81146121b157600080fd5b5056fea26469706673582212204b4547a1c58ce1f34dc2ec483bcfc5f1281f322f2f4c08e8c9db0a6eb4e7e11164736f6c634300060c0033",
  "immutableReferences": {},
  "source": "// SPDX-License-Identifier: LGPL-3.0-or-later\npragma solidity ^0.6.0;\npragma experimental ABIEncoderV2;\n\nimport \"./libraries/OrganLibrary.sol\";\nimport \"@openzeppelin/contracts/introspection/ERC165.sol\";\nimport \"@openzeppelin/contracts/token/ERC777/IERC777Recipient.sol\";\nimport \"@openzeppelin/contracts/token/ERC777/IERC777Sender.sol\";\nimport \"@openzeppelin/contracts/token/ERC721/IERC721Receiver.sol\";\n\n/**\n    An organ contains a list of entries and a set of procedures.\n    A procedure is a contract that can effect changes on organs.\n    An entry can be a document and/or an address (a wallet or a contract).\n*/\n\ncontract Organ is\n    ERC165,\n    IERC777Recipient,\n    IERC777Sender,\n    IERC721Receiver\n{\n    using OrganLibrary for OrganLibrary.OrganData;\n    using OrganLibrary for OrganLibrary.Entry;\n    OrganLibrary.OrganData internal organData;\n    bytes4 private constant _INTERFACE_ID_ORGAN = 0xbae78d7b;\n\n    /**\n        Organ API.\n    */\n\n    constructor(\n        address payable admin,\n        bytes32 metadataIpfsHash,\n        uint8 metadataHashFunction,\n        uint8 metadataHashSize\n    ) public {\n        // Register EIP165 interface for introspection.\n        _registerInterface(_INTERFACE_ID_ORGAN);\n        organData.init(\n            admin,\n            metadataIpfsHash,\n            metadataHashFunction,\n            metadataHashSize\n        );\n    }\n\n    // Assets.\n\n    receive() external payable {\n        organData.receiveEther(msg.value);\n    }\n\n    // @TODO : Protect ether transfers against re-entrancy attacks.\n    function transfer(address payable to, uint256 value) public {\n        organData.transferEther(to, value);\n    }\n\n    // Implementing ERC-777 receiver interface.\n    function tokensReceived(\n        address operator,\n        address from,\n        address to,\n        uint256 amount,\n        bytes calldata, /*data*/\n        bytes calldata /*operatorData*/\n    ) external override {\n        organData.receiveCoins(operator, from, to, amount);\n    }\n\n    function tokensToSend(\n        address operator,\n        address from,\n        address to,\n        uint256 amount,\n        bytes calldata, /*userData*/\n        bytes calldata /*operatorData*/\n    ) external override {\n        organData.transferCoins(operator, from, to, amount);\n    }\n\n    function transferCoins(\n        address operator,\n        address from,\n        address to,\n        uint256 amount\n    ) external {\n        organData.transferCoins(operator, from, to, amount);\n    }\n\n    // Implementing ERC-721 receiver interface.\n    function onERC721Received(\n        address operator,\n        address from,\n        uint256 tokenId,\n        bytes memory /*data*/\n    ) public override returns (bytes4) {\n        organData.receiveCollectible(operator, from, tokenId);\n        return this.onERC721Received.selector;\n    }\n\n    function updateMetadata(\n        bytes32 ipfsHash,\n        uint8 hashFunction,\n        uint8 hashSize\n    ) public {\n        organData.updateMetadata(ipfsHash, hashFunction, hashSize);\n    }\n\n    /*\n        API for Procedure contract.\n    */\n\n    function addEntries(OrganLibrary.Entry[] memory entries)\n        public\n        returns (uint256[] memory indexes)\n    {\n        return organData.addEntries(entries);\n    }\n\n    function removeEntries(uint256[] memory indexes) public {\n        organData.removeEntries(indexes);\n    }\n\n    function replaceEntry(\n        uint256 index,\n        address payable addr,\n        bytes32 ipfsHash,\n        uint8 hashFunction,\n        uint8 hashSize\n    ) public {\n        organData.replaceEntry(index, addr, ipfsHash, hashFunction, hashSize);\n    }\n\n    // @TODO : Should be plural.\n    function addProcedure(address procedure, bytes2 permissions) public {\n        organData.addProcedure(procedure, permissions);\n    }\n\n    // @TODO : Should be plural.\n    function removeProcedure(address procedure) public {\n        organData.removeProcedure(procedure);\n    }\n\n    function replaceProcedure(\n        address oldProcedure,\n        address newProcedure,\n        bytes2 permissions\n    ) public {\n        organData.replaceProcedure(oldProcedure, newProcedure, permissions);\n    }\n\n    /*\n        Accessors.\n    */\n\n    function getEntriesLength() public view returns (uint256 length) {\n        return organData.entries.length;\n    }\n\n    function getEntryIndexForAddress(address addr)\n        public\n        view\n        returns (uint256 index)\n    {\n        return organData.addressIndexInEntries[addr];\n    }\n\n    function getEntry(uint256 index)\n        public\n        view\n        returns (\n            address addr,\n            bytes32 ipfsHash,\n            uint8 hashFunction,\n            uint8 hashSize\n        )\n    {\n        return (\n            organData.entries[index].addr,\n            organData.entries[index].ipfsHash,\n            organData.entries[index].hashFunction,\n            organData.entries[index].hashSize\n        );\n    }\n\n    function getProceduresLength() public view returns (uint256 length) {\n        return organData.getProceduresLength();\n    }\n\n    function getProcedure(uint256 index)\n        public\n        view\n        returns (address procedure, bytes2 permissions)\n    {\n        return organData.getProcedure(index);\n    }\n\n    function getPermissions(address procedure)\n        public\n        view\n        returns (bytes2 permissions)\n    {\n        return organData.getPermissions(procedure);\n    }\n\n    function getMetadata()\n        public\n        view\n        returns (\n            bytes32 ipfsHash,\n            uint8 hashFunction,\n            uint8 hashSize\n        )\n    {\n        return organData.getMetadata();\n    }\n}\n",
  "sourcePath": "/Users/alex/Code/organigr.am/packages/@organigram/contracts/contracts/Organ.sol",
  "compiler": {
    "name": "solc",
    "version": "0.6.12+commit.27d51765.Emscripten.clang"
  },
  "schemaVersion": "3.3.2",
  "updatedAt": "2020-12-03T01:02:36.140Z",
  "networkType": "ethereum",
  "devdoc": {
    "kind": "dev",
    "methods": {
      "supportsInterface(bytes4)": {
        "details": "See {IERC165-supportsInterface}. Time complexity O(1), guaranteed to always use less than 30 000 gas."
      }
    },
    "version": 1
  },
  "userdoc": {
    "kind": "user",
    "methods": {
      "constructor": "Organ API."
    },
    "notice": "An organ contains a list of entries and a set of procedures. A procedure is a contract that can effect changes on organs. An entry can be a document and/or an address (a wallet or a contract).",
    "version": 1
  }
}