{
  "contractName": "OrganLibrary",
  "abi": [
    {
      "anonymous": false,
      "inputs": [
        {
          "indexed": false,
          "internalType": "address",
          "name": "from",
          "type": "address"
        },
        {
          "indexed": false,
          "internalType": "address",
          "name": "admin",
          "type": "address"
        }
      ],
      "name": "adminUpdated",
      "type": "event"
    },
    {
      "anonymous": false,
      "inputs": [
        {
          "indexed": false,
          "internalType": "address",
          "name": "operator",
          "type": "address"
        },
        {
          "indexed": false,
          "internalType": "address",
          "name": "from",
          "type": "address"
        },
        {
          "indexed": false,
          "internalType": "address",
          "name": "to",
          "type": "address"
        },
        {
          "indexed": false,
          "internalType": "uint256",
          "name": "amount",
          "type": "uint256"
        }
      ],
      "name": "coinsReceived",
      "type": "event"
    },
    {
      "anonymous": false,
      "inputs": [
        {
          "indexed": false,
          "internalType": "address",
          "name": "operator",
          "type": "address"
        },
        {
          "indexed": false,
          "internalType": "address",
          "name": "from",
          "type": "address"
        },
        {
          "indexed": false,
          "internalType": "address",
          "name": "to",
          "type": "address"
        },
        {
          "indexed": false,
          "internalType": "uint256",
          "name": "amount",
          "type": "uint256"
        }
      ],
      "name": "coinsTransferred",
      "type": "event"
    },
    {
      "anonymous": false,
      "inputs": [
        {
          "indexed": false,
          "internalType": "address",
          "name": "operator",
          "type": "address"
        },
        {
          "indexed": false,
          "internalType": "address",
          "name": "from",
          "type": "address"
        },
        {
          "indexed": false,
          "internalType": "uint256",
          "name": "tokenId",
          "type": "uint256"
        }
      ],
      "name": "collectibleReceived",
      "type": "event"
    },
    {
      "anonymous": false,
      "inputs": [
        {
          "indexed": false,
          "internalType": "address",
          "name": "operator",
          "type": "address"
        },
        {
          "indexed": false,
          "internalType": "address",
          "name": "to",
          "type": "address"
        },
        {
          "indexed": false,
          "internalType": "uint256",
          "name": "tokenId",
          "type": "uint256"
        }
      ],
      "name": "collectibleTransferred",
      "type": "event"
    },
    {
      "anonymous": false,
      "inputs": [
        {
          "indexed": false,
          "internalType": "address",
          "name": "from",
          "type": "address"
        },
        {
          "indexed": false,
          "internalType": "uint256",
          "name": "index",
          "type": "uint256"
        },
        {
          "indexed": false,
          "internalType": "address",
          "name": "addr",
          "type": "address"
        },
        {
          "indexed": false,
          "internalType": "bytes32",
          "name": "ipfsHash",
          "type": "bytes32"
        },
        {
          "indexed": false,
          "internalType": "uint8",
          "name": "hashFunction",
          "type": "uint8"
        },
        {
          "indexed": false,
          "internalType": "uint8",
          "name": "hashSize",
          "type": "uint8"
        }
      ],
      "name": "entryAdded",
      "type": "event"
    },
    {
      "anonymous": false,
      "inputs": [
        {
          "indexed": false,
          "internalType": "address",
          "name": "from",
          "type": "address"
        },
        {
          "indexed": false,
          "internalType": "uint256",
          "name": "index",
          "type": "uint256"
        }
      ],
      "name": "entryRemoved",
      "type": "event"
    },
    {
      "anonymous": false,
      "inputs": [
        {
          "indexed": false,
          "internalType": "address payable",
          "name": "from",
          "type": "address"
        },
        {
          "indexed": false,
          "internalType": "uint256",
          "name": "amount",
          "type": "uint256"
        }
      ],
      "name": "etherReceived",
      "type": "event"
    },
    {
      "anonymous": false,
      "inputs": [
        {
          "indexed": false,
          "internalType": "address payable",
          "name": "from",
          "type": "address"
        },
        {
          "indexed": false,
          "internalType": "address",
          "name": "to",
          "type": "address"
        },
        {
          "indexed": false,
          "internalType": "uint256",
          "name": "amount",
          "type": "uint256"
        }
      ],
      "name": "etherTransferred",
      "type": "event"
    },
    {
      "anonymous": false,
      "inputs": [
        {
          "indexed": false,
          "internalType": "address",
          "name": "from",
          "type": "address"
        },
        {
          "indexed": false,
          "internalType": "bytes32",
          "name": "ipfsHash",
          "type": "bytes32"
        },
        {
          "indexed": false,
          "internalType": "uint8",
          "name": "hashFunction",
          "type": "uint8"
        },
        {
          "indexed": false,
          "internalType": "uint8",
          "name": "hashSize",
          "type": "uint8"
        }
      ],
      "name": "metadataUpdated",
      "type": "event"
    },
    {
      "anonymous": false,
      "inputs": [
        {
          "indexed": false,
          "internalType": "address",
          "name": "from",
          "type": "address"
        },
        {
          "indexed": false,
          "internalType": "address",
          "name": "procedure",
          "type": "address"
        },
        {
          "indexed": false,
          "internalType": "bytes2",
          "name": "permissions",
          "type": "bytes2"
        }
      ],
      "name": "procedureAdded",
      "type": "event"
    },
    {
      "anonymous": false,
      "inputs": [
        {
          "indexed": false,
          "internalType": "address",
          "name": "from",
          "type": "address"
        },
        {
          "indexed": false,
          "internalType": "address",
          "name": "procedure",
          "type": "address"
        }
      ],
      "name": "procedureRemoved",
      "type": "event"
    },
    {
      "inputs": [],
      "name": "PERMISSION_ADD_ENTRIES",
      "outputs": [
        {
          "internalType": "bytes2",
          "name": "",
          "type": "bytes2"
        }
      ],
      "stateMutability": "view",
      "type": "function",
      "constant": true
    },
    {
      "inputs": [],
      "name": "PERMISSION_ADD_PROCEDURE",
      "outputs": [
        {
          "internalType": "bytes2",
          "name": "",
          "type": "bytes2"
        }
      ],
      "stateMutability": "view",
      "type": "function",
      "constant": true
    },
    {
      "inputs": [],
      "name": "PERMISSION_DEPOSIT_COINS",
      "outputs": [
        {
          "internalType": "bytes2",
          "name": "",
          "type": "bytes2"
        }
      ],
      "stateMutability": "view",
      "type": "function",
      "constant": true
    },
    {
      "inputs": [],
      "name": "PERMISSION_DEPOSIT_COLLECTIBLES",
      "outputs": [
        {
          "internalType": "bytes2",
          "name": "",
          "type": "bytes2"
        }
      ],
      "stateMutability": "view",
      "type": "function",
      "constant": true
    },
    {
      "inputs": [],
      "name": "PERMISSION_DEPOSIT_ETHER",
      "outputs": [
        {
          "internalType": "bytes2",
          "name": "",
          "type": "bytes2"
        }
      ],
      "stateMutability": "view",
      "type": "function",
      "constant": true
    },
    {
      "inputs": [],
      "name": "PERMISSION_REMOVE_ENTRIES",
      "outputs": [
        {
          "internalType": "bytes2",
          "name": "",
          "type": "bytes2"
        }
      ],
      "stateMutability": "view",
      "type": "function",
      "constant": true
    },
    {
      "inputs": [],
      "name": "PERMISSION_REMOVE_PROCEDURE",
      "outputs": [
        {
          "internalType": "bytes2",
          "name": "",
          "type": "bytes2"
        }
      ],
      "stateMutability": "view",
      "type": "function",
      "constant": true
    },
    {
      "inputs": [],
      "name": "PERMISSION_UPDATE_METADATA",
      "outputs": [
        {
          "internalType": "bytes2",
          "name": "",
          "type": "bytes2"
        }
      ],
      "stateMutability": "view",
      "type": "function",
      "constant": true
    },
    {
      "inputs": [],
      "name": "PERMISSION_WITHDRAW_COINS",
      "outputs": [
        {
          "internalType": "bytes2",
          "name": "",
          "type": "bytes2"
        }
      ],
      "stateMutability": "view",
      "type": "function",
      "constant": true
    },
    {
      "inputs": [],
      "name": "PERMISSION_WITHDRAW_COLLECTIBLES",
      "outputs": [
        {
          "internalType": "bytes2",
          "name": "",
          "type": "bytes2"
        }
      ],
      "stateMutability": "view",
      "type": "function",
      "constant": true
    },
    {
      "inputs": [],
      "name": "PERMISSION_WITHDRAW_ETHER",
      "outputs": [
        {
          "internalType": "bytes2",
          "name": "",
          "type": "bytes2"
        }
      ],
      "stateMutability": "view",
      "type": "function",
      "constant": true
    }
  ],
  "bytecode": "0x6141b9610026600b82828239805160001a60731461001957fe5b30600052607381538281f3fe73000000000000000000000000000000000000000030146080604052600436106101d95760003560e01c806374771eb41161010e5780638d6ee760116100ac578063b0bd74a41161007b578063b0bd74a414610d0d578063ca42cca814610db2578063f59263df14610df4578063f8c99c3614610e53576101d9565b80638d6ee76014610b57578063945fb43614610bb75780639710d18114610c1357806399f3d1db14610c73576101d9565b8063863e5d16116100e8578063863e5d161461096c57806387fc516214610a2d57806388c7fc5414610a725780638a8b325a14610ad2576101d9565b806374771eb41461082d5780638114cbea146108ac578063842519fb1461090c576101d9565b80632d2a42051161017b5780633d6a1916116101555780633d6a19161461067e578063432787d9146106c357806350be2a0d146107285780636337a8d5146107cd576101d9565b80632d2a4205146105635780633974fa33146105c35780633b1a16cf1461061e576101d9565b8063112460fc116101b7578063112460fc1461032757806319ddbc8c146103875780631ceaa38a1461041a57806320069ef8146104bf576101d9565b8063051488a8146101de578063062685aa1461023e5780630ac08b491461029e575b600080fd5b6101e6610ef9565b60405180827dffffffffffffffffffffffffffffffffffffffffffffffffffffffffffff19167dffffffffffffffffffffffffffffffffffffffffffffffffffffffffffff1916815260200191505060405180910390f35b610246610f02565b60405180827dffffffffffffffffffffffffffffffffffffffffffffffffffffffffffff19167dffffffffffffffffffffffffffffffffffffffffffffffffffffffffffff1916815260200191505060405180910390f35b8180156102aa57600080fd5b50610325600480360360c08110156102c157600080fd5b810190808035906020019092919080359060200190929190803573ffffffffffffffffffffffffffffffffffffffff16906020019092919080359060200190929190803560ff169060200190929190803560ff169060200190929190505050610f0a565b005b61032f6115cb565b60405180827dffffffffffffffffffffffffffffffffffffffffffffffffffffffffffff19167dffffffffffffffffffffffffffffffffffffffffffffffffffffffffffff1916815260200191505060405180910390f35b81801561039357600080fd5b50610404600480360360a08110156103aa57600080fd5b8101908080359060200190929190803573ffffffffffffffffffffffffffffffffffffffff16906020019092919080359060200190929190803560ff169060200190929190803560ff1690602001909291905050506115d3565b6040518082815260200191505060405180910390f35b81801561042657600080fd5b506104bd600480360360a081101561043d57600080fd5b8101908080359060200190929190803573ffffffffffffffffffffffffffffffffffffffff169060200190929190803573ffffffffffffffffffffffffffffffffffffffff169060200190929190803573ffffffffffffffffffffffffffffffffffffffff16906020019092919080359060200190929190505050611a67565b005b61050b600480360360408110156104d557600080fd5b8101908080359060200190929190803573ffffffffffffffffffffffffffffffffffffffff169060200190929190505050611dc2565b60405180827dffffffffffffffffffffffffffffffffffffffffffffffffffffffffffff19167dffffffffffffffffffffffffffffffffffffffffffffffffffffffffffff1916815260200191505060405180910390f35b61056b611e1b565b60405180827dffffffffffffffffffffffffffffffffffffffffffffffffffffffffffff19167dffffffffffffffffffffffffffffffffffffffffffffffffffffffffffff1916815260200191505060405180910390f35b8180156105cf57600080fd5b5061061c600480360360408110156105e657600080fd5b8101908080359060200190929190803573ffffffffffffffffffffffffffffffffffffffff169060200190929190505050611e23565b005b61062661212d565b60405180827dffffffffffffffffffffffffffffffffffffffffffffffffffffffffffff19167dffffffffffffffffffffffffffffffffffffffffffffffffffffffffffff1916815260200191505060405180910390f35b81801561068a57600080fd5b506106c1600480360360408110156106a157600080fd5b810190808035906020019092919080359060200190929190505050612136565b005b8180156106cf57600080fd5b50610726600480360360608110156106e657600080fd5b8101908080359060200190929190803573ffffffffffffffffffffffffffffffffffffffff16906020019092919080359060200190929190505050612316565b005b81801561073457600080fd5b506107cb600480360360a081101561074b57600080fd5b8101908080359060200190929190803573ffffffffffffffffffffffffffffffffffffffff169060200190929190803573ffffffffffffffffffffffffffffffffffffffff169060200190929190803573ffffffffffffffffffffffffffffffffffffffff16906020019092919080359060200190929190505050612572565b005b6107d561285d565b60405180827dffffffffffffffffffffffffffffffffffffffffffffffffffffffffffff19167dffffffffffffffffffffffffffffffffffffffffffffffffffffffffffff1916815260200191505060405180910390f35b81801561083957600080fd5b506108aa600480360360a081101561085057600080fd5b8101908080359060200190929190803573ffffffffffffffffffffffffffffffffffffffff16906020019092919080359060200190929190803560ff169060200190929190803560ff169060200190929190505050612865565b005b6108b4612a33565b60405180827dffffffffffffffffffffffffffffffffffffffffffffffffffffffffffff19167dffffffffffffffffffffffffffffffffffffffffffffffffffffffffffff1916815260200191505060405180910390f35b610914612a3b565b60405180827dffffffffffffffffffffffffffffffffffffffffffffffffffffffffffff19167dffffffffffffffffffffffffffffffffffffffffffffffffffffffffffff1916815260200191505060405180910390f35b6109a26004803603604081101561098257600080fd5b810190808035906020019092919080359060200190929190505050612a44565b604051808373ffffffffffffffffffffffffffffffffffffffff1673ffffffffffffffffffffffffffffffffffffffff168152602001827dffffffffffffffffffffffffffffffffffffffffffffffffffffffffffff19167dffffffffffffffffffffffffffffffffffffffffffffffffffffffffffff191681526020019250505060405180910390f35b818015610a3957600080fd5b50610a7060048036036040811015610a5057600080fd5b810190808035906020019092919080359060200190929190505050612a75565b005b610a7a612d21565b60405180827dffffffffffffffffffffffffffffffffffffffffffffffffffffffffffff19167dffffffffffffffffffffffffffffffffffffffffffffffffffffffffffff1916815260200191505060405180910390f35b818015610ade57600080fd5b50610b5560048036036080811015610af557600080fd5b8101908080359060200190929190803573ffffffffffffffffffffffffffffffffffffffff169060200190929190803573ffffffffffffffffffffffffffffffffffffffff16906020019092919080359060200190929190505050612d29565b005b610b5f612f40565b60405180827dffffffffffffffffffffffffffffffffffffffffffffffffffffffffffff19167dffffffffffffffffffffffffffffffffffffffffffffffffffffffffffff1916815260200191505060405180910390f35b610be360048036036020811015610bcd57600080fd5b8101908080359060200190929190505050612f48565b604051808481526020018360ff1660ff1681526020018260ff1660ff168152602001935050505060405180910390f35b610c1b612f83565b60405180827dffffffffffffffffffffffffffffffffffffffffffffffffffffffffffff19167dffffffffffffffffffffffffffffffffffffffffffffffffffffffffffff1916815260200191505060405180910390f35b818015610c7f57600080fd5b50610cf760048036036060811015610c9657600080fd5b8101908080359060200190929190803573ffffffffffffffffffffffffffffffffffffffff16906020019092919080357dffffffffffffffffffffffffffffffffffffffffffffffffffffffffffff19169060200190929190505050612f8b565b6040518082815260200191505060405180910390f35b818015610d1957600080fd5b50610db0600480360360a0811015610d3057600080fd5b8101908080359060200190929190803573ffffffffffffffffffffffffffffffffffffffff169060200190929190803573ffffffffffffffffffffffffffffffffffffffff169060200190929190803573ffffffffffffffffffffffffffffffffffffffff1690602001909291908035906020019092919050505061337f565b005b610dde60048036036020811015610dc857600080fd5b81019080803590602001909291905050506135ca565b6040518082815260200191505060405180910390f35b818015610e0057600080fd5b50610e5160048036036080811015610e1757600080fd5b810190808035906020019092919080359060200190929190803560ff169060200190929190803560ff1690602001909291905050506135df565b005b818015610e5f57600080fd5b50610ef760048036036080811015610e7657600080fd5b8101908080359060200190929190803573ffffffffffffffffffffffffffffffffffffffff169060200190929190803573ffffffffffffffffffffffffffffffffffffffff16906020019092919080357dffffffffffffffffffffffffffffffffffffffffffffffffffffffffffff19169060200190929190505050613820565b005b61010060f01b81565b600160f01b81565b85600860f01b600060f01b818360060160003373ffffffffffffffffffffffffffffffffffffffff1673ffffffffffffffffffffffffffffffffffffffff16815260200190815260200160002060009054906101000a900460f01b167dffffffffffffffffffffffffffffffffffffffffffffffffffffffffffff191611806110075750600060f01b818360060160008073ffffffffffffffffffffffffffffffffffffffff1673ffffffffffffffffffffffffffffffffffffffff16815260200190815260200160002060009054906101000a900460f01b167dffffffffffffffffffffffffffffffffffffffffffffffffffffffffffff1916115b611079576040517f08c379a000000000000000000000000000000000000000000000000000000000815260040180806020018281038252600e8152602001807f4e6f7420617574686f72697a656400000000000000000000000000000000000081525060200191505060405180910390fd5b87600460f01b600060f01b818360060160003373ffffffffffffffffffffffffffffffffffffffff1673ffffffffffffffffffffffffffffffffffffffff16815260200190815260200160002060009054906101000a900460f01b167dffffffffffffffffffffffffffffffffffffffffffffffffffffffffffff191611806111765750600060f01b818360060160008073ffffffffffffffffffffffffffffffffffffffff1673ffffffffffffffffffffffffffffffffffffffff16815260200190815260200160002060009054906101000a900460f01b167dffffffffffffffffffffffffffffffffffffffffffffffffffffffffffff1916115b6111e8576040517f08c379a000000000000000000000000000000000000000000000000000000000815260040180806020018281038252600e8152602001807f4e6f7420617574686f72697a656400000000000000000000000000000000000081525060200191505060405180910390fd5b600073ffffffffffffffffffffffffffffffffffffffff168873ffffffffffffffffffffffffffffffffffffffff16146112d45760008a60070160008a73ffffffffffffffffffffffffffffffffffffffff1673ffffffffffffffffffffffffffffffffffffffff16815260200190815260200160002054116112d3576040517f08c379a00000000000000000000000000000000000000000000000000000000081526004018080602001828103825260118152602001807f5265636f7264206e6f7420666f756e642e00000000000000000000000000000081525060200191505060405180910390fd5b5b60008a60070160008c6003018c815481106112eb57fe5b906000526020600020906003020160000160009054906101000a900473ffffffffffffffffffffffffffffffffffffffff1673ffffffffffffffffffffffffffffffffffffffff1673ffffffffffffffffffffffffffffffffffffffff168152602001908152602001600020819055507fb66f1ae02a95bcbfd5cb608041f8225a5fd4bda29310bd2541e95c1c8ff04d78338a604051808373ffffffffffffffffffffffffffffffffffffffff1673ffffffffffffffffffffffffffffffffffffffff1681526020018281526020019250505060405180910390a160405180608001604052808973ffffffffffffffffffffffffffffffffffffffff1681526020018881526020018760ff1681526020018660ff168152508a6003018a8154811061141257fe5b906000526020600020906003020160008201518160000160006101000a81548173ffffffffffffffffffffffffffffffffffffffff021916908373ffffffffffffffffffffffffffffffffffffffff1602179055506020820151816001015560408201518160020160006101000a81548160ff021916908360ff16021790555060608201518160020160016101000a81548160ff021916908360ff160217905550905050888a60070160008a73ffffffffffffffffffffffffffffffffffffffff1673ffffffffffffffffffffffffffffffffffffffff168152602001908152602001600020819055507fd69b7226f1251eb6f1e431842eafe1006caea6c470815a494fe34f5ef9e4c36a338a8a8a8a8a604051808773ffffffffffffffffffffffffffffffffffffffff1673ffffffffffffffffffffffffffffffffffffffff1681526020018681526020018573ffffffffffffffffffffffffffffffffffffffff1673ffffffffffffffffffffffffffffffffffffffff1681526020018481526020018360ff1660ff1681526020018260ff1660ff168152602001965050505050505060405180910390a150505050505050505050565b600260f01b81565b600085600460f01b600060f01b818360060160003373ffffffffffffffffffffffffffffffffffffffff1673ffffffffffffffffffffffffffffffffffffffff16815260200190815260200160002060009054906101000a900460f01b167dffffffffffffffffffffffffffffffffffffffffffffffffffffffffffff191611806116d25750600060f01b818360060160008073ffffffffffffffffffffffffffffffffffffffff1673ffffffffffffffffffffffffffffffffffffffff16815260200190815260200160002060009054906101000a900460f01b167dffffffffffffffffffffffffffffffffffffffffffffffffffffffffffff1916115b611744576040517f08c379a000000000000000000000000000000000000000000000000000000000815260040180806020018281038252600e8152602001807f4e6f7420617574686f72697a656400000000000000000000000000000000000081525060200191505060405180910390fd5b600073ffffffffffffffffffffffffffffffffffffffff168773ffffffffffffffffffffffffffffffffffffffff16146118305760008860070160008973ffffffffffffffffffffffffffffffffffffffff1673ffffffffffffffffffffffffffffffffffffffff168152602001908152602001600020541461182f576040517f08c379a00000000000000000000000000000000000000000000000000000000081526004018080602001828103825260118152602001807f4475706c6963617465207265636f72642e00000000000000000000000000000081525060200191505060405180910390fd5b5b8760030160405180608001604052808973ffffffffffffffffffffffffffffffffffffffff1681526020018881526020018760ff1681526020018660ff16815250908060018154018082558091505060019003906000526020600020906003020160009091909190915060008201518160000160006101000a81548173ffffffffffffffffffffffffffffffffffffffff021916908373ffffffffffffffffffffffffffffffffffffffff1602179055506020820151816001015560408201518160020160006101000a81548160ff021916908360ff16021790555060608201518160020160016101000a81548160ff021916908360ff160217905550505060018860030180549050039250828860070160008973ffffffffffffffffffffffffffffffffffffffff1673ffffffffffffffffffffffffffffffffffffffff1681526020019081526020016000208190555087600201600081548092919060010191905055507fd69b7226f1251eb6f1e431842eafe1006caea6c470815a494fe34f5ef9e4c36a338489898989604051808773ffffffffffffffffffffffffffffffffffffffff1673ffffffffffffffffffffffffffffffffffffffff1681526020018681526020018573ffffffffffffffffffffffffffffffffffffffff1673ffffffffffffffffffffffffffffffffffffffff1681526020018481526020018360ff1660ff1681526020018260ff1660ff168152602001965050505050505060405180910390a1829250505095945050505050565b8461010060f01b600060f01b818360060160003373ffffffffffffffffffffffffffffffffffffffff1673ffffffffffffffffffffffffffffffffffffffff16815260200190815260200160002060009054906101000a900460f01b167dffffffffffffffffffffffffffffffffffffffffffffffffffffffffffff19161180611b655750600060f01b818360060160008073ffffffffffffffffffffffffffffffffffffffff1673ffffffffffffffffffffffffffffffffffffffff16815260200190815260200160002060009054906101000a900460f01b167dffffffffffffffffffffffffffffffffffffffffffffffffffffffffffff1916115b611bd7576040517f08c379a000000000000000000000000000000000000000000000000000000000815260040180806020018281038252600e8152602001807f4e6f7420617574686f72697a656400000000000000000000000000000000000081525060200191505060405180910390fd5b60608673ffffffffffffffffffffffffffffffffffffffff16639bd9bbc68686846040518463ffffffff1660e01b8152600401808473ffffffffffffffffffffffffffffffffffffffff1673ffffffffffffffffffffffffffffffffffffffff16815260200183815260200180602001828103825283818151815260200191508051906020019080838360005b83811015611c7f578082015181840152602081019050611c64565b50505050905090810190601f168015611cac5780820380516001836020036101000a031916815260200191505b50945050505050600060405180830381600087803b158015611ccd57600080fd5b505af1158015611ce1573d6000803e3d6000fd5b505050507f9df0034edd0538407262676cf5883fee08c9655adc9aa709deaf4d58fc3946e887878787604051808573ffffffffffffffffffffffffffffffffffffffff1673ffffffffffffffffffffffffffffffffffffffff1681526020018473ffffffffffffffffffffffffffffffffffffffff1673ffffffffffffffffffffffffffffffffffffffff1681526020018373ffffffffffffffffffffffffffffffffffffffff1673ffffffffffffffffffffffffffffffffffffffff16815260200182815260200194505050505060405180910390a15050505050505050565b60008260060160008373ffffffffffffffffffffffffffffffffffffffff1673ffffffffffffffffffffffffffffffffffffffff16815260200190815260200160002060009054906101000a900460f01b905092915050565b602060f01b81565b81600260f01b600060f01b818360060160003373ffffffffffffffffffffffffffffffffffffffff1673ffffffffffffffffffffffffffffffffffffffff16815260200190815260200160002060009054906101000a900460f01b167dffffffffffffffffffffffffffffffffffffffffffffffffffffffffffff19161180611f205750600060f01b818360060160008073ffffffffffffffffffffffffffffffffffffffff1673ffffffffffffffffffffffffffffffffffffffff16815260200190815260200160002060009054906101000a900460f01b167dffffffffffffffffffffffffffffffffffffffffffffffffffffffffffff1916115b611f92576040517f08c379a000000000000000000000000000000000000000000000000000000000815260040180806020018281038252600e8152602001807f4e6f7420617574686f72697a656400000000000000000000000000000000000081525060200191505060405180910390fd5b611fa88385600401613e4c90919063ffffffff16565b61201a576040517f08c379a00000000000000000000000000000000000000000000000000000000081526004018080602001828103825260118152602001807f5265636f7264206e6f7420666f756e642e00000000000000000000000000000081525060200191505060405180910390fd5b6120308385600401613e7c90919063ffffffff16565b50600060f01b8460060160008573ffffffffffffffffffffffffffffffffffffffff1673ffffffffffffffffffffffffffffffffffffffff16815260200190815260200160002060006101000a81548161ffff021916908360f01c02179055507ff4198b630a5831df7cbdb26981a0a5fece69d524f9d5b2bd4daf698b4dfdb2183384604051808373ffffffffffffffffffffffffffffffffffffffff1673ffffffffffffffffffffffffffffffffffffffff1681526020018273ffffffffffffffffffffffffffffffffffffffff1673ffffffffffffffffffffffffffffffffffffffff1681526020019250505060405180910390a150505050565b61040060f01b81565b81602060f01b600060f01b818360060160003373ffffffffffffffffffffffffffffffffffffffff1673ffffffffffffffffffffffffffffffffffffffff16815260200190815260200160002060009054906101000a900460f01b167dffffffffffffffffffffffffffffffffffffffffffffffffffffffffffff191611806122335750600060f01b818360060160008073ffffffffffffffffffffffffffffffffffffffff1673ffffffffffffffffffffffffffffffffffffffff16815260200190815260200160002060009054906101000a900460f01b167dffffffffffffffffffffffffffffffffffffffffffffffffffffffffffff1916115b6122a5576040517f08c379a000000000000000000000000000000000000000000000000000000000815260040180806020018281038252600e8152602001807f4e6f7420617574686f72697a656400000000000000000000000000000000000081525060200191505060405180910390fd5b7fcbbd8e1693c80baea4b26f9f5b28e2fea72633c6953e2dc612f123c5b8cf9d493384604051808373ffffffffffffffffffffffffffffffffffffffff1673ffffffffffffffffffffffffffffffffffffffff1681526020018281526020019250505060405180910390a150505050565b82604060f01b600060f01b818360060160003373ffffffffffffffffffffffffffffffffffffffff1673ffffffffffffffffffffffffffffffffffffffff16815260200190815260200160002060009054906101000a900460f01b167dffffffffffffffffffffffffffffffffffffffffffffffffffffffffffff191611806124135750600060f01b818360060160008073ffffffffffffffffffffffffffffffffffffffff1673ffffffffffffffffffffffffffffffffffffffff16815260200190815260200160002060009054906101000a900460f01b167dffffffffffffffffffffffffffffffffffffffffffffffffffffffffffff1916115b612485576040517f08c379a000000000000000000000000000000000000000000000000000000000815260040180806020018281038252600e8152602001807f4e6f7420617574686f72697a656400000000000000000000000000000000000081525060200191505060405180910390fd5b8373ffffffffffffffffffffffffffffffffffffffff166108fc849081150290604051600060405180830381858888f193505050501580156124cb573d6000803e3d6000fd5b507f888f4e5e3828b86878e550f0d9966a72db1fa81bed7bd7537481075f6b2c237d338585604051808473ffffffffffffffffffffffffffffffffffffffff1673ffffffffffffffffffffffffffffffffffffffff1681526020018373ffffffffffffffffffffffffffffffffffffffff1673ffffffffffffffffffffffffffffffffffffffff168152602001828152602001935050505060405180910390a15050505050565b8461040060f01b600060f01b818360060160003373ffffffffffffffffffffffffffffffffffffffff1673ffffffffffffffffffffffffffffffffffffffff16815260200190815260200160002060009054906101000a900460f01b167dffffffffffffffffffffffffffffffffffffffffffffffffffffffffffff191611806126705750600060f01b818360060160008073ffffffffffffffffffffffffffffffffffffffff1673ffffffffffffffffffffffffffffffffffffffff16815260200190815260200160002060009054906101000a900460f01b167dffffffffffffffffffffffffffffffffffffffffffffffffffffffffffff1916115b6126e2576040517f08c379a000000000000000000000000000000000000000000000000000000000815260040180806020018281038252600e8152602001807f4e6f7420617574686f72697a656400000000000000000000000000000000000081525060200191505060405180910390fd5b8573ffffffffffffffffffffffffffffffffffffffff166342842e0e8686866040518463ffffffff1660e01b8152600401808473ffffffffffffffffffffffffffffffffffffffff1673ffffffffffffffffffffffffffffffffffffffff1681526020018373ffffffffffffffffffffffffffffffffffffffff1673ffffffffffffffffffffffffffffffffffffffff1681526020018281526020019350505050600060405180830381600087803b15801561279d57600080fd5b505af11580156127b1573d6000803e3d6000fd5b505050507f8e804bbf6f6b1556cf1371c58fce001012969e584497e633a931750c479c70a7868585604051808473ffffffffffffffffffffffffffffffffffffffff1673ffffffffffffffffffffffffffffffffffffffff1681526020018373ffffffffffffffffffffffffffffffffffffffff1673ffffffffffffffffffffffffffffffffffffffff168152602001828152602001935050505060405180910390a150505050505050565b600860f01b81565b60008073ffffffffffffffffffffffffffffffffffffffff168573ffffffffffffffffffffffffffffffffffffffff1614156128a157336128a3565b845b905061ffff60f01b8660060160008373ffffffffffffffffffffffffffffffffffffffff1673ffffffffffffffffffffffffffffffffffffffff16815260200190815260200160002060006101000a81548161ffff021916908360f01c021790555061291b8187600401613eac90919063ffffffff16565b50838660000181905550828660010160006101000a81548160ff021916908360ff160217905550818660010160016101000a81548160ff021916908360ff16021790555061296761411a565b8660030181908060018154018082558091505060019003906000526020600020906003020160009091909190915060008201518160000160006101000a81548173ffffffffffffffffffffffffffffffffffffffff021916908373ffffffffffffffffffffffffffffffffffffffff1602179055506020820151816001015560408201518160020160006101000a81548160ff021916908360ff16021790555060608201518160020160016101000a81548160ff021916908360ff160217905550505050505050505050565b601060f01b81565b61020060f01b81565b600080612a5d8385600401613edc90919063ffffffff16565b915081612a6a8584611dc2565b915091509250929050565b6000826003018281548110612a8657fe5b906000526020600020906003020160000160009054906101000a900473ffffffffffffffffffffffffffffffffffffffff169050600060f01b600860f01b8460060160003373ffffffffffffffffffffffffffffffffffffffff1673ffffffffffffffffffffffffffffffffffffffff16815260200190815260200160002060009054906101000a900460f01b167dffffffffffffffffffffffffffffffffffffffffffffffffffffffffffff19161180612b6c57503373ffffffffffffffffffffffffffffffffffffffff168173ffffffffffffffffffffffffffffffffffffffff16145b612bde576040517f08c379a000000000000000000000000000000000000000000000000000000000815260040180806020018281038252600f8152602001807f4e6f7420617574686f72697a65642e000000000000000000000000000000000081525060200191505060405180910390fd5b826003018281548110612bed57fe5b9060005260206000209060030201600080820160006101000a81549073ffffffffffffffffffffffffffffffffffffffff021916905560018201600090556002820160006101000a81549060ff02191690556002820160016101000a81549060ff0219169055505082600201600081548092919060019003919050555060008360070160008373ffffffffffffffffffffffffffffffffffffffff1673ffffffffffffffffffffffffffffffffffffffff168152602001908152602001600020819055507fb66f1ae02a95bcbfd5cb608041f8225a5fd4bda29310bd2541e95c1c8ff04d783383604051808373ffffffffffffffffffffffffffffffffffffffff1673ffffffffffffffffffffffffffffffffffffffff1681526020018281526020019250505060405180910390a1505050565b604060f01b81565b8361020060f01b600060f01b818360060160003373ffffffffffffffffffffffffffffffffffffffff1673ffffffffffffffffffffffffffffffffffffffff16815260200190815260200160002060009054906101000a900460f01b167dffffffffffffffffffffffffffffffffffffffffffffffffffffffffffff19161180612e275750600060f01b818360060160008073ffffffffffffffffffffffffffffffffffffffff1673ffffffffffffffffffffffffffffffffffffffff16815260200190815260200160002060009054906101000a900460f01b167dffffffffffffffffffffffffffffffffffffffffffffffffffffffffffff1916115b612e99576040517f08c379a000000000000000000000000000000000000000000000000000000000815260040180806020018281038252600e8152602001807f4e6f7420617574686f72697a656400000000000000000000000000000000000081525060200191505060405180910390fd5b7fe5e97c239ef97530361e497f81ff5c1271fd4ea83a1876459ace5eea3e428fac858585604051808473ffffffffffffffffffffffffffffffffffffffff1673ffffffffffffffffffffffffffffffffffffffff1681526020018373ffffffffffffffffffffffffffffffffffffffff1673ffffffffffffffffffffffffffffffffffffffff168152602001828152602001935050505060405180910390a1505050505050565b600460f01b81565b600080600083600001548460010160009054906101000a900460ff168560010160019054906101000a900460ff169250925092509193909250565b608060f01b81565b600083600160f01b600060f01b818360060160003373ffffffffffffffffffffffffffffffffffffffff1673ffffffffffffffffffffffffffffffffffffffff16815260200190815260200160002060009054906101000a900460f01b167dffffffffffffffffffffffffffffffffffffffffffffffffffffffffffff1916118061308a5750600060f01b818360060160008073ffffffffffffffffffffffffffffffffffffffff1673ffffffffffffffffffffffffffffffffffffffff16815260200190815260200160002060009054906101000a900460f01b167dffffffffffffffffffffffffffffffffffffffffffffffffffffffffffff1916115b6130fc576040517f08c379a000000000000000000000000000000000000000000000000000000000815260040180806020018281038252600e8152602001807f4e6f7420617574686f72697a656400000000000000000000000000000000000081525060200191505060405180910390fd5b6131128587600401613e4c90919063ffffffff16565b15613185576040517f08c379a00000000000000000000000000000000000000000000000000000000081526004018080602001828103825260118152602001807f4475706c6963617465207265636f72642e00000000000000000000000000000081525060200191505060405180910390fd5b600060f01b847dffffffffffffffffffffffffffffffffffffffffffffffffffffffffffff19161415613220576040517f08c379a00000000000000000000000000000000000000000000000000000000081526004018080602001828103825260168152602001807f57726f6e67207065726d697373696f6e73207365742e0000000000000000000081525060200191505060405180910390fd5b6132368587600401613eac90919063ffffffff16565b50838660060160008773ffffffffffffffffffffffffffffffffffffffff1673ffffffffffffffffffffffffffffffffffffffff16815260200190815260200160002060006101000a81548161ffff021916908360f01c02179055507fdf8ecb67ccb8275f1c628a7275de366fac017387946044d9dcd4046962982a4e338686604051808473ffffffffffffffffffffffffffffffffffffffff1673ffffffffffffffffffffffffffffffffffffffff1681526020018373ffffffffffffffffffffffffffffffffffffffff1673ffffffffffffffffffffffffffffffffffffffff168152602001827dffffffffffffffffffffffffffffffffffffffffffffffffffffffffffff19167dffffffffffffffffffffffffffffffffffffffffffffffffffffffffffff19168152602001935050505060405180910390a182925050509392505050565b84608060f01b600060f01b818360060160003373ffffffffffffffffffffffffffffffffffffffff1673ffffffffffffffffffffffffffffffffffffffff16815260200190815260200160002060009054906101000a900460f01b167dffffffffffffffffffffffffffffffffffffffffffffffffffffffffffff1916118061347c5750600060f01b818360060160008073ffffffffffffffffffffffffffffffffffffffff1673ffffffffffffffffffffffffffffffffffffffff16815260200190815260200160002060009054906101000a900460f01b167dffffffffffffffffffffffffffffffffffffffffffffffffffffffffffff1916115b6134ee576040517f08c379a000000000000000000000000000000000000000000000000000000000815260040180806020018281038252600e8152602001807f4e6f7420617574686f72697a656400000000000000000000000000000000000081525060200191505060405180910390fd5b7f2cd05e0dd8d1973240403d6f7b5af34f709ea79a0f5199fcc9ebc4102919fd4086868686604051808573ffffffffffffffffffffffffffffffffffffffff1673ffffffffffffffffffffffffffffffffffffffff1681526020018473ffffffffffffffffffffffffffffffffffffffff1673ffffffffffffffffffffffffffffffffffffffff1681526020018373ffffffffffffffffffffffffffffffffffffffff1673ffffffffffffffffffffffffffffffffffffffff16815260200182815260200194505050505060405180910390a150505050505050565b60006135d882600401613ef6565b9050919050565b83601060f01b600060f01b818360060160003373ffffffffffffffffffffffffffffffffffffffff1673ffffffffffffffffffffffffffffffffffffffff16815260200190815260200160002060009054906101000a900460f01b167dffffffffffffffffffffffffffffffffffffffffffffffffffffffffffff191611806136dc5750600060f01b818360060160008073ffffffffffffffffffffffffffffffffffffffff1673ffffffffffffffffffffffffffffffffffffffff16815260200190815260200160002060009054906101000a900460f01b167dffffffffffffffffffffffffffffffffffffffffffffffffffffffffffff1916115b61374e576040517f08c379a000000000000000000000000000000000000000000000000000000000815260040180806020018281038252600e8152602001807f4e6f7420617574686f72697a656400000000000000000000000000000000000081525060200191505060405180910390fd5b848660000181905550838660010160006101000a81548160ff021916908360ff160217905550828660010160016101000a81548160ff021916908360ff1602179055507fe21d6df201a705d8f3b9ce71eb35b7cce8e39a82df540174189a473c52c7d44d33868686604051808573ffffffffffffffffffffffffffffffffffffffff1673ffffffffffffffffffffffffffffffffffffffff1681526020018481526020018360ff1660ff1681526020018260ff1660ff16815260200194505050505060405180910390a1505050505050565b83600260f01b600060f01b818360060160003373ffffffffffffffffffffffffffffffffffffffff1673ffffffffffffffffffffffffffffffffffffffff16815260200190815260200160002060009054906101000a900460f01b167dffffffffffffffffffffffffffffffffffffffffffffffffffffffffffff1916118061391d5750600060f01b818360060160008073ffffffffffffffffffffffffffffffffffffffff1673ffffffffffffffffffffffffffffffffffffffff16815260200190815260200160002060009054906101000a900460f01b167dffffffffffffffffffffffffffffffffffffffffffffffffffffffffffff1916115b61398f576040517f08c379a000000000000000000000000000000000000000000000000000000000815260040180806020018281038252600e8152602001807f4e6f7420617574686f72697a656400000000000000000000000000000000000081525060200191505060405180910390fd5b85600160f01b600060f01b818360060160003373ffffffffffffffffffffffffffffffffffffffff1673ffffffffffffffffffffffffffffffffffffffff16815260200190815260200160002060009054906101000a900460f01b167dffffffffffffffffffffffffffffffffffffffffffffffffffffffffffff19161180613a8c5750600060f01b818360060160008073ffffffffffffffffffffffffffffffffffffffff1673ffffffffffffffffffffffffffffffffffffffff16815260200190815260200160002060009054906101000a900460f01b167dffffffffffffffffffffffffffffffffffffffffffffffffffffffffffff1916115b613afe576040517f08c379a000000000000000000000000000000000000000000000000000000000815260040180806020018281038252600e8152602001807f4e6f7420617574686f72697a656400000000000000000000000000000000000081525060200191505060405180910390fd5b613b148789600401613e4c90919063ffffffff16565b613b86576040517f08c379a00000000000000000000000000000000000000000000000000000000081526004018080602001828103825260118152602001807f5265636f7264206e6f7420666f756e642e00000000000000000000000000000081525060200191505060405180910390fd5b600060f01b857dffffffffffffffffffffffffffffffffffffffffffffffffffffffffffff191611613c20576040517f08c379a00000000000000000000000000000000000000000000000000000000081526004018080602001828103825260168152602001807f57726f6e67207065726d697373696f6e73207365742e0000000000000000000081525060200191505060405180910390fd5b8573ffffffffffffffffffffffffffffffffffffffff168773ffffffffffffffffffffffffffffffffffffffff1614613c6e57613c5e888787612f8b565b50613c698888611e23565b613cca565b848860060160008873ffffffffffffffffffffffffffffffffffffffff1673ffffffffffffffffffffffffffffffffffffffff16815260200190815260200160002060006101000a81548161ffff021916908360f01c02179055505b7ff4198b630a5831df7cbdb26981a0a5fece69d524f9d5b2bd4daf698b4dfdb2183388604051808373ffffffffffffffffffffffffffffffffffffffff1673ffffffffffffffffffffffffffffffffffffffff1681526020018273ffffffffffffffffffffffffffffffffffffffff1673ffffffffffffffffffffffffffffffffffffffff1681526020019250505060405180910390a17fdf8ecb67ccb8275f1c628a7275de366fac017387946044d9dcd4046962982a4e338787604051808473ffffffffffffffffffffffffffffffffffffffff1673ffffffffffffffffffffffffffffffffffffffff1681526020018373ffffffffffffffffffffffffffffffffffffffff1673ffffffffffffffffffffffffffffffffffffffff168152602001827dffffffffffffffffffffffffffffffffffffffffffffffffffffffffffff19167dffffffffffffffffffffffffffffffffffffffffffffffffffffffffffff19168152602001935050505060405180910390a15050505050505050565b6000613e74836000018373ffffffffffffffffffffffffffffffffffffffff1660001b613f0b565b905092915050565b6000613ea4836000018373ffffffffffffffffffffffffffffffffffffffff1660001b613f2e565b905092915050565b6000613ed4836000018373ffffffffffffffffffffffffffffffffffffffff1660001b614016565b905092915050565b6000613eeb8360000183614086565b60001c905092915050565b6000613f0482600001614109565b9050919050565b600080836001016000848152602001908152602001600020541415905092915050565b6000808360010160008481526020019081526020016000205490506000811461400a5760006001820390506000600186600001805490500390506000866000018281548110613f7957fe5b9060005260206000200154905080876000018481548110613f9657fe5b9060005260206000200181905550600183018760010160008381526020019081526020016000208190555086600001805480613fce57fe5b60019003818190600052602060002001600090559055866001016000878152602001908152602001600020600090556001945050505050614010565b60009150505b92915050565b60006140228383613f0b565b61407b578260000182908060018154018082558091505060019003906000526020600020016000909190919091505582600001805490508360010160008481526020019081526020016000208190555060019050614080565b600090505b92915050565b6000818360000180549050116140e7576040517f08c379a00000000000000000000000000000000000000000000000000000000081526004018080602001828103825260228152602001806141626022913960400191505060405180910390fd5b8260000182815481106140f657fe5b9060005260206000200154905092915050565b600081600001805490509050919050565b6040518060800160405280600073ffffffffffffffffffffffffffffffffffffffff16815260200160008019168152602001600060ff168152602001600060ff168152509056fe456e756d657261626c655365743a20696e646578206f7574206f6620626f756e6473a264697066735822122081e47941341dfd6b186a897383fa076b07992ce7a400310077e8ae3af22076d564736f6c63430006080033",
  "immutableReferences": {},
  "source": "// SPDX-License-Identifier: LGPL-3.0-or-later\npragma solidity ^0.6.0;\n\n/*\n    Organigr.am Contracts Framework - Organ library.\n    This library holds the logic to manage a simple organ.\n*/\n\nimport \"@openzeppelin/contracts/utils/EnumerableSet.sol\";\nimport \"@openzeppelin/contracts/token/ERC721/IERC721.sol\";\nimport \"@openzeppelin/contracts/token/ERC777/IERC777.sol\";\n\nlibrary OrganLibrary {\n    using EnumerableSet for EnumerableSet.AddressSet;\n\n    bytes2 public constant PERMISSION_ADD_PROCEDURE = 0x0001;\n    bytes2 public constant PERMISSION_REMOVE_PROCEDURE = 0x0002;\n    bytes2 public constant PERMISSION_ADD_ENTRIES = 0x0004;\n    bytes2 public constant PERMISSION_REMOVE_ENTRIES = 0x0008;\n    bytes2 public constant PERMISSION_UPDATE_METADATA = 0x0010;\n    bytes2 public constant PERMISSION_DEPOSIT_ETHER = 0x0020;\n    bytes2 public constant PERMISSION_WITHDRAW_ETHER = 0x0040;\n    bytes2 public constant PERMISSION_DEPOSIT_COINS = 0x0080;\n    bytes2 public constant PERMISSION_WITHDRAW_COINS = 0x0100;\n    bytes2 public constant PERMISSION_DEPOSIT_COLLECTIBLES = 0x0200;\n    bytes2 public constant PERMISSION_WITHDRAW_COLLECTIBLES = 0x0400;\n\n    /*\n        Entries are sets of addresses, contracts or documents.\n    */\n    struct Entry {\n        address addr;           // Address if entry is account or a contract.\n        bytes32 ipfsHash;               // ID of proposal on IPFS.\n        uint8 hashFunction;\n        uint8 hashSize;\n    }\n\n    struct OrganData {\n        bytes32 metadataIpfsHash;\n        uint8 metadataHashFunction;\n        uint8 metadataHashSize;\n        uint256 entriesCount;\n        Entry[] entries;\n        EnumerableSet.AddressSet procedures;\n        mapping(address => bytes2) permissions;\n        mapping(address => uint256) addressIndexInEntries;\n    }\n\n    /*\n        Events.\n    */\n\n    event metadataUpdated(address from, bytes32 ipfsHash, uint8 hashFunction, uint8 hashSize);\n    event adminUpdated(address from, address admin);\n    event procedureAdded(address from, address procedure, bytes2 permissions);\n    event procedureRemoved(address from, address procedure);\n    event collectibleTransferred(address operator, address to, uint256 tokenId);\n    event collectibleReceived(address operator, address from, uint256 tokenId);\n    event coinsTransferred(address operator, address from, address to, uint256 amount);\n    event coinsReceived(address operator, address from, address to, uint256 amount);\n    event etherTransferred(address payable from, address to, uint256 amount);\n    event etherReceived(address payable from, uint256 amount);\n    event entryAdded(address from, uint256 index, address addr, bytes32 ipfsHash, uint8 hashFunction, uint8 hashSize);\n    event entryRemoved(address from, uint256 index);\n\n    /*\n        Modifier.\n    */\n\n    modifier onlyPerm(OrganData storage self, bytes2 permission) {\n        require(\n            self.permissions[msg.sender] & permission > 0 ||\n            self.permissions[address(0)] & permission > 0,\n            \"Not authorized\"\n        );\n        _;\n    }\n\n    /*\n        Constructor.\n    */\n\n    function init(\n        OrganData storage self, address defaultAdmin,\n        bytes32 ipfsHash, uint8 hashFunction, uint8 hashSize\n    )\n        public\n    {\n        // Initializing with deployer as admin.\n        address _admin = defaultAdmin != address(0) ? defaultAdmin : msg.sender;\n\n        // Add _admin in procedures set.\n        self.permissions[_admin] = 0xffff;\n        self.procedures.add(_admin);\n\n        // Initializing metadata.\n        self.metadataIpfsHash = ipfsHash;\n        self.metadataHashFunction = hashFunction;\n        self.metadataHashSize = hashSize;\n\n        // @TODO : Check if necessary.\n        Entry memory initEntry;\n        self.entries.push(initEntry);\n    }\n\n    function updateMetadata(\n        OrganData storage self, bytes32 ipfsHash, uint8 hashFunction, uint8 hashSize\n    )\n        public onlyPerm(self, PERMISSION_UPDATE_METADATA)\n    {\n        self.metadataIpfsHash = ipfsHash;\n        self.metadataHashFunction = hashFunction;\n        self.metadataHashSize = hashSize;\n        emit metadataUpdated(msg.sender, ipfsHash, hashFunction, hashSize);\n    }\n\n    /*\n        Assets management.\n    */\n\n    function transferCollectible(\n        OrganData storage self, address operator, address from,\n        address to, uint256 tokenId\n    )\n        public onlyPerm(self, PERMISSION_WITHDRAW_COLLECTIBLES)\n    {\n        // @note Organ must be the owner, approved, or operator of ERC-721.\n        IERC721(operator).safeTransferFrom(from, to, tokenId);\n        emit collectibleTransferred(operator, to, tokenId);\n    }\n\n    function receiveCollectible(\n        OrganData storage self, address operator,\n        address from, uint256 tokenId\n    )\n        public onlyPerm(self, PERMISSION_DEPOSIT_COLLECTIBLES)\n    {\n        emit collectibleReceived(operator, from, tokenId);\n    }\n\n    function transferCoins(\n        OrganData storage self, address operator,\n        address from, address to, uint256 amount\n    )\n        public onlyPerm(self, PERMISSION_WITHDRAW_COINS)\n    {\n        bytes memory data;\n        IERC777(operator).send(to, amount, data);\n        emit coinsTransferred(operator, from, to, amount);\n    }\n\n    function receiveCoins(\n        OrganData storage self, address operator,\n        address from, address to, uint256 amount\n    )\n        public onlyPerm(self, PERMISSION_DEPOSIT_COINS)\n    {\n        emit coinsReceived(operator, from, to, amount);\n    }\n\n    function transferEther(OrganData storage self, address payable to, uint256 value)\n        public onlyPerm(self, PERMISSION_WITHDRAW_ETHER)\n    {\n        to.transfer(value);\n        emit etherTransferred(msg.sender, to, value);\n    }\n\n    function receiveEther(OrganData storage self, uint256 value)\n        public onlyPerm(self, PERMISSION_DEPOSIT_ETHER)\n    {\n        emit etherReceived(msg.sender, value);\n    }\n\n    /*\n        Procedures management.\n    */\n\n    function removeProcedure(OrganData storage self, address procedure)\n        public onlyPerm(self, PERMISSION_REMOVE_PROCEDURE)\n    {\n        // Check procedure is already there.\n        require(self.procedures.contains(procedure), \"Record not found.\");\n        // Remove from Procedures set.\n        self.procedures.remove(procedure);\n        self.permissions[procedure] = bytes2(0);\n        emit procedureRemoved(msg.sender, procedure);\n    }\n\n    function addProcedure(OrganData storage self, address procedure, bytes2 permissions)\n        public onlyPerm(self, PERMISSION_ADD_PROCEDURE)\n        returns (uint256 index)\n    {\n        // Check new procedure is not already there.\n        require(!self.procedures.contains(procedure), \"Duplicate record.\");\n        // Check new procedure has permissions.\n        require(permissions != 0x0000, \"Wrong permissions set.\");\n\n        // Store procedures.\n        self.procedures.add(procedure);\n        self.permissions[procedure] = permissions;\n        emit procedureAdded(msg.sender, procedure, permissions);\n        return index;\n    }\n\n    function replaceProcedure (\n        OrganData storage self, address oldProcedure, address newProcedure,\n        bytes2 permissions\n    )\n        public\n        onlyPerm(self, PERMISSION_REMOVE_PROCEDURE)\n        onlyPerm(self, PERMISSION_ADD_PROCEDURE)\n    {\n        // Check old procedure will be removable before adding.\n        require(self.procedures.contains(oldProcedure), \"Record not found.\");\n        // Check new procedure has permissions.\n        require(permissions > 0, \"Wrong permissions set.\");\n\n        // Check if we are replacing a master with another, or updating permissions.\n        if (oldProcedure != newProcedure) {\n            addProcedure(self, newProcedure, permissions);\n            removeProcedure(self, oldProcedure);\n        }\n        else {\n            // Update permissions.\n            self.permissions[newProcedure] = permissions;\n        }\n        // Trigger events.\n        emit procedureRemoved(msg.sender, oldProcedure);\n        emit procedureAdded(msg.sender, newProcedure, permissions);\n    }\n\n    /**\n        Entries management.\n    */\n\n    function removeEntry(OrganData storage self, uint index)\n        public\n    {\n        // Check sender is allowed:\n        // - Sender is admin.\n        // - Entry number is trying to delete itself.\n        address addr = self.entries[index].addr;\n        // @TODO : Should an entry be able to delete itself?\n        require(\n            self.permissions[msg.sender] & PERMISSION_REMOVE_ENTRIES > 0 ||\n            addr == msg.sender,\n            \"Not authorized.\"\n        );\n        // Removing entry from entries.\n        delete self.entries[index];\n        self.entriesCount--;\n        // Deleting entry index.\n        self.addressIndexInEntries[addr] = 0;\n        // Logging event.\n        emit entryRemoved(msg.sender, index);\n    }\n\n    function addEntry(\n        OrganData storage self, address addr,\n        bytes32 ipfsHash, uint8 hashFunction, uint8 hashSize\n    )\n        public\n        onlyPerm(self, PERMISSION_ADD_ENTRIES)\n        returns (uint index)\n    {\n        // If the entry has an address, we check that the address has not been used before.\n        if (addr != address(0)) {\n            require(self.addressIndexInEntries[addr] == 0, \"Duplicate record.\");\n        }\n        // Adding the entry.\n        self.entries.push(Entry({\n            addr: addr,\n            ipfsHash: ipfsHash,\n            hashFunction: hashFunction,\n            hashSize: hashSize\n        }));\n        // Registering entry position relative to its address.\n        index = self.entries.length - 1;\n        self.addressIndexInEntries[addr] = index;\n        // Incrementing entries counter.\n        self.entriesCount++;\n        emit entryAdded(msg.sender, index, addr,  ipfsHash,  hashFunction,  hashSize);\n        // Registering the address as active\n        return index;\n    }\n\n    function replaceEntry(\n        OrganData storage self, uint index, address addr,\n        bytes32 ipfsHash, uint8 hashFunction, uint8 hashSize\n    )\n        public\n        onlyPerm(self, PERMISSION_REMOVE_ENTRIES)\n        onlyPerm(self, PERMISSION_ADD_ENTRIES)\n    {\n        // Check that the replacing address is not registered.\n        if (addr != address(0)) {\n            require(self.addressIndexInEntries[addr] > 0, \"Record not found.\");\n        }\n        self.addressIndexInEntries[self.entries[index].addr] = 0;\n        emit entryRemoved(msg.sender, index);\n\n        self.entries[index] = Entry({\n            addr: addr,\n            ipfsHash: ipfsHash,\n            hashFunction: hashFunction,\n            hashSize: hashSize\n        });\n\n        self.addressIndexInEntries[addr] = index;\n        emit entryAdded(msg.sender, index,  addr, ipfsHash,  hashFunction,  hashSize);\n    }\n\n    function getProceduresLength(OrganData storage self)\n        public view returns (uint256 length)\n    {\n        return self.procedures.length();\n    }\n\n    function getProcedure(OrganData storage self, uint256 index)\n        public view returns (address procedure, bytes2 permissions)\n    {\n        procedure = self.procedures.at(index);\n        return (\n            procedure,\n            getPermissions(self, procedure)\n        );\n    }\n\n    function getPermissions(OrganData storage self, address procedure)\n        public view returns (bytes2 permissions)\n    {\n        return self.permissions[procedure];\n    }\n\n    function getMetadata(OrganData storage self)\n        public view returns (bytes32 ipfsHash, uint8 hashFunction, uint8 hashSize)\n    {\n        return (\n            self.metadataIpfsHash,\n            self.metadataHashFunction,\n            self.metadataHashSize\n        );\n    }\n}",
  "sourcePath": "/contracts/libraries/OrganLibrary.sol",
  "compiler": {
    "name": "solc",
    "version": "0.6.8+commit.0bbfe453.Emscripten.clang"
  },
  "schemaVersion": "3.2.4",
  "updatedAt": "2020-09-05T18:59:00.917Z",
  "networkType": "ethereum",
  "devdoc": {
    "methods": {}
  },
  "userdoc": {
    "methods": {
      "removeEntry(OrganLibrary.OrganData storage,uint256)": {
        "notice": "Entries management."
      }
    }
  }
}