{
  "contractName": "OrganLibrary",
  "abi": [
    {
      "anonymous": false,
      "inputs": [
        {
          "indexed": false,
          "internalType": "address",
          "name": "from",
          "type": "address"
        },
        {
          "indexed": false,
          "internalType": "address",
          "name": "admin",
          "type": "address"
        }
      ],
      "name": "adminUpdated",
      "type": "event"
    },
    {
      "anonymous": false,
      "inputs": [
        {
          "indexed": false,
          "internalType": "address",
          "name": "operator",
          "type": "address"
        },
        {
          "indexed": false,
          "internalType": "address",
          "name": "from",
          "type": "address"
        },
        {
          "indexed": false,
          "internalType": "address",
          "name": "to",
          "type": "address"
        },
        {
          "indexed": false,
          "internalType": "uint256",
          "name": "amount",
          "type": "uint256"
        }
      ],
      "name": "coinsReceived",
      "type": "event"
    },
    {
      "anonymous": false,
      "inputs": [
        {
          "indexed": false,
          "internalType": "address",
          "name": "operator",
          "type": "address"
        },
        {
          "indexed": false,
          "internalType": "address",
          "name": "from",
          "type": "address"
        },
        {
          "indexed": false,
          "internalType": "address",
          "name": "to",
          "type": "address"
        },
        {
          "indexed": false,
          "internalType": "uint256",
          "name": "amount",
          "type": "uint256"
        }
      ],
      "name": "coinsTransferred",
      "type": "event"
    },
    {
      "anonymous": false,
      "inputs": [
        {
          "indexed": false,
          "internalType": "address",
          "name": "operator",
          "type": "address"
        },
        {
          "indexed": false,
          "internalType": "address",
          "name": "from",
          "type": "address"
        },
        {
          "indexed": false,
          "internalType": "uint256",
          "name": "tokenId",
          "type": "uint256"
        }
      ],
      "name": "collectibleReceived",
      "type": "event"
    },
    {
      "anonymous": false,
      "inputs": [
        {
          "indexed": false,
          "internalType": "address",
          "name": "operator",
          "type": "address"
        },
        {
          "indexed": false,
          "internalType": "address",
          "name": "to",
          "type": "address"
        },
        {
          "indexed": false,
          "internalType": "uint256",
          "name": "tokenId",
          "type": "uint256"
        }
      ],
      "name": "collectibleTransferred",
      "type": "event"
    },
    {
      "anonymous": false,
      "inputs": [
        {
          "indexed": false,
          "internalType": "address",
          "name": "from",
          "type": "address"
        },
        {
          "indexed": false,
          "internalType": "uint256",
          "name": "index",
          "type": "uint256"
        },
        {
          "indexed": false,
          "internalType": "address",
          "name": "addr",
          "type": "address"
        },
        {
          "indexed": false,
          "internalType": "bytes32",
          "name": "ipfsHash",
          "type": "bytes32"
        },
        {
          "indexed": false,
          "internalType": "uint8",
          "name": "hashFunction",
          "type": "uint8"
        },
        {
          "indexed": false,
          "internalType": "uint8",
          "name": "hashSize",
          "type": "uint8"
        }
      ],
      "name": "entryAdded",
      "type": "event"
    },
    {
      "anonymous": false,
      "inputs": [
        {
          "indexed": false,
          "internalType": "address",
          "name": "from",
          "type": "address"
        },
        {
          "indexed": false,
          "internalType": "uint256",
          "name": "index",
          "type": "uint256"
        }
      ],
      "name": "entryRemoved",
      "type": "event"
    },
    {
      "anonymous": false,
      "inputs": [
        {
          "indexed": false,
          "internalType": "address payable",
          "name": "from",
          "type": "address"
        },
        {
          "indexed": false,
          "internalType": "uint256",
          "name": "amount",
          "type": "uint256"
        }
      ],
      "name": "etherReceived",
      "type": "event"
    },
    {
      "anonymous": false,
      "inputs": [
        {
          "indexed": false,
          "internalType": "address payable",
          "name": "from",
          "type": "address"
        },
        {
          "indexed": false,
          "internalType": "address",
          "name": "to",
          "type": "address"
        },
        {
          "indexed": false,
          "internalType": "uint256",
          "name": "amount",
          "type": "uint256"
        }
      ],
      "name": "etherTransferred",
      "type": "event"
    },
    {
      "anonymous": false,
      "inputs": [
        {
          "indexed": false,
          "internalType": "address",
          "name": "from",
          "type": "address"
        },
        {
          "indexed": false,
          "internalType": "bytes32",
          "name": "ipfsHash",
          "type": "bytes32"
        },
        {
          "indexed": false,
          "internalType": "uint8",
          "name": "hashFunction",
          "type": "uint8"
        },
        {
          "indexed": false,
          "internalType": "uint8",
          "name": "hashSize",
          "type": "uint8"
        }
      ],
      "name": "metadataUpdated",
      "type": "event"
    },
    {
      "anonymous": false,
      "inputs": [
        {
          "indexed": false,
          "internalType": "address",
          "name": "from",
          "type": "address"
        },
        {
          "indexed": false,
          "internalType": "address",
          "name": "procedure",
          "type": "address"
        },
        {
          "indexed": false,
          "internalType": "bytes2",
          "name": "permissions",
          "type": "bytes2"
        }
      ],
      "name": "procedureAdded",
      "type": "event"
    },
    {
      "anonymous": false,
      "inputs": [
        {
          "indexed": false,
          "internalType": "address",
          "name": "from",
          "type": "address"
        },
        {
          "indexed": false,
          "internalType": "address",
          "name": "procedure",
          "type": "address"
        }
      ],
      "name": "procedureRemoved",
      "type": "event"
    },
    {
      "inputs": [],
      "name": "PERMISSION_ADD_ENTRIES",
      "outputs": [
        {
          "internalType": "bytes2",
          "name": "",
          "type": "bytes2"
        }
      ],
      "stateMutability": "view",
      "type": "function",
      "constant": true
    },
    {
      "inputs": [],
      "name": "PERMISSION_ADD_PROCEDURE",
      "outputs": [
        {
          "internalType": "bytes2",
          "name": "",
          "type": "bytes2"
        }
      ],
      "stateMutability": "view",
      "type": "function",
      "constant": true
    },
    {
      "inputs": [],
      "name": "PERMISSION_DEPOSIT_COINS",
      "outputs": [
        {
          "internalType": "bytes2",
          "name": "",
          "type": "bytes2"
        }
      ],
      "stateMutability": "view",
      "type": "function",
      "constant": true
    },
    {
      "inputs": [],
      "name": "PERMISSION_DEPOSIT_COLLECTIBLES",
      "outputs": [
        {
          "internalType": "bytes2",
          "name": "",
          "type": "bytes2"
        }
      ],
      "stateMutability": "view",
      "type": "function",
      "constant": true
    },
    {
      "inputs": [],
      "name": "PERMISSION_DEPOSIT_ETHER",
      "outputs": [
        {
          "internalType": "bytes2",
          "name": "",
          "type": "bytes2"
        }
      ],
      "stateMutability": "view",
      "type": "function",
      "constant": true
    },
    {
      "inputs": [],
      "name": "PERMISSION_REMOVE_ENTRIES",
      "outputs": [
        {
          "internalType": "bytes2",
          "name": "",
          "type": "bytes2"
        }
      ],
      "stateMutability": "view",
      "type": "function",
      "constant": true
    },
    {
      "inputs": [],
      "name": "PERMISSION_REMOVE_PROCEDURE",
      "outputs": [
        {
          "internalType": "bytes2",
          "name": "",
          "type": "bytes2"
        }
      ],
      "stateMutability": "view",
      "type": "function",
      "constant": true
    },
    {
      "inputs": [],
      "name": "PERMISSION_UPDATE_METADATA",
      "outputs": [
        {
          "internalType": "bytes2",
          "name": "",
          "type": "bytes2"
        }
      ],
      "stateMutability": "view",
      "type": "function",
      "constant": true
    },
    {
      "inputs": [],
      "name": "PERMISSION_WITHDRAW_COINS",
      "outputs": [
        {
          "internalType": "bytes2",
          "name": "",
          "type": "bytes2"
        }
      ],
      "stateMutability": "view",
      "type": "function",
      "constant": true
    },
    {
      "inputs": [],
      "name": "PERMISSION_WITHDRAW_COLLECTIBLES",
      "outputs": [
        {
          "internalType": "bytes2",
          "name": "",
          "type": "bytes2"
        }
      ],
      "stateMutability": "view",
      "type": "function",
      "constant": true
    },
    {
      "inputs": [],
      "name": "PERMISSION_WITHDRAW_ETHER",
      "outputs": [
        {
          "internalType": "bytes2",
          "name": "",
          "type": "bytes2"
        }
      ],
      "stateMutability": "view",
      "type": "function",
      "constant": true
    }
  ],
  "bytecode": "0x613f6c610026600b82828239805160001a60731461001957fe5b30600052607381538281f3fe73000000000000000000000000000000000000000030146080604052600436106101d95760003560e01c8063784fced91161010e5780638e15bab7116100ac578063b0bd74a41161007b578063b0bd74a4146105a6578063ca42cca8146105cf578063f59263df146105ff578063f8c99c3614610628576101d9565b80638e15bab7146104f0578063945fb436146105195780639710d1811461054b57806399f3d1db14610569576101d9565b8063863e5d16116100e8578063863e5d161461045a57806388c7fc541461048b5780638a8b325a146104a95780638d6ee760146104d2576101d9565b8063784fced9146103e15780638114cbea1461041e578063842519fb1461043c576101d9565b80633974fa331161017b578063432787d911610155578063432787d91461034857806350be2a0d146103715780636337a8d51461039a57806374771eb4146103b8576101d9565b80633974fa33146102d85780633b1a16cf146103015780633d6a19161461031f576101d9565b8063112460fc116101b7578063112460fc146102435780631ceaa38a1461026157806320069ef81461028a5780632d2a4205146102ba576101d9565b8063051488a8146101de578063062685aa146101fc5780630ac08b491461021a575b600080fd5b6101e6610651565b6040516101f39190613b70565b60405180910390f35b61020461065a565b6040516102119190613b70565b60405180910390f35b81801561022657600080fd5b50610241600480360381019061023c919061353b565b610662565b005b61024b610bd6565b6040516102589190613b70565b60405180910390f35b81801561026d57600080fd5b50610288600480360381019061028391906131f1565b610bde565b005b6102a4600480360381019061029f9190613166565b610dd3565b6040516102b19190613b70565b60405180910390f35b6102c2610e2c565b6040516102cf9190613b70565b60405180910390f35b8180156102e457600080fd5b506102ff60048036038101906102fa9190613166565b610e34565b005b61030961107a565b6040516103169190613b70565b60405180910390f35b81801561032b57600080fd5b50610346600480360381019061034191906134ff565b611083565b005b81801561035457600080fd5b5061036f600480360381019061036a91906131a2565b6111fe565b005b81801561037d57600080fd5b50610398600480360381019061039391906131f1565b6113c3565b005b6103a26115b3565b6040516103af9190613b70565b60405180910390f35b8180156103c457600080fd5b506103df60048036038101906103da919061337d565b6115bb565b005b8180156103ed57600080fd5b50610408600480360381019061040391906133f4565b611789565b6040516104159190613b4e565b60405180910390f35b610426611c91565b6040516104339190613b70565b60405180910390f35b610444611c99565b6040516104519190613b70565b60405180910390f35b610474600480360381019061046f91906134ff565b611ca2565b604051610482929190613ae7565b60405180910390f35b610493611cd3565b6040516104a09190613b70565b60405180910390f35b8180156104b557600080fd5b506104d060048036038101906104cb91906132cb565b611cdb565b005b6104da611e5b565b6040516104e79190613b70565b60405180910390f35b8180156104fc57600080fd5b5061051760048036038101906105129190613448565b611e63565b005b610533600480360381019061052e919061313d565b612182565b60405161054293929190613b8b565b60405180910390f35b6105536121bd565b6040516105609190613b70565b60405180910390f35b81801561057557600080fd5b50610590600480360381019061058b919061332e565b6121c5565b60405161059d9190613c82565b60405180910390f35b8180156105b257600080fd5b506105cd60048036038101906105c891906131f1565b61247a565b005b6105e960048036038101906105e4919061313d565b6125fc565b6040516105f69190613c82565b60405180910390f35b81801561060b57600080fd5b506106266004803603810190610621919061349c565b612611565b005b81801561063457600080fd5b5061064f600480360381019061064a9190613268565b6127d5565b005b61010060f01b81565b600160f01b81565b85600860f01b600060f01b818360060160003373ffffffffffffffffffffffffffffffffffffffff1673ffffffffffffffffffffffffffffffffffffffff16815260200190815260200160002060009054906101000a900460f01b167dffffffffffffffffffffffffffffffffffffffffffffffffffffffffffff1916118061075f5750600060f01b818360060160008073ffffffffffffffffffffffffffffffffffffffff1673ffffffffffffffffffffffffffffffffffffffff16815260200190815260200160002060009054906101000a900460f01b167dffffffffffffffffffffffffffffffffffffffffffffffffffffffffffff1916115b61079e576040517f08c379a000000000000000000000000000000000000000000000000000000000815260040161079590613c62565b60405180910390fd5b87600460f01b600060f01b818360060160003373ffffffffffffffffffffffffffffffffffffffff1673ffffffffffffffffffffffffffffffffffffffff16815260200190815260200160002060009054906101000a900460f01b167dffffffffffffffffffffffffffffffffffffffffffffffffffffffffffff1916118061089b5750600060f01b818360060160008073ffffffffffffffffffffffffffffffffffffffff1673ffffffffffffffffffffffffffffffffffffffff16815260200190815260200160002060009054906101000a900460f01b167dffffffffffffffffffffffffffffffffffffffffffffffffffffffffffff1916115b6108da576040517f08c379a00000000000000000000000000000000000000000000000000000000081526004016108d190613c62565b60405180910390fd5b600073ffffffffffffffffffffffffffffffffffffffff168873ffffffffffffffffffffffffffffffffffffffff16146109935760008a60070160008a73ffffffffffffffffffffffffffffffffffffffff1673ffffffffffffffffffffffffffffffffffffffff1681526020019081526020016000205411610992576040517f08c379a000000000000000000000000000000000000000000000000000000000815260040161098990613c22565b60405180910390fd5b5b60008a60070160008c6003018c815481106109aa57fe5b906000526020600020906003020160000160009054906101000a900473ffffffffffffffffffffffffffffffffffffffff1673ffffffffffffffffffffffffffffffffffffffff1673ffffffffffffffffffffffffffffffffffffffff168152602001908152602001600020819055507fb66f1ae02a95bcbfd5cb608041f8225a5fd4bda29310bd2541e95c1c8ff04d78338a604051610a4b9291906139e1565b60405180910390a160405180608001604052808973ffffffffffffffffffffffffffffffffffffffff1681526020018881526020018760ff1681526020018660ff168152508a6003018a81548110610a9f57fe5b906000526020600020906003020160008201518160000160006101000a81548173ffffffffffffffffffffffffffffffffffffffff021916908373ffffffffffffffffffffffffffffffffffffffff1602179055506020820151816001015560408201518160020160006101000a81548160ff021916908360ff16021790555060608201518160020160016101000a81548160ff021916908360ff160217905550905050888a60070160008a73ffffffffffffffffffffffffffffffffffffffff1673ffffffffffffffffffffffffffffffffffffffff168152602001908152602001600020819055507fd69b7226f1251eb6f1e431842eafe1006caea6c470815a494fe34f5ef9e4c36a338a8a8a8a8a604051610bc296959493929190613a0a565b60405180910390a150505050505050505050565b600260f01b81565b8461010060f01b600060f01b818360060160003373ffffffffffffffffffffffffffffffffffffffff1673ffffffffffffffffffffffffffffffffffffffff16815260200190815260200160002060009054906101000a900460f01b167dffffffffffffffffffffffffffffffffffffffffffffffffffffffffffff19161180610cdc5750600060f01b818360060160008073ffffffffffffffffffffffffffffffffffffffff1673ffffffffffffffffffffffffffffffffffffffff16815260200190815260200160002060009054906101000a900460f01b167dffffffffffffffffffffffffffffffffffffffffffffffffffffffffffff1916115b610d1b576040517f08c379a0000000000000000000000000000000000000000000000000000000008152600401610d1290613c62565b60405180910390fd5b60608673ffffffffffffffffffffffffffffffffffffffff16639bd9bbc68686846040518463ffffffff1660e01b8152600401610d5a93929190613b10565b600060405180830381600087803b158015610d7457600080fd5b505af1158015610d88573d6000803e3d6000fd5b505050507f9df0034edd0538407262676cf5883fee08c9655adc9aa709deaf4d58fc3946e887878787604051610dc19493929190613a6b565b60405180910390a15050505050505050565b60008260060160008373ffffffffffffffffffffffffffffffffffffffff1673ffffffffffffffffffffffffffffffffffffffff16815260200190815260200160002060009054906101000a900460f01b905092915050565b602060f01b81565b81600260f01b600060f01b818360060160003373ffffffffffffffffffffffffffffffffffffffff1673ffffffffffffffffffffffffffffffffffffffff16815260200190815260200160002060009054906101000a900460f01b167dffffffffffffffffffffffffffffffffffffffffffffffffffffffffffff19161180610f315750600060f01b818360060160008073ffffffffffffffffffffffffffffffffffffffff1673ffffffffffffffffffffffffffffffffffffffff16815260200190815260200160002060009054906101000a900460f01b167dffffffffffffffffffffffffffffffffffffffffffffffffffffffffffff1916115b610f70576040517f08c379a0000000000000000000000000000000000000000000000000000000008152600401610f6790613c62565b60405180910390fd5b610f868385600401612c3190919063ffffffff16565b610fc5576040517f08c379a0000000000000000000000000000000000000000000000000000000008152600401610fbc90613c22565b60405180910390fd5b610fdb8385600401612c6190919063ffffffff16565b50600060f01b8460060160008573ffffffffffffffffffffffffffffffffffffffff1673ffffffffffffffffffffffffffffffffffffffff16815260200190815260200160002060006101000a81548161ffff021916908360f01c02179055507ff4198b630a5831df7cbdb26981a0a5fece69d524f9d5b2bd4daf698b4dfdb218338460405161106c9291906138dc565b60405180910390a150505050565b61040060f01b81565b81602060f01b600060f01b818360060160003373ffffffffffffffffffffffffffffffffffffffff1673ffffffffffffffffffffffffffffffffffffffff16815260200190815260200160002060009054906101000a900460f01b167dffffffffffffffffffffffffffffffffffffffffffffffffffffffffffff191611806111805750600060f01b818360060160008073ffffffffffffffffffffffffffffffffffffffff1673ffffffffffffffffffffffffffffffffffffffff16815260200190815260200160002060009054906101000a900460f01b167dffffffffffffffffffffffffffffffffffffffffffffffffffffffffffff1916115b6111bf576040517f08c379a00000000000000000000000000000000000000000000000000000000081526004016111b690613c62565b60405180910390fd5b7fcbbd8e1693c80baea4b26f9f5b28e2fea72633c6953e2dc612f123c5b8cf9d4933846040516111f09291906139b8565b60405180910390a150505050565b82604060f01b600060f01b818360060160003373ffffffffffffffffffffffffffffffffffffffff1673ffffffffffffffffffffffffffffffffffffffff16815260200190815260200160002060009054906101000a900460f01b167dffffffffffffffffffffffffffffffffffffffffffffffffffffffffffff191611806112fb5750600060f01b818360060160008073ffffffffffffffffffffffffffffffffffffffff1673ffffffffffffffffffffffffffffffffffffffff16815260200190815260200160002060009054906101000a900460f01b167dffffffffffffffffffffffffffffffffffffffffffffffffffffffffffff1916115b61133a576040517f08c379a000000000000000000000000000000000000000000000000000000000815260040161133190613c62565b60405180910390fd5b8373ffffffffffffffffffffffffffffffffffffffff166108fc849081150290604051600060405180830381858888f19350505050158015611380573d6000803e3d6000fd5b507f888f4e5e3828b86878e550f0d9966a72db1fa81bed7bd7537481075f6b2c237d3385856040516113b493929190613905565b60405180910390a15050505050565b8461040060f01b600060f01b818360060160003373ffffffffffffffffffffffffffffffffffffffff1673ffffffffffffffffffffffffffffffffffffffff16815260200190815260200160002060009054906101000a900460f01b167dffffffffffffffffffffffffffffffffffffffffffffffffffffffffffff191611806114c15750600060f01b818360060160008073ffffffffffffffffffffffffffffffffffffffff1673ffffffffffffffffffffffffffffffffffffffff16815260200190815260200160002060009054906101000a900460f01b167dffffffffffffffffffffffffffffffffffffffffffffffffffffffffffff1916115b611500576040517f08c379a00000000000000000000000000000000000000000000000000000000081526004016114f790613c62565b60405180910390fd5b8573ffffffffffffffffffffffffffffffffffffffff166342842e0e8686866040518463ffffffff1660e01b815260040161153d93929190613ab0565b600060405180830381600087803b15801561155757600080fd5b505af115801561156b573d6000803e3d6000fd5b505050507f8e804bbf6f6b1556cf1371c58fce001012969e584497e633a931750c479c70a78685856040516115a293929190613ab0565b60405180910390a150505050505050565b600860f01b81565b60008073ffffffffffffffffffffffffffffffffffffffff168573ffffffffffffffffffffffffffffffffffffffff1614156115f757336115f9565b845b905061ffff60f01b8660060160008373ffffffffffffffffffffffffffffffffffffffff1673ffffffffffffffffffffffffffffffffffffffff16815260200190815260200160002060006101000a81548161ffff021916908360f01c02179055506116718187600401612c9190919063ffffffff16565b50838660000181905550828660010160006101000a81548160ff021916908360ff160217905550818660010160016101000a81548160ff021916908360ff1602179055506116bd612ee9565b8660030181908060018154018082558091505060019003906000526020600020906003020160009091909190915060008201518160000160006101000a81548173ffffffffffffffffffffffffffffffffffffffff021916908373ffffffffffffffffffffffffffffffffffffffff1602179055506020820151816001015560408201518160020160006101000a81548160ff021916908360ff16021790555060608201518160020160016101000a81548160ff021916908360ff160217905550505050505050505050565b606082600460f01b600060f01b818360060160003373ffffffffffffffffffffffffffffffffffffffff1673ffffffffffffffffffffffffffffffffffffffff16815260200190815260200160002060009054906101000a900460f01b167dffffffffffffffffffffffffffffffffffffffffffffffffffffffffffff191611806118885750600060f01b818360060160008073ffffffffffffffffffffffffffffffffffffffff1673ffffffffffffffffffffffffffffffffffffffff16815260200190815260200160002060009054906101000a900460f01b167dffffffffffffffffffffffffffffffffffffffffffffffffffffffffffff1916115b6118c7576040517f08c379a00000000000000000000000000000000000000000000000000000000081526004016118be90613c62565b60405180910390fd5b600084511161190b576040517f08c379a000000000000000000000000000000000000000000000000000000000815260040161190290613c02565b60405180910390fd5b835167ffffffffffffffff8111801561192357600080fd5b506040519080825280602002602001820160405280156119525781602001602082028036833780820191505090505b50925060008090505b8451811015611c8557600073ffffffffffffffffffffffffffffffffffffffff1685828151811061198857fe5b60200260200101516000015173ffffffffffffffffffffffffffffffffffffffff1614611a4b5760008660070160008784815181106119c357fe5b60200260200101516000015173ffffffffffffffffffffffffffffffffffffffff1673ffffffffffffffffffffffffffffffffffffffff1681526020019081526020016000205414611a4a576040517f08c379a0000000000000000000000000000000000000000000000000000000008152600401611a4190613c42565b60405180910390fd5b5b85600301858281518110611a5b57fe5b6020026020010151908060018154018082558091505060019003906000526020600020906003020160009091909190915060008201518160000160006101000a81548173ffffffffffffffffffffffffffffffffffffffff021916908373ffffffffffffffffffffffffffffffffffffffff1602179055506020820151816001015560408201518160020160006101000a81548160ff021916908360ff16021790555060608201518160020160016101000a81548160ff021916908360ff16021790555050506001866003018054905003848281518110611b3857fe5b602002602001018181525050838181518110611b5057fe5b6020026020010151866007016000878481518110611b6a57fe5b60200260200101516000015173ffffffffffffffffffffffffffffffffffffffff1673ffffffffffffffffffffffffffffffffffffffff1681526020019081526020016000208190555085600201600081548092919060010191905055507fd69b7226f1251eb6f1e431842eafe1006caea6c470815a494fe34f5ef9e4c36a33858381518110611bf657fe5b6020026020010151878481518110611c0a57fe5b602002602001015160000151888581518110611c2257fe5b602002602001015160200151898681518110611c3a57fe5b6020026020010151604001518a8781518110611c5257fe5b602002602001015160600151604051611c7096959493929190613a0a565b60405180910390a1808060010191505061195b565b50829250505092915050565b601060f01b81565b61020060f01b81565b600080611cbb8385600401612cc190919063ffffffff16565b915081611cc88584610dd3565b915091509250929050565b604060f01b81565b8361020060f01b600060f01b818360060160003373ffffffffffffffffffffffffffffffffffffffff1673ffffffffffffffffffffffffffffffffffffffff16815260200190815260200160002060009054906101000a900460f01b167dffffffffffffffffffffffffffffffffffffffffffffffffffffffffffff19161180611dd95750600060f01b818360060160008073ffffffffffffffffffffffffffffffffffffffff1673ffffffffffffffffffffffffffffffffffffffff16815260200190815260200160002060009054906101000a900460f01b167dffffffffffffffffffffffffffffffffffffffffffffffffffffffffffff1916115b611e18576040517f08c379a0000000000000000000000000000000000000000000000000000000008152600401611e0f90613c62565b60405180910390fd5b7fe5e97c239ef97530361e497f81ff5c1271fd4ea83a1876459ace5eea3e428fac858585604051611e4b93929190613ab0565b60405180910390a1505050505050565b600460f01b81565b81600860f01b600060f01b818360060160003373ffffffffffffffffffffffffffffffffffffffff1673ffffffffffffffffffffffffffffffffffffffff16815260200190815260200160002060009054906101000a900460f01b167dffffffffffffffffffffffffffffffffffffffffffffffffffffffffffff19161180611f605750600060f01b818360060160008073ffffffffffffffffffffffffffffffffffffffff1673ffffffffffffffffffffffffffffffffffffffff16815260200190815260200160002060009054906101000a900460f01b167dffffffffffffffffffffffffffffffffffffffffffffffffffffffffffff1916115b611f9f576040517f08c379a0000000000000000000000000000000000000000000000000000000008152600401611f9690613c62565b60405180910390fd5b60008090505b835181101561217b57600085600301858381518110611fc057fe5b602002602001015181548110611fd257fe5b906000526020600020906003020160000160009054906101000a900473ffffffffffffffffffffffffffffffffffffffff1690508560030185838151811061201657fe5b60200260200101518154811061202857fe5b9060005260206000209060030201600080820160006101000a81549073ffffffffffffffffffffffffffffffffffffffff021916905560018201600090556002820160006101000a81549060ff02191690556002820160016101000a81549060ff02191690555050856002016000815480929190600190039190505550600073ffffffffffffffffffffffffffffffffffffffff168173ffffffffffffffffffffffffffffffffffffffff16146121215760008660070160008373ffffffffffffffffffffffffffffffffffffffff1673ffffffffffffffffffffffffffffffffffffffff168152602001908152602001600020819055505b7fb66f1ae02a95bcbfd5cb608041f8225a5fd4bda29310bd2541e95c1c8ff04d783386848151811061214f57fe5b60200260200101516040516121659291906139e1565b60405180910390a1508080600101915050611fa5565b5050505050565b600080600083600001548460010160009054906101000a900460ff168560010160019054906101000a900460ff169250925092509193909250565b608060f01b81565b600083600160f01b600060f01b818360060160003373ffffffffffffffffffffffffffffffffffffffff1673ffffffffffffffffffffffffffffffffffffffff16815260200190815260200160002060009054906101000a900460f01b167dffffffffffffffffffffffffffffffffffffffffffffffffffffffffffff191611806122c45750600060f01b818360060160008073ffffffffffffffffffffffffffffffffffffffff1673ffffffffffffffffffffffffffffffffffffffff16815260200190815260200160002060009054906101000a900460f01b167dffffffffffffffffffffffffffffffffffffffffffffffffffffffffffff1916115b612303576040517f08c379a00000000000000000000000000000000000000000000000000000000081526004016122fa90613c62565b60405180910390fd5b6123198587600401612c3190919063ffffffff16565b15612359576040517f08c379a000000000000000000000000000000000000000000000000000000000815260040161235090613c42565b60405180910390fd5b600060f01b847dffffffffffffffffffffffffffffffffffffffffffffffffffffffffffff191614156123c1576040517f08c379a00000000000000000000000000000000000000000000000000000000081526004016123b890613be2565b60405180910390fd5b6123d78587600401612c9190919063ffffffff16565b50838660060160008773ffffffffffffffffffffffffffffffffffffffff1673ffffffffffffffffffffffffffffffffffffffff16815260200190815260200160002060006101000a81548161ffff021916908360f01c02179055507fdf8ecb67ccb8275f1c628a7275de366fac017387946044d9dcd4046962982a4e3386866040516124669392919061393c565b60405180910390a182925050509392505050565b84608060f01b600060f01b818360060160003373ffffffffffffffffffffffffffffffffffffffff1673ffffffffffffffffffffffffffffffffffffffff16815260200190815260200160002060009054906101000a900460f01b167dffffffffffffffffffffffffffffffffffffffffffffffffffffffffffff191611806125775750600060f01b818360060160008073ffffffffffffffffffffffffffffffffffffffff1673ffffffffffffffffffffffffffffffffffffffff16815260200190815260200160002060009054906101000a900460f01b167dffffffffffffffffffffffffffffffffffffffffffffffffffffffffffff1916115b6125b6576040517f08c379a00000000000000000000000000000000000000000000000000000000081526004016125ad90613c62565b60405180910390fd5b7f2cd05e0dd8d1973240403d6f7b5af34f709ea79a0f5199fcc9ebc4102919fd40868686866040516125eb9493929190613a6b565b60405180910390a150505050505050565b600061260a82600401612cdb565b9050919050565b83601060f01b600060f01b818360060160003373ffffffffffffffffffffffffffffffffffffffff1673ffffffffffffffffffffffffffffffffffffffff16815260200190815260200160002060009054906101000a900460f01b167dffffffffffffffffffffffffffffffffffffffffffffffffffffffffffff1916118061270e5750600060f01b818360060160008073ffffffffffffffffffffffffffffffffffffffff1673ffffffffffffffffffffffffffffffffffffffff16815260200190815260200160002060009054906101000a900460f01b167dffffffffffffffffffffffffffffffffffffffffffffffffffffffffffff1916115b61274d576040517f08c379a000000000000000000000000000000000000000000000000000000000815260040161274490613c62565b60405180910390fd5b848660000181905550838660010160006101000a81548160ff021916908360ff160217905550828660010160016101000a81548160ff021916908360ff1602179055507fe21d6df201a705d8f3b9ce71eb35b7cce8e39a82df540174189a473c52c7d44d338686866040516127c59493929190613973565b60405180910390a1505050505050565b83600260f01b600060f01b818360060160003373ffffffffffffffffffffffffffffffffffffffff1673ffffffffffffffffffffffffffffffffffffffff16815260200190815260200160002060009054906101000a900460f01b167dffffffffffffffffffffffffffffffffffffffffffffffffffffffffffff191611806128d25750600060f01b818360060160008073ffffffffffffffffffffffffffffffffffffffff1673ffffffffffffffffffffffffffffffffffffffff16815260200190815260200160002060009054906101000a900460f01b167dffffffffffffffffffffffffffffffffffffffffffffffffffffffffffff1916115b612911576040517f08c379a000000000000000000000000000000000000000000000000000000000815260040161290890613c62565b60405180910390fd5b85600160f01b600060f01b818360060160003373ffffffffffffffffffffffffffffffffffffffff1673ffffffffffffffffffffffffffffffffffffffff16815260200190815260200160002060009054906101000a900460f01b167dffffffffffffffffffffffffffffffffffffffffffffffffffffffffffff19161180612a0e5750600060f01b818360060160008073ffffffffffffffffffffffffffffffffffffffff1673ffffffffffffffffffffffffffffffffffffffff16815260200190815260200160002060009054906101000a900460f01b167dffffffffffffffffffffffffffffffffffffffffffffffffffffffffffff1916115b612a4d576040517f08c379a0000000000000000000000000000000000000000000000000000000008152600401612a4490613c62565b60405180910390fd5b612a638789600401612c3190919063ffffffff16565b612aa2576040517f08c379a0000000000000000000000000000000000000000000000000000000008152600401612a9990613c22565b60405180910390fd5b600060f01b857dffffffffffffffffffffffffffffffffffffffffffffffffffffffffffff191611612b09576040517f08c379a0000000000000000000000000000000000000000000000000000000008152600401612b0090613be2565b60405180910390fd5b8573ffffffffffffffffffffffffffffffffffffffff168773ffffffffffffffffffffffffffffffffffffffff1614612b5757612b478887876121c5565b50612b528888610e34565b612bb3565b848860060160008873ffffffffffffffffffffffffffffffffffffffff1673ffffffffffffffffffffffffffffffffffffffff16815260200190815260200160002060006101000a81548161ffff021916908360f01c02179055505b7ff4198b630a5831df7cbdb26981a0a5fece69d524f9d5b2bd4daf698b4dfdb2183388604051612be49291906138dc565b60405180910390a17fdf8ecb67ccb8275f1c628a7275de366fac017387946044d9dcd4046962982a4e338787604051612c1f9392919061393c565b60405180910390a15050505050505050565b6000612c59836000018373ffffffffffffffffffffffffffffffffffffffff1660001b612cf0565b905092915050565b6000612c89836000018373ffffffffffffffffffffffffffffffffffffffff1660001b612d13565b905092915050565b6000612cb9836000018373ffffffffffffffffffffffffffffffffffffffff1660001b612dfb565b905092915050565b6000612cd08360000183612e6b565b60001c905092915050565b6000612ce982600001612ed8565b9050919050565b600080836001016000848152602001908152602001600020541415905092915050565b60008083600101600084815260200190815260200160002054905060008114612def5760006001820390506000600186600001805490500390506000866000018281548110612d5e57fe5b9060005260206000200154905080876000018481548110612d7b57fe5b9060005260206000200181905550600183018760010160008381526020019081526020016000208190555086600001805480612db357fe5b60019003818190600052602060002001600090559055866001016000878152602001908152602001600020600090556001945050505050612df5565b60009150505b92915050565b6000612e078383612cf0565b612e60578260000182908060018154018082558091505060019003906000526020600020016000909190919091505582600001805490508360010160008481526020019081526020016000208190555060019050612e65565b600090505b92915050565b600081836000018054905011612eb6576040517f08c379a0000000000000000000000000000000000000000000000000000000008152600401612ead90613bc2565b60405180910390fd5b826000018281548110612ec557fe5b9060005260206000200154905092915050565b600081600001805490509050919050565b6040518060800160405280600073ffffffffffffffffffffffffffffffffffffffff16815260200160008019168152602001600060ff168152602001600060ff1681525090565b600081359050612f3f81613e95565b92915050565b600081359050612f5481613eac565b92915050565b600082601f830112612f6b57600080fd5b8135612f7e612f7982613cca565b613c9d565b91508181835260208401935060208101905083856080840282011115612fa357600080fd5b60005b83811015612fd35781612fb9888261308a565b845260208401935060808301925050600181019050612fa6565b5050505092915050565b600082601f830112612fee57600080fd5b8135613001612ffc82613cf2565b613c9d565b9150818183526020840193506020810190508385602084028201111561302657600080fd5b60005b83811015613056578161303c8882613113565b845260208401935060208301925050600181019050613029565b5050505092915050565b60008135905061306f81613ec3565b92915050565b60008135905061308481613eda565b92915050565b60006080828403121561309c57600080fd5b6130a66080613c9d565b905060006130b684828501612f30565b60008301525060206130ca84828501613075565b60208301525060406130de84828501613128565b60408301525060606130f284828501613128565b60608301525092915050565b60008135905061310d81613ef1565b92915050565b60008135905061312281613f08565b92915050565b60008135905061313781613f1f565b92915050565b60006020828403121561314f57600080fd5b600061315d848285016130fe565b91505092915050565b6000806040838503121561317957600080fd5b6000613187858286016130fe565b925050602061319885828601612f30565b9150509250929050565b6000806000606084860312156131b757600080fd5b60006131c5868287016130fe565b93505060206131d686828701612f45565b92505060406131e786828701613113565b9150509250925092565b600080600080600060a0868803121561320957600080fd5b6000613217888289016130fe565b955050602061322888828901612f30565b945050604061323988828901612f30565b935050606061324a88828901612f30565b925050608061325b88828901613113565b9150509295509295909350565b6000806000806080858703121561327e57600080fd5b600061328c878288016130fe565b945050602061329d87828801612f30565b93505060406132ae87828801612f30565b92505060606132bf87828801613060565b91505092959194509250565b600080600080608085870312156132e157600080fd5b60006132ef878288016130fe565b945050602061330087828801612f30565b935050604061331187828801612f30565b925050606061332287828801613113565b91505092959194509250565b60008060006060848603121561334357600080fd5b6000613351868287016130fe565b935050602061336286828701612f30565b925050604061337386828701613060565b9150509250925092565b600080600080600060a0868803121561339557600080fd5b60006133a3888289016130fe565b95505060206133b488828901612f30565b94505060406133c588828901613075565b93505060606133d688828901613128565b92505060806133e788828901613128565b9150509295509295909350565b6000806040838503121561340757600080fd5b6000613415858286016130fe565b925050602083013567ffffffffffffffff81111561343257600080fd5b61343e85828601612f5a565b9150509250929050565b6000806040838503121561345b57600080fd5b6000613469858286016130fe565b925050602083013567ffffffffffffffff81111561348657600080fd5b61349285828601612fdd565b9150509250929050565b600080600080608085870312156134b257600080fd5b60006134c0878288016130fe565b94505060206134d187828801613075565b93505060406134e287828801613128565b92505060606134f387828801613128565b91505092959194509250565b6000806040838503121561351257600080fd5b6000613520858286016130fe565b925050602061353185828601613113565b9150509250929050565b60008060008060008060c0878903121561355457600080fd5b600061356289828a016130fe565b965050602061357389828a01613113565b955050604061358489828a01612f30565b945050606061359589828a01613075565b93505060806135a689828a01613128565b92505060a06135b789828a01613128565b9150509295509295509295565b60006135d083836138af565b60208301905092915050565b6135e581613e1b565b82525050565b6135f481613d92565b82525050565b61360381613d80565b82525050565b61361281613d80565b82525050565b600061362382613d2a565b61362d8185613d4d565b935061363883613d1a565b8060005b8381101561366957815161365088826135c4565b975061365b83613d40565b92505060018101905061363c565b5085935050505092915050565b61367f81613da4565b82525050565b61368e81613da4565b82525050565b61369d81613dd0565b82525050565b6136ac81613dd0565b82525050565b60006136bd82613d35565b6136c78185613d5e565b93506136d7818560208601613e51565b6136e081613e84565b840191505092915050565b60006136f8602283613d6f565b91507f456e756d657261626c655365743a20696e646578206f7574206f6620626f756e60008301527f64730000000000000000000000000000000000000000000000000000000000006020830152604082019050919050565b600061375e601683613d6f565b91507f57726f6e67207065726d697373696f6e73207365742e000000000000000000006000830152602082019050919050565b600061379e601583613d6f565b91507f4e6f20656e7472696573207370656369666965642e00000000000000000000006000830152602082019050919050565b60006137de601183613d6f565b91507f5265636f7264206e6f7420666f756e642e0000000000000000000000000000006000830152602082019050919050565b600061381e601183613d6f565b91507f4475706c6963617465207265636f72642e0000000000000000000000000000006000830152602082019050919050565b600061385e600e83613d6f565b91507f4e6f7420617574686f72697a65640000000000000000000000000000000000006000830152602082019050919050565b61389a81613e04565b82525050565b6138a981613e04565b82525050565b6138b881613e04565b82525050565b6138c781613e0e565b82525050565b6138d681613e0e565b82525050565b60006040820190506138f160008301856135dc565b6138fe60208301846135fa565b9392505050565b600060608201905061391a60008301866135eb565b61392760208301856135dc565b6139346040830184613891565b949350505050565b600060608201905061395160008301866135dc565b61395e60208301856135fa565b61396b6040830184613676565b949350505050565b600060808201905061398860008301876135dc565b6139956020830186613694565b6139a260408301856138be565b6139af60608301846138be565b95945050505050565b60006040820190506139cd60008301856135eb565b6139da6020830184613891565b9392505050565b60006040820190506139f660008301856135dc565b613a036020830184613891565b9392505050565b600060c082019050613a1f60008301896135dc565b613a2c6020830188613891565b613a3960408301876135fa565b613a466060830186613694565b613a5360808301856138be565b613a6060a08301846138be565b979650505050505050565b6000608082019050613a8060008301876135fa565b613a8d60208301866135fa565b613a9a60408301856135fa565b613aa76060830184613891565b95945050505050565b6000606082019050613ac560008301866135fa565b613ad260208301856135fa565b613adf6040830184613891565b949350505050565b6000604082019050613afc6000830185613609565b613b096020830184613685565b9392505050565b6000606082019050613b2560008301866135fa565b613b326020830185613891565b8181036040830152613b4481846136b2565b9050949350505050565b60006020820190508181036000830152613b688184613618565b905092915050565b6000602082019050613b856000830184613685565b92915050565b6000606082019050613ba060008301866136a3565b613bad60208301856138cd565b613bba60408301846138cd565b949350505050565b60006020820190508181036000830152613bdb816136eb565b9050919050565b60006020820190508181036000830152613bfb81613751565b9050919050565b60006020820190508181036000830152613c1b81613791565b9050919050565b60006020820190508181036000830152613c3b816137d1565b9050919050565b60006020820190508181036000830152613c5b81613811565b9050919050565b60006020820190508181036000830152613c7b81613851565b9050919050565b6000602082019050613c9760008301846138a0565b92915050565b6000604051905081810181811067ffffffffffffffff82111715613cc057600080fd5b8060405250919050565b600067ffffffffffffffff821115613ce157600080fd5b602082029050602081019050919050565b600067ffffffffffffffff821115613d0957600080fd5b602082029050602081019050919050565b6000819050602082019050919050565b600081519050919050565b600081519050919050565b6000602082019050919050565b600082825260208201905092915050565b600082825260208201905092915050565b600082825260208201905092915050565b6000613d8b82613de4565b9050919050565b6000613d9d82613de4565b9050919050565b60007fffff00000000000000000000000000000000000000000000000000000000000082169050919050565b6000819050919050565b6000819050919050565b600073ffffffffffffffffffffffffffffffffffffffff82169050919050565b6000819050919050565b600060ff82169050919050565b6000613e2682613e2d565b9050919050565b6000613e3882613e3f565b9050919050565b6000613e4a82613de4565b9050919050565b60005b83811015613e6f578082015181840152602081019050613e54565b83811115613e7e576000848401525b50505050565b6000601f19601f8301169050919050565b613e9e81613d80565b8114613ea957600080fd5b50565b613eb581613d92565b8114613ec057600080fd5b50565b613ecc81613da4565b8114613ed757600080fd5b50565b613ee381613dd0565b8114613eee57600080fd5b50565b613efa81613dda565b8114613f0557600080fd5b50565b613f1181613e04565b8114613f1c57600080fd5b50565b613f2881613e0e565b8114613f3357600080fd5b5056fea2646970667358221220e44c66e3b6669c479da295bb21c2c396de68aee7d06449b058d537127407177e64736f6c63430006080033",
  "immutableReferences": {},
  "source": "// SPDX-License-Identifier: LGPL-3.0-or-later\npragma solidity ^0.6.0;\npragma experimental ABIEncoderV2;\n\n/*\n    Organigr.am Contracts Framework - Organ library.\n    This library holds the logic to manage a simple organ.\n*/\n\nimport \"@openzeppelin/contracts/utils/EnumerableSet.sol\";\nimport \"@openzeppelin/contracts/token/ERC721/IERC721.sol\";\nimport \"@openzeppelin/contracts/token/ERC777/IERC777.sol\";\n\nlibrary OrganLibrary {\n    using EnumerableSet for EnumerableSet.AddressSet;\n\n    bytes2 public constant PERMISSION_ADD_PROCEDURE = 0x0001;\n    bytes2 public constant PERMISSION_REMOVE_PROCEDURE = 0x0002;\n    bytes2 public constant PERMISSION_ADD_ENTRIES = 0x0004;\n    bytes2 public constant PERMISSION_REMOVE_ENTRIES = 0x0008;\n    bytes2 public constant PERMISSION_UPDATE_METADATA = 0x0010;\n    bytes2 public constant PERMISSION_DEPOSIT_ETHER = 0x0020;\n    bytes2 public constant PERMISSION_WITHDRAW_ETHER = 0x0040;\n    bytes2 public constant PERMISSION_DEPOSIT_COINS = 0x0080;\n    bytes2 public constant PERMISSION_WITHDRAW_COINS = 0x0100;\n    bytes2 public constant PERMISSION_DEPOSIT_COLLECTIBLES = 0x0200;\n    bytes2 public constant PERMISSION_WITHDRAW_COLLECTIBLES = 0x0400;\n\n    /*\n        Entries are sets of addresses, contracts or documents.\n    */\n    struct Entry {\n        address addr;           // Address if entry is account or a contract.\n        bytes32 ipfsHash;               // ID of proposal on IPFS.\n        uint8 hashFunction;\n        uint8 hashSize;\n    }\n\n    struct OrganData {\n        bytes32 metadataIpfsHash;\n        uint8 metadataHashFunction;\n        uint8 metadataHashSize;\n        uint256 entriesCount;\n        Entry[] entries;\n        EnumerableSet.AddressSet procedures;\n        mapping(address => bytes2) permissions;\n        mapping(address => uint256) addressIndexInEntries;\n    }\n\n    /*\n        Events.\n    */\n\n    event metadataUpdated(address from, bytes32 ipfsHash, uint8 hashFunction, uint8 hashSize);\n    event adminUpdated(address from, address admin);\n    event procedureAdded(address from, address procedure, bytes2 permissions);\n    event procedureRemoved(address from, address procedure);\n    event collectibleTransferred(address operator, address to, uint256 tokenId);\n    event collectibleReceived(address operator, address from, uint256 tokenId);\n    event coinsTransferred(address operator, address from, address to, uint256 amount);\n    event coinsReceived(address operator, address from, address to, uint256 amount);\n    event etherTransferred(address payable from, address to, uint256 amount);\n    event etherReceived(address payable from, uint256 amount);\n    event entryAdded(address from, uint256 index, address addr, bytes32 ipfsHash, uint8 hashFunction, uint8 hashSize);\n    event entryRemoved(address from, uint256 index);\n\n    /*\n        Modifier.\n    */\n\n    modifier onlyPerm(OrganData storage self, bytes2 permission) {\n        require(\n            self.permissions[msg.sender] & permission > 0 ||\n            self.permissions[address(0)] & permission > 0,\n            \"Not authorized\"\n        );\n        _;\n    }\n\n    /*\n        Constructor.\n    */\n\n    function init(\n        OrganData storage self, address defaultAdmin,\n        bytes32 ipfsHash, uint8 hashFunction, uint8 hashSize\n    )\n        public\n    {\n        // Initializing with deployer as admin.\n        address _admin = defaultAdmin != address(0) ? defaultAdmin : msg.sender;\n\n        // Add _admin in procedures set.\n        self.permissions[_admin] = 0xffff;\n        self.procedures.add(_admin);\n\n        // Initializing metadata.\n        self.metadataIpfsHash = ipfsHash;\n        self.metadataHashFunction = hashFunction;\n        self.metadataHashSize = hashSize;\n\n        // @TODO : Check if necessary.\n        Entry memory initEntry;\n        self.entries.push(initEntry);\n    }\n\n    function updateMetadata(\n        OrganData storage self, bytes32 ipfsHash, uint8 hashFunction, uint8 hashSize\n    )\n        public onlyPerm(self, PERMISSION_UPDATE_METADATA)\n    {\n        self.metadataIpfsHash = ipfsHash;\n        self.metadataHashFunction = hashFunction;\n        self.metadataHashSize = hashSize;\n        emit metadataUpdated(msg.sender, ipfsHash, hashFunction, hashSize);\n    }\n\n    /*\n        Assets management.\n    */\n\n    function transferCollectible(\n        OrganData storage self, address operator, address from,\n        address to, uint256 tokenId\n    )\n        public onlyPerm(self, PERMISSION_WITHDRAW_COLLECTIBLES)\n    {\n        // @note Organ must be the owner, approved, or operator of ERC-721.\n        IERC721(operator).safeTransferFrom(from, to, tokenId);\n        emit collectibleTransferred(operator, to, tokenId);\n    }\n\n    function receiveCollectible(\n        OrganData storage self, address operator,\n        address from, uint256 tokenId\n    )\n        public onlyPerm(self, PERMISSION_DEPOSIT_COLLECTIBLES)\n    {\n        emit collectibleReceived(operator, from, tokenId);\n    }\n\n    function transferCoins(\n        OrganData storage self, address operator,\n        address from, address to, uint256 amount\n    )\n        public onlyPerm(self, PERMISSION_WITHDRAW_COINS)\n    {\n        bytes memory data;\n        IERC777(operator).send(to, amount, data);\n        emit coinsTransferred(operator, from, to, amount);\n    }\n\n    function receiveCoins(\n        OrganData storage self, address operator,\n        address from, address to, uint256 amount\n    )\n        public onlyPerm(self, PERMISSION_DEPOSIT_COINS)\n    {\n        emit coinsReceived(operator, from, to, amount);\n    }\n\n    function transferEther(OrganData storage self, address payable to, uint256 value)\n        public onlyPerm(self, PERMISSION_WITHDRAW_ETHER)\n    {\n        to.transfer(value);\n        emit etherTransferred(msg.sender, to, value);\n    }\n\n    function receiveEther(OrganData storage self, uint256 value)\n        public onlyPerm(self, PERMISSION_DEPOSIT_ETHER)\n    {\n        emit etherReceived(msg.sender, value);\n    }\n\n    /*\n        Procedures management.\n    */\n\n    function removeProcedure(OrganData storage self, address procedure)\n        public onlyPerm(self, PERMISSION_REMOVE_PROCEDURE)\n    {\n        // Check procedure is already there.\n        require(self.procedures.contains(procedure), \"Record not found.\");\n        // Remove from Procedures set.\n        self.procedures.remove(procedure);\n        self.permissions[procedure] = bytes2(0);\n        emit procedureRemoved(msg.sender, procedure);\n    }\n\n    function addProcedure(OrganData storage self, address procedure, bytes2 permissions)\n        public onlyPerm(self, PERMISSION_ADD_PROCEDURE)\n        returns (uint256 index)\n    {\n        // Check new procedure is not already there.\n        require(!self.procedures.contains(procedure), \"Duplicate record.\");\n        // Check new procedure has permissions.\n        require(permissions != 0x0000, \"Wrong permissions set.\");\n\n        // Store procedures.\n        self.procedures.add(procedure);\n        self.permissions[procedure] = permissions;\n        emit procedureAdded(msg.sender, procedure, permissions);\n        return index;\n    }\n\n    function replaceProcedure (\n        OrganData storage self, address oldProcedure, address newProcedure,\n        bytes2 permissions\n    )\n        public\n        onlyPerm(self, PERMISSION_REMOVE_PROCEDURE)\n        onlyPerm(self, PERMISSION_ADD_PROCEDURE)\n    {\n        // Check old procedure will be removable before adding.\n        require(self.procedures.contains(oldProcedure), \"Record not found.\");\n        // Check new procedure has permissions.\n        require(permissions > 0, \"Wrong permissions set.\");\n\n        // Check if we are replacing a master with another, or updating permissions.\n        if (oldProcedure != newProcedure) {\n            addProcedure(self, newProcedure, permissions);\n            removeProcedure(self, oldProcedure);\n        }\n        else {\n            // Update permissions.\n            self.permissions[newProcedure] = permissions;\n        }\n        // Trigger events.\n        emit procedureRemoved(msg.sender, oldProcedure);\n        emit procedureAdded(msg.sender, newProcedure, permissions);\n    }\n\n    /**\n        Entries management.\n    */\n\n    function removeEntries(OrganData storage self, uint256[] memory indexes)\n        public\n        onlyPerm(self, PERMISSION_REMOVE_ENTRIES)\n    {\n        for (uint256 i = 0 ; i < indexes.length ; i++) {\n            address addr = self.entries[indexes[i]].addr;\n            delete self.entries[indexes[i]];\n            self.entriesCount--;\n            // Deleting entry index.\n            if (addr != address(0))\n                self.addressIndexInEntries[addr] = 0;\n            // Logging event.\n            emit entryRemoved(msg.sender, indexes[i]);\n        }\n    }\n\n    function addEntries(\n        OrganData storage self, Entry[] memory entries\n    )\n        public\n        onlyPerm(self, PERMISSION_ADD_ENTRIES)\n        returns (uint256[] memory indexes)\n    {\n        require(entries.length > 0, \"No entries specified.\");\n        // uint256 memory initialGas = gasleft();\n        indexes = new uint256[](entries.length);\n\n        for (uint256 i = 0 ; i < entries.length ; i++) {\n            // If the entry has an address, we check that the address has not been used before.\n            if (entries[i].addr != address(0)) {\n                require(self.addressIndexInEntries[entries[i].addr] == 0, \"Duplicate record.\");\n            }\n            // Adding the entry.\n            self.entries.push(entries[i]);\n            // Registering entry position relative to its address.\n            indexes[i] = self.entries.length - 1;\n            self.addressIndexInEntries[entries[i].addr] = indexes[i];\n            // Incrementing entries counter.\n            self.entriesCount++;\n\n            emit entryAdded(\n                msg.sender,\n                indexes[i],\n                entries[i].addr,\n                entries[i].ipfsHash,\n                entries[i].hashFunction,\n                entries[i].hashSize\n            );\n        }\n\n        // Registering the address as active\n        return indexes;\n    }\n\n    function replaceEntry(\n        OrganData storage self, uint256 index, address addr,\n        bytes32 ipfsHash, uint8 hashFunction, uint8 hashSize\n    )\n        public\n        onlyPerm(self, PERMISSION_REMOVE_ENTRIES)\n        onlyPerm(self, PERMISSION_ADD_ENTRIES)\n    {\n        // Check that the replacing address is not registered.\n        if (addr != address(0)) {\n            require(self.addressIndexInEntries[addr] > 0, \"Record not found.\");\n        }\n        self.addressIndexInEntries[self.entries[index].addr] = 0;\n        emit entryRemoved(msg.sender, index);\n\n        self.entries[index] = Entry({\n            addr: addr,\n            ipfsHash: ipfsHash,\n            hashFunction: hashFunction,\n            hashSize: hashSize\n        });\n\n        self.addressIndexInEntries[addr] = index;\n        emit entryAdded(msg.sender, index,  addr, ipfsHash,  hashFunction,  hashSize);\n    }\n\n    function getProceduresLength(OrganData storage self)\n        public view returns (uint256 length)\n    {\n        return self.procedures.length();\n    }\n\n    function getProcedure(OrganData storage self, uint256 index)\n        public view returns (address procedure, bytes2 permissions)\n    {\n        procedure = self.procedures.at(index);\n        return (\n            procedure,\n            getPermissions(self, procedure)\n        );\n    }\n\n    function getPermissions(OrganData storage self, address procedure)\n        public view returns (bytes2 permissions)\n    {\n        return self.permissions[procedure];\n    }\n\n    function getMetadata(OrganData storage self)\n        public view returns (bytes32 ipfsHash, uint8 hashFunction, uint8 hashSize)\n    {\n        return (\n            self.metadataIpfsHash,\n            self.metadataHashFunction,\n            self.metadataHashSize\n        );\n    }\n}",
  "sourcePath": "/Users/alex/Code/organigr.am/contracts/contracts/libraries/OrganLibrary.sol",
  "compiler": {
    "name": "solc",
    "version": "0.6.8+commit.0bbfe453.Emscripten.clang"
  },
  "schemaVersion": "3.2.4",
  "updatedAt": "2020-09-12T01:16:43.624Z",
  "networkType": "ethereum",
  "devdoc": {
    "methods": {}
  },
  "userdoc": {
    "methods": {
      "removeEntries(OrganLibrary.OrganData storage,uint256[])": {
        "notice": "Entries management."
      }
    }
  }
}