{
  "contractName": "Organ",
  "abi": [
    {
      "inputs": [
        {
          "internalType": "address payable",
          "name": "admin",
          "type": "address"
        },
        {
          "internalType": "bytes32",
          "name": "metadataIpfsHash",
          "type": "bytes32"
        },
        {
          "internalType": "uint8",
          "name": "metadataHashFunction",
          "type": "uint8"
        },
        {
          "internalType": "uint8",
          "name": "metadataHashSize",
          "type": "uint8"
        }
      ],
      "stateMutability": "nonpayable",
      "type": "constructor"
    },
    {
      "inputs": [],
      "name": "getKelsenData",
      "outputs": [
        {
          "internalType": "bool",
          "name": "",
          "type": "bool"
        },
        {
          "internalType": "bool",
          "name": "",
          "type": "bool"
        },
        {
          "internalType": "uint8",
          "name": "",
          "type": "uint8"
        }
      ],
      "stateMutability": "view",
      "type": "function",
      "constant": true
    },
    {
      "inputs": [],
      "name": "isOrgan",
      "outputs": [
        {
          "internalType": "bool",
          "name": "",
          "type": "bool"
        }
      ],
      "stateMutability": "view",
      "type": "function",
      "constant": true
    },
    {
      "inputs": [],
      "name": "isProcedure",
      "outputs": [
        {
          "internalType": "bool",
          "name": "",
          "type": "bool"
        }
      ],
      "stateMutability": "view",
      "type": "function",
      "constant": true
    },
    {
      "inputs": [],
      "name": "kelsenVersion",
      "outputs": [
        {
          "internalType": "uint8",
          "name": "",
          "type": "uint8"
        }
      ],
      "stateMutability": "view",
      "type": "function",
      "constant": true
    },
    {
      "stateMutability": "payable",
      "type": "receive",
      "payable": true
    },
    {
      "inputs": [
        {
          "internalType": "address payable",
          "name": "to",
          "type": "address"
        },
        {
          "internalType": "uint256",
          "name": "value",
          "type": "uint256"
        }
      ],
      "name": "transfer",
      "outputs": [],
      "stateMutability": "nonpayable",
      "type": "function"
    },
    {
      "inputs": [
        {
          "internalType": "address",
          "name": "operator",
          "type": "address"
        },
        {
          "internalType": "address",
          "name": "from",
          "type": "address"
        },
        {
          "internalType": "address",
          "name": "to",
          "type": "address"
        },
        {
          "internalType": "uint256",
          "name": "amount",
          "type": "uint256"
        },
        {
          "internalType": "bytes",
          "name": "",
          "type": "bytes"
        },
        {
          "internalType": "bytes",
          "name": "",
          "type": "bytes"
        }
      ],
      "name": "tokensReceived",
      "outputs": [],
      "stateMutability": "nonpayable",
      "type": "function"
    },
    {
      "inputs": [
        {
          "internalType": "address",
          "name": "operator",
          "type": "address"
        },
        {
          "internalType": "address",
          "name": "from",
          "type": "address"
        },
        {
          "internalType": "address",
          "name": "to",
          "type": "address"
        },
        {
          "internalType": "uint256",
          "name": "amount",
          "type": "uint256"
        },
        {
          "internalType": "bytes",
          "name": "",
          "type": "bytes"
        },
        {
          "internalType": "bytes",
          "name": "",
          "type": "bytes"
        }
      ],
      "name": "tokensToSend",
      "outputs": [],
      "stateMutability": "nonpayable",
      "type": "function"
    },
    {
      "inputs": [
        {
          "internalType": "address",
          "name": "operator",
          "type": "address"
        },
        {
          "internalType": "address",
          "name": "from",
          "type": "address"
        },
        {
          "internalType": "address",
          "name": "to",
          "type": "address"
        },
        {
          "internalType": "uint256",
          "name": "amount",
          "type": "uint256"
        }
      ],
      "name": "transferCoins",
      "outputs": [],
      "stateMutability": "nonpayable",
      "type": "function"
    },
    {
      "inputs": [
        {
          "internalType": "address",
          "name": "operator",
          "type": "address"
        },
        {
          "internalType": "address",
          "name": "from",
          "type": "address"
        },
        {
          "internalType": "uint256",
          "name": "tokenId",
          "type": "uint256"
        },
        {
          "internalType": "bytes",
          "name": "",
          "type": "bytes"
        }
      ],
      "name": "onERC721Received",
      "outputs": [
        {
          "internalType": "bytes4",
          "name": "",
          "type": "bytes4"
        }
      ],
      "stateMutability": "nonpayable",
      "type": "function"
    },
    {
      "inputs": [
        {
          "internalType": "bytes32",
          "name": "ipfsHash",
          "type": "bytes32"
        },
        {
          "internalType": "uint8",
          "name": "hashFunction",
          "type": "uint8"
        },
        {
          "internalType": "uint8",
          "name": "hashSize",
          "type": "uint8"
        }
      ],
      "name": "updateMetadata",
      "outputs": [],
      "stateMutability": "nonpayable",
      "type": "function"
    },
    {
      "inputs": [
        {
          "internalType": "address payable",
          "name": "addr",
          "type": "address"
        },
        {
          "internalType": "bytes32",
          "name": "ipfsHash",
          "type": "bytes32"
        },
        {
          "internalType": "uint8",
          "name": "hashFunction",
          "type": "uint8"
        },
        {
          "internalType": "uint8",
          "name": "hashSize",
          "type": "uint8"
        }
      ],
      "name": "addEntry",
      "outputs": [
        {
          "internalType": "uint256",
          "name": "index",
          "type": "uint256"
        }
      ],
      "stateMutability": "nonpayable",
      "type": "function"
    },
    {
      "inputs": [
        {
          "internalType": "uint256",
          "name": "index",
          "type": "uint256"
        }
      ],
      "name": "removeEntry",
      "outputs": [],
      "stateMutability": "nonpayable",
      "type": "function"
    },
    {
      "inputs": [
        {
          "internalType": "uint256",
          "name": "index",
          "type": "uint256"
        },
        {
          "internalType": "address payable",
          "name": "addr",
          "type": "address"
        },
        {
          "internalType": "bytes32",
          "name": "ipfsHash",
          "type": "bytes32"
        },
        {
          "internalType": "uint8",
          "name": "hashFunction",
          "type": "uint8"
        },
        {
          "internalType": "uint8",
          "name": "hashSize",
          "type": "uint8"
        }
      ],
      "name": "replaceEntry",
      "outputs": [],
      "stateMutability": "nonpayable",
      "type": "function"
    },
    {
      "inputs": [
        {
          "internalType": "address",
          "name": "procedure",
          "type": "address"
        },
        {
          "internalType": "bytes2",
          "name": "permissions",
          "type": "bytes2"
        }
      ],
      "name": "addProcedure",
      "outputs": [],
      "stateMutability": "nonpayable",
      "type": "function"
    },
    {
      "inputs": [
        {
          "internalType": "address",
          "name": "procedure",
          "type": "address"
        }
      ],
      "name": "removeProcedure",
      "outputs": [],
      "stateMutability": "nonpayable",
      "type": "function"
    },
    {
      "inputs": [
        {
          "internalType": "address",
          "name": "oldProcedure",
          "type": "address"
        },
        {
          "internalType": "address",
          "name": "newProcedure",
          "type": "address"
        },
        {
          "internalType": "bytes2",
          "name": "permissions",
          "type": "bytes2"
        }
      ],
      "name": "replaceProcedure",
      "outputs": [],
      "stateMutability": "nonpayable",
      "type": "function"
    },
    {
      "inputs": [],
      "name": "getEntriesLength",
      "outputs": [
        {
          "internalType": "uint256",
          "name": "length",
          "type": "uint256"
        }
      ],
      "stateMutability": "view",
      "type": "function",
      "constant": true
    },
    {
      "inputs": [
        {
          "internalType": "address",
          "name": "addr",
          "type": "address"
        }
      ],
      "name": "getEntryIndexForAddress",
      "outputs": [
        {
          "internalType": "uint256",
          "name": "index",
          "type": "uint256"
        }
      ],
      "stateMutability": "view",
      "type": "function",
      "constant": true
    },
    {
      "inputs": [
        {
          "internalType": "uint256",
          "name": "index",
          "type": "uint256"
        }
      ],
      "name": "getEntry",
      "outputs": [
        {
          "internalType": "address",
          "name": "addr",
          "type": "address"
        },
        {
          "internalType": "bytes32",
          "name": "ipfsHash",
          "type": "bytes32"
        },
        {
          "internalType": "uint8",
          "name": "hashFunction",
          "type": "uint8"
        },
        {
          "internalType": "uint8",
          "name": "hashSize",
          "type": "uint8"
        }
      ],
      "stateMutability": "view",
      "type": "function",
      "constant": true
    },
    {
      "inputs": [],
      "name": "getProceduresLength",
      "outputs": [
        {
          "internalType": "uint256",
          "name": "length",
          "type": "uint256"
        }
      ],
      "stateMutability": "view",
      "type": "function",
      "constant": true
    },
    {
      "inputs": [
        {
          "internalType": "uint256",
          "name": "index",
          "type": "uint256"
        }
      ],
      "name": "getProcedure",
      "outputs": [
        {
          "internalType": "address",
          "name": "procedure",
          "type": "address"
        },
        {
          "internalType": "bytes2",
          "name": "permissions",
          "type": "bytes2"
        }
      ],
      "stateMutability": "view",
      "type": "function",
      "constant": true
    },
    {
      "inputs": [
        {
          "internalType": "address",
          "name": "procedure",
          "type": "address"
        }
      ],
      "name": "getPermissions",
      "outputs": [
        {
          "internalType": "bytes2",
          "name": "permissions",
          "type": "bytes2"
        }
      ],
      "stateMutability": "view",
      "type": "function",
      "constant": true
    },
    {
      "inputs": [],
      "name": "getMetadata",
      "outputs": [
        {
          "internalType": "bytes32",
          "name": "ipfsHash",
          "type": "bytes32"
        },
        {
          "internalType": "uint8",
          "name": "hashFunction",
          "type": "uint8"
        },
        {
          "internalType": "uint8",
          "name": "hashSize",
          "type": "uint8"
        }
      ],
      "stateMutability": "view",
      "type": "function",
      "constant": true
    }
  ],
  "bytecode": "0x608060405260036000806101000a81548160ff021916908360ff16021790555034801561002b57600080fd5b50604051611e1f380380611e1f8339818101604052608081101561004e57600080fd5b81019080805190602001909291908051906020019092919080519060200190929190805190602001909291905050506001600081600060016101000a81548160ff02191690831515021790555080600060026101000a81548160ff0219169083151502179055505050600173__OrganLibrary__________________________6374771eb49091868686866040518663ffffffff1660e01b8152600401808681526020018573ffffffffffffffffffffffffffffffffffffffff1673ffffffffffffffffffffffffffffffffffffffff1681526020018481526020018360ff1660ff1681526020018260ff1660ff1681526020019550505050505060006040518083038186803b15801561016157600080fd5b505af4158015610175573d6000803e3d6000fd5b5050505050505050611c938061018c6000396000f3fe6080604052600436106101435760003560e01c80637a7ce65c116100b6578063bae78d7b1161006f578063bae78d7b14610a82578063c91ebea814610b1e578063d0922d4a14610b4d578063d28fbf0a14610be9578063f49b584814610cad578063ffdab90914610d48576101bc565b80637a7ce65c146108a75780637f0a4e27146108d257806390f2ee221461094e57806391bdfe631461097d578063a0d10c9a146109fc578063a9059cbb14610a27576101bc565b8063249abcf711610108578063249abcf7146105eb5780632f2bf18e1461063257806339c2ae7014610697578063759913d6146106ec57806375ab97821461071d5780637a5b4f5914610862576101bc565b806223de29146101c1578063150b7a0214610306578063160a79251461046a5780631715f4de1461051157806319b9404c1461059a576101bc565b366101bc57600173__OrganLibrary__________________________633d6a19169091346040518363ffffffff1660e01b8152600401808381526020018281526020019250505060006040518083038186803b1580156101a257600080fd5b505af41580156101b6573d6000803e3d6000fd5b50505050005b600080fd5b3480156101cd57600080fd5b50610304600480360360c08110156101e457600080fd5b81019080803573ffffffffffffffffffffffffffffffffffffffff169060200190929190803573ffffffffffffffffffffffffffffffffffffffff169060200190929190803573ffffffffffffffffffffffffffffffffffffffff169060200190929190803590602001909291908035906020019064010000000081111561026b57600080fd5b82018360208201111561027d57600080fd5b8035906020019184600183028401116401000000008311171561029f57600080fd5b9091929391929390803590602001906401000000008111156102c057600080fd5b8201836020820111156102d257600080fd5b803590602001918460018302840111640100000000831117156102f457600080fd5b9091929391929390505050610d83565b005b34801561031257600080fd5b506104166004803603608081101561032957600080fd5b81019080803573ffffffffffffffffffffffffffffffffffffffff169060200190929190803573ffffffffffffffffffffffffffffffffffffffff169060200190929190803590602001909291908035906020019064010000000081111561039057600080fd5b8201836020820111156103a257600080fd5b803590602001918460018302840111640100000000831117156103c457600080fd5b91908080601f016020809104026020016040519081016040528093929190818152602001838380828437600081840152601f19601f820116905080830192505050505050509192919290505050610e9b565b60405180827bffffffffffffffffffffffffffffffffffffffffffffffffffffffff19167bffffffffffffffffffffffffffffffffffffffffffffffffffffffff1916815260200191505060405180910390f35b34801561047657600080fd5b506104b96004803603602081101561048d57600080fd5b81019080803573ffffffffffffffffffffffffffffffffffffffff169060200190929190505050610f89565b60405180827dffffffffffffffffffffffffffffffffffffffffffffffffffffffffffff19167dffffffffffffffffffffffffffffffffffffffffffffffffffffffffffff1916815260200191505060405180910390f35b34801561051d57600080fd5b506105846004803603608081101561053457600080fd5b81019080803573ffffffffffffffffffffffffffffffffffffffff16906020019092919080359060200190929190803560ff169060200190929190803560ff169060200190929190505050611053565b6040518082815260200191505060405180910390f35b3480156105a657600080fd5b506105e9600480360360208110156105bd57600080fd5b81019080803573ffffffffffffffffffffffffffffffffffffffff169060200190929190505050611144565b005b3480156105f757600080fd5b506106006111e5565b6040518084151515158152602001831515151581526020018260ff1660ff168152602001935050505060405180910390f35b34801561063e57600080fd5b506106816004803603602081101561065557600080fd5b81019080803573ffffffffffffffffffffffffffffffffffffffff169060200190929190505050611223565b6040518082815260200191505060405180910390f35b3480156106a357600080fd5b506106ea600480360360608110156106ba57600080fd5b8101908080359060200190929190803560ff169060200190929190803560ff16906020019092919050505061126f565b005b3480156106f857600080fd5b50610701611302565b604051808260ff1660ff16815260200191505060405180910390f35b34801561072957600080fd5b50610860600480360360c081101561074057600080fd5b81019080803573ffffffffffffffffffffffffffffffffffffffff169060200190929190803573ffffffffffffffffffffffffffffffffffffffff169060200190929190803573ffffffffffffffffffffffffffffffffffffffff16906020019092919080359060200190929190803590602001906401000000008111156107c757600080fd5b8201836020820111156107d957600080fd5b803590602001918460018302840111640100000000831117156107fb57600080fd5b90919293919293908035906020019064010000000081111561081c57600080fd5b82018360208201111561082e57600080fd5b8035906020019184600183028401116401000000008311171561085057600080fd5b9091929391929390505050611314565b005b34801561086e57600080fd5b5061087761142c565b604051808481526020018360ff1660ff1681526020018260ff1660ff168152602001935050505060405180910390f35b3480156108b357600080fd5b506108bc6114dd565b6040518082815260200191505060405180910390f35b3480156108de57600080fd5b5061094c600480360360408110156108f557600080fd5b81019080803573ffffffffffffffffffffffffffffffffffffffff16906020019092919080357dffffffffffffffffffffffffffffffffffffffffffffffffffffffffffff19169060200190929190505050611571565b005b34801561095a57600080fd5b50610963611681565b604051808215151515815260200191505060405180910390f35b34801561098957600080fd5b506109fa600480360360a08110156109a057600080fd5b8101908080359060200190929190803573ffffffffffffffffffffffffffffffffffffffff16906020019092919080359060200190929190803560ff169060200190929190803560ff169060200190929190505050611694565b005b348015610a0857600080fd5b50610a11611765565b6040518082815260200191505060405180910390f35b348015610a3357600080fd5b50610a8060048036036040811015610a4a57600080fd5b81019080803573ffffffffffffffffffffffffffffffffffffffff16906020019092919080359060200190929190505050611775565b005b348015610a8e57600080fd5b50610abb60048036036020811015610aa557600080fd5b810190808035906020019092919050505061181f565b604051808573ffffffffffffffffffffffffffffffffffffffff1673ffffffffffffffffffffffffffffffffffffffff1681526020018481526020018360ff1660ff1681526020018260ff1660ff16815260200194505050505060405180910390f35b348015610b2a57600080fd5b50610b336118f6565b604051808215151515815260200191505060405180910390f35b348015610b5957600080fd5b50610be760048036036060811015610b7057600080fd5b81019080803573ffffffffffffffffffffffffffffffffffffffff169060200190929190803573ffffffffffffffffffffffffffffffffffffffff16906020019092919080357dffffffffffffffffffffffffffffffffffffffffffffffffffffffffffff19169060200190929190505050611909565b005b348015610bf557600080fd5b50610c2260048036036020811015610c0c57600080fd5b8101908080359060200190929190505050611a2a565b604051808373ffffffffffffffffffffffffffffffffffffffff1673ffffffffffffffffffffffffffffffffffffffff168152602001827dffffffffffffffffffffffffffffffffffffffffffffffffffffffffffff19167dffffffffffffffffffffffffffffffffffffffffffffffffffffffffffff191681526020019250505060405180910390f35b348015610cb957600080fd5b50610d4660048036036080811015610cd057600080fd5b81019080803573ffffffffffffffffffffffffffffffffffffffff169060200190929190803573ffffffffffffffffffffffffffffffffffffffff169060200190929190803573ffffffffffffffffffffffffffffffffffffffff16906020019092919080359060200190929190505050611ad4565b005b348015610d5457600080fd5b50610d8160048036036020811015610d6b57600080fd5b8101908080359060200190929190505050611be8565b005b600173__OrganLibrary__________________________63b0bd74a490918a8a8a8a6040518663ffffffff1660e01b8152600401808681526020018573ffffffffffffffffffffffffffffffffffffffff1673ffffffffffffffffffffffffffffffffffffffff1681526020018473ffffffffffffffffffffffffffffffffffffffff1673ffffffffffffffffffffffffffffffffffffffff1681526020018373ffffffffffffffffffffffffffffffffffffffff1673ffffffffffffffffffffffffffffffffffffffff1681526020018281526020019550505050505060006040518083038186803b158015610e7957600080fd5b505af4158015610e8d573d6000803e3d6000fd5b505050505050505050505050565b6000600173__OrganLibrary__________________________638a8b325a90918787876040518563ffffffff1660e01b8152600401808581526020018473ffffffffffffffffffffffffffffffffffffffff1673ffffffffffffffffffffffffffffffffffffffff1681526020018373ffffffffffffffffffffffffffffffffffffffff1673ffffffffffffffffffffffffffffffffffffffff16815260200182815260200194505050505060006040518083038186803b158015610f5f57600080fd5b505af4158015610f73573d6000803e3d6000fd5b5050505063150b7a0260e01b9050949350505050565b6000600173__OrganLibrary__________________________6320069ef89091846040518363ffffffff1660e01b8152600401808381526020018273ffffffffffffffffffffffffffffffffffffffff1673ffffffffffffffffffffffffffffffffffffffff1681526020019250505060206040518083038186803b15801561101157600080fd5b505af4158015611025573d6000803e3d6000fd5b505050506040513d602081101561103b57600080fd5b81019080805190602001909291905050509050919050565b6000600173__OrganLibrary__________________________6319ddbc8c9091878787876040518663ffffffff1660e01b8152600401808681526020018573ffffffffffffffffffffffffffffffffffffffff1673ffffffffffffffffffffffffffffffffffffffff1681526020018481526020018360ff1660ff1681526020018260ff1660ff1681526020019550505050505060206040518083038186803b1580156110ff57600080fd5b505af4158015611113573d6000803e3d6000fd5b505050506040513d602081101561112957600080fd5b81019080805190602001909291905050509050949350505050565b600173__OrganLibrary__________________________633974fa339091836040518363ffffffff1660e01b8152600401808381526020018273ffffffffffffffffffffffffffffffffffffffff1673ffffffffffffffffffffffffffffffffffffffff1681526020019250505060006040518083038186803b1580156111ca57600080fd5b505af41580156111de573d6000803e3d6000fd5b5050505050565b60008060008060019054906101000a900460ff16600060029054906101000a900460ff166000809054906101000a900460ff16925092509250909192565b6000600160070160008373ffffffffffffffffffffffffffffffffffffffff1673ffffffffffffffffffffffffffffffffffffffff168152602001908152602001600020549050919050565b600173__OrganLibrary__________________________63f59263df90918585856040518563ffffffff1660e01b8152600401808581526020018481526020018360ff1660ff1681526020018260ff1660ff16815260200194505050505060006040518083038186803b1580156112e557600080fd5b505af41580156112f9573d6000803e3d6000fd5b50505050505050565b6000809054906101000a900460ff1681565b600173__OrganLibrary__________________________631ceaa38a90918a8a8a8a6040518663ffffffff1660e01b8152600401808681526020018573ffffffffffffffffffffffffffffffffffffffff1673ffffffffffffffffffffffffffffffffffffffff1681526020018473ffffffffffffffffffffffffffffffffffffffff1673ffffffffffffffffffffffffffffffffffffffff1681526020018373ffffffffffffffffffffffffffffffffffffffff1673ffffffffffffffffffffffffffffffffffffffff1681526020018281526020019550505050505060006040518083038186803b15801561140a57600080fd5b505af415801561141e573d6000803e3d6000fd5b505050505050505050505050565b6000806000600173__OrganLibrary__________________________63945fb43690916040518263ffffffff1660e01b81526004018082815260200191505060606040518083038186803b15801561148357600080fd5b505af4158015611497573d6000803e3d6000fd5b505050506040513d60608110156114ad57600080fd5b81019080805190602001909291908051906020019092919080519060200190929190505050925092509250909192565b6000600173__OrganLibrary__________________________63ca42cca890916040518263ffffffff1660e01b81526004018082815260200191505060206040518083038186803b15801561153157600080fd5b505af4158015611545573d6000803e3d6000fd5b505050506040513d602081101561155b57600080fd5b8101908080519060200190929190505050905090565b600173__OrganLibrary__________________________6399f3d1db909184846040518463ffffffff1660e01b8152600401808481526020018373ffffffffffffffffffffffffffffffffffffffff1673ffffffffffffffffffffffffffffffffffffffff168152602001827dffffffffffffffffffffffffffffffffffffffffffffffffffffffffffff19167dffffffffffffffffffffffffffffffffffffffffffffffffffffffffffff19168152602001935050505060206040518083038186803b15801561164157600080fd5b505af4158015611655573d6000803e3d6000fd5b505050506040513d602081101561166b57600080fd5b8101908080519060200190929190505050505050565b600060019054906101000a900460ff1681565b600173__OrganLibrary__________________________630ac08b49909187878787876040518763ffffffff1660e01b8152600401808781526020018681526020018573ffffffffffffffffffffffffffffffffffffffff1673ffffffffffffffffffffffffffffffffffffffff1681526020018481526020018360ff1660ff1681526020018260ff1660ff168152602001965050505050505060006040518083038186803b15801561174657600080fd5b505af415801561175a573d6000803e3d6000fd5b505050505050505050565b6000600160030180549050905090565b600173__OrganLibrary__________________________63432787d9909184846040518463ffffffff1660e01b8152600401808481526020018373ffffffffffffffffffffffffffffffffffffffff1673ffffffffffffffffffffffffffffffffffffffff168152602001828152602001935050505060006040518083038186803b15801561180357600080fd5b505af4158015611817573d6000803e3d6000fd5b505050505050565b6000806000806001600301858154811061183557fe5b906000526020600020906003020160000160009054906101000a900473ffffffffffffffffffffffffffffffffffffffff166001600301868154811061187757fe5b9060005260206000209060030201600101546001600301878154811061189957fe5b906000526020600020906003020160020160009054906101000a900460ff16600160030188815481106118c857fe5b906000526020600020906003020160020160019054906101000a900460ff1693509350935093509193509193565b600060029054906101000a900460ff1681565b600173__OrganLibrary__________________________63f8c99c3690918585856040518563ffffffff1660e01b8152600401808581526020018473ffffffffffffffffffffffffffffffffffffffff1673ffffffffffffffffffffffffffffffffffffffff1681526020018373ffffffffffffffffffffffffffffffffffffffff1673ffffffffffffffffffffffffffffffffffffffff168152602001827dffffffffffffffffffffffffffffffffffffffffffffffffffffffffffff19167dffffffffffffffffffffffffffffffffffffffffffffffffffffffffffff1916815260200194505050505060006040518083038186803b158015611a0d57600080fd5b505af4158015611a21573d6000803e3d6000fd5b50505050505050565b600080600173__OrganLibrary__________________________63863e5d169091856040518363ffffffff1660e01b81526004018083815260200182815260200192505050604080518083038186803b158015611a8657600080fd5b505af4158015611a9a573d6000803e3d6000fd5b505050506040513d6040811015611ab057600080fd5b81019080805190602001909291908051906020019092919050505091509150915091565b600173__OrganLibrary__________________________631ceaa38a9091868686866040518663ffffffff1660e01b8152600401808681526020018573ffffffffffffffffffffffffffffffffffffffff1673ffffffffffffffffffffffffffffffffffffffff1681526020018473ffffffffffffffffffffffffffffffffffffffff1673ffffffffffffffffffffffffffffffffffffffff1681526020018373ffffffffffffffffffffffffffffffffffffffff1673ffffffffffffffffffffffffffffffffffffffff1681526020018281526020019550505050505060006040518083038186803b158015611bca57600080fd5b505af4158015611bde573d6000803e3d6000fd5b5050505050505050565b600173__OrganLibrary__________________________6387fc51629091836040518363ffffffff1660e01b8152600401808381526020018281526020019250505060006040518083038186803b158015611c4257600080fd5b505af4158015611c56573d6000803e3d6000fd5b505050505056fea2646970667358221220b2250c64a09e4cb77c7258dd03b3bbe778f653a55f9b3f3c8700f5e79593c6a364736f6c63430006080033",
  "immutableReferences": {},
  "source": "// SPDX-License-Identifier: LGPL-3.0-or-later\npragma solidity ^0.6.0;\n\nimport \"./Kelsen.sol\";\nimport \"./libraries/OrganLibrary.sol\";\nimport \"@openzeppelin/contracts/token/ERC777/IERC777Recipient.sol\";\nimport \"@openzeppelin/contracts/token/ERC777/IERC777Sender.sol\";\nimport \"@openzeppelin/contracts/token/ERC721/IERC721Receiver.sol\";\n\n/**\n    An organ contains a list of entries and a set of procedures.\n    A procedure is a contract that can effect changes on organs.\n    An entry can be a document and/or an address (a wallet or a contract).\n*/\n\ncontract Organ is\n    Kelsen(true,false),\n    IERC777Recipient,\n    IERC777Sender,\n    IERC721Receiver\n{\n    using OrganLibrary for OrganLibrary.OrganData;\n\n    OrganLibrary.OrganData internal organData;\n\n    /**\n        Modifiers.\n    */\n\n    // modifier onlyRole(bytes32 role) {\n    //     require(hasRole(role, msg.sender), \"Not authorized.\");\n    //     _;\n    // }\n\n    /**\n        Organ API.\n    */\n\n    constructor(address payable admin, bytes32 metadataIpfsHash, uint8 metadataHashFunction, uint8 metadataHashSize)\n        public\n    {\n        organData.init(admin, metadataIpfsHash, metadataHashFunction, metadataHashSize);\n    }\n\n    // Assets.\n\n    receive() external payable {\n        organData.receiveEther(msg.value);\n    }\n\n    // @TODO : Protect ether transfers against re-entrancy attacks.\n    function transfer(address payable to, uint256 value)\n        public // onlyRole(OrganLibrary.PROCEDURE_ADDER)\n    {\n        organData.transferEther(to, value);\n    }\n\n    // Implementing ERC-777 receiver interface.\n    function tokensReceived(\n        address operator, address from, address to, uint256 amount,\n        bytes calldata /*data*/, bytes calldata /*operatorData*/\n    )\n        external override // onlyRole(OrganLibrary.ERC777_RECEIVER)\n    {\n        organData.receiveCoins(operator, from, to, amount);\n    }\n    function tokensToSend(\n        address operator, address from, address to, uint256 amount,\n        bytes calldata /*userData*/, bytes calldata /*operatorData*/\n    )\n        external override // onlyRole(OrganLibrary.ERC777_TRANSFERRER)\n    {\n        organData.transferCoins(operator, from, to, amount);\n    }\n    function transferCoins(address operator, address from, address to, uint256 amount)\n        external // onlyRole(OrganLibrary.ERC721_TRANSFERRER)\n    {\n        organData.transferCoins(operator, from, to, amount);\n    }\n\n    // Implementing ERC-721 receiver interface.\n    function onERC721Received(\n        address operator, address from, uint256 tokenId, bytes memory /*data*/\n    )\n        public override\n        returns(bytes4)\n    {\n        organData.receiveCollectible(operator, from, tokenId);\n        return this.onERC721Received.selector;\n    }\n\n    function updateMetadata(bytes32 ipfsHash, uint8 hashFunction, uint8 hashSize)\n        public // onlyRole(OrganLibrary.METADATA_UPDATER)\n    {\n        organData.updateMetadata(ipfsHash, hashFunction, hashSize);\n    }\n\n    /*\n        API for Procedure contract.\n    */\n\n    function addEntry(address payable addr, bytes32 ipfsHash, uint8 hashFunction, uint8 hashSize)\n        public // onlyRole(OrganLibrary.ENTRY_ADDER)\n        returns (uint index)\n    {\n        return organData.addEntry(addr, ipfsHash, hashFunction, hashSize);\n    }\n\n    function removeEntry(uint index)\n        public // onlyRole(OrganLibrary.ENTRY_REMOVER)\n    {\n       organData.removeEntry(index);\n    }\n\n    function replaceEntry(uint index, address payable addr, bytes32 ipfsHash, uint8 hashFunction, uint8 hashSize)\n        public\n    {\n       organData.replaceEntry(index, addr, ipfsHash, hashFunction, hashSize);\n    }\n\n    function addProcedure(address procedure, bytes2 permissions)\n        public // onlyRole(OrganLibrary.PROCEDURE_ADDER)\n    {\n        organData.addProcedure(procedure, permissions);\n    }\n\n    function removeProcedure(address procedure)\n        public // onlyRole(OrganLibrary.PROCEDURE_REMOVER)\n    {\n        organData.removeProcedure(procedure);\n    }\n\n    function replaceProcedure(address oldProcedure, address newProcedure, bytes2 permissions)\n        public\n        // onlyRole(OrganLibrary.PROCEDURE_REMOVER)\n    {\n        organData.replaceProcedure(oldProcedure, newProcedure, permissions);\n    }\n\n    /*\n        Accessors.\n    */\n\n    // function getPermissions(address addr)\n    //     public view returns (\n    //         bytes2 permissions,\n    //         bool canRemoveProcedures,\n    //         bool canAddProcedures,\n    //         bool canRemoveEntries,\n    //         bool canAddEntries,\n    //         bool canTransferCollectibles,\n    //         bool canReceiveCollectibles,\n    //         bool canTransferCoins,\n    //         bool canReceiveCoins,\n    //         bool canTransferEther,\n    //         bool canReceiveEther\n    //     )\n    // {\n    //     const Roles\n    //     // ;\n    //     // permissions = organData.permissions[addr];\n    //     (canRemoveProcedures,,,,,,,,) = organData.getRoles()\n    //     return (\n    //         permissions,\n    //     );\n    // }\n\n    function getEntriesLength()\n        public view returns (uint length)\n    {\n        return organData.entries.length;\n    }\n\n    function getEntryIndexForAddress(address addr)\n        public view returns (uint index)\n    {\n        return organData.addressIndexInEntries[addr];\n    }\n\n    function getEntry(uint index)\n        public view returns (\n            address addr,\n            bytes32 ipfsHash, uint8 hashFunction, uint8 hashSize\n        )\n    {\n        return (\n            organData.entries[index].addr,\n            organData.entries[index].ipfsHash,\n            organData.entries[index].hashFunction,\n            organData.entries[index].hashSize\n        );\n    }\n\n    function getProceduresLength()\n        public view returns (uint256 length)\n    {\n        return organData.getProceduresLength();\n    }\n\n    function getProcedure(uint256 index)\n        public view returns (address procedure, bytes2 permissions)\n    {\n        return organData.getProcedure(index);\n    }\n\n    function getPermissions(address procedure)\n        public view returns (bytes2 permissions)\n    {\n        return organData.getPermissions(procedure);\n    }\n\n    function getMetadata()\n        public view returns (bytes32 ipfsHash, uint8 hashFunction, uint8 hashSize)\n    {\n        return organData.getMetadata();\n    }\n}",
  "sourcePath": "/contracts/Organ.sol",
  "compiler": {
    "name": "solc",
    "version": "0.6.8+commit.0bbfe453.Emscripten.clang"
  },
  "schemaVersion": "3.2.4",
  "updatedAt": "2020-09-05T18:59:00.981Z",
  "networkType": "ethereum",
  "devdoc": {
    "methods": {}
  },
  "userdoc": {
    "methods": {
      "constructor": "Organ API."
    },
    "notice": "An organ contains a list of entries and a set of procedures. A procedure is a contract that can effect changes on organs. An entry can be a document and/or an address (a wallet or a contract)."
  }
}