{
  "contractName": "Organigram",
  "abi": [
    {
      "inputs": [
        {
          "internalType": "string",
          "name": "cid",
          "type": "string"
        },
        {
          "internalType": "address",
          "name": "trustedForwarder",
          "type": "address"
        }
      ],
      "stateMutability": "nonpayable",
      "type": "constructor"
    },
    {
      "anonymous": false,
      "inputs": [
        {
          "indexed": false,
          "internalType": "address payable",
          "name": "organ",
          "type": "address"
        }
      ],
      "name": "organCreated",
      "type": "event"
    },
    {
      "anonymous": false,
      "inputs": [
        {
          "indexed": false,
          "internalType": "address payable",
          "name": "procedureType",
          "type": "address"
        },
        {
          "indexed": false,
          "internalType": "address payable",
          "name": "procedure",
          "type": "address"
        }
      ],
      "name": "procedureCreated",
      "type": "event"
    },
    {
      "inputs": [],
      "name": "getTrustedForwarder",
      "outputs": [
        {
          "internalType": "address",
          "name": "forwarder",
          "type": "address"
        }
      ],
      "stateMutability": "view",
      "type": "function",
      "constant": true
    },
    {
      "inputs": [
        {
          "internalType": "address",
          "name": "forwarder",
          "type": "address"
        }
      ],
      "name": "isTrustedForwarder",
      "outputs": [
        {
          "internalType": "bool",
          "name": "",
          "type": "bool"
        }
      ],
      "stateMutability": "view",
      "type": "function",
      "constant": true
    },
    {
      "inputs": [],
      "name": "organ",
      "outputs": [
        {
          "internalType": "address payable",
          "name": "",
          "type": "address"
        }
      ],
      "stateMutability": "view",
      "type": "function",
      "constant": true
    },
    {
      "inputs": [],
      "name": "procedures",
      "outputs": [
        {
          "internalType": "address payable",
          "name": "",
          "type": "address"
        }
      ],
      "stateMutability": "view",
      "type": "function",
      "constant": true
    },
    {
      "inputs": [
        {
          "internalType": "address payable",
          "name": "admin",
          "type": "address"
        },
        {
          "internalType": "string",
          "name": "cid",
          "type": "string"
        }
      ],
      "name": "createOrgan",
      "outputs": [
        {
          "internalType": "address payable",
          "name": "clone",
          "type": "address"
        }
      ],
      "stateMutability": "nonpayable",
      "type": "function"
    },
    {
      "inputs": [
        {
          "internalType": "address payable",
          "name": "procedureType",
          "type": "address"
        },
        {
          "internalType": "bytes",
          "name": "data",
          "type": "bytes"
        }
      ],
      "name": "createProcedure",
      "outputs": [
        {
          "internalType": "address payable",
          "name": "procedure",
          "type": "address"
        }
      ],
      "stateMutability": "nonpayable",
      "type": "function"
    },
    {
      "inputs": [
        {
          "components": [
            {
              "internalType": "address",
              "name": "addr",
              "type": "address"
            },
            {
              "internalType": "string",
              "name": "cid",
              "type": "string"
            }
          ],
          "internalType": "struct CoreLibrary.Entry[]",
          "name": "entries",
          "type": "tuple[]"
        }
      ],
      "name": "registerProcedures",
      "outputs": [],
      "stateMutability": "nonpayable",
      "type": "function"
    }
  ],
  "bytecode": "0x60806040523480156200001157600080fd5b5060405162002ee738038062002ee78339810160408190526200003491620002ee565b600080546001600160a01b0319166001600160a01b0383161790556040516200005d906200028c565b604051809103906000f0801580156200007a573d6000803e3d6000fd5b50600180546001600160a01b0319166001600160a01b0392909216919091179055620000b0620000a9620000d9565b836200010f565b600280546001600160a01b0319166001600160a01b039290921691909117905550620004079050565b600060143610801590620000f757506000546001600160a01b031633145b156200010a575060131936013560601c90565b503390565b60015460009062000129906001600160a01b0316620001e6565b90506001600160a01b038116637bb7c0d884846200014f6000546001600160a01b031690565b6040518463ffffffff1660e01b81526004016200016f93929190620003bb565b600060405180830381600087803b1580156200018a57600080fd5b505af11580156200019f573d6000803e3d6000fd5b50506040516001600160a01b03841681527fbdc35d95624895b50b28f056a8e7430069f783195ce87d981f2f0a38d6ef05d79250602001905060405180910390a192915050565b6000763d602d80600a3d3981f3363d3d373d3d3d363d730000008260601b60e81c176000526e5af43d82803e903d91602b57fd5bf38260781b17602052603760096000f090506001600160a01b038116620002875760405162461bcd60e51b815260206004820152601660248201527f455243313136373a20637265617465206661696c656400000000000000000000604482015260640160405180910390fd5b919050565b611dcf806200111883390190565b634e487b7160e01b600052604160045260246000fd5b60005b83811015620002cd578181015183820152602001620002b3565b50506000910152565b80516001600160a01b03811681146200028757600080fd5b600080604083850312156200030257600080fd5b82516001600160401b03808211156200031a57600080fd5b818501915085601f8301126200032f57600080fd5b8151818111156200034457620003446200029a565b604051601f8201601f19908116603f011681019083821181831017156200036f576200036f6200029a565b816040528281528860208487010111156200038957600080fd5b6200039c836020830160208801620002b0565b8096505050505050620003b260208401620002d6565b90509250929050565b600060018060a01b038086168352606060208401528451806060850152620003eb816080860160208901620002b0565b9316604083015250601f91909101601f19160160800192915050565b610d0180620004176000396000f3fe608060405234801561001057600080fd5b506004361061006d5760003560e01c80632ca38c69146100725780633cab20c51461009b578063572b6c05146100ae5780638baba4cb146100e0578063abb55d15146100f5578063b6aec62114610108578063ce1b815f1461011b575b600080fd5b600254610085906001600160a01b031681565b60405161009291906107ca565b60405180910390f35b600154610085906001600160a01b031681565b6100d06100bc3660046107f6565b6000546001600160a01b0391821691161490565b6040519015158152602001610092565b6100f36100ee36600461091b565b610123565b005b610085610103366004610a17565b610253565b610085610116366004610a66565b610314565b610085610483565b60005b81518110156101d75761015d82828151811061014457610144610abf565b6020026020010151600001516371dbd33060e01b610492565b6101c75760405162461bcd60e51b815260206004820152603060248201527f416e20656e74727920696e20706172616d6574657273206973206e6f7420612060448201526f3b30b634b210383937b1b2b23ab9329760811b60648201526084015b60405180910390fd5b6101d081610ad5565b9050610126565b50600154604051630d610b5760e41b81526001600160a01b039091169063d610b57090610208908490600401610b4c565b6000604051808303816000875af1158015610227573d6000803e3d6000fd5b505050506040513d6000823e601f3d908101601f1916820160405261024f9190810190610bc9565b5050565b60015460009061026b906001600160a01b03166104b5565b9050806001600160a01b0316637bb7c0d88484610286610483565b6040518463ffffffff1660e01b81526004016102a493929190610c4e565b600060405180830381600087803b1580156102be57600080fd5b505af11580156102d2573d6000803e3d6000fd5b505050507fbdc35d95624895b50b28f056a8e7430069f783195ce87d981f2f0a38d6ef05d78160405161030591906107ca565b60405180910390a15b92915050565b60006103278363071dbd3360e41b610492565b6103665760405162461bcd60e51b815260206004820152601060248201526f2737ba103090383937b1b2b23ab9329760811b60448201526064016101be565b600254604051631795f8c760e11b81526000916001600160a01b031690632f2bf18e906103979087906004016107ca565b602060405180830381865afa1580156103b4573d6000803e3d6000fd5b505050506040513d601f19601f820116820180604052508101906103d89190610c83565b1161041c5760405162461bcd60e51b8152602060048201526014602482015273283937b1b2b23ab932903737ba103337bab7321760611b60448201526064016101be565b610425836104b5565b604080516001600160a01b038087168252831660208201529192507f5f60683fdfc7d4b0c5533010d4113438b4e5400730348133ffba191c00a8e35f910160405180910390a181511561030e5761047c818361054f565b5092915050565b6000546001600160a01b031690565b600061049d83610593565b80156104ae57506104ae83836105c6565b9392505050565b6000763d602d80600a3d3981f3363d3d373d3d3d363d730000008260601b60e81c176000526e5af43d82803e903d91602b57fd5bf38260781b17602052603760096000f090506001600160a01b03811661054a5760405162461bcd60e51b8152602060048201526016602482015275115490cc4c4d8dce8818dc99585d194819985a5b195960521b60448201526064016101be565b919050565b60606104ae838360006040518060400160405280601e81526020017f416464726573733a206c6f772d6c6576656c2063616c6c206661696c6564000081525061064f565b60006105a6826301ffc9a760e01b6105c6565b801561030e57506105bf826001600160e01b03196105c6565b1592915050565b604080516001600160e01b03198316602480830191909152825180830390910181526044909101909152602080820180516001600160e01b03166301ffc9a760e01b178152825160009392849283928392918391908a617530fa92503d91506000519050828015610638575060208210155b80156106445750600081115b979650505050505050565b6060824710156106b05760405162461bcd60e51b815260206004820152602660248201527f416464726573733a20696e73756666696369656e742062616c616e636520666f6044820152651c8818d85b1b60d21b60648201526084016101be565b600080866001600160a01b031685876040516106cc9190610c9c565b60006040518083038185875af1925050503d8060008114610709576040519150601f19603f3d011682016040523d82523d6000602084013e61070e565b606091505b509150915061071f8783838761072c565b925050505b949350505050565b6060831561079b578251600003610794576001600160a01b0385163b6107945760405162461bcd60e51b815260206004820152601d60248201527f416464726573733a2063616c6c20746f206e6f6e2d636f6e747261637400000060448201526064016101be565b5081610724565b61072483838151156107b05781518083602001fd5b8060405162461bcd60e51b81526004016101be9190610cb8565b6001600160a01b0391909116815260200190565b6001600160a01b03811681146107f357600080fd5b50565b60006020828403121561080857600080fd5b81356104ae816107de565b634e487b7160e01b600052604160045260246000fd5b604080519081016001600160401b038111828210171561084b5761084b610813565b60405290565b604051601f8201601f191681016001600160401b038111828210171561087957610879610813565b604052919050565b60006001600160401b0382111561089a5761089a610813565b5060051b60200190565b60006001600160401b038311156108bd576108bd610813565b6108d0601f8401601f1916602001610851565b90508281528383830111156108e457600080fd5b828260208301376000602084830101529392505050565b600082601f83011261090c57600080fd5b6104ae838335602085016108a4565b6000602080838503121561092e57600080fd5b82356001600160401b038082111561094557600080fd5b818501915085601f83011261095957600080fd5b813561096c61096782610881565b610851565b81815260059190911b8301840190848101908883111561098b57600080fd5b8585015b83811015610a0a578035858111156109a75760008081fd5b86016040818c03601f19018113156109bf5760008081fd5b6109c7610829565b898301356109d4816107de565b81529082013590878211156109e95760008081fd5b6109f78d8b848601016108fb565b818b01528552505091860191860161098f565b5098975050505050505050565b60008060408385031215610a2a57600080fd5b8235610a35816107de565b915060208301356001600160401b03811115610a5057600080fd5b610a5c858286016108fb565b9150509250929050565b60008060408385031215610a7957600080fd5b8235610a84816107de565b915060208301356001600160401b03811115610a9f57600080fd5b8301601f81018513610ab057600080fd5b610a5c858235602084016108a4565b634e487b7160e01b600052603260045260246000fd5b600060018201610af557634e487b7160e01b600052601160045260246000fd5b5060010190565b60005b83811015610b17578181015183820152602001610aff565b50506000910152565b60008151808452610b38816020860160208601610afc565b601f01601f19169290920160200192915050565b60006020808301818452808551808352604092508286019150828160051b87010184880160005b83811015610bbb57888303603f19018552815180516001600160a01b03168452870151878401879052610ba887850182610b20565b9588019593505090860190600101610b73565b509098975050505050505050565b60006020808385031215610bdc57600080fd5b82516001600160401b03811115610bf257600080fd5b8301601f81018513610c0357600080fd5b8051610c1161096782610881565b81815260059190911b82018301908381019087831115610c3057600080fd5b928401925b8284101561064457835182529284019290840190610c35565b600060018060a01b03808616835260606020840152610c706060840186610b20565b9150808416604084015250949350505050565b600060208284031215610c9557600080fd5b5051919050565b60008251610cae818460208701610afc565b9190910192915050565b6020815260006104ae6020830184610b2056fea264697066735822122091d32daeeac0cfa61af8975a6339b2d654ee47c4a6af9218c11621d6d2e5e24b64736f6c63430008130033608060405234801561001057600080fd5b5061001961001e565b6100dd565b600054610100900460ff161561008a5760405162461bcd60e51b815260206004820152602760248201527f496e697469616c697a61626c653a20636f6e747261637420697320696e697469604482015266616c697a696e6760c81b606482015260840160405180910390fd5b60005460ff908116146100db576000805460ff191660ff9081179091556040519081527f7f26b83ff96e1f2b6a682f133852f6798a09c465da95921460cefb38474024989060200160405180910390a15b565b611ce3806100ec6000396000f3fe60806040526004361061011e5760003560e01c806223de29146101b057806301ffc9a7146101d0578063150b7a0214610205578063160a79251461023e57806319b9404c146102905780632f2bf18e146102b0578063572b6c05146102f4578063685b3cb51461031457806375ab97821461033a5780637615eb811461035a5780637bb7c0d81461037a5780637f0a4e271461039a578063a9059cbb146103ba578063bae78d7b146103da578063bc197c8114610407578063bdb3e1c414610433578063ce1b815f14610453578063d0922d4a1461048a578063d28fbf0a146104aa578063d610b570146104f2578063dcf489631461051f578063f03f542b1461053f578063f23a6e611461055f578063f49b58481461058b57600080fd5b366101ab5773__OrganLibrary__________________________63dd67b8566001346101486105ab565b6040516001600160e01b031960e086901b168152600481019390935260248301919091526001600160a01b0316604482015260640160006040518083038186803b15801561019557600080fd5b505af41580156101a9573d6000803e3d6000fd5b005b600080fd5b3480156101bc57600080fd5b506101a96101cb36600461117b565b6105d9565b3480156101dc57600080fd5b506101f06101eb36600461122b565b610653565b60405190151581526020015b60405180910390f35b34801561021157600080fd5b50610225610220366004611311565b6106f5565b6040516001600160e01b031990911681526020016101fc565b34801561024a57600080fd5b5061027761025936600461137c565b6001600160a01b031660009081526006602052604090205460f01b90565b6040516001600160f01b031990911681526020016101fc565b34801561029c57600080fd5b506101a96102ab36600461137c565b61078a565b3480156102bc57600080fd5b506102e66102cb36600461137c565b6001600160a01b031660009081526007602052604090205490565b6040519081526020016101fc565b34801561030057600080fd5b506101f061030f36600461137c565b610818565b34801561032057600080fd5b50610329610832565b6040516101fc9594939291906113df565b34801561034657600080fd5b506101a961035536600461117b565b610961565b34801561036657600080fd5b506101a96103753660046114ae565b6109a1565b34801561038657600080fd5b506101a96103953660046114ea565b6109e4565b3480156103a657600080fd5b506101a96103b5366004611563565b610b91565b3480156103c657600080fd5b506101a96103d536600461159c565b610c43565b3480156103e657600080fd5b506103fa6103f53660046115c8565b610cdb565b6040516101fc91906115e1565b34801561041357600080fd5b5061022561042236600461160e565b63bc197c8160e01b95945050505050565b34801561043f57600080fd5b506101a961044e3660046116bb565b610e21565b34801561045f57600080fd5b506000546201000090046001600160a01b03166040516001600160a01b0390911681526020016101fc565b34801561049657600080fd5b506101a96104a536600461170c565b610e97565b3480156104b657600080fd5b506104ca6104c53660046115c8565b610f3f565b604080516001600160a01b0390931683526001600160f01b03199091166020830152016101fc565b3480156104fe57600080fd5b5061051261050d3660046117c5565b610fc7565b6040516101fc9190611875565b34801561052b57600080fd5b506101a961053a3660046118b9565b611051565b34801561054b57600080fd5b506101a961055a3660046118ff565b611096565b34801561056b57600080fd5b5061022561057a366004611940565b63f23a6e6160e01b95945050505050565b34801561059757600080fd5b506101a96105a63660046116bb565b6110db565b6000601436108015906105c257506105c233610818565b156105d4575060131936013560601c90565b503390565b604051632c2f5d2960e21b815273__OrganLibrary__________________________9063b0bd74a490610619906001908c908c908c908c906004016119a8565b60006040518083038186803b15801561063157600080fd5b505af4158015610645573d6000803e3d6000fd5b505050505050505050505050565b60006001600160e01b031982166223de2960e01b148061068357506001600160e01b03198216633ad5cbc160e11b145b8061069e57506001600160e01b03198216630a85bd0160e11b145b806106b957506001600160e01b03198216630271189760e51b145b806106d457506001600160e01b0319821663784ae62f60e01b145b806106ef57506301ffc9a760e01b6001600160e01b03198316145b92915050565b604051634545992d60e11b8152600160048201526001600160a01b038086166024830152841660448201526064810183905260009073__OrganLibrary__________________________90638a8b325a9060840160006040518083038186803b15801561076157600080fd5b505af4158015610775573d6000803e3d6000fd5b50630a85bd0160e11b98975050505050505050565b73__OrganLibrary__________________________63b0248ab86001836107af6105ab565b6040516001600160e01b031960e086901b16815260048101939093526001600160a01b0391821660248401521660448201526064015b60006040518083038186803b1580156107fd57600080fd5b505af4158015610811573d6000803e3d6000fd5b5050505050565b6000546201000090046001600160a01b0390811691161490565b604051631948599560e31b815260016004820181905260609160009182918291829173__OrganLibrary__________________________9063ca42cca890602401602060405180830381865af4158015610890573d6000803e3d6000fd5b505050506040513d601f19601f820116820180604052508101906108b491906119d6565b600254600354835463784ae62f60e01b9085906108d0906119ef565b80601f01602080910402602001604051908101604052809291908181526020018280546108fc906119ef565b80156109495780601f1061091e57610100808354040283529160200191610949565b820191906000526020600020905b81548152906001019060200180831161092c57829003601f168201915b50505050509450945094509450945094509091929394565b604051630e7551c560e11b815273__OrganLibrary__________________________90631ceaa38a90610619906001908c908c908c908c906004016119a8565b73__OrganLibrary__________________________63c93038146001836109c66105ab565b6040518463ffffffff1660e01b81526004016107e593929190611a29565b600054610100900460ff1615808015610a045750600054600160ff909116105b80610a1e5750303b158015610a1e575060005460ff166001145b610a855760405162461bcd60e51b815260206004820152602e60248201527f496e697469616c697a61626c653a20636f6e747261637420697320616c72656160448201526d191e481a5b9a5d1a585b1a5e995960921b606482015260840160405180910390fd5b6000805460ff191660011790558015610aa8576000805461ff0019166101001790555b73__OrganLibrary__________________________636bca3df760018686610ace6105ab565b6040518563ffffffff1660e01b8152600401610aed9493929190611a8c565b60006040518083038186803b158015610b0557600080fd5b505af4158015610b19573d6000803e3d6000fd5b50506000805462010000600160b01b031916620100006001600160a01b0387160217905550610b459050565b8015610b8b576000805461ff0019169055604051600181527f7f26b83ff96e1f2b6a682f133852f6798a09c465da95921460cefb38474024989060200160405180910390a15b50505050565b73__OrganLibrary__________________________6324f8b7df60018484610bb76105ab565b6040516001600160e01b031960e087901b16815260048101949094526001600160a01b0392831660248501526001600160f01b03199091166044840152166064820152608401602060405180830381865af4158015610c1a573d6000803e3d6000fd5b505050506040513d601f19601f82011682018060405250810190610c3e91906119d6565b505050565b73__OrganLibrary__________________________634bc01d1260018484610c696105ab565b6040516001600160e01b031960e087901b16815260048101949094526001600160a01b03928316602485015260448401919091521660648201526084015b60006040518083038186803b158015610cbf57600080fd5b505af4158015610cd3573d6000803e3d6000fd5b505050505050565b60408051808201825260008152606060208201529051635935285960e01b8152600160048201526024810183905273__OrganLibrary__________________________90635935285990604401602060405180830381865af4158015610d45573d6000803e3d6000fd5b505050506040513d601f19601f82011682018060405250810190610d6991906119d6565b6040805180820190915281546001600160a01b03168152600182018054919291602084019190610d98906119ef565b80601f0160208091040260200160405190810160405280929190818152602001828054610dc4906119ef565b8015610e115780601f10610de657610100808354040283529160200191610e11565b820191906000526020600020905b815481529060010190602001808311610df457829003601f168201915b5050505050815250509050919050565b6040516350be2a0d60e01b815273__OrganLibrary__________________________906350be2a0d90610e619060019088908890889088906004016119a8565b60006040518083038186803b158015610e7957600080fd5b505af4158015610e8d573d6000803e3d6000fd5b5050505050505050565b73__OrganLibrary__________________________63ba3ac4866001858585610ebe6105ab565b6040516001600160e01b031960e088901b16815260048101959095526001600160a01b03938416602486015291831660448501526001600160f01b031916606484015216608482015260a40160006040518083038186803b158015610f2257600080fd5b505af4158015610f36573d6000803e3d6000fd5b50505050505050565b60405163431f2e8b60e11b81526001600482015260248101829052600090819073__OrganLibrary__________________________9063863e5d16906044016040805180830381865af4158015610f9a573d6000803e3d6000fd5b505050506040513d601f19601f82011682018060405250810190610fbe9190611ac8565b91509150915091565b606073__OrganLibrary__________________________63bfbb1b1f600184610fee6105ab565b6040518463ffffffff1660e01b815260040161100c93929190611b1e565b600060405180830381865af4158015611029573d6000803e3d6000fd5b505050506040513d6000823e601f3d908101601f191682016040526106ef9190810190611b9c565b73__OrganLibrary__________________________6392023c47600184846110776105ab565b6040518563ffffffff1660e01b8152600401610ca79493929190611c2c565b73__OrganLibrary__________________________634227d174600184846110bc6105ab565b6040518563ffffffff1660e01b8152600401610ca79493929190611c64565b604051630e7551c560e11b815273__OrganLibrary__________________________90631ceaa38a90610e619060019088908890889088906004016119a8565b6001600160a01b038116811461113057600080fd5b50565b60008083601f84011261114557600080fd5b5081356001600160401b0381111561115c57600080fd5b60208301915083602082850101111561117457600080fd5b9250929050565b60008060008060008060008060c0898b03121561119757600080fd5b88356111a28161111b565b975060208901356111b28161111b565b965060408901356111c28161111b565b95506060890135945060808901356001600160401b03808211156111e557600080fd5b6111f18c838d01611133565b909650945060a08b013591508082111561120a57600080fd5b506112178b828c01611133565b999c989b5096995094979396929594505050565b60006020828403121561123d57600080fd5b81356001600160e01b03198116811461125557600080fd5b9392505050565b634e487b7160e01b600052604160045260246000fd5b604051601f8201601f191681016001600160401b038111828210171561129a5761129a61125c565b604052919050565b600082601f8301126112b357600080fd5b81356001600160401b038111156112cc576112cc61125c565b6112df601f8201601f1916602001611272565b8181528460208386010111156112f457600080fd5b816020850160208301376000918101602001919091529392505050565b6000806000806080858703121561132757600080fd5b84356113328161111b565b935060208501356113428161111b565b92506040850135915060608501356001600160401b0381111561136457600080fd5b611370878288016112a2565b91505092959194509250565b60006020828403121561138e57600080fd5b81356112558161111b565b6000815180845260005b818110156113bf576020818501810151868301820152016113a3565b506000602082860101526020601f19601f83011685010191505092915050565b60a0815260006113f260a0830188611399565b602083019690965250604081019390935260608301919091526001600160e01b031916608090910152919050565b60006001600160401b038211156114395761143961125c565b5060051b60200190565b600082601f83011261145457600080fd5b8135602061146961146483611420565b611272565b82815260059290921b8401810191818101908684111561148857600080fd5b8286015b848110156114a3578035835291830191830161148c565b509695505050505050565b6000602082840312156114c057600080fd5b81356001600160401b038111156114d657600080fd5b6114e284828501611443565b949350505050565b6000806000606084860312156114ff57600080fd5b833561150a8161111b565b925060208401356001600160401b0381111561152557600080fd5b611531868287016112a2565b92505060408401356115428161111b565b809150509250925092565b6001600160f01b03198116811461113057600080fd5b6000806040838503121561157657600080fd5b82356115818161111b565b915060208301356115918161154d565b809150509250929050565b600080604083850312156115af57600080fd5b82356115ba8161111b565b946020939093013593505050565b6000602082840312156115da57600080fd5b5035919050565b602080825282516001600160a01b0316828201528201516040808301526000906114e26060840182611399565b600080600080600060a0868803121561162657600080fd5b85356116318161111b565b945060208601356116418161111b565b935060408601356001600160401b038082111561165d57600080fd5b61166989838a01611443565b9450606088013591508082111561167f57600080fd5b61168b89838a01611443565b935060808801359150808211156116a157600080fd5b506116ae888289016112a2565b9150509295509295909350565b600080600080608085870312156116d157600080fd5b84356116dc8161111b565b935060208501356116ec8161111b565b925060408501356116fc8161111b565b9396929550929360600135925050565b60008060006060848603121561172157600080fd5b833561172c8161111b565b9250602084013561173c8161111b565b915060408401356115428161154d565b60006040828403121561175e57600080fd5b604080519081016001600160401b0380821183831017156117815761178161125c565b81604052829350843591506117958261111b565b908252602084013590808211156117ab57600080fd5b506117b8858286016112a2565b6020830152505092915050565b600060208083850312156117d857600080fd5b82356001600160401b03808211156117ef57600080fd5b818501915085601f83011261180357600080fd5b813561181161146482611420565b81815260059190911b8301840190848101908883111561183057600080fd5b8585015b838110156118685780358581111561184c5760008081fd5b61185a8b89838a010161174c565b845250918601918601611834565b5098975050505050505050565b6020808252825182820181905260009190848201906040850190845b818110156118ad57835183529284019291840191600101611891565b50909695505050505050565b600080604083850312156118cc57600080fd5b8235915060208301356001600160401b038111156118e957600080fd5b6118f58582860161174c565b9150509250929050565b6000806020838503121561191257600080fd5b82356001600160401b0381111561192857600080fd5b61193485828601611133565b90969095509350505050565b600080600080600060a0868803121561195857600080fd5b85356119638161111b565b945060208601356119738161111b565b9350604086013592506060860135915060808601356001600160401b0381111561199c57600080fd5b6116ae888289016112a2565b9485526001600160a01b03938416602086015291831660408501529091166060830152608082015260a00190565b6000602082840312156119e857600080fd5b5051919050565b600181811c90821680611a0357607f821691505b602082108103611a2357634e487b7160e01b600052602260045260246000fd5b50919050565b6000606082018583526020606081850152818651808452608086019150828801935060005b81811015611a6a57845183529383019391830191600101611a4e565b50506001600160a01b0395909516604094909401939093525091949350505050565b848152600060018060a01b03808616602084015260806040840152611ab46080840186611399565b915080841660608401525095945050505050565b60008060408385031215611adb57600080fd5b8251611ae68161111b565b60208401519092506115918161154d565b60018060a01b03815116825260006020820151604060208501526114e26040850182611399565b600060608201858352602060608185015281865180845260808601915060808160051b870101935082880160005b82811015611b7a57607f19888703018452611b68868351611af7565b95509284019290840190600101611b4c565b505050506001600160a01b039490941660409390930192909252509392505050565b60006020808385031215611baf57600080fd5b82516001600160401b03811115611bc557600080fd5b8301601f81018513611bd657600080fd5b8051611be461146482611420565b81815260059190911b82018301908381019087831115611c0357600080fd5b928401925b82841015611c2157835182529284019290840190611c08565b979650505050505050565b848152836020820152608060408201526000611c4b6080830185611af7565b905060018060a01b038316606083015295945050505050565b848152606060208201528260608201528284608083013760008184016080908101919091526001600160a01b03929092166040820152601f909201601f1916909101019291505056fea26469706673582212209492375dc29edbe78f258769b575a0baf5c31fba4be60488e842dbb1b474001d64736f6c63430008130033",
  "immutableReferences": {},
  "source": "// SPDX-License-Identifier: LGPL-3.0-or-later\npragma solidity 0.8.19;\npragma experimental ABIEncoderV2;\n\nimport \"./Organ.sol\";\nimport \"./libraries/CoreLibrary.sol\";\nimport \"@openzeppelin/contracts/utils/introspection/ERC165Checker.sol\";\nimport \"@openzeppelin/contracts/proxy/Clones.sol\";\nimport \"@openzeppelin/contracts/utils/Address.sol\";\nimport \"@opengsn/contracts/src/ERC2771Recipient.sol\";\n\ncontract Organigram is ERC2771Recipient {\n    using CoreLibrary for CoreLibrary.Entry;\n    address payable public organ;\n    address payable public procedures; // Organ with procedures addresses.\n\n    event organCreated(address payable organ);\n    event procedureCreated(address payable procedureType, address payable procedure);\n\n    constructor(string memory cid, address trustedForwarder)\n    {\n        _setTrustedForwarder(trustedForwarder);\n        organ = payable(address(new Organ()));\n        procedures = createOrgan(payable(_msgSender()), cid);\n    }\n\n    function createOrgan(\n        address payable admin,\n        string memory cid\n    )\n        public\n        returns (address payable clone)\n    {\n        // Clone organ and initialize it.\n        clone = payable(Clones.clone(organ));\n        Organ(clone).initialize(admin, cid, getTrustedForwarder());\n        emit organCreated(clone);\n        return clone;\n    }\n\n    // @todo : Implement Diamond in Organigram.sol ? https://eips.ethereum.org/EIPS/eip-2535\n    /**\n     *  Create a procedure from a procedure type.\n     *  Because we are cloning the procedure, we will need to call initialize immediately.\n     *  We can put the initialize() populated transaction data in the data parameter.\n     */\n    function createProcedure(address payable procedureType, bytes memory data)\n        public\n        returns (address payable procedure)\n    {\n        // Check if procedure.\n        require(ERC165Checker.supportsInterface(procedureType, 0x71dbd330), \"Not a procedure.\");\n        // Check if procedure is in registry.\n        require(Organ(procedures).getEntryIndexForAddress(procedureType) > 0, \"Procedure not found.\");\n        // Creates a minimal clone.\n        procedure = payable(Clones.clone(procedureType));\n        emit procedureCreated(procedureType, procedure);\n        // NB: The initialize method will need to be called immediately\n        // if not through the data parameter.\n        if (data.length > 0) {\n            Address.functionCall(procedure, data);\n        }\n        return procedure;\n    }\n\n    function registerProcedures(CoreLibrary.Entry[] memory entries)\n        external\n    {\n        // Only valid procedures\n        for (uint256 i; i < entries.length; ++i) {\n            require(\n                ERC165Checker.supportsInterface(entries[i].addr, 0x71dbd330),\n                \"An entry in parameters is not a valid procedure.\"\n            );\n        }\n        Organ(organ).addEntries(entries);\n    }\n}",
  "sourcePath": "/Users/louis/organigram/packages/contracts/contracts/Organigram.sol",
  "compiler": {
    "name": "solc",
    "version": "0.8.19+commit.7dd6d404.Emscripten.clang"
  },
  "schemaVersion": "3.4.16",
  "updatedAt": "2023-10-03T20:53:11.247Z",
  "networkType": "ethereum",
  "devdoc": {
    "kind": "dev",
    "methods": {
      "getTrustedForwarder()": {
        "returns": {
          "forwarder": "The address of the Forwarder contract that is being used."
        }
      },
      "isTrustedForwarder(address)": {
        "params": {
          "forwarder": "The address of the Forwarder contract that is being used."
        },
        "returns": {
          "_0": "isTrustedForwarder `true` if the Forwarder is trusted to forward relayed transactions by this Recipient."
        }
      }
    },
    "version": 1
  },
  "userdoc": {
    "kind": "user",
    "methods": {
      "createProcedure(address,bytes)": {
        "notice": "Create a procedure from a procedure type.  Because we are cloning the procedure, we will need to call initialize immediately.  We can put the initialize() populated transaction data in the data parameter."
      },
      "getTrustedForwarder()": {
        "notice": ":warning: **Warning** :warning: The Forwarder can have a full control over your Recipient. Only trust verified Forwarder.Method is not a required method to allow Recipients to trust multiple Forwarders. Not recommended yet."
      },
      "isTrustedForwarder(address)": {
        "notice": ":warning: **Warning** :warning: The Forwarder can have a full control over your Recipient. Only trust verified Forwarder."
      }
    },
    "version": 1
  }
}