{
  "contractName": "Organ",
  "abi": [
    {
      "inputs": [],
      "stateMutability": "nonpayable",
      "type": "constructor"
    },
    {
      "stateMutability": "payable",
      "type": "receive"
    },
    {
      "inputs": [
        {
          "internalType": "bytes4",
          "name": "interfaceId",
          "type": "bytes4"
        }
      ],
      "name": "supportsInterface",
      "outputs": [
        {
          "internalType": "bool",
          "name": "",
          "type": "bool"
        }
      ],
      "stateMutability": "view",
      "type": "function"
    },
    {
      "inputs": [
        {
          "internalType": "address payable",
          "name": "admin",
          "type": "address"
        },
        {
          "components": [
            {
              "internalType": "bytes32",
              "name": "ipfsHash",
              "type": "bytes32"
            },
            {
              "internalType": "uint8",
              "name": "hashFunction",
              "type": "uint8"
            },
            {
              "internalType": "uint8",
              "name": "hashSize",
              "type": "uint8"
            }
          ],
          "internalType": "struct CoreLibrary.Metadata",
          "name": "metadata",
          "type": "tuple"
        }
      ],
      "name": "initialize",
      "outputs": [],
      "stateMutability": "nonpayable",
      "type": "function"
    },
    {
      "inputs": [
        {
          "internalType": "address payable",
          "name": "to",
          "type": "address"
        },
        {
          "internalType": "uint256",
          "name": "value",
          "type": "uint256"
        }
      ],
      "name": "transfer",
      "outputs": [],
      "stateMutability": "nonpayable",
      "type": "function"
    },
    {
      "inputs": [
        {
          "internalType": "address",
          "name": "operator",
          "type": "address"
        },
        {
          "internalType": "address",
          "name": "from",
          "type": "address"
        },
        {
          "internalType": "address",
          "name": "to",
          "type": "address"
        },
        {
          "internalType": "uint256",
          "name": "amount",
          "type": "uint256"
        },
        {
          "internalType": "bytes",
          "name": "",
          "type": "bytes"
        },
        {
          "internalType": "bytes",
          "name": "",
          "type": "bytes"
        }
      ],
      "name": "tokensReceived",
      "outputs": [],
      "stateMutability": "nonpayable",
      "type": "function"
    },
    {
      "inputs": [
        {
          "internalType": "address",
          "name": "operator",
          "type": "address"
        },
        {
          "internalType": "address",
          "name": "from",
          "type": "address"
        },
        {
          "internalType": "address",
          "name": "to",
          "type": "address"
        },
        {
          "internalType": "uint256",
          "name": "amount",
          "type": "uint256"
        },
        {
          "internalType": "bytes",
          "name": "",
          "type": "bytes"
        },
        {
          "internalType": "bytes",
          "name": "",
          "type": "bytes"
        }
      ],
      "name": "tokensToSend",
      "outputs": [],
      "stateMutability": "nonpayable",
      "type": "function"
    },
    {
      "inputs": [
        {
          "internalType": "address",
          "name": "operator",
          "type": "address"
        },
        {
          "internalType": "address",
          "name": "from",
          "type": "address"
        },
        {
          "internalType": "address",
          "name": "to",
          "type": "address"
        },
        {
          "internalType": "uint256",
          "name": "amount",
          "type": "uint256"
        }
      ],
      "name": "transferCoins",
      "outputs": [],
      "stateMutability": "nonpayable",
      "type": "function"
    },
    {
      "inputs": [
        {
          "internalType": "address",
          "name": "operator",
          "type": "address"
        },
        {
          "internalType": "address",
          "name": "from",
          "type": "address"
        },
        {
          "internalType": "uint256",
          "name": "tokenId",
          "type": "uint256"
        },
        {
          "internalType": "bytes",
          "name": "",
          "type": "bytes"
        }
      ],
      "name": "onERC721Received",
      "outputs": [
        {
          "internalType": "bytes4",
          "name": "",
          "type": "bytes4"
        }
      ],
      "stateMutability": "nonpayable",
      "type": "function"
    },
    {
      "inputs": [
        {
          "components": [
            {
              "internalType": "bytes32",
              "name": "ipfsHash",
              "type": "bytes32"
            },
            {
              "internalType": "uint8",
              "name": "hashFunction",
              "type": "uint8"
            },
            {
              "internalType": "uint8",
              "name": "hashSize",
              "type": "uint8"
            }
          ],
          "internalType": "struct CoreLibrary.Metadata",
          "name": "metadata",
          "type": "tuple"
        }
      ],
      "name": "updateMetadata",
      "outputs": [],
      "stateMutability": "nonpayable",
      "type": "function"
    },
    {
      "inputs": [
        {
          "components": [
            {
              "internalType": "address",
              "name": "addr",
              "type": "address"
            },
            {
              "components": [
                {
                  "internalType": "bytes32",
                  "name": "ipfsHash",
                  "type": "bytes32"
                },
                {
                  "internalType": "uint8",
                  "name": "hashFunction",
                  "type": "uint8"
                },
                {
                  "internalType": "uint8",
                  "name": "hashSize",
                  "type": "uint8"
                }
              ],
              "internalType": "struct CoreLibrary.Metadata",
              "name": "doc",
              "type": "tuple"
            }
          ],
          "internalType": "struct CoreLibrary.Entry[]",
          "name": "entries",
          "type": "tuple[]"
        }
      ],
      "name": "addEntries",
      "outputs": [
        {
          "internalType": "uint256[]",
          "name": "indexes",
          "type": "uint256[]"
        }
      ],
      "stateMutability": "nonpayable",
      "type": "function"
    },
    {
      "inputs": [
        {
          "internalType": "uint256[]",
          "name": "indexes",
          "type": "uint256[]"
        }
      ],
      "name": "removeEntries",
      "outputs": [],
      "stateMutability": "nonpayable",
      "type": "function"
    },
    {
      "inputs": [
        {
          "internalType": "uint256",
          "name": "index",
          "type": "uint256"
        },
        {
          "components": [
            {
              "internalType": "address",
              "name": "addr",
              "type": "address"
            },
            {
              "components": [
                {
                  "internalType": "bytes32",
                  "name": "ipfsHash",
                  "type": "bytes32"
                },
                {
                  "internalType": "uint8",
                  "name": "hashFunction",
                  "type": "uint8"
                },
                {
                  "internalType": "uint8",
                  "name": "hashSize",
                  "type": "uint8"
                }
              ],
              "internalType": "struct CoreLibrary.Metadata",
              "name": "doc",
              "type": "tuple"
            }
          ],
          "internalType": "struct CoreLibrary.Entry",
          "name": "entry",
          "type": "tuple"
        }
      ],
      "name": "replaceEntry",
      "outputs": [],
      "stateMutability": "nonpayable",
      "type": "function"
    },
    {
      "inputs": [
        {
          "internalType": "address",
          "name": "procedure",
          "type": "address"
        },
        {
          "internalType": "bytes2",
          "name": "permissions",
          "type": "bytes2"
        }
      ],
      "name": "addProcedure",
      "outputs": [],
      "stateMutability": "nonpayable",
      "type": "function"
    },
    {
      "inputs": [
        {
          "internalType": "address",
          "name": "procedure",
          "type": "address"
        }
      ],
      "name": "removeProcedure",
      "outputs": [],
      "stateMutability": "nonpayable",
      "type": "function"
    },
    {
      "inputs": [
        {
          "internalType": "address",
          "name": "oldProcedure",
          "type": "address"
        },
        {
          "internalType": "address",
          "name": "newProcedure",
          "type": "address"
        },
        {
          "internalType": "bytes2",
          "name": "permissions",
          "type": "bytes2"
        }
      ],
      "name": "replaceProcedure",
      "outputs": [],
      "stateMutability": "nonpayable",
      "type": "function"
    },
    {
      "inputs": [],
      "name": "getOrgan",
      "outputs": [
        {
          "components": [
            {
              "internalType": "bytes32",
              "name": "ipfsHash",
              "type": "bytes32"
            },
            {
              "internalType": "uint8",
              "name": "hashFunction",
              "type": "uint8"
            },
            {
              "internalType": "uint8",
              "name": "hashSize",
              "type": "uint8"
            }
          ],
          "internalType": "struct CoreLibrary.Metadata",
          "name": "metadata",
          "type": "tuple"
        },
        {
          "internalType": "uint256",
          "name": "proceduresLength",
          "type": "uint256"
        },
        {
          "internalType": "uint256",
          "name": "entriesLength",
          "type": "uint256"
        },
        {
          "internalType": "uint256",
          "name": "entriesCount",
          "type": "uint256"
        }
      ],
      "stateMutability": "view",
      "type": "function"
    },
    {
      "inputs": [
        {
          "internalType": "address",
          "name": "addr",
          "type": "address"
        }
      ],
      "name": "getEntryIndexForAddress",
      "outputs": [
        {
          "internalType": "uint256",
          "name": "index",
          "type": "uint256"
        }
      ],
      "stateMutability": "view",
      "type": "function"
    },
    {
      "inputs": [
        {
          "internalType": "uint256",
          "name": "index",
          "type": "uint256"
        }
      ],
      "name": "getEntry",
      "outputs": [
        {
          "components": [
            {
              "internalType": "address",
              "name": "addr",
              "type": "address"
            },
            {
              "components": [
                {
                  "internalType": "bytes32",
                  "name": "ipfsHash",
                  "type": "bytes32"
                },
                {
                  "internalType": "uint8",
                  "name": "hashFunction",
                  "type": "uint8"
                },
                {
                  "internalType": "uint8",
                  "name": "hashSize",
                  "type": "uint8"
                }
              ],
              "internalType": "struct CoreLibrary.Metadata",
              "name": "doc",
              "type": "tuple"
            }
          ],
          "internalType": "struct CoreLibrary.Entry",
          "name": "entry",
          "type": "tuple"
        }
      ],
      "stateMutability": "view",
      "type": "function"
    },
    {
      "inputs": [
        {
          "internalType": "uint256",
          "name": "index",
          "type": "uint256"
        }
      ],
      "name": "getProcedure",
      "outputs": [
        {
          "internalType": "address",
          "name": "addr",
          "type": "address"
        },
        {
          "internalType": "bytes2",
          "name": "perms",
          "type": "bytes2"
        }
      ],
      "stateMutability": "view",
      "type": "function"
    },
    {
      "inputs": [
        {
          "internalType": "address",
          "name": "addr",
          "type": "address"
        }
      ],
      "name": "getPermissions",
      "outputs": [
        {
          "internalType": "bytes2",
          "name": "perms",
          "type": "bytes2"
        }
      ],
      "stateMutability": "view",
      "type": "function"
    }
  ],
  "bytecode": "0x608060405234801561001057600080fd5b5060408051606081018252600080825260208201818152828401918252925163659f204d60e01b81526001600482015233602482015291516044830152915160ff90811660648301529151909116608482015273__OrganLibrary__________________________9063659f204d9060a40160006040518083038186803b15801561009a57600080fd5b505af41580156100ae573d6000803e3d6000fd5b505050506116e1806100c16000396000f3fe6080604052600436106100e75760003560e01c806223de291461015c57806301ffc9a71461017e578063150b7a02146101b3578063160a7925146101ec57806319b9404c1461023e5780632f2bf18e1461025e5780634d3f8407146102a257806362f7f997146102c2578063685b3cb5146102e257806375ab9782146103075780637615eb81146103275780637f0a4e271461034757806395304aa114610367578063a9059cbb14610387578063bae78d7b146103a7578063bbc56af9146103d4578063d0922d4a14610401578063d28fbf0a14610421578063f49b58481461046957600080fd5b3661015757604051631eb50c8b60e11b81526001600482015234602482015273__OrganLibrary__________________________90633d6a19169060440160006040518083038186803b15801561013d57600080fd5b505af4158015610151573d6000803e3d6000fd5b50505050005b600080fd5b34801561016857600080fd5b5061017c610177366004610fa4565b610489565b005b34801561018a57600080fd5b5061019e610199366004611368565b610503565b60405190151581526020015b60405180910390f35b3480156101bf57600080fd5b506101d36101ce36600461109b565b61053a565b6040516001600160e01b031990911681526020016101aa565b3480156101f857600080fd5b50610225610207366004610ed1565b6001600160a01b031660009081526007602052604090205460f01b90565b6040516001600160f01b031990911681526020016101aa565b34801561024a57600080fd5b5061017c610259366004610ed1565b6105d1565b34801561026a57600080fd5b50610294610279366004610ed1565b6001600160a01b031660009081526008602052604090205490565b6040519081526020016101aa565b3480156102ae57600080fd5b5061017c6102bd3660046113a8565b610647565b3480156102ce57600080fd5b5061017c6102dd3660046113d7565b610681565b3480156102ee57600080fd5b506102f76106f1565b6040516101aa94939291906114a7565b34801561031357600080fd5b5061017c610322366004610fa4565b6107c2565b34801561033357600080fd5b5061017c61034236600461125c565b610802565b34801561035357600080fd5b5061017c610362366004611156565b61083c565b34801561037357600080fd5b5061017c610382366004610ef4565b6108e3565b34801561039357600080fd5b5061017c6103a2366004610f29565b610a07565b3480156103b357600080fd5b506103c76103c23660046113bf565b610a55565b6040516101aa919061147c565b3480156103e057600080fd5b506103f46103ef3660046111bc565b610b3b565b6040516101aa9190611438565b34801561040d57600080fd5b5061017c61041c366004611051565b610bcc565b34801561042d57600080fd5b5061044161043c3660046113bf565b610c5b565b604080516001600160a01b0390931683526001600160f01b03199091166020830152016101aa565b34801561047557600080fd5b5061017c610484366004610f54565b610cf2565b604051632c2f5d2960e21b815273__OrganLibrary__________________________9063b0bd74a4906104c9906001908c908c908c908c906004016114f3565b60006040518083038186803b1580156104e157600080fd5b505af41580156104f5573d6000803e3d6000fd5b505050505050505050505050565b60006001600160e01b0319821663f81b130760e01b148061053457506301ffc9a760e01b6001600160e01b03198316145b92915050565b604051634545992d60e11b8152600160048201526001600160a01b038086166024830152841660448201526064810183905260009073__OrganLibrary__________________________90638a8b325a9060840160006040518083038186803b1580156105a657600080fd5b505af41580156105ba573d6000803e3d6000fd5b50630a85bd0160e11b93505050505b949350505050565b604051633974fa3360e01b8152600160048201526001600160a01b038216602482015273__OrganLibrary__________________________90633974fa33906044015b60006040518083038186803b15801561062c57600080fd5b505af4158015610640573d6000803e3d6000fd5b5050505050565b6040516310e0ba3760e31b815273__OrganLibrary__________________________90638705d1b8906106149060019085906004016115b8565b60405163164b978d60e01b815273__OrganLibrary__________________________9063164b978d906106bd90600190869086906004016115f9565b60006040518083038186803b1580156106d557600080fd5b505af41580156106e9573d6000803e3d6000fd5b505050505050565b6106f9610d68565b604051631948599560e31b81526001600482018190526000918291829173__OrganLibrary__________________________9063ca42cca89060240160206040518083038186803b15801561074d57600080fd5b505af4158015610761573d6000803e3d6000fd5b505050506040513d601f19601f820116820180604052508101906107859190611390565b600354600454604080516060810182528554815260019095015460ff80821660208801526101009091041690850152929791965094509092509050565b604051630e7551c560e11b815273__OrganLibrary__________________________90631ceaa38a906104c9906001908c908c908c908c906004016114f3565b604051638e15bab760e01b815273__OrganLibrary__________________________90638e15bab790610614906001908590600401611578565b6040516399f3d1db60e01b8152600160048201526001600160a01b03831660248201526001600160f01b03198216604482015273__OrganLibrary__________________________906399f3d1db9060640160206040518083038186803b1580156108a657600080fd5b505af41580156108ba573d6000803e3d6000fd5b505050506040513d601f19601f820116820180604052508101906108de9190611390565b505050565b600054610100900460ff16806108fc575060005460ff16155b6109635760405162461bcd60e51b815260206004820152602e60248201527f496e697469616c697a61626c653a20636f6e747261637420697320616c72656160448201526d191e481a5b9a5d1a585b1a5e995960921b606482015260840160405180910390fd5b600054610100900460ff16158015610985576000805461ffff19166101011790555b60405163659f204d60e01b815273__OrganLibrary__________________________9063659f204d906109c190600190879087906004016114d0565b60006040518083038186803b1580156109d957600080fd5b505af41580156109ed573d6000803e3d6000fd5b5050505080156108de576000805461ff0019169055505050565b60405163432787d960e01b8152600160048201526001600160a01b03831660248201526044810182905273__OrganLibrary__________________________9063432787d9906064016106bd565b610a5d610d88565b604051635935285960e01b8152600160048201526024810183905273__OrganLibrary__________________________9063593528599060440160206040518083038186803b158015610aaf57600080fd5b505af4158015610ac3573d6000803e3d6000fd5b505050506040513d601f19601f82011682018060405250810190610ae79190611390565b60408051808201825282546001600160a01b0316815281516060810183526001840154815260029093015460ff80821660208681019190915261010090920416928401929092529081019190915292915050565b60405163d1f1e72360e01b815260609073__OrganLibrary__________________________9063d1f1e72390610b78906001908690600401611521565b60006040518083038186803b158015610b9057600080fd5b505af4158015610ba4573d6000803e3d6000fd5b505050506040513d6000823e601f3d908101601f1916820160405261053491908101906112e2565b604051637c64ce1b60e11b8152600160048201526001600160a01b038085166024830152831660448201526001600160f01b03198216606482015273__OrganLibrary__________________________9063f8c99c369060840160006040518083038186803b158015610c3e57600080fd5b505af4158015610c52573d6000803e3d6000fd5b50505050505050565b60405163431f2e8b60e11b81526001600482015260248101829052600090819073__OrganLibrary__________________________9063863e5d1690604401604080518083038186803b158015610cb157600080fd5b505af4158015610cc5573d6000803e3d6000fd5b505050506040513d601f19601f82011682018060405250810190610ce9919061118e565b91509150915091565b604051630e7551c560e11b815273__OrganLibrary__________________________90631ceaa38a90610d329060019088908890889088906004016114f3565b60006040518083038186803b158015610d4a57600080fd5b505af4158015610d5e573d6000803e3d6000fd5b5050505050505050565b604080516060810182526000808252602082018190529181019190915290565b604051806040016040528060006001600160a01b03168152602001610dab610d68565b905290565b60008083601f840112610dc1578182fd5b5081356001600160401b03811115610dd7578182fd5b602083019150836020828501011115610def57600080fd5b9250929050565b600060808284031215610e07578081fd5b604080519081016001600160401b0381118282101715610e2957610e29611667565b6040529050808235610e3a8161167d565b8152610e498460208501610e55565b60208201525092915050565b600060608284031215610e66578081fd5b604051606081016001600160401b0381118282101715610e8857610e88611667565b60405282358152905080610e9e60208401610ebb565b6020820152610eaf60408401610ebb565b60408201525092915050565b803560ff81168114610ecc57600080fd5b919050565b600060208284031215610ee2578081fd5b8135610eed8161167d565b9392505050565b60008060808385031215610f06578081fd5b8235610f118161167d565b9150610f208460208501610e55565b90509250929050565b60008060408385031215610f3b578182fd5b8235610f468161167d565b946020939093013593505050565b60008060008060808587031215610f69578182fd5b8435610f748161167d565b93506020850135610f848161167d565b92506040850135610f948161167d565b9396929550929360600135925050565b60008060008060008060008060c0898b031215610fbf578586fd5b8835610fca8161167d565b97506020890135610fda8161167d565b96506040890135610fea8161167d565b95506060890135945060808901356001600160401b038082111561100c578586fd5b6110188c838d01610db0565b909650945060a08b0135915080821115611030578384fd5b5061103d8b828c01610db0565b999c989b5096995094979396929594505050565b600080600060608486031215611065578081fd5b83356110708161167d565b925060208401356110808161167d565b9150604084013561109081611695565b809150509250925092565b600080600080608085870312156110b0578182fd5b84356110bb8161167d565b93506020858101356110cc8161167d565b93506040860135925060608601356001600160401b03808211156110ee578384fd5b818801915088601f830112611101578384fd5b81358181111561111357611113611667565b611125601f8201601f19168501611614565b9150808252898482850101111561113a578485fd5b8084840185840137810190920192909252939692955090935050565b60008060408385031215611168578182fd5b82356111738161167d565b9150602083013561118381611695565b809150509250929050565b600080604083850312156111a0578182fd5b82516111ab8161167d565b602084015190925061118381611695565b600060208083850312156111ce578182fd5b82356001600160401b038111156111e3578283fd5b8301601f810185136111f3578283fd5b803561120661120182611644565b611614565b80828252848201915084840188868560071b8701011115611225578687fd5b8694505b838510156112505761123b8982610df6565b83526001949094019391850191608001611229565b50979650505050505050565b6000602080838503121561126e578182fd5b82356001600160401b03811115611283578283fd5b8301601f81018513611293578283fd5b80356112a161120182611644565b80828252848201915084840188868560051b87010111156112c0578687fd5b8694505b838510156112505780358352600194909401939185019185016112c4565b600060208083850312156112f4578182fd5b82516001600160401b03811115611309578283fd5b8301601f81018513611319578283fd5b805161132761120182611644565b80828252848201915084840188868560051b8701011115611346578687fd5b8694505b8385101561125057805183526001949094019391850191850161134a565b600060208284031215611379578081fd5b81356001600160e01b031981168114610eed578182fd5b6000602082840312156113a1578081fd5b5051919050565b6000606082840312156113b9578081fd5b50919050565b6000602082840312156113d0578081fd5b5035919050565b60008060a083850312156113e9578182fd5b82359150610f208460208501610df6565b80516001600160a01b03168252602080820151906108de908401825b8051825260ff602082015116602083015260ff60408201511660408301525050565b6020808252825182820181905260009190848201906040850190845b8181101561147057835183529284019291840191600101611454565b50909695505050505050565b81516001600160a01b0316815260208083015160808301916114a090840182611416565b5092915050565b60c081016114b58287611416565b8460608301528360808301528260a083015295945050505050565b8381526001600160a01b038316602082015260a081016105c96040830184611416565b9485526001600160a01b03938416602086015291831660408501529091166060830152608082015260a00190565b60006040820184835260206040818501528185518084526060860191508287019350845b8181101561156b576115588386516113fa565b9383019360809290920191600101611545565b5090979650505050505050565b60006040820184835260206040818501528185518084526060860191508287019350845b8181101561156b5784518352938301939183019160010161159c565b60006080820190508382528235602083015260ff6115d860208501610ebb565b16604083015260ff6115ec60408501610ebb565b1660608301529392505050565b8381526020810183905260c081016105c960408301846113fa565b604051601f8201601f191681016001600160401b038111828210171561163c5761163c611667565b604052919050565b60006001600160401b0382111561165d5761165d611667565b5060051b60200190565b634e487b7160e01b600052604160045260246000fd5b6001600160a01b038116811461169257600080fd5b50565b6001600160f01b03198116811461169257600080fdfea2646970667358221220a6402c400a88de02542567350e03db322810b199ed3f89678203d155c10c07cc64736f6c63430008040033",
  "immutableReferences": {},
  "source": "// SPDX-License-Identifier: LGPL-3.0-or-later\npragma solidity ^0.8.0;\npragma experimental ABIEncoderV2;\n\nimport \"./libraries/CoreLibrary.sol\";\nimport \"./libraries/OrganLibrary.sol\";\nimport \"./IOrgan.sol\";\nimport \"@openzeppelin/contracts/utils/structs/EnumerableSet.sol\";\nimport \"@openzeppelin/contracts/token/ERC721/IERC721.sol\";\nimport \"@openzeppelin/contracts/token/ERC777/IERC777.sol\";\nimport \"@openzeppelin/contracts/utils/introspection/ERC165.sol\";\nimport \"@openzeppelin/contracts/proxy/utils/Initializable.sol\";\nimport \"@openzeppelin/contracts/token/ERC777/IERC777Recipient.sol\";\nimport \"@openzeppelin/contracts/token/ERC777/IERC777Sender.sol\";\nimport \"@openzeppelin/contracts/token/ERC721/IERC721Receiver.sol\";\n\n/**\n    An organ contains a list of entries and a set of procedures.\n    A procedure is a contract that can effect changes on organs.\n    An entry can be a document and/or an address (a wallet or a contract).\n*/\n\ncontract Organ is\n    IOrgan,\n    ERC165,\n    Initializable,\n    IERC777Recipient,\n    IERC777Sender,\n    IERC721Receiver\n{\n    using CoreLibrary for CoreLibrary.Metadata;\n    using CoreLibrary for CoreLibrary.Entry;\n    using OrganLibrary for OrganLibrary.OrganData;\n\n    // Organ data storage.\n    OrganLibrary.OrganData internal organData;\n    bytes4 constant INTERFACE_ID = type(IOrgan).interfaceId;\n\n    /**\n        Organ API.\n    */\n\n    constructor()\n    {\n        organData.init(msg.sender, CoreLibrary.Metadata(0, 0, 0));\n    }\n\n    // Register EIP165 interfaces for introspection.\n    function supportsInterface(bytes4 interfaceId) public view virtual override returns (bool) {\n        return interfaceId == INTERFACE_ID || super.supportsInterface(interfaceId);\n    }\n\n    function initialize(\n        address payable admin,\n        CoreLibrary.Metadata memory metadata\n    )\n        external\n        initializer\n        override\n    {\n        organData.init(admin, metadata);\n    }\n\n    // Assets.\n\n    receive()\n        external\n        payable\n    {\n        organData.receiveEther(msg.value);\n    }\n\n    // @todo : Protect ether transfers against re-entrancy attacks.\n    function transfer(address payable to, uint256 value)\n        public\n    {\n        organData.transferEther(to, value);\n    }\n\n    // Implementing ERC-777 receiver interface.\n    function tokensReceived(\n        address operator,\n        address from,\n        address to,\n        uint256 amount,\n        bytes calldata, /*data*/\n        bytes calldata /*operatorData*/\n    )\n        external\n        override\n    {\n        organData.receiveCoins(operator, from, to, amount);\n    }\n\n    function tokensToSend(\n        address operator,\n        address from,\n        address to,\n        uint256 amount,\n        bytes calldata, /*userData*/\n        bytes calldata /*operatorData*/\n    )\n        external\n        override\n    {\n        organData.transferCoins(operator, from, to, amount);\n    }\n\n    function transferCoins(\n        address operator,\n        address from,\n        address to,\n        uint256 amount\n    )\n        external\n    {\n        organData.transferCoins(operator, from, to, amount);\n    }\n\n    // Implementing ERC-721 receiver interface.\n    function onERC721Received(\n        address operator,\n        address from,\n        uint256 tokenId,\n        bytes memory /*data*/\n    )\n        public\n        override\n        returns (bytes4)\n    {\n        organData.receiveCollectible(operator, from, tokenId);\n        return this.onERC721Received.selector;\n    }\n\n    function updateMetadata(CoreLibrary.Metadata calldata metadata)\n        external\n        override\n    {\n        organData.updateMetadata(metadata);\n    }\n\n    /*\n        API for Procedure contract.\n    */\n\n    function addEntries(CoreLibrary.Entry[] memory entries)\n        external\n        override\n        returns (uint256[] memory indexes)\n    {\n        return organData.addEntries(entries);\n    }\n\n    function removeEntries(uint256[] memory indexes)\n        external\n        override\n    {\n        organData.removeEntries(indexes);\n    }\n\n    function replaceEntry(\n        uint256 index,\n        CoreLibrary.Entry memory entry\n    )\n        external\n        override\n    {\n        organData.replaceEntry(index, entry);\n    }\n\n    // @TODO : Should be plural.\n    function addProcedure(address procedure, bytes2 permissions)\n        external\n        override\n    {\n        organData.addProcedure(procedure, permissions);\n    }\n\n    // @TODO : Should be plural.\n    function removeProcedure(address procedure)\n        external\n        override\n    {\n        organData.removeProcedure(procedure);\n    }\n\n    function replaceProcedure(\n        address oldProcedure,\n        address newProcedure,\n        bytes2 permissions\n    )\n        external\n        override\n    {\n        organData.replaceProcedure(oldProcedure, newProcedure, permissions);\n    }\n\n    /*\n        Accessors.\n    */\n\n    function getOrgan()\n        external\n        view\n        override\n        returns (\n            CoreLibrary.Metadata memory metadata,\n            uint256 proceduresLength,\n            uint256 entriesLength,\n            uint256 entriesCount\n        )\n    {\n        return (\n            organData.metadata,\n            organData.getProceduresLength(),\n            organData.entries.length,\n            organData.entriesCount\n        );\n    }\n\n    function getEntryIndexForAddress(address addr)\n        external\n        view\n        override\n        returns (uint256 index)\n    {\n        return organData.addressIndexInEntries[addr];\n    }\n\n    function getEntry(uint256 index)\n        external\n        view\n        override\n        returns (CoreLibrary.Entry memory entry)\n    {\n        return organData.getEntry(index);\n    }\n\n    function getProcedure(uint256 index)\n        external\n        view\n        override\n        returns (address addr, bytes2 perms)\n    {\n        return organData.getProcedure(index);\n    }\n\n    function getPermissions(address addr)\n        external\n        view\n        override\n        returns (bytes2 perms)\n    {\n        return organData.permissions[addr];\n    }\n}\n",
  "sourcePath": "/Users/alex/Code/organigr.am-refactoring/packages/@organigram/contracts/contracts/Organ.sol",
  "compiler": {
    "name": "solc",
    "version": "0.8.4+commit.c7e474f2.Emscripten.clang"
  },
  "schemaVersion": "3.4.1",
  "updatedAt": "2021-05-26T21:15:04.809Z",
  "devdoc": {
    "kind": "dev",
    "methods": {
      "supportsInterface(bytes4)": {
        "details": "See {IERC165-supportsInterface}."
      }
    },
    "version": 1
  },
  "userdoc": {
    "kind": "user",
    "methods": {
      "constructor": {
        "notice": "Organ API."
      }
    },
    "notice": "An organ contains a list of entries and a set of procedures. A procedure is a contract that can effect changes on organs. An entry can be a document and/or an address (a wallet or a contract).",
    "version": 1
  }
}