{
  "contractName": "Organ",
  "abi": [
    {
      "inputs": [
        {
          "internalType": "address payable",
          "name": "admin",
          "type": "address"
        },
        {
          "internalType": "bytes32",
          "name": "metadataIpfsHash",
          "type": "bytes32"
        },
        {
          "internalType": "uint8",
          "name": "metadataHashFunction",
          "type": "uint8"
        },
        {
          "internalType": "uint8",
          "name": "metadataHashSize",
          "type": "uint8"
        }
      ],
      "stateMutability": "nonpayable",
      "type": "constructor"
    },
    {
      "inputs": [],
      "name": "getKelsenData",
      "outputs": [
        {
          "internalType": "bool",
          "name": "",
          "type": "bool"
        },
        {
          "internalType": "bool",
          "name": "",
          "type": "bool"
        },
        {
          "internalType": "uint8",
          "name": "",
          "type": "uint8"
        }
      ],
      "stateMutability": "view",
      "type": "function",
      "constant": true
    },
    {
      "inputs": [],
      "name": "isOrgan",
      "outputs": [
        {
          "internalType": "bool",
          "name": "",
          "type": "bool"
        }
      ],
      "stateMutability": "view",
      "type": "function",
      "constant": true
    },
    {
      "inputs": [],
      "name": "isProcedure",
      "outputs": [
        {
          "internalType": "bool",
          "name": "",
          "type": "bool"
        }
      ],
      "stateMutability": "view",
      "type": "function",
      "constant": true
    },
    {
      "inputs": [],
      "name": "kelsenVersion",
      "outputs": [
        {
          "internalType": "uint8",
          "name": "",
          "type": "uint8"
        }
      ],
      "stateMutability": "view",
      "type": "function",
      "constant": true
    },
    {
      "stateMutability": "payable",
      "type": "receive",
      "payable": true
    },
    {
      "inputs": [
        {
          "internalType": "address payable",
          "name": "to",
          "type": "address"
        },
        {
          "internalType": "uint256",
          "name": "value",
          "type": "uint256"
        }
      ],
      "name": "transfer",
      "outputs": [],
      "stateMutability": "nonpayable",
      "type": "function"
    },
    {
      "inputs": [
        {
          "internalType": "address",
          "name": "operator",
          "type": "address"
        },
        {
          "internalType": "address",
          "name": "from",
          "type": "address"
        },
        {
          "internalType": "address",
          "name": "to",
          "type": "address"
        },
        {
          "internalType": "uint256",
          "name": "amount",
          "type": "uint256"
        },
        {
          "internalType": "bytes",
          "name": "",
          "type": "bytes"
        },
        {
          "internalType": "bytes",
          "name": "",
          "type": "bytes"
        }
      ],
      "name": "tokensReceived",
      "outputs": [],
      "stateMutability": "nonpayable",
      "type": "function"
    },
    {
      "inputs": [
        {
          "internalType": "address",
          "name": "operator",
          "type": "address"
        },
        {
          "internalType": "address",
          "name": "from",
          "type": "address"
        },
        {
          "internalType": "address",
          "name": "to",
          "type": "address"
        },
        {
          "internalType": "uint256",
          "name": "amount",
          "type": "uint256"
        },
        {
          "internalType": "bytes",
          "name": "",
          "type": "bytes"
        },
        {
          "internalType": "bytes",
          "name": "",
          "type": "bytes"
        }
      ],
      "name": "tokensToSend",
      "outputs": [],
      "stateMutability": "nonpayable",
      "type": "function"
    },
    {
      "inputs": [
        {
          "internalType": "address",
          "name": "operator",
          "type": "address"
        },
        {
          "internalType": "address",
          "name": "from",
          "type": "address"
        },
        {
          "internalType": "address",
          "name": "to",
          "type": "address"
        },
        {
          "internalType": "uint256",
          "name": "amount",
          "type": "uint256"
        }
      ],
      "name": "transferCoins",
      "outputs": [],
      "stateMutability": "nonpayable",
      "type": "function"
    },
    {
      "inputs": [
        {
          "internalType": "address",
          "name": "operator",
          "type": "address"
        },
        {
          "internalType": "address",
          "name": "from",
          "type": "address"
        },
        {
          "internalType": "uint256",
          "name": "tokenId",
          "type": "uint256"
        },
        {
          "internalType": "bytes",
          "name": "",
          "type": "bytes"
        }
      ],
      "name": "onERC721Received",
      "outputs": [
        {
          "internalType": "bytes4",
          "name": "",
          "type": "bytes4"
        }
      ],
      "stateMutability": "nonpayable",
      "type": "function"
    },
    {
      "inputs": [
        {
          "internalType": "bytes32",
          "name": "ipfsHash",
          "type": "bytes32"
        },
        {
          "internalType": "uint8",
          "name": "hashFunction",
          "type": "uint8"
        },
        {
          "internalType": "uint8",
          "name": "hashSize",
          "type": "uint8"
        }
      ],
      "name": "updateMetadata",
      "outputs": [],
      "stateMutability": "nonpayable",
      "type": "function"
    },
    {
      "inputs": [
        {
          "components": [
            {
              "internalType": "address",
              "name": "addr",
              "type": "address"
            },
            {
              "internalType": "bytes32",
              "name": "ipfsHash",
              "type": "bytes32"
            },
            {
              "internalType": "uint8",
              "name": "hashFunction",
              "type": "uint8"
            },
            {
              "internalType": "uint8",
              "name": "hashSize",
              "type": "uint8"
            }
          ],
          "internalType": "struct OrganLibrary.Entry[]",
          "name": "entries",
          "type": "tuple[]"
        }
      ],
      "name": "addEntries",
      "outputs": [
        {
          "internalType": "uint256[]",
          "name": "indexes",
          "type": "uint256[]"
        }
      ],
      "stateMutability": "nonpayable",
      "type": "function"
    },
    {
      "inputs": [
        {
          "internalType": "uint256[]",
          "name": "indexes",
          "type": "uint256[]"
        }
      ],
      "name": "removeEntries",
      "outputs": [],
      "stateMutability": "nonpayable",
      "type": "function"
    },
    {
      "inputs": [
        {
          "internalType": "uint256",
          "name": "index",
          "type": "uint256"
        },
        {
          "internalType": "address payable",
          "name": "addr",
          "type": "address"
        },
        {
          "internalType": "bytes32",
          "name": "ipfsHash",
          "type": "bytes32"
        },
        {
          "internalType": "uint8",
          "name": "hashFunction",
          "type": "uint8"
        },
        {
          "internalType": "uint8",
          "name": "hashSize",
          "type": "uint8"
        }
      ],
      "name": "replaceEntry",
      "outputs": [],
      "stateMutability": "nonpayable",
      "type": "function"
    },
    {
      "inputs": [
        {
          "internalType": "address",
          "name": "procedure",
          "type": "address"
        },
        {
          "internalType": "bytes2",
          "name": "permissions",
          "type": "bytes2"
        }
      ],
      "name": "addProcedure",
      "outputs": [],
      "stateMutability": "nonpayable",
      "type": "function"
    },
    {
      "inputs": [
        {
          "internalType": "address",
          "name": "procedure",
          "type": "address"
        }
      ],
      "name": "removeProcedure",
      "outputs": [],
      "stateMutability": "nonpayable",
      "type": "function"
    },
    {
      "inputs": [
        {
          "internalType": "address",
          "name": "oldProcedure",
          "type": "address"
        },
        {
          "internalType": "address",
          "name": "newProcedure",
          "type": "address"
        },
        {
          "internalType": "bytes2",
          "name": "permissions",
          "type": "bytes2"
        }
      ],
      "name": "replaceProcedure",
      "outputs": [],
      "stateMutability": "nonpayable",
      "type": "function"
    },
    {
      "inputs": [],
      "name": "getEntriesLength",
      "outputs": [
        {
          "internalType": "uint256",
          "name": "length",
          "type": "uint256"
        }
      ],
      "stateMutability": "view",
      "type": "function",
      "constant": true
    },
    {
      "inputs": [
        {
          "internalType": "address",
          "name": "addr",
          "type": "address"
        }
      ],
      "name": "getEntryIndexForAddress",
      "outputs": [
        {
          "internalType": "uint256",
          "name": "index",
          "type": "uint256"
        }
      ],
      "stateMutability": "view",
      "type": "function",
      "constant": true
    },
    {
      "inputs": [
        {
          "internalType": "uint256",
          "name": "index",
          "type": "uint256"
        }
      ],
      "name": "getEntry",
      "outputs": [
        {
          "internalType": "address",
          "name": "addr",
          "type": "address"
        },
        {
          "internalType": "bytes32",
          "name": "ipfsHash",
          "type": "bytes32"
        },
        {
          "internalType": "uint8",
          "name": "hashFunction",
          "type": "uint8"
        },
        {
          "internalType": "uint8",
          "name": "hashSize",
          "type": "uint8"
        }
      ],
      "stateMutability": "view",
      "type": "function",
      "constant": true
    },
    {
      "inputs": [],
      "name": "getProceduresLength",
      "outputs": [
        {
          "internalType": "uint256",
          "name": "length",
          "type": "uint256"
        }
      ],
      "stateMutability": "view",
      "type": "function",
      "constant": true
    },
    {
      "inputs": [
        {
          "internalType": "uint256",
          "name": "index",
          "type": "uint256"
        }
      ],
      "name": "getProcedure",
      "outputs": [
        {
          "internalType": "address",
          "name": "procedure",
          "type": "address"
        },
        {
          "internalType": "bytes2",
          "name": "permissions",
          "type": "bytes2"
        }
      ],
      "stateMutability": "view",
      "type": "function",
      "constant": true
    },
    {
      "inputs": [
        {
          "internalType": "address",
          "name": "procedure",
          "type": "address"
        }
      ],
      "name": "getPermissions",
      "outputs": [
        {
          "internalType": "bytes2",
          "name": "permissions",
          "type": "bytes2"
        }
      ],
      "stateMutability": "view",
      "type": "function",
      "constant": true
    },
    {
      "inputs": [],
      "name": "getMetadata",
      "outputs": [
        {
          "internalType": "bytes32",
          "name": "ipfsHash",
          "type": "bytes32"
        },
        {
          "internalType": "uint8",
          "name": "hashFunction",
          "type": "uint8"
        },
        {
          "internalType": "uint8",
          "name": "hashSize",
          "type": "uint8"
        }
      ],
      "stateMutability": "view",
      "type": "function",
      "constant": true
    }
  ],
  "bytecode": "0x608060405260036000806101000a81548160ff021916908360ff1602179055503480156200002c57600080fd5b50604051620025c1380380620025c1833981810160405281019062000052919062000151565b6001600081600060016101000a81548160ff02191690831515021790555080600060026101000a81548160ff0219169083151502179055505050600173__OrganLibrary__________________________6374771eb49091868686866040518663ffffffff1660e01b8152600401620000d0959493929190620001f7565b60006040518083038186803b158015620000e957600080fd5b505af4158015620000fe573d6000803e3d6000fd5b505050505050505062000329565b6000815190506200011d81620002db565b92915050565b6000815190506200013481620002f5565b92915050565b6000815190506200014b816200030f565b92915050565b600080600080608085870312156200016857600080fd5b600062000178878288016200010c565b94505060206200018b8782880162000123565b93505060406200019e878288016200013a565b9250506060620001b1878288016200013a565b91505092959194509250565b620001c8816200029f565b82525050565b620001d98162000268565b82525050565b8082525050565b620001f18162000292565b82525050565b600060a0820190506200020e6000830188620001df565b6200021d6020830187620001bd565b6200022c6040830186620001ce565b6200023b6060830185620001e6565b6200024a6080830184620001e6565b9695505050505050565b6000620002618262000272565b9050919050565b6000819050919050565b600073ffffffffffffffffffffffffffffffffffffffff82169050919050565b600060ff82169050919050565b6000620002ac82620002b3565b9050919050565b6000620002c082620002c7565b9050919050565b6000620002d48262000272565b9050919050565b620002e68162000254565b8114620002f257600080fd5b50565b620003008162000268565b81146200030c57600080fd5b50565b6200031a8162000292565b81146200032657600080fd5b50565b61228880620003396000396000f3fe6080604052600436106101435760003560e01c80637a7ce65c116100b6578063a9059cbb1161006f578063a9059cbb146104d4578063bae78d7b146104fd578063c91ebea81461053d578063d0922d4a14610568578063d28fbf0a14610591578063f49b5848146105cf576101b6565b80637a7ce65c146103c45780637f0a4e27146103ef57806390f2ee221461041857806391bdfe6314610443578063981d5e7b1461046c578063a0d10c9a146104a9576101b6565b80632f2bf18e116101085780632f2bf18e146102b457806339c2ae70146102f1578063759913d61461031a57806375ab9782146103455780637615eb811461036e5780637a5b4f5914610397576101b6565b806223de29146101bb578063150b7a02146101e4578063160a79251461022157806319b9404c1461025e578063249abcf714610287576101b6565b366101b657600173__OrganLibrary__________________________633d6a19169091346040518363ffffffff1660e01b8152600401610184929190611ece565b60006040518083038186803b15801561019c57600080fd5b505af41580156101b0573d6000803e3d6000fd5b50505050005b600080fd5b3480156101c757600080fd5b506101e260048036038101906101dd9190611418565b6105f8565b005b3480156101f057600080fd5b5061020b6004803603810190610206919061152a565b610674565b6040516102189190611c7f565b60405180910390f35b34801561022d57600080fd5b5061024860048036038101906102439190611350565b6106f8565b6040516102559190611c2d565b60405180910390f35b34801561026a57600080fd5b5061028560048036038101906102809190611350565b61078d565b005b34801561029357600080fd5b5061029c6107fc565b6040516102ab93929190611bf6565b60405180910390f35b3480156102c057600080fd5b506102db60048036038101906102d69190611350565b61083a565b6040516102e89190611f58565b60405180910390f35b3480156102fd57600080fd5b5061031860048036038101906103139190611709565b610886565b005b34801561032657600080fd5b5061032f6108fb565b60405161033c9190611f73565b60405180910390f35b34801561035157600080fd5b5061036c60048036038101906103679190611418565b61090d565b005b34801561037a57600080fd5b506103956004803603810190610390919061165e565b610989565b005b3480156103a357600080fd5b506103ac6109f8565b6040516103bb93929190611c48565b60405180910390f35b3480156103d057600080fd5b506103d9610a92565b6040516103e69190611f58565b60405180910390f35b3480156103fb57600080fd5b50610416600480360381019061041191906115a5565b610b23565b005b34801561042457600080fd5b5061042d610bb6565b60405161043a9190611bdb565b60405180910390f35b34801561044f57600080fd5b5061046a600480360381019061046591906117f9565b610bc9565b005b34801561047857600080fd5b50610493600480360381019061048e919061161d565b610c44565b6040516104a09190611bb9565b60405180910390f35b3480156104b557600080fd5b506104be610cde565b6040516104cb9190611f58565b60405180910390f35b3480156104e057600080fd5b506104fb60048036038101906104f69190611379565b610cee565b005b34801561050957600080fd5b50610524600480360381019061051f91906117a7565b610d60565b6040516105349493929190611b74565b60405180910390f35b34801561054957600080fd5b50610552610e37565b60405161055f9190611bdb565b60405180910390f35b34801561057457600080fd5b5061058f600480360381019061058a91906114db565b610e4a565b005b34801561059d57600080fd5b506105b860048036038101906105b391906117a7565b610ebf565b6040516105c6929190611b4b565b60405180910390f35b3480156105db57600080fd5b506105f660048036038101906105f191906113b5565b610f56565b005b600173__OrganLibrary__________________________63b0bd74a490918a8a8a8a6040518663ffffffff1660e01b815260040161063a959493929190611d15565b60006040518083038186803b15801561065257600080fd5b505af4158015610666573d6000803e3d6000fd5b505050505050505050505050565b6000600173__OrganLibrary__________________________638a8b325a90918787876040518563ffffffff1660e01b81526004016106b69493929190611dad565b60006040518083038186803b1580156106ce57600080fd5b505af41580156106e2573d6000803e3d6000fd5b5050505063150b7a0260e01b9050949350505050565b6000600173__OrganLibrary__________________________6320069ef89091846040518363ffffffff1660e01b8152600401610736929190611cb5565b60206040518083038186803b15801561074e57600080fd5b505af4158015610762573d6000803e3d6000fd5b505050506040513d601f19601f8201168201806040525081019061078691906116e0565b9050919050565b600173__OrganLibrary__________________________633974fa339091836040518363ffffffff1660e01b81526004016107c9929190611cb5565b60006040518083038186803b1580156107e157600080fd5b505af41580156107f5573d6000803e3d6000fd5b5050505050565b60008060008060019054906101000a900460ff16600060029054906101000a900460ff166000809054906101000a900460ff16925092509250909192565b6000600160070160008373ffffffffffffffffffffffffffffffffffffffff1673ffffffffffffffffffffffffffffffffffffffff168152602001908152602001600020549050919050565b600173__OrganLibrary__________________________63f59263df90918585856040518563ffffffff1660e01b81526004016108c69493929190611e89565b60006040518083038186803b1580156108de57600080fd5b505af41580156108f2573d6000803e3d6000fd5b50505050505050565b6000809054906101000a900460ff1681565b600173__OrganLibrary__________________________631ceaa38a90918a8a8a8a6040518663ffffffff1660e01b815260040161094f959493929190611d15565b60006040518083038186803b15801561096757600080fd5b505af415801561097b573d6000803e3d6000fd5b505050505050505050505050565b600173__OrganLibrary__________________________638e15bab79091836040518363ffffffff1660e01b81526004016109c5929190611e59565b60006040518083038186803b1580156109dd57600080fd5b505af41580156109f1573d6000803e3d6000fd5b5050505050565b6000806000600173__OrganLibrary__________________________63945fb43690916040518263ffffffff1660e01b8152600401610a379190611c9a565b60606040518083038186803b158015610a4f57600080fd5b505af4158015610a63573d6000803e3d6000fd5b505050506040513d601f19601f82011682018060405250810190610a879190611758565b925092509250909192565b6000600173__OrganLibrary__________________________63ca42cca890916040518263ffffffff1660e01b8152600401610ace9190611c9a565b60206040518083038186803b158015610ae657600080fd5b505af4158015610afa573d6000803e3d6000fd5b505050506040513d601f19601f82011682018060405250810190610b1e91906117d0565b905090565b600173__OrganLibrary__________________________6399f3d1db909184846040518463ffffffff1660e01b8152600401610b6193929190611df2565b60206040518083038186803b158015610b7957600080fd5b505af4158015610b8d573d6000803e3d6000fd5b505050506040513d601f19601f82011682018060405250810190610bb191906117d0565b505050565b600060019054906101000a900460ff1681565b600173__OrganLibrary__________________________630ac08b49909187878787876040518763ffffffff1660e01b8152600401610c0d96959493929190611ef7565b60006040518083038186803b158015610c2557600080fd5b505af4158015610c39573d6000803e3d6000fd5b505050505050505050565b6060600173__OrganLibrary__________________________63784fced99091846040518363ffffffff1660e01b8152600401610c82929190611e29565b60006040518083038186803b158015610c9a57600080fd5b505af4158015610cae573d6000803e3d6000fd5b505050506040513d6000823e3d601f19601f82011682018060405250810190610cd7919061169f565b9050919050565b6000600160030180549050905090565b600173__OrganLibrary__________________________63432787d9909184846040518463ffffffff1660e01b8152600401610d2c93929190611cde565b60006040518083038186803b158015610d4457600080fd5b505af4158015610d58573d6000803e3d6000fd5b505050505050565b60008060008060016003018581548110610d7657fe5b906000526020600020906003020160000160009054906101000a900473ffffffffffffffffffffffffffffffffffffffff1660016003018681548110610db857fe5b90600052602060002090600302016001015460016003018781548110610dda57fe5b906000526020600020906003020160020160009054906101000a900460ff1660016003018881548110610e0957fe5b906000526020600020906003020160020160019054906101000a900460ff1693509350935093509193509193565b600060029054906101000a900460ff1681565b600173__OrganLibrary__________________________63f8c99c3690918585856040518563ffffffff1660e01b8152600401610e8a9493929190611d68565b60006040518083038186803b158015610ea257600080fd5b505af4158015610eb6573d6000803e3d6000fd5b50505050505050565b600080600173__OrganLibrary__________________________63863e5d169091856040518363ffffffff1660e01b8152600401610efe929190611ece565b604080518083038186803b158015610f1557600080fd5b505af4158015610f29573d6000803e3d6000fd5b505050506040513d601f19601f82011682018060405250810190610f4d91906115e1565b91509150915091565b600173__OrganLibrary__________________________631ceaa38a9091868686866040518663ffffffff1660e01b8152600401610f98959493929190611d15565b60006040518083038186803b158015610fb057600080fd5b505af4158015610fc4573d6000803e3d6000fd5b5050505050505050565b600081359050610fdd816121c8565b92915050565b600081519050610ff2816121c8565b92915050565b600081359050611007816121df565b92915050565b600082601f83011261101e57600080fd5b813561103161102c82611fbb565b611f8e565b9150818183526020840193506020810190508385608084028201111561105657600080fd5b60005b83811015611086578161106c8882611288565b845260208401935060808301925050600181019050611059565b5050505092915050565b600082601f8301126110a157600080fd5b81356110b46110af82611fe3565b611f8e565b915081818352602084019350602081019050838560208402820111156110d957600080fd5b60005b8381101561110957816110ef88826112fc565b8452602084019350602083019250506001810190506110dc565b5050505092915050565b600082601f83011261112457600080fd5b815161113761113282611fe3565b611f8e565b9150818183526020840193506020810190508385602084028201111561115c57600080fd5b60005b8381101561118c57816111728882611311565b84526020840193506020830192505060018101905061115f565b5050505092915050565b6000813590506111a5816121f6565b92915050565b6000815190506111ba816121f6565b92915050565b6000813590506111cf8161220d565b92915050565b6000815190506111e48161220d565b92915050565b60008083601f8401126111fc57600080fd5b8235905067ffffffffffffffff81111561121557600080fd5b60208301915083600182028301111561122d57600080fd5b9250929050565b600082601f83011261124557600080fd5b81356112586112538261200b565b611f8e565b9150808252602083016020830185838301111561127457600080fd5b61127f8382846121b9565b50505092915050565b60006080828403121561129a57600080fd5b6112a46080611f8e565b905060006112b484828501610fce565b60008301525060206112c8848285016111c0565b60208301525060406112dc84828501611326565b60408301525060606112f084828501611326565b60608301525092915050565b60008135905061130b81612224565b92915050565b60008151905061132081612224565b92915050565b6000813590506113358161223b565b92915050565b60008151905061134a8161223b565b92915050565b60006020828403121561136257600080fd5b600061137084828501610fce565b91505092915050565b6000806040838503121561138c57600080fd5b600061139a85828601610ff8565b92505060206113ab858286016112fc565b9150509250929050565b600080600080608085870312156113cb57600080fd5b60006113d987828801610fce565b94505060206113ea87828801610fce565b93505060406113fb87828801610fce565b925050606061140c878288016112fc565b91505092959194509250565b60008060008060008060008060c0898b03121561143457600080fd5b60006114428b828c01610fce565b98505060206114538b828c01610fce565b97505060406114648b828c01610fce565b96505060606114758b828c016112fc565b955050608089013567ffffffffffffffff81111561149257600080fd5b61149e8b828c016111ea565b945094505060a089013567ffffffffffffffff8111156114bd57600080fd5b6114c98b828c016111ea565b92509250509295985092959890939650565b6000806000606084860312156114f057600080fd5b60006114fe86828701610fce565b935050602061150f86828701610fce565b925050604061152086828701611196565b9150509250925092565b6000806000806080858703121561154057600080fd5b600061154e87828801610fce565b945050602061155f87828801610fce565b9350506040611570878288016112fc565b925050606085013567ffffffffffffffff81111561158d57600080fd5b61159987828801611234565b91505092959194509250565b600080604083850312156115b857600080fd5b60006115c685828601610fce565b92505060206115d785828601611196565b9150509250929050565b600080604083850312156115f457600080fd5b600061160285828601610fe3565b9250506020611613858286016111ab565b9150509250929050565b60006020828403121561162f57600080fd5b600082013567ffffffffffffffff81111561164957600080fd5b6116558482850161100d565b91505092915050565b60006020828403121561167057600080fd5b600082013567ffffffffffffffff81111561168a57600080fd5b61169684828501611090565b91505092915050565b6000602082840312156116b157600080fd5b600082015167ffffffffffffffff8111156116cb57600080fd5b6116d784828501611113565b91505092915050565b6000602082840312156116f257600080fd5b6000611700848285016111ab565b91505092915050565b60008060006060848603121561171e57600080fd5b600061172c868287016111c0565b935050602061173d86828701611326565b925050604061174e86828701611326565b9150509250925092565b60008060006060848603121561176d57600080fd5b600061177b868287016111d5565b935050602061178c8682870161133b565b925050604061179d8682870161133b565b9150509250925092565b6000602082840312156117b957600080fd5b60006117c7848285016112fc565b91505092915050565b6000602082840312156117e257600080fd5b60006117f084828501611311565b91505092915050565b600080600080600060a0868803121561181157600080fd5b600061181f888289016112fc565b955050602061183088828901610ff8565b9450506040611841888289016111c0565b935050606061185288828901611326565b925050608061186388828901611326565b9150509295509295909350565b600061187c8383611a86565b60808301905092915050565b60006118948383611ae2565b60208301905092915050565b60006118ac8383611b0f565b60208301905092915050565b6118c181612183565b82525050565b6118d0816120cc565b82525050565b6118df816120ba565b82525050565b6118ee816120ba565b82525050565b6118fd816120ba565b82525050565b600061190e82612057565b6119188185612087565b935061192383612037565b8060005b8381101561195457815161193b8882611870565b97506119468361206d565b925050600181019050611927565b5085935050505092915050565b600061196c82612062565b6119768185612098565b935061198183612047565b8060005b838110156119b25781516119998882611888565b97506119a48361207a565b925050600181019050611985565b5085935050505092915050565b60006119ca82612062565b6119d481856120a9565b93506119df83612047565b8060005b83811015611a105781516119f788826118a0565b9750611a028361207a565b9250506001810190506119e3565b5085935050505092915050565b611a26816120de565b82525050565b611a35816120ea565b82525050565b611a44816120ea565b82525050565b611a5381612116565b82525050565b611a6281612116565b82525050565b611a7181612116565b82525050565b611a8081612120565b82525050565b608082016000820151611a9c60008501826118f4565b506020820151611aaf6020850182611a68565b506040820151611ac26040850182611b3c565b506060820151611ad56060850182611b3c565b50505050565b8082525050565b611aeb8161216c565b82525050565b611afa8161216c565b82525050565b611b098161216c565b82525050565b611b188161216c565b82525050565b611b2781612176565b82525050565b611b3681612176565b82525050565b611b4581612176565b82525050565b6000604082019050611b6060008301856118d6565b611b6d6020830184611a2c565b9392505050565b6000608082019050611b8960008301876118d6565b611b966020830186611a4a565b611ba36040830185611b1e565b611bb06060830184611b1e565b95945050505050565b60006020820190508181036000830152611bd38184611961565b905092915050565b6000602082019050611bf06000830184611a1d565b92915050565b6000606082019050611c0b6000830186611a1d565b611c186020830185611a1d565b611c256040830184611b1e565b949350505050565b6000602082019050611c426000830184611a2c565b92915050565b6000606082019050611c5d6000830186611a4a565b611c6a6020830185611b1e565b611c776040830184611b1e565b949350505050565b6000602082019050611c946000830184611a77565b92915050565b6000602082019050611caf6000830184611adb565b92915050565b6000604082019050611cca6000830185611adb565b611cd760208301846118e5565b9392505050565b6000606082019050611cf36000830186611adb565b611d0060208301856118c7565b611d0d6040830184611b00565b949350505050565b600060a082019050611d2a6000830188611adb565b611d3760208301876118e5565b611d4460408301866118e5565b611d5160608301856118e5565b611d5e6080830184611b00565b9695505050505050565b6000608082019050611d7d6000830187611adb565b611d8a60208301866118e5565b611d9760408301856118e5565b611da46060830184611a3b565b95945050505050565b6000608082019050611dc26000830187611adb565b611dcf60208301866118e5565b611ddc60408301856118e5565b611de96060830184611b00565b95945050505050565b6000606082019050611e076000830186611adb565b611e1460208301856118e5565b611e216040830184611a3b565b949350505050565b6000604082019050611e3e6000830185611adb565b8181036020830152611e508184611903565b90509392505050565b6000604082019050611e6e6000830185611adb565b8181036020830152611e8081846119bf565b90509392505050565b6000608082019050611e9e6000830187611adb565b611eab6020830186611a59565b611eb86040830185611b2d565b611ec56060830184611b2d565b95945050505050565b6000604082019050611ee36000830185611adb565b611ef06020830184611b00565b9392505050565b600060c082019050611f0c6000830189611adb565b611f196020830188611b00565b611f2660408301876118b8565b611f336060830186611a59565b611f406080830185611b2d565b611f4d60a0830184611b2d565b979650505050505050565b6000602082019050611f6d6000830184611af1565b92915050565b6000602082019050611f886000830184611b1e565b92915050565b6000604051905081810181811067ffffffffffffffff82111715611fb157600080fd5b8060405250919050565b600067ffffffffffffffff821115611fd257600080fd5b602082029050602081019050919050565b600067ffffffffffffffff821115611ffa57600080fd5b602082029050602081019050919050565b600067ffffffffffffffff82111561202257600080fd5b601f19601f8301169050602081019050919050565b6000819050602082019050919050565b6000819050602082019050919050565b600081519050919050565b600081519050919050565b6000602082019050919050565b6000602082019050919050565b600082825260208201905092915050565b600082825260208201905092915050565b600082825260208201905092915050565b60006120c58261214c565b9050919050565b60006120d78261214c565b9050919050565b60008115159050919050565b60007fffff00000000000000000000000000000000000000000000000000000000000082169050919050565b6000819050919050565b60007fffffffff0000000000000000000000000000000000000000000000000000000082169050919050565b600073ffffffffffffffffffffffffffffffffffffffff82169050919050565b6000819050919050565b600060ff82169050919050565b600061218e82612195565b9050919050565b60006121a0826121a7565b9050919050565b60006121b28261214c565b9050919050565b82818337600083830152505050565b6121d1816120ba565b81146121dc57600080fd5b50565b6121e8816120cc565b81146121f357600080fd5b50565b6121ff816120ea565b811461220a57600080fd5b50565b61221681612116565b811461222157600080fd5b50565b61222d8161216c565b811461223857600080fd5b50565b61224481612176565b811461224f57600080fd5b5056fea2646970667358221220f8f7e5cb9813a69e23e94e76f457d7c8e1a3d246849984f47a4422245d48042e64736f6c63430006080033",
  "immutableReferences": {},
  "source": "// SPDX-License-Identifier: LGPL-3.0-or-later\npragma solidity ^0.6.0;\npragma experimental ABIEncoderV2;\n\nimport \"./Kelsen.sol\";\nimport \"./libraries/OrganLibrary.sol\";\nimport \"@openzeppelin/contracts/token/ERC777/IERC777Recipient.sol\";\nimport \"@openzeppelin/contracts/token/ERC777/IERC777Sender.sol\";\nimport \"@openzeppelin/contracts/token/ERC721/IERC721Receiver.sol\";\n\n/**\n    An organ contains a list of entries and a set of procedures.\n    A procedure is a contract that can effect changes on organs.\n    An entry can be a document and/or an address (a wallet or a contract).\n*/\n\ncontract Organ is\n    Kelsen(true,false),\n    IERC777Recipient,\n    IERC777Sender,\n    IERC721Receiver\n{\n    using OrganLibrary for OrganLibrary.OrganData;\n    using OrganLibrary for OrganLibrary.Entry;\n\n    OrganLibrary.OrganData internal organData;\n\n    /**\n        Modifiers.\n    */\n\n    // modifier onlyRole(bytes32 role) {\n    //     require(hasRole(role, msg.sender), \"Not authorized.\");\n    //     _;\n    // }\n\n    /**\n        Organ API.\n    */\n\n    constructor(address payable admin, bytes32 metadataIpfsHash, uint8 metadataHashFunction, uint8 metadataHashSize)\n        public\n    {\n        organData.init(admin, metadataIpfsHash, metadataHashFunction, metadataHashSize);\n    }\n\n    // Assets.\n\n    receive() external payable {\n        organData.receiveEther(msg.value);\n    }\n\n    // @TODO : Protect ether transfers against re-entrancy attacks.\n    function transfer(address payable to, uint256 value)\n        public // onlyRole(OrganLibrary.PROCEDURE_ADDER)\n    {\n        organData.transferEther(to, value);\n    }\n\n    // Implementing ERC-777 receiver interface.\n    function tokensReceived(\n        address operator, address from, address to, uint256 amount,\n        bytes calldata /*data*/, bytes calldata /*operatorData*/\n    )\n        external override // onlyRole(OrganLibrary.ERC777_RECEIVER)\n    {\n        organData.receiveCoins(operator, from, to, amount);\n    }\n    function tokensToSend(\n        address operator, address from, address to, uint256 amount,\n        bytes calldata /*userData*/, bytes calldata /*operatorData*/\n    )\n        external override // onlyRole(OrganLibrary.ERC777_TRANSFERRER)\n    {\n        organData.transferCoins(operator, from, to, amount);\n    }\n    function transferCoins(address operator, address from, address to, uint256 amount)\n        external // onlyRole(OrganLibrary.ERC721_TRANSFERRER)\n    {\n        organData.transferCoins(operator, from, to, amount);\n    }\n\n    // Implementing ERC-721 receiver interface.\n    function onERC721Received(\n        address operator, address from, uint256 tokenId, bytes memory /*data*/\n    )\n        public override\n        returns(bytes4)\n    {\n        organData.receiveCollectible(operator, from, tokenId);\n        return this.onERC721Received.selector;\n    }\n\n    function updateMetadata(bytes32 ipfsHash, uint8 hashFunction, uint8 hashSize)\n        public // onlyRole(OrganLibrary.METADATA_UPDATER)\n    {\n        organData.updateMetadata(ipfsHash, hashFunction, hashSize);\n    }\n\n    /*\n        API for Procedure contract.\n    */\n\n    function addEntries(OrganLibrary.Entry[] memory entries)\n        public\n        returns (uint256[] memory indexes)\n    {\n        return organData.addEntries(entries);\n    }\n\n    function removeEntries(uint256[] memory indexes)\n        public\n    {\n       organData.removeEntries(indexes);\n    }\n\n    function replaceEntry(uint index, address payable addr, bytes32 ipfsHash, uint8 hashFunction, uint8 hashSize)\n        public\n    {\n       organData.replaceEntry(index, addr, ipfsHash, hashFunction, hashSize);\n    }\n\n    function addProcedure(address procedure, bytes2 permissions)\n        public // onlyRole(OrganLibrary.PROCEDURE_ADDER)\n    {\n        organData.addProcedure(procedure, permissions);\n    }\n\n    function removeProcedure(address procedure)\n        public // onlyRole(OrganLibrary.PROCEDURE_REMOVER)\n    {\n        organData.removeProcedure(procedure);\n    }\n\n    function replaceProcedure(address oldProcedure, address newProcedure, bytes2 permissions)\n        public\n        // onlyRole(OrganLibrary.PROCEDURE_REMOVER)\n    {\n        organData.replaceProcedure(oldProcedure, newProcedure, permissions);\n    }\n\n    /*\n        Accessors.\n    */\n\n    // function getPermissions(address addr)\n    //     public view returns (\n    //         bytes2 permissions,\n    //         bool canRemoveProcedures,\n    //         bool canAddProcedures,\n    //         bool canRemoveEntries,\n    //         bool canAddEntries,\n    //         bool canTransferCollectibles,\n    //         bool canReceiveCollectibles,\n    //         bool canTransferCoins,\n    //         bool canReceiveCoins,\n    //         bool canTransferEther,\n    //         bool canReceiveEther\n    //     )\n    // {\n    //     const Roles\n    //     // ;\n    //     // permissions = organData.permissions[addr];\n    //     (canRemoveProcedures,,,,,,,,) = organData.getRoles()\n    //     return (\n    //         permissions,\n    //     );\n    // }\n\n    function getEntriesLength()\n        public view returns (uint length)\n    {\n        return organData.entries.length;\n    }\n\n    function getEntryIndexForAddress(address addr)\n        public view returns (uint index)\n    {\n        return organData.addressIndexInEntries[addr];\n    }\n\n    function getEntry(uint index)\n        public view returns (\n            address addr,\n            bytes32 ipfsHash, uint8 hashFunction, uint8 hashSize\n        )\n    {\n        return (\n            organData.entries[index].addr,\n            organData.entries[index].ipfsHash,\n            organData.entries[index].hashFunction,\n            organData.entries[index].hashSize\n        );\n    }\n\n    function getProceduresLength()\n        public view returns (uint256 length)\n    {\n        return organData.getProceduresLength();\n    }\n\n    function getProcedure(uint256 index)\n        public view returns (address procedure, bytes2 permissions)\n    {\n        return organData.getProcedure(index);\n    }\n\n    function getPermissions(address procedure)\n        public view returns (bytes2 permissions)\n    {\n        return organData.getPermissions(procedure);\n    }\n\n    function getMetadata()\n        public view returns (bytes32 ipfsHash, uint8 hashFunction, uint8 hashSize)\n    {\n        return organData.getMetadata();\n    }\n}",
  "sourcePath": "/Users/alex/Code/organigr.am/contracts/contracts/Organ.sol",
  "compiler": {
    "name": "solc",
    "version": "0.6.8+commit.0bbfe453.Emscripten.clang"
  },
  "schemaVersion": "3.2.4",
  "updatedAt": "2020-09-12T01:16:43.678Z",
  "networkType": "ethereum",
  "devdoc": {
    "methods": {}
  },
  "userdoc": {
    "methods": {
      "constructor": "Organ API."
    },
    "notice": "An organ contains a list of entries and a set of procedures. A procedure is a contract that can effect changes on organs. An entry can be a document and/or an address (a wallet or a contract)."
  }
}