{
  "contractName": "Organigram",
  "abi": [
    {
      "inputs": [
        {
          "components": [
            {
              "internalType": "bytes32",
              "name": "ipfsHash",
              "type": "bytes32"
            },
            {
              "internalType": "uint8",
              "name": "hashFunction",
              "type": "uint8"
            },
            {
              "internalType": "uint8",
              "name": "hashSize",
              "type": "uint8"
            }
          ],
          "internalType": "struct CoreLibrary.Metadata",
          "name": "metadata",
          "type": "tuple"
        }
      ],
      "stateMutability": "nonpayable",
      "type": "constructor"
    },
    {
      "anonymous": false,
      "inputs": [
        {
          "indexed": false,
          "internalType": "address payable",
          "name": "organ",
          "type": "address"
        }
      ],
      "name": "organCreated",
      "type": "event"
    },
    {
      "anonymous": false,
      "inputs": [
        {
          "indexed": false,
          "internalType": "address payable",
          "name": "procedureType",
          "type": "address"
        },
        {
          "indexed": false,
          "internalType": "address payable",
          "name": "procedure",
          "type": "address"
        }
      ],
      "name": "procedureCreated",
      "type": "event"
    },
    {
      "inputs": [],
      "name": "organ",
      "outputs": [
        {
          "internalType": "address payable",
          "name": "",
          "type": "address"
        }
      ],
      "stateMutability": "view",
      "type": "function"
    },
    {
      "inputs": [],
      "name": "procedures",
      "outputs": [
        {
          "internalType": "address payable",
          "name": "",
          "type": "address"
        }
      ],
      "stateMutability": "view",
      "type": "function"
    },
    {
      "inputs": [
        {
          "internalType": "address payable",
          "name": "admin",
          "type": "address"
        },
        {
          "components": [
            {
              "internalType": "bytes32",
              "name": "ipfsHash",
              "type": "bytes32"
            },
            {
              "internalType": "uint8",
              "name": "hashFunction",
              "type": "uint8"
            },
            {
              "internalType": "uint8",
              "name": "hashSize",
              "type": "uint8"
            }
          ],
          "internalType": "struct CoreLibrary.Metadata",
          "name": "metadata",
          "type": "tuple"
        }
      ],
      "name": "createOrgan",
      "outputs": [
        {
          "internalType": "address payable",
          "name": "clone",
          "type": "address"
        }
      ],
      "stateMutability": "nonpayable",
      "type": "function"
    },
    {
      "inputs": [
        {
          "internalType": "address payable",
          "name": "procedureId",
          "type": "address"
        }
      ],
      "name": "createProcedure",
      "outputs": [
        {
          "internalType": "address payable",
          "name": "procedure",
          "type": "address"
        }
      ],
      "stateMutability": "nonpayable",
      "type": "function"
    },
    {
      "inputs": [
        {
          "components": [
            {
              "internalType": "address",
              "name": "addr",
              "type": "address"
            },
            {
              "components": [
                {
                  "internalType": "bytes32",
                  "name": "ipfsHash",
                  "type": "bytes32"
                },
                {
                  "internalType": "uint8",
                  "name": "hashFunction",
                  "type": "uint8"
                },
                {
                  "internalType": "uint8",
                  "name": "hashSize",
                  "type": "uint8"
                }
              ],
              "internalType": "struct CoreLibrary.Metadata",
              "name": "doc",
              "type": "tuple"
            }
          ],
          "internalType": "struct CoreLibrary.Entry[]",
          "name": "entries",
          "type": "tuple[]"
        }
      ],
      "name": "registerProcedures",
      "outputs": [],
      "stateMutability": "nonpayable",
      "type": "function"
    }
  ],
  "bytecode": "0x608060405234801561001057600080fd5b50604051620025433803806200254383398101604081905261003191610266565b60405161003d90610247565b604051809103906000f080158015610059573d6000803e3d6000fd5b50600080546001600160a01b0319166001600160a01b039290921691909117905561008433826100aa565b600180546001600160a01b0319166001600160a01b0392909216919091179055506102d8565b60006100d260008054906101000a90046001600160a01b031661019660201b6104341760201c565b604080516395304aa160e01b81526001600160a01b03868116600483015285516024830152602086015160ff90811660448401529286015190921660648201529192508216906395304aa190608401600060405180830381600087803b15801561013b57600080fd5b505af115801561014f573d6000803e3d6000fd5b50506040516001600160a01b03841681527fbdc35d95624895b50b28f056a8e7430069f783195ce87d981f2f0a38d6ef05d79250602001905060405180910390a192915050565b60006040517f3d602d80600a3d3981f3363d3d373d3d3d363d7300000000000000000000000081528260601b60148201526e5af43d82803e903d91602b57fd5bf360881b60288201526037816000f09150506001600160a01b0381166102425760405162461bcd60e51b815260206004820152601660248201527f455243313136373a20637265617465206661696c656400000000000000000000604482015260640160405180910390fd5b919050565b6117cf8062000d7483390190565b805160ff8116811461024257600080fd5b60006060828403121561027857600080fd5b604051606081016001600160401b03811182821017156102a857634e487b7160e01b600052604160045260246000fd5b604052825181526102bb60208401610255565b60208201526102cc60408401610255565b60408201529392505050565b610a8c80620002e86000396000f3fe608060405234801561001057600080fd5b50600436106100575760003560e01c80632ca38c691461005c5780633cab20c514610085578063809ba49f146100985780638a0b4df3146100ab578063e8e2e149146100be575b600080fd5b60015461006f906001600160a01b031681565b60405161007c91906108db565b60405180910390f35b60005461006f906001600160a01b031681565b61006f6100a6366004610688565b6100d3565b61006f6100b93660046106a5565b610243565b6100d16100cc3660046106db565b6102fa565b005b60006100e68263071dbd3360e41b6104d1565b61012a5760405162461bcd60e51b815260206004820152601060248201526f2737ba103090383937b1b2b23ab9329760811b60448201526064015b60405180910390fd5b600154604051631795f8c760e11b81526000916001600160a01b031690632f2bf18e9061015b9086906004016108db565b60206040518083038186803b15801561017357600080fd5b505afa158015610187573d6000803e3d6000fd5b505050506040513d601f19601f820116820180604052508101906101ab9190610865565b116101ef5760405162461bcd60e51b8152602060048201526014602482015273283937b1b2b23ab932903737ba103337bab7321760611b6044820152606401610121565b6101f882610434565b604080516001600160a01b038086168252831660208201529192507f5f60683fdfc7d4b0c5533010d4113438b4e5400730348133ffba191c00a8e35f910160405180910390a1919050565b60008054610259906001600160a01b0316610434565b6040516395304aa160e01b81529091506001600160a01b038216906395304aa19061028a90869086906004016108ef565b600060405180830381600087803b1580156102a457600080fd5b505af11580156102b8573d6000803e3d6000fd5b505050507fbdc35d95624895b50b28f056a8e7430069f783195ce87d981f2f0a38d6ef05d7816040516102eb91906108db565b60405180910390a15b92915050565b60005b81518110156103a95761033482828151811061031b5761031b610a12565b6020026020010151600001516371dbd33060e01b6104d1565b6103995760405162461bcd60e51b815260206004820152603060248201527f416e20656e74727920696e20706172616d6574657273206973206e6f7420612060448201526f3b30b634b210383937b1b2b23ab9329760811b6064820152608401610121565b6103a2816109e9565b90506102fd565b5060005460405163bbc56af960e01b81526001600160a01b039091169063bbc56af9906103da90849060040161090c565b600060405180830381600087803b1580156103f457600080fd5b505af1158015610408573d6000803e3d6000fd5b505050506040513d6000823e601f3d908101601f1916820160405261043091908101906107ac565b5050565b6000604051733d602d80600a3d3981f3363d3d373d3d3d363d7360601b81528260601b60148201526e5af43d82803e903d91602b57fd5bf360881b60288201526037816000f09150506001600160a01b0381166104cc5760405162461bcd60e51b8152602060048201526016602482015275115490cc4c4d8dce8818dc99585d194819985a5b195960521b6044820152606401610121565b919050565b60006104dc836104f4565b80156104ed57506104ed8383610527565b9392505050565b6000610507826301ffc9a760e01b610527565b80156102f45750610520826001600160e01b0319610527565b1592915050565b604080516001600160e01b0319831660248083019190915282518083039091018152604490910182526020810180516001600160e01b03166301ffc9a760e01b179052905160009190829081906001600160a01b038716906175309061058e9086906108a0565b6000604051808303818686fa925050503d80600081146105ca576040519150601f19603f3d011682016040523d82523d6000602084013e6105cf565b606091505b50915091506020815110156105ea57600093505050506102f4565b8180156106065750808060200190518101906106069190610843565b9695505050505050565b60006060828403121561062257600080fd5b604051606081016001600160401b038111828210171561064457610644610a28565b6040528235815290508061065a60208401610677565b602082015261066b60408401610677565b60408201525092915050565b803560ff811681146104cc57600080fd5b60006020828403121561069a57600080fd5b81356104ed81610a3e565b600080608083850312156106b857600080fd5b82356106c381610a3e565b91506106d28460208501610610565b90509250929050565b600060208083850312156106ee57600080fd5b82356001600160401b0381111561070457600080fd5b8301601f8101851361071557600080fd5b8035610728610723826109c6565b610996565b80828252848201915084840188868560071b870101111561074857600080fd5b60009450845b8481101561079e57608080838c031215610766578687fd5b61076e61096e565b833561077981610a3e565b81526107878c858b01610610565b818a0152855293870193919091019060010161074e565b509098975050505050505050565b600060208083850312156107bf57600080fd5b82516001600160401b038111156107d557600080fd5b8301601f810185136107e657600080fd5b80516107f4610723826109c6565b80828252848201915084840188868560051b870101111561081457600080fd5b600094505b83851015610837578051835260019490940193918501918501610819565b50979650505050505050565b60006020828403121561085557600080fd5b815180151581146104ed57600080fd5b60006020828403121561087757600080fd5b5051919050565b8051825260ff602082015116602083015260ff60408201511660408301525050565b6000825160005b818110156108c157602081860181015185830152016108a7565b818111156108d0576000828501525b509190910192915050565b6001600160a01b0391909116815260200190565b6001600160a01b0383168152608081016104ed602083018461087e565b6020808252825182820181905260009190848201906040850190845b8181101561096257835180516001600160a01b0316845285015161094e8685018261087e565b509284019260809290920191600101610928565b50909695505050505050565b604080519081016001600160401b038111828210171561099057610990610a28565b60405290565b604051601f8201601f191681016001600160401b03811182821017156109be576109be610a28565b604052919050565b60006001600160401b038211156109df576109df610a28565b5060051b60200190565b6000600019821415610a0b57634e487b7160e01b600052601160045260246000fd5b5060010190565b634e487b7160e01b600052603260045260246000fd5b634e487b7160e01b600052604160045260246000fd5b6001600160a01b0381168114610a5357600080fd5b5056fea264697066735822122039d3fe3110c81c59adf8808ba2c90a39b12d8bdcf3cabbb026f72a878c247e5264736f6c63430008060033608060405234801561001057600080fd5b5060408051606081018252600080825260208201818152828401918252925163659f204d60e01b81526001600482015233602482015291516044830152915160ff90811660648301529151909116608482015273__OrganLibrary__________________________9063659f204d9060a40160006040518083038186803b15801561009a57600080fd5b505af41580156100ae573d6000803e3d6000fd5b5050505061170e806100c16000396000f3fe6080604052600436106100e75760003560e01c806223de291461015c57806301ffc9a71461017e578063150b7a02146101b3578063160a7925146101ec57806319b9404c1461023e5780632f2bf18e1461025e5780634d3f8407146102a257806362f7f997146102c2578063685b3cb5146102e257806375ab9782146103075780637615eb81146103275780637f0a4e271461034757806395304aa114610367578063a9059cbb14610387578063bae78d7b146103a7578063bbc56af9146103d4578063d0922d4a14610401578063d28fbf0a14610421578063f49b58481461046957600080fd5b3661015757604051631eb50c8b60e11b81526001600482015234602482015273__OrganLibrary__________________________90633d6a19169060440160006040518083038186803b15801561013d57600080fd5b505af4158015610151573d6000803e3d6000fd5b50505050005b600080fd5b34801561016857600080fd5b5061017c610177366004610fac565b610489565b005b34801561018a57600080fd5b5061019e61019936600461138d565b610503565b60405190151581526020015b60405180910390f35b3480156101bf57600080fd5b506101d36101ce3660046110a7565b61053a565b6040516001600160e01b031990911681526020016101aa565b3480156101f857600080fd5b50610225610207366004610ed5565b6001600160a01b031660009081526007602052604090205460f01b90565b6040516001600160f01b031990911681526020016101aa565b34801561024a57600080fd5b5061017c610259366004610ed5565b6105d1565b34801561026a57600080fd5b50610294610279366004610ed5565b6001600160a01b031660009081526008602052604090205490565b6040519081526020016101aa565b3480156102ae57600080fd5b5061017c6102bd3660046113d0565b610647565b3480156102ce57600080fd5b5061017c6102dd366004611401565b610681565b3480156102ee57600080fd5b506102f76106f1565b6040516101aa94939291906114d2565b34801561031357600080fd5b5061017c610322366004610fac565b6107c2565b34801561033357600080fd5b5061017c610342366004611277565b610802565b34801561035357600080fd5b5061017c61036236600461116a565b61083c565b34801561037357600080fd5b5061017c610382366004610ef9565b6108e3565b34801561039357600080fd5b5061017c6103a2366004610f2f565b610a07565b3480156103b357600080fd5b506103c76103c23660046113e8565b610a55565b6040516101aa91906114a7565b3480156103e057600080fd5b506103f46103ef3660046111d2565b610b3b565b6040516101aa9190611463565b34801561040d57600080fd5b5061017c61041c36600461105c565b610bcc565b34801561042d57600080fd5b5061044161043c3660046113e8565b610c5b565b604080516001600160a01b0390931683526001600160f01b03199091166020830152016101aa565b34801561047557600080fd5b5061017c610484366004610f5b565b610cf2565b604051632c2f5d2960e21b815273__OrganLibrary__________________________9063b0bd74a4906104c9906001908c908c908c908c9060040161151e565b60006040518083038186803b1580156104e157600080fd5b505af41580156104f5573d6000803e3d6000fd5b505050505050505050505050565b60006001600160e01b0319821663f81b130760e01b148061053457506301ffc9a760e01b6001600160e01b03198316145b92915050565b604051634545992d60e11b8152600160048201526001600160a01b038086166024830152841660448201526064810183905260009073__OrganLibrary__________________________90638a8b325a9060840160006040518083038186803b1580156105a657600080fd5b505af41580156105ba573d6000803e3d6000fd5b50630a85bd0160e11b93505050505b949350505050565b604051633974fa3360e01b8152600160048201526001600160a01b038216602482015273__OrganLibrary__________________________90633974fa33906044015b60006040518083038186803b15801561062c57600080fd5b505af4158015610640573d6000803e3d6000fd5b5050505050565b6040516310e0ba3760e31b815273__OrganLibrary__________________________90638705d1b8906106149060019085906004016115e5565b60405163164b978d60e01b815273__OrganLibrary__________________________9063164b978d906106bd9060019086908690600401611626565b60006040518083038186803b1580156106d557600080fd5b505af41580156106e9573d6000803e3d6000fd5b505050505050565b6106f9610d68565b604051631948599560e31b81526001600482018190526000918291829173__OrganLibrary__________________________9063ca42cca89060240160206040518083038186803b15801561074d57600080fd5b505af4158015610761573d6000803e3d6000fd5b505050506040513d601f19601f8201168201806040525081019061078591906113b7565b600354600454604080516060810182528554815260019095015460ff80821660208801526101009091041690850152929791965094509092509050565b604051630e7551c560e11b815273__OrganLibrary__________________________90631ceaa38a906104c9906001908c908c908c908c9060040161151e565b604051638e15bab760e01b815273__OrganLibrary__________________________90638e15bab7906106149060019085906004016115a4565b6040516399f3d1db60e01b8152600160048201526001600160a01b03831660248201526001600160f01b03198216604482015273__OrganLibrary__________________________906399f3d1db9060640160206040518083038186803b1580156108a657600080fd5b505af41580156108ba573d6000803e3d6000fd5b505050506040513d601f19601f820116820180604052508101906108de91906113b7565b505050565b600054610100900460ff16806108fc575060005460ff16155b6109635760405162461bcd60e51b815260206004820152602e60248201527f496e697469616c697a61626c653a20636f6e747261637420697320616c72656160448201526d191e481a5b9a5d1a585b1a5e995960921b606482015260840160405180910390fd5b600054610100900460ff16158015610985576000805461ffff19166101011790555b60405163659f204d60e01b815273__OrganLibrary__________________________9063659f204d906109c190600190879087906004016114fb565b60006040518083038186803b1580156109d957600080fd5b505af41580156109ed573d6000803e3d6000fd5b5050505080156108de576000805461ff0019169055505050565b60405163432787d960e01b8152600160048201526001600160a01b03831660248201526044810182905273__OrganLibrary__________________________9063432787d9906064016106bd565b610a5d610d88565b604051635935285960e01b8152600160048201526024810183905273__OrganLibrary__________________________9063593528599060440160206040518083038186803b158015610aaf57600080fd5b505af4158015610ac3573d6000803e3d6000fd5b505050506040513d601f19601f82011682018060405250810190610ae791906113b7565b60408051808201825282546001600160a01b0316815281516060810183526001840154815260029093015460ff80821660208681019190915261010090920416928401929092529081019190915292915050565b60405163d1f1e72360e01b815260609073__OrganLibrary__________________________9063d1f1e72390610b7890600190869060040161154c565b60006040518083038186803b158015610b9057600080fd5b505af4158015610ba4573d6000803e3d6000fd5b505050506040513d6000823e601f3d908101601f191682016040526105349190810190611302565b604051637c64ce1b60e11b8152600160048201526001600160a01b038085166024830152831660448201526001600160f01b03198216606482015273__OrganLibrary__________________________9063f8c99c369060840160006040518083038186803b158015610c3e57600080fd5b505af4158015610c52573d6000803e3d6000fd5b50505050505050565b60405163431f2e8b60e11b81526001600482015260248101829052600090819073__OrganLibrary__________________________9063863e5d1690604401604080518083038186803b158015610cb157600080fd5b505af4158015610cc5573d6000803e3d6000fd5b505050506040513d601f19601f82011682018060405250810190610ce991906111a3565b91509150915091565b604051630e7551c560e11b815273__OrganLibrary__________________________90631ceaa38a90610d3290600190889088908890889060040161151e565b60006040518083038186803b158015610d4a57600080fd5b505af4158015610d5e573d6000803e3d6000fd5b5050505050505050565b604080516060810182526000808252602082018190529181019190915290565b604051806040016040528060006001600160a01b03168152602001610dab610d68565b905290565b60008083601f840112610dc257600080fd5b5081356001600160401b03811115610dd957600080fd5b602083019150836020828501011115610df157600080fd5b9250929050565b600060808284031215610e0a57600080fd5b604080519081016001600160401b0381118282101715610e2c57610e2c611694565b6040529050808235610e3d816116aa565b8152610e4c8460208501610e58565b60208201525092915050565b600060608284031215610e6a57600080fd5b604051606081016001600160401b0381118282101715610e8c57610e8c611694565b60405282358152905080610ea260208401610ebf565b6020820152610eb360408401610ebf565b60408201525092915050565b803560ff81168114610ed057600080fd5b919050565b600060208284031215610ee757600080fd5b8135610ef2816116aa565b9392505050565b60008060808385031215610f0c57600080fd5b8235610f17816116aa565b9150610f268460208501610e58565b90509250929050565b60008060408385031215610f4257600080fd5b8235610f4d816116aa565b946020939093013593505050565b60008060008060808587031215610f7157600080fd5b8435610f7c816116aa565b93506020850135610f8c816116aa565b92506040850135610f9c816116aa565b9396929550929360600135925050565b60008060008060008060008060c0898b031215610fc857600080fd5b8835610fd3816116aa565b97506020890135610fe3816116aa565b96506040890135610ff3816116aa565b95506060890135945060808901356001600160401b038082111561101657600080fd5b6110228c838d01610db0565b909650945060a08b013591508082111561103b57600080fd5b506110488b828c01610db0565b999c989b5096995094979396929594505050565b60008060006060848603121561107157600080fd5b833561107c816116aa565b9250602084013561108c816116aa565b9150604084013561109c816116c2565b809150509250925092565b600080600080608085870312156110bd57600080fd5b84356110c8816116aa565b93506020858101356110d9816116aa565b93506040860135925060608601356001600160401b03808211156110fc57600080fd5b818801915088601f83011261111057600080fd5b81358181111561112257611122611694565b611134601f8201601f19168501611641565b9150808252898482850101111561114a57600080fd5b808484018584013760008482840101525080935050505092959194509250565b6000806040838503121561117d57600080fd5b8235611188816116aa565b91506020830135611198816116c2565b809150509250929050565b600080604083850312156111b657600080fd5b82516111c1816116aa565b6020840151909250611198816116c2565b600060208083850312156111e557600080fd5b82356001600160401b038111156111fb57600080fd5b8301601f8101851361120c57600080fd5b803561121f61121a82611671565b611641565b80828252848201915084840188868560071b870101111561123f57600080fd5b600094505b8385101561126b576112568982610df8565b83526001949094019391850191608001611244565b50979650505050505050565b6000602080838503121561128a57600080fd5b82356001600160401b038111156112a057600080fd5b8301601f810185136112b157600080fd5b80356112bf61121a82611671565b80828252848201915084840188868560051b87010111156112df57600080fd5b600094505b8385101561126b5780358352600194909401939185019185016112e4565b6000602080838503121561131557600080fd5b82516001600160401b0381111561132b57600080fd5b8301601f8101851361133c57600080fd5b805161134a61121a82611671565b80828252848201915084840188868560051b870101111561136a57600080fd5b600094505b8385101561126b57805183526001949094019391850191850161136f565b60006020828403121561139f57600080fd5b81356001600160e01b031981168114610ef257600080fd5b6000602082840312156113c957600080fd5b5051919050565b6000606082840312156113e257600080fd5b50919050565b6000602082840312156113fa57600080fd5b5035919050565b60008060a0838503121561141457600080fd5b82359150610f268460208501610df8565b80516001600160a01b03168252602080820151906108de908401825b8051825260ff602082015116602083015260ff60408201511660408301525050565b6020808252825182820181905260009190848201906040850190845b8181101561149b5783518352928401929184019160010161147f565b50909695505050505050565b81516001600160a01b0316815260208083015160808301916114cb90840182611441565b5092915050565b60c081016114e08287611441565b8460608301528360808301528260a083015295945050505050565b8381526001600160a01b038316602082015260a081016105c96040830184611441565b9485526001600160a01b03938416602086015291831660408501529091166060830152608082015260a00190565b6000604082018483526020604081850152818551808452606086019150828701935060005b8181101561159757611584838651611425565b9383019360809290920191600101611571565b5090979650505050505050565b6000604082018483526020604081850152818551808452606086019150828701935060005b81811015611597578451835293830193918301916001016115c9565b60006080820190508382528235602083015260ff61160560208501610ebf565b16604083015260ff61161960408501610ebf565b1660608301529392505050565b8381526020810183905260c081016105c96040830184611425565b604051601f8201601f191681016001600160401b038111828210171561166957611669611694565b604052919050565b60006001600160401b0382111561168a5761168a611694565b5060051b60200190565b634e487b7160e01b600052604160045260246000fd5b6001600160a01b03811681146116bf57600080fd5b50565b6001600160f01b0319811681146116bf57600080fdfea2646970667358221220ff4b713289e5002408678b46f15fccecdbe39d8a5ffa062429dbe9808cdfdd0764736f6c63430008060033",
  "immutableReferences": {},
  "source": "// SPDX-License-Identifier: LGPL-3.0-or-later\npragma solidity ^0.8.0;\npragma experimental ABIEncoderV2;\n\nimport \"./Organ.sol\";\nimport \"./libraries/CoreLibrary.sol\";\nimport \"@openzeppelin/contracts/utils/introspection/ERC165Checker.sol\";\nimport \"@openzeppelin/contracts/proxy/Clones.sol\";\n\ncontract Organigram {\n    using CoreLibrary for CoreLibrary.Entry;\n    using CoreLibrary for CoreLibrary.Metadata;\n    address payable public organ;\n    address payable public procedures; // Organ with procedures addresses.\n\n    event organCreated(address payable organ);\n    event procedureCreated(address payable procedureType, address payable procedure);\n\n    constructor(CoreLibrary.Metadata memory metadata)\n    {\n        organ = payable(address(new Organ()));\n        procedures = createOrgan(payable(msg.sender), metadata);\n    }\n\n    function createOrgan(\n        address payable admin,\n        CoreLibrary.Metadata memory metadata\n    )\n        public\n        returns (address payable clone)\n    {\n        // Clone organ and initialize it.\n        clone = payable(Clones.clone(organ));\n        Organ(clone).initialize(admin, metadata);\n        emit organCreated(clone);\n        return clone;\n    }\n\n    // @todo : Implement Diamond in Organigram.sol ? https://eips.ethereum.org/EIPS/eip-2535\n    function createProcedure(address payable procedureId)\n        public\n        returns (address payable procedure)\n    {\n        // Check if procedure.\n        require(ERC165Checker.supportsInterface(procedureId, 0x71dbd330), \"Not a procedure.\");\n        // Check if procedure is in registry.\n        require(Organ(procedures).getEntryIndexForAddress(procedureId) > 0, \"Procedure not found.\");\n        procedure = payable(Clones.clone(procedureId));\n        emit procedureCreated(procedureId, procedure);\n        // NB: The initialize method will need to be called directly.\n        return procedure;\n    }\n\n    function registerProcedures(CoreLibrary.Entry[] memory entries)\n        external\n    {\n        // Only valid procedures\n        for (uint256 i; i < entries.length; ++i) {\n            require(\n                ERC165Checker.supportsInterface(entries[i].addr, 0x71dbd330),\n                \"An entry in parameters is not a valid procedure.\"\n            );\n        }\n        Organ(organ).addEntries(entries);\n    }\n}",
  "sourcePath": "/Users/alex/Code/organigr.am-refactoring/packages/@organigram/contracts/contracts/Organigram.sol",
  "compiler": {
    "name": "solc",
    "version": "0.8.6+commit.11564f7e.Emscripten.clang"
  },
  "schemaVersion": "3.4.1",
  "updatedAt": "2021-06-30T09:57:24.640Z",
  "devdoc": {
    "kind": "dev",
    "methods": {},
    "version": 1
  },
  "userdoc": {
    "kind": "user",
    "methods": {},
    "version": 1
  }
}