{
  "contractName": "Procedure",
  "abi": [
    {
      "inputs": [
        {
          "internalType": "bytes32",
          "name": "metadataIpfsHash",
          "type": "bytes32"
        },
        {
          "internalType": "uint8",
          "name": "metadataHashFunction",
          "type": "uint8"
        },
        {
          "internalType": "uint8",
          "name": "metadataHashSize",
          "type": "uint8"
        }
      ],
      "stateMutability": "nonpayable",
      "type": "constructor"
    },
    {
      "inputs": [
        {
          "internalType": "bytes4",
          "name": "interfaceId",
          "type": "bytes4"
        }
      ],
      "name": "supportsInterface",
      "outputs": [
        {
          "internalType": "bool",
          "name": "",
          "type": "bool"
        }
      ],
      "stateMutability": "view",
      "type": "function"
    },
    {
      "inputs": [
        {
          "internalType": "bytes32",
          "name": "ipfsHash",
          "type": "bytes32"
        },
        {
          "internalType": "uint8",
          "name": "hashFunction",
          "type": "uint8"
        },
        {
          "internalType": "uint8",
          "name": "hashSize",
          "type": "uint8"
        }
      ],
      "name": "updateMetadata",
      "outputs": [],
      "stateMutability": "nonpayable",
      "type": "function"
    },
    {
      "inputs": [
        {
          "internalType": "address payable",
          "name": "admin",
          "type": "address"
        }
      ],
      "name": "updateAdmin",
      "outputs": [],
      "stateMutability": "nonpayable",
      "type": "function"
    },
    {
      "inputs": [
        {
          "internalType": "bytes32",
          "name": "ipfsHash",
          "type": "bytes32"
        },
        {
          "internalType": "uint8",
          "name": "hashFunction",
          "type": "uint8"
        },
        {
          "internalType": "uint8",
          "name": "hashSize",
          "type": "uint8"
        }
      ],
      "name": "createMove",
      "outputs": [
        {
          "internalType": "uint256",
          "name": "",
          "type": "uint256"
        }
      ],
      "stateMutability": "nonpayable",
      "type": "function"
    },
    {
      "inputs": [
        {
          "internalType": "uint256",
          "name": "moveKey",
          "type": "uint256"
        },
        {
          "internalType": "address payable",
          "name": "organ",
          "type": "address"
        },
        {
          "components": [
            {
              "internalType": "address",
              "name": "addr",
              "type": "address"
            },
            {
              "internalType": "bytes32",
              "name": "ipfsHash",
              "type": "bytes32"
            },
            {
              "internalType": "uint8",
              "name": "hashFunction",
              "type": "uint8"
            },
            {
              "internalType": "uint8",
              "name": "hashSize",
              "type": "uint8"
            }
          ],
          "internalType": "struct OrganLibrary.Entry[]",
          "name": "entries",
          "type": "tuple[]"
        },
        {
          "internalType": "bool",
          "name": "lock",
          "type": "bool"
        }
      ],
      "name": "moveAddEntries",
      "outputs": [],
      "stateMutability": "nonpayable",
      "type": "function"
    },
    {
      "inputs": [
        {
          "internalType": "uint256",
          "name": "moveKey",
          "type": "uint256"
        },
        {
          "internalType": "address payable",
          "name": "organ",
          "type": "address"
        },
        {
          "internalType": "uint256",
          "name": "indexes",
          "type": "uint256"
        },
        {
          "internalType": "bool",
          "name": "lock",
          "type": "bool"
        }
      ],
      "name": "moveRemoveEntry",
      "outputs": [],
      "stateMutability": "nonpayable",
      "type": "function"
    },
    {
      "inputs": [
        {
          "internalType": "uint256",
          "name": "moveKey",
          "type": "uint256"
        },
        {
          "internalType": "address payable",
          "name": "organ",
          "type": "address"
        },
        {
          "internalType": "uint256",
          "name": "index",
          "type": "uint256"
        },
        {
          "internalType": "address payable",
          "name": "addr",
          "type": "address"
        },
        {
          "internalType": "bytes32",
          "name": "ipfsHash",
          "type": "bytes32"
        },
        {
          "internalType": "uint8",
          "name": "hashFunction",
          "type": "uint8"
        },
        {
          "internalType": "uint8",
          "name": "hashSize",
          "type": "uint8"
        },
        {
          "internalType": "bool",
          "name": "lock",
          "type": "bool"
        }
      ],
      "name": "moveReplaceEntry",
      "outputs": [],
      "stateMutability": "nonpayable",
      "type": "function"
    },
    {
      "inputs": [
        {
          "internalType": "uint256",
          "name": "moveKey",
          "type": "uint256"
        },
        {
          "internalType": "address payable",
          "name": "organ",
          "type": "address"
        },
        {
          "internalType": "address",
          "name": "procedure",
          "type": "address"
        },
        {
          "internalType": "bytes2",
          "name": "permissions",
          "type": "bytes2"
        },
        {
          "internalType": "bool",
          "name": "lock",
          "type": "bool"
        }
      ],
      "name": "moveAddProcedure",
      "outputs": [],
      "stateMutability": "nonpayable",
      "type": "function"
    },
    {
      "inputs": [
        {
          "internalType": "uint256",
          "name": "moveKey",
          "type": "uint256"
        },
        {
          "internalType": "address payable",
          "name": "organ",
          "type": "address"
        },
        {
          "internalType": "address",
          "name": "procedure",
          "type": "address"
        },
        {
          "internalType": "bool",
          "name": "lock",
          "type": "bool"
        }
      ],
      "name": "moveRemoveProcedure",
      "outputs": [],
      "stateMutability": "nonpayable",
      "type": "function"
    },
    {
      "inputs": [
        {
          "internalType": "uint256",
          "name": "moveKey",
          "type": "uint256"
        },
        {
          "internalType": "address payable",
          "name": "organ",
          "type": "address"
        },
        {
          "internalType": "address",
          "name": "oldProcedure",
          "type": "address"
        },
        {
          "internalType": "address",
          "name": "newProcedure",
          "type": "address"
        },
        {
          "internalType": "bytes2",
          "name": "permissions",
          "type": "bytes2"
        },
        {
          "internalType": "bool",
          "name": "lock",
          "type": "bool"
        }
      ],
      "name": "moveReplaceProcedure",
      "outputs": [],
      "stateMutability": "nonpayable",
      "type": "function"
    },
    {
      "inputs": [
        {
          "internalType": "uint256",
          "name": "moveKey",
          "type": "uint256"
        },
        {
          "internalType": "bytes",
          "name": "call",
          "type": "bytes"
        },
        {
          "internalType": "bool",
          "name": "lock",
          "type": "bool"
        }
      ],
      "name": "moveCall",
      "outputs": [],
      "stateMutability": "nonpayable",
      "type": "function"
    },
    {
      "inputs": [
        {
          "internalType": "uint256",
          "name": "moveKey",
          "type": "uint256"
        },
        {
          "internalType": "address payable",
          "name": "organ",
          "type": "address"
        },
        {
          "internalType": "address",
          "name": "operator",
          "type": "address"
        },
        {
          "internalType": "address",
          "name": "target",
          "type": "address"
        },
        {
          "internalType": "uint256",
          "name": "token_id",
          "type": "uint256"
        },
        {
          "internalType": "bool",
          "name": "lock",
          "type": "bool"
        }
      ],
      "name": "moveReceiveCollectible",
      "outputs": [],
      "stateMutability": "nonpayable",
      "type": "function"
    },
    {
      "inputs": [
        {
          "internalType": "uint256",
          "name": "moveKey",
          "type": "uint256"
        },
        {
          "internalType": "address payable",
          "name": "organ",
          "type": "address"
        },
        {
          "internalType": "address",
          "name": "operator",
          "type": "address"
        },
        {
          "internalType": "address",
          "name": "target",
          "type": "address"
        },
        {
          "internalType": "uint256",
          "name": "token_id",
          "type": "uint256"
        },
        {
          "internalType": "bool",
          "name": "lock",
          "type": "bool"
        }
      ],
      "name": "moveTransferCollectible",
      "outputs": [],
      "stateMutability": "nonpayable",
      "type": "function"
    },
    {
      "inputs": [
        {
          "internalType": "uint256",
          "name": "moveKey",
          "type": "uint256"
        },
        {
          "internalType": "address payable",
          "name": "organ",
          "type": "address"
        },
        {
          "internalType": "address",
          "name": "operator",
          "type": "address"
        },
        {
          "internalType": "address",
          "name": "target",
          "type": "address"
        },
        {
          "internalType": "uint256",
          "name": "value",
          "type": "uint256"
        },
        {
          "internalType": "bool",
          "name": "lock",
          "type": "bool"
        }
      ],
      "name": "moveReceiveCoins",
      "outputs": [],
      "stateMutability": "nonpayable",
      "type": "function"
    },
    {
      "inputs": [
        {
          "internalType": "uint256",
          "name": "moveKey",
          "type": "uint256"
        },
        {
          "internalType": "address payable",
          "name": "organ",
          "type": "address"
        },
        {
          "internalType": "address",
          "name": "operator",
          "type": "address"
        },
        {
          "internalType": "address",
          "name": "target",
          "type": "address"
        },
        {
          "internalType": "uint256",
          "name": "value",
          "type": "uint256"
        },
        {
          "internalType": "bool",
          "name": "lock",
          "type": "bool"
        }
      ],
      "name": "moveTransferCoins",
      "outputs": [],
      "stateMutability": "nonpayable",
      "type": "function"
    },
    {
      "inputs": [
        {
          "internalType": "uint256",
          "name": "moveKey",
          "type": "uint256"
        },
        {
          "internalType": "address payable",
          "name": "organ",
          "type": "address"
        },
        {
          "internalType": "address",
          "name": "target",
          "type": "address"
        },
        {
          "internalType": "uint256",
          "name": "value",
          "type": "uint256"
        },
        {
          "internalType": "bool",
          "name": "lock",
          "type": "bool"
        }
      ],
      "name": "moveReceiveEther",
      "outputs": [],
      "stateMutability": "nonpayable",
      "type": "function"
    },
    {
      "inputs": [
        {
          "internalType": "uint256",
          "name": "moveKey",
          "type": "uint256"
        },
        {
          "internalType": "address payable",
          "name": "organ",
          "type": "address"
        },
        {
          "internalType": "address",
          "name": "target",
          "type": "address"
        },
        {
          "internalType": "uint256",
          "name": "value",
          "type": "uint256"
        },
        {
          "internalType": "bool",
          "name": "lock",
          "type": "bool"
        }
      ],
      "name": "moveTransferEther",
      "outputs": [],
      "stateMutability": "nonpayable",
      "type": "function"
    },
    {
      "inputs": [
        {
          "internalType": "uint256",
          "name": "moveKey",
          "type": "uint256"
        }
      ],
      "name": "lockMove",
      "outputs": [],
      "stateMutability": "nonpayable",
      "type": "function"
    },
    {
      "inputs": [],
      "name": "getMovesLength",
      "outputs": [
        {
          "internalType": "uint256",
          "name": "length",
          "type": "uint256"
        }
      ],
      "stateMutability": "view",
      "type": "function"
    },
    {
      "inputs": [
        {
          "internalType": "uint256",
          "name": "moveKey",
          "type": "uint256"
        }
      ],
      "name": "getMove",
      "outputs": [
        {
          "components": [
            {
              "internalType": "address payable",
              "name": "creator",
              "type": "address"
            },
            {
              "components": [
                {
                  "internalType": "bytes32",
                  "name": "ipfsHash",
                  "type": "bytes32"
                },
                {
                  "internalType": "uint8",
                  "name": "hashFunction",
                  "type": "uint8"
                },
                {
                  "internalType": "uint8",
                  "name": "hashSize",
                  "type": "uint8"
                }
              ],
              "internalType": "struct ProcedureLibrary.Metadata",
              "name": "metadata",
              "type": "tuple"
            },
            {
              "internalType": "bool",
              "name": "locked",
              "type": "bool"
            },
            {
              "internalType": "bool",
              "name": "applied",
              "type": "bool"
            },
            {
              "internalType": "bool",
              "name": "processing",
              "type": "bool"
            },
            {
              "components": [
                {
                  "internalType": "uint256",
                  "name": "index",
                  "type": "uint256"
                },
                {
                  "internalType": "uint8",
                  "name": "operationType",
                  "type": "uint8"
                },
                {
                  "internalType": "bytes",
                  "name": "call",
                  "type": "bytes"
                },
                {
                  "internalType": "bool",
                  "name": "processed",
                  "type": "bool"
                }
              ],
              "internalType": "struct ProcedureLibrary.Operation[]",
              "name": "operations",
              "type": "tuple[]"
            }
          ],
          "internalType": "struct ProcedureLibrary.Move",
          "name": "move",
          "type": "tuple"
        }
      ],
      "stateMutability": "view",
      "type": "function"
    },
    {
      "inputs": [],
      "name": "getMetadata",
      "outputs": [
        {
          "internalType": "bytes32",
          "name": "ipfsHash",
          "type": "bytes32"
        },
        {
          "internalType": "uint8",
          "name": "hashFunction",
          "type": "uint8"
        },
        {
          "internalType": "uint8",
          "name": "hashSize",
          "type": "uint8"
        }
      ],
      "stateMutability": "view",
      "type": "function"
    }
  ],
  "bytecode": "0x60806040523480156200001157600080fd5b5060405162004f6a38038062004f6a8339818101604052810190620000379190620001ea565b6200004f6301ffc9a760e01b620000e460201b60201c565b620000676371dbd33060e01b620000e460201b60201c565b600173__ProcedureLibrary______________________63359a395d90918585856040518563ffffffff1660e01b8152600401620000a99493929190620002cd565b60006040518083038186803b158015620000c257600080fd5b505af4158015620000d7573d6000803e3d6000fd5b5050505050505062000376565b63ffffffff60e01b817bffffffffffffffffffffffffffffffffffffffffffffffffffffffff1916141562000150576040517f08c379a00000000000000000000000000000000000000000000000000000000081526004016200014790620002ab565b60405180910390fd5b6001600080837bffffffffffffffffffffffffffffffffffffffffffffffffffffffff19167bffffffffffffffffffffffffffffffffffffffffffffffffffffffff1916815260200190815260200160002060006101000a81548160ff02191690831515021790555050565b600081519050620001cd8162000342565b92915050565b600081519050620001e4816200035c565b92915050565b6000806000606084860312156200020057600080fd5b60006200021086828701620001bc565b93505060206200022386828701620001d3565b92505060406200023686828701620001d3565b9150509250925092565b6200024b816200032b565b82525050565b600062000260601c836200031a565b91507f4552433136353a20696e76616c696420696e74657266616365206964000000006000830152602082019050919050565b8082525050565b620002a58162000335565b82525050565b60006020820190508181036000830152620002c68162000251565b9050919050565b6000608082019050620002e4600083018762000293565b620002f3602083018662000240565b6200030260408301856200029a565b6200031160608301846200029a565b95945050505050565b600082825260208201905092915050565b6000819050919050565b600060ff82169050919050565b6200034d816200032b565b81146200035957600080fd5b50565b620003678162000335565b81146200037357600080fd5b50565b614be480620003866000396000f3fe608060405234801561001057600080fd5b50600436106101375760003560e01c806367c322d0116100b8578063a2b58cda1161007c578063a2b58cda1461030e578063c492f4631461033e578063cb6bc9ff1461035a578063cc12503114610376578063e2f273bd14610392578063fa160aa2146103ae57610137565b806367c322d01461026a57806371dbd330146102865780637a5b4f59146102b65780637c3a5fcc146102d65780637ee7fa40146102f257610137565b80633e9a9bd8116100ff5780633e9a9bd8146101dc57806352c041b2146101fa5780635a31b560146102165780635ba357dc146102325780636322ab201461024e57610137565b806301ffc9a71461013c5780630b5522a91461016c578063148a2005146101885780632c1d5337146101a457806339c2ae70146101c0575b600080fd5b61015660048036038101906101519190613d08565b6103ca565b6040516101639190614782565b60405180910390f35b61018660048036038101906101819190613ecf565b610431565b005b6101a2600480360381019061019d9190613de3565b610454565b005b6101be60048036038101906101b99190613d5a565b61047a565b005b6101da60048036038101906101d59190613c6a565b6104a0565b005b6101e4610515565b6040516101f1919061489f565b60405180910390f35b610214600480360381019061020f9190614038565b610522565b005b610230600480360381019061022b9190613de3565b61054e565b005b61024c60048036038101906102479190613d31565b610574565b005b610268600480360381019061026391906140ea565b61058b565b005b610284600480360381019061027f9190613e6c565b6105ab565b005b6102a0600480360381019061029b9190613d31565b6105cb565b6040516102ad91906147f4565b60405180910390f35b6102be61083d565b6040516102cd9392919061479d565b60405180910390f35b6102f060048036038101906102eb9190613de3565b6108d7565b005b61030c60048036038101906103079190613f46565b6108fd565b005b61032860048036038101906103239190613c6a565b610920565b604051610335919061489f565b60405180910390f35b61035860048036038101906103539190613fbd565b610943565b005b610374600480360381019061036f9190613de3565b610963565b005b610390600480360381019061038b9190613f46565b610989565b005b6103ac60048036038101906103a79190613c41565b6109ac565b005b6103c860048036038101906103c3919061414d565b610a1b565b005b6000806000837bffffffffffffffffffffffffffffffffffffffffffffffffffffffff19167bffffffffffffffffffffffffffffffffffffffffffffffffffffffff1916815260200190815260200160002060009054906101000a900460ff169050919050565b61044d85858585856001610a389095949392919063ffffffff16565b5050505050565b6104728686868686866001610da3909695949392919063ffffffff16565b505050505050565b6104988686868686866001611111909695949392919063ffffffff16565b505050505050565b600173__ProcedureLibrary______________________63b8cc9a0290918585856040518563ffffffff1660e01b81526004016104e0949392919061485a565b60006040518083038186803b1580156104f857600080fd5b505af415801561050c573d6000803e3d6000fd5b50505050505050565b6000600160040154905090565b6105448888888888888888600161147f9098979695949392919063ffffffff16565b5050505050505050565b61056c86868686868660016117bd909695949392919063ffffffff16565b505050505050565b610588816001611b2b90919063ffffffff16565b50565b6105a5848484846001611d0b90949392919063ffffffff16565b50505050565b6105c584848484600161207390949392919063ffffffff16565b50505050565b6105d3613905565b600160030160008381526020019081526020016000206040518060c00160405290816000820160009054906101000a900473ffffffffffffffffffffffffffffffffffffffff1673ffffffffffffffffffffffffffffffffffffffff1673ffffffffffffffffffffffffffffffffffffffff16815260200160018201604051806060016040529081600082015481526020016001820160009054906101000a900460ff1660ff1660ff1681526020016001820160019054906101000a900460ff1660ff1660ff168152505081526020016003820160009054906101000a900460ff161515151581526020016003820160019054906101000a900460ff161515151581526020016003820160029054906101000a900460ff1615151515815260200160048201805480602002602001604051908101604052809291908181526020016000905b8282101561082e5783829060005260206000209060040201604051806080016040529081600082015481526020016001820160009054906101000a900460ff1660ff1660ff168152602001600282018054600181600116156101000203166002900480601f0160208091040260200160405190810160405280929190818152602001828054600181600116156101000203166002900480156107fb5780601f106107d0576101008083540402835291602001916107fb565b820191906000526020600020905b8154815290600101906020018083116107de57829003601f168201915b505050505081526020016003820160009054906101000a900460ff16151515158152505081526020019060010190610718565b50505050815250509050919050565b6000806000600173__ProcedureLibrary______________________6383fecb1a90916040518263ffffffff1660e01b815260040161087c9190614816565b60606040518083038186803b15801561089457600080fd5b505af41580156108a8573d6000803e3d6000fd5b505050506040513d601f19601f820116820180604052508101906108cc9190613cb9565b925092509250909192565b6108f586868686868660016123db909695949392919063ffffffff16565b505050505050565b610919858585858560016127479095949392919063ffffffff16565b5050505050565b600061093a8484846001612ab2909392919063ffffffff16565b90509392505050565b61095d848484846001612bb590949392919063ffffffff16565b50505050565b6109818686868686866001612f1d909695949392919063ffffffff16565b505050505050565b6109a58585858585600161328b9095949392919063ffffffff16565b5050505050565b600173__ProcedureLibrary______________________638e956e929091836040518363ffffffff1660e01b81526004016109e8929190614831565b60006040518083038186803b158015610a0057600080fd5b505af4158015610a14573d6000803e3d6000fd5b5050505050565b610a3383838360016135f6909392919063ffffffff16565b505050565b85853373ffffffffffffffffffffffffffffffffffffffff1682600301600083815260200190815260200160002060000160009054906101000a900473ffffffffffffffffffffffffffffffffffffffff1673ffffffffffffffffffffffffffffffffffffffff1614610ae0576040517f08c379a0000000000000000000000000000000000000000000000000000000008152600401610ad7906147d4565b60405180910390fd5b878781600301600082815260200190815260200160002060030160009054906101000a900460ff16158015610b38575081600301600082815260200190815260200160002060030160019054906101000a900460ff16155b8015610b67575081600301600082815260200190815260200160002060030160029054906101000a900460ff16155b610ba6576040517f08c379a0000000000000000000000000000000000000000000000000000000008152600401610b9d906147d4565b60405180910390fd5b8960030160008a815260200190815260200160002060040160405180608001604052808c60030160008d8152602001908152602001600020600401805490508152602001600460ff1681526020016390b137e98b8b8b604051602401610c0e9392919061465a565b6040516020818303038152906040529060e01b6020820180517bffffffffffffffffffffffffffffffffffffffffffffffffffffffff838183161783525050505081526020016000151581525090806001815401808255809150506001900390600052602060002090600402016000909190919091506000820151816000015560208201518160010160006101000a81548160ff021916908360ff1602179055506040820151816002019080519060200190610ccb92919061395d565b5060608201518160030160006101000a81548160ff02191690831515021790555050508415610d975760018a60030160008b815260200190815260200160002060030160006101000a81548160ff0219169083151502179055507f7306ab933b6e1df1bd2fddce7143eeedd65d5996fada0e9168c4e8c3d1ece94d8a60030160008b815260200190815260200160002060000160009054906101000a900473ffffffffffffffffffffffffffffffffffffffff168a604051610d8e9291906146f8565b60405180910390a15b50505050505050505050565b86863373ffffffffffffffffffffffffffffffffffffffff1682600301600083815260200190815260200160002060000160009054906101000a900473ffffffffffffffffffffffffffffffffffffffff1673ffffffffffffffffffffffffffffffffffffffff1614610e4b576040517f08c379a0000000000000000000000000000000000000000000000000000000008152600401610e42906147d4565b60405180910390fd5b888881600301600082815260200190815260200160002060030160009054906101000a900460ff16158015610ea3575081600301600082815260200190815260200160002060030160019054906101000a900460ff16155b8015610ed2575081600301600082815260200190815260200160002060030160029054906101000a900460ff16155b610f11576040517f08c379a0000000000000000000000000000000000000000000000000000000008152600401610f08906147d4565b60405180910390fd5b8a60030160008b815260200190815260200160002060040160405180608001604052808d60030160008e8152602001908152602001600020600401805490508152602001600760ff16815260200163c10753298c8c8c8c604051602401610f7b9493929190614615565b6040516020818303038152906040529060e01b6020820180517bffffffffffffffffffffffffffffffffffffffffffffffffffffffff838183161783525050505081526020016000151581525090806001815401808255809150506001900390600052602060002090600402016000909190919091506000820151816000015560208201518160010160006101000a81548160ff021916908360ff160217905550604082015181600201908051906020019061103892919061395d565b5060608201518160030160006101000a81548160ff021916908315150217905550505084156111045760018b60030160008c815260200190815260200160002060030160006101000a81548160ff0219169083151502179055507f7306ab933b6e1df1bd2fddce7143eeedd65d5996fada0e9168c4e8c3d1ece94d8b60030160008c815260200190815260200160002060000160009054906101000a900473ffffffffffffffffffffffffffffffffffffffff168b6040516110fb9291906146f8565b60405180910390a15b5050505050505050505050565b86863373ffffffffffffffffffffffffffffffffffffffff1682600301600083815260200190815260200160002060000160009054906101000a900473ffffffffffffffffffffffffffffffffffffffff1673ffffffffffffffffffffffffffffffffffffffff16146111b9576040517f08c379a00000000000000000000000000000000000000000000000000000000081526004016111b0906147d4565b60405180910390fd5b888881600301600082815260200190815260200160002060030160009054906101000a900460ff16158015611211575081600301600082815260200190815260200160002060030160019054906101000a900460ff16155b8015611240575081600301600082815260200190815260200160002060030160029054906101000a900460ff16155b61127f576040517f08c379a0000000000000000000000000000000000000000000000000000000008152600401611276906147d4565b60405180910390fd5b8a60030160008b815260200190815260200160002060040160405180608001604052808d60030160008e8152602001908152602001600020600401805490508152602001600660ff168152602001635676c77d8c8c8c8c6040516024016112e994939291906145d0565b6040516020818303038152906040529060e01b6020820180517bffffffffffffffffffffffffffffffffffffffffffffffffffffffff838183161783525050505081526020016000151581525090806001815401808255809150506001900390600052602060002090600402016000909190919091506000820151816000015560208201518160010160006101000a81548160ff021916908360ff16021790555060408201518160020190805190602001906113a692919061395d565b5060608201518160030160006101000a81548160ff021916908315150217905550505084156114725760018b60030160008c815260200190815260200160002060030160006101000a81548160ff0219169083151502179055507f7306ab933b6e1df1bd2fddce7143eeedd65d5996fada0e9168c4e8c3d1ece94d8b60030160008c815260200190815260200160002060000160009054906101000a900473ffffffffffffffffffffffffffffffffffffffff168b6040516114699291906146f8565b60405180910390a15b5050505050505050505050565b88883373ffffffffffffffffffffffffffffffffffffffff1682600301600083815260200190815260200160002060000160009054906101000a900473ffffffffffffffffffffffffffffffffffffffff1673ffffffffffffffffffffffffffffffffffffffff1614611527576040517f08c379a000000000000000000000000000000000000000000000000000000000815260040161151e906147d4565b60405180910390fd5b8a8a81600301600082815260200190815260200160002060030160009054906101000a900460ff1615801561157f575081600301600082815260200190815260200160002060030160019054906101000a900460ff16155b80156115ae575081600301600082815260200190815260200160002060030160029054906101000a900460ff16155b6115ed576040517f08c379a00000000000000000000000000000000000000000000000000000000081526004016115e4906147d4565b60405180910390fd5b60008d60030160008e8152602001908152602001600020905080600401604051806080016040528083600401805490508152602001600360ff16815260200163155a73ce8f8f8f8f8f8f60405160240161164c96959493929190614721565b6040516020818303038152906040529060e01b6020820180517bffffffffffffffffffffffffffffffffffffffffffffffffffffffff838183161783525050505081526020016000151581525090806001815401808255809150506001900390600052602060002090600402016000909190919091506000820151816000015560208201518160010160006101000a81548160ff021916908360ff160217905550604082015181600201908051906020019061170992919061395d565b5060608201518160030160006101000a81548160ff021916908315150217905550505085156117ad5760018160030160006101000a81548160ff0219169083151502179055507f7306ab933b6e1df1bd2fddce7143eeedd65d5996fada0e9168c4e8c3d1ece94d8160000160009054906101000a900473ffffffffffffffffffffffffffffffffffffffff168e6040516117a49291906146f8565b60405180910390a15b5050505050505050505050505050565b86863373ffffffffffffffffffffffffffffffffffffffff1682600301600083815260200190815260200160002060000160009054906101000a900473ffffffffffffffffffffffffffffffffffffffff1673ffffffffffffffffffffffffffffffffffffffff1614611865576040517f08c379a000000000000000000000000000000000000000000000000000000000815260040161185c906147d4565b60405180910390fd5b888881600301600082815260200190815260200160002060030160009054906101000a900460ff161580156118bd575081600301600082815260200190815260200160002060030160019054906101000a900460ff16155b80156118ec575081600301600082815260200190815260200160002060030160029054906101000a900460ff16155b61192b576040517f08c379a0000000000000000000000000000000000000000000000000000000008152600401611922906147d4565b60405180910390fd5b8a60030160008b815260200190815260200160002060040160405180608001604052808d60030160008e8152602001908152602001600020600401805490508152602001600860ff168152602001635e35359e8c8c8c8c6040516024016119959493929190614615565b6040516020818303038152906040529060e01b6020820180517bffffffffffffffffffffffffffffffffffffffffffffffffffffffff838183161783525050505081526020016000151581525090806001815401808255809150506001900390600052602060002090600402016000909190919091506000820151816000015560208201518160010160006101000a81548160ff021916908360ff1602179055506040820151816002019080519060200190611a5292919061395d565b5060608201518160030160006101000a81548160ff02191690831515021790555050508415611b1e5760018b60030160008c815260200190815260200160002060030160006101000a81548160ff0219169083151502179055507f7306ab933b6e1df1bd2fddce7143eeedd65d5996fada0e9168c4e8c3d1ece94d8b60030160008c815260200190815260200160002060000160009054906101000a900473ffffffffffffffffffffffffffffffffffffffff168b604051611b159291906146f8565b60405180910390a15b5050505050505050505050565b81813373ffffffffffffffffffffffffffffffffffffffff1682600301600083815260200190815260200160002060000160009054906101000a900473ffffffffffffffffffffffffffffffffffffffff1673ffffffffffffffffffffffffffffffffffffffff1614611bd3576040517f08c379a0000000000000000000000000000000000000000000000000000000008152600401611bca906147d4565b60405180910390fd5b838381600301600082815260200190815260200160002060030160009054906101000a900460ff16158015611c2b575081600301600082815260200190815260200160002060030160019054906101000a900460ff16155b8015611c5a575081600301600082815260200190815260200160002060030160029054906101000a900460ff16155b611c99576040517f08c379a0000000000000000000000000000000000000000000000000000000008152600401611c90906147d4565b60405180910390fd5b600186600301600087815260200190815260200160002060030160006101000a81548160ff0219169083151502179055507f7306ab933b6e1df1bd2fddce7143eeedd65d5996fada0e9168c4e8c3d1ece94d3386604051611cfb9291906146f8565b60405180910390a1505050505050565b84843373ffffffffffffffffffffffffffffffffffffffff1682600301600083815260200190815260200160002060000160009054906101000a900473ffffffffffffffffffffffffffffffffffffffff1673ffffffffffffffffffffffffffffffffffffffff1614611db3576040517f08c379a0000000000000000000000000000000000000000000000000000000008152600401611daa906147d4565b60405180910390fd5b868681600301600082815260200190815260200160002060030160009054906101000a900460ff16158015611e0b575081600301600082815260200190815260200160002060030160019054906101000a900460ff16155b8015611e3a575081600301600082815260200190815260200160002060030160029054906101000a900460ff16155b611e79576040517f08c379a0000000000000000000000000000000000000000000000000000000008152600401611e70906147d4565b60405180910390fd5b88600301600089815260200190815260200160002060040160405180608001604052808b60030160008c8152602001908152602001600020600401805490508152602001600260ff1681526020016376a6411c8a8a604051602401611edf9291906146f8565b6040516020818303038152906040529060e01b6020820180517bffffffffffffffffffffffffffffffffffffffffffffffffffffffff838183161783525050505081526020016000151581525090806001815401808255809150506001900390600052602060002090600402016000909190919091506000820151816000015560208201518160010160006101000a81548160ff021916908360ff1602179055506040820151816002019080519060200190611f9c92919061395d565b5060608201518160030160006101000a81548160ff021916908315150217905550505084156120685760018960030160008a815260200190815260200160002060030160006101000a81548160ff0219169083151502179055507f7306ab933b6e1df1bd2fddce7143eeedd65d5996fada0e9168c4e8c3d1ece94d8960030160008a815260200190815260200160002060000160009054906101000a900473ffffffffffffffffffffffffffffffffffffffff168960405161205f9291906146f8565b60405180910390a15b505050505050505050565b84843373ffffffffffffffffffffffffffffffffffffffff1682600301600083815260200190815260200160002060000160009054906101000a900473ffffffffffffffffffffffffffffffffffffffff1673ffffffffffffffffffffffffffffffffffffffff161461211b576040517f08c379a0000000000000000000000000000000000000000000000000000000008152600401612112906147d4565b60405180910390fd5b868681600301600082815260200190815260200160002060030160009054906101000a900460ff16158015612173575081600301600082815260200190815260200160002060030160019054906101000a900460ff16155b80156121a2575081600301600082815260200190815260200160002060030160029054906101000a900460ff16155b6121e1576040517f08c379a00000000000000000000000000000000000000000000000000000000081526004016121d8906147d4565b60405180910390fd5b88600301600089815260200190815260200160002060040160405180608001604052808b60030160008c8152602001908152602001600020600401805490508152602001600560ff1681526020016319b9404c8a8a6040516024016122479291906145a7565b6040516020818303038152906040529060e01b6020820180517bffffffffffffffffffffffffffffffffffffffffffffffffffffffff838183161783525050505081526020016000151581525090806001815401808255809150506001900390600052602060002090600402016000909190919091506000820151816000015560208201518160010160006101000a81548160ff021916908360ff160217905550604082015181600201908051906020019061230492919061395d565b5060608201518160030160006101000a81548160ff021916908315150217905550505084156123d05760018960030160008a815260200190815260200160002060030160006101000a81548160ff0219169083151502179055507f7306ab933b6e1df1bd2fddce7143eeedd65d5996fada0e9168c4e8c3d1ece94d8960030160008a815260200190815260200160002060000160009054906101000a900473ffffffffffffffffffffffffffffffffffffffff16896040516123c79291906146f8565b60405180910390a15b505050505050505050565b86863373ffffffffffffffffffffffffffffffffffffffff1682600301600083815260200190815260200160002060000160009054906101000a900473ffffffffffffffffffffffffffffffffffffffff1673ffffffffffffffffffffffffffffffffffffffff1614612483576040517f08c379a000000000000000000000000000000000000000000000000000000000815260040161247a906147d4565b60405180910390fd5b888881600301600082815260200190815260200160002060030160009054906101000a900460ff161580156124db575081600301600082815260200190815260200160002060030160019054906101000a900460ff16155b801561250a575081600301600082815260200190815260200160002060030160029054906101000a900460ff16155b612549576040517f08c379a0000000000000000000000000000000000000000000000000000000008152600401612540906147d4565b60405180910390fd5b8a60030160008b815260200190815260200160002060040160405180608001604052808d60030160008e8152602001908152602001600020600401805490508152602001600760ff16815260200163c10753298c8c8b6040516024016125b193929190614691565b6040516020818303038152906040529060e01b6020820180517bffffffffffffffffffffffffffffffffffffffffffffffffffffffff838183161783525050505081526020016000151581525090806001815401808255809150506001900390600052602060002090600402016000909190919091506000820151816000015560208201518160010160006101000a81548160ff021916908360ff160217905550604082015181600201908051906020019061266e92919061395d565b5060608201518160030160006101000a81548160ff0219169083151502179055505050841561273a5760018b60030160008c815260200190815260200160002060030160006101000a81548160ff0219169083151502179055507f7306ab933b6e1df1bd2fddce7143eeedd65d5996fada0e9168c4e8c3d1ece94d8b60030160008c815260200190815260200160002060000160009054906101000a900473ffffffffffffffffffffffffffffffffffffffff168b6040516127319291906146f8565b60405180910390a15b5050505050505050505050565b85853373ffffffffffffffffffffffffffffffffffffffff1682600301600083815260200190815260200160002060000160009054906101000a900473ffffffffffffffffffffffffffffffffffffffff1673ffffffffffffffffffffffffffffffffffffffff16146127ef576040517f08c379a00000000000000000000000000000000000000000000000000000000081526004016127e6906147d4565b60405180910390fd5b878781600301600082815260200190815260200160002060030160009054906101000a900460ff16158015612847575081600301600082815260200190815260200160002060030160019054906101000a900460ff16155b8015612876575081600301600082815260200190815260200160002060030160029054906101000a900460ff16155b6128b5576040517f08c379a00000000000000000000000000000000000000000000000000000000081526004016128ac906147d4565b60405180910390fd5b8960030160008a815260200190815260200160002060040160405180608001604052808c60030160008d8152602001908152602001600020600401805490508152602001600760ff16815260200163c10753298b8b8b60405160240161291d93929190614691565b6040516020818303038152906040529060e01b6020820180517bffffffffffffffffffffffffffffffffffffffffffffffffffffffff838183161783525050505081526020016000151581525090806001815401808255809150506001900390600052602060002090600402016000909190919091506000820151816000015560208201518160010160006101000a81548160ff021916908360ff16021790555060408201518160020190805190602001906129da92919061395d565b5060608201518160030160006101000a81548160ff02191690831515021790555050508415612aa65760018a60030160008b815260200190815260200160002060030160006101000a81548160ff0219169083151502179055507f7306ab933b6e1df1bd2fddce7143eeedd65d5996fada0e9168c4e8c3d1ece94d8a60030160008b815260200190815260200160002060000160009054906101000a900473ffffffffffffffffffffffffffffffffffffffff168a604051612a9d9291906146f8565b60405180910390a15b50505050505050505050565b6000808560040160008154809291906001019190505590503386600301600083815260200190815260200160002060000160006101000a81548173ffffffffffffffffffffffffffffffffffffffff021916908373ffffffffffffffffffffffffffffffffffffffff16021790555060405180606001604052808681526020018560ff1681526020018460ff168152508660030160008381526020019081526020016000206001016000820151816000015560208201518160010160006101000a81548160ff021916908360ff16021790555060408201518160010160016101000a81548160ff021916908360ff16021790555090505080915050949350505050565b84843373ffffffffffffffffffffffffffffffffffffffff1682600301600083815260200190815260200160002060000160009054906101000a900473ffffffffffffffffffffffffffffffffffffffff1673ffffffffffffffffffffffffffffffffffffffff1614612c5d576040517f08c379a0000000000000000000000000000000000000000000000000000000008152600401612c54906147d4565b60405180910390fd5b868681600301600082815260200190815260200160002060030160009054906101000a900460ff16158015612cb5575081600301600082815260200190815260200160002060030160019054906101000a900460ff16155b8015612ce4575081600301600082815260200190815260200160002060030160029054906101000a900460ff16155b612d23576040517f08c379a0000000000000000000000000000000000000000000000000000000008152600401612d1a906147d4565b60405180910390fd5b88600301600089815260200190815260200160002060040160405180608001604052808b60030160008c8152602001908152602001600020600401805490508152602001600160ff168152602001631715f4de8a8a604051602401612d899291906146c8565b6040516020818303038152906040529060e01b6020820180517bffffffffffffffffffffffffffffffffffffffffffffffffffffffff838183161783525050505081526020016000151581525090806001815401808255809150506001900390600052602060002090600402016000909190919091506000820151816000015560208201518160010160006101000a81548160ff021916908360ff1602179055506040820151816002019080519060200190612e4692919061395d565b5060608201518160030160006101000a81548160ff02191690831515021790555050508415612f125760018960030160008a815260200190815260200160002060030160006101000a81548160ff0219169083151502179055507f7306ab933b6e1df1bd2fddce7143eeedd65d5996fada0e9168c4e8c3d1ece94d8960030160008a815260200190815260200160002060000160009054906101000a900473ffffffffffffffffffffffffffffffffffffffff1689604051612f099291906146f8565b60405180910390a15b505050505050505050565b86863373ffffffffffffffffffffffffffffffffffffffff1682600301600083815260200190815260200160002060000160009054906101000a900473ffffffffffffffffffffffffffffffffffffffff1673ffffffffffffffffffffffffffffffffffffffff1614612fc5576040517f08c379a0000000000000000000000000000000000000000000000000000000008152600401612fbc906147d4565b60405180910390fd5b888881600301600082815260200190815260200160002060030160009054906101000a900460ff1615801561301d575081600301600082815260200190815260200160002060030160019054906101000a900460ff16155b801561304c575081600301600082815260200190815260200160002060030160029054906101000a900460ff16155b61308b576040517f08c379a0000000000000000000000000000000000000000000000000000000008152600401613082906147d4565b60405180910390fd5b8a60030160008b815260200190815260200160002060040160405180608001604052808d60030160008e8152602001908152602001600020600401805490508152602001600860ff168152602001635e35359e8c8c8c8c6040516024016130f59493929190614615565b6040516020818303038152906040529060e01b6020820180517bffffffffffffffffffffffffffffffffffffffffffffffffffffffff838183161783525050505081526020016000151581525090806001815401808255809150506001900390600052602060002090600402016000909190919091506000820151816000015560208201518160010160006101000a81548160ff021916908360ff16021790555060408201518160020190805190602001906131b292919061395d565b5060608201518160030160006101000a81548160ff0219169083151502179055505050841561327e5760018b60030160008c815260200190815260200160002060030160006101000a81548160ff0219169083151502179055507f7306ab933b6e1df1bd2fddce7143eeedd65d5996fada0e9168c4e8c3d1ece94d8b60030160008c815260200190815260200160002060000160009054906101000a900473ffffffffffffffffffffffffffffffffffffffff168b6040516132759291906146f8565b60405180910390a15b5050505050505050505050565b85853373ffffffffffffffffffffffffffffffffffffffff1682600301600083815260200190815260200160002060000160009054906101000a900473ffffffffffffffffffffffffffffffffffffffff1673ffffffffffffffffffffffffffffffffffffffff1614613333576040517f08c379a000000000000000000000000000000000000000000000000000000000815260040161332a906147d4565b60405180910390fd5b878781600301600082815260200190815260200160002060030160009054906101000a900460ff1615801561338b575081600301600082815260200190815260200160002060030160019054906101000a900460ff16155b80156133ba575081600301600082815260200190815260200160002060030160029054906101000a900460ff16155b6133f9576040517f08c379a00000000000000000000000000000000000000000000000000000000081526004016133f0906147d4565b60405180910390fd5b8960030160008a815260200190815260200160002060040160405180608001604052808c60030160008d8152602001908152602001600020600401805490508152602001600860ff168152602001635e35359e8b8b8b60405160240161346193929190614691565b6040516020818303038152906040529060e01b6020820180517bffffffffffffffffffffffffffffffffffffffffffffffffffffffff838183161783525050505081526020016000151581525090806001815401808255809150506001900390600052602060002090600402016000909190919091506000820151816000015560208201518160010160006101000a81548160ff021916908360ff160217905550604082015181600201908051906020019061351e92919061395d565b5060608201518160030160006101000a81548160ff021916908315150217905550505084156135ea5760018a60030160008b815260200190815260200160002060030160006101000a81548160ff0219169083151502179055507f7306ab933b6e1df1bd2fddce7143eeedd65d5996fada0e9168c4e8c3d1ece94d8a60030160008b815260200190815260200160002060000160009054906101000a900473ffffffffffffffffffffffffffffffffffffffff168a6040516135e19291906146f8565b60405180910390a15b50505050505050505050565b83833373ffffffffffffffffffffffffffffffffffffffff1682600301600083815260200190815260200160002060000160009054906101000a900473ffffffffffffffffffffffffffffffffffffffff1673ffffffffffffffffffffffffffffffffffffffff161461369e576040517f08c379a0000000000000000000000000000000000000000000000000000000008152600401613695906147d4565b60405180910390fd5b858581600301600082815260200190815260200160002060030160009054906101000a900460ff161580156136f6575081600301600082815260200190815260200160002060030160019054906101000a900460ff16155b8015613725575081600301600082815260200190815260200160002060030160029054906101000a900460ff16155b613764576040517f08c379a000000000000000000000000000000000000000000000000000000000815260040161375b906147d4565b60405180910390fd5b87600301600088815260200190815260200160002060040160405180608001604052808a60030160008b8152602001908152602001600020600401805490508152602001600060ff1681526020018881526020016000151581525090806001815401808255809150506001900390600052602060002090600402016000909190919091506000820151816000015560208201518160010160006101000a81548160ff021916908360ff160217905550604082015181600201908051906020019061382f92919061395d565b5060608201518160030160006101000a81548160ff021916908315150217905550505084156138fb57600188600301600089815260200190815260200160002060030160006101000a81548160ff0219169083151502179055507f7306ab933b6e1df1bd2fddce7143eeedd65d5996fada0e9168c4e8c3d1ece94d88600301600089815260200190815260200160002060000160009054906101000a900473ffffffffffffffffffffffffffffffffffffffff16886040516138f29291906146f8565b60405180910390a15b5050505050505050565b6040518060c00160405280600073ffffffffffffffffffffffffffffffffffffffff1681526020016139356139dd565b8152602001600015158152602001600015158152602001600015158152602001606081525090565b828054600181600116156101000203166002900490600052602060002090601f016020900481019282601f1061399e57805160ff19168380011785556139cc565b828001600101855582156139cc579182015b828111156139cb5782518255916020019190600101906139b0565b5b5090506139d99190613a07565b5090565b604051806060016040528060008019168152602001600060ff168152602001600060ff1681525090565b5b80821115613a20576000816000905550600101613a08565b5090565b600081359050613a3381614af6565b92915050565b600081359050613a4881614b0d565b92915050565b600082601f830112613a5f57600080fd5b8135613a72613a6d826148e7565b6148ba565b91508181835260208401935060208101905083856080840282011115613a9757600080fd5b60005b83811015613ac75781613aad8882613b8e565b845260208401935060808301925050600181019050613a9a565b5050505092915050565b600081359050613ae081614b24565b92915050565b600081359050613af581614b3b565b92915050565b600081359050613b0a81614b52565b92915050565b600081519050613b1f81614b52565b92915050565b600081359050613b3481614b69565b92915050565b600082601f830112613b4b57600080fd5b8135613b5e613b598261490f565b6148ba565b91508082526020830160208301858383011115613b7a57600080fd5b613b85838284614aa3565b50505092915050565b600060808284031215613ba057600080fd5b613baa60806148ba565b90506000613bba84828501613a24565b6000830152506020613bce84828501613afb565b6020830152506040613be284828501613c17565b6040830152506060613bf684828501613c17565b60608301525092915050565b600081359050613c1181614b80565b92915050565b600081359050613c2681614b97565b92915050565b600081519050613c3b81614b97565b92915050565b600060208284031215613c5357600080fd5b6000613c6184828501613a39565b91505092915050565b600080600060608486031215613c7f57600080fd5b6000613c8d86828701613afb565b9350506020613c9e86828701613c17565b9250506040613caf86828701613c17565b9150509250925092565b600080600060608486031215613cce57600080fd5b6000613cdc86828701613b10565b9350506020613ced86828701613c2c565b9250506040613cfe86828701613c2c565b9150509250925092565b600060208284031215613d1a57600080fd5b6000613d2884828501613b25565b91505092915050565b600060208284031215613d4357600080fd5b6000613d5184828501613c02565b91505092915050565b60008060008060008060c08789031215613d7357600080fd5b6000613d8189828a01613c02565b9650506020613d9289828a01613a39565b9550506040613da389828a01613a24565b9450506060613db489828a01613a24565b9350506080613dc589828a01613ae6565b92505060a0613dd689828a01613ad1565b9150509295509295509295565b60008060008060008060c08789031215613dfc57600080fd5b6000613e0a89828a01613c02565b9650506020613e1b89828a01613a39565b9550506040613e2c89828a01613a24565b9450506060613e3d89828a01613a24565b9350506080613e4e89828a01613c02565b92505060a0613e5f89828a01613ad1565b9150509295509295509295565b60008060008060808587031215613e8257600080fd5b6000613e9087828801613c02565b9450506020613ea187828801613a39565b9350506040613eb287828801613a24565b9250506060613ec387828801613ad1565b91505092959194509250565b600080600080600060a08688031215613ee757600080fd5b6000613ef588828901613c02565b9550506020613f0688828901613a39565b9450506040613f1788828901613a24565b9350506060613f2888828901613ae6565b9250506080613f3988828901613ad1565b9150509295509295909350565b600080600080600060a08688031215613f5e57600080fd5b6000613f6c88828901613c02565b9550506020613f7d88828901613a39565b9450506040613f8e88828901613a24565b9350506060613f9f88828901613c02565b9250506080613fb088828901613ad1565b9150509295509295909350565b60008060008060808587031215613fd357600080fd5b6000613fe187828801613c02565b9450506020613ff287828801613a39565b935050604085013567ffffffffffffffff81111561400f57600080fd5b61401b87828801613a4e565b925050606061402c87828801613ad1565b91505092959194509250565b600080600080600080600080610100898b03121561405557600080fd5b60006140638b828c01613c02565b98505060206140748b828c01613a39565b97505060406140858b828c01613c02565b96505060606140968b828c01613a39565b95505060806140a78b828c01613afb565b94505060a06140b88b828c01613c17565b93505060c06140c98b828c01613c17565b92505060e06140da8b828c01613ad1565b9150509295985092959890939650565b6000806000806080858703121561410057600080fd5b600061410e87828801613c02565b945050602061411f87828801613a39565b935050604061413087828801613c02565b925050606061414187828801613ad1565b91505092959194509250565b60008060006060848603121561416257600080fd5b600061417086828701613c02565b935050602084013567ffffffffffffffff81111561418d57600080fd5b61419986828701613b3a565b92505060406141aa86828701613ad1565b9150509250925092565b60006141c083836143d1565b60808301905092915050565b60006141d883836144f2565b905092915050565b6141e9816149ec565b82525050565b6141f8816149ec565b82525050565b614207816149ec565b82525050565b614216816149da565b82525050565b614225816149da565b82525050565b60006142368261495b565b6142408185614996565b935061424b8361493b565b8060005b8381101561427c57815161426388826141b4565b975061426e8361497c565b92505060018101905061424f565b5085935050505092915050565b600061429482614966565b61429e81856149a7565b9350836020820285016142b08561494b565b8060005b858110156142ec57848403895281516142cd85826141cc565b94506142d883614989565b925060208a019950506001810190506142b4565b50829750879550505050505092915050565b614307816149fe565b82525050565b614316816149fe565b82525050565b61432581614a0a565b82525050565b61433481614a36565b82525050565b61434381614a36565b82525050565b61435281614a36565b82525050565b600061436382614971565b61436d81856149b8565b935061437d818560208601614ab2565b61438681614ae5565b840191505092915050565b600061439e600f836149c9565b91507f4e6f7420617574686f72697a65642e00000000000000000000000000000000006000830152602082019050919050565b6080820160008201516143e7600085018261420d565b5060208201516143fa602085018261432b565b50604082015161440d604085018261457a565b506060820151614420606085018261457a565b50505050565b60608201600082015161443c600085018261432b565b50602082015161444f602085018261457a565b506040820151614462604085018261457a565b50505050565b60006101008301600083015161448160008601826141e0565b5060208301516144946020860182614426565b5060408301516144a760808601826142fe565b5060608301516144ba60a08601826142fe565b5060808301516144cd60c08601826142fe565b5060a083015184820360e08601526144e58282614289565b9150508091505092915050565b600060808301600083015161450a600086018261455c565b50602083015161451d602086018261457a565b50604083015184820360408601526145358282614358565b915050606083015161454a60608601826142fe565b508091505092915050565b8082525050565b61456581614a8c565b82525050565b61457481614a8c565b82525050565b61458381614a96565b82525050565b61459281614a96565b82525050565b6145a181614a96565b82525050565b60006040820190506145bc60008301856141ef565b6145c9602083018461421c565b9392505050565b60006080820190506145e560008301876141ef565b6145f2602083018661421c565b6145ff604083018561421c565b61460c606083018461431c565b95945050505050565b600060808201905061462a60008301876141ef565b614637602083018661421c565b614644604083018561421c565b614651606083018461456b565b95945050505050565b600060608201905061466f60008301866141ef565b61467c602083018561421c565b614689604083018461431c565b949350505050565b60006060820190506146a660008301866141ef565b6146b3602083018561421c565b6146c0604083018461456b565b949350505050565b60006040820190506146dd60008301856141ef565b81810360208301526146ef818461422b565b90509392505050565b600060408201905061470d60008301856141ef565b61471a602083018461456b565b9392505050565b600060c08201905061473660008301896141ef565b614743602083018861456b565b61475060408301876141ef565b61475d606083018661433a565b61476a6080830185614589565b61477760a0830184614589565b979650505050505050565b6000602082019050614797600083018461430d565b92915050565b60006060820190506147b2600083018661433a565b6147bf6020830185614589565b6147cc6040830184614589565b949350505050565b600060208201905081810360008301526147ed81614391565b9050919050565b6000602082019050818103600083015261480e8184614468565b905092915050565b600060208201905061482b6000830184614555565b92915050565b60006040820190506148466000830185614555565b61485360208301846141fe565b9392505050565b600060808201905061486f6000830187614555565b61487c6020830186614349565b6148896040830185614598565b6148966060830184614598565b95945050505050565b60006020820190506148b4600083018461456b565b92915050565b6000604051905081810181811067ffffffffffffffff821117156148dd57600080fd5b8060405250919050565b600067ffffffffffffffff8211156148fe57600080fd5b602082029050602081019050919050565b600067ffffffffffffffff82111561492657600080fd5b601f19601f8301169050602081019050919050565b6000819050602082019050919050565b6000819050602082019050919050565b600081519050919050565b600081519050919050565b600081519050919050565b6000602082019050919050565b6000602082019050919050565b600082825260208201905092915050565b600082825260208201905092915050565b600082825260208201905092915050565b600082825260208201905092915050565b60006149e582614a6c565b9050919050565b60006149f782614a6c565b9050919050565b60008115159050919050565b60007fffff00000000000000000000000000000000000000000000000000000000000082169050919050565b6000819050919050565b60007fffffffff0000000000000000000000000000000000000000000000000000000082169050919050565b600073ffffffffffffffffffffffffffffffffffffffff82169050919050565b6000819050919050565b600060ff82169050919050565b82818337600083830152505050565b60005b83811015614ad0578082015181840152602081019050614ab5565b83811115614adf576000848401525b50505050565b6000601f19601f8301169050919050565b614aff816149da565b8114614b0a57600080fd5b50565b614b16816149ec565b8114614b2157600080fd5b50565b614b2d816149fe565b8114614b3857600080fd5b50565b614b4481614a0a565b8114614b4f57600080fd5b50565b614b5b81614a36565b8114614b6657600080fd5b50565b614b7281614a40565b8114614b7d57600080fd5b50565b614b8981614a8c565b8114614b9457600080fd5b50565b614ba081614a96565b8114614bab57600080fd5b5056fea2646970667358221220fd8d8d43dedc5cf6f715215d401935902bdbd94d12381cca78fd8a0f075622c864736f6c634300060c0033",
  "immutableReferences": {},
  "source": "// SPDX-License-Identifier: LGPL-3.0-or-later\npragma solidity ^0.6.0;\npragma experimental ABIEncoderV2;\n\nimport \"./libraries/ProcedureLibrary.sol\";\nimport \"@openzeppelin/contracts/introspection/ERC165.sol\";\n\n/*\n    A procedure defines a set of operations compiled in a move.\n    The procedure dictates the way the move can be applied.\n\n    @TODO : Add moves getters.\n*/\n\ncontract Procedure is ERC165 {\n    using ProcedureLibrary for ProcedureLibrary.ProcedureData;\n    using ProcedureLibrary for ProcedureLibrary.Move;\n    using OrganLibrary for OrganLibrary.Entry;\n    ProcedureLibrary.ProcedureData private procedureData;\n    bytes4 private constant _INTERFACE_ID_PROCEDURE = 0x71dbd330;\n\n    /**\n        Modifiers.\n    */\n\n    modifier onlyInOrgan(address payable organAddress) {\n        require(ProcedureLibrary.isInOrgan(organAddress, msg.sender), \"Not authorized\");\n        _;\n    }\n\n    /**\n        Procedure constructor.\n    */\n\n    constructor (bytes32 metadataIpfsHash, uint8 metadataHashFunction, uint8 metadataHashSize)\n        public\n    {\n        // Register EIP165 interface for introspection.\n        _registerInterface(_INTERFACE_ID_PROCEDURE);\n        procedureData.init(metadataIpfsHash, metadataHashFunction, metadataHashSize);\n    }\n\n    /**\n        Internal API.\n        A procedure must call this method itself.\n    */\n\n    function applyMove(uint256 moveKey)\n        internal\n    {\n        procedureData.applyMove(moveKey);\n    }\n\n    /**\n        Public API : Procedure Metadata and Admin.\n    */\n\n    function updateMetadata(bytes32 ipfsHash, uint8 hashFunction, uint8 hashSize)\n        public\n    {\n        procedureData.updateMetadata(ipfsHash, hashFunction, hashSize);\n    }\n\n    function updateAdmin(address payable admin)\n        public\n    {\n        procedureData.updateAdmin(admin);\n    }\n\n    /**\n        Public API : Moves creation and update.\n    */\n\n    function createMove(bytes32 ipfsHash, uint8 hashFunction, uint8 hashSize)\n        public returns (uint256)\n    {\n        return procedureData.createMove(ipfsHash, hashFunction, hashSize);\n    }\n\n    function moveAddEntries(\n        uint256 moveKey, address payable organ, OrganLibrary.Entry[] memory entries, bool lock\n    )\n        public\n    {\n        procedureData.moveAddEntries(moveKey, organ, entries, lock);\n    }\n\n    function moveRemoveEntry(\n        uint256 moveKey, address payable organ, uint256 indexes, bool lock\n    )\n        public\n    {\n        procedureData.moveRemoveEntry(moveKey, organ, indexes, lock);\n    }\n\n    function moveReplaceEntry(\n        uint256 moveKey, address payable organ, uint index, address payable addr,\n        bytes32 ipfsHash, uint8 hashFunction, uint8 hashSize, bool lock\n    )\n        public\n    {\n        procedureData.moveReplaceEntry(moveKey, organ, index, addr, ipfsHash, hashFunction, hashSize, lock);\n    }\n\n    function moveAddProcedure(\n        uint256 moveKey, address payable organ, address procedure, bytes2 permissions, bool lock\n    )\n        public\n    {\n        procedureData.moveAddProcedure(moveKey, organ, procedure, permissions, lock);\n    }\n\n    function moveRemoveProcedure(\n        uint256 moveKey, address payable organ, address procedure, bool lock\n    )\n        public\n    {\n        procedureData.moveRemoveProcedure(moveKey, organ, procedure, lock);\n    }\n\n    function moveReplaceProcedure(\n        uint256 moveKey, address payable organ,\n        address oldProcedure, address newProcedure, bytes2 permissions, bool lock\n    )\n        public\n    {\n        procedureData.moveReplaceProcedure(moveKey, organ, oldProcedure, newProcedure, permissions, lock);\n    }\n\n    function moveCall(\n        uint256 moveKey, bytes memory call,  bool lock\n    )\n        public\n    {\n        procedureData.moveCall(moveKey, call, lock);\n    }\n\n    function moveReceiveCollectible(\n        uint256 moveKey, address payable organ, address operator, address target, uint256 token_id, bool lock\n    )\n        public\n    {\n        procedureData.moveReceiveCollectible(moveKey, organ, operator, target, token_id, lock);\n    }\n\n    function moveTransferCollectible(\n        uint256 moveKey, address payable organ, address operator, address target, uint256 token_id, bool lock\n    )\n        public\n    {\n        procedureData.moveTransferCollectible(moveKey, organ, operator, target, token_id, lock);\n    }\n\n    function moveReceiveCoins(\n        uint256 moveKey, address payable organ, address operator, address target, uint256 value, bool lock\n    )\n        public\n    {\n        procedureData.moveReceiveCoins(moveKey, organ, operator, target, value, lock);\n    }\n\n    function moveTransferCoins(\n        uint256 moveKey, address payable organ, address operator, address target, uint256 value, bool lock\n    )\n        public\n    {\n        procedureData.moveTransferCoins(moveKey, organ, operator, target, value, lock);\n    }\n\n    function moveReceiveEther(\n        uint256 moveKey, address payable organ, address target, uint256 value, bool lock\n    )\n        public\n    {\n        procedureData.moveReceiveEther(moveKey, organ, target, value, lock);\n    }\n\n    function moveTransferEther(\n        uint256 moveKey, address payable organ, address target, uint256 value, bool lock\n    )\n        public\n    {\n        procedureData.moveTransferEther(moveKey, organ, target, value, lock);\n    }\n\n    function lockMove(uint256 moveKey)\n        public\n    {\n        procedureData.lockMove(moveKey);\n    }\n\n    /*\n        Accessors.\n    */\n\n    function getMovesLength() public view returns (uint256 length) {\n        return procedureData.movesLength;\n    }\n\n    function getMove(uint256 moveKey) public view returns (ProcedureLibrary.Move memory move) {\n        return procedureData.moves[moveKey];\n    }\n\n    function getMetadata()\n        public\n        view\n        returns (\n            bytes32 ipfsHash,\n            uint8 hashFunction,\n            uint8 hashSize\n        )\n    {\n        return procedureData.getMetadata();\n    }\n}",
  "sourcePath": "/Users/alex/Code/organigr.am/packages/@organigram/contracts/contracts/Procedure.sol",
  "compiler": {
    "name": "solc",
    "version": "0.6.12+commit.27d51765.Emscripten.clang"
  },
  "schemaVersion": "3.3.2",
  "updatedAt": "2020-12-03T01:01:44.804Z",
  "devdoc": {
    "kind": "dev",
    "methods": {
      "supportsInterface(bytes4)": {
        "details": "See {IERC165-supportsInterface}. Time complexity O(1), guaranteed to always use less than 30 000 gas."
      }
    },
    "version": 1
  },
  "userdoc": {
    "kind": "user",
    "methods": {
      "constructor": "Procedure constructor.",
      "createMove(bytes32,uint8,uint8)": {
        "notice": "Public API : Moves creation and update."
      },
      "updateMetadata(bytes32,uint8,uint8)": {
        "notice": "Public API : Procedure Metadata and Admin."
      }
    },
    "version": 1
  }
}