{
  "contractName": "ProcedureLibrary",
  "abi": [
    {
      "anonymous": false,
      "inputs": [
        {
          "indexed": false,
          "internalType": "address",
          "name": "from",
          "type": "address"
        },
        {
          "indexed": false,
          "internalType": "address payable",
          "name": "admin",
          "type": "address"
        }
      ],
      "name": "adminUpdated",
      "type": "event"
    },
    {
      "anonymous": false,
      "inputs": [
        {
          "indexed": false,
          "internalType": "address",
          "name": "from",
          "type": "address"
        },
        {
          "indexed": false,
          "internalType": "bytes32",
          "name": "ipfsHash",
          "type": "bytes32"
        },
        {
          "indexed": false,
          "internalType": "uint8",
          "name": "hashFunction",
          "type": "uint8"
        },
        {
          "indexed": false,
          "internalType": "uint8",
          "name": "hashSize",
          "type": "uint8"
        }
      ],
      "name": "metadataUpdated",
      "type": "event"
    },
    {
      "anonymous": false,
      "inputs": [
        {
          "indexed": false,
          "internalType": "uint256",
          "name": "moveKey",
          "type": "uint256"
        }
      ],
      "name": "moveApplied",
      "type": "event"
    },
    {
      "anonymous": false,
      "inputs": [
        {
          "indexed": false,
          "internalType": "address payable",
          "name": "creator",
          "type": "address"
        },
        {
          "indexed": false,
          "internalType": "uint256",
          "name": "moveKey",
          "type": "uint256"
        }
      ],
      "name": "moveCreated",
      "type": "event"
    },
    {
      "inputs": [
        {
          "internalType": "address payable",
          "name": "organ",
          "type": "address"
        },
        {
          "internalType": "address payable",
          "name": "caller",
          "type": "address"
        }
      ],
      "name": "isInOrgan",
      "outputs": [
        {
          "internalType": "bool",
          "name": "",
          "type": "bool"
        }
      ],
      "stateMutability": "view",
      "type": "function",
      "constant": true
    }
  ],
  "bytecode": "0x6108ba610026600b82828239805160001a60731461001957fe5b30600052607381538281f3fe73000000000000000000000000000000000000000030146080604052600436106100565760003560e01c8063359a395d1461005b5780637c3b86fe146100845780638e956e92146100b4578063b8cc9a02146100dd575b600080fd5b81801561006757600080fd5b50610082600480360381019061007d9190610586565b610106565b005b61009e6004803603810190610099919061050e565b6101c3565b6040516100ab9190610726565b60405180910390f35b8180156100c057600080fd5b506100db60048036038101906100d6919061054a565b610290565b005b8180156100e957600080fd5b5061010460048036038101906100ff9190610586565b61037f565b005b60405180606001604052808481526020018360ff1681526020018260ff16815250846000016000820151816000015560208201518160010160006101000a81548160ff021916908360ff16021790555060408201518160010160016101000a81548160ff021916908360ff160217905550905050338460020160006101000a81548173ffffffffffffffffffffffffffffffffffffffff021916908373ffffffffffffffffffffffffffffffffffffffff16021790555050505050565b60008173ffffffffffffffffffffffffffffffffffffffff168373ffffffffffffffffffffffffffffffffffffffff161480610288575060008373ffffffffffffffffffffffffffffffffffffffff16632f2bf18e846040518263ffffffff1660e01b8152600401610235919061069d565b60206040518083038186803b15801561024d57600080fd5b505afa158015610261573d6000803e3d6000fd5b505050506040513d601f19601f8201168201806040525081019061028591906105e9565b14155b905092915050565b816102bf8160020160009054906101000a900473ffffffffffffffffffffffffffffffffffffffff16336101c3565b6102fe576040517f08c379a00000000000000000000000000000000000000000000000000000000081526004016102f590610741565b60405180910390fd5b818360020160006101000a81548173ffffffffffffffffffffffffffffffffffffffff021916908373ffffffffffffffffffffffffffffffffffffffff1602179055507ff16615eb8ea765f7ba93c4bdaba49adf2ea2840d855ecebf189fac383f3ab15633836040516103729291906106b8565b60405180910390a1505050565b836103ae8160020160009054906101000a900473ffffffffffffffffffffffffffffffffffffffff16336101c3565b6103ed576040517f08c379a00000000000000000000000000000000000000000000000000000000081526004016103e490610741565b60405180910390fd5b60405180606001604052808581526020018460ff1681526020018360ff16815250856000016000820151816000015560208201518160010160006101000a81548160ff021916908360ff16021790555060408201518160010160016101000a81548160ff021916908360ff1602179055509050507fe21d6df201a705d8f3b9ce71eb35b7cce8e39a82df540174189a473c52c7d44d3385858560405161049694939291906106e1565b60405180910390a15050505050565b6000813590506104b481610811565b92915050565b6000813590506104c981610828565b92915050565b6000813590506104de8161083f565b92915050565b6000815190506104f381610856565b92915050565b6000813590506105088161086d565b92915050565b6000806040838503121561052157600080fd5b600061052f858286016104a5565b9250506020610540858286016104a5565b9150509250929050565b6000806040838503121561055d57600080fd5b600061056b858286016104cf565b925050602061057c858286016104a5565b9150509250929050565b6000806000806080858703121561059c57600080fd5b60006105aa878288016104cf565b94505060206105bb878288016104ba565b93505060406105cc878288016104f9565b92505060606105dd878288016104f9565b91505092959194509250565b6000602082840312156105fb57600080fd5b6000610609848285016104e4565b91505092915050565b61061b816107db565b82525050565b61062a81610772565b82525050565b61063981610784565b82525050565b61064881610790565b82525050565b600061065b600f83610761565b91507f4e6f7420617574686f72697a65642e00000000000000000000000000000000006000830152602082019050919050565b610697816107ce565b82525050565b60006020820190506106b26000830184610612565b92915050565b60006040820190506106cd6000830185610612565b6106da6020830184610621565b9392505050565b60006080820190506106f66000830187610612565b610703602083018661063f565b610710604083018561068e565b61071d606083018461068e565b95945050505050565b600060208201905061073b6000830184610630565b92915050565b6000602082019050818103600083015261075a8161064e565b9050919050565b600082825260208201905092915050565b600061077d826107a4565b9050919050565b60008115159050919050565b6000819050919050565b6000819050919050565b600073ffffffffffffffffffffffffffffffffffffffff82169050919050565b6000819050919050565b600060ff82169050919050565b60006107e6826107ed565b9050919050565b60006107f8826107ff565b9050919050565b600061080a826107a4565b9050919050565b61081a81610772565b811461082557600080fd5b50565b61083181610790565b811461083c57600080fd5b50565b6108488161079a565b811461085357600080fd5b50565b61085f816107c4565b811461086a57600080fd5b50565b610876816107ce565b811461088157600080fd5b5056fea264697066735822122043072843463949313c7851be292eb3e31c8537b38bdc701f4fc96a56b4b31a0964736f6c63430006080033",
  "immutableReferences": {},
  "source": "// SPDX-License-Identifier: LGPL-3.0-or-later\npragma solidity ^0.6.0;\npragma experimental ABIEncoderV2;\n\nimport \"../Organ.sol\";\n\n/*\n    Organigr.am Contracts Framework - Procedure library.\n    This library holds the logic common to all procedures.\n\n    A procedure can affect an organ by :\n    - Adding, removing, replacing entries.\n    - Adding, removing, replacing procedures.\n    - Withdrawing funds and transferring them to another organ.\n    The procedure can process several operations inside one move.\n*/\n\nlibrary ProcedureLibrary {\n    struct ProcedureData {\n        Metadata metadata;\n        address payable admin;\n        mapping (uint256 => Move) moves;\n        uint256 movesLength;\n    }\n\n    struct Metadata {\n        bytes32 ipfsHash;\n        uint8 hashFunction;\n        uint8 hashSize;\n    }\n\n    struct Move {\n        address payable creator;\n        Metadata metadata;\n        bool locked;\n        bool applied;\n        bool processing;\n        Operation[] operations;\n    }\n\n    struct Operation {\n        uint256 index;          // index will stay after reordering.\n        uint8 operationType;   // avoid reading function signature.\n        // Possible masks:\n        // 0: operation on procedure.\n        // 1/2/3: addEntry/removeEntry/replaceEntry.\n        // 4/5/6: addProcedure/removeProcedure/replaceProcedure.\n        // 7: withdraw funds.\n        // 8: withdraw tokens.\n        bytes call;\n        bool processed;\n    }\n\n    /**\n        Modifiers.\n    */\n    modifier onlyAdmin(ProcedureData storage self) {\n        require(isInOrgan(self.admin, msg.sender), \"Not authorized.\");\n        _;\n    }\n    modifier onlyMoveCreator(ProcedureData storage self, uint256 moveKey) {\n        require(self.moves[moveKey].creator == msg.sender, \"Not authorized.\");\n        _;\n    }\n    modifier onlyNewMove(ProcedureData storage self, uint256 moveKey) {\n        require(\n            !self.moves[moveKey].locked &&\n            !self.moves[moveKey].applied &&\n            !self.moves[moveKey].processing,\n            \"Not authorized.\"\n        );\n        _;\n    }\n    modifier onlyLockedMove(ProcedureData storage self, uint256 moveKey) {\n        require(\n            self.moves[moveKey].locked &&\n            !self.moves[moveKey].applied &&\n            !self.moves[moveKey].processing,\n            \"Not authorized.\"\n        );\n        _;\n    }\n\n    /**\n        Events.\n    */\n\n    event metadataUpdated(address from, bytes32 ipfsHash, uint8 hashFunction, uint8 hashSize);\n    event adminUpdated(address from, address payable admin);\n    event moveCreated(address payable creator, uint256 moveKey);\n    event moveApplied(uint256 moveKey);\n\n    /*\n        Procedure management.\n    */\n\n    function init(\n        ProcedureData storage self, bytes32 ipfsHash, uint8 hashFunction, uint8 hashSize\n    )\n        public\n    {\n        self.metadata = Metadata({\n            ipfsHash: ipfsHash,\n            hashFunction: hashFunction,\n            hashSize: hashSize\n        });\n        self.admin = msg.sender;\n    }\n\n    function updateAdmin(ProcedureData storage self, address payable admin)\n        public onlyAdmin(self)\n    {\n        self.admin = admin;\n        emit adminUpdated(msg.sender, admin);\n    }\n\n    function updateMetadata(\n        ProcedureData storage self, bytes32 ipfsHash, uint8 hashFunction, uint8 hashSize\n    )\n        public onlyAdmin(self)\n    {\n        self.metadata = Metadata({\n            ipfsHash: ipfsHash,\n            hashFunction: hashFunction,\n            hashSize: hashSize\n        });\n        emit metadataUpdated(msg.sender, ipfsHash, hashFunction, hashSize);\n    }\n\n    /**\n        Utils.\n    */\n    function isInOrgan(address payable organ, address payable caller)\n        public view returns (bool)\n    {\n        return organ == caller || Organ(organ).getEntryIndexForAddress(caller) != 0;\n    }\n\n    /**\n        External API.\n    */\n\n    function applyMove(ProcedureData storage self, uint256 moveKey)\n        internal onlyLockedMove(self, moveKey)\n    {\n        // Start processing.\n        Move storage move = self.moves[moveKey];\n        move.processing = true;\n        // Process operations.\n        for (uint256 i = 0; i < move.operations.length; ++i) {\n            Operation storage operation = move.operations[i];\n            operation.processed = true;\n        }\n        move.applied = true;\n        emit moveApplied(moveKey);\n    }\n\n    function createMove(\n        ProcedureData storage self,\n        bytes32 ipfsHash, uint8 hashFunction, uint8 hashSize\n    )\n        internal returns (uint256)\n    {\n        // Moves is a mapping, its key starts at 1.\n        uint256 moveKey = self.movesLength++;\n        self.moves[moveKey].creator = msg.sender;\n        self.moves[moveKey].metadata = Metadata({\n            ipfsHash: ipfsHash,\n            hashFunction: hashFunction,\n            hashSize: hashSize\n        });\n        return moveKey;\n    }\n\n    /**\n        Move API.\n    */\n\n    function moveAddEntries(\n        ProcedureData storage self, uint256 moveKey,\n        address payable organ, OrganLibrary.Entry[] memory entries,\n        bool lock\n    )\n        internal onlyMoveCreator(self, moveKey) onlyNewMove(self, moveKey)\n    {\n        self.moves[moveKey].operations.push(Operation({\n            index: self.moves[moveKey].operations.length,\n            // @fixme Update function signature for _addEntries.\n            call: abi.encodeWithSelector(0x1715f4de, organ, entries),\n            operationType: 1,\n            processed: false\n        }));\n        if (lock) {\n            self.moves[moveKey].locked = true;\n            emit moveCreated(self.moves[moveKey].creator, moveKey);\n        }\n    }\n\n    function moveRemoveEntry(\n        ProcedureData storage self, uint256 moveKey,\n        address payable organ, uint index,\n        bool lock\n    )\n        internal onlyMoveCreator(self, moveKey) onlyNewMove(self, moveKey)\n    {\n        self.moves[moveKey].operations.push(Operation({\n            index: self.moves[moveKey].operations.length,\n            call: abi.encodeWithSelector(0x76a6411c, organ, index),\n            operationType: 2,\n            processed: false\n        }));\n        if (lock) {\n            self.moves[moveKey].locked = true;\n            emit moveCreated(self.moves[moveKey].creator, moveKey);\n        }\n    }\n\n    function moveReplaceEntry(\n        ProcedureData storage self, uint256 moveKey,\n        address payable organ, uint index,\n        address payable addr, bytes32 ipfsHash, uint8 hashFunction, uint8 hashSize,\n        bool lock\n    )\n        internal onlyMoveCreator(self, moveKey) onlyNewMove(self, moveKey)\n    {\n        Move storage move = self.moves[moveKey];\n        move.operations.push(Operation({\n            index: move.operations.length,\n            call: abi.encodeWithSelector(0x155a73ce, organ, index, addr, ipfsHash, hashFunction, hashSize),\n            operationType: 3,\n            processed: false\n        }));\n        if (lock) {\n            move.locked = true;\n            emit moveCreated(move.creator, moveKey);\n        }\n    }\n\n    function moveCall(\n        ProcedureData storage self, uint256 moveKey,\n        bytes memory call,  bool lock\n    )\n        internal onlyMoveCreator(self, moveKey) onlyNewMove(self, moveKey)\n    {\n        self.moves[moveKey].operations.push(Operation({\n            index: self.moves[moveKey].operations.length,\n            call: call,\n            operationType: 0,\n            processed: false\n        }));\n        if (lock) {\n            self.moves[moveKey].locked = true;\n            emit moveCreated(self.moves[moveKey].creator, moveKey);\n        }\n    }\n\n    function moveAddProcedure(\n        ProcedureData storage self, uint256 moveKey,\n        address payable organ, address procedure, bytes2 permissions,\n        bool lock\n    )\n        internal onlyMoveCreator(self, moveKey) onlyNewMove(self, moveKey)\n    {\n        self.moves[moveKey].operations.push(Operation({\n            index: self.moves[moveKey].operations.length,\n            call: abi.encodeWithSelector(0x90b137e9, organ, procedure, permissions),\n            operationType: 4,\n            processed: false\n        }));\n        if (lock) {\n            self.moves[moveKey].locked = true;\n            emit moveCreated(self.moves[moveKey].creator, moveKey);\n        }\n    }\n\n    function moveRemoveProcedure(\n        ProcedureData storage self, uint256 moveKey,\n        address payable organ, address procedure,\n        bool lock\n    )\n        internal onlyMoveCreator(self, moveKey) onlyNewMove(self, moveKey)\n    {\n        self.moves[moveKey].operations.push(Operation({\n            index: self.moves[moveKey].operations.length,\n            call: abi.encodeWithSelector(0x19b9404c, organ, procedure),\n            operationType: 5,\n            processed: false\n        }));\n        if (lock) {\n            self.moves[moveKey].locked = true;\n            emit moveCreated(self.moves[moveKey].creator, moveKey);\n        }\n    }\n\n    function moveReplaceProcedure(\n        ProcedureData storage self, uint256 moveKey,\n        address payable organ, address oldProcedure, address newProcedure, bytes2 permissions,\n        bool lock\n    )\n        internal onlyMoveCreator(self, moveKey) onlyNewMove(self, moveKey)\n    {\n        self.moves[moveKey].operations.push(Operation({\n            index: self.moves[moveKey].operations.length,\n            call: abi.encodeWithSelector(0x5676c77d, organ, oldProcedure, newProcedure, permissions),\n            operationType: 6,\n            processed: false\n        }));\n        if (lock) {\n            self.moves[moveKey].locked = true;\n            emit moveCreated(self.moves[moveKey].creator, moveKey);\n        }\n    }\n\n    function moveReceiveCollectible(\n        ProcedureData storage self, uint256 moveKey,\n        address payable organ, address operator, address /*target*/,\n        uint256 tokenId, bool lock\n    )\n        internal onlyMoveCreator(self, moveKey) onlyNewMove(self, moveKey)\n    {\n        self.moves[moveKey].operations.push(Operation({\n            index: self.moves[moveKey].operations.length,\n            call: abi.encodeWithSelector(0xc1075329, organ, operator, tokenId),\n            operationType: 7,\n            processed: false\n        }));\n        if (lock) {\n            self.moves[moveKey].locked = true;\n            emit moveCreated(self.moves[moveKey].creator, moveKey);\n        }\n    }\n\n    function moveTransferCollectible(\n        ProcedureData storage self, uint256 moveKey,\n        address payable organ, address operator, address target,\n        uint256 tokenId, bool lock\n    )\n        internal onlyMoveCreator(self, moveKey) onlyNewMove(self, moveKey)\n    {\n        self.moves[moveKey].operations.push(Operation({\n            index: self.moves[moveKey].operations.length,\n            call: abi.encodeWithSelector(0x5e35359e, organ, operator, target, tokenId),\n            operationType: 8,\n            processed: false\n        }));\n        if (lock) {\n            self.moves[moveKey].locked = true;\n            emit moveCreated(self.moves[moveKey].creator, moveKey);\n        }\n    }\n\n    function moveReceiveCoins(\n        ProcedureData storage self, uint256 moveKey,\n        address payable organ, address operator, address target, uint256 value,\n        bool lock\n    )\n        internal onlyMoveCreator(self, moveKey) onlyNewMove(self, moveKey)\n    {\n        self.moves[moveKey].operations.push(Operation({\n            index: self.moves[moveKey].operations.length,\n            call: abi.encodeWithSelector(0xc1075329, organ, operator, target, value),\n            operationType: 7,\n            processed: false\n        }));\n        if (lock) {\n            self.moves[moveKey].locked = true;\n            emit moveCreated(self.moves[moveKey].creator, moveKey);\n        }\n    }\n\n    function moveTransferCoins(\n        ProcedureData storage self, uint256 moveKey,\n        address payable organ, address operator, address target,\n        uint256 value, bool lock\n    )\n        internal onlyMoveCreator(self, moveKey) onlyNewMove(self, moveKey)\n    {\n        self.moves[moveKey].operations.push(Operation({\n            index: self.moves[moveKey].operations.length,\n            call: abi.encodeWithSelector(0x5e35359e, organ, operator, target, value),\n            operationType: 8,\n            processed: false\n        }));\n        if (lock) {\n            self.moves[moveKey].locked = true;\n            emit moveCreated(self.moves[moveKey].creator, moveKey);\n        }\n    }\n\n    function moveReceiveEther(\n        ProcedureData storage self, uint256 moveKey,\n        address payable organ, address target, uint256 value, bool lock\n    )\n        internal onlyMoveCreator(self, moveKey) onlyNewMove(self, moveKey)\n    {\n        self.moves[moveKey].operations.push(Operation({\n            index: self.moves[moveKey].operations.length,\n            call: abi.encodeWithSelector(0xc1075329, organ, target, value),\n            operationType: 7,\n            processed: false\n        }));\n        if (lock) {\n            self.moves[moveKey].locked = true;\n            emit moveCreated(self.moves[moveKey].creator, moveKey);\n        }\n    }\n\n    function moveTransferEther(\n        ProcedureData storage self, uint256 moveKey,\n        address payable organ, address target, uint256 value, bool lock\n    )\n        internal onlyMoveCreator(self, moveKey) onlyNewMove(self, moveKey)\n    {\n        self.moves[moveKey].operations.push(Operation({\n            index: self.moves[moveKey].operations.length,\n            call: abi.encodeWithSelector(0x5e35359e, organ, target, value),\n            operationType: 8,\n            processed: false\n        }));\n        if (lock) {\n            self.moves[moveKey].locked = true;\n            emit moveCreated(self.moves[moveKey].creator, moveKey);\n        }\n    }\n\n    function lockMove(ProcedureData storage self, uint256 moveKey)\n        internal onlyMoveCreator(self, moveKey) onlyNewMove(self, moveKey)\n    {\n        self.moves[moveKey].locked = true;\n        emit moveCreated(msg.sender, moveKey);\n    }\n\n    /**\n        Private API.\n    */\n\n    function _addEntries(\n        address payable organ, OrganLibrary.Entry[] memory entries\n    )\n        private returns (uint256[] memory indexes)\n    {\n        return Organ(organ).addEntries(entries);\n    }\n\n    function _removeEntries(address payable organ, uint256[] memory indexes)\n        private\n    {\n        Organ(organ).removeEntries(indexes);\n    }\n\n    function _replaceEntry(\n        address payable organ, uint index,\n        address payable addr, bytes32 ipfsHash, uint8 hashFunction, uint8 hashSize\n    )\n        private\n    {\n        Organ(organ).replaceEntry(index, addr, ipfsHash, hashFunction, hashSize);\n    }\n\n    function _addProcedure(\n        address payable targetOrgan, address procedure, bytes2 permissions\n    )\n        private\n    {\n        Organ(targetOrgan).addProcedure(procedure, permissions);\n    }\n\n    function _removeProcedure(\n        address payable organ, address procedure\n    )\n        private\n    {\n        Organ(organ).removeProcedure(procedure);\n    }\n\n    function _replaceProcedure(\n        address payable organ,\n        address oldProcedure, address newProcedure, bytes2 permissions\n    )\n        private\n    {\n        Organ(organ).replaceProcedure(oldProcedure, newProcedure, permissions);\n    }\n}",
  "sourcePath": "/Users/alex/Code/organigr.am/contracts/contracts/libraries/ProcedureLibrary.sol",
  "compiler": {
    "name": "solc",
    "version": "0.6.8+commit.0bbfe453.Emscripten.clang"
  },
  "schemaVersion": "3.2.4",
  "updatedAt": "2020-09-12T01:16:43.650Z",
  "networkType": "ethereum",
  "devdoc": {
    "methods": {}
  },
  "userdoc": {
    "methods": {
      "isInOrgan(address,address)": {
        "notice": "Utils."
      }
    }
  }
}