{
  "contractName": "Procedure",
  "abi": [
    {
      "inputs": [
        {
          "internalType": "bytes32",
          "name": "metadataIpfsHash",
          "type": "bytes32"
        },
        {
          "internalType": "uint8",
          "name": "metadataHashFunction",
          "type": "uint8"
        },
        {
          "internalType": "uint8",
          "name": "metadataHashSize",
          "type": "uint8"
        }
      ],
      "stateMutability": "nonpayable",
      "type": "constructor"
    },
    {
      "inputs": [],
      "name": "getKelsenData",
      "outputs": [
        {
          "internalType": "bool",
          "name": "",
          "type": "bool"
        },
        {
          "internalType": "bool",
          "name": "",
          "type": "bool"
        },
        {
          "internalType": "uint8",
          "name": "",
          "type": "uint8"
        }
      ],
      "stateMutability": "view",
      "type": "function"
    },
    {
      "inputs": [],
      "name": "isOrgan",
      "outputs": [
        {
          "internalType": "bool",
          "name": "",
          "type": "bool"
        }
      ],
      "stateMutability": "view",
      "type": "function"
    },
    {
      "inputs": [],
      "name": "isProcedure",
      "outputs": [
        {
          "internalType": "bool",
          "name": "",
          "type": "bool"
        }
      ],
      "stateMutability": "view",
      "type": "function"
    },
    {
      "inputs": [],
      "name": "kelsenVersion",
      "outputs": [
        {
          "internalType": "uint8",
          "name": "",
          "type": "uint8"
        }
      ],
      "stateMutability": "view",
      "type": "function"
    },
    {
      "inputs": [
        {
          "internalType": "bytes32",
          "name": "ipfsHash",
          "type": "bytes32"
        },
        {
          "internalType": "uint8",
          "name": "hashFunction",
          "type": "uint8"
        },
        {
          "internalType": "uint8",
          "name": "hashSize",
          "type": "uint8"
        }
      ],
      "name": "updateMetadata",
      "outputs": [],
      "stateMutability": "nonpayable",
      "type": "function"
    },
    {
      "inputs": [
        {
          "internalType": "address payable",
          "name": "admin",
          "type": "address"
        }
      ],
      "name": "updateAdmin",
      "outputs": [],
      "stateMutability": "nonpayable",
      "type": "function"
    },
    {
      "inputs": [
        {
          "internalType": "bytes32",
          "name": "ipfsHash",
          "type": "bytes32"
        },
        {
          "internalType": "uint8",
          "name": "hashFunction",
          "type": "uint8"
        },
        {
          "internalType": "uint8",
          "name": "hashSize",
          "type": "uint8"
        }
      ],
      "name": "createMove",
      "outputs": [
        {
          "internalType": "uint256",
          "name": "",
          "type": "uint256"
        }
      ],
      "stateMutability": "nonpayable",
      "type": "function"
    },
    {
      "inputs": [
        {
          "internalType": "uint256",
          "name": "moveKey",
          "type": "uint256"
        },
        {
          "internalType": "address payable",
          "name": "organ",
          "type": "address"
        },
        {
          "components": [
            {
              "internalType": "address",
              "name": "addr",
              "type": "address"
            },
            {
              "internalType": "bytes32",
              "name": "ipfsHash",
              "type": "bytes32"
            },
            {
              "internalType": "uint8",
              "name": "hashFunction",
              "type": "uint8"
            },
            {
              "internalType": "uint8",
              "name": "hashSize",
              "type": "uint8"
            }
          ],
          "internalType": "struct OrganLibrary.Entry[]",
          "name": "entries",
          "type": "tuple[]"
        },
        {
          "internalType": "bool",
          "name": "lock",
          "type": "bool"
        }
      ],
      "name": "moveAddEntries",
      "outputs": [],
      "stateMutability": "nonpayable",
      "type": "function"
    },
    {
      "inputs": [
        {
          "internalType": "uint256",
          "name": "moveKey",
          "type": "uint256"
        },
        {
          "internalType": "address payable",
          "name": "organ",
          "type": "address"
        },
        {
          "internalType": "uint256",
          "name": "indexes",
          "type": "uint256"
        },
        {
          "internalType": "bool",
          "name": "lock",
          "type": "bool"
        }
      ],
      "name": "moveRemoveEntry",
      "outputs": [],
      "stateMutability": "nonpayable",
      "type": "function"
    },
    {
      "inputs": [
        {
          "internalType": "uint256",
          "name": "moveKey",
          "type": "uint256"
        },
        {
          "internalType": "address payable",
          "name": "organ",
          "type": "address"
        },
        {
          "internalType": "uint256",
          "name": "index",
          "type": "uint256"
        },
        {
          "internalType": "address payable",
          "name": "addr",
          "type": "address"
        },
        {
          "internalType": "bytes32",
          "name": "ipfsHash",
          "type": "bytes32"
        },
        {
          "internalType": "uint8",
          "name": "hashFunction",
          "type": "uint8"
        },
        {
          "internalType": "uint8",
          "name": "hashSize",
          "type": "uint8"
        },
        {
          "internalType": "bool",
          "name": "lock",
          "type": "bool"
        }
      ],
      "name": "moveReplaceEntry",
      "outputs": [],
      "stateMutability": "nonpayable",
      "type": "function"
    },
    {
      "inputs": [
        {
          "internalType": "uint256",
          "name": "moveKey",
          "type": "uint256"
        },
        {
          "internalType": "address payable",
          "name": "organ",
          "type": "address"
        },
        {
          "internalType": "address",
          "name": "procedure",
          "type": "address"
        },
        {
          "internalType": "bytes2",
          "name": "permissions",
          "type": "bytes2"
        },
        {
          "internalType": "bool",
          "name": "lock",
          "type": "bool"
        }
      ],
      "name": "moveAddProcedure",
      "outputs": [],
      "stateMutability": "nonpayable",
      "type": "function"
    },
    {
      "inputs": [
        {
          "internalType": "uint256",
          "name": "moveKey",
          "type": "uint256"
        },
        {
          "internalType": "address payable",
          "name": "organ",
          "type": "address"
        },
        {
          "internalType": "address",
          "name": "procedure",
          "type": "address"
        },
        {
          "internalType": "bool",
          "name": "lock",
          "type": "bool"
        }
      ],
      "name": "moveRemoveProcedure",
      "outputs": [],
      "stateMutability": "nonpayable",
      "type": "function"
    },
    {
      "inputs": [
        {
          "internalType": "uint256",
          "name": "moveKey",
          "type": "uint256"
        },
        {
          "internalType": "address payable",
          "name": "organ",
          "type": "address"
        },
        {
          "internalType": "address",
          "name": "oldProcedure",
          "type": "address"
        },
        {
          "internalType": "address",
          "name": "newProcedure",
          "type": "address"
        },
        {
          "internalType": "bytes2",
          "name": "permissions",
          "type": "bytes2"
        },
        {
          "internalType": "bool",
          "name": "lock",
          "type": "bool"
        }
      ],
      "name": "moveReplaceProcedure",
      "outputs": [],
      "stateMutability": "nonpayable",
      "type": "function"
    },
    {
      "inputs": [
        {
          "internalType": "uint256",
          "name": "moveKey",
          "type": "uint256"
        },
        {
          "internalType": "bytes",
          "name": "call",
          "type": "bytes"
        },
        {
          "internalType": "bool",
          "name": "lock",
          "type": "bool"
        }
      ],
      "name": "moveCall",
      "outputs": [],
      "stateMutability": "nonpayable",
      "type": "function"
    },
    {
      "inputs": [
        {
          "internalType": "uint256",
          "name": "moveKey",
          "type": "uint256"
        },
        {
          "internalType": "address payable",
          "name": "organ",
          "type": "address"
        },
        {
          "internalType": "address",
          "name": "operator",
          "type": "address"
        },
        {
          "internalType": "address",
          "name": "target",
          "type": "address"
        },
        {
          "internalType": "uint256",
          "name": "token_id",
          "type": "uint256"
        },
        {
          "internalType": "bool",
          "name": "lock",
          "type": "bool"
        }
      ],
      "name": "moveReceiveCollectible",
      "outputs": [],
      "stateMutability": "nonpayable",
      "type": "function"
    },
    {
      "inputs": [
        {
          "internalType": "uint256",
          "name": "moveKey",
          "type": "uint256"
        },
        {
          "internalType": "address payable",
          "name": "organ",
          "type": "address"
        },
        {
          "internalType": "address",
          "name": "operator",
          "type": "address"
        },
        {
          "internalType": "address",
          "name": "target",
          "type": "address"
        },
        {
          "internalType": "uint256",
          "name": "token_id",
          "type": "uint256"
        },
        {
          "internalType": "bool",
          "name": "lock",
          "type": "bool"
        }
      ],
      "name": "moveTransferCollectible",
      "outputs": [],
      "stateMutability": "nonpayable",
      "type": "function"
    },
    {
      "inputs": [
        {
          "internalType": "uint256",
          "name": "moveKey",
          "type": "uint256"
        },
        {
          "internalType": "address payable",
          "name": "organ",
          "type": "address"
        },
        {
          "internalType": "address",
          "name": "operator",
          "type": "address"
        },
        {
          "internalType": "address",
          "name": "target",
          "type": "address"
        },
        {
          "internalType": "uint256",
          "name": "value",
          "type": "uint256"
        },
        {
          "internalType": "bool",
          "name": "lock",
          "type": "bool"
        }
      ],
      "name": "moveReceiveCoins",
      "outputs": [],
      "stateMutability": "nonpayable",
      "type": "function"
    },
    {
      "inputs": [
        {
          "internalType": "uint256",
          "name": "moveKey",
          "type": "uint256"
        },
        {
          "internalType": "address payable",
          "name": "organ",
          "type": "address"
        },
        {
          "internalType": "address",
          "name": "operator",
          "type": "address"
        },
        {
          "internalType": "address",
          "name": "target",
          "type": "address"
        },
        {
          "internalType": "uint256",
          "name": "value",
          "type": "uint256"
        },
        {
          "internalType": "bool",
          "name": "lock",
          "type": "bool"
        }
      ],
      "name": "moveTransferCoins",
      "outputs": [],
      "stateMutability": "nonpayable",
      "type": "function"
    },
    {
      "inputs": [
        {
          "internalType": "uint256",
          "name": "moveKey",
          "type": "uint256"
        },
        {
          "internalType": "address payable",
          "name": "organ",
          "type": "address"
        },
        {
          "internalType": "address",
          "name": "target",
          "type": "address"
        },
        {
          "internalType": "uint256",
          "name": "value",
          "type": "uint256"
        },
        {
          "internalType": "bool",
          "name": "lock",
          "type": "bool"
        }
      ],
      "name": "moveReceiveEther",
      "outputs": [],
      "stateMutability": "nonpayable",
      "type": "function"
    },
    {
      "inputs": [
        {
          "internalType": "uint256",
          "name": "moveKey",
          "type": "uint256"
        },
        {
          "internalType": "address payable",
          "name": "organ",
          "type": "address"
        },
        {
          "internalType": "address",
          "name": "target",
          "type": "address"
        },
        {
          "internalType": "uint256",
          "name": "value",
          "type": "uint256"
        },
        {
          "internalType": "bool",
          "name": "lock",
          "type": "bool"
        }
      ],
      "name": "moveTransferEther",
      "outputs": [],
      "stateMutability": "nonpayable",
      "type": "function"
    },
    {
      "inputs": [
        {
          "internalType": "uint256",
          "name": "moveKey",
          "type": "uint256"
        }
      ],
      "name": "lockMove",
      "outputs": [],
      "stateMutability": "nonpayable",
      "type": "function"
    },
    {
      "inputs": [],
      "name": "getMovesLength",
      "outputs": [
        {
          "internalType": "uint256",
          "name": "length",
          "type": "uint256"
        }
      ],
      "stateMutability": "view",
      "type": "function"
    },
    {
      "inputs": [
        {
          "internalType": "uint256",
          "name": "moveKey",
          "type": "uint256"
        }
      ],
      "name": "getMove",
      "outputs": [
        {
          "components": [
            {
              "internalType": "address payable",
              "name": "creator",
              "type": "address"
            },
            {
              "components": [
                {
                  "internalType": "bytes32",
                  "name": "ipfsHash",
                  "type": "bytes32"
                },
                {
                  "internalType": "uint8",
                  "name": "hashFunction",
                  "type": "uint8"
                },
                {
                  "internalType": "uint8",
                  "name": "hashSize",
                  "type": "uint8"
                }
              ],
              "internalType": "struct ProcedureLibrary.Metadata",
              "name": "metadata",
              "type": "tuple"
            },
            {
              "internalType": "bool",
              "name": "locked",
              "type": "bool"
            },
            {
              "internalType": "bool",
              "name": "applied",
              "type": "bool"
            },
            {
              "internalType": "bool",
              "name": "processing",
              "type": "bool"
            },
            {
              "components": [
                {
                  "internalType": "uint256",
                  "name": "index",
                  "type": "uint256"
                },
                {
                  "internalType": "uint8",
                  "name": "operationType",
                  "type": "uint8"
                },
                {
                  "internalType": "bytes",
                  "name": "call",
                  "type": "bytes"
                },
                {
                  "internalType": "bool",
                  "name": "processed",
                  "type": "bool"
                }
              ],
              "internalType": "struct ProcedureLibrary.Operation[]",
              "name": "operations",
              "type": "tuple[]"
            }
          ],
          "internalType": "struct ProcedureLibrary.Move",
          "name": "move",
          "type": "tuple"
        }
      ],
      "stateMutability": "view",
      "type": "function"
    },
    {
      "inputs": [],
      "name": "getMetadata",
      "outputs": [
        {
          "internalType": "bytes32",
          "name": "ipfsHash",
          "type": "bytes32"
        },
        {
          "internalType": "uint8",
          "name": "hashFunction",
          "type": "uint8"
        },
        {
          "internalType": "uint8",
          "name": "hashSize",
          "type": "uint8"
        }
      ],
      "stateMutability": "view",
      "type": "function"
    }
  ],
  "bytecode": "0x608060405260036000806101000a81548160ff021916908360ff1602179055503480156200002c57600080fd5b5060405162004e8b38038062004e8b833981810160405281019062000052919062000137565b6000600181600060016101000a81548160ff02191690831515021790555080600060026101000a81548160ff0219169083151502179055505050600173__ProcedureLibrary______________________63359a395d90918585856040518563ffffffff1660e01b8152600401620000ce9493929190620001b6565b60006040518083038186803b158015620000e757600080fd5b505af4158015620000fc573d6000803e3d6000fd5b505050505050506200024e565b6000815190506200011a816200021a565b92915050565b600081519050620001318162000234565b92915050565b6000806000606084860312156200014d57600080fd5b60006200015d8682870162000109565b9350506020620001708682870162000120565b9250506040620001838682870162000120565b9150509250925092565b620001988162000203565b82525050565b8082525050565b620001b0816200020d565b82525050565b6000608082019050620001cd60008301876200019e565b620001dc60208301866200018d565b620001eb6040830185620001a5565b620001fa6060830184620001a5565b95945050505050565b6000819050919050565b600060ff82169050919050565b620002258162000203565b81146200023157600080fd5b50565b6200023f816200020d565b81146200024b57600080fd5b50565b614c2d806200025e6000396000f3fe608060405234801561001057600080fd5b50600436106101585760003560e01c8063759913d6116100c3578063c492f4631161007c578063c492f4631461038b578063c91ebea8146103a7578063cb6bc9ff146103c5578063cc125031146103e1578063e2f273bd146103fd578063fa160aa21461041957610158565b8063759913d6146102c75780637a5b4f59146102e55780637c3a5fcc146103055780637ee7fa401461032157806390f2ee221461033d578063a2b58cda1461035b57610158565b806352c041b21161011557806352c041b21461020b5780635a31b560146102275780635ba357dc146102435780636322ab201461025f57806367c322d01461027b57806371dbd3301461029757610158565b80630b5522a91461015d578063148a200514610179578063249abcf7146101955780632c1d5337146101b557806339c2ae70146101d15780633e9a9bd8146101ed575b600080fd5b61017760048036038101906101729190613f09565b610435565b005b610193600480360381019061018e9190613e1d565b610458565b005b61019d61047e565b6040516101ac939291906147d7565b60405180910390f35b6101cf60048036038101906101ca9190613d94565b6104bb565b005b6101eb60048036038101906101e69190613ccd565b6104e1565b005b6101f5610556565b6040516102029190614910565b60405180910390f35b61022560048036038101906102209190614072565b610563565b005b610241600480360381019061023c9190613e1d565b61058f565b005b61025d60048036038101906102589190613d6b565b6105b5565b005b61027960048036038101906102749190614124565b6105cc565b005b61029560048036038101906102909190613ea6565b6105ec565b005b6102b160048036038101906102ac9190613d6b565b61060c565b6040516102be9190614865565b60405180910390f35b6102cf61087e565b6040516102dc919061492b565b60405180910390f35b6102ed61088f565b6040516102fc9392919061480e565b60405180910390f35b61031f600480360381019061031a9190613e1d565b610929565b005b61033b60048036038101906103369190613f80565b61094f565b005b610345610972565b60405161035291906147bc565b60405180910390f35b61037560048036038101906103709190613ccd565b610985565b6040516103829190614910565b60405180910390f35b6103a560048036038101906103a09190613ff7565b6109a8565b005b6103af6109c8565b6040516103bc91906147bc565b60405180910390f35b6103df60048036038101906103da9190613e1d565b6109db565b005b6103fb60048036038101906103f69190613f80565b610a01565b005b61041760048036038101906104129190613ca4565b610a24565b005b610433600480360381019061042e9190614187565b610a93565b005b61045185858585856001610ab09095949392919063ffffffff16565b5050505050565b6104768686868686866001610e1b909695949392919063ffffffff16565b505050505050565b60008060008060019054906101000a900460ff16600060029054906101000a900460ff1660008054906101000a900460ff16925092509250909192565b6104d98686868686866001611189909695949392919063ffffffff16565b505050505050565b600173__ProcedureLibrary______________________63b8cc9a0290918585856040518563ffffffff1660e01b815260040161052194939291906148cb565b60006040518083038186803b15801561053957600080fd5b505af415801561054d573d6000803e3d6000fd5b50505050505050565b6000600160040154905090565b610585888888888888888860016114f79098979695949392919063ffffffff16565b5050505050505050565b6105ad8686868686866001611835909695949392919063ffffffff16565b505050505050565b6105c9816001611ba390919063ffffffff16565b50565b6105e6848484846001611d8390949392919063ffffffff16565b50505050565b6106068484848460016120eb90949392919063ffffffff16565b50505050565b61061461397d565b600160030160008381526020019081526020016000206040518060c00160405290816000820160009054906101000a900473ffffffffffffffffffffffffffffffffffffffff1673ffffffffffffffffffffffffffffffffffffffff1673ffffffffffffffffffffffffffffffffffffffff16815260200160018201604051806060016040529081600082015481526020016001820160009054906101000a900460ff1660ff1660ff1681526020016001820160019054906101000a900460ff1660ff1660ff168152505081526020016003820160009054906101000a900460ff161515151581526020016003820160019054906101000a900460ff161515151581526020016003820160029054906101000a900460ff1615151515815260200160048201805480602002602001604051908101604052809291908181526020016000905b8282101561086f5783829060005260206000209060040201604051806080016040529081600082015481526020016001820160009054906101000a900460ff1660ff1660ff168152602001600282018054600181600116156101000203166002900480601f01602080910402602001604051908101604052809291908181526020018280546001816001161561010002031660029004801561083c5780601f106108115761010080835404028352916020019161083c565b820191906000526020600020905b81548152906001019060200180831161081f57829003601f168201915b505050505081526020016003820160009054906101000a900460ff16151515158152505081526020019060010190610759565b50505050815250509050919050565b60008054906101000a900460ff1681565b6000806000600173__ProcedureLibrary______________________6383fecb1a90916040518263ffffffff1660e01b81526004016108ce9190614887565b60606040518083038186803b1580156108e657600080fd5b505af41580156108fa573d6000803e3d6000fd5b505050506040513d601f19601f8201168201806040525081019061091e9190613d1c565b925092509250909192565b6109478686868686866001612453909695949392919063ffffffff16565b505050505050565b61096b858585858560016127bf9095949392919063ffffffff16565b5050505050565b600060019054906101000a900460ff1681565b600061099f8484846001612b2a909392919063ffffffff16565b90509392505050565b6109c2848484846001612c2d90949392919063ffffffff16565b50505050565b600060029054906101000a900460ff1681565b6109f98686868686866001612f95909695949392919063ffffffff16565b505050505050565b610a1d858585858560016133039095949392919063ffffffff16565b5050505050565b600173__ProcedureLibrary______________________638e956e929091836040518363ffffffff1660e01b8152600401610a609291906148a2565b60006040518083038186803b158015610a7857600080fd5b505af4158015610a8c573d6000803e3d6000fd5b5050505050565b610aab838383600161366e909392919063ffffffff16565b505050565b85853373ffffffffffffffffffffffffffffffffffffffff1682600301600083815260200190815260200160002060000160009054906101000a900473ffffffffffffffffffffffffffffffffffffffff1673ffffffffffffffffffffffffffffffffffffffff1614610b58576040517f08c379a0000000000000000000000000000000000000000000000000000000008152600401610b4f90614845565b60405180910390fd5b878781600301600082815260200190815260200160002060030160009054906101000a900460ff16158015610bb0575081600301600082815260200190815260200160002060030160019054906101000a900460ff16155b8015610bdf575081600301600082815260200190815260200160002060030160029054906101000a900460ff16155b610c1e576040517f08c379a0000000000000000000000000000000000000000000000000000000008152600401610c1590614845565b60405180910390fd5b8960030160008a815260200190815260200160002060040160405180608001604052808c60030160008d8152602001908152602001600020600401805490508152602001600460ff1681526020016390b137e98b8b8b604051602401610c8693929190614694565b6040516020818303038152906040529060e01b6020820180517bffffffffffffffffffffffffffffffffffffffffffffffffffffffff838183161783525050505081526020016000151581525090806001815401808255809150506001900390600052602060002090600402016000909190919091506000820151816000015560208201518160010160006101000a81548160ff021916908360ff1602179055506040820151816002019080519060200190610d439291906139d5565b5060608201518160030160006101000a81548160ff02191690831515021790555050508415610e0f5760018a60030160008b815260200190815260200160002060030160006101000a81548160ff0219169083151502179055507f7306ab933b6e1df1bd2fddce7143eeedd65d5996fada0e9168c4e8c3d1ece94d8a60030160008b815260200190815260200160002060000160009054906101000a900473ffffffffffffffffffffffffffffffffffffffff168a604051610e06929190614732565b60405180910390a15b50505050505050505050565b86863373ffffffffffffffffffffffffffffffffffffffff1682600301600083815260200190815260200160002060000160009054906101000a900473ffffffffffffffffffffffffffffffffffffffff1673ffffffffffffffffffffffffffffffffffffffff1614610ec3576040517f08c379a0000000000000000000000000000000000000000000000000000000008152600401610eba90614845565b60405180910390fd5b888881600301600082815260200190815260200160002060030160009054906101000a900460ff16158015610f1b575081600301600082815260200190815260200160002060030160019054906101000a900460ff16155b8015610f4a575081600301600082815260200190815260200160002060030160029054906101000a900460ff16155b610f89576040517f08c379a0000000000000000000000000000000000000000000000000000000008152600401610f8090614845565b60405180910390fd5b8a60030160008b815260200190815260200160002060040160405180608001604052808d60030160008e8152602001908152602001600020600401805490508152602001600760ff16815260200163c10753298c8c8c8c604051602401610ff3949392919061464f565b6040516020818303038152906040529060e01b6020820180517bffffffffffffffffffffffffffffffffffffffffffffffffffffffff838183161783525050505081526020016000151581525090806001815401808255809150506001900390600052602060002090600402016000909190919091506000820151816000015560208201518160010160006101000a81548160ff021916908360ff16021790555060408201518160020190805190602001906110b09291906139d5565b5060608201518160030160006101000a81548160ff0219169083151502179055505050841561117c5760018b60030160008c815260200190815260200160002060030160006101000a81548160ff0219169083151502179055507f7306ab933b6e1df1bd2fddce7143eeedd65d5996fada0e9168c4e8c3d1ece94d8b60030160008c815260200190815260200160002060000160009054906101000a900473ffffffffffffffffffffffffffffffffffffffff168b604051611173929190614732565b60405180910390a15b5050505050505050505050565b86863373ffffffffffffffffffffffffffffffffffffffff1682600301600083815260200190815260200160002060000160009054906101000a900473ffffffffffffffffffffffffffffffffffffffff1673ffffffffffffffffffffffffffffffffffffffff1614611231576040517f08c379a000000000000000000000000000000000000000000000000000000000815260040161122890614845565b60405180910390fd5b888881600301600082815260200190815260200160002060030160009054906101000a900460ff16158015611289575081600301600082815260200190815260200160002060030160019054906101000a900460ff16155b80156112b8575081600301600082815260200190815260200160002060030160029054906101000a900460ff16155b6112f7576040517f08c379a00000000000000000000000000000000000000000000000000000000081526004016112ee90614845565b60405180910390fd5b8a60030160008b815260200190815260200160002060040160405180608001604052808d60030160008e8152602001908152602001600020600401805490508152602001600660ff168152602001635676c77d8c8c8c8c604051602401611361949392919061460a565b6040516020818303038152906040529060e01b6020820180517bffffffffffffffffffffffffffffffffffffffffffffffffffffffff838183161783525050505081526020016000151581525090806001815401808255809150506001900390600052602060002090600402016000909190919091506000820151816000015560208201518160010160006101000a81548160ff021916908360ff160217905550604082015181600201908051906020019061141e9291906139d5565b5060608201518160030160006101000a81548160ff021916908315150217905550505084156114ea5760018b60030160008c815260200190815260200160002060030160006101000a81548160ff0219169083151502179055507f7306ab933b6e1df1bd2fddce7143eeedd65d5996fada0e9168c4e8c3d1ece94d8b60030160008c815260200190815260200160002060000160009054906101000a900473ffffffffffffffffffffffffffffffffffffffff168b6040516114e1929190614732565b60405180910390a15b5050505050505050505050565b88883373ffffffffffffffffffffffffffffffffffffffff1682600301600083815260200190815260200160002060000160009054906101000a900473ffffffffffffffffffffffffffffffffffffffff1673ffffffffffffffffffffffffffffffffffffffff161461159f576040517f08c379a000000000000000000000000000000000000000000000000000000000815260040161159690614845565b60405180910390fd5b8a8a81600301600082815260200190815260200160002060030160009054906101000a900460ff161580156115f7575081600301600082815260200190815260200160002060030160019054906101000a900460ff16155b8015611626575081600301600082815260200190815260200160002060030160029054906101000a900460ff16155b611665576040517f08c379a000000000000000000000000000000000000000000000000000000000815260040161165c90614845565b60405180910390fd5b60008d60030160008e8152602001908152602001600020905080600401604051806080016040528083600401805490508152602001600360ff16815260200163155a73ce8f8f8f8f8f8f6040516024016116c49695949392919061475b565b6040516020818303038152906040529060e01b6020820180517bffffffffffffffffffffffffffffffffffffffffffffffffffffffff838183161783525050505081526020016000151581525090806001815401808255809150506001900390600052602060002090600402016000909190919091506000820151816000015560208201518160010160006101000a81548160ff021916908360ff16021790555060408201518160020190805190602001906117819291906139d5565b5060608201518160030160006101000a81548160ff021916908315150217905550505085156118255760018160030160006101000a81548160ff0219169083151502179055507f7306ab933b6e1df1bd2fddce7143eeedd65d5996fada0e9168c4e8c3d1ece94d8160000160009054906101000a900473ffffffffffffffffffffffffffffffffffffffff168e60405161181c929190614732565b60405180910390a15b5050505050505050505050505050565b86863373ffffffffffffffffffffffffffffffffffffffff1682600301600083815260200190815260200160002060000160009054906101000a900473ffffffffffffffffffffffffffffffffffffffff1673ffffffffffffffffffffffffffffffffffffffff16146118dd576040517f08c379a00000000000000000000000000000000000000000000000000000000081526004016118d490614845565b60405180910390fd5b888881600301600082815260200190815260200160002060030160009054906101000a900460ff16158015611935575081600301600082815260200190815260200160002060030160019054906101000a900460ff16155b8015611964575081600301600082815260200190815260200160002060030160029054906101000a900460ff16155b6119a3576040517f08c379a000000000000000000000000000000000000000000000000000000000815260040161199a90614845565b60405180910390fd5b8a60030160008b815260200190815260200160002060040160405180608001604052808d60030160008e8152602001908152602001600020600401805490508152602001600860ff168152602001635e35359e8c8c8c8c604051602401611a0d949392919061464f565b6040516020818303038152906040529060e01b6020820180517bffffffffffffffffffffffffffffffffffffffffffffffffffffffff838183161783525050505081526020016000151581525090806001815401808255809150506001900390600052602060002090600402016000909190919091506000820151816000015560208201518160010160006101000a81548160ff021916908360ff1602179055506040820151816002019080519060200190611aca9291906139d5565b5060608201518160030160006101000a81548160ff02191690831515021790555050508415611b965760018b60030160008c815260200190815260200160002060030160006101000a81548160ff0219169083151502179055507f7306ab933b6e1df1bd2fddce7143eeedd65d5996fada0e9168c4e8c3d1ece94d8b60030160008c815260200190815260200160002060000160009054906101000a900473ffffffffffffffffffffffffffffffffffffffff168b604051611b8d929190614732565b60405180910390a15b5050505050505050505050565b81813373ffffffffffffffffffffffffffffffffffffffff1682600301600083815260200190815260200160002060000160009054906101000a900473ffffffffffffffffffffffffffffffffffffffff1673ffffffffffffffffffffffffffffffffffffffff1614611c4b576040517f08c379a0000000000000000000000000000000000000000000000000000000008152600401611c4290614845565b60405180910390fd5b838381600301600082815260200190815260200160002060030160009054906101000a900460ff16158015611ca3575081600301600082815260200190815260200160002060030160019054906101000a900460ff16155b8015611cd2575081600301600082815260200190815260200160002060030160029054906101000a900460ff16155b611d11576040517f08c379a0000000000000000000000000000000000000000000000000000000008152600401611d0890614845565b60405180910390fd5b600186600301600087815260200190815260200160002060030160006101000a81548160ff0219169083151502179055507f7306ab933b6e1df1bd2fddce7143eeedd65d5996fada0e9168c4e8c3d1ece94d3386604051611d73929190614732565b60405180910390a1505050505050565b84843373ffffffffffffffffffffffffffffffffffffffff1682600301600083815260200190815260200160002060000160009054906101000a900473ffffffffffffffffffffffffffffffffffffffff1673ffffffffffffffffffffffffffffffffffffffff1614611e2b576040517f08c379a0000000000000000000000000000000000000000000000000000000008152600401611e2290614845565b60405180910390fd5b868681600301600082815260200190815260200160002060030160009054906101000a900460ff16158015611e83575081600301600082815260200190815260200160002060030160019054906101000a900460ff16155b8015611eb2575081600301600082815260200190815260200160002060030160029054906101000a900460ff16155b611ef1576040517f08c379a0000000000000000000000000000000000000000000000000000000008152600401611ee890614845565b60405180910390fd5b88600301600089815260200190815260200160002060040160405180608001604052808b60030160008c8152602001908152602001600020600401805490508152602001600260ff1681526020016376a6411c8a8a604051602401611f57929190614732565b6040516020818303038152906040529060e01b6020820180517bffffffffffffffffffffffffffffffffffffffffffffffffffffffff838183161783525050505081526020016000151581525090806001815401808255809150506001900390600052602060002090600402016000909190919091506000820151816000015560208201518160010160006101000a81548160ff021916908360ff16021790555060408201518160020190805190602001906120149291906139d5565b5060608201518160030160006101000a81548160ff021916908315150217905550505084156120e05760018960030160008a815260200190815260200160002060030160006101000a81548160ff0219169083151502179055507f7306ab933b6e1df1bd2fddce7143eeedd65d5996fada0e9168c4e8c3d1ece94d8960030160008a815260200190815260200160002060000160009054906101000a900473ffffffffffffffffffffffffffffffffffffffff16896040516120d7929190614732565b60405180910390a15b505050505050505050565b84843373ffffffffffffffffffffffffffffffffffffffff1682600301600083815260200190815260200160002060000160009054906101000a900473ffffffffffffffffffffffffffffffffffffffff1673ffffffffffffffffffffffffffffffffffffffff1614612193576040517f08c379a000000000000000000000000000000000000000000000000000000000815260040161218a90614845565b60405180910390fd5b868681600301600082815260200190815260200160002060030160009054906101000a900460ff161580156121eb575081600301600082815260200190815260200160002060030160019054906101000a900460ff16155b801561221a575081600301600082815260200190815260200160002060030160029054906101000a900460ff16155b612259576040517f08c379a000000000000000000000000000000000000000000000000000000000815260040161225090614845565b60405180910390fd5b88600301600089815260200190815260200160002060040160405180608001604052808b60030160008c8152602001908152602001600020600401805490508152602001600560ff1681526020016319b9404c8a8a6040516024016122bf9291906145e1565b6040516020818303038152906040529060e01b6020820180517bffffffffffffffffffffffffffffffffffffffffffffffffffffffff838183161783525050505081526020016000151581525090806001815401808255809150506001900390600052602060002090600402016000909190919091506000820151816000015560208201518160010160006101000a81548160ff021916908360ff160217905550604082015181600201908051906020019061237c9291906139d5565b5060608201518160030160006101000a81548160ff021916908315150217905550505084156124485760018960030160008a815260200190815260200160002060030160006101000a81548160ff0219169083151502179055507f7306ab933b6e1df1bd2fddce7143eeedd65d5996fada0e9168c4e8c3d1ece94d8960030160008a815260200190815260200160002060000160009054906101000a900473ffffffffffffffffffffffffffffffffffffffff168960405161243f929190614732565b60405180910390a15b505050505050505050565b86863373ffffffffffffffffffffffffffffffffffffffff1682600301600083815260200190815260200160002060000160009054906101000a900473ffffffffffffffffffffffffffffffffffffffff1673ffffffffffffffffffffffffffffffffffffffff16146124fb576040517f08c379a00000000000000000000000000000000000000000000000000000000081526004016124f290614845565b60405180910390fd5b888881600301600082815260200190815260200160002060030160009054906101000a900460ff16158015612553575081600301600082815260200190815260200160002060030160019054906101000a900460ff16155b8015612582575081600301600082815260200190815260200160002060030160029054906101000a900460ff16155b6125c1576040517f08c379a00000000000000000000000000000000000000000000000000000000081526004016125b890614845565b60405180910390fd5b8a60030160008b815260200190815260200160002060040160405180608001604052808d60030160008e8152602001908152602001600020600401805490508152602001600760ff16815260200163c10753298c8c8b604051602401612629939291906146cb565b6040516020818303038152906040529060e01b6020820180517bffffffffffffffffffffffffffffffffffffffffffffffffffffffff838183161783525050505081526020016000151581525090806001815401808255809150506001900390600052602060002090600402016000909190919091506000820151816000015560208201518160010160006101000a81548160ff021916908360ff16021790555060408201518160020190805190602001906126e69291906139d5565b5060608201518160030160006101000a81548160ff021916908315150217905550505084156127b25760018b60030160008c815260200190815260200160002060030160006101000a81548160ff0219169083151502179055507f7306ab933b6e1df1bd2fddce7143eeedd65d5996fada0e9168c4e8c3d1ece94d8b60030160008c815260200190815260200160002060000160009054906101000a900473ffffffffffffffffffffffffffffffffffffffff168b6040516127a9929190614732565b60405180910390a15b5050505050505050505050565b85853373ffffffffffffffffffffffffffffffffffffffff1682600301600083815260200190815260200160002060000160009054906101000a900473ffffffffffffffffffffffffffffffffffffffff1673ffffffffffffffffffffffffffffffffffffffff1614612867576040517f08c379a000000000000000000000000000000000000000000000000000000000815260040161285e90614845565b60405180910390fd5b878781600301600082815260200190815260200160002060030160009054906101000a900460ff161580156128bf575081600301600082815260200190815260200160002060030160019054906101000a900460ff16155b80156128ee575081600301600082815260200190815260200160002060030160029054906101000a900460ff16155b61292d576040517f08c379a000000000000000000000000000000000000000000000000000000000815260040161292490614845565b60405180910390fd5b8960030160008a815260200190815260200160002060040160405180608001604052808c60030160008d8152602001908152602001600020600401805490508152602001600760ff16815260200163c10753298b8b8b604051602401612995939291906146cb565b6040516020818303038152906040529060e01b6020820180517bffffffffffffffffffffffffffffffffffffffffffffffffffffffff838183161783525050505081526020016000151581525090806001815401808255809150506001900390600052602060002090600402016000909190919091506000820151816000015560208201518160010160006101000a81548160ff021916908360ff1602179055506040820151816002019080519060200190612a529291906139d5565b5060608201518160030160006101000a81548160ff02191690831515021790555050508415612b1e5760018a60030160008b815260200190815260200160002060030160006101000a81548160ff0219169083151502179055507f7306ab933b6e1df1bd2fddce7143eeedd65d5996fada0e9168c4e8c3d1ece94d8a60030160008b815260200190815260200160002060000160009054906101000a900473ffffffffffffffffffffffffffffffffffffffff168a604051612b15929190614732565b60405180910390a15b50505050505050505050565b6000808560040160008154809291906001019190505590503386600301600083815260200190815260200160002060000160006101000a81548173ffffffffffffffffffffffffffffffffffffffff021916908373ffffffffffffffffffffffffffffffffffffffff16021790555060405180606001604052808681526020018560ff1681526020018460ff168152508660030160008381526020019081526020016000206001016000820151816000015560208201518160010160006101000a81548160ff021916908360ff16021790555060408201518160010160016101000a81548160ff021916908360ff16021790555090505080915050949350505050565b84843373ffffffffffffffffffffffffffffffffffffffff1682600301600083815260200190815260200160002060000160009054906101000a900473ffffffffffffffffffffffffffffffffffffffff1673ffffffffffffffffffffffffffffffffffffffff1614612cd5576040517f08c379a0000000000000000000000000000000000000000000000000000000008152600401612ccc90614845565b60405180910390fd5b868681600301600082815260200190815260200160002060030160009054906101000a900460ff16158015612d2d575081600301600082815260200190815260200160002060030160019054906101000a900460ff16155b8015612d5c575081600301600082815260200190815260200160002060030160029054906101000a900460ff16155b612d9b576040517f08c379a0000000000000000000000000000000000000000000000000000000008152600401612d9290614845565b60405180910390fd5b88600301600089815260200190815260200160002060040160405180608001604052808b60030160008c8152602001908152602001600020600401805490508152602001600160ff168152602001631715f4de8a8a604051602401612e01929190614702565b6040516020818303038152906040529060e01b6020820180517bffffffffffffffffffffffffffffffffffffffffffffffffffffffff838183161783525050505081526020016000151581525090806001815401808255809150506001900390600052602060002090600402016000909190919091506000820151816000015560208201518160010160006101000a81548160ff021916908360ff1602179055506040820151816002019080519060200190612ebe9291906139d5565b5060608201518160030160006101000a81548160ff02191690831515021790555050508415612f8a5760018960030160008a815260200190815260200160002060030160006101000a81548160ff0219169083151502179055507f7306ab933b6e1df1bd2fddce7143eeedd65d5996fada0e9168c4e8c3d1ece94d8960030160008a815260200190815260200160002060000160009054906101000a900473ffffffffffffffffffffffffffffffffffffffff1689604051612f81929190614732565b60405180910390a15b505050505050505050565b86863373ffffffffffffffffffffffffffffffffffffffff1682600301600083815260200190815260200160002060000160009054906101000a900473ffffffffffffffffffffffffffffffffffffffff1673ffffffffffffffffffffffffffffffffffffffff161461303d576040517f08c379a000000000000000000000000000000000000000000000000000000000815260040161303490614845565b60405180910390fd5b888881600301600082815260200190815260200160002060030160009054906101000a900460ff16158015613095575081600301600082815260200190815260200160002060030160019054906101000a900460ff16155b80156130c4575081600301600082815260200190815260200160002060030160029054906101000a900460ff16155b613103576040517f08c379a00000000000000000000000000000000000000000000000000000000081526004016130fa90614845565b60405180910390fd5b8a60030160008b815260200190815260200160002060040160405180608001604052808d60030160008e8152602001908152602001600020600401805490508152602001600860ff168152602001635e35359e8c8c8c8c60405160240161316d949392919061464f565b6040516020818303038152906040529060e01b6020820180517bffffffffffffffffffffffffffffffffffffffffffffffffffffffff838183161783525050505081526020016000151581525090806001815401808255809150506001900390600052602060002090600402016000909190919091506000820151816000015560208201518160010160006101000a81548160ff021916908360ff160217905550604082015181600201908051906020019061322a9291906139d5565b5060608201518160030160006101000a81548160ff021916908315150217905550505084156132f65760018b60030160008c815260200190815260200160002060030160006101000a81548160ff0219169083151502179055507f7306ab933b6e1df1bd2fddce7143eeedd65d5996fada0e9168c4e8c3d1ece94d8b60030160008c815260200190815260200160002060000160009054906101000a900473ffffffffffffffffffffffffffffffffffffffff168b6040516132ed929190614732565b60405180910390a15b5050505050505050505050565b85853373ffffffffffffffffffffffffffffffffffffffff1682600301600083815260200190815260200160002060000160009054906101000a900473ffffffffffffffffffffffffffffffffffffffff1673ffffffffffffffffffffffffffffffffffffffff16146133ab576040517f08c379a00000000000000000000000000000000000000000000000000000000081526004016133a290614845565b60405180910390fd5b878781600301600082815260200190815260200160002060030160009054906101000a900460ff16158015613403575081600301600082815260200190815260200160002060030160019054906101000a900460ff16155b8015613432575081600301600082815260200190815260200160002060030160029054906101000a900460ff16155b613471576040517f08c379a000000000000000000000000000000000000000000000000000000000815260040161346890614845565b60405180910390fd5b8960030160008a815260200190815260200160002060040160405180608001604052808c60030160008d8152602001908152602001600020600401805490508152602001600860ff168152602001635e35359e8b8b8b6040516024016134d9939291906146cb565b6040516020818303038152906040529060e01b6020820180517bffffffffffffffffffffffffffffffffffffffffffffffffffffffff838183161783525050505081526020016000151581525090806001815401808255809150506001900390600052602060002090600402016000909190919091506000820151816000015560208201518160010160006101000a81548160ff021916908360ff16021790555060408201518160020190805190602001906135969291906139d5565b5060608201518160030160006101000a81548160ff021916908315150217905550505084156136625760018a60030160008b815260200190815260200160002060030160006101000a81548160ff0219169083151502179055507f7306ab933b6e1df1bd2fddce7143eeedd65d5996fada0e9168c4e8c3d1ece94d8a60030160008b815260200190815260200160002060000160009054906101000a900473ffffffffffffffffffffffffffffffffffffffff168a604051613659929190614732565b60405180910390a15b50505050505050505050565b83833373ffffffffffffffffffffffffffffffffffffffff1682600301600083815260200190815260200160002060000160009054906101000a900473ffffffffffffffffffffffffffffffffffffffff1673ffffffffffffffffffffffffffffffffffffffff1614613716576040517f08c379a000000000000000000000000000000000000000000000000000000000815260040161370d90614845565b60405180910390fd5b858581600301600082815260200190815260200160002060030160009054906101000a900460ff1615801561376e575081600301600082815260200190815260200160002060030160019054906101000a900460ff16155b801561379d575081600301600082815260200190815260200160002060030160029054906101000a900460ff16155b6137dc576040517f08c379a00000000000000000000000000000000000000000000000000000000081526004016137d390614845565b60405180910390fd5b87600301600088815260200190815260200160002060040160405180608001604052808a60030160008b8152602001908152602001600020600401805490508152602001600060ff1681526020018881526020016000151581525090806001815401808255809150506001900390600052602060002090600402016000909190919091506000820151816000015560208201518160010160006101000a81548160ff021916908360ff16021790555060408201518160020190805190602001906138a79291906139d5565b5060608201518160030160006101000a81548160ff0219169083151502179055505050841561397357600188600301600089815260200190815260200160002060030160006101000a81548160ff0219169083151502179055507f7306ab933b6e1df1bd2fddce7143eeedd65d5996fada0e9168c4e8c3d1ece94d88600301600089815260200190815260200160002060000160009054906101000a900473ffffffffffffffffffffffffffffffffffffffff168860405161396a929190614732565b60405180910390a15b5050505050505050565b6040518060c00160405280600073ffffffffffffffffffffffffffffffffffffffff1681526020016139ad613a55565b8152602001600015158152602001600015158152602001600015158152602001606081525090565b828054600181600116156101000203166002900490600052602060002090601f016020900481019282601f10613a1657805160ff1916838001178555613a44565b82800160010185558215613a44579182015b82811115613a43578251825591602001919060010190613a28565b5b509050613a519190613a7f565b5090565b604051806060016040528060008019168152602001600060ff168152602001600060ff1681525090565b5b80821115613a98576000816000905550600101613a80565b5090565b600081359050613aab81614b56565b92915050565b600081359050613ac081614b6d565b92915050565b600082601f830112613ad757600080fd5b8135613aea613ae582614973565b614946565b91508181835260208401935060208101905083856080840282011115613b0f57600080fd5b60005b83811015613b3f5781613b258882613bf1565b845260208401935060808301925050600181019050613b12565b5050505092915050565b600081359050613b5881614b84565b92915050565b600081359050613b6d81614b9b565b92915050565b600081359050613b8281614bb2565b92915050565b600081519050613b9781614bb2565b92915050565b600082601f830112613bae57600080fd5b8135613bc1613bbc8261499b565b614946565b91508082526020830160208301858383011115613bdd57600080fd5b613be8838284614b03565b50505092915050565b600060808284031215613c0357600080fd5b613c0d6080614946565b90506000613c1d84828501613a9c565b6000830152506020613c3184828501613b73565b6020830152506040613c4584828501613c7a565b6040830152506060613c5984828501613c7a565b60608301525092915050565b600081359050613c7481614bc9565b92915050565b600081359050613c8981614be0565b92915050565b600081519050613c9e81614be0565b92915050565b600060208284031215613cb657600080fd5b6000613cc484828501613ab1565b91505092915050565b600080600060608486031215613ce257600080fd5b6000613cf086828701613b73565b9350506020613d0186828701613c7a565b9250506040613d1286828701613c7a565b9150509250925092565b600080600060608486031215613d3157600080fd5b6000613d3f86828701613b88565b9350506020613d5086828701613c8f565b9250506040613d6186828701613c8f565b9150509250925092565b600060208284031215613d7d57600080fd5b6000613d8b84828501613c65565b91505092915050565b60008060008060008060c08789031215613dad57600080fd5b6000613dbb89828a01613c65565b9650506020613dcc89828a01613ab1565b9550506040613ddd89828a01613a9c565b9450506060613dee89828a01613a9c565b9350506080613dff89828a01613b5e565b92505060a0613e1089828a01613b49565b9150509295509295509295565b60008060008060008060c08789031215613e3657600080fd5b6000613e4489828a01613c65565b9650506020613e5589828a01613ab1565b9550506040613e6689828a01613a9c565b9450506060613e7789828a01613a9c565b9350506080613e8889828a01613c65565b92505060a0613e9989828a01613b49565b9150509295509295509295565b60008060008060808587031215613ebc57600080fd5b6000613eca87828801613c65565b9450506020613edb87828801613ab1565b9350506040613eec87828801613a9c565b9250506060613efd87828801613b49565b91505092959194509250565b600080600080600060a08688031215613f2157600080fd5b6000613f2f88828901613c65565b9550506020613f4088828901613ab1565b9450506040613f5188828901613a9c565b9350506060613f6288828901613b5e565b9250506080613f7388828901613b49565b9150509295509295909350565b600080600080600060a08688031215613f9857600080fd5b6000613fa688828901613c65565b9550506020613fb788828901613ab1565b9450506040613fc888828901613a9c565b9350506060613fd988828901613c65565b9250506080613fea88828901613b49565b9150509295509295909350565b6000806000806080858703121561400d57600080fd5b600061401b87828801613c65565b945050602061402c87828801613ab1565b935050604085013567ffffffffffffffff81111561404957600080fd5b61405587828801613ac6565b925050606061406687828801613b49565b91505092959194509250565b600080600080600080600080610100898b03121561408f57600080fd5b600061409d8b828c01613c65565b98505060206140ae8b828c01613ab1565b97505060406140bf8b828c01613c65565b96505060606140d08b828c01613ab1565b95505060806140e18b828c01613b73565b94505060a06140f28b828c01613c7a565b93505060c06141038b828c01613c7a565b92505060e06141148b828c01613b49565b9150509295985092959890939650565b6000806000806080858703121561413a57600080fd5b600061414887828801613c65565b945050602061415987828801613ab1565b935050604061416a87828801613c65565b925050606061417b87828801613b49565b91505092959194509250565b60008060006060848603121561419c57600080fd5b60006141aa86828701613c65565b935050602084013567ffffffffffffffff8111156141c757600080fd5b6141d386828701613b9d565b92505060406141e486828701613b49565b9150509250925092565b60006141fa838361440b565b60808301905092915050565b6000614212838361452c565b905092915050565b61422381614a78565b82525050565b61423281614a78565b82525050565b61424181614a78565b82525050565b61425081614a66565b82525050565b61425f81614a66565b82525050565b6000614270826149e7565b61427a8185614a22565b9350614285836149c7565b8060005b838110156142b657815161429d88826141ee565b97506142a883614a08565b925050600181019050614289565b5085935050505092915050565b60006142ce826149f2565b6142d88185614a33565b9350836020820285016142ea856149d7565b8060005b8581101561432657848403895281516143078582614206565b945061431283614a15565b925060208a019950506001810190506142ee565b50829750879550505050505092915050565b61434181614a8a565b82525050565b61435081614a8a565b82525050565b61435f81614a96565b82525050565b61436e81614ac2565b82525050565b61437d81614ac2565b82525050565b61438c81614ac2565b82525050565b600061439d826149fd565b6143a78185614a44565b93506143b7818560208601614b12565b6143c081614b45565b840191505092915050565b60006143d8600f83614a55565b91507f4e6f7420617574686f72697a65642e00000000000000000000000000000000006000830152602082019050919050565b6080820160008201516144216000850182614247565b5060208201516144346020850182614365565b50604082015161444760408501826145b4565b50606082015161445a60608501826145b4565b50505050565b6060820160008201516144766000850182614365565b50602082015161448960208501826145b4565b50604082015161449c60408501826145b4565b50505050565b6000610100830160008301516144bb600086018261421a565b5060208301516144ce6020860182614460565b5060408301516144e16080860182614338565b5060608301516144f460a0860182614338565b50608083015161450760c0860182614338565b5060a083015184820360e086015261451f82826142c3565b9150508091505092915050565b60006080830160008301516145446000860182614596565b50602083015161455760208601826145b4565b506040830151848203604086015261456f8282614392565b91505060608301516145846060860182614338565b508091505092915050565b8082525050565b61459f81614aec565b82525050565b6145ae81614aec565b82525050565b6145bd81614af6565b82525050565b6145cc81614af6565b82525050565b6145db81614af6565b82525050565b60006040820190506145f66000830185614229565b6146036020830184614256565b9392505050565b600060808201905061461f6000830187614229565b61462c6020830186614256565b6146396040830185614256565b6146466060830184614356565b95945050505050565b60006080820190506146646000830187614229565b6146716020830186614256565b61467e6040830185614256565b61468b60608301846145a5565b95945050505050565b60006060820190506146a96000830186614229565b6146b66020830185614256565b6146c36040830184614356565b949350505050565b60006060820190506146e06000830186614229565b6146ed6020830185614256565b6146fa60408301846145a5565b949350505050565b60006040820190506147176000830185614229565b81810360208301526147298184614265565b90509392505050565b60006040820190506147476000830185614229565b61475460208301846145a5565b9392505050565b600060c0820190506147706000830189614229565b61477d60208301886145a5565b61478a6040830187614229565b6147976060830186614374565b6147a460808301856145c3565b6147b160a08301846145c3565b979650505050505050565b60006020820190506147d16000830184614347565b92915050565b60006060820190506147ec6000830186614347565b6147f96020830185614347565b61480660408301846145c3565b949350505050565b60006060820190506148236000830186614374565b61483060208301856145c3565b61483d60408301846145c3565b949350505050565b6000602082019050818103600083015261485e816143cb565b9050919050565b6000602082019050818103600083015261487f81846144a2565b905092915050565b600060208201905061489c600083018461458f565b92915050565b60006040820190506148b7600083018561458f565b6148c46020830184614238565b9392505050565b60006080820190506148e0600083018761458f565b6148ed6020830186614383565b6148fa60408301856145d2565b61490760608301846145d2565b95945050505050565b600060208201905061492560008301846145a5565b92915050565b600060208201905061494060008301846145c3565b92915050565b6000604051905081810181811067ffffffffffffffff8211171561496957600080fd5b8060405250919050565b600067ffffffffffffffff82111561498a57600080fd5b602082029050602081019050919050565b600067ffffffffffffffff8211156149b257600080fd5b601f19601f8301169050602081019050919050565b6000819050602082019050919050565b6000819050602082019050919050565b600081519050919050565b600081519050919050565b600081519050919050565b6000602082019050919050565b6000602082019050919050565b600082825260208201905092915050565b600082825260208201905092915050565b600082825260208201905092915050565b600082825260208201905092915050565b6000614a7182614acc565b9050919050565b6000614a8382614acc565b9050919050565b60008115159050919050565b60007fffff00000000000000000000000000000000000000000000000000000000000082169050919050565b6000819050919050565b600073ffffffffffffffffffffffffffffffffffffffff82169050919050565b6000819050919050565b600060ff82169050919050565b82818337600083830152505050565b60005b83811015614b30578082015181840152602081019050614b15565b83811115614b3f576000848401525b50505050565b6000601f19601f8301169050919050565b614b5f81614a66565b8114614b6a57600080fd5b50565b614b7681614a78565b8114614b8157600080fd5b50565b614b8d81614a8a565b8114614b9857600080fd5b50565b614ba481614a96565b8114614baf57600080fd5b50565b614bbb81614ac2565b8114614bc657600080fd5b50565b614bd281614aec565b8114614bdd57600080fd5b50565b614be981614af6565b8114614bf457600080fd5b5056fea2646970667358221220f6b94112fd9b583df16ec762942500f842706923217fec48495eb101bee872a764736f6c634300060c0033",
  "immutableReferences": {},
  "source": "// SPDX-License-Identifier: LGPL-3.0-or-later\npragma solidity ^0.6.0;\npragma experimental ABIEncoderV2;\n\nimport \"./Kelsen.sol\";\nimport \"./libraries/ProcedureLibrary.sol\";\n\n/*\n    A procedure defines a set of operations compiled in a move.\n    The procedure dictates the way the move can be applied.\n\n    @TODO : Add moves getters.\n*/\n\ncontract Procedure is Kelsen(false, true) {\n    using ProcedureLibrary for ProcedureLibrary.ProcedureData;\n    using ProcedureLibrary for ProcedureLibrary.Move;\n    using OrganLibrary for OrganLibrary.Entry;\n    ProcedureLibrary.ProcedureData private procedureData;\n\n    /**\n        Modifiers.\n    */\n\n    modifier onlyInOrgan(address payable organAddress) {\n        require(ProcedureLibrary.isInOrgan(organAddress, msg.sender), \"Not authorized\");\n        _;\n    }\n\n    /**\n        Procedure constructor.\n    */\n\n    constructor (bytes32 metadataIpfsHash, uint8 metadataHashFunction, uint8 metadataHashSize)\n        public\n    {\n        procedureData.init(metadataIpfsHash, metadataHashFunction, metadataHashSize);\n    }\n\n    /**\n        Internal API.\n        A procedure must call this method itself.\n    */\n\n    function applyMove(uint256 moveKey)\n        internal\n    {\n        procedureData.applyMove(moveKey);\n    }\n\n    /**\n        Public API : Procedure Metadata and Admin.\n    */\n\n    function updateMetadata(bytes32 ipfsHash, uint8 hashFunction, uint8 hashSize)\n        public\n    {\n        procedureData.updateMetadata(ipfsHash, hashFunction, hashSize);\n    }\n\n    function updateAdmin(address payable admin)\n        public\n    {\n        procedureData.updateAdmin(admin);\n    }\n\n    /**\n        Public API : Moves creation and update.\n    */\n\n    function createMove(bytes32 ipfsHash, uint8 hashFunction, uint8 hashSize)\n        public returns (uint256)\n    {\n        return procedureData.createMove(ipfsHash, hashFunction, hashSize);\n    }\n\n    function moveAddEntries(\n        uint256 moveKey, address payable organ, OrganLibrary.Entry[] memory entries, bool lock\n    )\n        public\n    {\n        procedureData.moveAddEntries(moveKey, organ, entries, lock);\n    }\n\n    function moveRemoveEntry(\n        uint256 moveKey, address payable organ, uint256 indexes, bool lock\n    )\n        public\n    {\n        procedureData.moveRemoveEntry(moveKey, organ, indexes, lock);\n    }\n\n    function moveReplaceEntry(\n        uint256 moveKey, address payable organ, uint index, address payable addr,\n        bytes32 ipfsHash, uint8 hashFunction, uint8 hashSize, bool lock\n    )\n        public\n    {\n        procedureData.moveReplaceEntry(moveKey, organ, index, addr, ipfsHash, hashFunction, hashSize, lock);\n    }\n\n    function moveAddProcedure(\n        uint256 moveKey, address payable organ, address procedure, bytes2 permissions, bool lock\n    )\n        public\n    {\n        procedureData.moveAddProcedure(moveKey, organ, procedure, permissions, lock);\n    }\n\n    function moveRemoveProcedure(\n        uint256 moveKey, address payable organ, address procedure, bool lock\n    )\n        public\n    {\n        procedureData.moveRemoveProcedure(moveKey, organ, procedure, lock);\n    }\n\n    function moveReplaceProcedure(\n        uint256 moveKey, address payable organ,\n        address oldProcedure, address newProcedure, bytes2 permissions, bool lock\n    )\n        public\n    {\n        procedureData.moveReplaceProcedure(moveKey, organ, oldProcedure, newProcedure, permissions, lock);\n    }\n\n    function moveCall(\n        uint256 moveKey, bytes memory call,  bool lock\n    )\n        public\n    {\n        procedureData.moveCall(moveKey, call, lock);\n    }\n\n    function moveReceiveCollectible(\n        uint256 moveKey, address payable organ, address operator, address target, uint256 token_id, bool lock\n    )\n        public\n    {\n        procedureData.moveReceiveCollectible(moveKey, organ, operator, target, token_id, lock);\n    }\n\n    function moveTransferCollectible(\n        uint256 moveKey, address payable organ, address operator, address target, uint256 token_id, bool lock\n    )\n        public\n    {\n        procedureData.moveTransferCollectible(moveKey, organ, operator, target, token_id, lock);\n    }\n\n    function moveReceiveCoins(\n        uint256 moveKey, address payable organ, address operator, address target, uint256 value, bool lock\n    )\n        public\n    {\n        procedureData.moveReceiveCoins(moveKey, organ, operator, target, value, lock);\n    }\n\n    function moveTransferCoins(\n        uint256 moveKey, address payable organ, address operator, address target, uint256 value, bool lock\n    )\n        public\n    {\n        procedureData.moveTransferCoins(moveKey, organ, operator, target, value, lock);\n    }\n\n    function moveReceiveEther(\n        uint256 moveKey, address payable organ, address target, uint256 value, bool lock\n    )\n        public\n    {\n        procedureData.moveReceiveEther(moveKey, organ, target, value, lock);\n    }\n\n    function moveTransferEther(\n        uint256 moveKey, address payable organ, address target, uint256 value, bool lock\n    )\n        public\n    {\n        procedureData.moveTransferEther(moveKey, organ, target, value, lock);\n    }\n\n    function lockMove(uint256 moveKey)\n        public\n    {\n        procedureData.lockMove(moveKey);\n    }\n\n    /*\n        Accessors.\n    */\n\n    function getMovesLength() public view returns (uint256 length) {\n        return procedureData.movesLength;\n    }\n\n    function getMove(uint256 moveKey) public view returns (ProcedureLibrary.Move memory move) {\n        return procedureData.moves[moveKey];\n    }\n\n    function getMetadata()\n        public\n        view\n        returns (\n            bytes32 ipfsHash,\n            uint8 hashFunction,\n            uint8 hashSize\n        )\n    {\n        return procedureData.getMetadata();\n    }\n}",
  "sourcePath": "/Users/alex/Code/organigr.am/packages/@organigram/contracts/contracts/Procedure.sol",
  "compiler": {
    "name": "solc",
    "version": "0.6.12+commit.27d51765.Emscripten.clang"
  },
  "schemaVersion": "3.3.2",
  "updatedAt": "2020-12-01T19:23:46.031Z",
  "devdoc": {
    "kind": "dev",
    "methods": {},
    "version": 1
  },
  "userdoc": {
    "kind": "user",
    "methods": {
      "constructor": "Procedure constructor.",
      "createMove(bytes32,uint8,uint8)": {
        "notice": "Public API : Moves creation and update."
      },
      "updateMetadata(bytes32,uint8,uint8)": {
        "notice": "Public API : Procedure Metadata and Admin."
      }
    },
    "version": 1
  }
}