{
  "contractName": "Procedure",
  "abi": [
    {
      "inputs": [
        {
          "internalType": "bytes32",
          "name": "metadataIpfsHash",
          "type": "bytes32"
        },
        {
          "internalType": "uint8",
          "name": "metadataHashFunction",
          "type": "uint8"
        },
        {
          "internalType": "uint8",
          "name": "metadataHashSize",
          "type": "uint8"
        }
      ],
      "stateMutability": "nonpayable",
      "type": "constructor"
    },
    {
      "inputs": [
        {
          "internalType": "bytes4",
          "name": "interfaceId",
          "type": "bytes4"
        }
      ],
      "name": "supportsInterface",
      "outputs": [
        {
          "internalType": "bool",
          "name": "",
          "type": "bool"
        }
      ],
      "stateMutability": "view",
      "type": "function"
    },
    {
      "inputs": [
        {
          "internalType": "bytes32",
          "name": "ipfsHash",
          "type": "bytes32"
        },
        {
          "internalType": "uint8",
          "name": "hashFunction",
          "type": "uint8"
        },
        {
          "internalType": "uint8",
          "name": "hashSize",
          "type": "uint8"
        }
      ],
      "name": "updateMetadata",
      "outputs": [],
      "stateMutability": "nonpayable",
      "type": "function"
    },
    {
      "inputs": [
        {
          "internalType": "address payable",
          "name": "admin",
          "type": "address"
        }
      ],
      "name": "updateAdmin",
      "outputs": [],
      "stateMutability": "nonpayable",
      "type": "function"
    },
    {
      "inputs": [
        {
          "internalType": "bytes32",
          "name": "ipfsHash",
          "type": "bytes32"
        },
        {
          "internalType": "uint8",
          "name": "hashFunction",
          "type": "uint8"
        },
        {
          "internalType": "uint8",
          "name": "hashSize",
          "type": "uint8"
        }
      ],
      "name": "createMove",
      "outputs": [
        {
          "internalType": "uint256",
          "name": "",
          "type": "uint256"
        }
      ],
      "stateMutability": "nonpayable",
      "type": "function"
    },
    {
      "inputs": [
        {
          "internalType": "uint256",
          "name": "moveKey",
          "type": "uint256"
        },
        {
          "internalType": "address payable",
          "name": "organ",
          "type": "address"
        },
        {
          "components": [
            {
              "internalType": "address",
              "name": "addr",
              "type": "address"
            },
            {
              "internalType": "bytes32",
              "name": "ipfsHash",
              "type": "bytes32"
            },
            {
              "internalType": "uint8",
              "name": "hashFunction",
              "type": "uint8"
            },
            {
              "internalType": "uint8",
              "name": "hashSize",
              "type": "uint8"
            }
          ],
          "internalType": "struct OrganLibrary.Entry[]",
          "name": "entries",
          "type": "tuple[]"
        },
        {
          "internalType": "bool",
          "name": "lock",
          "type": "bool"
        }
      ],
      "name": "moveAddEntries",
      "outputs": [],
      "stateMutability": "nonpayable",
      "type": "function"
    },
    {
      "inputs": [
        {
          "internalType": "uint256",
          "name": "moveKey",
          "type": "uint256"
        },
        {
          "internalType": "address payable",
          "name": "organ",
          "type": "address"
        },
        {
          "internalType": "uint256[]",
          "name": "indexes",
          "type": "uint256[]"
        },
        {
          "internalType": "bool",
          "name": "lock",
          "type": "bool"
        }
      ],
      "name": "moveRemoveEntries",
      "outputs": [],
      "stateMutability": "nonpayable",
      "type": "function"
    },
    {
      "inputs": [
        {
          "internalType": "uint256",
          "name": "moveKey",
          "type": "uint256"
        },
        {
          "internalType": "address payable",
          "name": "organ",
          "type": "address"
        },
        {
          "internalType": "uint256",
          "name": "index",
          "type": "uint256"
        },
        {
          "internalType": "address payable",
          "name": "addr",
          "type": "address"
        },
        {
          "internalType": "bytes32",
          "name": "ipfsHash",
          "type": "bytes32"
        },
        {
          "internalType": "uint8",
          "name": "hashFunction",
          "type": "uint8"
        },
        {
          "internalType": "uint8",
          "name": "hashSize",
          "type": "uint8"
        },
        {
          "internalType": "bool",
          "name": "lock",
          "type": "bool"
        }
      ],
      "name": "moveReplaceEntry",
      "outputs": [],
      "stateMutability": "nonpayable",
      "type": "function"
    },
    {
      "inputs": [
        {
          "internalType": "uint256",
          "name": "moveKey",
          "type": "uint256"
        },
        {
          "internalType": "address payable",
          "name": "organ",
          "type": "address"
        },
        {
          "internalType": "address",
          "name": "procedure",
          "type": "address"
        },
        {
          "internalType": "bytes2",
          "name": "permissions",
          "type": "bytes2"
        },
        {
          "internalType": "bool",
          "name": "lock",
          "type": "bool"
        }
      ],
      "name": "moveAddProcedure",
      "outputs": [],
      "stateMutability": "nonpayable",
      "type": "function"
    },
    {
      "inputs": [
        {
          "internalType": "uint256",
          "name": "moveKey",
          "type": "uint256"
        },
        {
          "internalType": "address payable",
          "name": "organ",
          "type": "address"
        },
        {
          "internalType": "address",
          "name": "procedure",
          "type": "address"
        },
        {
          "internalType": "bool",
          "name": "lock",
          "type": "bool"
        }
      ],
      "name": "moveRemoveProcedure",
      "outputs": [],
      "stateMutability": "nonpayable",
      "type": "function"
    },
    {
      "inputs": [
        {
          "internalType": "uint256",
          "name": "moveKey",
          "type": "uint256"
        },
        {
          "internalType": "address payable",
          "name": "organ",
          "type": "address"
        },
        {
          "internalType": "address",
          "name": "oldProcedure",
          "type": "address"
        },
        {
          "internalType": "address",
          "name": "newProcedure",
          "type": "address"
        },
        {
          "internalType": "bytes2",
          "name": "permissions",
          "type": "bytes2"
        },
        {
          "internalType": "bool",
          "name": "lock",
          "type": "bool"
        }
      ],
      "name": "moveReplaceProcedure",
      "outputs": [],
      "stateMutability": "nonpayable",
      "type": "function"
    },
    {
      "inputs": [
        {
          "internalType": "uint256",
          "name": "moveKey",
          "type": "uint256"
        },
        {
          "internalType": "bytes",
          "name": "call",
          "type": "bytes"
        },
        {
          "internalType": "bool",
          "name": "lock",
          "type": "bool"
        }
      ],
      "name": "moveCall",
      "outputs": [],
      "stateMutability": "nonpayable",
      "type": "function"
    },
    {
      "inputs": [
        {
          "internalType": "uint256",
          "name": "moveKey",
          "type": "uint256"
        },
        {
          "internalType": "address payable",
          "name": "organ",
          "type": "address"
        },
        {
          "internalType": "address",
          "name": "operator",
          "type": "address"
        },
        {
          "internalType": "address",
          "name": "target",
          "type": "address"
        },
        {
          "internalType": "uint256",
          "name": "token_id",
          "type": "uint256"
        },
        {
          "internalType": "bool",
          "name": "lock",
          "type": "bool"
        }
      ],
      "name": "moveReceiveCollectible",
      "outputs": [],
      "stateMutability": "nonpayable",
      "type": "function"
    },
    {
      "inputs": [
        {
          "internalType": "uint256",
          "name": "moveKey",
          "type": "uint256"
        },
        {
          "internalType": "address payable",
          "name": "organ",
          "type": "address"
        },
        {
          "internalType": "address",
          "name": "operator",
          "type": "address"
        },
        {
          "internalType": "address",
          "name": "target",
          "type": "address"
        },
        {
          "internalType": "uint256",
          "name": "token_id",
          "type": "uint256"
        },
        {
          "internalType": "bool",
          "name": "lock",
          "type": "bool"
        }
      ],
      "name": "moveTransferCollectible",
      "outputs": [],
      "stateMutability": "nonpayable",
      "type": "function"
    },
    {
      "inputs": [
        {
          "internalType": "uint256",
          "name": "moveKey",
          "type": "uint256"
        },
        {
          "internalType": "address payable",
          "name": "organ",
          "type": "address"
        },
        {
          "internalType": "address",
          "name": "operator",
          "type": "address"
        },
        {
          "internalType": "address",
          "name": "target",
          "type": "address"
        },
        {
          "internalType": "uint256",
          "name": "value",
          "type": "uint256"
        },
        {
          "internalType": "bool",
          "name": "lock",
          "type": "bool"
        }
      ],
      "name": "moveReceiveCoins",
      "outputs": [],
      "stateMutability": "nonpayable",
      "type": "function"
    },
    {
      "inputs": [
        {
          "internalType": "uint256",
          "name": "moveKey",
          "type": "uint256"
        },
        {
          "internalType": "address payable",
          "name": "organ",
          "type": "address"
        },
        {
          "internalType": "address",
          "name": "operator",
          "type": "address"
        },
        {
          "internalType": "address",
          "name": "target",
          "type": "address"
        },
        {
          "internalType": "uint256",
          "name": "value",
          "type": "uint256"
        },
        {
          "internalType": "bool",
          "name": "lock",
          "type": "bool"
        }
      ],
      "name": "moveTransferCoins",
      "outputs": [],
      "stateMutability": "nonpayable",
      "type": "function"
    },
    {
      "inputs": [
        {
          "internalType": "uint256",
          "name": "moveKey",
          "type": "uint256"
        },
        {
          "internalType": "address payable",
          "name": "organ",
          "type": "address"
        },
        {
          "internalType": "address",
          "name": "target",
          "type": "address"
        },
        {
          "internalType": "uint256",
          "name": "value",
          "type": "uint256"
        },
        {
          "internalType": "bool",
          "name": "lock",
          "type": "bool"
        }
      ],
      "name": "moveReceiveEther",
      "outputs": [],
      "stateMutability": "nonpayable",
      "type": "function"
    },
    {
      "inputs": [
        {
          "internalType": "uint256",
          "name": "moveKey",
          "type": "uint256"
        },
        {
          "internalType": "address payable",
          "name": "organ",
          "type": "address"
        },
        {
          "internalType": "address",
          "name": "target",
          "type": "address"
        },
        {
          "internalType": "uint256",
          "name": "value",
          "type": "uint256"
        },
        {
          "internalType": "bool",
          "name": "lock",
          "type": "bool"
        }
      ],
      "name": "moveTransferEther",
      "outputs": [],
      "stateMutability": "nonpayable",
      "type": "function"
    },
    {
      "inputs": [
        {
          "internalType": "uint256",
          "name": "moveKey",
          "type": "uint256"
        }
      ],
      "name": "lockMove",
      "outputs": [],
      "stateMutability": "nonpayable",
      "type": "function"
    },
    {
      "inputs": [],
      "name": "getMovesLength",
      "outputs": [
        {
          "internalType": "uint256",
          "name": "length",
          "type": "uint256"
        }
      ],
      "stateMutability": "view",
      "type": "function"
    },
    {
      "inputs": [
        {
          "internalType": "uint256",
          "name": "moveKey",
          "type": "uint256"
        }
      ],
      "name": "getMove",
      "outputs": [
        {
          "components": [
            {
              "internalType": "address payable",
              "name": "creator",
              "type": "address"
            },
            {
              "components": [
                {
                  "internalType": "bytes32",
                  "name": "ipfsHash",
                  "type": "bytes32"
                },
                {
                  "internalType": "uint8",
                  "name": "hashFunction",
                  "type": "uint8"
                },
                {
                  "internalType": "uint8",
                  "name": "hashSize",
                  "type": "uint8"
                }
              ],
              "internalType": "struct ProcedureLibrary.Metadata",
              "name": "metadata",
              "type": "tuple"
            },
            {
              "internalType": "bool",
              "name": "locked",
              "type": "bool"
            },
            {
              "internalType": "bool",
              "name": "applied",
              "type": "bool"
            },
            {
              "internalType": "bool",
              "name": "processing",
              "type": "bool"
            },
            {
              "components": [
                {
                  "internalType": "uint256",
                  "name": "index",
                  "type": "uint256"
                },
                {
                  "internalType": "address payable",
                  "name": "organ",
                  "type": "address"
                },
                {
                  "internalType": "uint256",
                  "name": "value",
                  "type": "uint256"
                },
                {
                  "internalType": "uint8",
                  "name": "operationType",
                  "type": "uint8"
                },
                {
                  "internalType": "bytes",
                  "name": "callData",
                  "type": "bytes"
                },
                {
                  "internalType": "bool",
                  "name": "processed",
                  "type": "bool"
                }
              ],
              "internalType": "struct ProcedureLibrary.Operation[]",
              "name": "operations",
              "type": "tuple[]"
            }
          ],
          "internalType": "struct ProcedureLibrary.Move",
          "name": "move",
          "type": "tuple"
        }
      ],
      "stateMutability": "view",
      "type": "function"
    },
    {
      "inputs": [],
      "name": "getMetadata",
      "outputs": [
        {
          "internalType": "bytes32",
          "name": "ipfsHash",
          "type": "bytes32"
        },
        {
          "internalType": "uint8",
          "name": "hashFunction",
          "type": "uint8"
        },
        {
          "internalType": "uint8",
          "name": "hashSize",
          "type": "uint8"
        }
      ],
      "stateMutability": "view",
      "type": "function"
    }
  ],
  "bytecode": "0x60806040523480156200001157600080fd5b506040516200299c3803806200299c833981016040819052620000349162000146565b620000466301ffc9a760e01b620000d3565b6200005863071dbd3360e41b620000d3565b60405163359a395d60e01b815273__ProcedureLibrary______________________9063359a395d906200009890600190879087908790600401620001bf565b60006040518083038186803b158015620000b157600080fd5b505af4158015620000c6573d6000803e3d6000fd5b50505050505050620001e0565b6001600160e01b03198082161415620001095760405162461bcd60e51b8152600401620001009062000188565b60405180910390fd5b6001600160e01b0319166000908152602081905260409020805460ff19166001179055565b805160ff811681146200014057600080fd5b92915050565b6000806000606084860312156200015b578283fd5b835192506200016e85602086016200012e565b91506200017f85604086016200012e565b90509250925092565b6020808252601c908201527f4552433136353a20696e76616c696420696e7465726661636520696400000000604082015260600190565b938452602084019290925260ff908116604084015216606082015260800190565b6127ac80620001f06000396000f3fe608060405234801561001057600080fd5b50600436106101075760003560e01c806301ffc9a71461010c5780630b5522a914610135578063148a20051461014a5780632c1d53371461015d57806339c2ae70146101705780633e9a9bd81461018357806352c041b2146101985780635a31b560146101ab5780635ba357dc146101be57806367c322d0146101d157806371dbd330146101e45780637a5b4f59146102045780637c3a5fcc1461021b5780637ee7fa401461022e5780639ad5c79214610241578063a2b58cda14610254578063c492f46314610267578063cb6bc9ff146101ab578063cc1250311461027a578063e2f273bd1461028d578063fa160aa2146102a0575b600080fd5b61011f61011a366004611e23565b6102b3565b60405161012c919061256f565b60405180910390f35b610148610143366004611f8d565b6102d2565b005b610148610158366004611edb565b6102e8565b61014861016b366004611e63565b610300565b61014861017e366004611dab565b610310565b61018b610383565b60405161012c9190612656565b6101486101a6366004612203565b610389565b6101486101b9366004611edb565b6103a5565b6101486101cc366004611e4b565b6103b5565b6101486101df366004611f3c565b6103c3565b6101f76101f2366004611e4b565b6103d7565b60405161012c91906125bc565b61020c61059d565b60405161012c9392919061257a565b610148610229366004611edb565b610637565b61014861023c366004611ff4565b610647565b61014861024f36600461214f565b610656565b61018b610262366004611dab565b610664565b610148610275366004612044565b61067b565b610148610288366004611ff4565b610689565b61014861029b366004611d88565b610698565b6101486102ae366004612290565b6106fe565b6001600160e01b03191660009081526020819052604090205460ff1690565b6102e160018686868686610710565b5050505050565b6102f86001878787878787610972565b505050505050565b6102f86001878787878787610bd0565b604051635c664d0160e11b815273__ProcedureLibrary______________________9063b8cc9a029061034e90600190879087908790600401612676565b60006040518083038186803b15801561036657600080fd5b505af415801561037a573d6000803e3d6000fd5b50505050505050565b60055490565b61039b60018989898989898989610cf3565b5050505050505050565b6102f86001878787878787610f6b565b6103c060018261108e565b50565b6103d160018585858561119a565b50505050565b6103df611c78565b6000828152600460208181526040808420815160c08101835281546001600160a01b0316815282516060808201855260018401548252600284015460ff80821684890152610100918290048116848801528488019390935260038501548084161515858801529081048316151591840191909152620100009004161515608082015293810180548351818602810186019094528084529495919460a08701949192909184015b8282101561058f5760008481526020908190206040805160c08101825260068602909201805483526001808201546001600160a01b03168486015260028083015485850152600383015460ff16606086015260048301805485516101009482161594909402600019011691909104601f810187900487028301870190945283825293949193608086019391929091908301828280156105655780601f1061053a57610100808354040283529160200191610565565b820191906000526020600020905b81548152906001019060200180831161054857829003601f168201915b50505091835250506005919091015460ff1615156020918201529082526001929092019101610485565b505050915250909392505050565b6040516341ff658d60e11b81526000908190819073__ProcedureLibrary______________________906383fecb1a906105dc90600190600401612656565b60606040518083038186803b1580156105f457600080fd5b505af4158015610608573d6000803e3d6000fd5b505050506040513d601f19601f8201168201806040525081019061062c9190611dec565b925092509250909192565b6102f860018787878787876113f2565b6102e160018686868686611513565b6103d1600185858585611634565b60006106736001858585611753565b949350505050565b6103d16001858585856117e1565b6102e160018686868686611900565b60405163474ab74960e11b815273__ProcedureLibrary______________________90638e956e92906106d290600190859060040161265f565b60006040518083038186803b1580156106ea57600080fd5b505af41580156102e1573d6000803e3d6000fd5b61070b6001848484611a21565b505050565b6000858152600387016020526040902054869086906001600160a01b031633146107555760405162461bcd60e51b815260040161074c90612593565b60405180910390fd5b60008781526003808a01602052604090912001548890889060ff1615801561079657506000818152600383810160205260409091200154610100900460ff16155b80156107bc5750600081815260038381016020526040909120015462010000900460ff16155b6107d85760405162461bcd60e51b815260040161074c90612593565b600089815260038b0160209081526040808320815160c0810183526004918201805482526001600160a01b038e1694820194909452808301949094526060840152519091906080820190637f0a4e2790610838908c908c906024016124a2565b60408051808303601f190181529181526020808301805160e09590951b6001600160e01b039095169490941790935290835260009282018390528454600180820187559584529282902084516006909402019283558382015194830180546001600160a01b0319166001600160a01b0390961695909517909455928201516002820155606082015160038201805460ff191660ff90921691909117905560808201518051929391926108f09260048501920190611cbf565b5060a091909101516005909101805460ff191691151591909117905584156109665760008981526003808c01602052604091829020908101805460ff191660011790555490516000805160206127578339815191529161095d916001600160a01b03909116908c90612438565b60405180910390a15b50505050505050505050565b6000868152600388016020526040902054879087906001600160a01b031633146109ae5760405162461bcd60e51b815260040161074c90612593565b60008881526003808b01602052604090912001548990899060ff161580156109ef57506000818152600383810160205260409091200154610100900460ff16155b8015610a155750600081815260038381016020526040909120015462010000900460ff16155b610a315760405162461bcd60e51b815260040161074c90612593565b60008a815260038c0160209081526040808320815160c0810183526004909101805482526001600160a01b038e1693820193909352808201939093526007606084015251909190608082019063c107532990610a95908d908d908d9060240161247e565b60408051808303601f190181529181526020808301805160e09590951b6001600160e01b039095169490941790935290835260009282018390528454600180820187559584529282902084516006909402019283558382015194830180546001600160a01b0319166001600160a01b0390961695909517909455928201516002820155606082015160038201805460ff191660ff9092169190911790556080820151805192939192610b4d9260048501920190611cbf565b5060a091909101516005909101805460ff19169115159190911790558415610bc35760008a81526003808d01602052604091829020908101805460ff1916600117905554905160008051602061275783398151915291610bba916001600160a01b03909116908d90612438565b60405180910390a15b5050505050505050505050565b6000868152600388016020526040902054879087906001600160a01b03163314610c0c5760405162461bcd60e51b815260040161074c90612593565b60008881526003808b01602052604090912001548990899060ff16158015610c4d57506000818152600383810160205260409091200154610100900460ff16155b8015610c735750600081815260038381016020526040909120015462010000900460ff16155b610c8f5760405162461bcd60e51b815260040161074c90612593565b60008a815260038c0160209081526040808320815160c0810183526004909101805482526001600160a01b038e1693820193909352808201939093526006606084015251909190608082019063d0922d4a90610a95908d908d908d90602401612451565b600088815260038a016020526040902054899089906001600160a01b03163314610d2f5760405162461bcd60e51b815260040161074c90612593565b60008a81526003808d01602052604090912001548b908b9060ff16158015610d7057506000818152600383810160205260409091200154610100900460ff16155b8015610d965750600081815260038381016020526040909120015462010000900460ff16155b610db25760405162461bcd60e51b815260040161074c90612593565b60008d60030160008e81526020019081526020016000209050806004016040518060c00160405280836004018054905081526020018e6001600160a01b0316815260200160008152602001600360ff1681526020016391bdfe638e8e8e8e8e604051602401610e25959493929190612697565b60408051808303601f190181529181526020808301805160e09590951b6001600160e01b039095169490941790935290835260009282018390528454600180820187559584529282902084516006909402019283558382015194830180546001600160a01b0319166001600160a01b0390961695909517909455928201516002820155606082015160038201805460ff191660ff9092169190911790556080820151805192939192610edd9260048501920190611cbf565b5060a091909101516005909101805460ff19169115159190911790558515610f5b5760018160030160006101000a81548160ff0219169083151502179055506000805160206127578339815191528160000160009054906101000a90046001600160a01b03168e604051610f52929190612438565b60405180910390a15b5050505050505050505050505050565b6000868152600388016020526040902054879087906001600160a01b03163314610fa75760405162461bcd60e51b815260040161074c90612593565b60008881526003808b01602052604090912001548990899060ff16158015610fe857506000818152600383810160205260409091200154610100900460ff16155b801561100e5750600081815260038381016020526040909120015462010000900460ff16155b61102a5760405162461bcd60e51b815260040161074c90612593565b60008a815260038c0160209081526040808320815160c0810183526004909101805482526001600160a01b038e16938201939093528082019390935260086060840152519091906080820190635e35359e90610a95908d908d908d9060240161247e565b6000818152600383016020526040902054829082906001600160a01b031633146110ca5760405162461bcd60e51b815260040161074c90612593565b60008381526003808601602052604090912001548490849060ff1615801561110b57506000818152600383810160205260409091200154610100900460ff16155b80156111315750600081815260038381016020526040909120015462010000900460ff16155b61114d5760405162461bcd60e51b815260040161074c90612593565b6000858152600380880160205260409182902001805460ff19166001179055516000805160206127578339815191529061118a9033908890612438565b60405180910390a1505050505050565b6000848152600386016020526040902054859085906001600160a01b031633146111d65760405162461bcd60e51b815260040161074c90612593565b60008681526003808901602052604090912001548790879060ff1615801561121757506000818152600383810160205260409091200154610100900460ff16155b801561123d5750600081815260038381016020526040909120015462010000900460ff16155b6112595760405162461bcd60e51b815260040161074c90612593565b600088815260038a0160209081526040808320815160c0810183526004909101805482526001600160a01b038c169382019390935280820193909352600560608401525190919060808201906319b9404c906112b9908b90602401612424565b60408051808303601f190181529181526020808301805160e09590951b6001600160e01b039095169490941790935290835260009282018390528454600180820187559584529282902084516006909402019283558382015194830180546001600160a01b0319166001600160a01b0390961695909517909455928201516002820155606082015160038201805460ff191660ff90921691909117905560808201518051929391926113719260048501920190611cbf565b5060a091909101516005909101805460ff191691151591909117905584156113e75760008881526003808b01602052604091829020908101805460ff19166001179055549051600080516020612757833981519152916113de916001600160a01b03909116908b90612438565b60405180910390a15b505050505050505050565b6000868152600388016020526040902054879087906001600160a01b0316331461142e5760405162461bcd60e51b815260040161074c90612593565b60008881526003808b01602052604090912001548990899060ff1615801561146f57506000818152600383810160205260409091200154610100900460ff16155b80156114955750600081815260038381016020526040909120015462010000900460ff16155b6114b15760405162461bcd60e51b815260040161074c90612593565b60008a815260038c0160209081526040808320815160c0810183526004909101805482526001600160a01b038e1693820193909352808201939093526007606084015251909190608082019063c107532990610a95908d908c90602401612438565b6000858152600387016020526040902054869086906001600160a01b0316331461154f5760405162461bcd60e51b815260040161074c90612593565b60008781526003808a01602052604090912001548890889060ff1615801561159057506000818152600383810160205260409091200154610100900460ff16155b80156115b65750600081815260038381016020526040909120015462010000900460ff16155b6115d25760405162461bcd60e51b815260040161074c90612593565b600089815260038b0160209081526040808320815160c0810183526004909101805482526001600160a01b038d1693820193909352808201939093526007606084015251909190608082019063c107532990610838908c908c90602401612438565b6000848152600386016020526040902054859085906001600160a01b031633146116705760405162461bcd60e51b815260040161074c90612593565b60008681526003808901602052604090912001548790879060ff161580156116b157506000818152600383810160205260409091200154610100900460ff16155b80156116d75750600081815260038381016020526040909120015462010000900460ff16155b6116f35760405162461bcd60e51b815260040161074c90612593565b600088815260038a0160209081526040808320815160c0810183526004909101805482526001600160a01b038c16938201939093528082019390935260026060840152519091906080820190637615eb81906112b9908b9060240161252b565b6004840180546001808201909255600081815260039096016020818152604080892080546001600160a01b03191633178155815160608101835298895260ff97881689840190815296881691890191825298849052919052945191860191909155905160029094018054935183166101000261ff00199590931660ff19909416939093179390931617905590565b6000848152600386016020526040902054859085906001600160a01b0316331461181d5760405162461bcd60e51b815260040161074c90612593565b60008681526003808901602052604090912001548790879060ff1615801561185e57506000818152600383810160205260409091200154610100900460ff16155b80156118845750600081815260038381016020526040909120015462010000900460ff16155b6118a05760405162461bcd60e51b815260040161074c90612593565b600088815260038a0160209081526040808320815160c0810183526004909101805482526001600160a01b038c1693820193909352808201939093526001606084015251909190608082019063981d5e7b906112b9908b906024016124c5565b6000858152600387016020526040902054869086906001600160a01b0316331461193c5760405162461bcd60e51b815260040161074c90612593565b60008781526003808a01602052604090912001548890889060ff1615801561197d57506000818152600383810160205260409091200154610100900460ff16155b80156119a35750600081815260038381016020526040909120015462010000900460ff16155b6119bf5760405162461bcd60e51b815260040161074c90612593565b600089815260038b0160209081526040808320815160c0810183526004909101805482526001600160a01b038d16938201939093528082019390935260086060840152519091906080820190635e35359e90610838908c908c90602401612438565b6000838152600385016020526040902054849084906001600160a01b03163314611a5d5760405162461bcd60e51b815260040161074c90612593565b60008581526003808801602052604090912001548690869060ff16158015611a9e57506000818152600383810160205260409091200154610100900460ff16155b8015611ac45750600081815260038381016020526040909120015462010000900460ff16155b611ae05760405162461bcd60e51b815260040161074c90612593565b8760030160008881526020019081526020016000206004016040518060c001604052808a60030160008b815260200190815260200160002060040180549050815260200160006001600160a01b0316815260200160008152602001600060ff1681526020018881526020016000151581525090806001815401808255809150506001900390600052602060002090600602016000909190919091506000820151816000015560208201518160010160006101000a8154816001600160a01b0302191690836001600160a01b031602179055506040820151816002015560608201518160030160006101000a81548160ff021916908360ff1602179055506080820151816004019080519060200190611bf9929190611cbf565b5060a091909101516005909101805460ff1916911515919091179055841561039b5760008781526003808a01602052604091829020908101805460ff1916600117905554905160008051602061275783398151915291611c66916001600160a01b03909116908a90612438565b60405180910390a15050505050505050565b6040518060c0016040528060006001600160a01b03168152602001611c9b611d3d565b81526000602082018190526040820181905260608083019190915260809091015290565b828054600181600116156101000203166002900490600052602060002090601f016020900481019282601f10611d0057805160ff1916838001178555611d2d565b82800160010185558215611d2d579182015b82811115611d2d578251825591602001919060010190611d12565b50611d39929150611d5d565b5090565b604080516060810182526000808252602082018190529181019190915290565b5b80821115611d395760008155600101611d5e565b80358015158114611d8257600080fd5b92915050565b600060208284031215611d99578081fd5b8135611da48161270e565b9392505050565b600080600060608486031215611dbf578182fd5b833592506020840135611dd181612747565b91506040840135611de181612747565b809150509250925092565b600080600060608486031215611e00578283fd5b835192506020840151611e1281612747565b6040850151909250611de181612747565b600060208284031215611e34578081fd5b81356001600160e01b031981168114611da4578182fd5b600060208284031215611e5c578081fd5b5035919050565b60008060008060008060c08789031215611e7b578182fd5b863595506020870135611e8d8161270e565b94506040870135611e9d8161270e565b93506060870135611ead8161270e565b92506080870135611ebd81612731565b915060a0870135611ecd81612723565b809150509295509295509295565b60008060008060008060c08789031215611ef3578182fd5b863595506020870135611f058161270e565b94506040870135611f158161270e565b93506060870135611f258161270e565b92506080870135915060a0870135611ecd81612723565b60008060008060808587031215611f51578182fd5b843593506020850135611f638161270e565b92506040850135611f738161270e565b9150611f828660608701611d72565b905092959194509250565b600080600080600060a08688031215611fa4578283fd5b853594506020860135611fb68161270e565b93506040860135611fc68161270e565b92506060860135611fd681612731565b91506080860135611fe681612723565b809150509295509295909350565b600080600080600060a0868803121561200b578283fd5b85359450602086013561201d8161270e565b9350604086013561202d8161270e565b9250606086013591506080860135611fe681612723565b600080600080608080868803121561205a578283fd5b8535945060208087013561206d8161270e565b94506040878101356001600160401b03811115612088578586fd5b8801601f81018a13612098578586fd5b80356120ab6120a6826126ef565b6126c9565b81815284810190838601878402850187018e10156120c757898afd5b8994505b838510156121375787818f0312156120e157898afd5b6120ea886126c9565b81356120f58161270e565b815281880135888201528682013561210c81612747565b8188015260608281013561211f81612747565b908201528352600194909401939186019187016120cb565b5080985050505050505050611f828660608701611d72565b60008060008060808587031215612164578182fd5b843593506020808601356121778161270e565b935060408601356001600160401b03811115612191578384fd5b8601601f810188136121a1578384fd5b80356121af6120a6826126ef565b81815283810190838501858402850186018c10156121cb578788fd5b8794505b838510156121ed5780358352600194909401939185019185016121cf565b508096505050505050611f828660608701611d72565b600080600080600080600080610100898b03121561221f578586fd5b8835975060208901356122318161270e565b96506040890135955060608901356122488161270e565b94506080890135935060a089013561225f81612747565b925060c089013561226f81612747565b915060e089013561227f81612723565b809150509295985092959890939650565b6000806000606084860312156122a4578081fd5b833592506020808501356001600160401b03808211156122c2578384fd5b818701915087601f8301126122d5578384fd5b8135818111156122e3578485fd5b6122f5601f8201601f191685016126c9565b9150808252888482850101111561230a578485fd5b8084840185840137810190920183905250915061232a8560408601611d72565b90509250925092565b6000815180845260208085018081965082840281019150828601855b8581101561240a578284038952815180518552858101516001600160a01b0316868601526040808201519086015260608082015160ff169086015260808082015160c091870182905280519187018290528991905b818310156123c25780830189015188840160e00152918801916123a4565b50808211156123d4578960e082890101525b60a0928301519291506123e987830184612417565b9a87019a601f01601f19169590950160e0019450509084019060010161234f565b5091979650505050505050565b15159052565b60ff169052565b6001600160a01b0391909116815260200190565b6001600160a01b03929092168252602082015260400190565b6001600160a01b0393841681529190921660208201526001600160f01b0319909116604082015260600190565b6001600160a01b039384168152919092166020820152604081019190915260600190565b6001600160a01b039290921682526001600160f01b031916602082015260400190565b602080825282518282018190526000919060409081850190868401855b8281101561240a57815180516001600160a01b0316855286810151878601528581015160ff908116878701526060918201511690850152608090930192908501906001016124e2565b6020808252825182820181905260009190848201906040850190845b8181101561256357835183529284019291840191600101612547565b50909695505050505050565b901515815260200190565b92835260ff918216602084015216604082015260600190565b6020808252600f908201526e2737ba1030baba3437b934bd32b21760891b604082015260600190565b602080825282516001600160a01b031682820152828101518051604084015290810151600091906125f0606085018261241d565b5060400151612602608084018261241d565b50604083015161261560a0840182612417565b50606083015161262860c0840182612417565b50608083015161263b60e0840182612417565b5060a083015161010083810152610673610120840182612333565b90815260200190565b9182526001600160a01b0316602082015260400190565b938452602084019290925260ff908116604084015216606082015260800190565b9485526001600160a01b03939093166020850152604084019190915260ff908116606084015216608082015260a00190565b6040518181016001600160401b03811182821017156126e757600080fd5b604052919050565b60006001600160401b03821115612704578081fd5b5060209081020190565b6001600160a01b03811681146103c057600080fd5b80151581146103c057600080fd5b6001600160f01b0319811681146103c057600080fd5b60ff811681146103c057600080fdfe7306ab933b6e1df1bd2fddce7143eeedd65d5996fada0e9168c4e8c3d1ece94da264697066735822122060eeef8ce37e1a9d3a8507f66765269e199cbefcc1dc0b6853bee58047f2bcc864736f6c634300060c0033",
  "immutableReferences": {},
  "source": "// SPDX-License-Identifier: LGPL-3.0-or-later\npragma solidity ^0.6.0;\npragma experimental ABIEncoderV2;\n\nimport \"./libraries/ProcedureLibrary.sol\";\nimport \"@openzeppelin/contracts/introspection/ERC165.sol\";\n\n/*\n    A procedure defines a set of operations compiled in a move.\n    The procedure dictates the way the move can be applied.\n\n    @TODO : Add moves getters.\n*/\n\ncontract Procedure is ERC165 {\n    using ProcedureLibrary for ProcedureLibrary.ProcedureData;\n    using ProcedureLibrary for ProcedureLibrary.Move;\n    using OrganLibrary for OrganLibrary.Entry;\n    ProcedureLibrary.ProcedureData private procedureData;\n    bytes4 private constant _INTERFACE_ID_PROCEDURE = 0x71dbd330;\n\n    /**\n        Modifiers.\n    */\n\n    modifier onlyInOrgan(address payable organAddress) {\n        require(ProcedureLibrary.isInOrgan(organAddress, msg.sender), \"Not authorized\");\n        _;\n    }\n\n    /**\n        Procedure constructor.\n    */\n\n    constructor (bytes32 metadataIpfsHash, uint8 metadataHashFunction, uint8 metadataHashSize)\n        public\n    {\n        // Register EIP165 interface for introspection.\n        _registerInterface(_INTERFACE_ID_PROCEDURE);\n        procedureData.init(metadataIpfsHash, metadataHashFunction, metadataHashSize);\n    }\n\n    /**\n        Internal API.\n        A procedure must call this method itself.\n    */\n\n    function applyMove(uint256 moveKey)\n        internal\n    {\n        procedureData.applyMove(moveKey);\n    }\n\n    /**\n        Public API : Procedure Metadata and Admin.\n    */\n\n    function updateMetadata(bytes32 ipfsHash, uint8 hashFunction, uint8 hashSize)\n        public\n    {\n        procedureData.updateMetadata(ipfsHash, hashFunction, hashSize);\n    }\n\n    function updateAdmin(address payable admin)\n        public\n    {\n        procedureData.updateAdmin(admin);\n    }\n\n    /**\n        Public API : Moves creation and update.\n    */\n\n    function createMove(bytes32 ipfsHash, uint8 hashFunction, uint8 hashSize)\n        public returns (uint256)\n    {\n        return procedureData.createMove(ipfsHash, hashFunction, hashSize);\n    }\n\n    function moveAddEntries(\n        uint256 moveKey, address payable organ, OrganLibrary.Entry[] memory entries, bool lock\n    )\n        public\n    {\n        procedureData.moveAddEntries(moveKey, organ, entries, lock);\n    }\n\n    function moveRemoveEntries(\n        uint256 moveKey, address payable organ, uint256[] memory indexes, bool lock\n    )\n        public\n    {\n        procedureData.moveRemoveEntries(moveKey, organ, indexes, lock);\n    }\n\n    function moveReplaceEntry(\n        uint256 moveKey, address payable organ, uint index, address payable addr,\n        bytes32 ipfsHash, uint8 hashFunction, uint8 hashSize, bool lock\n    )\n        public\n    {\n        procedureData.moveReplaceEntry(moveKey, organ, index, addr, ipfsHash, hashFunction, hashSize, lock);\n    }\n\n    function moveAddProcedure(\n        uint256 moveKey, address payable organ, address procedure, bytes2 permissions, bool lock\n    )\n        public\n    {\n        procedureData.moveAddProcedure(moveKey, organ, procedure, permissions, lock);\n    }\n\n    function moveRemoveProcedure(\n        uint256 moveKey, address payable organ, address procedure, bool lock\n    )\n        public\n    {\n        procedureData.moveRemoveProcedure(moveKey, organ, procedure, lock);\n    }\n\n    function moveReplaceProcedure(\n        uint256 moveKey, address payable organ,\n        address oldProcedure, address newProcedure, bytes2 permissions, bool lock\n    )\n        public\n    {\n        procedureData.moveReplaceProcedure(moveKey, organ, oldProcedure, newProcedure, permissions, lock);\n    }\n\n    function moveCall(\n        uint256 moveKey, bytes memory call,  bool lock\n    )\n        public\n    {\n        procedureData.moveCall(moveKey, call, lock);\n    }\n\n    function moveReceiveCollectible(\n        uint256 moveKey, address payable organ, address operator, address target, uint256 token_id, bool lock\n    )\n        public\n    {\n        procedureData.moveReceiveCollectible(moveKey, organ, operator, target, token_id, lock);\n    }\n\n    function moveTransferCollectible(\n        uint256 moveKey, address payable organ, address operator, address target, uint256 token_id, bool lock\n    )\n        public\n    {\n        procedureData.moveTransferCollectible(moveKey, organ, operator, target, token_id, lock);\n    }\n\n    function moveReceiveCoins(\n        uint256 moveKey, address payable organ, address operator, address target, uint256 value, bool lock\n    )\n        public\n    {\n        procedureData.moveReceiveCoins(moveKey, organ, operator, target, value, lock);\n    }\n\n    function moveTransferCoins(\n        uint256 moveKey, address payable organ, address operator, address target, uint256 value, bool lock\n    )\n        public\n    {\n        procedureData.moveTransferCoins(moveKey, organ, operator, target, value, lock);\n    }\n\n    function moveReceiveEther(\n        uint256 moveKey, address payable organ, address target, uint256 value, bool lock\n    )\n        public\n    {\n        procedureData.moveReceiveEther(moveKey, organ, target, value, lock);\n    }\n\n    function moveTransferEther(\n        uint256 moveKey, address payable organ, address target, uint256 value, bool lock\n    )\n        public\n    {\n        procedureData.moveTransferEther(moveKey, organ, target, value, lock);\n    }\n\n    function lockMove(uint256 moveKey)\n        public\n    {\n        procedureData.lockMove(moveKey);\n    }\n\n    /*\n        Accessors.\n    */\n\n    function getMovesLength() public view returns (uint256 length) {\n        return procedureData.movesLength;\n    }\n\n    function getMove(uint256 moveKey) public view returns (ProcedureLibrary.Move memory move) {\n        return procedureData.moves[moveKey];\n    }\n\n    function getMetadata()\n        public\n        view\n        returns (\n            bytes32 ipfsHash,\n            uint8 hashFunction,\n            uint8 hashSize\n        )\n    {\n        return procedureData.getMetadata();\n    }\n}",
  "sourcePath": "/Users/alex/Code/organigr.am/packages/@organigram/contracts/contracts/Procedure.sol",
  "compiler": {
    "name": "solc",
    "version": "0.6.12+commit.27d51765.Emscripten.clang"
  },
  "schemaVersion": "3.3.2",
  "updatedAt": "2020-12-04T21:03:00.793Z",
  "devdoc": {
    "kind": "dev",
    "methods": {
      "supportsInterface(bytes4)": {
        "details": "See {IERC165-supportsInterface}. Time complexity O(1), guaranteed to always use less than 30 000 gas."
      }
    },
    "version": 1
  },
  "userdoc": {
    "kind": "user",
    "methods": {
      "constructor": "Procedure constructor.",
      "createMove(bytes32,uint8,uint8)": {
        "notice": "Public API : Moves creation and update."
      },
      "updateMetadata(bytes32,uint8,uint8)": {
        "notice": "Public API : Procedure Metadata and Admin."
      }
    },
    "version": 1
  }
}