{
  "contractName": "ProcedureLibrary",
  "abi": [
    {
      "anonymous": false,
      "inputs": [
        {
          "indexed": false,
          "internalType": "address",
          "name": "from",
          "type": "address"
        },
        {
          "indexed": false,
          "internalType": "address",
          "name": "admin",
          "type": "address"
        }
      ],
      "name": "AdminUpdated",
      "type": "event"
    },
    {
      "anonymous": false,
      "inputs": [
        {
          "indexed": false,
          "internalType": "address",
          "name": "from",
          "type": "address"
        },
        {
          "indexed": false,
          "internalType": "bytes32",
          "name": "ipfsHash",
          "type": "bytes32"
        },
        {
          "indexed": false,
          "internalType": "uint8",
          "name": "hashFunction",
          "type": "uint8"
        },
        {
          "indexed": false,
          "internalType": "uint8",
          "name": "hashSize",
          "type": "uint8"
        }
      ],
      "name": "MetadataUpdated",
      "type": "event"
    },
    {
      "anonymous": false,
      "inputs": [
        {
          "indexed": true,
          "internalType": "uint256",
          "name": "proposalKey",
          "type": "uint256"
        }
      ],
      "name": "ProposalApplied",
      "type": "event"
    },
    {
      "anonymous": false,
      "inputs": [
        {
          "indexed": true,
          "internalType": "address",
          "name": "moderator",
          "type": "address"
        },
        {
          "indexed": true,
          "internalType": "uint256",
          "name": "proposalKey",
          "type": "uint256"
        },
        {
          "indexed": false,
          "internalType": "bytes32",
          "name": "ipfsHash",
          "type": "bytes32"
        },
        {
          "indexed": false,
          "internalType": "uint8",
          "name": "hashFunction",
          "type": "uint8"
        },
        {
          "indexed": false,
          "internalType": "uint8",
          "name": "hashSize",
          "type": "uint8"
        }
      ],
      "name": "ProposalBlocked",
      "type": "event"
    },
    {
      "anonymous": false,
      "inputs": [
        {
          "indexed": true,
          "internalType": "address",
          "name": "creator",
          "type": "address"
        },
        {
          "indexed": true,
          "internalType": "uint256",
          "name": "proposalKey",
          "type": "uint256"
        }
      ],
      "name": "ProposalCreated",
      "type": "event"
    },
    {
      "anonymous": false,
      "inputs": [
        {
          "indexed": true,
          "internalType": "address",
          "name": "presenter",
          "type": "address"
        },
        {
          "indexed": true,
          "internalType": "uint256",
          "name": "proposalKey",
          "type": "uint256"
        }
      ],
      "name": "ProposalPresented",
      "type": "event"
    },
    {
      "inputs": [
        {
          "internalType": "address payable",
          "name": "organ",
          "type": "address"
        },
        {
          "internalType": "address",
          "name": "caller",
          "type": "address"
        }
      ],
      "name": "isInOrgan",
      "outputs": [
        {
          "internalType": "bool",
          "name": "",
          "type": "bool"
        }
      ],
      "stateMutability": "view",
      "type": "function",
      "constant": true
    }
  ],
  "bytecode": "0x61143661003a600b82828239805160001a60731461002d57634e487b7160e01b600052600060045260246000fd5b30600052607381538281f3fe73000000000000000000000000000000000000000030146080604052600436106100825760003560e01c806303bd73a5146100875780632d41e39a146100ba578063534f4087146100dc5780637c3b86fe146100fc578063851816a51461011f5780638e956e921461013f578063930f8be91461015f578063ce5b8b191461017f575b600080fd5b81801561009357600080fd5b506100a76100a2366004610f95565b610238565b6040519081526020015b60405180910390f35b8180156100c657600080fd5b506100da6100d536600461114c565b610486565b005b8180156100e857600080fd5b506100da6100f7366004610ef3565b610601565b61010f61010a366004610e95565b6106b5565b60405190151581526020016100b1565b81801561012b57600080fd5b506100da61013a36600461114c565b610767565b81801561014b57600080fd5b506100da61015a366004610ece565b610b55565b81801561016b57600080fd5b506100da61017a36600461116e565b610be0565b81801561018b57600080fd5b506100da61019a366004610f20565b84518655602085015160018701805460409097015160ff9081166101000261ffff19909816921691909117959095179094556002850180546001600160a01b039485166001600160a01b03199182161790915560038601805493851693821693909317909255600485018054919093169082161790915560088301805492151560ff1993909316929092179091556005909101805490911633179055565b60028301546000906001600160a01b031661025381336106b5565b6102785760405162461bcd60e51b815260040161026f90611259565b60405180910390fd5b60078501805490600061028a83611393565b909155506000818152600687016020908152604080832080546001600160a01b031916331781558851600182015591880151600290920180549189015160ff9081166101000261ffff199093169316929092171790559092505b835181101561042557600083815260068088016020908152604092839020835160a0810190945290910180548352865190929182019087908590811061032c5761032c6113bc565b6020026020010151602001516001600160a01b03168152602001868481518110610358576103586113bc565b602002602001015160400151815260200186848151811061037b5761037b6113bc565b60209081029190910181015160600151825260009181018290528354600180820186559483529181902083516005909302019182558281015193820180546001600160a01b0319166001600160a01b039095169490941790935560408201518051929391926103f09260028501920190610d6f565b50606082015160038201556080909101516004909101805460ff191691151591909117905561041e81611393565b90506102e4565b50600885015460ff166104515760008281526006860160205260409020600501805460ff191660011790555b604051829033907fe28da1d80dec4ece82645bd52ae6a4118887a7cb56436b4024affa3b5d4463c990600090a3509392505050565b60038201546001600160a01b031661049e81336106b5565b6104ba5760405162461bcd60e51b815260040161026f90611259565b60008281526006840160205260409020600501548390839060ff161580156104fc5750600081815260068301602052604090206005015462010000900460ff16155b8015610523575060008181526006830160205260409020600501546301000000900460ff16155b801561054857506000818152600683016020526040902060050154610100900460ff16155b6105645760405162461bcd60e51b815260040161026f906112d8565b600885015460ff166105b25760405162461bcd60e51b815260206004820152601760248201527626b7b232b930ba34b7b7103737ba1032b730b13632b21760491b604482015260640161026f565b6000848152600686016020526040808220600501805460ff1916600117905551859133917fd452f6b01002e18903a0a24747d049ae78bd0abe7c6d1bebf2f13d521e43a37e9190a35050505050565b60058201546001600160a01b031661061981336106b5565b6106355760405162461bcd60e51b815260040161026f90611259565b815180845560208084015160018601805460408088015160ff94851661ffff199093168317610100959091169485021790925581513381529384019490945282019290925260608101919091527fbc1b4710911da51fdc89eb3f10a10b210570c30ed0d2abc33e050487a1afc46f906080015b60405180910390a1505050565b60006001600160a01b03831615806106de5750816001600160a01b0316836001600160a01b0316145b806107605750604051631795f8c760e11b81526001600160a01b038381166004830152841690632f2bf18e9060240160206040518083038186803b15801561072557600080fd5b505afa158015610739573d6000803e3d6000fd5b505050506040513d601f19601f8201168201806040525081019061075d91906111a4565b15155b9392505050565b60008181526006830160205260409020600501548290829062010000900460ff1680156107af575060008181526006830160205260409020600501546301000000900460ff16155b80156107d457506000818152600683016020526040902060050154610100900460ff16155b6107f05760405162461bcd60e51b815260040161026f906112d8565b60005b6000848152600680870160205260409091200154811015610b035760008481526006808701602052604090912001805482908110610833576108336113bc565b600091825260209091206004600590920201015460ff16610af357600084815260068087016020526040822001805483908110610872576108726113bc565b60009182526020909120600160059092020101546001600160a01b0316146109c0576000848152600680870160205260408220018054839081106108b8576108b86113bc565b60009182526020808320600160059093020191909101548783526006808a0190925260409092200180546001600160a01b0390921691849081106108fe576108fe6113bc565b9060005260206000209060050201600301548760060160008881526020019081526020016000206006018481548110610939576109396113bc565b906000526020600020906005020160020160405161095791906111bd565b60006040518083038185875af1925050503d8060008114610994576040519150601f19603f3d011682016040523d82523d6000602084013e610999565b606091505b50509050806109ba5760405162461bcd60e51b815260040161026f90611282565b50610aa5565b6000848152600680870160205260408220018054339190849081106109e7576109e76113bc565b9060005260206000209060050201600301548760060160008881526020019081526020016000206006018481548110610a2257610a226113bc565b9060005260206000209060050201600201604051610a4091906111bd565b60006040518083038185875af1925050503d8060008114610a7d576040519150601f19603f3d011682016040523d82523d6000602084013e610a82565b606091505b5050905080610aa35760405162461bcd60e51b815260040161026f90611282565b505b60018560060160008681526020019081526020016000206006018281548110610ad057610ad06113bc565b60009182526020909120600590910201600401805460ff19169115159190911790555b610afc81611393565b90506107f3565b506000838152600685016020526040808220600501805463ff000000191663010000001790555184917f371ea0b2792b493783478379b73e5d65d5f7e3d03fe343fbe6396d87ece6562491a250505050565b60058201546001600160a01b0316610b6d81336106b5565b610b895760405162461bcd60e51b815260040161026f90611259565b6005830180546001600160a01b0319166001600160a01b0384169081179091556040805133815260208101929092527f101b8081ff3b56bbf45deb824d86a3b0fd38b7e3dd42421105cf8abe9106db0b91016106a8565b60038301546001600160a01b0316610bf881336106b5565b610c145760405162461bcd60e51b815260040161026f90611259565b6000838152600685016020526040902060050154610100900460ff1615610c705760405162461bcd60e51b815260206004820152601060248201526f20b63932b0b23c90313637b1b5b2b21760811b604482015260640161026f565b60008381526006850160205260409020600501546301000000900460ff1615610cce5760405162461bcd60e51b815260206004820152601060248201526f20b63932b0b23c9030b8383634b2b21760811b604482015260640161026f565b600083815260068501602090815260409182902060058101805461ff00191661010090811790915585516003830181905586840151600490930180548887015160ff90811694850261ffff19909216951694851717905584519081529283019190915291810191909152839033907f32c4ed80af1b5ec3a70ba1c24f2bf1f998ae3dcae77e2b4b8b2032b404c823b79060600160405180910390a350505050565b828054610d7b90611358565b90600052602060002090601f016020900481019282610d9d5760008555610de3565b82601f10610db657805160ff1916838001178555610de3565b82800160010185558215610de3579182015b82811115610de3578251825591602001919060010190610dc8565b50610def929150610df3565b5090565b5b80821115610def5760008155600101610df4565b80358015158114610e1857600080fd5b919050565b600060608284031215610e2f57600080fd5b604051606081016001600160401b0381118282101715610e5157610e516113d2565b60405282358152905080610e6760208401610e84565b6020820152610e7860408401610e84565b60408201525092915050565b803560ff81168114610e1857600080fd5b60008060408385031215610ea857600080fd5b8235610eb3816113e8565b91506020830135610ec3816113e8565b809150509250929050565b60008060408385031215610ee157600080fd5b823591506020830135610ec3816113e8565b60008060808385031215610f0657600080fd5b82359150610f178460208501610e1d565b90509250929050565b6000806000806000806101008789031215610f3a57600080fd5b86359550610f4b8860208901610e1d565b94506080870135610f5b816113e8565b935060a0870135610f6b816113e8565b925060c0870135610f7b816113e8565b9150610f8960e08801610e08565b90509295509295509295565b600080600060a08486031215610faa57600080fd5b83359250610fbb8560208601610e1d565b91506001600160401b036080850135811015610fd657600080fd5b6080850135850186601f820112610fec57600080fd5b8181351115610ffd57610ffd6113d2565b61100d6020823560051b01611328565b808235825260208201915060208301896020853560051b860101111561103257600080fd5b60005b843581101561113c57858235111561104c57600080fd5b81358501601f1960a0828e038201121561106557600080fd5b61106d611300565b6020830135815261108160408401356113e8565b60408301356020820152886060840135111561109c57600080fd5b606083013583018e603f8201126110b257600080fd5b60208101358a8111156110c7576110c76113d2565b6110d8602085601f84011601611328565b93508084528f60408284010111156110ef57600080fd5b8060408301602086013760006020828601015250508160408201526080830135606082015261112060a08401610e08565b6080820152865250506020938401939190910190600101611035565b5050809450505050509250925092565b6000806040838503121561115f57600080fd5b50508035926020909101359150565b600080600060a0848603121561118357600080fd5b833592506020840135915061119b8560408601610e1d565b90509250925092565b6000602082840312156111b657600080fd5b5051919050565b600080835481600182811c9150808316806111d957607f831692505b60208084108214156111f957634e487b7160e01b86526022600452602486fd5b81801561120d576001811461121e5761124b565b60ff1986168952848901965061124b565b60008a81526020902060005b868110156112435781548b82015290850190830161122a565b505084890196505b509498975050505050505050565b6020808252600f908201526e2737ba1030baba3437b934bd32b21760891b604082015260600190565b60208082526036908201527f50726f706f73616c206e6f74206170706c6965642c20756e6465726c79696e67604082015275103a3930b739b0b1ba34b7b7103932bb32b93a32b21760511b606082015260800190565b6020808252600e908201526d139bdd08185d5d1a1bdc9a5e995960921b604082015260600190565b60405160a081016001600160401b0381118282101715611322576113226113d2565b60405290565b604051601f8201601f191681016001600160401b0381118282101715611350576113506113d2565b604052919050565b600181811c9082168061136c57607f821691505b6020821081141561138d57634e487b7160e01b600052602260045260246000fd5b50919050565b60006000198214156113b557634e487b7160e01b600052601160045260246000fd5b5060010190565b634e487b7160e01b600052603260045260246000fd5b634e487b7160e01b600052604160045260246000fd5b6001600160a01b03811681146113fd57600080fd5b5056fea26469706673582212201b9acd7cd94bfdf9d6bd81cc0d0d7ab2a8819dc4111d8e5afbd127080d4923be64736f6c63430008060033",
  "immutableReferences": {},
  "source": "// SPDX-License-Identifier: LGPL-3.0-or-later\npragma solidity ^0.8.0;\npragma experimental ABIEncoderV2;\n\nimport \"../IOrgan.sol\";\nimport \"./CoreLibrary.sol\";\n\n/*\n    Organigr.am Contracts Framework - Procedure library.\n    This library holds the logic common to all procedures.\n\n    A procedure can affect an organ by :\n    - Adding, removing, replacing entries.\n    - Adding, removing, replacing procedures.\n    - Withdrawing funds and transferring them to another organ.\n    The procedure can process several operations inside one proposal.\n*/\n\nlibrary ProcedureLibrary {\n    using CoreLibrary for CoreLibrary.Metadata;\n\n    struct ProcedureData {\n        CoreLibrary.Metadata metadata;\n        address payable proposers;\n        address payable moderators;\n        address payable deciders;\n        address payable admin;\n        mapping (uint256 => Proposal) proposals;\n        uint256 proposalsLength;\n        bool withModeration;\n    }\n\n    struct Proposal {\n        address payable creator;\n        CoreLibrary.Metadata metadata;\n        CoreLibrary.Metadata blockReason;\n        bool presented;\n        bool blocked;\n        bool adopted;\n        bool applied;\n        Operation[] operations;\n    }\n\n    struct Operation {\n        uint256 index;\n        address payable organ;\n        bytes data;\n        uint256 value;\n        bool processed;\n    }\n\n    /**\n        Modifiers.\n    */\n    modifier onlyInOrgan(address payable organAddress) {\n        require(isInOrgan(organAddress, msg.sender), \"Not authorized.\");\n        _;\n    }\n\n    modifier onlyNewProposal(ProcedureData storage self, uint256 proposalKey) {\n        require(\n            !self.proposals[proposalKey].presented\n            && !self.proposals[proposalKey].adopted\n            && !self.proposals[proposalKey].applied\n            && !self.proposals[proposalKey].blocked,\n            \"Not authorized\"\n        );\n        _;\n    }\n\n    modifier onlyAdoptedProposal(ProcedureData storage self, uint256 proposalKey) {\n        require(\n            self.proposals[proposalKey].adopted\n            && !self.proposals[proposalKey].applied\n            && !self.proposals[proposalKey].blocked,\n            \"Not authorized\"\n        );\n        _;\n    }\n\n    modifier onlyPresentedProposal(ProcedureData storage self, uint256 proposalKey) {\n        require(\n            self.proposals[proposalKey].presented\n            && !self.proposals[proposalKey].adopted\n            && !self.proposals[proposalKey].applied\n            && !self.proposals[proposalKey].blocked,\n            \"Not authorized\"\n        );\n        _;\n    }\n\n    /**\n        Events.\n    */\n\n    event MetadataUpdated(address from, bytes32 ipfsHash, uint8 hashFunction, uint8 hashSize);\n    event AdminUpdated(address from, address admin);\n    event ProposalCreated(address indexed creator, uint256 indexed proposalKey);\n    event ProposalBlocked(\n        address indexed moderator,\n        uint256 indexed proposalKey,\n        bytes32 ipfsHash,\n        uint8 hashFunction,\n        uint8 hashSize\n    );\n    event ProposalPresented(address indexed presenter, uint256 indexed proposalKey);\n    event ProposalApplied(uint256 indexed proposalKey);\n\n    /*\n        Procedure management.\n    */\n\n    function init(\n        ProcedureData storage self,\n        CoreLibrary.Metadata memory metadata,\n        address payable proposers,\n        address payable moderators,\n        address payable deciders,\n        bool withModeration // Adds an extra step where moderators can block a proposal before deciders.\n    )\n        public\n    {\n        self.metadata = metadata;\n        self.proposers = proposers;\n        self.moderators = moderators;\n        self.deciders = deciders;\n        self.withModeration = withModeration;\n        self.admin = payable(msg.sender);\n    }\n\n    /**\n        Admin API.\n    */\n\n    function updateAdmin(ProcedureData storage self, address payable admin)\n        public onlyInOrgan(self.admin)\n    {\n        self.admin = admin;\n        emit AdminUpdated(msg.sender, admin);\n    }\n\n    function updateMetadata(\n        ProcedureData storage self, CoreLibrary.Metadata memory metadata\n    )\n        public onlyInOrgan(self.admin)\n    {\n        self.metadata = metadata;\n        emit MetadataUpdated(msg.sender, metadata.ipfsHash, metadata.hashFunction, metadata.hashSize);\n    }\n\n    /**\n        Utils.\n    */\n    function isInOrgan(address payable organ, address caller)\n        public view returns (bool)\n    {\n        return organ == address(0) || organ == caller || IOrgan(organ).getEntryIndexForAddress(caller) != 0;\n    }\n\n    /**\n        External API.\n    */\n\n    /// @notice Proposers can create a proposal with a set of operations.\n    /// @dev Merge with proposalCall.\n    /// @param metadata Metadata describing the proposal, stored on IPFS.\n    /// @param operations Set of solidity calls on the procedure or given organ.\n    /// @return proposalKey of proposal created.\n    function propose(\n        ProcedureData storage self,\n        CoreLibrary.Metadata memory metadata,\n        Operation[] memory operations\n    )\n        public\n        onlyInOrgan(self.proposers)\n        returns (uint256 proposalKey)\n    {\n        proposalKey = self.proposalsLength++;\n        self.proposals[proposalKey].creator = payable(msg.sender);\n        self.proposals[proposalKey].metadata = metadata;\n        for (uint256 i = 0 ; i < operations.length ; ++i) {\n            self.proposals[proposalKey].operations.push(Operation({\n                index: self.proposals[proposalKey].operations.length,\n                organ: operations[i].organ,\n                data: operations[i].data,\n                value: operations[i].value,\n                processed: false\n            }));\n        }\n\n        if (!self.withModeration) {\n            self.proposals[proposalKey].presented = true;\n        }\n        emit ProposalCreated(msg.sender, proposalKey);\n        return proposalKey;\n    }\n\n    /// @notice Block proposal (veto).\n    /// @param proposalKey of proposal.\n    /// @param reason for blocking the proposal.\n    function blockProposal(\n        ProcedureData storage self,\n        uint256 proposalKey,\n        CoreLibrary.Metadata memory reason\n    )\n        public\n        onlyInOrgan(self.moderators)\n    {\n        require(!self.proposals[proposalKey].blocked, \"Already blocked.\");\n        require(!self.proposals[proposalKey].applied, \"Already applied.\");\n        self.proposals[proposalKey].blocked = true;\n        self.proposals[proposalKey].blockReason = reason;\n        emit ProposalBlocked(msg.sender, proposalKey, reason.ipfsHash, reason.hashFunction, reason.hashSize);\n    }\n\n    /// @notice Present proposal, in Moderation mode.\n    /// @param proposalKey of proposal.\n    function presentProposal(\n        ProcedureData storage self,\n        uint256 proposalKey\n    )\n        public\n        onlyInOrgan(self.moderators)\n        onlyNewProposal(self, proposalKey)\n    {\n        require(self.withModeration, \"Moderation not enabled.\");\n        self.proposals[proposalKey].presented = true;\n        emit ProposalPresented(msg.sender, proposalKey);\n    }\n\n    /// @notice Adopt proposal and attempt to apply it.\n    /// @dev Should only be called once by parent contract.\n    /// @param proposalKey of proposal.\n    function adoptProposal(ProcedureData storage self, uint256 proposalKey)\n        internal\n        onlyPresentedProposal(self, proposalKey)\n    {\n        self.proposals[proposalKey].adopted = true;\n        applyProposal(self, proposalKey);\n    }\n\n    /// @notice Apply an adopted proposal.\n    /// @param proposalKey of proposal.\n    function applyProposal(ProcedureData storage self, uint256 proposalKey)\n        public\n        onlyAdoptedProposal(self, proposalKey)\n    {\n        // Process operations.\n        for (uint256 i = 0; i < self.proposals[proposalKey].operations.length; ++i) {\n            if (!self.proposals[proposalKey].operations[i].processed) {\n                if (self.proposals[proposalKey].operations[i].organ != address(0)) {\n                    // solhint-disable-next-line avoid-low-level-calls\n                    (bool success,) = self.proposals[proposalKey].operations[i].organ.call{value: self.proposals[proposalKey].operations[i].value}(self.proposals[proposalKey].operations[i].data);\n                    require(success, \"Proposal not applied, underlying transaction reverted.\");\n                } else {\n                    // solhint-disable-next-line avoid-low-level-calls\n                    (bool success,) = address(msg.sender).call{value: self.proposals[proposalKey].operations[i].value}(self.proposals[proposalKey].operations[i].data);\n                    require(success, \"Proposal not applied, underlying transaction reverted.\");\n                }\n                self.proposals[proposalKey].operations[i].processed = true;\n            }\n        }\n        self.proposals[proposalKey].applied = true;\n        emit ProposalApplied(proposalKey);\n    }\n}",
  "sourcePath": "/Users/alex/Code/organigr.am-refactoring/packages/@organigram/contracts/contracts/libraries/ProcedureLibrary.sol",
  "compiler": {
    "name": "solc",
    "version": "0.8.6+commit.11564f7e.Emscripten.clang"
  },
  "schemaVersion": "3.4.1",
  "updatedAt": "2021-07-05T14:11:45.171Z",
  "networkType": "ethereum",
  "devdoc": {
    "kind": "dev",
    "methods": {
      "applyProposal(ProcedureLibrary.ProcedureData storage,uint256)": {
        "params": {
          "proposalKey": "of proposal."
        }
      },
      "blockProposal(ProcedureLibrary.ProcedureData storage,uint256,CoreLibrary.Metadata)": {
        "params": {
          "proposalKey": "of proposal.",
          "reason": "for blocking the proposal."
        }
      },
      "presentProposal(ProcedureLibrary.ProcedureData storage,uint256)": {
        "params": {
          "proposalKey": "of proposal."
        }
      },
      "propose(ProcedureLibrary.ProcedureData storage,CoreLibrary.Metadata,ProcedureLibrary.Operation[])": {
        "details": "Merge with proposalCall.",
        "params": {
          "metadata": "Metadata describing the proposal, stored on IPFS.",
          "operations": "Set of solidity calls on the procedure or given organ."
        },
        "returns": {
          "proposalKey": "of proposal created."
        }
      }
    },
    "version": 1
  },
  "userdoc": {
    "events": {
      "MetadataUpdated(address,bytes32,uint8,uint8)": {
        "notice": "Events."
      }
    },
    "kind": "user",
    "methods": {
      "applyProposal(ProcedureLibrary.ProcedureData storage,uint256)": {
        "notice": "Apply an adopted proposal."
      },
      "blockProposal(ProcedureLibrary.ProcedureData storage,uint256,CoreLibrary.Metadata)": {
        "notice": "Block proposal (veto)."
      },
      "isInOrgan(address,address)": {
        "notice": "Utils."
      },
      "presentProposal(ProcedureLibrary.ProcedureData storage,uint256)": {
        "notice": "Present proposal, in Moderation mode."
      },
      "propose(ProcedureLibrary.ProcedureData storage,CoreLibrary.Metadata,ProcedureLibrary.Operation[])": {
        "notice": "Proposers can create a proposal with a set of operations."
      },
      "updateAdmin(ProcedureLibrary.ProcedureData storage,address)": {
        "notice": "Admin API."
      }
    },
    "version": 1
  }
}