{
  "contractName": "Procedure",
  "abi": [
    {
      "inputs": [],
      "stateMutability": "nonpayable",
      "type": "constructor"
    },
    {
      "inputs": [],
      "name": "INTERFACE_ID",
      "outputs": [
        {
          "internalType": "bytes4",
          "name": "",
          "type": "bytes4"
        }
      ],
      "stateMutability": "view",
      "type": "function"
    },
    {
      "inputs": [
        {
          "internalType": "bytes4",
          "name": "interfaceId",
          "type": "bytes4"
        }
      ],
      "name": "supportsInterface",
      "outputs": [
        {
          "internalType": "bool",
          "name": "",
          "type": "bool"
        }
      ],
      "stateMutability": "view",
      "type": "function"
    },
    {
      "inputs": [
        {
          "components": [
            {
              "internalType": "bytes32",
              "name": "ipfsHash",
              "type": "bytes32"
            },
            {
              "internalType": "uint8",
              "name": "hashFunction",
              "type": "uint8"
            },
            {
              "internalType": "uint8",
              "name": "hashSize",
              "type": "uint8"
            }
          ],
          "internalType": "struct CoreLibrary.Metadata",
          "name": "_metadata",
          "type": "tuple"
        },
        {
          "internalType": "address payable",
          "name": "_proposers",
          "type": "address"
        },
        {
          "internalType": "address payable",
          "name": "_moderators",
          "type": "address"
        },
        {
          "internalType": "address payable",
          "name": "_deciders",
          "type": "address"
        },
        {
          "internalType": "bool",
          "name": "_withModeration",
          "type": "bool"
        }
      ],
      "name": "initialize",
      "outputs": [],
      "stateMutability": "nonpayable",
      "type": "function"
    },
    {
      "inputs": [
        {
          "components": [
            {
              "internalType": "bytes32",
              "name": "ipfsHash",
              "type": "bytes32"
            },
            {
              "internalType": "uint8",
              "name": "hashFunction",
              "type": "uint8"
            },
            {
              "internalType": "uint8",
              "name": "hashSize",
              "type": "uint8"
            }
          ],
          "internalType": "struct CoreLibrary.Metadata",
          "name": "metadata",
          "type": "tuple"
        }
      ],
      "name": "updateMetadata",
      "outputs": [],
      "stateMutability": "nonpayable",
      "type": "function"
    },
    {
      "inputs": [
        {
          "internalType": "address payable",
          "name": "admin",
          "type": "address"
        }
      ],
      "name": "updateAdmin",
      "outputs": [],
      "stateMutability": "nonpayable",
      "type": "function"
    },
    {
      "inputs": [
        {
          "components": [
            {
              "internalType": "bytes32",
              "name": "ipfsHash",
              "type": "bytes32"
            },
            {
              "internalType": "uint8",
              "name": "hashFunction",
              "type": "uint8"
            },
            {
              "internalType": "uint8",
              "name": "hashSize",
              "type": "uint8"
            }
          ],
          "internalType": "struct CoreLibrary.Metadata",
          "name": "metadata",
          "type": "tuple"
        },
        {
          "components": [
            {
              "internalType": "uint256",
              "name": "index",
              "type": "uint256"
            },
            {
              "internalType": "address payable",
              "name": "organ",
              "type": "address"
            },
            {
              "internalType": "bytes",
              "name": "data",
              "type": "bytes"
            },
            {
              "internalType": "uint256",
              "name": "value",
              "type": "uint256"
            },
            {
              "internalType": "bool",
              "name": "processed",
              "type": "bool"
            }
          ],
          "internalType": "struct ProcedureLibrary.Operation[]",
          "name": "operations",
          "type": "tuple[]"
        }
      ],
      "name": "propose",
      "outputs": [
        {
          "internalType": "uint256",
          "name": "proposalKey",
          "type": "uint256"
        }
      ],
      "stateMutability": "nonpayable",
      "type": "function"
    },
    {
      "inputs": [
        {
          "internalType": "uint256",
          "name": "proposalKey",
          "type": "uint256"
        },
        {
          "components": [
            {
              "internalType": "bytes32",
              "name": "ipfsHash",
              "type": "bytes32"
            },
            {
              "internalType": "uint8",
              "name": "hashFunction",
              "type": "uint8"
            },
            {
              "internalType": "uint8",
              "name": "hashSize",
              "type": "uint8"
            }
          ],
          "internalType": "struct CoreLibrary.Metadata",
          "name": "reason",
          "type": "tuple"
        }
      ],
      "name": "blockProposal",
      "outputs": [],
      "stateMutability": "nonpayable",
      "type": "function"
    },
    {
      "inputs": [
        {
          "internalType": "uint256",
          "name": "proposalKey",
          "type": "uint256"
        }
      ],
      "name": "presentProposal",
      "outputs": [],
      "stateMutability": "nonpayable",
      "type": "function"
    },
    {
      "inputs": [
        {
          "internalType": "uint256",
          "name": "proposalKey",
          "type": "uint256"
        }
      ],
      "name": "adoptProposal",
      "outputs": [],
      "stateMutability": "nonpayable",
      "type": "function"
    },
    {
      "inputs": [
        {
          "internalType": "uint256",
          "name": "proposalKey",
          "type": "uint256"
        }
      ],
      "name": "applyProposal",
      "outputs": [],
      "stateMutability": "nonpayable",
      "type": "function"
    },
    {
      "inputs": [],
      "name": "getProcedure",
      "outputs": [
        {
          "components": [
            {
              "internalType": "bytes32",
              "name": "ipfsHash",
              "type": "bytes32"
            },
            {
              "internalType": "uint8",
              "name": "hashFunction",
              "type": "uint8"
            },
            {
              "internalType": "uint8",
              "name": "hashSize",
              "type": "uint8"
            }
          ],
          "internalType": "struct CoreLibrary.Metadata",
          "name": "metadata",
          "type": "tuple"
        },
        {
          "internalType": "address payable",
          "name": "proposers",
          "type": "address"
        },
        {
          "internalType": "address payable",
          "name": "moderators",
          "type": "address"
        },
        {
          "internalType": "address payable",
          "name": "deciders",
          "type": "address"
        },
        {
          "internalType": "bool",
          "name": "withModeration",
          "type": "bool"
        },
        {
          "internalType": "uint256",
          "name": "proposalsLength",
          "type": "uint256"
        }
      ],
      "stateMutability": "view",
      "type": "function"
    },
    {
      "inputs": [
        {
          "internalType": "uint256",
          "name": "proposalKey",
          "type": "uint256"
        }
      ],
      "name": "getProposal",
      "outputs": [
        {
          "components": [
            {
              "internalType": "address payable",
              "name": "creator",
              "type": "address"
            },
            {
              "components": [
                {
                  "internalType": "bytes32",
                  "name": "ipfsHash",
                  "type": "bytes32"
                },
                {
                  "internalType": "uint8",
                  "name": "hashFunction",
                  "type": "uint8"
                },
                {
                  "internalType": "uint8",
                  "name": "hashSize",
                  "type": "uint8"
                }
              ],
              "internalType": "struct CoreLibrary.Metadata",
              "name": "metadata",
              "type": "tuple"
            },
            {
              "components": [
                {
                  "internalType": "bytes32",
                  "name": "ipfsHash",
                  "type": "bytes32"
                },
                {
                  "internalType": "uint8",
                  "name": "hashFunction",
                  "type": "uint8"
                },
                {
                  "internalType": "uint8",
                  "name": "hashSize",
                  "type": "uint8"
                }
              ],
              "internalType": "struct CoreLibrary.Metadata",
              "name": "blockReason",
              "type": "tuple"
            },
            {
              "internalType": "bool",
              "name": "presented",
              "type": "bool"
            },
            {
              "internalType": "bool",
              "name": "blocked",
              "type": "bool"
            },
            {
              "internalType": "bool",
              "name": "adopted",
              "type": "bool"
            },
            {
              "internalType": "bool",
              "name": "applied",
              "type": "bool"
            },
            {
              "components": [
                {
                  "internalType": "uint256",
                  "name": "index",
                  "type": "uint256"
                },
                {
                  "internalType": "address payable",
                  "name": "organ",
                  "type": "address"
                },
                {
                  "internalType": "bytes",
                  "name": "data",
                  "type": "bytes"
                },
                {
                  "internalType": "uint256",
                  "name": "value",
                  "type": "uint256"
                },
                {
                  "internalType": "bool",
                  "name": "processed",
                  "type": "bool"
                }
              ],
              "internalType": "struct ProcedureLibrary.Operation[]",
              "name": "operations",
              "type": "tuple[]"
            }
          ],
          "internalType": "struct ProcedureLibrary.Proposal",
          "name": "",
          "type": "tuple"
        }
      ],
      "stateMutability": "view",
      "type": "function"
    }
  ],
  "bytecode": "0x608060405234801561001057600080fd5b5060408051606081018252600080825260208201818152828401828152935163ce5b8b1960e01b815260016004820152925160248401525160ff9081166044840152925190921660648201526084810182905260a4810182905260c4810182905260e481019190915273__ProcedureLibrary______________________9063ce5b8b19906101040160006040518083038186803b1580156100b157600080fd5b505af41580156100c5573d6000803e3d6000fd5b5050505061165b806100d86000396000f3fe608060405234801561001057600080fd5b50600436106100a45760003560e01c806301ffc9a7146100a957806309b862b9146100d15780631e390607146100f85780634bd46ad11461010d5780634d3f8407146101205780635d5ee920146101335780637823c508146101465780637983f0c114610159578063c7f758a81461016c578063e2f273bd1461018c578063eb3ebcb21461019f578063f22d9c7a146101c0575b600080fd5b6100bc6100b7366004610f1c565b6101da565b60405190151581526020015b60405180910390f35b6100df63071dbd3360e41b81565b6040516001600160e01b031990911681526020016100c8565b61010b61010636600461109a565b610211565b005b61010b61011b3660046110ca565b61027f565b61010b61012e366004610f44565b6102ef565b61010b610141366004610f5f565b610329565b61010b61015436600461109a565b610457565b61010b61016736600461109a565b610496565b61017f61017a36600461109a565b6104a4565b6040516100c891906114bd565b61010b61019a366004610f02565b61069d565b6101b26101ad366004610fc4565b6106e4565b6040519081526020016100c8565b6101c861077a565b6040516100c896959493929190611320565b60006001600160e01b0319821663071dbd3360e41b148061020b57506301ffc9a760e01b6001600160e01b03198316145b92915050565b60405163851816a560e01b8152600160048201526024810182905273__ProcedureLibrary______________________9063851816a5906044015b60006040518083038186803b15801561026457600080fd5b505af4158015610278573d6000803e3d6000fd5b5050505050565b60405163930f8be960e01b815273__ProcedureLibrary______________________9063930f8be9906102bb9060019086908690600401611475565b60006040518083038186803b1580156102d357600080fd5b505af41580156102e7573d6000803e3d6000fd5b505050505050565b60405163534f408760e01b815273__ProcedureLibrary______________________9063534f40879061024c906001908590600401611363565b600054610100900460ff1680610342575060005460ff16155b6103aa5760405162461bcd60e51b815260206004820152602e60248201527f496e697469616c697a61626c653a20636f6e747261637420697320616c72656160448201526d191e481a5b9a5d1a585b1a5e995960921b60648201526084015b60405180910390fd5b600054610100900460ff161580156103cc576000805461ffff19166101011790555b60405163ce5b8b1960e01b815273__ProcedureLibrary______________________9063ce5b8b199061040e906001908a908a908a908a908a90600401611377565b60006040518083038186803b15801561042657600080fd5b505af415801561043a573d6000803e3d6000fd5b5050505080156102e7576000805461ff0019169055505050505050565b6040516316a0f1cd60e11b8152600160048201526024810182905273__ProcedureLibrary______________________90632d41e39a9060440161024c565b6104a16001826107d7565b50565b6104ac610d10565b60008281526007602090815260408083208151610100808201845282546001600160a01b0316825283516060808201865260018501548252600285015460ff808216848a0152908490048116838801528488019290925285518082018752600386015481526004860154808416828a01528490048316818801528487015260058501548083161515918501919091529182048116151560808401526201000082048116151560a0840152630100000090910416151560c08201526006820180548451818702810187019095528085529195929460e0870194939192919084015b8282101561068f5760008481526020908190206040805160a081018252600586029092018054835260018101546001600160a01b031693830193909352600283018054929392918401916105df906115ad565b80601f016020809104026020016040519081016040528092919081815260200182805461060b906115ad565b80156106585780601f1061062d57610100808354040283529160200191610658565b820191906000526020600020905b81548152906001019060200180831161063b57829003601f168201915b5050509183525050600382015460208083019190915260049092015460ff161515604090910152908252600192909201910161058c565b505050915250909392505050565b60405163474ab74960e11b8152600160048201526001600160a01b038216602482015273__ProcedureLibrary______________________90638e956e929060440161024c565b6040516303bd73a560e01b815260009073__ProcedureLibrary______________________906303bd73a59061072390600190879087906004016113bf565b60206040518083038186803b15801561073b57600080fd5b505af415801561074f573d6000803e3d6000fd5b505050506040513d601f19601f8201168201806040525081019061077391906110b2565b9392505050565b610782610d6c565b5060035460045460055460095460085460408051606081018252600154815260025460ff8181166020840152610100909104811692820192909252956001600160a01b03908116958116941692169192939495565b60008181526006830160205260409020600501548290829060ff1680156108185750600081815260068301602052604090206005015462010000900460ff16155b801561083f575060008181526006830160205260409020600501546301000000900460ff16155b801561086457506000818152600683016020526040902060050154610100900460ff16155b6108805760405162461bcd60e51b81526004016103a1906112f8565b60008381526006850160205260409020600501805462ff00001916620100001790556108ac84846108b2565b50505050565b60008181526006830160205260409020600501548290829062010000900460ff1680156108fa575060008181526006830160205260409020600501546301000000900460ff16155b801561091f57506000818152600683016020526040902060050154610100900460ff16155b61093b5760405162461bcd60e51b81526004016103a1906112f8565b60005b6000848152600680870160205260409091200154811015610cbe576000848152600680870160205260409091200180548290811061098c57634e487b7160e01b600052603260045260246000fd5b600091825260209091206004600590920201015460ff16610cae576000848152600680870160205260408220018054839081106109d957634e487b7160e01b600052603260045260246000fd5b60009182526020909120600160059092020101546001600160a01b031614610b5157600084815260068087016020526040822001805483908110610a2d57634e487b7160e01b600052603260045260246000fd5b60009182526020808320600160059093020191909101548783526006808a0190925260409092200180546001600160a01b039092169184908110610a8157634e487b7160e01b600052603260045260246000fd5b9060005260206000209060050201600301548760060160008881526020019081526020016000206006018481548110610aca57634e487b7160e01b600052603260045260246000fd5b9060005260206000209060050201600201604051610ae89190611207565b60006040518083038185875af1925050503d8060008114610b25576040519150601f19603f3d011682016040523d82523d6000602084013e610b2a565b606091505b5050905080610b4b5760405162461bcd60e51b81526004016103a1906112a2565b50610c52565b600084815260068087016020526040822001805433919084908110610b8657634e487b7160e01b600052603260045260246000fd5b9060005260206000209060050201600301548760060160008881526020019081526020016000206006018481548110610bcf57634e487b7160e01b600052603260045260246000fd5b9060005260206000209060050201600201604051610bed9190611207565b60006040518083038185875af1925050503d8060008114610c2a576040519150601f19603f3d011682016040523d82523d6000602084013e610c2f565b606091505b5050905080610c505760405162461bcd60e51b81526004016103a1906112a2565b505b60018560060160008681526020019081526020016000206006018281548110610c8b57634e487b7160e01b600052603260045260246000fd5b60009182526020909120600590910201600401805460ff19169115159190911790555b610cb7816115e8565b905061093e565b506000838152600685016020526040808220600501805463ff000000191663010000001790555184917f371ea0b2792b493783478379b73e5d65d5f7e3d03fe343fbe6396d87ece6562491a250505050565b60405180610100016040528060006001600160a01b03168152602001610d34610d6c565b8152602001610d41610d6c565b8152600060208201819052604082018190526060808301829052608083019190915260a09091015290565b604080516060810182526000808252602082018190529181019190915290565b80356001600160a01b0381168114610da357600080fd5b919050565b80358015158114610da357600080fd5b600060608284031215610dc9578081fd5b604051606081016001600160401b0381118282101715610deb57610deb61160f565b60405282358152905080610e0160208401610ef1565b6020820152610e1260408401610ef1565b60408201525092915050565b600060a08284031215610e2f578081fd5b610e37611555565b9050813581526020610e4a818401610d8c565b8282015260408301356001600160401b0380821115610e6857600080fd5b818501915085601f830112610e7c57600080fd5b813581811115610e8e57610e8e61160f565b610ea0601f8201601f1916850161157d565b91508082528684828501011115610eb657600080fd5b808484018584013760008482840101525080604085015250505060608201356060820152610ee660808301610da8565b608082015292915050565b803560ff81168114610da357600080fd5b600060208284031215610f13578081fd5b61077382610d8c565b600060208284031215610f2d578081fd5b81356001600160e01b031981168114610773578182fd5b600060608284031215610f55578081fd5b6107738383610db8565b600080600080600060e08688031215610f76578081fd5b610f808787610db8565b9450610f8e60608701610d8c565b9350610f9c60808701610d8c565b9250610faa60a08701610d8c565b9150610fb860c08701610da8565b90509295509295909350565b60008060808385031215610fd6578182fd5b610fe08484610db8565b915060608301356001600160401b0380821115610ffb578283fd5b818501915085601f83011261100e578283fd5b81356020828211156110225761102261160f565b8160051b61103182820161157d565b8381528281019086840183880185018c101561104b578889fd5b8893505b858410156110885780358781111561106557898afd5b6110738d87838c0101610e1e565b8452506001939093019291840191840161104f565b50809750505050505050509250929050565b6000602082840312156110ab578081fd5b5035919050565b6000602082840312156110c3578081fd5b5051919050565b60008082840360808112156110dd578283fd5b833592506060601f19820112156110f2578182fd5b506020830190509250929050565b600082825180855260208086019550808260051b840101818601855b8481101561118d57858303601f19018952815180518452848101516001600160a01b03168585015260408082015160a082870181905291906111608388018261119a565b6060858101519089015260809485015115159490970193909352505050978301979083019060010161111c565b5090979650505050505050565b60008151808452815b818110156111bf576020818501810151868301820152016111a3565b818111156111d05782602083870101525b50601f01601f19169290920160200192915050565b8051825260ff602082015116602083015260ff60408201511660408301525050565b600080835482600182811c91508083168061122357607f831692505b602080841082141561124357634e487b7160e01b87526022600452602487fd5b818015611257576001811461126857611294565b60ff19861689528489019650611294565b60008a815260209020885b8681101561128c5781548b820152908501908301611273565b505084890196505b509498975050505050505050565b60208082526036908201527f50726f706f73616c206e6f74206170706c6965642c20756e6465726c79696e67604082015275103a3930b739b0b1ba34b7b7103932bb32b93a32b21760511b606082015260800190565b6020808252600e908201526d139bdd08185d5d1a1bdc9a5e995960921b604082015260600190565b610100810161132f82896111e5565b6001600160a01b03968716606083015294861660808201529290941660a0830152151560c082015260e00191909152919050565b8281526080810161077360208301846111e5565b868152610100810161138c60208301886111e5565b6001600160a01b03958616608083015293851660a08201529190931660c082015291151560e09092019190915292915050565b600060a080830186845260206113d7818601886111e5565b6080838187015282875180855260c08801915060c08160051b8901019450838901875b828110156114645789870360bf19018452815180518852868101516001600160a01b031687890152604080820151818a018b905261143a8b8b018261119a565b606084810151908c01529288015115159988019990995250965092850192908501906001016113fa565b50949b9a5050505050505050505050565b600060a0820190508482528360208301528235604083015260ff61149b60208501610ef1565b16606083015260ff6114af60408501610ef1565b166080830152949350505050565b602081526114d76020820183516001600160a01b03169052565b600060208301516114eb60408401826111e5565b5060408301516114fe60a08401826111e5565b50606083015115156101008301526080830151151561012083015260a0830151151561014083015260c0830151151561016083015260e08301516101808084015261154d6101a0840182611100565b949350505050565b60405160a081016001600160401b03811182821017156115775761157761160f565b60405290565b604051601f8201601f191681016001600160401b03811182821017156115a5576115a561160f565b604052919050565b600181811c908216806115c157607f821691505b602082108114156115e257634e487b7160e01b600052602260045260246000fd5b50919050565b600060001982141561160857634e487b7160e01b81526011600452602481fd5b5060010190565b634e487b7160e01b600052604160045260246000fdfea26469706673582212202bb57e03996eab80200c30a3d1756751550f7737960e4f501af71d2d8553755064736f6c63430008040033",
  "immutableReferences": {},
  "source": "// SPDX-License-Identifier: LGPL-3.0-or-later\npragma solidity ^0.8.0;\npragma experimental ABIEncoderV2;\n\nimport \"./libraries/CoreLibrary.sol\";\nimport \"./libraries/ProcedureLibrary.sol\";\nimport \"@openzeppelin/contracts/utils/introspection/ERC165.sol\";\nimport \"@openzeppelin/contracts/proxy/utils/Initializable.sol\";\n\n/*\n    A procedure defines a set of operations compiled in a proposal.\n    The procedure dictates the way the proposal can be applied.\n\n    @TODO : Add proposals getters.\n*/\n\ncontract Procedure is ERC165, Initializable {\n    using CoreLibrary for CoreLibrary.Metadata;\n    using ProcedureLibrary for ProcedureLibrary.ProcedureData;\n    using ProcedureLibrary for ProcedureLibrary.Operation;\n    ProcedureLibrary.ProcedureData internal procedureData;\n    bytes4 constant public INTERFACE_ID = 0x71dbd330;\n\n    /**\n        Modifiers.\n    */\n\n    modifier onlyInOrgan(address payable organAddress) {\n        require(ProcedureLibrary.isInOrgan(organAddress, msg.sender), \"Not authorized\");\n        _;\n    }\n\n    modifier onlyDeciders() {\n        require(ProcedureLibrary.isInOrgan(procedureData.deciders, msg.sender), \"Not authorized\");\n        _;\n    }\n\n    /**\n        Procedure constructor.\n    */\n\n    constructor ()\n    {\n        // Register EIP165 interface for introspection.\n        procedureData.init(\n            CoreLibrary.Metadata(0, 0, 0),\n            payable(address(0)), // Proposers.\n            payable(address(0)), // Moderators.\n            payable(address(0)), // Deciders.\n            false       // With Moderation.\n        );\n    }\n\n    // Register EIP165 interfaces for introspection.\n    function supportsInterface(bytes4 interfaceId) public view virtual override returns (bool) {\n        // @todo : Use type(IProcedure).interfaceId\n        return interfaceId == INTERFACE_ID || super.supportsInterface(interfaceId);\n    }\n\n    function initialize(\n        CoreLibrary.Metadata memory _metadata,\n        address payable _proposers,\n        address payable _moderators,\n        address payable _deciders,\n        bool _withModeration\n    )\n        public\n        virtual\n        initializer\n    {\n        procedureData.init(_metadata, _proposers, _moderators, _deciders, _withModeration);\n    }\n\n    /**\n        Public API : Procedure Metadata and Admin.\n    */\n\n    function updateMetadata(CoreLibrary.Metadata memory metadata)\n        public\n    {\n        procedureData.updateMetadata(metadata);\n    }\n\n    function updateAdmin(address payable admin)\n        public\n    {\n        procedureData.updateAdmin(admin);\n    }\n\n    /**\n        Public API : Proposals creation and update.\n    */\n\n    function propose(\n        CoreLibrary.Metadata memory metadata,\n        ProcedureLibrary.Operation[] memory operations\n    )\n        public\n        virtual\n        returns (uint256 proposalKey)\n    {\n        return procedureData.propose(metadata, operations);\n    }\n\n    /// @notice The procedure can override this method.\n    function blockProposal(uint256 proposalKey, CoreLibrary.Metadata calldata reason)\n        public\n        virtual\n    {\n        procedureData.blockProposal(proposalKey, reason);\n    }\n\n    /// @notice When moderation is enabled, moderators must accept the proposal. \n    function presentProposal(uint256 proposalKey)\n        public\n    {\n        procedureData.presentProposal(proposalKey);\n    }\n\n    /// @notice The procedure calls this method directly to adopt and apply proposal.\n    function adoptProposal(uint256 proposalKey)\n        public\n        virtual\n    {\n        procedureData.adoptProposal(proposalKey);\n    }\n\n    /// @notice Apply proposal.\n    function applyProposal(uint256 proposalKey)\n        public\n        virtual\n    {\n        procedureData.applyProposal(proposalKey);\n    }\n\n    /*\n        Accessors.\n    */\n\n    function getProcedure()\n        public\n        view\n        returns (\n            CoreLibrary.Metadata memory metadata,\n            address payable proposers,\n            address payable moderators,\n            address payable deciders,\n            bool withModeration,\n            uint256 proposalsLength\n        )\n    {\n        return (\n            procedureData.metadata,\n            procedureData.proposers,\n            procedureData.moderators,\n            procedureData.deciders,\n            procedureData.withModeration,\n            procedureData.proposalsLength\n        );\n    }\n\n    function getProposal(uint256 proposalKey)\n        public view\n        returns (ProcedureLibrary.Proposal memory)\n    {\n        return procedureData.proposals[proposalKey];\n    }\n}",
  "sourcePath": "/Users/alex/Code/organigr.am-refactoring/packages/@organigram/contracts/contracts/Procedure.sol",
  "compiler": {
    "name": "solc",
    "version": "0.8.4+commit.c7e474f2.Emscripten.clang"
  },
  "schemaVersion": "3.4.1",
  "updatedAt": "2021-05-26T21:15:04.913Z",
  "devdoc": {
    "kind": "dev",
    "methods": {
      "supportsInterface(bytes4)": {
        "details": "See {IERC165-supportsInterface}."
      }
    },
    "version": 1
  },
  "userdoc": {
    "kind": "user",
    "methods": {
      "adoptProposal(uint256)": {
        "notice": "The procedure calls this method directly to adopt and apply proposal."
      },
      "applyProposal(uint256)": {
        "notice": "Apply proposal."
      },
      "blockProposal(uint256,(bytes32,uint8,uint8))": {
        "notice": "The procedure can override this method."
      },
      "constructor": {
        "notice": "Procedure constructor."
      },
      "presentProposal(uint256)": {
        "notice": "When moderation is enabled, moderators must accept the proposal. "
      },
      "propose((bytes32,uint8,uint8),(uint256,address,bytes,uint256,bool)[])": {
        "notice": "Public API : Proposals creation and update."
      },
      "updateMetadata((bytes32,uint8,uint8))": {
        "notice": "Public API : Procedure Metadata and Admin."
      }
    },
    "version": 1
  }
}