{
  "contractName": "Procedure",
  "abi": [
    {
      "inputs": [],
      "stateMutability": "nonpayable",
      "type": "constructor"
    },
    {
      "anonymous": false,
      "inputs": [
        {
          "indexed": false,
          "internalType": "uint8",
          "name": "version",
          "type": "uint8"
        }
      ],
      "name": "Initialized",
      "type": "event"
    },
    {
      "inputs": [],
      "name": "INTERFACE_ID",
      "outputs": [
        {
          "internalType": "bytes4",
          "name": "",
          "type": "bytes4"
        }
      ],
      "stateMutability": "view",
      "type": "function"
    },
    {
      "inputs": [],
      "name": "getTrustedForwarder",
      "outputs": [
        {
          "internalType": "address",
          "name": "forwarder",
          "type": "address"
        }
      ],
      "stateMutability": "view",
      "type": "function"
    },
    {
      "inputs": [
        {
          "internalType": "address",
          "name": "forwarder",
          "type": "address"
        }
      ],
      "name": "isTrustedForwarder",
      "outputs": [
        {
          "internalType": "bool",
          "name": "",
          "type": "bool"
        }
      ],
      "stateMutability": "view",
      "type": "function"
    },
    {
      "inputs": [
        {
          "internalType": "bytes4",
          "name": "interfaceId",
          "type": "bytes4"
        }
      ],
      "name": "supportsInterface",
      "outputs": [
        {
          "internalType": "bool",
          "name": "",
          "type": "bool"
        }
      ],
      "stateMutability": "view",
      "type": "function"
    },
    {
      "inputs": [
        {
          "internalType": "string",
          "name": "_cid",
          "type": "string"
        },
        {
          "internalType": "address payable",
          "name": "_proposers",
          "type": "address"
        },
        {
          "internalType": "address payable",
          "name": "_moderators",
          "type": "address"
        },
        {
          "internalType": "address payable",
          "name": "_deciders",
          "type": "address"
        },
        {
          "internalType": "bool",
          "name": "_withModeration",
          "type": "bool"
        },
        {
          "internalType": "address",
          "name": "_trustedForwarder",
          "type": "address"
        }
      ],
      "name": "initialize",
      "outputs": [],
      "stateMutability": "nonpayable",
      "type": "function"
    },
    {
      "inputs": [
        {
          "internalType": "string",
          "name": "cid",
          "type": "string"
        }
      ],
      "name": "updateCid",
      "outputs": [],
      "stateMutability": "nonpayable",
      "type": "function"
    },
    {
      "inputs": [
        {
          "internalType": "address payable",
          "name": "admin",
          "type": "address"
        }
      ],
      "name": "updateAdmin",
      "outputs": [],
      "stateMutability": "nonpayable",
      "type": "function"
    },
    {
      "inputs": [
        {
          "internalType": "string",
          "name": "cid",
          "type": "string"
        },
        {
          "components": [
            {
              "internalType": "uint256",
              "name": "index",
              "type": "uint256"
            },
            {
              "internalType": "address payable",
              "name": "target",
              "type": "address"
            },
            {
              "internalType": "bytes",
              "name": "data",
              "type": "bytes"
            },
            {
              "internalType": "uint256",
              "name": "value",
              "type": "uint256"
            },
            {
              "internalType": "bool",
              "name": "processed",
              "type": "bool"
            }
          ],
          "internalType": "struct ProcedureLibrary.Operation[]",
          "name": "operations",
          "type": "tuple[]"
        }
      ],
      "name": "propose",
      "outputs": [
        {
          "internalType": "uint256",
          "name": "proposalKey",
          "type": "uint256"
        }
      ],
      "stateMutability": "nonpayable",
      "type": "function"
    },
    {
      "inputs": [
        {
          "internalType": "uint256",
          "name": "proposalKey",
          "type": "uint256"
        },
        {
          "internalType": "string",
          "name": "reason",
          "type": "string"
        }
      ],
      "name": "blockProposal",
      "outputs": [],
      "stateMutability": "nonpayable",
      "type": "function"
    },
    {
      "inputs": [
        {
          "internalType": "uint256",
          "name": "proposalKey",
          "type": "uint256"
        }
      ],
      "name": "presentProposal",
      "outputs": [],
      "stateMutability": "nonpayable",
      "type": "function"
    },
    {
      "inputs": [
        {
          "internalType": "uint256",
          "name": "proposalKey",
          "type": "uint256"
        }
      ],
      "name": "adoptProposal",
      "outputs": [],
      "stateMutability": "nonpayable",
      "type": "function"
    },
    {
      "inputs": [
        {
          "internalType": "uint256",
          "name": "proposalKey",
          "type": "uint256"
        }
      ],
      "name": "rejectProposal",
      "outputs": [],
      "stateMutability": "nonpayable",
      "type": "function"
    },
    {
      "inputs": [
        {
          "internalType": "uint256",
          "name": "proposalKey",
          "type": "uint256"
        }
      ],
      "name": "applyProposal",
      "outputs": [],
      "stateMutability": "nonpayable",
      "type": "function"
    },
    {
      "inputs": [],
      "name": "getProcedure",
      "outputs": [
        {
          "internalType": "string",
          "name": "cid",
          "type": "string"
        },
        {
          "internalType": "address payable",
          "name": "proposers",
          "type": "address"
        },
        {
          "internalType": "address payable",
          "name": "moderators",
          "type": "address"
        },
        {
          "internalType": "address payable",
          "name": "deciders",
          "type": "address"
        },
        {
          "internalType": "bool",
          "name": "withModeration",
          "type": "bool"
        },
        {
          "internalType": "uint256",
          "name": "proposalsLength",
          "type": "uint256"
        },
        {
          "internalType": "bytes4",
          "name": "interfaceId",
          "type": "bytes4"
        }
      ],
      "stateMutability": "view",
      "type": "function"
    },
    {
      "inputs": [
        {
          "internalType": "uint256",
          "name": "proposalKey",
          "type": "uint256"
        }
      ],
      "name": "getProposal",
      "outputs": [
        {
          "components": [
            {
              "internalType": "address payable",
              "name": "creator",
              "type": "address"
            },
            {
              "internalType": "string",
              "name": "cid",
              "type": "string"
            },
            {
              "internalType": "string",
              "name": "blockReason",
              "type": "string"
            },
            {
              "internalType": "bool",
              "name": "presented",
              "type": "bool"
            },
            {
              "internalType": "bool",
              "name": "blocked",
              "type": "bool"
            },
            {
              "internalType": "bool",
              "name": "adopted",
              "type": "bool"
            },
            {
              "internalType": "bool",
              "name": "applied",
              "type": "bool"
            },
            {
              "components": [
                {
                  "internalType": "uint256",
                  "name": "index",
                  "type": "uint256"
                },
                {
                  "internalType": "address payable",
                  "name": "target",
                  "type": "address"
                },
                {
                  "internalType": "bytes",
                  "name": "data",
                  "type": "bytes"
                },
                {
                  "internalType": "uint256",
                  "name": "value",
                  "type": "uint256"
                },
                {
                  "internalType": "bool",
                  "name": "processed",
                  "type": "bool"
                }
              ],
              "internalType": "struct ProcedureLibrary.Operation[]",
              "name": "operations",
              "type": "tuple[]"
            }
          ],
          "internalType": "struct ProcedureLibrary.Proposal",
          "name": "",
          "type": "tuple"
        }
      ],
      "stateMutability": "view",
      "type": "function"
    }
  ],
  "bytecode": "0x608060405234801561001057600080fd5b506001805561001d610022565b6100e1565b600054610100900460ff161561008e5760405162461bcd60e51b815260206004820152602760248201527f496e697469616c697a61626c653a20636f6e747261637420697320696e697469604482015266616c697a696e6760c81b606482015260840160405180910390fd5b60005460ff908116146100df576000805460ff191660ff9081179091556040519081527f7f26b83ff96e1f2b6a682f133852f6798a09c465da95921460cefb38474024989060200160405180910390a15b565b611ad3806100f06000396000f3fe608060405234801561001057600080fd5b50600436106100c55760003560e01c806301ffc9a7146100ca57806309b862b9146100f2578063164d7c35146101195780631e3906071461012e578063572b6c05146101415780637823c508146101545780637983f0c11461016757806395f8c6fe1461017a578063bc28d8781461019b578063bf5dec0f146101ae578063c7f758a8146101c1578063ce1b815f146101e1578063e2f273bd146101fc578063f03f542b1461020f578063f22d9c7a14610222575b600080fd5b6100dd6100d836600461112a565b61023d565b60405190151581526020015b60405180910390f35b61010063071dbd3360e41b81565b6040516001600160e01b031990911681526020016100e9565b61012c610127366004611263565b610274565b005b61012c61013c3660046112fb565b610426565b6100dd61014f366004611314565b6104a4565b61012c6101623660046112fb565b6104b8565b61012c6101753660046112fb565b610546565b61018d610188366004611331565b610562565b6040519081526020016100e9565b61012c6101a93660046112fb565b6105f1565b61012c6101bc366004611494565b610604565b6101d46101cf3660046112fb565b610677565b6040516100e991906115fa565b6002546040516001600160a01b0390911681526020016100e9565b61012c61020a366004611314565b610983565b61012c61021d3660046116b1565b6109e2565b61022a610a25565b6040516100e997969594939291906116ed565b60006001600160e01b0319821663071dbd3360e41b148061026e57506301ffc9a760e01b6001600160e01b03198316145b92915050565b600054610100900460ff16158080156102945750600054600160ff909116105b806102ae5750303b1580156102ae575060005460ff166001145b6103165760405162461bcd60e51b815260206004820152602e60248201527f496e697469616c697a61626c653a20636f6e747261637420697320616c72656160448201526d191e481a5b9a5d1a585b1a5e995960921b60648201526084015b60405180910390fd5b6000805460ff191660011790558015610339576000805461ff0019166101001790555b73__ProcedureLibrary______________________6382ad07366003898989898989610363610b0b565b6040518963ffffffff1660e01b8152600401610386989796959493929190611749565b60006040518083038186803b15801561039e57600080fd5b505af41580156103b2573d6000803e3d6000fd5b5050600280546001600160a01b0319166001600160a01b038616179055506103d79050565b801561041d576000805461ff0019169055604051600181527f7f26b83ff96e1f2b6a682f133852f6798a09c465da95921460cefb38474024989060200160405180910390a15b50505050505050565b61042e610b39565b60405163851816a560e01b8152600360048201526024810182905273__ProcedureLibrary______________________9063851816a59060440160006040518083038186803b15801561048057600080fd5b505af4158015610494573d6000803e3d6000fd5b505050506104a160018055565b50565b6002546001600160a01b0391821691161490565b73__ProcedureLibrary______________________63ccddc3926003836104dd610b0b565b6040516001600160e01b031960e086901b168152600481019390935260248301919091526001600160a01b031660448201526064015b60006040518083038186803b15801561052b57600080fd5b505af415801561053f573d6000803e3d6000fd5b5050505050565b61054e610b39565b610559600382610b92565b6104a160018055565b600073__ProcedureLibrary______________________63895ef0116003858561058a610b0b565b6040518563ffffffff1660e01b81526004016105a994939291906117a6565b602060405180830381865af41580156105c6573d6000803e3d6000fd5b505050506040513d601f19601f820116820180604052508101906105ea919061186f565b9392505050565b6105f9610b39565b610559600382610c6d565b73__ProcedureLibrary______________________63d831225b600385858561062b610b0b565b6040518663ffffffff1660e01b815260040161064b959493929190611888565b60006040518083038186803b15801561066357600080fd5b505af415801561041d573d6000803e3d6000fd5b604080516101008101825260008082526060602083018190529282018390528282018190526080820181905260a0820181905260c082015260e08101919091526000828152600860209081526040918290208251610100810190935280546001600160a01b0316835260018101805491928401916106f4906118d8565b80601f0160208091040260200160405190810160405280929190818152602001828054610720906118d8565b801561076d5780601f106107425761010080835404028352916020019161076d565b820191906000526020600020905b81548152906001019060200180831161075057829003601f168201915b50505050508152602001600282018054610786906118d8565b80601f01602080910402602001604051908101604052809291908181526020018280546107b2906118d8565b80156107ff5780601f106107d4576101008083540402835291602001916107ff565b820191906000526020600020905b8154815290600101906020018083116107e257829003601f168201915b5050509183525050600382015460ff808216151560208085019190915261010083048216151560408086019190915262010000840483161515606086015263010000009093049091161515608084015260048401805483518184028101840190945280845260a090940193909160009084015b828210156109755760008481526020908190206040805160a081018252600586029092018054835260018101546001600160a01b031693830193909352600283018054929392918401916108c5906118d8565b80601f01602080910402602001604051908101604052809291908181526020018280546108f1906118d8565b801561093e5780601f106109135761010080835404028352916020019161093e565b820191906000526020600020905b81548152906001019060200180831161092157829003601f168201915b5050509183525050600382015460208083019190915260049092015460ff1615156040909101529082526001929092019101610872565b505050915250909392505050565b73__ProcedureLibrary______________________630fb4dd446003836109a8610b0b565b6040516001600160e01b031960e086901b16815260048101939093526001600160a01b039182166024840152166044820152606401610513565b73__ProcedureLibrary______________________6344462e93600383610a07610b0b565b6040518463ffffffff1660e01b815260040161051393929190611912565b600454600554600654600a54600954600380546060966000968796879687968796879690956001600160a01b0390811695811694169260ff16919063071dbd3360e41b908790610a74906118d8565b80601f0160208091040260200160405190810160405280929190818152602001828054610aa0906118d8565b8015610aed5780601f10610ac257610100808354040283529160200191610aed565b820191906000526020600020905b815481529060010190602001808311610ad057829003601f168201915b50505050509650965096509650965096509650965090919293949596565b600060143610801590610b225750610b22336104a4565b15610b34575060131936013560601c90565b503390565b600260015403610b8b5760405162461bcd60e51b815260206004820152601f60248201527f5265656e7472616e637947756172643a207265656e7472616e742063616c6c00604482015260640161030d565b6002600155565b60008181526005830160205260409020600301548290829060ff168015610bd35750600081815260058301602052604090206003015462010000900460ff16155b8015610bfa575060008181526005830160205260409020600301546301000000900460ff16155b8015610c1f57506000818152600583016020526040902060030154610100900460ff16155b610c3b5760405162461bcd60e51b815260040161030d90611943565b60008381526005850160205260409020600301805462ff0000191662010000179055610c678484610d3f565b50505050565b60008181526005830160205260409020600301548290829060ff168015610cae5750600081815260058301602052604090206003015462010000900460ff16155b8015610cd5575060008181526005830160205260409020600301546301000000900460ff16155b8015610cfa57506000818152600583016020526040902060030154610100900460ff16155b610d165760405162461bcd60e51b815260040161030d90611943565b50506000908152600590910160205260409020600301805463ffff000019166301000000179055565b60008181526005830160205260409020600301548290829062010000900460ff168015610d87575060008181526005830160205260409020600301546301000000900460ff16155b8015610dac57506000818152600583016020526040902060030154610100900460ff16155b610dc85760405162461bcd60e51b815260040161030d90611943565b60005b60008481526005860160205260409020600401548110156110d85760008481526005860160205260409020600401805482908110610e0b57610e0b61196b565b600091825260209091206004600590920201015460ff166110c85760008481526005860160205260408120600401805483908110610e4b57610e4b61196b565b60009182526020909120600160059092020101546001600160a01b031614610f965760008481526005860160205260408120600401805483908110610e9257610e9261196b565b60009182526020808320600592830201600101548884529189019052604090912060040180546001600160a01b039092169184908110610ed457610ed461196b565b9060005260206000209060050201600301548760050160008881526020019081526020016000206004018481548110610f0f57610f0f61196b565b9060005260206000209060050201600201604051610f2d9190611981565b60006040518083038185875af1925050503d8060008114610f6a576040519150601f19603f3d011682016040523d82523d6000602084013e610f6f565b606091505b5050905080610f905760405162461bcd60e51b815260040161030d90611a20565b5061107c565b60008481526005860160205260408120600401805433919084908110610fbe57610fbe61196b565b9060005260206000209060050201600301548760050160008881526020019081526020016000206004018481548110610ff957610ff961196b565b90600052602060002090600502016002016040516110179190611981565b60006040518083038185875af1925050503d8060008114611054576040519150601f19603f3d011682016040523d82523d6000602084013e611059565b606091505b505090508061107a5760405162461bcd60e51b815260040161030d90611a20565b505b60008481526005860160205260409020600401805460019190839081106110a5576110a561196b565b60009182526020909120600590910201600401805460ff19169115159190911790555b6110d181611a76565b9050610dcb565b506000838152600585016020526040808220600301805463ff000000191663010000001790555184917f371ea0b2792b493783478379b73e5d65d5f7e3d03fe343fbe6396d87ece6562491a250505050565b60006020828403121561113c57600080fd5b81356001600160e01b0319811681146105ea57600080fd5b634e487b7160e01b600052604160045260246000fd5b60405160a081016001600160401b038111828210171561118c5761118c611154565b60405290565b604051601f8201601f191681016001600160401b03811182821017156111ba576111ba611154565b604052919050565b60006001600160401b038311156111db576111db611154565b6111ee601f8401601f1916602001611192565b905082815283838301111561120257600080fd5b828260208301376000602084830101529392505050565b600082601f83011261122a57600080fd5b6105ea838335602085016111c2565b6001600160a01b03811681146104a157600080fd5b8035801515811461125e57600080fd5b919050565b60008060008060008060c0878903121561127c57600080fd5b86356001600160401b0381111561129257600080fd5b61129e89828a01611219565b96505060208701356112af81611239565b945060408701356112bf81611239565b935060608701356112cf81611239565b92506112dd6080880161124e565b915060a08701356112ed81611239565b809150509295509295509295565b60006020828403121561130d57600080fd5b5035919050565b60006020828403121561132657600080fd5b81356105ea81611239565b600080604080848603121561134557600080fd5b83356001600160401b038082111561135c57600080fd5b61136887838801611219565b945060209150818601358181111561137f57600080fd5b8601601f8101881361139057600080fd5b8035828111156113a2576113a2611154565b8060051b6113b1858201611192565b918252828101850191858101908b8411156113cb57600080fd5b86850192505b83831015611482578235868111156113e857600080fd5b850160a0818e03601f190112156113fe57600080fd5b61140661116a565b8882013581528982013561141981611239565b818a01526060820135888111156114305760008081fd5b8201603f81018f136114425760008081fd5b6114528f8b8301358d84016111c2565b8b83015250608080830135606083015261146e60a0840161124e565b9082015283525091860191908601906113d1565b80985050505050505050509250929050565b6000806000604084860312156114a957600080fd5b8335925060208401356001600160401b03808211156114c757600080fd5b818601915086601f8301126114db57600080fd5b8135818111156114ea57600080fd5b8760208285010111156114fc57600080fd5b6020830194508093505050509250925092565b6001600160a01b03169052565b6000815180845260005b8181101561154257602081850181015186830182015201611526565b506000602082860101526020601f19601f83011685010191505092915050565b600081518084526020808501808196508360051b8101915082860160005b858110156115ed578284038952815180518552858101516001600160a01b03168686015260408082015160a082880181905291906115c08389018261151c565b606085810151908a0152608094850151151594909801939093525050509784019790840190600101611580565b5091979650505050505050565b6020815261160c60208201835161150f565b6000602083015161010080604085015261162a61012085018361151c565b91506040850151601f1980868503016060870152611648848361151c565b93506060870151915061165f608087018315159052565b608087015180151560a0880152915060a087015180151560c0880152915060c087015180151560e0880152915060e08701519150808685030183870152506116a78382611562565b9695505050505050565b6000602082840312156116c357600080fd5b81356001600160401b038111156116d957600080fd5b6116e584828501611219565b949350505050565b60e08152600061170060e083018a61151c565b6001600160a01b039889166020840152968816604083015250939095166060840152901515608083015260a08201526001600160e01b031990921660c090920191909152919050565b60006101008a83528060208401526117638184018b61151c565b6001600160a01b03998a16604085015297891660608401525050938616608085015291151560a0840152841660c083015290921660e09092019190915292915050565b60006080868352602081818501526117c08285018861151c565b6040858203818701528188518084528484019150848160051b850101858b0160005b8381101561184d57868303601f19018552815180518452888101516001600160a01b0316898501528681015160a0888601819052906118238287018261151c565b60608481015190880152928c01511515958c019590955250948801949250908701906001016117e2565b505080975050505050505050611866606083018461150f565b95945050505050565b60006020828403121561188157600080fd5b5051919050565b85815284602082015260806040820152826080820152828460a0830137600081840160a0908101919091526001600160a01b03929092166060820152601f909201601f1916909101019392505050565b600181811c908216806118ec57607f821691505b60208210810361190c57634e487b7160e01b600052602260045260246000fd5b50919050565b83815260606020820152600061192b606083018561151c565b905060018060a01b0383166040830152949350505050565b6020808252600e908201526d139bdd08185d5d1a1bdc9a5e995960921b604082015260600190565b634e487b7160e01b600052603260045260246000fd5b600080835481600182811c91508083168061199d57607f831692505b602080841082036119bc57634e487b7160e01b86526022600452602486fd5b8180156119d057600181146119e557611a12565b60ff1986168952841515850289019650611a12565b60008a81526020902060005b86811015611a0a5781548b8201529085019083016119f1565b505084890196505b509498975050505050505050565b60208082526036908201527f50726f706f73616c206e6f74206170706c6965642c20756e6465726c79696e67604082015275103a3930b739b0b1ba34b7b7103932bb32b93a32b21760511b606082015260800190565b600060018201611a9657634e487b7160e01b600052601160045260246000fd5b506001019056fea2646970667358221220b39ad0a5adfca76c33c8be798d197a5f7bde9a3c010865b9153c5291bddf420764736f6c63430008130033",
  "immutableReferences": {},
  "source": "// SPDX-License-Identifier: LGPL-3.0-or-later\npragma solidity 0.8.19;\npragma experimental ABIEncoderV2;\n\nimport \"./libraries/CoreLibrary.sol\";\nimport \"./libraries/ProcedureLibrary.sol\";\nimport \"@openzeppelin/contracts/utils/introspection/ERC165.sol\";\nimport \"@openzeppelin/contracts/proxy/utils/Initializable.sol\";\nimport \"@openzeppelin/contracts/security/ReentrancyGuard.sol\";\nimport \"@opengsn/contracts/src/ERC2771Recipient.sol\";\n\n/*\n    A procedure defines a set of operations compiled in a proposal.\n    The procedure dictates the way the proposal can be applied.\n*/\n\ncontract Procedure is ERC165, Initializable, ReentrancyGuard, ERC2771Recipient {\n    using ProcedureLibrary for ProcedureLibrary.ProcedureData;\n    using ProcedureLibrary for ProcedureLibrary.Operation;\n    ProcedureLibrary.ProcedureData internal procedureData;\n    bytes4 constant public INTERFACE_ID = 0x71dbd330;\n\n    /**\n        Modifiers.\n    */\n\n    modifier onlyInOrgan(address payable organAddress) {\n        require(ProcedureLibrary.isInOrgan(organAddress, _msgSender()), \"Not authorized\");\n        _;\n    }\n\n    modifier onlyDeciders() {\n        require(ProcedureLibrary.isInOrgan(procedureData.deciders, _msgSender()), \"Not authorized\");\n        _;\n    }\n\n    /**\n        Procedure constructor.\n    */\n\n    constructor () {\n        _disableInitializers();\n    }\n\n    // Register EIP165 interfaces for introspection.\n    function supportsInterface(bytes4 interfaceId) public view virtual override returns (bool) {\n        // @todo : Use type(IProcedure).interfaceId\n        return interfaceId == INTERFACE_ID || super.supportsInterface(interfaceId);\n    }\n\n    function initialize(\n        string memory _cid,\n        address payable _proposers,\n        address payable _moderators,\n        address payable _deciders,\n        bool _withModeration,\n        address _trustedForwarder\n    )\n        public\n        virtual\n        initializer\n    {\n        procedureData.init(_cid, _proposers, _moderators, _deciders, _withModeration, _trustedForwarder, _msgSender());\n        _setTrustedForwarder(_trustedForwarder);\n    }\n\n    /**\n        Public API : Procedure Cid and Admin.\n    */\n\n    function updateCid(string memory cid)\n        public\n    {\n        procedureData.updateCid(cid, _msgSender());\n    }\n\n    function updateAdmin(address payable admin)\n        public\n    {\n        procedureData.updateAdmin(admin, _msgSender());\n    }\n\n    /**\n        Public API : Proposals creation and update.\n    */\n\n    function propose(\n        string memory cid,\n        ProcedureLibrary.Operation[] memory operations\n    )\n        public\n        virtual\n        returns (uint256 proposalKey)\n    {\n        return procedureData.propose(cid, operations, _msgSender());\n    }\n\n    /// @notice The procedure can override this method.\n    function blockProposal(uint256 proposalKey, string calldata reason)\n        public\n        virtual\n    {\n        procedureData.blockProposal(proposalKey, reason, _msgSender());\n    }\n\n    /// @notice When moderation is enabled, moderators must accept the proposal. \n    function presentProposal(uint256 proposalKey)\n        public\n        virtual\n    {\n        procedureData.presentProposal(proposalKey, _msgSender());\n    }\n\n    /// @notice The procedure calls this method directly to adopt and apply proposal.\n    function adoptProposal(uint256 proposalKey)\n        public nonReentrant\n        virtual\n    {\n        procedureData.adoptProposal(proposalKey);\n    }\n\n    /// @notice The procedure calls this method directly to adopt and apply proposal.\n    function rejectProposal(uint256 proposalKey)\n        public nonReentrant\n        virtual\n    {\n        procedureData.rejectProposal(proposalKey);\n    }\n\n    /// @notice Apply proposal.\n    function applyProposal(uint256 proposalKey)\n        public nonReentrant\n        virtual\n    {\n        procedureData.applyProposal(proposalKey);\n    }\n\n    /*\n        Accessors.\n    */\n\n    function getProcedure()\n        public\n        view\n        returns (\n            string memory cid,\n            address payable proposers,\n            address payable moderators,\n            address payable deciders,\n            bool withModeration,\n            uint256 proposalsLength,\n            bytes4 interfaceId\n        )\n    {\n        return (\n            procedureData.cid,\n            procedureData.proposers,\n            procedureData.moderators,\n            procedureData.deciders,\n            procedureData.withModeration,\n            procedureData.proposalsLength,\n            INTERFACE_ID\n        );\n    }\n\n    function getProposal(uint256 proposalKey)\n        public view\n        returns (ProcedureLibrary.Proposal memory)\n    {\n        return procedureData.proposals[proposalKey];\n    }\n}",
  "sourcePath": "/Users/louis/organigram/packages/contracts/contracts/Procedure.sol",
  "compiler": {
    "name": "solc",
    "version": "0.8.19+commit.7dd6d404.Emscripten.clang"
  },
  "schemaVersion": "3.4.16",
  "updatedAt": "2023-10-01T15:05:50.551Z",
  "devdoc": {
    "events": {
      "Initialized(uint8)": {
        "details": "Triggered when the contract has been initialized or reinitialized."
      }
    },
    "kind": "dev",
    "methods": {
      "getTrustedForwarder()": {
        "returns": {
          "forwarder": "The address of the Forwarder contract that is being used."
        }
      },
      "isTrustedForwarder(address)": {
        "params": {
          "forwarder": "The address of the Forwarder contract that is being used."
        },
        "returns": {
          "_0": "isTrustedForwarder `true` if the Forwarder is trusted to forward relayed transactions by this Recipient."
        }
      },
      "supportsInterface(bytes4)": {
        "details": "See {IERC165-supportsInterface}."
      }
    },
    "version": 1
  },
  "userdoc": {
    "kind": "user",
    "methods": {
      "adoptProposal(uint256)": {
        "notice": "The procedure calls this method directly to adopt and apply proposal."
      },
      "applyProposal(uint256)": {
        "notice": "Apply proposal."
      },
      "blockProposal(uint256,string)": {
        "notice": "The procedure can override this method."
      },
      "constructor": {
        "notice": "Procedure constructor."
      },
      "getTrustedForwarder()": {
        "notice": ":warning: **Warning** :warning: The Forwarder can have a full control over your Recipient. Only trust verified Forwarder.Method is not a required method to allow Recipients to trust multiple Forwarders. Not recommended yet."
      },
      "isTrustedForwarder(address)": {
        "notice": ":warning: **Warning** :warning: The Forwarder can have a full control over your Recipient. Only trust verified Forwarder."
      },
      "presentProposal(uint256)": {
        "notice": "When moderation is enabled, moderators must accept the proposal. "
      },
      "propose(string,(uint256,address,bytes,uint256,bool)[])": {
        "notice": "Public API : Proposals creation and update."
      },
      "rejectProposal(uint256)": {
        "notice": "The procedure calls this method directly to adopt and apply proposal."
      },
      "updateCid(string)": {
        "notice": "Public API : Procedure Cid and Admin."
      }
    },
    "version": 1
  }
}