{
  "contractName": "Procedure",
  "abi": [
    {
      "inputs": [
        {
          "internalType": "bytes32",
          "name": "metadataIpfsHash",
          "type": "bytes32"
        },
        {
          "internalType": "uint8",
          "name": "metadataHashFunction",
          "type": "uint8"
        },
        {
          "internalType": "uint8",
          "name": "metadataHashSize",
          "type": "uint8"
        }
      ],
      "stateMutability": "nonpayable",
      "type": "constructor"
    },
    {
      "inputs": [
        {
          "internalType": "bytes4",
          "name": "interfaceId",
          "type": "bytes4"
        }
      ],
      "name": "supportsInterface",
      "outputs": [
        {
          "internalType": "bool",
          "name": "",
          "type": "bool"
        }
      ],
      "stateMutability": "view",
      "type": "function"
    },
    {
      "inputs": [
        {
          "internalType": "bytes32",
          "name": "ipfsHash",
          "type": "bytes32"
        },
        {
          "internalType": "uint8",
          "name": "hashFunction",
          "type": "uint8"
        },
        {
          "internalType": "uint8",
          "name": "hashSize",
          "type": "uint8"
        }
      ],
      "name": "updateMetadata",
      "outputs": [],
      "stateMutability": "nonpayable",
      "type": "function"
    },
    {
      "inputs": [
        {
          "internalType": "address payable",
          "name": "admin",
          "type": "address"
        }
      ],
      "name": "updateAdmin",
      "outputs": [],
      "stateMutability": "nonpayable",
      "type": "function"
    },
    {
      "inputs": [
        {
          "internalType": "bytes32",
          "name": "ipfsHash",
          "type": "bytes32"
        },
        {
          "internalType": "uint8",
          "name": "hashFunction",
          "type": "uint8"
        },
        {
          "internalType": "uint8",
          "name": "hashSize",
          "type": "uint8"
        }
      ],
      "name": "createMove",
      "outputs": [
        {
          "internalType": "uint256",
          "name": "",
          "type": "uint256"
        }
      ],
      "stateMutability": "nonpayable",
      "type": "function"
    },
    {
      "inputs": [
        {
          "internalType": "uint256",
          "name": "moveKey",
          "type": "uint256"
        },
        {
          "internalType": "address payable",
          "name": "organ",
          "type": "address"
        },
        {
          "components": [
            {
              "internalType": "address",
              "name": "addr",
              "type": "address"
            },
            {
              "internalType": "bytes32",
              "name": "ipfsHash",
              "type": "bytes32"
            },
            {
              "internalType": "uint8",
              "name": "hashFunction",
              "type": "uint8"
            },
            {
              "internalType": "uint8",
              "name": "hashSize",
              "type": "uint8"
            }
          ],
          "internalType": "struct OrganLibrary.Entry[]",
          "name": "entries",
          "type": "tuple[]"
        },
        {
          "internalType": "bool",
          "name": "lock",
          "type": "bool"
        }
      ],
      "name": "moveAddEntries",
      "outputs": [],
      "stateMutability": "nonpayable",
      "type": "function"
    },
    {
      "inputs": [
        {
          "internalType": "uint256",
          "name": "moveKey",
          "type": "uint256"
        },
        {
          "internalType": "address payable",
          "name": "organ",
          "type": "address"
        },
        {
          "internalType": "uint256",
          "name": "indexes",
          "type": "uint256"
        },
        {
          "internalType": "bool",
          "name": "lock",
          "type": "bool"
        }
      ],
      "name": "moveRemoveEntry",
      "outputs": [],
      "stateMutability": "nonpayable",
      "type": "function"
    },
    {
      "inputs": [
        {
          "internalType": "uint256",
          "name": "moveKey",
          "type": "uint256"
        },
        {
          "internalType": "address payable",
          "name": "organ",
          "type": "address"
        },
        {
          "internalType": "uint256",
          "name": "index",
          "type": "uint256"
        },
        {
          "internalType": "address payable",
          "name": "addr",
          "type": "address"
        },
        {
          "internalType": "bytes32",
          "name": "ipfsHash",
          "type": "bytes32"
        },
        {
          "internalType": "uint8",
          "name": "hashFunction",
          "type": "uint8"
        },
        {
          "internalType": "uint8",
          "name": "hashSize",
          "type": "uint8"
        },
        {
          "internalType": "bool",
          "name": "lock",
          "type": "bool"
        }
      ],
      "name": "moveReplaceEntry",
      "outputs": [],
      "stateMutability": "nonpayable",
      "type": "function"
    },
    {
      "inputs": [
        {
          "internalType": "uint256",
          "name": "moveKey",
          "type": "uint256"
        },
        {
          "internalType": "address payable",
          "name": "organ",
          "type": "address"
        },
        {
          "internalType": "address",
          "name": "procedure",
          "type": "address"
        },
        {
          "internalType": "bytes2",
          "name": "permissions",
          "type": "bytes2"
        },
        {
          "internalType": "bool",
          "name": "lock",
          "type": "bool"
        }
      ],
      "name": "moveAddProcedure",
      "outputs": [],
      "stateMutability": "nonpayable",
      "type": "function"
    },
    {
      "inputs": [
        {
          "internalType": "uint256",
          "name": "moveKey",
          "type": "uint256"
        },
        {
          "internalType": "address payable",
          "name": "organ",
          "type": "address"
        },
        {
          "internalType": "address",
          "name": "procedure",
          "type": "address"
        },
        {
          "internalType": "bool",
          "name": "lock",
          "type": "bool"
        }
      ],
      "name": "moveRemoveProcedure",
      "outputs": [],
      "stateMutability": "nonpayable",
      "type": "function"
    },
    {
      "inputs": [
        {
          "internalType": "uint256",
          "name": "moveKey",
          "type": "uint256"
        },
        {
          "internalType": "address payable",
          "name": "organ",
          "type": "address"
        },
        {
          "internalType": "address",
          "name": "oldProcedure",
          "type": "address"
        },
        {
          "internalType": "address",
          "name": "newProcedure",
          "type": "address"
        },
        {
          "internalType": "bytes2",
          "name": "permissions",
          "type": "bytes2"
        },
        {
          "internalType": "bool",
          "name": "lock",
          "type": "bool"
        }
      ],
      "name": "moveReplaceProcedure",
      "outputs": [],
      "stateMutability": "nonpayable",
      "type": "function"
    },
    {
      "inputs": [
        {
          "internalType": "uint256",
          "name": "moveKey",
          "type": "uint256"
        },
        {
          "internalType": "bytes",
          "name": "call",
          "type": "bytes"
        },
        {
          "internalType": "bool",
          "name": "lock",
          "type": "bool"
        }
      ],
      "name": "moveCall",
      "outputs": [],
      "stateMutability": "nonpayable",
      "type": "function"
    },
    {
      "inputs": [
        {
          "internalType": "uint256",
          "name": "moveKey",
          "type": "uint256"
        },
        {
          "internalType": "address payable",
          "name": "organ",
          "type": "address"
        },
        {
          "internalType": "address",
          "name": "operator",
          "type": "address"
        },
        {
          "internalType": "address",
          "name": "target",
          "type": "address"
        },
        {
          "internalType": "uint256",
          "name": "token_id",
          "type": "uint256"
        },
        {
          "internalType": "bool",
          "name": "lock",
          "type": "bool"
        }
      ],
      "name": "moveReceiveCollectible",
      "outputs": [],
      "stateMutability": "nonpayable",
      "type": "function"
    },
    {
      "inputs": [
        {
          "internalType": "uint256",
          "name": "moveKey",
          "type": "uint256"
        },
        {
          "internalType": "address payable",
          "name": "organ",
          "type": "address"
        },
        {
          "internalType": "address",
          "name": "operator",
          "type": "address"
        },
        {
          "internalType": "address",
          "name": "target",
          "type": "address"
        },
        {
          "internalType": "uint256",
          "name": "token_id",
          "type": "uint256"
        },
        {
          "internalType": "bool",
          "name": "lock",
          "type": "bool"
        }
      ],
      "name": "moveTransferCollectible",
      "outputs": [],
      "stateMutability": "nonpayable",
      "type": "function"
    },
    {
      "inputs": [
        {
          "internalType": "uint256",
          "name": "moveKey",
          "type": "uint256"
        },
        {
          "internalType": "address payable",
          "name": "organ",
          "type": "address"
        },
        {
          "internalType": "address",
          "name": "operator",
          "type": "address"
        },
        {
          "internalType": "address",
          "name": "target",
          "type": "address"
        },
        {
          "internalType": "uint256",
          "name": "value",
          "type": "uint256"
        },
        {
          "internalType": "bool",
          "name": "lock",
          "type": "bool"
        }
      ],
      "name": "moveReceiveCoins",
      "outputs": [],
      "stateMutability": "nonpayable",
      "type": "function"
    },
    {
      "inputs": [
        {
          "internalType": "uint256",
          "name": "moveKey",
          "type": "uint256"
        },
        {
          "internalType": "address payable",
          "name": "organ",
          "type": "address"
        },
        {
          "internalType": "address",
          "name": "operator",
          "type": "address"
        },
        {
          "internalType": "address",
          "name": "target",
          "type": "address"
        },
        {
          "internalType": "uint256",
          "name": "value",
          "type": "uint256"
        },
        {
          "internalType": "bool",
          "name": "lock",
          "type": "bool"
        }
      ],
      "name": "moveTransferCoins",
      "outputs": [],
      "stateMutability": "nonpayable",
      "type": "function"
    },
    {
      "inputs": [
        {
          "internalType": "uint256",
          "name": "moveKey",
          "type": "uint256"
        },
        {
          "internalType": "address payable",
          "name": "organ",
          "type": "address"
        },
        {
          "internalType": "address",
          "name": "target",
          "type": "address"
        },
        {
          "internalType": "uint256",
          "name": "value",
          "type": "uint256"
        },
        {
          "internalType": "bool",
          "name": "lock",
          "type": "bool"
        }
      ],
      "name": "moveReceiveEther",
      "outputs": [],
      "stateMutability": "nonpayable",
      "type": "function"
    },
    {
      "inputs": [
        {
          "internalType": "uint256",
          "name": "moveKey",
          "type": "uint256"
        },
        {
          "internalType": "address payable",
          "name": "organ",
          "type": "address"
        },
        {
          "internalType": "address",
          "name": "target",
          "type": "address"
        },
        {
          "internalType": "uint256",
          "name": "value",
          "type": "uint256"
        },
        {
          "internalType": "bool",
          "name": "lock",
          "type": "bool"
        }
      ],
      "name": "moveTransferEther",
      "outputs": [],
      "stateMutability": "nonpayable",
      "type": "function"
    },
    {
      "inputs": [
        {
          "internalType": "uint256",
          "name": "moveKey",
          "type": "uint256"
        }
      ],
      "name": "lockMove",
      "outputs": [],
      "stateMutability": "nonpayable",
      "type": "function"
    },
    {
      "inputs": [],
      "name": "getMovesLength",
      "outputs": [
        {
          "internalType": "uint256",
          "name": "length",
          "type": "uint256"
        }
      ],
      "stateMutability": "view",
      "type": "function"
    },
    {
      "inputs": [
        {
          "internalType": "uint256",
          "name": "moveKey",
          "type": "uint256"
        }
      ],
      "name": "getMove",
      "outputs": [
        {
          "components": [
            {
              "internalType": "address payable",
              "name": "creator",
              "type": "address"
            },
            {
              "components": [
                {
                  "internalType": "bytes32",
                  "name": "ipfsHash",
                  "type": "bytes32"
                },
                {
                  "internalType": "uint8",
                  "name": "hashFunction",
                  "type": "uint8"
                },
                {
                  "internalType": "uint8",
                  "name": "hashSize",
                  "type": "uint8"
                }
              ],
              "internalType": "struct ProcedureLibrary.Metadata",
              "name": "metadata",
              "type": "tuple"
            },
            {
              "internalType": "bool",
              "name": "locked",
              "type": "bool"
            },
            {
              "internalType": "bool",
              "name": "applied",
              "type": "bool"
            },
            {
              "internalType": "bool",
              "name": "processing",
              "type": "bool"
            },
            {
              "components": [
                {
                  "internalType": "uint256",
                  "name": "index",
                  "type": "uint256"
                },
                {
                  "internalType": "address payable",
                  "name": "organ",
                  "type": "address"
                },
                {
                  "internalType": "uint256",
                  "name": "value",
                  "type": "uint256"
                },
                {
                  "internalType": "uint8",
                  "name": "operationType",
                  "type": "uint8"
                },
                {
                  "internalType": "bytes",
                  "name": "callData",
                  "type": "bytes"
                },
                {
                  "internalType": "bool",
                  "name": "processed",
                  "type": "bool"
                }
              ],
              "internalType": "struct ProcedureLibrary.Operation[]",
              "name": "operations",
              "type": "tuple[]"
            }
          ],
          "internalType": "struct ProcedureLibrary.Move",
          "name": "move",
          "type": "tuple"
        }
      ],
      "stateMutability": "view",
      "type": "function"
    },
    {
      "inputs": [],
      "name": "getMetadata",
      "outputs": [
        {
          "internalType": "bytes32",
          "name": "ipfsHash",
          "type": "bytes32"
        },
        {
          "internalType": "uint8",
          "name": "hashFunction",
          "type": "uint8"
        },
        {
          "internalType": "uint8",
          "name": "hashSize",
          "type": "uint8"
        }
      ],
      "stateMutability": "view",
      "type": "function"
    }
  ],
  "bytecode": "0x60806040523480156200001157600080fd5b506040516200555b3803806200555b8339818101604052810190620000379190620001ea565b6200004f6301ffc9a760e01b620000e460201b60201c565b620000676371dbd33060e01b620000e460201b60201c565b600173__ProcedureLibrary______________________63359a395d90918585856040518563ffffffff1660e01b8152600401620000a99493929190620002cd565b60006040518083038186803b158015620000c257600080fd5b505af4158015620000d7573d6000803e3d6000fd5b5050505050505062000376565b63ffffffff60e01b817bffffffffffffffffffffffffffffffffffffffffffffffffffffffff1916141562000150576040517f08c379a00000000000000000000000000000000000000000000000000000000081526004016200014790620002ab565b60405180910390fd5b6001600080837bffffffffffffffffffffffffffffffffffffffffffffffffffffffff19167bffffffffffffffffffffffffffffffffffffffffffffffffffffffff1916815260200190815260200160002060006101000a81548160ff02191690831515021790555050565b600081519050620001cd8162000342565b92915050565b600081519050620001e4816200035c565b92915050565b6000806000606084860312156200020057600080fd5b60006200021086828701620001bc565b93505060206200022386828701620001d3565b92505060406200023686828701620001d3565b9150509250925092565b6200024b816200032b565b82525050565b600062000260601c836200031a565b91507f4552433136353a20696e76616c696420696e74657266616365206964000000006000830152602082019050919050565b8082525050565b620002a58162000335565b82525050565b60006020820190508181036000830152620002c68162000251565b9050919050565b6000608082019050620002e4600083018762000293565b620002f3602083018662000240565b6200030260408301856200029a565b6200031160608301846200029a565b95945050505050565b600082825260208201905092915050565b6000819050919050565b600060ff82169050919050565b6200034d816200032b565b81146200035957600080fd5b50565b620003678162000335565b81146200037357600080fd5b50565b6151d580620003866000396000f3fe608060405234801561001057600080fd5b50600436106101375760003560e01c806367c322d0116100b8578063a2b58cda1161007c578063a2b58cda1461030e578063c492f4631461033e578063cb6bc9ff1461035a578063cc12503114610376578063e2f273bd14610392578063fa160aa2146103ae57610137565b806367c322d01461026a57806371dbd330146102865780637a5b4f59146102b65780637c3a5fcc146102d65780637ee7fa40146102f257610137565b80633e9a9bd8116100ff5780633e9a9bd8146101dc57806352c041b2146101fa5780635a31b560146102165780635ba357dc146102325780636322ab201461024e57610137565b806301ffc9a71461013c5780630b5522a91461016c578063148a2005146101885780632c1d5337146101a457806339c2ae70146101c0575b600080fd5b61015660048036038101906101519190614335565b6103ca565b6040516101639190614d20565b60405180910390f35b610186600480360381019061018191906144fc565b610431565b005b6101a2600480360381019061019d9190614410565b610454565b005b6101be60048036038101906101b99190614387565b61047a565b005b6101da60048036038101906101d59190614297565b6104a0565b005b6101e4610515565b6040516101f19190614e3d565b60405180910390f35b610214600480360381019061020f9190614665565b610522565b005b610230600480360381019061022b9190614410565b61054e565b005b61024c6004803603810190610247919061435e565b610574565b005b61026860048036038101906102639190614717565b61058b565b005b610284600480360381019061027f9190614499565b6105ab565b005b6102a0600480360381019061029b919061435e565b6105cb565b6040516102ad9190614d92565b60405180910390f35b6102be61089d565b6040516102cd93929190614d3b565b60405180910390f35b6102f060048036038101906102eb9190614410565b610937565b005b61030c60048036038101906103079190614573565b61095d565b005b61032860048036038101906103239190614297565b610980565b6040516103359190614e3d565b60405180910390f35b610358600480360381019061035391906145ea565b6109a3565b005b610374600480360381019061036f9190614410565b6109c3565b005b610390600480360381019061038b9190614573565b6109e9565b005b6103ac60048036038101906103a7919061426e565b610a0c565b005b6103c860048036038101906103c3919061477a565b610a7b565b005b6000806000837bffffffffffffffffffffffffffffffffffffffffffffffffffffffff19167bffffffffffffffffffffffffffffffffffffffffffffffffffffffff1916815260200190815260200160002060009054906101000a900460ff169050919050565b61044d85858585856001610a989095949392919063ffffffff16565b5050505050565b6104728686868686866001610e75909695949392919063ffffffff16565b505050505050565b6104988686868686866001611255909695949392919063ffffffff16565b505050505050565b600173__ProcedureLibrary______________________63b8cc9a0290918585856040518563ffffffff1660e01b81526004016104e09493929190614df8565b60006040518083038186803b1580156104f857600080fd5b505af415801561050c573d6000803e3d6000fd5b50505050505050565b6000600160040154905090565b610544888888888888888860016116359098979695949392919063ffffffff16565b5050505050505050565b61056c86868686868660016119e5909695949392919063ffffffff16565b505050505050565b610588816001611dc590919063ffffffff16565b50565b6105a5848484846001611fa590949392919063ffffffff16565b50505050565b6105c584848484600161237f90949392919063ffffffff16565b50505050565b6105d3613f32565b600160030160008381526020019081526020016000206040518060c00160405290816000820160009054906101000a900473ffffffffffffffffffffffffffffffffffffffff1673ffffffffffffffffffffffffffffffffffffffff1673ffffffffffffffffffffffffffffffffffffffff16815260200160018201604051806060016040529081600082015481526020016001820160009054906101000a900460ff1660ff1660ff1681526020016001820160019054906101000a900460ff1660ff1660ff168152505081526020016003820160009054906101000a900460ff161515151581526020016003820160019054906101000a900460ff161515151581526020016003820160029054906101000a900460ff1615151515815260200160048201805480602002602001604051908101604052809291908181526020016000905b8282101561088e57838290600052602060002090600602016040518060c0016040529081600082015481526020016001820160009054906101000a900473ffffffffffffffffffffffffffffffffffffffff1673ffffffffffffffffffffffffffffffffffffffff1673ffffffffffffffffffffffffffffffffffffffff168152602001600282015481526020016003820160009054906101000a900460ff1660ff1660ff168152602001600482018054600181600116156101000203166002900480601f01602080910402602001604051908101604052809291908181526020018280546001816001161561010002031660029004801561085b5780601f106108305761010080835404028352916020019161085b565b820191906000526020600020905b81548152906001019060200180831161083e57829003601f168201915b505050505081526020016005820160009054906101000a900460ff16151515158152505081526020019060010190610718565b50505050815250509050919050565b6000806000600173__ProcedureLibrary______________________6383fecb1a90916040518263ffffffff1660e01b81526004016108dc9190614db4565b60606040518083038186803b1580156108f457600080fd5b505af4158015610908573d6000803e3d6000fd5b505050506040513d601f19601f8201168201806040525081019061092c91906142e6565b925092509250909192565b6109558686868686866001612759909695949392919063ffffffff16565b505050505050565b61097985858585856001612b379095949392919063ffffffff16565b5050505050565b600061099a8484846001612f14909392919063ffffffff16565b90509392505050565b6109bd84848484600161301790949392919063ffffffff16565b50505050565b6109e186868686868660016133f1909695949392919063ffffffff16565b505050505050565b610a05858585858560016137d19095949392919063ffffffff16565b5050505050565b600173__ProcedureLibrary______________________638e956e929091836040518363ffffffff1660e01b8152600401610a48929190614dcf565b60006040518083038186803b158015610a6057600080fd5b505af4158015610a74573d6000803e3d6000fd5b5050505050565b610a938383836001613bae909392919063ffffffff16565b505050565b85853373ffffffffffffffffffffffffffffffffffffffff1682600301600083815260200190815260200160002060000160009054906101000a900473ffffffffffffffffffffffffffffffffffffffff1673ffffffffffffffffffffffffffffffffffffffff1614610b40576040517f08c379a0000000000000000000000000000000000000000000000000000000008152600401610b3790614d72565b60405180910390fd5b878781600301600082815260200190815260200160002060030160009054906101000a900460ff16158015610b98575081600301600082815260200190815260200160002060030160019054906101000a900460ff16155b8015610bc7575081600301600082815260200190815260200160002060030160029054906101000a900460ff16155b610c06576040517f08c379a0000000000000000000000000000000000000000000000000000000008152600401610bfd90614d72565b60405180910390fd5b8960030160008a81526020019081526020016000206004016040518060c001604052808c60030160008d81526020019081526020016000206004018054905081526020018a73ffffffffffffffffffffffffffffffffffffffff16815260200160008152602001600460ff1681526020016390b137e98a8a604051602401610c8f929190614cac565b6040516020818303038152906040529060e01b6020820180517bffffffffffffffffffffffffffffffffffffffffffffffffffffffff838183161783525050505081526020016000151581525090806001815401808255809150506001900390600052602060002090600602016000909190919091506000820151816000015560208201518160010160006101000a81548173ffffffffffffffffffffffffffffffffffffffff021916908373ffffffffffffffffffffffffffffffffffffffff1602179055506040820151816002015560608201518160030160006101000a81548160ff021916908360ff1602179055506080820151816004019080519060200190610d9d929190613f8a565b5060a08201518160050160006101000a81548160ff02191690831515021790555050508415610e695760018a60030160008b815260200190815260200160002060030160006101000a81548160ff0219169083151502179055507f7306ab933b6e1df1bd2fddce7143eeedd65d5996fada0e9168c4e8c3d1ece94d8a60030160008b815260200190815260200160002060000160009054906101000a900473ffffffffffffffffffffffffffffffffffffffff168a604051610e60929190614c15565b60405180910390a15b50505050505050505050565b86863373ffffffffffffffffffffffffffffffffffffffff1682600301600083815260200190815260200160002060000160009054906101000a900473ffffffffffffffffffffffffffffffffffffffff1673ffffffffffffffffffffffffffffffffffffffff1614610f1d576040517f08c379a0000000000000000000000000000000000000000000000000000000008152600401610f1490614d72565b60405180910390fd5b888881600301600082815260200190815260200160002060030160009054906101000a900460ff16158015610f75575081600301600082815260200190815260200160002060030160019054906101000a900460ff16155b8015610fa4575081600301600082815260200190815260200160002060030160029054906101000a900460ff16155b610fe3576040517f08c379a0000000000000000000000000000000000000000000000000000000008152600401610fda90614d72565b60405180910390fd5b8a60030160008b81526020019081526020016000206004016040518060c001604052808d60030160008e81526020019081526020016000206004018054905081526020018b73ffffffffffffffffffffffffffffffffffffffff16815260200160008152602001600760ff16815260200163c10753298b8b8b60405160240161106e93929190614c75565b6040516020818303038152906040529060e01b6020820180517bffffffffffffffffffffffffffffffffffffffffffffffffffffffff838183161783525050505081526020016000151581525090806001815401808255809150506001900390600052602060002090600602016000909190919091506000820151816000015560208201518160010160006101000a81548173ffffffffffffffffffffffffffffffffffffffff021916908373ffffffffffffffffffffffffffffffffffffffff1602179055506040820151816002015560608201518160030160006101000a81548160ff021916908360ff160217905550608082015181600401908051906020019061117c929190613f8a565b5060a08201518160050160006101000a81548160ff021916908315150217905550505084156112485760018b60030160008c815260200190815260200160002060030160006101000a81548160ff0219169083151502179055507f7306ab933b6e1df1bd2fddce7143eeedd65d5996fada0e9168c4e8c3d1ece94d8b60030160008c815260200190815260200160002060000160009054906101000a900473ffffffffffffffffffffffffffffffffffffffff168b60405161123f929190614c15565b60405180910390a15b5050505050505050505050565b86863373ffffffffffffffffffffffffffffffffffffffff1682600301600083815260200190815260200160002060000160009054906101000a900473ffffffffffffffffffffffffffffffffffffffff1673ffffffffffffffffffffffffffffffffffffffff16146112fd576040517f08c379a00000000000000000000000000000000000000000000000000000000081526004016112f490614d72565b60405180910390fd5b888881600301600082815260200190815260200160002060030160009054906101000a900460ff16158015611355575081600301600082815260200190815260200160002060030160019054906101000a900460ff16155b8015611384575081600301600082815260200190815260200160002060030160029054906101000a900460ff16155b6113c3576040517f08c379a00000000000000000000000000000000000000000000000000000000081526004016113ba90614d72565b60405180910390fd5b8a60030160008b81526020019081526020016000206004016040518060c001604052808d60030160008e81526020019081526020016000206004018054905081526020018b73ffffffffffffffffffffffffffffffffffffffff16815260200160008152602001600660ff168152602001635676c77d8b8b8b60405160240161144e93929190614c3e565b6040516020818303038152906040529060e01b6020820180517bffffffffffffffffffffffffffffffffffffffffffffffffffffffff838183161783525050505081526020016000151581525090806001815401808255809150506001900390600052602060002090600602016000909190919091506000820151816000015560208201518160010160006101000a81548173ffffffffffffffffffffffffffffffffffffffff021916908373ffffffffffffffffffffffffffffffffffffffff1602179055506040820151816002015560608201518160030160006101000a81548160ff021916908360ff160217905550608082015181600401908051906020019061155c929190613f8a565b5060a08201518160050160006101000a81548160ff021916908315150217905550505084156116285760018b60030160008c815260200190815260200160002060030160006101000a81548160ff0219169083151502179055507f7306ab933b6e1df1bd2fddce7143eeedd65d5996fada0e9168c4e8c3d1ece94d8b60030160008c815260200190815260200160002060000160009054906101000a900473ffffffffffffffffffffffffffffffffffffffff168b60405161161f929190614c15565b60405180910390a15b5050505050505050505050565b88883373ffffffffffffffffffffffffffffffffffffffff1682600301600083815260200190815260200160002060000160009054906101000a900473ffffffffffffffffffffffffffffffffffffffff1673ffffffffffffffffffffffffffffffffffffffff16146116dd576040517f08c379a00000000000000000000000000000000000000000000000000000000081526004016116d490614d72565b60405180910390fd5b8a8a81600301600082815260200190815260200160002060030160009054906101000a900460ff16158015611735575081600301600082815260200190815260200160002060030160019054906101000a900460ff16155b8015611764575081600301600082815260200190815260200160002060030160029054906101000a900460ff16155b6117a3576040517f08c379a000000000000000000000000000000000000000000000000000000000815260040161179a90614d72565b60405180910390fd5b60008d60030160008e81526020019081526020016000209050806004016040518060c00160405280836004018054905081526020018e73ffffffffffffffffffffffffffffffffffffffff16815260200160008152602001600360ff16815260200163155a73ce8e8e8e8e8e604051602401611823959493929190614e58565b6040516020818303038152906040529060e01b6020820180517bffffffffffffffffffffffffffffffffffffffffffffffffffffffff838183161783525050505081526020016000151581525090806001815401808255809150506001900390600052602060002090600602016000909190919091506000820151816000015560208201518160010160006101000a81548173ffffffffffffffffffffffffffffffffffffffff021916908373ffffffffffffffffffffffffffffffffffffffff1602179055506040820151816002015560608201518160030160006101000a81548160ff021916908360ff1602179055506080820151816004019080519060200190611931929190613f8a565b5060a08201518160050160006101000a81548160ff021916908315150217905550505085156119d55760018160030160006101000a81548160ff0219169083151502179055507f7306ab933b6e1df1bd2fddce7143eeedd65d5996fada0e9168c4e8c3d1ece94d8160000160009054906101000a900473ffffffffffffffffffffffffffffffffffffffff168e6040516119cc929190614c15565b60405180910390a15b5050505050505050505050505050565b86863373ffffffffffffffffffffffffffffffffffffffff1682600301600083815260200190815260200160002060000160009054906101000a900473ffffffffffffffffffffffffffffffffffffffff1673ffffffffffffffffffffffffffffffffffffffff1614611a8d576040517f08c379a0000000000000000000000000000000000000000000000000000000008152600401611a8490614d72565b60405180910390fd5b888881600301600082815260200190815260200160002060030160009054906101000a900460ff16158015611ae5575081600301600082815260200190815260200160002060030160019054906101000a900460ff16155b8015611b14575081600301600082815260200190815260200160002060030160029054906101000a900460ff16155b611b53576040517f08c379a0000000000000000000000000000000000000000000000000000000008152600401611b4a90614d72565b60405180910390fd5b8a60030160008b81526020019081526020016000206004016040518060c001604052808d60030160008e81526020019081526020016000206004018054905081526020018b73ffffffffffffffffffffffffffffffffffffffff16815260200160008152602001600860ff168152602001635e35359e8b8b8b604051602401611bde93929190614c75565b6040516020818303038152906040529060e01b6020820180517bffffffffffffffffffffffffffffffffffffffffffffffffffffffff838183161783525050505081526020016000151581525090806001815401808255809150506001900390600052602060002090600602016000909190919091506000820151816000015560208201518160010160006101000a81548173ffffffffffffffffffffffffffffffffffffffff021916908373ffffffffffffffffffffffffffffffffffffffff1602179055506040820151816002015560608201518160030160006101000a81548160ff021916908360ff1602179055506080820151816004019080519060200190611cec929190613f8a565b5060a08201518160050160006101000a81548160ff02191690831515021790555050508415611db85760018b60030160008c815260200190815260200160002060030160006101000a81548160ff0219169083151502179055507f7306ab933b6e1df1bd2fddce7143eeedd65d5996fada0e9168c4e8c3d1ece94d8b60030160008c815260200190815260200160002060000160009054906101000a900473ffffffffffffffffffffffffffffffffffffffff168b604051611daf929190614c15565b60405180910390a15b5050505050505050505050565b81813373ffffffffffffffffffffffffffffffffffffffff1682600301600083815260200190815260200160002060000160009054906101000a900473ffffffffffffffffffffffffffffffffffffffff1673ffffffffffffffffffffffffffffffffffffffff1614611e6d576040517f08c379a0000000000000000000000000000000000000000000000000000000008152600401611e6490614d72565b60405180910390fd5b838381600301600082815260200190815260200160002060030160009054906101000a900460ff16158015611ec5575081600301600082815260200190815260200160002060030160019054906101000a900460ff16155b8015611ef4575081600301600082815260200190815260200160002060030160029054906101000a900460ff16155b611f33576040517f08c379a0000000000000000000000000000000000000000000000000000000008152600401611f2a90614d72565b60405180910390fd5b600186600301600087815260200190815260200160002060030160006101000a81548160ff0219169083151502179055507f7306ab933b6e1df1bd2fddce7143eeedd65d5996fada0e9168c4e8c3d1ece94d3386604051611f95929190614c15565b60405180910390a1505050505050565b84843373ffffffffffffffffffffffffffffffffffffffff1682600301600083815260200190815260200160002060000160009054906101000a900473ffffffffffffffffffffffffffffffffffffffff1673ffffffffffffffffffffffffffffffffffffffff161461204d576040517f08c379a000000000000000000000000000000000000000000000000000000000815260040161204490614d72565b60405180910390fd5b868681600301600082815260200190815260200160002060030160009054906101000a900460ff161580156120a5575081600301600082815260200190815260200160002060030160019054906101000a900460ff16155b80156120d4575081600301600082815260200190815260200160002060030160029054906101000a900460ff16155b612113576040517f08c379a000000000000000000000000000000000000000000000000000000000815260040161210a90614d72565b60405180910390fd5b8860030160008981526020019081526020016000206004016040518060c001604052808b60030160008c81526020019081526020016000206004018054905081526020018973ffffffffffffffffffffffffffffffffffffffff16815260200160008152602001600260ff1681526020016376a6411c8960405160240161219a9190614e3d565b6040516020818303038152906040529060e01b6020820180517bffffffffffffffffffffffffffffffffffffffffffffffffffffffff838183161783525050505081526020016000151581525090806001815401808255809150506001900390600052602060002090600602016000909190919091506000820151816000015560208201518160010160006101000a81548173ffffffffffffffffffffffffffffffffffffffff021916908373ffffffffffffffffffffffffffffffffffffffff1602179055506040820151816002015560608201518160030160006101000a81548160ff021916908360ff16021790555060808201518160040190805190602001906122a8929190613f8a565b5060a08201518160050160006101000a81548160ff021916908315150217905550505084156123745760018960030160008a815260200190815260200160002060030160006101000a81548160ff0219169083151502179055507f7306ab933b6e1df1bd2fddce7143eeedd65d5996fada0e9168c4e8c3d1ece94d8960030160008a815260200190815260200160002060000160009054906101000a900473ffffffffffffffffffffffffffffffffffffffff168960405161236b929190614c15565b60405180910390a15b505050505050505050565b84843373ffffffffffffffffffffffffffffffffffffffff1682600301600083815260200190815260200160002060000160009054906101000a900473ffffffffffffffffffffffffffffffffffffffff1673ffffffffffffffffffffffffffffffffffffffff1614612427576040517f08c379a000000000000000000000000000000000000000000000000000000000815260040161241e90614d72565b60405180910390fd5b868681600301600082815260200190815260200160002060030160009054906101000a900460ff1615801561247f575081600301600082815260200190815260200160002060030160019054906101000a900460ff16155b80156124ae575081600301600082815260200190815260200160002060030160029054906101000a900460ff16155b6124ed576040517f08c379a00000000000000000000000000000000000000000000000000000000081526004016124e490614d72565b60405180910390fd5b8860030160008981526020019081526020016000206004016040518060c001604052808b60030160008c81526020019081526020016000206004018054905081526020018973ffffffffffffffffffffffffffffffffffffffff16815260200160008152602001600560ff1681526020016319b9404c896040516024016125749190614bfa565b6040516020818303038152906040529060e01b6020820180517bffffffffffffffffffffffffffffffffffffffffffffffffffffffff838183161783525050505081526020016000151581525090806001815401808255809150506001900390600052602060002090600602016000909190919091506000820151816000015560208201518160010160006101000a81548173ffffffffffffffffffffffffffffffffffffffff021916908373ffffffffffffffffffffffffffffffffffffffff1602179055506040820151816002015560608201518160030160006101000a81548160ff021916908360ff1602179055506080820151816004019080519060200190612682929190613f8a565b5060a08201518160050160006101000a81548160ff0219169083151502179055505050841561274e5760018960030160008a815260200190815260200160002060030160006101000a81548160ff0219169083151502179055507f7306ab933b6e1df1bd2fddce7143eeedd65d5996fada0e9168c4e8c3d1ece94d8960030160008a815260200190815260200160002060000160009054906101000a900473ffffffffffffffffffffffffffffffffffffffff1689604051612745929190614c15565b60405180910390a15b505050505050505050565b86863373ffffffffffffffffffffffffffffffffffffffff1682600301600083815260200190815260200160002060000160009054906101000a900473ffffffffffffffffffffffffffffffffffffffff1673ffffffffffffffffffffffffffffffffffffffff1614612801576040517f08c379a00000000000000000000000000000000000000000000000000000000081526004016127f890614d72565b60405180910390fd5b888881600301600082815260200190815260200160002060030160009054906101000a900460ff16158015612859575081600301600082815260200190815260200160002060030160019054906101000a900460ff16155b8015612888575081600301600082815260200190815260200160002060030160029054906101000a900460ff16155b6128c7576040517f08c379a00000000000000000000000000000000000000000000000000000000081526004016128be90614d72565b60405180910390fd5b8a60030160008b81526020019081526020016000206004016040518060c001604052808d60030160008e81526020019081526020016000206004018054905081526020018b73ffffffffffffffffffffffffffffffffffffffff16815260200160008152602001600760ff16815260200163c10753298b8a604051602401612950929190614cd5565b6040516020818303038152906040529060e01b6020820180517bffffffffffffffffffffffffffffffffffffffffffffffffffffffff838183161783525050505081526020016000151581525090806001815401808255809150506001900390600052602060002090600602016000909190919091506000820151816000015560208201518160010160006101000a81548173ffffffffffffffffffffffffffffffffffffffff021916908373ffffffffffffffffffffffffffffffffffffffff1602179055506040820151816002015560608201518160030160006101000a81548160ff021916908360ff1602179055506080820151816004019080519060200190612a5e929190613f8a565b5060a08201518160050160006101000a81548160ff02191690831515021790555050508415612b2a5760018b60030160008c815260200190815260200160002060030160006101000a81548160ff0219169083151502179055507f7306ab933b6e1df1bd2fddce7143eeedd65d5996fada0e9168c4e8c3d1ece94d8b60030160008c815260200190815260200160002060000160009054906101000a900473ffffffffffffffffffffffffffffffffffffffff168b604051612b21929190614c15565b60405180910390a15b5050505050505050505050565b85853373ffffffffffffffffffffffffffffffffffffffff1682600301600083815260200190815260200160002060000160009054906101000a900473ffffffffffffffffffffffffffffffffffffffff1673ffffffffffffffffffffffffffffffffffffffff1614612bdf576040517f08c379a0000000000000000000000000000000000000000000000000000000008152600401612bd690614d72565b60405180910390fd5b878781600301600082815260200190815260200160002060030160009054906101000a900460ff16158015612c37575081600301600082815260200190815260200160002060030160019054906101000a900460ff16155b8015612c66575081600301600082815260200190815260200160002060030160029054906101000a900460ff16155b612ca5576040517f08c379a0000000000000000000000000000000000000000000000000000000008152600401612c9c90614d72565b60405180910390fd5b8960030160008a81526020019081526020016000206004016040518060c001604052808c60030160008d81526020019081526020016000206004018054905081526020018a73ffffffffffffffffffffffffffffffffffffffff16815260200160008152602001600760ff16815260200163c10753298a8a604051602401612d2e929190614cd5565b6040516020818303038152906040529060e01b6020820180517bffffffffffffffffffffffffffffffffffffffffffffffffffffffff838183161783525050505081526020016000151581525090806001815401808255809150506001900390600052602060002090600602016000909190919091506000820151816000015560208201518160010160006101000a81548173ffffffffffffffffffffffffffffffffffffffff021916908373ffffffffffffffffffffffffffffffffffffffff1602179055506040820151816002015560608201518160030160006101000a81548160ff021916908360ff1602179055506080820151816004019080519060200190612e3c929190613f8a565b5060a08201518160050160006101000a81548160ff02191690831515021790555050508415612f085760018a60030160008b815260200190815260200160002060030160006101000a81548160ff0219169083151502179055507f7306ab933b6e1df1bd2fddce7143eeedd65d5996fada0e9168c4e8c3d1ece94d8a60030160008b815260200190815260200160002060000160009054906101000a900473ffffffffffffffffffffffffffffffffffffffff168a604051612eff929190614c15565b60405180910390a15b50505050505050505050565b6000808560040160008154809291906001019190505590503386600301600083815260200190815260200160002060000160006101000a81548173ffffffffffffffffffffffffffffffffffffffff021916908373ffffffffffffffffffffffffffffffffffffffff16021790555060405180606001604052808681526020018560ff1681526020018460ff168152508660030160008381526020019081526020016000206001016000820151816000015560208201518160010160006101000a81548160ff021916908360ff16021790555060408201518160010160016101000a81548160ff021916908360ff16021790555090505080915050949350505050565b84843373ffffffffffffffffffffffffffffffffffffffff1682600301600083815260200190815260200160002060000160009054906101000a900473ffffffffffffffffffffffffffffffffffffffff1673ffffffffffffffffffffffffffffffffffffffff16146130bf576040517f08c379a00000000000000000000000000000000000000000000000000000000081526004016130b690614d72565b60405180910390fd5b868681600301600082815260200190815260200160002060030160009054906101000a900460ff16158015613117575081600301600082815260200190815260200160002060030160019054906101000a900460ff16155b8015613146575081600301600082815260200190815260200160002060030160029054906101000a900460ff16155b613185576040517f08c379a000000000000000000000000000000000000000000000000000000000815260040161317c90614d72565b60405180910390fd5b8860030160008981526020019081526020016000206004016040518060c001604052808b60030160008c81526020019081526020016000206004018054905081526020018973ffffffffffffffffffffffffffffffffffffffff16815260200160008152602001600160ff168152602001631715f4de8960405160240161320c9190614cfe565b6040516020818303038152906040529060e01b6020820180517bffffffffffffffffffffffffffffffffffffffffffffffffffffffff838183161783525050505081526020016000151581525090806001815401808255809150506001900390600052602060002090600602016000909190919091506000820151816000015560208201518160010160006101000a81548173ffffffffffffffffffffffffffffffffffffffff021916908373ffffffffffffffffffffffffffffffffffffffff1602179055506040820151816002015560608201518160030160006101000a81548160ff021916908360ff160217905550608082015181600401908051906020019061331a929190613f8a565b5060a08201518160050160006101000a81548160ff021916908315150217905550505084156133e65760018960030160008a815260200190815260200160002060030160006101000a81548160ff0219169083151502179055507f7306ab933b6e1df1bd2fddce7143eeedd65d5996fada0e9168c4e8c3d1ece94d8960030160008a815260200190815260200160002060000160009054906101000a900473ffffffffffffffffffffffffffffffffffffffff16896040516133dd929190614c15565b60405180910390a15b505050505050505050565b86863373ffffffffffffffffffffffffffffffffffffffff1682600301600083815260200190815260200160002060000160009054906101000a900473ffffffffffffffffffffffffffffffffffffffff1673ffffffffffffffffffffffffffffffffffffffff1614613499576040517f08c379a000000000000000000000000000000000000000000000000000000000815260040161349090614d72565b60405180910390fd5b888881600301600082815260200190815260200160002060030160009054906101000a900460ff161580156134f1575081600301600082815260200190815260200160002060030160019054906101000a900460ff16155b8015613520575081600301600082815260200190815260200160002060030160029054906101000a900460ff16155b61355f576040517f08c379a000000000000000000000000000000000000000000000000000000000815260040161355690614d72565b60405180910390fd5b8a60030160008b81526020019081526020016000206004016040518060c001604052808d60030160008e81526020019081526020016000206004018054905081526020018b73ffffffffffffffffffffffffffffffffffffffff16815260200160008152602001600860ff168152602001635e35359e8b8b8b6040516024016135ea93929190614c75565b6040516020818303038152906040529060e01b6020820180517bffffffffffffffffffffffffffffffffffffffffffffffffffffffff838183161783525050505081526020016000151581525090806001815401808255809150506001900390600052602060002090600602016000909190919091506000820151816000015560208201518160010160006101000a81548173ffffffffffffffffffffffffffffffffffffffff021916908373ffffffffffffffffffffffffffffffffffffffff1602179055506040820151816002015560608201518160030160006101000a81548160ff021916908360ff16021790555060808201518160040190805190602001906136f8929190613f8a565b5060a08201518160050160006101000a81548160ff021916908315150217905550505084156137c45760018b60030160008c815260200190815260200160002060030160006101000a81548160ff0219169083151502179055507f7306ab933b6e1df1bd2fddce7143eeedd65d5996fada0e9168c4e8c3d1ece94d8b60030160008c815260200190815260200160002060000160009054906101000a900473ffffffffffffffffffffffffffffffffffffffff168b6040516137bb929190614c15565b60405180910390a15b5050505050505050505050565b85853373ffffffffffffffffffffffffffffffffffffffff1682600301600083815260200190815260200160002060000160009054906101000a900473ffffffffffffffffffffffffffffffffffffffff1673ffffffffffffffffffffffffffffffffffffffff1614613879576040517f08c379a000000000000000000000000000000000000000000000000000000000815260040161387090614d72565b60405180910390fd5b878781600301600082815260200190815260200160002060030160009054906101000a900460ff161580156138d1575081600301600082815260200190815260200160002060030160019054906101000a900460ff16155b8015613900575081600301600082815260200190815260200160002060030160029054906101000a900460ff16155b61393f576040517f08c379a000000000000000000000000000000000000000000000000000000000815260040161393690614d72565b60405180910390fd5b8960030160008a81526020019081526020016000206004016040518060c001604052808c60030160008d81526020019081526020016000206004018054905081526020018a73ffffffffffffffffffffffffffffffffffffffff16815260200160008152602001600860ff168152602001635e35359e8a8a6040516024016139c8929190614cd5565b6040516020818303038152906040529060e01b6020820180517bffffffffffffffffffffffffffffffffffffffffffffffffffffffff838183161783525050505081526020016000151581525090806001815401808255809150506001900390600052602060002090600602016000909190919091506000820151816000015560208201518160010160006101000a81548173ffffffffffffffffffffffffffffffffffffffff021916908373ffffffffffffffffffffffffffffffffffffffff1602179055506040820151816002015560608201518160030160006101000a81548160ff021916908360ff1602179055506080820151816004019080519060200190613ad6929190613f8a565b5060a08201518160050160006101000a81548160ff02191690831515021790555050508415613ba25760018a60030160008b815260200190815260200160002060030160006101000a81548160ff0219169083151502179055507f7306ab933b6e1df1bd2fddce7143eeedd65d5996fada0e9168c4e8c3d1ece94d8a60030160008b815260200190815260200160002060000160009054906101000a900473ffffffffffffffffffffffffffffffffffffffff168a604051613b99929190614c15565b60405180910390a15b50505050505050505050565b83833373ffffffffffffffffffffffffffffffffffffffff1682600301600083815260200190815260200160002060000160009054906101000a900473ffffffffffffffffffffffffffffffffffffffff1673ffffffffffffffffffffffffffffffffffffffff1614613c56576040517f08c379a0000000000000000000000000000000000000000000000000000000008152600401613c4d90614d72565b60405180910390fd5b858581600301600082815260200190815260200160002060030160009054906101000a900460ff16158015613cae575081600301600082815260200190815260200160002060030160019054906101000a900460ff16155b8015613cdd575081600301600082815260200190815260200160002060030160029054906101000a900460ff16155b613d1c576040517f08c379a0000000000000000000000000000000000000000000000000000000008152600401613d1390614d72565b60405180910390fd5b8760030160008881526020019081526020016000206004016040518060c001604052808a60030160008b8152602001908152602001600020600401805490508152602001600073ffffffffffffffffffffffffffffffffffffffff16815260200160008152602001600060ff1681526020018881526020016000151581525090806001815401808255809150506001900390600052602060002090600602016000909190919091506000820151816000015560208201518160010160006101000a81548173ffffffffffffffffffffffffffffffffffffffff021916908373ffffffffffffffffffffffffffffffffffffffff1602179055506040820151816002015560608201518160030160006101000a81548160ff021916908360ff1602179055506080820151816004019080519060200190613e5c929190613f8a565b5060a08201518160050160006101000a81548160ff02191690831515021790555050508415613f2857600188600301600089815260200190815260200160002060030160006101000a81548160ff0219169083151502179055507f7306ab933b6e1df1bd2fddce7143eeedd65d5996fada0e9168c4e8c3d1ece94d88600301600089815260200190815260200160002060000160009054906101000a900473ffffffffffffffffffffffffffffffffffffffff1688604051613f1f929190614c15565b60405180910390a15b5050505050505050565b6040518060c00160405280600073ffffffffffffffffffffffffffffffffffffffff168152602001613f6261400a565b8152602001600015158152602001600015158152602001600015158152602001606081525090565b828054600181600116156101000203166002900490600052602060002090601f016020900481019282601f10613fcb57805160ff1916838001178555613ff9565b82800160010185558215613ff9579182015b82811115613ff8578251825591602001919060010190613fdd565b5b5090506140069190614034565b5090565b604051806060016040528060008019168152602001600060ff168152602001600060ff1681525090565b5b8082111561404d576000816000905550600101614035565b5090565b600081359050614060816150e7565b92915050565b600081359050614075816150fe565b92915050565b600082601f83011261408c57600080fd5b813561409f61409a82614ed8565b614eab565b915081818352602084019350602081019050838560808402820111156140c457600080fd5b60005b838110156140f457816140da88826141bb565b8452602084019350608083019250506001810190506140c7565b5050505092915050565b60008135905061410d81615115565b92915050565b6000813590506141228161512c565b92915050565b60008135905061413781615143565b92915050565b60008151905061414c81615143565b92915050565b6000813590506141618161515a565b92915050565b600082601f83011261417857600080fd5b813561418b61418682614f00565b614eab565b915080825260208301602083018583830111156141a757600080fd5b6141b2838284615094565b50505092915050565b6000608082840312156141cd57600080fd5b6141d76080614eab565b905060006141e784828501614051565b60008301525060206141fb84828501614128565b602083015250604061420f84828501614244565b604083015250606061422384828501614244565b60608301525092915050565b60008135905061423e81615171565b92915050565b60008135905061425381615188565b92915050565b60008151905061426881615188565b92915050565b60006020828403121561428057600080fd5b600061428e84828501614066565b91505092915050565b6000806000606084860312156142ac57600080fd5b60006142ba86828701614128565b93505060206142cb86828701614244565b92505060406142dc86828701614244565b9150509250925092565b6000806000606084860312156142fb57600080fd5b60006143098682870161413d565b935050602061431a86828701614259565b925050604061432b86828701614259565b9150509250925092565b60006020828403121561434757600080fd5b600061435584828501614152565b91505092915050565b60006020828403121561437057600080fd5b600061437e8482850161422f565b91505092915050565b60008060008060008060c087890312156143a057600080fd5b60006143ae89828a0161422f565b96505060206143bf89828a01614066565b95505060406143d089828a01614051565b94505060606143e189828a01614051565b93505060806143f289828a01614113565b92505060a061440389828a016140fe565b9150509295509295509295565b60008060008060008060c0878903121561442957600080fd5b600061443789828a0161422f565b965050602061444889828a01614066565b955050604061445989828a01614051565b945050606061446a89828a01614051565b935050608061447b89828a0161422f565b92505060a061448c89828a016140fe565b9150509295509295509295565b600080600080608085870312156144af57600080fd5b60006144bd8782880161422f565b94505060206144ce87828801614066565b93505060406144df87828801614051565b92505060606144f0878288016140fe565b91505092959194509250565b600080600080600060a0868803121561451457600080fd5b60006145228882890161422f565b955050602061453388828901614066565b945050604061454488828901614051565b935050606061455588828901614113565b9250506080614566888289016140fe565b9150509295509295909350565b600080600080600060a0868803121561458b57600080fd5b60006145998882890161422f565b95505060206145aa88828901614066565b94505060406145bb88828901614051565b93505060606145cc8882890161422f565b92505060806145dd888289016140fe565b9150509295509295909350565b6000806000806080858703121561460057600080fd5b600061460e8782880161422f565b945050602061461f87828801614066565b935050604085013567ffffffffffffffff81111561463c57600080fd5b6146488782880161407b565b9250506060614659878288016140fe565b91505092959194509250565b600080600080600080600080610100898b03121561468257600080fd5b60006146908b828c0161422f565b98505060206146a18b828c01614066565b97505060406146b28b828c0161422f565b96505060606146c38b828c01614066565b95505060806146d48b828c01614128565b94505060a06146e58b828c01614244565b93505060c06146f68b828c01614244565b92505060e06147078b828c016140fe565b9150509295985092959890939650565b6000806000806080858703121561472d57600080fd5b600061473b8782880161422f565b945050602061474c87828801614066565b935050604061475d8782880161422f565b925050606061476e878288016140fe565b91505092959194509250565b60008060006060848603121561478f57600080fd5b600061479d8682870161422f565b935050602084013567ffffffffffffffff8111156147ba57600080fd5b6147c686828701614167565b92505060406147d7868287016140fe565b9150509250925092565b60006147ed83836149fe565b60808301905092915050565b60006148058383614b1f565b905092915050565b61481681614fdd565b82525050565b61482581614fdd565b82525050565b61483481614fdd565b82525050565b61484381614fcb565b82525050565b61485281614fcb565b82525050565b600061486382614f4c565b61486d8185614f87565b935061487883614f2c565b8060005b838110156148a957815161489088826147e1565b975061489b83614f6d565b92505060018101905061487c565b5085935050505092915050565b60006148c182614f57565b6148cb8185614f98565b9350836020820285016148dd85614f3c565b8060005b8581101561491957848403895281516148fa85826147f9565b945061490583614f7a565b925060208a019950506001810190506148e1565b50829750879550505050505092915050565b61493481614fef565b82525050565b61494381614fef565b82525050565b61495281614ffb565b82525050565b61496181615027565b82525050565b61497081615027565b82525050565b61497f81615027565b82525050565b600061499082614f62565b61499a8185614fa9565b93506149aa8185602086016150a3565b6149b3816150d6565b840191505092915050565b60006149cb600f83614fba565b91507f4e6f7420617574686f72697a65642e00000000000000000000000000000000006000830152602082019050919050565b608082016000820151614a14600085018261483a565b506020820151614a276020850182614958565b506040820151614a3a6040850182614bcd565b506060820151614a4d6060850182614bcd565b50505050565b606082016000820151614a696000850182614958565b506020820151614a7c6020850182614bcd565b506040820151614a8f6040850182614bcd565b50505050565b600061010083016000830151614aae600086018261480d565b506020830151614ac16020860182614a53565b506040830151614ad4608086018261492b565b506060830151614ae760a086018261492b565b506080830151614afa60c086018261492b565b5060a083015184820360e0860152614b1282826148b6565b9150508091505092915050565b600060c083016000830151614b376000860182614baf565b506020830151614b4a602086018261480d565b506040830151614b5d6040860182614baf565b506060830151614b706060860182614bcd565b5060808301518482036080860152614b888282614985565b91505060a0830151614b9d60a086018261492b565b508091505092915050565b8082525050565b614bb88161507d565b82525050565b614bc78161507d565b82525050565b614bd681615087565b82525050565b614be581615087565b82525050565b614bf481615087565b82525050565b6000602082019050614c0f6000830184614849565b92915050565b6000604082019050614c2a600083018561481c565b614c376020830184614bbe565b9392505050565b6000606082019050614c536000830186614849565b614c606020830185614849565b614c6d6040830184614949565b949350505050565b6000606082019050614c8a6000830186614849565b614c976020830185614849565b614ca46040830184614bbe565b949350505050565b6000604082019050614cc16000830185614849565b614cce6020830184614949565b9392505050565b6000604082019050614cea6000830185614849565b614cf76020830184614bbe565b9392505050565b60006020820190508181036000830152614d188184614858565b905092915050565b6000602082019050614d35600083018461493a565b92915050565b6000606082019050614d506000830186614967565b614d5d6020830185614bdc565b614d6a6040830184614bdc565b949350505050565b60006020820190508181036000830152614d8b816149be565b9050919050565b60006020820190508181036000830152614dac8184614a95565b905092915050565b6000602082019050614dc96000830184614ba8565b92915050565b6000604082019050614de46000830185614ba8565b614df1602083018461482b565b9392505050565b6000608082019050614e0d6000830187614ba8565b614e1a6020830186614976565b614e276040830185614beb565b614e346060830184614beb565b95945050505050565b6000602082019050614e526000830184614bbe565b92915050565b600060a082019050614e6d6000830188614bbe565b614e7a602083018761481c565b614e876040830186614967565b614e946060830185614bdc565b614ea16080830184614bdc565b9695505050505050565b6000604051905081810181811067ffffffffffffffff82111715614ece57600080fd5b8060405250919050565b600067ffffffffffffffff821115614eef57600080fd5b602082029050602081019050919050565b600067ffffffffffffffff821115614f1757600080fd5b601f19601f8301169050602081019050919050565b6000819050602082019050919050565b6000819050602082019050919050565b600081519050919050565b600081519050919050565b600081519050919050565b6000602082019050919050565b6000602082019050919050565b600082825260208201905092915050565b600082825260208201905092915050565b600082825260208201905092915050565b600082825260208201905092915050565b6000614fd68261505d565b9050919050565b6000614fe88261505d565b9050919050565b60008115159050919050565b60007fffff00000000000000000000000000000000000000000000000000000000000082169050919050565b6000819050919050565b60007fffffffff0000000000000000000000000000000000000000000000000000000082169050919050565b600073ffffffffffffffffffffffffffffffffffffffff82169050919050565b6000819050919050565b600060ff82169050919050565b82818337600083830152505050565b60005b838110156150c15780820151818401526020810190506150a6565b838111156150d0576000848401525b50505050565b6000601f19601f8301169050919050565b6150f081614fcb565b81146150fb57600080fd5b50565b61510781614fdd565b811461511257600080fd5b50565b61511e81614fef565b811461512957600080fd5b50565b61513581614ffb565b811461514057600080fd5b50565b61514c81615027565b811461515757600080fd5b50565b61516381615031565b811461516e57600080fd5b50565b61517a8161507d565b811461518557600080fd5b50565b61519181615087565b811461519c57600080fd5b5056fea2646970667358221220064e919da51ec6d5fab691f86c1949f0974b077e9974c8301d157d3ac0159bc864736f6c634300060c0033",
  "immutableReferences": {},
  "source": "// SPDX-License-Identifier: LGPL-3.0-or-later\npragma solidity ^0.6.0;\npragma experimental ABIEncoderV2;\n\nimport \"./libraries/ProcedureLibrary.sol\";\nimport \"@openzeppelin/contracts/introspection/ERC165.sol\";\n\n/*\n    A procedure defines a set of operations compiled in a move.\n    The procedure dictates the way the move can be applied.\n\n    @TODO : Add moves getters.\n*/\n\ncontract Procedure is ERC165 {\n    using ProcedureLibrary for ProcedureLibrary.ProcedureData;\n    using ProcedureLibrary for ProcedureLibrary.Move;\n    using OrganLibrary for OrganLibrary.Entry;\n    ProcedureLibrary.ProcedureData private procedureData;\n    bytes4 private constant _INTERFACE_ID_PROCEDURE = 0x71dbd330;\n\n    /**\n        Modifiers.\n    */\n\n    modifier onlyInOrgan(address payable organAddress) {\n        require(ProcedureLibrary.isInOrgan(organAddress, msg.sender), \"Not authorized\");\n        _;\n    }\n\n    /**\n        Procedure constructor.\n    */\n\n    constructor (bytes32 metadataIpfsHash, uint8 metadataHashFunction, uint8 metadataHashSize)\n        public\n    {\n        // Register EIP165 interface for introspection.\n        _registerInterface(_INTERFACE_ID_PROCEDURE);\n        procedureData.init(metadataIpfsHash, metadataHashFunction, metadataHashSize);\n    }\n\n    /**\n        Internal API.\n        A procedure must call this method itself.\n    */\n\n    function applyMove(uint256 moveKey)\n        internal\n    {\n        procedureData.applyMove(moveKey);\n    }\n\n    /**\n        Public API : Procedure Metadata and Admin.\n    */\n\n    function updateMetadata(bytes32 ipfsHash, uint8 hashFunction, uint8 hashSize)\n        public\n    {\n        procedureData.updateMetadata(ipfsHash, hashFunction, hashSize);\n    }\n\n    function updateAdmin(address payable admin)\n        public\n    {\n        procedureData.updateAdmin(admin);\n    }\n\n    /**\n        Public API : Moves creation and update.\n    */\n\n    function createMove(bytes32 ipfsHash, uint8 hashFunction, uint8 hashSize)\n        public returns (uint256)\n    {\n        return procedureData.createMove(ipfsHash, hashFunction, hashSize);\n    }\n\n    function moveAddEntries(\n        uint256 moveKey, address payable organ, OrganLibrary.Entry[] memory entries, bool lock\n    )\n        public\n    {\n        procedureData.moveAddEntries(moveKey, organ, entries, lock);\n    }\n\n    function moveRemoveEntry(\n        uint256 moveKey, address payable organ, uint256 indexes, bool lock\n    )\n        public\n    {\n        procedureData.moveRemoveEntry(moveKey, organ, indexes, lock);\n    }\n\n    function moveReplaceEntry(\n        uint256 moveKey, address payable organ, uint index, address payable addr,\n        bytes32 ipfsHash, uint8 hashFunction, uint8 hashSize, bool lock\n    )\n        public\n    {\n        procedureData.moveReplaceEntry(moveKey, organ, index, addr, ipfsHash, hashFunction, hashSize, lock);\n    }\n\n    function moveAddProcedure(\n        uint256 moveKey, address payable organ, address procedure, bytes2 permissions, bool lock\n    )\n        public\n    {\n        procedureData.moveAddProcedure(moveKey, organ, procedure, permissions, lock);\n    }\n\n    function moveRemoveProcedure(\n        uint256 moveKey, address payable organ, address procedure, bool lock\n    )\n        public\n    {\n        procedureData.moveRemoveProcedure(moveKey, organ, procedure, lock);\n    }\n\n    function moveReplaceProcedure(\n        uint256 moveKey, address payable organ,\n        address oldProcedure, address newProcedure, bytes2 permissions, bool lock\n    )\n        public\n    {\n        procedureData.moveReplaceProcedure(moveKey, organ, oldProcedure, newProcedure, permissions, lock);\n    }\n\n    function moveCall(\n        uint256 moveKey, bytes memory call,  bool lock\n    )\n        public\n    {\n        procedureData.moveCall(moveKey, call, lock);\n    }\n\n    function moveReceiveCollectible(\n        uint256 moveKey, address payable organ, address operator, address target, uint256 token_id, bool lock\n    )\n        public\n    {\n        procedureData.moveReceiveCollectible(moveKey, organ, operator, target, token_id, lock);\n    }\n\n    function moveTransferCollectible(\n        uint256 moveKey, address payable organ, address operator, address target, uint256 token_id, bool lock\n    )\n        public\n    {\n        procedureData.moveTransferCollectible(moveKey, organ, operator, target, token_id, lock);\n    }\n\n    function moveReceiveCoins(\n        uint256 moveKey, address payable organ, address operator, address target, uint256 value, bool lock\n    )\n        public\n    {\n        procedureData.moveReceiveCoins(moveKey, organ, operator, target, value, lock);\n    }\n\n    function moveTransferCoins(\n        uint256 moveKey, address payable organ, address operator, address target, uint256 value, bool lock\n    )\n        public\n    {\n        procedureData.moveTransferCoins(moveKey, organ, operator, target, value, lock);\n    }\n\n    function moveReceiveEther(\n        uint256 moveKey, address payable organ, address target, uint256 value, bool lock\n    )\n        public\n    {\n        procedureData.moveReceiveEther(moveKey, organ, target, value, lock);\n    }\n\n    function moveTransferEther(\n        uint256 moveKey, address payable organ, address target, uint256 value, bool lock\n    )\n        public\n    {\n        procedureData.moveTransferEther(moveKey, organ, target, value, lock);\n    }\n\n    function lockMove(uint256 moveKey)\n        public\n    {\n        procedureData.lockMove(moveKey);\n    }\n\n    /*\n        Accessors.\n    */\n\n    function getMovesLength() public view returns (uint256 length) {\n        return procedureData.movesLength;\n    }\n\n    function getMove(uint256 moveKey) public view returns (ProcedureLibrary.Move memory move) {\n        return procedureData.moves[moveKey];\n    }\n\n    function getMetadata()\n        public\n        view\n        returns (\n            bytes32 ipfsHash,\n            uint8 hashFunction,\n            uint8 hashSize\n        )\n    {\n        return procedureData.getMetadata();\n    }\n}",
  "sourcePath": "/Users/alex/Code/organigr.am/packages/@organigram/contracts/contracts/Procedure.sol",
  "compiler": {
    "name": "solc",
    "version": "0.6.12+commit.27d51765.Emscripten.clang"
  },
  "schemaVersion": "3.3.2",
  "updatedAt": "2020-12-04T18:54:45.716Z",
  "devdoc": {
    "kind": "dev",
    "methods": {
      "supportsInterface(bytes4)": {
        "details": "See {IERC165-supportsInterface}. Time complexity O(1), guaranteed to always use less than 30 000 gas."
      }
    },
    "version": 1
  },
  "userdoc": {
    "kind": "user",
    "methods": {
      "constructor": "Procedure constructor.",
      "createMove(bytes32,uint8,uint8)": {
        "notice": "Public API : Moves creation and update."
      },
      "updateMetadata(bytes32,uint8,uint8)": {
        "notice": "Public API : Procedure Metadata and Admin."
      }
    },
    "version": 1
  }
}