{
  "contractName": "Procedure",
  "abi": [
    {
      "inputs": [],
      "stateMutability": "nonpayable",
      "type": "constructor"
    },
    {
      "inputs": [],
      "name": "INTERFACE_ID",
      "outputs": [
        {
          "internalType": "bytes4",
          "name": "",
          "type": "bytes4"
        }
      ],
      "stateMutability": "view",
      "type": "function"
    },
    {
      "inputs": [
        {
          "internalType": "bytes4",
          "name": "interfaceId",
          "type": "bytes4"
        }
      ],
      "name": "supportsInterface",
      "outputs": [
        {
          "internalType": "bool",
          "name": "",
          "type": "bool"
        }
      ],
      "stateMutability": "view",
      "type": "function"
    },
    {
      "inputs": [
        {
          "components": [
            {
              "internalType": "bytes32",
              "name": "ipfsHash",
              "type": "bytes32"
            },
            {
              "internalType": "uint8",
              "name": "hashFunction",
              "type": "uint8"
            },
            {
              "internalType": "uint8",
              "name": "hashSize",
              "type": "uint8"
            }
          ],
          "internalType": "struct CoreLibrary.Metadata",
          "name": "_metadata",
          "type": "tuple"
        },
        {
          "internalType": "address payable",
          "name": "_proposers",
          "type": "address"
        },
        {
          "internalType": "address payable",
          "name": "_moderators",
          "type": "address"
        },
        {
          "internalType": "address payable",
          "name": "_deciders",
          "type": "address"
        },
        {
          "internalType": "bool",
          "name": "_withModeration",
          "type": "bool"
        }
      ],
      "name": "initialize",
      "outputs": [],
      "stateMutability": "nonpayable",
      "type": "function"
    },
    {
      "inputs": [
        {
          "components": [
            {
              "internalType": "bytes32",
              "name": "ipfsHash",
              "type": "bytes32"
            },
            {
              "internalType": "uint8",
              "name": "hashFunction",
              "type": "uint8"
            },
            {
              "internalType": "uint8",
              "name": "hashSize",
              "type": "uint8"
            }
          ],
          "internalType": "struct CoreLibrary.Metadata",
          "name": "metadata",
          "type": "tuple"
        }
      ],
      "name": "updateMetadata",
      "outputs": [],
      "stateMutability": "nonpayable",
      "type": "function"
    },
    {
      "inputs": [
        {
          "internalType": "address payable",
          "name": "admin",
          "type": "address"
        }
      ],
      "name": "updateAdmin",
      "outputs": [],
      "stateMutability": "nonpayable",
      "type": "function"
    },
    {
      "inputs": [
        {
          "components": [
            {
              "internalType": "bytes32",
              "name": "ipfsHash",
              "type": "bytes32"
            },
            {
              "internalType": "uint8",
              "name": "hashFunction",
              "type": "uint8"
            },
            {
              "internalType": "uint8",
              "name": "hashSize",
              "type": "uint8"
            }
          ],
          "internalType": "struct CoreLibrary.Metadata",
          "name": "metadata",
          "type": "tuple"
        },
        {
          "components": [
            {
              "internalType": "uint256",
              "name": "index",
              "type": "uint256"
            },
            {
              "internalType": "address payable",
              "name": "organ",
              "type": "address"
            },
            {
              "internalType": "bytes",
              "name": "data",
              "type": "bytes"
            },
            {
              "internalType": "uint256",
              "name": "value",
              "type": "uint256"
            },
            {
              "internalType": "bool",
              "name": "processed",
              "type": "bool"
            }
          ],
          "internalType": "struct ProcedureLibrary.Operation[]",
          "name": "operations",
          "type": "tuple[]"
        }
      ],
      "name": "propose",
      "outputs": [
        {
          "internalType": "uint256",
          "name": "proposalKey",
          "type": "uint256"
        }
      ],
      "stateMutability": "nonpayable",
      "type": "function"
    },
    {
      "inputs": [
        {
          "internalType": "uint256",
          "name": "proposalKey",
          "type": "uint256"
        },
        {
          "components": [
            {
              "internalType": "bytes32",
              "name": "ipfsHash",
              "type": "bytes32"
            },
            {
              "internalType": "uint8",
              "name": "hashFunction",
              "type": "uint8"
            },
            {
              "internalType": "uint8",
              "name": "hashSize",
              "type": "uint8"
            }
          ],
          "internalType": "struct CoreLibrary.Metadata",
          "name": "reason",
          "type": "tuple"
        }
      ],
      "name": "blockProposal",
      "outputs": [],
      "stateMutability": "nonpayable",
      "type": "function"
    },
    {
      "inputs": [
        {
          "internalType": "uint256",
          "name": "proposalKey",
          "type": "uint256"
        }
      ],
      "name": "presentProposal",
      "outputs": [],
      "stateMutability": "nonpayable",
      "type": "function"
    },
    {
      "inputs": [
        {
          "internalType": "uint256",
          "name": "proposalKey",
          "type": "uint256"
        }
      ],
      "name": "adoptProposal",
      "outputs": [],
      "stateMutability": "nonpayable",
      "type": "function"
    },
    {
      "inputs": [
        {
          "internalType": "uint256",
          "name": "proposalKey",
          "type": "uint256"
        }
      ],
      "name": "applyProposal",
      "outputs": [],
      "stateMutability": "nonpayable",
      "type": "function"
    },
    {
      "inputs": [],
      "name": "getProcedure",
      "outputs": [
        {
          "components": [
            {
              "internalType": "bytes32",
              "name": "ipfsHash",
              "type": "bytes32"
            },
            {
              "internalType": "uint8",
              "name": "hashFunction",
              "type": "uint8"
            },
            {
              "internalType": "uint8",
              "name": "hashSize",
              "type": "uint8"
            }
          ],
          "internalType": "struct CoreLibrary.Metadata",
          "name": "metadata",
          "type": "tuple"
        },
        {
          "internalType": "address payable",
          "name": "proposers",
          "type": "address"
        },
        {
          "internalType": "address payable",
          "name": "moderators",
          "type": "address"
        },
        {
          "internalType": "address payable",
          "name": "deciders",
          "type": "address"
        },
        {
          "internalType": "bool",
          "name": "withModeration",
          "type": "bool"
        },
        {
          "internalType": "uint256",
          "name": "proposalsLength",
          "type": "uint256"
        }
      ],
      "stateMutability": "view",
      "type": "function"
    },
    {
      "inputs": [
        {
          "internalType": "uint256",
          "name": "proposalKey",
          "type": "uint256"
        }
      ],
      "name": "getProposal",
      "outputs": [
        {
          "components": [
            {
              "internalType": "address payable",
              "name": "creator",
              "type": "address"
            },
            {
              "components": [
                {
                  "internalType": "bytes32",
                  "name": "ipfsHash",
                  "type": "bytes32"
                },
                {
                  "internalType": "uint8",
                  "name": "hashFunction",
                  "type": "uint8"
                },
                {
                  "internalType": "uint8",
                  "name": "hashSize",
                  "type": "uint8"
                }
              ],
              "internalType": "struct CoreLibrary.Metadata",
              "name": "metadata",
              "type": "tuple"
            },
            {
              "components": [
                {
                  "internalType": "bytes32",
                  "name": "ipfsHash",
                  "type": "bytes32"
                },
                {
                  "internalType": "uint8",
                  "name": "hashFunction",
                  "type": "uint8"
                },
                {
                  "internalType": "uint8",
                  "name": "hashSize",
                  "type": "uint8"
                }
              ],
              "internalType": "struct CoreLibrary.Metadata",
              "name": "blockReason",
              "type": "tuple"
            },
            {
              "internalType": "bool",
              "name": "presented",
              "type": "bool"
            },
            {
              "internalType": "bool",
              "name": "blocked",
              "type": "bool"
            },
            {
              "internalType": "bool",
              "name": "adopted",
              "type": "bool"
            },
            {
              "internalType": "bool",
              "name": "applied",
              "type": "bool"
            },
            {
              "components": [
                {
                  "internalType": "uint256",
                  "name": "index",
                  "type": "uint256"
                },
                {
                  "internalType": "address payable",
                  "name": "organ",
                  "type": "address"
                },
                {
                  "internalType": "bytes",
                  "name": "data",
                  "type": "bytes"
                },
                {
                  "internalType": "uint256",
                  "name": "value",
                  "type": "uint256"
                },
                {
                  "internalType": "bool",
                  "name": "processed",
                  "type": "bool"
                }
              ],
              "internalType": "struct ProcedureLibrary.Operation[]",
              "name": "operations",
              "type": "tuple[]"
            }
          ],
          "internalType": "struct ProcedureLibrary.Proposal",
          "name": "",
          "type": "tuple"
        }
      ],
      "stateMutability": "view",
      "type": "function"
    }
  ],
  "bytecode": "0x608060405234801561001057600080fd5b5060408051606081018252600080825260208201818152828401828152935163ce5b8b1960e01b815260016004820152925160248401525160ff9081166044840152925190921660648201526084810182905260a4810182905260c4810182905260e481019190915273__ProcedureLibrary______________________9063ce5b8b19906101040160006040518083038186803b1580156100b157600080fd5b505af41580156100c5573d6000803e3d6000fd5b50505050611609806100d86000396000f3fe608060405234801561001057600080fd5b50600436106100a45760003560e01c806301ffc9a7146100a957806309b862b9146100d15780631e390607146100f85780634bd46ad11461010d5780634d3f8407146101205780635d5ee920146101335780637823c508146101465780637983f0c114610159578063c7f758a81461016c578063e2f273bd1461018c578063eb3ebcb21461019f578063f22d9c7a146101c0575b600080fd5b6100bc6100b7366004610ddb565b6101da565b60405190151581526020015b60405180910390f35b6100df63071dbd3360e41b81565b6040516001600160e01b031990911681526020016100c8565b61010b610106366004611027565b610211565b005b61010b61011b366004611059565b61027f565b61010b61012e366004610e05565b6102ef565b61010b610141366004610e21565b610329565b61010b610154366004611027565b610457565b61010b610167366004611027565b610496565b61017f61017a366004611027565b6104a4565b6040516100c89190611453565b61010b61019a366004610dc0565b61069d565b6101b26101ad366004610e87565b6106e4565b6040519081526020016100c8565b6101c861077a565b6040516100c8969594939291906112b5565b60006001600160e01b0319821663071dbd3360e41b148061020b57506301ffc9a760e01b6001600160e01b03198316145b92915050565b60405163851816a560e01b8152600160048201526024810182905273__ProcedureLibrary______________________9063851816a5906044015b60006040518083038186803b15801561026457600080fd5b505af4158015610278573d6000803e3d6000fd5b5050505050565b60405163930f8be960e01b815273__ProcedureLibrary______________________9063930f8be9906102bb906001908690869060040161140b565b60006040518083038186803b1580156102d357600080fd5b505af41580156102e7573d6000803e3d6000fd5b505050505050565b60405163534f408760e01b815273__ProcedureLibrary______________________9063534f40879061024c9060019085906004016112f8565b600054610100900460ff1680610342575060005460ff16155b6103aa5760405162461bcd60e51b815260206004820152602e60248201527f496e697469616c697a61626c653a20636f6e747261637420697320616c72656160448201526d191e481a5b9a5d1a585b1a5e995960921b60648201526084015b60405180910390fd5b600054610100900460ff161580156103cc576000805461ffff19166101011790555b60405163ce5b8b1960e01b815273__ProcedureLibrary______________________9063ce5b8b199061040e906001908a908a908a908a908a9060040161130c565b60006040518083038186803b15801561042657600080fd5b505af415801561043a573d6000803e3d6000fd5b5050505080156102e7576000805461ff0019169055505050505050565b6040516316a0f1cd60e11b8152600160048201526024810182905273__ProcedureLibrary______________________90632d41e39a9060440161024c565b6104a16001826107d7565b50565b6104ac610ca0565b60008281526007602090815260408083208151610100808201845282546001600160a01b0316825283516060808201865260018501548252600285015460ff808216848a0152908490048116838801528488019290925285518082018752600386015481526004860154808416828a01528490048316818801528487015260058501548083161515918501919091529182048116151560808401526201000082048116151560a0840152630100000090910416151560c08201526006820180548451818702810187019095528085529195929460e0870194939192919084015b8282101561068f5760008481526020908190206040805160a081018252600586029092018054835260018101546001600160a01b031693830193909352600283018054929392918401916105df90611543565b80601f016020809104026020016040519081016040528092919081815260200182805461060b90611543565b80156106585780601f1061062d57610100808354040283529160200191610658565b820191906000526020600020905b81548152906001019060200180831161063b57829003601f168201915b5050509183525050600382015460208083019190915260049092015460ff161515604090910152908252600192909201910161058c565b505050915250909392505050565b60405163474ab74960e11b8152600160048201526001600160a01b038216602482015273__ProcedureLibrary______________________90638e956e929060440161024c565b6040516303bd73a560e01b815260009073__ProcedureLibrary______________________906303bd73a5906107239060019087908790600401611354565b60206040518083038186803b15801561073b57600080fd5b505af415801561074f573d6000803e3d6000fd5b505050506040513d601f19601f820116820180604052508101906107739190611040565b9392505050565b610782610cfc565b5060035460045460055460095460085460408051606081018252600154815260025460ff8181166020840152610100909104811692820192909252956001600160a01b03908116958116941692169192939495565b60008181526006830160205260409020600501548290829060ff1680156108185750600081815260068301602052604090206005015462010000900460ff16155b801561083f575060008181526006830160205260409020600501546301000000900460ff16155b801561086457506000818152600683016020526040902060050154610100900460ff16155b6108805760405162461bcd60e51b81526004016103a19061128d565b60008381526006850160205260409020600501805462ff00001916620100001790556108ac84846108b2565b50505050565b60008181526006830160205260409020600501548290829062010000900460ff1680156108fa575060008181526006830160205260409020600501546301000000900460ff16155b801561091f57506000818152600683016020526040902060050154610100900460ff16155b61093b5760405162461bcd60e51b81526004016103a19061128d565b60005b6000848152600680870160205260409091200154811015610c4e576000848152600680870160205260409091200180548290811061097e5761097e6115a7565b600091825260209091206004600590920201015460ff16610c3e576000848152600680870160205260408220018054839081106109bd576109bd6115a7565b60009182526020909120600160059092020101546001600160a01b031614610b0b57600084815260068087016020526040822001805483908110610a0357610a036115a7565b60009182526020808320600160059093020191909101548783526006808a0190925260409092200180546001600160a01b039092169184908110610a4957610a496115a7565b9060005260206000209060050201600301548760060160008881526020019081526020016000206006018481548110610a8457610a846115a7565b9060005260206000209060050201600201604051610aa2919061119b565b60006040518083038185875af1925050503d8060008114610adf576040519150601f19603f3d011682016040523d82523d6000602084013e610ae4565b606091505b5050905080610b055760405162461bcd60e51b81526004016103a190611237565b50610bf0565b600084815260068087016020526040822001805433919084908110610b3257610b326115a7565b9060005260206000209060050201600301548760060160008881526020019081526020016000206006018481548110610b6d57610b6d6115a7565b9060005260206000209060050201600201604051610b8b919061119b565b60006040518083038185875af1925050503d8060008114610bc8576040519150601f19603f3d011682016040523d82523d6000602084013e610bcd565b606091505b5050905080610bee5760405162461bcd60e51b81526004016103a190611237565b505b60018560060160008681526020019081526020016000206006018281548110610c1b57610c1b6115a7565b60009182526020909120600590910201600401805460ff19169115159190911790555b610c478161157e565b905061093e565b506000838152600685016020526040808220600501805463ff000000191663010000001790555184917f371ea0b2792b493783478379b73e5d65d5f7e3d03fe343fbe6396d87ece6562491a250505050565b60405180610100016040528060006001600160a01b03168152602001610cc4610cfc565b8152602001610cd1610cfc565b8152600060208201819052604082018190526060808301829052608083019190915260a09091015290565b604080516060810182526000808252602082018190529181019190915290565b80356001600160a01b0381168114610d3357600080fd5b919050565b80358015158114610d3357600080fd5b600060608284031215610d5a57600080fd5b604051606081016001600160401b0381118282101715610d7c57610d7c6115bd565b60405282358152905080610d9260208401610daf565b6020820152610da360408401610daf565b60408201525092915050565b803560ff81168114610d3357600080fd5b600060208284031215610dd257600080fd5b61077382610d1c565b600060208284031215610ded57600080fd5b81356001600160e01b03198116811461077357600080fd5b600060608284031215610e1757600080fd5b6107738383610d48565b600080600080600060e08688031215610e3957600080fd5b610e438787610d48565b9450610e5160608701610d1c565b9350610e5f60808701610d1c565b9250610e6d60a08701610d1c565b9150610e7b60c08701610d38565b90509295509295909350565b60008060808385031215610e9a57600080fd5b610ea48484610d48565b915060608301356001600160401b0380821115610ec057600080fd5b818501915085601f830112610ed457600080fd5b813581811115610ee657610ee66115bd565b610ef560208260051b01611513565b80828252602082019150602085018960208560051b8801011115610f1857600080fd5b60005b84811015611017578582351115610f3157600080fd5b81358701601f1960a0828e0382011215610f4a57600080fd5b610f526114eb565b60208301358152610f6560408401610d1c565b6020820152606083013589811115610f7c57600080fd5b8301603f81018f13610f8d57600080fd5b60208101358a811115610fa257610fa26115bd565b610fb3602085601f84011601611513565b93508084528f6040828401011115610fca57600080fd5b80604083016020860137600060208286010152505081604082015260808301356060820152610ffb60a08401610d38565b6080820152865250506020938401939190910190600101610f1b565b5096999098509650505050505050565b60006020828403121561103957600080fd5b5035919050565b60006020828403121561105257600080fd5b5051919050565b600080828403608081121561106d57600080fd5b833592506060601f198201121561108357600080fd5b506020830190509250929050565b600082825180855260208086019550808260051b84010181860160005b8481101561111f57858303601f19018952815180518452848101516001600160a01b03168585015260408082015160a082870181905291906110f28388018261112c565b606085810151908901526080948501511515949097019390935250505097830197908301906001016110ae565b5090979650505050505050565b6000815180845260005b8181101561115257602081850181015186830182015201611136565b81811115611164576000602083870101525b50601f01601f19169290920160200192915050565b8051825260ff602082015116602083015260ff60408201511660408301525050565b600080835481600182811c9150808316806111b757607f831692505b60208084108214156111d757634e487b7160e01b86526022600452602486fd5b8180156111eb57600181146111fc57611229565b60ff19861689528489019650611229565b60008a81526020902060005b868110156112215781548b820152908501908301611208565b505084890196505b509498975050505050505050565b60208082526036908201527f50726f706f73616c206e6f74206170706c6965642c20756e6465726c79696e67604082015275103a3930b739b0b1ba34b7b7103932bb32b93a32b21760511b606082015260800190565b6020808252600e908201526d139bdd08185d5d1a1bdc9a5e995960921b604082015260600190565b61010081016112c48289611179565b6001600160a01b03968716606083015294861660808201529290941660a0830152151560c082015260e00191909152919050565b828152608081016107736020830184611179565b86815261010081016113216020830188611179565b6001600160a01b03958616608083015293851660a08201529190931660c082015291151560e09092019190915292915050565b600060a0808301868452602061136c81860188611179565b6080838187015282875180855260c08801915060c08160051b890101945083890160005b828110156113fa5789870360bf19018452815180518852868101516001600160a01b031687890152604080820151818a018b90526113d08b8b018261112c565b606084810151908c0152928801511515998801999099525096509285019290850190600101611390565b50949b9a5050505050505050505050565b600060a0820190508482528360208301528235604083015260ff61143160208501610daf565b16606083015260ff61144560408501610daf565b166080830152949350505050565b6020815261146d6020820183516001600160a01b03169052565b600060208301516114816040840182611179565b50604083015161149460a0840182611179565b50606083015115156101008301526080830151151561012083015260a0830151151561014083015260c0830151151561016083015260e0830151610180808401526114e36101a0840182611091565b949350505050565b60405160a081016001600160401b038111828210171561150d5761150d6115bd565b60405290565b604051601f8201601f191681016001600160401b038111828210171561153b5761153b6115bd565b604052919050565b600181811c9082168061155757607f821691505b6020821081141561157857634e487b7160e01b600052602260045260246000fd5b50919050565b60006000198214156115a057634e487b7160e01b600052601160045260246000fd5b5060010190565b634e487b7160e01b600052603260045260246000fd5b634e487b7160e01b600052604160045260246000fdfea26469706673582212209977fbba666472b73238a698fa2108aa1b52aa3e870e4952a7ce9e60cc11134464736f6c63430008060033",
  "immutableReferences": {},
  "source": "// SPDX-License-Identifier: LGPL-3.0-or-later\npragma solidity ^0.8.0;\npragma experimental ABIEncoderV2;\n\nimport \"./libraries/CoreLibrary.sol\";\nimport \"./libraries/ProcedureLibrary.sol\";\nimport \"@openzeppelin/contracts/utils/introspection/ERC165.sol\";\nimport \"@openzeppelin/contracts/proxy/utils/Initializable.sol\";\n\n/*\n    A procedure defines a set of operations compiled in a proposal.\n    The procedure dictates the way the proposal can be applied.\n\n    @TODO : Add proposals getters.\n*/\n\ncontract Procedure is ERC165, Initializable {\n    using CoreLibrary for CoreLibrary.Metadata;\n    using ProcedureLibrary for ProcedureLibrary.ProcedureData;\n    using ProcedureLibrary for ProcedureLibrary.Operation;\n    ProcedureLibrary.ProcedureData internal procedureData;\n    bytes4 constant public INTERFACE_ID = 0x71dbd330;\n\n    /**\n        Modifiers.\n    */\n\n    modifier onlyInOrgan(address payable organAddress) {\n        require(ProcedureLibrary.isInOrgan(organAddress, msg.sender), \"Not authorized\");\n        _;\n    }\n\n    modifier onlyDeciders() {\n        require(ProcedureLibrary.isInOrgan(procedureData.deciders, msg.sender), \"Not authorized\");\n        _;\n    }\n\n    /**\n        Procedure constructor.\n    */\n\n    constructor ()\n    {\n        // Register EIP165 interface for introspection.\n        procedureData.init(\n            CoreLibrary.Metadata(0, 0, 0),\n            payable(address(0)), // Proposers.\n            payable(address(0)), // Moderators.\n            payable(address(0)), // Deciders.\n            false       // With Moderation.\n        );\n    }\n\n    // Register EIP165 interfaces for introspection.\n    function supportsInterface(bytes4 interfaceId) public view virtual override returns (bool) {\n        // @todo : Use type(IProcedure).interfaceId\n        return interfaceId == INTERFACE_ID || super.supportsInterface(interfaceId);\n    }\n\n    function initialize(\n        CoreLibrary.Metadata memory _metadata,\n        address payable _proposers,\n        address payable _moderators,\n        address payable _deciders,\n        bool _withModeration\n    )\n        public\n        virtual\n        initializer\n    {\n        procedureData.init(_metadata, _proposers, _moderators, _deciders, _withModeration);\n    }\n\n    /**\n        Public API : Procedure Metadata and Admin.\n    */\n\n    function updateMetadata(CoreLibrary.Metadata memory metadata)\n        public\n    {\n        procedureData.updateMetadata(metadata);\n    }\n\n    function updateAdmin(address payable admin)\n        public\n    {\n        procedureData.updateAdmin(admin);\n    }\n\n    /**\n        Public API : Proposals creation and update.\n    */\n\n    function propose(\n        CoreLibrary.Metadata memory metadata,\n        ProcedureLibrary.Operation[] memory operations\n    )\n        public\n        virtual\n        returns (uint256 proposalKey)\n    {\n        return procedureData.propose(metadata, operations);\n    }\n\n    /// @notice The procedure can override this method.\n    function blockProposal(uint256 proposalKey, CoreLibrary.Metadata calldata reason)\n        public\n        virtual\n    {\n        procedureData.blockProposal(proposalKey, reason);\n    }\n\n    /// @notice When moderation is enabled, moderators must accept the proposal. \n    function presentProposal(uint256 proposalKey)\n        public\n    {\n        procedureData.presentProposal(proposalKey);\n    }\n\n    /// @notice The procedure calls this method directly to adopt and apply proposal.\n    function adoptProposal(uint256 proposalKey)\n        public\n        virtual\n    {\n        procedureData.adoptProposal(proposalKey);\n    }\n\n    /// @notice Apply proposal.\n    function applyProposal(uint256 proposalKey)\n        public\n        virtual\n    {\n        procedureData.applyProposal(proposalKey);\n    }\n\n    /*\n        Accessors.\n    */\n\n    function getProcedure()\n        public\n        view\n        returns (\n            CoreLibrary.Metadata memory metadata,\n            address payable proposers,\n            address payable moderators,\n            address payable deciders,\n            bool withModeration,\n            uint256 proposalsLength\n        )\n    {\n        return (\n            procedureData.metadata,\n            procedureData.proposers,\n            procedureData.moderators,\n            procedureData.deciders,\n            procedureData.withModeration,\n            procedureData.proposalsLength\n        );\n    }\n\n    function getProposal(uint256 proposalKey)\n        public view\n        returns (ProcedureLibrary.Proposal memory)\n    {\n        return procedureData.proposals[proposalKey];\n    }\n}",
  "sourcePath": "/Users/alex/Code/organigr.am-refactoring/packages/@organigram/contracts/contracts/Procedure.sol",
  "compiler": {
    "name": "solc",
    "version": "0.8.6+commit.11564f7e.Emscripten.clang"
  },
  "schemaVersion": "3.4.1",
  "updatedAt": "2021-06-30T09:57:24.653Z",
  "devdoc": {
    "kind": "dev",
    "methods": {
      "supportsInterface(bytes4)": {
        "details": "See {IERC165-supportsInterface}."
      }
    },
    "version": 1
  },
  "userdoc": {
    "kind": "user",
    "methods": {
      "adoptProposal(uint256)": {
        "notice": "The procedure calls this method directly to adopt and apply proposal."
      },
      "applyProposal(uint256)": {
        "notice": "Apply proposal."
      },
      "blockProposal(uint256,(bytes32,uint8,uint8))": {
        "notice": "The procedure can override this method."
      },
      "constructor": {
        "notice": "Procedure constructor."
      },
      "presentProposal(uint256)": {
        "notice": "When moderation is enabled, moderators must accept the proposal. "
      },
      "propose((bytes32,uint8,uint8),(uint256,address,bytes,uint256,bool)[])": {
        "notice": "Public API : Proposals creation and update."
      },
      "updateMetadata((bytes32,uint8,uint8))": {
        "notice": "Public API : Procedure Metadata and Admin."
      }
    },
    "version": 1
  }
}