{
  "contractName": "Procedure",
  "abi": [
    {
      "inputs": [
        {
          "internalType": "bytes32",
          "name": "metadataIpfsHash",
          "type": "bytes32"
        },
        {
          "internalType": "uint8",
          "name": "metadataHashFunction",
          "type": "uint8"
        },
        {
          "internalType": "uint8",
          "name": "metadataHashSize",
          "type": "uint8"
        }
      ],
      "stateMutability": "nonpayable",
      "type": "constructor"
    },
    {
      "inputs": [],
      "name": "getKelsenData",
      "outputs": [
        {
          "internalType": "bool",
          "name": "",
          "type": "bool"
        },
        {
          "internalType": "bool",
          "name": "",
          "type": "bool"
        },
        {
          "internalType": "uint8",
          "name": "",
          "type": "uint8"
        }
      ],
      "stateMutability": "view",
      "type": "function"
    },
    {
      "inputs": [],
      "name": "isOrgan",
      "outputs": [
        {
          "internalType": "bool",
          "name": "",
          "type": "bool"
        }
      ],
      "stateMutability": "view",
      "type": "function"
    },
    {
      "inputs": [],
      "name": "isProcedure",
      "outputs": [
        {
          "internalType": "bool",
          "name": "",
          "type": "bool"
        }
      ],
      "stateMutability": "view",
      "type": "function"
    },
    {
      "inputs": [],
      "name": "kelsenVersion",
      "outputs": [
        {
          "internalType": "uint8",
          "name": "",
          "type": "uint8"
        }
      ],
      "stateMutability": "view",
      "type": "function"
    },
    {
      "inputs": [
        {
          "internalType": "bytes32",
          "name": "ipfsHash",
          "type": "bytes32"
        },
        {
          "internalType": "uint8",
          "name": "hashFunction",
          "type": "uint8"
        },
        {
          "internalType": "uint8",
          "name": "hashSize",
          "type": "uint8"
        }
      ],
      "name": "updateMetadata",
      "outputs": [],
      "stateMutability": "nonpayable",
      "type": "function"
    },
    {
      "inputs": [
        {
          "internalType": "address payable",
          "name": "admin",
          "type": "address"
        }
      ],
      "name": "updateAdmin",
      "outputs": [],
      "stateMutability": "nonpayable",
      "type": "function"
    },
    {
      "inputs": [
        {
          "internalType": "bytes32",
          "name": "ipfsHash",
          "type": "bytes32"
        },
        {
          "internalType": "uint8",
          "name": "hashFunction",
          "type": "uint8"
        },
        {
          "internalType": "uint8",
          "name": "hashSize",
          "type": "uint8"
        }
      ],
      "name": "createMove",
      "outputs": [
        {
          "internalType": "uint256",
          "name": "",
          "type": "uint256"
        }
      ],
      "stateMutability": "nonpayable",
      "type": "function"
    },
    {
      "inputs": [
        {
          "internalType": "uint256",
          "name": "moveKey",
          "type": "uint256"
        },
        {
          "internalType": "address payable",
          "name": "organ",
          "type": "address"
        },
        {
          "components": [
            {
              "internalType": "address",
              "name": "addr",
              "type": "address"
            },
            {
              "internalType": "bytes32",
              "name": "ipfsHash",
              "type": "bytes32"
            },
            {
              "internalType": "uint8",
              "name": "hashFunction",
              "type": "uint8"
            },
            {
              "internalType": "uint8",
              "name": "hashSize",
              "type": "uint8"
            }
          ],
          "internalType": "struct OrganLibrary.Entry[]",
          "name": "entries",
          "type": "tuple[]"
        },
        {
          "internalType": "bool",
          "name": "lock",
          "type": "bool"
        }
      ],
      "name": "moveAddEntries",
      "outputs": [],
      "stateMutability": "nonpayable",
      "type": "function"
    },
    {
      "inputs": [
        {
          "internalType": "uint256",
          "name": "moveKey",
          "type": "uint256"
        },
        {
          "internalType": "address payable",
          "name": "organ",
          "type": "address"
        },
        {
          "internalType": "uint256",
          "name": "indexes",
          "type": "uint256"
        },
        {
          "internalType": "bool",
          "name": "lock",
          "type": "bool"
        }
      ],
      "name": "moveRemoveEntry",
      "outputs": [],
      "stateMutability": "nonpayable",
      "type": "function"
    },
    {
      "inputs": [
        {
          "internalType": "uint256",
          "name": "moveKey",
          "type": "uint256"
        },
        {
          "internalType": "address payable",
          "name": "organ",
          "type": "address"
        },
        {
          "internalType": "uint256",
          "name": "index",
          "type": "uint256"
        },
        {
          "internalType": "address payable",
          "name": "addr",
          "type": "address"
        },
        {
          "internalType": "bytes32",
          "name": "ipfsHash",
          "type": "bytes32"
        },
        {
          "internalType": "uint8",
          "name": "hashFunction",
          "type": "uint8"
        },
        {
          "internalType": "uint8",
          "name": "hashSize",
          "type": "uint8"
        },
        {
          "internalType": "bool",
          "name": "lock",
          "type": "bool"
        }
      ],
      "name": "moveReplaceEntry",
      "outputs": [],
      "stateMutability": "nonpayable",
      "type": "function"
    },
    {
      "inputs": [
        {
          "internalType": "uint256",
          "name": "moveKey",
          "type": "uint256"
        },
        {
          "internalType": "address payable",
          "name": "organ",
          "type": "address"
        },
        {
          "internalType": "address",
          "name": "procedure",
          "type": "address"
        },
        {
          "internalType": "bytes2",
          "name": "permissions",
          "type": "bytes2"
        },
        {
          "internalType": "bool",
          "name": "lock",
          "type": "bool"
        }
      ],
      "name": "moveAddProcedure",
      "outputs": [],
      "stateMutability": "nonpayable",
      "type": "function"
    },
    {
      "inputs": [
        {
          "internalType": "uint256",
          "name": "moveKey",
          "type": "uint256"
        },
        {
          "internalType": "address payable",
          "name": "organ",
          "type": "address"
        },
        {
          "internalType": "address",
          "name": "procedure",
          "type": "address"
        },
        {
          "internalType": "bool",
          "name": "lock",
          "type": "bool"
        }
      ],
      "name": "moveRemoveProcedure",
      "outputs": [],
      "stateMutability": "nonpayable",
      "type": "function"
    },
    {
      "inputs": [
        {
          "internalType": "uint256",
          "name": "moveKey",
          "type": "uint256"
        },
        {
          "internalType": "address payable",
          "name": "organ",
          "type": "address"
        },
        {
          "internalType": "address",
          "name": "oldProcedure",
          "type": "address"
        },
        {
          "internalType": "address",
          "name": "newProcedure",
          "type": "address"
        },
        {
          "internalType": "bytes2",
          "name": "permissions",
          "type": "bytes2"
        },
        {
          "internalType": "bool",
          "name": "lock",
          "type": "bool"
        }
      ],
      "name": "moveReplaceProcedure",
      "outputs": [],
      "stateMutability": "nonpayable",
      "type": "function"
    },
    {
      "inputs": [
        {
          "internalType": "uint256",
          "name": "moveKey",
          "type": "uint256"
        },
        {
          "internalType": "bytes",
          "name": "call",
          "type": "bytes"
        },
        {
          "internalType": "bool",
          "name": "lock",
          "type": "bool"
        }
      ],
      "name": "moveCall",
      "outputs": [],
      "stateMutability": "nonpayable",
      "type": "function"
    },
    {
      "inputs": [
        {
          "internalType": "uint256",
          "name": "moveKey",
          "type": "uint256"
        },
        {
          "internalType": "address payable",
          "name": "organ",
          "type": "address"
        },
        {
          "internalType": "address",
          "name": "operator",
          "type": "address"
        },
        {
          "internalType": "address",
          "name": "target",
          "type": "address"
        },
        {
          "internalType": "uint256",
          "name": "token_id",
          "type": "uint256"
        },
        {
          "internalType": "bool",
          "name": "lock",
          "type": "bool"
        }
      ],
      "name": "moveReceiveCollectible",
      "outputs": [],
      "stateMutability": "nonpayable",
      "type": "function"
    },
    {
      "inputs": [
        {
          "internalType": "uint256",
          "name": "moveKey",
          "type": "uint256"
        },
        {
          "internalType": "address payable",
          "name": "organ",
          "type": "address"
        },
        {
          "internalType": "address",
          "name": "operator",
          "type": "address"
        },
        {
          "internalType": "address",
          "name": "target",
          "type": "address"
        },
        {
          "internalType": "uint256",
          "name": "token_id",
          "type": "uint256"
        },
        {
          "internalType": "bool",
          "name": "lock",
          "type": "bool"
        }
      ],
      "name": "moveTransferCollectible",
      "outputs": [],
      "stateMutability": "nonpayable",
      "type": "function"
    },
    {
      "inputs": [
        {
          "internalType": "uint256",
          "name": "moveKey",
          "type": "uint256"
        },
        {
          "internalType": "address payable",
          "name": "organ",
          "type": "address"
        },
        {
          "internalType": "address",
          "name": "operator",
          "type": "address"
        },
        {
          "internalType": "address",
          "name": "target",
          "type": "address"
        },
        {
          "internalType": "uint256",
          "name": "value",
          "type": "uint256"
        },
        {
          "internalType": "bool",
          "name": "lock",
          "type": "bool"
        }
      ],
      "name": "moveReceiveCoins",
      "outputs": [],
      "stateMutability": "nonpayable",
      "type": "function"
    },
    {
      "inputs": [
        {
          "internalType": "uint256",
          "name": "moveKey",
          "type": "uint256"
        },
        {
          "internalType": "address payable",
          "name": "organ",
          "type": "address"
        },
        {
          "internalType": "address",
          "name": "operator",
          "type": "address"
        },
        {
          "internalType": "address",
          "name": "target",
          "type": "address"
        },
        {
          "internalType": "uint256",
          "name": "value",
          "type": "uint256"
        },
        {
          "internalType": "bool",
          "name": "lock",
          "type": "bool"
        }
      ],
      "name": "moveTransferCoins",
      "outputs": [],
      "stateMutability": "nonpayable",
      "type": "function"
    },
    {
      "inputs": [
        {
          "internalType": "uint256",
          "name": "moveKey",
          "type": "uint256"
        },
        {
          "internalType": "address payable",
          "name": "organ",
          "type": "address"
        },
        {
          "internalType": "address",
          "name": "target",
          "type": "address"
        },
        {
          "internalType": "uint256",
          "name": "value",
          "type": "uint256"
        },
        {
          "internalType": "bool",
          "name": "lock",
          "type": "bool"
        }
      ],
      "name": "moveReceiveEther",
      "outputs": [],
      "stateMutability": "nonpayable",
      "type": "function"
    },
    {
      "inputs": [
        {
          "internalType": "uint256",
          "name": "moveKey",
          "type": "uint256"
        },
        {
          "internalType": "address payable",
          "name": "organ",
          "type": "address"
        },
        {
          "internalType": "address",
          "name": "target",
          "type": "address"
        },
        {
          "internalType": "uint256",
          "name": "value",
          "type": "uint256"
        },
        {
          "internalType": "bool",
          "name": "lock",
          "type": "bool"
        }
      ],
      "name": "moveTransferEther",
      "outputs": [],
      "stateMutability": "nonpayable",
      "type": "function"
    },
    {
      "inputs": [
        {
          "internalType": "uint256",
          "name": "moveKey",
          "type": "uint256"
        }
      ],
      "name": "lockMove",
      "outputs": [],
      "stateMutability": "nonpayable",
      "type": "function"
    }
  ],
  "bytecode": "0x608060405260036000806101000a81548160ff021916908360ff1602179055503480156200002c57600080fd5b50604051620046c7380380620046c7833981810160405281019062000052919062000137565b6000600181600060016101000a81548160ff02191690831515021790555080600060026101000a81548160ff0219169083151502179055505050600173__ProcedureLibrary______________________63359a395d90918585856040518563ffffffff1660e01b8152600401620000ce9493929190620001b6565b60006040518083038186803b158015620000e757600080fd5b505af4158015620000fc573d6000803e3d6000fd5b505050505050506200024e565b6000815190506200011a816200021a565b92915050565b600081519050620001318162000234565b92915050565b6000806000606084860312156200014d57600080fd5b60006200015d8682870162000109565b9350506020620001708682870162000120565b9250506040620001838682870162000120565b9150509250925092565b620001988162000203565b82525050565b8082525050565b620001b0816200020d565b82525050565b6000608082019050620001cd60008301876200019e565b620001dc60208301866200018d565b620001eb6040830185620001a5565b620001fa6060830184620001a5565b95945050505050565b6000819050919050565b600060ff82169050919050565b620002258162000203565b81146200023157600080fd5b50565b6200023f816200020d565b81146200024b57600080fd5b50565b614469806200025e6000396000f3fe608060405234801561001057600080fd5b50600436106101375760003560e01c8063759913d6116100b8578063c492f4631161007c578063c492f463146102fc578063c91ebea814610318578063cb6bc9ff14610336578063cc12503114610352578063e2f273bd1461036e578063fa160aa21461038a57610137565b8063759913d6146102585780637c3a5fcc146102765780637ee7fa401461029257806390f2ee22146102ae578063a2b58cda146102cc57610137565b806352c041b2116100ff57806352c041b2146101cc5780635a31b560146101e85780635ba357dc146102045780636322ab201461022057806367c322d01461023c57610137565b80630b5522a91461013c578063148a200514610158578063249abcf7146101745780632c1d53371461019457806339c2ae70146101b0575b600080fd5b61015660048036038101906101519190613a70565b6103a6565b005b610172600480360381019061016d9190613984565b6103c9565b005b61017c6103ef565b60405161018b93929190614120565b60405180910390f35b6101ae60048036038101906101a991906138fb565b61042d565b005b6101ca60048036038101906101c59190613883565b610453565b005b6101e660048036038101906101e19190613bd9565b6104c8565b005b61020260048036038101906101fd9190613984565b6104f4565b005b61021e600480360381019061021991906138d2565b61051a565b005b61023a60048036038101906102359190613c8b565b610531565b005b61025660048036038101906102519190613a0d565b610551565b005b610260610571565b60405161026d9190614200565b60405180910390f35b610290600480360381019061028b9190613984565b610583565b005b6102ac60048036038101906102a79190613ae7565b6105a9565b005b6102b66105cc565b6040516102c39190614105565b60405180910390f35b6102e660048036038101906102e19190613883565b6105df565b6040516102f391906141e5565b60405180910390f35b61031660048036038101906103119190613b5e565b610602565b005b610320610622565b60405161032d9190614105565b60405180910390f35b610350600480360381019061034b9190613984565b610635565b005b61036c60048036038101906103679190613ae7565b61065b565b005b6103886004803603810190610383919061385a565b61067e565b005b6103a4600480360381019061039f9190613cee565b6106ed565b005b6103c28585858585600161070a9095949392919063ffffffff16565b5050505050565b6103e78686868686866001610a75909695949392919063ffffffff16565b505050505050565b60008060008060019054906101000a900460ff16600060029054906101000a900460ff166000809054906101000a900460ff16925092509250909192565b61044b8686868686866001610de3909695949392919063ffffffff16565b505050505050565b600173__ProcedureLibrary______________________63b8cc9a0290918585856040518563ffffffff1660e01b815260040161049394939291906141a0565b60006040518083038186803b1580156104ab57600080fd5b505af41580156104bf573d6000803e3d6000fd5b50505050505050565b6104ea888888888888888860016111519098979695949392919063ffffffff16565b5050505050505050565b610512868686868686600161148f909695949392919063ffffffff16565b505050505050565b61052e8160016117fd90919063ffffffff16565b50565b61054b8484848460016119dd90949392919063ffffffff16565b50505050565b61056b848484846001611d4590949392919063ffffffff16565b50505050565b6000809054906101000a900460ff1681565b6105a186868686868660016120ad909695949392919063ffffffff16565b505050505050565b6105c5858585858560016124199095949392919063ffffffff16565b5050505050565b600060019054906101000a900460ff1681565b60006105f98484846001612784909392919063ffffffff16565b90509392505050565b61061c84848484600161288790949392919063ffffffff16565b50505050565b600060029054906101000a900460ff1681565b6106538686868686866001612bef909695949392919063ffffffff16565b505050505050565b61067785858585856001612f5d9095949392919063ffffffff16565b5050505050565b600173__ProcedureLibrary______________________638e956e929091836040518363ffffffff1660e01b81526004016106ba929190614177565b60006040518083038186803b1580156106d257600080fd5b505af41580156106e6573d6000803e3d6000fd5b5050505050565b61070583838360016132c8909392919063ffffffff16565b505050565b85853373ffffffffffffffffffffffffffffffffffffffff1682600301600083815260200190815260200160002060000160009054906101000a900473ffffffffffffffffffffffffffffffffffffffff1673ffffffffffffffffffffffffffffffffffffffff16146107b2576040517f08c379a00000000000000000000000000000000000000000000000000000000081526004016107a990614157565b60405180910390fd5b878781600301600082815260200190815260200160002060030160009054906101000a900460ff1615801561080a575081600301600082815260200190815260200160002060030160019054906101000a900460ff16155b8015610839575081600301600082815260200190815260200160002060030160029054906101000a900460ff16155b610878576040517f08c379a000000000000000000000000000000000000000000000000000000000815260040161086f90614157565b60405180910390fd5b8960030160008a815260200190815260200160002060040160405180608001604052808c60030160008d8152602001908152602001600020600401805490508152602001600460ff1681526020016390b137e98b8b8b6040516024016108e093929190613fdd565b6040516020818303038152906040529060e01b6020820180517bffffffffffffffffffffffffffffffffffffffffffffffffffffffff838183161783525050505081526020016000151581525090806001815401808255809150506001900390600052602060002090600402016000909190919091506000820151816000015560208201518160010160006101000a81548160ff021916908360ff160217905550604082015181600201908051906020019061099d9291906135d7565b5060608201518160030160006101000a81548160ff02191690831515021790555050508415610a695760018a60030160008b815260200190815260200160002060030160006101000a81548160ff0219169083151502179055507f7306ab933b6e1df1bd2fddce7143eeedd65d5996fada0e9168c4e8c3d1ece94d8a60030160008b815260200190815260200160002060000160009054906101000a900473ffffffffffffffffffffffffffffffffffffffff168a604051610a6092919061407b565b60405180910390a15b50505050505050505050565b86863373ffffffffffffffffffffffffffffffffffffffff1682600301600083815260200190815260200160002060000160009054906101000a900473ffffffffffffffffffffffffffffffffffffffff1673ffffffffffffffffffffffffffffffffffffffff1614610b1d576040517f08c379a0000000000000000000000000000000000000000000000000000000008152600401610b1490614157565b60405180910390fd5b888881600301600082815260200190815260200160002060030160009054906101000a900460ff16158015610b75575081600301600082815260200190815260200160002060030160019054906101000a900460ff16155b8015610ba4575081600301600082815260200190815260200160002060030160029054906101000a900460ff16155b610be3576040517f08c379a0000000000000000000000000000000000000000000000000000000008152600401610bda90614157565b60405180910390fd5b8a60030160008b815260200190815260200160002060040160405180608001604052808d60030160008e8152602001908152602001600020600401805490508152602001600760ff16815260200163c10753298c8c8c8c604051602401610c4d9493929190613f98565b6040516020818303038152906040529060e01b6020820180517bffffffffffffffffffffffffffffffffffffffffffffffffffffffff838183161783525050505081526020016000151581525090806001815401808255809150506001900390600052602060002090600402016000909190919091506000820151816000015560208201518160010160006101000a81548160ff021916908360ff1602179055506040820151816002019080519060200190610d0a9291906135d7565b5060608201518160030160006101000a81548160ff02191690831515021790555050508415610dd65760018b60030160008c815260200190815260200160002060030160006101000a81548160ff0219169083151502179055507f7306ab933b6e1df1bd2fddce7143eeedd65d5996fada0e9168c4e8c3d1ece94d8b60030160008c815260200190815260200160002060000160009054906101000a900473ffffffffffffffffffffffffffffffffffffffff168b604051610dcd92919061407b565b60405180910390a15b5050505050505050505050565b86863373ffffffffffffffffffffffffffffffffffffffff1682600301600083815260200190815260200160002060000160009054906101000a900473ffffffffffffffffffffffffffffffffffffffff1673ffffffffffffffffffffffffffffffffffffffff1614610e8b576040517f08c379a0000000000000000000000000000000000000000000000000000000008152600401610e8290614157565b60405180910390fd5b888881600301600082815260200190815260200160002060030160009054906101000a900460ff16158015610ee3575081600301600082815260200190815260200160002060030160019054906101000a900460ff16155b8015610f12575081600301600082815260200190815260200160002060030160029054906101000a900460ff16155b610f51576040517f08c379a0000000000000000000000000000000000000000000000000000000008152600401610f4890614157565b60405180910390fd5b8a60030160008b815260200190815260200160002060040160405180608001604052808d60030160008e8152602001908152602001600020600401805490508152602001600660ff168152602001635676c77d8c8c8c8c604051602401610fbb9493929190613f53565b6040516020818303038152906040529060e01b6020820180517bffffffffffffffffffffffffffffffffffffffffffffffffffffffff838183161783525050505081526020016000151581525090806001815401808255809150506001900390600052602060002090600402016000909190919091506000820151816000015560208201518160010160006101000a81548160ff021916908360ff16021790555060408201518160020190805190602001906110789291906135d7565b5060608201518160030160006101000a81548160ff021916908315150217905550505084156111445760018b60030160008c815260200190815260200160002060030160006101000a81548160ff0219169083151502179055507f7306ab933b6e1df1bd2fddce7143eeedd65d5996fada0e9168c4e8c3d1ece94d8b60030160008c815260200190815260200160002060000160009054906101000a900473ffffffffffffffffffffffffffffffffffffffff168b60405161113b92919061407b565b60405180910390a15b5050505050505050505050565b88883373ffffffffffffffffffffffffffffffffffffffff1682600301600083815260200190815260200160002060000160009054906101000a900473ffffffffffffffffffffffffffffffffffffffff1673ffffffffffffffffffffffffffffffffffffffff16146111f9576040517f08c379a00000000000000000000000000000000000000000000000000000000081526004016111f090614157565b60405180910390fd5b8a8a81600301600082815260200190815260200160002060030160009054906101000a900460ff16158015611251575081600301600082815260200190815260200160002060030160019054906101000a900460ff16155b8015611280575081600301600082815260200190815260200160002060030160029054906101000a900460ff16155b6112bf576040517f08c379a00000000000000000000000000000000000000000000000000000000081526004016112b690614157565b60405180910390fd5b60008d60030160008e8152602001908152602001600020905080600401604051806080016040528083600401805490508152602001600360ff16815260200163155a73ce8f8f8f8f8f8f60405160240161131e969594939291906140a4565b6040516020818303038152906040529060e01b6020820180517bffffffffffffffffffffffffffffffffffffffffffffffffffffffff838183161783525050505081526020016000151581525090806001815401808255809150506001900390600052602060002090600402016000909190919091506000820151816000015560208201518160010160006101000a81548160ff021916908360ff16021790555060408201518160020190805190602001906113db9291906135d7565b5060608201518160030160006101000a81548160ff0219169083151502179055505050851561147f5760018160030160006101000a81548160ff0219169083151502179055507f7306ab933b6e1df1bd2fddce7143eeedd65d5996fada0e9168c4e8c3d1ece94d8160000160009054906101000a900473ffffffffffffffffffffffffffffffffffffffff168e60405161147692919061407b565b60405180910390a15b5050505050505050505050505050565b86863373ffffffffffffffffffffffffffffffffffffffff1682600301600083815260200190815260200160002060000160009054906101000a900473ffffffffffffffffffffffffffffffffffffffff1673ffffffffffffffffffffffffffffffffffffffff1614611537576040517f08c379a000000000000000000000000000000000000000000000000000000000815260040161152e90614157565b60405180910390fd5b888881600301600082815260200190815260200160002060030160009054906101000a900460ff1615801561158f575081600301600082815260200190815260200160002060030160019054906101000a900460ff16155b80156115be575081600301600082815260200190815260200160002060030160029054906101000a900460ff16155b6115fd576040517f08c379a00000000000000000000000000000000000000000000000000000000081526004016115f490614157565b60405180910390fd5b8a60030160008b815260200190815260200160002060040160405180608001604052808d60030160008e8152602001908152602001600020600401805490508152602001600860ff168152602001635e35359e8c8c8c8c6040516024016116679493929190613f98565b6040516020818303038152906040529060e01b6020820180517bffffffffffffffffffffffffffffffffffffffffffffffffffffffff838183161783525050505081526020016000151581525090806001815401808255809150506001900390600052602060002090600402016000909190919091506000820151816000015560208201518160010160006101000a81548160ff021916908360ff16021790555060408201518160020190805190602001906117249291906135d7565b5060608201518160030160006101000a81548160ff021916908315150217905550505084156117f05760018b60030160008c815260200190815260200160002060030160006101000a81548160ff0219169083151502179055507f7306ab933b6e1df1bd2fddce7143eeedd65d5996fada0e9168c4e8c3d1ece94d8b60030160008c815260200190815260200160002060000160009054906101000a900473ffffffffffffffffffffffffffffffffffffffff168b6040516117e792919061407b565b60405180910390a15b5050505050505050505050565b81813373ffffffffffffffffffffffffffffffffffffffff1682600301600083815260200190815260200160002060000160009054906101000a900473ffffffffffffffffffffffffffffffffffffffff1673ffffffffffffffffffffffffffffffffffffffff16146118a5576040517f08c379a000000000000000000000000000000000000000000000000000000000815260040161189c90614157565b60405180910390fd5b838381600301600082815260200190815260200160002060030160009054906101000a900460ff161580156118fd575081600301600082815260200190815260200160002060030160019054906101000a900460ff16155b801561192c575081600301600082815260200190815260200160002060030160029054906101000a900460ff16155b61196b576040517f08c379a000000000000000000000000000000000000000000000000000000000815260040161196290614157565b60405180910390fd5b600186600301600087815260200190815260200160002060030160006101000a81548160ff0219169083151502179055507f7306ab933b6e1df1bd2fddce7143eeedd65d5996fada0e9168c4e8c3d1ece94d33866040516119cd92919061407b565b60405180910390a1505050505050565b84843373ffffffffffffffffffffffffffffffffffffffff1682600301600083815260200190815260200160002060000160009054906101000a900473ffffffffffffffffffffffffffffffffffffffff1673ffffffffffffffffffffffffffffffffffffffff1614611a85576040517f08c379a0000000000000000000000000000000000000000000000000000000008152600401611a7c90614157565b60405180910390fd5b868681600301600082815260200190815260200160002060030160009054906101000a900460ff16158015611add575081600301600082815260200190815260200160002060030160019054906101000a900460ff16155b8015611b0c575081600301600082815260200190815260200160002060030160029054906101000a900460ff16155b611b4b576040517f08c379a0000000000000000000000000000000000000000000000000000000008152600401611b4290614157565b60405180910390fd5b88600301600089815260200190815260200160002060040160405180608001604052808b60030160008c8152602001908152602001600020600401805490508152602001600260ff1681526020016376a6411c8a8a604051602401611bb192919061407b565b6040516020818303038152906040529060e01b6020820180517bffffffffffffffffffffffffffffffffffffffffffffffffffffffff838183161783525050505081526020016000151581525090806001815401808255809150506001900390600052602060002090600402016000909190919091506000820151816000015560208201518160010160006101000a81548160ff021916908360ff1602179055506040820151816002019080519060200190611c6e9291906135d7565b5060608201518160030160006101000a81548160ff02191690831515021790555050508415611d3a5760018960030160008a815260200190815260200160002060030160006101000a81548160ff0219169083151502179055507f7306ab933b6e1df1bd2fddce7143eeedd65d5996fada0e9168c4e8c3d1ece94d8960030160008a815260200190815260200160002060000160009054906101000a900473ffffffffffffffffffffffffffffffffffffffff1689604051611d3192919061407b565b60405180910390a15b505050505050505050565b84843373ffffffffffffffffffffffffffffffffffffffff1682600301600083815260200190815260200160002060000160009054906101000a900473ffffffffffffffffffffffffffffffffffffffff1673ffffffffffffffffffffffffffffffffffffffff1614611ded576040517f08c379a0000000000000000000000000000000000000000000000000000000008152600401611de490614157565b60405180910390fd5b868681600301600082815260200190815260200160002060030160009054906101000a900460ff16158015611e45575081600301600082815260200190815260200160002060030160019054906101000a900460ff16155b8015611e74575081600301600082815260200190815260200160002060030160029054906101000a900460ff16155b611eb3576040517f08c379a0000000000000000000000000000000000000000000000000000000008152600401611eaa90614157565b60405180910390fd5b88600301600089815260200190815260200160002060040160405180608001604052808b60030160008c8152602001908152602001600020600401805490508152602001600560ff1681526020016319b9404c8a8a604051602401611f19929190613f2a565b6040516020818303038152906040529060e01b6020820180517bffffffffffffffffffffffffffffffffffffffffffffffffffffffff838183161783525050505081526020016000151581525090806001815401808255809150506001900390600052602060002090600402016000909190919091506000820151816000015560208201518160010160006101000a81548160ff021916908360ff1602179055506040820151816002019080519060200190611fd69291906135d7565b5060608201518160030160006101000a81548160ff021916908315150217905550505084156120a25760018960030160008a815260200190815260200160002060030160006101000a81548160ff0219169083151502179055507f7306ab933b6e1df1bd2fddce7143eeedd65d5996fada0e9168c4e8c3d1ece94d8960030160008a815260200190815260200160002060000160009054906101000a900473ffffffffffffffffffffffffffffffffffffffff168960405161209992919061407b565b60405180910390a15b505050505050505050565b86863373ffffffffffffffffffffffffffffffffffffffff1682600301600083815260200190815260200160002060000160009054906101000a900473ffffffffffffffffffffffffffffffffffffffff1673ffffffffffffffffffffffffffffffffffffffff1614612155576040517f08c379a000000000000000000000000000000000000000000000000000000000815260040161214c90614157565b60405180910390fd5b888881600301600082815260200190815260200160002060030160009054906101000a900460ff161580156121ad575081600301600082815260200190815260200160002060030160019054906101000a900460ff16155b80156121dc575081600301600082815260200190815260200160002060030160029054906101000a900460ff16155b61221b576040517f08c379a000000000000000000000000000000000000000000000000000000000815260040161221290614157565b60405180910390fd5b8a60030160008b815260200190815260200160002060040160405180608001604052808d60030160008e8152602001908152602001600020600401805490508152602001600760ff16815260200163c10753298c8c8b60405160240161228393929190614014565b6040516020818303038152906040529060e01b6020820180517bffffffffffffffffffffffffffffffffffffffffffffffffffffffff838183161783525050505081526020016000151581525090806001815401808255809150506001900390600052602060002090600402016000909190919091506000820151816000015560208201518160010160006101000a81548160ff021916908360ff16021790555060408201518160020190805190602001906123409291906135d7565b5060608201518160030160006101000a81548160ff0219169083151502179055505050841561240c5760018b60030160008c815260200190815260200160002060030160006101000a81548160ff0219169083151502179055507f7306ab933b6e1df1bd2fddce7143eeedd65d5996fada0e9168c4e8c3d1ece94d8b60030160008c815260200190815260200160002060000160009054906101000a900473ffffffffffffffffffffffffffffffffffffffff168b60405161240392919061407b565b60405180910390a15b5050505050505050505050565b85853373ffffffffffffffffffffffffffffffffffffffff1682600301600083815260200190815260200160002060000160009054906101000a900473ffffffffffffffffffffffffffffffffffffffff1673ffffffffffffffffffffffffffffffffffffffff16146124c1576040517f08c379a00000000000000000000000000000000000000000000000000000000081526004016124b890614157565b60405180910390fd5b878781600301600082815260200190815260200160002060030160009054906101000a900460ff16158015612519575081600301600082815260200190815260200160002060030160019054906101000a900460ff16155b8015612548575081600301600082815260200190815260200160002060030160029054906101000a900460ff16155b612587576040517f08c379a000000000000000000000000000000000000000000000000000000000815260040161257e90614157565b60405180910390fd5b8960030160008a815260200190815260200160002060040160405180608001604052808c60030160008d8152602001908152602001600020600401805490508152602001600760ff16815260200163c10753298b8b8b6040516024016125ef93929190614014565b6040516020818303038152906040529060e01b6020820180517bffffffffffffffffffffffffffffffffffffffffffffffffffffffff838183161783525050505081526020016000151581525090806001815401808255809150506001900390600052602060002090600402016000909190919091506000820151816000015560208201518160010160006101000a81548160ff021916908360ff16021790555060408201518160020190805190602001906126ac9291906135d7565b5060608201518160030160006101000a81548160ff021916908315150217905550505084156127785760018a60030160008b815260200190815260200160002060030160006101000a81548160ff0219169083151502179055507f7306ab933b6e1df1bd2fddce7143eeedd65d5996fada0e9168c4e8c3d1ece94d8a60030160008b815260200190815260200160002060000160009054906101000a900473ffffffffffffffffffffffffffffffffffffffff168a60405161276f92919061407b565b60405180910390a15b50505050505050505050565b6000808560040160008154809291906001019190505590503386600301600083815260200190815260200160002060000160006101000a81548173ffffffffffffffffffffffffffffffffffffffff021916908373ffffffffffffffffffffffffffffffffffffffff16021790555060405180606001604052808681526020018560ff1681526020018460ff168152508660030160008381526020019081526020016000206001016000820151816000015560208201518160010160006101000a81548160ff021916908360ff16021790555060408201518160010160016101000a81548160ff021916908360ff16021790555090505080915050949350505050565b84843373ffffffffffffffffffffffffffffffffffffffff1682600301600083815260200190815260200160002060000160009054906101000a900473ffffffffffffffffffffffffffffffffffffffff1673ffffffffffffffffffffffffffffffffffffffff161461292f576040517f08c379a000000000000000000000000000000000000000000000000000000000815260040161292690614157565b60405180910390fd5b868681600301600082815260200190815260200160002060030160009054906101000a900460ff16158015612987575081600301600082815260200190815260200160002060030160019054906101000a900460ff16155b80156129b6575081600301600082815260200190815260200160002060030160029054906101000a900460ff16155b6129f5576040517f08c379a00000000000000000000000000000000000000000000000000000000081526004016129ec90614157565b60405180910390fd5b88600301600089815260200190815260200160002060040160405180608001604052808b60030160008c8152602001908152602001600020600401805490508152602001600160ff168152602001631715f4de8a8a604051602401612a5b92919061404b565b6040516020818303038152906040529060e01b6020820180517bffffffffffffffffffffffffffffffffffffffffffffffffffffffff838183161783525050505081526020016000151581525090806001815401808255809150506001900390600052602060002090600402016000909190919091506000820151816000015560208201518160010160006101000a81548160ff021916908360ff1602179055506040820151816002019080519060200190612b189291906135d7565b5060608201518160030160006101000a81548160ff02191690831515021790555050508415612be45760018960030160008a815260200190815260200160002060030160006101000a81548160ff0219169083151502179055507f7306ab933b6e1df1bd2fddce7143eeedd65d5996fada0e9168c4e8c3d1ece94d8960030160008a815260200190815260200160002060000160009054906101000a900473ffffffffffffffffffffffffffffffffffffffff1689604051612bdb92919061407b565b60405180910390a15b505050505050505050565b86863373ffffffffffffffffffffffffffffffffffffffff1682600301600083815260200190815260200160002060000160009054906101000a900473ffffffffffffffffffffffffffffffffffffffff1673ffffffffffffffffffffffffffffffffffffffff1614612c97576040517f08c379a0000000000000000000000000000000000000000000000000000000008152600401612c8e90614157565b60405180910390fd5b888881600301600082815260200190815260200160002060030160009054906101000a900460ff16158015612cef575081600301600082815260200190815260200160002060030160019054906101000a900460ff16155b8015612d1e575081600301600082815260200190815260200160002060030160029054906101000a900460ff16155b612d5d576040517f08c379a0000000000000000000000000000000000000000000000000000000008152600401612d5490614157565b60405180910390fd5b8a60030160008b815260200190815260200160002060040160405180608001604052808d60030160008e8152602001908152602001600020600401805490508152602001600860ff168152602001635e35359e8c8c8c8c604051602401612dc79493929190613f98565b6040516020818303038152906040529060e01b6020820180517bffffffffffffffffffffffffffffffffffffffffffffffffffffffff838183161783525050505081526020016000151581525090806001815401808255809150506001900390600052602060002090600402016000909190919091506000820151816000015560208201518160010160006101000a81548160ff021916908360ff1602179055506040820151816002019080519060200190612e849291906135d7565b5060608201518160030160006101000a81548160ff02191690831515021790555050508415612f505760018b60030160008c815260200190815260200160002060030160006101000a81548160ff0219169083151502179055507f7306ab933b6e1df1bd2fddce7143eeedd65d5996fada0e9168c4e8c3d1ece94d8b60030160008c815260200190815260200160002060000160009054906101000a900473ffffffffffffffffffffffffffffffffffffffff168b604051612f4792919061407b565b60405180910390a15b5050505050505050505050565b85853373ffffffffffffffffffffffffffffffffffffffff1682600301600083815260200190815260200160002060000160009054906101000a900473ffffffffffffffffffffffffffffffffffffffff1673ffffffffffffffffffffffffffffffffffffffff1614613005576040517f08c379a0000000000000000000000000000000000000000000000000000000008152600401612ffc90614157565b60405180910390fd5b878781600301600082815260200190815260200160002060030160009054906101000a900460ff1615801561305d575081600301600082815260200190815260200160002060030160019054906101000a900460ff16155b801561308c575081600301600082815260200190815260200160002060030160029054906101000a900460ff16155b6130cb576040517f08c379a00000000000000000000000000000000000000000000000000000000081526004016130c290614157565b60405180910390fd5b8960030160008a815260200190815260200160002060040160405180608001604052808c60030160008d8152602001908152602001600020600401805490508152602001600860ff168152602001635e35359e8b8b8b60405160240161313393929190614014565b6040516020818303038152906040529060e01b6020820180517bffffffffffffffffffffffffffffffffffffffffffffffffffffffff838183161783525050505081526020016000151581525090806001815401808255809150506001900390600052602060002090600402016000909190919091506000820151816000015560208201518160010160006101000a81548160ff021916908360ff16021790555060408201518160020190805190602001906131f09291906135d7565b5060608201518160030160006101000a81548160ff021916908315150217905550505084156132bc5760018a60030160008b815260200190815260200160002060030160006101000a81548160ff0219169083151502179055507f7306ab933b6e1df1bd2fddce7143eeedd65d5996fada0e9168c4e8c3d1ece94d8a60030160008b815260200190815260200160002060000160009054906101000a900473ffffffffffffffffffffffffffffffffffffffff168a6040516132b392919061407b565b60405180910390a15b50505050505050505050565b83833373ffffffffffffffffffffffffffffffffffffffff1682600301600083815260200190815260200160002060000160009054906101000a900473ffffffffffffffffffffffffffffffffffffffff1673ffffffffffffffffffffffffffffffffffffffff1614613370576040517f08c379a000000000000000000000000000000000000000000000000000000000815260040161336790614157565b60405180910390fd5b858581600301600082815260200190815260200160002060030160009054906101000a900460ff161580156133c8575081600301600082815260200190815260200160002060030160019054906101000a900460ff16155b80156133f7575081600301600082815260200190815260200160002060030160029054906101000a900460ff16155b613436576040517f08c379a000000000000000000000000000000000000000000000000000000000815260040161342d90614157565b60405180910390fd5b87600301600088815260200190815260200160002060040160405180608001604052808a60030160008b8152602001908152602001600020600401805490508152602001600060ff1681526020018881526020016000151581525090806001815401808255809150506001900390600052602060002090600402016000909190919091506000820151816000015560208201518160010160006101000a81548160ff021916908360ff16021790555060408201518160020190805190602001906135019291906135d7565b5060608201518160030160006101000a81548160ff021916908315150217905550505084156135cd57600188600301600089815260200190815260200160002060030160006101000a81548160ff0219169083151502179055507f7306ab933b6e1df1bd2fddce7143eeedd65d5996fada0e9168c4e8c3d1ece94d88600301600089815260200190815260200160002060000160009054906101000a900473ffffffffffffffffffffffffffffffffffffffff16886040516135c492919061407b565b60405180910390a15b5050505050505050565b828054600181600116156101000203166002900490600052602060002090601f016020900481019282601f1061361857805160ff1916838001178555613646565b82800160010185558215613646579182015b8281111561364557825182559160200191906001019061362a565b5b5090506136539190613657565b5090565b61367991905b8082111561367557600081600090555060010161365d565b5090565b90565b60008135905061368b81614392565b92915050565b6000813590506136a0816143a9565b92915050565b600082601f8301126136b757600080fd5b81356136ca6136c582614248565b61421b565b915081818352602084019350602081019050838560808402820111156136ef57600080fd5b60005b8381101561371f578161370588826137bc565b8452602084019350608083019250506001810190506136f2565b5050505092915050565b600081359050613738816143c0565b92915050565b60008135905061374d816143d7565b92915050565b600081359050613762816143ee565b92915050565b600082601f83011261377957600080fd5b813561378c61378782614270565b61421b565b915080825260208301602083018583830111156137a857600080fd5b6137b3838284614383565b50505092915050565b6000608082840312156137ce57600080fd5b6137d8608061421b565b905060006137e88482850161367c565b60008301525060206137fc84828501613753565b602083015250604061381084828501613845565b604083015250606061382484828501613845565b60608301525092915050565b60008135905061383f81614405565b92915050565b6000813590506138548161441c565b92915050565b60006020828403121561386c57600080fd5b600061387a84828501613691565b91505092915050565b60008060006060848603121561389857600080fd5b60006138a686828701613753565b93505060206138b786828701613845565b92505060406138c886828701613845565b9150509250925092565b6000602082840312156138e457600080fd5b60006138f284828501613830565b91505092915050565b60008060008060008060c0878903121561391457600080fd5b600061392289828a01613830565b965050602061393389828a01613691565b955050604061394489828a0161367c565b945050606061395589828a0161367c565b935050608061396689828a0161373e565b92505060a061397789828a01613729565b9150509295509295509295565b60008060008060008060c0878903121561399d57600080fd5b60006139ab89828a01613830565b96505060206139bc89828a01613691565b95505060406139cd89828a0161367c565b94505060606139de89828a0161367c565b93505060806139ef89828a01613830565b92505060a0613a0089828a01613729565b9150509295509295509295565b60008060008060808587031215613a2357600080fd5b6000613a3187828801613830565b9450506020613a4287828801613691565b9350506040613a538782880161367c565b9250506060613a6487828801613729565b91505092959194509250565b600080600080600060a08688031215613a8857600080fd5b6000613a9688828901613830565b9550506020613aa788828901613691565b9450506040613ab88882890161367c565b9350506060613ac98882890161373e565b9250506080613ada88828901613729565b9150509295509295909350565b600080600080600060a08688031215613aff57600080fd5b6000613b0d88828901613830565b9550506020613b1e88828901613691565b9450506040613b2f8882890161367c565b9350506060613b4088828901613830565b9250506080613b5188828901613729565b9150509295509295909350565b60008060008060808587031215613b7457600080fd5b6000613b8287828801613830565b9450506020613b9387828801613691565b935050604085013567ffffffffffffffff811115613bb057600080fd5b613bbc878288016136a6565b9250506060613bcd87828801613729565b91505092959194509250565b600080600080600080600080610100898b031215613bf657600080fd5b6000613c048b828c01613830565b9850506020613c158b828c01613691565b9750506040613c268b828c01613830565b9650506060613c378b828c01613691565b9550506080613c488b828c01613753565b94505060a0613c598b828c01613845565b93505060c0613c6a8b828c01613845565b92505060e0613c7b8b828c01613729565b9150509295985092959890939650565b60008060008060808587031215613ca157600080fd5b6000613caf87828801613830565b9450506020613cc087828801613691565b9350506040613cd187828801613830565b9250506060613ce287828801613729565b91505092959194509250565b600080600060608486031215613d0357600080fd5b6000613d1186828701613830565b935050602084013567ffffffffffffffff811115613d2e57600080fd5b613d3a86828701613768565b9250506040613d4b86828701613729565b9150509250925092565b6000613d618383613e92565b60808301905092915050565b613d76816142f8565b82525050565b613d85816142f8565b82525050565b613d94816142e6565b82525050565b613da3816142e6565b82525050565b6000613db4826142ac565b613dbe81856142c4565b9350613dc98361429c565b8060005b83811015613dfa578151613de18882613d55565b9750613dec836142b7565b925050600181019050613dcd565b5085935050505092915050565b613e108161430a565b82525050565b613e1f81614316565b82525050565b613e2e81614342565b82525050565b613e3d81614342565b82525050565b613e4c81614342565b82525050565b6000613e5f600f836142d5565b91507f4e6f7420617574686f72697a65642e00000000000000000000000000000000006000830152602082019050919050565b608082016000820151613ea86000850182613d8b565b506020820151613ebb6020850182613e25565b506040820151613ece6040850182613efd565b506060820151613ee16060850182613efd565b50505050565b8082525050565b613ef78161436c565b82525050565b613f0681614376565b82525050565b613f1581614376565b82525050565b613f2481614376565b82525050565b6000604082019050613f3f6000830185613d6d565b613f4c6020830184613d9a565b9392505050565b6000608082019050613f686000830187613d6d565b613f756020830186613d9a565b613f826040830185613d9a565b613f8f6060830184613e16565b95945050505050565b6000608082019050613fad6000830187613d6d565b613fba6020830186613d9a565b613fc76040830185613d9a565b613fd46060830184613eee565b95945050505050565b6000606082019050613ff26000830186613d6d565b613fff6020830185613d9a565b61400c6040830184613e16565b949350505050565b60006060820190506140296000830186613d6d565b6140366020830185613d9a565b6140436040830184613eee565b949350505050565b60006040820190506140606000830185613d6d565b81810360208301526140728184613da9565b90509392505050565b60006040820190506140906000830185613d6d565b61409d6020830184613eee565b9392505050565b600060c0820190506140b96000830189613d6d565b6140c66020830188613eee565b6140d36040830187613d6d565b6140e06060830186613e34565b6140ed6080830185613f0c565b6140fa60a0830184613f0c565b979650505050505050565b600060208201905061411a6000830184613e07565b92915050565b60006060820190506141356000830186613e07565b6141426020830185613e07565b61414f6040830184613f0c565b949350505050565b6000602082019050818103600083015261417081613e52565b9050919050565b600060408201905061418c6000830185613ee7565b6141996020830184613d7c565b9392505050565b60006080820190506141b56000830187613ee7565b6141c26020830186613e43565b6141cf6040830185613f1b565b6141dc6060830184613f1b565b95945050505050565b60006020820190506141fa6000830184613eee565b92915050565b60006020820190506142156000830184613f0c565b92915050565b6000604051905081810181811067ffffffffffffffff8211171561423e57600080fd5b8060405250919050565b600067ffffffffffffffff82111561425f57600080fd5b602082029050602081019050919050565b600067ffffffffffffffff82111561428757600080fd5b601f19601f8301169050602081019050919050565b6000819050602082019050919050565b600081519050919050565b6000602082019050919050565b600082825260208201905092915050565b600082825260208201905092915050565b60006142f18261434c565b9050919050565b60006143038261434c565b9050919050565b60008115159050919050565b60007fffff00000000000000000000000000000000000000000000000000000000000082169050919050565b6000819050919050565b600073ffffffffffffffffffffffffffffffffffffffff82169050919050565b6000819050919050565b600060ff82169050919050565b82818337600083830152505050565b61439b816142e6565b81146143a657600080fd5b50565b6143b2816142f8565b81146143bd57600080fd5b50565b6143c98161430a565b81146143d457600080fd5b50565b6143e081614316565b81146143eb57600080fd5b50565b6143f781614342565b811461440257600080fd5b50565b61440e8161436c565b811461441957600080fd5b50565b61442581614376565b811461443057600080fd5b5056fea26469706673582212205a82aa29dd2e2ff171b2a0445c1faa329395b5d48a6178204d3185f2b7a1992264736f6c63430006080033",
  "immutableReferences": {},
  "source": "// SPDX-License-Identifier: LGPL-3.0-or-later\npragma solidity ^0.6.0;\npragma experimental ABIEncoderV2;\n\nimport \"./Kelsen.sol\";\nimport \"./libraries/ProcedureLibrary.sol\";\n\n/*\n    A procedure defines a set of operations compiled in a move.\n    The procedure dictates the way the move can be applied.\n\n    @TODO : Add moves getters.\n*/\n\ncontract Procedure is Kelsen(false, true) {\n    using ProcedureLibrary for ProcedureLibrary.ProcedureData;\n    using OrganLibrary for OrganLibrary.Entry;\n    ProcedureLibrary.ProcedureData private procedureData;\n\n    /**\n        Modifiers.\n    */\n\n    modifier onlyInOrgan(address payable organAddress) {\n        require(ProcedureLibrary.isInOrgan(organAddress, msg.sender), \"Not authorized\");\n        _;\n    }\n\n    /**\n        Procedure constructor.\n    */\n\n    constructor (bytes32 metadataIpfsHash, uint8 metadataHashFunction, uint8 metadataHashSize)\n        public\n    {\n        procedureData.init(metadataIpfsHash, metadataHashFunction, metadataHashSize);\n    }\n\n    /**\n        Internal API.\n        A procedure must call this method itself.\n    */\n\n    function applyMove(uint256 moveKey)\n        internal\n    {\n        procedureData.applyMove(moveKey);\n    }\n\n    /**\n        Public API : Procedure Metadata and Admin.\n    */\n\n    function updateMetadata(bytes32 ipfsHash, uint8 hashFunction, uint8 hashSize)\n        public\n    {\n        procedureData.updateMetadata(ipfsHash, hashFunction, hashSize);\n    }\n\n    function updateAdmin(address payable admin)\n        public\n    {\n        procedureData.updateAdmin(admin);\n    }\n\n    /**\n        Public API : Moves creation and update.\n    */\n\n    function createMove(bytes32 ipfsHash, uint8 hashFunction, uint8 hashSize)\n        public returns (uint256)\n    {\n        return procedureData.createMove(ipfsHash, hashFunction, hashSize);\n    }\n\n    function moveAddEntries(\n        uint256 moveKey, address payable organ, OrganLibrary.Entry[] memory entries, bool lock\n    )\n        public\n    {\n        procedureData.moveAddEntries(moveKey, organ, entries, lock);\n    }\n\n    function moveRemoveEntry(\n        uint256 moveKey, address payable organ, uint256 indexes, bool lock\n    )\n        public\n    {\n        procedureData.moveRemoveEntry(moveKey, organ, indexes, lock);\n    }\n\n    function moveReplaceEntry(\n        uint256 moveKey, address payable organ, uint index, address payable addr,\n        bytes32 ipfsHash, uint8 hashFunction, uint8 hashSize, bool lock\n    )\n        public\n    {\n        procedureData.moveReplaceEntry(moveKey, organ, index, addr, ipfsHash, hashFunction, hashSize, lock);\n    }\n\n    function moveAddProcedure(\n        uint256 moveKey, address payable organ, address procedure, bytes2 permissions, bool lock\n    )\n        public\n    {\n        procedureData.moveAddProcedure(moveKey, organ, procedure, permissions, lock);\n    }\n\n    function moveRemoveProcedure(\n        uint256 moveKey, address payable organ, address procedure, bool lock\n    )\n        public\n    {\n        procedureData.moveRemoveProcedure(moveKey, organ, procedure, lock);\n    }\n\n    function moveReplaceProcedure(\n        uint256 moveKey, address payable organ,\n        address oldProcedure, address newProcedure, bytes2 permissions, bool lock\n    )\n        public\n    {\n        procedureData.moveReplaceProcedure(moveKey, organ, oldProcedure, newProcedure, permissions, lock);\n    }\n\n    function moveCall(\n        uint256 moveKey, bytes memory call,  bool lock\n    )\n        public\n    {\n        procedureData.moveCall(moveKey, call, lock);\n    }\n\n    function moveReceiveCollectible(\n        uint256 moveKey, address payable organ, address operator, address target, uint256 token_id, bool lock\n    )\n        public\n    {\n        procedureData.moveReceiveCollectible(moveKey, organ, operator, target, token_id, lock);\n    }\n\n    function moveTransferCollectible(\n        uint256 moveKey, address payable organ, address operator, address target, uint256 token_id, bool lock\n    )\n        public\n    {\n        procedureData.moveTransferCollectible(moveKey, organ, operator, target, token_id, lock);\n    }\n\n    function moveReceiveCoins(\n        uint256 moveKey, address payable organ, address operator, address target, uint256 value, bool lock\n    )\n        public\n    {\n        procedureData.moveReceiveCoins(moveKey, organ, operator, target, value, lock);\n    }\n\n    function moveTransferCoins(\n        uint256 moveKey, address payable organ, address operator, address target, uint256 value, bool lock\n    )\n        public\n    {\n        procedureData.moveTransferCoins(moveKey, organ, operator, target, value, lock);\n    }\n\n    function moveReceiveEther(\n        uint256 moveKey, address payable organ, address target, uint256 value, bool lock\n    )\n        public\n    {\n        procedureData.moveReceiveEther(moveKey, organ, target, value, lock);\n    }\n\n    function moveTransferEther(\n        uint256 moveKey, address payable organ, address target, uint256 value, bool lock\n    )\n        public\n    {\n        procedureData.moveTransferEther(moveKey, organ, target, value, lock);\n    }\n\n    function lockMove(uint256 moveKey)\n        public\n    {\n        procedureData.lockMove(moveKey);\n    }\n}",
  "sourcePath": "/Users/alex/Code/organigr.am/contracts/contracts/Procedure.sol",
  "compiler": {
    "name": "solc",
    "version": "0.6.8+commit.0bbfe453.Emscripten.clang"
  },
  "schemaVersion": "3.2.4",
  "updatedAt": "2020-09-12T01:03:17.524Z",
  "devdoc": {
    "methods": {}
  },
  "userdoc": {
    "methods": {
      "constructor": "Procedure constructor.",
      "createMove(bytes32,uint8,uint8)": {
        "notice": "Public API : Moves creation and update."
      },
      "updateMetadata(bytes32,uint8,uint8)": {
        "notice": "Public API : Procedure Metadata and Admin."
      }
    }
  }
}