{
  "contractName": "SimpleNominationProcedure",
  "abi": [
    {
      "inputs": [
        {
          "internalType": "bytes32",
          "name": "_metadataIpfsHash",
          "type": "bytes32"
        },
        {
          "internalType": "uint8",
          "name": "_metadataHashFunction",
          "type": "uint8"
        },
        {
          "internalType": "uint8",
          "name": "_metadataHashSize",
          "type": "uint8"
        },
        {
          "internalType": "address payable",
          "name": "_nominatersOrgan",
          "type": "address"
        }
      ],
      "stateMutability": "nonpayable",
      "type": "constructor"
    },
    {
      "inputs": [
        {
          "internalType": "bytes32",
          "name": "ipfsHash",
          "type": "bytes32"
        },
        {
          "internalType": "uint8",
          "name": "hashFunction",
          "type": "uint8"
        },
        {
          "internalType": "uint8",
          "name": "hashSize",
          "type": "uint8"
        }
      ],
      "name": "createMove",
      "outputs": [
        {
          "internalType": "uint256",
          "name": "",
          "type": "uint256"
        }
      ],
      "stateMutability": "nonpayable",
      "type": "function"
    },
    {
      "inputs": [],
      "name": "getKelsenData",
      "outputs": [
        {
          "internalType": "bool",
          "name": "",
          "type": "bool"
        },
        {
          "internalType": "bool",
          "name": "",
          "type": "bool"
        },
        {
          "internalType": "uint8",
          "name": "",
          "type": "uint8"
        }
      ],
      "stateMutability": "view",
      "type": "function",
      "constant": true
    },
    {
      "inputs": [],
      "name": "isOrgan",
      "outputs": [
        {
          "internalType": "bool",
          "name": "",
          "type": "bool"
        }
      ],
      "stateMutability": "view",
      "type": "function",
      "constant": true
    },
    {
      "inputs": [],
      "name": "isProcedure",
      "outputs": [
        {
          "internalType": "bool",
          "name": "",
          "type": "bool"
        }
      ],
      "stateMutability": "view",
      "type": "function",
      "constant": true
    },
    {
      "inputs": [],
      "name": "kelsenVersion",
      "outputs": [
        {
          "internalType": "uint8",
          "name": "",
          "type": "uint8"
        }
      ],
      "stateMutability": "view",
      "type": "function",
      "constant": true
    },
    {
      "inputs": [
        {
          "internalType": "uint256",
          "name": "moveKey",
          "type": "uint256"
        }
      ],
      "name": "lockMove",
      "outputs": [],
      "stateMutability": "nonpayable",
      "type": "function"
    },
    {
      "inputs": [
        {
          "internalType": "uint256",
          "name": "moveKey",
          "type": "uint256"
        },
        {
          "internalType": "address payable",
          "name": "organ",
          "type": "address"
        },
        {
          "components": [
            {
              "internalType": "address",
              "name": "addr",
              "type": "address"
            },
            {
              "internalType": "bytes32",
              "name": "ipfsHash",
              "type": "bytes32"
            },
            {
              "internalType": "uint8",
              "name": "hashFunction",
              "type": "uint8"
            },
            {
              "internalType": "uint8",
              "name": "hashSize",
              "type": "uint8"
            }
          ],
          "internalType": "struct OrganLibrary.Entry[]",
          "name": "entries",
          "type": "tuple[]"
        },
        {
          "internalType": "bool",
          "name": "lock",
          "type": "bool"
        }
      ],
      "name": "moveAddEntries",
      "outputs": [],
      "stateMutability": "nonpayable",
      "type": "function"
    },
    {
      "inputs": [
        {
          "internalType": "uint256",
          "name": "moveKey",
          "type": "uint256"
        },
        {
          "internalType": "address payable",
          "name": "organ",
          "type": "address"
        },
        {
          "internalType": "address",
          "name": "procedure",
          "type": "address"
        },
        {
          "internalType": "bytes2",
          "name": "permissions",
          "type": "bytes2"
        },
        {
          "internalType": "bool",
          "name": "lock",
          "type": "bool"
        }
      ],
      "name": "moveAddProcedure",
      "outputs": [],
      "stateMutability": "nonpayable",
      "type": "function"
    },
    {
      "inputs": [
        {
          "internalType": "uint256",
          "name": "moveKey",
          "type": "uint256"
        },
        {
          "internalType": "bytes",
          "name": "call",
          "type": "bytes"
        },
        {
          "internalType": "bool",
          "name": "lock",
          "type": "bool"
        }
      ],
      "name": "moveCall",
      "outputs": [],
      "stateMutability": "nonpayable",
      "type": "function"
    },
    {
      "inputs": [
        {
          "internalType": "uint256",
          "name": "moveKey",
          "type": "uint256"
        },
        {
          "internalType": "address payable",
          "name": "organ",
          "type": "address"
        },
        {
          "internalType": "address",
          "name": "operator",
          "type": "address"
        },
        {
          "internalType": "address",
          "name": "target",
          "type": "address"
        },
        {
          "internalType": "uint256",
          "name": "value",
          "type": "uint256"
        },
        {
          "internalType": "bool",
          "name": "lock",
          "type": "bool"
        }
      ],
      "name": "moveReceiveCoins",
      "outputs": [],
      "stateMutability": "nonpayable",
      "type": "function"
    },
    {
      "inputs": [
        {
          "internalType": "uint256",
          "name": "moveKey",
          "type": "uint256"
        },
        {
          "internalType": "address payable",
          "name": "organ",
          "type": "address"
        },
        {
          "internalType": "address",
          "name": "operator",
          "type": "address"
        },
        {
          "internalType": "address",
          "name": "target",
          "type": "address"
        },
        {
          "internalType": "uint256",
          "name": "token_id",
          "type": "uint256"
        },
        {
          "internalType": "bool",
          "name": "lock",
          "type": "bool"
        }
      ],
      "name": "moveReceiveCollectible",
      "outputs": [],
      "stateMutability": "nonpayable",
      "type": "function"
    },
    {
      "inputs": [
        {
          "internalType": "uint256",
          "name": "moveKey",
          "type": "uint256"
        },
        {
          "internalType": "address payable",
          "name": "organ",
          "type": "address"
        },
        {
          "internalType": "address",
          "name": "target",
          "type": "address"
        },
        {
          "internalType": "uint256",
          "name": "value",
          "type": "uint256"
        },
        {
          "internalType": "bool",
          "name": "lock",
          "type": "bool"
        }
      ],
      "name": "moveReceiveEther",
      "outputs": [],
      "stateMutability": "nonpayable",
      "type": "function"
    },
    {
      "inputs": [
        {
          "internalType": "uint256",
          "name": "moveKey",
          "type": "uint256"
        },
        {
          "internalType": "address payable",
          "name": "organ",
          "type": "address"
        },
        {
          "internalType": "uint256",
          "name": "indexes",
          "type": "uint256"
        },
        {
          "internalType": "bool",
          "name": "lock",
          "type": "bool"
        }
      ],
      "name": "moveRemoveEntry",
      "outputs": [],
      "stateMutability": "nonpayable",
      "type": "function"
    },
    {
      "inputs": [
        {
          "internalType": "uint256",
          "name": "moveKey",
          "type": "uint256"
        },
        {
          "internalType": "address payable",
          "name": "organ",
          "type": "address"
        },
        {
          "internalType": "address",
          "name": "procedure",
          "type": "address"
        },
        {
          "internalType": "bool",
          "name": "lock",
          "type": "bool"
        }
      ],
      "name": "moveRemoveProcedure",
      "outputs": [],
      "stateMutability": "nonpayable",
      "type": "function"
    },
    {
      "inputs": [
        {
          "internalType": "uint256",
          "name": "moveKey",
          "type": "uint256"
        },
        {
          "internalType": "address payable",
          "name": "organ",
          "type": "address"
        },
        {
          "internalType": "uint256",
          "name": "index",
          "type": "uint256"
        },
        {
          "internalType": "address payable",
          "name": "addr",
          "type": "address"
        },
        {
          "internalType": "bytes32",
          "name": "ipfsHash",
          "type": "bytes32"
        },
        {
          "internalType": "uint8",
          "name": "hashFunction",
          "type": "uint8"
        },
        {
          "internalType": "uint8",
          "name": "hashSize",
          "type": "uint8"
        },
        {
          "internalType": "bool",
          "name": "lock",
          "type": "bool"
        }
      ],
      "name": "moveReplaceEntry",
      "outputs": [],
      "stateMutability": "nonpayable",
      "type": "function"
    },
    {
      "inputs": [
        {
          "internalType": "uint256",
          "name": "moveKey",
          "type": "uint256"
        },
        {
          "internalType": "address payable",
          "name": "organ",
          "type": "address"
        },
        {
          "internalType": "address",
          "name": "oldProcedure",
          "type": "address"
        },
        {
          "internalType": "address",
          "name": "newProcedure",
          "type": "address"
        },
        {
          "internalType": "bytes2",
          "name": "permissions",
          "type": "bytes2"
        },
        {
          "internalType": "bool",
          "name": "lock",
          "type": "bool"
        }
      ],
      "name": "moveReplaceProcedure",
      "outputs": [],
      "stateMutability": "nonpayable",
      "type": "function"
    },
    {
      "inputs": [
        {
          "internalType": "uint256",
          "name": "moveKey",
          "type": "uint256"
        },
        {
          "internalType": "address payable",
          "name": "organ",
          "type": "address"
        },
        {
          "internalType": "address",
          "name": "operator",
          "type": "address"
        },
        {
          "internalType": "address",
          "name": "target",
          "type": "address"
        },
        {
          "internalType": "uint256",
          "name": "value",
          "type": "uint256"
        },
        {
          "internalType": "bool",
          "name": "lock",
          "type": "bool"
        }
      ],
      "name": "moveTransferCoins",
      "outputs": [],
      "stateMutability": "nonpayable",
      "type": "function"
    },
    {
      "inputs": [
        {
          "internalType": "uint256",
          "name": "moveKey",
          "type": "uint256"
        },
        {
          "internalType": "address payable",
          "name": "organ",
          "type": "address"
        },
        {
          "internalType": "address",
          "name": "operator",
          "type": "address"
        },
        {
          "internalType": "address",
          "name": "target",
          "type": "address"
        },
        {
          "internalType": "uint256",
          "name": "token_id",
          "type": "uint256"
        },
        {
          "internalType": "bool",
          "name": "lock",
          "type": "bool"
        }
      ],
      "name": "moveTransferCollectible",
      "outputs": [],
      "stateMutability": "nonpayable",
      "type": "function"
    },
    {
      "inputs": [
        {
          "internalType": "uint256",
          "name": "moveKey",
          "type": "uint256"
        },
        {
          "internalType": "address payable",
          "name": "organ",
          "type": "address"
        },
        {
          "internalType": "address",
          "name": "target",
          "type": "address"
        },
        {
          "internalType": "uint256",
          "name": "value",
          "type": "uint256"
        },
        {
          "internalType": "bool",
          "name": "lock",
          "type": "bool"
        }
      ],
      "name": "moveTransferEther",
      "outputs": [],
      "stateMutability": "nonpayable",
      "type": "function"
    },
    {
      "inputs": [],
      "name": "nominatersOrgan",
      "outputs": [
        {
          "internalType": "address payable",
          "name": "",
          "type": "address"
        }
      ],
      "stateMutability": "view",
      "type": "function",
      "constant": true
    },
    {
      "inputs": [
        {
          "internalType": "address payable",
          "name": "admin",
          "type": "address"
        }
      ],
      "name": "updateAdmin",
      "outputs": [],
      "stateMutability": "nonpayable",
      "type": "function"
    },
    {
      "inputs": [
        {
          "internalType": "bytes32",
          "name": "ipfsHash",
          "type": "bytes32"
        },
        {
          "internalType": "uint8",
          "name": "hashFunction",
          "type": "uint8"
        },
        {
          "internalType": "uint8",
          "name": "hashSize",
          "type": "uint8"
        }
      ],
      "name": "updateMetadata",
      "outputs": [],
      "stateMutability": "nonpayable",
      "type": "function"
    },
    {
      "inputs": [
        {
          "internalType": "uint256",
          "name": "moveKey",
          "type": "uint256"
        }
      ],
      "name": "nominate",
      "outputs": [],
      "stateMutability": "nonpayable",
      "type": "function"
    }
  ],
  "bytecode": "0x608060405260036000806101000a81548160ff021916908360ff1602179055503480156200002c57600080fd5b5060405162004ba738038062004ba7833981810160405281019062000052919062000196565b8383836000600181600060016101000a81548160ff02191690831515021790555080600060026101000a81548160ff0219169083151502179055505050600173__ProcedureLibrary______________________63359a395d90918585856040518563ffffffff1660e01b8152600401620000d194939291906200022b565b60006040518083038186803b158015620000ea57600080fd5b505af4158015620000ff573d6000803e3d6000fd5b5050505050505080600660006101000a81548173ffffffffffffffffffffffffffffffffffffffff021916908373ffffffffffffffffffffffffffffffffffffffff1602179055505050505062000311565b6000815190506200016281620002c3565b92915050565b6000815190506200017981620002dd565b92915050565b6000815190506200019081620002f7565b92915050565b60008060008060808587031215620001ad57600080fd5b6000620001bd8782880162000168565b9450506020620001d0878288016200017f565b9350506040620001e3878288016200017f565b9250506060620001f68782880162000151565b91505092959194509250565b6200020d816200028c565b82525050565b8082525050565b6200022581620002b6565b82525050565b600060808201905062000242600083018762000213565b62000251602083018662000202565b6200026060408301856200021a565b6200026f60608301846200021a565b95945050505050565b6000620002858262000296565b9050919050565b6000819050919050565b600073ffffffffffffffffffffffffffffffffffffffff82169050919050565b600060ff82169050919050565b620002ce8162000278565b8114620002da57600080fd5b50565b620002e8816200028c565b8114620002f457600080fd5b50565b6200030281620002b6565b81146200030e57600080fd5b50565b61488680620003216000396000f3fe608060405234801561001057600080fd5b506004361061014d5760003560e01c80637c3a5fcc116100c3578063c91ebea81161007c578063c91ebea81461034a578063cb6bc9ff14610368578063cc12503114610384578063e2a6ed04146103a0578063e2f273bd146103be578063fa160aa2146103da5761014d565b80637c3a5fcc1461028c5780637ee7fa40146102a857806390f2ee22146102c4578063a2b58cda146102e2578063c492f46314610312578063c5f28e491461032e5761014d565b806352c041b21161011557806352c041b2146101e25780635a31b560146101fe5780635ba357dc1461021a5780636322ab201461023657806367c322d014610252578063759913d61461026e5761014d565b80630b5522a914610152578063148a20051461016e578063249abcf71461018a5780632c1d5337146101aa57806339c2ae70146101c6575b600080fd5b61016c60048036038101906101679190613de9565b6103f6565b005b61018860048036038101906101839190613cfd565b610419565b005b61019261043f565b6040516101a19392919061451d565b60405180910390f35b6101c460048036038101906101bf9190613c74565b61047d565b005b6101e060048036038101906101db9190613bfc565b6104a3565b005b6101fc60048036038101906101f79190613f52565b610518565b005b61021860048036038101906102139190613cfd565b610544565b005b610234600480360381019061022f9190613c4b565b61056a565b005b610250600480360381019061024b9190614004565b610581565b005b61026c60048036038101906102679190613d86565b6105a1565b005b6102766105c1565b604051610283919061461d565b60405180910390f35b6102a660048036038101906102a19190613cfd565b6105d3565b005b6102c260048036038101906102bd9190613e60565b6105f9565b005b6102cc61061c565b6040516102d99190614502565b60405180910390f35b6102fc60048036038101906102f79190613bfc565b61062f565b6040516103099190614602565b60405180910390f35b61032c60048036038101906103279190613ed7565b610652565b005b61034860048036038101906103439190613c4b565b610672565b005b61035261076a565b60405161035f9190614502565b60405180910390f35b610382600480360381019061037d9190613cfd565b61077d565b005b61039e60048036038101906103999190613e60565b6107a3565b005b6103a86107c6565b6040516103b591906142e3565b60405180910390f35b6103d860048036038101906103d39190613baa565b6107ec565b005b6103f460048036038101906103ef9190614067565b61085b565b005b610412858585858560016108789095949392919063ffffffff16565b5050505050565b6104378686868686866001610be3909695949392919063ffffffff16565b505050505050565b60008060008060019054906101000a900460ff16600060029054906101000a900460ff166000809054906101000a900460ff16925092509250909192565b61049b8686868686866001610f51909695949392919063ffffffff16565b505050505050565b600173__ProcedureLibrary______________________63b8cc9a0290918585856040518563ffffffff1660e01b81526004016104e394939291906145bd565b60006040518083038186803b1580156104fb57600080fd5b505af415801561050f573d6000803e3d6000fd5b50505050505050565b61053a888888888888888860016112bf9098979695949392919063ffffffff16565b5050505050505050565b61056286868686868660016115fd909695949392919063ffffffff16565b505050505050565b61057e81600161196b90919063ffffffff16565b50565b61059b848484846001611b4b90949392919063ffffffff16565b50505050565b6105bb848484846001611eb390949392919063ffffffff16565b50505050565b6000809054906101000a900460ff1681565b6105f1868686868686600161221b909695949392919063ffffffff16565b505050505050565b610615858585858560016125879095949392919063ffffffff16565b5050505050565b600060019054906101000a900460ff1681565b600061064984848460016128f2909392919063ffffffff16565b90509392505050565b61066c8484848460016129f590949392919063ffffffff16565b50505050565b600660009054906101000a900473ffffffffffffffffffffffffffffffffffffffff1673__ProcedureLibrary______________________637c3b86fe82336040518363ffffffff1660e01b81526004016106ce929190614327565b60206040518083038186803b1580156106e657600080fd5b505af41580156106fa573d6000803e3d6000fd5b505050506040513d601f19601f8201168201806040525081019061071e9190613bd3565b61075d576040517f08c379a000000000000000000000000000000000000000000000000000000000815260040161075490614574565b60405180910390fd5b61076682612d5d565b5050565b600060029054906101000a900460ff1681565b61079b8686868686866001612d74909695949392919063ffffffff16565b505050505050565b6107bf858585858560016130e29095949392919063ffffffff16565b5050505050565b600660009054906101000a900473ffffffffffffffffffffffffffffffffffffffff1681565b600173__ProcedureLibrary______________________638e956e929091836040518363ffffffff1660e01b8152600401610828929190614594565b60006040518083038186803b15801561084057600080fd5b505af4158015610854573d6000803e3d6000fd5b5050505050565b610873838383600161344d909392919063ffffffff16565b505050565b85853373ffffffffffffffffffffffffffffffffffffffff1682600301600083815260200190815260200160002060000160009054906101000a900473ffffffffffffffffffffffffffffffffffffffff1673ffffffffffffffffffffffffffffffffffffffff1614610920576040517f08c379a000000000000000000000000000000000000000000000000000000000815260040161091790614554565b60405180910390fd5b878781600301600082815260200190815260200160002060030160009054906101000a900460ff16158015610978575081600301600082815260200190815260200160002060030160019054906101000a900460ff16155b80156109a7575081600301600082815260200190815260200160002060030160029054906101000a900460ff16155b6109e6576040517f08c379a00000000000000000000000000000000000000000000000000000000081526004016109dd90614554565b60405180910390fd5b8960030160008a815260200190815260200160002060040160405180608001604052808c60030160008d8152602001908152602001600020600401805490508152602001600460ff1681526020016390b137e98b8b8b604051602401610a4e939291906143da565b6040516020818303038152906040529060e01b6020820180517bffffffffffffffffffffffffffffffffffffffffffffffffffffffff838183161783525050505081526020016000151581525090806001815401808255809150506001900390600052602060002090600402016000909190919091506000820151816000015560208201518160010160006101000a81548160ff021916908360ff1602179055506040820151816002019080519060200190610b0b929190613912565b5060608201518160030160006101000a81548160ff02191690831515021790555050508415610bd75760018a60030160008b815260200190815260200160002060030160006101000a81548160ff0219169083151502179055507f7306ab933b6e1df1bd2fddce7143eeedd65d5996fada0e9168c4e8c3d1ece94d8a60030160008b815260200190815260200160002060000160009054906101000a900473ffffffffffffffffffffffffffffffffffffffff168a604051610bce929190614478565b60405180910390a15b50505050505050505050565b86863373ffffffffffffffffffffffffffffffffffffffff1682600301600083815260200190815260200160002060000160009054906101000a900473ffffffffffffffffffffffffffffffffffffffff1673ffffffffffffffffffffffffffffffffffffffff1614610c8b576040517f08c379a0000000000000000000000000000000000000000000000000000000008152600401610c8290614554565b60405180910390fd5b888881600301600082815260200190815260200160002060030160009054906101000a900460ff16158015610ce3575081600301600082815260200190815260200160002060030160019054906101000a900460ff16155b8015610d12575081600301600082815260200190815260200160002060030160029054906101000a900460ff16155b610d51576040517f08c379a0000000000000000000000000000000000000000000000000000000008152600401610d4890614554565b60405180910390fd5b8a60030160008b815260200190815260200160002060040160405180608001604052808d60030160008e8152602001908152602001600020600401805490508152602001600760ff16815260200163c10753298c8c8c8c604051602401610dbb9493929190614395565b6040516020818303038152906040529060e01b6020820180517bffffffffffffffffffffffffffffffffffffffffffffffffffffffff838183161783525050505081526020016000151581525090806001815401808255809150506001900390600052602060002090600402016000909190919091506000820151816000015560208201518160010160006101000a81548160ff021916908360ff1602179055506040820151816002019080519060200190610e78929190613912565b5060608201518160030160006101000a81548160ff02191690831515021790555050508415610f445760018b60030160008c815260200190815260200160002060030160006101000a81548160ff0219169083151502179055507f7306ab933b6e1df1bd2fddce7143eeedd65d5996fada0e9168c4e8c3d1ece94d8b60030160008c815260200190815260200160002060000160009054906101000a900473ffffffffffffffffffffffffffffffffffffffff168b604051610f3b929190614478565b60405180910390a15b5050505050505050505050565b86863373ffffffffffffffffffffffffffffffffffffffff1682600301600083815260200190815260200160002060000160009054906101000a900473ffffffffffffffffffffffffffffffffffffffff1673ffffffffffffffffffffffffffffffffffffffff1614610ff9576040517f08c379a0000000000000000000000000000000000000000000000000000000008152600401610ff090614554565b60405180910390fd5b888881600301600082815260200190815260200160002060030160009054906101000a900460ff16158015611051575081600301600082815260200190815260200160002060030160019054906101000a900460ff16155b8015611080575081600301600082815260200190815260200160002060030160029054906101000a900460ff16155b6110bf576040517f08c379a00000000000000000000000000000000000000000000000000000000081526004016110b690614554565b60405180910390fd5b8a60030160008b815260200190815260200160002060040160405180608001604052808d60030160008e8152602001908152602001600020600401805490508152602001600660ff168152602001635676c77d8c8c8c8c6040516024016111299493929190614350565b6040516020818303038152906040529060e01b6020820180517bffffffffffffffffffffffffffffffffffffffffffffffffffffffff838183161783525050505081526020016000151581525090806001815401808255809150506001900390600052602060002090600402016000909190919091506000820151816000015560208201518160010160006101000a81548160ff021916908360ff16021790555060408201518160020190805190602001906111e6929190613912565b5060608201518160030160006101000a81548160ff021916908315150217905550505084156112b25760018b60030160008c815260200190815260200160002060030160006101000a81548160ff0219169083151502179055507f7306ab933b6e1df1bd2fddce7143eeedd65d5996fada0e9168c4e8c3d1ece94d8b60030160008c815260200190815260200160002060000160009054906101000a900473ffffffffffffffffffffffffffffffffffffffff168b6040516112a9929190614478565b60405180910390a15b5050505050505050505050565b88883373ffffffffffffffffffffffffffffffffffffffff1682600301600083815260200190815260200160002060000160009054906101000a900473ffffffffffffffffffffffffffffffffffffffff1673ffffffffffffffffffffffffffffffffffffffff1614611367576040517f08c379a000000000000000000000000000000000000000000000000000000000815260040161135e90614554565b60405180910390fd5b8a8a81600301600082815260200190815260200160002060030160009054906101000a900460ff161580156113bf575081600301600082815260200190815260200160002060030160019054906101000a900460ff16155b80156113ee575081600301600082815260200190815260200160002060030160029054906101000a900460ff16155b61142d576040517f08c379a000000000000000000000000000000000000000000000000000000000815260040161142490614554565b60405180910390fd5b60008d60030160008e8152602001908152602001600020905080600401604051806080016040528083600401805490508152602001600360ff16815260200163155a73ce8f8f8f8f8f8f60405160240161148c969594939291906144a1565b6040516020818303038152906040529060e01b6020820180517bffffffffffffffffffffffffffffffffffffffffffffffffffffffff838183161783525050505081526020016000151581525090806001815401808255809150506001900390600052602060002090600402016000909190919091506000820151816000015560208201518160010160006101000a81548160ff021916908360ff1602179055506040820151816002019080519060200190611549929190613912565b5060608201518160030160006101000a81548160ff021916908315150217905550505085156115ed5760018160030160006101000a81548160ff0219169083151502179055507f7306ab933b6e1df1bd2fddce7143eeedd65d5996fada0e9168c4e8c3d1ece94d8160000160009054906101000a900473ffffffffffffffffffffffffffffffffffffffff168e6040516115e4929190614478565b60405180910390a15b5050505050505050505050505050565b86863373ffffffffffffffffffffffffffffffffffffffff1682600301600083815260200190815260200160002060000160009054906101000a900473ffffffffffffffffffffffffffffffffffffffff1673ffffffffffffffffffffffffffffffffffffffff16146116a5576040517f08c379a000000000000000000000000000000000000000000000000000000000815260040161169c90614554565b60405180910390fd5b888881600301600082815260200190815260200160002060030160009054906101000a900460ff161580156116fd575081600301600082815260200190815260200160002060030160019054906101000a900460ff16155b801561172c575081600301600082815260200190815260200160002060030160029054906101000a900460ff16155b61176b576040517f08c379a000000000000000000000000000000000000000000000000000000000815260040161176290614554565b60405180910390fd5b8a60030160008b815260200190815260200160002060040160405180608001604052808d60030160008e8152602001908152602001600020600401805490508152602001600860ff168152602001635e35359e8c8c8c8c6040516024016117d59493929190614395565b6040516020818303038152906040529060e01b6020820180517bffffffffffffffffffffffffffffffffffffffffffffffffffffffff838183161783525050505081526020016000151581525090806001815401808255809150506001900390600052602060002090600402016000909190919091506000820151816000015560208201518160010160006101000a81548160ff021916908360ff1602179055506040820151816002019080519060200190611892929190613912565b5060608201518160030160006101000a81548160ff0219169083151502179055505050841561195e5760018b60030160008c815260200190815260200160002060030160006101000a81548160ff0219169083151502179055507f7306ab933b6e1df1bd2fddce7143eeedd65d5996fada0e9168c4e8c3d1ece94d8b60030160008c815260200190815260200160002060000160009054906101000a900473ffffffffffffffffffffffffffffffffffffffff168b604051611955929190614478565b60405180910390a15b5050505050505050505050565b81813373ffffffffffffffffffffffffffffffffffffffff1682600301600083815260200190815260200160002060000160009054906101000a900473ffffffffffffffffffffffffffffffffffffffff1673ffffffffffffffffffffffffffffffffffffffff1614611a13576040517f08c379a0000000000000000000000000000000000000000000000000000000008152600401611a0a90614554565b60405180910390fd5b838381600301600082815260200190815260200160002060030160009054906101000a900460ff16158015611a6b575081600301600082815260200190815260200160002060030160019054906101000a900460ff16155b8015611a9a575081600301600082815260200190815260200160002060030160029054906101000a900460ff16155b611ad9576040517f08c379a0000000000000000000000000000000000000000000000000000000008152600401611ad090614554565b60405180910390fd5b600186600301600087815260200190815260200160002060030160006101000a81548160ff0219169083151502179055507f7306ab933b6e1df1bd2fddce7143eeedd65d5996fada0e9168c4e8c3d1ece94d3386604051611b3b929190614478565b60405180910390a1505050505050565b84843373ffffffffffffffffffffffffffffffffffffffff1682600301600083815260200190815260200160002060000160009054906101000a900473ffffffffffffffffffffffffffffffffffffffff1673ffffffffffffffffffffffffffffffffffffffff1614611bf3576040517f08c379a0000000000000000000000000000000000000000000000000000000008152600401611bea90614554565b60405180910390fd5b868681600301600082815260200190815260200160002060030160009054906101000a900460ff16158015611c4b575081600301600082815260200190815260200160002060030160019054906101000a900460ff16155b8015611c7a575081600301600082815260200190815260200160002060030160029054906101000a900460ff16155b611cb9576040517f08c379a0000000000000000000000000000000000000000000000000000000008152600401611cb090614554565b60405180910390fd5b88600301600089815260200190815260200160002060040160405180608001604052808b60030160008c8152602001908152602001600020600401805490508152602001600260ff1681526020016376a6411c8a8a604051602401611d1f929190614478565b6040516020818303038152906040529060e01b6020820180517bffffffffffffffffffffffffffffffffffffffffffffffffffffffff838183161783525050505081526020016000151581525090806001815401808255809150506001900390600052602060002090600402016000909190919091506000820151816000015560208201518160010160006101000a81548160ff021916908360ff1602179055506040820151816002019080519060200190611ddc929190613912565b5060608201518160030160006101000a81548160ff02191690831515021790555050508415611ea85760018960030160008a815260200190815260200160002060030160006101000a81548160ff0219169083151502179055507f7306ab933b6e1df1bd2fddce7143eeedd65d5996fada0e9168c4e8c3d1ece94d8960030160008a815260200190815260200160002060000160009054906101000a900473ffffffffffffffffffffffffffffffffffffffff1689604051611e9f929190614478565b60405180910390a15b505050505050505050565b84843373ffffffffffffffffffffffffffffffffffffffff1682600301600083815260200190815260200160002060000160009054906101000a900473ffffffffffffffffffffffffffffffffffffffff1673ffffffffffffffffffffffffffffffffffffffff1614611f5b576040517f08c379a0000000000000000000000000000000000000000000000000000000008152600401611f5290614554565b60405180910390fd5b868681600301600082815260200190815260200160002060030160009054906101000a900460ff16158015611fb3575081600301600082815260200190815260200160002060030160019054906101000a900460ff16155b8015611fe2575081600301600082815260200190815260200160002060030160029054906101000a900460ff16155b612021576040517f08c379a000000000000000000000000000000000000000000000000000000000815260040161201890614554565b60405180910390fd5b88600301600089815260200190815260200160002060040160405180608001604052808b60030160008c8152602001908152602001600020600401805490508152602001600560ff1681526020016319b9404c8a8a6040516024016120879291906142fe565b6040516020818303038152906040529060e01b6020820180517bffffffffffffffffffffffffffffffffffffffffffffffffffffffff838183161783525050505081526020016000151581525090806001815401808255809150506001900390600052602060002090600402016000909190919091506000820151816000015560208201518160010160006101000a81548160ff021916908360ff1602179055506040820151816002019080519060200190612144929190613912565b5060608201518160030160006101000a81548160ff021916908315150217905550505084156122105760018960030160008a815260200190815260200160002060030160006101000a81548160ff0219169083151502179055507f7306ab933b6e1df1bd2fddce7143eeedd65d5996fada0e9168c4e8c3d1ece94d8960030160008a815260200190815260200160002060000160009054906101000a900473ffffffffffffffffffffffffffffffffffffffff1689604051612207929190614478565b60405180910390a15b505050505050505050565b86863373ffffffffffffffffffffffffffffffffffffffff1682600301600083815260200190815260200160002060000160009054906101000a900473ffffffffffffffffffffffffffffffffffffffff1673ffffffffffffffffffffffffffffffffffffffff16146122c3576040517f08c379a00000000000000000000000000000000000000000000000000000000081526004016122ba90614554565b60405180910390fd5b888881600301600082815260200190815260200160002060030160009054906101000a900460ff1615801561231b575081600301600082815260200190815260200160002060030160019054906101000a900460ff16155b801561234a575081600301600082815260200190815260200160002060030160029054906101000a900460ff16155b612389576040517f08c379a000000000000000000000000000000000000000000000000000000000815260040161238090614554565b60405180910390fd5b8a60030160008b815260200190815260200160002060040160405180608001604052808d60030160008e8152602001908152602001600020600401805490508152602001600760ff16815260200163c10753298c8c8b6040516024016123f193929190614411565b6040516020818303038152906040529060e01b6020820180517bffffffffffffffffffffffffffffffffffffffffffffffffffffffff838183161783525050505081526020016000151581525090806001815401808255809150506001900390600052602060002090600402016000909190919091506000820151816000015560208201518160010160006101000a81548160ff021916908360ff16021790555060408201518160020190805190602001906124ae929190613912565b5060608201518160030160006101000a81548160ff0219169083151502179055505050841561257a5760018b60030160008c815260200190815260200160002060030160006101000a81548160ff0219169083151502179055507f7306ab933b6e1df1bd2fddce7143eeedd65d5996fada0e9168c4e8c3d1ece94d8b60030160008c815260200190815260200160002060000160009054906101000a900473ffffffffffffffffffffffffffffffffffffffff168b604051612571929190614478565b60405180910390a15b5050505050505050505050565b85853373ffffffffffffffffffffffffffffffffffffffff1682600301600083815260200190815260200160002060000160009054906101000a900473ffffffffffffffffffffffffffffffffffffffff1673ffffffffffffffffffffffffffffffffffffffff161461262f576040517f08c379a000000000000000000000000000000000000000000000000000000000815260040161262690614554565b60405180910390fd5b878781600301600082815260200190815260200160002060030160009054906101000a900460ff16158015612687575081600301600082815260200190815260200160002060030160019054906101000a900460ff16155b80156126b6575081600301600082815260200190815260200160002060030160029054906101000a900460ff16155b6126f5576040517f08c379a00000000000000000000000000000000000000000000000000000000081526004016126ec90614554565b60405180910390fd5b8960030160008a815260200190815260200160002060040160405180608001604052808c60030160008d8152602001908152602001600020600401805490508152602001600760ff16815260200163c10753298b8b8b60405160240161275d93929190614411565b6040516020818303038152906040529060e01b6020820180517bffffffffffffffffffffffffffffffffffffffffffffffffffffffff838183161783525050505081526020016000151581525090806001815401808255809150506001900390600052602060002090600402016000909190919091506000820151816000015560208201518160010160006101000a81548160ff021916908360ff160217905550604082015181600201908051906020019061281a929190613912565b5060608201518160030160006101000a81548160ff021916908315150217905550505084156128e65760018a60030160008b815260200190815260200160002060030160006101000a81548160ff0219169083151502179055507f7306ab933b6e1df1bd2fddce7143eeedd65d5996fada0e9168c4e8c3d1ece94d8a60030160008b815260200190815260200160002060000160009054906101000a900473ffffffffffffffffffffffffffffffffffffffff168a6040516128dd929190614478565b60405180910390a15b50505050505050505050565b6000808560040160008154809291906001019190505590503386600301600083815260200190815260200160002060000160006101000a81548173ffffffffffffffffffffffffffffffffffffffff021916908373ffffffffffffffffffffffffffffffffffffffff16021790555060405180606001604052808681526020018560ff1681526020018460ff168152508660030160008381526020019081526020016000206001016000820151816000015560208201518160010160006101000a81548160ff021916908360ff16021790555060408201518160010160016101000a81548160ff021916908360ff16021790555090505080915050949350505050565b84843373ffffffffffffffffffffffffffffffffffffffff1682600301600083815260200190815260200160002060000160009054906101000a900473ffffffffffffffffffffffffffffffffffffffff1673ffffffffffffffffffffffffffffffffffffffff1614612a9d576040517f08c379a0000000000000000000000000000000000000000000000000000000008152600401612a9490614554565b60405180910390fd5b868681600301600082815260200190815260200160002060030160009054906101000a900460ff16158015612af5575081600301600082815260200190815260200160002060030160019054906101000a900460ff16155b8015612b24575081600301600082815260200190815260200160002060030160029054906101000a900460ff16155b612b63576040517f08c379a0000000000000000000000000000000000000000000000000000000008152600401612b5a90614554565b60405180910390fd5b88600301600089815260200190815260200160002060040160405180608001604052808b60030160008c8152602001908152602001600020600401805490508152602001600160ff168152602001631715f4de8a8a604051602401612bc9929190614448565b6040516020818303038152906040529060e01b6020820180517bffffffffffffffffffffffffffffffffffffffffffffffffffffffff838183161783525050505081526020016000151581525090806001815401808255809150506001900390600052602060002090600402016000909190919091506000820151816000015560208201518160010160006101000a81548160ff021916908360ff1602179055506040820151816002019080519060200190612c86929190613912565b5060608201518160030160006101000a81548160ff02191690831515021790555050508415612d525760018960030160008a815260200190815260200160002060030160006101000a81548160ff0219169083151502179055507f7306ab933b6e1df1bd2fddce7143eeedd65d5996fada0e9168c4e8c3d1ece94d8960030160008a815260200190815260200160002060000160009054906101000a900473ffffffffffffffffffffffffffffffffffffffff1689604051612d49929190614478565b60405180910390a15b505050505050505050565b612d7181600161375c90919063ffffffff16565b50565b86863373ffffffffffffffffffffffffffffffffffffffff1682600301600083815260200190815260200160002060000160009054906101000a900473ffffffffffffffffffffffffffffffffffffffff1673ffffffffffffffffffffffffffffffffffffffff1614612e1c576040517f08c379a0000000000000000000000000000000000000000000000000000000008152600401612e1390614554565b60405180910390fd5b888881600301600082815260200190815260200160002060030160009054906101000a900460ff16158015612e74575081600301600082815260200190815260200160002060030160019054906101000a900460ff16155b8015612ea3575081600301600082815260200190815260200160002060030160029054906101000a900460ff16155b612ee2576040517f08c379a0000000000000000000000000000000000000000000000000000000008152600401612ed990614554565b60405180910390fd5b8a60030160008b815260200190815260200160002060040160405180608001604052808d60030160008e8152602001908152602001600020600401805490508152602001600860ff168152602001635e35359e8c8c8c8c604051602401612f4c9493929190614395565b6040516020818303038152906040529060e01b6020820180517bffffffffffffffffffffffffffffffffffffffffffffffffffffffff838183161783525050505081526020016000151581525090806001815401808255809150506001900390600052602060002090600402016000909190919091506000820151816000015560208201518160010160006101000a81548160ff021916908360ff1602179055506040820151816002019080519060200190613009929190613912565b5060608201518160030160006101000a81548160ff021916908315150217905550505084156130d55760018b60030160008c815260200190815260200160002060030160006101000a81548160ff0219169083151502179055507f7306ab933b6e1df1bd2fddce7143eeedd65d5996fada0e9168c4e8c3d1ece94d8b60030160008c815260200190815260200160002060000160009054906101000a900473ffffffffffffffffffffffffffffffffffffffff168b6040516130cc929190614478565b60405180910390a15b5050505050505050505050565b85853373ffffffffffffffffffffffffffffffffffffffff1682600301600083815260200190815260200160002060000160009054906101000a900473ffffffffffffffffffffffffffffffffffffffff1673ffffffffffffffffffffffffffffffffffffffff161461318a576040517f08c379a000000000000000000000000000000000000000000000000000000000815260040161318190614554565b60405180910390fd5b878781600301600082815260200190815260200160002060030160009054906101000a900460ff161580156131e2575081600301600082815260200190815260200160002060030160019054906101000a900460ff16155b8015613211575081600301600082815260200190815260200160002060030160029054906101000a900460ff16155b613250576040517f08c379a000000000000000000000000000000000000000000000000000000000815260040161324790614554565b60405180910390fd5b8960030160008a815260200190815260200160002060040160405180608001604052808c60030160008d8152602001908152602001600020600401805490508152602001600860ff168152602001635e35359e8b8b8b6040516024016132b893929190614411565b6040516020818303038152906040529060e01b6020820180517bffffffffffffffffffffffffffffffffffffffffffffffffffffffff838183161783525050505081526020016000151581525090806001815401808255809150506001900390600052602060002090600402016000909190919091506000820151816000015560208201518160010160006101000a81548160ff021916908360ff1602179055506040820151816002019080519060200190613375929190613912565b5060608201518160030160006101000a81548160ff021916908315150217905550505084156134415760018a60030160008b815260200190815260200160002060030160006101000a81548160ff0219169083151502179055507f7306ab933b6e1df1bd2fddce7143eeedd65d5996fada0e9168c4e8c3d1ece94d8a60030160008b815260200190815260200160002060000160009054906101000a900473ffffffffffffffffffffffffffffffffffffffff168a604051613438929190614478565b60405180910390a15b50505050505050505050565b83833373ffffffffffffffffffffffffffffffffffffffff1682600301600083815260200190815260200160002060000160009054906101000a900473ffffffffffffffffffffffffffffffffffffffff1673ffffffffffffffffffffffffffffffffffffffff16146134f5576040517f08c379a00000000000000000000000000000000000000000000000000000000081526004016134ec90614554565b60405180910390fd5b858581600301600082815260200190815260200160002060030160009054906101000a900460ff1615801561354d575081600301600082815260200190815260200160002060030160019054906101000a900460ff16155b801561357c575081600301600082815260200190815260200160002060030160029054906101000a900460ff16155b6135bb576040517f08c379a00000000000000000000000000000000000000000000000000000000081526004016135b290614554565b60405180910390fd5b87600301600088815260200190815260200160002060040160405180608001604052808a60030160008b8152602001908152602001600020600401805490508152602001600060ff1681526020018881526020016000151581525090806001815401808255809150506001900390600052602060002090600402016000909190919091506000820151816000015560208201518160010160006101000a81548160ff021916908360ff1602179055506040820151816002019080519060200190613686929190613912565b5060608201518160030160006101000a81548160ff0219169083151502179055505050841561375257600188600301600089815260200190815260200160002060030160006101000a81548160ff0219169083151502179055507f7306ab933b6e1df1bd2fddce7143eeedd65d5996fada0e9168c4e8c3d1ece94d88600301600089815260200190815260200160002060000160009054906101000a900473ffffffffffffffffffffffffffffffffffffffff1688604051613749929190614478565b60405180910390a15b5050505050505050565b818181600301600082815260200190815260200160002060030160009054906101000a900460ff1680156137b3575081600301600082815260200190815260200160002060030160019054906101000a900460ff16155b80156137e2575081600301600082815260200190815260200160002060030160029054906101000a900460ff16155b613821576040517f08c379a000000000000000000000000000000000000000000000000000000000815260040161381890614554565b60405180910390fd5b6000846003016000858152602001908152602001600020905060018160030160026101000a81548160ff02191690831515021790555060008090505b81600401805490508110156138b657600082600401828154811061387d57fe5b9060005260206000209060040201905060018160030160006101000a81548160ff0219169083151502179055505080600101905061385d565b5060018160030160016101000a81548160ff0219169083151502179055507fd2c6e52f57352f08a7c9894b122d8440f1d87a7949ba8769fe444bf80b9e7a7e846040516139039190614602565b60405180910390a15050505050565b828054600181600116156101000203166002900490600052602060002090601f016020900481019282601f1061395357805160ff1916838001178555613981565b82800160010185558215613981579182015b82811115613980578251825591602001919060010190613965565b5b50905061398e9190613992565b5090565b6139b491905b808211156139b0576000816000905550600101613998565b5090565b90565b6000813590506139c6816147af565b92915050565b6000813590506139db816147c6565b92915050565b600082601f8301126139f257600080fd5b8135613a05613a0082614665565b614638565b91508181835260208401935060208101905083856080840282011115613a2a57600080fd5b60005b83811015613a5a5781613a408882613b0c565b845260208401935060808301925050600181019050613a2d565b5050505092915050565b600081359050613a73816147dd565b92915050565b600081519050613a88816147dd565b92915050565b600081359050613a9d816147f4565b92915050565b600081359050613ab28161480b565b92915050565b600082601f830112613ac957600080fd5b8135613adc613ad78261468d565b614638565b91508082526020830160208301858383011115613af857600080fd5b613b038382846147a0565b50505092915050565b600060808284031215613b1e57600080fd5b613b286080614638565b90506000613b38848285016139b7565b6000830152506020613b4c84828501613aa3565b6020830152506040613b6084828501613b95565b6040830152506060613b7484828501613b95565b60608301525092915050565b600081359050613b8f81614822565b92915050565b600081359050613ba481614839565b92915050565b600060208284031215613bbc57600080fd5b6000613bca848285016139cc565b91505092915050565b600060208284031215613be557600080fd5b6000613bf384828501613a79565b91505092915050565b600080600060608486031215613c1157600080fd5b6000613c1f86828701613aa3565b9350506020613c3086828701613b95565b9250506040613c4186828701613b95565b9150509250925092565b600060208284031215613c5d57600080fd5b6000613c6b84828501613b80565b91505092915050565b60008060008060008060c08789031215613c8d57600080fd5b6000613c9b89828a01613b80565b9650506020613cac89828a016139cc565b9550506040613cbd89828a016139b7565b9450506060613cce89828a016139b7565b9350506080613cdf89828a01613a8e565b92505060a0613cf089828a01613a64565b9150509295509295509295565b60008060008060008060c08789031215613d1657600080fd5b6000613d2489828a01613b80565b9650506020613d3589828a016139cc565b9550506040613d4689828a016139b7565b9450506060613d5789828a016139b7565b9350506080613d6889828a01613b80565b92505060a0613d7989828a01613a64565b9150509295509295509295565b60008060008060808587031215613d9c57600080fd5b6000613daa87828801613b80565b9450506020613dbb878288016139cc565b9350506040613dcc878288016139b7565b9250506060613ddd87828801613a64565b91505092959194509250565b600080600080600060a08688031215613e0157600080fd5b6000613e0f88828901613b80565b9550506020613e20888289016139cc565b9450506040613e31888289016139b7565b9350506060613e4288828901613a8e565b9250506080613e5388828901613a64565b9150509295509295909350565b600080600080600060a08688031215613e7857600080fd5b6000613e8688828901613b80565b9550506020613e97888289016139cc565b9450506040613ea8888289016139b7565b9350506060613eb988828901613b80565b9250506080613eca88828901613a64565b9150509295509295909350565b60008060008060808587031215613eed57600080fd5b6000613efb87828801613b80565b9450506020613f0c878288016139cc565b935050604085013567ffffffffffffffff811115613f2957600080fd5b613f35878288016139e1565b9250506060613f4687828801613a64565b91505092959194509250565b600080600080600080600080610100898b031215613f6f57600080fd5b6000613f7d8b828c01613b80565b9850506020613f8e8b828c016139cc565b9750506040613f9f8b828c01613b80565b9650506060613fb08b828c016139cc565b9550506080613fc18b828c01613aa3565b94505060a0613fd28b828c01613b95565b93505060c0613fe38b828c01613b95565b92505060e0613ff48b828c01613a64565b9150509295985092959890939650565b6000806000806080858703121561401a57600080fd5b600061402887828801613b80565b9450506020614039878288016139cc565b935050604061404a87828801613b80565b925050606061405b87828801613a64565b91505092959194509250565b60008060006060848603121561407c57600080fd5b600061408a86828701613b80565b935050602084013567ffffffffffffffff8111156140a757600080fd5b6140b386828701613ab8565b92505060406140c486828701613a64565b9150509250925092565b60006140da838361424b565b60808301905092915050565b6140ef81614715565b82525050565b6140fe81614715565b82525050565b61410d81614703565b82525050565b61411c81614703565b82525050565b600061412d826146c9565b61413781856146e1565b9350614142836146b9565b8060005b8381101561417357815161415a88826140ce565b9750614165836146d4565b925050600181019050614146565b5085935050505092915050565b61418981614727565b82525050565b61419881614733565b82525050565b6141a78161475f565b82525050565b6141b68161475f565b82525050565b6141c58161475f565b82525050565b60006141d8600f836146f2565b91507f4e6f7420617574686f72697a65642e00000000000000000000000000000000006000830152602082019050919050565b6000614218600e836146f2565b91507f4e6f7420617574686f72697a65640000000000000000000000000000000000006000830152602082019050919050565b6080820160008201516142616000850182614104565b506020820151614274602085018261419e565b50604082015161428760408501826142b6565b50606082015161429a60608501826142b6565b50505050565b8082525050565b6142b081614789565b82525050565b6142bf81614793565b82525050565b6142ce81614793565b82525050565b6142dd81614793565b82525050565b60006020820190506142f860008301846140e6565b92915050565b600060408201905061431360008301856140e6565b6143206020830184614113565b9392505050565b600060408201905061433c60008301856140f5565b61434960208301846140f5565b9392505050565b600060808201905061436560008301876140e6565b6143726020830186614113565b61437f6040830185614113565b61438c606083018461418f565b95945050505050565b60006080820190506143aa60008301876140e6565b6143b76020830186614113565b6143c46040830185614113565b6143d160608301846142a7565b95945050505050565b60006060820190506143ef60008301866140e6565b6143fc6020830185614113565b614409604083018461418f565b949350505050565b600060608201905061442660008301866140e6565b6144336020830185614113565b61444060408301846142a7565b949350505050565b600060408201905061445d60008301856140e6565b818103602083015261446f8184614122565b90509392505050565b600060408201905061448d60008301856140e6565b61449a60208301846142a7565b9392505050565b600060c0820190506144b660008301896140e6565b6144c360208301886142a7565b6144d060408301876140e6565b6144dd60608301866141ad565b6144ea60808301856142c5565b6144f760a08301846142c5565b979650505050505050565b60006020820190506145176000830184614180565b92915050565b60006060820190506145326000830186614180565b61453f6020830185614180565b61454c60408301846142c5565b949350505050565b6000602082019050818103600083015261456d816141cb565b9050919050565b6000602082019050818103600083015261458d8161420b565b9050919050565b60006040820190506145a960008301856142a0565b6145b660208301846140f5565b9392505050565b60006080820190506145d260008301876142a0565b6145df60208301866141bc565b6145ec60408301856142d4565b6145f960608301846142d4565b95945050505050565b600060208201905061461760008301846142a7565b92915050565b600060208201905061463260008301846142c5565b92915050565b6000604051905081810181811067ffffffffffffffff8211171561465b57600080fd5b8060405250919050565b600067ffffffffffffffff82111561467c57600080fd5b602082029050602081019050919050565b600067ffffffffffffffff8211156146a457600080fd5b601f19601f8301169050602081019050919050565b6000819050602082019050919050565b600081519050919050565b6000602082019050919050565b600082825260208201905092915050565b600082825260208201905092915050565b600061470e82614769565b9050919050565b600061472082614769565b9050919050565b60008115159050919050565b60007fffff00000000000000000000000000000000000000000000000000000000000082169050919050565b6000819050919050565b600073ffffffffffffffffffffffffffffffffffffffff82169050919050565b6000819050919050565b600060ff82169050919050565b82818337600083830152505050565b6147b881614703565b81146147c357600080fd5b50565b6147cf81614715565b81146147da57600080fd5b50565b6147e681614727565b81146147f157600080fd5b50565b6147fd81614733565b811461480857600080fd5b50565b6148148161475f565b811461481f57600080fd5b50565b61482b81614789565b811461483657600080fd5b50565b61484281614793565b811461484d57600080fd5b5056fea26469706673582212201044b73ab6847945346fa34c32d5161b411962286be1897d0c1d5d016cd1a5c764736f6c63430006080033",
  "immutableReferences": {},
  "source": "// SPDX-License-Identifier: LGPL-3.0-or-later\npragma solidity ^0.6.0;\npragma experimental ABIEncoderV2;\n\n/**\n    Nomination procedure.\n    A nomination applies an effect if nominator is in the nominaters organ.\n*/\n\nimport \"../Procedure.sol\";\n\ncontract SimpleNominationProcedure is Procedure {\n    address payable public nominatersOrgan;\n\n    constructor (\n        bytes32 _metadataIpfsHash, uint8 _metadataHashFunction, uint8 _metadataHashSize,\n        address payable _nominatersOrgan\n    ) Procedure (_metadataIpfsHash, _metadataHashFunction, _metadataHashSize)\n        public\n    {\n        nominatersOrgan = _nominatersOrgan;\n    }\n\n    function nominate(uint256 moveKey)\n        public onlyInOrgan(nominatersOrgan)\n    {\n        Procedure.applyMove(moveKey);\n    }\n}",
  "sourcePath": "/Users/alex/Code/organigr.am/contracts/contracts/procedures/SimpleNomination.sol",
  "compiler": {
    "name": "solc",
    "version": "0.6.8+commit.0bbfe453.Emscripten.clang"
  },
  "schemaVersion": "3.2.4",
  "updatedAt": "2020-09-12T01:16:43.687Z",
  "networkType": "ethereum",
  "devdoc": {
    "methods": {}
  },
  "userdoc": {
    "methods": {
      "createMove(bytes32,uint8,uint8)": {
        "notice": "Public API : Moves creation and update."
      },
      "updateMetadata(bytes32,uint8,uint8)": {
        "notice": "Public API : Procedure Metadata and Admin."
      }
    }
  }
}