{
  "contractName": "SimpleNominationProcedure",
  "abi": [
    {
      "inputs": [
        {
          "internalType": "bytes32",
          "name": "_metadataIpfsHash",
          "type": "bytes32"
        },
        {
          "internalType": "uint8",
          "name": "_metadataHashFunction",
          "type": "uint8"
        },
        {
          "internalType": "uint8",
          "name": "_metadataHashSize",
          "type": "uint8"
        },
        {
          "internalType": "address payable",
          "name": "_nominatersOrgan",
          "type": "address"
        }
      ],
      "stateMutability": "nonpayable",
      "type": "constructor"
    },
    {
      "inputs": [
        {
          "internalType": "bytes32",
          "name": "ipfsHash",
          "type": "bytes32"
        },
        {
          "internalType": "uint8",
          "name": "hashFunction",
          "type": "uint8"
        },
        {
          "internalType": "uint8",
          "name": "hashSize",
          "type": "uint8"
        }
      ],
      "name": "createMove",
      "outputs": [
        {
          "internalType": "uint256",
          "name": "",
          "type": "uint256"
        }
      ],
      "stateMutability": "nonpayable",
      "type": "function"
    },
    {
      "inputs": [],
      "name": "getMetadata",
      "outputs": [
        {
          "internalType": "bytes32",
          "name": "ipfsHash",
          "type": "bytes32"
        },
        {
          "internalType": "uint8",
          "name": "hashFunction",
          "type": "uint8"
        },
        {
          "internalType": "uint8",
          "name": "hashSize",
          "type": "uint8"
        }
      ],
      "stateMutability": "view",
      "type": "function",
      "constant": true
    },
    {
      "inputs": [
        {
          "internalType": "uint256",
          "name": "moveKey",
          "type": "uint256"
        }
      ],
      "name": "getMove",
      "outputs": [
        {
          "components": [
            {
              "internalType": "address payable",
              "name": "creator",
              "type": "address"
            },
            {
              "components": [
                {
                  "internalType": "bytes32",
                  "name": "ipfsHash",
                  "type": "bytes32"
                },
                {
                  "internalType": "uint8",
                  "name": "hashFunction",
                  "type": "uint8"
                },
                {
                  "internalType": "uint8",
                  "name": "hashSize",
                  "type": "uint8"
                }
              ],
              "internalType": "struct ProcedureLibrary.Metadata",
              "name": "metadata",
              "type": "tuple"
            },
            {
              "internalType": "bool",
              "name": "locked",
              "type": "bool"
            },
            {
              "internalType": "bool",
              "name": "applied",
              "type": "bool"
            },
            {
              "internalType": "bool",
              "name": "processing",
              "type": "bool"
            },
            {
              "components": [
                {
                  "internalType": "uint256",
                  "name": "index",
                  "type": "uint256"
                },
                {
                  "internalType": "address payable",
                  "name": "organ",
                  "type": "address"
                },
                {
                  "internalType": "uint256",
                  "name": "value",
                  "type": "uint256"
                },
                {
                  "internalType": "uint8",
                  "name": "operationType",
                  "type": "uint8"
                },
                {
                  "internalType": "bytes",
                  "name": "callData",
                  "type": "bytes"
                },
                {
                  "internalType": "bool",
                  "name": "processed",
                  "type": "bool"
                }
              ],
              "internalType": "struct ProcedureLibrary.Operation[]",
              "name": "operations",
              "type": "tuple[]"
            }
          ],
          "internalType": "struct ProcedureLibrary.Move",
          "name": "move",
          "type": "tuple"
        }
      ],
      "stateMutability": "view",
      "type": "function",
      "constant": true
    },
    {
      "inputs": [],
      "name": "getMovesLength",
      "outputs": [
        {
          "internalType": "uint256",
          "name": "length",
          "type": "uint256"
        }
      ],
      "stateMutability": "view",
      "type": "function",
      "constant": true
    },
    {
      "inputs": [
        {
          "internalType": "uint256",
          "name": "moveKey",
          "type": "uint256"
        }
      ],
      "name": "lockMove",
      "outputs": [],
      "stateMutability": "nonpayable",
      "type": "function"
    },
    {
      "inputs": [
        {
          "internalType": "uint256",
          "name": "moveKey",
          "type": "uint256"
        },
        {
          "internalType": "address payable",
          "name": "organ",
          "type": "address"
        },
        {
          "components": [
            {
              "internalType": "address",
              "name": "addr",
              "type": "address"
            },
            {
              "internalType": "bytes32",
              "name": "ipfsHash",
              "type": "bytes32"
            },
            {
              "internalType": "uint8",
              "name": "hashFunction",
              "type": "uint8"
            },
            {
              "internalType": "uint8",
              "name": "hashSize",
              "type": "uint8"
            }
          ],
          "internalType": "struct OrganLibrary.Entry[]",
          "name": "entries",
          "type": "tuple[]"
        },
        {
          "internalType": "bool",
          "name": "lock",
          "type": "bool"
        }
      ],
      "name": "moveAddEntries",
      "outputs": [],
      "stateMutability": "nonpayable",
      "type": "function"
    },
    {
      "inputs": [
        {
          "internalType": "uint256",
          "name": "moveKey",
          "type": "uint256"
        },
        {
          "internalType": "address payable",
          "name": "organ",
          "type": "address"
        },
        {
          "internalType": "address",
          "name": "procedure",
          "type": "address"
        },
        {
          "internalType": "bytes2",
          "name": "permissions",
          "type": "bytes2"
        },
        {
          "internalType": "bool",
          "name": "lock",
          "type": "bool"
        }
      ],
      "name": "moveAddProcedure",
      "outputs": [],
      "stateMutability": "nonpayable",
      "type": "function"
    },
    {
      "inputs": [
        {
          "internalType": "uint256",
          "name": "moveKey",
          "type": "uint256"
        },
        {
          "internalType": "bytes",
          "name": "call",
          "type": "bytes"
        },
        {
          "internalType": "bool",
          "name": "lock",
          "type": "bool"
        }
      ],
      "name": "moveCall",
      "outputs": [],
      "stateMutability": "nonpayable",
      "type": "function"
    },
    {
      "inputs": [
        {
          "internalType": "uint256",
          "name": "moveKey",
          "type": "uint256"
        },
        {
          "internalType": "address payable",
          "name": "organ",
          "type": "address"
        },
        {
          "internalType": "address",
          "name": "operator",
          "type": "address"
        },
        {
          "internalType": "address",
          "name": "target",
          "type": "address"
        },
        {
          "internalType": "uint256",
          "name": "value",
          "type": "uint256"
        },
        {
          "internalType": "bool",
          "name": "lock",
          "type": "bool"
        }
      ],
      "name": "moveReceiveCoins",
      "outputs": [],
      "stateMutability": "nonpayable",
      "type": "function"
    },
    {
      "inputs": [
        {
          "internalType": "uint256",
          "name": "moveKey",
          "type": "uint256"
        },
        {
          "internalType": "address payable",
          "name": "organ",
          "type": "address"
        },
        {
          "internalType": "address",
          "name": "operator",
          "type": "address"
        },
        {
          "internalType": "address",
          "name": "target",
          "type": "address"
        },
        {
          "internalType": "uint256",
          "name": "token_id",
          "type": "uint256"
        },
        {
          "internalType": "bool",
          "name": "lock",
          "type": "bool"
        }
      ],
      "name": "moveReceiveCollectible",
      "outputs": [],
      "stateMutability": "nonpayable",
      "type": "function"
    },
    {
      "inputs": [
        {
          "internalType": "uint256",
          "name": "moveKey",
          "type": "uint256"
        },
        {
          "internalType": "address payable",
          "name": "organ",
          "type": "address"
        },
        {
          "internalType": "address",
          "name": "target",
          "type": "address"
        },
        {
          "internalType": "uint256",
          "name": "value",
          "type": "uint256"
        },
        {
          "internalType": "bool",
          "name": "lock",
          "type": "bool"
        }
      ],
      "name": "moveReceiveEther",
      "outputs": [],
      "stateMutability": "nonpayable",
      "type": "function"
    },
    {
      "inputs": [
        {
          "internalType": "uint256",
          "name": "moveKey",
          "type": "uint256"
        },
        {
          "internalType": "address payable",
          "name": "organ",
          "type": "address"
        },
        {
          "internalType": "uint256[]",
          "name": "indexes",
          "type": "uint256[]"
        },
        {
          "internalType": "bool",
          "name": "lock",
          "type": "bool"
        }
      ],
      "name": "moveRemoveEntries",
      "outputs": [],
      "stateMutability": "nonpayable",
      "type": "function"
    },
    {
      "inputs": [
        {
          "internalType": "uint256",
          "name": "moveKey",
          "type": "uint256"
        },
        {
          "internalType": "address payable",
          "name": "organ",
          "type": "address"
        },
        {
          "internalType": "address",
          "name": "procedure",
          "type": "address"
        },
        {
          "internalType": "bool",
          "name": "lock",
          "type": "bool"
        }
      ],
      "name": "moveRemoveProcedure",
      "outputs": [],
      "stateMutability": "nonpayable",
      "type": "function"
    },
    {
      "inputs": [
        {
          "internalType": "uint256",
          "name": "moveKey",
          "type": "uint256"
        },
        {
          "internalType": "address payable",
          "name": "organ",
          "type": "address"
        },
        {
          "internalType": "uint256",
          "name": "index",
          "type": "uint256"
        },
        {
          "internalType": "address payable",
          "name": "addr",
          "type": "address"
        },
        {
          "internalType": "bytes32",
          "name": "ipfsHash",
          "type": "bytes32"
        },
        {
          "internalType": "uint8",
          "name": "hashFunction",
          "type": "uint8"
        },
        {
          "internalType": "uint8",
          "name": "hashSize",
          "type": "uint8"
        },
        {
          "internalType": "bool",
          "name": "lock",
          "type": "bool"
        }
      ],
      "name": "moveReplaceEntry",
      "outputs": [],
      "stateMutability": "nonpayable",
      "type": "function"
    },
    {
      "inputs": [
        {
          "internalType": "uint256",
          "name": "moveKey",
          "type": "uint256"
        },
        {
          "internalType": "address payable",
          "name": "organ",
          "type": "address"
        },
        {
          "internalType": "address",
          "name": "oldProcedure",
          "type": "address"
        },
        {
          "internalType": "address",
          "name": "newProcedure",
          "type": "address"
        },
        {
          "internalType": "bytes2",
          "name": "permissions",
          "type": "bytes2"
        },
        {
          "internalType": "bool",
          "name": "lock",
          "type": "bool"
        }
      ],
      "name": "moveReplaceProcedure",
      "outputs": [],
      "stateMutability": "nonpayable",
      "type": "function"
    },
    {
      "inputs": [
        {
          "internalType": "uint256",
          "name": "moveKey",
          "type": "uint256"
        },
        {
          "internalType": "address payable",
          "name": "organ",
          "type": "address"
        },
        {
          "internalType": "address",
          "name": "operator",
          "type": "address"
        },
        {
          "internalType": "address",
          "name": "target",
          "type": "address"
        },
        {
          "internalType": "uint256",
          "name": "value",
          "type": "uint256"
        },
        {
          "internalType": "bool",
          "name": "lock",
          "type": "bool"
        }
      ],
      "name": "moveTransferCoins",
      "outputs": [],
      "stateMutability": "nonpayable",
      "type": "function"
    },
    {
      "inputs": [
        {
          "internalType": "uint256",
          "name": "moveKey",
          "type": "uint256"
        },
        {
          "internalType": "address payable",
          "name": "organ",
          "type": "address"
        },
        {
          "internalType": "address",
          "name": "operator",
          "type": "address"
        },
        {
          "internalType": "address",
          "name": "target",
          "type": "address"
        },
        {
          "internalType": "uint256",
          "name": "token_id",
          "type": "uint256"
        },
        {
          "internalType": "bool",
          "name": "lock",
          "type": "bool"
        }
      ],
      "name": "moveTransferCollectible",
      "outputs": [],
      "stateMutability": "nonpayable",
      "type": "function"
    },
    {
      "inputs": [
        {
          "internalType": "uint256",
          "name": "moveKey",
          "type": "uint256"
        },
        {
          "internalType": "address payable",
          "name": "organ",
          "type": "address"
        },
        {
          "internalType": "address",
          "name": "target",
          "type": "address"
        },
        {
          "internalType": "uint256",
          "name": "value",
          "type": "uint256"
        },
        {
          "internalType": "bool",
          "name": "lock",
          "type": "bool"
        }
      ],
      "name": "moveTransferEther",
      "outputs": [],
      "stateMutability": "nonpayable",
      "type": "function"
    },
    {
      "inputs": [],
      "name": "nominatersOrgan",
      "outputs": [
        {
          "internalType": "address payable",
          "name": "",
          "type": "address"
        }
      ],
      "stateMutability": "view",
      "type": "function",
      "constant": true
    },
    {
      "inputs": [
        {
          "internalType": "bytes4",
          "name": "interfaceId",
          "type": "bytes4"
        }
      ],
      "name": "supportsInterface",
      "outputs": [
        {
          "internalType": "bool",
          "name": "",
          "type": "bool"
        }
      ],
      "stateMutability": "view",
      "type": "function",
      "constant": true
    },
    {
      "inputs": [
        {
          "internalType": "address payable",
          "name": "admin",
          "type": "address"
        }
      ],
      "name": "updateAdmin",
      "outputs": [],
      "stateMutability": "nonpayable",
      "type": "function"
    },
    {
      "inputs": [
        {
          "internalType": "bytes32",
          "name": "ipfsHash",
          "type": "bytes32"
        },
        {
          "internalType": "uint8",
          "name": "hashFunction",
          "type": "uint8"
        },
        {
          "internalType": "uint8",
          "name": "hashSize",
          "type": "uint8"
        }
      ],
      "name": "updateMetadata",
      "outputs": [],
      "stateMutability": "nonpayable",
      "type": "function"
    },
    {
      "inputs": [
        {
          "internalType": "uint256",
          "name": "moveKey",
          "type": "uint256"
        }
      ],
      "name": "nominate",
      "outputs": [],
      "stateMutability": "nonpayable",
      "type": "function"
    }
  ],
  "bytecode": "0x60806040523480156200001157600080fd5b5060405162002e4b38038062002e4b833981016040819052620000349162000182565b838383620000496301ffc9a760e01b6200010f565b6200005b63071dbd3360e41b6200010f565b60405163359a395d60e01b815273__ProcedureLibrary______________________9063359a395d906200009b906001908790879087906004016200021b565b60006040518083038186803b158015620000b457600080fd5b505af4158015620000c9573d6000803e3d6000fd5b50620000e5955063c5f28e4960e01b9450506200010f92505050565b600680546001600160a01b0319166001600160a01b0392909216919091179055506200023c915050565b6001600160e01b03198082161415620001455760405162461bcd60e51b81526004016200013c90620001e4565b60405180910390fd5b6001600160e01b0319166000908152602081905260409020805460ff19166001179055565b805160ff811681146200017c57600080fd5b92915050565b6000806000806080858703121562000198578384fd5b84519350620001ab86602087016200016a565b9250620001bc86604087016200016a565b60608601519092506001600160a01b0381168114620001d9578182fd5b939692955090935050565b6020808252601c908201527f4552433136353a20696e76616c696420696e7465726661636520696400000000604082015260600190565b938452602084019290925260ff908116604084015216606082015260800190565b612bff806200024c6000396000f3fe608060405234801561001057600080fd5b506004361061011d5760003560e01c806301ffc9a7146101225780630b5522a91461014b578063148a2005146101605780632c1d53371461017357806339c2ae70146101865780633e9a9bd81461019957806352c041b2146101ae5780635a31b560146101c15780635ba357dc146101d457806367c322d0146101e757806371dbd330146101fa5780637a5b4f591461021a5780637c3a5fcc146102315780637ee7fa40146102445780639ad5c79214610257578063a2b58cda1461026a578063c492f4631461027d578063c5f28e4914610290578063cb6bc9ff146101c1578063cc125031146102a3578063e2a6ed04146102b6578063e2f273bd146102cb578063fa160aa2146102de575b600080fd5b6101356101303660046121c2565b6102f1565b6040516101429190612979565b60405180910390f35b61015e61015936600461232d565b610310565b005b61015e61016e36600461227a565b610326565b61015e610181366004612202565b61033e565b61015e61019436600461214a565b61034e565b6101a16103c1565b6040516101429190612a7d565b61015e6101bc3660046125ae565b6103c7565b61015e6101cf36600461227a565b6103e3565b61015e6101e23660046121ea565b6103f3565b61015e6101f53660046122db565b610401565b61020d6102083660046121ea565b610415565b60405161014291906129ee565b6102226105db565b60405161014293929190612984565b61015e61023f36600461227a565b610675565b61015e610252366004612394565b610685565b61015e6102653660046124fa565b610694565b6101a161027836600461214a565b6106a2565b61015e61028b3660046123e4565b6106b9565b61015e61029e3660046121ea565b6106c7565b61015e6102b1366004612394565b610791565b6102be6107a0565b6040516101429190612814565b61015e6102d936600461210b565b6107af565b61015e6102ec36600461263b565b610815565b6001600160e01b03191660009081526020819052604090205460ff1690565b61031f60018686868686610827565b5050505050565b6103366001878787878787610a80565b505050505050565b6103366001878787878787610cde565b604051635c664d0160e11b815273__ProcedureLibrary______________________9063b8cc9a029061038c90600190879087908790600401612a9d565b60006040518083038186803b1580156103a457600080fd5b505af41580156103b8573d6000803e3d6000fd5b50505050505050565b60055490565b6103d960018989898989898989610e01565b5050505050505050565b6103366001878787878787611079565b6103fe60018261119c565b50565b61040f6001858585856112a8565b50505050565b61041d612000565b6000828152600460208181526040808420815160c08101835281546001600160a01b0316815282516060808201855260018401548252600284015460ff80821684890152610100918290048116848801528488019390935260038501548084161515858801529081048316151591840191909152620100009004161515608082015293810180548351818602810186019094528084529495919460a08701949192909184015b828210156105cd5760008481526020908190206040805160c08101825260068602909201805483526001808201546001600160a01b03168486015260028083015485850152600383015460ff16606086015260048301805485516101009482161594909402600019011691909104601f810187900487028301870190945283825293949193608086019391929091908301828280156105a35780601f10610578576101008083540402835291602001916105a3565b820191906000526020600020905b81548152906001019060200180831161058657829003601f168201915b50505091835250506005919091015460ff16151560209182015290825260019290920191016104c3565b505050915250909392505050565b6040516341ff658d60e11b81526000908190819073__ProcedureLibrary______________________906383fecb1a9061061a90600190600401612a7d565b60606040518083038186803b15801561063257600080fd5b505af4158015610646573d6000803e3d6000fd5b505050506040513d601f19601f8201168201806040525081019061066a919061218b565b925092509250909192565b6103366001878787878787611500565b61031f60018686868686611621565b61040f600185858585611742565b60006106b16001858585611861565b949350505050565b61040f6001858585856118ef565b600654604051633e1dc37f60e11b81526001600160a01b039091169073__ProcedureLibrary______________________90637c3b86fe9061070f9084903390600401612828565b60206040518083038186803b15801561072757600080fd5b505af415801561073b573d6000803e3d6000fd5b505050506040513d601f19601f8201168201806040525081019061075f919061212e565b6107845760405162461bcd60e51b815260040161077b906129c6565b60405180910390fd5b61078d82611a0e565b5050565b61031f60018686868686611a19565b6006546001600160a01b031681565b60405163474ab74960e11b815273__ProcedureLibrary______________________90638e956e92906107e9906001908590600401612a86565b60006040518083038186803b15801561080157600080fd5b505af415801561031f573d6000803e3d6000fd5b6108226001848484611b3a565b505050565b6000858152600387016020526040902054869086906001600160a01b031633146108635760405162461bcd60e51b815260040161077b9061299d565b60008781526003808a01602052604090912001548890889060ff161580156108a457506000818152600383810160205260409091200154610100900460ff16155b80156108ca5750600081815260038381016020526040909120015462010000900460ff16155b6108e65760405162461bcd60e51b815260040161077b9061299d565b600089815260038b0160209081526040808320815160c0810183526004918201805482526001600160a01b038e1694820194909452808301949094526060840152519091906080820190637f0a4e2790610946908c908c906024016128ac565b60408051808303601f190181529181526020808301805160e09590951b6001600160e01b039095169490941790935290835260009282018390528454600180820187559584529282902084516006909402019283558382015194830180546001600160a01b0319166001600160a01b0390961695909517909455928201516002820155606082015160038201805460ff191660ff90921691909117905560808201518051929391926109fe9260048501920190612047565b5060a091909101516005909101805460ff19169115159190911790558415610a745760008981526003808c01602052604091829020908101805460ff19166001179055549051600080516020612baa83398151915291610a6b916001600160a01b03909116908c90612842565b60405180910390a15b50505050505050505050565b6000868152600388016020526040902054879087906001600160a01b03163314610abc5760405162461bcd60e51b815260040161077b9061299d565b60008881526003808b01602052604090912001548990899060ff16158015610afd57506000818152600383810160205260409091200154610100900460ff16155b8015610b235750600081815260038381016020526040909120015462010000900460ff16155b610b3f5760405162461bcd60e51b815260040161077b9061299d565b60008a815260038c0160209081526040808320815160c0810183526004909101805482526001600160a01b038e1693820193909352808201939093526007606084015251909190608082019063c107532990610ba3908d908d908d90602401612888565b60408051808303601f190181529181526020808301805160e09590951b6001600160e01b039095169490941790935290835260009282018390528454600180820187559584529282902084516006909402019283558382015194830180546001600160a01b0319166001600160a01b0390961695909517909455928201516002820155606082015160038201805460ff191660ff9092169190911790556080820151805192939192610c5b9260048501920190612047565b5060a091909101516005909101805460ff19169115159190911790558415610cd15760008a81526003808d01602052604091829020908101805460ff19166001179055549051600080516020612baa83398151915291610cc8916001600160a01b03909116908d90612842565b60405180910390a15b5050505050505050505050565b6000868152600388016020526040902054879087906001600160a01b03163314610d1a5760405162461bcd60e51b815260040161077b9061299d565b60008881526003808b01602052604090912001548990899060ff16158015610d5b57506000818152600383810160205260409091200154610100900460ff16155b8015610d815750600081815260038381016020526040909120015462010000900460ff16155b610d9d5760405162461bcd60e51b815260040161077b9061299d565b60008a815260038c0160209081526040808320815160c0810183526004909101805482526001600160a01b038e1693820193909352808201939093526006606084015251909190608082019063d0922d4a90610ba3908d908d908d9060240161285b565b600088815260038a016020526040902054899089906001600160a01b03163314610e3d5760405162461bcd60e51b815260040161077b9061299d565b60008a81526003808d01602052604090912001548b908b9060ff16158015610e7e57506000818152600383810160205260409091200154610100900460ff16155b8015610ea45750600081815260038381016020526040909120015462010000900460ff16155b610ec05760405162461bcd60e51b815260040161077b9061299d565b60008d60030160008e81526020019081526020016000209050806004016040518060c00160405280836004018054905081526020018e6001600160a01b0316815260200160008152602001600360ff1681526020016391bdfe638e8e8e8e8e604051602401610f33959493929190612abe565b60408051808303601f190181529181526020808301805160e09590951b6001600160e01b039095169490941790935290835260009282018390528454600180820187559584529282902084516006909402019283558382015194830180546001600160a01b0319166001600160a01b0390961695909517909455928201516002820155606082015160038201805460ff191660ff9092169190911790556080820151805192939192610feb9260048501920190612047565b5060a091909101516005909101805460ff191691151591909117905585156110695760018160030160006101000a81548160ff021916908315150217905550600080516020612baa8339815191528160000160009054906101000a90046001600160a01b03168e604051611060929190612842565b60405180910390a15b5050505050505050505050505050565b6000868152600388016020526040902054879087906001600160a01b031633146110b55760405162461bcd60e51b815260040161077b9061299d565b60008881526003808b01602052604090912001548990899060ff161580156110f657506000818152600383810160205260409091200154610100900460ff16155b801561111c5750600081815260038381016020526040909120015462010000900460ff16155b6111385760405162461bcd60e51b815260040161077b9061299d565b60008a815260038c0160209081526040808320815160c0810183526004909101805482526001600160a01b038e16938201939093528082019390935260086060840152519091906080820190635e35359e90610ba3908d908d908d90602401612888565b6000818152600383016020526040902054829082906001600160a01b031633146111d85760405162461bcd60e51b815260040161077b9061299d565b60008381526003808601602052604090912001548490849060ff1615801561121957506000818152600383810160205260409091200154610100900460ff16155b801561123f5750600081815260038381016020526040909120015462010000900460ff16155b61125b5760405162461bcd60e51b815260040161077b9061299d565b6000858152600380880160205260409182902001805460ff1916600117905551600080516020612baa833981519152906112989033908890612842565b60405180910390a1505050505050565b6000848152600386016020526040902054859085906001600160a01b031633146112e45760405162461bcd60e51b815260040161077b9061299d565b60008681526003808901602052604090912001548790879060ff1615801561132557506000818152600383810160205260409091200154610100900460ff16155b801561134b5750600081815260038381016020526040909120015462010000900460ff16155b6113675760405162461bcd60e51b815260040161077b9061299d565b600088815260038a0160209081526040808320815160c0810183526004909101805482526001600160a01b038c169382019390935280820193909352600560608401525190919060808201906319b9404c906113c7908b90602401612814565b60408051808303601f190181529181526020808301805160e09590951b6001600160e01b039095169490941790935290835260009282018390528454600180820187559584529282902084516006909402019283558382015194830180546001600160a01b0319166001600160a01b0390961695909517909455928201516002820155606082015160038201805460ff191660ff909216919091179055608082015180519293919261147f9260048501920190612047565b5060a091909101516005909101805460ff191691151591909117905584156114f55760008881526003808b01602052604091829020908101805460ff19166001179055549051600080516020612baa833981519152916114ec916001600160a01b03909116908b90612842565b60405180910390a15b505050505050505050565b6000868152600388016020526040902054879087906001600160a01b0316331461153c5760405162461bcd60e51b815260040161077b9061299d565b60008881526003808b01602052604090912001548990899060ff1615801561157d57506000818152600383810160205260409091200154610100900460ff16155b80156115a35750600081815260038381016020526040909120015462010000900460ff16155b6115bf5760405162461bcd60e51b815260040161077b9061299d565b60008a815260038c0160209081526040808320815160c0810183526004909101805482526001600160a01b038e1693820193909352808201939093526007606084015251909190608082019063c107532990610ba3908d908c90602401612842565b6000858152600387016020526040902054869086906001600160a01b0316331461165d5760405162461bcd60e51b815260040161077b9061299d565b60008781526003808a01602052604090912001548890889060ff1615801561169e57506000818152600383810160205260409091200154610100900460ff16155b80156116c45750600081815260038381016020526040909120015462010000900460ff16155b6116e05760405162461bcd60e51b815260040161077b9061299d565b600089815260038b0160209081526040808320815160c0810183526004909101805482526001600160a01b038d1693820193909352808201939093526007606084015251909190608082019063c107532990610946908c908c90602401612842565b6000848152600386016020526040902054859085906001600160a01b0316331461177e5760405162461bcd60e51b815260040161077b9061299d565b60008681526003808901602052604090912001548790879060ff161580156117bf57506000818152600383810160205260409091200154610100900460ff16155b80156117e55750600081815260038381016020526040909120015462010000900460ff16155b6118015760405162461bcd60e51b815260040161077b9061299d565b600088815260038a0160209081526040808320815160c0810183526004909101805482526001600160a01b038c16938201939093528082019390935260026060840152519091906080820190637615eb81906113c7908b90602401612935565b6004840180546001808201909255600081815260039096016020818152604080892080546001600160a01b03191633178155815160608101835298895260ff97881689840190815296881691890191825298849052919052945191860191909155905160029094018054935183166101000261ff00199590931660ff19909416939093179390931617905590565b6000848152600386016020526040902054859085906001600160a01b0316331461192b5760405162461bcd60e51b815260040161077b9061299d565b60008681526003808901602052604090912001548790879060ff1615801561196c57506000818152600383810160205260409091200154610100900460ff16155b80156119925750600081815260038381016020526040909120015462010000900460ff16155b6119ae5760405162461bcd60e51b815260040161077b9061299d565b600088815260038a0160209081526040808320815160c0810183526004909101805482526001600160a01b038c1693820193909352808201939093526001606084015251909190608082019063981d5e7b906113c7908b906024016128cf565b6103fe600182611d91565b6000858152600387016020526040902054869086906001600160a01b03163314611a555760405162461bcd60e51b815260040161077b9061299d565b60008781526003808a01602052604090912001548890889060ff16158015611a9657506000818152600383810160205260409091200154610100900460ff16155b8015611abc5750600081815260038381016020526040909120015462010000900460ff16155b611ad85760405162461bcd60e51b815260040161077b9061299d565b600089815260038b0160209081526040808320815160c0810183526004909101805482526001600160a01b038d16938201939093528082019390935260086060840152519091906080820190635e35359e90610946908c908c90602401612842565b6000838152600385016020526040902054849084906001600160a01b03163314611b765760405162461bcd60e51b815260040161077b9061299d565b60008581526003808801602052604090912001548690869060ff16158015611bb757506000818152600383810160205260409091200154610100900460ff16155b8015611bdd5750600081815260038381016020526040909120015462010000900460ff16155b611bf95760405162461bcd60e51b815260040161077b9061299d565b8760030160008881526020019081526020016000206004016040518060c001604052808a60030160008b815260200190815260200160002060040180549050815260200160006001600160a01b0316815260200160008152602001600060ff1681526020018881526020016000151581525090806001815401808255809150506001900390600052602060002090600602016000909190919091506000820151816000015560208201518160010160006101000a8154816001600160a01b0302191690836001600160a01b031602179055506040820151816002015560608201518160030160006101000a81548160ff021916908360ff1602179055506080820151816004019080519060200190611d12929190612047565b5060a091909101516005909101805460ff191691151591909117905584156103d95760008781526003808a01602052604091829020908101805460ff19166001179055549051600080516020612baa83398151915291611d7f916001600160a01b03909116908a90612842565b60405180910390a15050505050505050565b60008181526003808401602052604090912001548290829060ff168015611dd157506000818152600383810160205260409091200154610100900460ff16155b8015611df75750600081815260038381016020526040909120015462010000900460ff16155b611e135760405162461bcd60e51b815260040161077b9061299d565b600083815260038086016020526040822001805462ff00001916620100001790555b6000848152600386016020526040902060040154811015611fa25760008481526003860160205260408120600401805483908110611e6f57fe5b60009182526020909120600160069092020101546001600160a01b031614611f555760008481526003860160205260409020600401805482908110611eb057fe5b600091825260208083206001600690930201919091015486835260038801909152604090912060040180546001600160a01b039092169183908110611ef157fe5b9060005260206000209060060201600401604051611f0f91906127a4565b6000604051808303816000865af19150503d8060008114611f4c576040519150601f19603f3d011682016040523d82523d6000602084013e611f51565b606091505b5050505b6000848152600386016020526040902060040180546001919083908110611f7857fe5b60009182526020909120600690910201600501805460ff1916911515919091179055600101611e35565b506000838152600380860160205260409182902001805461ff001916610100179055517fd2c6e52f57352f08a7c9894b122d8440f1d87a7949ba8769fe444bf80b9e7a7e90611ff2908590612a7d565b60405180910390a150505050565b6040518060c0016040528060006001600160a01b031681526020016120236120c5565b81526000602082018190526040820181905260608083019190915260809091015290565b828054600181600116156101000203166002900490600052602060002090601f016020900481019282601f1061208857805160ff19168380011785556120b5565b828001600101855582156120b5579182015b828111156120b557825182559160200191906001019061209a565b506120c19291506120e5565b5090565b604080516060810182526000808252602082018190529181019190915290565b5b808211156120c157600081556001016120e6565b803561210581612b76565b92915050565b60006020828403121561211c578081fd5b813561212781612b61565b9392505050565b60006020828403121561213f578081fd5b815161212781612b76565b60008060006060848603121561215e578182fd5b83359250602084013561217081612b9a565b9150604084013561218081612b9a565b809150509250925092565b60008060006060848603121561219f578283fd5b8351925060208401516121b181612b9a565b604085015190925061218081612b9a565b6000602082840312156121d3578081fd5b81356001600160e01b031981168114612127578182fd5b6000602082840312156121fb578081fd5b5035919050565b60008060008060008060c0878903121561221a578182fd5b86359550602087013561222c81612b61565b9450604087013561223c81612b61565b9350606087013561224c81612b61565b9250608087013561225c81612b84565b915060a087013561226c81612b76565b809150509295509295509295565b60008060008060008060c08789031215612292578182fd5b8635955060208701356122a481612b61565b945060408701356122b481612b61565b935060608701356122c481612b61565b92506080870135915060a087013561226c81612b76565b600080600080608085870312156122f0578182fd5b84359350602085013561230281612b61565b9250604085013561231281612b61565b9150606085013561232281612b76565b939692955090935050565b600080600080600060a08688031215612344578283fd5b85359450602086013561235681612b61565b9350604086013561236681612b61565b9250606086013561237681612b84565b9150608086013561238681612b76565b809150509295509295909350565b600080600080600060a086880312156123ab578283fd5b8535945060208601356123bd81612b61565b935060408601356123cd81612b61565b925060608601359150608086013561238681612b76565b60008060008060808086880312156123fa578283fd5b8535945060208087013561240d81612b61565b94506040878101356001600160401b03811115612428578586fd5b8801601f81018a13612438578586fd5b803561244b61244682612b16565b612af0565b81815284810190838601878402850187018e101561246757898afd5b8994505b838510156124d75787818f03121561248157898afd5b61248a88612af0565b813561249581612b61565b81528188013588820152868201356124ac81612b9a565b818801526060828101356124bf81612b9a565b9082015283526001949094019391860191870161246b565b50809850505050505050506124ef86606087016120fa565b905092959194509250565b6000806000806080858703121561250f578182fd5b8435935060208086013561252281612b61565b935060408601356001600160401b0381111561253c578384fd5b8601601f8101881361254c578384fd5b803561255a61244682612b16565b81815283810190838501858402850186018c1015612576578788fd5b8794505b8385101561259857803583526001949094019391850191850161257a565b5080965050505050506124ef86606087016120fa565b600080600080600080600080610100898b0312156125ca578586fd5b8835975060208901356125dc81612b61565b96506040890135955060608901356125f381612b61565b94506080890135935060a089013561260a81612b9a565b925060c089013561261a81612b9a565b915060e089013561262a81612b76565b809150509295985092959890939650565b60008060006060848603121561264f578081fd5b833592506020808501356001600160401b038082111561266d578384fd5b818701915087601f830112612680578384fd5b81358181111561268e578485fd5b6126a0601f8201601f19168501612af0565b915080825288848285010111156126b5578485fd5b808484018584013781019092018390525091506126d585604086016120fa565b90509250925092565b6000815180845260208085018081965082840281019150828601855b85811015612791578284038952815180518552858101516001600160a01b0316868601526040808201519086015260608082015160ff169086015260808082015160c091870182905280519061275282848a01612a7d565b925061276182848b8401612b35565b5060a092830151926127758882018561279e565b509a87019a601f01601f191601945050908401906001016126fa565b5091979650505050505050565b15159052565b60008083546001808216600081146127c357600181146127da57612809565b60ff198316865260028304607f1686019350612809565b600283048786526020808720875b838110156128015781548a8201529085019082016127e8565b505050860193505b509195945050505050565b6001600160a01b0391909116815260200190565b6001600160a01b0392831681529116602082015260400190565b6001600160a01b03929092168252602082015260400190565b6001600160a01b0393841681529190921660208201526001600160f01b0319909116604082015260600190565b6001600160a01b039384168152919092166020820152604081019190915260600190565b6001600160a01b039290921682526001600160f01b031916602082015260400190565b602080825282518282018190526000919060409081850190868401855b8281101561279157815180516001600160a01b0316855286810151878601528581015160ff908116878701526060918201511690850152608090930192908501906001016128ec565b6020808252825182820181905260009190848201906040850190845b8181101561296d57835183529284019291840191600101612951565b50909695505050505050565b901515815260200190565b92835260ff918216602084015216604082015260600190565b6020808252600f908201526e2737ba1030baba3437b934bd32b21760891b604082015260600190565b6020808252600e908201526d139bdd08185d5d1a1bdc9a5e995960921b604082015260600190565b60006020825260018060a01b03835116602083015260208301518051604084015260ff602082015116606084015260ff6040820151166080840152506040830151612a3c60a084018261279e565b506060830151612a4f60c084018261279e565b506080830151612a6260e084018261279e565b5060a0830151610100838101526106b16101208401826126de565b90815260200190565b9182526001600160a01b0316602082015260400190565b938452602084019290925260ff908116604084015216606082015260800190565b9485526001600160a01b03939093166020850152604084019190915260ff908116606084015216608082015260a00190565b6040518181016001600160401b0381118282101715612b0e57600080fd5b604052919050565b60006001600160401b03821115612b2b578081fd5b5060209081020190565b60005b83811015612b50578181015183820152602001612b38565b8381111561040f5750506000910152565b6001600160a01b03811681146103fe57600080fd5b80151581146103fe57600080fd5b6001600160f01b0319811681146103fe57600080fd5b60ff811681146103fe57600080fdfe7306ab933b6e1df1bd2fddce7143eeedd65d5996fada0e9168c4e8c3d1ece94da2646970667358221220431100019a1de6873a8f7befbf2ab75270314a0036dbed2b49332e8f8213df8364736f6c634300060c0033",
  "immutableReferences": {},
  "source": "// SPDX-License-Identifier: LGPL-3.0-or-later\npragma solidity ^0.6.0;\npragma experimental ABIEncoderV2;\n\n/**\n    Nomination procedure.\n    A nomination applies an effect if nominator is in the nominaters organ.\n*/\n\nimport \"../Procedure.sol\";\n\ncontract SimpleNominationProcedure is Procedure {\n    address payable public nominatersOrgan;\n    bytes4 private constant _INTERFACE_NOMINATION = 0xc5f28e49; // nominate().\n\n    constructor (\n        bytes32 _metadataIpfsHash, uint8 _metadataHashFunction, uint8 _metadataHashSize,\n        address payable _nominatersOrgan\n    ) Procedure (_metadataIpfsHash, _metadataHashFunction, _metadataHashSize)\n        public\n    {\n        // Register EIP165 interface for introspection.\n        _registerInterface(_INTERFACE_NOMINATION);\n        nominatersOrgan = _nominatersOrgan;\n    }\n\n    function nominate(uint256 moveKey)\n        public onlyInOrgan(nominatersOrgan)\n    {\n        Procedure.applyMove(moveKey);\n    }\n}",
  "sourcePath": "/Users/alex/Code/organigr.am/packages/@organigram/contracts/contracts/procedures/SimpleNomination.sol",
  "compiler": {
    "name": "solc",
    "version": "0.6.12+commit.27d51765.Emscripten.clang"
  },
  "schemaVersion": "3.3.2",
  "updatedAt": "2020-12-06T20:50:53.187Z",
  "networkType": "ethereum",
  "devdoc": {
    "kind": "dev",
    "methods": {
      "supportsInterface(bytes4)": {
        "details": "See {IERC165-supportsInterface}. Time complexity O(1), guaranteed to always use less than 30 000 gas."
      }
    },
    "version": 1
  },
  "userdoc": {
    "kind": "user",
    "methods": {
      "createMove(bytes32,uint8,uint8)": {
        "notice": "Public API : Moves creation and update."
      },
      "updateMetadata(bytes32,uint8,uint8)": {
        "notice": "Public API : Procedure Metadata and Admin."
      }
    },
    "version": 1
  }
}