{
  "contractName": "SimpleNominationProcedure",
  "abi": [
    {
      "inputs": [
        {
          "internalType": "bytes32",
          "name": "_metadataIpfsHash",
          "type": "bytes32"
        },
        {
          "internalType": "uint8",
          "name": "_metadataHashFunction",
          "type": "uint8"
        },
        {
          "internalType": "uint8",
          "name": "_metadataHashSize",
          "type": "uint8"
        },
        {
          "internalType": "address payable",
          "name": "_nominatersOrgan",
          "type": "address"
        }
      ],
      "stateMutability": "nonpayable",
      "type": "constructor"
    },
    {
      "inputs": [
        {
          "internalType": "bytes32",
          "name": "ipfsHash",
          "type": "bytes32"
        },
        {
          "internalType": "uint8",
          "name": "hashFunction",
          "type": "uint8"
        },
        {
          "internalType": "uint8",
          "name": "hashSize",
          "type": "uint8"
        }
      ],
      "name": "createMove",
      "outputs": [
        {
          "internalType": "uint256",
          "name": "",
          "type": "uint256"
        }
      ],
      "stateMutability": "nonpayable",
      "type": "function"
    },
    {
      "inputs": [],
      "name": "getMetadata",
      "outputs": [
        {
          "internalType": "bytes32",
          "name": "ipfsHash",
          "type": "bytes32"
        },
        {
          "internalType": "uint8",
          "name": "hashFunction",
          "type": "uint8"
        },
        {
          "internalType": "uint8",
          "name": "hashSize",
          "type": "uint8"
        }
      ],
      "stateMutability": "view",
      "type": "function",
      "constant": true
    },
    {
      "inputs": [
        {
          "internalType": "uint256",
          "name": "moveKey",
          "type": "uint256"
        }
      ],
      "name": "getMove",
      "outputs": [
        {
          "components": [
            {
              "internalType": "address payable",
              "name": "creator",
              "type": "address"
            },
            {
              "components": [
                {
                  "internalType": "bytes32",
                  "name": "ipfsHash",
                  "type": "bytes32"
                },
                {
                  "internalType": "uint8",
                  "name": "hashFunction",
                  "type": "uint8"
                },
                {
                  "internalType": "uint8",
                  "name": "hashSize",
                  "type": "uint8"
                }
              ],
              "internalType": "struct ProcedureLibrary.Metadata",
              "name": "metadata",
              "type": "tuple"
            },
            {
              "internalType": "bool",
              "name": "locked",
              "type": "bool"
            },
            {
              "internalType": "bool",
              "name": "applied",
              "type": "bool"
            },
            {
              "internalType": "bool",
              "name": "processing",
              "type": "bool"
            },
            {
              "components": [
                {
                  "internalType": "uint256",
                  "name": "index",
                  "type": "uint256"
                },
                {
                  "internalType": "uint8",
                  "name": "operationType",
                  "type": "uint8"
                },
                {
                  "internalType": "bytes",
                  "name": "call",
                  "type": "bytes"
                },
                {
                  "internalType": "bool",
                  "name": "processed",
                  "type": "bool"
                }
              ],
              "internalType": "struct ProcedureLibrary.Operation[]",
              "name": "operations",
              "type": "tuple[]"
            }
          ],
          "internalType": "struct ProcedureLibrary.Move",
          "name": "move",
          "type": "tuple"
        }
      ],
      "stateMutability": "view",
      "type": "function",
      "constant": true
    },
    {
      "inputs": [],
      "name": "getMovesLength",
      "outputs": [
        {
          "internalType": "uint256",
          "name": "length",
          "type": "uint256"
        }
      ],
      "stateMutability": "view",
      "type": "function",
      "constant": true
    },
    {
      "inputs": [
        {
          "internalType": "uint256",
          "name": "moveKey",
          "type": "uint256"
        }
      ],
      "name": "lockMove",
      "outputs": [],
      "stateMutability": "nonpayable",
      "type": "function"
    },
    {
      "inputs": [
        {
          "internalType": "uint256",
          "name": "moveKey",
          "type": "uint256"
        },
        {
          "internalType": "address payable",
          "name": "organ",
          "type": "address"
        },
        {
          "components": [
            {
              "internalType": "address",
              "name": "addr",
              "type": "address"
            },
            {
              "internalType": "bytes32",
              "name": "ipfsHash",
              "type": "bytes32"
            },
            {
              "internalType": "uint8",
              "name": "hashFunction",
              "type": "uint8"
            },
            {
              "internalType": "uint8",
              "name": "hashSize",
              "type": "uint8"
            }
          ],
          "internalType": "struct OrganLibrary.Entry[]",
          "name": "entries",
          "type": "tuple[]"
        },
        {
          "internalType": "bool",
          "name": "lock",
          "type": "bool"
        }
      ],
      "name": "moveAddEntries",
      "outputs": [],
      "stateMutability": "nonpayable",
      "type": "function"
    },
    {
      "inputs": [
        {
          "internalType": "uint256",
          "name": "moveKey",
          "type": "uint256"
        },
        {
          "internalType": "address payable",
          "name": "organ",
          "type": "address"
        },
        {
          "internalType": "address",
          "name": "procedure",
          "type": "address"
        },
        {
          "internalType": "bytes2",
          "name": "permissions",
          "type": "bytes2"
        },
        {
          "internalType": "bool",
          "name": "lock",
          "type": "bool"
        }
      ],
      "name": "moveAddProcedure",
      "outputs": [],
      "stateMutability": "nonpayable",
      "type": "function"
    },
    {
      "inputs": [
        {
          "internalType": "uint256",
          "name": "moveKey",
          "type": "uint256"
        },
        {
          "internalType": "bytes",
          "name": "call",
          "type": "bytes"
        },
        {
          "internalType": "bool",
          "name": "lock",
          "type": "bool"
        }
      ],
      "name": "moveCall",
      "outputs": [],
      "stateMutability": "nonpayable",
      "type": "function"
    },
    {
      "inputs": [
        {
          "internalType": "uint256",
          "name": "moveKey",
          "type": "uint256"
        },
        {
          "internalType": "address payable",
          "name": "organ",
          "type": "address"
        },
        {
          "internalType": "address",
          "name": "operator",
          "type": "address"
        },
        {
          "internalType": "address",
          "name": "target",
          "type": "address"
        },
        {
          "internalType": "uint256",
          "name": "value",
          "type": "uint256"
        },
        {
          "internalType": "bool",
          "name": "lock",
          "type": "bool"
        }
      ],
      "name": "moveReceiveCoins",
      "outputs": [],
      "stateMutability": "nonpayable",
      "type": "function"
    },
    {
      "inputs": [
        {
          "internalType": "uint256",
          "name": "moveKey",
          "type": "uint256"
        },
        {
          "internalType": "address payable",
          "name": "organ",
          "type": "address"
        },
        {
          "internalType": "address",
          "name": "operator",
          "type": "address"
        },
        {
          "internalType": "address",
          "name": "target",
          "type": "address"
        },
        {
          "internalType": "uint256",
          "name": "token_id",
          "type": "uint256"
        },
        {
          "internalType": "bool",
          "name": "lock",
          "type": "bool"
        }
      ],
      "name": "moveReceiveCollectible",
      "outputs": [],
      "stateMutability": "nonpayable",
      "type": "function"
    },
    {
      "inputs": [
        {
          "internalType": "uint256",
          "name": "moveKey",
          "type": "uint256"
        },
        {
          "internalType": "address payable",
          "name": "organ",
          "type": "address"
        },
        {
          "internalType": "address",
          "name": "target",
          "type": "address"
        },
        {
          "internalType": "uint256",
          "name": "value",
          "type": "uint256"
        },
        {
          "internalType": "bool",
          "name": "lock",
          "type": "bool"
        }
      ],
      "name": "moveReceiveEther",
      "outputs": [],
      "stateMutability": "nonpayable",
      "type": "function"
    },
    {
      "inputs": [
        {
          "internalType": "uint256",
          "name": "moveKey",
          "type": "uint256"
        },
        {
          "internalType": "address payable",
          "name": "organ",
          "type": "address"
        },
        {
          "internalType": "uint256",
          "name": "indexes",
          "type": "uint256"
        },
        {
          "internalType": "bool",
          "name": "lock",
          "type": "bool"
        }
      ],
      "name": "moveRemoveEntry",
      "outputs": [],
      "stateMutability": "nonpayable",
      "type": "function"
    },
    {
      "inputs": [
        {
          "internalType": "uint256",
          "name": "moveKey",
          "type": "uint256"
        },
        {
          "internalType": "address payable",
          "name": "organ",
          "type": "address"
        },
        {
          "internalType": "address",
          "name": "procedure",
          "type": "address"
        },
        {
          "internalType": "bool",
          "name": "lock",
          "type": "bool"
        }
      ],
      "name": "moveRemoveProcedure",
      "outputs": [],
      "stateMutability": "nonpayable",
      "type": "function"
    },
    {
      "inputs": [
        {
          "internalType": "uint256",
          "name": "moveKey",
          "type": "uint256"
        },
        {
          "internalType": "address payable",
          "name": "organ",
          "type": "address"
        },
        {
          "internalType": "uint256",
          "name": "index",
          "type": "uint256"
        },
        {
          "internalType": "address payable",
          "name": "addr",
          "type": "address"
        },
        {
          "internalType": "bytes32",
          "name": "ipfsHash",
          "type": "bytes32"
        },
        {
          "internalType": "uint8",
          "name": "hashFunction",
          "type": "uint8"
        },
        {
          "internalType": "uint8",
          "name": "hashSize",
          "type": "uint8"
        },
        {
          "internalType": "bool",
          "name": "lock",
          "type": "bool"
        }
      ],
      "name": "moveReplaceEntry",
      "outputs": [],
      "stateMutability": "nonpayable",
      "type": "function"
    },
    {
      "inputs": [
        {
          "internalType": "uint256",
          "name": "moveKey",
          "type": "uint256"
        },
        {
          "internalType": "address payable",
          "name": "organ",
          "type": "address"
        },
        {
          "internalType": "address",
          "name": "oldProcedure",
          "type": "address"
        },
        {
          "internalType": "address",
          "name": "newProcedure",
          "type": "address"
        },
        {
          "internalType": "bytes2",
          "name": "permissions",
          "type": "bytes2"
        },
        {
          "internalType": "bool",
          "name": "lock",
          "type": "bool"
        }
      ],
      "name": "moveReplaceProcedure",
      "outputs": [],
      "stateMutability": "nonpayable",
      "type": "function"
    },
    {
      "inputs": [
        {
          "internalType": "uint256",
          "name": "moveKey",
          "type": "uint256"
        },
        {
          "internalType": "address payable",
          "name": "organ",
          "type": "address"
        },
        {
          "internalType": "address",
          "name": "operator",
          "type": "address"
        },
        {
          "internalType": "address",
          "name": "target",
          "type": "address"
        },
        {
          "internalType": "uint256",
          "name": "value",
          "type": "uint256"
        },
        {
          "internalType": "bool",
          "name": "lock",
          "type": "bool"
        }
      ],
      "name": "moveTransferCoins",
      "outputs": [],
      "stateMutability": "nonpayable",
      "type": "function"
    },
    {
      "inputs": [
        {
          "internalType": "uint256",
          "name": "moveKey",
          "type": "uint256"
        },
        {
          "internalType": "address payable",
          "name": "organ",
          "type": "address"
        },
        {
          "internalType": "address",
          "name": "operator",
          "type": "address"
        },
        {
          "internalType": "address",
          "name": "target",
          "type": "address"
        },
        {
          "internalType": "uint256",
          "name": "token_id",
          "type": "uint256"
        },
        {
          "internalType": "bool",
          "name": "lock",
          "type": "bool"
        }
      ],
      "name": "moveTransferCollectible",
      "outputs": [],
      "stateMutability": "nonpayable",
      "type": "function"
    },
    {
      "inputs": [
        {
          "internalType": "uint256",
          "name": "moveKey",
          "type": "uint256"
        },
        {
          "internalType": "address payable",
          "name": "organ",
          "type": "address"
        },
        {
          "internalType": "address",
          "name": "target",
          "type": "address"
        },
        {
          "internalType": "uint256",
          "name": "value",
          "type": "uint256"
        },
        {
          "internalType": "bool",
          "name": "lock",
          "type": "bool"
        }
      ],
      "name": "moveTransferEther",
      "outputs": [],
      "stateMutability": "nonpayable",
      "type": "function"
    },
    {
      "inputs": [],
      "name": "nominatersOrgan",
      "outputs": [
        {
          "internalType": "address payable",
          "name": "",
          "type": "address"
        }
      ],
      "stateMutability": "view",
      "type": "function",
      "constant": true
    },
    {
      "inputs": [
        {
          "internalType": "bytes4",
          "name": "interfaceId",
          "type": "bytes4"
        }
      ],
      "name": "supportsInterface",
      "outputs": [
        {
          "internalType": "bool",
          "name": "",
          "type": "bool"
        }
      ],
      "stateMutability": "view",
      "type": "function",
      "constant": true
    },
    {
      "inputs": [
        {
          "internalType": "address payable",
          "name": "admin",
          "type": "address"
        }
      ],
      "name": "updateAdmin",
      "outputs": [],
      "stateMutability": "nonpayable",
      "type": "function"
    },
    {
      "inputs": [
        {
          "internalType": "bytes32",
          "name": "ipfsHash",
          "type": "bytes32"
        },
        {
          "internalType": "uint8",
          "name": "hashFunction",
          "type": "uint8"
        },
        {
          "internalType": "uint8",
          "name": "hashSize",
          "type": "uint8"
        }
      ],
      "name": "updateMetadata",
      "outputs": [],
      "stateMutability": "nonpayable",
      "type": "function"
    },
    {
      "inputs": [
        {
          "internalType": "uint256",
          "name": "moveKey",
          "type": "uint256"
        }
      ],
      "name": "nominate",
      "outputs": [],
      "stateMutability": "nonpayable",
      "type": "function"
    }
  ],
  "bytecode": "0x60806040523480156200001157600080fd5b506040516200545f3803806200545f833981810160405281019062000037919062000261565b838383620000526301ffc9a760e01b6200014460201b60201c565b6200006a6371dbd33060e01b6200014460201b60201c565b600173__ProcedureLibrary______________________63359a395d90918585856040518563ffffffff1660e01b8152600401620000ac94939291906200035a565b60006040518083038186803b158015620000c557600080fd5b505af4158015620000da573d6000803e3d6000fd5b50505050505050620000f963c5f28e4960e01b6200014460201b60201c565b80600660006101000a81548173ffffffffffffffffffffffffffffffffffffffff021916908373ffffffffffffffffffffffffffffffffffffffff1602179055505050505062000451565b63ffffffff60e01b817bffffffffffffffffffffffffffffffffffffffffffffffffffffffff19161415620001b0576040517f08c379a0000000000000000000000000000000000000000000000000000000008152600401620001a79062000338565b60405180910390fd5b6001600080837bffffffffffffffffffffffffffffffffffffffffffffffffffffffff19167bffffffffffffffffffffffffffffffffffffffffffffffffffffffff1916815260200190815260200160002060006101000a81548160ff02191690831515021790555050565b6000815190506200022d8162000403565b92915050565b60008151905062000244816200041d565b92915050565b6000815190506200025b8162000437565b92915050565b600080600080608085870312156200027857600080fd5b6000620002888782880162000233565b94505060206200029b878288016200024a565b9350506040620002ae878288016200024a565b9250506060620002c1878288016200021c565b91505092959194509250565b620002d881620003cc565b82525050565b6000620002ed601c83620003a7565b91507f4552433136353a20696e76616c696420696e74657266616365206964000000006000830152602082019050919050565b8082525050565b6200033281620003f6565b82525050565b600060208201905081810360008301526200035381620002de565b9050919050565b600060808201905062000371600083018762000320565b620003806020830186620002cd565b6200038f604083018562000327565b6200039e606083018462000327565b95945050505050565b600082825260208201905092915050565b6000620003c582620003d6565b9050919050565b6000819050919050565b600073ffffffffffffffffffffffffffffffffffffffff82169050919050565b600060ff82169050919050565b6200040e81620003b8565b81146200041a57600080fd5b50565b6200042881620003cc565b81146200043457600080fd5b50565b6200044281620003f6565b81146200044e57600080fd5b50565b614ffe80620004616000396000f3fe608060405234801561001057600080fd5b506004361061014d5760003560e01c806371dbd330116100c3578063c5f28e491161007c578063c5f28e4914610370578063cb6bc9ff1461038c578063cc125031146103a8578063e2a6ed04146103c4578063e2f273bd146103e2578063fa160aa2146103fe5761014d565b806371dbd3301461029c5780637a5b4f59146102cc5780637c3a5fcc146102ec5780637ee7fa4014610308578063a2b58cda14610324578063c492f463146103545761014d565b80633e9a9bd8116101155780633e9a9bd8146101f257806352c041b2146102105780635a31b5601461022c5780635ba357dc146102485780636322ab201461026457806367c322d0146102805761014d565b806301ffc9a7146101525780630b5522a914610182578063148a20051461019e5780632c1d5337146101ba57806339c2ae70146101d6575b600080fd5b61016c6004803603810190610167919061407e565b61041a565b6040516101799190614b7c565b60405180910390f35b61019c60048036038101906101979190614245565b610481565b005b6101b860048036038101906101b39190614159565b6104a4565b005b6101d460048036038101906101cf91906140d0565b6104ca565b005b6101f060048036038101906101eb9190613fe0565b6104f0565b005b6101fa610565565b6040516102079190614cb9565b60405180910390f35b61022a600480360381019061022591906143ae565b610572565b005b61024660048036038101906102419190614159565b61059e565b005b610262600480360381019061025d91906140a7565b6105c4565b005b61027e60048036038101906102799190614460565b6105db565b005b61029a600480360381019061029591906141e2565b6105fb565b005b6102b660048036038101906102b191906140a7565b61061b565b6040516102c39190614c0e565b60405180910390f35b6102d461088d565b6040516102e393929190614b97565b60405180910390f35b61030660048036038101906103019190614159565b610927565b005b610322600480360381019061031d91906142bc565b61094d565b005b61033e60048036038101906103399190613fe0565b610970565b60405161034b9190614cb9565b60405180910390f35b61036e60048036038101906103699190614333565b610993565b005b61038a600480360381019061038591906140a7565b6109b3565b005b6103a660048036038101906103a19190614159565b610aab565b005b6103c260048036038101906103bd91906142bc565b610ad1565b005b6103cc610af4565b6040516103d9919061495d565b60405180910390f35b6103fc60048036038101906103f79190613f8e565b610b1a565b005b610418600480360381019061041391906144c3565b610b89565b005b6000806000837bffffffffffffffffffffffffffffffffffffffffffffffffffffffff19167bffffffffffffffffffffffffffffffffffffffffffffffffffffffff1916815260200190815260200160002060009054906101000a900460ff169050919050565b61049d85858585856001610ba69095949392919063ffffffff16565b5050505050565b6104c28686868686866001610f11909695949392919063ffffffff16565b505050505050565b6104e8868686868686600161127f909695949392919063ffffffff16565b505050505050565b600173__ProcedureLibrary______________________63b8cc9a0290918585856040518563ffffffff1660e01b81526004016105309493929190614c74565b60006040518083038186803b15801561054857600080fd5b505af415801561055c573d6000803e3d6000fd5b50505050505050565b6000600160040154905090565b610594888888888888888860016115ed9098979695949392919063ffffffff16565b5050505050505050565b6105bc868686868686600161192b909695949392919063ffffffff16565b505050505050565b6105d8816001611c9990919063ffffffff16565b50565b6105f5848484846001611e7990949392919063ffffffff16565b50505050565b6106158484848460016121e190949392919063ffffffff16565b50505050565b610623613c3d565b600160030160008381526020019081526020016000206040518060c00160405290816000820160009054906101000a900473ffffffffffffffffffffffffffffffffffffffff1673ffffffffffffffffffffffffffffffffffffffff1673ffffffffffffffffffffffffffffffffffffffff16815260200160018201604051806060016040529081600082015481526020016001820160009054906101000a900460ff1660ff1660ff1681526020016001820160019054906101000a900460ff1660ff1660ff168152505081526020016003820160009054906101000a900460ff161515151581526020016003820160019054906101000a900460ff161515151581526020016003820160029054906101000a900460ff1615151515815260200160048201805480602002602001604051908101604052809291908181526020016000905b8282101561087e5783829060005260206000209060040201604051806080016040529081600082015481526020016001820160009054906101000a900460ff1660ff1660ff168152602001600282018054600181600116156101000203166002900480601f01602080910402602001604051908101604052809291908181526020018280546001816001161561010002031660029004801561084b5780601f106108205761010080835404028352916020019161084b565b820191906000526020600020905b81548152906001019060200180831161082e57829003601f168201915b505050505081526020016003820160009054906101000a900460ff16151515158152505081526020019060010190610768565b50505050815250509050919050565b6000806000600173__ProcedureLibrary______________________6383fecb1a90916040518263ffffffff1660e01b81526004016108cc9190614c30565b60606040518083038186803b1580156108e457600080fd5b505af41580156108f8573d6000803e3d6000fd5b505050506040513d601f19601f8201168201806040525081019061091c919061402f565b925092509250909192565b6109458686868686866001612549909695949392919063ffffffff16565b505050505050565b610969858585858560016128b59095949392919063ffffffff16565b5050505050565b600061098a8484846001612c20909392919063ffffffff16565b90509392505050565b6109ad848484846001612d2390949392919063ffffffff16565b50505050565b600660009054906101000a900473ffffffffffffffffffffffffffffffffffffffff1673__ProcedureLibrary______________________637c3b86fe82336040518363ffffffff1660e01b8152600401610a0f9291906149a1565b60206040518083038186803b158015610a2757600080fd5b505af4158015610a3b573d6000803e3d6000fd5b505050506040513d601f19601f82011682018060405250810190610a5f9190613fb7565b610a9e576040517f08c379a0000000000000000000000000000000000000000000000000000000008152600401610a9590614bee565b60405180910390fd5b610aa78261308b565b5050565b610ac986868686868660016130a2909695949392919063ffffffff16565b505050505050565b610aed858585858560016134109095949392919063ffffffff16565b5050505050565b600660009054906101000a900473ffffffffffffffffffffffffffffffffffffffff1681565b600173__ProcedureLibrary______________________638e956e929091836040518363ffffffff1660e01b8152600401610b56929190614c4b565b60006040518083038186803b158015610b6e57600080fd5b505af4158015610b82573d6000803e3d6000fd5b5050505050565b610ba1838383600161377b909392919063ffffffff16565b505050565b85853373ffffffffffffffffffffffffffffffffffffffff1682600301600083815260200190815260200160002060000160009054906101000a900473ffffffffffffffffffffffffffffffffffffffff1673ffffffffffffffffffffffffffffffffffffffff1614610c4e576040517f08c379a0000000000000000000000000000000000000000000000000000000008152600401610c4590614bce565b60405180910390fd5b878781600301600082815260200190815260200160002060030160009054906101000a900460ff16158015610ca6575081600301600082815260200190815260200160002060030160019054906101000a900460ff16155b8015610cd5575081600301600082815260200190815260200160002060030160029054906101000a900460ff16155b610d14576040517f08c379a0000000000000000000000000000000000000000000000000000000008152600401610d0b90614bce565b60405180910390fd5b8960030160008a815260200190815260200160002060040160405180608001604052808c60030160008d8152602001908152602001600020600401805490508152602001600460ff1681526020016390b137e98b8b8b604051602401610d7c93929190614a54565b6040516020818303038152906040529060e01b6020820180517bffffffffffffffffffffffffffffffffffffffffffffffffffffffff838183161783525050505081526020016000151581525090806001815401808255809150506001900390600052602060002090600402016000909190919091506000820151816000015560208201518160010160006101000a81548160ff021916908360ff1602179055506040820151816002019080519060200190610e39929190613c95565b5060608201518160030160006101000a81548160ff02191690831515021790555050508415610f055760018a60030160008b815260200190815260200160002060030160006101000a81548160ff0219169083151502179055507f7306ab933b6e1df1bd2fddce7143eeedd65d5996fada0e9168c4e8c3d1ece94d8a60030160008b815260200190815260200160002060000160009054906101000a900473ffffffffffffffffffffffffffffffffffffffff168a604051610efc929190614af2565b60405180910390a15b50505050505050505050565b86863373ffffffffffffffffffffffffffffffffffffffff1682600301600083815260200190815260200160002060000160009054906101000a900473ffffffffffffffffffffffffffffffffffffffff1673ffffffffffffffffffffffffffffffffffffffff1614610fb9576040517f08c379a0000000000000000000000000000000000000000000000000000000008152600401610fb090614bce565b60405180910390fd5b888881600301600082815260200190815260200160002060030160009054906101000a900460ff16158015611011575081600301600082815260200190815260200160002060030160019054906101000a900460ff16155b8015611040575081600301600082815260200190815260200160002060030160029054906101000a900460ff16155b61107f576040517f08c379a000000000000000000000000000000000000000000000000000000000815260040161107690614bce565b60405180910390fd5b8a60030160008b815260200190815260200160002060040160405180608001604052808d60030160008e8152602001908152602001600020600401805490508152602001600760ff16815260200163c10753298c8c8c8c6040516024016110e99493929190614a0f565b6040516020818303038152906040529060e01b6020820180517bffffffffffffffffffffffffffffffffffffffffffffffffffffffff838183161783525050505081526020016000151581525090806001815401808255809150506001900390600052602060002090600402016000909190919091506000820151816000015560208201518160010160006101000a81548160ff021916908360ff16021790555060408201518160020190805190602001906111a6929190613c95565b5060608201518160030160006101000a81548160ff021916908315150217905550505084156112725760018b60030160008c815260200190815260200160002060030160006101000a81548160ff0219169083151502179055507f7306ab933b6e1df1bd2fddce7143eeedd65d5996fada0e9168c4e8c3d1ece94d8b60030160008c815260200190815260200160002060000160009054906101000a900473ffffffffffffffffffffffffffffffffffffffff168b604051611269929190614af2565b60405180910390a15b5050505050505050505050565b86863373ffffffffffffffffffffffffffffffffffffffff1682600301600083815260200190815260200160002060000160009054906101000a900473ffffffffffffffffffffffffffffffffffffffff1673ffffffffffffffffffffffffffffffffffffffff1614611327576040517f08c379a000000000000000000000000000000000000000000000000000000000815260040161131e90614bce565b60405180910390fd5b888881600301600082815260200190815260200160002060030160009054906101000a900460ff1615801561137f575081600301600082815260200190815260200160002060030160019054906101000a900460ff16155b80156113ae575081600301600082815260200190815260200160002060030160029054906101000a900460ff16155b6113ed576040517f08c379a00000000000000000000000000000000000000000000000000000000081526004016113e490614bce565b60405180910390fd5b8a60030160008b815260200190815260200160002060040160405180608001604052808d60030160008e8152602001908152602001600020600401805490508152602001600660ff168152602001635676c77d8c8c8c8c60405160240161145794939291906149ca565b6040516020818303038152906040529060e01b6020820180517bffffffffffffffffffffffffffffffffffffffffffffffffffffffff838183161783525050505081526020016000151581525090806001815401808255809150506001900390600052602060002090600402016000909190919091506000820151816000015560208201518160010160006101000a81548160ff021916908360ff1602179055506040820151816002019080519060200190611514929190613c95565b5060608201518160030160006101000a81548160ff021916908315150217905550505084156115e05760018b60030160008c815260200190815260200160002060030160006101000a81548160ff0219169083151502179055507f7306ab933b6e1df1bd2fddce7143eeedd65d5996fada0e9168c4e8c3d1ece94d8b60030160008c815260200190815260200160002060000160009054906101000a900473ffffffffffffffffffffffffffffffffffffffff168b6040516115d7929190614af2565b60405180910390a15b5050505050505050505050565b88883373ffffffffffffffffffffffffffffffffffffffff1682600301600083815260200190815260200160002060000160009054906101000a900473ffffffffffffffffffffffffffffffffffffffff1673ffffffffffffffffffffffffffffffffffffffff1614611695576040517f08c379a000000000000000000000000000000000000000000000000000000000815260040161168c90614bce565b60405180910390fd5b8a8a81600301600082815260200190815260200160002060030160009054906101000a900460ff161580156116ed575081600301600082815260200190815260200160002060030160019054906101000a900460ff16155b801561171c575081600301600082815260200190815260200160002060030160029054906101000a900460ff16155b61175b576040517f08c379a000000000000000000000000000000000000000000000000000000000815260040161175290614bce565b60405180910390fd5b60008d60030160008e8152602001908152602001600020905080600401604051806080016040528083600401805490508152602001600360ff16815260200163155a73ce8f8f8f8f8f8f6040516024016117ba96959493929190614b1b565b6040516020818303038152906040529060e01b6020820180517bffffffffffffffffffffffffffffffffffffffffffffffffffffffff838183161783525050505081526020016000151581525090806001815401808255809150506001900390600052602060002090600402016000909190919091506000820151816000015560208201518160010160006101000a81548160ff021916908360ff1602179055506040820151816002019080519060200190611877929190613c95565b5060608201518160030160006101000a81548160ff0219169083151502179055505050851561191b5760018160030160006101000a81548160ff0219169083151502179055507f7306ab933b6e1df1bd2fddce7143eeedd65d5996fada0e9168c4e8c3d1ece94d8160000160009054906101000a900473ffffffffffffffffffffffffffffffffffffffff168e604051611912929190614af2565b60405180910390a15b5050505050505050505050505050565b86863373ffffffffffffffffffffffffffffffffffffffff1682600301600083815260200190815260200160002060000160009054906101000a900473ffffffffffffffffffffffffffffffffffffffff1673ffffffffffffffffffffffffffffffffffffffff16146119d3576040517f08c379a00000000000000000000000000000000000000000000000000000000081526004016119ca90614bce565b60405180910390fd5b888881600301600082815260200190815260200160002060030160009054906101000a900460ff16158015611a2b575081600301600082815260200190815260200160002060030160019054906101000a900460ff16155b8015611a5a575081600301600082815260200190815260200160002060030160029054906101000a900460ff16155b611a99576040517f08c379a0000000000000000000000000000000000000000000000000000000008152600401611a9090614bce565b60405180910390fd5b8a60030160008b815260200190815260200160002060040160405180608001604052808d60030160008e8152602001908152602001600020600401805490508152602001600860ff168152602001635e35359e8c8c8c8c604051602401611b039493929190614a0f565b6040516020818303038152906040529060e01b6020820180517bffffffffffffffffffffffffffffffffffffffffffffffffffffffff838183161783525050505081526020016000151581525090806001815401808255809150506001900390600052602060002090600402016000909190919091506000820151816000015560208201518160010160006101000a81548160ff021916908360ff1602179055506040820151816002019080519060200190611bc0929190613c95565b5060608201518160030160006101000a81548160ff02191690831515021790555050508415611c8c5760018b60030160008c815260200190815260200160002060030160006101000a81548160ff0219169083151502179055507f7306ab933b6e1df1bd2fddce7143eeedd65d5996fada0e9168c4e8c3d1ece94d8b60030160008c815260200190815260200160002060000160009054906101000a900473ffffffffffffffffffffffffffffffffffffffff168b604051611c83929190614af2565b60405180910390a15b5050505050505050505050565b81813373ffffffffffffffffffffffffffffffffffffffff1682600301600083815260200190815260200160002060000160009054906101000a900473ffffffffffffffffffffffffffffffffffffffff1673ffffffffffffffffffffffffffffffffffffffff1614611d41576040517f08c379a0000000000000000000000000000000000000000000000000000000008152600401611d3890614bce565b60405180910390fd5b838381600301600082815260200190815260200160002060030160009054906101000a900460ff16158015611d99575081600301600082815260200190815260200160002060030160019054906101000a900460ff16155b8015611dc8575081600301600082815260200190815260200160002060030160029054906101000a900460ff16155b611e07576040517f08c379a0000000000000000000000000000000000000000000000000000000008152600401611dfe90614bce565b60405180910390fd5b600186600301600087815260200190815260200160002060030160006101000a81548160ff0219169083151502179055507f7306ab933b6e1df1bd2fddce7143eeedd65d5996fada0e9168c4e8c3d1ece94d3386604051611e69929190614af2565b60405180910390a1505050505050565b84843373ffffffffffffffffffffffffffffffffffffffff1682600301600083815260200190815260200160002060000160009054906101000a900473ffffffffffffffffffffffffffffffffffffffff1673ffffffffffffffffffffffffffffffffffffffff1614611f21576040517f08c379a0000000000000000000000000000000000000000000000000000000008152600401611f1890614bce565b60405180910390fd5b868681600301600082815260200190815260200160002060030160009054906101000a900460ff16158015611f79575081600301600082815260200190815260200160002060030160019054906101000a900460ff16155b8015611fa8575081600301600082815260200190815260200160002060030160029054906101000a900460ff16155b611fe7576040517f08c379a0000000000000000000000000000000000000000000000000000000008152600401611fde90614bce565b60405180910390fd5b88600301600089815260200190815260200160002060040160405180608001604052808b60030160008c8152602001908152602001600020600401805490508152602001600260ff1681526020016376a6411c8a8a60405160240161204d929190614af2565b6040516020818303038152906040529060e01b6020820180517bffffffffffffffffffffffffffffffffffffffffffffffffffffffff838183161783525050505081526020016000151581525090806001815401808255809150506001900390600052602060002090600402016000909190919091506000820151816000015560208201518160010160006101000a81548160ff021916908360ff160217905550604082015181600201908051906020019061210a929190613c95565b5060608201518160030160006101000a81548160ff021916908315150217905550505084156121d65760018960030160008a815260200190815260200160002060030160006101000a81548160ff0219169083151502179055507f7306ab933b6e1df1bd2fddce7143eeedd65d5996fada0e9168c4e8c3d1ece94d8960030160008a815260200190815260200160002060000160009054906101000a900473ffffffffffffffffffffffffffffffffffffffff16896040516121cd929190614af2565b60405180910390a15b505050505050505050565b84843373ffffffffffffffffffffffffffffffffffffffff1682600301600083815260200190815260200160002060000160009054906101000a900473ffffffffffffffffffffffffffffffffffffffff1673ffffffffffffffffffffffffffffffffffffffff1614612289576040517f08c379a000000000000000000000000000000000000000000000000000000000815260040161228090614bce565b60405180910390fd5b868681600301600082815260200190815260200160002060030160009054906101000a900460ff161580156122e1575081600301600082815260200190815260200160002060030160019054906101000a900460ff16155b8015612310575081600301600082815260200190815260200160002060030160029054906101000a900460ff16155b61234f576040517f08c379a000000000000000000000000000000000000000000000000000000000815260040161234690614bce565b60405180910390fd5b88600301600089815260200190815260200160002060040160405180608001604052808b60030160008c8152602001908152602001600020600401805490508152602001600560ff1681526020016319b9404c8a8a6040516024016123b5929190614978565b6040516020818303038152906040529060e01b6020820180517bffffffffffffffffffffffffffffffffffffffffffffffffffffffff838183161783525050505081526020016000151581525090806001815401808255809150506001900390600052602060002090600402016000909190919091506000820151816000015560208201518160010160006101000a81548160ff021916908360ff1602179055506040820151816002019080519060200190612472929190613c95565b5060608201518160030160006101000a81548160ff0219169083151502179055505050841561253e5760018960030160008a815260200190815260200160002060030160006101000a81548160ff0219169083151502179055507f7306ab933b6e1df1bd2fddce7143eeedd65d5996fada0e9168c4e8c3d1ece94d8960030160008a815260200190815260200160002060000160009054906101000a900473ffffffffffffffffffffffffffffffffffffffff1689604051612535929190614af2565b60405180910390a15b505050505050505050565b86863373ffffffffffffffffffffffffffffffffffffffff1682600301600083815260200190815260200160002060000160009054906101000a900473ffffffffffffffffffffffffffffffffffffffff1673ffffffffffffffffffffffffffffffffffffffff16146125f1576040517f08c379a00000000000000000000000000000000000000000000000000000000081526004016125e890614bce565b60405180910390fd5b888881600301600082815260200190815260200160002060030160009054906101000a900460ff16158015612649575081600301600082815260200190815260200160002060030160019054906101000a900460ff16155b8015612678575081600301600082815260200190815260200160002060030160029054906101000a900460ff16155b6126b7576040517f08c379a00000000000000000000000000000000000000000000000000000000081526004016126ae90614bce565b60405180910390fd5b8a60030160008b815260200190815260200160002060040160405180608001604052808d60030160008e8152602001908152602001600020600401805490508152602001600760ff16815260200163c10753298c8c8b60405160240161271f93929190614a8b565b6040516020818303038152906040529060e01b6020820180517bffffffffffffffffffffffffffffffffffffffffffffffffffffffff838183161783525050505081526020016000151581525090806001815401808255809150506001900390600052602060002090600402016000909190919091506000820151816000015560208201518160010160006101000a81548160ff021916908360ff16021790555060408201518160020190805190602001906127dc929190613c95565b5060608201518160030160006101000a81548160ff021916908315150217905550505084156128a85760018b60030160008c815260200190815260200160002060030160006101000a81548160ff0219169083151502179055507f7306ab933b6e1df1bd2fddce7143eeedd65d5996fada0e9168c4e8c3d1ece94d8b60030160008c815260200190815260200160002060000160009054906101000a900473ffffffffffffffffffffffffffffffffffffffff168b60405161289f929190614af2565b60405180910390a15b5050505050505050505050565b85853373ffffffffffffffffffffffffffffffffffffffff1682600301600083815260200190815260200160002060000160009054906101000a900473ffffffffffffffffffffffffffffffffffffffff1673ffffffffffffffffffffffffffffffffffffffff161461295d576040517f08c379a000000000000000000000000000000000000000000000000000000000815260040161295490614bce565b60405180910390fd5b878781600301600082815260200190815260200160002060030160009054906101000a900460ff161580156129b5575081600301600082815260200190815260200160002060030160019054906101000a900460ff16155b80156129e4575081600301600082815260200190815260200160002060030160029054906101000a900460ff16155b612a23576040517f08c379a0000000000000000000000000000000000000000000000000000000008152600401612a1a90614bce565b60405180910390fd5b8960030160008a815260200190815260200160002060040160405180608001604052808c60030160008d8152602001908152602001600020600401805490508152602001600760ff16815260200163c10753298b8b8b604051602401612a8b93929190614a8b565b6040516020818303038152906040529060e01b6020820180517bffffffffffffffffffffffffffffffffffffffffffffffffffffffff838183161783525050505081526020016000151581525090806001815401808255809150506001900390600052602060002090600402016000909190919091506000820151816000015560208201518160010160006101000a81548160ff021916908360ff1602179055506040820151816002019080519060200190612b48929190613c95565b5060608201518160030160006101000a81548160ff02191690831515021790555050508415612c145760018a60030160008b815260200190815260200160002060030160006101000a81548160ff0219169083151502179055507f7306ab933b6e1df1bd2fddce7143eeedd65d5996fada0e9168c4e8c3d1ece94d8a60030160008b815260200190815260200160002060000160009054906101000a900473ffffffffffffffffffffffffffffffffffffffff168a604051612c0b929190614af2565b60405180910390a15b50505050505050505050565b6000808560040160008154809291906001019190505590503386600301600083815260200190815260200160002060000160006101000a81548173ffffffffffffffffffffffffffffffffffffffff021916908373ffffffffffffffffffffffffffffffffffffffff16021790555060405180606001604052808681526020018560ff1681526020018460ff168152508660030160008381526020019081526020016000206001016000820151816000015560208201518160010160006101000a81548160ff021916908360ff16021790555060408201518160010160016101000a81548160ff021916908360ff16021790555090505080915050949350505050565b84843373ffffffffffffffffffffffffffffffffffffffff1682600301600083815260200190815260200160002060000160009054906101000a900473ffffffffffffffffffffffffffffffffffffffff1673ffffffffffffffffffffffffffffffffffffffff1614612dcb576040517f08c379a0000000000000000000000000000000000000000000000000000000008152600401612dc290614bce565b60405180910390fd5b868681600301600082815260200190815260200160002060030160009054906101000a900460ff16158015612e23575081600301600082815260200190815260200160002060030160019054906101000a900460ff16155b8015612e52575081600301600082815260200190815260200160002060030160029054906101000a900460ff16155b612e91576040517f08c379a0000000000000000000000000000000000000000000000000000000008152600401612e8890614bce565b60405180910390fd5b88600301600089815260200190815260200160002060040160405180608001604052808b60030160008c8152602001908152602001600020600401805490508152602001600160ff168152602001631715f4de8a8a604051602401612ef7929190614ac2565b6040516020818303038152906040529060e01b6020820180517bffffffffffffffffffffffffffffffffffffffffffffffffffffffff838183161783525050505081526020016000151581525090806001815401808255809150506001900390600052602060002090600402016000909190919091506000820151816000015560208201518160010160006101000a81548160ff021916908360ff1602179055506040820151816002019080519060200190612fb4929190613c95565b5060608201518160030160006101000a81548160ff021916908315150217905550505084156130805760018960030160008a815260200190815260200160002060030160006101000a81548160ff0219169083151502179055507f7306ab933b6e1df1bd2fddce7143eeedd65d5996fada0e9168c4e8c3d1ece94d8960030160008a815260200190815260200160002060000160009054906101000a900473ffffffffffffffffffffffffffffffffffffffff1689604051613077929190614af2565b60405180910390a15b505050505050505050565b61309f816001613a8a90919063ffffffff16565b50565b86863373ffffffffffffffffffffffffffffffffffffffff1682600301600083815260200190815260200160002060000160009054906101000a900473ffffffffffffffffffffffffffffffffffffffff1673ffffffffffffffffffffffffffffffffffffffff161461314a576040517f08c379a000000000000000000000000000000000000000000000000000000000815260040161314190614bce565b60405180910390fd5b888881600301600082815260200190815260200160002060030160009054906101000a900460ff161580156131a2575081600301600082815260200190815260200160002060030160019054906101000a900460ff16155b80156131d1575081600301600082815260200190815260200160002060030160029054906101000a900460ff16155b613210576040517f08c379a000000000000000000000000000000000000000000000000000000000815260040161320790614bce565b60405180910390fd5b8a60030160008b815260200190815260200160002060040160405180608001604052808d60030160008e8152602001908152602001600020600401805490508152602001600860ff168152602001635e35359e8c8c8c8c60405160240161327a9493929190614a0f565b6040516020818303038152906040529060e01b6020820180517bffffffffffffffffffffffffffffffffffffffffffffffffffffffff838183161783525050505081526020016000151581525090806001815401808255809150506001900390600052602060002090600402016000909190919091506000820151816000015560208201518160010160006101000a81548160ff021916908360ff1602179055506040820151816002019080519060200190613337929190613c95565b5060608201518160030160006101000a81548160ff021916908315150217905550505084156134035760018b60030160008c815260200190815260200160002060030160006101000a81548160ff0219169083151502179055507f7306ab933b6e1df1bd2fddce7143eeedd65d5996fada0e9168c4e8c3d1ece94d8b60030160008c815260200190815260200160002060000160009054906101000a900473ffffffffffffffffffffffffffffffffffffffff168b6040516133fa929190614af2565b60405180910390a15b5050505050505050505050565b85853373ffffffffffffffffffffffffffffffffffffffff1682600301600083815260200190815260200160002060000160009054906101000a900473ffffffffffffffffffffffffffffffffffffffff1673ffffffffffffffffffffffffffffffffffffffff16146134b8576040517f08c379a00000000000000000000000000000000000000000000000000000000081526004016134af90614bce565b60405180910390fd5b878781600301600082815260200190815260200160002060030160009054906101000a900460ff16158015613510575081600301600082815260200190815260200160002060030160019054906101000a900460ff16155b801561353f575081600301600082815260200190815260200160002060030160029054906101000a900460ff16155b61357e576040517f08c379a000000000000000000000000000000000000000000000000000000000815260040161357590614bce565b60405180910390fd5b8960030160008a815260200190815260200160002060040160405180608001604052808c60030160008d8152602001908152602001600020600401805490508152602001600860ff168152602001635e35359e8b8b8b6040516024016135e693929190614a8b565b6040516020818303038152906040529060e01b6020820180517bffffffffffffffffffffffffffffffffffffffffffffffffffffffff838183161783525050505081526020016000151581525090806001815401808255809150506001900390600052602060002090600402016000909190919091506000820151816000015560208201518160010160006101000a81548160ff021916908360ff16021790555060408201518160020190805190602001906136a3929190613c95565b5060608201518160030160006101000a81548160ff0219169083151502179055505050841561376f5760018a60030160008b815260200190815260200160002060030160006101000a81548160ff0219169083151502179055507f7306ab933b6e1df1bd2fddce7143eeedd65d5996fada0e9168c4e8c3d1ece94d8a60030160008b815260200190815260200160002060000160009054906101000a900473ffffffffffffffffffffffffffffffffffffffff168a604051613766929190614af2565b60405180910390a15b50505050505050505050565b83833373ffffffffffffffffffffffffffffffffffffffff1682600301600083815260200190815260200160002060000160009054906101000a900473ffffffffffffffffffffffffffffffffffffffff1673ffffffffffffffffffffffffffffffffffffffff1614613823576040517f08c379a000000000000000000000000000000000000000000000000000000000815260040161381a90614bce565b60405180910390fd5b858581600301600082815260200190815260200160002060030160009054906101000a900460ff1615801561387b575081600301600082815260200190815260200160002060030160019054906101000a900460ff16155b80156138aa575081600301600082815260200190815260200160002060030160029054906101000a900460ff16155b6138e9576040517f08c379a00000000000000000000000000000000000000000000000000000000081526004016138e090614bce565b60405180910390fd5b87600301600088815260200190815260200160002060040160405180608001604052808a60030160008b8152602001908152602001600020600401805490508152602001600060ff1681526020018881526020016000151581525090806001815401808255809150506001900390600052602060002090600402016000909190919091506000820151816000015560208201518160010160006101000a81548160ff021916908360ff16021790555060408201518160020190805190602001906139b4929190613c95565b5060608201518160030160006101000a81548160ff02191690831515021790555050508415613a8057600188600301600089815260200190815260200160002060030160006101000a81548160ff0219169083151502179055507f7306ab933b6e1df1bd2fddce7143eeedd65d5996fada0e9168c4e8c3d1ece94d88600301600089815260200190815260200160002060000160009054906101000a900473ffffffffffffffffffffffffffffffffffffffff1688604051613a77929190614af2565b60405180910390a15b5050505050505050565b818181600301600082815260200190815260200160002060030160009054906101000a900460ff168015613ae1575081600301600082815260200190815260200160002060030160019054906101000a900460ff16155b8015613b10575081600301600082815260200190815260200160002060030160029054906101000a900460ff16155b613b4f576040517f08c379a0000000000000000000000000000000000000000000000000000000008152600401613b4690614bce565b60405180910390fd5b6000846003016000858152602001908152602001600020905060018160030160026101000a81548160ff02191690831515021790555060005b8160040180549050811015613be1576000826004018281548110613ba857fe5b9060005260206000209060040201905060018160030160006101000a81548160ff02191690831515021790555050806001019050613b88565b5060018160030160016101000a81548160ff0219169083151502179055507fd2c6e52f57352f08a7c9894b122d8440f1d87a7949ba8769fe444bf80b9e7a7e84604051613c2e9190614cb9565b60405180910390a15050505050565b6040518060c00160405280600073ffffffffffffffffffffffffffffffffffffffff168152602001613c6d613d15565b8152602001600015158152602001600015158152602001600015158152602001606081525090565b828054600181600116156101000203166002900490600052602060002090601f016020900481019282601f10613cd657805160ff1916838001178555613d04565b82800160010185558215613d04579182015b82811115613d03578251825591602001919060010190613ce8565b5b509050613d119190613d3f565b5090565b604051806060016040528060008019168152602001600060ff168152602001600060ff1681525090565b5b80821115613d58576000816000905550600101613d40565b5090565b600081359050613d6b81614f10565b92915050565b600081359050613d8081614f27565b92915050565b600082601f830112613d9757600080fd5b8135613daa613da582614d01565b614cd4565b91508181835260208401935060208101905083856080840282011115613dcf57600080fd5b60005b83811015613dff5781613de58882613edb565b845260208401935060808301925050600181019050613dd2565b5050505092915050565b600081359050613e1881614f3e565b92915050565b600081519050613e2d81614f3e565b92915050565b600081359050613e4281614f55565b92915050565b600081359050613e5781614f6c565b92915050565b600081519050613e6c81614f6c565b92915050565b600081359050613e8181614f83565b92915050565b600082601f830112613e9857600080fd5b8135613eab613ea682614d29565b614cd4565b91508082526020830160208301858383011115613ec757600080fd5b613ed2838284614ebd565b50505092915050565b600060808284031215613eed57600080fd5b613ef76080614cd4565b90506000613f0784828501613d5c565b6000830152506020613f1b84828501613e48565b6020830152506040613f2f84828501613f64565b6040830152506060613f4384828501613f64565b60608301525092915050565b600081359050613f5e81614f9a565b92915050565b600081359050613f7381614fb1565b92915050565b600081519050613f8881614fb1565b92915050565b600060208284031215613fa057600080fd5b6000613fae84828501613d71565b91505092915050565b600060208284031215613fc957600080fd5b6000613fd784828501613e1e565b91505092915050565b600080600060608486031215613ff557600080fd5b600061400386828701613e48565b935050602061401486828701613f64565b925050604061402586828701613f64565b9150509250925092565b60008060006060848603121561404457600080fd5b600061405286828701613e5d565b935050602061406386828701613f79565b925050604061407486828701613f79565b9150509250925092565b60006020828403121561409057600080fd5b600061409e84828501613e72565b91505092915050565b6000602082840312156140b957600080fd5b60006140c784828501613f4f565b91505092915050565b60008060008060008060c087890312156140e957600080fd5b60006140f789828a01613f4f565b965050602061410889828a01613d71565b955050604061411989828a01613d5c565b945050606061412a89828a01613d5c565b935050608061413b89828a01613e33565b92505060a061414c89828a01613e09565b9150509295509295509295565b60008060008060008060c0878903121561417257600080fd5b600061418089828a01613f4f565b965050602061419189828a01613d71565b95505060406141a289828a01613d5c565b94505060606141b389828a01613d5c565b93505060806141c489828a01613f4f565b92505060a06141d589828a01613e09565b9150509295509295509295565b600080600080608085870312156141f857600080fd5b600061420687828801613f4f565b945050602061421787828801613d71565b935050604061422887828801613d5c565b925050606061423987828801613e09565b91505092959194509250565b600080600080600060a0868803121561425d57600080fd5b600061426b88828901613f4f565b955050602061427c88828901613d71565b945050604061428d88828901613d5c565b935050606061429e88828901613e33565b92505060806142af88828901613e09565b9150509295509295909350565b600080600080600060a086880312156142d457600080fd5b60006142e288828901613f4f565b95505060206142f388828901613d71565b945050604061430488828901613d5c565b935050606061431588828901613f4f565b925050608061432688828901613e09565b9150509295509295909350565b6000806000806080858703121561434957600080fd5b600061435787828801613f4f565b945050602061436887828801613d71565b935050604085013567ffffffffffffffff81111561438557600080fd5b61439187828801613d86565b92505060606143a287828801613e09565b91505092959194509250565b600080600080600080600080610100898b0312156143cb57600080fd5b60006143d98b828c01613f4f565b98505060206143ea8b828c01613d71565b97505060406143fb8b828c01613f4f565b965050606061440c8b828c01613d71565b955050608061441d8b828c01613e48565b94505060a061442e8b828c01613f64565b93505060c061443f8b828c01613f64565b92505060e06144508b828c01613e09565b9150509295985092959890939650565b6000806000806080858703121561447657600080fd5b600061448487828801613f4f565b945050602061449587828801613d71565b93505060406144a687828801613f4f565b92505060606144b787828801613e09565b91505092959194509250565b6000806000606084860312156144d857600080fd5b60006144e686828701613f4f565b935050602084013567ffffffffffffffff81111561450357600080fd5b61450f86828701613e87565b925050604061452086828701613e09565b9150509250925092565b60006145368383614787565b60808301905092915050565b600061454e83836148a8565b905092915050565b61455f81614e06565b82525050565b61456e81614e06565b82525050565b61457d81614e06565b82525050565b61458c81614df4565b82525050565b61459b81614df4565b82525050565b60006145ac82614d75565b6145b68185614db0565b93506145c183614d55565b8060005b838110156145f25781516145d9888261452a565b97506145e483614d96565b9250506001810190506145c5565b5085935050505092915050565b600061460a82614d80565b6146148185614dc1565b93508360208202850161462685614d65565b8060005b8581101561466257848403895281516146438582614542565b945061464e83614da3565b925060208a0199505060018101905061462a565b50829750879550505050505092915050565b61467d81614e18565b82525050565b61468c81614e18565b82525050565b61469b81614e24565b82525050565b6146aa81614e50565b82525050565b6146b981614e50565b82525050565b6146c881614e50565b82525050565b60006146d982614d8b565b6146e38185614dd2565b93506146f3818560208601614ecc565b6146fc81614eff565b840191505092915050565b6000614714600f83614de3565b91507f4e6f7420617574686f72697a65642e00000000000000000000000000000000006000830152602082019050919050565b6000614754600e83614de3565b91507f4e6f7420617574686f72697a65640000000000000000000000000000000000006000830152602082019050919050565b60808201600082015161479d6000850182614583565b5060208201516147b060208501826146a1565b5060408201516147c36040850182614930565b5060608201516147d66060850182614930565b50505050565b6060820160008201516147f260008501826146a1565b5060208201516148056020850182614930565b5060408201516148186040850182614930565b50505050565b6000610100830160008301516148376000860182614556565b50602083015161484a60208601826147dc565b50604083015161485d6080860182614674565b50606083015161487060a0860182614674565b50608083015161488360c0860182614674565b5060a083015184820360e086015261489b82826145ff565b9150508091505092915050565b60006080830160008301516148c06000860182614912565b5060208301516148d36020860182614930565b50604083015184820360408601526148eb82826146ce565b91505060608301516149006060860182614674565b508091505092915050565b8082525050565b61491b81614ea6565b82525050565b61492a81614ea6565b82525050565b61493981614eb0565b82525050565b61494881614eb0565b82525050565b61495781614eb0565b82525050565b60006020820190506149726000830184614565565b92915050565b600060408201905061498d6000830185614565565b61499a6020830184614592565b9392505050565b60006040820190506149b66000830185614574565b6149c36020830184614574565b9392505050565b60006080820190506149df6000830187614565565b6149ec6020830186614592565b6149f96040830185614592565b614a066060830184614692565b95945050505050565b6000608082019050614a246000830187614565565b614a316020830186614592565b614a3e6040830185614592565b614a4b6060830184614921565b95945050505050565b6000606082019050614a696000830186614565565b614a766020830185614592565b614a836040830184614692565b949350505050565b6000606082019050614aa06000830186614565565b614aad6020830185614592565b614aba6040830184614921565b949350505050565b6000604082019050614ad76000830185614565565b8181036020830152614ae981846145a1565b90509392505050565b6000604082019050614b076000830185614565565b614b146020830184614921565b9392505050565b600060c082019050614b306000830189614565565b614b3d6020830188614921565b614b4a6040830187614565565b614b5760608301866146b0565b614b64608083018561493f565b614b7160a083018461493f565b979650505050505050565b6000602082019050614b916000830184614683565b92915050565b6000606082019050614bac60008301866146b0565b614bb9602083018561493f565b614bc6604083018461493f565b949350505050565b60006020820190508181036000830152614be781614707565b9050919050565b60006020820190508181036000830152614c0781614747565b9050919050565b60006020820190508181036000830152614c28818461481e565b905092915050565b6000602082019050614c45600083018461490b565b92915050565b6000604082019050614c60600083018561490b565b614c6d6020830184614574565b9392505050565b6000608082019050614c89600083018761490b565b614c9660208301866146bf565b614ca3604083018561494e565b614cb0606083018461494e565b95945050505050565b6000602082019050614cce6000830184614921565b92915050565b6000604051905081810181811067ffffffffffffffff82111715614cf757600080fd5b8060405250919050565b600067ffffffffffffffff821115614d1857600080fd5b602082029050602081019050919050565b600067ffffffffffffffff821115614d4057600080fd5b601f19601f8301169050602081019050919050565b6000819050602082019050919050565b6000819050602082019050919050565b600081519050919050565b600081519050919050565b600081519050919050565b6000602082019050919050565b6000602082019050919050565b600082825260208201905092915050565b600082825260208201905092915050565b600082825260208201905092915050565b600082825260208201905092915050565b6000614dff82614e86565b9050919050565b6000614e1182614e86565b9050919050565b60008115159050919050565b60007fffff00000000000000000000000000000000000000000000000000000000000082169050919050565b6000819050919050565b60007fffffffff0000000000000000000000000000000000000000000000000000000082169050919050565b600073ffffffffffffffffffffffffffffffffffffffff82169050919050565b6000819050919050565b600060ff82169050919050565b82818337600083830152505050565b60005b83811015614eea578082015181840152602081019050614ecf565b83811115614ef9576000848401525b50505050565b6000601f19601f8301169050919050565b614f1981614df4565b8114614f2457600080fd5b50565b614f3081614e06565b8114614f3b57600080fd5b50565b614f4781614e18565b8114614f5257600080fd5b50565b614f5e81614e24565b8114614f6957600080fd5b50565b614f7581614e50565b8114614f8057600080fd5b50565b614f8c81614e5a565b8114614f9757600080fd5b50565b614fa381614ea6565b8114614fae57600080fd5b50565b614fba81614eb0565b8114614fc557600080fd5b5056fea2646970667358221220a04fb1b9c8ca8528ea4935f49b566e765383196ea2937678fb6aca1d50afcac464736f6c634300060c0033",
  "immutableReferences": {},
  "source": "// SPDX-License-Identifier: LGPL-3.0-or-later\npragma solidity ^0.6.0;\npragma experimental ABIEncoderV2;\n\n/**\n    Nomination procedure.\n    A nomination applies an effect if nominator is in the nominaters organ.\n*/\n\nimport \"../Procedure.sol\";\n\ncontract SimpleNominationProcedure is Procedure {\n    address payable public nominatersOrgan;\n    bytes4 private constant _INTERFACE_NOMINATION = 0xc5f28e49; // nominate().\n\n    constructor (\n        bytes32 _metadataIpfsHash, uint8 _metadataHashFunction, uint8 _metadataHashSize,\n        address payable _nominatersOrgan\n    ) Procedure (_metadataIpfsHash, _metadataHashFunction, _metadataHashSize)\n        public\n    {\n        // Register EIP165 interface for introspection.\n        _registerInterface(_INTERFACE_NOMINATION);\n        nominatersOrgan = _nominatersOrgan;\n    }\n\n    function nominate(uint256 moveKey)\n        public onlyInOrgan(nominatersOrgan)\n    {\n        Procedure.applyMove(moveKey);\n    }\n}",
  "sourcePath": "/Users/alex/Code/organigr.am/packages/@organigram/contracts/contracts/procedures/SimpleNomination.sol",
  "compiler": {
    "name": "solc",
    "version": "0.6.12+commit.27d51765.Emscripten.clang"
  },
  "schemaVersion": "3.3.2",
  "updatedAt": "2020-12-03T01:02:36.144Z",
  "networkType": "ethereum",
  "devdoc": {
    "kind": "dev",
    "methods": {
      "supportsInterface(bytes4)": {
        "details": "See {IERC165-supportsInterface}. Time complexity O(1), guaranteed to always use less than 30 000 gas."
      }
    },
    "version": 1
  },
  "userdoc": {
    "kind": "user",
    "methods": {
      "createMove(bytes32,uint8,uint8)": {
        "notice": "Public API : Moves creation and update."
      },
      "updateMetadata(bytes32,uint8,uint8)": {
        "notice": "Public API : Procedure Metadata and Admin."
      }
    },
    "version": 1
  }
}