{
  "contractName": "SimpleNominationProcedure",
  "abi": [
    {
      "inputs": [
        {
          "internalType": "bytes32",
          "name": "_metadataIpfsHash",
          "type": "bytes32"
        },
        {
          "internalType": "uint8",
          "name": "_metadataHashFunction",
          "type": "uint8"
        },
        {
          "internalType": "uint8",
          "name": "_metadataHashSize",
          "type": "uint8"
        },
        {
          "internalType": "address payable",
          "name": "_nominatersOrgan",
          "type": "address"
        }
      ],
      "stateMutability": "nonpayable",
      "type": "constructor"
    },
    {
      "inputs": [
        {
          "internalType": "bytes32",
          "name": "ipfsHash",
          "type": "bytes32"
        },
        {
          "internalType": "uint8",
          "name": "hashFunction",
          "type": "uint8"
        },
        {
          "internalType": "uint8",
          "name": "hashSize",
          "type": "uint8"
        }
      ],
      "name": "createMove",
      "outputs": [
        {
          "internalType": "uint256",
          "name": "",
          "type": "uint256"
        }
      ],
      "stateMutability": "nonpayable",
      "type": "function"
    },
    {
      "inputs": [],
      "name": "getKelsenData",
      "outputs": [
        {
          "internalType": "bool",
          "name": "",
          "type": "bool"
        },
        {
          "internalType": "bool",
          "name": "",
          "type": "bool"
        },
        {
          "internalType": "uint8",
          "name": "",
          "type": "uint8"
        }
      ],
      "stateMutability": "view",
      "type": "function",
      "constant": true
    },
    {
      "inputs": [],
      "name": "getMetadata",
      "outputs": [
        {
          "internalType": "bytes32",
          "name": "ipfsHash",
          "type": "bytes32"
        },
        {
          "internalType": "uint8",
          "name": "hashFunction",
          "type": "uint8"
        },
        {
          "internalType": "uint8",
          "name": "hashSize",
          "type": "uint8"
        }
      ],
      "stateMutability": "view",
      "type": "function",
      "constant": true
    },
    {
      "inputs": [
        {
          "internalType": "uint256",
          "name": "moveKey",
          "type": "uint256"
        }
      ],
      "name": "getMove",
      "outputs": [
        {
          "components": [
            {
              "internalType": "address payable",
              "name": "creator",
              "type": "address"
            },
            {
              "components": [
                {
                  "internalType": "bytes32",
                  "name": "ipfsHash",
                  "type": "bytes32"
                },
                {
                  "internalType": "uint8",
                  "name": "hashFunction",
                  "type": "uint8"
                },
                {
                  "internalType": "uint8",
                  "name": "hashSize",
                  "type": "uint8"
                }
              ],
              "internalType": "struct ProcedureLibrary.Metadata",
              "name": "metadata",
              "type": "tuple"
            },
            {
              "internalType": "bool",
              "name": "locked",
              "type": "bool"
            },
            {
              "internalType": "bool",
              "name": "applied",
              "type": "bool"
            },
            {
              "internalType": "bool",
              "name": "processing",
              "type": "bool"
            },
            {
              "components": [
                {
                  "internalType": "uint256",
                  "name": "index",
                  "type": "uint256"
                },
                {
                  "internalType": "uint8",
                  "name": "operationType",
                  "type": "uint8"
                },
                {
                  "internalType": "bytes",
                  "name": "call",
                  "type": "bytes"
                },
                {
                  "internalType": "bool",
                  "name": "processed",
                  "type": "bool"
                }
              ],
              "internalType": "struct ProcedureLibrary.Operation[]",
              "name": "operations",
              "type": "tuple[]"
            }
          ],
          "internalType": "struct ProcedureLibrary.Move",
          "name": "move",
          "type": "tuple"
        }
      ],
      "stateMutability": "view",
      "type": "function",
      "constant": true
    },
    {
      "inputs": [],
      "name": "getMovesLength",
      "outputs": [
        {
          "internalType": "uint256",
          "name": "length",
          "type": "uint256"
        }
      ],
      "stateMutability": "view",
      "type": "function",
      "constant": true
    },
    {
      "inputs": [],
      "name": "isOrgan",
      "outputs": [
        {
          "internalType": "bool",
          "name": "",
          "type": "bool"
        }
      ],
      "stateMutability": "view",
      "type": "function",
      "constant": true
    },
    {
      "inputs": [],
      "name": "isProcedure",
      "outputs": [
        {
          "internalType": "bool",
          "name": "",
          "type": "bool"
        }
      ],
      "stateMutability": "view",
      "type": "function",
      "constant": true
    },
    {
      "inputs": [],
      "name": "kelsenVersion",
      "outputs": [
        {
          "internalType": "uint8",
          "name": "",
          "type": "uint8"
        }
      ],
      "stateMutability": "view",
      "type": "function",
      "constant": true
    },
    {
      "inputs": [
        {
          "internalType": "uint256",
          "name": "moveKey",
          "type": "uint256"
        }
      ],
      "name": "lockMove",
      "outputs": [],
      "stateMutability": "nonpayable",
      "type": "function"
    },
    {
      "inputs": [
        {
          "internalType": "uint256",
          "name": "moveKey",
          "type": "uint256"
        },
        {
          "internalType": "address payable",
          "name": "organ",
          "type": "address"
        },
        {
          "components": [
            {
              "internalType": "address",
              "name": "addr",
              "type": "address"
            },
            {
              "internalType": "bytes32",
              "name": "ipfsHash",
              "type": "bytes32"
            },
            {
              "internalType": "uint8",
              "name": "hashFunction",
              "type": "uint8"
            },
            {
              "internalType": "uint8",
              "name": "hashSize",
              "type": "uint8"
            }
          ],
          "internalType": "struct OrganLibrary.Entry[]",
          "name": "entries",
          "type": "tuple[]"
        },
        {
          "internalType": "bool",
          "name": "lock",
          "type": "bool"
        }
      ],
      "name": "moveAddEntries",
      "outputs": [],
      "stateMutability": "nonpayable",
      "type": "function"
    },
    {
      "inputs": [
        {
          "internalType": "uint256",
          "name": "moveKey",
          "type": "uint256"
        },
        {
          "internalType": "address payable",
          "name": "organ",
          "type": "address"
        },
        {
          "internalType": "address",
          "name": "procedure",
          "type": "address"
        },
        {
          "internalType": "bytes2",
          "name": "permissions",
          "type": "bytes2"
        },
        {
          "internalType": "bool",
          "name": "lock",
          "type": "bool"
        }
      ],
      "name": "moveAddProcedure",
      "outputs": [],
      "stateMutability": "nonpayable",
      "type": "function"
    },
    {
      "inputs": [
        {
          "internalType": "uint256",
          "name": "moveKey",
          "type": "uint256"
        },
        {
          "internalType": "bytes",
          "name": "call",
          "type": "bytes"
        },
        {
          "internalType": "bool",
          "name": "lock",
          "type": "bool"
        }
      ],
      "name": "moveCall",
      "outputs": [],
      "stateMutability": "nonpayable",
      "type": "function"
    },
    {
      "inputs": [
        {
          "internalType": "uint256",
          "name": "moveKey",
          "type": "uint256"
        },
        {
          "internalType": "address payable",
          "name": "organ",
          "type": "address"
        },
        {
          "internalType": "address",
          "name": "operator",
          "type": "address"
        },
        {
          "internalType": "address",
          "name": "target",
          "type": "address"
        },
        {
          "internalType": "uint256",
          "name": "value",
          "type": "uint256"
        },
        {
          "internalType": "bool",
          "name": "lock",
          "type": "bool"
        }
      ],
      "name": "moveReceiveCoins",
      "outputs": [],
      "stateMutability": "nonpayable",
      "type": "function"
    },
    {
      "inputs": [
        {
          "internalType": "uint256",
          "name": "moveKey",
          "type": "uint256"
        },
        {
          "internalType": "address payable",
          "name": "organ",
          "type": "address"
        },
        {
          "internalType": "address",
          "name": "operator",
          "type": "address"
        },
        {
          "internalType": "address",
          "name": "target",
          "type": "address"
        },
        {
          "internalType": "uint256",
          "name": "token_id",
          "type": "uint256"
        },
        {
          "internalType": "bool",
          "name": "lock",
          "type": "bool"
        }
      ],
      "name": "moveReceiveCollectible",
      "outputs": [],
      "stateMutability": "nonpayable",
      "type": "function"
    },
    {
      "inputs": [
        {
          "internalType": "uint256",
          "name": "moveKey",
          "type": "uint256"
        },
        {
          "internalType": "address payable",
          "name": "organ",
          "type": "address"
        },
        {
          "internalType": "address",
          "name": "target",
          "type": "address"
        },
        {
          "internalType": "uint256",
          "name": "value",
          "type": "uint256"
        },
        {
          "internalType": "bool",
          "name": "lock",
          "type": "bool"
        }
      ],
      "name": "moveReceiveEther",
      "outputs": [],
      "stateMutability": "nonpayable",
      "type": "function"
    },
    {
      "inputs": [
        {
          "internalType": "uint256",
          "name": "moveKey",
          "type": "uint256"
        },
        {
          "internalType": "address payable",
          "name": "organ",
          "type": "address"
        },
        {
          "internalType": "uint256",
          "name": "indexes",
          "type": "uint256"
        },
        {
          "internalType": "bool",
          "name": "lock",
          "type": "bool"
        }
      ],
      "name": "moveRemoveEntry",
      "outputs": [],
      "stateMutability": "nonpayable",
      "type": "function"
    },
    {
      "inputs": [
        {
          "internalType": "uint256",
          "name": "moveKey",
          "type": "uint256"
        },
        {
          "internalType": "address payable",
          "name": "organ",
          "type": "address"
        },
        {
          "internalType": "address",
          "name": "procedure",
          "type": "address"
        },
        {
          "internalType": "bool",
          "name": "lock",
          "type": "bool"
        }
      ],
      "name": "moveRemoveProcedure",
      "outputs": [],
      "stateMutability": "nonpayable",
      "type": "function"
    },
    {
      "inputs": [
        {
          "internalType": "uint256",
          "name": "moveKey",
          "type": "uint256"
        },
        {
          "internalType": "address payable",
          "name": "organ",
          "type": "address"
        },
        {
          "internalType": "uint256",
          "name": "index",
          "type": "uint256"
        },
        {
          "internalType": "address payable",
          "name": "addr",
          "type": "address"
        },
        {
          "internalType": "bytes32",
          "name": "ipfsHash",
          "type": "bytes32"
        },
        {
          "internalType": "uint8",
          "name": "hashFunction",
          "type": "uint8"
        },
        {
          "internalType": "uint8",
          "name": "hashSize",
          "type": "uint8"
        },
        {
          "internalType": "bool",
          "name": "lock",
          "type": "bool"
        }
      ],
      "name": "moveReplaceEntry",
      "outputs": [],
      "stateMutability": "nonpayable",
      "type": "function"
    },
    {
      "inputs": [
        {
          "internalType": "uint256",
          "name": "moveKey",
          "type": "uint256"
        },
        {
          "internalType": "address payable",
          "name": "organ",
          "type": "address"
        },
        {
          "internalType": "address",
          "name": "oldProcedure",
          "type": "address"
        },
        {
          "internalType": "address",
          "name": "newProcedure",
          "type": "address"
        },
        {
          "internalType": "bytes2",
          "name": "permissions",
          "type": "bytes2"
        },
        {
          "internalType": "bool",
          "name": "lock",
          "type": "bool"
        }
      ],
      "name": "moveReplaceProcedure",
      "outputs": [],
      "stateMutability": "nonpayable",
      "type": "function"
    },
    {
      "inputs": [
        {
          "internalType": "uint256",
          "name": "moveKey",
          "type": "uint256"
        },
        {
          "internalType": "address payable",
          "name": "organ",
          "type": "address"
        },
        {
          "internalType": "address",
          "name": "operator",
          "type": "address"
        },
        {
          "internalType": "address",
          "name": "target",
          "type": "address"
        },
        {
          "internalType": "uint256",
          "name": "value",
          "type": "uint256"
        },
        {
          "internalType": "bool",
          "name": "lock",
          "type": "bool"
        }
      ],
      "name": "moveTransferCoins",
      "outputs": [],
      "stateMutability": "nonpayable",
      "type": "function"
    },
    {
      "inputs": [
        {
          "internalType": "uint256",
          "name": "moveKey",
          "type": "uint256"
        },
        {
          "internalType": "address payable",
          "name": "organ",
          "type": "address"
        },
        {
          "internalType": "address",
          "name": "operator",
          "type": "address"
        },
        {
          "internalType": "address",
          "name": "target",
          "type": "address"
        },
        {
          "internalType": "uint256",
          "name": "token_id",
          "type": "uint256"
        },
        {
          "internalType": "bool",
          "name": "lock",
          "type": "bool"
        }
      ],
      "name": "moveTransferCollectible",
      "outputs": [],
      "stateMutability": "nonpayable",
      "type": "function"
    },
    {
      "inputs": [
        {
          "internalType": "uint256",
          "name": "moveKey",
          "type": "uint256"
        },
        {
          "internalType": "address payable",
          "name": "organ",
          "type": "address"
        },
        {
          "internalType": "address",
          "name": "target",
          "type": "address"
        },
        {
          "internalType": "uint256",
          "name": "value",
          "type": "uint256"
        },
        {
          "internalType": "bool",
          "name": "lock",
          "type": "bool"
        }
      ],
      "name": "moveTransferEther",
      "outputs": [],
      "stateMutability": "nonpayable",
      "type": "function"
    },
    {
      "inputs": [],
      "name": "nominatersOrgan",
      "outputs": [
        {
          "internalType": "address payable",
          "name": "",
          "type": "address"
        }
      ],
      "stateMutability": "view",
      "type": "function",
      "constant": true
    },
    {
      "inputs": [
        {
          "internalType": "address payable",
          "name": "admin",
          "type": "address"
        }
      ],
      "name": "updateAdmin",
      "outputs": [],
      "stateMutability": "nonpayable",
      "type": "function"
    },
    {
      "inputs": [
        {
          "internalType": "bytes32",
          "name": "ipfsHash",
          "type": "bytes32"
        },
        {
          "internalType": "uint8",
          "name": "hashFunction",
          "type": "uint8"
        },
        {
          "internalType": "uint8",
          "name": "hashSize",
          "type": "uint8"
        }
      ],
      "name": "updateMetadata",
      "outputs": [],
      "stateMutability": "nonpayable",
      "type": "function"
    },
    {
      "inputs": [
        {
          "internalType": "uint256",
          "name": "moveKey",
          "type": "uint256"
        }
      ],
      "name": "nominate",
      "outputs": [],
      "stateMutability": "nonpayable",
      "type": "function"
    }
  ],
  "bytecode": "0x608060405260036000806101000a81548160ff021916908360ff1602179055503480156200002c57600080fd5b506040516200538838038062005388833981810160405281019062000052919062000196565b8383836000600181600060016101000a81548160ff02191690831515021790555080600060026101000a81548160ff0219169083151502179055505050600173__ProcedureLibrary______________________63359a395d90918585856040518563ffffffff1660e01b8152600401620000d194939291906200022b565b60006040518083038186803b158015620000ea57600080fd5b505af4158015620000ff573d6000803e3d6000fd5b5050505050505080600660006101000a81548173ffffffffffffffffffffffffffffffffffffffff021916908373ffffffffffffffffffffffffffffffffffffffff1602179055505050505062000311565b6000815190506200016281620002c3565b92915050565b6000815190506200017981620002dd565b92915050565b6000815190506200019081620002f7565b92915050565b60008060008060808587031215620001ad57600080fd5b6000620001bd8782880162000168565b9450506020620001d0878288016200017f565b9350506040620001e3878288016200017f565b9250506060620001f68782880162000151565b91505092959194509250565b6200020d816200028c565b82525050565b8082525050565b6200022581620002b6565b82525050565b600060808201905062000242600083018762000213565b62000251602083018662000202565b6200026060408301856200021a565b6200026f60608301846200021a565b95945050505050565b6000620002858262000296565b9050919050565b6000819050919050565b600073ffffffffffffffffffffffffffffffffffffffff82169050919050565b600060ff82169050919050565b620002ce8162000278565b8114620002da57600080fd5b50565b620002e8816200028c565b8114620002f457600080fd5b50565b6200030281620002b6565b81146200030e57600080fd5b50565b61506780620003216000396000f3fe608060405234801561001057600080fd5b506004361061018e5760003560e01c80637a5b4f59116100de578063c5f28e4911610097578063cc12503111610071578063cc12503114610433578063e2a6ed041461044f578063e2f273bd1461046d578063fa160aa2146104895761018e565b8063c5f28e49146103dd578063c91ebea8146103f9578063cb6bc9ff146104175761018e565b80637a5b4f591461031b5780637c3a5fcc1461033b5780637ee7fa401461035757806390f2ee2214610373578063a2b58cda14610391578063c492f463146103c15761018e565b806352c041b21161014b5780636322ab20116101255780636322ab201461029557806367c322d0146102b157806371dbd330146102cd578063759913d6146102fd5761018e565b806352c041b2146102415780635a31b5601461025d5780635ba357dc146102795761018e565b80630b5522a914610193578063148a2005146101af578063249abcf7146101cb5780632c1d5337146101eb57806339c2ae70146102075780633e9a9bd814610223575b600080fd5b6101ad60048036038101906101a8919061429f565b6104a5565b005b6101c960048036038101906101c491906141b3565b6104c8565b005b6101d36104ee565b6040516101e293929190614bf1565b60405180910390f35b6102056004803603810190610200919061412a565b61052b565b005b610221600480360381019061021c9190614063565b610551565b005b61022b6105c6565b6040516102389190614d4a565b60405180910390f35b61025b60048036038101906102569190614408565b6105d3565b005b610277600480360381019061027291906141b3565b6105ff565b005b610293600480360381019061028e9190614101565b610625565b005b6102af60048036038101906102aa91906144ba565b61063c565b005b6102cb60048036038101906102c6919061423c565b61065c565b005b6102e760048036038101906102e29190614101565b61067c565b6040516102f49190614c9f565b60405180910390f35b6103056108ee565b6040516103129190614d65565b60405180910390f35b6103236108ff565b60405161033293929190614c28565b60405180910390f35b610355600480360381019061035091906141b3565b610999565b005b610371600480360381019061036c9190614316565b6109bf565b005b61037b6109e2565b6040516103889190614bd6565b60405180910390f35b6103ab60048036038101906103a69190614063565b6109f5565b6040516103b89190614d4a565b60405180910390f35b6103db60048036038101906103d6919061438d565b610a18565b005b6103f760048036038101906103f29190614101565b610a38565b005b610401610b30565b60405161040e9190614bd6565b60405180910390f35b610431600480360381019061042c91906141b3565b610b43565b005b61044d60048036038101906104489190614316565b610b69565b005b610457610b8c565b60405161046491906149b7565b60405180910390f35b61048760048036038101906104829190614011565b610bb2565b005b6104a3600480360381019061049e919061451d565b610c21565b005b6104c185858585856001610c3e9095949392919063ffffffff16565b5050505050565b6104e68686868686866001610fa9909695949392919063ffffffff16565b505050505050565b60008060008060019054906101000a900460ff16600060029054906101000a900460ff1660008054906101000a900460ff16925092509250909192565b6105498686868686866001611317909695949392919063ffffffff16565b505050505050565b600173__ProcedureLibrary______________________63b8cc9a0290918585856040518563ffffffff1660e01b81526004016105919493929190614d05565b60006040518083038186803b1580156105a957600080fd5b505af41580156105bd573d6000803e3d6000fd5b50505050505050565b6000600160040154905090565b6105f5888888888888888860016116859098979695949392919063ffffffff16565b5050505050505050565b61061d86868686868660016119c3909695949392919063ffffffff16565b505050505050565b610639816001611d3190919063ffffffff16565b50565b610656848484846001611f1190949392919063ffffffff16565b50505050565b61067684848484600161227990949392919063ffffffff16565b50505050565b610684613cd5565b600160030160008381526020019081526020016000206040518060c00160405290816000820160009054906101000a900473ffffffffffffffffffffffffffffffffffffffff1673ffffffffffffffffffffffffffffffffffffffff1673ffffffffffffffffffffffffffffffffffffffff16815260200160018201604051806060016040529081600082015481526020016001820160009054906101000a900460ff1660ff1660ff1681526020016001820160019054906101000a900460ff1660ff1660ff168152505081526020016003820160009054906101000a900460ff161515151581526020016003820160019054906101000a900460ff161515151581526020016003820160029054906101000a900460ff1615151515815260200160048201805480602002602001604051908101604052809291908181526020016000905b828210156108df5783829060005260206000209060040201604051806080016040529081600082015481526020016001820160009054906101000a900460ff1660ff1660ff168152602001600282018054600181600116156101000203166002900480601f0160208091040260200160405190810160405280929190818152602001828054600181600116156101000203166002900480156108ac5780601f10610881576101008083540402835291602001916108ac565b820191906000526020600020905b81548152906001019060200180831161088f57829003601f168201915b505050505081526020016003820160009054906101000a900460ff161515151581525050815260200190600101906107c9565b50505050815250509050919050565b60008054906101000a900460ff1681565b6000806000600173__ProcedureLibrary______________________6383fecb1a90916040518263ffffffff1660e01b815260040161093e9190614cc1565b60606040518083038186803b15801561095657600080fd5b505af415801561096a573d6000803e3d6000fd5b505050506040513d601f19601f8201168201806040525081019061098e91906140b2565b925092509250909192565b6109b786868686868660016125e1909695949392919063ffffffff16565b505050505050565b6109db8585858585600161294d9095949392919063ffffffff16565b5050505050565b600060019054906101000a900460ff1681565b6000610a0f8484846001612cb8909392919063ffffffff16565b90509392505050565b610a32848484846001612dbb90949392919063ffffffff16565b50505050565b600660009054906101000a900473ffffffffffffffffffffffffffffffffffffffff1673__ProcedureLibrary______________________637c3b86fe82336040518363ffffffff1660e01b8152600401610a949291906149fb565b60206040518083038186803b158015610aac57600080fd5b505af4158015610ac0573d6000803e3d6000fd5b505050506040513d601f19601f82011682018060405250810190610ae4919061403a565b610b23576040517f08c379a0000000000000000000000000000000000000000000000000000000008152600401610b1a90614c7f565b60405180910390fd5b610b2c82613123565b5050565b600060029054906101000a900460ff1681565b610b61868686868686600161313a909695949392919063ffffffff16565b505050505050565b610b85858585858560016134a89095949392919063ffffffff16565b5050505050565b600660009054906101000a900473ffffffffffffffffffffffffffffffffffffffff1681565b600173__ProcedureLibrary______________________638e956e929091836040518363ffffffff1660e01b8152600401610bee929190614cdc565b60006040518083038186803b158015610c0657600080fd5b505af4158015610c1a573d6000803e3d6000fd5b5050505050565b610c398383836001613813909392919063ffffffff16565b505050565b85853373ffffffffffffffffffffffffffffffffffffffff1682600301600083815260200190815260200160002060000160009054906101000a900473ffffffffffffffffffffffffffffffffffffffff1673ffffffffffffffffffffffffffffffffffffffff1614610ce6576040517f08c379a0000000000000000000000000000000000000000000000000000000008152600401610cdd90614c5f565b60405180910390fd5b878781600301600082815260200190815260200160002060030160009054906101000a900460ff16158015610d3e575081600301600082815260200190815260200160002060030160019054906101000a900460ff16155b8015610d6d575081600301600082815260200190815260200160002060030160029054906101000a900460ff16155b610dac576040517f08c379a0000000000000000000000000000000000000000000000000000000008152600401610da390614c5f565b60405180910390fd5b8960030160008a815260200190815260200160002060040160405180608001604052808c60030160008d8152602001908152602001600020600401805490508152602001600460ff1681526020016390b137e98b8b8b604051602401610e1493929190614aae565b6040516020818303038152906040529060e01b6020820180517bffffffffffffffffffffffffffffffffffffffffffffffffffffffff838183161783525050505081526020016000151581525090806001815401808255809150506001900390600052602060002090600402016000909190919091506000820151816000015560208201518160010160006101000a81548160ff021916908360ff1602179055506040820151816002019080519060200190610ed1929190613d2d565b5060608201518160030160006101000a81548160ff02191690831515021790555050508415610f9d5760018a60030160008b815260200190815260200160002060030160006101000a81548160ff0219169083151502179055507f7306ab933b6e1df1bd2fddce7143eeedd65d5996fada0e9168c4e8c3d1ece94d8a60030160008b815260200190815260200160002060000160009054906101000a900473ffffffffffffffffffffffffffffffffffffffff168a604051610f94929190614b4c565b60405180910390a15b50505050505050505050565b86863373ffffffffffffffffffffffffffffffffffffffff1682600301600083815260200190815260200160002060000160009054906101000a900473ffffffffffffffffffffffffffffffffffffffff1673ffffffffffffffffffffffffffffffffffffffff1614611051576040517f08c379a000000000000000000000000000000000000000000000000000000000815260040161104890614c5f565b60405180910390fd5b888881600301600082815260200190815260200160002060030160009054906101000a900460ff161580156110a9575081600301600082815260200190815260200160002060030160019054906101000a900460ff16155b80156110d8575081600301600082815260200190815260200160002060030160029054906101000a900460ff16155b611117576040517f08c379a000000000000000000000000000000000000000000000000000000000815260040161110e90614c5f565b60405180910390fd5b8a60030160008b815260200190815260200160002060040160405180608001604052808d60030160008e8152602001908152602001600020600401805490508152602001600760ff16815260200163c10753298c8c8c8c6040516024016111819493929190614a69565b6040516020818303038152906040529060e01b6020820180517bffffffffffffffffffffffffffffffffffffffffffffffffffffffff838183161783525050505081526020016000151581525090806001815401808255809150506001900390600052602060002090600402016000909190919091506000820151816000015560208201518160010160006101000a81548160ff021916908360ff160217905550604082015181600201908051906020019061123e929190613d2d565b5060608201518160030160006101000a81548160ff0219169083151502179055505050841561130a5760018b60030160008c815260200190815260200160002060030160006101000a81548160ff0219169083151502179055507f7306ab933b6e1df1bd2fddce7143eeedd65d5996fada0e9168c4e8c3d1ece94d8b60030160008c815260200190815260200160002060000160009054906101000a900473ffffffffffffffffffffffffffffffffffffffff168b604051611301929190614b4c565b60405180910390a15b5050505050505050505050565b86863373ffffffffffffffffffffffffffffffffffffffff1682600301600083815260200190815260200160002060000160009054906101000a900473ffffffffffffffffffffffffffffffffffffffff1673ffffffffffffffffffffffffffffffffffffffff16146113bf576040517f08c379a00000000000000000000000000000000000000000000000000000000081526004016113b690614c5f565b60405180910390fd5b888881600301600082815260200190815260200160002060030160009054906101000a900460ff16158015611417575081600301600082815260200190815260200160002060030160019054906101000a900460ff16155b8015611446575081600301600082815260200190815260200160002060030160029054906101000a900460ff16155b611485576040517f08c379a000000000000000000000000000000000000000000000000000000000815260040161147c90614c5f565b60405180910390fd5b8a60030160008b815260200190815260200160002060040160405180608001604052808d60030160008e8152602001908152602001600020600401805490508152602001600660ff168152602001635676c77d8c8c8c8c6040516024016114ef9493929190614a24565b6040516020818303038152906040529060e01b6020820180517bffffffffffffffffffffffffffffffffffffffffffffffffffffffff838183161783525050505081526020016000151581525090806001815401808255809150506001900390600052602060002090600402016000909190919091506000820151816000015560208201518160010160006101000a81548160ff021916908360ff16021790555060408201518160020190805190602001906115ac929190613d2d565b5060608201518160030160006101000a81548160ff021916908315150217905550505084156116785760018b60030160008c815260200190815260200160002060030160006101000a81548160ff0219169083151502179055507f7306ab933b6e1df1bd2fddce7143eeedd65d5996fada0e9168c4e8c3d1ece94d8b60030160008c815260200190815260200160002060000160009054906101000a900473ffffffffffffffffffffffffffffffffffffffff168b60405161166f929190614b4c565b60405180910390a15b5050505050505050505050565b88883373ffffffffffffffffffffffffffffffffffffffff1682600301600083815260200190815260200160002060000160009054906101000a900473ffffffffffffffffffffffffffffffffffffffff1673ffffffffffffffffffffffffffffffffffffffff161461172d576040517f08c379a000000000000000000000000000000000000000000000000000000000815260040161172490614c5f565b60405180910390fd5b8a8a81600301600082815260200190815260200160002060030160009054906101000a900460ff16158015611785575081600301600082815260200190815260200160002060030160019054906101000a900460ff16155b80156117b4575081600301600082815260200190815260200160002060030160029054906101000a900460ff16155b6117f3576040517f08c379a00000000000000000000000000000000000000000000000000000000081526004016117ea90614c5f565b60405180910390fd5b60008d60030160008e8152602001908152602001600020905080600401604051806080016040528083600401805490508152602001600360ff16815260200163155a73ce8f8f8f8f8f8f60405160240161185296959493929190614b75565b6040516020818303038152906040529060e01b6020820180517bffffffffffffffffffffffffffffffffffffffffffffffffffffffff838183161783525050505081526020016000151581525090806001815401808255809150506001900390600052602060002090600402016000909190919091506000820151816000015560208201518160010160006101000a81548160ff021916908360ff160217905550604082015181600201908051906020019061190f929190613d2d565b5060608201518160030160006101000a81548160ff021916908315150217905550505085156119b35760018160030160006101000a81548160ff0219169083151502179055507f7306ab933b6e1df1bd2fddce7143eeedd65d5996fada0e9168c4e8c3d1ece94d8160000160009054906101000a900473ffffffffffffffffffffffffffffffffffffffff168e6040516119aa929190614b4c565b60405180910390a15b5050505050505050505050505050565b86863373ffffffffffffffffffffffffffffffffffffffff1682600301600083815260200190815260200160002060000160009054906101000a900473ffffffffffffffffffffffffffffffffffffffff1673ffffffffffffffffffffffffffffffffffffffff1614611a6b576040517f08c379a0000000000000000000000000000000000000000000000000000000008152600401611a6290614c5f565b60405180910390fd5b888881600301600082815260200190815260200160002060030160009054906101000a900460ff16158015611ac3575081600301600082815260200190815260200160002060030160019054906101000a900460ff16155b8015611af2575081600301600082815260200190815260200160002060030160029054906101000a900460ff16155b611b31576040517f08c379a0000000000000000000000000000000000000000000000000000000008152600401611b2890614c5f565b60405180910390fd5b8a60030160008b815260200190815260200160002060040160405180608001604052808d60030160008e8152602001908152602001600020600401805490508152602001600860ff168152602001635e35359e8c8c8c8c604051602401611b9b9493929190614a69565b6040516020818303038152906040529060e01b6020820180517bffffffffffffffffffffffffffffffffffffffffffffffffffffffff838183161783525050505081526020016000151581525090806001815401808255809150506001900390600052602060002090600402016000909190919091506000820151816000015560208201518160010160006101000a81548160ff021916908360ff1602179055506040820151816002019080519060200190611c58929190613d2d565b5060608201518160030160006101000a81548160ff02191690831515021790555050508415611d245760018b60030160008c815260200190815260200160002060030160006101000a81548160ff0219169083151502179055507f7306ab933b6e1df1bd2fddce7143eeedd65d5996fada0e9168c4e8c3d1ece94d8b60030160008c815260200190815260200160002060000160009054906101000a900473ffffffffffffffffffffffffffffffffffffffff168b604051611d1b929190614b4c565b60405180910390a15b5050505050505050505050565b81813373ffffffffffffffffffffffffffffffffffffffff1682600301600083815260200190815260200160002060000160009054906101000a900473ffffffffffffffffffffffffffffffffffffffff1673ffffffffffffffffffffffffffffffffffffffff1614611dd9576040517f08c379a0000000000000000000000000000000000000000000000000000000008152600401611dd090614c5f565b60405180910390fd5b838381600301600082815260200190815260200160002060030160009054906101000a900460ff16158015611e31575081600301600082815260200190815260200160002060030160019054906101000a900460ff16155b8015611e60575081600301600082815260200190815260200160002060030160029054906101000a900460ff16155b611e9f576040517f08c379a0000000000000000000000000000000000000000000000000000000008152600401611e9690614c5f565b60405180910390fd5b600186600301600087815260200190815260200160002060030160006101000a81548160ff0219169083151502179055507f7306ab933b6e1df1bd2fddce7143eeedd65d5996fada0e9168c4e8c3d1ece94d3386604051611f01929190614b4c565b60405180910390a1505050505050565b84843373ffffffffffffffffffffffffffffffffffffffff1682600301600083815260200190815260200160002060000160009054906101000a900473ffffffffffffffffffffffffffffffffffffffff1673ffffffffffffffffffffffffffffffffffffffff1614611fb9576040517f08c379a0000000000000000000000000000000000000000000000000000000008152600401611fb090614c5f565b60405180910390fd5b868681600301600082815260200190815260200160002060030160009054906101000a900460ff16158015612011575081600301600082815260200190815260200160002060030160019054906101000a900460ff16155b8015612040575081600301600082815260200190815260200160002060030160029054906101000a900460ff16155b61207f576040517f08c379a000000000000000000000000000000000000000000000000000000000815260040161207690614c5f565b60405180910390fd5b88600301600089815260200190815260200160002060040160405180608001604052808b60030160008c8152602001908152602001600020600401805490508152602001600260ff1681526020016376a6411c8a8a6040516024016120e5929190614b4c565b6040516020818303038152906040529060e01b6020820180517bffffffffffffffffffffffffffffffffffffffffffffffffffffffff838183161783525050505081526020016000151581525090806001815401808255809150506001900390600052602060002090600402016000909190919091506000820151816000015560208201518160010160006101000a81548160ff021916908360ff16021790555060408201518160020190805190602001906121a2929190613d2d565b5060608201518160030160006101000a81548160ff0219169083151502179055505050841561226e5760018960030160008a815260200190815260200160002060030160006101000a81548160ff0219169083151502179055507f7306ab933b6e1df1bd2fddce7143eeedd65d5996fada0e9168c4e8c3d1ece94d8960030160008a815260200190815260200160002060000160009054906101000a900473ffffffffffffffffffffffffffffffffffffffff1689604051612265929190614b4c565b60405180910390a15b505050505050505050565b84843373ffffffffffffffffffffffffffffffffffffffff1682600301600083815260200190815260200160002060000160009054906101000a900473ffffffffffffffffffffffffffffffffffffffff1673ffffffffffffffffffffffffffffffffffffffff1614612321576040517f08c379a000000000000000000000000000000000000000000000000000000000815260040161231890614c5f565b60405180910390fd5b868681600301600082815260200190815260200160002060030160009054906101000a900460ff16158015612379575081600301600082815260200190815260200160002060030160019054906101000a900460ff16155b80156123a8575081600301600082815260200190815260200160002060030160029054906101000a900460ff16155b6123e7576040517f08c379a00000000000000000000000000000000000000000000000000000000081526004016123de90614c5f565b60405180910390fd5b88600301600089815260200190815260200160002060040160405180608001604052808b60030160008c8152602001908152602001600020600401805490508152602001600560ff1681526020016319b9404c8a8a60405160240161244d9291906149d2565b6040516020818303038152906040529060e01b6020820180517bffffffffffffffffffffffffffffffffffffffffffffffffffffffff838183161783525050505081526020016000151581525090806001815401808255809150506001900390600052602060002090600402016000909190919091506000820151816000015560208201518160010160006101000a81548160ff021916908360ff160217905550604082015181600201908051906020019061250a929190613d2d565b5060608201518160030160006101000a81548160ff021916908315150217905550505084156125d65760018960030160008a815260200190815260200160002060030160006101000a81548160ff0219169083151502179055507f7306ab933b6e1df1bd2fddce7143eeedd65d5996fada0e9168c4e8c3d1ece94d8960030160008a815260200190815260200160002060000160009054906101000a900473ffffffffffffffffffffffffffffffffffffffff16896040516125cd929190614b4c565b60405180910390a15b505050505050505050565b86863373ffffffffffffffffffffffffffffffffffffffff1682600301600083815260200190815260200160002060000160009054906101000a900473ffffffffffffffffffffffffffffffffffffffff1673ffffffffffffffffffffffffffffffffffffffff1614612689576040517f08c379a000000000000000000000000000000000000000000000000000000000815260040161268090614c5f565b60405180910390fd5b888881600301600082815260200190815260200160002060030160009054906101000a900460ff161580156126e1575081600301600082815260200190815260200160002060030160019054906101000a900460ff16155b8015612710575081600301600082815260200190815260200160002060030160029054906101000a900460ff16155b61274f576040517f08c379a000000000000000000000000000000000000000000000000000000000815260040161274690614c5f565b60405180910390fd5b8a60030160008b815260200190815260200160002060040160405180608001604052808d60030160008e8152602001908152602001600020600401805490508152602001600760ff16815260200163c10753298c8c8b6040516024016127b793929190614ae5565b6040516020818303038152906040529060e01b6020820180517bffffffffffffffffffffffffffffffffffffffffffffffffffffffff838183161783525050505081526020016000151581525090806001815401808255809150506001900390600052602060002090600402016000909190919091506000820151816000015560208201518160010160006101000a81548160ff021916908360ff1602179055506040820151816002019080519060200190612874929190613d2d565b5060608201518160030160006101000a81548160ff021916908315150217905550505084156129405760018b60030160008c815260200190815260200160002060030160006101000a81548160ff0219169083151502179055507f7306ab933b6e1df1bd2fddce7143eeedd65d5996fada0e9168c4e8c3d1ece94d8b60030160008c815260200190815260200160002060000160009054906101000a900473ffffffffffffffffffffffffffffffffffffffff168b604051612937929190614b4c565b60405180910390a15b5050505050505050505050565b85853373ffffffffffffffffffffffffffffffffffffffff1682600301600083815260200190815260200160002060000160009054906101000a900473ffffffffffffffffffffffffffffffffffffffff1673ffffffffffffffffffffffffffffffffffffffff16146129f5576040517f08c379a00000000000000000000000000000000000000000000000000000000081526004016129ec90614c5f565b60405180910390fd5b878781600301600082815260200190815260200160002060030160009054906101000a900460ff16158015612a4d575081600301600082815260200190815260200160002060030160019054906101000a900460ff16155b8015612a7c575081600301600082815260200190815260200160002060030160029054906101000a900460ff16155b612abb576040517f08c379a0000000000000000000000000000000000000000000000000000000008152600401612ab290614c5f565b60405180910390fd5b8960030160008a815260200190815260200160002060040160405180608001604052808c60030160008d8152602001908152602001600020600401805490508152602001600760ff16815260200163c10753298b8b8b604051602401612b2393929190614ae5565b6040516020818303038152906040529060e01b6020820180517bffffffffffffffffffffffffffffffffffffffffffffffffffffffff838183161783525050505081526020016000151581525090806001815401808255809150506001900390600052602060002090600402016000909190919091506000820151816000015560208201518160010160006101000a81548160ff021916908360ff1602179055506040820151816002019080519060200190612be0929190613d2d565b5060608201518160030160006101000a81548160ff02191690831515021790555050508415612cac5760018a60030160008b815260200190815260200160002060030160006101000a81548160ff0219169083151502179055507f7306ab933b6e1df1bd2fddce7143eeedd65d5996fada0e9168c4e8c3d1ece94d8a60030160008b815260200190815260200160002060000160009054906101000a900473ffffffffffffffffffffffffffffffffffffffff168a604051612ca3929190614b4c565b60405180910390a15b50505050505050505050565b6000808560040160008154809291906001019190505590503386600301600083815260200190815260200160002060000160006101000a81548173ffffffffffffffffffffffffffffffffffffffff021916908373ffffffffffffffffffffffffffffffffffffffff16021790555060405180606001604052808681526020018560ff1681526020018460ff168152508660030160008381526020019081526020016000206001016000820151816000015560208201518160010160006101000a81548160ff021916908360ff16021790555060408201518160010160016101000a81548160ff021916908360ff16021790555090505080915050949350505050565b84843373ffffffffffffffffffffffffffffffffffffffff1682600301600083815260200190815260200160002060000160009054906101000a900473ffffffffffffffffffffffffffffffffffffffff1673ffffffffffffffffffffffffffffffffffffffff1614612e63576040517f08c379a0000000000000000000000000000000000000000000000000000000008152600401612e5a90614c5f565b60405180910390fd5b868681600301600082815260200190815260200160002060030160009054906101000a900460ff16158015612ebb575081600301600082815260200190815260200160002060030160019054906101000a900460ff16155b8015612eea575081600301600082815260200190815260200160002060030160029054906101000a900460ff16155b612f29576040517f08c379a0000000000000000000000000000000000000000000000000000000008152600401612f2090614c5f565b60405180910390fd5b88600301600089815260200190815260200160002060040160405180608001604052808b60030160008c8152602001908152602001600020600401805490508152602001600160ff168152602001631715f4de8a8a604051602401612f8f929190614b1c565b6040516020818303038152906040529060e01b6020820180517bffffffffffffffffffffffffffffffffffffffffffffffffffffffff838183161783525050505081526020016000151581525090806001815401808255809150506001900390600052602060002090600402016000909190919091506000820151816000015560208201518160010160006101000a81548160ff021916908360ff160217905550604082015181600201908051906020019061304c929190613d2d565b5060608201518160030160006101000a81548160ff021916908315150217905550505084156131185760018960030160008a815260200190815260200160002060030160006101000a81548160ff0219169083151502179055507f7306ab933b6e1df1bd2fddce7143eeedd65d5996fada0e9168c4e8c3d1ece94d8960030160008a815260200190815260200160002060000160009054906101000a900473ffffffffffffffffffffffffffffffffffffffff168960405161310f929190614b4c565b60405180910390a15b505050505050505050565b613137816001613b2290919063ffffffff16565b50565b86863373ffffffffffffffffffffffffffffffffffffffff1682600301600083815260200190815260200160002060000160009054906101000a900473ffffffffffffffffffffffffffffffffffffffff1673ffffffffffffffffffffffffffffffffffffffff16146131e2576040517f08c379a00000000000000000000000000000000000000000000000000000000081526004016131d990614c5f565b60405180910390fd5b888881600301600082815260200190815260200160002060030160009054906101000a900460ff1615801561323a575081600301600082815260200190815260200160002060030160019054906101000a900460ff16155b8015613269575081600301600082815260200190815260200160002060030160029054906101000a900460ff16155b6132a8576040517f08c379a000000000000000000000000000000000000000000000000000000000815260040161329f90614c5f565b60405180910390fd5b8a60030160008b815260200190815260200160002060040160405180608001604052808d60030160008e8152602001908152602001600020600401805490508152602001600860ff168152602001635e35359e8c8c8c8c6040516024016133129493929190614a69565b6040516020818303038152906040529060e01b6020820180517bffffffffffffffffffffffffffffffffffffffffffffffffffffffff838183161783525050505081526020016000151581525090806001815401808255809150506001900390600052602060002090600402016000909190919091506000820151816000015560208201518160010160006101000a81548160ff021916908360ff16021790555060408201518160020190805190602001906133cf929190613d2d565b5060608201518160030160006101000a81548160ff0219169083151502179055505050841561349b5760018b60030160008c815260200190815260200160002060030160006101000a81548160ff0219169083151502179055507f7306ab933b6e1df1bd2fddce7143eeedd65d5996fada0e9168c4e8c3d1ece94d8b60030160008c815260200190815260200160002060000160009054906101000a900473ffffffffffffffffffffffffffffffffffffffff168b604051613492929190614b4c565b60405180910390a15b5050505050505050505050565b85853373ffffffffffffffffffffffffffffffffffffffff1682600301600083815260200190815260200160002060000160009054906101000a900473ffffffffffffffffffffffffffffffffffffffff1673ffffffffffffffffffffffffffffffffffffffff1614613550576040517f08c379a000000000000000000000000000000000000000000000000000000000815260040161354790614c5f565b60405180910390fd5b878781600301600082815260200190815260200160002060030160009054906101000a900460ff161580156135a8575081600301600082815260200190815260200160002060030160019054906101000a900460ff16155b80156135d7575081600301600082815260200190815260200160002060030160029054906101000a900460ff16155b613616576040517f08c379a000000000000000000000000000000000000000000000000000000000815260040161360d90614c5f565b60405180910390fd5b8960030160008a815260200190815260200160002060040160405180608001604052808c60030160008d8152602001908152602001600020600401805490508152602001600860ff168152602001635e35359e8b8b8b60405160240161367e93929190614ae5565b6040516020818303038152906040529060e01b6020820180517bffffffffffffffffffffffffffffffffffffffffffffffffffffffff838183161783525050505081526020016000151581525090806001815401808255809150506001900390600052602060002090600402016000909190919091506000820151816000015560208201518160010160006101000a81548160ff021916908360ff160217905550604082015181600201908051906020019061373b929190613d2d565b5060608201518160030160006101000a81548160ff021916908315150217905550505084156138075760018a60030160008b815260200190815260200160002060030160006101000a81548160ff0219169083151502179055507f7306ab933b6e1df1bd2fddce7143eeedd65d5996fada0e9168c4e8c3d1ece94d8a60030160008b815260200190815260200160002060000160009054906101000a900473ffffffffffffffffffffffffffffffffffffffff168a6040516137fe929190614b4c565b60405180910390a15b50505050505050505050565b83833373ffffffffffffffffffffffffffffffffffffffff1682600301600083815260200190815260200160002060000160009054906101000a900473ffffffffffffffffffffffffffffffffffffffff1673ffffffffffffffffffffffffffffffffffffffff16146138bb576040517f08c379a00000000000000000000000000000000000000000000000000000000081526004016138b290614c5f565b60405180910390fd5b858581600301600082815260200190815260200160002060030160009054906101000a900460ff16158015613913575081600301600082815260200190815260200160002060030160019054906101000a900460ff16155b8015613942575081600301600082815260200190815260200160002060030160029054906101000a900460ff16155b613981576040517f08c379a000000000000000000000000000000000000000000000000000000000815260040161397890614c5f565b60405180910390fd5b87600301600088815260200190815260200160002060040160405180608001604052808a60030160008b8152602001908152602001600020600401805490508152602001600060ff1681526020018881526020016000151581525090806001815401808255809150506001900390600052602060002090600402016000909190919091506000820151816000015560208201518160010160006101000a81548160ff021916908360ff1602179055506040820151816002019080519060200190613a4c929190613d2d565b5060608201518160030160006101000a81548160ff02191690831515021790555050508415613b1857600188600301600089815260200190815260200160002060030160006101000a81548160ff0219169083151502179055507f7306ab933b6e1df1bd2fddce7143eeedd65d5996fada0e9168c4e8c3d1ece94d88600301600089815260200190815260200160002060000160009054906101000a900473ffffffffffffffffffffffffffffffffffffffff1688604051613b0f929190614b4c565b60405180910390a15b5050505050505050565b818181600301600082815260200190815260200160002060030160009054906101000a900460ff168015613b79575081600301600082815260200190815260200160002060030160019054906101000a900460ff16155b8015613ba8575081600301600082815260200190815260200160002060030160029054906101000a900460ff16155b613be7576040517f08c379a0000000000000000000000000000000000000000000000000000000008152600401613bde90614c5f565b60405180910390fd5b6000846003016000858152602001908152602001600020905060018160030160026101000a81548160ff02191690831515021790555060005b8160040180549050811015613c79576000826004018281548110613c4057fe5b9060005260206000209060040201905060018160030160006101000a81548160ff02191690831515021790555050806001019050613c20565b5060018160030160016101000a81548160ff0219169083151502179055507fd2c6e52f57352f08a7c9894b122d8440f1d87a7949ba8769fe444bf80b9e7a7e84604051613cc69190614d4a565b60405180910390a15050505050565b6040518060c00160405280600073ffffffffffffffffffffffffffffffffffffffff168152602001613d05613dad565b8152602001600015158152602001600015158152602001600015158152602001606081525090565b828054600181600116156101000203166002900490600052602060002090601f016020900481019282601f10613d6e57805160ff1916838001178555613d9c565b82800160010185558215613d9c579182015b82811115613d9b578251825591602001919060010190613d80565b5b509050613da99190613dd7565b5090565b604051806060016040528060008019168152602001600060ff168152602001600060ff1681525090565b5b80821115613df0576000816000905550600101613dd8565b5090565b600081359050613e0381614f90565b92915050565b600081359050613e1881614fa7565b92915050565b600082601f830112613e2f57600080fd5b8135613e42613e3d82614dad565b614d80565b91508181835260208401935060208101905083856080840282011115613e6757600080fd5b60005b83811015613e975781613e7d8882613f5e565b845260208401935060808301925050600181019050613e6a565b5050505092915050565b600081359050613eb081614fbe565b92915050565b600081519050613ec581614fbe565b92915050565b600081359050613eda81614fd5565b92915050565b600081359050613eef81614fec565b92915050565b600081519050613f0481614fec565b92915050565b600082601f830112613f1b57600080fd5b8135613f2e613f2982614dd5565b614d80565b91508082526020830160208301858383011115613f4a57600080fd5b613f55838284614f3d565b50505092915050565b600060808284031215613f7057600080fd5b613f7a6080614d80565b90506000613f8a84828501613df4565b6000830152506020613f9e84828501613ee0565b6020830152506040613fb284828501613fe7565b6040830152506060613fc684828501613fe7565b60608301525092915050565b600081359050613fe181615003565b92915050565b600081359050613ff68161501a565b92915050565b60008151905061400b8161501a565b92915050565b60006020828403121561402357600080fd5b600061403184828501613e09565b91505092915050565b60006020828403121561404c57600080fd5b600061405a84828501613eb6565b91505092915050565b60008060006060848603121561407857600080fd5b600061408686828701613ee0565b935050602061409786828701613fe7565b92505060406140a886828701613fe7565b9150509250925092565b6000806000606084860312156140c757600080fd5b60006140d586828701613ef5565b93505060206140e686828701613ffc565b92505060406140f786828701613ffc565b9150509250925092565b60006020828403121561411357600080fd5b600061412184828501613fd2565b91505092915050565b60008060008060008060c0878903121561414357600080fd5b600061415189828a01613fd2565b965050602061416289828a01613e09565b955050604061417389828a01613df4565b945050606061418489828a01613df4565b935050608061419589828a01613ecb565b92505060a06141a689828a01613ea1565b9150509295509295509295565b60008060008060008060c087890312156141cc57600080fd5b60006141da89828a01613fd2565b96505060206141eb89828a01613e09565b95505060406141fc89828a01613df4565b945050606061420d89828a01613df4565b935050608061421e89828a01613fd2565b92505060a061422f89828a01613ea1565b9150509295509295509295565b6000806000806080858703121561425257600080fd5b600061426087828801613fd2565b945050602061427187828801613e09565b935050604061428287828801613df4565b925050606061429387828801613ea1565b91505092959194509250565b600080600080600060a086880312156142b757600080fd5b60006142c588828901613fd2565b95505060206142d688828901613e09565b94505060406142e788828901613df4565b93505060606142f888828901613ecb565b925050608061430988828901613ea1565b9150509295509295909350565b600080600080600060a0868803121561432e57600080fd5b600061433c88828901613fd2565b955050602061434d88828901613e09565b945050604061435e88828901613df4565b935050606061436f88828901613fd2565b925050608061438088828901613ea1565b9150509295509295909350565b600080600080608085870312156143a357600080fd5b60006143b187828801613fd2565b94505060206143c287828801613e09565b935050604085013567ffffffffffffffff8111156143df57600080fd5b6143eb87828801613e1e565b92505060606143fc87828801613ea1565b91505092959194509250565b600080600080600080600080610100898b03121561442557600080fd5b60006144338b828c01613fd2565b98505060206144448b828c01613e09565b97505060406144558b828c01613fd2565b96505060606144668b828c01613e09565b95505060806144778b828c01613ee0565b94505060a06144888b828c01613fe7565b93505060c06144998b828c01613fe7565b92505060e06144aa8b828c01613ea1565b9150509295985092959890939650565b600080600080608085870312156144d057600080fd5b60006144de87828801613fd2565b94505060206144ef87828801613e09565b935050604061450087828801613fd2565b925050606061451187828801613ea1565b91505092959194509250565b60008060006060848603121561453257600080fd5b600061454086828701613fd2565b935050602084013567ffffffffffffffff81111561455d57600080fd5b61456986828701613f0a565b925050604061457a86828701613ea1565b9150509250925092565b600061459083836147e1565b60808301905092915050565b60006145a88383614902565b905092915050565b6145b981614eb2565b82525050565b6145c881614eb2565b82525050565b6145d781614eb2565b82525050565b6145e681614ea0565b82525050565b6145f581614ea0565b82525050565b600061460682614e21565b6146108185614e5c565b935061461b83614e01565b8060005b8381101561464c5781516146338882614584565b975061463e83614e42565b92505060018101905061461f565b5085935050505092915050565b600061466482614e2c565b61466e8185614e6d565b93508360208202850161468085614e11565b8060005b858110156146bc578484038952815161469d858261459c565b94506146a883614e4f565b925060208a01995050600181019050614684565b50829750879550505050505092915050565b6146d781614ec4565b82525050565b6146e681614ec4565b82525050565b6146f581614ed0565b82525050565b61470481614efc565b82525050565b61471381614efc565b82525050565b61472281614efc565b82525050565b600061473382614e37565b61473d8185614e7e565b935061474d818560208601614f4c565b61475681614f7f565b840191505092915050565b600061476e600f83614e8f565b91507f4e6f7420617574686f72697a65642e00000000000000000000000000000000006000830152602082019050919050565b60006147ae600e83614e8f565b91507f4e6f7420617574686f72697a65640000000000000000000000000000000000006000830152602082019050919050565b6080820160008201516147f760008501826145dd565b50602082015161480a60208501826146fb565b50604082015161481d604085018261498a565b506060820151614830606085018261498a565b50505050565b60608201600082015161484c60008501826146fb565b50602082015161485f602085018261498a565b506040820151614872604085018261498a565b50505050565b60006101008301600083015161489160008601826145b0565b5060208301516148a46020860182614836565b5060408301516148b760808601826146ce565b5060608301516148ca60a08601826146ce565b5060808301516148dd60c08601826146ce565b5060a083015184820360e08601526148f58282614659565b9150508091505092915050565b600060808301600083015161491a600086018261496c565b50602083015161492d602086018261498a565b50604083015184820360408601526149458282614728565b915050606083015161495a60608601826146ce565b508091505092915050565b8082525050565b61497581614f26565b82525050565b61498481614f26565b82525050565b61499381614f30565b82525050565b6149a281614f30565b82525050565b6149b181614f30565b82525050565b60006020820190506149cc60008301846145bf565b92915050565b60006040820190506149e760008301856145bf565b6149f460208301846145ec565b9392505050565b6000604082019050614a1060008301856145ce565b614a1d60208301846145ce565b9392505050565b6000608082019050614a3960008301876145bf565b614a4660208301866145ec565b614a5360408301856145ec565b614a6060608301846146ec565b95945050505050565b6000608082019050614a7e60008301876145bf565b614a8b60208301866145ec565b614a9860408301856145ec565b614aa5606083018461497b565b95945050505050565b6000606082019050614ac360008301866145bf565b614ad060208301856145ec565b614add60408301846146ec565b949350505050565b6000606082019050614afa60008301866145bf565b614b0760208301856145ec565b614b14604083018461497b565b949350505050565b6000604082019050614b3160008301856145bf565b8181036020830152614b4381846145fb565b90509392505050565b6000604082019050614b6160008301856145bf565b614b6e602083018461497b565b9392505050565b600060c082019050614b8a60008301896145bf565b614b97602083018861497b565b614ba460408301876145bf565b614bb1606083018661470a565b614bbe6080830185614999565b614bcb60a0830184614999565b979650505050505050565b6000602082019050614beb60008301846146dd565b92915050565b6000606082019050614c0660008301866146dd565b614c1360208301856146dd565b614c206040830184614999565b949350505050565b6000606082019050614c3d600083018661470a565b614c4a6020830185614999565b614c576040830184614999565b949350505050565b60006020820190508181036000830152614c7881614761565b9050919050565b60006020820190508181036000830152614c98816147a1565b9050919050565b60006020820190508181036000830152614cb98184614878565b905092915050565b6000602082019050614cd66000830184614965565b92915050565b6000604082019050614cf16000830185614965565b614cfe60208301846145ce565b9392505050565b6000608082019050614d1a6000830187614965565b614d276020830186614719565b614d3460408301856149a8565b614d4160608301846149a8565b95945050505050565b6000602082019050614d5f600083018461497b565b92915050565b6000602082019050614d7a6000830184614999565b92915050565b6000604051905081810181811067ffffffffffffffff82111715614da357600080fd5b8060405250919050565b600067ffffffffffffffff821115614dc457600080fd5b602082029050602081019050919050565b600067ffffffffffffffff821115614dec57600080fd5b601f19601f8301169050602081019050919050565b6000819050602082019050919050565b6000819050602082019050919050565b600081519050919050565b600081519050919050565b600081519050919050565b6000602082019050919050565b6000602082019050919050565b600082825260208201905092915050565b600082825260208201905092915050565b600082825260208201905092915050565b600082825260208201905092915050565b6000614eab82614f06565b9050919050565b6000614ebd82614f06565b9050919050565b60008115159050919050565b60007fffff00000000000000000000000000000000000000000000000000000000000082169050919050565b6000819050919050565b600073ffffffffffffffffffffffffffffffffffffffff82169050919050565b6000819050919050565b600060ff82169050919050565b82818337600083830152505050565b60005b83811015614f6a578082015181840152602081019050614f4f565b83811115614f79576000848401525b50505050565b6000601f19601f8301169050919050565b614f9981614ea0565b8114614fa457600080fd5b50565b614fb081614eb2565b8114614fbb57600080fd5b50565b614fc781614ec4565b8114614fd257600080fd5b50565b614fde81614ed0565b8114614fe957600080fd5b50565b614ff581614efc565b811461500057600080fd5b50565b61500c81614f26565b811461501757600080fd5b50565b61502381614f30565b811461502e57600080fd5b5056fea2646970667358221220a7ad3a035aeb5da061f2b2670fe65d5308c6d9f4613e49a912b0bfaab3d9645b64736f6c634300060c0033",
  "immutableReferences": {},
  "source": "// SPDX-License-Identifier: LGPL-3.0-or-later\npragma solidity ^0.6.0;\npragma experimental ABIEncoderV2;\n\n/**\n    Nomination procedure.\n    A nomination applies an effect if nominator is in the nominaters organ.\n*/\n\nimport \"../Procedure.sol\";\n\ncontract SimpleNominationProcedure is Procedure {\n    address payable public nominatersOrgan;\n\n    constructor (\n        bytes32 _metadataIpfsHash, uint8 _metadataHashFunction, uint8 _metadataHashSize,\n        address payable _nominatersOrgan\n    ) Procedure (_metadataIpfsHash, _metadataHashFunction, _metadataHashSize)\n        public\n    {\n        nominatersOrgan = _nominatersOrgan;\n    }\n\n    function nominate(uint256 moveKey)\n        public onlyInOrgan(nominatersOrgan)\n    {\n        Procedure.applyMove(moveKey);\n    }\n}",
  "sourcePath": "/Users/alex/Code/organigr.am/packages/@organigram/contracts/contracts/procedures/SimpleNomination.sol",
  "compiler": {
    "name": "solc",
    "version": "0.6.12+commit.27d51765.Emscripten.clang"
  },
  "schemaVersion": "3.3.2",
  "updatedAt": "2020-12-01T19:24:05.593Z",
  "networkType": "ethereum",
  "devdoc": {
    "kind": "dev",
    "methods": {},
    "version": 1
  },
  "userdoc": {
    "kind": "user",
    "methods": {
      "createMove(bytes32,uint8,uint8)": {
        "notice": "Public API : Moves creation and update."
      },
      "updateMetadata(bytes32,uint8,uint8)": {
        "notice": "Public API : Procedure Metadata and Admin."
      }
    },
    "version": 1
  }
}