{
  "contractName": "SimpleNominationProcedure",
  "abi": [
    {
      "inputs": [
        {
          "internalType": "bytes32",
          "name": "_metadataIpfsHash",
          "type": "bytes32"
        },
        {
          "internalType": "uint8",
          "name": "_metadataHashFunction",
          "type": "uint8"
        },
        {
          "internalType": "uint8",
          "name": "_metadataHashSize",
          "type": "uint8"
        },
        {
          "internalType": "address payable",
          "name": "_nominatersOrgan",
          "type": "address"
        }
      ],
      "stateMutability": "nonpayable",
      "type": "constructor"
    },
    {
      "inputs": [
        {
          "internalType": "bytes32",
          "name": "ipfsHash",
          "type": "bytes32"
        },
        {
          "internalType": "uint8",
          "name": "hashFunction",
          "type": "uint8"
        },
        {
          "internalType": "uint8",
          "name": "hashSize",
          "type": "uint8"
        }
      ],
      "name": "createMove",
      "outputs": [
        {
          "internalType": "uint256",
          "name": "",
          "type": "uint256"
        }
      ],
      "stateMutability": "nonpayable",
      "type": "function"
    },
    {
      "inputs": [],
      "name": "getKelsenData",
      "outputs": [
        {
          "internalType": "bool",
          "name": "",
          "type": "bool"
        },
        {
          "internalType": "bool",
          "name": "",
          "type": "bool"
        },
        {
          "internalType": "uint8",
          "name": "",
          "type": "uint8"
        }
      ],
      "stateMutability": "view",
      "type": "function",
      "constant": true
    },
    {
      "inputs": [],
      "name": "isOrgan",
      "outputs": [
        {
          "internalType": "bool",
          "name": "",
          "type": "bool"
        }
      ],
      "stateMutability": "view",
      "type": "function",
      "constant": true
    },
    {
      "inputs": [],
      "name": "isProcedure",
      "outputs": [
        {
          "internalType": "bool",
          "name": "",
          "type": "bool"
        }
      ],
      "stateMutability": "view",
      "type": "function",
      "constant": true
    },
    {
      "inputs": [],
      "name": "kelsenVersion",
      "outputs": [
        {
          "internalType": "uint8",
          "name": "",
          "type": "uint8"
        }
      ],
      "stateMutability": "view",
      "type": "function",
      "constant": true
    },
    {
      "inputs": [
        {
          "internalType": "uint256",
          "name": "moveKey",
          "type": "uint256"
        }
      ],
      "name": "lockMove",
      "outputs": [],
      "stateMutability": "nonpayable",
      "type": "function"
    },
    {
      "inputs": [
        {
          "internalType": "uint256",
          "name": "moveKey",
          "type": "uint256"
        },
        {
          "internalType": "address payable",
          "name": "organ",
          "type": "address"
        },
        {
          "components": [
            {
              "internalType": "address",
              "name": "addr",
              "type": "address"
            },
            {
              "internalType": "bytes32",
              "name": "ipfsHash",
              "type": "bytes32"
            },
            {
              "internalType": "uint8",
              "name": "hashFunction",
              "type": "uint8"
            },
            {
              "internalType": "uint8",
              "name": "hashSize",
              "type": "uint8"
            }
          ],
          "internalType": "struct OrganLibrary.Entry[]",
          "name": "entries",
          "type": "tuple[]"
        },
        {
          "internalType": "bool",
          "name": "lock",
          "type": "bool"
        }
      ],
      "name": "moveAddEntries",
      "outputs": [],
      "stateMutability": "nonpayable",
      "type": "function"
    },
    {
      "inputs": [
        {
          "internalType": "uint256",
          "name": "moveKey",
          "type": "uint256"
        },
        {
          "internalType": "address payable",
          "name": "organ",
          "type": "address"
        },
        {
          "internalType": "address",
          "name": "procedure",
          "type": "address"
        },
        {
          "internalType": "bytes2",
          "name": "permissions",
          "type": "bytes2"
        },
        {
          "internalType": "bool",
          "name": "lock",
          "type": "bool"
        }
      ],
      "name": "moveAddProcedure",
      "outputs": [],
      "stateMutability": "nonpayable",
      "type": "function"
    },
    {
      "inputs": [
        {
          "internalType": "uint256",
          "name": "moveKey",
          "type": "uint256"
        },
        {
          "internalType": "bytes",
          "name": "call",
          "type": "bytes"
        },
        {
          "internalType": "bool",
          "name": "lock",
          "type": "bool"
        }
      ],
      "name": "moveCall",
      "outputs": [],
      "stateMutability": "nonpayable",
      "type": "function"
    },
    {
      "inputs": [
        {
          "internalType": "uint256",
          "name": "moveKey",
          "type": "uint256"
        },
        {
          "internalType": "address payable",
          "name": "organ",
          "type": "address"
        },
        {
          "internalType": "address",
          "name": "operator",
          "type": "address"
        },
        {
          "internalType": "address",
          "name": "target",
          "type": "address"
        },
        {
          "internalType": "uint256",
          "name": "value",
          "type": "uint256"
        },
        {
          "internalType": "bool",
          "name": "lock",
          "type": "bool"
        }
      ],
      "name": "moveReceiveCoins",
      "outputs": [],
      "stateMutability": "nonpayable",
      "type": "function"
    },
    {
      "inputs": [
        {
          "internalType": "uint256",
          "name": "moveKey",
          "type": "uint256"
        },
        {
          "internalType": "address payable",
          "name": "organ",
          "type": "address"
        },
        {
          "internalType": "address",
          "name": "operator",
          "type": "address"
        },
        {
          "internalType": "address",
          "name": "target",
          "type": "address"
        },
        {
          "internalType": "uint256",
          "name": "token_id",
          "type": "uint256"
        },
        {
          "internalType": "bool",
          "name": "lock",
          "type": "bool"
        }
      ],
      "name": "moveReceiveCollectible",
      "outputs": [],
      "stateMutability": "nonpayable",
      "type": "function"
    },
    {
      "inputs": [
        {
          "internalType": "uint256",
          "name": "moveKey",
          "type": "uint256"
        },
        {
          "internalType": "address payable",
          "name": "organ",
          "type": "address"
        },
        {
          "internalType": "address",
          "name": "target",
          "type": "address"
        },
        {
          "internalType": "uint256",
          "name": "value",
          "type": "uint256"
        },
        {
          "internalType": "bool",
          "name": "lock",
          "type": "bool"
        }
      ],
      "name": "moveReceiveEther",
      "outputs": [],
      "stateMutability": "nonpayable",
      "type": "function"
    },
    {
      "inputs": [
        {
          "internalType": "uint256",
          "name": "moveKey",
          "type": "uint256"
        },
        {
          "internalType": "address payable",
          "name": "organ",
          "type": "address"
        },
        {
          "internalType": "uint256",
          "name": "indexes",
          "type": "uint256"
        },
        {
          "internalType": "bool",
          "name": "lock",
          "type": "bool"
        }
      ],
      "name": "moveRemoveEntry",
      "outputs": [],
      "stateMutability": "nonpayable",
      "type": "function"
    },
    {
      "inputs": [
        {
          "internalType": "uint256",
          "name": "moveKey",
          "type": "uint256"
        },
        {
          "internalType": "address payable",
          "name": "organ",
          "type": "address"
        },
        {
          "internalType": "address",
          "name": "procedure",
          "type": "address"
        },
        {
          "internalType": "bool",
          "name": "lock",
          "type": "bool"
        }
      ],
      "name": "moveRemoveProcedure",
      "outputs": [],
      "stateMutability": "nonpayable",
      "type": "function"
    },
    {
      "inputs": [
        {
          "internalType": "uint256",
          "name": "moveKey",
          "type": "uint256"
        },
        {
          "internalType": "address payable",
          "name": "organ",
          "type": "address"
        },
        {
          "internalType": "uint256",
          "name": "index",
          "type": "uint256"
        },
        {
          "internalType": "address payable",
          "name": "addr",
          "type": "address"
        },
        {
          "internalType": "bytes32",
          "name": "ipfsHash",
          "type": "bytes32"
        },
        {
          "internalType": "uint8",
          "name": "hashFunction",
          "type": "uint8"
        },
        {
          "internalType": "uint8",
          "name": "hashSize",
          "type": "uint8"
        },
        {
          "internalType": "bool",
          "name": "lock",
          "type": "bool"
        }
      ],
      "name": "moveReplaceEntry",
      "outputs": [],
      "stateMutability": "nonpayable",
      "type": "function"
    },
    {
      "inputs": [
        {
          "internalType": "uint256",
          "name": "moveKey",
          "type": "uint256"
        },
        {
          "internalType": "address payable",
          "name": "organ",
          "type": "address"
        },
        {
          "internalType": "address",
          "name": "oldProcedure",
          "type": "address"
        },
        {
          "internalType": "address",
          "name": "newProcedure",
          "type": "address"
        },
        {
          "internalType": "bytes2",
          "name": "permissions",
          "type": "bytes2"
        },
        {
          "internalType": "bool",
          "name": "lock",
          "type": "bool"
        }
      ],
      "name": "moveReplaceProcedure",
      "outputs": [],
      "stateMutability": "nonpayable",
      "type": "function"
    },
    {
      "inputs": [
        {
          "internalType": "uint256",
          "name": "moveKey",
          "type": "uint256"
        },
        {
          "internalType": "address payable",
          "name": "organ",
          "type": "address"
        },
        {
          "internalType": "address",
          "name": "operator",
          "type": "address"
        },
        {
          "internalType": "address",
          "name": "target",
          "type": "address"
        },
        {
          "internalType": "uint256",
          "name": "value",
          "type": "uint256"
        },
        {
          "internalType": "bool",
          "name": "lock",
          "type": "bool"
        }
      ],
      "name": "moveTransferCoins",
      "outputs": [],
      "stateMutability": "nonpayable",
      "type": "function"
    },
    {
      "inputs": [
        {
          "internalType": "uint256",
          "name": "moveKey",
          "type": "uint256"
        },
        {
          "internalType": "address payable",
          "name": "organ",
          "type": "address"
        },
        {
          "internalType": "address",
          "name": "operator",
          "type": "address"
        },
        {
          "internalType": "address",
          "name": "target",
          "type": "address"
        },
        {
          "internalType": "uint256",
          "name": "token_id",
          "type": "uint256"
        },
        {
          "internalType": "bool",
          "name": "lock",
          "type": "bool"
        }
      ],
      "name": "moveTransferCollectible",
      "outputs": [],
      "stateMutability": "nonpayable",
      "type": "function"
    },
    {
      "inputs": [
        {
          "internalType": "uint256",
          "name": "moveKey",
          "type": "uint256"
        },
        {
          "internalType": "address payable",
          "name": "organ",
          "type": "address"
        },
        {
          "internalType": "address",
          "name": "target",
          "type": "address"
        },
        {
          "internalType": "uint256",
          "name": "value",
          "type": "uint256"
        },
        {
          "internalType": "bool",
          "name": "lock",
          "type": "bool"
        }
      ],
      "name": "moveTransferEther",
      "outputs": [],
      "stateMutability": "nonpayable",
      "type": "function"
    },
    {
      "inputs": [],
      "name": "nominatersOrgan",
      "outputs": [
        {
          "internalType": "address payable",
          "name": "",
          "type": "address"
        }
      ],
      "stateMutability": "view",
      "type": "function",
      "constant": true
    },
    {
      "inputs": [
        {
          "internalType": "address payable",
          "name": "admin",
          "type": "address"
        }
      ],
      "name": "updateAdmin",
      "outputs": [],
      "stateMutability": "nonpayable",
      "type": "function"
    },
    {
      "inputs": [
        {
          "internalType": "bytes32",
          "name": "ipfsHash",
          "type": "bytes32"
        },
        {
          "internalType": "uint8",
          "name": "hashFunction",
          "type": "uint8"
        },
        {
          "internalType": "uint8",
          "name": "hashSize",
          "type": "uint8"
        }
      ],
      "name": "updateMetadata",
      "outputs": [],
      "stateMutability": "nonpayable",
      "type": "function"
    },
    {
      "inputs": [
        {
          "internalType": "uint256",
          "name": "moveKey",
          "type": "uint256"
        }
      ],
      "name": "nominate",
      "outputs": [],
      "stateMutability": "nonpayable",
      "type": "function"
    }
  ],
  "bytecode": "0x608060405260036000806101000a81548160ff021916908360ff1602179055503480156200002c57600080fd5b5060405162004b9a38038062004b9a833981810160405281019062000052919062000196565b8383836000600181600060016101000a81548160ff02191690831515021790555080600060026101000a81548160ff0219169083151502179055505050600173__ProcedureLibrary______________________63359a395d90918585856040518563ffffffff1660e01b8152600401620000d194939291906200022b565b60006040518083038186803b158015620000ea57600080fd5b505af4158015620000ff573d6000803e3d6000fd5b5050505050505080600660006101000a81548173ffffffffffffffffffffffffffffffffffffffff021916908373ffffffffffffffffffffffffffffffffffffffff1602179055505050505062000311565b6000815190506200016281620002c3565b92915050565b6000815190506200017981620002dd565b92915050565b6000815190506200019081620002f7565b92915050565b60008060008060808587031215620001ad57600080fd5b6000620001bd8782880162000168565b9450506020620001d0878288016200017f565b9350506040620001e3878288016200017f565b9250506060620001f68782880162000151565b91505092959194509250565b6200020d816200028c565b82525050565b8082525050565b6200022581620002b6565b82525050565b600060808201905062000242600083018762000213565b62000251602083018662000202565b6200026060408301856200021a565b6200026f60608301846200021a565b95945050505050565b6000620002858262000296565b9050919050565b6000819050919050565b600073ffffffffffffffffffffffffffffffffffffffff82169050919050565b600060ff82169050919050565b620002ce8162000278565b8114620002da57600080fd5b50565b620002e8816200028c565b8114620002f457600080fd5b50565b6200030281620002b6565b81146200030e57600080fd5b50565b61487980620003216000396000f3fe608060405234801561001057600080fd5b506004361061014d5760003560e01c80637c3a5fcc116100c3578063c91ebea81161007c578063c91ebea81461034a578063cb6bc9ff14610368578063cc12503114610384578063e2a6ed04146103a0578063e2f273bd146103be578063fa160aa2146103da5761014d565b80637c3a5fcc1461028c5780637ee7fa40146102a857806390f2ee22146102c4578063a2b58cda146102e2578063c492f46314610312578063c5f28e491461032e5761014d565b806352c041b21161011557806352c041b2146101e25780635a31b560146101fe5780635ba357dc1461021a5780636322ab201461023657806367c322d014610252578063759913d61461026e5761014d565b80630b5522a914610152578063148a20051461016e578063249abcf71461018a5780632c1d5337146101aa57806339c2ae70146101c6575b600080fd5b61016c60048036038101906101679190613ddc565b6103f6565b005b61018860048036038101906101839190613cf0565b610419565b005b61019261043f565b6040516101a193929190614510565b60405180910390f35b6101c460048036038101906101bf9190613c67565b61047c565b005b6101e060048036038101906101db9190613bef565b6104a2565b005b6101fc60048036038101906101f79190613f45565b610517565b005b61021860048036038101906102139190613cf0565b610543565b005b610234600480360381019061022f9190613c3e565b610569565b005b610250600480360381019061024b9190613ff7565b610580565b005b61026c60048036038101906102679190613d79565b6105a0565b005b6102766105c0565b6040516102839190614610565b60405180910390f35b6102a660048036038101906102a19190613cf0565b6105d1565b005b6102c260048036038101906102bd9190613e53565b6105f7565b005b6102cc61061a565b6040516102d991906144f5565b60405180910390f35b6102fc60048036038101906102f79190613bef565b61062d565b60405161030991906145f5565b60405180910390f35b61032c60048036038101906103279190613eca565b610650565b005b61034860048036038101906103439190613c3e565b610670565b005b610352610768565b60405161035f91906144f5565b60405180910390f35b610382600480360381019061037d9190613cf0565b61077b565b005b61039e60048036038101906103999190613e53565b6107a1565b005b6103a86107c4565b6040516103b591906142d6565b60405180910390f35b6103d860048036038101906103d39190613b9d565b6107ea565b005b6103f460048036038101906103ef919061405a565b610859565b005b610412858585858560016108769095949392919063ffffffff16565b5050505050565b6104378686868686866001610be1909695949392919063ffffffff16565b505050505050565b60008060008060019054906101000a900460ff16600060029054906101000a900460ff1660008054906101000a900460ff16925092509250909192565b61049a8686868686866001610f4f909695949392919063ffffffff16565b505050505050565b600173__ProcedureLibrary______________________63b8cc9a0290918585856040518563ffffffff1660e01b81526004016104e294939291906145b0565b60006040518083038186803b1580156104fa57600080fd5b505af415801561050e573d6000803e3d6000fd5b50505050505050565b610539888888888888888860016112bd9098979695949392919063ffffffff16565b5050505050505050565b61056186868686868660016115fb909695949392919063ffffffff16565b505050505050565b61057d81600161196990919063ffffffff16565b50565b61059a848484846001611b4990949392919063ffffffff16565b50505050565b6105ba848484846001611eb190949392919063ffffffff16565b50505050565b60008054906101000a900460ff1681565b6105ef8686868686866001612219909695949392919063ffffffff16565b505050505050565b610613858585858560016125859095949392919063ffffffff16565b5050505050565b600060019054906101000a900460ff1681565b600061064784848460016128f0909392919063ffffffff16565b90509392505050565b61066a8484848460016129f390949392919063ffffffff16565b50505050565b600660009054906101000a900473ffffffffffffffffffffffffffffffffffffffff1673__ProcedureLibrary______________________637c3b86fe82336040518363ffffffff1660e01b81526004016106cc92919061431a565b60206040518083038186803b1580156106e457600080fd5b505af41580156106f8573d6000803e3d6000fd5b505050506040513d601f19601f8201168201806040525081019061071c9190613bc6565b61075b576040517f08c379a000000000000000000000000000000000000000000000000000000000815260040161075290614567565b60405180910390fd5b61076482612d5b565b5050565b600060029054906101000a900460ff1681565b6107998686868686866001612d72909695949392919063ffffffff16565b505050505050565b6107bd858585858560016130e09095949392919063ffffffff16565b5050505050565b600660009054906101000a900473ffffffffffffffffffffffffffffffffffffffff1681565b600173__ProcedureLibrary______________________638e956e929091836040518363ffffffff1660e01b8152600401610826929190614587565b60006040518083038186803b15801561083e57600080fd5b505af4158015610852573d6000803e3d6000fd5b5050505050565b610871838383600161344b909392919063ffffffff16565b505050565b85853373ffffffffffffffffffffffffffffffffffffffff1682600301600083815260200190815260200160002060000160009054906101000a900473ffffffffffffffffffffffffffffffffffffffff1673ffffffffffffffffffffffffffffffffffffffff161461091e576040517f08c379a000000000000000000000000000000000000000000000000000000000815260040161091590614547565b60405180910390fd5b878781600301600082815260200190815260200160002060030160009054906101000a900460ff16158015610976575081600301600082815260200190815260200160002060030160019054906101000a900460ff16155b80156109a5575081600301600082815260200190815260200160002060030160029054906101000a900460ff16155b6109e4576040517f08c379a00000000000000000000000000000000000000000000000000000000081526004016109db90614547565b60405180910390fd5b8960030160008a815260200190815260200160002060040160405180608001604052808c60030160008d8152602001908152602001600020600401805490508152602001600460ff1681526020016390b137e98b8b8b604051602401610a4c939291906143cd565b6040516020818303038152906040529060e01b6020820180517bffffffffffffffffffffffffffffffffffffffffffffffffffffffff838183161783525050505081526020016000151581525090806001815401808255809150506001900390600052602060002090600402016000909190919091506000820151816000015560208201518160010160006101000a81548160ff021916908360ff1602179055506040820151816002019080519060200190610b0992919061390d565b5060608201518160030160006101000a81548160ff02191690831515021790555050508415610bd55760018a60030160008b815260200190815260200160002060030160006101000a81548160ff0219169083151502179055507f7306ab933b6e1df1bd2fddce7143eeedd65d5996fada0e9168c4e8c3d1ece94d8a60030160008b815260200190815260200160002060000160009054906101000a900473ffffffffffffffffffffffffffffffffffffffff168a604051610bcc92919061446b565b60405180910390a15b50505050505050505050565b86863373ffffffffffffffffffffffffffffffffffffffff1682600301600083815260200190815260200160002060000160009054906101000a900473ffffffffffffffffffffffffffffffffffffffff1673ffffffffffffffffffffffffffffffffffffffff1614610c89576040517f08c379a0000000000000000000000000000000000000000000000000000000008152600401610c8090614547565b60405180910390fd5b888881600301600082815260200190815260200160002060030160009054906101000a900460ff16158015610ce1575081600301600082815260200190815260200160002060030160019054906101000a900460ff16155b8015610d10575081600301600082815260200190815260200160002060030160029054906101000a900460ff16155b610d4f576040517f08c379a0000000000000000000000000000000000000000000000000000000008152600401610d4690614547565b60405180910390fd5b8a60030160008b815260200190815260200160002060040160405180608001604052808d60030160008e8152602001908152602001600020600401805490508152602001600760ff16815260200163c10753298c8c8c8c604051602401610db99493929190614388565b6040516020818303038152906040529060e01b6020820180517bffffffffffffffffffffffffffffffffffffffffffffffffffffffff838183161783525050505081526020016000151581525090806001815401808255809150506001900390600052602060002090600402016000909190919091506000820151816000015560208201518160010160006101000a81548160ff021916908360ff1602179055506040820151816002019080519060200190610e7692919061390d565b5060608201518160030160006101000a81548160ff02191690831515021790555050508415610f425760018b60030160008c815260200190815260200160002060030160006101000a81548160ff0219169083151502179055507f7306ab933b6e1df1bd2fddce7143eeedd65d5996fada0e9168c4e8c3d1ece94d8b60030160008c815260200190815260200160002060000160009054906101000a900473ffffffffffffffffffffffffffffffffffffffff168b604051610f3992919061446b565b60405180910390a15b5050505050505050505050565b86863373ffffffffffffffffffffffffffffffffffffffff1682600301600083815260200190815260200160002060000160009054906101000a900473ffffffffffffffffffffffffffffffffffffffff1673ffffffffffffffffffffffffffffffffffffffff1614610ff7576040517f08c379a0000000000000000000000000000000000000000000000000000000008152600401610fee90614547565b60405180910390fd5b888881600301600082815260200190815260200160002060030160009054906101000a900460ff1615801561104f575081600301600082815260200190815260200160002060030160019054906101000a900460ff16155b801561107e575081600301600082815260200190815260200160002060030160029054906101000a900460ff16155b6110bd576040517f08c379a00000000000000000000000000000000000000000000000000000000081526004016110b490614547565b60405180910390fd5b8a60030160008b815260200190815260200160002060040160405180608001604052808d60030160008e8152602001908152602001600020600401805490508152602001600660ff168152602001635676c77d8c8c8c8c6040516024016111279493929190614343565b6040516020818303038152906040529060e01b6020820180517bffffffffffffffffffffffffffffffffffffffffffffffffffffffff838183161783525050505081526020016000151581525090806001815401808255809150506001900390600052602060002090600402016000909190919091506000820151816000015560208201518160010160006101000a81548160ff021916908360ff16021790555060408201518160020190805190602001906111e492919061390d565b5060608201518160030160006101000a81548160ff021916908315150217905550505084156112b05760018b60030160008c815260200190815260200160002060030160006101000a81548160ff0219169083151502179055507f7306ab933b6e1df1bd2fddce7143eeedd65d5996fada0e9168c4e8c3d1ece94d8b60030160008c815260200190815260200160002060000160009054906101000a900473ffffffffffffffffffffffffffffffffffffffff168b6040516112a792919061446b565b60405180910390a15b5050505050505050505050565b88883373ffffffffffffffffffffffffffffffffffffffff1682600301600083815260200190815260200160002060000160009054906101000a900473ffffffffffffffffffffffffffffffffffffffff1673ffffffffffffffffffffffffffffffffffffffff1614611365576040517f08c379a000000000000000000000000000000000000000000000000000000000815260040161135c90614547565b60405180910390fd5b8a8a81600301600082815260200190815260200160002060030160009054906101000a900460ff161580156113bd575081600301600082815260200190815260200160002060030160019054906101000a900460ff16155b80156113ec575081600301600082815260200190815260200160002060030160029054906101000a900460ff16155b61142b576040517f08c379a000000000000000000000000000000000000000000000000000000000815260040161142290614547565b60405180910390fd5b60008d60030160008e8152602001908152602001600020905080600401604051806080016040528083600401805490508152602001600360ff16815260200163155a73ce8f8f8f8f8f8f60405160240161148a96959493929190614494565b6040516020818303038152906040529060e01b6020820180517bffffffffffffffffffffffffffffffffffffffffffffffffffffffff838183161783525050505081526020016000151581525090806001815401808255809150506001900390600052602060002090600402016000909190919091506000820151816000015560208201518160010160006101000a81548160ff021916908360ff160217905550604082015181600201908051906020019061154792919061390d565b5060608201518160030160006101000a81548160ff021916908315150217905550505085156115eb5760018160030160006101000a81548160ff0219169083151502179055507f7306ab933b6e1df1bd2fddce7143eeedd65d5996fada0e9168c4e8c3d1ece94d8160000160009054906101000a900473ffffffffffffffffffffffffffffffffffffffff168e6040516115e292919061446b565b60405180910390a15b5050505050505050505050505050565b86863373ffffffffffffffffffffffffffffffffffffffff1682600301600083815260200190815260200160002060000160009054906101000a900473ffffffffffffffffffffffffffffffffffffffff1673ffffffffffffffffffffffffffffffffffffffff16146116a3576040517f08c379a000000000000000000000000000000000000000000000000000000000815260040161169a90614547565b60405180910390fd5b888881600301600082815260200190815260200160002060030160009054906101000a900460ff161580156116fb575081600301600082815260200190815260200160002060030160019054906101000a900460ff16155b801561172a575081600301600082815260200190815260200160002060030160029054906101000a900460ff16155b611769576040517f08c379a000000000000000000000000000000000000000000000000000000000815260040161176090614547565b60405180910390fd5b8a60030160008b815260200190815260200160002060040160405180608001604052808d60030160008e8152602001908152602001600020600401805490508152602001600860ff168152602001635e35359e8c8c8c8c6040516024016117d39493929190614388565b6040516020818303038152906040529060e01b6020820180517bffffffffffffffffffffffffffffffffffffffffffffffffffffffff838183161783525050505081526020016000151581525090806001815401808255809150506001900390600052602060002090600402016000909190919091506000820151816000015560208201518160010160006101000a81548160ff021916908360ff160217905550604082015181600201908051906020019061189092919061390d565b5060608201518160030160006101000a81548160ff0219169083151502179055505050841561195c5760018b60030160008c815260200190815260200160002060030160006101000a81548160ff0219169083151502179055507f7306ab933b6e1df1bd2fddce7143eeedd65d5996fada0e9168c4e8c3d1ece94d8b60030160008c815260200190815260200160002060000160009054906101000a900473ffffffffffffffffffffffffffffffffffffffff168b60405161195392919061446b565b60405180910390a15b5050505050505050505050565b81813373ffffffffffffffffffffffffffffffffffffffff1682600301600083815260200190815260200160002060000160009054906101000a900473ffffffffffffffffffffffffffffffffffffffff1673ffffffffffffffffffffffffffffffffffffffff1614611a11576040517f08c379a0000000000000000000000000000000000000000000000000000000008152600401611a0890614547565b60405180910390fd5b838381600301600082815260200190815260200160002060030160009054906101000a900460ff16158015611a69575081600301600082815260200190815260200160002060030160019054906101000a900460ff16155b8015611a98575081600301600082815260200190815260200160002060030160029054906101000a900460ff16155b611ad7576040517f08c379a0000000000000000000000000000000000000000000000000000000008152600401611ace90614547565b60405180910390fd5b600186600301600087815260200190815260200160002060030160006101000a81548160ff0219169083151502179055507f7306ab933b6e1df1bd2fddce7143eeedd65d5996fada0e9168c4e8c3d1ece94d3386604051611b3992919061446b565b60405180910390a1505050505050565b84843373ffffffffffffffffffffffffffffffffffffffff1682600301600083815260200190815260200160002060000160009054906101000a900473ffffffffffffffffffffffffffffffffffffffff1673ffffffffffffffffffffffffffffffffffffffff1614611bf1576040517f08c379a0000000000000000000000000000000000000000000000000000000008152600401611be890614547565b60405180910390fd5b868681600301600082815260200190815260200160002060030160009054906101000a900460ff16158015611c49575081600301600082815260200190815260200160002060030160019054906101000a900460ff16155b8015611c78575081600301600082815260200190815260200160002060030160029054906101000a900460ff16155b611cb7576040517f08c379a0000000000000000000000000000000000000000000000000000000008152600401611cae90614547565b60405180910390fd5b88600301600089815260200190815260200160002060040160405180608001604052808b60030160008c8152602001908152602001600020600401805490508152602001600260ff1681526020016376a6411c8a8a604051602401611d1d92919061446b565b6040516020818303038152906040529060e01b6020820180517bffffffffffffffffffffffffffffffffffffffffffffffffffffffff838183161783525050505081526020016000151581525090806001815401808255809150506001900390600052602060002090600402016000909190919091506000820151816000015560208201518160010160006101000a81548160ff021916908360ff1602179055506040820151816002019080519060200190611dda92919061390d565b5060608201518160030160006101000a81548160ff02191690831515021790555050508415611ea65760018960030160008a815260200190815260200160002060030160006101000a81548160ff0219169083151502179055507f7306ab933b6e1df1bd2fddce7143eeedd65d5996fada0e9168c4e8c3d1ece94d8960030160008a815260200190815260200160002060000160009054906101000a900473ffffffffffffffffffffffffffffffffffffffff1689604051611e9d92919061446b565b60405180910390a15b505050505050505050565b84843373ffffffffffffffffffffffffffffffffffffffff1682600301600083815260200190815260200160002060000160009054906101000a900473ffffffffffffffffffffffffffffffffffffffff1673ffffffffffffffffffffffffffffffffffffffff1614611f59576040517f08c379a0000000000000000000000000000000000000000000000000000000008152600401611f5090614547565b60405180910390fd5b868681600301600082815260200190815260200160002060030160009054906101000a900460ff16158015611fb1575081600301600082815260200190815260200160002060030160019054906101000a900460ff16155b8015611fe0575081600301600082815260200190815260200160002060030160029054906101000a900460ff16155b61201f576040517f08c379a000000000000000000000000000000000000000000000000000000000815260040161201690614547565b60405180910390fd5b88600301600089815260200190815260200160002060040160405180608001604052808b60030160008c8152602001908152602001600020600401805490508152602001600560ff1681526020016319b9404c8a8a6040516024016120859291906142f1565b6040516020818303038152906040529060e01b6020820180517bffffffffffffffffffffffffffffffffffffffffffffffffffffffff838183161783525050505081526020016000151581525090806001815401808255809150506001900390600052602060002090600402016000909190919091506000820151816000015560208201518160010160006101000a81548160ff021916908360ff160217905550604082015181600201908051906020019061214292919061390d565b5060608201518160030160006101000a81548160ff0219169083151502179055505050841561220e5760018960030160008a815260200190815260200160002060030160006101000a81548160ff0219169083151502179055507f7306ab933b6e1df1bd2fddce7143eeedd65d5996fada0e9168c4e8c3d1ece94d8960030160008a815260200190815260200160002060000160009054906101000a900473ffffffffffffffffffffffffffffffffffffffff168960405161220592919061446b565b60405180910390a15b505050505050505050565b86863373ffffffffffffffffffffffffffffffffffffffff1682600301600083815260200190815260200160002060000160009054906101000a900473ffffffffffffffffffffffffffffffffffffffff1673ffffffffffffffffffffffffffffffffffffffff16146122c1576040517f08c379a00000000000000000000000000000000000000000000000000000000081526004016122b890614547565b60405180910390fd5b888881600301600082815260200190815260200160002060030160009054906101000a900460ff16158015612319575081600301600082815260200190815260200160002060030160019054906101000a900460ff16155b8015612348575081600301600082815260200190815260200160002060030160029054906101000a900460ff16155b612387576040517f08c379a000000000000000000000000000000000000000000000000000000000815260040161237e90614547565b60405180910390fd5b8a60030160008b815260200190815260200160002060040160405180608001604052808d60030160008e8152602001908152602001600020600401805490508152602001600760ff16815260200163c10753298c8c8b6040516024016123ef93929190614404565b6040516020818303038152906040529060e01b6020820180517bffffffffffffffffffffffffffffffffffffffffffffffffffffffff838183161783525050505081526020016000151581525090806001815401808255809150506001900390600052602060002090600402016000909190919091506000820151816000015560208201518160010160006101000a81548160ff021916908360ff16021790555060408201518160020190805190602001906124ac92919061390d565b5060608201518160030160006101000a81548160ff021916908315150217905550505084156125785760018b60030160008c815260200190815260200160002060030160006101000a81548160ff0219169083151502179055507f7306ab933b6e1df1bd2fddce7143eeedd65d5996fada0e9168c4e8c3d1ece94d8b60030160008c815260200190815260200160002060000160009054906101000a900473ffffffffffffffffffffffffffffffffffffffff168b60405161256f92919061446b565b60405180910390a15b5050505050505050505050565b85853373ffffffffffffffffffffffffffffffffffffffff1682600301600083815260200190815260200160002060000160009054906101000a900473ffffffffffffffffffffffffffffffffffffffff1673ffffffffffffffffffffffffffffffffffffffff161461262d576040517f08c379a000000000000000000000000000000000000000000000000000000000815260040161262490614547565b60405180910390fd5b878781600301600082815260200190815260200160002060030160009054906101000a900460ff16158015612685575081600301600082815260200190815260200160002060030160019054906101000a900460ff16155b80156126b4575081600301600082815260200190815260200160002060030160029054906101000a900460ff16155b6126f3576040517f08c379a00000000000000000000000000000000000000000000000000000000081526004016126ea90614547565b60405180910390fd5b8960030160008a815260200190815260200160002060040160405180608001604052808c60030160008d8152602001908152602001600020600401805490508152602001600760ff16815260200163c10753298b8b8b60405160240161275b93929190614404565b6040516020818303038152906040529060e01b6020820180517bffffffffffffffffffffffffffffffffffffffffffffffffffffffff838183161783525050505081526020016000151581525090806001815401808255809150506001900390600052602060002090600402016000909190919091506000820151816000015560208201518160010160006101000a81548160ff021916908360ff160217905550604082015181600201908051906020019061281892919061390d565b5060608201518160030160006101000a81548160ff021916908315150217905550505084156128e45760018a60030160008b815260200190815260200160002060030160006101000a81548160ff0219169083151502179055507f7306ab933b6e1df1bd2fddce7143eeedd65d5996fada0e9168c4e8c3d1ece94d8a60030160008b815260200190815260200160002060000160009054906101000a900473ffffffffffffffffffffffffffffffffffffffff168a6040516128db92919061446b565b60405180910390a15b50505050505050505050565b6000808560040160008154809291906001019190505590503386600301600083815260200190815260200160002060000160006101000a81548173ffffffffffffffffffffffffffffffffffffffff021916908373ffffffffffffffffffffffffffffffffffffffff16021790555060405180606001604052808681526020018560ff1681526020018460ff168152508660030160008381526020019081526020016000206001016000820151816000015560208201518160010160006101000a81548160ff021916908360ff16021790555060408201518160010160016101000a81548160ff021916908360ff16021790555090505080915050949350505050565b84843373ffffffffffffffffffffffffffffffffffffffff1682600301600083815260200190815260200160002060000160009054906101000a900473ffffffffffffffffffffffffffffffffffffffff1673ffffffffffffffffffffffffffffffffffffffff1614612a9b576040517f08c379a0000000000000000000000000000000000000000000000000000000008152600401612a9290614547565b60405180910390fd5b868681600301600082815260200190815260200160002060030160009054906101000a900460ff16158015612af3575081600301600082815260200190815260200160002060030160019054906101000a900460ff16155b8015612b22575081600301600082815260200190815260200160002060030160029054906101000a900460ff16155b612b61576040517f08c379a0000000000000000000000000000000000000000000000000000000008152600401612b5890614547565b60405180910390fd5b88600301600089815260200190815260200160002060040160405180608001604052808b60030160008c8152602001908152602001600020600401805490508152602001600160ff168152602001631715f4de8a8a604051602401612bc792919061443b565b6040516020818303038152906040529060e01b6020820180517bffffffffffffffffffffffffffffffffffffffffffffffffffffffff838183161783525050505081526020016000151581525090806001815401808255809150506001900390600052602060002090600402016000909190919091506000820151816000015560208201518160010160006101000a81548160ff021916908360ff1602179055506040820151816002019080519060200190612c8492919061390d565b5060608201518160030160006101000a81548160ff02191690831515021790555050508415612d505760018960030160008a815260200190815260200160002060030160006101000a81548160ff0219169083151502179055507f7306ab933b6e1df1bd2fddce7143eeedd65d5996fada0e9168c4e8c3d1ece94d8960030160008a815260200190815260200160002060000160009054906101000a900473ffffffffffffffffffffffffffffffffffffffff1689604051612d4792919061446b565b60405180910390a15b505050505050505050565b612d6f81600161375a90919063ffffffff16565b50565b86863373ffffffffffffffffffffffffffffffffffffffff1682600301600083815260200190815260200160002060000160009054906101000a900473ffffffffffffffffffffffffffffffffffffffff1673ffffffffffffffffffffffffffffffffffffffff1614612e1a576040517f08c379a0000000000000000000000000000000000000000000000000000000008152600401612e1190614547565b60405180910390fd5b888881600301600082815260200190815260200160002060030160009054906101000a900460ff16158015612e72575081600301600082815260200190815260200160002060030160019054906101000a900460ff16155b8015612ea1575081600301600082815260200190815260200160002060030160029054906101000a900460ff16155b612ee0576040517f08c379a0000000000000000000000000000000000000000000000000000000008152600401612ed790614547565b60405180910390fd5b8a60030160008b815260200190815260200160002060040160405180608001604052808d60030160008e8152602001908152602001600020600401805490508152602001600860ff168152602001635e35359e8c8c8c8c604051602401612f4a9493929190614388565b6040516020818303038152906040529060e01b6020820180517bffffffffffffffffffffffffffffffffffffffffffffffffffffffff838183161783525050505081526020016000151581525090806001815401808255809150506001900390600052602060002090600402016000909190919091506000820151816000015560208201518160010160006101000a81548160ff021916908360ff160217905550604082015181600201908051906020019061300792919061390d565b5060608201518160030160006101000a81548160ff021916908315150217905550505084156130d35760018b60030160008c815260200190815260200160002060030160006101000a81548160ff0219169083151502179055507f7306ab933b6e1df1bd2fddce7143eeedd65d5996fada0e9168c4e8c3d1ece94d8b60030160008c815260200190815260200160002060000160009054906101000a900473ffffffffffffffffffffffffffffffffffffffff168b6040516130ca92919061446b565b60405180910390a15b5050505050505050505050565b85853373ffffffffffffffffffffffffffffffffffffffff1682600301600083815260200190815260200160002060000160009054906101000a900473ffffffffffffffffffffffffffffffffffffffff1673ffffffffffffffffffffffffffffffffffffffff1614613188576040517f08c379a000000000000000000000000000000000000000000000000000000000815260040161317f90614547565b60405180910390fd5b878781600301600082815260200190815260200160002060030160009054906101000a900460ff161580156131e0575081600301600082815260200190815260200160002060030160019054906101000a900460ff16155b801561320f575081600301600082815260200190815260200160002060030160029054906101000a900460ff16155b61324e576040517f08c379a000000000000000000000000000000000000000000000000000000000815260040161324590614547565b60405180910390fd5b8960030160008a815260200190815260200160002060040160405180608001604052808c60030160008d8152602001908152602001600020600401805490508152602001600860ff168152602001635e35359e8b8b8b6040516024016132b693929190614404565b6040516020818303038152906040529060e01b6020820180517bffffffffffffffffffffffffffffffffffffffffffffffffffffffff838183161783525050505081526020016000151581525090806001815401808255809150506001900390600052602060002090600402016000909190919091506000820151816000015560208201518160010160006101000a81548160ff021916908360ff160217905550604082015181600201908051906020019061337392919061390d565b5060608201518160030160006101000a81548160ff0219169083151502179055505050841561343f5760018a60030160008b815260200190815260200160002060030160006101000a81548160ff0219169083151502179055507f7306ab933b6e1df1bd2fddce7143eeedd65d5996fada0e9168c4e8c3d1ece94d8a60030160008b815260200190815260200160002060000160009054906101000a900473ffffffffffffffffffffffffffffffffffffffff168a60405161343692919061446b565b60405180910390a15b50505050505050505050565b83833373ffffffffffffffffffffffffffffffffffffffff1682600301600083815260200190815260200160002060000160009054906101000a900473ffffffffffffffffffffffffffffffffffffffff1673ffffffffffffffffffffffffffffffffffffffff16146134f3576040517f08c379a00000000000000000000000000000000000000000000000000000000081526004016134ea90614547565b60405180910390fd5b858581600301600082815260200190815260200160002060030160009054906101000a900460ff1615801561354b575081600301600082815260200190815260200160002060030160019054906101000a900460ff16155b801561357a575081600301600082815260200190815260200160002060030160029054906101000a900460ff16155b6135b9576040517f08c379a00000000000000000000000000000000000000000000000000000000081526004016135b090614547565b60405180910390fd5b87600301600088815260200190815260200160002060040160405180608001604052808a60030160008b8152602001908152602001600020600401805490508152602001600060ff1681526020018881526020016000151581525090806001815401808255809150506001900390600052602060002090600402016000909190919091506000820151816000015560208201518160010160006101000a81548160ff021916908360ff160217905550604082015181600201908051906020019061368492919061390d565b5060608201518160030160006101000a81548160ff0219169083151502179055505050841561375057600188600301600089815260200190815260200160002060030160006101000a81548160ff0219169083151502179055507f7306ab933b6e1df1bd2fddce7143eeedd65d5996fada0e9168c4e8c3d1ece94d88600301600089815260200190815260200160002060000160009054906101000a900473ffffffffffffffffffffffffffffffffffffffff168860405161374792919061446b565b60405180910390a15b5050505050505050565b818181600301600082815260200190815260200160002060030160009054906101000a900460ff1680156137b1575081600301600082815260200190815260200160002060030160019054906101000a900460ff16155b80156137e0575081600301600082815260200190815260200160002060030160029054906101000a900460ff16155b61381f576040517f08c379a000000000000000000000000000000000000000000000000000000000815260040161381690614547565b60405180910390fd5b6000846003016000858152602001908152602001600020905060018160030160026101000a81548160ff02191690831515021790555060005b81600401805490508110156138b157600082600401828154811061387857fe5b9060005260206000209060040201905060018160030160006101000a81548160ff02191690831515021790555050806001019050613858565b5060018160030160016101000a81548160ff0219169083151502179055507fd2c6e52f57352f08a7c9894b122d8440f1d87a7949ba8769fe444bf80b9e7a7e846040516138fe91906145f5565b60405180910390a15050505050565b828054600181600116156101000203166002900490600052602060002090601f016020900481019282601f1061394e57805160ff191683800117855561397c565b8280016001018555821561397c579182015b8281111561397b578251825591602001919060010190613960565b5b509050613989919061398d565b5090565b5b808211156139a657600081600090555060010161398e565b5090565b6000813590506139b9816147a2565b92915050565b6000813590506139ce816147b9565b92915050565b600082601f8301126139e557600080fd5b81356139f86139f382614658565b61462b565b91508181835260208401935060208101905083856080840282011115613a1d57600080fd5b60005b83811015613a4d5781613a338882613aff565b845260208401935060808301925050600181019050613a20565b5050505092915050565b600081359050613a66816147d0565b92915050565b600081519050613a7b816147d0565b92915050565b600081359050613a90816147e7565b92915050565b600081359050613aa5816147fe565b92915050565b600082601f830112613abc57600080fd5b8135613acf613aca82614680565b61462b565b91508082526020830160208301858383011115613aeb57600080fd5b613af6838284614793565b50505092915050565b600060808284031215613b1157600080fd5b613b1b608061462b565b90506000613b2b848285016139aa565b6000830152506020613b3f84828501613a96565b6020830152506040613b5384828501613b88565b6040830152506060613b6784828501613b88565b60608301525092915050565b600081359050613b8281614815565b92915050565b600081359050613b978161482c565b92915050565b600060208284031215613baf57600080fd5b6000613bbd848285016139bf565b91505092915050565b600060208284031215613bd857600080fd5b6000613be684828501613a6c565b91505092915050565b600080600060608486031215613c0457600080fd5b6000613c1286828701613a96565b9350506020613c2386828701613b88565b9250506040613c3486828701613b88565b9150509250925092565b600060208284031215613c5057600080fd5b6000613c5e84828501613b73565b91505092915050565b60008060008060008060c08789031215613c8057600080fd5b6000613c8e89828a01613b73565b9650506020613c9f89828a016139bf565b9550506040613cb089828a016139aa565b9450506060613cc189828a016139aa565b9350506080613cd289828a01613a81565b92505060a0613ce389828a01613a57565b9150509295509295509295565b60008060008060008060c08789031215613d0957600080fd5b6000613d1789828a01613b73565b9650506020613d2889828a016139bf565b9550506040613d3989828a016139aa565b9450506060613d4a89828a016139aa565b9350506080613d5b89828a01613b73565b92505060a0613d6c89828a01613a57565b9150509295509295509295565b60008060008060808587031215613d8f57600080fd5b6000613d9d87828801613b73565b9450506020613dae878288016139bf565b9350506040613dbf878288016139aa565b9250506060613dd087828801613a57565b91505092959194509250565b600080600080600060a08688031215613df457600080fd5b6000613e0288828901613b73565b9550506020613e13888289016139bf565b9450506040613e24888289016139aa565b9350506060613e3588828901613a81565b9250506080613e4688828901613a57565b9150509295509295909350565b600080600080600060a08688031215613e6b57600080fd5b6000613e7988828901613b73565b9550506020613e8a888289016139bf565b9450506040613e9b888289016139aa565b9350506060613eac88828901613b73565b9250506080613ebd88828901613a57565b9150509295509295909350565b60008060008060808587031215613ee057600080fd5b6000613eee87828801613b73565b9450506020613eff878288016139bf565b935050604085013567ffffffffffffffff811115613f1c57600080fd5b613f28878288016139d4565b9250506060613f3987828801613a57565b91505092959194509250565b600080600080600080600080610100898b031215613f6257600080fd5b6000613f708b828c01613b73565b9850506020613f818b828c016139bf565b9750506040613f928b828c01613b73565b9650506060613fa38b828c016139bf565b9550506080613fb48b828c01613a96565b94505060a0613fc58b828c01613b88565b93505060c0613fd68b828c01613b88565b92505060e0613fe78b828c01613a57565b9150509295985092959890939650565b6000806000806080858703121561400d57600080fd5b600061401b87828801613b73565b945050602061402c878288016139bf565b935050604061403d87828801613b73565b925050606061404e87828801613a57565b91505092959194509250565b60008060006060848603121561406f57600080fd5b600061407d86828701613b73565b935050602084013567ffffffffffffffff81111561409a57600080fd5b6140a686828701613aab565b92505060406140b786828701613a57565b9150509250925092565b60006140cd838361423e565b60808301905092915050565b6140e281614708565b82525050565b6140f181614708565b82525050565b614100816146f6565b82525050565b61410f816146f6565b82525050565b6000614120826146bc565b61412a81856146d4565b9350614135836146ac565b8060005b8381101561416657815161414d88826140c1565b9750614158836146c7565b925050600181019050614139565b5085935050505092915050565b61417c8161471a565b82525050565b61418b81614726565b82525050565b61419a81614752565b82525050565b6141a981614752565b82525050565b6141b881614752565b82525050565b60006141cb600f836146e5565b91507f4e6f7420617574686f72697a65642e00000000000000000000000000000000006000830152602082019050919050565b600061420b600e836146e5565b91507f4e6f7420617574686f72697a65640000000000000000000000000000000000006000830152602082019050919050565b60808201600082015161425460008501826140f7565b5060208201516142676020850182614191565b50604082015161427a60408501826142a9565b50606082015161428d60608501826142a9565b50505050565b8082525050565b6142a38161477c565b82525050565b6142b281614786565b82525050565b6142c181614786565b82525050565b6142d081614786565b82525050565b60006020820190506142eb60008301846140d9565b92915050565b600060408201905061430660008301856140d9565b6143136020830184614106565b9392505050565b600060408201905061432f60008301856140e8565b61433c60208301846140e8565b9392505050565b600060808201905061435860008301876140d9565b6143656020830186614106565b6143726040830185614106565b61437f6060830184614182565b95945050505050565b600060808201905061439d60008301876140d9565b6143aa6020830186614106565b6143b76040830185614106565b6143c4606083018461429a565b95945050505050565b60006060820190506143e260008301866140d9565b6143ef6020830185614106565b6143fc6040830184614182565b949350505050565b600060608201905061441960008301866140d9565b6144266020830185614106565b614433604083018461429a565b949350505050565b600060408201905061445060008301856140d9565b81810360208301526144628184614115565b90509392505050565b600060408201905061448060008301856140d9565b61448d602083018461429a565b9392505050565b600060c0820190506144a960008301896140d9565b6144b6602083018861429a565b6144c360408301876140d9565b6144d060608301866141a0565b6144dd60808301856142b8565b6144ea60a08301846142b8565b979650505050505050565b600060208201905061450a6000830184614173565b92915050565b60006060820190506145256000830186614173565b6145326020830185614173565b61453f60408301846142b8565b949350505050565b60006020820190508181036000830152614560816141be565b9050919050565b60006020820190508181036000830152614580816141fe565b9050919050565b600060408201905061459c6000830185614293565b6145a960208301846140e8565b9392505050565b60006080820190506145c56000830187614293565b6145d260208301866141af565b6145df60408301856142c7565b6145ec60608301846142c7565b95945050505050565b600060208201905061460a600083018461429a565b92915050565b600060208201905061462560008301846142b8565b92915050565b6000604051905081810181811067ffffffffffffffff8211171561464e57600080fd5b8060405250919050565b600067ffffffffffffffff82111561466f57600080fd5b602082029050602081019050919050565b600067ffffffffffffffff82111561469757600080fd5b601f19601f8301169050602081019050919050565b6000819050602082019050919050565b600081519050919050565b6000602082019050919050565b600082825260208201905092915050565b600082825260208201905092915050565b60006147018261475c565b9050919050565b60006147138261475c565b9050919050565b60008115159050919050565b60007fffff00000000000000000000000000000000000000000000000000000000000082169050919050565b6000819050919050565b600073ffffffffffffffffffffffffffffffffffffffff82169050919050565b6000819050919050565b600060ff82169050919050565b82818337600083830152505050565b6147ab816146f6565b81146147b657600080fd5b50565b6147c281614708565b81146147cd57600080fd5b50565b6147d98161471a565b81146147e457600080fd5b50565b6147f081614726565b81146147fb57600080fd5b50565b61480781614752565b811461481257600080fd5b50565b61481e8161477c565b811461482957600080fd5b50565b61483581614786565b811461484057600080fd5b5056fea2646970667358221220eebcd23e9e385c6356fccdd877a2bd57443fd200a56e156d76ff49553d26e4f264736f6c634300060c0033",
  "immutableReferences": {},
  "source": "// SPDX-License-Identifier: LGPL-3.0-or-later\npragma solidity ^0.6.0;\npragma experimental ABIEncoderV2;\n\n/**\n    Nomination procedure.\n    A nomination applies an effect if nominator is in the nominaters organ.\n*/\n\nimport \"../Procedure.sol\";\n\ncontract SimpleNominationProcedure is Procedure {\n    address payable public nominatersOrgan;\n\n    constructor (\n        bytes32 _metadataIpfsHash, uint8 _metadataHashFunction, uint8 _metadataHashSize,\n        address payable _nominatersOrgan\n    ) Procedure (_metadataIpfsHash, _metadataHashFunction, _metadataHashSize)\n        public\n    {\n        nominatersOrgan = _nominatersOrgan;\n    }\n\n    function nominate(uint256 moveKey)\n        public onlyInOrgan(nominatersOrgan)\n    {\n        Procedure.applyMove(moveKey);\n    }\n}",
  "sourcePath": "/Users/alex/Code/organigr.am/contracts/contracts/procedures/SimpleNomination.sol",
  "compiler": {
    "name": "solc",
    "version": "0.6.12+commit.27d51765.Emscripten.clang"
  },
  "schemaVersion": "3.2.5",
  "updatedAt": "2020-10-05T19:37:40.609Z",
  "networkType": "ethereum",
  "devdoc": {
    "kind": "dev",
    "methods": {},
    "version": 1
  },
  "userdoc": {
    "kind": "user",
    "methods": {
      "createMove(bytes32,uint8,uint8)": {
        "notice": "Public API : Moves creation and update."
      },
      "updateMetadata(bytes32,uint8,uint8)": {
        "notice": "Public API : Procedure Metadata and Admin."
      }
    },
    "version": 1
  }
}