{
  "contractName": "SimpleNominationProcedure",
  "abi": [
    {
      "inputs": [
        {
          "internalType": "bytes32",
          "name": "_metadataIpfsHash",
          "type": "bytes32"
        },
        {
          "internalType": "uint8",
          "name": "_metadataHashFunction",
          "type": "uint8"
        },
        {
          "internalType": "uint8",
          "name": "_metadataHashSize",
          "type": "uint8"
        },
        {
          "internalType": "address payable",
          "name": "_nominatersOrgan",
          "type": "address"
        }
      ],
      "stateMutability": "nonpayable",
      "type": "constructor"
    },
    {
      "inputs": [
        {
          "internalType": "bytes32",
          "name": "ipfsHash",
          "type": "bytes32"
        },
        {
          "internalType": "uint8",
          "name": "hashFunction",
          "type": "uint8"
        },
        {
          "internalType": "uint8",
          "name": "hashSize",
          "type": "uint8"
        }
      ],
      "name": "createMove",
      "outputs": [
        {
          "internalType": "uint256",
          "name": "",
          "type": "uint256"
        }
      ],
      "stateMutability": "nonpayable",
      "type": "function"
    },
    {
      "inputs": [],
      "name": "getMetadata",
      "outputs": [
        {
          "internalType": "bytes32",
          "name": "ipfsHash",
          "type": "bytes32"
        },
        {
          "internalType": "uint8",
          "name": "hashFunction",
          "type": "uint8"
        },
        {
          "internalType": "uint8",
          "name": "hashSize",
          "type": "uint8"
        }
      ],
      "stateMutability": "view",
      "type": "function",
      "constant": true
    },
    {
      "inputs": [
        {
          "internalType": "uint256",
          "name": "moveKey",
          "type": "uint256"
        }
      ],
      "name": "getMove",
      "outputs": [
        {
          "components": [
            {
              "internalType": "address payable",
              "name": "creator",
              "type": "address"
            },
            {
              "components": [
                {
                  "internalType": "bytes32",
                  "name": "ipfsHash",
                  "type": "bytes32"
                },
                {
                  "internalType": "uint8",
                  "name": "hashFunction",
                  "type": "uint8"
                },
                {
                  "internalType": "uint8",
                  "name": "hashSize",
                  "type": "uint8"
                }
              ],
              "internalType": "struct ProcedureLibrary.Metadata",
              "name": "metadata",
              "type": "tuple"
            },
            {
              "internalType": "bool",
              "name": "locked",
              "type": "bool"
            },
            {
              "internalType": "bool",
              "name": "applied",
              "type": "bool"
            },
            {
              "internalType": "bool",
              "name": "processing",
              "type": "bool"
            },
            {
              "components": [
                {
                  "internalType": "uint256",
                  "name": "index",
                  "type": "uint256"
                },
                {
                  "internalType": "address payable",
                  "name": "organ",
                  "type": "address"
                },
                {
                  "internalType": "uint256",
                  "name": "value",
                  "type": "uint256"
                },
                {
                  "internalType": "uint8",
                  "name": "operationType",
                  "type": "uint8"
                },
                {
                  "internalType": "bytes",
                  "name": "callData",
                  "type": "bytes"
                },
                {
                  "internalType": "bool",
                  "name": "processed",
                  "type": "bool"
                }
              ],
              "internalType": "struct ProcedureLibrary.Operation[]",
              "name": "operations",
              "type": "tuple[]"
            }
          ],
          "internalType": "struct ProcedureLibrary.Move",
          "name": "move",
          "type": "tuple"
        }
      ],
      "stateMutability": "view",
      "type": "function",
      "constant": true
    },
    {
      "inputs": [],
      "name": "getMovesLength",
      "outputs": [
        {
          "internalType": "uint256",
          "name": "length",
          "type": "uint256"
        }
      ],
      "stateMutability": "view",
      "type": "function",
      "constant": true
    },
    {
      "inputs": [
        {
          "internalType": "uint256",
          "name": "moveKey",
          "type": "uint256"
        }
      ],
      "name": "lockMove",
      "outputs": [],
      "stateMutability": "nonpayable",
      "type": "function"
    },
    {
      "inputs": [
        {
          "internalType": "uint256",
          "name": "moveKey",
          "type": "uint256"
        },
        {
          "internalType": "address payable",
          "name": "organ",
          "type": "address"
        },
        {
          "components": [
            {
              "internalType": "address",
              "name": "addr",
              "type": "address"
            },
            {
              "internalType": "bytes32",
              "name": "ipfsHash",
              "type": "bytes32"
            },
            {
              "internalType": "uint8",
              "name": "hashFunction",
              "type": "uint8"
            },
            {
              "internalType": "uint8",
              "name": "hashSize",
              "type": "uint8"
            }
          ],
          "internalType": "struct OrganLibrary.Entry[]",
          "name": "entries",
          "type": "tuple[]"
        },
        {
          "internalType": "bool",
          "name": "lock",
          "type": "bool"
        }
      ],
      "name": "moveAddEntries",
      "outputs": [],
      "stateMutability": "nonpayable",
      "type": "function"
    },
    {
      "inputs": [
        {
          "internalType": "uint256",
          "name": "moveKey",
          "type": "uint256"
        },
        {
          "internalType": "address payable",
          "name": "organ",
          "type": "address"
        },
        {
          "internalType": "address",
          "name": "procedure",
          "type": "address"
        },
        {
          "internalType": "bytes2",
          "name": "permissions",
          "type": "bytes2"
        },
        {
          "internalType": "bool",
          "name": "lock",
          "type": "bool"
        }
      ],
      "name": "moveAddProcedure",
      "outputs": [],
      "stateMutability": "nonpayable",
      "type": "function"
    },
    {
      "inputs": [
        {
          "internalType": "uint256",
          "name": "moveKey",
          "type": "uint256"
        },
        {
          "internalType": "bytes",
          "name": "call",
          "type": "bytes"
        },
        {
          "internalType": "bool",
          "name": "lock",
          "type": "bool"
        }
      ],
      "name": "moveCall",
      "outputs": [],
      "stateMutability": "nonpayable",
      "type": "function"
    },
    {
      "inputs": [
        {
          "internalType": "uint256",
          "name": "moveKey",
          "type": "uint256"
        },
        {
          "internalType": "address payable",
          "name": "organ",
          "type": "address"
        },
        {
          "internalType": "address",
          "name": "operator",
          "type": "address"
        },
        {
          "internalType": "address",
          "name": "target",
          "type": "address"
        },
        {
          "internalType": "uint256",
          "name": "value",
          "type": "uint256"
        },
        {
          "internalType": "bool",
          "name": "lock",
          "type": "bool"
        }
      ],
      "name": "moveReceiveCoins",
      "outputs": [],
      "stateMutability": "nonpayable",
      "type": "function"
    },
    {
      "inputs": [
        {
          "internalType": "uint256",
          "name": "moveKey",
          "type": "uint256"
        },
        {
          "internalType": "address payable",
          "name": "organ",
          "type": "address"
        },
        {
          "internalType": "address",
          "name": "operator",
          "type": "address"
        },
        {
          "internalType": "address",
          "name": "target",
          "type": "address"
        },
        {
          "internalType": "uint256",
          "name": "token_id",
          "type": "uint256"
        },
        {
          "internalType": "bool",
          "name": "lock",
          "type": "bool"
        }
      ],
      "name": "moveReceiveCollectible",
      "outputs": [],
      "stateMutability": "nonpayable",
      "type": "function"
    },
    {
      "inputs": [
        {
          "internalType": "uint256",
          "name": "moveKey",
          "type": "uint256"
        },
        {
          "internalType": "address payable",
          "name": "organ",
          "type": "address"
        },
        {
          "internalType": "address",
          "name": "target",
          "type": "address"
        },
        {
          "internalType": "uint256",
          "name": "value",
          "type": "uint256"
        },
        {
          "internalType": "bool",
          "name": "lock",
          "type": "bool"
        }
      ],
      "name": "moveReceiveEther",
      "outputs": [],
      "stateMutability": "nonpayable",
      "type": "function"
    },
    {
      "inputs": [
        {
          "internalType": "uint256",
          "name": "moveKey",
          "type": "uint256"
        },
        {
          "internalType": "address payable",
          "name": "organ",
          "type": "address"
        },
        {
          "internalType": "uint256",
          "name": "indexes",
          "type": "uint256"
        },
        {
          "internalType": "bool",
          "name": "lock",
          "type": "bool"
        }
      ],
      "name": "moveRemoveEntry",
      "outputs": [],
      "stateMutability": "nonpayable",
      "type": "function"
    },
    {
      "inputs": [
        {
          "internalType": "uint256",
          "name": "moveKey",
          "type": "uint256"
        },
        {
          "internalType": "address payable",
          "name": "organ",
          "type": "address"
        },
        {
          "internalType": "address",
          "name": "procedure",
          "type": "address"
        },
        {
          "internalType": "bool",
          "name": "lock",
          "type": "bool"
        }
      ],
      "name": "moveRemoveProcedure",
      "outputs": [],
      "stateMutability": "nonpayable",
      "type": "function"
    },
    {
      "inputs": [
        {
          "internalType": "uint256",
          "name": "moveKey",
          "type": "uint256"
        },
        {
          "internalType": "address payable",
          "name": "organ",
          "type": "address"
        },
        {
          "internalType": "uint256",
          "name": "index",
          "type": "uint256"
        },
        {
          "internalType": "address payable",
          "name": "addr",
          "type": "address"
        },
        {
          "internalType": "bytes32",
          "name": "ipfsHash",
          "type": "bytes32"
        },
        {
          "internalType": "uint8",
          "name": "hashFunction",
          "type": "uint8"
        },
        {
          "internalType": "uint8",
          "name": "hashSize",
          "type": "uint8"
        },
        {
          "internalType": "bool",
          "name": "lock",
          "type": "bool"
        }
      ],
      "name": "moveReplaceEntry",
      "outputs": [],
      "stateMutability": "nonpayable",
      "type": "function"
    },
    {
      "inputs": [
        {
          "internalType": "uint256",
          "name": "moveKey",
          "type": "uint256"
        },
        {
          "internalType": "address payable",
          "name": "organ",
          "type": "address"
        },
        {
          "internalType": "address",
          "name": "oldProcedure",
          "type": "address"
        },
        {
          "internalType": "address",
          "name": "newProcedure",
          "type": "address"
        },
        {
          "internalType": "bytes2",
          "name": "permissions",
          "type": "bytes2"
        },
        {
          "internalType": "bool",
          "name": "lock",
          "type": "bool"
        }
      ],
      "name": "moveReplaceProcedure",
      "outputs": [],
      "stateMutability": "nonpayable",
      "type": "function"
    },
    {
      "inputs": [
        {
          "internalType": "uint256",
          "name": "moveKey",
          "type": "uint256"
        },
        {
          "internalType": "address payable",
          "name": "organ",
          "type": "address"
        },
        {
          "internalType": "address",
          "name": "operator",
          "type": "address"
        },
        {
          "internalType": "address",
          "name": "target",
          "type": "address"
        },
        {
          "internalType": "uint256",
          "name": "value",
          "type": "uint256"
        },
        {
          "internalType": "bool",
          "name": "lock",
          "type": "bool"
        }
      ],
      "name": "moveTransferCoins",
      "outputs": [],
      "stateMutability": "nonpayable",
      "type": "function"
    },
    {
      "inputs": [
        {
          "internalType": "uint256",
          "name": "moveKey",
          "type": "uint256"
        },
        {
          "internalType": "address payable",
          "name": "organ",
          "type": "address"
        },
        {
          "internalType": "address",
          "name": "operator",
          "type": "address"
        },
        {
          "internalType": "address",
          "name": "target",
          "type": "address"
        },
        {
          "internalType": "uint256",
          "name": "token_id",
          "type": "uint256"
        },
        {
          "internalType": "bool",
          "name": "lock",
          "type": "bool"
        }
      ],
      "name": "moveTransferCollectible",
      "outputs": [],
      "stateMutability": "nonpayable",
      "type": "function"
    },
    {
      "inputs": [
        {
          "internalType": "uint256",
          "name": "moveKey",
          "type": "uint256"
        },
        {
          "internalType": "address payable",
          "name": "organ",
          "type": "address"
        },
        {
          "internalType": "address",
          "name": "target",
          "type": "address"
        },
        {
          "internalType": "uint256",
          "name": "value",
          "type": "uint256"
        },
        {
          "internalType": "bool",
          "name": "lock",
          "type": "bool"
        }
      ],
      "name": "moveTransferEther",
      "outputs": [],
      "stateMutability": "nonpayable",
      "type": "function"
    },
    {
      "inputs": [],
      "name": "nominatersOrgan",
      "outputs": [
        {
          "internalType": "address payable",
          "name": "",
          "type": "address"
        }
      ],
      "stateMutability": "view",
      "type": "function",
      "constant": true
    },
    {
      "inputs": [
        {
          "internalType": "bytes4",
          "name": "interfaceId",
          "type": "bytes4"
        }
      ],
      "name": "supportsInterface",
      "outputs": [
        {
          "internalType": "bool",
          "name": "",
          "type": "bool"
        }
      ],
      "stateMutability": "view",
      "type": "function",
      "constant": true
    },
    {
      "inputs": [
        {
          "internalType": "address payable",
          "name": "admin",
          "type": "address"
        }
      ],
      "name": "updateAdmin",
      "outputs": [],
      "stateMutability": "nonpayable",
      "type": "function"
    },
    {
      "inputs": [
        {
          "internalType": "bytes32",
          "name": "ipfsHash",
          "type": "bytes32"
        },
        {
          "internalType": "uint8",
          "name": "hashFunction",
          "type": "uint8"
        },
        {
          "internalType": "uint8",
          "name": "hashSize",
          "type": "uint8"
        }
      ],
      "name": "updateMetadata",
      "outputs": [],
      "stateMutability": "nonpayable",
      "type": "function"
    },
    {
      "inputs": [
        {
          "internalType": "uint256",
          "name": "moveKey",
          "type": "uint256"
        }
      ],
      "name": "nominate",
      "outputs": [],
      "stateMutability": "nonpayable",
      "type": "function"
    }
  ],
  "bytecode": "0x60806040523480156200001157600080fd5b5060405162005c0438038062005c04833981810160405281019062000037919062000261565b838383620000526301ffc9a760e01b6200014460201b60201c565b6200006a6371dbd33060e01b6200014460201b60201c565b600173__ProcedureLibrary______________________63359a395d90918585856040518563ffffffff1660e01b8152600401620000ac94939291906200035a565b60006040518083038186803b158015620000c557600080fd5b505af4158015620000da573d6000803e3d6000fd5b50505050505050620000f963c5f28e4960e01b6200014460201b60201c565b80600660006101000a81548173ffffffffffffffffffffffffffffffffffffffff021916908373ffffffffffffffffffffffffffffffffffffffff1602179055505050505062000451565b63ffffffff60e01b817bffffffffffffffffffffffffffffffffffffffffffffffffffffffff19161415620001b0576040517f08c379a0000000000000000000000000000000000000000000000000000000008152600401620001a79062000338565b60405180910390fd5b6001600080837bffffffffffffffffffffffffffffffffffffffffffffffffffffffff19167bffffffffffffffffffffffffffffffffffffffffffffffffffffffff1916815260200190815260200160002060006101000a81548160ff02191690831515021790555050565b6000815190506200022d8162000403565b92915050565b60008151905062000244816200041d565b92915050565b6000815190506200025b8162000437565b92915050565b600080600080608085870312156200027857600080fd5b6000620002888782880162000233565b94505060206200029b878288016200024a565b9350506040620002ae878288016200024a565b9250506060620002c1878288016200021c565b91505092959194509250565b620002d881620003cc565b82525050565b6000620002ed601c83620003a7565b91507f4552433136353a20696e76616c696420696e74657266616365206964000000006000830152602082019050919050565b8082525050565b6200033281620003f6565b82525050565b600060208201905081810360008301526200035381620002de565b9050919050565b600060808201905062000371600083018762000320565b620003806020830186620002cd565b6200038f604083018562000327565b6200039e606083018462000327565b95945050505050565b600082825260208201905092915050565b6000620003c582620003d6565b9050919050565b6000819050919050565b600073ffffffffffffffffffffffffffffffffffffffff82169050919050565b600060ff82169050919050565b6200040e81620003b8565b81146200041a57600080fd5b50565b6200042881620003cc565b81146200043457600080fd5b50565b6200044281620003f6565b81146200044e57600080fd5b50565b6157a380620004616000396000f3fe608060405234801561001057600080fd5b506004361061014d5760003560e01c806371dbd330116100c3578063c5f28e491161007c578063c5f28e4914610370578063cb6bc9ff1461038c578063cc125031146103a8578063e2a6ed04146103c4578063e2f273bd146103e2578063fa160aa2146103fe5761014d565b806371dbd3301461029c5780637a5b4f59146102cc5780637c3a5fcc146102ec5780637ee7fa4014610308578063a2b58cda14610324578063c492f463146103545761014d565b80633e9a9bd8116101155780633e9a9bd8146101f257806352c041b2146102105780635a31b5601461022c5780635ba357dc146102485780636322ab201461026457806367c322d0146102805761014d565b806301ffc9a7146101525780630b5522a914610182578063148a20051461019e5780632c1d5337146101ba57806339c2ae70146101d6575b600080fd5b61016c6004803603810190610167919061479a565b61041a565b60405161017991906152ae565b60405180910390f35b61019c60048036038101906101979190614961565b610481565b005b6101b860048036038101906101b39190614875565b6104a4565b005b6101d460048036038101906101cf91906147ec565b6104ca565b005b6101f060048036038101906101eb91906146fc565b6104f0565b005b6101fa610565565b60405161020791906153eb565b60405180910390f35b61022a60048036038101906102259190614aca565b610572565b005b61024660048036038101906102419190614875565b61059e565b005b610262600480360381019061025d91906147c3565b6105c4565b005b61027e60048036038101906102799190614b7c565b6105db565b005b61029a600480360381019061029591906148fe565b6105fb565b005b6102b660048036038101906102b191906147c3565b61061b565b6040516102c39190615340565b60405180910390f35b6102d46108ed565b6040516102e3939291906152c9565b60405180910390f35b61030660048036038101906103019190614875565b610987565b005b610322600480360381019061031d91906149d8565b6109ad565b005b61033e600480360381019061033991906146fc565b6109d0565b60405161034b91906153eb565b60405180910390f35b61036e60048036038101906103699190614a4f565b6109f3565b005b61038a600480360381019061038591906147c3565b610a13565b005b6103a660048036038101906103a19190614875565b610b0b565b005b6103c260048036038101906103bd91906149d8565b610b31565b005b6103cc610b54565b6040516103d9919061515f565b60405180910390f35b6103fc60048036038101906103f791906146aa565b610b7a565b005b61041860048036038101906104139190614bdf565b610be9565b005b6000806000837bffffffffffffffffffffffffffffffffffffffffffffffffffffffff19167bffffffffffffffffffffffffffffffffffffffffffffffffffffffff1916815260200190815260200160002060009054906101000a900460ff169050919050565b61049d85858585856001610c069095949392919063ffffffff16565b5050505050565b6104c28686868686866001610fe3909695949392919063ffffffff16565b505050505050565b6104e886868686868660016113c3909695949392919063ffffffff16565b505050505050565b600173__ProcedureLibrary______________________63b8cc9a0290918585856040518563ffffffff1660e01b815260040161053094939291906153a6565b60006040518083038186803b15801561054857600080fd5b505af415801561055c573d6000803e3d6000fd5b50505050505050565b6000600160040154905090565b610594888888888888888860016117a39098979695949392919063ffffffff16565b5050505050505050565b6105bc8686868686866001611b53909695949392919063ffffffff16565b505050505050565b6105d8816001611f3390919063ffffffff16565b50565b6105f584848484600161211390949392919063ffffffff16565b50505050565b6106158484848460016124ed90949392919063ffffffff16565b50505050565b610623614359565b600160030160008381526020019081526020016000206040518060c00160405290816000820160009054906101000a900473ffffffffffffffffffffffffffffffffffffffff1673ffffffffffffffffffffffffffffffffffffffff1673ffffffffffffffffffffffffffffffffffffffff16815260200160018201604051806060016040529081600082015481526020016001820160009054906101000a900460ff1660ff1660ff1681526020016001820160019054906101000a900460ff1660ff1660ff168152505081526020016003820160009054906101000a900460ff161515151581526020016003820160019054906101000a900460ff161515151581526020016003820160029054906101000a900460ff1615151515815260200160048201805480602002602001604051908101604052809291908181526020016000905b828210156108de57838290600052602060002090600602016040518060c0016040529081600082015481526020016001820160009054906101000a900473ffffffffffffffffffffffffffffffffffffffff1673ffffffffffffffffffffffffffffffffffffffff1673ffffffffffffffffffffffffffffffffffffffff168152602001600282015481526020016003820160009054906101000a900460ff1660ff1660ff168152602001600482018054600181600116156101000203166002900480601f0160208091040260200160405190810160405280929190818152602001828054600181600116156101000203166002900480156108ab5780601f10610880576101008083540402835291602001916108ab565b820191906000526020600020905b81548152906001019060200180831161088e57829003601f168201915b505050505081526020016005820160009054906101000a900460ff16151515158152505081526020019060010190610768565b50505050815250509050919050565b6000806000600173__ProcedureLibrary______________________6383fecb1a90916040518263ffffffff1660e01b815260040161092c9190615362565b60606040518083038186803b15801561094457600080fd5b505af4158015610958573d6000803e3d6000fd5b505050506040513d601f19601f8201168201806040525081019061097c919061474b565b925092509250909192565b6109a586868686868660016128c7909695949392919063ffffffff16565b505050505050565b6109c985858585856001612ca59095949392919063ffffffff16565b5050505050565b60006109ea8484846001613082909392919063ffffffff16565b90509392505050565b610a0d84848484600161318590949392919063ffffffff16565b50505050565b600660009054906101000a900473ffffffffffffffffffffffffffffffffffffffff1673__ProcedureLibrary______________________637c3b86fe82336040518363ffffffff1660e01b8152600401610a6f92919061517a565b60206040518083038186803b158015610a8757600080fd5b505af4158015610a9b573d6000803e3d6000fd5b505050506040513d601f19601f82011682018060405250810190610abf91906146d3565b610afe576040517f08c379a0000000000000000000000000000000000000000000000000000000008152600401610af590615320565b60405180910390fd5b610b078261355f565b5050565b610b298686868686866001613576909695949392919063ffffffff16565b505050505050565b610b4d858585858560016139569095949392919063ffffffff16565b5050505050565b600660009054906101000a900473ffffffffffffffffffffffffffffffffffffffff1681565b600173__ProcedureLibrary______________________638e956e929091836040518363ffffffff1660e01b8152600401610bb692919061537d565b60006040518083038186803b158015610bce57600080fd5b505af4158015610be2573d6000803e3d6000fd5b5050505050565b610c018383836001613d33909392919063ffffffff16565b505050565b85853373ffffffffffffffffffffffffffffffffffffffff1682600301600083815260200190815260200160002060000160009054906101000a900473ffffffffffffffffffffffffffffffffffffffff1673ffffffffffffffffffffffffffffffffffffffff1614610cae576040517f08c379a0000000000000000000000000000000000000000000000000000000008152600401610ca590615300565b60405180910390fd5b878781600301600082815260200190815260200160002060030160009054906101000a900460ff16158015610d06575081600301600082815260200190815260200160002060030160019054906101000a900460ff16155b8015610d35575081600301600082815260200190815260200160002060030160029054906101000a900460ff16155b610d74576040517f08c379a0000000000000000000000000000000000000000000000000000000008152600401610d6b90615300565b60405180910390fd5b8960030160008a81526020019081526020016000206004016040518060c001604052808c60030160008d81526020019081526020016000206004018054905081526020018a73ffffffffffffffffffffffffffffffffffffffff16815260200160008152602001600460ff1681526020016390b137e98a8a604051602401610dfd92919061523a565b6040516020818303038152906040529060e01b6020820180517bffffffffffffffffffffffffffffffffffffffffffffffffffffffff838183161783525050505081526020016000151581525090806001815401808255809150506001900390600052602060002090600602016000909190919091506000820151816000015560208201518160010160006101000a81548173ffffffffffffffffffffffffffffffffffffffff021916908373ffffffffffffffffffffffffffffffffffffffff1602179055506040820151816002015560608201518160030160006101000a81548160ff021916908360ff1602179055506080820151816004019080519060200190610f0b9291906143b1565b5060a08201518160050160006101000a81548160ff02191690831515021790555050508415610fd75760018a60030160008b815260200190815260200160002060030160006101000a81548160ff0219169083151502179055507f7306ab933b6e1df1bd2fddce7143eeedd65d5996fada0e9168c4e8c3d1ece94d8a60030160008b815260200190815260200160002060000160009054906101000a900473ffffffffffffffffffffffffffffffffffffffff168a604051610fce9291906151a3565b60405180910390a15b50505050505050505050565b86863373ffffffffffffffffffffffffffffffffffffffff1682600301600083815260200190815260200160002060000160009054906101000a900473ffffffffffffffffffffffffffffffffffffffff1673ffffffffffffffffffffffffffffffffffffffff161461108b576040517f08c379a000000000000000000000000000000000000000000000000000000000815260040161108290615300565b60405180910390fd5b888881600301600082815260200190815260200160002060030160009054906101000a900460ff161580156110e3575081600301600082815260200190815260200160002060030160019054906101000a900460ff16155b8015611112575081600301600082815260200190815260200160002060030160029054906101000a900460ff16155b611151576040517f08c379a000000000000000000000000000000000000000000000000000000000815260040161114890615300565b60405180910390fd5b8a60030160008b81526020019081526020016000206004016040518060c001604052808d60030160008e81526020019081526020016000206004018054905081526020018b73ffffffffffffffffffffffffffffffffffffffff16815260200160008152602001600760ff16815260200163c10753298b8b8b6040516024016111dc93929190615203565b6040516020818303038152906040529060e01b6020820180517bffffffffffffffffffffffffffffffffffffffffffffffffffffffff838183161783525050505081526020016000151581525090806001815401808255809150506001900390600052602060002090600602016000909190919091506000820151816000015560208201518160010160006101000a81548173ffffffffffffffffffffffffffffffffffffffff021916908373ffffffffffffffffffffffffffffffffffffffff1602179055506040820151816002015560608201518160030160006101000a81548160ff021916908360ff16021790555060808201518160040190805190602001906112ea9291906143b1565b5060a08201518160050160006101000a81548160ff021916908315150217905550505084156113b65760018b60030160008c815260200190815260200160002060030160006101000a81548160ff0219169083151502179055507f7306ab933b6e1df1bd2fddce7143eeedd65d5996fada0e9168c4e8c3d1ece94d8b60030160008c815260200190815260200160002060000160009054906101000a900473ffffffffffffffffffffffffffffffffffffffff168b6040516113ad9291906151a3565b60405180910390a15b5050505050505050505050565b86863373ffffffffffffffffffffffffffffffffffffffff1682600301600083815260200190815260200160002060000160009054906101000a900473ffffffffffffffffffffffffffffffffffffffff1673ffffffffffffffffffffffffffffffffffffffff161461146b576040517f08c379a000000000000000000000000000000000000000000000000000000000815260040161146290615300565b60405180910390fd5b888881600301600082815260200190815260200160002060030160009054906101000a900460ff161580156114c3575081600301600082815260200190815260200160002060030160019054906101000a900460ff16155b80156114f2575081600301600082815260200190815260200160002060030160029054906101000a900460ff16155b611531576040517f08c379a000000000000000000000000000000000000000000000000000000000815260040161152890615300565b60405180910390fd5b8a60030160008b81526020019081526020016000206004016040518060c001604052808d60030160008e81526020019081526020016000206004018054905081526020018b73ffffffffffffffffffffffffffffffffffffffff16815260200160008152602001600660ff168152602001635676c77d8b8b8b6040516024016115bc939291906151cc565b6040516020818303038152906040529060e01b6020820180517bffffffffffffffffffffffffffffffffffffffffffffffffffffffff838183161783525050505081526020016000151581525090806001815401808255809150506001900390600052602060002090600602016000909190919091506000820151816000015560208201518160010160006101000a81548173ffffffffffffffffffffffffffffffffffffffff021916908373ffffffffffffffffffffffffffffffffffffffff1602179055506040820151816002015560608201518160030160006101000a81548160ff021916908360ff16021790555060808201518160040190805190602001906116ca9291906143b1565b5060a08201518160050160006101000a81548160ff021916908315150217905550505084156117965760018b60030160008c815260200190815260200160002060030160006101000a81548160ff0219169083151502179055507f7306ab933b6e1df1bd2fddce7143eeedd65d5996fada0e9168c4e8c3d1ece94d8b60030160008c815260200190815260200160002060000160009054906101000a900473ffffffffffffffffffffffffffffffffffffffff168b60405161178d9291906151a3565b60405180910390a15b5050505050505050505050565b88883373ffffffffffffffffffffffffffffffffffffffff1682600301600083815260200190815260200160002060000160009054906101000a900473ffffffffffffffffffffffffffffffffffffffff1673ffffffffffffffffffffffffffffffffffffffff161461184b576040517f08c379a000000000000000000000000000000000000000000000000000000000815260040161184290615300565b60405180910390fd5b8a8a81600301600082815260200190815260200160002060030160009054906101000a900460ff161580156118a3575081600301600082815260200190815260200160002060030160019054906101000a900460ff16155b80156118d2575081600301600082815260200190815260200160002060030160029054906101000a900460ff16155b611911576040517f08c379a000000000000000000000000000000000000000000000000000000000815260040161190890615300565b60405180910390fd5b60008d60030160008e81526020019081526020016000209050806004016040518060c00160405280836004018054905081526020018e73ffffffffffffffffffffffffffffffffffffffff16815260200160008152602001600360ff16815260200163155a73ce8e8e8e8e8e604051602401611991959493929190615406565b6040516020818303038152906040529060e01b6020820180517bffffffffffffffffffffffffffffffffffffffffffffffffffffffff838183161783525050505081526020016000151581525090806001815401808255809150506001900390600052602060002090600602016000909190919091506000820151816000015560208201518160010160006101000a81548173ffffffffffffffffffffffffffffffffffffffff021916908373ffffffffffffffffffffffffffffffffffffffff1602179055506040820151816002015560608201518160030160006101000a81548160ff021916908360ff1602179055506080820151816004019080519060200190611a9f9291906143b1565b5060a08201518160050160006101000a81548160ff02191690831515021790555050508515611b435760018160030160006101000a81548160ff0219169083151502179055507f7306ab933b6e1df1bd2fddce7143eeedd65d5996fada0e9168c4e8c3d1ece94d8160000160009054906101000a900473ffffffffffffffffffffffffffffffffffffffff168e604051611b3a9291906151a3565b60405180910390a15b5050505050505050505050505050565b86863373ffffffffffffffffffffffffffffffffffffffff1682600301600083815260200190815260200160002060000160009054906101000a900473ffffffffffffffffffffffffffffffffffffffff1673ffffffffffffffffffffffffffffffffffffffff1614611bfb576040517f08c379a0000000000000000000000000000000000000000000000000000000008152600401611bf290615300565b60405180910390fd5b888881600301600082815260200190815260200160002060030160009054906101000a900460ff16158015611c53575081600301600082815260200190815260200160002060030160019054906101000a900460ff16155b8015611c82575081600301600082815260200190815260200160002060030160029054906101000a900460ff16155b611cc1576040517f08c379a0000000000000000000000000000000000000000000000000000000008152600401611cb890615300565b60405180910390fd5b8a60030160008b81526020019081526020016000206004016040518060c001604052808d60030160008e81526020019081526020016000206004018054905081526020018b73ffffffffffffffffffffffffffffffffffffffff16815260200160008152602001600860ff168152602001635e35359e8b8b8b604051602401611d4c93929190615203565b6040516020818303038152906040529060e01b6020820180517bffffffffffffffffffffffffffffffffffffffffffffffffffffffff838183161783525050505081526020016000151581525090806001815401808255809150506001900390600052602060002090600602016000909190919091506000820151816000015560208201518160010160006101000a81548173ffffffffffffffffffffffffffffffffffffffff021916908373ffffffffffffffffffffffffffffffffffffffff1602179055506040820151816002015560608201518160030160006101000a81548160ff021916908360ff1602179055506080820151816004019080519060200190611e5a9291906143b1565b5060a08201518160050160006101000a81548160ff02191690831515021790555050508415611f265760018b60030160008c815260200190815260200160002060030160006101000a81548160ff0219169083151502179055507f7306ab933b6e1df1bd2fddce7143eeedd65d5996fada0e9168c4e8c3d1ece94d8b60030160008c815260200190815260200160002060000160009054906101000a900473ffffffffffffffffffffffffffffffffffffffff168b604051611f1d9291906151a3565b60405180910390a15b5050505050505050505050565b81813373ffffffffffffffffffffffffffffffffffffffff1682600301600083815260200190815260200160002060000160009054906101000a900473ffffffffffffffffffffffffffffffffffffffff1673ffffffffffffffffffffffffffffffffffffffff1614611fdb576040517f08c379a0000000000000000000000000000000000000000000000000000000008152600401611fd290615300565b60405180910390fd5b838381600301600082815260200190815260200160002060030160009054906101000a900460ff16158015612033575081600301600082815260200190815260200160002060030160019054906101000a900460ff16155b8015612062575081600301600082815260200190815260200160002060030160029054906101000a900460ff16155b6120a1576040517f08c379a000000000000000000000000000000000000000000000000000000000815260040161209890615300565b60405180910390fd5b600186600301600087815260200190815260200160002060030160006101000a81548160ff0219169083151502179055507f7306ab933b6e1df1bd2fddce7143eeedd65d5996fada0e9168c4e8c3d1ece94d33866040516121039291906151a3565b60405180910390a1505050505050565b84843373ffffffffffffffffffffffffffffffffffffffff1682600301600083815260200190815260200160002060000160009054906101000a900473ffffffffffffffffffffffffffffffffffffffff1673ffffffffffffffffffffffffffffffffffffffff16146121bb576040517f08c379a00000000000000000000000000000000000000000000000000000000081526004016121b290615300565b60405180910390fd5b868681600301600082815260200190815260200160002060030160009054906101000a900460ff16158015612213575081600301600082815260200190815260200160002060030160019054906101000a900460ff16155b8015612242575081600301600082815260200190815260200160002060030160029054906101000a900460ff16155b612281576040517f08c379a000000000000000000000000000000000000000000000000000000000815260040161227890615300565b60405180910390fd5b8860030160008981526020019081526020016000206004016040518060c001604052808b60030160008c81526020019081526020016000206004018054905081526020018973ffffffffffffffffffffffffffffffffffffffff16815260200160008152602001600260ff1681526020016376a6411c8960405160240161230891906153eb565b6040516020818303038152906040529060e01b6020820180517bffffffffffffffffffffffffffffffffffffffffffffffffffffffff838183161783525050505081526020016000151581525090806001815401808255809150506001900390600052602060002090600602016000909190919091506000820151816000015560208201518160010160006101000a81548173ffffffffffffffffffffffffffffffffffffffff021916908373ffffffffffffffffffffffffffffffffffffffff1602179055506040820151816002015560608201518160030160006101000a81548160ff021916908360ff16021790555060808201518160040190805190602001906124169291906143b1565b5060a08201518160050160006101000a81548160ff021916908315150217905550505084156124e25760018960030160008a815260200190815260200160002060030160006101000a81548160ff0219169083151502179055507f7306ab933b6e1df1bd2fddce7143eeedd65d5996fada0e9168c4e8c3d1ece94d8960030160008a815260200190815260200160002060000160009054906101000a900473ffffffffffffffffffffffffffffffffffffffff16896040516124d99291906151a3565b60405180910390a15b505050505050505050565b84843373ffffffffffffffffffffffffffffffffffffffff1682600301600083815260200190815260200160002060000160009054906101000a900473ffffffffffffffffffffffffffffffffffffffff1673ffffffffffffffffffffffffffffffffffffffff1614612595576040517f08c379a000000000000000000000000000000000000000000000000000000000815260040161258c90615300565b60405180910390fd5b868681600301600082815260200190815260200160002060030160009054906101000a900460ff161580156125ed575081600301600082815260200190815260200160002060030160019054906101000a900460ff16155b801561261c575081600301600082815260200190815260200160002060030160029054906101000a900460ff16155b61265b576040517f08c379a000000000000000000000000000000000000000000000000000000000815260040161265290615300565b60405180910390fd5b8860030160008981526020019081526020016000206004016040518060c001604052808b60030160008c81526020019081526020016000206004018054905081526020018973ffffffffffffffffffffffffffffffffffffffff16815260200160008152602001600560ff1681526020016319b9404c896040516024016126e29190615144565b6040516020818303038152906040529060e01b6020820180517bffffffffffffffffffffffffffffffffffffffffffffffffffffffff838183161783525050505081526020016000151581525090806001815401808255809150506001900390600052602060002090600602016000909190919091506000820151816000015560208201518160010160006101000a81548173ffffffffffffffffffffffffffffffffffffffff021916908373ffffffffffffffffffffffffffffffffffffffff1602179055506040820151816002015560608201518160030160006101000a81548160ff021916908360ff16021790555060808201518160040190805190602001906127f09291906143b1565b5060a08201518160050160006101000a81548160ff021916908315150217905550505084156128bc5760018960030160008a815260200190815260200160002060030160006101000a81548160ff0219169083151502179055507f7306ab933b6e1df1bd2fddce7143eeedd65d5996fada0e9168c4e8c3d1ece94d8960030160008a815260200190815260200160002060000160009054906101000a900473ffffffffffffffffffffffffffffffffffffffff16896040516128b39291906151a3565b60405180910390a15b505050505050505050565b86863373ffffffffffffffffffffffffffffffffffffffff1682600301600083815260200190815260200160002060000160009054906101000a900473ffffffffffffffffffffffffffffffffffffffff1673ffffffffffffffffffffffffffffffffffffffff161461296f576040517f08c379a000000000000000000000000000000000000000000000000000000000815260040161296690615300565b60405180910390fd5b888881600301600082815260200190815260200160002060030160009054906101000a900460ff161580156129c7575081600301600082815260200190815260200160002060030160019054906101000a900460ff16155b80156129f6575081600301600082815260200190815260200160002060030160029054906101000a900460ff16155b612a35576040517f08c379a0000000000000000000000000000000000000000000000000000000008152600401612a2c90615300565b60405180910390fd5b8a60030160008b81526020019081526020016000206004016040518060c001604052808d60030160008e81526020019081526020016000206004018054905081526020018b73ffffffffffffffffffffffffffffffffffffffff16815260200160008152602001600760ff16815260200163c10753298b8a604051602401612abe929190615263565b6040516020818303038152906040529060e01b6020820180517bffffffffffffffffffffffffffffffffffffffffffffffffffffffff838183161783525050505081526020016000151581525090806001815401808255809150506001900390600052602060002090600602016000909190919091506000820151816000015560208201518160010160006101000a81548173ffffffffffffffffffffffffffffffffffffffff021916908373ffffffffffffffffffffffffffffffffffffffff1602179055506040820151816002015560608201518160030160006101000a81548160ff021916908360ff1602179055506080820151816004019080519060200190612bcc9291906143b1565b5060a08201518160050160006101000a81548160ff02191690831515021790555050508415612c985760018b60030160008c815260200190815260200160002060030160006101000a81548160ff0219169083151502179055507f7306ab933b6e1df1bd2fddce7143eeedd65d5996fada0e9168c4e8c3d1ece94d8b60030160008c815260200190815260200160002060000160009054906101000a900473ffffffffffffffffffffffffffffffffffffffff168b604051612c8f9291906151a3565b60405180910390a15b5050505050505050505050565b85853373ffffffffffffffffffffffffffffffffffffffff1682600301600083815260200190815260200160002060000160009054906101000a900473ffffffffffffffffffffffffffffffffffffffff1673ffffffffffffffffffffffffffffffffffffffff1614612d4d576040517f08c379a0000000000000000000000000000000000000000000000000000000008152600401612d4490615300565b60405180910390fd5b878781600301600082815260200190815260200160002060030160009054906101000a900460ff16158015612da5575081600301600082815260200190815260200160002060030160019054906101000a900460ff16155b8015612dd4575081600301600082815260200190815260200160002060030160029054906101000a900460ff16155b612e13576040517f08c379a0000000000000000000000000000000000000000000000000000000008152600401612e0a90615300565b60405180910390fd5b8960030160008a81526020019081526020016000206004016040518060c001604052808c60030160008d81526020019081526020016000206004018054905081526020018a73ffffffffffffffffffffffffffffffffffffffff16815260200160008152602001600760ff16815260200163c10753298a8a604051602401612e9c929190615263565b6040516020818303038152906040529060e01b6020820180517bffffffffffffffffffffffffffffffffffffffffffffffffffffffff838183161783525050505081526020016000151581525090806001815401808255809150506001900390600052602060002090600602016000909190919091506000820151816000015560208201518160010160006101000a81548173ffffffffffffffffffffffffffffffffffffffff021916908373ffffffffffffffffffffffffffffffffffffffff1602179055506040820151816002015560608201518160030160006101000a81548160ff021916908360ff1602179055506080820151816004019080519060200190612faa9291906143b1565b5060a08201518160050160006101000a81548160ff021916908315150217905550505084156130765760018a60030160008b815260200190815260200160002060030160006101000a81548160ff0219169083151502179055507f7306ab933b6e1df1bd2fddce7143eeedd65d5996fada0e9168c4e8c3d1ece94d8a60030160008b815260200190815260200160002060000160009054906101000a900473ffffffffffffffffffffffffffffffffffffffff168a60405161306d9291906151a3565b60405180910390a15b50505050505050505050565b6000808560040160008154809291906001019190505590503386600301600083815260200190815260200160002060000160006101000a81548173ffffffffffffffffffffffffffffffffffffffff021916908373ffffffffffffffffffffffffffffffffffffffff16021790555060405180606001604052808681526020018560ff1681526020018460ff168152508660030160008381526020019081526020016000206001016000820151816000015560208201518160010160006101000a81548160ff021916908360ff16021790555060408201518160010160016101000a81548160ff021916908360ff16021790555090505080915050949350505050565b84843373ffffffffffffffffffffffffffffffffffffffff1682600301600083815260200190815260200160002060000160009054906101000a900473ffffffffffffffffffffffffffffffffffffffff1673ffffffffffffffffffffffffffffffffffffffff161461322d576040517f08c379a000000000000000000000000000000000000000000000000000000000815260040161322490615300565b60405180910390fd5b868681600301600082815260200190815260200160002060030160009054906101000a900460ff16158015613285575081600301600082815260200190815260200160002060030160019054906101000a900460ff16155b80156132b4575081600301600082815260200190815260200160002060030160029054906101000a900460ff16155b6132f3576040517f08c379a00000000000000000000000000000000000000000000000000000000081526004016132ea90615300565b60405180910390fd5b8860030160008981526020019081526020016000206004016040518060c001604052808b60030160008c81526020019081526020016000206004018054905081526020018973ffffffffffffffffffffffffffffffffffffffff16815260200160008152602001600160ff168152602001631715f4de8960405160240161337a919061528c565b6040516020818303038152906040529060e01b6020820180517bffffffffffffffffffffffffffffffffffffffffffffffffffffffff838183161783525050505081526020016000151581525090806001815401808255809150506001900390600052602060002090600602016000909190919091506000820151816000015560208201518160010160006101000a81548173ffffffffffffffffffffffffffffffffffffffff021916908373ffffffffffffffffffffffffffffffffffffffff1602179055506040820151816002015560608201518160030160006101000a81548160ff021916908360ff16021790555060808201518160040190805190602001906134889291906143b1565b5060a08201518160050160006101000a81548160ff021916908315150217905550505084156135545760018960030160008a815260200190815260200160002060030160006101000a81548160ff0219169083151502179055507f7306ab933b6e1df1bd2fddce7143eeedd65d5996fada0e9168c4e8c3d1ece94d8960030160008a815260200190815260200160002060000160009054906101000a900473ffffffffffffffffffffffffffffffffffffffff168960405161354b9291906151a3565b60405180910390a15b505050505050505050565b6135738160016140b790919063ffffffff16565b50565b86863373ffffffffffffffffffffffffffffffffffffffff1682600301600083815260200190815260200160002060000160009054906101000a900473ffffffffffffffffffffffffffffffffffffffff1673ffffffffffffffffffffffffffffffffffffffff161461361e576040517f08c379a000000000000000000000000000000000000000000000000000000000815260040161361590615300565b60405180910390fd5b888881600301600082815260200190815260200160002060030160009054906101000a900460ff16158015613676575081600301600082815260200190815260200160002060030160019054906101000a900460ff16155b80156136a5575081600301600082815260200190815260200160002060030160029054906101000a900460ff16155b6136e4576040517f08c379a00000000000000000000000000000000000000000000000000000000081526004016136db90615300565b60405180910390fd5b8a60030160008b81526020019081526020016000206004016040518060c001604052808d60030160008e81526020019081526020016000206004018054905081526020018b73ffffffffffffffffffffffffffffffffffffffff16815260200160008152602001600860ff168152602001635e35359e8b8b8b60405160240161376f93929190615203565b6040516020818303038152906040529060e01b6020820180517bffffffffffffffffffffffffffffffffffffffffffffffffffffffff838183161783525050505081526020016000151581525090806001815401808255809150506001900390600052602060002090600602016000909190919091506000820151816000015560208201518160010160006101000a81548173ffffffffffffffffffffffffffffffffffffffff021916908373ffffffffffffffffffffffffffffffffffffffff1602179055506040820151816002015560608201518160030160006101000a81548160ff021916908360ff160217905550608082015181600401908051906020019061387d9291906143b1565b5060a08201518160050160006101000a81548160ff021916908315150217905550505084156139495760018b60030160008c815260200190815260200160002060030160006101000a81548160ff0219169083151502179055507f7306ab933b6e1df1bd2fddce7143eeedd65d5996fada0e9168c4e8c3d1ece94d8b60030160008c815260200190815260200160002060000160009054906101000a900473ffffffffffffffffffffffffffffffffffffffff168b6040516139409291906151a3565b60405180910390a15b5050505050505050505050565b85853373ffffffffffffffffffffffffffffffffffffffff1682600301600083815260200190815260200160002060000160009054906101000a900473ffffffffffffffffffffffffffffffffffffffff1673ffffffffffffffffffffffffffffffffffffffff16146139fe576040517f08c379a00000000000000000000000000000000000000000000000000000000081526004016139f590615300565b60405180910390fd5b878781600301600082815260200190815260200160002060030160009054906101000a900460ff16158015613a56575081600301600082815260200190815260200160002060030160019054906101000a900460ff16155b8015613a85575081600301600082815260200190815260200160002060030160029054906101000a900460ff16155b613ac4576040517f08c379a0000000000000000000000000000000000000000000000000000000008152600401613abb90615300565b60405180910390fd5b8960030160008a81526020019081526020016000206004016040518060c001604052808c60030160008d81526020019081526020016000206004018054905081526020018a73ffffffffffffffffffffffffffffffffffffffff16815260200160008152602001600860ff168152602001635e35359e8a8a604051602401613b4d929190615263565b6040516020818303038152906040529060e01b6020820180517bffffffffffffffffffffffffffffffffffffffffffffffffffffffff838183161783525050505081526020016000151581525090806001815401808255809150506001900390600052602060002090600602016000909190919091506000820151816000015560208201518160010160006101000a81548173ffffffffffffffffffffffffffffffffffffffff021916908373ffffffffffffffffffffffffffffffffffffffff1602179055506040820151816002015560608201518160030160006101000a81548160ff021916908360ff1602179055506080820151816004019080519060200190613c5b9291906143b1565b5060a08201518160050160006101000a81548160ff02191690831515021790555050508415613d275760018a60030160008b815260200190815260200160002060030160006101000a81548160ff0219169083151502179055507f7306ab933b6e1df1bd2fddce7143eeedd65d5996fada0e9168c4e8c3d1ece94d8a60030160008b815260200190815260200160002060000160009054906101000a900473ffffffffffffffffffffffffffffffffffffffff168a604051613d1e9291906151a3565b60405180910390a15b50505050505050505050565b83833373ffffffffffffffffffffffffffffffffffffffff1682600301600083815260200190815260200160002060000160009054906101000a900473ffffffffffffffffffffffffffffffffffffffff1673ffffffffffffffffffffffffffffffffffffffff1614613ddb576040517f08c379a0000000000000000000000000000000000000000000000000000000008152600401613dd290615300565b60405180910390fd5b858581600301600082815260200190815260200160002060030160009054906101000a900460ff16158015613e33575081600301600082815260200190815260200160002060030160019054906101000a900460ff16155b8015613e62575081600301600082815260200190815260200160002060030160029054906101000a900460ff16155b613ea1576040517f08c379a0000000000000000000000000000000000000000000000000000000008152600401613e9890615300565b60405180910390fd5b8760030160008881526020019081526020016000206004016040518060c001604052808a60030160008b8152602001908152602001600020600401805490508152602001600073ffffffffffffffffffffffffffffffffffffffff16815260200160008152602001600060ff1681526020018881526020016000151581525090806001815401808255809150506001900390600052602060002090600602016000909190919091506000820151816000015560208201518160010160006101000a81548173ffffffffffffffffffffffffffffffffffffffff021916908373ffffffffffffffffffffffffffffffffffffffff1602179055506040820151816002015560608201518160030160006101000a81548160ff021916908360ff1602179055506080820151816004019080519060200190613fe19291906143b1565b5060a08201518160050160006101000a81548160ff021916908315150217905550505084156140ad57600188600301600089815260200190815260200160002060030160006101000a81548160ff0219169083151502179055507f7306ab933b6e1df1bd2fddce7143eeedd65d5996fada0e9168c4e8c3d1ece94d88600301600089815260200190815260200160002060000160009054906101000a900473ffffffffffffffffffffffffffffffffffffffff16886040516140a49291906151a3565b60405180910390a15b5050505050505050565b818181600301600082815260200190815260200160002060030160009054906101000a900460ff16801561410e575081600301600082815260200190815260200160002060030160019054906101000a900460ff16155b801561413d575081600301600082815260200190815260200160002060030160029054906101000a900460ff16155b61417c576040517f08c379a000000000000000000000000000000000000000000000000000000000815260040161417390615300565b60405180910390fd5b6000846003016000858152602001908152602001600020905060018160030160026101000a81548160ff02191690831515021790555060005b81600401805490508110156142fd5760008260040182815481106141d557fe5b90600052602060002090600602019050600073ffffffffffffffffffffffffffffffffffffffff168160010160009054906101000a900473ffffffffffffffffffffffffffffffffffffffff1673ffffffffffffffffffffffffffffffffffffffff16146142d4578060010160009054906101000a900473ffffffffffffffffffffffffffffffffffffffff1673ffffffffffffffffffffffffffffffffffffffff1681600201548260040160405161428e919061512d565b60006040518083038185875af1925050503d80600081146142cb576040519150601f19603f3d011682016040523d82523d6000602084013e6142d0565b606091505b5050505b60018160050160006101000a81548160ff021916908315150217905550508060010190506141b5565b5060018160030160016101000a81548160ff0219169083151502179055507fd2c6e52f57352f08a7c9894b122d8440f1d87a7949ba8769fe444bf80b9e7a7e8460405161434a91906153eb565b60405180910390a15050505050565b6040518060c00160405280600073ffffffffffffffffffffffffffffffffffffffff168152602001614389614431565b8152602001600015158152602001600015158152602001600015158152602001606081525090565b828054600181600116156101000203166002900490600052602060002090601f016020900481019282601f106143f257805160ff1916838001178555614420565b82800160010185558215614420579182015b8281111561441f578251825591602001919060010190614404565b5b50905061442d919061445b565b5090565b604051806060016040528060008019168152602001600060ff168152602001600060ff1681525090565b5b8082111561447457600081600090555060010161445c565b5090565b600081359050614487816156b5565b92915050565b60008135905061449c816156cc565b92915050565b600082601f8301126144b357600080fd5b81356144c66144c182615486565b615459565b915081818352602084019350602081019050838560808402820111156144eb57600080fd5b60005b8381101561451b578161450188826145f7565b8452602084019350608083019250506001810190506144ee565b5050505092915050565b600081359050614534816156e3565b92915050565b600081519050614549816156e3565b92915050565b60008135905061455e816156fa565b92915050565b60008135905061457381615711565b92915050565b60008151905061458881615711565b92915050565b60008135905061459d81615728565b92915050565b600082601f8301126145b457600080fd5b81356145c76145c2826154ae565b615459565b915080825260208301602083018583830111156145e357600080fd5b6145ee838284615662565b50505092915050565b60006080828403121561460957600080fd5b6146136080615459565b9050600061462384828501614478565b600083015250602061463784828501614564565b602083015250604061464b84828501614680565b604083015250606061465f84828501614680565b60608301525092915050565b60008135905061467a8161573f565b92915050565b60008135905061468f81615756565b92915050565b6000815190506146a481615756565b92915050565b6000602082840312156146bc57600080fd5b60006146ca8482850161448d565b91505092915050565b6000602082840312156146e557600080fd5b60006146f38482850161453a565b91505092915050565b60008060006060848603121561471157600080fd5b600061471f86828701614564565b935050602061473086828701614680565b925050604061474186828701614680565b9150509250925092565b60008060006060848603121561476057600080fd5b600061476e86828701614579565b935050602061477f86828701614695565b925050604061479086828701614695565b9150509250925092565b6000602082840312156147ac57600080fd5b60006147ba8482850161458e565b91505092915050565b6000602082840312156147d557600080fd5b60006147e38482850161466b565b91505092915050565b60008060008060008060c0878903121561480557600080fd5b600061481389828a0161466b565b965050602061482489828a0161448d565b955050604061483589828a01614478565b945050606061484689828a01614478565b935050608061485789828a0161454f565b92505060a061486889828a01614525565b9150509295509295509295565b60008060008060008060c0878903121561488e57600080fd5b600061489c89828a0161466b565b96505060206148ad89828a0161448d565b95505060406148be89828a01614478565b94505060606148cf89828a01614478565b93505060806148e089828a0161466b565b92505060a06148f189828a01614525565b9150509295509295509295565b6000806000806080858703121561491457600080fd5b60006149228782880161466b565b94505060206149338782880161448d565b935050604061494487828801614478565b925050606061495587828801614525565b91505092959194509250565b600080600080600060a0868803121561497957600080fd5b60006149878882890161466b565b95505060206149988882890161448d565b94505060406149a988828901614478565b93505060606149ba8882890161454f565b92505060806149cb88828901614525565b9150509295509295909350565b600080600080600060a086880312156149f057600080fd5b60006149fe8882890161466b565b9550506020614a0f8882890161448d565b9450506040614a2088828901614478565b9350506060614a318882890161466b565b9250506080614a4288828901614525565b9150509295509295909350565b60008060008060808587031215614a6557600080fd5b6000614a738782880161466b565b9450506020614a848782880161448d565b935050604085013567ffffffffffffffff811115614aa157600080fd5b614aad878288016144a2565b9250506060614abe87828801614525565b91505092959194509250565b600080600080600080600080610100898b031215614ae757600080fd5b6000614af58b828c0161466b565b9850506020614b068b828c0161448d565b9750506040614b178b828c0161466b565b9650506060614b288b828c0161448d565b9550506080614b398b828c01614564565b94505060a0614b4a8b828c01614680565b93505060c0614b5b8b828c01614680565b92505060e0614b6c8b828c01614525565b9150509295985092959890939650565b60008060008060808587031215614b9257600080fd5b6000614ba08782880161466b565b9450506020614bb18782880161448d565b9350506040614bc28782880161466b565b9250506060614bd387828801614525565b91505092959194509250565b600080600060608486031215614bf457600080fd5b6000614c028682870161466b565b935050602084013567ffffffffffffffff811115614c1f57600080fd5b614c2b868287016145a3565b9250506040614c3c86828701614525565b9150509250925092565b6000614c528383614f31565b60808301905092915050565b6000614c6a8383615052565b905092915050565b614c7b816155ab565b82525050565b614c8a816155ab565b82525050565b614c99816155ab565b82525050565b614ca881615599565b82525050565b614cb781615599565b82525050565b6000614cc88261550f565b614cd2818561554a565b9350614cdd836154da565b8060005b83811015614d0e578151614cf58882614c46565b9750614d0083615530565b925050600181019050614ce1565b5085935050505092915050565b6000614d268261551a565b614d30818561555b565b935083602082028501614d42856154ea565b8060005b85811015614d7e5784840389528151614d5f8582614c5e565b9450614d6a8361553d565b925060208a01995050600181019050614d46565b50829750879550505050505092915050565b614d99816155bd565b82525050565b614da8816155bd565b82525050565b614db7816155c9565b82525050565b614dc6816155f5565b82525050565b614dd5816155f5565b82525050565b614de4816155f5565b82525050565b6000614df582615525565b614dff818561556c565b9350614e0f818560208601615671565b614e18816156a4565b840191505092915050565b600081546001811660008114614e405760018114614e6557614ea9565b607f6002830416614e51818761557d565b955060ff1983168652808601935050614ea9565b60028204614e73818761557d565b9550614e7e856154fa565b60005b82811015614ea057815481890152600182019150602081019050614e81565b82880195505050505b505092915050565b6000614ebe600f83615588565b91507f4e6f7420617574686f72697a65642e00000000000000000000000000000000006000830152602082019050919050565b6000614efe600e83615588565b91507f4e6f7420617574686f72697a65640000000000000000000000000000000000006000830152602082019050919050565b608082016000820151614f476000850182614c9f565b506020820151614f5a6020850182614dbd565b506040820151614f6d6040850182615100565b506060820151614f806060850182615100565b50505050565b606082016000820151614f9c6000850182614dbd565b506020820151614faf6020850182615100565b506040820151614fc26040850182615100565b50505050565b600061010083016000830151614fe16000860182614c72565b506020830151614ff46020860182614f86565b5060408301516150076080860182614d90565b50606083015161501a60a0860182614d90565b50608083015161502d60c0860182614d90565b5060a083015184820360e08601526150458282614d1b565b9150508091505092915050565b600060c08301600083015161506a60008601826150e2565b50602083015161507d6020860182614c72565b50604083015161509060408601826150e2565b5060608301516150a36060860182615100565b50608083015184820360808601526150bb8282614dea565b91505060a08301516150d060a0860182614d90565b508091505092915050565b8082525050565b6150eb8161564b565b82525050565b6150fa8161564b565b82525050565b61510981615655565b82525050565b61511881615655565b82525050565b61512781615655565b82525050565b60006151398284614e23565b915081905092915050565b60006020820190506151596000830184614cae565b92915050565b60006020820190506151746000830184614c81565b92915050565b600060408201905061518f6000830185614c90565b61519c6020830184614c90565b9392505050565b60006040820190506151b86000830185614c81565b6151c560208301846150f1565b9392505050565b60006060820190506151e16000830186614cae565b6151ee6020830185614cae565b6151fb6040830184614dae565b949350505050565b60006060820190506152186000830186614cae565b6152256020830185614cae565b61523260408301846150f1565b949350505050565b600060408201905061524f6000830185614cae565b61525c6020830184614dae565b9392505050565b60006040820190506152786000830185614cae565b61528560208301846150f1565b9392505050565b600060208201905081810360008301526152a68184614cbd565b905092915050565b60006020820190506152c36000830184614d9f565b92915050565b60006060820190506152de6000830186614dcc565b6152eb602083018561510f565b6152f8604083018461510f565b949350505050565b6000602082019050818103600083015261531981614eb1565b9050919050565b6000602082019050818103600083015261533981614ef1565b9050919050565b6000602082019050818103600083015261535a8184614fc8565b905092915050565b600060208201905061537760008301846150db565b92915050565b600060408201905061539260008301856150db565b61539f6020830184614c90565b9392505050565b60006080820190506153bb60008301876150db565b6153c86020830186614ddb565b6153d5604083018561511e565b6153e2606083018461511e565b95945050505050565b600060208201905061540060008301846150f1565b92915050565b600060a08201905061541b60008301886150f1565b6154286020830187614c81565b6154356040830186614dcc565b615442606083018561510f565b61544f608083018461510f565b9695505050505050565b6000604051905081810181811067ffffffffffffffff8211171561547c57600080fd5b8060405250919050565b600067ffffffffffffffff82111561549d57600080fd5b602082029050602081019050919050565b600067ffffffffffffffff8211156154c557600080fd5b601f19601f8301169050602081019050919050565b6000819050602082019050919050565b6000819050602082019050919050565b60008190508160005260206000209050919050565b600081519050919050565b600081519050919050565b600081519050919050565b6000602082019050919050565b6000602082019050919050565b600082825260208201905092915050565b600082825260208201905092915050565b600082825260208201905092915050565b600081905092915050565b600082825260208201905092915050565b60006155a48261562b565b9050919050565b60006155b68261562b565b9050919050565b60008115159050919050565b60007fffff00000000000000000000000000000000000000000000000000000000000082169050919050565b6000819050919050565b60007fffffffff0000000000000000000000000000000000000000000000000000000082169050919050565b600073ffffffffffffffffffffffffffffffffffffffff82169050919050565b6000819050919050565b600060ff82169050919050565b82818337600083830152505050565b60005b8381101561568f578082015181840152602081019050615674565b8381111561569e576000848401525b50505050565b6000601f19601f8301169050919050565b6156be81615599565b81146156c957600080fd5b50565b6156d5816155ab565b81146156e057600080fd5b50565b6156ec816155bd565b81146156f757600080fd5b50565b615703816155c9565b811461570e57600080fd5b50565b61571a816155f5565b811461572557600080fd5b50565b615731816155ff565b811461573c57600080fd5b50565b6157488161564b565b811461575357600080fd5b50565b61575f81615655565b811461576a57600080fd5b5056fea2646970667358221220314d28c95e8c100dba541b9c44cf3cb53b1efd6b21cde5deca97c47e9ca1c40464736f6c634300060c0033",
  "immutableReferences": {},
  "source": "// SPDX-License-Identifier: LGPL-3.0-or-later\npragma solidity ^0.6.0;\npragma experimental ABIEncoderV2;\n\n/**\n    Nomination procedure.\n    A nomination applies an effect if nominator is in the nominaters organ.\n*/\n\nimport \"../Procedure.sol\";\n\ncontract SimpleNominationProcedure is Procedure {\n    address payable public nominatersOrgan;\n    bytes4 private constant _INTERFACE_NOMINATION = 0xc5f28e49; // nominate().\n\n    constructor (\n        bytes32 _metadataIpfsHash, uint8 _metadataHashFunction, uint8 _metadataHashSize,\n        address payable _nominatersOrgan\n    ) Procedure (_metadataIpfsHash, _metadataHashFunction, _metadataHashSize)\n        public\n    {\n        // Register EIP165 interface for introspection.\n        _registerInterface(_INTERFACE_NOMINATION);\n        nominatersOrgan = _nominatersOrgan;\n    }\n\n    function nominate(uint256 moveKey)\n        public onlyInOrgan(nominatersOrgan)\n    {\n        Procedure.applyMove(moveKey);\n    }\n}",
  "sourcePath": "/Users/alex/Code/organigr.am/packages/@organigram/contracts/contracts/procedures/SimpleNomination.sol",
  "compiler": {
    "name": "solc",
    "version": "0.6.12+commit.27d51765.Emscripten.clang"
  },
  "schemaVersion": "3.3.2",
  "updatedAt": "2020-12-04T19:39:41.203Z",
  "networkType": "ethereum",
  "devdoc": {
    "kind": "dev",
    "methods": {
      "supportsInterface(bytes4)": {
        "details": "See {IERC165-supportsInterface}. Time complexity O(1), guaranteed to always use less than 30 000 gas."
      }
    },
    "version": 1
  },
  "userdoc": {
    "kind": "user",
    "methods": {
      "createMove(bytes32,uint8,uint8)": {
        "notice": "Public API : Moves creation and update."
      },
      "updateMetadata(bytes32,uint8,uint8)": {
        "notice": "Public API : Procedure Metadata and Admin."
      }
    },
    "version": 1
  }
}