{
  "contractName": "VoteProcedure",
  "abi": [
    {
      "inputs": [
        {
          "internalType": "bytes32",
          "name": "_metadataIpfsHash",
          "type": "bytes32"
        },
        {
          "internalType": "uint8",
          "name": "_metadataHashFunction",
          "type": "uint8"
        },
        {
          "internalType": "uint8",
          "name": "_metadataHashSize",
          "type": "uint8"
        },
        {
          "internalType": "address payable",
          "name": "_votersOrgan",
          "type": "address"
        },
        {
          "internalType": "address payable",
          "name": "_vetoersOrgan",
          "type": "address"
        },
        {
          "internalType": "address payable",
          "name": "_enactorsOrgan",
          "type": "address"
        }
      ],
      "stateMutability": "nonpayable",
      "type": "constructor"
    },
    {
      "inputs": [
        {
          "internalType": "bytes32",
          "name": "ipfsHash",
          "type": "bytes32"
        },
        {
          "internalType": "uint8",
          "name": "hashFunction",
          "type": "uint8"
        },
        {
          "internalType": "uint8",
          "name": "hashSize",
          "type": "uint8"
        }
      ],
      "name": "createMove",
      "outputs": [
        {
          "internalType": "uint256",
          "name": "",
          "type": "uint256"
        }
      ],
      "stateMutability": "nonpayable",
      "type": "function"
    },
    {
      "inputs": [],
      "name": "enactorsOrgan",
      "outputs": [
        {
          "internalType": "address payable",
          "name": "",
          "type": "address"
        }
      ],
      "stateMutability": "view",
      "type": "function",
      "constant": true
    },
    {
      "inputs": [],
      "name": "getMetadata",
      "outputs": [
        {
          "internalType": "bytes32",
          "name": "ipfsHash",
          "type": "bytes32"
        },
        {
          "internalType": "uint8",
          "name": "hashFunction",
          "type": "uint8"
        },
        {
          "internalType": "uint8",
          "name": "hashSize",
          "type": "uint8"
        }
      ],
      "stateMutability": "view",
      "type": "function",
      "constant": true
    },
    {
      "inputs": [
        {
          "internalType": "uint256",
          "name": "moveKey",
          "type": "uint256"
        }
      ],
      "name": "getMove",
      "outputs": [
        {
          "components": [
            {
              "internalType": "address payable",
              "name": "creator",
              "type": "address"
            },
            {
              "components": [
                {
                  "internalType": "bytes32",
                  "name": "ipfsHash",
                  "type": "bytes32"
                },
                {
                  "internalType": "uint8",
                  "name": "hashFunction",
                  "type": "uint8"
                },
                {
                  "internalType": "uint8",
                  "name": "hashSize",
                  "type": "uint8"
                }
              ],
              "internalType": "struct ProcedureLibrary.Metadata",
              "name": "metadata",
              "type": "tuple"
            },
            {
              "internalType": "bool",
              "name": "locked",
              "type": "bool"
            },
            {
              "internalType": "bool",
              "name": "applied",
              "type": "bool"
            },
            {
              "internalType": "bool",
              "name": "processing",
              "type": "bool"
            },
            {
              "components": [
                {
                  "internalType": "uint256",
                  "name": "index",
                  "type": "uint256"
                },
                {
                  "internalType": "address payable",
                  "name": "organ",
                  "type": "address"
                },
                {
                  "internalType": "uint256",
                  "name": "value",
                  "type": "uint256"
                },
                {
                  "internalType": "uint8",
                  "name": "operationType",
                  "type": "uint8"
                },
                {
                  "internalType": "bytes",
                  "name": "callData",
                  "type": "bytes"
                },
                {
                  "internalType": "bool",
                  "name": "processed",
                  "type": "bool"
                }
              ],
              "internalType": "struct ProcedureLibrary.Operation[]",
              "name": "operations",
              "type": "tuple[]"
            }
          ],
          "internalType": "struct ProcedureLibrary.Move",
          "name": "move",
          "type": "tuple"
        }
      ],
      "stateMutability": "view",
      "type": "function",
      "constant": true
    },
    {
      "inputs": [],
      "name": "getMovesLength",
      "outputs": [
        {
          "internalType": "uint256",
          "name": "length",
          "type": "uint256"
        }
      ],
      "stateMutability": "view",
      "type": "function",
      "constant": true
    },
    {
      "inputs": [
        {
          "internalType": "uint256",
          "name": "moveKey",
          "type": "uint256"
        }
      ],
      "name": "lockMove",
      "outputs": [],
      "stateMutability": "nonpayable",
      "type": "function"
    },
    {
      "inputs": [
        {
          "internalType": "uint256",
          "name": "moveKey",
          "type": "uint256"
        },
        {
          "internalType": "address payable",
          "name": "organ",
          "type": "address"
        },
        {
          "components": [
            {
              "internalType": "address",
              "name": "addr",
              "type": "address"
            },
            {
              "internalType": "bytes32",
              "name": "ipfsHash",
              "type": "bytes32"
            },
            {
              "internalType": "uint8",
              "name": "hashFunction",
              "type": "uint8"
            },
            {
              "internalType": "uint8",
              "name": "hashSize",
              "type": "uint8"
            }
          ],
          "internalType": "struct OrganLibrary.Entry[]",
          "name": "entries",
          "type": "tuple[]"
        },
        {
          "internalType": "bool",
          "name": "lock",
          "type": "bool"
        }
      ],
      "name": "moveAddEntries",
      "outputs": [],
      "stateMutability": "nonpayable",
      "type": "function"
    },
    {
      "inputs": [
        {
          "internalType": "uint256",
          "name": "moveKey",
          "type": "uint256"
        },
        {
          "internalType": "address payable",
          "name": "organ",
          "type": "address"
        },
        {
          "internalType": "address",
          "name": "procedure",
          "type": "address"
        },
        {
          "internalType": "bytes2",
          "name": "permissions",
          "type": "bytes2"
        },
        {
          "internalType": "bool",
          "name": "lock",
          "type": "bool"
        }
      ],
      "name": "moveAddProcedure",
      "outputs": [],
      "stateMutability": "nonpayable",
      "type": "function"
    },
    {
      "inputs": [
        {
          "internalType": "uint256",
          "name": "moveKey",
          "type": "uint256"
        },
        {
          "internalType": "bytes",
          "name": "call",
          "type": "bytes"
        },
        {
          "internalType": "bool",
          "name": "lock",
          "type": "bool"
        }
      ],
      "name": "moveCall",
      "outputs": [],
      "stateMutability": "nonpayable",
      "type": "function"
    },
    {
      "inputs": [
        {
          "internalType": "uint256",
          "name": "moveKey",
          "type": "uint256"
        },
        {
          "internalType": "address payable",
          "name": "organ",
          "type": "address"
        },
        {
          "internalType": "address",
          "name": "operator",
          "type": "address"
        },
        {
          "internalType": "address",
          "name": "target",
          "type": "address"
        },
        {
          "internalType": "uint256",
          "name": "value",
          "type": "uint256"
        },
        {
          "internalType": "bool",
          "name": "lock",
          "type": "bool"
        }
      ],
      "name": "moveReceiveCoins",
      "outputs": [],
      "stateMutability": "nonpayable",
      "type": "function"
    },
    {
      "inputs": [
        {
          "internalType": "uint256",
          "name": "moveKey",
          "type": "uint256"
        },
        {
          "internalType": "address payable",
          "name": "organ",
          "type": "address"
        },
        {
          "internalType": "address",
          "name": "operator",
          "type": "address"
        },
        {
          "internalType": "address",
          "name": "target",
          "type": "address"
        },
        {
          "internalType": "uint256",
          "name": "token_id",
          "type": "uint256"
        },
        {
          "internalType": "bool",
          "name": "lock",
          "type": "bool"
        }
      ],
      "name": "moveReceiveCollectible",
      "outputs": [],
      "stateMutability": "nonpayable",
      "type": "function"
    },
    {
      "inputs": [
        {
          "internalType": "uint256",
          "name": "moveKey",
          "type": "uint256"
        },
        {
          "internalType": "address payable",
          "name": "organ",
          "type": "address"
        },
        {
          "internalType": "address",
          "name": "target",
          "type": "address"
        },
        {
          "internalType": "uint256",
          "name": "value",
          "type": "uint256"
        },
        {
          "internalType": "bool",
          "name": "lock",
          "type": "bool"
        }
      ],
      "name": "moveReceiveEther",
      "outputs": [],
      "stateMutability": "nonpayable",
      "type": "function"
    },
    {
      "inputs": [
        {
          "internalType": "uint256",
          "name": "moveKey",
          "type": "uint256"
        },
        {
          "internalType": "address payable",
          "name": "organ",
          "type": "address"
        },
        {
          "internalType": "uint256",
          "name": "indexes",
          "type": "uint256"
        },
        {
          "internalType": "bool",
          "name": "lock",
          "type": "bool"
        }
      ],
      "name": "moveRemoveEntry",
      "outputs": [],
      "stateMutability": "nonpayable",
      "type": "function"
    },
    {
      "inputs": [
        {
          "internalType": "uint256",
          "name": "moveKey",
          "type": "uint256"
        },
        {
          "internalType": "address payable",
          "name": "organ",
          "type": "address"
        },
        {
          "internalType": "address",
          "name": "procedure",
          "type": "address"
        },
        {
          "internalType": "bool",
          "name": "lock",
          "type": "bool"
        }
      ],
      "name": "moveRemoveProcedure",
      "outputs": [],
      "stateMutability": "nonpayable",
      "type": "function"
    },
    {
      "inputs": [
        {
          "internalType": "uint256",
          "name": "moveKey",
          "type": "uint256"
        },
        {
          "internalType": "address payable",
          "name": "organ",
          "type": "address"
        },
        {
          "internalType": "uint256",
          "name": "index",
          "type": "uint256"
        },
        {
          "internalType": "address payable",
          "name": "addr",
          "type": "address"
        },
        {
          "internalType": "bytes32",
          "name": "ipfsHash",
          "type": "bytes32"
        },
        {
          "internalType": "uint8",
          "name": "hashFunction",
          "type": "uint8"
        },
        {
          "internalType": "uint8",
          "name": "hashSize",
          "type": "uint8"
        },
        {
          "internalType": "bool",
          "name": "lock",
          "type": "bool"
        }
      ],
      "name": "moveReplaceEntry",
      "outputs": [],
      "stateMutability": "nonpayable",
      "type": "function"
    },
    {
      "inputs": [
        {
          "internalType": "uint256",
          "name": "moveKey",
          "type": "uint256"
        },
        {
          "internalType": "address payable",
          "name": "organ",
          "type": "address"
        },
        {
          "internalType": "address",
          "name": "oldProcedure",
          "type": "address"
        },
        {
          "internalType": "address",
          "name": "newProcedure",
          "type": "address"
        },
        {
          "internalType": "bytes2",
          "name": "permissions",
          "type": "bytes2"
        },
        {
          "internalType": "bool",
          "name": "lock",
          "type": "bool"
        }
      ],
      "name": "moveReplaceProcedure",
      "outputs": [],
      "stateMutability": "nonpayable",
      "type": "function"
    },
    {
      "inputs": [
        {
          "internalType": "uint256",
          "name": "moveKey",
          "type": "uint256"
        },
        {
          "internalType": "address payable",
          "name": "organ",
          "type": "address"
        },
        {
          "internalType": "address",
          "name": "operator",
          "type": "address"
        },
        {
          "internalType": "address",
          "name": "target",
          "type": "address"
        },
        {
          "internalType": "uint256",
          "name": "value",
          "type": "uint256"
        },
        {
          "internalType": "bool",
          "name": "lock",
          "type": "bool"
        }
      ],
      "name": "moveTransferCoins",
      "outputs": [],
      "stateMutability": "nonpayable",
      "type": "function"
    },
    {
      "inputs": [
        {
          "internalType": "uint256",
          "name": "moveKey",
          "type": "uint256"
        },
        {
          "internalType": "address payable",
          "name": "organ",
          "type": "address"
        },
        {
          "internalType": "address",
          "name": "operator",
          "type": "address"
        },
        {
          "internalType": "address",
          "name": "target",
          "type": "address"
        },
        {
          "internalType": "uint256",
          "name": "token_id",
          "type": "uint256"
        },
        {
          "internalType": "bool",
          "name": "lock",
          "type": "bool"
        }
      ],
      "name": "moveTransferCollectible",
      "outputs": [],
      "stateMutability": "nonpayable",
      "type": "function"
    },
    {
      "inputs": [
        {
          "internalType": "uint256",
          "name": "moveKey",
          "type": "uint256"
        },
        {
          "internalType": "address payable",
          "name": "organ",
          "type": "address"
        },
        {
          "internalType": "address",
          "name": "target",
          "type": "address"
        },
        {
          "internalType": "uint256",
          "name": "value",
          "type": "uint256"
        },
        {
          "internalType": "bool",
          "name": "lock",
          "type": "bool"
        }
      ],
      "name": "moveTransferEther",
      "outputs": [],
      "stateMutability": "nonpayable",
      "type": "function"
    },
    {
      "inputs": [
        {
          "internalType": "bytes4",
          "name": "interfaceId",
          "type": "bytes4"
        }
      ],
      "name": "supportsInterface",
      "outputs": [
        {
          "internalType": "bool",
          "name": "",
          "type": "bool"
        }
      ],
      "stateMutability": "view",
      "type": "function",
      "constant": true
    },
    {
      "inputs": [
        {
          "internalType": "address payable",
          "name": "admin",
          "type": "address"
        }
      ],
      "name": "updateAdmin",
      "outputs": [],
      "stateMutability": "nonpayable",
      "type": "function"
    },
    {
      "inputs": [
        {
          "internalType": "bytes32",
          "name": "ipfsHash",
          "type": "bytes32"
        },
        {
          "internalType": "uint8",
          "name": "hashFunction",
          "type": "uint8"
        },
        {
          "internalType": "uint8",
          "name": "hashSize",
          "type": "uint8"
        }
      ],
      "name": "updateMetadata",
      "outputs": [],
      "stateMutability": "nonpayable",
      "type": "function"
    },
    {
      "inputs": [],
      "name": "vetoersOrgan",
      "outputs": [
        {
          "internalType": "address payable",
          "name": "",
          "type": "address"
        }
      ],
      "stateMutability": "view",
      "type": "function",
      "constant": true
    },
    {
      "inputs": [],
      "name": "votersOrgan",
      "outputs": [
        {
          "internalType": "address payable",
          "name": "",
          "type": "address"
        }
      ],
      "stateMutability": "view",
      "type": "function",
      "constant": true
    },
    {
      "inputs": [
        {
          "internalType": "uint256",
          "name": "moveKey",
          "type": "uint256"
        },
        {
          "internalType": "bool",
          "name": "approval",
          "type": "bool"
        }
      ],
      "name": "vote",
      "outputs": [],
      "stateMutability": "nonpayable",
      "type": "function"
    },
    {
      "inputs": [
        {
          "internalType": "uint256",
          "name": "moveKey",
          "type": "uint256"
        },
        {
          "internalType": "bytes32",
          "name": "ipfsHash",
          "type": "bytes32"
        },
        {
          "internalType": "uint8",
          "name": "hashFunction",
          "type": "uint8"
        },
        {
          "internalType": "uint8",
          "name": "hashSize",
          "type": "uint8"
        }
      ],
      "name": "veto",
      "outputs": [],
      "stateMutability": "nonpayable",
      "type": "function"
    },
    {
      "inputs": [
        {
          "internalType": "uint256",
          "name": "moveKey",
          "type": "uint256"
        }
      ],
      "name": "count",
      "outputs": [
        {
          "internalType": "bool",
          "name": "",
          "type": "bool"
        }
      ],
      "stateMutability": "view",
      "type": "function",
      "constant": true
    },
    {
      "inputs": [
        {
          "internalType": "uint256",
          "name": "moveKey",
          "type": "uint256"
        }
      ],
      "name": "enact",
      "outputs": [],
      "stateMutability": "nonpayable",
      "type": "function"
    }
  ],
  "bytecode": "0x60806040523480156200001157600080fd5b5060405162006430380380620064308339818101604052810190620000379190620002e5565b858585620000526301ffc9a760e01b620001c860201b60201c565b6200006a6371dbd33060e01b620001c860201b60201c565b600173__ProcedureLibrary______________________63359a395d90918585856040518563ffffffff1660e01b8152600401620000ac949392919062000408565b60006040518083038186803b158015620000c557600080fd5b505af4158015620000da573d6000803e3d6000fd5b50505050505050620000f963c9d27afe60e01b620001c860201b60201c565b82600760006101000a81548173ffffffffffffffffffffffffffffffffffffffff021916908373ffffffffffffffffffffffffffffffffffffffff16021790555081600860006101000a81548173ffffffffffffffffffffffffffffffffffffffff021916908373ffffffffffffffffffffffffffffffffffffffff16021790555080600960006101000a81548173ffffffffffffffffffffffffffffffffffffffff021916908373ffffffffffffffffffffffffffffffffffffffff160217905550505050505050620004ff565b63ffffffff60e01b817bffffffffffffffffffffffffffffffffffffffffffffffffffffffff1916141562000234576040517f08c379a00000000000000000000000000000000000000000000000000000000081526004016200022b90620003e6565b60405180910390fd5b6001600080837bffffffffffffffffffffffffffffffffffffffffffffffffffffffff19167bffffffffffffffffffffffffffffffffffffffffffffffffffffffff1916815260200190815260200160002060006101000a81548160ff02191690831515021790555050565b600081519050620002b181620004b1565b92915050565b600081519050620002c881620004cb565b92915050565b600081519050620002df81620004e5565b92915050565b60008060008060008060c08789031215620002ff57600080fd5b60006200030f89828a01620002b7565b96505060206200032289828a01620002ce565b95505060406200033589828a01620002ce565b94505060606200034889828a01620002a0565b93505060806200035b89828a01620002a0565b92505060a06200036e89828a01620002a0565b9150509295509295509295565b62000386816200047a565b82525050565b60006200039b601c8362000455565b91507f4552433136353a20696e76616c696420696e74657266616365206964000000006000830152602082019050919050565b8082525050565b620003e081620004a4565b82525050565b6000602082019050818103600083015262000401816200038c565b9050919050565b60006080820190506200041f6000830187620003ce565b6200042e60208301866200037b565b6200043d6040830185620003d5565b6200044c6060830184620003d5565b95945050505050565b600082825260208201905092915050565b6000620004738262000484565b9050919050565b6000819050919050565b600073ffffffffffffffffffffffffffffffffffffffff82169050919050565b600060ff82169050919050565b620004bc8162000466565b8114620004c857600080fd5b50565b620004d6816200047a565b8114620004e257600080fd5b50565b620004f081620004a4565b8114620004fc57600080fd5b50565b615f21806200050f6000396000f3fe608060405234801561001057600080fd5b50600436106101c45760003560e01c806371dbd330116100f9578063c9d27afe11610097578063d47fc87e11610071578063d47fc87e146104c3578063e2f273bd146104df578063ebb8c344146104fb578063fa160aa214610519576101c4565b8063c9d27afe1461046f578063cb6bc9ff1461048b578063cc125031146104a7576101c4565b80637ee7fa40116100d35780637ee7fa40146103e9578063a2b58cda14610405578063c23c6d4614610435578063c492f46314610453576101c4565b806371dbd3301461037d5780637a5b4f59146103ad5780637c3a5fcc146103cd576101c4565b806352c041b2116101665780635e9cc2a9116101405780635e9cc2a91461030b57806362721a4c146103275780636322ab201461034557806367c322d014610361576101c4565b806352c041b2146102b75780635a31b560146102d35780635ba357dc146102ef576101c4565b80632c1d5337116101a25780632c1d53371461023157806339c2ae701461024d5780633b3546c8146102695780633e9a9bd814610299576101c4565b806301ffc9a7146101c95780630b5522a9146101f9578063148a200514610215575b600080fd5b6101e360048036038101906101de9190614dda565b610535565b6040516101f091906159a3565b60405180910390f35b610213600480360381019061020e9190614fa1565b61059c565b005b61022f600480360381019061022a9190614eb5565b6105bf565b005b61024b60048036038101906102469190614e2c565b6105e5565b005b61026760048036038101906102629190614d3c565b61060b565b005b610283600480360381019061027e9190614e03565b610680565b60405161029091906159a3565b60405180910390f35b6102a1610724565b6040516102ae9190615b69565b60405180910390f35b6102d160048036038101906102cc919061510a565b610731565b005b6102ed60048036038101906102e89190614eb5565b61075d565b005b61030960048036038101906103049190614e03565b610783565b005b61032560048036038101906103209190614e03565b61079a565b005b61032f6109e7565b60405161033c9190615854565b60405180910390f35b61035f600480360381019061035a91906151bc565b610a0d565b005b61037b60048036038101906103769190614f3e565b610a2d565b005b61039760048036038101906103929190614e03565b610a4d565b6040516103a49190615a35565b60405180910390f35b6103b5610d1f565b6040516103c4939291906159be565b60405180910390f35b6103e760048036038101906103e29190614eb5565b610db9565b005b61040360048036038101906103fe9190615018565b610ddf565b005b61041f600480360381019061041a9190614d3c565b610e02565b60405161042c9190615b69565b60405180910390f35b61043d610e25565b60405161044a9190615854565b60405180910390f35b61046d6004803603810190610468919061508f565b610e4b565b005b6104896004803603810190610484919061521f565b610e6b565b005b6104a560048036038101906104a09190614eb5565b610fd8565b005b6104c160048036038101906104bc9190615018565b610ffe565b005b6104dd60048036038101906104d8919061525b565b611021565b005b6104f960048036038101906104f49190614cea565b611194565b005b610503611203565b6040516105109190615854565b60405180910390f35b610533600480360381019061052e91906152be565b611229565b005b6000806000837bffffffffffffffffffffffffffffffffffffffffffffffffffffffff19167bffffffffffffffffffffffffffffffffffffffffffffffffffffffff1916815260200190815260200160002060009054906101000a900460ff169050919050565b6105b8858585858560016112469095949392919063ffffffff16565b5050505050565b6105dd8686868686866001611623909695949392919063ffffffff16565b505050505050565b6106038686868686866001611a03909695949392919063ffffffff16565b505050505050565b600173__ProcedureLibrary______________________63b8cc9a0290918585856040518563ffffffff1660e01b815260040161064b9493929190615a9b565b60006040518083038186803b15801561066357600080fd5b505af4158015610677573d6000803e3d6000fd5b50505050505050565b60006006600083815260200190815260200160002073__VotePropositionLibrary________________6386300da490916040518263ffffffff1660e01b81526004016106cd9190615ae0565b60206040518083038186803b1580156106e557600080fd5b505af41580156106f9573d6000803e3d6000fd5b505050506040513d601f19601f8201168201806040525081019061071d9190614d13565b9050919050565b6000600160040154905090565b61075388888888888888886001611de39098979695949392919063ffffffff16565b5050505050505050565b61077b8686868686866001612193909695949392919063ffffffff16565b505050505050565b61079781600161257390919063ffffffff16565b50565b600960009054906101000a900473ffffffffffffffffffffffffffffffffffffffff1673__ProcedureLibrary______________________637c3b86fe82336040518363ffffffff1660e01b81526004016107f692919061586f565b60206040518083038186803b15801561080e57600080fd5b505af4158015610822573d6000803e3d6000fd5b505050506040513d601f19601f820116820180604052508101906108469190614d13565b610885576040517f08c379a000000000000000000000000000000000000000000000000000000000815260040161087c90615a15565b60405180910390fd5b6006600083815260200190815260200160002073__VotePropositionLibrary________________6386300da490916040518263ffffffff1660e01b81526004016108d09190615ae0565b60206040518083038186803b1580156108e857600080fd5b505af41580156108fc573d6000803e3d6000fd5b505050506040513d601f19601f820116820180604052508101906109209190614d13565b61095f576040517f08c379a000000000000000000000000000000000000000000000000000000000815260040161095690615a15565b60405180910390fd5b61096882612753565b6006600083815260200190815260200160002073__VotePropositionLibrary________________639acab60390916040518263ffffffff1660e01b81526004016109b39190615ae0565b60006040518083038186803b1580156109cb57600080fd5b505af41580156109df573d6000803e3d6000fd5b505050505050565b600860009054906101000a900473ffffffffffffffffffffffffffffffffffffffff1681565b610a2784848484600161276a90949392919063ffffffff16565b50505050565b610a47848484846001612b4490949392919063ffffffff16565b50505050565b610a55614999565b600160030160008381526020019081526020016000206040518060c00160405290816000820160009054906101000a900473ffffffffffffffffffffffffffffffffffffffff1673ffffffffffffffffffffffffffffffffffffffff1673ffffffffffffffffffffffffffffffffffffffff16815260200160018201604051806060016040529081600082015481526020016001820160009054906101000a900460ff1660ff1660ff1681526020016001820160019054906101000a900460ff1660ff1660ff168152505081526020016003820160009054906101000a900460ff161515151581526020016003820160019054906101000a900460ff161515151581526020016003820160029054906101000a900460ff1615151515815260200160048201805480602002602001604051908101604052809291908181526020016000905b82821015610d1057838290600052602060002090600602016040518060c0016040529081600082015481526020016001820160009054906101000a900473ffffffffffffffffffffffffffffffffffffffff1673ffffffffffffffffffffffffffffffffffffffff1673ffffffffffffffffffffffffffffffffffffffff168152602001600282015481526020016003820160009054906101000a900460ff1660ff1660ff168152602001600482018054600181600116156101000203166002900480601f016020809104026020016040519081016040528092919081815260200182805460018160011615610100020316600290048015610cdd5780601f10610cb257610100808354040283529160200191610cdd565b820191906000526020600020905b815481529060010190602001808311610cc057829003601f168201915b505050505081526020016005820160009054906101000a900460ff16151515158152505081526020019060010190610b9a565b50505050815250509050919050565b6000806000600173__ProcedureLibrary______________________6383fecb1a90916040518263ffffffff1660e01b8152600401610d5e9190615a57565b60606040518083038186803b158015610d7657600080fd5b505af4158015610d8a573d6000803e3d6000fd5b505050506040513d601f19601f82011682018060405250810190610dae9190614d8b565b925092509250909192565b610dd78686868686866001612f1e909695949392919063ffffffff16565b505050505050565b610dfb858585858560016132fc9095949392919063ffffffff16565b5050505050565b6000610e1c84848460016136d9909392919063ffffffff16565b90509392505050565b600760009054906101000a900473ffffffffffffffffffffffffffffffffffffffff1681565b610e658484848460016137dc90949392919063ffffffff16565b50505050565b600760009054906101000a900473ffffffffffffffffffffffffffffffffffffffff1673__ProcedureLibrary______________________637c3b86fe82336040518363ffffffff1660e01b8152600401610ec792919061586f565b60206040518083038186803b158015610edf57600080fd5b505af4158015610ef3573d6000803e3d6000fd5b505050506040513d601f19601f82011682018060405250810190610f179190614d13565b610f56576040517f08c379a0000000000000000000000000000000000000000000000000000000008152600401610f4d90615a15565b60405180910390fd5b6006600084815260200190815260200160002073__VotePropositionLibrary________________63d7a389fb9091846040518363ffffffff1660e01b8152600401610fa3929190615afb565b60006040518083038186803b158015610fbb57600080fd5b505af4158015610fcf573d6000803e3d6000fd5b50505050505050565b610ff68686868686866001613bb6909695949392919063ffffffff16565b505050505050565b61101a85858585856001613f969095949392919063ffffffff16565b5050505050565b600860009054906101000a900473ffffffffffffffffffffffffffffffffffffffff1673__ProcedureLibrary______________________637c3b86fe82336040518363ffffffff1660e01b815260040161107d92919061586f565b60206040518083038186803b15801561109557600080fd5b505af41580156110a9573d6000803e3d6000fd5b505050506040513d601f19601f820116820180604052508101906110cd9190614d13565b61110c576040517f08c379a000000000000000000000000000000000000000000000000000000000815260040161110390615a15565b60405180910390fd5b6006600086815260200190815260200160002073__VotePropositionLibrary________________6394974cc790918686866040518563ffffffff1660e01b815260040161115d9493929190615b24565b60006040518083038186803b15801561117557600080fd5b505af4158015611189573d6000803e3d6000fd5b505050505050505050565b600173__ProcedureLibrary______________________638e956e929091836040518363ffffffff1660e01b81526004016111d0929190615a72565b60006040518083038186803b1580156111e857600080fd5b505af41580156111fc573d6000803e3d6000fd5b5050505050565b600960009054906101000a900473ffffffffffffffffffffffffffffffffffffffff1681565b6112418383836001614373909392919063ffffffff16565b505050565b85853373ffffffffffffffffffffffffffffffffffffffff1682600301600083815260200190815260200160002060000160009054906101000a900473ffffffffffffffffffffffffffffffffffffffff1673ffffffffffffffffffffffffffffffffffffffff16146112ee576040517f08c379a00000000000000000000000000000000000000000000000000000000081526004016112e5906159f5565b60405180910390fd5b878781600301600082815260200190815260200160002060030160009054906101000a900460ff16158015611346575081600301600082815260200190815260200160002060030160019054906101000a900460ff16155b8015611375575081600301600082815260200190815260200160002060030160029054906101000a900460ff16155b6113b4576040517f08c379a00000000000000000000000000000000000000000000000000000000081526004016113ab906159f5565b60405180910390fd5b8960030160008a81526020019081526020016000206004016040518060c001604052808c60030160008d81526020019081526020016000206004018054905081526020018a73ffffffffffffffffffffffffffffffffffffffff16815260200160008152602001600460ff1681526020016390b137e98a8a60405160240161143d92919061592f565b6040516020818303038152906040529060e01b6020820180517bffffffffffffffffffffffffffffffffffffffffffffffffffffffff838183161783525050505081526020016000151581525090806001815401808255809150506001900390600052602060002090600602016000909190919091506000820151816000015560208201518160010160006101000a81548173ffffffffffffffffffffffffffffffffffffffff021916908373ffffffffffffffffffffffffffffffffffffffff1602179055506040820151816002015560608201518160030160006101000a81548160ff021916908360ff160217905550608082015181600401908051906020019061154b9291906149f1565b5060a08201518160050160006101000a81548160ff021916908315150217905550505084156116175760018a60030160008b815260200190815260200160002060030160006101000a81548160ff0219169083151502179055507f7306ab933b6e1df1bd2fddce7143eeedd65d5996fada0e9168c4e8c3d1ece94d8a60030160008b815260200190815260200160002060000160009054906101000a900473ffffffffffffffffffffffffffffffffffffffff168a60405161160e929190615898565b60405180910390a15b50505050505050505050565b86863373ffffffffffffffffffffffffffffffffffffffff1682600301600083815260200190815260200160002060000160009054906101000a900473ffffffffffffffffffffffffffffffffffffffff1673ffffffffffffffffffffffffffffffffffffffff16146116cb576040517f08c379a00000000000000000000000000000000000000000000000000000000081526004016116c2906159f5565b60405180910390fd5b888881600301600082815260200190815260200160002060030160009054906101000a900460ff16158015611723575081600301600082815260200190815260200160002060030160019054906101000a900460ff16155b8015611752575081600301600082815260200190815260200160002060030160029054906101000a900460ff16155b611791576040517f08c379a0000000000000000000000000000000000000000000000000000000008152600401611788906159f5565b60405180910390fd5b8a60030160008b81526020019081526020016000206004016040518060c001604052808d60030160008e81526020019081526020016000206004018054905081526020018b73ffffffffffffffffffffffffffffffffffffffff16815260200160008152602001600760ff16815260200163c10753298b8b8b60405160240161181c939291906158f8565b6040516020818303038152906040529060e01b6020820180517bffffffffffffffffffffffffffffffffffffffffffffffffffffffff838183161783525050505081526020016000151581525090806001815401808255809150506001900390600052602060002090600602016000909190919091506000820151816000015560208201518160010160006101000a81548173ffffffffffffffffffffffffffffffffffffffff021916908373ffffffffffffffffffffffffffffffffffffffff1602179055506040820151816002015560608201518160030160006101000a81548160ff021916908360ff160217905550608082015181600401908051906020019061192a9291906149f1565b5060a08201518160050160006101000a81548160ff021916908315150217905550505084156119f65760018b60030160008c815260200190815260200160002060030160006101000a81548160ff0219169083151502179055507f7306ab933b6e1df1bd2fddce7143eeedd65d5996fada0e9168c4e8c3d1ece94d8b60030160008c815260200190815260200160002060000160009054906101000a900473ffffffffffffffffffffffffffffffffffffffff168b6040516119ed929190615898565b60405180910390a15b5050505050505050505050565b86863373ffffffffffffffffffffffffffffffffffffffff1682600301600083815260200190815260200160002060000160009054906101000a900473ffffffffffffffffffffffffffffffffffffffff1673ffffffffffffffffffffffffffffffffffffffff1614611aab576040517f08c379a0000000000000000000000000000000000000000000000000000000008152600401611aa2906159f5565b60405180910390fd5b888881600301600082815260200190815260200160002060030160009054906101000a900460ff16158015611b03575081600301600082815260200190815260200160002060030160019054906101000a900460ff16155b8015611b32575081600301600082815260200190815260200160002060030160029054906101000a900460ff16155b611b71576040517f08c379a0000000000000000000000000000000000000000000000000000000008152600401611b68906159f5565b60405180910390fd5b8a60030160008b81526020019081526020016000206004016040518060c001604052808d60030160008e81526020019081526020016000206004018054905081526020018b73ffffffffffffffffffffffffffffffffffffffff16815260200160008152602001600660ff168152602001635676c77d8b8b8b604051602401611bfc939291906158c1565b6040516020818303038152906040529060e01b6020820180517bffffffffffffffffffffffffffffffffffffffffffffffffffffffff838183161783525050505081526020016000151581525090806001815401808255809150506001900390600052602060002090600602016000909190919091506000820151816000015560208201518160010160006101000a81548173ffffffffffffffffffffffffffffffffffffffff021916908373ffffffffffffffffffffffffffffffffffffffff1602179055506040820151816002015560608201518160030160006101000a81548160ff021916908360ff1602179055506080820151816004019080519060200190611d0a9291906149f1565b5060a08201518160050160006101000a81548160ff02191690831515021790555050508415611dd65760018b60030160008c815260200190815260200160002060030160006101000a81548160ff0219169083151502179055507f7306ab933b6e1df1bd2fddce7143eeedd65d5996fada0e9168c4e8c3d1ece94d8b60030160008c815260200190815260200160002060000160009054906101000a900473ffffffffffffffffffffffffffffffffffffffff168b604051611dcd929190615898565b60405180910390a15b5050505050505050505050565b88883373ffffffffffffffffffffffffffffffffffffffff1682600301600083815260200190815260200160002060000160009054906101000a900473ffffffffffffffffffffffffffffffffffffffff1673ffffffffffffffffffffffffffffffffffffffff1614611e8b576040517f08c379a0000000000000000000000000000000000000000000000000000000008152600401611e82906159f5565b60405180910390fd5b8a8a81600301600082815260200190815260200160002060030160009054906101000a900460ff16158015611ee3575081600301600082815260200190815260200160002060030160019054906101000a900460ff16155b8015611f12575081600301600082815260200190815260200160002060030160029054906101000a900460ff16155b611f51576040517f08c379a0000000000000000000000000000000000000000000000000000000008152600401611f48906159f5565b60405180910390fd5b60008d60030160008e81526020019081526020016000209050806004016040518060c00160405280836004018054905081526020018e73ffffffffffffffffffffffffffffffffffffffff16815260200160008152602001600360ff16815260200163155a73ce8e8e8e8e8e604051602401611fd1959493929190615b84565b6040516020818303038152906040529060e01b6020820180517bffffffffffffffffffffffffffffffffffffffffffffffffffffffff838183161783525050505081526020016000151581525090806001815401808255809150506001900390600052602060002090600602016000909190919091506000820151816000015560208201518160010160006101000a81548173ffffffffffffffffffffffffffffffffffffffff021916908373ffffffffffffffffffffffffffffffffffffffff1602179055506040820151816002015560608201518160030160006101000a81548160ff021916908360ff16021790555060808201518160040190805190602001906120df9291906149f1565b5060a08201518160050160006101000a81548160ff021916908315150217905550505085156121835760018160030160006101000a81548160ff0219169083151502179055507f7306ab933b6e1df1bd2fddce7143eeedd65d5996fada0e9168c4e8c3d1ece94d8160000160009054906101000a900473ffffffffffffffffffffffffffffffffffffffff168e60405161217a929190615898565b60405180910390a15b5050505050505050505050505050565b86863373ffffffffffffffffffffffffffffffffffffffff1682600301600083815260200190815260200160002060000160009054906101000a900473ffffffffffffffffffffffffffffffffffffffff1673ffffffffffffffffffffffffffffffffffffffff161461223b576040517f08c379a0000000000000000000000000000000000000000000000000000000008152600401612232906159f5565b60405180910390fd5b888881600301600082815260200190815260200160002060030160009054906101000a900460ff16158015612293575081600301600082815260200190815260200160002060030160019054906101000a900460ff16155b80156122c2575081600301600082815260200190815260200160002060030160029054906101000a900460ff16155b612301576040517f08c379a00000000000000000000000000000000000000000000000000000000081526004016122f8906159f5565b60405180910390fd5b8a60030160008b81526020019081526020016000206004016040518060c001604052808d60030160008e81526020019081526020016000206004018054905081526020018b73ffffffffffffffffffffffffffffffffffffffff16815260200160008152602001600860ff168152602001635e35359e8b8b8b60405160240161238c939291906158f8565b6040516020818303038152906040529060e01b6020820180517bffffffffffffffffffffffffffffffffffffffffffffffffffffffff838183161783525050505081526020016000151581525090806001815401808255809150506001900390600052602060002090600602016000909190919091506000820151816000015560208201518160010160006101000a81548173ffffffffffffffffffffffffffffffffffffffff021916908373ffffffffffffffffffffffffffffffffffffffff1602179055506040820151816002015560608201518160030160006101000a81548160ff021916908360ff160217905550608082015181600401908051906020019061249a9291906149f1565b5060a08201518160050160006101000a81548160ff021916908315150217905550505084156125665760018b60030160008c815260200190815260200160002060030160006101000a81548160ff0219169083151502179055507f7306ab933b6e1df1bd2fddce7143eeedd65d5996fada0e9168c4e8c3d1ece94d8b60030160008c815260200190815260200160002060000160009054906101000a900473ffffffffffffffffffffffffffffffffffffffff168b60405161255d929190615898565b60405180910390a15b5050505050505050505050565b81813373ffffffffffffffffffffffffffffffffffffffff1682600301600083815260200190815260200160002060000160009054906101000a900473ffffffffffffffffffffffffffffffffffffffff1673ffffffffffffffffffffffffffffffffffffffff161461261b576040517f08c379a0000000000000000000000000000000000000000000000000000000008152600401612612906159f5565b60405180910390fd5b838381600301600082815260200190815260200160002060030160009054906101000a900460ff16158015612673575081600301600082815260200190815260200160002060030160019054906101000a900460ff16155b80156126a2575081600301600082815260200190815260200160002060030160029054906101000a900460ff16155b6126e1576040517f08c379a00000000000000000000000000000000000000000000000000000000081526004016126d8906159f5565b60405180910390fd5b600186600301600087815260200190815260200160002060030160006101000a81548160ff0219169083151502179055507f7306ab933b6e1df1bd2fddce7143eeedd65d5996fada0e9168c4e8c3d1ece94d3386604051612743929190615898565b60405180910390a1505050505050565b6127678160016146f790919063ffffffff16565b50565b84843373ffffffffffffffffffffffffffffffffffffffff1682600301600083815260200190815260200160002060000160009054906101000a900473ffffffffffffffffffffffffffffffffffffffff1673ffffffffffffffffffffffffffffffffffffffff1614612812576040517f08c379a0000000000000000000000000000000000000000000000000000000008152600401612809906159f5565b60405180910390fd5b868681600301600082815260200190815260200160002060030160009054906101000a900460ff1615801561286a575081600301600082815260200190815260200160002060030160019054906101000a900460ff16155b8015612899575081600301600082815260200190815260200160002060030160029054906101000a900460ff16155b6128d8576040517f08c379a00000000000000000000000000000000000000000000000000000000081526004016128cf906159f5565b60405180910390fd5b8860030160008981526020019081526020016000206004016040518060c001604052808b60030160008c81526020019081526020016000206004018054905081526020018973ffffffffffffffffffffffffffffffffffffffff16815260200160008152602001600260ff1681526020016376a6411c8960405160240161295f9190615b69565b6040516020818303038152906040529060e01b6020820180517bffffffffffffffffffffffffffffffffffffffffffffffffffffffff838183161783525050505081526020016000151581525090806001815401808255809150506001900390600052602060002090600602016000909190919091506000820151816000015560208201518160010160006101000a81548173ffffffffffffffffffffffffffffffffffffffff021916908373ffffffffffffffffffffffffffffffffffffffff1602179055506040820151816002015560608201518160030160006101000a81548160ff021916908360ff1602179055506080820151816004019080519060200190612a6d9291906149f1565b5060a08201518160050160006101000a81548160ff02191690831515021790555050508415612b395760018960030160008a815260200190815260200160002060030160006101000a81548160ff0219169083151502179055507f7306ab933b6e1df1bd2fddce7143eeedd65d5996fada0e9168c4e8c3d1ece94d8960030160008a815260200190815260200160002060000160009054906101000a900473ffffffffffffffffffffffffffffffffffffffff1689604051612b30929190615898565b60405180910390a15b505050505050505050565b84843373ffffffffffffffffffffffffffffffffffffffff1682600301600083815260200190815260200160002060000160009054906101000a900473ffffffffffffffffffffffffffffffffffffffff1673ffffffffffffffffffffffffffffffffffffffff1614612bec576040517f08c379a0000000000000000000000000000000000000000000000000000000008152600401612be3906159f5565b60405180910390fd5b868681600301600082815260200190815260200160002060030160009054906101000a900460ff16158015612c44575081600301600082815260200190815260200160002060030160019054906101000a900460ff16155b8015612c73575081600301600082815260200190815260200160002060030160029054906101000a900460ff16155b612cb2576040517f08c379a0000000000000000000000000000000000000000000000000000000008152600401612ca9906159f5565b60405180910390fd5b8860030160008981526020019081526020016000206004016040518060c001604052808b60030160008c81526020019081526020016000206004018054905081526020018973ffffffffffffffffffffffffffffffffffffffff16815260200160008152602001600560ff1681526020016319b9404c89604051602401612d399190615839565b6040516020818303038152906040529060e01b6020820180517bffffffffffffffffffffffffffffffffffffffffffffffffffffffff838183161783525050505081526020016000151581525090806001815401808255809150506001900390600052602060002090600602016000909190919091506000820151816000015560208201518160010160006101000a81548173ffffffffffffffffffffffffffffffffffffffff021916908373ffffffffffffffffffffffffffffffffffffffff1602179055506040820151816002015560608201518160030160006101000a81548160ff021916908360ff1602179055506080820151816004019080519060200190612e479291906149f1565b5060a08201518160050160006101000a81548160ff02191690831515021790555050508415612f135760018960030160008a815260200190815260200160002060030160006101000a81548160ff0219169083151502179055507f7306ab933b6e1df1bd2fddce7143eeedd65d5996fada0e9168c4e8c3d1ece94d8960030160008a815260200190815260200160002060000160009054906101000a900473ffffffffffffffffffffffffffffffffffffffff1689604051612f0a929190615898565b60405180910390a15b505050505050505050565b86863373ffffffffffffffffffffffffffffffffffffffff1682600301600083815260200190815260200160002060000160009054906101000a900473ffffffffffffffffffffffffffffffffffffffff1673ffffffffffffffffffffffffffffffffffffffff1614612fc6576040517f08c379a0000000000000000000000000000000000000000000000000000000008152600401612fbd906159f5565b60405180910390fd5b888881600301600082815260200190815260200160002060030160009054906101000a900460ff1615801561301e575081600301600082815260200190815260200160002060030160019054906101000a900460ff16155b801561304d575081600301600082815260200190815260200160002060030160029054906101000a900460ff16155b61308c576040517f08c379a0000000000000000000000000000000000000000000000000000000008152600401613083906159f5565b60405180910390fd5b8a60030160008b81526020019081526020016000206004016040518060c001604052808d60030160008e81526020019081526020016000206004018054905081526020018b73ffffffffffffffffffffffffffffffffffffffff16815260200160008152602001600760ff16815260200163c10753298b8a604051602401613115929190615958565b6040516020818303038152906040529060e01b6020820180517bffffffffffffffffffffffffffffffffffffffffffffffffffffffff838183161783525050505081526020016000151581525090806001815401808255809150506001900390600052602060002090600602016000909190919091506000820151816000015560208201518160010160006101000a81548173ffffffffffffffffffffffffffffffffffffffff021916908373ffffffffffffffffffffffffffffffffffffffff1602179055506040820151816002015560608201518160030160006101000a81548160ff021916908360ff16021790555060808201518160040190805190602001906132239291906149f1565b5060a08201518160050160006101000a81548160ff021916908315150217905550505084156132ef5760018b60030160008c815260200190815260200160002060030160006101000a81548160ff0219169083151502179055507f7306ab933b6e1df1bd2fddce7143eeedd65d5996fada0e9168c4e8c3d1ece94d8b60030160008c815260200190815260200160002060000160009054906101000a900473ffffffffffffffffffffffffffffffffffffffff168b6040516132e6929190615898565b60405180910390a15b5050505050505050505050565b85853373ffffffffffffffffffffffffffffffffffffffff1682600301600083815260200190815260200160002060000160009054906101000a900473ffffffffffffffffffffffffffffffffffffffff1673ffffffffffffffffffffffffffffffffffffffff16146133a4576040517f08c379a000000000000000000000000000000000000000000000000000000000815260040161339b906159f5565b60405180910390fd5b878781600301600082815260200190815260200160002060030160009054906101000a900460ff161580156133fc575081600301600082815260200190815260200160002060030160019054906101000a900460ff16155b801561342b575081600301600082815260200190815260200160002060030160029054906101000a900460ff16155b61346a576040517f08c379a0000000000000000000000000000000000000000000000000000000008152600401613461906159f5565b60405180910390fd5b8960030160008a81526020019081526020016000206004016040518060c001604052808c60030160008d81526020019081526020016000206004018054905081526020018a73ffffffffffffffffffffffffffffffffffffffff16815260200160008152602001600760ff16815260200163c10753298a8a6040516024016134f3929190615958565b6040516020818303038152906040529060e01b6020820180517bffffffffffffffffffffffffffffffffffffffffffffffffffffffff838183161783525050505081526020016000151581525090806001815401808255809150506001900390600052602060002090600602016000909190919091506000820151816000015560208201518160010160006101000a81548173ffffffffffffffffffffffffffffffffffffffff021916908373ffffffffffffffffffffffffffffffffffffffff1602179055506040820151816002015560608201518160030160006101000a81548160ff021916908360ff16021790555060808201518160040190805190602001906136019291906149f1565b5060a08201518160050160006101000a81548160ff021916908315150217905550505084156136cd5760018a60030160008b815260200190815260200160002060030160006101000a81548160ff0219169083151502179055507f7306ab933b6e1df1bd2fddce7143eeedd65d5996fada0e9168c4e8c3d1ece94d8a60030160008b815260200190815260200160002060000160009054906101000a900473ffffffffffffffffffffffffffffffffffffffff168a6040516136c4929190615898565b60405180910390a15b50505050505050505050565b6000808560040160008154809291906001019190505590503386600301600083815260200190815260200160002060000160006101000a81548173ffffffffffffffffffffffffffffffffffffffff021916908373ffffffffffffffffffffffffffffffffffffffff16021790555060405180606001604052808681526020018560ff1681526020018460ff168152508660030160008381526020019081526020016000206001016000820151816000015560208201518160010160006101000a81548160ff021916908360ff16021790555060408201518160010160016101000a81548160ff021916908360ff16021790555090505080915050949350505050565b84843373ffffffffffffffffffffffffffffffffffffffff1682600301600083815260200190815260200160002060000160009054906101000a900473ffffffffffffffffffffffffffffffffffffffff1673ffffffffffffffffffffffffffffffffffffffff1614613884576040517f08c379a000000000000000000000000000000000000000000000000000000000815260040161387b906159f5565b60405180910390fd5b868681600301600082815260200190815260200160002060030160009054906101000a900460ff161580156138dc575081600301600082815260200190815260200160002060030160019054906101000a900460ff16155b801561390b575081600301600082815260200190815260200160002060030160029054906101000a900460ff16155b61394a576040517f08c379a0000000000000000000000000000000000000000000000000000000008152600401613941906159f5565b60405180910390fd5b8860030160008981526020019081526020016000206004016040518060c001604052808b60030160008c81526020019081526020016000206004018054905081526020018973ffffffffffffffffffffffffffffffffffffffff16815260200160008152602001600160ff168152602001631715f4de896040516024016139d19190615981565b6040516020818303038152906040529060e01b6020820180517bffffffffffffffffffffffffffffffffffffffffffffffffffffffff838183161783525050505081526020016000151581525090806001815401808255809150506001900390600052602060002090600602016000909190919091506000820151816000015560208201518160010160006101000a81548173ffffffffffffffffffffffffffffffffffffffff021916908373ffffffffffffffffffffffffffffffffffffffff1602179055506040820151816002015560608201518160030160006101000a81548160ff021916908360ff1602179055506080820151816004019080519060200190613adf9291906149f1565b5060a08201518160050160006101000a81548160ff02191690831515021790555050508415613bab5760018960030160008a815260200190815260200160002060030160006101000a81548160ff0219169083151502179055507f7306ab933b6e1df1bd2fddce7143eeedd65d5996fada0e9168c4e8c3d1ece94d8960030160008a815260200190815260200160002060000160009054906101000a900473ffffffffffffffffffffffffffffffffffffffff1689604051613ba2929190615898565b60405180910390a15b505050505050505050565b86863373ffffffffffffffffffffffffffffffffffffffff1682600301600083815260200190815260200160002060000160009054906101000a900473ffffffffffffffffffffffffffffffffffffffff1673ffffffffffffffffffffffffffffffffffffffff1614613c5e576040517f08c379a0000000000000000000000000000000000000000000000000000000008152600401613c55906159f5565b60405180910390fd5b888881600301600082815260200190815260200160002060030160009054906101000a900460ff16158015613cb6575081600301600082815260200190815260200160002060030160019054906101000a900460ff16155b8015613ce5575081600301600082815260200190815260200160002060030160029054906101000a900460ff16155b613d24576040517f08c379a0000000000000000000000000000000000000000000000000000000008152600401613d1b906159f5565b60405180910390fd5b8a60030160008b81526020019081526020016000206004016040518060c001604052808d60030160008e81526020019081526020016000206004018054905081526020018b73ffffffffffffffffffffffffffffffffffffffff16815260200160008152602001600860ff168152602001635e35359e8b8b8b604051602401613daf939291906158f8565b6040516020818303038152906040529060e01b6020820180517bffffffffffffffffffffffffffffffffffffffffffffffffffffffff838183161783525050505081526020016000151581525090806001815401808255809150506001900390600052602060002090600602016000909190919091506000820151816000015560208201518160010160006101000a81548173ffffffffffffffffffffffffffffffffffffffff021916908373ffffffffffffffffffffffffffffffffffffffff1602179055506040820151816002015560608201518160030160006101000a81548160ff021916908360ff1602179055506080820151816004019080519060200190613ebd9291906149f1565b5060a08201518160050160006101000a81548160ff02191690831515021790555050508415613f895760018b60030160008c815260200190815260200160002060030160006101000a81548160ff0219169083151502179055507f7306ab933b6e1df1bd2fddce7143eeedd65d5996fada0e9168c4e8c3d1ece94d8b60030160008c815260200190815260200160002060000160009054906101000a900473ffffffffffffffffffffffffffffffffffffffff168b604051613f80929190615898565b60405180910390a15b5050505050505050505050565b85853373ffffffffffffffffffffffffffffffffffffffff1682600301600083815260200190815260200160002060000160009054906101000a900473ffffffffffffffffffffffffffffffffffffffff1673ffffffffffffffffffffffffffffffffffffffff161461403e576040517f08c379a0000000000000000000000000000000000000000000000000000000008152600401614035906159f5565b60405180910390fd5b878781600301600082815260200190815260200160002060030160009054906101000a900460ff16158015614096575081600301600082815260200190815260200160002060030160019054906101000a900460ff16155b80156140c5575081600301600082815260200190815260200160002060030160029054906101000a900460ff16155b614104576040517f08c379a00000000000000000000000000000000000000000000000000000000081526004016140fb906159f5565b60405180910390fd5b8960030160008a81526020019081526020016000206004016040518060c001604052808c60030160008d81526020019081526020016000206004018054905081526020018a73ffffffffffffffffffffffffffffffffffffffff16815260200160008152602001600860ff168152602001635e35359e8a8a60405160240161418d929190615958565b6040516020818303038152906040529060e01b6020820180517bffffffffffffffffffffffffffffffffffffffffffffffffffffffff838183161783525050505081526020016000151581525090806001815401808255809150506001900390600052602060002090600602016000909190919091506000820151816000015560208201518160010160006101000a81548173ffffffffffffffffffffffffffffffffffffffff021916908373ffffffffffffffffffffffffffffffffffffffff1602179055506040820151816002015560608201518160030160006101000a81548160ff021916908360ff160217905550608082015181600401908051906020019061429b9291906149f1565b5060a08201518160050160006101000a81548160ff021916908315150217905550505084156143675760018a60030160008b815260200190815260200160002060030160006101000a81548160ff0219169083151502179055507f7306ab933b6e1df1bd2fddce7143eeedd65d5996fada0e9168c4e8c3d1ece94d8a60030160008b815260200190815260200160002060000160009054906101000a900473ffffffffffffffffffffffffffffffffffffffff168a60405161435e929190615898565b60405180910390a15b50505050505050505050565b83833373ffffffffffffffffffffffffffffffffffffffff1682600301600083815260200190815260200160002060000160009054906101000a900473ffffffffffffffffffffffffffffffffffffffff1673ffffffffffffffffffffffffffffffffffffffff161461441b576040517f08c379a0000000000000000000000000000000000000000000000000000000008152600401614412906159f5565b60405180910390fd5b858581600301600082815260200190815260200160002060030160009054906101000a900460ff16158015614473575081600301600082815260200190815260200160002060030160019054906101000a900460ff16155b80156144a2575081600301600082815260200190815260200160002060030160029054906101000a900460ff16155b6144e1576040517f08c379a00000000000000000000000000000000000000000000000000000000081526004016144d8906159f5565b60405180910390fd5b8760030160008881526020019081526020016000206004016040518060c001604052808a60030160008b8152602001908152602001600020600401805490508152602001600073ffffffffffffffffffffffffffffffffffffffff16815260200160008152602001600060ff1681526020018881526020016000151581525090806001815401808255809150506001900390600052602060002090600602016000909190919091506000820151816000015560208201518160010160006101000a81548173ffffffffffffffffffffffffffffffffffffffff021916908373ffffffffffffffffffffffffffffffffffffffff1602179055506040820151816002015560608201518160030160006101000a81548160ff021916908360ff16021790555060808201518160040190805190602001906146219291906149f1565b5060a08201518160050160006101000a81548160ff021916908315150217905550505084156146ed57600188600301600089815260200190815260200160002060030160006101000a81548160ff0219169083151502179055507f7306ab933b6e1df1bd2fddce7143eeedd65d5996fada0e9168c4e8c3d1ece94d88600301600089815260200190815260200160002060000160009054906101000a900473ffffffffffffffffffffffffffffffffffffffff16886040516146e4929190615898565b60405180910390a15b5050505050505050565b818181600301600082815260200190815260200160002060030160009054906101000a900460ff16801561474e575081600301600082815260200190815260200160002060030160019054906101000a900460ff16155b801561477d575081600301600082815260200190815260200160002060030160029054906101000a900460ff16155b6147bc576040517f08c379a00000000000000000000000000000000000000000000000000000000081526004016147b3906159f5565b60405180910390fd5b6000846003016000858152602001908152602001600020905060018160030160026101000a81548160ff02191690831515021790555060005b816004018054905081101561493d57600082600401828154811061481557fe5b90600052602060002090600602019050600073ffffffffffffffffffffffffffffffffffffffff168160010160009054906101000a900473ffffffffffffffffffffffffffffffffffffffff1673ffffffffffffffffffffffffffffffffffffffff1614614914578060010160009054906101000a900473ffffffffffffffffffffffffffffffffffffffff1673ffffffffffffffffffffffffffffffffffffffff168160020154826004016040516148ce9190615822565b60006040518083038185875af1925050503d806000811461490b576040519150601f19603f3d011682016040523d82523d6000602084013e614910565b606091505b5050505b60018160050160006101000a81548160ff021916908315150217905550508060010190506147f5565b5060018160030160016101000a81548160ff0219169083151502179055507fd2c6e52f57352f08a7c9894b122d8440f1d87a7949ba8769fe444bf80b9e7a7e8460405161498a9190615b69565b60405180910390a15050505050565b6040518060c00160405280600073ffffffffffffffffffffffffffffffffffffffff1681526020016149c9614a71565b8152602001600015158152602001600015158152602001600015158152602001606081525090565b828054600181600116156101000203166002900490600052602060002090601f016020900481019282601f10614a3257805160ff1916838001178555614a60565b82800160010185558215614a60579182015b82811115614a5f578251825591602001919060010190614a44565b5b509050614a6d9190614a9b565b5090565b604051806060016040528060008019168152602001600060ff168152602001600060ff1681525090565b5b80821115614ab4576000816000905550600101614a9c565b5090565b600081359050614ac781615e33565b92915050565b600081359050614adc81615e4a565b92915050565b600082601f830112614af357600080fd5b8135614b06614b0182615c04565b615bd7565b91508181835260208401935060208101905083856080840282011115614b2b57600080fd5b60005b83811015614b5b5781614b418882614c37565b845260208401935060808301925050600181019050614b2e565b5050505092915050565b600081359050614b7481615e61565b92915050565b600081519050614b8981615e61565b92915050565b600081359050614b9e81615e78565b92915050565b600081359050614bb381615e8f565b92915050565b600081519050614bc881615e8f565b92915050565b600081359050614bdd81615ea6565b92915050565b600082601f830112614bf457600080fd5b8135614c07614c0282615c2c565b615bd7565b91508082526020830160208301858383011115614c2357600080fd5b614c2e838284615de0565b50505092915050565b600060808284031215614c4957600080fd5b614c536080615bd7565b90506000614c6384828501614ab8565b6000830152506020614c7784828501614ba4565b6020830152506040614c8b84828501614cc0565b6040830152506060614c9f84828501614cc0565b60608301525092915050565b600081359050614cba81615ebd565b92915050565b600081359050614ccf81615ed4565b92915050565b600081519050614ce481615ed4565b92915050565b600060208284031215614cfc57600080fd5b6000614d0a84828501614acd565b91505092915050565b600060208284031215614d2557600080fd5b6000614d3384828501614b7a565b91505092915050565b600080600060608486031215614d5157600080fd5b6000614d5f86828701614ba4565b9350506020614d7086828701614cc0565b9250506040614d8186828701614cc0565b9150509250925092565b600080600060608486031215614da057600080fd5b6000614dae86828701614bb9565b9350506020614dbf86828701614cd5565b9250506040614dd086828701614cd5565b9150509250925092565b600060208284031215614dec57600080fd5b6000614dfa84828501614bce565b91505092915050565b600060208284031215614e1557600080fd5b6000614e2384828501614cab565b91505092915050565b60008060008060008060c08789031215614e4557600080fd5b6000614e5389828a01614cab565b9650506020614e6489828a01614acd565b9550506040614e7589828a01614ab8565b9450506060614e8689828a01614ab8565b9350506080614e9789828a01614b8f565b92505060a0614ea889828a01614b65565b9150509295509295509295565b60008060008060008060c08789031215614ece57600080fd5b6000614edc89828a01614cab565b9650506020614eed89828a01614acd565b9550506040614efe89828a01614ab8565b9450506060614f0f89828a01614ab8565b9350506080614f2089828a01614cab565b92505060a0614f3189828a01614b65565b9150509295509295509295565b60008060008060808587031215614f5457600080fd5b6000614f6287828801614cab565b9450506020614f7387828801614acd565b9350506040614f8487828801614ab8565b9250506060614f9587828801614b65565b91505092959194509250565b600080600080600060a08688031215614fb957600080fd5b6000614fc788828901614cab565b9550506020614fd888828901614acd565b9450506040614fe988828901614ab8565b9350506060614ffa88828901614b8f565b925050608061500b88828901614b65565b9150509295509295909350565b600080600080600060a0868803121561503057600080fd5b600061503e88828901614cab565b955050602061504f88828901614acd565b945050604061506088828901614ab8565b935050606061507188828901614cab565b925050608061508288828901614b65565b9150509295509295909350565b600080600080608085870312156150a557600080fd5b60006150b387828801614cab565b94505060206150c487828801614acd565b935050604085013567ffffffffffffffff8111156150e157600080fd5b6150ed87828801614ae2565b92505060606150fe87828801614b65565b91505092959194509250565b600080600080600080600080610100898b03121561512757600080fd5b60006151358b828c01614cab565b98505060206151468b828c01614acd565b97505060406151578b828c01614cab565b96505060606151688b828c01614acd565b95505060806151798b828c01614ba4565b94505060a061518a8b828c01614cc0565b93505060c061519b8b828c01614cc0565b92505060e06151ac8b828c01614b65565b9150509295985092959890939650565b600080600080608085870312156151d257600080fd5b60006151e087828801614cab565b94505060206151f187828801614acd565b935050604061520287828801614cab565b925050606061521387828801614b65565b91505092959194509250565b6000806040838503121561523257600080fd5b600061524085828601614cab565b925050602061525185828601614b65565b9150509250929050565b6000806000806080858703121561527157600080fd5b600061527f87828801614cab565b945050602061529087828801614ba4565b93505060406152a187828801614cc0565b92505060606152b287828801614cc0565b91505092959194509250565b6000806000606084860312156152d357600080fd5b60006152e186828701614cab565b935050602084013567ffffffffffffffff8111156152fe57600080fd5b61530a86828701614be3565b925050604061531b86828701614b65565b9150509250925092565b6000615331838361561f565b60808301905092915050565b60006153498383615740565b905092915050565b61535a81615d29565b82525050565b61536981615d29565b82525050565b61537881615d29565b82525050565b61538781615d17565b82525050565b61539681615d17565b82525050565b60006153a782615c8d565b6153b18185615cc8565b93506153bc83615c58565b8060005b838110156153ed5781516153d48882615325565b97506153df83615cae565b9250506001810190506153c0565b5085935050505092915050565b600061540582615c98565b61540f8185615cd9565b93508360208202850161542185615c68565b8060005b8581101561545d578484038952815161543e858261533d565b945061544983615cbb565b925060208a01995050600181019050615425565b50829750879550505050505092915050565b61547881615d3b565b82525050565b61548781615d3b565b82525050565b61549681615d3b565b82525050565b6154a581615d47565b82525050565b6154b481615d73565b82525050565b6154c381615d73565b82525050565b6154d281615d73565b82525050565b60006154e382615ca3565b6154ed8185615cea565b93506154fd818560208601615def565b61550681615e22565b840191505092915050565b60008154600181166000811461552e576001811461555357615597565b607f600283041661553f8187615cfb565b955060ff1983168652808601935050615597565b600282046155618187615cfb565b955061556c85615c78565b60005b8281101561558e5781548189015260018201915060208101905061556f565b82880195505050505b505092915050565b60006155ac600f83615d06565b91507f4e6f7420617574686f72697a65642e00000000000000000000000000000000006000830152602082019050919050565b60006155ec600e83615d06565b91507f4e6f7420617574686f72697a65640000000000000000000000000000000000006000830152602082019050919050565b608082016000820151615635600085018261537e565b50602082015161564860208501826154ab565b50604082015161565b60408501826157f5565b50606082015161566e60608501826157f5565b50505050565b60608201600082015161568a60008501826154ab565b50602082015161569d60208501826157f5565b5060408201516156b060408501826157f5565b50505050565b6000610100830160008301516156cf6000860182615351565b5060208301516156e26020860182615674565b5060408301516156f5608086018261546f565b50606083015161570860a086018261546f565b50608083015161571b60c086018261546f565b5060a083015184820360e086015261573382826153fa565b9150508091505092915050565b600060c08301600083015161575860008601826157d7565b50602083015161576b6020860182615351565b50604083015161577e60408601826157d7565b50606083015161579160608601826157f5565b50608083015184820360808601526157a982826154d8565b91505060a08301516157be60a086018261546f565b508091505092915050565b8082525050565b8082525050565b6157e081615dc9565b82525050565b6157ef81615dc9565b82525050565b6157fe81615dd3565b82525050565b61580d81615dd3565b82525050565b61581c81615dd3565b82525050565b600061582e8284615511565b915081905092915050565b600060208201905061584e600083018461538d565b92915050565b60006020820190506158696000830184615360565b92915050565b6000604082019050615884600083018561536f565b615891602083018461536f565b9392505050565b60006040820190506158ad6000830185615360565b6158ba60208301846157e6565b9392505050565b60006060820190506158d6600083018661538d565b6158e3602083018561538d565b6158f0604083018461549c565b949350505050565b600060608201905061590d600083018661538d565b61591a602083018561538d565b61592760408301846157e6565b949350505050565b6000604082019050615944600083018561538d565b615951602083018461549c565b9392505050565b600060408201905061596d600083018561538d565b61597a60208301846157e6565b9392505050565b6000602082019050818103600083015261599b818461539c565b905092915050565b60006020820190506159b8600083018461547e565b92915050565b60006060820190506159d360008301866154ba565b6159e06020830185615804565b6159ed6040830184615804565b949350505050565b60006020820190508181036000830152615a0e8161559f565b9050919050565b60006020820190508181036000830152615a2e816155df565b9050919050565b60006020820190508181036000830152615a4f81846156b6565b905092915050565b6000602082019050615a6c60008301846157c9565b92915050565b6000604082019050615a8760008301856157c9565b615a94602083018461536f565b9392505050565b6000608082019050615ab060008301876157c9565b615abd60208301866154c9565b615aca6040830185615813565b615ad76060830184615813565b95945050505050565b6000602082019050615af560008301846157d0565b92915050565b6000604082019050615b1060008301856157d0565b615b1d602083018461548d565b9392505050565b6000608082019050615b3960008301876157d0565b615b4660208301866154c9565b615b536040830185615813565b615b606060830184615813565b95945050505050565b6000602082019050615b7e60008301846157e6565b92915050565b600060a082019050615b9960008301886157e6565b615ba66020830187615360565b615bb360408301866154ba565b615bc06060830185615804565b615bcd6080830184615804565b9695505050505050565b6000604051905081810181811067ffffffffffffffff82111715615bfa57600080fd5b8060405250919050565b600067ffffffffffffffff821115615c1b57600080fd5b602082029050602081019050919050565b600067ffffffffffffffff821115615c4357600080fd5b601f19601f8301169050602081019050919050565b6000819050602082019050919050565b6000819050602082019050919050565b60008190508160005260206000209050919050565b600081519050919050565b600081519050919050565b600081519050919050565b6000602082019050919050565b6000602082019050919050565b600082825260208201905092915050565b600082825260208201905092915050565b600082825260208201905092915050565b600081905092915050565b600082825260208201905092915050565b6000615d2282615da9565b9050919050565b6000615d3482615da9565b9050919050565b60008115159050919050565b60007fffff00000000000000000000000000000000000000000000000000000000000082169050919050565b6000819050919050565b60007fffffffff0000000000000000000000000000000000000000000000000000000082169050919050565b600073ffffffffffffffffffffffffffffffffffffffff82169050919050565b6000819050919050565b600060ff82169050919050565b82818337600083830152505050565b60005b83811015615e0d578082015181840152602081019050615df2565b83811115615e1c576000848401525b50505050565b6000601f19601f8301169050919050565b615e3c81615d17565b8114615e4757600080fd5b50565b615e5381615d29565b8114615e5e57600080fd5b50565b615e6a81615d3b565b8114615e7557600080fd5b50565b615e8181615d47565b8114615e8c57600080fd5b50565b615e9881615d73565b8114615ea357600080fd5b50565b615eaf81615d7d565b8114615eba57600080fd5b50565b615ec681615dc9565b8114615ed157600080fd5b50565b615edd81615dd3565b8114615ee857600080fd5b5056fea2646970667358221220befe6c70a8bde3fcd59fae5c6018bca6b5521e1a95db3388f4e13bf617e05f8164736f6c634300060c0033",
  "immutableReferences": {},
  "source": "// SPDX-License-Identifier: LGPL-3.0-or-later\npragma solidity ^0.6.0;\npragma experimental ABIEncoderV2;\n\nimport \"../Procedure.sol\";\nimport \"../libraries/VotePropositionLibrary.sol\";\n\n/*\n    Vote Procedure.\n    A Vote Procedure will apply an effect based on the decision of a vote.\n    Votes can be vetoed, and enacted.\n\n    @TODO : Add propositions getter.\n*/\n\ncontract VoteProcedure is Procedure {\n    using VotePropositionLibrary for VotePropositionLibrary.Proposition;\n    bytes4 private constant _INTERFACE_VOTE = 0xc9d27afe; // vote().\n    // A Proposition is mapped to a locked moved.\n    mapping (uint256 => VotePropositionLibrary.Proposition) internal propositions;\n    address payable public votersOrgan;\n    address payable public vetoersOrgan;\n    address payable public enactorsOrgan;\n\n    constructor (\n        bytes32 _metadataIpfsHash, uint8 _metadataHashFunction, uint8 _metadataHashSize,\n        address payable _votersOrgan, address payable _vetoersOrgan, address payable _enactorsOrgan\n    ) Procedure (_metadataIpfsHash, _metadataHashFunction, _metadataHashSize)\n        public\n    {\n        // Register EIP165 interface for introspection.\n        _registerInterface(_INTERFACE_VOTE);\n        votersOrgan = _votersOrgan;\n        vetoersOrgan = _vetoersOrgan;\n        enactorsOrgan = _enactorsOrgan;\n    }\n\n    function vote(uint256 moveKey, bool approval)\n        public onlyInOrgan(votersOrgan)\n    {\n        propositions[moveKey].vote(approval);\n    }\n\n    // A veto accepts arguments which defines a motivation as a IPFS multihash.\n    function veto(uint256 moveKey, bytes32 ipfsHash, uint8 hashFunction, uint8 hashSize)\n        public onlyInOrgan(vetoersOrgan)\n    {\n        propositions[moveKey].veto(ipfsHash, hashFunction, hashSize);\n    }\n\n    function count(uint256 moveKey)\n        public view returns (bool)\n    {\n        return propositions[moveKey].count();\n    }\n\n    function enact(uint256 moveKey)\n        public onlyInOrgan(enactorsOrgan)\n    {\n        // proposition.count() returns true if enactment is possible.\n        require (propositions[moveKey].count(), \"Not authorized\");\n        Procedure.applyMove(moveKey);\n        propositions[moveKey].enact();\n    }\n}",
  "sourcePath": "/Users/alex/Code/organigr.am/packages/@organigram/contracts/contracts/procedures/Vote.sol",
  "compiler": {
    "name": "solc",
    "version": "0.6.12+commit.27d51765.Emscripten.clang"
  },
  "schemaVersion": "3.3.2",
  "updatedAt": "2020-12-04T19:39:41.207Z",
  "networkType": "ethereum",
  "devdoc": {
    "kind": "dev",
    "methods": {
      "supportsInterface(bytes4)": {
        "details": "See {IERC165-supportsInterface}. Time complexity O(1), guaranteed to always use less than 30 000 gas."
      }
    },
    "version": 1
  },
  "userdoc": {
    "kind": "user",
    "methods": {
      "createMove(bytes32,uint8,uint8)": {
        "notice": "Public API : Moves creation and update."
      },
      "updateMetadata(bytes32,uint8,uint8)": {
        "notice": "Public API : Procedure Metadata and Admin."
      }
    },
    "version": 1
  }
}