{
  "contractName": "VoteProcedure",
  "abi": [
    {
      "inputs": [],
      "name": "INTERFACE_ID",
      "outputs": [
        {
          "internalType": "bytes4",
          "name": "",
          "type": "bytes4"
        }
      ],
      "stateMutability": "view",
      "type": "function"
    },
    {
      "inputs": [
        {
          "internalType": "uint256",
          "name": "proposalKey",
          "type": "uint256"
        }
      ],
      "name": "applyProposal",
      "outputs": [],
      "stateMutability": "nonpayable",
      "type": "function"
    },
    {
      "inputs": [],
      "name": "getProcedure",
      "outputs": [
        {
          "components": [
            {
              "internalType": "bytes32",
              "name": "ipfsHash",
              "type": "bytes32"
            },
            {
              "internalType": "uint8",
              "name": "hashFunction",
              "type": "uint8"
            },
            {
              "internalType": "uint8",
              "name": "hashSize",
              "type": "uint8"
            }
          ],
          "internalType": "struct CoreLibrary.Metadata",
          "name": "metadata",
          "type": "tuple"
        },
        {
          "internalType": "address payable",
          "name": "proposers",
          "type": "address"
        },
        {
          "internalType": "address payable",
          "name": "moderators",
          "type": "address"
        },
        {
          "internalType": "address payable",
          "name": "deciders",
          "type": "address"
        },
        {
          "internalType": "bool",
          "name": "withModeration",
          "type": "bool"
        },
        {
          "internalType": "uint256",
          "name": "proposalsLength",
          "type": "uint256"
        }
      ],
      "stateMutability": "view",
      "type": "function"
    },
    {
      "inputs": [
        {
          "internalType": "uint256",
          "name": "proposalKey",
          "type": "uint256"
        }
      ],
      "name": "getProposal",
      "outputs": [
        {
          "components": [
            {
              "internalType": "address payable",
              "name": "creator",
              "type": "address"
            },
            {
              "components": [
                {
                  "internalType": "bytes32",
                  "name": "ipfsHash",
                  "type": "bytes32"
                },
                {
                  "internalType": "uint8",
                  "name": "hashFunction",
                  "type": "uint8"
                },
                {
                  "internalType": "uint8",
                  "name": "hashSize",
                  "type": "uint8"
                }
              ],
              "internalType": "struct CoreLibrary.Metadata",
              "name": "metadata",
              "type": "tuple"
            },
            {
              "components": [
                {
                  "internalType": "bytes32",
                  "name": "ipfsHash",
                  "type": "bytes32"
                },
                {
                  "internalType": "uint8",
                  "name": "hashFunction",
                  "type": "uint8"
                },
                {
                  "internalType": "uint8",
                  "name": "hashSize",
                  "type": "uint8"
                }
              ],
              "internalType": "struct CoreLibrary.Metadata",
              "name": "blockReason",
              "type": "tuple"
            },
            {
              "internalType": "bool",
              "name": "presented",
              "type": "bool"
            },
            {
              "internalType": "bool",
              "name": "blocked",
              "type": "bool"
            },
            {
              "internalType": "bool",
              "name": "adopted",
              "type": "bool"
            },
            {
              "internalType": "bool",
              "name": "applied",
              "type": "bool"
            },
            {
              "components": [
                {
                  "internalType": "uint256",
                  "name": "index",
                  "type": "uint256"
                },
                {
                  "internalType": "address payable",
                  "name": "organ",
                  "type": "address"
                },
                {
                  "internalType": "bytes",
                  "name": "data",
                  "type": "bytes"
                },
                {
                  "internalType": "uint256",
                  "name": "value",
                  "type": "uint256"
                },
                {
                  "internalType": "bool",
                  "name": "processed",
                  "type": "bool"
                }
              ],
              "internalType": "struct ProcedureLibrary.Operation[]",
              "name": "operations",
              "type": "tuple[]"
            }
          ],
          "internalType": "struct ProcedureLibrary.Proposal",
          "name": "",
          "type": "tuple"
        }
      ],
      "stateMutability": "view",
      "type": "function"
    },
    {
      "inputs": [],
      "name": "majoritySize",
      "outputs": [
        {
          "internalType": "uint32",
          "name": "",
          "type": "uint32"
        }
      ],
      "stateMutability": "view",
      "type": "function"
    },
    {
      "inputs": [
        {
          "internalType": "uint256",
          "name": "proposalKey",
          "type": "uint256"
        }
      ],
      "name": "presentProposal",
      "outputs": [],
      "stateMutability": "nonpayable",
      "type": "function"
    },
    {
      "inputs": [],
      "name": "quorumSize",
      "outputs": [
        {
          "internalType": "uint32",
          "name": "",
          "type": "uint32"
        }
      ],
      "stateMutability": "view",
      "type": "function"
    },
    {
      "inputs": [
        {
          "internalType": "address payable",
          "name": "admin",
          "type": "address"
        }
      ],
      "name": "updateAdmin",
      "outputs": [],
      "stateMutability": "nonpayable",
      "type": "function"
    },
    {
      "inputs": [
        {
          "components": [
            {
              "internalType": "bytes32",
              "name": "ipfsHash",
              "type": "bytes32"
            },
            {
              "internalType": "uint8",
              "name": "hashFunction",
              "type": "uint8"
            },
            {
              "internalType": "uint8",
              "name": "hashSize",
              "type": "uint8"
            }
          ],
          "internalType": "struct CoreLibrary.Metadata",
          "name": "metadata",
          "type": "tuple"
        }
      ],
      "name": "updateMetadata",
      "outputs": [],
      "stateMutability": "nonpayable",
      "type": "function"
    },
    {
      "inputs": [],
      "name": "voteDuration",
      "outputs": [
        {
          "internalType": "uint32",
          "name": "",
          "type": "uint32"
        }
      ],
      "stateMutability": "view",
      "type": "function"
    },
    {
      "inputs": [
        {
          "internalType": "bytes4",
          "name": "interfaceId",
          "type": "bytes4"
        }
      ],
      "name": "supportsInterface",
      "outputs": [
        {
          "internalType": "bool",
          "name": "",
          "type": "bool"
        }
      ],
      "stateMutability": "view",
      "type": "function"
    },
    {
      "inputs": [
        {
          "components": [
            {
              "internalType": "bytes32",
              "name": "ipfsHash",
              "type": "bytes32"
            },
            {
              "internalType": "uint8",
              "name": "hashFunction",
              "type": "uint8"
            },
            {
              "internalType": "uint8",
              "name": "hashSize",
              "type": "uint8"
            }
          ],
          "internalType": "struct CoreLibrary.Metadata",
          "name": "",
          "type": "tuple"
        },
        {
          "internalType": "address payable",
          "name": "",
          "type": "address"
        },
        {
          "internalType": "address payable",
          "name": "",
          "type": "address"
        },
        {
          "internalType": "address payable",
          "name": "",
          "type": "address"
        },
        {
          "internalType": "bool",
          "name": "",
          "type": "bool"
        }
      ],
      "name": "initialize",
      "outputs": [],
      "stateMutability": "pure",
      "type": "function"
    },
    {
      "inputs": [
        {
          "components": [
            {
              "internalType": "bytes32",
              "name": "ipfsHash",
              "type": "bytes32"
            },
            {
              "internalType": "uint8",
              "name": "hashFunction",
              "type": "uint8"
            },
            {
              "internalType": "uint8",
              "name": "hashSize",
              "type": "uint8"
            }
          ],
          "internalType": "struct CoreLibrary.Metadata",
          "name": "_metadata",
          "type": "tuple"
        },
        {
          "internalType": "address payable",
          "name": "_proposers",
          "type": "address"
        },
        {
          "internalType": "address payable",
          "name": "_moderators",
          "type": "address"
        },
        {
          "internalType": "address payable",
          "name": "_deciders",
          "type": "address"
        },
        {
          "internalType": "bool",
          "name": "_withModeration",
          "type": "bool"
        },
        {
          "internalType": "uint32",
          "name": "_quorumSize",
          "type": "uint32"
        },
        {
          "internalType": "uint32",
          "name": "_voteDuration",
          "type": "uint32"
        },
        {
          "internalType": "uint32",
          "name": "_majoritySize",
          "type": "uint32"
        }
      ],
      "name": "initialize",
      "outputs": [],
      "stateMutability": "nonpayable",
      "type": "function"
    },
    {
      "inputs": [
        {
          "internalType": "uint256",
          "name": "proposalKey",
          "type": "uint256"
        },
        {
          "internalType": "bool",
          "name": "approval",
          "type": "bool"
        }
      ],
      "name": "vote",
      "outputs": [],
      "stateMutability": "nonpayable",
      "type": "function"
    },
    {
      "inputs": [
        {
          "internalType": "uint256",
          "name": "proposalKey",
          "type": "uint256"
        }
      ],
      "name": "count",
      "outputs": [
        {
          "internalType": "bool",
          "name": "approved",
          "type": "bool"
        }
      ],
      "stateMutability": "view",
      "type": "function"
    },
    {
      "inputs": [
        {
          "components": [
            {
              "internalType": "bytes32",
              "name": "ipfsHash",
              "type": "bytes32"
            },
            {
              "internalType": "uint8",
              "name": "hashFunction",
              "type": "uint8"
            },
            {
              "internalType": "uint8",
              "name": "hashSize",
              "type": "uint8"
            }
          ],
          "internalType": "struct CoreLibrary.Metadata",
          "name": "_metadata",
          "type": "tuple"
        },
        {
          "components": [
            {
              "internalType": "uint256",
              "name": "index",
              "type": "uint256"
            },
            {
              "internalType": "address payable",
              "name": "organ",
              "type": "address"
            },
            {
              "internalType": "bytes",
              "name": "data",
              "type": "bytes"
            },
            {
              "internalType": "uint256",
              "name": "value",
              "type": "uint256"
            },
            {
              "internalType": "bool",
              "name": "processed",
              "type": "bool"
            }
          ],
          "internalType": "struct ProcedureLibrary.Operation[]",
          "name": "_operations",
          "type": "tuple[]"
        }
      ],
      "name": "propose",
      "outputs": [
        {
          "internalType": "uint256",
          "name": "proposalKey",
          "type": "uint256"
        }
      ],
      "stateMutability": "nonpayable",
      "type": "function"
    },
    {
      "inputs": [
        {
          "internalType": "uint256",
          "name": "proposalKey",
          "type": "uint256"
        },
        {
          "components": [
            {
              "internalType": "bytes32",
              "name": "ipfsHash",
              "type": "bytes32"
            },
            {
              "internalType": "uint8",
              "name": "hashFunction",
              "type": "uint8"
            },
            {
              "internalType": "uint8",
              "name": "hashSize",
              "type": "uint8"
            }
          ],
          "internalType": "struct CoreLibrary.Metadata",
          "name": "reason",
          "type": "tuple"
        }
      ],
      "name": "blockProposal",
      "outputs": [],
      "stateMutability": "nonpayable",
      "type": "function"
    },
    {
      "inputs": [
        {
          "internalType": "uint256",
          "name": "proposalKey",
          "type": "uint256"
        }
      ],
      "name": "adoptProposal",
      "outputs": [],
      "stateMutability": "nonpayable",
      "type": "function"
    },
    {
      "inputs": [
        {
          "internalType": "uint256",
          "name": "_proposalKey",
          "type": "uint256"
        }
      ],
      "name": "getBallot",
      "outputs": [
        {
          "internalType": "uint256",
          "name": "start",
          "type": "uint256"
        },
        {
          "internalType": "bool",
          "name": "hasVoted",
          "type": "bool"
        },
        {
          "internalType": "uint256",
          "name": "votesCount",
          "type": "uint256"
        }
      ],
      "stateMutability": "view",
      "type": "function"
    }
  ],
  "bytecode": "0x608060405234801561001057600080fd5b5060408051606081018252600080825260208201818152828401828152935163ce5b8b1960e01b815260016004820152925160248401525160ff9081166044840152925190921660648201526084810182905260a4810182905260c4810182905260e481019190915273__ProcedureLibrary______________________9063ce5b8b19906101040160006040518083038186803b1580156100b157600080fd5b505af41580156100c5573d6000803e3d6000fd5b50505050612152806100d86000396000f3fe608060405234801561001057600080fd5b50600436106100f15760003560e01c806301ffc9a7146100f657806309b862b91461011e5780631e390607146101455780633068ef4d1461015a5780633b3546c81461017f5780634bd46ad1146101925780634d3f8407146101a557806356364499146101b85780635d5ee920146101cf5780637823c508146101e25780637983f0c1146101f55780639f32551b14610208578063c7f758a81461021f578063c9d27afe1461023f578063ceb56b7114610252578063e2f273bd14610265578063eb3ebcb214610278578063f22d9c7a14610299578063f9d5ee75146102b3575b600080fd5b6101096101043660046118b1565b610313565b60405190151581526020015b60405180910390f35b61012c63071dbd3360e41b81565b6040516001600160e01b03199091168152602001610115565b610158610153366004611ace565b61033e565b005b600b5461016a9063ffffffff1681565b60405163ffffffff9091168152602001610115565b61010961018d366004611ace565b6103ac565b6101586101a0366004611b2d565b6105ec565b6101586101b33660046118d9565b6106fb565b600b5461016a90600160201b900463ffffffff1681565b6101586101dd3660046118f4565b610735565b6101586101f0366004611ace565b610772565b610158610203366004611ace565b6107b1565b600b5461016a90600160401b900463ffffffff1681565b61023261022d366004611ace565b610896565b6040516101159190611f37565b61015861024d366004611afe565b610a8f565b61015861026036600461195d565b610cfc565b61015861027336600461187b565b610d53565b61028b6102863660046119f8565b610d9a565b604051908152602001610115565b6102a1610e72565b60405161011596959493929190611d9a565b6102f86102c1366004611ace565b6000818152600a6020818152604080842080543386526001820184529185205495909452919052600390910154909260ff90921691565b60408051938452911515602084015290820152606001610115565b60006001600160e01b031982166364e93d7f60e11b1480610338575061033882610ecf565b92915050565b60405163851816a560e01b8152600160048201526024810182905273__ProcedureLibrary______________________9063851816a5906044015b60006040518083038186803b15801561039157600080fd5b505af41580156103a5573d6000803e3d6000fd5b5050505050565b6000818152600a60205260408120546103f95760405162461bcd60e51b815260206004820152600a6024820152692737903130b63637ba1760b11b60448201526064015b60405180910390fd5b600b546000838152600a602052604090205461042291600160201b900463ffffffff1690612027565b4310156104655760405162461bcd60e51b81526020600482015260116024820152702130b63637ba103737ba1032b73232b21760791b60448201526064016103f0565b600b546000838152600a602052604090206003015463ffffffff909116111561049057506000919050565b6000805b6000848152600a60205260409020600201548110156105a2576000848152600a6020526040812060028101805460019092019291849081106104e657634e487b7160e01b600052603260045260246000fd5b60009182526020808320909101546001600160a01b0316835282019290925260400190205460ff16801561057d57506000848152600a60205260408120600281018054600190920192918490811061054e57634e487b7160e01b600052603260045260246000fd5b60009182526020808320909101546001600160a01b0316835282019290925260400190205460ff610100909104165b15610590578161058c816120b1565b9250505b8061059a816120b1565b915050610494565b50600b546105be9063ffffffff90600160401b90048116612053565b6000848152600a602052604090206003015463ffffffff91909116906105e4908361203f565b119392505050565b60048054604051633e1dc37f60e11b81526001600160a01b039091169173__ProcedureLibrary______________________91637c3b86fe91610633918591339101611d02565b60206040518083038186803b15801561064b57600080fd5b505af415801561065f573d6000803e3d6000fd5b505050506040513d601f19601f820116820180604052508101906106839190611895565b61069f5760405162461bcd60e51b81526004016103f090611d72565b6000838152600a60205260409020546106ec5760405162461bcd60e51b815260206004820152600f60248201526e2130b63637ba1039ba30b93a32b21760891b60448201526064016103f0565b6106f68383610f04565b505050565b60405163534f408760e01b815273__ProcedureLibrary______________________9063534f408790610379906001908590600401611ddd565b60405162461bcd60e51b81526020600482015260126024820152714d697373696e6720706172616d657465727360701b60448201526064016103f0565b6040516316a0f1cd60e11b8152600160048201526024810182905273__ProcedureLibrary______________________90632d41e39a90604401610379565b60048054604051633e1dc37f60e11b81526001600160a01b039091169173__ProcedureLibrary______________________91637c3b86fe916107f8918591339101611d02565b60206040518083038186803b15801561081057600080fd5b505af4158015610824573d6000803e3d6000fd5b505050506040513d601f19601f820116820180604052508101906108489190611895565b6108645760405162461bcd60e51b81526004016103f090611d72565b61086d826103ac565b6108895760405162461bcd60e51b81526004016103f090611d72565b61089282610f74565b5050565b61089e61167a565b60008281526007602090815260408083208151610100808201845282546001600160a01b0316825283516060808201865260018501548252600285015460ff808216848a0152908490048116838801528488019290925285518082018752600386015481526004860154808416828a01528490048316818801528487015260058501548083161515918501919091529182048116151560808401526201000082048116151560a0840152630100000090910416151560c08201526006820180548451818702810187019095528085529195929460e0870194939192919084015b82821015610a815760008481526020908190206040805160a081018252600586029092018054835260018101546001600160a01b031693830193909352600283018054929392918401916109d190612076565b80601f01602080910402602001604051908101604052809291908181526020018280546109fd90612076565b8015610a4a5780601f10610a1f57610100808354040283529160200191610a4a565b820191906000526020600020905b815481529060010190602001808311610a2d57829003601f168201915b5050509183525050600382015460208083019190915260049092015460ff161515604090910152908252600192909201910161097e565b505050915250909392505050565b600554604051633e1dc37f60e11b81526001600160a01b039091169073__ProcedureLibrary______________________90637c3b86fe90610ad79084903390600401611d02565b60206040518083038186803b158015610aef57600080fd5b505af4158015610b03573d6000803e3d6000fd5b505050506040513d601f19601f82011682018060405250810190610b279190611895565b610b435760405162461bcd60e51b81526004016103f090611d72565b6000838152600a60205260409020544311610b965760405162461bcd60e51b81526020600482015260136024820152722130b63637ba103737ba1039ba30b93a32b21760691b60448201526064016103f0565b600b546000848152600a6020526040902054610bbf91600160201b900463ffffffff1690612027565b4310610bfd5760405162461bcd60e51b815260206004820152600d60248201526c2130b63637ba1032b73232b21760991b60448201526064016103f0565b6000838152600a6020908152604080832033845260010190915290205460ff1615610c5e5760405162461bcd60e51b8152602060048201526011602482015270223ab83634b1b0ba32903932b1b7b9321760791b60448201526064016103f0565b604080518082018252600180825284151560208084019182526000888152600a80835286822033808452818701855297832096518754955161ffff1990961690151561ff00191617610100951515959095029490941790955593815260028201805493840181558452832090910180546001600160a01b0319169093179092558481526003909101805491610cf2836120b1565b9190505550505050565b610d098888888888610f82565b600b805463ffffffff9485166001600160401b031990911617600160201b938516939093029290921763ffffffff60401b1916600160401b91909316029190911790555050505050565b60405163474ab74960e11b8152600160048201526001600160a01b038216602482015273__ProcedureLibrary______________________90638e956e9290604401610379565b600354604051633e1dc37f60e11b81526000916001600160a01b03169073__ProcedureLibrary______________________90637c3b86fe90610de39084903390600401611d02565b60206040518083038186803b158015610dfb57600080fd5b505af4158015610e0f573d6000803e3d6000fd5b505050506040513d601f19601f82011682018060405250810190610e339190611895565b610e4f5760405162461bcd60e51b81526004016103f090611d72565b610e5984846110ab565b6000818152600a60205260409020439055949350505050565b610e7a6116d6565b5060035460045460055460095460085460408051606081018252600154815260025460ff8181166020840152610100909104811692820192909252956001600160a01b03908116958116941692169192939495565b60006001600160e01b0319821663071dbd3360e41b148061033857506301ffc9a760e01b6001600160e01b0319831614610338565b60405163930f8be960e01b815273__ProcedureLibrary______________________9063930f8be990610f409060019086908690600401611eef565b60006040518083038186803b158015610f5857600080fd5b505af4158015610f6c573d6000803e3d6000fd5b505050505050565b610f7f600182611141565b50565b600054610100900460ff1680610f9b575060005460ff16155b610ffe5760405162461bcd60e51b815260206004820152602e60248201527f496e697469616c697a61626c653a20636f6e747261637420697320616c72656160448201526d191e481a5b9a5d1a585b1a5e995960921b60648201526084016103f0565b600054610100900460ff16158015611020576000805461ffff19166101011790555b60405163ce5b8b1960e01b815273__ProcedureLibrary______________________9063ce5b8b1990611062906001908a908a908a908a908a90600401611df1565b60006040518083038186803b15801561107a57600080fd5b505af415801561108e573d6000803e3d6000fd5b505050508015610f6c576000805461ff0019169055505050505050565b6040516303bd73a560e01b815260009073__ProcedureLibrary______________________906303bd73a5906110ea9060019087908790600401611e39565b60206040518083038186803b15801561110257600080fd5b505af4158015611116573d6000803e3d6000fd5b505050506040513d601f19601f8201168201806040525081019061113a9190611ae6565b9392505050565b60008181526006830160205260409020600501548290829060ff1680156111825750600081815260068301602052604090206005015462010000900460ff16155b80156111a9575060008181526006830160205260409020600501546301000000900460ff16155b80156111ce57506000818152600683016020526040902060050154610100900460ff16155b6111ea5760405162461bcd60e51b81526004016103f090611d72565b60008381526006850160205260409020600501805462ff0000191662010000179055611216848461121c565b50505050565b60008181526006830160205260409020600501548290829062010000900460ff168015611264575060008181526006830160205260409020600501546301000000900460ff16155b801561128957506000818152600683016020526040902060050154610100900460ff16155b6112a55760405162461bcd60e51b81526004016103f090611d72565b60005b600084815260068087016020526040909120015481101561162857600084815260068087016020526040909120018054829081106112f657634e487b7160e01b600052603260045260246000fd5b600091825260209091206004600590920201015460ff166116185760008481526006808701602052604082200180548390811061134357634e487b7160e01b600052603260045260246000fd5b60009182526020909120600160059092020101546001600160a01b0316146114bb5760008481526006808701602052604082200180548390811061139757634e487b7160e01b600052603260045260246000fd5b60009182526020808320600160059093020191909101548783526006808a0190925260409092200180546001600160a01b0390921691849081106113eb57634e487b7160e01b600052603260045260246000fd5b906000526020600020906005020160030154876006016000888152602001908152602001600020600601848154811061143457634e487b7160e01b600052603260045260246000fd5b90600052602060002090600502016002016040516114529190611c67565b60006040518083038185875af1925050503d806000811461148f576040519150601f19603f3d011682016040523d82523d6000602084013e611494565b606091505b50509050806114b55760405162461bcd60e51b81526004016103f090611d1c565b506115bc565b6000848152600680870160205260408220018054339190849081106114f057634e487b7160e01b600052603260045260246000fd5b906000526020600020906005020160030154876006016000888152602001908152602001600020600601848154811061153957634e487b7160e01b600052603260045260246000fd5b90600052602060002090600502016002016040516115579190611c67565b60006040518083038185875af1925050503d8060008114611594576040519150601f19603f3d011682016040523d82523d6000602084013e611599565b606091505b50509050806115ba5760405162461bcd60e51b81526004016103f090611d1c565b505b600185600601600086815260200190815260200160002060060182815481106115f557634e487b7160e01b600052603260045260246000fd5b60009182526020909120600590910201600401805460ff19169115159190911790555b611621816120b1565b90506112a8565b506000838152600685016020526040808220600501805463ff000000191663010000001790555184917f371ea0b2792b493783478379b73e5d65d5f7e3d03fe343fbe6396d87ece6562491a250505050565b60405180610100016040528060006001600160a01b0316815260200161169e6116d6565b81526020016116ab6116d6565b8152600060208201819052604082018190526060808301829052608083019190915260a09091015290565b604080516060810182526000808252602082018190529181019190915290565b80356001600160a01b038116811461170d57600080fd5b919050565b803561170d8161210e565b60006060828403121561172e578081fd5b604051606081016001600160401b0381118282101715611750576117506120f8565b604052823581529050806117666020840161186a565b60208201526117776040840161186a565b60408201525092915050565b600060a08284031215611794578081fd5b61179c611fcf565b90508135815260206117af8184016116f6565b8282015260408301356001600160401b03808211156117cd57600080fd5b818501915085601f8301126117e157600080fd5b8135818111156117f3576117f36120f8565b611805601f8201601f19168501611ff7565b9150808252868482850101111561181b57600080fd5b80848401858401376000848284010152508060408501525050506060820135606082015261184b60808301611712565b608082015292915050565b803563ffffffff8116811461170d57600080fd5b803560ff8116811461170d57600080fd5b60006020828403121561188c578081fd5b61113a826116f6565b6000602082840312156118a6578081fd5b815161113a8161210e565b6000602082840312156118c2578081fd5b81356001600160e01b03198116811461113a578182fd5b6000606082840312156118ea578081fd5b61113a838361171d565b600080600080600060e0868803121561190b578081fd5b611915878761171d565b9450611923606087016116f6565b9350611931608087016116f6565b925061193f60a087016116f6565b915060c086013561194f8161210e565b809150509295509295909350565b600080600080600080600080610140898b031215611979578283fd5b6119838a8a61171d565b975061199160608a016116f6565b965061199f60808a016116f6565b95506119ad60a08a016116f6565b945060c08901356119bd8161210e565b93506119cb60e08a01611856565b92506119da6101008a01611856565b91506119e96101208a01611856565b90509295985092959890939650565b60008060808385031215611a0a578182fd5b611a14848461171d565b915060608301356001600160401b0380821115611a2f578283fd5b818501915085601f830112611a42578283fd5b8135602082821115611a5657611a566120f8565b8160051b611a65828201611ff7565b8381528281019086840183880185018c1015611a7f578889fd5b8893505b85841015611abc57803587811115611a9957898afd5b611aa78d87838c0101611783565b84525060019390930192918401918401611a83565b50809750505050505050509250929050565b600060208284031215611adf578081fd5b5035919050565b600060208284031215611af7578081fd5b5051919050565b60008060408385031215611b10578182fd5b823591506020830135611b228161210e565b809150509250929050565b6000808284036080811215611b40578283fd5b833592506060601f1982011215611b55578182fd5b506020830190509250929050565b600081518084526020808501808196508360051b81019150828601855b85811015611bed578284038952815180518552858101516001600160a01b03168686015260408082015160a08288018190529190611bc083890182611bfa565b606085810151908a0152608094850151151594909801939093525050509784019790840190600101611b80565b5091979650505050505050565b60008151808452815b81811015611c1f57602081850181015186830182015201611c03565b81811115611c305782602083870101525b50601f01601f19169290920160200192915050565b8051825260ff602082015116602083015260ff60408201511660408301525050565b600080835482600182811c915080831680611c8357607f831692505b6020808410821415611ca357634e487b7160e01b87526022600452602487fd5b818015611cb75760018114611cc857611cf4565b60ff19861689528489019650611cf4565b60008a815260209020885b86811015611cec5781548b820152908501908301611cd3565b505084890196505b509498975050505050505050565b6001600160a01b0392831681529116602082015260400190565b60208082526036908201527f50726f706f73616c206e6f74206170706c6965642c20756e6465726c79696e67604082015275103a3930b739b0b1ba34b7b7103932bb32b93a32b21760511b606082015260800190565b6020808252600e908201526d139bdd08185d5d1a1bdc9a5e995960921b604082015260600190565b6101008101611da98289611c45565b6001600160a01b03968716606083015294861660808201529290941660a0830152151560c082015260e00191909152919050565b8281526080810161113a6020830184611c45565b8681526101008101611e066020830188611c45565b6001600160a01b03958616608083015293851660a08201529190931660c082015291151560e09092019190915292915050565b600060a08083018684526020611e5181860188611c45565b6080838187015282875180855260c08801915060c08160051b8901019450838901875b82811015611ede5789870360bf19018452815180518852868101516001600160a01b031687890152604080820151818a018b9052611eb48b8b0182611bfa565b606084810151908c0152928801511515998801999099525096509285019290850190600101611e74565b50949b9a5050505050505050505050565b600060a0820190508482528360208301528235604083015260ff611f156020850161186a565b16606083015260ff611f296040850161186a565b166080830152949350505050565b60208152611f516020820183516001600160a01b03169052565b60006020830151611f656040840182611c45565b506040830151611f7860a0840182611c45565b50606083015115156101008301526080830151151561012083015260a0830151151561014083015260c0830151151561016083015260e083015161018080840152611fc76101a0840182611b63565b949350505050565b60405160a081016001600160401b0381118282101715611ff157611ff16120f8565b60405290565b604051601f8201601f191681016001600160401b038111828210171561201f5761201f6120f8565b604052919050565b6000821982111561203a5761203a6120cc565b500190565b60008261204e5761204e6120e2565b500490565b600063ffffffff8084168061206a5761206a6120e2565b92169190910492915050565b600181811c9082168061208a57607f821691505b602082108114156120ab57634e487b7160e01b600052602260045260246000fd5b50919050565b60006000198214156120c5576120c56120cc565b5060010190565b634e487b7160e01b600052601160045260246000fd5b634e487b7160e01b600052601260045260246000fd5b634e487b7160e01b600052604160045260246000fd5b8015158114610f7f57600080fdfea2646970667358221220b3c3299df25d6a03d54ccc7aa963a1c146c672d8b25e1827f693c02ff798ff4064736f6c63430008040033",
  "immutableReferences": {},
  "source": "// SPDX-License-Identifier: LGPL-3.0-or-later\npragma solidity ^0.8.0;\npragma experimental ABIEncoderV2;\n\nimport \"../libraries/CoreLibrary.sol\";\nimport \"../Procedure.sol\";\n\n/*\n    Vote Procedure.\n    A Vote Procedure will apply an effect based on the decision of a vote.\n    Votes can be vetoed, and enacted.\n\n    @TODO : Add propositions getter.\n*/\n\nstruct Vote {\n    bool voted;\n    bool approved;\n}\n\nstruct Ballot {\n    // Vote.\n    // Map voters' addresses to votes.\n    uint256 start;\n    mapping(address => Vote) votes;\n    address[] voters;\n    uint256 votesCount;\n}\n\ncontract VoteProcedure is Procedure {\n    using CoreLibrary for CoreLibrary.Metadata;\n    using ProcedureLibrary for ProcedureLibrary.Operation;\n    bytes4 private constant _INTERFACE_VOTE = 0xc9d27afe; // vote().\n    mapping (uint256 => Ballot) internal ballots;\n    uint32 public quorumSize;       // Minimum number of votes.\n    uint32 public voteDuration;     // Duration of vote in blocks.\n    uint32 public majoritySize;     // majoritySize.div((2^32)-1) is the minimum ratio for adoption.\n\n    // Register EIP165 interfaces for introspection.\n    function supportsInterface(bytes4 interfaceId) public view virtual override returns (bool) {\n        return interfaceId == _INTERFACE_VOTE || super.supportsInterface(interfaceId);\n    }\n\n    function initialize(\n        CoreLibrary.Metadata memory,\n        address payable,\n        address payable,\n        address payable,\n        bool\n    )\n        public\n        pure\n        override\n    {\n        revert(\"Missing parameters\");\n    }\n\n    function initialize(\n        CoreLibrary.Metadata memory _metadata,\n        address payable _proposers,\n        address payable _moderators,\n        address payable _deciders,\n        bool _withModeration,\n        uint32 _quorumSize,\n        uint32 _voteDuration,\n        uint32 _majoritySize\n    )\n        public\n    {\n        super.initialize(_metadata, _proposers, _moderators, _deciders, _withModeration);\n        // Register EIP165 interface for introspection.\n        quorumSize = _quorumSize;\n        voteDuration = _voteDuration;\n        majoritySize = _majoritySize;\n    }\n\n    function vote(uint256 proposalKey, bool approval)\n        public\n        onlyInOrgan(procedureData.deciders)\n    {\n        require(block.number > ballots[proposalKey].start, \"Ballot not started.\");\n        require(block.number < (ballots[proposalKey].start + voteDuration), \"Ballot ended.\");\n        require(!ballots[proposalKey].votes[msg.sender].voted, \"Duplicate record.\");\n        ballots[proposalKey].votes[msg.sender] = Vote({\n            voted: true,\n            approved: approval\n        });\n        ballots[proposalKey].voters.push(msg.sender);\n        ballots[proposalKey].votesCount++;\n    }\n\n    /// @notice Count votes when ballot is ended.\n    /// @dev @todo Handle delegation of Votes.\n    function count(uint256 proposalKey)\n        public\n        view\n        returns (bool approved)\n    {\n        require(ballots[proposalKey].start > 0, \"No ballot.\");\n        require(block.number >= (ballots[proposalKey].start + voteDuration), \"Ballot not ended.\");\n        if (ballots[proposalKey].votesCount < quorumSize) {\n            return false;\n        }\n        uint256 approvals;\n        for (uint256 i = 0; i < ballots[proposalKey].voters.length; i++) {\n            if (\n                ballots[proposalKey].votes[ballots[proposalKey].voters[i]].voted\n                && ballots[proposalKey].votes[ballots[proposalKey].voters[i]].approved\n            ) {\n                approvals++;\n            }\n        }\n        return (approvals / ballots[proposalKey].votesCount) > (majoritySize / (uint32((2**32)-1)));\n    }\n\n    /**\n        Procedure methods overrides.\n    */\n\n    // @fixme : Start ballot only when presented.\n    function propose(\n        CoreLibrary.Metadata memory _metadata,\n        ProcedureLibrary.Operation[] memory _operations\n    )\n        public\n        override\n        onlyInOrgan(procedureData.proposers)\n        returns (uint256 proposalKey)\n    {\n        proposalKey = super.propose(_metadata, _operations);\n        ballots[proposalKey].start = block.number;\n        return proposalKey;\n    }\n\n    /// @notice A veto accepts arguments which defines a motivation as a IPFS multihash.\n    /// @dev Overrides Procedure.blockProposal.\n    function blockProposal(uint256 proposalKey, CoreLibrary.Metadata calldata reason)\n        public\n        override\n        onlyInOrgan(procedureData.moderators)\n    {\n        require(ballots[proposalKey].start != 0, \"Ballot started.\");\n        super.blockProposal(proposalKey, reason);\n    }\n\n    function adoptProposal(uint256 proposalKey)\n        public\n        override\n        onlyInOrgan(procedureData.moderators)\n    {\n        // count() returns true if enactment is possible.\n        require (count(proposalKey), \"Not authorized\");\n        super.adoptProposal(proposalKey);\n    }\n\n    function getBallot(uint256 _proposalKey)\n        public\n        view\n        returns (\n            uint256 start,\n            bool    hasVoted,\n            uint256 votesCount\n        )\n    {\n        return (\n            ballots[_proposalKey].start,\n            ballots[_proposalKey].votes[msg.sender].voted,\n            ballots[_proposalKey].votesCount\n        );\n    }\n}",
  "sourcePath": "/Users/alex/Code/organigr.am-refactoring/packages/@organigram/contracts/contracts/procedures/Vote.sol",
  "compiler": {
    "name": "solc",
    "version": "0.8.4+commit.c7e474f2.Emscripten.clang"
  },
  "schemaVersion": "3.4.1",
  "updatedAt": "2021-05-26T21:15:05.003Z",
  "devdoc": {
    "kind": "dev",
    "methods": {
      "blockProposal(uint256,(bytes32,uint8,uint8))": {
        "details": "Overrides Procedure.blockProposal."
      },
      "count(uint256)": {
        "details": "@todo Handle delegation of Votes."
      },
      "supportsInterface(bytes4)": {
        "details": "See {IERC165-supportsInterface}."
      }
    },
    "version": 1
  },
  "userdoc": {
    "kind": "user",
    "methods": {
      "adoptProposal(uint256)": {
        "notice": "The procedure calls this method directly to adopt and apply proposal."
      },
      "applyProposal(uint256)": {
        "notice": "Apply proposal."
      },
      "blockProposal(uint256,(bytes32,uint8,uint8))": {
        "notice": "A veto accepts arguments which defines a motivation as a IPFS multihash."
      },
      "count(uint256)": {
        "notice": "Count votes when ballot is ended."
      },
      "presentProposal(uint256)": {
        "notice": "When moderation is enabled, moderators must accept the proposal. "
      },
      "propose((bytes32,uint8,uint8),(uint256,address,bytes,uint256,bool)[])": {
        "notice": "Procedure methods overrides."
      },
      "updateMetadata((bytes32,uint8,uint8))": {
        "notice": "Public API : Procedure Metadata and Admin."
      }
    },
    "version": 1
  }
}