{
  "contractName": "VoteProcedure",
  "abi": [
    {
      "inputs": [
        {
          "internalType": "bytes32",
          "name": "_metadataIpfsHash",
          "type": "bytes32"
        },
        {
          "internalType": "uint8",
          "name": "_metadataHashFunction",
          "type": "uint8"
        },
        {
          "internalType": "uint8",
          "name": "_metadataHashSize",
          "type": "uint8"
        },
        {
          "internalType": "address payable",
          "name": "_votersOrgan",
          "type": "address"
        },
        {
          "internalType": "address payable",
          "name": "_vetoersOrgan",
          "type": "address"
        },
        {
          "internalType": "address payable",
          "name": "_enactorsOrgan",
          "type": "address"
        }
      ],
      "stateMutability": "nonpayable",
      "type": "constructor"
    },
    {
      "inputs": [
        {
          "internalType": "bytes32",
          "name": "ipfsHash",
          "type": "bytes32"
        },
        {
          "internalType": "uint8",
          "name": "hashFunction",
          "type": "uint8"
        },
        {
          "internalType": "uint8",
          "name": "hashSize",
          "type": "uint8"
        }
      ],
      "name": "createMove",
      "outputs": [
        {
          "internalType": "uint256",
          "name": "",
          "type": "uint256"
        }
      ],
      "stateMutability": "nonpayable",
      "type": "function"
    },
    {
      "inputs": [],
      "name": "enactorsOrgan",
      "outputs": [
        {
          "internalType": "address payable",
          "name": "",
          "type": "address"
        }
      ],
      "stateMutability": "view",
      "type": "function",
      "constant": true
    },
    {
      "inputs": [],
      "name": "getMetadata",
      "outputs": [
        {
          "internalType": "bytes32",
          "name": "ipfsHash",
          "type": "bytes32"
        },
        {
          "internalType": "uint8",
          "name": "hashFunction",
          "type": "uint8"
        },
        {
          "internalType": "uint8",
          "name": "hashSize",
          "type": "uint8"
        }
      ],
      "stateMutability": "view",
      "type": "function",
      "constant": true
    },
    {
      "inputs": [
        {
          "internalType": "uint256",
          "name": "moveKey",
          "type": "uint256"
        }
      ],
      "name": "getMove",
      "outputs": [
        {
          "components": [
            {
              "internalType": "address payable",
              "name": "creator",
              "type": "address"
            },
            {
              "components": [
                {
                  "internalType": "bytes32",
                  "name": "ipfsHash",
                  "type": "bytes32"
                },
                {
                  "internalType": "uint8",
                  "name": "hashFunction",
                  "type": "uint8"
                },
                {
                  "internalType": "uint8",
                  "name": "hashSize",
                  "type": "uint8"
                }
              ],
              "internalType": "struct ProcedureLibrary.Metadata",
              "name": "metadata",
              "type": "tuple"
            },
            {
              "internalType": "bool",
              "name": "locked",
              "type": "bool"
            },
            {
              "internalType": "bool",
              "name": "applied",
              "type": "bool"
            },
            {
              "internalType": "bool",
              "name": "processing",
              "type": "bool"
            },
            {
              "components": [
                {
                  "internalType": "uint256",
                  "name": "index",
                  "type": "uint256"
                },
                {
                  "internalType": "address payable",
                  "name": "organ",
                  "type": "address"
                },
                {
                  "internalType": "uint256",
                  "name": "value",
                  "type": "uint256"
                },
                {
                  "internalType": "uint8",
                  "name": "operationType",
                  "type": "uint8"
                },
                {
                  "internalType": "bytes",
                  "name": "callData",
                  "type": "bytes"
                },
                {
                  "internalType": "bool",
                  "name": "processed",
                  "type": "bool"
                }
              ],
              "internalType": "struct ProcedureLibrary.Operation[]",
              "name": "operations",
              "type": "tuple[]"
            }
          ],
          "internalType": "struct ProcedureLibrary.Move",
          "name": "move",
          "type": "tuple"
        }
      ],
      "stateMutability": "view",
      "type": "function",
      "constant": true
    },
    {
      "inputs": [],
      "name": "getMovesLength",
      "outputs": [
        {
          "internalType": "uint256",
          "name": "length",
          "type": "uint256"
        }
      ],
      "stateMutability": "view",
      "type": "function",
      "constant": true
    },
    {
      "inputs": [
        {
          "internalType": "uint256",
          "name": "moveKey",
          "type": "uint256"
        }
      ],
      "name": "lockMove",
      "outputs": [],
      "stateMutability": "nonpayable",
      "type": "function"
    },
    {
      "inputs": [
        {
          "internalType": "uint256",
          "name": "moveKey",
          "type": "uint256"
        },
        {
          "internalType": "address payable",
          "name": "organ",
          "type": "address"
        },
        {
          "components": [
            {
              "internalType": "address",
              "name": "addr",
              "type": "address"
            },
            {
              "internalType": "bytes32",
              "name": "ipfsHash",
              "type": "bytes32"
            },
            {
              "internalType": "uint8",
              "name": "hashFunction",
              "type": "uint8"
            },
            {
              "internalType": "uint8",
              "name": "hashSize",
              "type": "uint8"
            }
          ],
          "internalType": "struct OrganLibrary.Entry[]",
          "name": "entries",
          "type": "tuple[]"
        },
        {
          "internalType": "bool",
          "name": "lock",
          "type": "bool"
        }
      ],
      "name": "moveAddEntries",
      "outputs": [],
      "stateMutability": "nonpayable",
      "type": "function"
    },
    {
      "inputs": [
        {
          "internalType": "uint256",
          "name": "moveKey",
          "type": "uint256"
        },
        {
          "internalType": "address payable",
          "name": "organ",
          "type": "address"
        },
        {
          "internalType": "address",
          "name": "procedure",
          "type": "address"
        },
        {
          "internalType": "bytes2",
          "name": "permissions",
          "type": "bytes2"
        },
        {
          "internalType": "bool",
          "name": "lock",
          "type": "bool"
        }
      ],
      "name": "moveAddProcedure",
      "outputs": [],
      "stateMutability": "nonpayable",
      "type": "function"
    },
    {
      "inputs": [
        {
          "internalType": "uint256",
          "name": "moveKey",
          "type": "uint256"
        },
        {
          "internalType": "bytes",
          "name": "call",
          "type": "bytes"
        },
        {
          "internalType": "bool",
          "name": "lock",
          "type": "bool"
        }
      ],
      "name": "moveCall",
      "outputs": [],
      "stateMutability": "nonpayable",
      "type": "function"
    },
    {
      "inputs": [
        {
          "internalType": "uint256",
          "name": "moveKey",
          "type": "uint256"
        },
        {
          "internalType": "address payable",
          "name": "organ",
          "type": "address"
        },
        {
          "internalType": "address",
          "name": "operator",
          "type": "address"
        },
        {
          "internalType": "address",
          "name": "target",
          "type": "address"
        },
        {
          "internalType": "uint256",
          "name": "value",
          "type": "uint256"
        },
        {
          "internalType": "bool",
          "name": "lock",
          "type": "bool"
        }
      ],
      "name": "moveReceiveCoins",
      "outputs": [],
      "stateMutability": "nonpayable",
      "type": "function"
    },
    {
      "inputs": [
        {
          "internalType": "uint256",
          "name": "moveKey",
          "type": "uint256"
        },
        {
          "internalType": "address payable",
          "name": "organ",
          "type": "address"
        },
        {
          "internalType": "address",
          "name": "operator",
          "type": "address"
        },
        {
          "internalType": "address",
          "name": "target",
          "type": "address"
        },
        {
          "internalType": "uint256",
          "name": "token_id",
          "type": "uint256"
        },
        {
          "internalType": "bool",
          "name": "lock",
          "type": "bool"
        }
      ],
      "name": "moveReceiveCollectible",
      "outputs": [],
      "stateMutability": "nonpayable",
      "type": "function"
    },
    {
      "inputs": [
        {
          "internalType": "uint256",
          "name": "moveKey",
          "type": "uint256"
        },
        {
          "internalType": "address payable",
          "name": "organ",
          "type": "address"
        },
        {
          "internalType": "address",
          "name": "target",
          "type": "address"
        },
        {
          "internalType": "uint256",
          "name": "value",
          "type": "uint256"
        },
        {
          "internalType": "bool",
          "name": "lock",
          "type": "bool"
        }
      ],
      "name": "moveReceiveEther",
      "outputs": [],
      "stateMutability": "nonpayable",
      "type": "function"
    },
    {
      "inputs": [
        {
          "internalType": "uint256",
          "name": "moveKey",
          "type": "uint256"
        },
        {
          "internalType": "address payable",
          "name": "organ",
          "type": "address"
        },
        {
          "internalType": "uint256[]",
          "name": "indexes",
          "type": "uint256[]"
        },
        {
          "internalType": "bool",
          "name": "lock",
          "type": "bool"
        }
      ],
      "name": "moveRemoveEntries",
      "outputs": [],
      "stateMutability": "nonpayable",
      "type": "function"
    },
    {
      "inputs": [
        {
          "internalType": "uint256",
          "name": "moveKey",
          "type": "uint256"
        },
        {
          "internalType": "address payable",
          "name": "organ",
          "type": "address"
        },
        {
          "internalType": "address",
          "name": "procedure",
          "type": "address"
        },
        {
          "internalType": "bool",
          "name": "lock",
          "type": "bool"
        }
      ],
      "name": "moveRemoveProcedure",
      "outputs": [],
      "stateMutability": "nonpayable",
      "type": "function"
    },
    {
      "inputs": [
        {
          "internalType": "uint256",
          "name": "moveKey",
          "type": "uint256"
        },
        {
          "internalType": "address payable",
          "name": "organ",
          "type": "address"
        },
        {
          "internalType": "uint256",
          "name": "index",
          "type": "uint256"
        },
        {
          "internalType": "address payable",
          "name": "addr",
          "type": "address"
        },
        {
          "internalType": "bytes32",
          "name": "ipfsHash",
          "type": "bytes32"
        },
        {
          "internalType": "uint8",
          "name": "hashFunction",
          "type": "uint8"
        },
        {
          "internalType": "uint8",
          "name": "hashSize",
          "type": "uint8"
        },
        {
          "internalType": "bool",
          "name": "lock",
          "type": "bool"
        }
      ],
      "name": "moveReplaceEntry",
      "outputs": [],
      "stateMutability": "nonpayable",
      "type": "function"
    },
    {
      "inputs": [
        {
          "internalType": "uint256",
          "name": "moveKey",
          "type": "uint256"
        },
        {
          "internalType": "address payable",
          "name": "organ",
          "type": "address"
        },
        {
          "internalType": "address",
          "name": "oldProcedure",
          "type": "address"
        },
        {
          "internalType": "address",
          "name": "newProcedure",
          "type": "address"
        },
        {
          "internalType": "bytes2",
          "name": "permissions",
          "type": "bytes2"
        },
        {
          "internalType": "bool",
          "name": "lock",
          "type": "bool"
        }
      ],
      "name": "moveReplaceProcedure",
      "outputs": [],
      "stateMutability": "nonpayable",
      "type": "function"
    },
    {
      "inputs": [
        {
          "internalType": "uint256",
          "name": "moveKey",
          "type": "uint256"
        },
        {
          "internalType": "address payable",
          "name": "organ",
          "type": "address"
        },
        {
          "internalType": "address",
          "name": "operator",
          "type": "address"
        },
        {
          "internalType": "address",
          "name": "target",
          "type": "address"
        },
        {
          "internalType": "uint256",
          "name": "value",
          "type": "uint256"
        },
        {
          "internalType": "bool",
          "name": "lock",
          "type": "bool"
        }
      ],
      "name": "moveTransferCoins",
      "outputs": [],
      "stateMutability": "nonpayable",
      "type": "function"
    },
    {
      "inputs": [
        {
          "internalType": "uint256",
          "name": "moveKey",
          "type": "uint256"
        },
        {
          "internalType": "address payable",
          "name": "organ",
          "type": "address"
        },
        {
          "internalType": "address",
          "name": "operator",
          "type": "address"
        },
        {
          "internalType": "address",
          "name": "target",
          "type": "address"
        },
        {
          "internalType": "uint256",
          "name": "token_id",
          "type": "uint256"
        },
        {
          "internalType": "bool",
          "name": "lock",
          "type": "bool"
        }
      ],
      "name": "moveTransferCollectible",
      "outputs": [],
      "stateMutability": "nonpayable",
      "type": "function"
    },
    {
      "inputs": [
        {
          "internalType": "uint256",
          "name": "moveKey",
          "type": "uint256"
        },
        {
          "internalType": "address payable",
          "name": "organ",
          "type": "address"
        },
        {
          "internalType": "address",
          "name": "target",
          "type": "address"
        },
        {
          "internalType": "uint256",
          "name": "value",
          "type": "uint256"
        },
        {
          "internalType": "bool",
          "name": "lock",
          "type": "bool"
        }
      ],
      "name": "moveTransferEther",
      "outputs": [],
      "stateMutability": "nonpayable",
      "type": "function"
    },
    {
      "inputs": [
        {
          "internalType": "bytes4",
          "name": "interfaceId",
          "type": "bytes4"
        }
      ],
      "name": "supportsInterface",
      "outputs": [
        {
          "internalType": "bool",
          "name": "",
          "type": "bool"
        }
      ],
      "stateMutability": "view",
      "type": "function",
      "constant": true
    },
    {
      "inputs": [
        {
          "internalType": "address payable",
          "name": "admin",
          "type": "address"
        }
      ],
      "name": "updateAdmin",
      "outputs": [],
      "stateMutability": "nonpayable",
      "type": "function"
    },
    {
      "inputs": [
        {
          "internalType": "bytes32",
          "name": "ipfsHash",
          "type": "bytes32"
        },
        {
          "internalType": "uint8",
          "name": "hashFunction",
          "type": "uint8"
        },
        {
          "internalType": "uint8",
          "name": "hashSize",
          "type": "uint8"
        }
      ],
      "name": "updateMetadata",
      "outputs": [],
      "stateMutability": "nonpayable",
      "type": "function"
    },
    {
      "inputs": [],
      "name": "vetoersOrgan",
      "outputs": [
        {
          "internalType": "address payable",
          "name": "",
          "type": "address"
        }
      ],
      "stateMutability": "view",
      "type": "function",
      "constant": true
    },
    {
      "inputs": [],
      "name": "votersOrgan",
      "outputs": [
        {
          "internalType": "address payable",
          "name": "",
          "type": "address"
        }
      ],
      "stateMutability": "view",
      "type": "function",
      "constant": true
    },
    {
      "inputs": [
        {
          "internalType": "uint256",
          "name": "moveKey",
          "type": "uint256"
        },
        {
          "internalType": "bytes32",
          "name": "ipfsHash",
          "type": "bytes32"
        },
        {
          "internalType": "uint8",
          "name": "hashFunction",
          "type": "uint8"
        },
        {
          "internalType": "uint8",
          "name": "hashSize",
          "type": "uint8"
        },
        {
          "internalType": "uint256",
          "name": "quorumSize",
          "type": "uint256"
        },
        {
          "internalType": "uint256",
          "name": "voteDuration",
          "type": "uint256"
        },
        {
          "internalType": "uint256",
          "name": "enactmentDuration",
          "type": "uint256"
        },
        {
          "internalType": "uint256",
          "name": "majoritySize",
          "type": "uint256"
        }
      ],
      "name": "propose",
      "outputs": [],
      "stateMutability": "nonpayable",
      "type": "function"
    },
    {
      "inputs": [
        {
          "internalType": "uint256",
          "name": "moveKey",
          "type": "uint256"
        },
        {
          "internalType": "bool",
          "name": "approval",
          "type": "bool"
        }
      ],
      "name": "vote",
      "outputs": [],
      "stateMutability": "nonpayable",
      "type": "function"
    },
    {
      "inputs": [
        {
          "internalType": "uint256",
          "name": "moveKey",
          "type": "uint256"
        },
        {
          "internalType": "bytes32",
          "name": "ipfsHash",
          "type": "bytes32"
        },
        {
          "internalType": "uint8",
          "name": "hashFunction",
          "type": "uint8"
        },
        {
          "internalType": "uint8",
          "name": "hashSize",
          "type": "uint8"
        }
      ],
      "name": "veto",
      "outputs": [],
      "stateMutability": "nonpayable",
      "type": "function"
    },
    {
      "inputs": [
        {
          "internalType": "uint256",
          "name": "moveKey",
          "type": "uint256"
        }
      ],
      "name": "count",
      "outputs": [
        {
          "internalType": "bool",
          "name": "",
          "type": "bool"
        }
      ],
      "stateMutability": "view",
      "type": "function",
      "constant": true
    },
    {
      "inputs": [
        {
          "internalType": "uint256",
          "name": "moveKey",
          "type": "uint256"
        }
      ],
      "name": "enact",
      "outputs": [],
      "stateMutability": "nonpayable",
      "type": "function"
    },
    {
      "inputs": [
        {
          "internalType": "uint256",
          "name": "moveKey",
          "type": "uint256"
        }
      ],
      "name": "getProposition",
      "outputs": [
        {
          "internalType": "address payable",
          "name": "",
          "type": "address"
        },
        {
          "internalType": "uint256",
          "name": "",
          "type": "uint256"
        },
        {
          "internalType": "uint256",
          "name": "",
          "type": "uint256"
        },
        {
          "internalType": "uint256",
          "name": "",
          "type": "uint256"
        },
        {
          "internalType": "uint256",
          "name": "",
          "type": "uint256"
        },
        {
          "internalType": "address payable",
          "name": "",
          "type": "address"
        },
        {
          "internalType": "address payable",
          "name": "",
          "type": "address"
        }
      ],
      "stateMutability": "view",
      "type": "function",
      "constant": true
    },
    {
      "inputs": [
        {
          "internalType": "uint256",
          "name": "moveKey",
          "type": "uint256"
        }
      ],
      "name": "getPropositionMetadata",
      "outputs": [
        {
          "components": [
            {
              "internalType": "bytes32",
              "name": "ipfsHash",
              "type": "bytes32"
            },
            {
              "internalType": "uint8",
              "name": "hashFunction",
              "type": "uint8"
            },
            {
              "internalType": "uint8",
              "name": "hashSize",
              "type": "uint8"
            }
          ],
          "internalType": "struct VotePropositionLibrary.Metadata",
          "name": "",
          "type": "tuple"
        }
      ],
      "stateMutability": "view",
      "type": "function",
      "constant": true
    },
    {
      "inputs": [
        {
          "internalType": "uint256",
          "name": "moveKey",
          "type": "uint256"
        }
      ],
      "name": "getPropositionVetoMetadata",
      "outputs": [
        {
          "components": [
            {
              "internalType": "bytes32",
              "name": "ipfsHash",
              "type": "bytes32"
            },
            {
              "internalType": "uint8",
              "name": "hashFunction",
              "type": "uint8"
            },
            {
              "internalType": "uint8",
              "name": "hashSize",
              "type": "uint8"
            }
          ],
          "internalType": "struct VotePropositionLibrary.Metadata",
          "name": "",
          "type": "tuple"
        }
      ],
      "stateMutability": "view",
      "type": "function",
      "constant": true
    }
  ],
  "bytecode": "0x60806040523480156200001157600080fd5b50604051620037c8380380620037c88339810160408190526200003491620001b7565b858585620000496301ffc9a760e01b6200012c565b6200005b63071dbd3360e41b6200012c565b60405163359a395d60e01b815273__ProcedureLibrary______________________9063359a395d906200009b906001908790879087906004016200026a565b60006040518083038186803b158015620000b457600080fd5b505af4158015620000c9573d6000803e3d6000fd5b50620000e595506364e93d7f60e11b9450506200012c92505050565b600780546001600160a01b039485166001600160a01b031991821617909155600880549385169382169390931790925560098054919093169116179055506200028b915050565b6001600160e01b03198082161415620001625760405162461bcd60e51b8152600401620001599062000233565b60405180910390fd5b6001600160e01b0319166000908152602081905260409020805460ff19166001179055565b80516001600160a01b03811681146200019f57600080fd5b92915050565b805160ff811681146200019f57600080fd5b60008060008060008060c08789031215620001d0578182fd5b86519550620001e38860208901620001a5565b9450620001f48860408901620001a5565b935062000205886060890162000187565b925062000216886080890162000187565b9150620002278860a0890162000187565b90509295509295509295565b6020808252601c908201527f4552433136353a20696e76616c696420696e7465726661636520696400000000604082015260600190565b938452602084019290925260ff908116604084015216606082015260800190565b61352d806200029b6000396000f3fe608060405234801561001057600080fd5b50600436106101805760003560e01c806301ffc9a7146101855780630b5522a9146101ae578063148a2005146101c35780632c1d5337146101d657806339c2ae70146101e95780633b3546c8146101fc5780633e9a9bd81461020f57806352c041b2146102245780635a31b560146102375780635ba357dc1461024a5780635e9cc2a91461025d57806362721a4c1461027057806367c322d0146102855780637105247f1461029857806371dbd330146102b85780637a5b4f59146102d85780637c3a5fcc146102ef5780637edaea56146103025780637ee7fa40146103285780639ad5c7921461033b578063a27aebc61461034e578063a2b58cda14610361578063c23c6d4614610374578063c492f4631461037c578063c9d27afe1461038f578063cb6bc9ff14610237578063cc125031146103a2578063d47fc87e146103b5578063db07e337146103c8578063e2f273bd146103db578063ebb8c344146103ee578063fa160aa2146103f6575b600080fd5b61019861019336600461293b565b610409565b6040516101a5919061317a565b60405180910390f35b6101c16101bc366004612aa6565b610428565b005b6101c16101d13660046129f3565b61043e565b6101c16101e436600461297b565b610456565b6101c16101f73660046128c3565b610466565b61019861020a366004612963565b6104d9565b610217610573565b6040516101a5919061335f565b6101c1610232366004612d27565b610579565b6101c16102453660046129f3565b610595565b6101c1610258366004612963565b6105a5565b6101c161026b366004612963565b6105b3565b61027861079b565b6040516101a59190612fc9565b6101c1610293366004612a54565b6107aa565b6102ab6102a6366004612963565b6107be565b6040516101a59190613238565b6102cb6102c6366004612963565b61080c565b6040516101a59190613246565b6102e06109d2565b6040516101a593929190613185565b6101c16102fd3660046129f3565b610a6c565b610315610310366004612963565b610a7c565b6040516101a59796959493929190613010565b6101c1610336366004612b0d565b610aca565b6101c1610349366004612c73565b610ad9565b6102ab61035c366004612963565b610ae7565b61021761036f3660046128c3565b610b35565b610278610b4c565b6101c161038a366004612b5d565b610b5b565b6101c161039d366004612db4565b610b69565b6101c16103b0366004612b0d565b610c64565b6101c16103c3366004612de3565b610c73565b6101c16103d6366004612e21565b610da9565b6101c16103e9366004612884565b610f20565b610278610f86565b6101c1610404366004612e8e565b610f95565b6001600160e01b03191660009081526020819052604090205460ff1690565b61043760018686868686610fa7565b5050505050565b61044e6001878787878787611200565b505050505050565b61044e600187878787878761145e565b604051635c664d0160e11b815273__ProcedureLibrary______________________9063b8cc9a02906104a49060019087908790879060040161337f565b60006040518083038186803b1580156104bc57600080fd5b505af41580156104d0573d6000803e3d6000fd5b50505050505050565b600081815260066020526040808220905163218c036960e21b815273__VotePropositionLibrary________________916386300da49161051d919060040161335f565b60206040518083038186803b15801561053557600080fd5b505af4158015610549573d6000803e3d6000fd5b505050506040513d601f19601f8201168201806040525081019061056d91906128a7565b92915050565b60055490565b61058b60018989898989898989611581565b5050505050505050565b61044e60018787878787876117f9565b6105b060018261191c565b50565b600954604051633e1dc37f60e11b81526001600160a01b039091169073__ProcedureLibrary______________________90637c3b86fe906105fb9084903390600401612fdd565b60206040518083038186803b15801561061357600080fd5b505af4158015610627573d6000803e3d6000fd5b505050506040513d601f19601f8201168201806040525081019061064b91906128a7565b6106705760405162461bcd60e51b815260040161066790613210565b60405180910390fd5b60008281526006602052604090819020905163218c036960e21b815273__VotePropositionLibrary________________916386300da4916106b5919060040161335f565b60206040518083038186803b1580156106cd57600080fd5b505af41580156106e1573d6000803e3d6000fd5b505050506040513d601f19601f8201168201806040525081019061070591906128a7565b6107215760405162461bcd60e51b815260040161066790613210565b61072a82611a28565b600082815260066020526040908190209051639acab60360e01b815273__VotePropositionLibrary________________91639acab6039161076f919060040161335f565b60006040518083038186803b15801561078757600080fd5b505af415801561044e573d6000803e3d6000fd5b6008546001600160a01b031681565b6107b8600185858585611a33565b50505050565b6107c661277f565b5060009081526006602090815260409182902082516060810184526001820154815260029091015460ff8082169383019390935261010090049091169181019190915290565b61081461279f565b6000828152600460208181526040808420815160c08101835281546001600160a01b0316815282516060808201855260018401548252600284015460ff80821684890152610100918290048116848801528488019390935260038501548084161515858801529081048316151591840191909152620100009004161515608082015293810180548351818602810186019094528084529495919460a08701949192909184015b828210156109c45760008481526020908190206040805160c08101825260068602909201805483526001808201546001600160a01b03168486015260028083015485850152600383015460ff16606086015260048301805485516101009482161594909402600019011691909104601f8101879004870283018701909452838252939491936080860193919290919083018282801561099a5780601f1061096f5761010080835404028352916020019161099a565b820191906000526020600020905b81548152906001019060200180831161097d57829003601f168201915b50505091835250506005919091015460ff16151560209182015290825260019290920191016108ba565b505050915250909392505050565b6040516341ff658d60e11b81526000908190819073__ProcedureLibrary______________________906383fecb1a90610a119060019060040161335f565b60606040518083038186803b158015610a2957600080fd5b505af4158015610a3d573d6000803e3d6000fd5b505050506040513d601f19601f82011682018060405250810190610a619190612904565b925092509250909192565b61044e6001878787878787611c8a565b6000908152600660208190526040909120805460038201546004830154600584015494840154600a850154600d909501546001600160a01b0394851697939692959294919392821692911690565b61043760018686868686611dab565b6107b8600185858585611ecc565b610aef61277f565b506000908152600660209081526040918290208251606081018452600b8201548152600c9091015460ff8082169383019390935261010090049091169181019190915290565b6000610b446001858585611feb565b949350505050565b6007546001600160a01b031681565b6107b8600185858585612079565b600754604051633e1dc37f60e11b81526001600160a01b039091169073__ProcedureLibrary______________________90637c3b86fe90610bb19084903390600401612fdd565b60206040518083038186803b158015610bc957600080fd5b505af4158015610bdd573d6000803e3d6000fd5b505050506040513d601f19601f82011682018060405250810190610c0191906128a7565b610c1d5760405162461bcd60e51b815260040161066790613210565b60008381526006602052604090819020905163d7a389fb60e01b815273__VotePropositionLibrary________________9163d7a389fb916104a4919086906004016133a0565b61043760018686868686612198565b600854604051633e1dc37f60e11b81526001600160a01b039091169073__ProcedureLibrary______________________90637c3b86fe90610cbb9084903390600401612fdd565b60206040518083038186803b158015610cd357600080fd5b505af4158015610ce7573d6000803e3d6000fd5b505050506040513d601f19601f82011682018060405250810190610d0b91906128a7565b610d275760405162461bcd60e51b815260040161066790613210565b6000858152600660205260409081902090516394974cc760e01b815273__VotePropositionLibrary________________916394974cc791610d72919088908890889060040161337f565b60006040518083038186803b158015610d8a57600080fd5b505af4158015610d9e573d6000803e3d6000fd5b505050505050505050565b600754604051633e1dc37f60e11b81526001600160a01b039091169073__ProcedureLibrary______________________90637c3b86fe90610df19084903390600401612fdd565b60206040518083038186803b158015610e0957600080fd5b505af4158015610e1d573d6000803e3d6000fd5b505050506040513d601f19601f82011682018060405250810190610e4191906128a7565b610e5d5760405162461bcd60e51b815260040161066790613210565b6000898152600660205260409020546001600160a01b031615610e925760405162461bcd60e51b8152600401610667906131c7565b60008981526006602052604090819020905163063ca61360e41b815273__VotePropositionLibrary________________916363ca613091610ee591908c908c908c908c908c908c908c906004016133b0565b60006040518083038186803b158015610efd57600080fd5b505af4158015610f11573d6000803e3d6000fd5b50505050505050505050505050565b60405163474ab74960e11b815273__ProcedureLibrary______________________90638e956e9290610f5a906001908590600401613368565b60006040518083038186803b158015610f7257600080fd5b505af4158015610437573d6000803e3d6000fd5b6009546001600160a01b031681565b610fa260018484846122b9565b505050565b6000858152600387016020526040902054869086906001600160a01b03163314610fe35760405162461bcd60e51b81526004016106679061319e565b60008781526003808a01602052604090912001548890889060ff1615801561102457506000818152600383810160205260409091200154610100900460ff16155b801561104a5750600081815260038381016020526040909120015462010000900460ff16155b6110665760405162461bcd60e51b81526004016106679061319e565b600089815260038b0160209081526040808320815160c0810183526004918201805482526001600160a01b038e1694820194909452808301949094526060840152519091906080820190637f0a4e27906110c6908c908c906024016130a0565b60408051808303601f190181529181526020808301805160e09590951b6001600160e01b039095169490941790935290835260009282018390528454600180820187559584529282902084516006909402019283558382015194830180546001600160a01b0319166001600160a01b0390961695909517909455928201516002820155606082015160038201805460ff191660ff909216919091179055608082015180519293919261117e92600485019201906127e6565b5060a091909101516005909101805460ff191691151591909117905584156111f45760008981526003808c01602052604091829020908101805460ff191660011790555490516000805160206134d8833981519152916111eb916001600160a01b03909116908c90612ff7565b60405180910390a15b50505050505050505050565b6000868152600388016020526040902054879087906001600160a01b0316331461123c5760405162461bcd60e51b81526004016106679061319e565b60008881526003808b01602052604090912001548990899060ff1615801561127d57506000818152600383810160205260409091200154610100900460ff16155b80156112a35750600081815260038381016020526040909120015462010000900460ff16155b6112bf5760405162461bcd60e51b81526004016106679061319e565b60008a815260038c0160209081526040808320815160c0810183526004909101805482526001600160a01b038e1693820193909352808201939093526007606084015251909190608082019063c107532990611323908d908d908d9060240161307c565b60408051808303601f190181529181526020808301805160e09590951b6001600160e01b039095169490941790935290835260009282018390528454600180820187559584529282902084516006909402019283558382015194830180546001600160a01b0319166001600160a01b0390961695909517909455928201516002820155606082015160038201805460ff191660ff90921691909117905560808201518051929391926113db92600485019201906127e6565b5060a091909101516005909101805460ff191691151591909117905584156114515760008a81526003808d01602052604091829020908101805460ff191660011790555490516000805160206134d883398151915291611448916001600160a01b03909116908d90612ff7565b60405180910390a15b5050505050505050505050565b6000868152600388016020526040902054879087906001600160a01b0316331461149a5760405162461bcd60e51b81526004016106679061319e565b60008881526003808b01602052604090912001548990899060ff161580156114db57506000818152600383810160205260409091200154610100900460ff16155b80156115015750600081815260038381016020526040909120015462010000900460ff16155b61151d5760405162461bcd60e51b81526004016106679061319e565b60008a815260038c0160209081526040808320815160c0810183526004909101805482526001600160a01b038e1693820193909352808201939093526006606084015251909190608082019063d0922d4a90611323908d908d908d9060240161304f565b600088815260038a016020526040902054899089906001600160a01b031633146115bd5760405162461bcd60e51b81526004016106679061319e565b60008a81526003808d01602052604090912001548b908b9060ff161580156115fe57506000818152600383810160205260409091200154610100900460ff16155b80156116245750600081815260038381016020526040909120015462010000900460ff16155b6116405760405162461bcd60e51b81526004016106679061319e565b60008d60030160008e81526020019081526020016000209050806004016040518060c00160405280836004018054905081526020018e6001600160a01b0316815260200160008152602001600360ff1681526020016391bdfe638e8e8e8e8e6040516024016116b39594939291906133ec565b60408051808303601f190181529181526020808301805160e09590951b6001600160e01b039095169490941790935290835260009282018390528454600180820187559584529282902084516006909402019283558382015194830180546001600160a01b0319166001600160a01b0390961695909517909455928201516002820155606082015160038201805460ff191660ff909216919091179055608082015180519293919261176b92600485019201906127e6565b5060a091909101516005909101805460ff191691151591909117905585156117e95760018160030160006101000a81548160ff0219169083151502179055506000805160206134d88339815191528160000160009054906101000a90046001600160a01b03168e6040516117e0929190612ff7565b60405180910390a15b5050505050505050505050505050565b6000868152600388016020526040902054879087906001600160a01b031633146118355760405162461bcd60e51b81526004016106679061319e565b60008881526003808b01602052604090912001548990899060ff1615801561187657506000818152600383810160205260409091200154610100900460ff16155b801561189c5750600081815260038381016020526040909120015462010000900460ff16155b6118b85760405162461bcd60e51b81526004016106679061319e565b60008a815260038c0160209081526040808320815160c0810183526004909101805482526001600160a01b038e16938201939093528082019390935260086060840152519091906080820190635e35359e90611323908d908d908d9060240161307c565b6000818152600383016020526040902054829082906001600160a01b031633146119585760405162461bcd60e51b81526004016106679061319e565b60008381526003808601602052604090912001548490849060ff1615801561199957506000818152600383810160205260409091200154610100900460ff16155b80156119bf5750600081815260038381016020526040909120015462010000900460ff16155b6119db5760405162461bcd60e51b81526004016106679061319e565b6000858152600380880160205260409182902001805460ff19166001179055516000805160206134d883398151915290611a189033908890612ff7565b60405180910390a1505050505050565b6105b0600182612510565b6000848152600386016020526040902054859085906001600160a01b03163314611a6f5760405162461bcd60e51b81526004016106679061319e565b60008681526003808901602052604090912001548790879060ff16158015611ab057506000818152600383810160205260409091200154610100900460ff16155b8015611ad65750600081815260038381016020526040909120015462010000900460ff16155b611af25760405162461bcd60e51b81526004016106679061319e565b600088815260038a0160209081526040808320815160c0810183526004909101805482526001600160a01b038c169382019390935280820193909352600560608401525190919060808201906319b9404c90611b52908b90602401612fc9565b60408051808303601f190181529181526020808301805160e09590951b6001600160e01b039095169490941790935290835260009282018390528454600180820187559584529282902084516006909402019283558382015194830180546001600160a01b0319166001600160a01b0390961695909517909455928201516002820155606082015160038201805460ff191660ff9092169190911790556080820151805192939192611c0a92600485019201906127e6565b5060a091909101516005909101805460ff19169115159190911790558415610d9e5760008881526003808b01602052604091829020908101805460ff191660011790555490516000805160206134d883398151915291611c77916001600160a01b03909116908b90612ff7565b60405180910390a1505050505050505050565b6000868152600388016020526040902054879087906001600160a01b03163314611cc65760405162461bcd60e51b81526004016106679061319e565b60008881526003808b01602052604090912001548990899060ff16158015611d0757506000818152600383810160205260409091200154610100900460ff16155b8015611d2d5750600081815260038381016020526040909120015462010000900460ff16155b611d495760405162461bcd60e51b81526004016106679061319e565b60008a815260038c0160209081526040808320815160c0810183526004909101805482526001600160a01b038e1693820193909352808201939093526007606084015251909190608082019063c107532990611323908d908c90602401612ff7565b6000858152600387016020526040902054869086906001600160a01b03163314611de75760405162461bcd60e51b81526004016106679061319e565b60008781526003808a01602052604090912001548890889060ff16158015611e2857506000818152600383810160205260409091200154610100900460ff16155b8015611e4e5750600081815260038381016020526040909120015462010000900460ff16155b611e6a5760405162461bcd60e51b81526004016106679061319e565b600089815260038b0160209081526040808320815160c0810183526004909101805482526001600160a01b038d1693820193909352808201939093526007606084015251909190608082019063c1075329906110c6908c908c90602401612ff7565b6000848152600386016020526040902054859085906001600160a01b03163314611f085760405162461bcd60e51b81526004016106679061319e565b60008681526003808901602052604090912001548790879060ff16158015611f4957506000818152600383810160205260409091200154610100900460ff16155b8015611f6f5750600081815260038381016020526040909120015462010000900460ff16155b611f8b5760405162461bcd60e51b81526004016106679061319e565b600088815260038a0160209081526040808320815160c0810183526004909101805482526001600160a01b038c16938201939093528082019390935260026060840152519091906080820190637615eb8190611b52908b90602401613136565b6004840180546001808201909255600081815260039096016020818152604080892080546001600160a01b03191633178155815160608101835298895260ff97881689840190815296881691890191825298849052919052945191860191909155905160029094018054935183166101000261ff00199590931660ff19909416939093179390931617905590565b6000848152600386016020526040902054859085906001600160a01b031633146120b55760405162461bcd60e51b81526004016106679061319e565b60008681526003808901602052604090912001548790879060ff161580156120f657506000818152600383810160205260409091200154610100900460ff16155b801561211c5750600081815260038381016020526040909120015462010000900460ff16155b6121385760405162461bcd60e51b81526004016106679061319e565b600088815260038a0160209081526040808320815160c0810183526004909101805482526001600160a01b038c1693820193909352808201939093526001606084015251909190608082019063981d5e7b90611b52908b906024016130c3565b6000858152600387016020526040902054869086906001600160a01b031633146121d45760405162461bcd60e51b81526004016106679061319e565b60008781526003808a01602052604090912001548890889060ff1615801561221557506000818152600383810160205260409091200154610100900460ff16155b801561223b5750600081815260038381016020526040909120015462010000900460ff16155b6122575760405162461bcd60e51b81526004016106679061319e565b600089815260038b0160209081526040808320815160c0810183526004909101805482526001600160a01b038d16938201939093528082019390935260086060840152519091906080820190635e35359e906110c6908c908c90602401612ff7565b6000838152600385016020526040902054849084906001600160a01b031633146122f55760405162461bcd60e51b81526004016106679061319e565b60008581526003808801602052604090912001548690869060ff1615801561233657506000818152600383810160205260409091200154610100900460ff16155b801561235c5750600081815260038381016020526040909120015462010000900460ff16155b6123785760405162461bcd60e51b81526004016106679061319e565b8760030160008881526020019081526020016000206004016040518060c001604052808a60030160008b815260200190815260200160002060040180549050815260200160006001600160a01b0316815260200160008152602001600060ff1681526020018881526020016000151581525090806001815401808255809150506001900390600052602060002090600602016000909190919091506000820151816000015560208201518160010160006101000a8154816001600160a01b0302191690836001600160a01b031602179055506040820151816002015560608201518160030160006101000a81548160ff021916908360ff16021790555060808201518160040190805190602001906124919291906127e6565b5060a091909101516005909101805460ff1916911515919091179055841561058b5760008781526003808a01602052604091829020908101805460ff191660011790555490516000805160206134d8833981519152916124fe916001600160a01b03909116908a90612ff7565b60405180910390a15050505050505050565b60008181526003808401602052604090912001548290829060ff16801561255057506000818152600383810160205260409091200154610100900460ff16155b80156125765750600081815260038381016020526040909120015462010000900460ff16155b6125925760405162461bcd60e51b81526004016106679061319e565b600083815260038086016020526040822001805462ff00001916620100001790555b600084815260038601602052604090206004015481101561272157600084815260038601602052604081206004018054839081106125ee57fe5b60009182526020909120600160069092020101546001600160a01b0316146126d4576000848152600386016020526040902060040180548290811061262f57fe5b600091825260208083206001600690930201919091015486835260038801909152604090912060040180546001600160a01b03909216918390811061267057fe5b906000526020600020906006020160040160405161268e9190612f59565b6000604051808303816000865af19150503d80600081146126cb576040519150601f19603f3d011682016040523d82523d6000602084013e6126d0565b606091505b5050505b60008481526003860160205260409020600401805460019190839081106126f757fe5b60009182526020909120600690910201600501805460ff19169115159190911790556001016125b4565b506000838152600380860160205260409182902001805461ff001916610100179055517fd2c6e52f57352f08a7c9894b122d8440f1d87a7949ba8769fe444bf80b9e7a7e9061277190859061335f565b60405180910390a150505050565b604080516060810182526000808252602082018190529181019190915290565b6040518060c0016040528060006001600160a01b031681526020016127c261277f565b81526000602082018190526040820181905260608083019190915260809091015290565b828054600181600116156101000203166002900490600052602060002090601f016020900481019282601f1061282757805160ff1916838001178555612854565b82800160010185558215612854579182015b82811115612854578251825591602001919060010190612839565b50612860929150612864565b5090565b5b808211156128605760008155600101612865565b803561056d816134a4565b600060208284031215612895578081fd5b81356128a08161348f565b9392505050565b6000602082840312156128b8578081fd5b81516128a0816134a4565b6000806000606084860312156128d7578182fd5b8335925060208401356128e9816134c8565b915060408401356128f9816134c8565b809150509250925092565b600080600060608486031215612918578283fd5b83519250602084015161292a816134c8565b60408501519092506128f9816134c8565b60006020828403121561294c578081fd5b81356001600160e01b0319811681146128a0578182fd5b600060208284031215612974578081fd5b5035919050565b60008060008060008060c08789031215612993578182fd5b8635955060208701356129a58161348f565b945060408701356129b58161348f565b935060608701356129c58161348f565b925060808701356129d5816134b2565b915060a08701356129e5816134a4565b809150509295509295509295565b60008060008060008060c08789031215612a0b578182fd5b863595506020870135612a1d8161348f565b94506040870135612a2d8161348f565b93506060870135612a3d8161348f565b92506080870135915060a08701356129e5816134a4565b60008060008060808587031215612a69578182fd5b843593506020850135612a7b8161348f565b92506040850135612a8b8161348f565b91506060850135612a9b816134a4565b939692955090935050565b600080600080600060a08688031215612abd578283fd5b853594506020860135612acf8161348f565b93506040860135612adf8161348f565b92506060860135612aef816134b2565b91506080860135612aff816134a4565b809150509295509295909350565b600080600080600060a08688031215612b24578283fd5b853594506020860135612b368161348f565b93506040860135612b468161348f565b9250606086013591506080860135612aff816134a4565b6000806000806080808688031215612b73578283fd5b85359450602080870135612b868161348f565b94506040878101356001600160401b03811115612ba1578586fd5b8801601f81018a13612bb1578586fd5b8035612bc4612bbf82613444565b61341e565b81815284810190838601878402850187018e1015612be057898afd5b8994505b83851015612c505787818f031215612bfa57898afd5b612c038861341e565b8135612c0e8161348f565b8152818801358882015286820135612c25816134c8565b81880152606082810135612c38816134c8565b90820152835260019490940193918601918701612be4565b5080985050505050505050612c688660608701612879565b905092959194509250565b60008060008060808587031215612c88578182fd5b84359350602080860135612c9b8161348f565b935060408601356001600160401b03811115612cb5578384fd5b8601601f81018813612cc5578384fd5b8035612cd3612bbf82613444565b81815283810190838501858402850186018c1015612cef578788fd5b8794505b83851015612d11578035835260019490940193918501918501612cf3565b508096505050505050612c688660608701612879565b600080600080600080600080610100898b031215612d43578586fd5b883597506020890135612d558161348f565b9650604089013595506060890135612d6c8161348f565b94506080890135935060a0890135612d83816134c8565b925060c0890135612d93816134c8565b915060e0890135612da3816134a4565b809150509295985092959890939650565b60008060408385031215612dc6578182fd5b823591506020830135612dd8816134a4565b809150509250929050565b60008060008060808587031215612df8578182fd5b84359350602085013592506040850135612e11816134c8565b91506060850135612a9b816134c8565b600080600080600080600080610100898b031215612e3d578182fd5b88359750602089013596506040890135612e56816134c8565b95506060890135612e66816134c8565b979a969950949760808101359660a0820135965060c0820135955060e0909101359350915050565b600080600060608486031215612ea2578081fd5b833592506020808501356001600160401b0380821115612ec0578384fd5b818701915087601f830112612ed3578384fd5b813581811115612ee1578485fd5b612ef3601f8201601f1916850161341e565b91508082528884828501011115612f08578485fd5b80848401858401378101909201839052509150612f288560408601612879565b90509250925092565b15159052565b8051825260ff602082015116602083015260ff60408201511660408301525050565b6000808354600180821660008114612f785760018114612f8f57612fbe565b60ff198316865260028304607f1686019350612fbe565b600283048786526020808720875b83811015612fb65781548a820152908501908201612f9d565b505050860193505b509195945050505050565b6001600160a01b0391909116815260200190565b6001600160a01b0392831681529116602082015260400190565b6001600160a01b03929092168252602082015260400190565b6001600160a01b0397881681526020810196909652604086019490945260608501929092526080840152831660a083015290911660c082015260e00190565b6001600160a01b0393841681529190921660208201526001600160f01b0319909116604082015260600190565b6001600160a01b039384168152919092166020820152604081019190915260600190565b6001600160a01b039290921682526001600160f01b031916602082015260400190565b602080825282518282018190526000919060409081850190868401855b8281101561312957815180516001600160a01b0316855286810151878601528581015160ff908116878701526060918201511690850152608090930192908501906001016130e0565b5091979650505050505050565b6020808252825182820181905260009190848201906040850190845b8181101561316e57835183529284019291840191600101613152565b50909695505050505050565b901515815260200190565b92835260ff918216602084015216604082015260600190565b6020808252600f908201526e2737ba1030baba3437b934bd32b21760891b604082015260600190565b60208082526029908201527f43616e6e6f74206f766572777269746520616e206578697374696e672070726f6040820152683837b9b4ba34b7b71760b91b606082015260800190565b6020808252600e908201526d139bdd08185d5d1a1bdc9a5e995960921b604082015260600190565b6060810161056d8284612f37565b60006020808352610120830160018060a01b03808651168386015282860151604061327381880183612f37565b80880151151560a0888101919091526060890151151560c08901526080890151151560e089015280890151610100808a01528051958690526101408787028a018101969188019450890190885b8181101561334f5761013f198b8903018352855180518952878a820151168a8a015285810151868a015260ff60608201511660608a0152608081015160c060808b015280516133128160c08d0161335f565b61331f82828f8601613463565b92870151926133308c890185612f31565b601f91909101601f1916019950505094880194918801916001016132c0565b50959a9950505050505050505050565b90815260200190565b9182526001600160a01b0316602082015260400190565b938452602084019290925260ff908116604084015216606082015260800190565b9182521515602082015260400190565b978852602088019690965260ff9485166040880152929093166060860152608085015260a084019190915260c083015260e08201526101000190565b9485526001600160a01b03939093166020850152604084019190915260ff908116606084015216608082015260a00190565b6040518181016001600160401b038111828210171561343c57600080fd5b604052919050565b60006001600160401b03821115613459578081fd5b5060209081020190565b60005b8381101561347e578181015183820152602001613466565b838111156107b85750506000910152565b6001600160a01b03811681146105b057600080fd5b80151581146105b057600080fd5b6001600160f01b0319811681146105b057600080fd5b60ff811681146105b057600080fdfe7306ab933b6e1df1bd2fddce7143eeedd65d5996fada0e9168c4e8c3d1ece94da2646970667358221220624a23187295bfea83875e77be5e376676fdd635378c6e87762b4f35238dab4b64736f6c634300060c0033",
  "immutableReferences": {},
  "source": "// SPDX-License-Identifier: LGPL-3.0-or-later\npragma solidity ^0.6.0;\npragma experimental ABIEncoderV2;\n\nimport \"../Procedure.sol\";\nimport \"../libraries/VotePropositionLibrary.sol\";\n\n/*\n    Vote Procedure.\n    A Vote Procedure will apply an effect based on the decision of a vote.\n    Votes can be vetoed, and enacted.\n\n    @TODO : Add propositions getter.\n*/\n\ncontract VoteProcedure is Procedure {\n    using VotePropositionLibrary for VotePropositionLibrary.Proposition;\n    bytes4 private constant _INTERFACE_VOTE = 0xc9d27afe; // vote().\n    // A Proposition is mapped to a locked moved.\n    mapping (uint256 => VotePropositionLibrary.Proposition) internal propositions;\n    address payable public votersOrgan;\n    address payable public vetoersOrgan;\n    address payable public enactorsOrgan;\n\n    constructor (\n        bytes32 _metadataIpfsHash, uint8 _metadataHashFunction, uint8 _metadataHashSize,\n        address payable _votersOrgan, address payable _vetoersOrgan, address payable _enactorsOrgan\n    ) Procedure (_metadataIpfsHash, _metadataHashFunction, _metadataHashSize)\n        public\n    {\n        // Register EIP165 interface for introspection.\n        _registerInterface(_INTERFACE_VOTE);\n        votersOrgan = _votersOrgan;\n        vetoersOrgan = _vetoersOrgan;\n        enactorsOrgan = _enactorsOrgan;\n    }\n\n    function propose(\n        uint256 moveKey,\n        bytes32 ipfsHash, uint8 hashFunction, uint8 hashSize,\n        uint256 quorumSize, uint256 voteDuration, uint256 enactmentDuration, uint256 majoritySize\n    )\n        public onlyInOrgan(votersOrgan)\n    {\n        require(propositions[moveKey].creator == address(0), \"Cannot overwrite an existing proposition.\");\n        propositions[moveKey].init(\n            ipfsHash, hashFunction, hashSize,\n            quorumSize, voteDuration, enactmentDuration, majoritySize\n        );\n    }\n\n    function vote(uint256 moveKey, bool approval)\n        public onlyInOrgan(votersOrgan)\n    {\n        propositions[moveKey].vote(approval);\n    }\n\n    // A veto accepts arguments which defines a motivation as a IPFS multihash.\n    function veto(uint256 moveKey, bytes32 ipfsHash, uint8 hashFunction, uint8 hashSize)\n        public onlyInOrgan(vetoersOrgan)\n    {\n        propositions[moveKey].veto(ipfsHash, hashFunction, hashSize);\n    }\n\n    function count(uint256 moveKey)\n        public view returns (bool)\n    {\n        return propositions[moveKey].count();\n    }\n\n    function enact(uint256 moveKey)\n        public onlyInOrgan(enactorsOrgan)\n    {\n        // proposition.count() returns true if enactment is possible.\n        require (propositions[moveKey].count(), \"Not authorized\");\n        Procedure.applyMove(moveKey);\n        propositions[moveKey].enact();\n    }\n\n\n    function getProposition(uint256 moveKey)\n        public\n        view\n        returns (\n            address payable,\n            uint256,\n            uint256,\n            uint256,\n            uint256,\n            address payable,\n            address payable\n        )\n    {\n        return (\n            propositions[moveKey].creator,\n            propositions[moveKey].quorumSize,\n            propositions[moveKey].voteDuration,\n            propositions[moveKey].enactmentDuration,\n            propositions[moveKey].majoritySize,\n            propositions[moveKey].vetoer,\n            propositions[moveKey].enactor\n        );\n    }\n\n    function getPropositionMetadata(uint256 moveKey)\n        public view\n        returns (VotePropositionLibrary.Metadata memory)\n    {\n        return propositions[moveKey].metadata;\n    }\n\n    function getPropositionVetoMetadata(uint256 moveKey)\n        public view\n        returns (VotePropositionLibrary.Metadata memory)\n    {\n        return propositions[moveKey].vetoMetadata;\n    }\n}",
  "sourcePath": "/Users/alex/Code/organigr.am/packages/@organigram/contracts/contracts/procedures/Vote.sol",
  "compiler": {
    "name": "solc",
    "version": "0.6.12+commit.27d51765.Emscripten.clang"
  },
  "schemaVersion": "3.3.2",
  "updatedAt": "2020-12-06T20:50:53.191Z",
  "networkType": "ethereum",
  "devdoc": {
    "kind": "dev",
    "methods": {
      "supportsInterface(bytes4)": {
        "details": "See {IERC165-supportsInterface}. Time complexity O(1), guaranteed to always use less than 30 000 gas."
      }
    },
    "version": 1
  },
  "userdoc": {
    "kind": "user",
    "methods": {
      "createMove(bytes32,uint8,uint8)": {
        "notice": "Public API : Moves creation and update."
      },
      "updateMetadata(bytes32,uint8,uint8)": {
        "notice": "Public API : Procedure Metadata and Admin."
      }
    },
    "version": 1
  }
}