{
  "contractName": "VoteProcedure",
  "abi": [
    {
      "inputs": [
        {
          "internalType": "bytes32",
          "name": "_metadataIpfsHash",
          "type": "bytes32"
        },
        {
          "internalType": "uint8",
          "name": "_metadataHashFunction",
          "type": "uint8"
        },
        {
          "internalType": "uint8",
          "name": "_metadataHashSize",
          "type": "uint8"
        },
        {
          "internalType": "address payable",
          "name": "_votersOrgan",
          "type": "address"
        },
        {
          "internalType": "address payable",
          "name": "_vetoersOrgan",
          "type": "address"
        },
        {
          "internalType": "address payable",
          "name": "_enactorsOrgan",
          "type": "address"
        }
      ],
      "stateMutability": "nonpayable",
      "type": "constructor"
    },
    {
      "inputs": [
        {
          "internalType": "bytes32",
          "name": "ipfsHash",
          "type": "bytes32"
        },
        {
          "internalType": "uint8",
          "name": "hashFunction",
          "type": "uint8"
        },
        {
          "internalType": "uint8",
          "name": "hashSize",
          "type": "uint8"
        }
      ],
      "name": "createMove",
      "outputs": [
        {
          "internalType": "uint256",
          "name": "",
          "type": "uint256"
        }
      ],
      "stateMutability": "nonpayable",
      "type": "function"
    },
    {
      "inputs": [],
      "name": "enactorsOrgan",
      "outputs": [
        {
          "internalType": "address payable",
          "name": "",
          "type": "address"
        }
      ],
      "stateMutability": "view",
      "type": "function",
      "constant": true
    },
    {
      "inputs": [],
      "name": "getMetadata",
      "outputs": [
        {
          "internalType": "bytes32",
          "name": "ipfsHash",
          "type": "bytes32"
        },
        {
          "internalType": "uint8",
          "name": "hashFunction",
          "type": "uint8"
        },
        {
          "internalType": "uint8",
          "name": "hashSize",
          "type": "uint8"
        }
      ],
      "stateMutability": "view",
      "type": "function",
      "constant": true
    },
    {
      "inputs": [
        {
          "internalType": "uint256",
          "name": "moveKey",
          "type": "uint256"
        }
      ],
      "name": "getMove",
      "outputs": [
        {
          "components": [
            {
              "internalType": "address payable",
              "name": "creator",
              "type": "address"
            },
            {
              "components": [
                {
                  "internalType": "bytes32",
                  "name": "ipfsHash",
                  "type": "bytes32"
                },
                {
                  "internalType": "uint8",
                  "name": "hashFunction",
                  "type": "uint8"
                },
                {
                  "internalType": "uint8",
                  "name": "hashSize",
                  "type": "uint8"
                }
              ],
              "internalType": "struct ProcedureLibrary.Metadata",
              "name": "metadata",
              "type": "tuple"
            },
            {
              "internalType": "bool",
              "name": "locked",
              "type": "bool"
            },
            {
              "internalType": "bool",
              "name": "applied",
              "type": "bool"
            },
            {
              "internalType": "bool",
              "name": "processing",
              "type": "bool"
            },
            {
              "components": [
                {
                  "internalType": "uint256",
                  "name": "index",
                  "type": "uint256"
                },
                {
                  "internalType": "uint8",
                  "name": "operationType",
                  "type": "uint8"
                },
                {
                  "internalType": "bytes",
                  "name": "call",
                  "type": "bytes"
                },
                {
                  "internalType": "bool",
                  "name": "processed",
                  "type": "bool"
                }
              ],
              "internalType": "struct ProcedureLibrary.Operation[]",
              "name": "operations",
              "type": "tuple[]"
            }
          ],
          "internalType": "struct ProcedureLibrary.Move",
          "name": "move",
          "type": "tuple"
        }
      ],
      "stateMutability": "view",
      "type": "function",
      "constant": true
    },
    {
      "inputs": [],
      "name": "getMovesLength",
      "outputs": [
        {
          "internalType": "uint256",
          "name": "length",
          "type": "uint256"
        }
      ],
      "stateMutability": "view",
      "type": "function",
      "constant": true
    },
    {
      "inputs": [
        {
          "internalType": "uint256",
          "name": "moveKey",
          "type": "uint256"
        }
      ],
      "name": "lockMove",
      "outputs": [],
      "stateMutability": "nonpayable",
      "type": "function"
    },
    {
      "inputs": [
        {
          "internalType": "uint256",
          "name": "moveKey",
          "type": "uint256"
        },
        {
          "internalType": "address payable",
          "name": "organ",
          "type": "address"
        },
        {
          "components": [
            {
              "internalType": "address",
              "name": "addr",
              "type": "address"
            },
            {
              "internalType": "bytes32",
              "name": "ipfsHash",
              "type": "bytes32"
            },
            {
              "internalType": "uint8",
              "name": "hashFunction",
              "type": "uint8"
            },
            {
              "internalType": "uint8",
              "name": "hashSize",
              "type": "uint8"
            }
          ],
          "internalType": "struct OrganLibrary.Entry[]",
          "name": "entries",
          "type": "tuple[]"
        },
        {
          "internalType": "bool",
          "name": "lock",
          "type": "bool"
        }
      ],
      "name": "moveAddEntries",
      "outputs": [],
      "stateMutability": "nonpayable",
      "type": "function"
    },
    {
      "inputs": [
        {
          "internalType": "uint256",
          "name": "moveKey",
          "type": "uint256"
        },
        {
          "internalType": "address payable",
          "name": "organ",
          "type": "address"
        },
        {
          "internalType": "address",
          "name": "procedure",
          "type": "address"
        },
        {
          "internalType": "bytes2",
          "name": "permissions",
          "type": "bytes2"
        },
        {
          "internalType": "bool",
          "name": "lock",
          "type": "bool"
        }
      ],
      "name": "moveAddProcedure",
      "outputs": [],
      "stateMutability": "nonpayable",
      "type": "function"
    },
    {
      "inputs": [
        {
          "internalType": "uint256",
          "name": "moveKey",
          "type": "uint256"
        },
        {
          "internalType": "bytes",
          "name": "call",
          "type": "bytes"
        },
        {
          "internalType": "bool",
          "name": "lock",
          "type": "bool"
        }
      ],
      "name": "moveCall",
      "outputs": [],
      "stateMutability": "nonpayable",
      "type": "function"
    },
    {
      "inputs": [
        {
          "internalType": "uint256",
          "name": "moveKey",
          "type": "uint256"
        },
        {
          "internalType": "address payable",
          "name": "organ",
          "type": "address"
        },
        {
          "internalType": "address",
          "name": "operator",
          "type": "address"
        },
        {
          "internalType": "address",
          "name": "target",
          "type": "address"
        },
        {
          "internalType": "uint256",
          "name": "value",
          "type": "uint256"
        },
        {
          "internalType": "bool",
          "name": "lock",
          "type": "bool"
        }
      ],
      "name": "moveReceiveCoins",
      "outputs": [],
      "stateMutability": "nonpayable",
      "type": "function"
    },
    {
      "inputs": [
        {
          "internalType": "uint256",
          "name": "moveKey",
          "type": "uint256"
        },
        {
          "internalType": "address payable",
          "name": "organ",
          "type": "address"
        },
        {
          "internalType": "address",
          "name": "operator",
          "type": "address"
        },
        {
          "internalType": "address",
          "name": "target",
          "type": "address"
        },
        {
          "internalType": "uint256",
          "name": "token_id",
          "type": "uint256"
        },
        {
          "internalType": "bool",
          "name": "lock",
          "type": "bool"
        }
      ],
      "name": "moveReceiveCollectible",
      "outputs": [],
      "stateMutability": "nonpayable",
      "type": "function"
    },
    {
      "inputs": [
        {
          "internalType": "uint256",
          "name": "moveKey",
          "type": "uint256"
        },
        {
          "internalType": "address payable",
          "name": "organ",
          "type": "address"
        },
        {
          "internalType": "address",
          "name": "target",
          "type": "address"
        },
        {
          "internalType": "uint256",
          "name": "value",
          "type": "uint256"
        },
        {
          "internalType": "bool",
          "name": "lock",
          "type": "bool"
        }
      ],
      "name": "moveReceiveEther",
      "outputs": [],
      "stateMutability": "nonpayable",
      "type": "function"
    },
    {
      "inputs": [
        {
          "internalType": "uint256",
          "name": "moveKey",
          "type": "uint256"
        },
        {
          "internalType": "address payable",
          "name": "organ",
          "type": "address"
        },
        {
          "internalType": "uint256",
          "name": "indexes",
          "type": "uint256"
        },
        {
          "internalType": "bool",
          "name": "lock",
          "type": "bool"
        }
      ],
      "name": "moveRemoveEntry",
      "outputs": [],
      "stateMutability": "nonpayable",
      "type": "function"
    },
    {
      "inputs": [
        {
          "internalType": "uint256",
          "name": "moveKey",
          "type": "uint256"
        },
        {
          "internalType": "address payable",
          "name": "organ",
          "type": "address"
        },
        {
          "internalType": "address",
          "name": "procedure",
          "type": "address"
        },
        {
          "internalType": "bool",
          "name": "lock",
          "type": "bool"
        }
      ],
      "name": "moveRemoveProcedure",
      "outputs": [],
      "stateMutability": "nonpayable",
      "type": "function"
    },
    {
      "inputs": [
        {
          "internalType": "uint256",
          "name": "moveKey",
          "type": "uint256"
        },
        {
          "internalType": "address payable",
          "name": "organ",
          "type": "address"
        },
        {
          "internalType": "uint256",
          "name": "index",
          "type": "uint256"
        },
        {
          "internalType": "address payable",
          "name": "addr",
          "type": "address"
        },
        {
          "internalType": "bytes32",
          "name": "ipfsHash",
          "type": "bytes32"
        },
        {
          "internalType": "uint8",
          "name": "hashFunction",
          "type": "uint8"
        },
        {
          "internalType": "uint8",
          "name": "hashSize",
          "type": "uint8"
        },
        {
          "internalType": "bool",
          "name": "lock",
          "type": "bool"
        }
      ],
      "name": "moveReplaceEntry",
      "outputs": [],
      "stateMutability": "nonpayable",
      "type": "function"
    },
    {
      "inputs": [
        {
          "internalType": "uint256",
          "name": "moveKey",
          "type": "uint256"
        },
        {
          "internalType": "address payable",
          "name": "organ",
          "type": "address"
        },
        {
          "internalType": "address",
          "name": "oldProcedure",
          "type": "address"
        },
        {
          "internalType": "address",
          "name": "newProcedure",
          "type": "address"
        },
        {
          "internalType": "bytes2",
          "name": "permissions",
          "type": "bytes2"
        },
        {
          "internalType": "bool",
          "name": "lock",
          "type": "bool"
        }
      ],
      "name": "moveReplaceProcedure",
      "outputs": [],
      "stateMutability": "nonpayable",
      "type": "function"
    },
    {
      "inputs": [
        {
          "internalType": "uint256",
          "name": "moveKey",
          "type": "uint256"
        },
        {
          "internalType": "address payable",
          "name": "organ",
          "type": "address"
        },
        {
          "internalType": "address",
          "name": "operator",
          "type": "address"
        },
        {
          "internalType": "address",
          "name": "target",
          "type": "address"
        },
        {
          "internalType": "uint256",
          "name": "value",
          "type": "uint256"
        },
        {
          "internalType": "bool",
          "name": "lock",
          "type": "bool"
        }
      ],
      "name": "moveTransferCoins",
      "outputs": [],
      "stateMutability": "nonpayable",
      "type": "function"
    },
    {
      "inputs": [
        {
          "internalType": "uint256",
          "name": "moveKey",
          "type": "uint256"
        },
        {
          "internalType": "address payable",
          "name": "organ",
          "type": "address"
        },
        {
          "internalType": "address",
          "name": "operator",
          "type": "address"
        },
        {
          "internalType": "address",
          "name": "target",
          "type": "address"
        },
        {
          "internalType": "uint256",
          "name": "token_id",
          "type": "uint256"
        },
        {
          "internalType": "bool",
          "name": "lock",
          "type": "bool"
        }
      ],
      "name": "moveTransferCollectible",
      "outputs": [],
      "stateMutability": "nonpayable",
      "type": "function"
    },
    {
      "inputs": [
        {
          "internalType": "uint256",
          "name": "moveKey",
          "type": "uint256"
        },
        {
          "internalType": "address payable",
          "name": "organ",
          "type": "address"
        },
        {
          "internalType": "address",
          "name": "target",
          "type": "address"
        },
        {
          "internalType": "uint256",
          "name": "value",
          "type": "uint256"
        },
        {
          "internalType": "bool",
          "name": "lock",
          "type": "bool"
        }
      ],
      "name": "moveTransferEther",
      "outputs": [],
      "stateMutability": "nonpayable",
      "type": "function"
    },
    {
      "inputs": [
        {
          "internalType": "bytes4",
          "name": "interfaceId",
          "type": "bytes4"
        }
      ],
      "name": "supportsInterface",
      "outputs": [
        {
          "internalType": "bool",
          "name": "",
          "type": "bool"
        }
      ],
      "stateMutability": "view",
      "type": "function",
      "constant": true
    },
    {
      "inputs": [
        {
          "internalType": "address payable",
          "name": "admin",
          "type": "address"
        }
      ],
      "name": "updateAdmin",
      "outputs": [],
      "stateMutability": "nonpayable",
      "type": "function"
    },
    {
      "inputs": [
        {
          "internalType": "bytes32",
          "name": "ipfsHash",
          "type": "bytes32"
        },
        {
          "internalType": "uint8",
          "name": "hashFunction",
          "type": "uint8"
        },
        {
          "internalType": "uint8",
          "name": "hashSize",
          "type": "uint8"
        }
      ],
      "name": "updateMetadata",
      "outputs": [],
      "stateMutability": "nonpayable",
      "type": "function"
    },
    {
      "inputs": [],
      "name": "vetoersOrgan",
      "outputs": [
        {
          "internalType": "address payable",
          "name": "",
          "type": "address"
        }
      ],
      "stateMutability": "view",
      "type": "function",
      "constant": true
    },
    {
      "inputs": [],
      "name": "votersOrgan",
      "outputs": [
        {
          "internalType": "address payable",
          "name": "",
          "type": "address"
        }
      ],
      "stateMutability": "view",
      "type": "function",
      "constant": true
    },
    {
      "inputs": [
        {
          "internalType": "uint256",
          "name": "effectKey",
          "type": "uint256"
        },
        {
          "internalType": "bytes32",
          "name": "ipfsHash",
          "type": "bytes32"
        },
        {
          "internalType": "uint8",
          "name": "hashFunction",
          "type": "uint8"
        },
        {
          "internalType": "uint8",
          "name": "hashSize",
          "type": "uint8"
        }
      ],
      "name": "propose",
      "outputs": [
        {
          "internalType": "uint256",
          "name": "propositionKey",
          "type": "uint256"
        }
      ],
      "stateMutability": "nonpayable",
      "type": "function"
    },
    {
      "inputs": [
        {
          "internalType": "uint256",
          "name": "propositionKey",
          "type": "uint256"
        },
        {
          "internalType": "bool",
          "name": "approval",
          "type": "bool"
        }
      ],
      "name": "vote",
      "outputs": [],
      "stateMutability": "nonpayable",
      "type": "function"
    },
    {
      "inputs": [
        {
          "internalType": "uint256",
          "name": "propositionKey",
          "type": "uint256"
        },
        {
          "internalType": "bytes32",
          "name": "ipfsHash",
          "type": "bytes32"
        },
        {
          "internalType": "uint8",
          "name": "hashFunction",
          "type": "uint8"
        },
        {
          "internalType": "uint8",
          "name": "hashSize",
          "type": "uint8"
        }
      ],
      "name": "veto",
      "outputs": [],
      "stateMutability": "nonpayable",
      "type": "function"
    },
    {
      "inputs": [
        {
          "internalType": "uint256",
          "name": "propositionKey",
          "type": "uint256"
        }
      ],
      "name": "count",
      "outputs": [
        {
          "internalType": "bool",
          "name": "",
          "type": "bool"
        }
      ],
      "stateMutability": "view",
      "type": "function",
      "constant": true
    },
    {
      "inputs": [
        {
          "internalType": "uint256",
          "name": "propositionKey",
          "type": "uint256"
        }
      ],
      "name": "enact",
      "outputs": [],
      "stateMutability": "nonpayable",
      "type": "function"
    }
  ],
  "bytecode": "0x60806040523480156200001157600080fd5b5060405162005e8a38038062005e8a8339818101604052810190620000379190620002e5565b858585620000526301ffc9a760e01b620001c860201b60201c565b6200006a6371dbd33060e01b620001c860201b60201c565b600173__ProcedureLibrary______________________63359a395d90918585856040518563ffffffff1660e01b8152600401620000ac949392919062000408565b60006040518083038186803b158015620000c557600080fd5b505af4158015620000da573d6000803e3d6000fd5b50505050505050620000f963c9d27afe60e01b620001c860201b60201c565b82600660006101000a81548173ffffffffffffffffffffffffffffffffffffffff021916908373ffffffffffffffffffffffffffffffffffffffff16021790555081600760006101000a81548173ffffffffffffffffffffffffffffffffffffffff021916908373ffffffffffffffffffffffffffffffffffffffff16021790555080600860006101000a81548173ffffffffffffffffffffffffffffffffffffffff021916908373ffffffffffffffffffffffffffffffffffffffff160217905550505050505050620004ff565b63ffffffff60e01b817bffffffffffffffffffffffffffffffffffffffffffffffffffffffff1916141562000234576040517f08c379a00000000000000000000000000000000000000000000000000000000081526004016200022b90620003e6565b60405180910390fd5b6001600080837bffffffffffffffffffffffffffffffffffffffffffffffffffffffff19167bffffffffffffffffffffffffffffffffffffffffffffffffffffffff1916815260200190815260200160002060006101000a81548160ff02191690831515021790555050565b600081519050620002b181620004b1565b92915050565b600081519050620002c881620004cb565b92915050565b600081519050620002df81620004e5565b92915050565b60008060008060008060c08789031215620002ff57600080fd5b60006200030f89828a01620002b7565b96505060206200032289828a01620002ce565b95505060406200033589828a01620002ce565b94505060606200034889828a01620002a0565b93505060806200035b89828a01620002a0565b92505060a06200036e89828a01620002a0565b9150509295509295509295565b62000386816200047a565b82525050565b60006200039b601c8362000455565b91507f4552433136353a20696e76616c696420696e74657266616365206964000000006000830152602082019050919050565b8082525050565b620003e081620004a4565b82525050565b6000602082019050818103600083015262000401816200038c565b9050919050565b60006080820190506200041f6000830187620003ce565b6200042e60208301866200037b565b6200043d6040830185620003d5565b6200044c6060830184620003d5565b95945050505050565b600082825260208201905092915050565b6000620004738262000484565b9050919050565b6000819050919050565b600073ffffffffffffffffffffffffffffffffffffffff82169050919050565b600060ff82169050919050565b620004bc8162000466565b8114620004c857600080fd5b50565b620004d6816200047a565b8114620004e257600080fd5b50565b620004f081620004a4565b8114620004fc57600080fd5b50565b61597b806200050f6000396000f3fe608060405234801561001057600080fd5b50600436106101cf5760003560e01c806367c322d011610104578063c492f463116100a2578063d47fc87e11610071578063d47fc87e146104fe578063e2f273bd1461051a578063ebb8c34414610536578063fa160aa214610554576101cf565b8063c492f4631461048e578063c9d27afe146104aa578063cb6bc9ff146104c6578063cc125031146104e2576101cf565b80637c3a5fcc116100de5780637c3a5fcc146104085780637ee7fa4014610424578063a2b58cda14610440578063c23c6d4614610470576101cf565b806367c322d01461039c57806371dbd330146103b85780637a5b4f59146103e8576101cf565b8063416a99d1116101715780635ba357dc1161014b5780635ba357dc1461032a5780635e9cc2a91461034657806362721a4c146103625780636322ab2014610380576101cf565b8063416a99d1146102c257806352c041b2146102f25780635a31b5601461030e576101cf565b80632c1d5337116101ad5780632c1d53371461023c57806339c2ae70146102585780633b3546c8146102745780633e9a9bd8146102a4576101cf565b806301ffc9a7146101d45780630b5522a914610204578063148a200514610220575b600080fd5b6101ee60048036038101906101e991906147fb565b610570565b6040516101fb91906153fd565b60405180910390f35b61021e600480360381019061021991906149c2565b6105d7565b005b61023a600480360381019061023591906148d6565b6105fa565b005b6102566004803603810190610251919061484d565b610620565b005b610272600480360381019061026d919061475d565b610646565b005b61028e60048036038101906102899190614824565b6106bb565b60405161029b91906153fd565b60405180910390f35b6102ac61075f565b6040516102b99190615636565b60405180910390f35b6102dc60048036038101906102d79190614c7c565b61076c565b6040516102e99190615636565b60405180910390f35b61030c60048036038101906103079190614b2b565b610858565b005b610328600480360381019061032391906148d6565b610884565b005b610344600480360381019061033f9190614824565b6108aa565b005b610360600480360381019061035b9190614824565b6108c1565b005b61036a610b24565b60405161037791906151de565b60405180910390f35b61039a60048036038101906103959190614bdd565b610b4a565b005b6103b660048036038101906103b1919061495f565b610b6a565b005b6103d260048036038101906103cd9190614824565b610b8a565b6040516103df91906154af565b60405180910390f35b6103f0610dfc565b6040516103ff93929190615418565b60405180910390f35b610422600480360381019061041d91906148d6565b610e96565b005b61043e60048036038101906104399190614a39565b610ebc565b005b61045a6004803603810190610455919061475d565b610edf565b6040516104679190615636565b60405180910390f35b610478610f02565b60405161048591906151de565b60405180910390f35b6104a860048036038101906104a39190614ab0565b610f28565b005b6104c460048036038101906104bf9190614c40565b610f48565b005b6104e060048036038101906104db91906148d6565b6110b5565b005b6104fc60048036038101906104f79190614a39565b6110db565b005b61051860048036038101906105139190614c7c565b6110fe565b005b610534600480360381019061052f919061470b565b611271565b005b61053e6112e0565b60405161054b91906151de565b60405180910390f35b61056e60048036038101906105699190614cdf565b611306565b005b6000806000837bffffffffffffffffffffffffffffffffffffffffffffffffffffffff19167bffffffffffffffffffffffffffffffffffffffffffffffffffffffff1916815260200190815260200160002060009054906101000a900460ff169050919050565b6105f3858585858560016113239095949392919063ffffffff16565b5050505050565b610618868686868686600161168e909695949392919063ffffffff16565b505050505050565b61063e86868686868660016119fc909695949392919063ffffffff16565b505050505050565b600173__ProcedureLibrary______________________63b8cc9a0290918585856040518563ffffffff1660e01b81526004016106869493929190615515565b60006040518083038186803b15801561069e57600080fd5b505af41580156106b2573d6000803e3d6000fd5b50505050505050565b60006009600083815260200190815260200160002073__VotePropositionLibrary________________6386300da490916040518263ffffffff1660e01b8152600401610708919061555a565b60206040518083038186803b15801561072057600080fd5b505af4158015610734573d6000803e3d6000fd5b505050506040513d601f19601f820116820180604052508101906107589190614734565b9050919050565b6000600160040154905090565b60006001600a54019050600a5481116107ba576040517f08c379a00000000000000000000000000000000000000000000000000000000081526004016107b19061544f565b60405180910390fd5b6009600082815260200190815260200160002073__VotePropositionLibrary________________639de9d1589091878787876040518663ffffffff1660e01b815260040161080d9594939291906155e3565b60006040518083038186803b15801561082557600080fd5b505af4158015610839573d6000803e3d6000fd5b50505050600a6000815480929190600101919050559050949350505050565b61087a88888888888888886001611d6a9098979695949392919063ffffffff16565b5050505050505050565b6108a286868686868660016120a8909695949392919063ffffffff16565b505050505050565b6108be81600161241690919063ffffffff16565b50565b600860009054906101000a900473ffffffffffffffffffffffffffffffffffffffff1673__ProcedureLibrary______________________637c3b86fe82336040518363ffffffff1660e01b815260040161091d929190615222565b60206040518083038186803b15801561093557600080fd5b505af4158015610949573d6000803e3d6000fd5b505050506040513d601f19601f8201168201806040525081019061096d9190614734565b6109ac576040517f08c379a00000000000000000000000000000000000000000000000000000000081526004016109a39061548f565b60405180910390fd5b6009600083815260200190815260200160002073__VotePropositionLibrary________________6386300da490916040518263ffffffff1660e01b81526004016109f7919061555a565b60206040518083038186803b158015610a0f57600080fd5b505af4158015610a23573d6000803e3d6000fd5b505050506040513d601f19601f82011682018060405250810190610a479190614734565b610a86576040517f08c379a0000000000000000000000000000000000000000000000000000000008152600401610a7d9061548f565b60405180910390fd5b610aa560096000848152602001908152602001600020600101546125f6565b6009600083815260200190815260200160002073__VotePropositionLibrary________________639acab60390916040518263ffffffff1660e01b8152600401610af0919061555a565b60006040518083038186803b158015610b0857600080fd5b505af4158015610b1c573d6000803e3d6000fd5b505050505050565b600760009054906101000a900473ffffffffffffffffffffffffffffffffffffffff1681565b610b6484848484600161260d90949392919063ffffffff16565b50505050565b610b8484848484600161297590949392919063ffffffff16565b50505050565b610b926143ba565b600160030160008381526020019081526020016000206040518060c00160405290816000820160009054906101000a900473ffffffffffffffffffffffffffffffffffffffff1673ffffffffffffffffffffffffffffffffffffffff1673ffffffffffffffffffffffffffffffffffffffff16815260200160018201604051806060016040529081600082015481526020016001820160009054906101000a900460ff1660ff1660ff1681526020016001820160019054906101000a900460ff1660ff1660ff168152505081526020016003820160009054906101000a900460ff161515151581526020016003820160019054906101000a900460ff161515151581526020016003820160029054906101000a900460ff1615151515815260200160048201805480602002602001604051908101604052809291908181526020016000905b82821015610ded5783829060005260206000209060040201604051806080016040529081600082015481526020016001820160009054906101000a900460ff1660ff1660ff168152602001600282018054600181600116156101000203166002900480601f016020809104026020016040519081016040528092919081815260200182805460018160011615610100020316600290048015610dba5780601f10610d8f57610100808354040283529160200191610dba565b820191906000526020600020905b815481529060010190602001808311610d9d57829003601f168201915b505050505081526020016003820160009054906101000a900460ff16151515158152505081526020019060010190610cd7565b50505050815250509050919050565b6000806000600173__ProcedureLibrary______________________6383fecb1a90916040518263ffffffff1660e01b8152600401610e3b91906154d1565b60606040518083038186803b158015610e5357600080fd5b505af4158015610e67573d6000803e3d6000fd5b505050506040513d601f19601f82011682018060405250810190610e8b91906147ac565b925092509250909192565b610eb48686868686866001612cdd909695949392919063ffffffff16565b505050505050565b610ed8858585858560016130499095949392919063ffffffff16565b5050505050565b6000610ef984848460016133b4909392919063ffffffff16565b90509392505050565b600660009054906101000a900473ffffffffffffffffffffffffffffffffffffffff1681565b610f428484848460016134b790949392919063ffffffff16565b50505050565b600660009054906101000a900473ffffffffffffffffffffffffffffffffffffffff1673__ProcedureLibrary______________________637c3b86fe82336040518363ffffffff1660e01b8152600401610fa4929190615222565b60206040518083038186803b158015610fbc57600080fd5b505af4158015610fd0573d6000803e3d6000fd5b505050506040513d601f19601f82011682018060405250810190610ff49190614734565b611033576040517f08c379a000000000000000000000000000000000000000000000000000000000815260040161102a9061548f565b60405180910390fd5b6009600084815260200190815260200160002073__VotePropositionLibrary________________63d7a389fb9091846040518363ffffffff1660e01b8152600401611080929190615575565b60006040518083038186803b15801561109857600080fd5b505af41580156110ac573d6000803e3d6000fd5b50505050505050565b6110d3868686868686600161381f909695949392919063ffffffff16565b505050505050565b6110f785858585856001613b8d9095949392919063ffffffff16565b5050505050565b600760009054906101000a900473ffffffffffffffffffffffffffffffffffffffff1673__ProcedureLibrary______________________637c3b86fe82336040518363ffffffff1660e01b815260040161115a929190615222565b60206040518083038186803b15801561117257600080fd5b505af4158015611186573d6000803e3d6000fd5b505050506040513d601f19601f820116820180604052508101906111aa9190614734565b6111e9576040517f08c379a00000000000000000000000000000000000000000000000000000000081526004016111e09061548f565b60405180910390fd5b6009600086815260200190815260200160002073__VotePropositionLibrary________________6394974cc790918686866040518563ffffffff1660e01b815260040161123a949392919061559e565b60006040518083038186803b15801561125257600080fd5b505af4158015611266573d6000803e3d6000fd5b505050505050505050565b600173__ProcedureLibrary______________________638e956e929091836040518363ffffffff1660e01b81526004016112ad9291906154ec565b60006040518083038186803b1580156112c557600080fd5b505af41580156112d9573d6000803e3d6000fd5b5050505050565b600860009054906101000a900473ffffffffffffffffffffffffffffffffffffffff1681565b61131e8383836001613ef8909392919063ffffffff16565b505050565b85853373ffffffffffffffffffffffffffffffffffffffff1682600301600083815260200190815260200160002060000160009054906101000a900473ffffffffffffffffffffffffffffffffffffffff1673ffffffffffffffffffffffffffffffffffffffff16146113cb576040517f08c379a00000000000000000000000000000000000000000000000000000000081526004016113c29061546f565b60405180910390fd5b878781600301600082815260200190815260200160002060030160009054906101000a900460ff16158015611423575081600301600082815260200190815260200160002060030160019054906101000a900460ff16155b8015611452575081600301600082815260200190815260200160002060030160029054906101000a900460ff16155b611491576040517f08c379a00000000000000000000000000000000000000000000000000000000081526004016114889061546f565b60405180910390fd5b8960030160008a815260200190815260200160002060040160405180608001604052808c60030160008d8152602001908152602001600020600401805490508152602001600460ff1681526020016390b137e98b8b8b6040516024016114f9939291906152d5565b6040516020818303038152906040529060e01b6020820180517bffffffffffffffffffffffffffffffffffffffffffffffffffffffff838183161783525050505081526020016000151581525090806001815401808255809150506001900390600052602060002090600402016000909190919091506000820151816000015560208201518160010160006101000a81548160ff021916908360ff16021790555060408201518160020190805190602001906115b6929190614412565b5060608201518160030160006101000a81548160ff021916908315150217905550505084156116825760018a60030160008b815260200190815260200160002060030160006101000a81548160ff0219169083151502179055507f7306ab933b6e1df1bd2fddce7143eeedd65d5996fada0e9168c4e8c3d1ece94d8a60030160008b815260200190815260200160002060000160009054906101000a900473ffffffffffffffffffffffffffffffffffffffff168a604051611679929190615373565b60405180910390a15b50505050505050505050565b86863373ffffffffffffffffffffffffffffffffffffffff1682600301600083815260200190815260200160002060000160009054906101000a900473ffffffffffffffffffffffffffffffffffffffff1673ffffffffffffffffffffffffffffffffffffffff1614611736576040517f08c379a000000000000000000000000000000000000000000000000000000000815260040161172d9061546f565b60405180910390fd5b888881600301600082815260200190815260200160002060030160009054906101000a900460ff1615801561178e575081600301600082815260200190815260200160002060030160019054906101000a900460ff16155b80156117bd575081600301600082815260200190815260200160002060030160029054906101000a900460ff16155b6117fc576040517f08c379a00000000000000000000000000000000000000000000000000000000081526004016117f39061546f565b60405180910390fd5b8a60030160008b815260200190815260200160002060040160405180608001604052808d60030160008e8152602001908152602001600020600401805490508152602001600760ff16815260200163c10753298c8c8c8c6040516024016118669493929190615290565b6040516020818303038152906040529060e01b6020820180517bffffffffffffffffffffffffffffffffffffffffffffffffffffffff838183161783525050505081526020016000151581525090806001815401808255809150506001900390600052602060002090600402016000909190919091506000820151816000015560208201518160010160006101000a81548160ff021916908360ff1602179055506040820151816002019080519060200190611923929190614412565b5060608201518160030160006101000a81548160ff021916908315150217905550505084156119ef5760018b60030160008c815260200190815260200160002060030160006101000a81548160ff0219169083151502179055507f7306ab933b6e1df1bd2fddce7143eeedd65d5996fada0e9168c4e8c3d1ece94d8b60030160008c815260200190815260200160002060000160009054906101000a900473ffffffffffffffffffffffffffffffffffffffff168b6040516119e6929190615373565b60405180910390a15b5050505050505050505050565b86863373ffffffffffffffffffffffffffffffffffffffff1682600301600083815260200190815260200160002060000160009054906101000a900473ffffffffffffffffffffffffffffffffffffffff1673ffffffffffffffffffffffffffffffffffffffff1614611aa4576040517f08c379a0000000000000000000000000000000000000000000000000000000008152600401611a9b9061546f565b60405180910390fd5b888881600301600082815260200190815260200160002060030160009054906101000a900460ff16158015611afc575081600301600082815260200190815260200160002060030160019054906101000a900460ff16155b8015611b2b575081600301600082815260200190815260200160002060030160029054906101000a900460ff16155b611b6a576040517f08c379a0000000000000000000000000000000000000000000000000000000008152600401611b619061546f565b60405180910390fd5b8a60030160008b815260200190815260200160002060040160405180608001604052808d60030160008e8152602001908152602001600020600401805490508152602001600660ff168152602001635676c77d8c8c8c8c604051602401611bd4949392919061524b565b6040516020818303038152906040529060e01b6020820180517bffffffffffffffffffffffffffffffffffffffffffffffffffffffff838183161783525050505081526020016000151581525090806001815401808255809150506001900390600052602060002090600402016000909190919091506000820151816000015560208201518160010160006101000a81548160ff021916908360ff1602179055506040820151816002019080519060200190611c91929190614412565b5060608201518160030160006101000a81548160ff02191690831515021790555050508415611d5d5760018b60030160008c815260200190815260200160002060030160006101000a81548160ff0219169083151502179055507f7306ab933b6e1df1bd2fddce7143eeedd65d5996fada0e9168c4e8c3d1ece94d8b60030160008c815260200190815260200160002060000160009054906101000a900473ffffffffffffffffffffffffffffffffffffffff168b604051611d54929190615373565b60405180910390a15b5050505050505050505050565b88883373ffffffffffffffffffffffffffffffffffffffff1682600301600083815260200190815260200160002060000160009054906101000a900473ffffffffffffffffffffffffffffffffffffffff1673ffffffffffffffffffffffffffffffffffffffff1614611e12576040517f08c379a0000000000000000000000000000000000000000000000000000000008152600401611e099061546f565b60405180910390fd5b8a8a81600301600082815260200190815260200160002060030160009054906101000a900460ff16158015611e6a575081600301600082815260200190815260200160002060030160019054906101000a900460ff16155b8015611e99575081600301600082815260200190815260200160002060030160029054906101000a900460ff16155b611ed8576040517f08c379a0000000000000000000000000000000000000000000000000000000008152600401611ecf9061546f565b60405180910390fd5b60008d60030160008e8152602001908152602001600020905080600401604051806080016040528083600401805490508152602001600360ff16815260200163155a73ce8f8f8f8f8f8f604051602401611f379695949392919061539c565b6040516020818303038152906040529060e01b6020820180517bffffffffffffffffffffffffffffffffffffffffffffffffffffffff838183161783525050505081526020016000151581525090806001815401808255809150506001900390600052602060002090600402016000909190919091506000820151816000015560208201518160010160006101000a81548160ff021916908360ff1602179055506040820151816002019080519060200190611ff4929190614412565b5060608201518160030160006101000a81548160ff021916908315150217905550505085156120985760018160030160006101000a81548160ff0219169083151502179055507f7306ab933b6e1df1bd2fddce7143eeedd65d5996fada0e9168c4e8c3d1ece94d8160000160009054906101000a900473ffffffffffffffffffffffffffffffffffffffff168e60405161208f929190615373565b60405180910390a15b5050505050505050505050505050565b86863373ffffffffffffffffffffffffffffffffffffffff1682600301600083815260200190815260200160002060000160009054906101000a900473ffffffffffffffffffffffffffffffffffffffff1673ffffffffffffffffffffffffffffffffffffffff1614612150576040517f08c379a00000000000000000000000000000000000000000000000000000000081526004016121479061546f565b60405180910390fd5b888881600301600082815260200190815260200160002060030160009054906101000a900460ff161580156121a8575081600301600082815260200190815260200160002060030160019054906101000a900460ff16155b80156121d7575081600301600082815260200190815260200160002060030160029054906101000a900460ff16155b612216576040517f08c379a000000000000000000000000000000000000000000000000000000000815260040161220d9061546f565b60405180910390fd5b8a60030160008b815260200190815260200160002060040160405180608001604052808d60030160008e8152602001908152602001600020600401805490508152602001600860ff168152602001635e35359e8c8c8c8c6040516024016122809493929190615290565b6040516020818303038152906040529060e01b6020820180517bffffffffffffffffffffffffffffffffffffffffffffffffffffffff838183161783525050505081526020016000151581525090806001815401808255809150506001900390600052602060002090600402016000909190919091506000820151816000015560208201518160010160006101000a81548160ff021916908360ff160217905550604082015181600201908051906020019061233d929190614412565b5060608201518160030160006101000a81548160ff021916908315150217905550505084156124095760018b60030160008c815260200190815260200160002060030160006101000a81548160ff0219169083151502179055507f7306ab933b6e1df1bd2fddce7143eeedd65d5996fada0e9168c4e8c3d1ece94d8b60030160008c815260200190815260200160002060000160009054906101000a900473ffffffffffffffffffffffffffffffffffffffff168b604051612400929190615373565b60405180910390a15b5050505050505050505050565b81813373ffffffffffffffffffffffffffffffffffffffff1682600301600083815260200190815260200160002060000160009054906101000a900473ffffffffffffffffffffffffffffffffffffffff1673ffffffffffffffffffffffffffffffffffffffff16146124be576040517f08c379a00000000000000000000000000000000000000000000000000000000081526004016124b59061546f565b60405180910390fd5b838381600301600082815260200190815260200160002060030160009054906101000a900460ff16158015612516575081600301600082815260200190815260200160002060030160019054906101000a900460ff16155b8015612545575081600301600082815260200190815260200160002060030160029054906101000a900460ff16155b612584576040517f08c379a000000000000000000000000000000000000000000000000000000000815260040161257b9061546f565b60405180910390fd5b600186600301600087815260200190815260200160002060030160006101000a81548160ff0219169083151502179055507f7306ab933b6e1df1bd2fddce7143eeedd65d5996fada0e9168c4e8c3d1ece94d33866040516125e6929190615373565b60405180910390a1505050505050565b61260a81600161420790919063ffffffff16565b50565b84843373ffffffffffffffffffffffffffffffffffffffff1682600301600083815260200190815260200160002060000160009054906101000a900473ffffffffffffffffffffffffffffffffffffffff1673ffffffffffffffffffffffffffffffffffffffff16146126b5576040517f08c379a00000000000000000000000000000000000000000000000000000000081526004016126ac9061546f565b60405180910390fd5b868681600301600082815260200190815260200160002060030160009054906101000a900460ff1615801561270d575081600301600082815260200190815260200160002060030160019054906101000a900460ff16155b801561273c575081600301600082815260200190815260200160002060030160029054906101000a900460ff16155b61277b576040517f08c379a00000000000000000000000000000000000000000000000000000000081526004016127729061546f565b60405180910390fd5b88600301600089815260200190815260200160002060040160405180608001604052808b60030160008c8152602001908152602001600020600401805490508152602001600260ff1681526020016376a6411c8a8a6040516024016127e1929190615373565b6040516020818303038152906040529060e01b6020820180517bffffffffffffffffffffffffffffffffffffffffffffffffffffffff838183161783525050505081526020016000151581525090806001815401808255809150506001900390600052602060002090600402016000909190919091506000820151816000015560208201518160010160006101000a81548160ff021916908360ff160217905550604082015181600201908051906020019061289e929190614412565b5060608201518160030160006101000a81548160ff0219169083151502179055505050841561296a5760018960030160008a815260200190815260200160002060030160006101000a81548160ff0219169083151502179055507f7306ab933b6e1df1bd2fddce7143eeedd65d5996fada0e9168c4e8c3d1ece94d8960030160008a815260200190815260200160002060000160009054906101000a900473ffffffffffffffffffffffffffffffffffffffff1689604051612961929190615373565b60405180910390a15b505050505050505050565b84843373ffffffffffffffffffffffffffffffffffffffff1682600301600083815260200190815260200160002060000160009054906101000a900473ffffffffffffffffffffffffffffffffffffffff1673ffffffffffffffffffffffffffffffffffffffff1614612a1d576040517f08c379a0000000000000000000000000000000000000000000000000000000008152600401612a149061546f565b60405180910390fd5b868681600301600082815260200190815260200160002060030160009054906101000a900460ff16158015612a75575081600301600082815260200190815260200160002060030160019054906101000a900460ff16155b8015612aa4575081600301600082815260200190815260200160002060030160029054906101000a900460ff16155b612ae3576040517f08c379a0000000000000000000000000000000000000000000000000000000008152600401612ada9061546f565b60405180910390fd5b88600301600089815260200190815260200160002060040160405180608001604052808b60030160008c8152602001908152602001600020600401805490508152602001600560ff1681526020016319b9404c8a8a604051602401612b499291906151f9565b6040516020818303038152906040529060e01b6020820180517bffffffffffffffffffffffffffffffffffffffffffffffffffffffff838183161783525050505081526020016000151581525090806001815401808255809150506001900390600052602060002090600402016000909190919091506000820151816000015560208201518160010160006101000a81548160ff021916908360ff1602179055506040820151816002019080519060200190612c06929190614412565b5060608201518160030160006101000a81548160ff02191690831515021790555050508415612cd25760018960030160008a815260200190815260200160002060030160006101000a81548160ff0219169083151502179055507f7306ab933b6e1df1bd2fddce7143eeedd65d5996fada0e9168c4e8c3d1ece94d8960030160008a815260200190815260200160002060000160009054906101000a900473ffffffffffffffffffffffffffffffffffffffff1689604051612cc9929190615373565b60405180910390a15b505050505050505050565b86863373ffffffffffffffffffffffffffffffffffffffff1682600301600083815260200190815260200160002060000160009054906101000a900473ffffffffffffffffffffffffffffffffffffffff1673ffffffffffffffffffffffffffffffffffffffff1614612d85576040517f08c379a0000000000000000000000000000000000000000000000000000000008152600401612d7c9061546f565b60405180910390fd5b888881600301600082815260200190815260200160002060030160009054906101000a900460ff16158015612ddd575081600301600082815260200190815260200160002060030160019054906101000a900460ff16155b8015612e0c575081600301600082815260200190815260200160002060030160029054906101000a900460ff16155b612e4b576040517f08c379a0000000000000000000000000000000000000000000000000000000008152600401612e429061546f565b60405180910390fd5b8a60030160008b815260200190815260200160002060040160405180608001604052808d60030160008e8152602001908152602001600020600401805490508152602001600760ff16815260200163c10753298c8c8b604051602401612eb39392919061530c565b6040516020818303038152906040529060e01b6020820180517bffffffffffffffffffffffffffffffffffffffffffffffffffffffff838183161783525050505081526020016000151581525090806001815401808255809150506001900390600052602060002090600402016000909190919091506000820151816000015560208201518160010160006101000a81548160ff021916908360ff1602179055506040820151816002019080519060200190612f70929190614412565b5060608201518160030160006101000a81548160ff0219169083151502179055505050841561303c5760018b60030160008c815260200190815260200160002060030160006101000a81548160ff0219169083151502179055507f7306ab933b6e1df1bd2fddce7143eeedd65d5996fada0e9168c4e8c3d1ece94d8b60030160008c815260200190815260200160002060000160009054906101000a900473ffffffffffffffffffffffffffffffffffffffff168b604051613033929190615373565b60405180910390a15b5050505050505050505050565b85853373ffffffffffffffffffffffffffffffffffffffff1682600301600083815260200190815260200160002060000160009054906101000a900473ffffffffffffffffffffffffffffffffffffffff1673ffffffffffffffffffffffffffffffffffffffff16146130f1576040517f08c379a00000000000000000000000000000000000000000000000000000000081526004016130e89061546f565b60405180910390fd5b878781600301600082815260200190815260200160002060030160009054906101000a900460ff16158015613149575081600301600082815260200190815260200160002060030160019054906101000a900460ff16155b8015613178575081600301600082815260200190815260200160002060030160029054906101000a900460ff16155b6131b7576040517f08c379a00000000000000000000000000000000000000000000000000000000081526004016131ae9061546f565b60405180910390fd5b8960030160008a815260200190815260200160002060040160405180608001604052808c60030160008d8152602001908152602001600020600401805490508152602001600760ff16815260200163c10753298b8b8b60405160240161321f9392919061530c565b6040516020818303038152906040529060e01b6020820180517bffffffffffffffffffffffffffffffffffffffffffffffffffffffff838183161783525050505081526020016000151581525090806001815401808255809150506001900390600052602060002090600402016000909190919091506000820151816000015560208201518160010160006101000a81548160ff021916908360ff16021790555060408201518160020190805190602001906132dc929190614412565b5060608201518160030160006101000a81548160ff021916908315150217905550505084156133a85760018a60030160008b815260200190815260200160002060030160006101000a81548160ff0219169083151502179055507f7306ab933b6e1df1bd2fddce7143eeedd65d5996fada0e9168c4e8c3d1ece94d8a60030160008b815260200190815260200160002060000160009054906101000a900473ffffffffffffffffffffffffffffffffffffffff168a60405161339f929190615373565b60405180910390a15b50505050505050505050565b6000808560040160008154809291906001019190505590503386600301600083815260200190815260200160002060000160006101000a81548173ffffffffffffffffffffffffffffffffffffffff021916908373ffffffffffffffffffffffffffffffffffffffff16021790555060405180606001604052808681526020018560ff1681526020018460ff168152508660030160008381526020019081526020016000206001016000820151816000015560208201518160010160006101000a81548160ff021916908360ff16021790555060408201518160010160016101000a81548160ff021916908360ff16021790555090505080915050949350505050565b84843373ffffffffffffffffffffffffffffffffffffffff1682600301600083815260200190815260200160002060000160009054906101000a900473ffffffffffffffffffffffffffffffffffffffff1673ffffffffffffffffffffffffffffffffffffffff161461355f576040517f08c379a00000000000000000000000000000000000000000000000000000000081526004016135569061546f565b60405180910390fd5b868681600301600082815260200190815260200160002060030160009054906101000a900460ff161580156135b7575081600301600082815260200190815260200160002060030160019054906101000a900460ff16155b80156135e6575081600301600082815260200190815260200160002060030160029054906101000a900460ff16155b613625576040517f08c379a000000000000000000000000000000000000000000000000000000000815260040161361c9061546f565b60405180910390fd5b88600301600089815260200190815260200160002060040160405180608001604052808b60030160008c8152602001908152602001600020600401805490508152602001600160ff168152602001631715f4de8a8a60405160240161368b929190615343565b6040516020818303038152906040529060e01b6020820180517bffffffffffffffffffffffffffffffffffffffffffffffffffffffff838183161783525050505081526020016000151581525090806001815401808255809150506001900390600052602060002090600402016000909190919091506000820151816000015560208201518160010160006101000a81548160ff021916908360ff1602179055506040820151816002019080519060200190613748929190614412565b5060608201518160030160006101000a81548160ff021916908315150217905550505084156138145760018960030160008a815260200190815260200160002060030160006101000a81548160ff0219169083151502179055507f7306ab933b6e1df1bd2fddce7143eeedd65d5996fada0e9168c4e8c3d1ece94d8960030160008a815260200190815260200160002060000160009054906101000a900473ffffffffffffffffffffffffffffffffffffffff168960405161380b929190615373565b60405180910390a15b505050505050505050565b86863373ffffffffffffffffffffffffffffffffffffffff1682600301600083815260200190815260200160002060000160009054906101000a900473ffffffffffffffffffffffffffffffffffffffff1673ffffffffffffffffffffffffffffffffffffffff16146138c7576040517f08c379a00000000000000000000000000000000000000000000000000000000081526004016138be9061546f565b60405180910390fd5b888881600301600082815260200190815260200160002060030160009054906101000a900460ff1615801561391f575081600301600082815260200190815260200160002060030160019054906101000a900460ff16155b801561394e575081600301600082815260200190815260200160002060030160029054906101000a900460ff16155b61398d576040517f08c379a00000000000000000000000000000000000000000000000000000000081526004016139849061546f565b60405180910390fd5b8a60030160008b815260200190815260200160002060040160405180608001604052808d60030160008e8152602001908152602001600020600401805490508152602001600860ff168152602001635e35359e8c8c8c8c6040516024016139f79493929190615290565b6040516020818303038152906040529060e01b6020820180517bffffffffffffffffffffffffffffffffffffffffffffffffffffffff838183161783525050505081526020016000151581525090806001815401808255809150506001900390600052602060002090600402016000909190919091506000820151816000015560208201518160010160006101000a81548160ff021916908360ff1602179055506040820151816002019080519060200190613ab4929190614412565b5060608201518160030160006101000a81548160ff02191690831515021790555050508415613b805760018b60030160008c815260200190815260200160002060030160006101000a81548160ff0219169083151502179055507f7306ab933b6e1df1bd2fddce7143eeedd65d5996fada0e9168c4e8c3d1ece94d8b60030160008c815260200190815260200160002060000160009054906101000a900473ffffffffffffffffffffffffffffffffffffffff168b604051613b77929190615373565b60405180910390a15b5050505050505050505050565b85853373ffffffffffffffffffffffffffffffffffffffff1682600301600083815260200190815260200160002060000160009054906101000a900473ffffffffffffffffffffffffffffffffffffffff1673ffffffffffffffffffffffffffffffffffffffff1614613c35576040517f08c379a0000000000000000000000000000000000000000000000000000000008152600401613c2c9061546f565b60405180910390fd5b878781600301600082815260200190815260200160002060030160009054906101000a900460ff16158015613c8d575081600301600082815260200190815260200160002060030160019054906101000a900460ff16155b8015613cbc575081600301600082815260200190815260200160002060030160029054906101000a900460ff16155b613cfb576040517f08c379a0000000000000000000000000000000000000000000000000000000008152600401613cf29061546f565b60405180910390fd5b8960030160008a815260200190815260200160002060040160405180608001604052808c60030160008d8152602001908152602001600020600401805490508152602001600860ff168152602001635e35359e8b8b8b604051602401613d639392919061530c565b6040516020818303038152906040529060e01b6020820180517bffffffffffffffffffffffffffffffffffffffffffffffffffffffff838183161783525050505081526020016000151581525090806001815401808255809150506001900390600052602060002090600402016000909190919091506000820151816000015560208201518160010160006101000a81548160ff021916908360ff1602179055506040820151816002019080519060200190613e20929190614412565b5060608201518160030160006101000a81548160ff02191690831515021790555050508415613eec5760018a60030160008b815260200190815260200160002060030160006101000a81548160ff0219169083151502179055507f7306ab933b6e1df1bd2fddce7143eeedd65d5996fada0e9168c4e8c3d1ece94d8a60030160008b815260200190815260200160002060000160009054906101000a900473ffffffffffffffffffffffffffffffffffffffff168a604051613ee3929190615373565b60405180910390a15b50505050505050505050565b83833373ffffffffffffffffffffffffffffffffffffffff1682600301600083815260200190815260200160002060000160009054906101000a900473ffffffffffffffffffffffffffffffffffffffff1673ffffffffffffffffffffffffffffffffffffffff1614613fa0576040517f08c379a0000000000000000000000000000000000000000000000000000000008152600401613f979061546f565b60405180910390fd5b858581600301600082815260200190815260200160002060030160009054906101000a900460ff16158015613ff8575081600301600082815260200190815260200160002060030160019054906101000a900460ff16155b8015614027575081600301600082815260200190815260200160002060030160029054906101000a900460ff16155b614066576040517f08c379a000000000000000000000000000000000000000000000000000000000815260040161405d9061546f565b60405180910390fd5b87600301600088815260200190815260200160002060040160405180608001604052808a60030160008b8152602001908152602001600020600401805490508152602001600060ff1681526020018881526020016000151581525090806001815401808255809150506001900390600052602060002090600402016000909190919091506000820151816000015560208201518160010160006101000a81548160ff021916908360ff1602179055506040820151816002019080519060200190614131929190614412565b5060608201518160030160006101000a81548160ff021916908315150217905550505084156141fd57600188600301600089815260200190815260200160002060030160006101000a81548160ff0219169083151502179055507f7306ab933b6e1df1bd2fddce7143eeedd65d5996fada0e9168c4e8c3d1ece94d88600301600089815260200190815260200160002060000160009054906101000a900473ffffffffffffffffffffffffffffffffffffffff16886040516141f4929190615373565b60405180910390a15b5050505050505050565b818181600301600082815260200190815260200160002060030160009054906101000a900460ff16801561425e575081600301600082815260200190815260200160002060030160019054906101000a900460ff16155b801561428d575081600301600082815260200190815260200160002060030160029054906101000a900460ff16155b6142cc576040517f08c379a00000000000000000000000000000000000000000000000000000000081526004016142c39061546f565b60405180910390fd5b6000846003016000858152602001908152602001600020905060018160030160026101000a81548160ff02191690831515021790555060005b816004018054905081101561435e57600082600401828154811061432557fe5b9060005260206000209060040201905060018160030160006101000a81548160ff02191690831515021790555050806001019050614305565b5060018160030160016101000a81548160ff0219169083151502179055507fd2c6e52f57352f08a7c9894b122d8440f1d87a7949ba8769fe444bf80b9e7a7e846040516143ab9190615636565b60405180910390a15050505050565b6040518060c00160405280600073ffffffffffffffffffffffffffffffffffffffff1681526020016143ea614492565b8152602001600015158152602001600015158152602001600015158152602001606081525090565b828054600181600116156101000203166002900490600052602060002090601f016020900481019282601f1061445357805160ff1916838001178555614481565b82800160010185558215614481579182015b82811115614480578251825591602001919060010190614465565b5b50905061448e91906144bc565b5090565b604051806060016040528060008019168152602001600060ff168152602001600060ff1681525090565b5b808211156144d55760008160009055506001016144bd565b5090565b6000813590506144e88161588d565b92915050565b6000813590506144fd816158a4565b92915050565b600082601f83011261451457600080fd5b81356145276145228261567e565b615651565b9150818183526020840193506020810190508385608084028201111561454c57600080fd5b60005b8381101561457c57816145628882614658565b84526020840193506080830192505060018101905061454f565b5050505092915050565b600081359050614595816158bb565b92915050565b6000815190506145aa816158bb565b92915050565b6000813590506145bf816158d2565b92915050565b6000813590506145d4816158e9565b92915050565b6000815190506145e9816158e9565b92915050565b6000813590506145fe81615900565b92915050565b600082601f83011261461557600080fd5b8135614628614623826156a6565b615651565b9150808252602083016020830185838301111561464457600080fd5b61464f83828461583a565b50505092915050565b60006080828403121561466a57600080fd5b6146746080615651565b90506000614684848285016144d9565b6000830152506020614698848285016145c5565b60208301525060406146ac848285016146e1565b60408301525060606146c0848285016146e1565b60608301525092915050565b6000813590506146db81615917565b92915050565b6000813590506146f08161592e565b92915050565b6000815190506147058161592e565b92915050565b60006020828403121561471d57600080fd5b600061472b848285016144ee565b91505092915050565b60006020828403121561474657600080fd5b60006147548482850161459b565b91505092915050565b60008060006060848603121561477257600080fd5b6000614780868287016145c5565b9350506020614791868287016146e1565b92505060406147a2868287016146e1565b9150509250925092565b6000806000606084860312156147c157600080fd5b60006147cf868287016145da565b93505060206147e0868287016146f6565b92505060406147f1868287016146f6565b9150509250925092565b60006020828403121561480d57600080fd5b600061481b848285016145ef565b91505092915050565b60006020828403121561483657600080fd5b6000614844848285016146cc565b91505092915050565b60008060008060008060c0878903121561486657600080fd5b600061487489828a016146cc565b965050602061488589828a016144ee565b955050604061489689828a016144d9565b94505060606148a789828a016144d9565b93505060806148b889828a016145b0565b92505060a06148c989828a01614586565b9150509295509295509295565b60008060008060008060c087890312156148ef57600080fd5b60006148fd89828a016146cc565b965050602061490e89828a016144ee565b955050604061491f89828a016144d9565b945050606061493089828a016144d9565b935050608061494189828a016146cc565b92505060a061495289828a01614586565b9150509295509295509295565b6000806000806080858703121561497557600080fd5b6000614983878288016146cc565b9450506020614994878288016144ee565b93505060406149a5878288016144d9565b92505060606149b687828801614586565b91505092959194509250565b600080600080600060a086880312156149da57600080fd5b60006149e8888289016146cc565b95505060206149f9888289016144ee565b9450506040614a0a888289016144d9565b9350506060614a1b888289016145b0565b9250506080614a2c88828901614586565b9150509295509295909350565b600080600080600060a08688031215614a5157600080fd5b6000614a5f888289016146cc565b9550506020614a70888289016144ee565b9450506040614a81888289016144d9565b9350506060614a92888289016146cc565b9250506080614aa388828901614586565b9150509295509295909350565b60008060008060808587031215614ac657600080fd5b6000614ad4878288016146cc565b9450506020614ae5878288016144ee565b935050604085013567ffffffffffffffff811115614b0257600080fd5b614b0e87828801614503565b9250506060614b1f87828801614586565b91505092959194509250565b600080600080600080600080610100898b031215614b4857600080fd5b6000614b568b828c016146cc565b9850506020614b678b828c016144ee565b9750506040614b788b828c016146cc565b9650506060614b898b828c016144ee565b9550506080614b9a8b828c016145c5565b94505060a0614bab8b828c016146e1565b93505060c0614bbc8b828c016146e1565b92505060e0614bcd8b828c01614586565b9150509295985092959890939650565b60008060008060808587031215614bf357600080fd5b6000614c01878288016146cc565b9450506020614c12878288016144ee565b9350506040614c23878288016146cc565b9250506060614c3487828801614586565b91505092959194509250565b60008060408385031215614c5357600080fd5b6000614c61858286016146cc565b9250506020614c7285828601614586565b9150509250929050565b60008060008060808587031215614c9257600080fd5b6000614ca0878288016146cc565b9450506020614cb1878288016145c5565b9350506040614cc2878288016146e1565b9250506060614cd3878288016146e1565b91505092959194509250565b600080600060608486031215614cf457600080fd5b6000614d02868287016146cc565b935050602084013567ffffffffffffffff811115614d1f57600080fd5b614d2b86828701614604565b9250506040614d3c86828701614586565b9150509250925092565b6000614d528383614ff2565b60808301905092915050565b6000614d6a8383615113565b905092915050565b614d7b81615783565b82525050565b614d8a81615783565b82525050565b614d9981615783565b82525050565b614da881615771565b82525050565b614db781615771565b82525050565b6000614dc8826156f2565b614dd2818561572d565b9350614ddd836156d2565b8060005b83811015614e0e578151614df58882614d46565b9750614e0083615713565b925050600181019050614de1565b5085935050505092915050565b6000614e26826156fd565b614e30818561573e565b935083602082028501614e42856156e2565b8060005b85811015614e7e5784840389528151614e5f8582614d5e565b9450614e6a83615720565b925060208a01995050600181019050614e46565b50829750879550505050505092915050565b614e9981615795565b82525050565b614ea881615795565b82525050565b614eb781615795565b82525050565b614ec6816157a1565b82525050565b614ed5816157cd565b82525050565b614ee4816157cd565b82525050565b614ef3816157cd565b82525050565b6000614f0482615708565b614f0e818561574f565b9350614f1e818560208601615849565b614f278161587c565b840191505092915050565b6000614f3f600d83615760565b91507f4f7574206f6620626f756e642e000000000000000000000000000000000000006000830152602082019050919050565b6000614f7f600f83615760565b91507f4e6f7420617574686f72697a65642e00000000000000000000000000000000006000830152602082019050919050565b6000614fbf600e83615760565b91507f4e6f7420617574686f72697a65640000000000000000000000000000000000006000830152602082019050919050565b6080820160008201516150086000850182614d9f565b50602082015161501b6020850182614ecc565b50604082015161502e60408501826151b1565b50606082015161504160608501826151b1565b50505050565b60608201600082015161505d6000850182614ecc565b50602082015161507060208501826151b1565b50604082015161508360408501826151b1565b50505050565b6000610100830160008301516150a26000860182614d72565b5060208301516150b56020860182615047565b5060408301516150c86080860182614e90565b5060608301516150db60a0860182614e90565b5060808301516150ee60c0860182614e90565b5060a083015184820360e08601526151068282614e1b565b9150508091505092915050565b600060808301600083015161512b6000860182615184565b50602083015161513e60208601826151b1565b50604083015184820360408601526151568282614ef9565b915050606083015161516b6060860182614e90565b508091505092915050565b8082525050565b8082525050565b61518d81615823565b82525050565b61519c81615823565b82525050565b6151ab81615823565b82525050565b6151ba8161582d565b82525050565b6151c98161582d565b82525050565b6151d88161582d565b82525050565b60006020820190506151f36000830184614d81565b92915050565b600060408201905061520e6000830185614d81565b61521b6020830184614dae565b9392505050565b60006040820190506152376000830185614d90565b6152446020830184614d90565b9392505050565b60006080820190506152606000830187614d81565b61526d6020830186614dae565b61527a6040830185614dae565b6152876060830184614ebd565b95945050505050565b60006080820190506152a56000830187614d81565b6152b26020830186614dae565b6152bf6040830185614dae565b6152cc6060830184615193565b95945050505050565b60006060820190506152ea6000830186614d81565b6152f76020830185614dae565b6153046040830184614ebd565b949350505050565b60006060820190506153216000830186614d81565b61532e6020830185614dae565b61533b6040830184615193565b949350505050565b60006040820190506153586000830185614d81565b818103602083015261536a8184614dbd565b90509392505050565b60006040820190506153886000830185614d81565b6153956020830184615193565b9392505050565b600060c0820190506153b16000830189614d81565b6153be6020830188615193565b6153cb6040830187614d81565b6153d86060830186614edb565b6153e560808301856151c0565b6153f260a08301846151c0565b979650505050505050565b60006020820190506154126000830184614e9f565b92915050565b600060608201905061542d6000830186614edb565b61543a60208301856151c0565b61544760408301846151c0565b949350505050565b6000602082019050818103600083015261546881614f32565b9050919050565b6000602082019050818103600083015261548881614f72565b9050919050565b600060208201905081810360008301526154a881614fb2565b9050919050565b600060208201905081810360008301526154c98184615089565b905092915050565b60006020820190506154e66000830184615176565b92915050565b60006040820190506155016000830185615176565b61550e6020830184614d90565b9392505050565b600060808201905061552a6000830187615176565b6155376020830186614eea565b61554460408301856151cf565b61555160608301846151cf565b95945050505050565b600060208201905061556f600083018461517d565b92915050565b600060408201905061558a600083018561517d565b6155976020830184614eae565b9392505050565b60006080820190506155b3600083018761517d565b6155c06020830186614eea565b6155cd60408301856151cf565b6155da60608301846151cf565b95945050505050565b600060a0820190506155f8600083018861517d565b61560560208301876151a2565b6156126040830186614eea565b61561f60608301856151cf565b61562c60808301846151cf565b9695505050505050565b600060208201905061564b6000830184615193565b92915050565b6000604051905081810181811067ffffffffffffffff8211171561567457600080fd5b8060405250919050565b600067ffffffffffffffff82111561569557600080fd5b602082029050602081019050919050565b600067ffffffffffffffff8211156156bd57600080fd5b601f19601f8301169050602081019050919050565b6000819050602082019050919050565b6000819050602082019050919050565b600081519050919050565b600081519050919050565b600081519050919050565b6000602082019050919050565b6000602082019050919050565b600082825260208201905092915050565b600082825260208201905092915050565b600082825260208201905092915050565b600082825260208201905092915050565b600061577c82615803565b9050919050565b600061578e82615803565b9050919050565b60008115159050919050565b60007fffff00000000000000000000000000000000000000000000000000000000000082169050919050565b6000819050919050565b60007fffffffff0000000000000000000000000000000000000000000000000000000082169050919050565b600073ffffffffffffffffffffffffffffffffffffffff82169050919050565b6000819050919050565b600060ff82169050919050565b82818337600083830152505050565b60005b8381101561586757808201518184015260208101905061584c565b83811115615876576000848401525b50505050565b6000601f19601f8301169050919050565b61589681615771565b81146158a157600080fd5b50565b6158ad81615783565b81146158b857600080fd5b50565b6158c481615795565b81146158cf57600080fd5b50565b6158db816157a1565b81146158e657600080fd5b50565b6158f2816157cd565b81146158fd57600080fd5b50565b615909816157d7565b811461591457600080fd5b50565b61592081615823565b811461592b57600080fd5b50565b6159378161582d565b811461594257600080fd5b5056fea26469706673582212208e12bc2b2c663c186dd46b5d69e8ff00864c02b08102a8905e6f6ea584c3e97564736f6c634300060c0033",
  "immutableReferences": {},
  "source": "// SPDX-License-Identifier: LGPL-3.0-or-later\npragma solidity ^0.6.0;\npragma experimental ABIEncoderV2;\n\nimport \"../Procedure.sol\";\nimport \"../libraries/VotePropositionLibrary.sol\";\n\n/*\n    Vote Procedure.\n    A Vote Procedure will apply an effect based on the decision of a vote.\n    Votes can be vetoed, and enacted.\n\n    @TODO : Add propositions getter.\n*/\n\ncontract VoteProcedure is Procedure {\n    using VotePropositionLibrary for VotePropositionLibrary.Proposition;\n    bytes4 private constant _INTERFACE_VOTE = 0xc9d27afe; // vote().\n    address payable public votersOrgan;\n    address payable public vetoersOrgan;\n    address payable public enactorsOrgan;\n\n    mapping (uint256 => VotePropositionLibrary.Proposition) internal propositions;\n    uint256 internal propositionsCount;\n\n    constructor (\n        bytes32 _metadataIpfsHash, uint8 _metadataHashFunction, uint8 _metadataHashSize,\n        address payable _votersOrgan, address payable _vetoersOrgan, address payable _enactorsOrgan\n    ) Procedure (_metadataIpfsHash, _metadataHashFunction, _metadataHashSize)\n        public\n    {\n        // Register EIP165 interface for introspection.\n        _registerInterface(_INTERFACE_VOTE);\n        votersOrgan = _votersOrgan;\n        vetoersOrgan = _vetoersOrgan;\n        enactorsOrgan = _enactorsOrgan;\n    }\n\n    function propose(\n        uint256 effectKey, bytes32 ipfsHash, uint8 hashFunction, uint8 hashSize\n    )\n        public returns (uint256 propositionKey)\n    {\n        propositionKey = propositionsCount + 1; // keys start at 1.\n        require(propositionKey > propositionsCount, \"Out of bound.\");\n        propositions[propositionKey].init(effectKey, ipfsHash, hashFunction, hashSize);\n        return propositionsCount++;\n    }\n\n    function vote(uint256 propositionKey, bool approval)\n        public onlyInOrgan(votersOrgan)\n    {\n        propositions[propositionKey].vote(approval);\n    }\n\n    // A veto accepts arguments which defines a motivation as a IPFS multihash.\n    function veto(uint256 propositionKey, bytes32 ipfsHash, uint8 hashFunction, uint8 hashSize)\n        public onlyInOrgan(vetoersOrgan)\n    {\n        propositions[propositionKey].veto(ipfsHash, hashFunction, hashSize);\n    }\n\n    function count(uint256 propositionKey)\n        public view returns (bool)\n    {\n        return propositions[propositionKey].count();\n    }\n\n    function enact(uint256 propositionKey)\n        public onlyInOrgan(enactorsOrgan)\n    {\n        // proposition.count() returns true if enactment is possible.\n        require (propositions[propositionKey].count(), \"Not authorized\");\n        Procedure.applyMove(propositions[propositionKey].moveKey);\n        propositions[propositionKey].enact();\n    }\n}",
  "sourcePath": "/Users/alex/Code/organigr.am/packages/@organigram/contracts/contracts/procedures/Vote.sol",
  "compiler": {
    "name": "solc",
    "version": "0.6.12+commit.27d51765.Emscripten.clang"
  },
  "schemaVersion": "3.3.2",
  "updatedAt": "2020-12-03T01:02:36.148Z",
  "networkType": "ethereum",
  "devdoc": {
    "kind": "dev",
    "methods": {
      "supportsInterface(bytes4)": {
        "details": "See {IERC165-supportsInterface}. Time complexity O(1), guaranteed to always use less than 30 000 gas."
      }
    },
    "version": 1
  },
  "userdoc": {
    "kind": "user",
    "methods": {
      "createMove(bytes32,uint8,uint8)": {
        "notice": "Public API : Moves creation and update."
      },
      "updateMetadata(bytes32,uint8,uint8)": {
        "notice": "Public API : Procedure Metadata and Admin."
      }
    },
    "version": 1
  }
}