{
  "contractName": "VoteProcedure",
  "abi": [
    {
      "inputs": [
        {
          "internalType": "bytes32",
          "name": "_metadataIpfsHash",
          "type": "bytes32"
        },
        {
          "internalType": "uint8",
          "name": "_metadataHashFunction",
          "type": "uint8"
        },
        {
          "internalType": "uint8",
          "name": "_metadataHashSize",
          "type": "uint8"
        },
        {
          "internalType": "address payable",
          "name": "_votersOrgan",
          "type": "address"
        },
        {
          "internalType": "address payable",
          "name": "_vetoersOrgan",
          "type": "address"
        },
        {
          "internalType": "address payable",
          "name": "_enactorsOrgan",
          "type": "address"
        }
      ],
      "stateMutability": "nonpayable",
      "type": "constructor"
    },
    {
      "inputs": [
        {
          "internalType": "bytes32",
          "name": "ipfsHash",
          "type": "bytes32"
        },
        {
          "internalType": "uint8",
          "name": "hashFunction",
          "type": "uint8"
        },
        {
          "internalType": "uint8",
          "name": "hashSize",
          "type": "uint8"
        }
      ],
      "name": "createMove",
      "outputs": [
        {
          "internalType": "uint256",
          "name": "",
          "type": "uint256"
        }
      ],
      "stateMutability": "nonpayable",
      "type": "function"
    },
    {
      "inputs": [],
      "name": "enactorsOrgan",
      "outputs": [
        {
          "internalType": "address payable",
          "name": "",
          "type": "address"
        }
      ],
      "stateMutability": "view",
      "type": "function",
      "constant": true
    },
    {
      "inputs": [],
      "name": "getKelsenData",
      "outputs": [
        {
          "internalType": "bool",
          "name": "",
          "type": "bool"
        },
        {
          "internalType": "bool",
          "name": "",
          "type": "bool"
        },
        {
          "internalType": "uint8",
          "name": "",
          "type": "uint8"
        }
      ],
      "stateMutability": "view",
      "type": "function",
      "constant": true
    },
    {
      "inputs": [],
      "name": "isOrgan",
      "outputs": [
        {
          "internalType": "bool",
          "name": "",
          "type": "bool"
        }
      ],
      "stateMutability": "view",
      "type": "function",
      "constant": true
    },
    {
      "inputs": [],
      "name": "isProcedure",
      "outputs": [
        {
          "internalType": "bool",
          "name": "",
          "type": "bool"
        }
      ],
      "stateMutability": "view",
      "type": "function",
      "constant": true
    },
    {
      "inputs": [],
      "name": "kelsenVersion",
      "outputs": [
        {
          "internalType": "uint8",
          "name": "",
          "type": "uint8"
        }
      ],
      "stateMutability": "view",
      "type": "function",
      "constant": true
    },
    {
      "inputs": [
        {
          "internalType": "uint256",
          "name": "moveKey",
          "type": "uint256"
        }
      ],
      "name": "lockMove",
      "outputs": [],
      "stateMutability": "nonpayable",
      "type": "function"
    },
    {
      "inputs": [
        {
          "internalType": "uint256",
          "name": "moveKey",
          "type": "uint256"
        },
        {
          "internalType": "address payable",
          "name": "organ",
          "type": "address"
        },
        {
          "components": [
            {
              "internalType": "address",
              "name": "addr",
              "type": "address"
            },
            {
              "internalType": "bytes32",
              "name": "ipfsHash",
              "type": "bytes32"
            },
            {
              "internalType": "uint8",
              "name": "hashFunction",
              "type": "uint8"
            },
            {
              "internalType": "uint8",
              "name": "hashSize",
              "type": "uint8"
            }
          ],
          "internalType": "struct OrganLibrary.Entry[]",
          "name": "entries",
          "type": "tuple[]"
        },
        {
          "internalType": "bool",
          "name": "lock",
          "type": "bool"
        }
      ],
      "name": "moveAddEntries",
      "outputs": [],
      "stateMutability": "nonpayable",
      "type": "function"
    },
    {
      "inputs": [
        {
          "internalType": "uint256",
          "name": "moveKey",
          "type": "uint256"
        },
        {
          "internalType": "address payable",
          "name": "organ",
          "type": "address"
        },
        {
          "internalType": "address",
          "name": "procedure",
          "type": "address"
        },
        {
          "internalType": "bytes2",
          "name": "permissions",
          "type": "bytes2"
        },
        {
          "internalType": "bool",
          "name": "lock",
          "type": "bool"
        }
      ],
      "name": "moveAddProcedure",
      "outputs": [],
      "stateMutability": "nonpayable",
      "type": "function"
    },
    {
      "inputs": [
        {
          "internalType": "uint256",
          "name": "moveKey",
          "type": "uint256"
        },
        {
          "internalType": "bytes",
          "name": "call",
          "type": "bytes"
        },
        {
          "internalType": "bool",
          "name": "lock",
          "type": "bool"
        }
      ],
      "name": "moveCall",
      "outputs": [],
      "stateMutability": "nonpayable",
      "type": "function"
    },
    {
      "inputs": [
        {
          "internalType": "uint256",
          "name": "moveKey",
          "type": "uint256"
        },
        {
          "internalType": "address payable",
          "name": "organ",
          "type": "address"
        },
        {
          "internalType": "address",
          "name": "operator",
          "type": "address"
        },
        {
          "internalType": "address",
          "name": "target",
          "type": "address"
        },
        {
          "internalType": "uint256",
          "name": "value",
          "type": "uint256"
        },
        {
          "internalType": "bool",
          "name": "lock",
          "type": "bool"
        }
      ],
      "name": "moveReceiveCoins",
      "outputs": [],
      "stateMutability": "nonpayable",
      "type": "function"
    },
    {
      "inputs": [
        {
          "internalType": "uint256",
          "name": "moveKey",
          "type": "uint256"
        },
        {
          "internalType": "address payable",
          "name": "organ",
          "type": "address"
        },
        {
          "internalType": "address",
          "name": "operator",
          "type": "address"
        },
        {
          "internalType": "address",
          "name": "target",
          "type": "address"
        },
        {
          "internalType": "uint256",
          "name": "token_id",
          "type": "uint256"
        },
        {
          "internalType": "bool",
          "name": "lock",
          "type": "bool"
        }
      ],
      "name": "moveReceiveCollectible",
      "outputs": [],
      "stateMutability": "nonpayable",
      "type": "function"
    },
    {
      "inputs": [
        {
          "internalType": "uint256",
          "name": "moveKey",
          "type": "uint256"
        },
        {
          "internalType": "address payable",
          "name": "organ",
          "type": "address"
        },
        {
          "internalType": "address",
          "name": "target",
          "type": "address"
        },
        {
          "internalType": "uint256",
          "name": "value",
          "type": "uint256"
        },
        {
          "internalType": "bool",
          "name": "lock",
          "type": "bool"
        }
      ],
      "name": "moveReceiveEther",
      "outputs": [],
      "stateMutability": "nonpayable",
      "type": "function"
    },
    {
      "inputs": [
        {
          "internalType": "uint256",
          "name": "moveKey",
          "type": "uint256"
        },
        {
          "internalType": "address payable",
          "name": "organ",
          "type": "address"
        },
        {
          "internalType": "uint256",
          "name": "indexes",
          "type": "uint256"
        },
        {
          "internalType": "bool",
          "name": "lock",
          "type": "bool"
        }
      ],
      "name": "moveRemoveEntry",
      "outputs": [],
      "stateMutability": "nonpayable",
      "type": "function"
    },
    {
      "inputs": [
        {
          "internalType": "uint256",
          "name": "moveKey",
          "type": "uint256"
        },
        {
          "internalType": "address payable",
          "name": "organ",
          "type": "address"
        },
        {
          "internalType": "address",
          "name": "procedure",
          "type": "address"
        },
        {
          "internalType": "bool",
          "name": "lock",
          "type": "bool"
        }
      ],
      "name": "moveRemoveProcedure",
      "outputs": [],
      "stateMutability": "nonpayable",
      "type": "function"
    },
    {
      "inputs": [
        {
          "internalType": "uint256",
          "name": "moveKey",
          "type": "uint256"
        },
        {
          "internalType": "address payable",
          "name": "organ",
          "type": "address"
        },
        {
          "internalType": "uint256",
          "name": "index",
          "type": "uint256"
        },
        {
          "internalType": "address payable",
          "name": "addr",
          "type": "address"
        },
        {
          "internalType": "bytes32",
          "name": "ipfsHash",
          "type": "bytes32"
        },
        {
          "internalType": "uint8",
          "name": "hashFunction",
          "type": "uint8"
        },
        {
          "internalType": "uint8",
          "name": "hashSize",
          "type": "uint8"
        },
        {
          "internalType": "bool",
          "name": "lock",
          "type": "bool"
        }
      ],
      "name": "moveReplaceEntry",
      "outputs": [],
      "stateMutability": "nonpayable",
      "type": "function"
    },
    {
      "inputs": [
        {
          "internalType": "uint256",
          "name": "moveKey",
          "type": "uint256"
        },
        {
          "internalType": "address payable",
          "name": "organ",
          "type": "address"
        },
        {
          "internalType": "address",
          "name": "oldProcedure",
          "type": "address"
        },
        {
          "internalType": "address",
          "name": "newProcedure",
          "type": "address"
        },
        {
          "internalType": "bytes2",
          "name": "permissions",
          "type": "bytes2"
        },
        {
          "internalType": "bool",
          "name": "lock",
          "type": "bool"
        }
      ],
      "name": "moveReplaceProcedure",
      "outputs": [],
      "stateMutability": "nonpayable",
      "type": "function"
    },
    {
      "inputs": [
        {
          "internalType": "uint256",
          "name": "moveKey",
          "type": "uint256"
        },
        {
          "internalType": "address payable",
          "name": "organ",
          "type": "address"
        },
        {
          "internalType": "address",
          "name": "operator",
          "type": "address"
        },
        {
          "internalType": "address",
          "name": "target",
          "type": "address"
        },
        {
          "internalType": "uint256",
          "name": "value",
          "type": "uint256"
        },
        {
          "internalType": "bool",
          "name": "lock",
          "type": "bool"
        }
      ],
      "name": "moveTransferCoins",
      "outputs": [],
      "stateMutability": "nonpayable",
      "type": "function"
    },
    {
      "inputs": [
        {
          "internalType": "uint256",
          "name": "moveKey",
          "type": "uint256"
        },
        {
          "internalType": "address payable",
          "name": "organ",
          "type": "address"
        },
        {
          "internalType": "address",
          "name": "operator",
          "type": "address"
        },
        {
          "internalType": "address",
          "name": "target",
          "type": "address"
        },
        {
          "internalType": "uint256",
          "name": "token_id",
          "type": "uint256"
        },
        {
          "internalType": "bool",
          "name": "lock",
          "type": "bool"
        }
      ],
      "name": "moveTransferCollectible",
      "outputs": [],
      "stateMutability": "nonpayable",
      "type": "function"
    },
    {
      "inputs": [
        {
          "internalType": "uint256",
          "name": "moveKey",
          "type": "uint256"
        },
        {
          "internalType": "address payable",
          "name": "organ",
          "type": "address"
        },
        {
          "internalType": "address",
          "name": "target",
          "type": "address"
        },
        {
          "internalType": "uint256",
          "name": "value",
          "type": "uint256"
        },
        {
          "internalType": "bool",
          "name": "lock",
          "type": "bool"
        }
      ],
      "name": "moveTransferEther",
      "outputs": [],
      "stateMutability": "nonpayable",
      "type": "function"
    },
    {
      "inputs": [
        {
          "internalType": "address payable",
          "name": "admin",
          "type": "address"
        }
      ],
      "name": "updateAdmin",
      "outputs": [],
      "stateMutability": "nonpayable",
      "type": "function"
    },
    {
      "inputs": [
        {
          "internalType": "bytes32",
          "name": "ipfsHash",
          "type": "bytes32"
        },
        {
          "internalType": "uint8",
          "name": "hashFunction",
          "type": "uint8"
        },
        {
          "internalType": "uint8",
          "name": "hashSize",
          "type": "uint8"
        }
      ],
      "name": "updateMetadata",
      "outputs": [],
      "stateMutability": "nonpayable",
      "type": "function"
    },
    {
      "inputs": [],
      "name": "vetoersOrgan",
      "outputs": [
        {
          "internalType": "address payable",
          "name": "",
          "type": "address"
        }
      ],
      "stateMutability": "view",
      "type": "function",
      "constant": true
    },
    {
      "inputs": [],
      "name": "votersOrgan",
      "outputs": [
        {
          "internalType": "address payable",
          "name": "",
          "type": "address"
        }
      ],
      "stateMutability": "view",
      "type": "function",
      "constant": true
    },
    {
      "inputs": [
        {
          "internalType": "uint256",
          "name": "effectKey",
          "type": "uint256"
        },
        {
          "internalType": "bytes32",
          "name": "ipfsHash",
          "type": "bytes32"
        },
        {
          "internalType": "uint8",
          "name": "hashFunction",
          "type": "uint8"
        },
        {
          "internalType": "uint8",
          "name": "hashSize",
          "type": "uint8"
        }
      ],
      "name": "propose",
      "outputs": [
        {
          "internalType": "uint256",
          "name": "propositionKey",
          "type": "uint256"
        }
      ],
      "stateMutability": "nonpayable",
      "type": "function"
    },
    {
      "inputs": [
        {
          "internalType": "uint256",
          "name": "propositionKey",
          "type": "uint256"
        },
        {
          "internalType": "bool",
          "name": "approval",
          "type": "bool"
        }
      ],
      "name": "vote",
      "outputs": [],
      "stateMutability": "nonpayable",
      "type": "function"
    },
    {
      "inputs": [
        {
          "internalType": "uint256",
          "name": "propositionKey",
          "type": "uint256"
        },
        {
          "internalType": "bytes32",
          "name": "ipfsHash",
          "type": "bytes32"
        },
        {
          "internalType": "uint8",
          "name": "hashFunction",
          "type": "uint8"
        },
        {
          "internalType": "uint8",
          "name": "hashSize",
          "type": "uint8"
        }
      ],
      "name": "veto",
      "outputs": [],
      "stateMutability": "nonpayable",
      "type": "function"
    },
    {
      "inputs": [
        {
          "internalType": "uint256",
          "name": "propositionKey",
          "type": "uint256"
        }
      ],
      "name": "count",
      "outputs": [
        {
          "internalType": "bool",
          "name": "",
          "type": "bool"
        }
      ],
      "stateMutability": "view",
      "type": "function",
      "constant": true
    },
    {
      "inputs": [
        {
          "internalType": "uint256",
          "name": "propositionKey",
          "type": "uint256"
        }
      ],
      "name": "enact",
      "outputs": [],
      "stateMutability": "nonpayable",
      "type": "function"
    }
  ],
  "bytecode": "0x608060405260036000806101000a81548160ff021916908360ff1602179055503480156200002c57600080fd5b50604051620055d2380380620055d283398181016040528101906200005291906200021a565b8585856000600181600060016101000a81548160ff02191690831515021790555080600060026101000a81548160ff0219169083151502179055505050600173__ProcedureLibrary______________________63359a395d90918585856040518563ffffffff1660e01b8152600401620000d19493929190620002d9565b60006040518083038186803b158015620000ea57600080fd5b505af4158015620000ff573d6000803e3d6000fd5b5050505050505082600660006101000a81548173ffffffffffffffffffffffffffffffffffffffff021916908373ffffffffffffffffffffffffffffffffffffffff16021790555081600760006101000a81548173ffffffffffffffffffffffffffffffffffffffff021916908373ffffffffffffffffffffffffffffffffffffffff16021790555080600860006101000a81548173ffffffffffffffffffffffffffffffffffffffff021916908373ffffffffffffffffffffffffffffffffffffffff160217905550505050505050620003bf565b600081519050620001e68162000371565b92915050565b600081519050620001fd816200038b565b92915050565b6000815190506200021481620003a5565b92915050565b60008060008060008060c087890312156200023457600080fd5b60006200024489828a01620001ec565b96505060206200025789828a0162000203565b95505060406200026a89828a0162000203565b94505060606200027d89828a01620001d5565b93505060806200029089828a01620001d5565b92505060a0620002a389828a01620001d5565b9150509295509295509295565b620002bb816200033a565b82525050565b8082525050565b620002d38162000364565b82525050565b6000608082019050620002f06000830187620002c1565b620002ff6020830186620002b0565b6200030e6040830185620002c8565b6200031d6060830184620002c8565b95945050505050565b6000620003338262000344565b9050919050565b6000819050919050565b600073ffffffffffffffffffffffffffffffffffffffff82169050919050565b600060ff82169050919050565b6200037c8162000326565b81146200038857600080fd5b50565b62000396816200033a565b8114620003a257600080fd5b50565b620003b08162000364565b8114620003bc57600080fd5b50565b61520380620003cf6000396000f3fe608060405234801561001057600080fd5b50600436106101cf5760003560e01c8063759913d611610104578063c91ebea8116100a2578063d47fc87e11610071578063d47fc87e146104da578063e2f273bd146104f6578063ebb8c34414610512578063fa160aa214610530576101cf565b8063c91ebea814610468578063c9d27afe14610486578063cb6bc9ff146104a2578063cc125031146104be576101cf565b806390f2ee22116100de57806390f2ee22146103e0578063a2b58cda146103fe578063c23c6d461461042e578063c492f4631461044c576101cf565b8063759913d61461038a5780637c3a5fcc146103a85780637ee7fa40146103c4576101cf565b806352c041b2116101715780635e9cc2a91161014b5780635e9cc2a91461031857806362721a4c146103345780636322ab201461035257806367c322d01461036e576101cf565b806352c041b2146102c45780635a31b560146102e05780635ba357dc146102fc576101cf565b80632c1d5337116101ad5780632c1d53371461022c57806339c2ae70146102485780633b3546c814610264578063416a99d114610294576101cf565b80630b5522a9146101d4578063148a2005146101f0578063249abcf71461020c575b600080fd5b6101ee60048036038101906101e99190614566565b61054c565b005b61020a6004803603810190610205919061447a565b61056f565b005b610214610595565b60405161022393929190614d9e565b60405180910390f35b610246600480360381019061024191906143f1565b6105d3565b005b610262600480360381019061025d9190614379565b6105f9565b005b61027e600480360381019061027991906143c8565b61066e565b60405161028b9190614d83565b60405180910390f35b6102ae60048036038101906102a99190614820565b610712565b6040516102bb9190614f7f565b60405180910390f35b6102de60048036038101906102d991906146cf565b6107fe565b005b6102fa60048036038101906102f5919061447a565b61082a565b005b610316600480360381019061031191906143c8565b610850565b005b610332600480360381019061032d91906143c8565b610867565b005b61033c610aca565b6040516103499190614b64565b60405180910390f35b61036c60048036038101906103679190614781565b610af0565b005b61038860048036038101906103839190614503565b610b10565b005b610392610b30565b60405161039f9190614f9a565b60405180910390f35b6103c260048036038101906103bd919061447a565b610b42565b005b6103de60048036038101906103d991906145dd565b610b68565b005b6103e8610b8b565b6040516103f59190614d83565b60405180910390f35b61041860048036038101906104139190614379565b610b9e565b6040516104259190614f7f565b60405180910390f35b610436610bc1565b6040516104439190614b64565b60405180910390f35b61046660048036038101906104619190614654565b610be7565b005b610470610c07565b60405161047d9190614d83565b60405180910390f35b6104a0600480360381019061049b91906147e4565b610c1a565b005b6104bc60048036038101906104b7919061447a565b610d87565b005b6104d860048036038101906104d391906145dd565b610dad565b005b6104f460048036038101906104ef9190614820565b610dd0565b005b610510600480360381019061050b9190614327565b610f43565b005b61051a610fb2565b6040516105279190614b64565b60405180910390f35b61054a60048036038101906105459190614883565b610fd8565b005b61056885858585856001610ff59095949392919063ffffffff16565b5050505050565b61058d8686868686866001611360909695949392919063ffffffff16565b505050505050565b60008060008060019054906101000a900460ff16600060029054906101000a900460ff166000809054906101000a900460ff16925092509250909192565b6105f186868686868660016116ce909695949392919063ffffffff16565b505050505050565b600173__ProcedureLibrary______________________63b8cc9a0290918585856040518563ffffffff1660e01b81526004016106399493929190614e5e565b60006040518083038186803b15801561065157600080fd5b505af4158015610665573d6000803e3d6000fd5b50505050505050565b60006009600083815260200190815260200160002073__VotePropositionLibrary________________6386300da490916040518263ffffffff1660e01b81526004016106bb9190614ea3565b60206040518083038186803b1580156106d357600080fd5b505af41580156106e7573d6000803e3d6000fd5b505050506040513d601f19601f8201168201806040525081019061070b9190614350565b9050919050565b60006001600a54019050600a548111610760576040517f08c379a000000000000000000000000000000000000000000000000000000000815260040161075790614dd5565b60405180910390fd5b6009600082815260200190815260200160002073__VotePropositionLibrary________________639de9d1589091878787876040518663ffffffff1660e01b81526004016107b3959493929190614f2c565b60006040518083038186803b1580156107cb57600080fd5b505af41580156107df573d6000803e3d6000fd5b50505050600a6000815480929190600101919050559050949350505050565b61082088888888888888886001611a3c9098979695949392919063ffffffff16565b5050505050505050565b6108488686868686866001611d7a909695949392919063ffffffff16565b505050505050565b6108648160016120e890919063ffffffff16565b50565b600860009054906101000a900473ffffffffffffffffffffffffffffffffffffffff1673__ProcedureLibrary______________________637c3b86fe82336040518363ffffffff1660e01b81526004016108c3929190614ba8565b60206040518083038186803b1580156108db57600080fd5b505af41580156108ef573d6000803e3d6000fd5b505050506040513d601f19601f820116820180604052508101906109139190614350565b610952576040517f08c379a000000000000000000000000000000000000000000000000000000000815260040161094990614e15565b60405180910390fd5b6009600083815260200190815260200160002073__VotePropositionLibrary________________6386300da490916040518263ffffffff1660e01b815260040161099d9190614ea3565b60206040518083038186803b1580156109b557600080fd5b505af41580156109c9573d6000803e3d6000fd5b505050506040513d601f19601f820116820180604052508101906109ed9190614350565b610a2c576040517f08c379a0000000000000000000000000000000000000000000000000000000008152600401610a2390614e15565b60405180910390fd5b610a4b60096000848152602001908152602001600020600101546122c8565b6009600083815260200190815260200160002073__VotePropositionLibrary________________639acab60390916040518263ffffffff1660e01b8152600401610a969190614ea3565b60006040518083038186803b158015610aae57600080fd5b505af4158015610ac2573d6000803e3d6000fd5b505050505050565b600760009054906101000a900473ffffffffffffffffffffffffffffffffffffffff1681565b610b0a8484848460016122df90949392919063ffffffff16565b50505050565b610b2a84848484600161264790949392919063ffffffff16565b50505050565b6000809054906101000a900460ff1681565b610b6086868686868660016129af909695949392919063ffffffff16565b505050505050565b610b8485858585856001612d1b9095949392919063ffffffff16565b5050505050565b600060019054906101000a900460ff1681565b6000610bb88484846001613086909392919063ffffffff16565b90509392505050565b600660009054906101000a900473ffffffffffffffffffffffffffffffffffffffff1681565b610c0184848484600161318990949392919063ffffffff16565b50505050565b600060029054906101000a900460ff1681565b600660009054906101000a900473ffffffffffffffffffffffffffffffffffffffff1673__ProcedureLibrary______________________637c3b86fe82336040518363ffffffff1660e01b8152600401610c76929190614ba8565b60206040518083038186803b158015610c8e57600080fd5b505af4158015610ca2573d6000803e3d6000fd5b505050506040513d601f19601f82011682018060405250810190610cc69190614350565b610d05576040517f08c379a0000000000000000000000000000000000000000000000000000000008152600401610cfc90614e15565b60405180910390fd5b6009600084815260200190815260200160002073__VotePropositionLibrary________________63d7a389fb9091846040518363ffffffff1660e01b8152600401610d52929190614ebe565b60006040518083038186803b158015610d6a57600080fd5b505af4158015610d7e573d6000803e3d6000fd5b50505050505050565b610da586868686868660016134f1909695949392919063ffffffff16565b505050505050565b610dc98585858585600161385f9095949392919063ffffffff16565b5050505050565b600760009054906101000a900473ffffffffffffffffffffffffffffffffffffffff1673__ProcedureLibrary______________________637c3b86fe82336040518363ffffffff1660e01b8152600401610e2c929190614ba8565b60206040518083038186803b158015610e4457600080fd5b505af4158015610e58573d6000803e3d6000fd5b505050506040513d601f19601f82011682018060405250810190610e7c9190614350565b610ebb576040517f08c379a0000000000000000000000000000000000000000000000000000000008152600401610eb290614e15565b60405180910390fd5b6009600086815260200190815260200160002073__VotePropositionLibrary________________6394974cc790918686866040518563ffffffff1660e01b8152600401610f0c9493929190614ee7565b60006040518083038186803b158015610f2457600080fd5b505af4158015610f38573d6000803e3d6000fd5b505050505050505050565b600173__ProcedureLibrary______________________638e956e929091836040518363ffffffff1660e01b8152600401610f7f929190614e35565b60006040518083038186803b158015610f9757600080fd5b505af4158015610fab573d6000803e3d6000fd5b5050505050565b600860009054906101000a900473ffffffffffffffffffffffffffffffffffffffff1681565b610ff08383836001613bca909392919063ffffffff16565b505050565b85853373ffffffffffffffffffffffffffffffffffffffff1682600301600083815260200190815260200160002060000160009054906101000a900473ffffffffffffffffffffffffffffffffffffffff1673ffffffffffffffffffffffffffffffffffffffff161461109d576040517f08c379a000000000000000000000000000000000000000000000000000000000815260040161109490614df5565b60405180910390fd5b878781600301600082815260200190815260200160002060030160009054906101000a900460ff161580156110f5575081600301600082815260200190815260200160002060030160019054906101000a900460ff16155b8015611124575081600301600082815260200190815260200160002060030160029054906101000a900460ff16155b611163576040517f08c379a000000000000000000000000000000000000000000000000000000000815260040161115a90614df5565b60405180910390fd5b8960030160008a815260200190815260200160002060040160405180608001604052808c60030160008d8152602001908152602001600020600401805490508152602001600460ff1681526020016390b137e98b8b8b6040516024016111cb93929190614c5b565b6040516020818303038152906040529060e01b6020820180517bffffffffffffffffffffffffffffffffffffffffffffffffffffffff838183161783525050505081526020016000151581525090806001815401808255809150506001900390600052602060002090600402016000909190919091506000820151816000015560208201518160010160006101000a81548160ff021916908360ff160217905550604082015181600201908051906020019061128892919061408f565b5060608201518160030160006101000a81548160ff021916908315150217905550505084156113545760018a60030160008b815260200190815260200160002060030160006101000a81548160ff0219169083151502179055507f7306ab933b6e1df1bd2fddce7143eeedd65d5996fada0e9168c4e8c3d1ece94d8a60030160008b815260200190815260200160002060000160009054906101000a900473ffffffffffffffffffffffffffffffffffffffff168a60405161134b929190614cf9565b60405180910390a15b50505050505050505050565b86863373ffffffffffffffffffffffffffffffffffffffff1682600301600083815260200190815260200160002060000160009054906101000a900473ffffffffffffffffffffffffffffffffffffffff1673ffffffffffffffffffffffffffffffffffffffff1614611408576040517f08c379a00000000000000000000000000000000000000000000000000000000081526004016113ff90614df5565b60405180910390fd5b888881600301600082815260200190815260200160002060030160009054906101000a900460ff16158015611460575081600301600082815260200190815260200160002060030160019054906101000a900460ff16155b801561148f575081600301600082815260200190815260200160002060030160029054906101000a900460ff16155b6114ce576040517f08c379a00000000000000000000000000000000000000000000000000000000081526004016114c590614df5565b60405180910390fd5b8a60030160008b815260200190815260200160002060040160405180608001604052808d60030160008e8152602001908152602001600020600401805490508152602001600760ff16815260200163c10753298c8c8c8c6040516024016115389493929190614c16565b6040516020818303038152906040529060e01b6020820180517bffffffffffffffffffffffffffffffffffffffffffffffffffffffff838183161783525050505081526020016000151581525090806001815401808255809150506001900390600052602060002090600402016000909190919091506000820151816000015560208201518160010160006101000a81548160ff021916908360ff16021790555060408201518160020190805190602001906115f592919061408f565b5060608201518160030160006101000a81548160ff021916908315150217905550505084156116c15760018b60030160008c815260200190815260200160002060030160006101000a81548160ff0219169083151502179055507f7306ab933b6e1df1bd2fddce7143eeedd65d5996fada0e9168c4e8c3d1ece94d8b60030160008c815260200190815260200160002060000160009054906101000a900473ffffffffffffffffffffffffffffffffffffffff168b6040516116b8929190614cf9565b60405180910390a15b5050505050505050505050565b86863373ffffffffffffffffffffffffffffffffffffffff1682600301600083815260200190815260200160002060000160009054906101000a900473ffffffffffffffffffffffffffffffffffffffff1673ffffffffffffffffffffffffffffffffffffffff1614611776576040517f08c379a000000000000000000000000000000000000000000000000000000000815260040161176d90614df5565b60405180910390fd5b888881600301600082815260200190815260200160002060030160009054906101000a900460ff161580156117ce575081600301600082815260200190815260200160002060030160019054906101000a900460ff16155b80156117fd575081600301600082815260200190815260200160002060030160029054906101000a900460ff16155b61183c576040517f08c379a000000000000000000000000000000000000000000000000000000000815260040161183390614df5565b60405180910390fd5b8a60030160008b815260200190815260200160002060040160405180608001604052808d60030160008e8152602001908152602001600020600401805490508152602001600660ff168152602001635676c77d8c8c8c8c6040516024016118a69493929190614bd1565b6040516020818303038152906040529060e01b6020820180517bffffffffffffffffffffffffffffffffffffffffffffffffffffffff838183161783525050505081526020016000151581525090806001815401808255809150506001900390600052602060002090600402016000909190919091506000820151816000015560208201518160010160006101000a81548160ff021916908360ff160217905550604082015181600201908051906020019061196392919061408f565b5060608201518160030160006101000a81548160ff02191690831515021790555050508415611a2f5760018b60030160008c815260200190815260200160002060030160006101000a81548160ff0219169083151502179055507f7306ab933b6e1df1bd2fddce7143eeedd65d5996fada0e9168c4e8c3d1ece94d8b60030160008c815260200190815260200160002060000160009054906101000a900473ffffffffffffffffffffffffffffffffffffffff168b604051611a26929190614cf9565b60405180910390a15b5050505050505050505050565b88883373ffffffffffffffffffffffffffffffffffffffff1682600301600083815260200190815260200160002060000160009054906101000a900473ffffffffffffffffffffffffffffffffffffffff1673ffffffffffffffffffffffffffffffffffffffff1614611ae4576040517f08c379a0000000000000000000000000000000000000000000000000000000008152600401611adb90614df5565b60405180910390fd5b8a8a81600301600082815260200190815260200160002060030160009054906101000a900460ff16158015611b3c575081600301600082815260200190815260200160002060030160019054906101000a900460ff16155b8015611b6b575081600301600082815260200190815260200160002060030160029054906101000a900460ff16155b611baa576040517f08c379a0000000000000000000000000000000000000000000000000000000008152600401611ba190614df5565b60405180910390fd5b60008d60030160008e8152602001908152602001600020905080600401604051806080016040528083600401805490508152602001600360ff16815260200163155a73ce8f8f8f8f8f8f604051602401611c0996959493929190614d22565b6040516020818303038152906040529060e01b6020820180517bffffffffffffffffffffffffffffffffffffffffffffffffffffffff838183161783525050505081526020016000151581525090806001815401808255809150506001900390600052602060002090600402016000909190919091506000820151816000015560208201518160010160006101000a81548160ff021916908360ff1602179055506040820151816002019080519060200190611cc692919061408f565b5060608201518160030160006101000a81548160ff02191690831515021790555050508515611d6a5760018160030160006101000a81548160ff0219169083151502179055507f7306ab933b6e1df1bd2fddce7143eeedd65d5996fada0e9168c4e8c3d1ece94d8160000160009054906101000a900473ffffffffffffffffffffffffffffffffffffffff168e604051611d61929190614cf9565b60405180910390a15b5050505050505050505050505050565b86863373ffffffffffffffffffffffffffffffffffffffff1682600301600083815260200190815260200160002060000160009054906101000a900473ffffffffffffffffffffffffffffffffffffffff1673ffffffffffffffffffffffffffffffffffffffff1614611e22576040517f08c379a0000000000000000000000000000000000000000000000000000000008152600401611e1990614df5565b60405180910390fd5b888881600301600082815260200190815260200160002060030160009054906101000a900460ff16158015611e7a575081600301600082815260200190815260200160002060030160019054906101000a900460ff16155b8015611ea9575081600301600082815260200190815260200160002060030160029054906101000a900460ff16155b611ee8576040517f08c379a0000000000000000000000000000000000000000000000000000000008152600401611edf90614df5565b60405180910390fd5b8a60030160008b815260200190815260200160002060040160405180608001604052808d60030160008e8152602001908152602001600020600401805490508152602001600860ff168152602001635e35359e8c8c8c8c604051602401611f529493929190614c16565b6040516020818303038152906040529060e01b6020820180517bffffffffffffffffffffffffffffffffffffffffffffffffffffffff838183161783525050505081526020016000151581525090806001815401808255809150506001900390600052602060002090600402016000909190919091506000820151816000015560208201518160010160006101000a81548160ff021916908360ff160217905550604082015181600201908051906020019061200f92919061408f565b5060608201518160030160006101000a81548160ff021916908315150217905550505084156120db5760018b60030160008c815260200190815260200160002060030160006101000a81548160ff0219169083151502179055507f7306ab933b6e1df1bd2fddce7143eeedd65d5996fada0e9168c4e8c3d1ece94d8b60030160008c815260200190815260200160002060000160009054906101000a900473ffffffffffffffffffffffffffffffffffffffff168b6040516120d2929190614cf9565b60405180910390a15b5050505050505050505050565b81813373ffffffffffffffffffffffffffffffffffffffff1682600301600083815260200190815260200160002060000160009054906101000a900473ffffffffffffffffffffffffffffffffffffffff1673ffffffffffffffffffffffffffffffffffffffff1614612190576040517f08c379a000000000000000000000000000000000000000000000000000000000815260040161218790614df5565b60405180910390fd5b838381600301600082815260200190815260200160002060030160009054906101000a900460ff161580156121e8575081600301600082815260200190815260200160002060030160019054906101000a900460ff16155b8015612217575081600301600082815260200190815260200160002060030160029054906101000a900460ff16155b612256576040517f08c379a000000000000000000000000000000000000000000000000000000000815260040161224d90614df5565b60405180910390fd5b600186600301600087815260200190815260200160002060030160006101000a81548160ff0219169083151502179055507f7306ab933b6e1df1bd2fddce7143eeedd65d5996fada0e9168c4e8c3d1ece94d33866040516122b8929190614cf9565b60405180910390a1505050505050565b6122dc816001613ed990919063ffffffff16565b50565b84843373ffffffffffffffffffffffffffffffffffffffff1682600301600083815260200190815260200160002060000160009054906101000a900473ffffffffffffffffffffffffffffffffffffffff1673ffffffffffffffffffffffffffffffffffffffff1614612387576040517f08c379a000000000000000000000000000000000000000000000000000000000815260040161237e90614df5565b60405180910390fd5b868681600301600082815260200190815260200160002060030160009054906101000a900460ff161580156123df575081600301600082815260200190815260200160002060030160019054906101000a900460ff16155b801561240e575081600301600082815260200190815260200160002060030160029054906101000a900460ff16155b61244d576040517f08c379a000000000000000000000000000000000000000000000000000000000815260040161244490614df5565b60405180910390fd5b88600301600089815260200190815260200160002060040160405180608001604052808b60030160008c8152602001908152602001600020600401805490508152602001600260ff1681526020016376a6411c8a8a6040516024016124b3929190614cf9565b6040516020818303038152906040529060e01b6020820180517bffffffffffffffffffffffffffffffffffffffffffffffffffffffff838183161783525050505081526020016000151581525090806001815401808255809150506001900390600052602060002090600402016000909190919091506000820151816000015560208201518160010160006101000a81548160ff021916908360ff160217905550604082015181600201908051906020019061257092919061408f565b5060608201518160030160006101000a81548160ff0219169083151502179055505050841561263c5760018960030160008a815260200190815260200160002060030160006101000a81548160ff0219169083151502179055507f7306ab933b6e1df1bd2fddce7143eeedd65d5996fada0e9168c4e8c3d1ece94d8960030160008a815260200190815260200160002060000160009054906101000a900473ffffffffffffffffffffffffffffffffffffffff1689604051612633929190614cf9565b60405180910390a15b505050505050505050565b84843373ffffffffffffffffffffffffffffffffffffffff1682600301600083815260200190815260200160002060000160009054906101000a900473ffffffffffffffffffffffffffffffffffffffff1673ffffffffffffffffffffffffffffffffffffffff16146126ef576040517f08c379a00000000000000000000000000000000000000000000000000000000081526004016126e690614df5565b60405180910390fd5b868681600301600082815260200190815260200160002060030160009054906101000a900460ff16158015612747575081600301600082815260200190815260200160002060030160019054906101000a900460ff16155b8015612776575081600301600082815260200190815260200160002060030160029054906101000a900460ff16155b6127b5576040517f08c379a00000000000000000000000000000000000000000000000000000000081526004016127ac90614df5565b60405180910390fd5b88600301600089815260200190815260200160002060040160405180608001604052808b60030160008c8152602001908152602001600020600401805490508152602001600560ff1681526020016319b9404c8a8a60405160240161281b929190614b7f565b6040516020818303038152906040529060e01b6020820180517bffffffffffffffffffffffffffffffffffffffffffffffffffffffff838183161783525050505081526020016000151581525090806001815401808255809150506001900390600052602060002090600402016000909190919091506000820151816000015560208201518160010160006101000a81548160ff021916908360ff16021790555060408201518160020190805190602001906128d892919061408f565b5060608201518160030160006101000a81548160ff021916908315150217905550505084156129a45760018960030160008a815260200190815260200160002060030160006101000a81548160ff0219169083151502179055507f7306ab933b6e1df1bd2fddce7143eeedd65d5996fada0e9168c4e8c3d1ece94d8960030160008a815260200190815260200160002060000160009054906101000a900473ffffffffffffffffffffffffffffffffffffffff168960405161299b929190614cf9565b60405180910390a15b505050505050505050565b86863373ffffffffffffffffffffffffffffffffffffffff1682600301600083815260200190815260200160002060000160009054906101000a900473ffffffffffffffffffffffffffffffffffffffff1673ffffffffffffffffffffffffffffffffffffffff1614612a57576040517f08c379a0000000000000000000000000000000000000000000000000000000008152600401612a4e90614df5565b60405180910390fd5b888881600301600082815260200190815260200160002060030160009054906101000a900460ff16158015612aaf575081600301600082815260200190815260200160002060030160019054906101000a900460ff16155b8015612ade575081600301600082815260200190815260200160002060030160029054906101000a900460ff16155b612b1d576040517f08c379a0000000000000000000000000000000000000000000000000000000008152600401612b1490614df5565b60405180910390fd5b8a60030160008b815260200190815260200160002060040160405180608001604052808d60030160008e8152602001908152602001600020600401805490508152602001600760ff16815260200163c10753298c8c8b604051602401612b8593929190614c92565b6040516020818303038152906040529060e01b6020820180517bffffffffffffffffffffffffffffffffffffffffffffffffffffffff838183161783525050505081526020016000151581525090806001815401808255809150506001900390600052602060002090600402016000909190919091506000820151816000015560208201518160010160006101000a81548160ff021916908360ff1602179055506040820151816002019080519060200190612c4292919061408f565b5060608201518160030160006101000a81548160ff02191690831515021790555050508415612d0e5760018b60030160008c815260200190815260200160002060030160006101000a81548160ff0219169083151502179055507f7306ab933b6e1df1bd2fddce7143eeedd65d5996fada0e9168c4e8c3d1ece94d8b60030160008c815260200190815260200160002060000160009054906101000a900473ffffffffffffffffffffffffffffffffffffffff168b604051612d05929190614cf9565b60405180910390a15b5050505050505050505050565b85853373ffffffffffffffffffffffffffffffffffffffff1682600301600083815260200190815260200160002060000160009054906101000a900473ffffffffffffffffffffffffffffffffffffffff1673ffffffffffffffffffffffffffffffffffffffff1614612dc3576040517f08c379a0000000000000000000000000000000000000000000000000000000008152600401612dba90614df5565b60405180910390fd5b878781600301600082815260200190815260200160002060030160009054906101000a900460ff16158015612e1b575081600301600082815260200190815260200160002060030160019054906101000a900460ff16155b8015612e4a575081600301600082815260200190815260200160002060030160029054906101000a900460ff16155b612e89576040517f08c379a0000000000000000000000000000000000000000000000000000000008152600401612e8090614df5565b60405180910390fd5b8960030160008a815260200190815260200160002060040160405180608001604052808c60030160008d8152602001908152602001600020600401805490508152602001600760ff16815260200163c10753298b8b8b604051602401612ef193929190614c92565b6040516020818303038152906040529060e01b6020820180517bffffffffffffffffffffffffffffffffffffffffffffffffffffffff838183161783525050505081526020016000151581525090806001815401808255809150506001900390600052602060002090600402016000909190919091506000820151816000015560208201518160010160006101000a81548160ff021916908360ff1602179055506040820151816002019080519060200190612fae92919061408f565b5060608201518160030160006101000a81548160ff0219169083151502179055505050841561307a5760018a60030160008b815260200190815260200160002060030160006101000a81548160ff0219169083151502179055507f7306ab933b6e1df1bd2fddce7143eeedd65d5996fada0e9168c4e8c3d1ece94d8a60030160008b815260200190815260200160002060000160009054906101000a900473ffffffffffffffffffffffffffffffffffffffff168a604051613071929190614cf9565b60405180910390a15b50505050505050505050565b6000808560040160008154809291906001019190505590503386600301600083815260200190815260200160002060000160006101000a81548173ffffffffffffffffffffffffffffffffffffffff021916908373ffffffffffffffffffffffffffffffffffffffff16021790555060405180606001604052808681526020018560ff1681526020018460ff168152508660030160008381526020019081526020016000206001016000820151816000015560208201518160010160006101000a81548160ff021916908360ff16021790555060408201518160010160016101000a81548160ff021916908360ff16021790555090505080915050949350505050565b84843373ffffffffffffffffffffffffffffffffffffffff1682600301600083815260200190815260200160002060000160009054906101000a900473ffffffffffffffffffffffffffffffffffffffff1673ffffffffffffffffffffffffffffffffffffffff1614613231576040517f08c379a000000000000000000000000000000000000000000000000000000000815260040161322890614df5565b60405180910390fd5b868681600301600082815260200190815260200160002060030160009054906101000a900460ff16158015613289575081600301600082815260200190815260200160002060030160019054906101000a900460ff16155b80156132b8575081600301600082815260200190815260200160002060030160029054906101000a900460ff16155b6132f7576040517f08c379a00000000000000000000000000000000000000000000000000000000081526004016132ee90614df5565b60405180910390fd5b88600301600089815260200190815260200160002060040160405180608001604052808b60030160008c8152602001908152602001600020600401805490508152602001600160ff168152602001631715f4de8a8a60405160240161335d929190614cc9565b6040516020818303038152906040529060e01b6020820180517bffffffffffffffffffffffffffffffffffffffffffffffffffffffff838183161783525050505081526020016000151581525090806001815401808255809150506001900390600052602060002090600402016000909190919091506000820151816000015560208201518160010160006101000a81548160ff021916908360ff160217905550604082015181600201908051906020019061341a92919061408f565b5060608201518160030160006101000a81548160ff021916908315150217905550505084156134e65760018960030160008a815260200190815260200160002060030160006101000a81548160ff0219169083151502179055507f7306ab933b6e1df1bd2fddce7143eeedd65d5996fada0e9168c4e8c3d1ece94d8960030160008a815260200190815260200160002060000160009054906101000a900473ffffffffffffffffffffffffffffffffffffffff16896040516134dd929190614cf9565b60405180910390a15b505050505050505050565b86863373ffffffffffffffffffffffffffffffffffffffff1682600301600083815260200190815260200160002060000160009054906101000a900473ffffffffffffffffffffffffffffffffffffffff1673ffffffffffffffffffffffffffffffffffffffff1614613599576040517f08c379a000000000000000000000000000000000000000000000000000000000815260040161359090614df5565b60405180910390fd5b888881600301600082815260200190815260200160002060030160009054906101000a900460ff161580156135f1575081600301600082815260200190815260200160002060030160019054906101000a900460ff16155b8015613620575081600301600082815260200190815260200160002060030160029054906101000a900460ff16155b61365f576040517f08c379a000000000000000000000000000000000000000000000000000000000815260040161365690614df5565b60405180910390fd5b8a60030160008b815260200190815260200160002060040160405180608001604052808d60030160008e8152602001908152602001600020600401805490508152602001600860ff168152602001635e35359e8c8c8c8c6040516024016136c99493929190614c16565b6040516020818303038152906040529060e01b6020820180517bffffffffffffffffffffffffffffffffffffffffffffffffffffffff838183161783525050505081526020016000151581525090806001815401808255809150506001900390600052602060002090600402016000909190919091506000820151816000015560208201518160010160006101000a81548160ff021916908360ff160217905550604082015181600201908051906020019061378692919061408f565b5060608201518160030160006101000a81548160ff021916908315150217905550505084156138525760018b60030160008c815260200190815260200160002060030160006101000a81548160ff0219169083151502179055507f7306ab933b6e1df1bd2fddce7143eeedd65d5996fada0e9168c4e8c3d1ece94d8b60030160008c815260200190815260200160002060000160009054906101000a900473ffffffffffffffffffffffffffffffffffffffff168b604051613849929190614cf9565b60405180910390a15b5050505050505050505050565b85853373ffffffffffffffffffffffffffffffffffffffff1682600301600083815260200190815260200160002060000160009054906101000a900473ffffffffffffffffffffffffffffffffffffffff1673ffffffffffffffffffffffffffffffffffffffff1614613907576040517f08c379a00000000000000000000000000000000000000000000000000000000081526004016138fe90614df5565b60405180910390fd5b878781600301600082815260200190815260200160002060030160009054906101000a900460ff1615801561395f575081600301600082815260200190815260200160002060030160019054906101000a900460ff16155b801561398e575081600301600082815260200190815260200160002060030160029054906101000a900460ff16155b6139cd576040517f08c379a00000000000000000000000000000000000000000000000000000000081526004016139c490614df5565b60405180910390fd5b8960030160008a815260200190815260200160002060040160405180608001604052808c60030160008d8152602001908152602001600020600401805490508152602001600860ff168152602001635e35359e8b8b8b604051602401613a3593929190614c92565b6040516020818303038152906040529060e01b6020820180517bffffffffffffffffffffffffffffffffffffffffffffffffffffffff838183161783525050505081526020016000151581525090806001815401808255809150506001900390600052602060002090600402016000909190919091506000820151816000015560208201518160010160006101000a81548160ff021916908360ff1602179055506040820151816002019080519060200190613af292919061408f565b5060608201518160030160006101000a81548160ff02191690831515021790555050508415613bbe5760018a60030160008b815260200190815260200160002060030160006101000a81548160ff0219169083151502179055507f7306ab933b6e1df1bd2fddce7143eeedd65d5996fada0e9168c4e8c3d1ece94d8a60030160008b815260200190815260200160002060000160009054906101000a900473ffffffffffffffffffffffffffffffffffffffff168a604051613bb5929190614cf9565b60405180910390a15b50505050505050505050565b83833373ffffffffffffffffffffffffffffffffffffffff1682600301600083815260200190815260200160002060000160009054906101000a900473ffffffffffffffffffffffffffffffffffffffff1673ffffffffffffffffffffffffffffffffffffffff1614613c72576040517f08c379a0000000000000000000000000000000000000000000000000000000008152600401613c6990614df5565b60405180910390fd5b858581600301600082815260200190815260200160002060030160009054906101000a900460ff16158015613cca575081600301600082815260200190815260200160002060030160019054906101000a900460ff16155b8015613cf9575081600301600082815260200190815260200160002060030160029054906101000a900460ff16155b613d38576040517f08c379a0000000000000000000000000000000000000000000000000000000008152600401613d2f90614df5565b60405180910390fd5b87600301600088815260200190815260200160002060040160405180608001604052808a60030160008b8152602001908152602001600020600401805490508152602001600060ff1681526020018881526020016000151581525090806001815401808255809150506001900390600052602060002090600402016000909190919091506000820151816000015560208201518160010160006101000a81548160ff021916908360ff1602179055506040820151816002019080519060200190613e0392919061408f565b5060608201518160030160006101000a81548160ff02191690831515021790555050508415613ecf57600188600301600089815260200190815260200160002060030160006101000a81548160ff0219169083151502179055507f7306ab933b6e1df1bd2fddce7143eeedd65d5996fada0e9168c4e8c3d1ece94d88600301600089815260200190815260200160002060000160009054906101000a900473ffffffffffffffffffffffffffffffffffffffff1688604051613ec6929190614cf9565b60405180910390a15b5050505050505050565b818181600301600082815260200190815260200160002060030160009054906101000a900460ff168015613f30575081600301600082815260200190815260200160002060030160019054906101000a900460ff16155b8015613f5f575081600301600082815260200190815260200160002060030160029054906101000a900460ff16155b613f9e576040517f08c379a0000000000000000000000000000000000000000000000000000000008152600401613f9590614df5565b60405180910390fd5b6000846003016000858152602001908152602001600020905060018160030160026101000a81548160ff02191690831515021790555060008090505b8160040180549050811015614033576000826004018281548110613ffa57fe5b9060005260206000209060040201905060018160030160006101000a81548160ff02191690831515021790555050806001019050613fda565b5060018160030160016101000a81548160ff0219169083151502179055507fd2c6e52f57352f08a7c9894b122d8440f1d87a7949ba8769fe444bf80b9e7a7e846040516140809190614f7f565b60405180910390a15050505050565b828054600181600116156101000203166002900490600052602060002090601f016020900481019282601f106140d057805160ff19168380011785556140fe565b828001600101855582156140fe579182015b828111156140fd5782518255916020019190600101906140e2565b5b50905061410b919061410f565b5090565b61413191905b8082111561412d576000816000905550600101614115565b5090565b90565b6000813590506141438161512c565b92915050565b60008135905061415881615143565b92915050565b600082601f83011261416f57600080fd5b813561418261417d82614fe2565b614fb5565b915081818352602084019350602081019050838560808402820111156141a757600080fd5b60005b838110156141d757816141bd8882614289565b8452602084019350608083019250506001810190506141aa565b5050505092915050565b6000813590506141f08161515a565b92915050565b6000815190506142058161515a565b92915050565b60008135905061421a81615171565b92915050565b60008135905061422f81615188565b92915050565b600082601f83011261424657600080fd5b81356142596142548261500a565b614fb5565b9150808252602083016020830185838301111561427557600080fd5b61428083828461511d565b50505092915050565b60006080828403121561429b57600080fd5b6142a56080614fb5565b905060006142b584828501614134565b60008301525060206142c984828501614220565b60208301525060406142dd84828501614312565b60408301525060606142f184828501614312565b60608301525092915050565b60008135905061430c8161519f565b92915050565b600081359050614321816151b6565b92915050565b60006020828403121561433957600080fd5b600061434784828501614149565b91505092915050565b60006020828403121561436257600080fd5b6000614370848285016141f6565b91505092915050565b60008060006060848603121561438e57600080fd5b600061439c86828701614220565b93505060206143ad86828701614312565b92505060406143be86828701614312565b9150509250925092565b6000602082840312156143da57600080fd5b60006143e8848285016142fd565b91505092915050565b60008060008060008060c0878903121561440a57600080fd5b600061441889828a016142fd565b965050602061442989828a01614149565b955050604061443a89828a01614134565b945050606061444b89828a01614134565b935050608061445c89828a0161420b565b92505060a061446d89828a016141e1565b9150509295509295509295565b60008060008060008060c0878903121561449357600080fd5b60006144a189828a016142fd565b96505060206144b289828a01614149565b95505060406144c389828a01614134565b94505060606144d489828a01614134565b93505060806144e589828a016142fd565b92505060a06144f689828a016141e1565b9150509295509295509295565b6000806000806080858703121561451957600080fd5b6000614527878288016142fd565b945050602061453887828801614149565b935050604061454987828801614134565b925050606061455a878288016141e1565b91505092959194509250565b600080600080600060a0868803121561457e57600080fd5b600061458c888289016142fd565b955050602061459d88828901614149565b94505060406145ae88828901614134565b93505060606145bf8882890161420b565b92505060806145d0888289016141e1565b9150509295509295909350565b600080600080600060a086880312156145f557600080fd5b6000614603888289016142fd565b955050602061461488828901614149565b945050604061462588828901614134565b9350506060614636888289016142fd565b9250506080614647888289016141e1565b9150509295509295909350565b6000806000806080858703121561466a57600080fd5b6000614678878288016142fd565b945050602061468987828801614149565b935050604085013567ffffffffffffffff8111156146a657600080fd5b6146b28782880161415e565b92505060606146c3878288016141e1565b91505092959194509250565b600080600080600080600080610100898b0312156146ec57600080fd5b60006146fa8b828c016142fd565b985050602061470b8b828c01614149565b975050604061471c8b828c016142fd565b965050606061472d8b828c01614149565b955050608061473e8b828c01614220565b94505060a061474f8b828c01614312565b93505060c06147608b828c01614312565b92505060e06147718b828c016141e1565b9150509295985092959890939650565b6000806000806080858703121561479757600080fd5b60006147a5878288016142fd565b94505060206147b687828801614149565b93505060406147c7878288016142fd565b92505060606147d8878288016141e1565b91505092959194509250565b600080604083850312156147f757600080fd5b6000614805858286016142fd565b9250506020614816858286016141e1565b9150509250929050565b6000806000806080858703121561483657600080fd5b6000614844878288016142fd565b945050602061485587828801614220565b935050604061486687828801614312565b925050606061487787828801614312565b91505092959194509250565b60008060006060848603121561489857600080fd5b60006148a6868287016142fd565b935050602084013567ffffffffffffffff8111156148c357600080fd5b6148cf86828701614235565b92505060406148e0868287016141e1565b9150509250925092565b60006148f68383614ab6565b60808301905092915050565b61490b81615092565b82525050565b61491a81615092565b82525050565b61492981615080565b82525050565b61493881615080565b82525050565b600061494982615046565b614953818561505e565b935061495e83615036565b8060005b8381101561498f57815161497688826148ea565b975061498183615051565b925050600181019050614962565b5085935050505092915050565b6149a5816150a4565b82525050565b6149b4816150a4565b82525050565b6149c3816150b0565b82525050565b6149d2816150dc565b82525050565b6149e1816150dc565b82525050565b6149f0816150dc565b82525050565b6000614a03600d8361506f565b91507f4f7574206f6620626f756e642e000000000000000000000000000000000000006000830152602082019050919050565b6000614a43600f8361506f565b91507f4e6f7420617574686f72697a65642e00000000000000000000000000000000006000830152602082019050919050565b6000614a83600e8361506f565b91507f4e6f7420617574686f72697a65640000000000000000000000000000000000006000830152602082019050919050565b608082016000820151614acc6000850182614920565b506020820151614adf60208501826149c9565b506040820151614af26040850182614b37565b506060820151614b056060850182614b37565b50505050565b8082525050565b8082525050565b614b2281615106565b82525050565b614b3181615106565b82525050565b614b4081615110565b82525050565b614b4f81615110565b82525050565b614b5e81615110565b82525050565b6000602082019050614b796000830184614902565b92915050565b6000604082019050614b946000830185614902565b614ba1602083018461492f565b9392505050565b6000604082019050614bbd6000830185614911565b614bca6020830184614911565b9392505050565b6000608082019050614be66000830187614902565b614bf3602083018661492f565b614c00604083018561492f565b614c0d60608301846149ba565b95945050505050565b6000608082019050614c2b6000830187614902565b614c38602083018661492f565b614c45604083018561492f565b614c526060830184614b19565b95945050505050565b6000606082019050614c706000830186614902565b614c7d602083018561492f565b614c8a60408301846149ba565b949350505050565b6000606082019050614ca76000830186614902565b614cb4602083018561492f565b614cc16040830184614b19565b949350505050565b6000604082019050614cde6000830185614902565b8181036020830152614cf0818461493e565b90509392505050565b6000604082019050614d0e6000830185614902565b614d1b6020830184614b19565b9392505050565b600060c082019050614d376000830189614902565b614d446020830188614b19565b614d516040830187614902565b614d5e60608301866149d8565b614d6b6080830185614b46565b614d7860a0830184614b46565b979650505050505050565b6000602082019050614d98600083018461499c565b92915050565b6000606082019050614db3600083018661499c565b614dc0602083018561499c565b614dcd6040830184614b46565b949350505050565b60006020820190508181036000830152614dee816149f6565b9050919050565b60006020820190508181036000830152614e0e81614a36565b9050919050565b60006020820190508181036000830152614e2e81614a76565b9050919050565b6000604082019050614e4a6000830185614b0b565b614e576020830184614911565b9392505050565b6000608082019050614e736000830187614b0b565b614e8060208301866149e7565b614e8d6040830185614b55565b614e9a6060830184614b55565b95945050505050565b6000602082019050614eb86000830184614b12565b92915050565b6000604082019050614ed36000830185614b12565b614ee060208301846149ab565b9392505050565b6000608082019050614efc6000830187614b12565b614f0960208301866149e7565b614f166040830185614b55565b614f236060830184614b55565b95945050505050565b600060a082019050614f416000830188614b12565b614f4e6020830187614b28565b614f5b60408301866149e7565b614f686060830185614b55565b614f756080830184614b55565b9695505050505050565b6000602082019050614f946000830184614b19565b92915050565b6000602082019050614faf6000830184614b46565b92915050565b6000604051905081810181811067ffffffffffffffff82111715614fd857600080fd5b8060405250919050565b600067ffffffffffffffff821115614ff957600080fd5b602082029050602081019050919050565b600067ffffffffffffffff82111561502157600080fd5b601f19601f8301169050602081019050919050565b6000819050602082019050919050565b600081519050919050565b6000602082019050919050565b600082825260208201905092915050565b600082825260208201905092915050565b600061508b826150e6565b9050919050565b600061509d826150e6565b9050919050565b60008115159050919050565b60007fffff00000000000000000000000000000000000000000000000000000000000082169050919050565b6000819050919050565b600073ffffffffffffffffffffffffffffffffffffffff82169050919050565b6000819050919050565b600060ff82169050919050565b82818337600083830152505050565b61513581615080565b811461514057600080fd5b50565b61514c81615092565b811461515757600080fd5b50565b615163816150a4565b811461516e57600080fd5b50565b61517a816150b0565b811461518557600080fd5b50565b615191816150dc565b811461519c57600080fd5b50565b6151a881615106565b81146151b357600080fd5b50565b6151bf81615110565b81146151ca57600080fd5b5056fea26469706673582212208cfa3a6790adebebe19bed48e8f696085b548eedd429bb92a14f2ebb4ff4205664736f6c63430006080033",
  "immutableReferences": {},
  "source": "// SPDX-License-Identifier: LGPL-3.0-or-later\npragma solidity ^0.6.0;\npragma experimental ABIEncoderV2;\n\nimport \"../Procedure.sol\";\nimport \"../libraries/VotePropositionLibrary.sol\";\n\n/*\n    Vote Procedure.\n    A Vote Procedure will apply an effect based on the decision of a vote.\n    Votes can be vetoed, and enacted.\n\n    @TODO : Add propositions getter.\n*/\n\ncontract VoteProcedure is Procedure {\n    using VotePropositionLibrary for VotePropositionLibrary.Proposition;\n    address payable public votersOrgan;\n    address payable public vetoersOrgan;\n    address payable public enactorsOrgan;\n\n    mapping (uint256 => VotePropositionLibrary.Proposition) internal propositions;\n    uint256 internal propositionsCount;\n\n    constructor (\n        bytes32 _metadataIpfsHash, uint8 _metadataHashFunction, uint8 _metadataHashSize,\n        address payable _votersOrgan, address payable _vetoersOrgan, address payable _enactorsOrgan\n    ) Procedure (_metadataIpfsHash, _metadataHashFunction, _metadataHashSize)\n        public\n    {\n        votersOrgan = _votersOrgan;\n        vetoersOrgan = _vetoersOrgan;\n        enactorsOrgan = _enactorsOrgan;\n    }\n\n    function propose(\n        uint256 effectKey, bytes32 ipfsHash, uint8 hashFunction, uint8 hashSize\n    )\n        public returns (uint256 propositionKey)\n    {\n        propositionKey = propositionsCount + 1; // keys start at 1.\n        require(propositionKey > propositionsCount, \"Out of bound.\");\n        propositions[propositionKey].init(effectKey, ipfsHash, hashFunction, hashSize);\n        return propositionsCount++;\n    }\n\n    function vote(uint256 propositionKey, bool approval)\n        public onlyInOrgan(votersOrgan)\n    {\n        propositions[propositionKey].vote(approval);\n    }\n\n    // A veto accepts arguments which defines a motivation as a IPFS multihash.\n    function veto(uint256 propositionKey, bytes32 ipfsHash, uint8 hashFunction, uint8 hashSize)\n        public onlyInOrgan(vetoersOrgan)\n    {\n        propositions[propositionKey].veto(ipfsHash, hashFunction, hashSize);\n    }\n\n    function count(uint256 propositionKey)\n        public view returns (bool)\n    {\n        return propositions[propositionKey].count();\n    }\n\n    function enact(uint256 propositionKey)\n        public onlyInOrgan(enactorsOrgan)\n    {\n        // proposition.count() returns true if enactment is possible.\n        require (propositions[propositionKey].count(), \"Not authorized\");\n        Procedure.applyMove(propositions[propositionKey].moveKey);\n        propositions[propositionKey].enact();\n    }\n}",
  "sourcePath": "/Users/alex/Code/organigr.am/contracts/contracts/procedures/Vote.sol",
  "compiler": {
    "name": "solc",
    "version": "0.6.8+commit.0bbfe453.Emscripten.clang"
  },
  "schemaVersion": "3.2.4",
  "updatedAt": "2020-09-12T01:16:43.694Z",
  "networkType": "ethereum",
  "devdoc": {
    "methods": {}
  },
  "userdoc": {
    "methods": {
      "createMove(bytes32,uint8,uint8)": {
        "notice": "Public API : Moves creation and update."
      },
      "updateMetadata(bytes32,uint8,uint8)": {
        "notice": "Public API : Procedure Metadata and Admin."
      }
    }
  }
}