{
  "contractName": "VoteProcedure",
  "abi": [
    {
      "inputs": [
        {
          "internalType": "bytes32",
          "name": "_metadataIpfsHash",
          "type": "bytes32"
        },
        {
          "internalType": "uint8",
          "name": "_metadataHashFunction",
          "type": "uint8"
        },
        {
          "internalType": "uint8",
          "name": "_metadataHashSize",
          "type": "uint8"
        },
        {
          "internalType": "address payable",
          "name": "_votersOrgan",
          "type": "address"
        },
        {
          "internalType": "address payable",
          "name": "_vetoersOrgan",
          "type": "address"
        },
        {
          "internalType": "address payable",
          "name": "_enactorsOrgan",
          "type": "address"
        }
      ],
      "stateMutability": "nonpayable",
      "type": "constructor"
    },
    {
      "inputs": [
        {
          "internalType": "bytes32",
          "name": "ipfsHash",
          "type": "bytes32"
        },
        {
          "internalType": "uint8",
          "name": "hashFunction",
          "type": "uint8"
        },
        {
          "internalType": "uint8",
          "name": "hashSize",
          "type": "uint8"
        }
      ],
      "name": "createMove",
      "outputs": [
        {
          "internalType": "uint256",
          "name": "",
          "type": "uint256"
        }
      ],
      "stateMutability": "nonpayable",
      "type": "function"
    },
    {
      "inputs": [],
      "name": "enactorsOrgan",
      "outputs": [
        {
          "internalType": "address payable",
          "name": "",
          "type": "address"
        }
      ],
      "stateMutability": "view",
      "type": "function",
      "constant": true
    },
    {
      "inputs": [],
      "name": "getMetadata",
      "outputs": [
        {
          "internalType": "bytes32",
          "name": "ipfsHash",
          "type": "bytes32"
        },
        {
          "internalType": "uint8",
          "name": "hashFunction",
          "type": "uint8"
        },
        {
          "internalType": "uint8",
          "name": "hashSize",
          "type": "uint8"
        }
      ],
      "stateMutability": "view",
      "type": "function",
      "constant": true
    },
    {
      "inputs": [
        {
          "internalType": "uint256",
          "name": "moveKey",
          "type": "uint256"
        }
      ],
      "name": "getMove",
      "outputs": [
        {
          "components": [
            {
              "internalType": "address payable",
              "name": "creator",
              "type": "address"
            },
            {
              "components": [
                {
                  "internalType": "bytes32",
                  "name": "ipfsHash",
                  "type": "bytes32"
                },
                {
                  "internalType": "uint8",
                  "name": "hashFunction",
                  "type": "uint8"
                },
                {
                  "internalType": "uint8",
                  "name": "hashSize",
                  "type": "uint8"
                }
              ],
              "internalType": "struct ProcedureLibrary.Metadata",
              "name": "metadata",
              "type": "tuple"
            },
            {
              "internalType": "bool",
              "name": "locked",
              "type": "bool"
            },
            {
              "internalType": "bool",
              "name": "applied",
              "type": "bool"
            },
            {
              "internalType": "bool",
              "name": "processing",
              "type": "bool"
            },
            {
              "components": [
                {
                  "internalType": "uint256",
                  "name": "index",
                  "type": "uint256"
                },
                {
                  "internalType": "address payable",
                  "name": "organ",
                  "type": "address"
                },
                {
                  "internalType": "uint256",
                  "name": "value",
                  "type": "uint256"
                },
                {
                  "internalType": "uint8",
                  "name": "operationType",
                  "type": "uint8"
                },
                {
                  "internalType": "bytes",
                  "name": "callData",
                  "type": "bytes"
                },
                {
                  "internalType": "bool",
                  "name": "processed",
                  "type": "bool"
                }
              ],
              "internalType": "struct ProcedureLibrary.Operation[]",
              "name": "operations",
              "type": "tuple[]"
            }
          ],
          "internalType": "struct ProcedureLibrary.Move",
          "name": "move",
          "type": "tuple"
        }
      ],
      "stateMutability": "view",
      "type": "function",
      "constant": true
    },
    {
      "inputs": [],
      "name": "getMovesLength",
      "outputs": [
        {
          "internalType": "uint256",
          "name": "length",
          "type": "uint256"
        }
      ],
      "stateMutability": "view",
      "type": "function",
      "constant": true
    },
    {
      "inputs": [
        {
          "internalType": "uint256",
          "name": "moveKey",
          "type": "uint256"
        }
      ],
      "name": "lockMove",
      "outputs": [],
      "stateMutability": "nonpayable",
      "type": "function"
    },
    {
      "inputs": [
        {
          "internalType": "uint256",
          "name": "moveKey",
          "type": "uint256"
        },
        {
          "internalType": "address payable",
          "name": "organ",
          "type": "address"
        },
        {
          "components": [
            {
              "internalType": "address",
              "name": "addr",
              "type": "address"
            },
            {
              "internalType": "bytes32",
              "name": "ipfsHash",
              "type": "bytes32"
            },
            {
              "internalType": "uint8",
              "name": "hashFunction",
              "type": "uint8"
            },
            {
              "internalType": "uint8",
              "name": "hashSize",
              "type": "uint8"
            }
          ],
          "internalType": "struct OrganLibrary.Entry[]",
          "name": "entries",
          "type": "tuple[]"
        },
        {
          "internalType": "bool",
          "name": "lock",
          "type": "bool"
        }
      ],
      "name": "moveAddEntries",
      "outputs": [],
      "stateMutability": "nonpayable",
      "type": "function"
    },
    {
      "inputs": [
        {
          "internalType": "uint256",
          "name": "moveKey",
          "type": "uint256"
        },
        {
          "internalType": "address payable",
          "name": "organ",
          "type": "address"
        },
        {
          "internalType": "address",
          "name": "procedure",
          "type": "address"
        },
        {
          "internalType": "bytes2",
          "name": "permissions",
          "type": "bytes2"
        },
        {
          "internalType": "bool",
          "name": "lock",
          "type": "bool"
        }
      ],
      "name": "moveAddProcedure",
      "outputs": [],
      "stateMutability": "nonpayable",
      "type": "function"
    },
    {
      "inputs": [
        {
          "internalType": "uint256",
          "name": "moveKey",
          "type": "uint256"
        },
        {
          "internalType": "bytes",
          "name": "call",
          "type": "bytes"
        },
        {
          "internalType": "bool",
          "name": "lock",
          "type": "bool"
        }
      ],
      "name": "moveCall",
      "outputs": [],
      "stateMutability": "nonpayable",
      "type": "function"
    },
    {
      "inputs": [
        {
          "internalType": "uint256",
          "name": "moveKey",
          "type": "uint256"
        },
        {
          "internalType": "address payable",
          "name": "organ",
          "type": "address"
        },
        {
          "internalType": "address",
          "name": "operator",
          "type": "address"
        },
        {
          "internalType": "address",
          "name": "target",
          "type": "address"
        },
        {
          "internalType": "uint256",
          "name": "value",
          "type": "uint256"
        },
        {
          "internalType": "bool",
          "name": "lock",
          "type": "bool"
        }
      ],
      "name": "moveReceiveCoins",
      "outputs": [],
      "stateMutability": "nonpayable",
      "type": "function"
    },
    {
      "inputs": [
        {
          "internalType": "uint256",
          "name": "moveKey",
          "type": "uint256"
        },
        {
          "internalType": "address payable",
          "name": "organ",
          "type": "address"
        },
        {
          "internalType": "address",
          "name": "operator",
          "type": "address"
        },
        {
          "internalType": "address",
          "name": "target",
          "type": "address"
        },
        {
          "internalType": "uint256",
          "name": "token_id",
          "type": "uint256"
        },
        {
          "internalType": "bool",
          "name": "lock",
          "type": "bool"
        }
      ],
      "name": "moveReceiveCollectible",
      "outputs": [],
      "stateMutability": "nonpayable",
      "type": "function"
    },
    {
      "inputs": [
        {
          "internalType": "uint256",
          "name": "moveKey",
          "type": "uint256"
        },
        {
          "internalType": "address payable",
          "name": "organ",
          "type": "address"
        },
        {
          "internalType": "address",
          "name": "target",
          "type": "address"
        },
        {
          "internalType": "uint256",
          "name": "value",
          "type": "uint256"
        },
        {
          "internalType": "bool",
          "name": "lock",
          "type": "bool"
        }
      ],
      "name": "moveReceiveEther",
      "outputs": [],
      "stateMutability": "nonpayable",
      "type": "function"
    },
    {
      "inputs": [
        {
          "internalType": "uint256",
          "name": "moveKey",
          "type": "uint256"
        },
        {
          "internalType": "address payable",
          "name": "organ",
          "type": "address"
        },
        {
          "internalType": "uint256[]",
          "name": "indexes",
          "type": "uint256[]"
        },
        {
          "internalType": "bool",
          "name": "lock",
          "type": "bool"
        }
      ],
      "name": "moveRemoveEntries",
      "outputs": [],
      "stateMutability": "nonpayable",
      "type": "function"
    },
    {
      "inputs": [
        {
          "internalType": "uint256",
          "name": "moveKey",
          "type": "uint256"
        },
        {
          "internalType": "address payable",
          "name": "organ",
          "type": "address"
        },
        {
          "internalType": "address",
          "name": "procedure",
          "type": "address"
        },
        {
          "internalType": "bool",
          "name": "lock",
          "type": "bool"
        }
      ],
      "name": "moveRemoveProcedure",
      "outputs": [],
      "stateMutability": "nonpayable",
      "type": "function"
    },
    {
      "inputs": [
        {
          "internalType": "uint256",
          "name": "moveKey",
          "type": "uint256"
        },
        {
          "internalType": "address payable",
          "name": "organ",
          "type": "address"
        },
        {
          "internalType": "uint256",
          "name": "index",
          "type": "uint256"
        },
        {
          "internalType": "address payable",
          "name": "addr",
          "type": "address"
        },
        {
          "internalType": "bytes32",
          "name": "ipfsHash",
          "type": "bytes32"
        },
        {
          "internalType": "uint8",
          "name": "hashFunction",
          "type": "uint8"
        },
        {
          "internalType": "uint8",
          "name": "hashSize",
          "type": "uint8"
        },
        {
          "internalType": "bool",
          "name": "lock",
          "type": "bool"
        }
      ],
      "name": "moveReplaceEntry",
      "outputs": [],
      "stateMutability": "nonpayable",
      "type": "function"
    },
    {
      "inputs": [
        {
          "internalType": "uint256",
          "name": "moveKey",
          "type": "uint256"
        },
        {
          "internalType": "address payable",
          "name": "organ",
          "type": "address"
        },
        {
          "internalType": "address",
          "name": "oldProcedure",
          "type": "address"
        },
        {
          "internalType": "address",
          "name": "newProcedure",
          "type": "address"
        },
        {
          "internalType": "bytes2",
          "name": "permissions",
          "type": "bytes2"
        },
        {
          "internalType": "bool",
          "name": "lock",
          "type": "bool"
        }
      ],
      "name": "moveReplaceProcedure",
      "outputs": [],
      "stateMutability": "nonpayable",
      "type": "function"
    },
    {
      "inputs": [
        {
          "internalType": "uint256",
          "name": "moveKey",
          "type": "uint256"
        },
        {
          "internalType": "address payable",
          "name": "organ",
          "type": "address"
        },
        {
          "internalType": "address",
          "name": "operator",
          "type": "address"
        },
        {
          "internalType": "address",
          "name": "target",
          "type": "address"
        },
        {
          "internalType": "uint256",
          "name": "value",
          "type": "uint256"
        },
        {
          "internalType": "bool",
          "name": "lock",
          "type": "bool"
        }
      ],
      "name": "moveTransferCoins",
      "outputs": [],
      "stateMutability": "nonpayable",
      "type": "function"
    },
    {
      "inputs": [
        {
          "internalType": "uint256",
          "name": "moveKey",
          "type": "uint256"
        },
        {
          "internalType": "address payable",
          "name": "organ",
          "type": "address"
        },
        {
          "internalType": "address",
          "name": "operator",
          "type": "address"
        },
        {
          "internalType": "address",
          "name": "target",
          "type": "address"
        },
        {
          "internalType": "uint256",
          "name": "token_id",
          "type": "uint256"
        },
        {
          "internalType": "bool",
          "name": "lock",
          "type": "bool"
        }
      ],
      "name": "moveTransferCollectible",
      "outputs": [],
      "stateMutability": "nonpayable",
      "type": "function"
    },
    {
      "inputs": [
        {
          "internalType": "uint256",
          "name": "moveKey",
          "type": "uint256"
        },
        {
          "internalType": "address payable",
          "name": "organ",
          "type": "address"
        },
        {
          "internalType": "address",
          "name": "target",
          "type": "address"
        },
        {
          "internalType": "uint256",
          "name": "value",
          "type": "uint256"
        },
        {
          "internalType": "bool",
          "name": "lock",
          "type": "bool"
        }
      ],
      "name": "moveTransferEther",
      "outputs": [],
      "stateMutability": "nonpayable",
      "type": "function"
    },
    {
      "inputs": [
        {
          "internalType": "bytes4",
          "name": "interfaceId",
          "type": "bytes4"
        }
      ],
      "name": "supportsInterface",
      "outputs": [
        {
          "internalType": "bool",
          "name": "",
          "type": "bool"
        }
      ],
      "stateMutability": "view",
      "type": "function",
      "constant": true
    },
    {
      "inputs": [
        {
          "internalType": "address payable",
          "name": "admin",
          "type": "address"
        }
      ],
      "name": "updateAdmin",
      "outputs": [],
      "stateMutability": "nonpayable",
      "type": "function"
    },
    {
      "inputs": [
        {
          "internalType": "bytes32",
          "name": "ipfsHash",
          "type": "bytes32"
        },
        {
          "internalType": "uint8",
          "name": "hashFunction",
          "type": "uint8"
        },
        {
          "internalType": "uint8",
          "name": "hashSize",
          "type": "uint8"
        }
      ],
      "name": "updateMetadata",
      "outputs": [],
      "stateMutability": "nonpayable",
      "type": "function"
    },
    {
      "inputs": [],
      "name": "vetoersOrgan",
      "outputs": [
        {
          "internalType": "address payable",
          "name": "",
          "type": "address"
        }
      ],
      "stateMutability": "view",
      "type": "function",
      "constant": true
    },
    {
      "inputs": [],
      "name": "votersOrgan",
      "outputs": [
        {
          "internalType": "address payable",
          "name": "",
          "type": "address"
        }
      ],
      "stateMutability": "view",
      "type": "function",
      "constant": true
    },
    {
      "inputs": [
        {
          "internalType": "uint256",
          "name": "moveKey",
          "type": "uint256"
        },
        {
          "internalType": "bool",
          "name": "approval",
          "type": "bool"
        }
      ],
      "name": "vote",
      "outputs": [],
      "stateMutability": "nonpayable",
      "type": "function"
    },
    {
      "inputs": [
        {
          "internalType": "uint256",
          "name": "moveKey",
          "type": "uint256"
        },
        {
          "internalType": "bytes32",
          "name": "ipfsHash",
          "type": "bytes32"
        },
        {
          "internalType": "uint8",
          "name": "hashFunction",
          "type": "uint8"
        },
        {
          "internalType": "uint8",
          "name": "hashSize",
          "type": "uint8"
        }
      ],
      "name": "veto",
      "outputs": [],
      "stateMutability": "nonpayable",
      "type": "function"
    },
    {
      "inputs": [
        {
          "internalType": "uint256",
          "name": "moveKey",
          "type": "uint256"
        }
      ],
      "name": "count",
      "outputs": [
        {
          "internalType": "bool",
          "name": "",
          "type": "bool"
        }
      ],
      "stateMutability": "view",
      "type": "function",
      "constant": true
    },
    {
      "inputs": [
        {
          "internalType": "uint256",
          "name": "moveKey",
          "type": "uint256"
        }
      ],
      "name": "enact",
      "outputs": [],
      "stateMutability": "nonpayable",
      "type": "function"
    }
  ],
  "bytecode": "0x60806040523480156200001157600080fd5b50604051620032fb380380620032fb8339810160408190526200003491620001b7565b858585620000496301ffc9a760e01b6200012c565b6200005b63071dbd3360e41b6200012c565b60405163359a395d60e01b815273__ProcedureLibrary______________________9063359a395d906200009b906001908790879087906004016200026a565b60006040518083038186803b158015620000b457600080fd5b505af4158015620000c9573d6000803e3d6000fd5b50620000e595506364e93d7f60e11b9450506200012c92505050565b600780546001600160a01b039485166001600160a01b031991821617909155600880549385169382169390931790925560098054919093169116179055506200028b915050565b6001600160e01b03198082161415620001625760405162461bcd60e51b8152600401620001599062000233565b60405180910390fd5b6001600160e01b0319166000908152602081905260409020805460ff19166001179055565b80516001600160a01b03811681146200019f57600080fd5b92915050565b805160ff811681146200019f57600080fd5b60008060008060008060c08789031215620001d0578182fd5b86519550620001e38860208901620001a5565b9450620001f48860408901620001a5565b935062000205886060890162000187565b925062000216886080890162000187565b9150620002278860a0890162000187565b90509295509295509295565b6020808252601c908201527f4552433136353a20696e76616c696420696e7465726661636520696400000000604082015260600190565b938452602084019290925260ff908116604084015216606082015260800190565b613060806200029b6000396000f3fe608060405234801561001057600080fd5b50600436106101545760003560e01c806301ffc9a7146101595780630b5522a914610182578063148a2005146101975780632c1d5337146101aa57806339c2ae70146101bd5780633b3546c8146101d05780633e9a9bd8146101e357806352c041b2146101f85780635a31b5601461020b5780635ba357dc1461021e5780635e9cc2a91461023157806362721a4c1461024457806367c322d01461025957806371dbd3301461026c5780637a5b4f591461028c5780637c3a5fcc146102a35780637ee7fa40146102b65780639ad5c792146102c9578063a2b58cda146102dc578063c23c6d46146102ef578063c492f463146102f7578063c9d27afe1461030a578063cb6bc9ff1461020b578063cc1250311461031d578063d47fc87e14610330578063e2f273bd14610343578063ebb8c34414610356578063fa160aa21461035e575b600080fd5b61016c610167366004612592565b610371565b6040516101799190612deb565b60405180910390f35b6101956101903660046126fd565b610390565b005b6101956101a536600461264a565b6103a6565b6101956101b83660046125d2565b6103be565b6101956101cb36600461251a565b6103ce565b61016c6101de3660046125ba565b610441565b6101eb6104db565b6040516101799190612efa565b61019561020636600461297e565b6104e1565b61019561021936600461264a565b6104fd565b61019561022c3660046125ba565b61050d565b61019561023f3660046125ba565b61051b565b61024c610703565b6040516101799190612c79565b6101956102673660046126ab565b610712565b61027f61027a3660046125ba565b610726565b6040516101799190612e60565b6102946108ec565b60405161017993929190612df6565b6101956102b136600461264a565b610986565b6101956102c4366004612764565b610996565b6101956102d73660046128ca565b6109a5565b6101eb6102ea36600461251a565b6109b3565b61024c6109ca565b6101956103053660046127b4565b6109d9565b610195610318366004612a0b565b6109e7565b61019561032b366004612764565b610ae2565b61019561033e366004612a3a565b610af1565b6101956103513660046124db565b610c27565b61024c610c8d565b61019561036c366004612a78565b610c9c565b6001600160e01b03191660009081526020819052604090205460ff1690565b61039f60018686868686610cae565b5050505050565b6103b66001878787878787610f07565b505050505050565b6103b66001878787878787611165565b604051635c664d0160e11b815273__ProcedureLibrary______________________9063b8cc9a029061040c90600190879087908790600401612f1a565b60006040518083038186803b15801561042457600080fd5b505af4158015610438573d6000803e3d6000fd5b50505050505050565b600081815260066020526040808220905163218c036960e21b815273__VotePropositionLibrary________________916386300da4916104859190600401612efa565b60206040518083038186803b15801561049d57600080fd5b505af41580156104b1573d6000803e3d6000fd5b505050506040513d601f19601f820116820180604052508101906104d591906124fe565b92915050565b60055490565b6104f360018989898989898989611288565b5050505050505050565b6103b66001878787878787611500565b610518600182611623565b50565b600954604051633e1dc37f60e11b81526001600160a01b039091169073__ProcedureLibrary______________________90637c3b86fe906105639084903390600401612c8d565b60206040518083038186803b15801561057b57600080fd5b505af415801561058f573d6000803e3d6000fd5b505050506040513d601f19601f820116820180604052508101906105b391906124fe565b6105d85760405162461bcd60e51b81526004016105cf90612e38565b60405180910390fd5b60008281526006602052604090819020905163218c036960e21b815273__VotePropositionLibrary________________916386300da49161061d9190600401612efa565b60206040518083038186803b15801561063557600080fd5b505af4158015610649573d6000803e3d6000fd5b505050506040513d601f19601f8201168201806040525081019061066d91906124fe565b6106895760405162461bcd60e51b81526004016105cf90612e38565b6106928261172f565b600082815260066020526040908190209051639acab60360e01b815273__VotePropositionLibrary________________91639acab603916106d79190600401612efa565b60006040518083038186803b1580156106ef57600080fd5b505af41580156103b6573d6000803e3d6000fd5b6008546001600160a01b031681565b61072060018585858561173a565b50505050565b61072e6123d6565b6000828152600460208181526040808420815160c08101835281546001600160a01b0316815282516060808201855260018401548252600284015460ff80821684890152610100918290048116848801528488019390935260038501548084161515858801529081048316151591840191909152620100009004161515608082015293810180548351818602810186019094528084529495919460a08701949192909184015b828210156108de5760008481526020908190206040805160c08101825260068602909201805483526001808201546001600160a01b03168486015260028083015485850152600383015460ff16606086015260048301805485516101009482161594909402600019011691909104601f810187900487028301870190945283825293949193608086019391929091908301828280156108b45780601f10610889576101008083540402835291602001916108b4565b820191906000526020600020905b81548152906001019060200180831161089757829003601f168201915b50505091835250506005919091015460ff16151560209182015290825260019290920191016107d4565b505050915250909392505050565b6040516341ff658d60e11b81526000908190819073__ProcedureLibrary______________________906383fecb1a9061092b90600190600401612efa565b60606040518083038186803b15801561094357600080fd5b505af4158015610957573d6000803e3d6000fd5b505050506040513d601f19601f8201168201806040525081019061097b919061255b565b925092509250909192565b6103b66001878787878787611991565b61039f60018686868686611ab2565b610720600185858585611bd3565b60006109c26001858585611cf2565b949350505050565b6007546001600160a01b031681565b610720600185858585611d80565b600754604051633e1dc37f60e11b81526001600160a01b039091169073__ProcedureLibrary______________________90637c3b86fe90610a2f9084903390600401612c8d565b60206040518083038186803b158015610a4757600080fd5b505af4158015610a5b573d6000803e3d6000fd5b505050506040513d601f19601f82011682018060405250810190610a7f91906124fe565b610a9b5760405162461bcd60e51b81526004016105cf90612e38565b60008381526006602052604090819020905163d7a389fb60e01b815273__VotePropositionLibrary________________9163d7a389fb9161040c91908690600401612f3b565b61039f60018686868686611e9f565b600854604051633e1dc37f60e11b81526001600160a01b039091169073__ProcedureLibrary______________________90637c3b86fe90610b399084903390600401612c8d565b60206040518083038186803b158015610b5157600080fd5b505af4158015610b65573d6000803e3d6000fd5b505050506040513d601f19601f82011682018060405250810190610b8991906124fe565b610ba55760405162461bcd60e51b81526004016105cf90612e38565b6000858152600660205260409081902090516394974cc760e01b815273__VotePropositionLibrary________________916394974cc791610bf09190889088908890600401612f1a565b60006040518083038186803b158015610c0857600080fd5b505af4158015610c1c573d6000803e3d6000fd5b505050505050505050565b60405163474ab74960e11b815273__ProcedureLibrary______________________90638e956e9290610c61906001908590600401612f03565b60006040518083038186803b158015610c7957600080fd5b505af415801561039f573d6000803e3d6000fd5b6009546001600160a01b031681565b610ca96001848484611fc0565b505050565b6000858152600387016020526040902054869086906001600160a01b03163314610cea5760405162461bcd60e51b81526004016105cf90612e0f565b60008781526003808a01602052604090912001548890889060ff16158015610d2b57506000818152600383810160205260409091200154610100900460ff16155b8015610d515750600081815260038381016020526040909120015462010000900460ff16155b610d6d5760405162461bcd60e51b81526004016105cf90612e0f565b600089815260038b0160209081526040808320815160c0810183526004918201805482526001600160a01b038e1694820194909452808301949094526060840152519091906080820190637f0a4e2790610dcd908c908c90602401612d11565b60408051808303601f190181529181526020808301805160e09590951b6001600160e01b039095169490941790935290835260009282018390528454600180820187559584529282902084516006909402019283558382015194830180546001600160a01b0319166001600160a01b0390961695909517909455928201516002820155606082015160038201805460ff191660ff9092169190911790556080820151805192939192610e85926004850192019061241d565b5060a091909101516005909101805460ff19169115159190911790558415610efb5760008981526003808c01602052604091829020908101805460ff1916600117905554905160008051602061300b83398151915291610ef2916001600160a01b03909116908c90612ca7565b60405180910390a15b50505050505050505050565b6000868152600388016020526040902054879087906001600160a01b03163314610f435760405162461bcd60e51b81526004016105cf90612e0f565b60008881526003808b01602052604090912001548990899060ff16158015610f8457506000818152600383810160205260409091200154610100900460ff16155b8015610faa5750600081815260038381016020526040909120015462010000900460ff16155b610fc65760405162461bcd60e51b81526004016105cf90612e0f565b60008a815260038c0160209081526040808320815160c0810183526004909101805482526001600160a01b038e1693820193909352808201939093526007606084015251909190608082019063c10753299061102a908d908d908d90602401612ced565b60408051808303601f190181529181526020808301805160e09590951b6001600160e01b039095169490941790935290835260009282018390528454600180820187559584529282902084516006909402019283558382015194830180546001600160a01b0319166001600160a01b0390961695909517909455928201516002820155606082015160038201805460ff191660ff90921691909117905560808201518051929391926110e2926004850192019061241d565b5060a091909101516005909101805460ff191691151591909117905584156111585760008a81526003808d01602052604091829020908101805460ff1916600117905554905160008051602061300b8339815191529161114f916001600160a01b03909116908d90612ca7565b60405180910390a15b5050505050505050505050565b6000868152600388016020526040902054879087906001600160a01b031633146111a15760405162461bcd60e51b81526004016105cf90612e0f565b60008881526003808b01602052604090912001548990899060ff161580156111e257506000818152600383810160205260409091200154610100900460ff16155b80156112085750600081815260038381016020526040909120015462010000900460ff16155b6112245760405162461bcd60e51b81526004016105cf90612e0f565b60008a815260038c0160209081526040808320815160c0810183526004909101805482526001600160a01b038e1693820193909352808201939093526006606084015251909190608082019063d0922d4a9061102a908d908d908d90602401612cc0565b600088815260038a016020526040902054899089906001600160a01b031633146112c45760405162461bcd60e51b81526004016105cf90612e0f565b60008a81526003808d01602052604090912001548b908b9060ff1615801561130557506000818152600383810160205260409091200154610100900460ff16155b801561132b5750600081815260038381016020526040909120015462010000900460ff16155b6113475760405162461bcd60e51b81526004016105cf90612e0f565b60008d60030160008e81526020019081526020016000209050806004016040518060c00160405280836004018054905081526020018e6001600160a01b0316815260200160008152602001600360ff1681526020016391bdfe638e8e8e8e8e6040516024016113ba959493929190612f4b565b60408051808303601f190181529181526020808301805160e09590951b6001600160e01b039095169490941790935290835260009282018390528454600180820187559584529282902084516006909402019283558382015194830180546001600160a01b0319166001600160a01b0390961695909517909455928201516002820155606082015160038201805460ff191660ff9092169190911790556080820151805192939192611472926004850192019061241d565b5060a091909101516005909101805460ff191691151591909117905585156114f05760018160030160006101000a81548160ff02191690831515021790555060008051602061300b8339815191528160000160009054906101000a90046001600160a01b03168e6040516114e7929190612ca7565b60405180910390a15b5050505050505050505050505050565b6000868152600388016020526040902054879087906001600160a01b0316331461153c5760405162461bcd60e51b81526004016105cf90612e0f565b60008881526003808b01602052604090912001548990899060ff1615801561157d57506000818152600383810160205260409091200154610100900460ff16155b80156115a35750600081815260038381016020526040909120015462010000900460ff16155b6115bf5760405162461bcd60e51b81526004016105cf90612e0f565b60008a815260038c0160209081526040808320815160c0810183526004909101805482526001600160a01b038e16938201939093528082019390935260086060840152519091906080820190635e35359e9061102a908d908d908d90602401612ced565b6000818152600383016020526040902054829082906001600160a01b0316331461165f5760405162461bcd60e51b81526004016105cf90612e0f565b60008381526003808601602052604090912001548490849060ff161580156116a057506000818152600383810160205260409091200154610100900460ff16155b80156116c65750600081815260038381016020526040909120015462010000900460ff16155b6116e25760405162461bcd60e51b81526004016105cf90612e0f565b6000858152600380880160205260409182902001805460ff191660011790555160008051602061300b8339815191529061171f9033908890612ca7565b60405180910390a1505050505050565b610518600182612217565b6000848152600386016020526040902054859085906001600160a01b031633146117765760405162461bcd60e51b81526004016105cf90612e0f565b60008681526003808901602052604090912001548790879060ff161580156117b757506000818152600383810160205260409091200154610100900460ff16155b80156117dd5750600081815260038381016020526040909120015462010000900460ff16155b6117f95760405162461bcd60e51b81526004016105cf90612e0f565b600088815260038a0160209081526040808320815160c0810183526004909101805482526001600160a01b038c169382019390935280820193909352600560608401525190919060808201906319b9404c90611859908b90602401612c79565b60408051808303601f190181529181526020808301805160e09590951b6001600160e01b039095169490941790935290835260009282018390528454600180820187559584529282902084516006909402019283558382015194830180546001600160a01b0319166001600160a01b0390961695909517909455928201516002820155606082015160038201805460ff191660ff9092169190911790556080820151805192939192611911926004850192019061241d565b5060a091909101516005909101805460ff19169115159190911790558415610c1c5760008881526003808b01602052604091829020908101805460ff1916600117905554905160008051602061300b8339815191529161197e916001600160a01b03909116908b90612ca7565b60405180910390a1505050505050505050565b6000868152600388016020526040902054879087906001600160a01b031633146119cd5760405162461bcd60e51b81526004016105cf90612e0f565b60008881526003808b01602052604090912001548990899060ff16158015611a0e57506000818152600383810160205260409091200154610100900460ff16155b8015611a345750600081815260038381016020526040909120015462010000900460ff16155b611a505760405162461bcd60e51b81526004016105cf90612e0f565b60008a815260038c0160209081526040808320815160c0810183526004909101805482526001600160a01b038e1693820193909352808201939093526007606084015251909190608082019063c10753299061102a908d908c90602401612ca7565b6000858152600387016020526040902054869086906001600160a01b03163314611aee5760405162461bcd60e51b81526004016105cf90612e0f565b60008781526003808a01602052604090912001548890889060ff16158015611b2f57506000818152600383810160205260409091200154610100900460ff16155b8015611b555750600081815260038381016020526040909120015462010000900460ff16155b611b715760405162461bcd60e51b81526004016105cf90612e0f565b600089815260038b0160209081526040808320815160c0810183526004909101805482526001600160a01b038d1693820193909352808201939093526007606084015251909190608082019063c107532990610dcd908c908c90602401612ca7565b6000848152600386016020526040902054859085906001600160a01b03163314611c0f5760405162461bcd60e51b81526004016105cf90612e0f565b60008681526003808901602052604090912001548790879060ff16158015611c5057506000818152600383810160205260409091200154610100900460ff16155b8015611c765750600081815260038381016020526040909120015462010000900460ff16155b611c925760405162461bcd60e51b81526004016105cf90612e0f565b600088815260038a0160209081526040808320815160c0810183526004909101805482526001600160a01b038c16938201939093528082019390935260026060840152519091906080820190637615eb8190611859908b90602401612da7565b6004840180546001808201909255600081815260039096016020818152604080892080546001600160a01b03191633178155815160608101835298895260ff97881689840190815296881691890191825298849052919052945191860191909155905160029094018054935183166101000261ff00199590931660ff19909416939093179390931617905590565b6000848152600386016020526040902054859085906001600160a01b03163314611dbc5760405162461bcd60e51b81526004016105cf90612e0f565b60008681526003808901602052604090912001548790879060ff16158015611dfd57506000818152600383810160205260409091200154610100900460ff16155b8015611e235750600081815260038381016020526040909120015462010000900460ff16155b611e3f5760405162461bcd60e51b81526004016105cf90612e0f565b600088815260038a0160209081526040808320815160c0810183526004909101805482526001600160a01b038c1693820193909352808201939093526001606084015251909190608082019063981d5e7b90611859908b90602401612d34565b6000858152600387016020526040902054869086906001600160a01b03163314611edb5760405162461bcd60e51b81526004016105cf90612e0f565b60008781526003808a01602052604090912001548890889060ff16158015611f1c57506000818152600383810160205260409091200154610100900460ff16155b8015611f425750600081815260038381016020526040909120015462010000900460ff16155b611f5e5760405162461bcd60e51b81526004016105cf90612e0f565b600089815260038b0160209081526040808320815160c0810183526004909101805482526001600160a01b038d16938201939093528082019390935260086060840152519091906080820190635e35359e90610dcd908c908c90602401612ca7565b6000838152600385016020526040902054849084906001600160a01b03163314611ffc5760405162461bcd60e51b81526004016105cf90612e0f565b60008581526003808801602052604090912001548690869060ff1615801561203d57506000818152600383810160205260409091200154610100900460ff16155b80156120635750600081815260038381016020526040909120015462010000900460ff16155b61207f5760405162461bcd60e51b81526004016105cf90612e0f565b8760030160008881526020019081526020016000206004016040518060c001604052808a60030160008b815260200190815260200160002060040180549050815260200160006001600160a01b0316815260200160008152602001600060ff1681526020018881526020016000151581525090806001815401808255809150506001900390600052602060002090600602016000909190919091506000820151816000015560208201518160010160006101000a8154816001600160a01b0302191690836001600160a01b031602179055506040820151816002015560608201518160030160006101000a81548160ff021916908360ff160217905550608082015181600401908051906020019061219892919061241d565b5060a091909101516005909101805460ff191691151591909117905584156104f35760008781526003808a01602052604091829020908101805460ff1916600117905554905160008051602061300b83398151915291612205916001600160a01b03909116908a90612ca7565b60405180910390a15050505050505050565b60008181526003808401602052604090912001548290829060ff16801561225757506000818152600383810160205260409091200154610100900460ff16155b801561227d5750600081815260038381016020526040909120015462010000900460ff16155b6122995760405162461bcd60e51b81526004016105cf90612e0f565b6000838152600380860160205260408220908101805462ff0000191662010000179055905b60048201548110156123855760008260040182815481106122db57fe5b6000918252602090912060069091020160018101549091506001600160a01b03161561236e57600181015460028201546040516001600160a01b0390921691612328906004850190612c09565b60006040518083038185875af1925050503d8060008114612365576040519150601f19603f3d011682016040523d82523d6000602084013e61236a565b606091505b5050505b600501805460ff19166001908117909155016122be565b5060038101805461ff0019166101001790556040517fd2c6e52f57352f08a7c9894b122d8440f1d87a7949ba8769fe444bf80b9e7a7e906123c7908690612efa565b60405180910390a15050505050565b6040518060c0016040528060006001600160a01b031681526020016123f961249b565b81526000602082018190526040820181905260608083019190915260809091015290565b828054600181600116156101000203166002900490600052602060002090601f016020900481019282601f1061245e57805160ff191683800117855561248b565b8280016001018555821561248b579182015b8281111561248b578251825591602001919060010190612470565b506124979291506124bb565b5090565b604080516060810182526000808252602082018190529181019190915290565b5b8082111561249757600081556001016124bc565b80356104d581612fd7565b6000602082840312156124ec578081fd5b81356124f781612fc2565b9392505050565b60006020828403121561250f578081fd5b81516124f781612fd7565b60008060006060848603121561252e578182fd5b83359250602084013561254081612ffb565b9150604084013561255081612ffb565b809150509250925092565b60008060006060848603121561256f578283fd5b83519250602084015161258181612ffb565b604085015190925061255081612ffb565b6000602082840312156125a3578081fd5b81356001600160e01b0319811681146124f7578182fd5b6000602082840312156125cb578081fd5b5035919050565b60008060008060008060c087890312156125ea578182fd5b8635955060208701356125fc81612fc2565b9450604087013561260c81612fc2565b9350606087013561261c81612fc2565b9250608087013561262c81612fe5565b915060a087013561263c81612fd7565b809150509295509295509295565b60008060008060008060c08789031215612662578182fd5b86359550602087013561267481612fc2565b9450604087013561268481612fc2565b9350606087013561269481612fc2565b92506080870135915060a087013561263c81612fd7565b600080600080608085870312156126c0578182fd5b8435935060208501356126d281612fc2565b925060408501356126e281612fc2565b915060608501356126f281612fd7565b939692955090935050565b600080600080600060a08688031215612714578283fd5b85359450602086013561272681612fc2565b9350604086013561273681612fc2565b9250606086013561274681612fe5565b9150608086013561275681612fd7565b809150509295509295909350565b600080600080600060a0868803121561277b578283fd5b85359450602086013561278d81612fc2565b9350604086013561279d81612fc2565b925060608601359150608086013561275681612fd7565b60008060008060808086880312156127ca578283fd5b853594506020808701356127dd81612fc2565b94506040878101356001600160401b038111156127f8578586fd5b8801601f81018a13612808578586fd5b803561281b61281682612fa3565b612f7d565b81815284810190838601878402850187018e101561283757898afd5b8994505b838510156128a75787818f03121561285157898afd5b61285a88612f7d565b813561286581612fc2565b815281880135888201528682013561287c81612ffb565b8188015260608281013561288f81612ffb565b9082015283526001949094019391860191870161283b565b50809850505050505050506128bf86606087016124d0565b905092959194509250565b600080600080608085870312156128df578182fd5b843593506020808601356128f281612fc2565b935060408601356001600160401b0381111561290c578384fd5b8601601f8101881361291c578384fd5b803561292a61281682612fa3565b81815283810190838501858402850186018c1015612946578788fd5b8794505b8385101561296857803583526001949094019391850191850161294a565b5080965050505050506128bf86606087016124d0565b600080600080600080600080610100898b03121561299a578586fd5b8835975060208901356129ac81612fc2565b96506040890135955060608901356129c381612fc2565b94506080890135935060a08901356129da81612ffb565b925060c08901356129ea81612ffb565b915060e08901356129fa81612fd7565b809150509295985092959890939650565b60008060408385031215612a1d578182fd5b823591506020830135612a2f81612fd7565b809150509250929050565b60008060008060808587031215612a4f578182fd5b84359350602085013592506040850135612a6881612ffb565b915060608501356126f281612ffb565b600080600060608486031215612a8c578081fd5b833592506020808501356001600160401b0380821115612aaa578384fd5b818701915087601f830112612abd578384fd5b813581811115612acb578485fd5b612add601f8201601f19168501612f7d565b91508082528884828501011115612af2578485fd5b80848401858401378101909201839052509150612b1285604086016124d0565b90509250925092565b6000815180845260208085019450848183028601828601855b85811015612bef578383038952815180518452858101516001600160a01b0316868501526040808201519085015260608082015160ff169085015260808082015160c091860182905280519186018290528991905b81831015612ba75780830189015187840160e0015291880191612b89565b5080821115612bb9578960e082880101525b60a092830151929150612bce86830184612bfc565b9a87019a601f01601f19169490940160e00193505090840190600101612b34565b5090979650505050505050565b15159052565b60ff169052565b6000808354600180821660008114612c285760018114612c3f57612c6e565b60ff198316865260028304607f1686019350612c6e565b600283048786526020808720875b83811015612c665781548a820152908501908201612c4d565b505050860193505b509195945050505050565b6001600160a01b0391909116815260200190565b6001600160a01b0392831681529116602082015260400190565b6001600160a01b03929092168252602082015260400190565b6001600160a01b0393841681529190921660208201526001600160f01b0319909116604082015260600190565b6001600160a01b039384168152919092166020820152604081019190915260600190565b6001600160a01b039290921682526001600160f01b031916602082015260400190565b602080825282518282018190526000919060409081850190868401855b82811015612d9a57815180516001600160a01b0316855286810151878601528581015160ff90811687870152606091820151169085015260809093019290850190600101612d51565b5091979650505050505050565b6020808252825182820181905260009190848201906040850190845b81811015612ddf57835183529284019291840191600101612dc3565b50909695505050505050565b901515815260200190565b92835260ff918216602084015216604082015260600190565b6020808252600f908201526e2737ba1030baba3437b934bd32b21760891b604082015260600190565b6020808252600e908201526d139bdd08185d5d1a1bdc9a5e995960921b604082015260600190565b602080825282516001600160a01b03168282015282810151805160408401529081015160009190612e946060850182612c02565b5060400151612ea66080840182612c02565b506040830151612eb960a0840182612bfc565b506060830151612ecc60c0840182612bfc565b506080830151612edf60e0840182612bfc565b5060a0830151610100838101526109c2610120840182612b1b565b90815260200190565b9182526001600160a01b0316602082015260400190565b938452602084019290925260ff908116604084015216606082015260800190565b9182521515602082015260400190565b9485526001600160a01b03939093166020850152604084019190915260ff908116606084015216608082015260a00190565b6040518181016001600160401b0381118282101715612f9b57600080fd5b604052919050565b60006001600160401b03821115612fb8578081fd5b5060209081020190565b6001600160a01b038116811461051857600080fd5b801515811461051857600080fd5b6001600160f01b03198116811461051857600080fd5b60ff8116811461051857600080fdfe7306ab933b6e1df1bd2fddce7143eeedd65d5996fada0e9168c4e8c3d1ece94da26469706673582212200bdad537589b31bcd31e325eaa00dcb5facd05274f5aef91aefe7c68119c2bff64736f6c634300060c0033",
  "immutableReferences": {},
  "source": "// SPDX-License-Identifier: LGPL-3.0-or-later\npragma solidity ^0.6.0;\npragma experimental ABIEncoderV2;\n\nimport \"../Procedure.sol\";\nimport \"../libraries/VotePropositionLibrary.sol\";\n\n/*\n    Vote Procedure.\n    A Vote Procedure will apply an effect based on the decision of a vote.\n    Votes can be vetoed, and enacted.\n\n    @TODO : Add propositions getter.\n*/\n\ncontract VoteProcedure is Procedure {\n    using VotePropositionLibrary for VotePropositionLibrary.Proposition;\n    bytes4 private constant _INTERFACE_VOTE = 0xc9d27afe; // vote().\n    // A Proposition is mapped to a locked moved.\n    mapping (uint256 => VotePropositionLibrary.Proposition) internal propositions;\n    address payable public votersOrgan;\n    address payable public vetoersOrgan;\n    address payable public enactorsOrgan;\n\n    constructor (\n        bytes32 _metadataIpfsHash, uint8 _metadataHashFunction, uint8 _metadataHashSize,\n        address payable _votersOrgan, address payable _vetoersOrgan, address payable _enactorsOrgan\n    ) Procedure (_metadataIpfsHash, _metadataHashFunction, _metadataHashSize)\n        public\n    {\n        // Register EIP165 interface for introspection.\n        _registerInterface(_INTERFACE_VOTE);\n        votersOrgan = _votersOrgan;\n        vetoersOrgan = _vetoersOrgan;\n        enactorsOrgan = _enactorsOrgan;\n    }\n\n    function vote(uint256 moveKey, bool approval)\n        public onlyInOrgan(votersOrgan)\n    {\n        propositions[moveKey].vote(approval);\n    }\n\n    // A veto accepts arguments which defines a motivation as a IPFS multihash.\n    function veto(uint256 moveKey, bytes32 ipfsHash, uint8 hashFunction, uint8 hashSize)\n        public onlyInOrgan(vetoersOrgan)\n    {\n        propositions[moveKey].veto(ipfsHash, hashFunction, hashSize);\n    }\n\n    function count(uint256 moveKey)\n        public view returns (bool)\n    {\n        return propositions[moveKey].count();\n    }\n\n    function enact(uint256 moveKey)\n        public onlyInOrgan(enactorsOrgan)\n    {\n        // proposition.count() returns true if enactment is possible.\n        require (propositions[moveKey].count(), \"Not authorized\");\n        Procedure.applyMove(moveKey);\n        propositions[moveKey].enact();\n    }\n}",
  "sourcePath": "/Users/alex/Code/organigr.am/packages/@organigram/contracts/contracts/procedures/Vote.sol",
  "compiler": {
    "name": "solc",
    "version": "0.6.12+commit.27d51765.Emscripten.clang"
  },
  "schemaVersion": "3.3.2",
  "updatedAt": "2020-12-04T21:03:34.425Z",
  "networkType": "ethereum",
  "devdoc": {
    "kind": "dev",
    "methods": {
      "supportsInterface(bytes4)": {
        "details": "See {IERC165-supportsInterface}. Time complexity O(1), guaranteed to always use less than 30 000 gas."
      }
    },
    "version": 1
  },
  "userdoc": {
    "kind": "user",
    "methods": {
      "createMove(bytes32,uint8,uint8)": {
        "notice": "Public API : Moves creation and update."
      },
      "updateMetadata(bytes32,uint8,uint8)": {
        "notice": "Public API : Procedure Metadata and Admin."
      }
    },
    "version": 1
  }
}