{
  "contractName": "VoteProcedure",
  "abi": [
    {
      "inputs": [
        {
          "internalType": "bytes32",
          "name": "_metadataIpfsHash",
          "type": "bytes32"
        },
        {
          "internalType": "uint8",
          "name": "_metadataHashFunction",
          "type": "uint8"
        },
        {
          "internalType": "uint8",
          "name": "_metadataHashSize",
          "type": "uint8"
        },
        {
          "internalType": "address payable",
          "name": "_votersOrgan",
          "type": "address"
        },
        {
          "internalType": "address payable",
          "name": "_vetoersOrgan",
          "type": "address"
        },
        {
          "internalType": "address payable",
          "name": "_enactorsOrgan",
          "type": "address"
        }
      ],
      "stateMutability": "nonpayable",
      "type": "constructor"
    },
    {
      "inputs": [
        {
          "internalType": "bytes32",
          "name": "ipfsHash",
          "type": "bytes32"
        },
        {
          "internalType": "uint8",
          "name": "hashFunction",
          "type": "uint8"
        },
        {
          "internalType": "uint8",
          "name": "hashSize",
          "type": "uint8"
        }
      ],
      "name": "createMove",
      "outputs": [
        {
          "internalType": "uint256",
          "name": "",
          "type": "uint256"
        }
      ],
      "stateMutability": "nonpayable",
      "type": "function"
    },
    {
      "inputs": [],
      "name": "enactorsOrgan",
      "outputs": [
        {
          "internalType": "address payable",
          "name": "",
          "type": "address"
        }
      ],
      "stateMutability": "view",
      "type": "function",
      "constant": true
    },
    {
      "inputs": [],
      "name": "getKelsenData",
      "outputs": [
        {
          "internalType": "bool",
          "name": "",
          "type": "bool"
        },
        {
          "internalType": "bool",
          "name": "",
          "type": "bool"
        },
        {
          "internalType": "uint8",
          "name": "",
          "type": "uint8"
        }
      ],
      "stateMutability": "view",
      "type": "function",
      "constant": true
    },
    {
      "inputs": [],
      "name": "getMetadata",
      "outputs": [
        {
          "internalType": "bytes32",
          "name": "ipfsHash",
          "type": "bytes32"
        },
        {
          "internalType": "uint8",
          "name": "hashFunction",
          "type": "uint8"
        },
        {
          "internalType": "uint8",
          "name": "hashSize",
          "type": "uint8"
        }
      ],
      "stateMutability": "view",
      "type": "function",
      "constant": true
    },
    {
      "inputs": [
        {
          "internalType": "uint256",
          "name": "moveKey",
          "type": "uint256"
        }
      ],
      "name": "getMove",
      "outputs": [
        {
          "components": [
            {
              "internalType": "address payable",
              "name": "creator",
              "type": "address"
            },
            {
              "components": [
                {
                  "internalType": "bytes32",
                  "name": "ipfsHash",
                  "type": "bytes32"
                },
                {
                  "internalType": "uint8",
                  "name": "hashFunction",
                  "type": "uint8"
                },
                {
                  "internalType": "uint8",
                  "name": "hashSize",
                  "type": "uint8"
                }
              ],
              "internalType": "struct ProcedureLibrary.Metadata",
              "name": "metadata",
              "type": "tuple"
            },
            {
              "internalType": "bool",
              "name": "locked",
              "type": "bool"
            },
            {
              "internalType": "bool",
              "name": "applied",
              "type": "bool"
            },
            {
              "internalType": "bool",
              "name": "processing",
              "type": "bool"
            },
            {
              "components": [
                {
                  "internalType": "uint256",
                  "name": "index",
                  "type": "uint256"
                },
                {
                  "internalType": "uint8",
                  "name": "operationType",
                  "type": "uint8"
                },
                {
                  "internalType": "bytes",
                  "name": "call",
                  "type": "bytes"
                },
                {
                  "internalType": "bool",
                  "name": "processed",
                  "type": "bool"
                }
              ],
              "internalType": "struct ProcedureLibrary.Operation[]",
              "name": "operations",
              "type": "tuple[]"
            }
          ],
          "internalType": "struct ProcedureLibrary.Move",
          "name": "move",
          "type": "tuple"
        }
      ],
      "stateMutability": "view",
      "type": "function",
      "constant": true
    },
    {
      "inputs": [],
      "name": "getMovesLength",
      "outputs": [
        {
          "internalType": "uint256",
          "name": "length",
          "type": "uint256"
        }
      ],
      "stateMutability": "view",
      "type": "function",
      "constant": true
    },
    {
      "inputs": [],
      "name": "isOrgan",
      "outputs": [
        {
          "internalType": "bool",
          "name": "",
          "type": "bool"
        }
      ],
      "stateMutability": "view",
      "type": "function",
      "constant": true
    },
    {
      "inputs": [],
      "name": "isProcedure",
      "outputs": [
        {
          "internalType": "bool",
          "name": "",
          "type": "bool"
        }
      ],
      "stateMutability": "view",
      "type": "function",
      "constant": true
    },
    {
      "inputs": [],
      "name": "kelsenVersion",
      "outputs": [
        {
          "internalType": "uint8",
          "name": "",
          "type": "uint8"
        }
      ],
      "stateMutability": "view",
      "type": "function",
      "constant": true
    },
    {
      "inputs": [
        {
          "internalType": "uint256",
          "name": "moveKey",
          "type": "uint256"
        }
      ],
      "name": "lockMove",
      "outputs": [],
      "stateMutability": "nonpayable",
      "type": "function"
    },
    {
      "inputs": [
        {
          "internalType": "uint256",
          "name": "moveKey",
          "type": "uint256"
        },
        {
          "internalType": "address payable",
          "name": "organ",
          "type": "address"
        },
        {
          "components": [
            {
              "internalType": "address",
              "name": "addr",
              "type": "address"
            },
            {
              "internalType": "bytes32",
              "name": "ipfsHash",
              "type": "bytes32"
            },
            {
              "internalType": "uint8",
              "name": "hashFunction",
              "type": "uint8"
            },
            {
              "internalType": "uint8",
              "name": "hashSize",
              "type": "uint8"
            }
          ],
          "internalType": "struct OrganLibrary.Entry[]",
          "name": "entries",
          "type": "tuple[]"
        },
        {
          "internalType": "bool",
          "name": "lock",
          "type": "bool"
        }
      ],
      "name": "moveAddEntries",
      "outputs": [],
      "stateMutability": "nonpayable",
      "type": "function"
    },
    {
      "inputs": [
        {
          "internalType": "uint256",
          "name": "moveKey",
          "type": "uint256"
        },
        {
          "internalType": "address payable",
          "name": "organ",
          "type": "address"
        },
        {
          "internalType": "address",
          "name": "procedure",
          "type": "address"
        },
        {
          "internalType": "bytes2",
          "name": "permissions",
          "type": "bytes2"
        },
        {
          "internalType": "bool",
          "name": "lock",
          "type": "bool"
        }
      ],
      "name": "moveAddProcedure",
      "outputs": [],
      "stateMutability": "nonpayable",
      "type": "function"
    },
    {
      "inputs": [
        {
          "internalType": "uint256",
          "name": "moveKey",
          "type": "uint256"
        },
        {
          "internalType": "bytes",
          "name": "call",
          "type": "bytes"
        },
        {
          "internalType": "bool",
          "name": "lock",
          "type": "bool"
        }
      ],
      "name": "moveCall",
      "outputs": [],
      "stateMutability": "nonpayable",
      "type": "function"
    },
    {
      "inputs": [
        {
          "internalType": "uint256",
          "name": "moveKey",
          "type": "uint256"
        },
        {
          "internalType": "address payable",
          "name": "organ",
          "type": "address"
        },
        {
          "internalType": "address",
          "name": "operator",
          "type": "address"
        },
        {
          "internalType": "address",
          "name": "target",
          "type": "address"
        },
        {
          "internalType": "uint256",
          "name": "value",
          "type": "uint256"
        },
        {
          "internalType": "bool",
          "name": "lock",
          "type": "bool"
        }
      ],
      "name": "moveReceiveCoins",
      "outputs": [],
      "stateMutability": "nonpayable",
      "type": "function"
    },
    {
      "inputs": [
        {
          "internalType": "uint256",
          "name": "moveKey",
          "type": "uint256"
        },
        {
          "internalType": "address payable",
          "name": "organ",
          "type": "address"
        },
        {
          "internalType": "address",
          "name": "operator",
          "type": "address"
        },
        {
          "internalType": "address",
          "name": "target",
          "type": "address"
        },
        {
          "internalType": "uint256",
          "name": "token_id",
          "type": "uint256"
        },
        {
          "internalType": "bool",
          "name": "lock",
          "type": "bool"
        }
      ],
      "name": "moveReceiveCollectible",
      "outputs": [],
      "stateMutability": "nonpayable",
      "type": "function"
    },
    {
      "inputs": [
        {
          "internalType": "uint256",
          "name": "moveKey",
          "type": "uint256"
        },
        {
          "internalType": "address payable",
          "name": "organ",
          "type": "address"
        },
        {
          "internalType": "address",
          "name": "target",
          "type": "address"
        },
        {
          "internalType": "uint256",
          "name": "value",
          "type": "uint256"
        },
        {
          "internalType": "bool",
          "name": "lock",
          "type": "bool"
        }
      ],
      "name": "moveReceiveEther",
      "outputs": [],
      "stateMutability": "nonpayable",
      "type": "function"
    },
    {
      "inputs": [
        {
          "internalType": "uint256",
          "name": "moveKey",
          "type": "uint256"
        },
        {
          "internalType": "address payable",
          "name": "organ",
          "type": "address"
        },
        {
          "internalType": "uint256",
          "name": "indexes",
          "type": "uint256"
        },
        {
          "internalType": "bool",
          "name": "lock",
          "type": "bool"
        }
      ],
      "name": "moveRemoveEntry",
      "outputs": [],
      "stateMutability": "nonpayable",
      "type": "function"
    },
    {
      "inputs": [
        {
          "internalType": "uint256",
          "name": "moveKey",
          "type": "uint256"
        },
        {
          "internalType": "address payable",
          "name": "organ",
          "type": "address"
        },
        {
          "internalType": "address",
          "name": "procedure",
          "type": "address"
        },
        {
          "internalType": "bool",
          "name": "lock",
          "type": "bool"
        }
      ],
      "name": "moveRemoveProcedure",
      "outputs": [],
      "stateMutability": "nonpayable",
      "type": "function"
    },
    {
      "inputs": [
        {
          "internalType": "uint256",
          "name": "moveKey",
          "type": "uint256"
        },
        {
          "internalType": "address payable",
          "name": "organ",
          "type": "address"
        },
        {
          "internalType": "uint256",
          "name": "index",
          "type": "uint256"
        },
        {
          "internalType": "address payable",
          "name": "addr",
          "type": "address"
        },
        {
          "internalType": "bytes32",
          "name": "ipfsHash",
          "type": "bytes32"
        },
        {
          "internalType": "uint8",
          "name": "hashFunction",
          "type": "uint8"
        },
        {
          "internalType": "uint8",
          "name": "hashSize",
          "type": "uint8"
        },
        {
          "internalType": "bool",
          "name": "lock",
          "type": "bool"
        }
      ],
      "name": "moveReplaceEntry",
      "outputs": [],
      "stateMutability": "nonpayable",
      "type": "function"
    },
    {
      "inputs": [
        {
          "internalType": "uint256",
          "name": "moveKey",
          "type": "uint256"
        },
        {
          "internalType": "address payable",
          "name": "organ",
          "type": "address"
        },
        {
          "internalType": "address",
          "name": "oldProcedure",
          "type": "address"
        },
        {
          "internalType": "address",
          "name": "newProcedure",
          "type": "address"
        },
        {
          "internalType": "bytes2",
          "name": "permissions",
          "type": "bytes2"
        },
        {
          "internalType": "bool",
          "name": "lock",
          "type": "bool"
        }
      ],
      "name": "moveReplaceProcedure",
      "outputs": [],
      "stateMutability": "nonpayable",
      "type": "function"
    },
    {
      "inputs": [
        {
          "internalType": "uint256",
          "name": "moveKey",
          "type": "uint256"
        },
        {
          "internalType": "address payable",
          "name": "organ",
          "type": "address"
        },
        {
          "internalType": "address",
          "name": "operator",
          "type": "address"
        },
        {
          "internalType": "address",
          "name": "target",
          "type": "address"
        },
        {
          "internalType": "uint256",
          "name": "value",
          "type": "uint256"
        },
        {
          "internalType": "bool",
          "name": "lock",
          "type": "bool"
        }
      ],
      "name": "moveTransferCoins",
      "outputs": [],
      "stateMutability": "nonpayable",
      "type": "function"
    },
    {
      "inputs": [
        {
          "internalType": "uint256",
          "name": "moveKey",
          "type": "uint256"
        },
        {
          "internalType": "address payable",
          "name": "organ",
          "type": "address"
        },
        {
          "internalType": "address",
          "name": "operator",
          "type": "address"
        },
        {
          "internalType": "address",
          "name": "target",
          "type": "address"
        },
        {
          "internalType": "uint256",
          "name": "token_id",
          "type": "uint256"
        },
        {
          "internalType": "bool",
          "name": "lock",
          "type": "bool"
        }
      ],
      "name": "moveTransferCollectible",
      "outputs": [],
      "stateMutability": "nonpayable",
      "type": "function"
    },
    {
      "inputs": [
        {
          "internalType": "uint256",
          "name": "moveKey",
          "type": "uint256"
        },
        {
          "internalType": "address payable",
          "name": "organ",
          "type": "address"
        },
        {
          "internalType": "address",
          "name": "target",
          "type": "address"
        },
        {
          "internalType": "uint256",
          "name": "value",
          "type": "uint256"
        },
        {
          "internalType": "bool",
          "name": "lock",
          "type": "bool"
        }
      ],
      "name": "moveTransferEther",
      "outputs": [],
      "stateMutability": "nonpayable",
      "type": "function"
    },
    {
      "inputs": [
        {
          "internalType": "address payable",
          "name": "admin",
          "type": "address"
        }
      ],
      "name": "updateAdmin",
      "outputs": [],
      "stateMutability": "nonpayable",
      "type": "function"
    },
    {
      "inputs": [
        {
          "internalType": "bytes32",
          "name": "ipfsHash",
          "type": "bytes32"
        },
        {
          "internalType": "uint8",
          "name": "hashFunction",
          "type": "uint8"
        },
        {
          "internalType": "uint8",
          "name": "hashSize",
          "type": "uint8"
        }
      ],
      "name": "updateMetadata",
      "outputs": [],
      "stateMutability": "nonpayable",
      "type": "function"
    },
    {
      "inputs": [],
      "name": "vetoersOrgan",
      "outputs": [
        {
          "internalType": "address payable",
          "name": "",
          "type": "address"
        }
      ],
      "stateMutability": "view",
      "type": "function",
      "constant": true
    },
    {
      "inputs": [],
      "name": "votersOrgan",
      "outputs": [
        {
          "internalType": "address payable",
          "name": "",
          "type": "address"
        }
      ],
      "stateMutability": "view",
      "type": "function",
      "constant": true
    },
    {
      "inputs": [
        {
          "internalType": "uint256",
          "name": "effectKey",
          "type": "uint256"
        },
        {
          "internalType": "bytes32",
          "name": "ipfsHash",
          "type": "bytes32"
        },
        {
          "internalType": "uint8",
          "name": "hashFunction",
          "type": "uint8"
        },
        {
          "internalType": "uint8",
          "name": "hashSize",
          "type": "uint8"
        }
      ],
      "name": "propose",
      "outputs": [
        {
          "internalType": "uint256",
          "name": "propositionKey",
          "type": "uint256"
        }
      ],
      "stateMutability": "nonpayable",
      "type": "function"
    },
    {
      "inputs": [
        {
          "internalType": "uint256",
          "name": "propositionKey",
          "type": "uint256"
        },
        {
          "internalType": "bool",
          "name": "approval",
          "type": "bool"
        }
      ],
      "name": "vote",
      "outputs": [],
      "stateMutability": "nonpayable",
      "type": "function"
    },
    {
      "inputs": [
        {
          "internalType": "uint256",
          "name": "propositionKey",
          "type": "uint256"
        },
        {
          "internalType": "bytes32",
          "name": "ipfsHash",
          "type": "bytes32"
        },
        {
          "internalType": "uint8",
          "name": "hashFunction",
          "type": "uint8"
        },
        {
          "internalType": "uint8",
          "name": "hashSize",
          "type": "uint8"
        }
      ],
      "name": "veto",
      "outputs": [],
      "stateMutability": "nonpayable",
      "type": "function"
    },
    {
      "inputs": [
        {
          "internalType": "uint256",
          "name": "propositionKey",
          "type": "uint256"
        }
      ],
      "name": "count",
      "outputs": [
        {
          "internalType": "bool",
          "name": "",
          "type": "bool"
        }
      ],
      "stateMutability": "view",
      "type": "function",
      "constant": true
    },
    {
      "inputs": [
        {
          "internalType": "uint256",
          "name": "propositionKey",
          "type": "uint256"
        }
      ],
      "name": "enact",
      "outputs": [],
      "stateMutability": "nonpayable",
      "type": "function"
    }
  ],
  "bytecode": "0x608060405260036000806101000a81548160ff021916908360ff1602179055503480156200002c57600080fd5b5060405162005d9338038062005d9383398181016040528101906200005291906200021a565b8585856000600181600060016101000a81548160ff02191690831515021790555080600060026101000a81548160ff0219169083151502179055505050600173__ProcedureLibrary______________________63359a395d90918585856040518563ffffffff1660e01b8152600401620000d19493929190620002d9565b60006040518083038186803b158015620000ea57600080fd5b505af4158015620000ff573d6000803e3d6000fd5b5050505050505082600660006101000a81548173ffffffffffffffffffffffffffffffffffffffff021916908373ffffffffffffffffffffffffffffffffffffffff16021790555081600760006101000a81548173ffffffffffffffffffffffffffffffffffffffff021916908373ffffffffffffffffffffffffffffffffffffffff16021790555080600860006101000a81548173ffffffffffffffffffffffffffffffffffffffff021916908373ffffffffffffffffffffffffffffffffffffffff160217905550505050505050620003bf565b600081519050620001e68162000371565b92915050565b600081519050620001fd816200038b565b92915050565b6000815190506200021481620003a5565b92915050565b60008060008060008060c087890312156200023457600080fd5b60006200024489828a01620001ec565b96505060206200025789828a0162000203565b95505060406200026a89828a0162000203565b94505060606200027d89828a01620001d5565b93505060806200029089828a01620001d5565b92505060a0620002a389828a01620001d5565b9150509295509295509295565b620002bb816200033a565b82525050565b8082525050565b620002d38162000364565b82525050565b6000608082019050620002f06000830187620002c1565b620002ff6020830186620002b0565b6200030e6040830185620002c8565b6200031d6060830184620002c8565b95945050505050565b6000620003338262000344565b9050919050565b6000819050919050565b600073ffffffffffffffffffffffffffffffffffffffff82169050919050565b600060ff82169050919050565b6200037c8162000326565b81146200038857600080fd5b50565b62000396816200033a565b8114620003a257600080fd5b50565b620003b08162000364565b8114620003bc57600080fd5b50565b6159c480620003cf6000396000f3fe608060405234801561001057600080fd5b50600436106101f05760003560e01c8063759913d61161010f578063c91ebea8116100a2578063d47fc87e11610071578063d47fc87e14610569578063e2f273bd14610585578063ebb8c344146105a1578063fa160aa2146105bf576101f0565b8063c91ebea8146104f7578063c9d27afe14610515578063cb6bc9ff14610531578063cc1250311461054d576101f0565b806390f2ee22116100de57806390f2ee221461046f578063a2b58cda1461048d578063c23c6d46146104bd578063c492f463146104db576101f0565b8063759913d6146103f95780637a5b4f59146104175780637c3a5fcc146104375780637ee7fa4014610453576101f0565b806352c041b21161018757806362721a4c1161015657806362721a4c146103735780636322ab201461039157806367c322d0146103ad57806371dbd330146103c9576101f0565b806352c041b2146103035780635a31b5601461031f5780635ba357dc1461033b5780635e9cc2a914610357576101f0565b806339c2ae70116101c357806339c2ae70146102695780633b3546c8146102855780633e9a9bd8146102b5578063416a99d1146102d3576101f0565b80630b5522a9146101f5578063148a200514610211578063249abcf71461022d5780632c1d53371461024d575b600080fd5b61020f600480360381019061020a91906149fc565b6105db565b005b61022b60048036038101906102269190614910565b6105fe565b005b610235610624565b60405161024493929190615452565b60405180910390f35b61026760048036038101906102629190614887565b610661565b005b610283600480360381019061027e91906147c0565b610687565b005b61029f600480360381019061029a919061485e565b6106fc565b6040516102ac9190615437565b60405180910390f35b6102bd6107a0565b6040516102ca91906156a7565b60405180910390f35b6102ed60048036038101906102e89190614cb6565b6107ad565b6040516102fa91906156a7565b60405180910390f35b61031d60048036038101906103189190614b65565b610899565b005b61033960048036038101906103349190614910565b6108c5565b005b6103556004803603810190610350919061485e565b6108eb565b005b610371600480360381019061036c919061485e565b610902565b005b61037b610b65565b6040516103889190615218565b60405180910390f35b6103ab60048036038101906103a69190614c17565b610b8b565b005b6103c760048036038101906103c29190614999565b610bab565b005b6103e360048036038101906103de919061485e565b610bcb565b6040516103f09190615520565b60405180910390f35b610401610e3d565b60405161040e91906156c2565b60405180910390f35b61041f610e4e565b60405161042e93929190615489565b60405180910390f35b610451600480360381019061044c9190614910565b610ee8565b005b61046d60048036038101906104689190614a73565b610f0e565b005b610477610f31565b6040516104849190615437565b60405180910390f35b6104a760048036038101906104a291906147c0565b610f44565b6040516104b491906156a7565b60405180910390f35b6104c5610f67565b6040516104d29190615218565b60405180910390f35b6104f560048036038101906104f09190614aea565b610f8d565b005b6104ff610fad565b60405161050c9190615437565b60405180910390f35b61052f600480360381019061052a9190614c7a565b610fc0565b005b61054b60048036038101906105469190614910565b61112d565b005b61056760048036038101906105629190614a73565b611153565b005b610583600480360381019061057e9190614cb6565b611176565b005b61059f600480360381019061059a919061476e565b6112e9565b005b6105a9611358565b6040516105b69190615218565b60405180910390f35b6105d960048036038101906105d49190614d19565b61137e565b005b6105f78585858585600161139b9095949392919063ffffffff16565b5050505050565b61061c8686868686866001611706909695949392919063ffffffff16565b505050505050565b60008060008060019054906101000a900460ff16600060029054906101000a900460ff1660008054906101000a900460ff16925092509250909192565b61067f8686868686866001611a74909695949392919063ffffffff16565b505050505050565b600173__ProcedureLibrary______________________63b8cc9a0290918585856040518563ffffffff1660e01b81526004016106c79493929190615586565b60006040518083038186803b1580156106df57600080fd5b505af41580156106f3573d6000803e3d6000fd5b50505050505050565b60006009600083815260200190815260200160002073__VotePropositionLibrary________________6386300da490916040518263ffffffff1660e01b815260040161074991906155cb565b60206040518083038186803b15801561076157600080fd5b505af4158015610775573d6000803e3d6000fd5b505050506040513d601f19601f820116820180604052508101906107999190614797565b9050919050565b6000600160040154905090565b60006001600a54019050600a5481116107fb576040517f08c379a00000000000000000000000000000000000000000000000000000000081526004016107f2906154c0565b60405180910390fd5b6009600082815260200190815260200160002073__VotePropositionLibrary________________639de9d1589091878787876040518663ffffffff1660e01b815260040161084e959493929190615654565b60006040518083038186803b15801561086657600080fd5b505af415801561087a573d6000803e3d6000fd5b50505050600a6000815480929190600101919050559050949350505050565b6108bb88888888888888886001611de29098979695949392919063ffffffff16565b5050505050505050565b6108e38686868686866001612120909695949392919063ffffffff16565b505050505050565b6108ff81600161248e90919063ffffffff16565b50565b600860009054906101000a900473ffffffffffffffffffffffffffffffffffffffff1673__ProcedureLibrary______________________637c3b86fe82336040518363ffffffff1660e01b815260040161095e92919061525c565b60206040518083038186803b15801561097657600080fd5b505af415801561098a573d6000803e3d6000fd5b505050506040513d601f19601f820116820180604052508101906109ae9190614797565b6109ed576040517f08c379a00000000000000000000000000000000000000000000000000000000081526004016109e490615500565b60405180910390fd5b6009600083815260200190815260200160002073__VotePropositionLibrary________________6386300da490916040518263ffffffff1660e01b8152600401610a3891906155cb565b60206040518083038186803b158015610a5057600080fd5b505af4158015610a64573d6000803e3d6000fd5b505050506040513d601f19601f82011682018060405250810190610a889190614797565b610ac7576040517f08c379a0000000000000000000000000000000000000000000000000000000008152600401610abe90615500565b60405180910390fd5b610ae6600960008481526020019081526020016000206001015461266e565b6009600083815260200190815260200160002073__VotePropositionLibrary________________639acab60390916040518263ffffffff1660e01b8152600401610b3191906155cb565b60006040518083038186803b158015610b4957600080fd5b505af4158015610b5d573d6000803e3d6000fd5b505050505050565b600760009054906101000a900473ffffffffffffffffffffffffffffffffffffffff1681565b610ba584848484600161268590949392919063ffffffff16565b50505050565b610bc58484848460016129ed90949392919063ffffffff16565b50505050565b610bd3614432565b600160030160008381526020019081526020016000206040518060c00160405290816000820160009054906101000a900473ffffffffffffffffffffffffffffffffffffffff1673ffffffffffffffffffffffffffffffffffffffff1673ffffffffffffffffffffffffffffffffffffffff16815260200160018201604051806060016040529081600082015481526020016001820160009054906101000a900460ff1660ff1660ff1681526020016001820160019054906101000a900460ff1660ff1660ff168152505081526020016003820160009054906101000a900460ff161515151581526020016003820160019054906101000a900460ff161515151581526020016003820160029054906101000a900460ff1615151515815260200160048201805480602002602001604051908101604052809291908181526020016000905b82821015610e2e5783829060005260206000209060040201604051806080016040529081600082015481526020016001820160009054906101000a900460ff1660ff1660ff168152602001600282018054600181600116156101000203166002900480601f016020809104026020016040519081016040528092919081815260200182805460018160011615610100020316600290048015610dfb5780601f10610dd057610100808354040283529160200191610dfb565b820191906000526020600020905b815481529060010190602001808311610dde57829003601f168201915b505050505081526020016003820160009054906101000a900460ff16151515158152505081526020019060010190610d18565b50505050815250509050919050565b60008054906101000a900460ff1681565b6000806000600173__ProcedureLibrary______________________6383fecb1a90916040518263ffffffff1660e01b8152600401610e8d9190615542565b60606040518083038186803b158015610ea557600080fd5b505af4158015610eb9573d6000803e3d6000fd5b505050506040513d601f19601f82011682018060405250810190610edd919061480f565b925092509250909192565b610f068686868686866001612d55909695949392919063ffffffff16565b505050505050565b610f2a858585858560016130c19095949392919063ffffffff16565b5050505050565b600060019054906101000a900460ff1681565b6000610f5e848484600161342c909392919063ffffffff16565b90509392505050565b600660009054906101000a900473ffffffffffffffffffffffffffffffffffffffff1681565b610fa784848484600161352f90949392919063ffffffff16565b50505050565b600060029054906101000a900460ff1681565b600660009054906101000a900473ffffffffffffffffffffffffffffffffffffffff1673__ProcedureLibrary______________________637c3b86fe82336040518363ffffffff1660e01b815260040161101c92919061525c565b60206040518083038186803b15801561103457600080fd5b505af4158015611048573d6000803e3d6000fd5b505050506040513d601f19601f8201168201806040525081019061106c9190614797565b6110ab576040517f08c379a00000000000000000000000000000000000000000000000000000000081526004016110a290615500565b60405180910390fd5b6009600084815260200190815260200160002073__VotePropositionLibrary________________63d7a389fb9091846040518363ffffffff1660e01b81526004016110f89291906155e6565b60006040518083038186803b15801561111057600080fd5b505af4158015611124573d6000803e3d6000fd5b50505050505050565b61114b8686868686866001613897909695949392919063ffffffff16565b505050505050565b61116f85858585856001613c059095949392919063ffffffff16565b5050505050565b600760009054906101000a900473ffffffffffffffffffffffffffffffffffffffff1673__ProcedureLibrary______________________637c3b86fe82336040518363ffffffff1660e01b81526004016111d292919061525c565b60206040518083038186803b1580156111ea57600080fd5b505af41580156111fe573d6000803e3d6000fd5b505050506040513d601f19601f820116820180604052508101906112229190614797565b611261576040517f08c379a000000000000000000000000000000000000000000000000000000000815260040161125890615500565b60405180910390fd5b6009600086815260200190815260200160002073__VotePropositionLibrary________________6394974cc790918686866040518563ffffffff1660e01b81526004016112b2949392919061560f565b60006040518083038186803b1580156112ca57600080fd5b505af41580156112de573d6000803e3d6000fd5b505050505050505050565b600173__ProcedureLibrary______________________638e956e929091836040518363ffffffff1660e01b815260040161132592919061555d565b60006040518083038186803b15801561133d57600080fd5b505af4158015611351573d6000803e3d6000fd5b5050505050565b600860009054906101000a900473ffffffffffffffffffffffffffffffffffffffff1681565b6113968383836001613f70909392919063ffffffff16565b505050565b85853373ffffffffffffffffffffffffffffffffffffffff1682600301600083815260200190815260200160002060000160009054906101000a900473ffffffffffffffffffffffffffffffffffffffff1673ffffffffffffffffffffffffffffffffffffffff1614611443576040517f08c379a000000000000000000000000000000000000000000000000000000000815260040161143a906154e0565b60405180910390fd5b878781600301600082815260200190815260200160002060030160009054906101000a900460ff1615801561149b575081600301600082815260200190815260200160002060030160019054906101000a900460ff16155b80156114ca575081600301600082815260200190815260200160002060030160029054906101000a900460ff16155b611509576040517f08c379a0000000000000000000000000000000000000000000000000000000008152600401611500906154e0565b60405180910390fd5b8960030160008a815260200190815260200160002060040160405180608001604052808c60030160008d8152602001908152602001600020600401805490508152602001600460ff1681526020016390b137e98b8b8b6040516024016115719392919061530f565b6040516020818303038152906040529060e01b6020820180517bffffffffffffffffffffffffffffffffffffffffffffffffffffffff838183161783525050505081526020016000151581525090806001815401808255809150506001900390600052602060002090600402016000909190919091506000820151816000015560208201518160010160006101000a81548160ff021916908360ff160217905550604082015181600201908051906020019061162e92919061448a565b5060608201518160030160006101000a81548160ff021916908315150217905550505084156116fa5760018a60030160008b815260200190815260200160002060030160006101000a81548160ff0219169083151502179055507f7306ab933b6e1df1bd2fddce7143eeedd65d5996fada0e9168c4e8c3d1ece94d8a60030160008b815260200190815260200160002060000160009054906101000a900473ffffffffffffffffffffffffffffffffffffffff168a6040516116f19291906153ad565b60405180910390a15b50505050505050505050565b86863373ffffffffffffffffffffffffffffffffffffffff1682600301600083815260200190815260200160002060000160009054906101000a900473ffffffffffffffffffffffffffffffffffffffff1673ffffffffffffffffffffffffffffffffffffffff16146117ae576040517f08c379a00000000000000000000000000000000000000000000000000000000081526004016117a5906154e0565b60405180910390fd5b888881600301600082815260200190815260200160002060030160009054906101000a900460ff16158015611806575081600301600082815260200190815260200160002060030160019054906101000a900460ff16155b8015611835575081600301600082815260200190815260200160002060030160029054906101000a900460ff16155b611874576040517f08c379a000000000000000000000000000000000000000000000000000000000815260040161186b906154e0565b60405180910390fd5b8a60030160008b815260200190815260200160002060040160405180608001604052808d60030160008e8152602001908152602001600020600401805490508152602001600760ff16815260200163c10753298c8c8c8c6040516024016118de94939291906152ca565b6040516020818303038152906040529060e01b6020820180517bffffffffffffffffffffffffffffffffffffffffffffffffffffffff838183161783525050505081526020016000151581525090806001815401808255809150506001900390600052602060002090600402016000909190919091506000820151816000015560208201518160010160006101000a81548160ff021916908360ff160217905550604082015181600201908051906020019061199b92919061448a565b5060608201518160030160006101000a81548160ff02191690831515021790555050508415611a675760018b60030160008c815260200190815260200160002060030160006101000a81548160ff0219169083151502179055507f7306ab933b6e1df1bd2fddce7143eeedd65d5996fada0e9168c4e8c3d1ece94d8b60030160008c815260200190815260200160002060000160009054906101000a900473ffffffffffffffffffffffffffffffffffffffff168b604051611a5e9291906153ad565b60405180910390a15b5050505050505050505050565b86863373ffffffffffffffffffffffffffffffffffffffff1682600301600083815260200190815260200160002060000160009054906101000a900473ffffffffffffffffffffffffffffffffffffffff1673ffffffffffffffffffffffffffffffffffffffff1614611b1c576040517f08c379a0000000000000000000000000000000000000000000000000000000008152600401611b13906154e0565b60405180910390fd5b888881600301600082815260200190815260200160002060030160009054906101000a900460ff16158015611b74575081600301600082815260200190815260200160002060030160019054906101000a900460ff16155b8015611ba3575081600301600082815260200190815260200160002060030160029054906101000a900460ff16155b611be2576040517f08c379a0000000000000000000000000000000000000000000000000000000008152600401611bd9906154e0565b60405180910390fd5b8a60030160008b815260200190815260200160002060040160405180608001604052808d60030160008e8152602001908152602001600020600401805490508152602001600660ff168152602001635676c77d8c8c8c8c604051602401611c4c9493929190615285565b6040516020818303038152906040529060e01b6020820180517bffffffffffffffffffffffffffffffffffffffffffffffffffffffff838183161783525050505081526020016000151581525090806001815401808255809150506001900390600052602060002090600402016000909190919091506000820151816000015560208201518160010160006101000a81548160ff021916908360ff1602179055506040820151816002019080519060200190611d0992919061448a565b5060608201518160030160006101000a81548160ff02191690831515021790555050508415611dd55760018b60030160008c815260200190815260200160002060030160006101000a81548160ff0219169083151502179055507f7306ab933b6e1df1bd2fddce7143eeedd65d5996fada0e9168c4e8c3d1ece94d8b60030160008c815260200190815260200160002060000160009054906101000a900473ffffffffffffffffffffffffffffffffffffffff168b604051611dcc9291906153ad565b60405180910390a15b5050505050505050505050565b88883373ffffffffffffffffffffffffffffffffffffffff1682600301600083815260200190815260200160002060000160009054906101000a900473ffffffffffffffffffffffffffffffffffffffff1673ffffffffffffffffffffffffffffffffffffffff1614611e8a576040517f08c379a0000000000000000000000000000000000000000000000000000000008152600401611e81906154e0565b60405180910390fd5b8a8a81600301600082815260200190815260200160002060030160009054906101000a900460ff16158015611ee2575081600301600082815260200190815260200160002060030160019054906101000a900460ff16155b8015611f11575081600301600082815260200190815260200160002060030160029054906101000a900460ff16155b611f50576040517f08c379a0000000000000000000000000000000000000000000000000000000008152600401611f47906154e0565b60405180910390fd5b60008d60030160008e8152602001908152602001600020905080600401604051806080016040528083600401805490508152602001600360ff16815260200163155a73ce8f8f8f8f8f8f604051602401611faf969594939291906153d6565b6040516020818303038152906040529060e01b6020820180517bffffffffffffffffffffffffffffffffffffffffffffffffffffffff838183161783525050505081526020016000151581525090806001815401808255809150506001900390600052602060002090600402016000909190919091506000820151816000015560208201518160010160006101000a81548160ff021916908360ff160217905550604082015181600201908051906020019061206c92919061448a565b5060608201518160030160006101000a81548160ff021916908315150217905550505085156121105760018160030160006101000a81548160ff0219169083151502179055507f7306ab933b6e1df1bd2fddce7143eeedd65d5996fada0e9168c4e8c3d1ece94d8160000160009054906101000a900473ffffffffffffffffffffffffffffffffffffffff168e6040516121079291906153ad565b60405180910390a15b5050505050505050505050505050565b86863373ffffffffffffffffffffffffffffffffffffffff1682600301600083815260200190815260200160002060000160009054906101000a900473ffffffffffffffffffffffffffffffffffffffff1673ffffffffffffffffffffffffffffffffffffffff16146121c8576040517f08c379a00000000000000000000000000000000000000000000000000000000081526004016121bf906154e0565b60405180910390fd5b888881600301600082815260200190815260200160002060030160009054906101000a900460ff16158015612220575081600301600082815260200190815260200160002060030160019054906101000a900460ff16155b801561224f575081600301600082815260200190815260200160002060030160029054906101000a900460ff16155b61228e576040517f08c379a0000000000000000000000000000000000000000000000000000000008152600401612285906154e0565b60405180910390fd5b8a60030160008b815260200190815260200160002060040160405180608001604052808d60030160008e8152602001908152602001600020600401805490508152602001600860ff168152602001635e35359e8c8c8c8c6040516024016122f894939291906152ca565b6040516020818303038152906040529060e01b6020820180517bffffffffffffffffffffffffffffffffffffffffffffffffffffffff838183161783525050505081526020016000151581525090806001815401808255809150506001900390600052602060002090600402016000909190919091506000820151816000015560208201518160010160006101000a81548160ff021916908360ff16021790555060408201518160020190805190602001906123b592919061448a565b5060608201518160030160006101000a81548160ff021916908315150217905550505084156124815760018b60030160008c815260200190815260200160002060030160006101000a81548160ff0219169083151502179055507f7306ab933b6e1df1bd2fddce7143eeedd65d5996fada0e9168c4e8c3d1ece94d8b60030160008c815260200190815260200160002060000160009054906101000a900473ffffffffffffffffffffffffffffffffffffffff168b6040516124789291906153ad565b60405180910390a15b5050505050505050505050565b81813373ffffffffffffffffffffffffffffffffffffffff1682600301600083815260200190815260200160002060000160009054906101000a900473ffffffffffffffffffffffffffffffffffffffff1673ffffffffffffffffffffffffffffffffffffffff1614612536576040517f08c379a000000000000000000000000000000000000000000000000000000000815260040161252d906154e0565b60405180910390fd5b838381600301600082815260200190815260200160002060030160009054906101000a900460ff1615801561258e575081600301600082815260200190815260200160002060030160019054906101000a900460ff16155b80156125bd575081600301600082815260200190815260200160002060030160029054906101000a900460ff16155b6125fc576040517f08c379a00000000000000000000000000000000000000000000000000000000081526004016125f3906154e0565b60405180910390fd5b600186600301600087815260200190815260200160002060030160006101000a81548160ff0219169083151502179055507f7306ab933b6e1df1bd2fddce7143eeedd65d5996fada0e9168c4e8c3d1ece94d338660405161265e9291906153ad565b60405180910390a1505050505050565b61268281600161427f90919063ffffffff16565b50565b84843373ffffffffffffffffffffffffffffffffffffffff1682600301600083815260200190815260200160002060000160009054906101000a900473ffffffffffffffffffffffffffffffffffffffff1673ffffffffffffffffffffffffffffffffffffffff161461272d576040517f08c379a0000000000000000000000000000000000000000000000000000000008152600401612724906154e0565b60405180910390fd5b868681600301600082815260200190815260200160002060030160009054906101000a900460ff16158015612785575081600301600082815260200190815260200160002060030160019054906101000a900460ff16155b80156127b4575081600301600082815260200190815260200160002060030160029054906101000a900460ff16155b6127f3576040517f08c379a00000000000000000000000000000000000000000000000000000000081526004016127ea906154e0565b60405180910390fd5b88600301600089815260200190815260200160002060040160405180608001604052808b60030160008c8152602001908152602001600020600401805490508152602001600260ff1681526020016376a6411c8a8a6040516024016128599291906153ad565b6040516020818303038152906040529060e01b6020820180517bffffffffffffffffffffffffffffffffffffffffffffffffffffffff838183161783525050505081526020016000151581525090806001815401808255809150506001900390600052602060002090600402016000909190919091506000820151816000015560208201518160010160006101000a81548160ff021916908360ff160217905550604082015181600201908051906020019061291692919061448a565b5060608201518160030160006101000a81548160ff021916908315150217905550505084156129e25760018960030160008a815260200190815260200160002060030160006101000a81548160ff0219169083151502179055507f7306ab933b6e1df1bd2fddce7143eeedd65d5996fada0e9168c4e8c3d1ece94d8960030160008a815260200190815260200160002060000160009054906101000a900473ffffffffffffffffffffffffffffffffffffffff16896040516129d99291906153ad565b60405180910390a15b505050505050505050565b84843373ffffffffffffffffffffffffffffffffffffffff1682600301600083815260200190815260200160002060000160009054906101000a900473ffffffffffffffffffffffffffffffffffffffff1673ffffffffffffffffffffffffffffffffffffffff1614612a95576040517f08c379a0000000000000000000000000000000000000000000000000000000008152600401612a8c906154e0565b60405180910390fd5b868681600301600082815260200190815260200160002060030160009054906101000a900460ff16158015612aed575081600301600082815260200190815260200160002060030160019054906101000a900460ff16155b8015612b1c575081600301600082815260200190815260200160002060030160029054906101000a900460ff16155b612b5b576040517f08c379a0000000000000000000000000000000000000000000000000000000008152600401612b52906154e0565b60405180910390fd5b88600301600089815260200190815260200160002060040160405180608001604052808b60030160008c8152602001908152602001600020600401805490508152602001600560ff1681526020016319b9404c8a8a604051602401612bc1929190615233565b6040516020818303038152906040529060e01b6020820180517bffffffffffffffffffffffffffffffffffffffffffffffffffffffff838183161783525050505081526020016000151581525090806001815401808255809150506001900390600052602060002090600402016000909190919091506000820151816000015560208201518160010160006101000a81548160ff021916908360ff1602179055506040820151816002019080519060200190612c7e92919061448a565b5060608201518160030160006101000a81548160ff02191690831515021790555050508415612d4a5760018960030160008a815260200190815260200160002060030160006101000a81548160ff0219169083151502179055507f7306ab933b6e1df1bd2fddce7143eeedd65d5996fada0e9168c4e8c3d1ece94d8960030160008a815260200190815260200160002060000160009054906101000a900473ffffffffffffffffffffffffffffffffffffffff1689604051612d419291906153ad565b60405180910390a15b505050505050505050565b86863373ffffffffffffffffffffffffffffffffffffffff1682600301600083815260200190815260200160002060000160009054906101000a900473ffffffffffffffffffffffffffffffffffffffff1673ffffffffffffffffffffffffffffffffffffffff1614612dfd576040517f08c379a0000000000000000000000000000000000000000000000000000000008152600401612df4906154e0565b60405180910390fd5b888881600301600082815260200190815260200160002060030160009054906101000a900460ff16158015612e55575081600301600082815260200190815260200160002060030160019054906101000a900460ff16155b8015612e84575081600301600082815260200190815260200160002060030160029054906101000a900460ff16155b612ec3576040517f08c379a0000000000000000000000000000000000000000000000000000000008152600401612eba906154e0565b60405180910390fd5b8a60030160008b815260200190815260200160002060040160405180608001604052808d60030160008e8152602001908152602001600020600401805490508152602001600760ff16815260200163c10753298c8c8b604051602401612f2b93929190615346565b6040516020818303038152906040529060e01b6020820180517bffffffffffffffffffffffffffffffffffffffffffffffffffffffff838183161783525050505081526020016000151581525090806001815401808255809150506001900390600052602060002090600402016000909190919091506000820151816000015560208201518160010160006101000a81548160ff021916908360ff1602179055506040820151816002019080519060200190612fe892919061448a565b5060608201518160030160006101000a81548160ff021916908315150217905550505084156130b45760018b60030160008c815260200190815260200160002060030160006101000a81548160ff0219169083151502179055507f7306ab933b6e1df1bd2fddce7143eeedd65d5996fada0e9168c4e8c3d1ece94d8b60030160008c815260200190815260200160002060000160009054906101000a900473ffffffffffffffffffffffffffffffffffffffff168b6040516130ab9291906153ad565b60405180910390a15b5050505050505050505050565b85853373ffffffffffffffffffffffffffffffffffffffff1682600301600083815260200190815260200160002060000160009054906101000a900473ffffffffffffffffffffffffffffffffffffffff1673ffffffffffffffffffffffffffffffffffffffff1614613169576040517f08c379a0000000000000000000000000000000000000000000000000000000008152600401613160906154e0565b60405180910390fd5b878781600301600082815260200190815260200160002060030160009054906101000a900460ff161580156131c1575081600301600082815260200190815260200160002060030160019054906101000a900460ff16155b80156131f0575081600301600082815260200190815260200160002060030160029054906101000a900460ff16155b61322f576040517f08c379a0000000000000000000000000000000000000000000000000000000008152600401613226906154e0565b60405180910390fd5b8960030160008a815260200190815260200160002060040160405180608001604052808c60030160008d8152602001908152602001600020600401805490508152602001600760ff16815260200163c10753298b8b8b60405160240161329793929190615346565b6040516020818303038152906040529060e01b6020820180517bffffffffffffffffffffffffffffffffffffffffffffffffffffffff838183161783525050505081526020016000151581525090806001815401808255809150506001900390600052602060002090600402016000909190919091506000820151816000015560208201518160010160006101000a81548160ff021916908360ff160217905550604082015181600201908051906020019061335492919061448a565b5060608201518160030160006101000a81548160ff021916908315150217905550505084156134205760018a60030160008b815260200190815260200160002060030160006101000a81548160ff0219169083151502179055507f7306ab933b6e1df1bd2fddce7143eeedd65d5996fada0e9168c4e8c3d1ece94d8a60030160008b815260200190815260200160002060000160009054906101000a900473ffffffffffffffffffffffffffffffffffffffff168a6040516134179291906153ad565b60405180910390a15b50505050505050505050565b6000808560040160008154809291906001019190505590503386600301600083815260200190815260200160002060000160006101000a81548173ffffffffffffffffffffffffffffffffffffffff021916908373ffffffffffffffffffffffffffffffffffffffff16021790555060405180606001604052808681526020018560ff1681526020018460ff168152508660030160008381526020019081526020016000206001016000820151816000015560208201518160010160006101000a81548160ff021916908360ff16021790555060408201518160010160016101000a81548160ff021916908360ff16021790555090505080915050949350505050565b84843373ffffffffffffffffffffffffffffffffffffffff1682600301600083815260200190815260200160002060000160009054906101000a900473ffffffffffffffffffffffffffffffffffffffff1673ffffffffffffffffffffffffffffffffffffffff16146135d7576040517f08c379a00000000000000000000000000000000000000000000000000000000081526004016135ce906154e0565b60405180910390fd5b868681600301600082815260200190815260200160002060030160009054906101000a900460ff1615801561362f575081600301600082815260200190815260200160002060030160019054906101000a900460ff16155b801561365e575081600301600082815260200190815260200160002060030160029054906101000a900460ff16155b61369d576040517f08c379a0000000000000000000000000000000000000000000000000000000008152600401613694906154e0565b60405180910390fd5b88600301600089815260200190815260200160002060040160405180608001604052808b60030160008c8152602001908152602001600020600401805490508152602001600160ff168152602001631715f4de8a8a60405160240161370392919061537d565b6040516020818303038152906040529060e01b6020820180517bffffffffffffffffffffffffffffffffffffffffffffffffffffffff838183161783525050505081526020016000151581525090806001815401808255809150506001900390600052602060002090600402016000909190919091506000820151816000015560208201518160010160006101000a81548160ff021916908360ff16021790555060408201518160020190805190602001906137c092919061448a565b5060608201518160030160006101000a81548160ff0219169083151502179055505050841561388c5760018960030160008a815260200190815260200160002060030160006101000a81548160ff0219169083151502179055507f7306ab933b6e1df1bd2fddce7143eeedd65d5996fada0e9168c4e8c3d1ece94d8960030160008a815260200190815260200160002060000160009054906101000a900473ffffffffffffffffffffffffffffffffffffffff16896040516138839291906153ad565b60405180910390a15b505050505050505050565b86863373ffffffffffffffffffffffffffffffffffffffff1682600301600083815260200190815260200160002060000160009054906101000a900473ffffffffffffffffffffffffffffffffffffffff1673ffffffffffffffffffffffffffffffffffffffff161461393f576040517f08c379a0000000000000000000000000000000000000000000000000000000008152600401613936906154e0565b60405180910390fd5b888881600301600082815260200190815260200160002060030160009054906101000a900460ff16158015613997575081600301600082815260200190815260200160002060030160019054906101000a900460ff16155b80156139c6575081600301600082815260200190815260200160002060030160029054906101000a900460ff16155b613a05576040517f08c379a00000000000000000000000000000000000000000000000000000000081526004016139fc906154e0565b60405180910390fd5b8a60030160008b815260200190815260200160002060040160405180608001604052808d60030160008e8152602001908152602001600020600401805490508152602001600860ff168152602001635e35359e8c8c8c8c604051602401613a6f94939291906152ca565b6040516020818303038152906040529060e01b6020820180517bffffffffffffffffffffffffffffffffffffffffffffffffffffffff838183161783525050505081526020016000151581525090806001815401808255809150506001900390600052602060002090600402016000909190919091506000820151816000015560208201518160010160006101000a81548160ff021916908360ff1602179055506040820151816002019080519060200190613b2c92919061448a565b5060608201518160030160006101000a81548160ff02191690831515021790555050508415613bf85760018b60030160008c815260200190815260200160002060030160006101000a81548160ff0219169083151502179055507f7306ab933b6e1df1bd2fddce7143eeedd65d5996fada0e9168c4e8c3d1ece94d8b60030160008c815260200190815260200160002060000160009054906101000a900473ffffffffffffffffffffffffffffffffffffffff168b604051613bef9291906153ad565b60405180910390a15b5050505050505050505050565b85853373ffffffffffffffffffffffffffffffffffffffff1682600301600083815260200190815260200160002060000160009054906101000a900473ffffffffffffffffffffffffffffffffffffffff1673ffffffffffffffffffffffffffffffffffffffff1614613cad576040517f08c379a0000000000000000000000000000000000000000000000000000000008152600401613ca4906154e0565b60405180910390fd5b878781600301600082815260200190815260200160002060030160009054906101000a900460ff16158015613d05575081600301600082815260200190815260200160002060030160019054906101000a900460ff16155b8015613d34575081600301600082815260200190815260200160002060030160029054906101000a900460ff16155b613d73576040517f08c379a0000000000000000000000000000000000000000000000000000000008152600401613d6a906154e0565b60405180910390fd5b8960030160008a815260200190815260200160002060040160405180608001604052808c60030160008d8152602001908152602001600020600401805490508152602001600860ff168152602001635e35359e8b8b8b604051602401613ddb93929190615346565b6040516020818303038152906040529060e01b6020820180517bffffffffffffffffffffffffffffffffffffffffffffffffffffffff838183161783525050505081526020016000151581525090806001815401808255809150506001900390600052602060002090600402016000909190919091506000820151816000015560208201518160010160006101000a81548160ff021916908360ff1602179055506040820151816002019080519060200190613e9892919061448a565b5060608201518160030160006101000a81548160ff02191690831515021790555050508415613f645760018a60030160008b815260200190815260200160002060030160006101000a81548160ff0219169083151502179055507f7306ab933b6e1df1bd2fddce7143eeedd65d5996fada0e9168c4e8c3d1ece94d8a60030160008b815260200190815260200160002060000160009054906101000a900473ffffffffffffffffffffffffffffffffffffffff168a604051613f5b9291906153ad565b60405180910390a15b50505050505050505050565b83833373ffffffffffffffffffffffffffffffffffffffff1682600301600083815260200190815260200160002060000160009054906101000a900473ffffffffffffffffffffffffffffffffffffffff1673ffffffffffffffffffffffffffffffffffffffff1614614018576040517f08c379a000000000000000000000000000000000000000000000000000000000815260040161400f906154e0565b60405180910390fd5b858581600301600082815260200190815260200160002060030160009054906101000a900460ff16158015614070575081600301600082815260200190815260200160002060030160019054906101000a900460ff16155b801561409f575081600301600082815260200190815260200160002060030160029054906101000a900460ff16155b6140de576040517f08c379a00000000000000000000000000000000000000000000000000000000081526004016140d5906154e0565b60405180910390fd5b87600301600088815260200190815260200160002060040160405180608001604052808a60030160008b8152602001908152602001600020600401805490508152602001600060ff1681526020018881526020016000151581525090806001815401808255809150506001900390600052602060002090600402016000909190919091506000820151816000015560208201518160010160006101000a81548160ff021916908360ff16021790555060408201518160020190805190602001906141a992919061448a565b5060608201518160030160006101000a81548160ff0219169083151502179055505050841561427557600188600301600089815260200190815260200160002060030160006101000a81548160ff0219169083151502179055507f7306ab933b6e1df1bd2fddce7143eeedd65d5996fada0e9168c4e8c3d1ece94d88600301600089815260200190815260200160002060000160009054906101000a900473ffffffffffffffffffffffffffffffffffffffff168860405161426c9291906153ad565b60405180910390a15b5050505050505050565b818181600301600082815260200190815260200160002060030160009054906101000a900460ff1680156142d6575081600301600082815260200190815260200160002060030160019054906101000a900460ff16155b8015614305575081600301600082815260200190815260200160002060030160029054906101000a900460ff16155b614344576040517f08c379a000000000000000000000000000000000000000000000000000000000815260040161433b906154e0565b60405180910390fd5b6000846003016000858152602001908152602001600020905060018160030160026101000a81548160ff02191690831515021790555060005b81600401805490508110156143d657600082600401828154811061439d57fe5b9060005260206000209060040201905060018160030160006101000a81548160ff0219169083151502179055505080600101905061437d565b5060018160030160016101000a81548160ff0219169083151502179055507fd2c6e52f57352f08a7c9894b122d8440f1d87a7949ba8769fe444bf80b9e7a7e8460405161442391906156a7565b60405180910390a15050505050565b6040518060c00160405280600073ffffffffffffffffffffffffffffffffffffffff16815260200161446261450a565b8152602001600015158152602001600015158152602001600015158152602001606081525090565b828054600181600116156101000203166002900490600052602060002090601f016020900481019282601f106144cb57805160ff19168380011785556144f9565b828001600101855582156144f9579182015b828111156144f85782518255916020019190600101906144dd565b5b5090506145069190614534565b5090565b604051806060016040528060008019168152602001600060ff168152602001600060ff1681525090565b5b8082111561454d576000816000905550600101614535565b5090565b600081359050614560816158ed565b92915050565b60008135905061457581615904565b92915050565b600082601f83011261458c57600080fd5b813561459f61459a8261570a565b6156dd565b915081818352602084019350602081019050838560808402820111156145c457600080fd5b60005b838110156145f457816145da88826146bb565b8452602084019350608083019250506001810190506145c7565b5050505092915050565b60008135905061460d8161591b565b92915050565b6000815190506146228161591b565b92915050565b60008135905061463781615932565b92915050565b60008135905061464c81615949565b92915050565b60008151905061466181615949565b92915050565b600082601f83011261467857600080fd5b813561468b61468682615732565b6156dd565b915080825260208301602083018583830111156146a757600080fd5b6146b283828461589a565b50505092915050565b6000608082840312156146cd57600080fd5b6146d760806156dd565b905060006146e784828501614551565b60008301525060206146fb8482850161463d565b602083015250604061470f84828501614744565b604083015250606061472384828501614744565b60608301525092915050565b60008135905061473e81615960565b92915050565b60008135905061475381615977565b92915050565b60008151905061476881615977565b92915050565b60006020828403121561478057600080fd5b600061478e84828501614566565b91505092915050565b6000602082840312156147a957600080fd5b60006147b784828501614613565b91505092915050565b6000806000606084860312156147d557600080fd5b60006147e38682870161463d565b93505060206147f486828701614744565b925050604061480586828701614744565b9150509250925092565b60008060006060848603121561482457600080fd5b600061483286828701614652565b935050602061484386828701614759565b925050604061485486828701614759565b9150509250925092565b60006020828403121561487057600080fd5b600061487e8482850161472f565b91505092915050565b60008060008060008060c087890312156148a057600080fd5b60006148ae89828a0161472f565b96505060206148bf89828a01614566565b95505060406148d089828a01614551565b94505060606148e189828a01614551565b93505060806148f289828a01614628565b92505060a061490389828a016145fe565b9150509295509295509295565b60008060008060008060c0878903121561492957600080fd5b600061493789828a0161472f565b965050602061494889828a01614566565b955050604061495989828a01614551565b945050606061496a89828a01614551565b935050608061497b89828a0161472f565b92505060a061498c89828a016145fe565b9150509295509295509295565b600080600080608085870312156149af57600080fd5b60006149bd8782880161472f565b94505060206149ce87828801614566565b93505060406149df87828801614551565b92505060606149f0878288016145fe565b91505092959194509250565b600080600080600060a08688031215614a1457600080fd5b6000614a228882890161472f565b9550506020614a3388828901614566565b9450506040614a4488828901614551565b9350506060614a5588828901614628565b9250506080614a66888289016145fe565b9150509295509295909350565b600080600080600060a08688031215614a8b57600080fd5b6000614a998882890161472f565b9550506020614aaa88828901614566565b9450506040614abb88828901614551565b9350506060614acc8882890161472f565b9250506080614add888289016145fe565b9150509295509295909350565b60008060008060808587031215614b0057600080fd5b6000614b0e8782880161472f565b9450506020614b1f87828801614566565b935050604085013567ffffffffffffffff811115614b3c57600080fd5b614b488782880161457b565b9250506060614b59878288016145fe565b91505092959194509250565b600080600080600080600080610100898b031215614b8257600080fd5b6000614b908b828c0161472f565b9850506020614ba18b828c01614566565b9750506040614bb28b828c0161472f565b9650506060614bc38b828c01614566565b9550506080614bd48b828c0161463d565b94505060a0614be58b828c01614744565b93505060c0614bf68b828c01614744565b92505060e0614c078b828c016145fe565b9150509295985092959890939650565b60008060008060808587031215614c2d57600080fd5b6000614c3b8782880161472f565b9450506020614c4c87828801614566565b9350506040614c5d8782880161472f565b9250506060614c6e878288016145fe565b91505092959194509250565b60008060408385031215614c8d57600080fd5b6000614c9b8582860161472f565b9250506020614cac858286016145fe565b9150509250929050565b60008060008060808587031215614ccc57600080fd5b6000614cda8782880161472f565b9450506020614ceb8782880161463d565b9350506040614cfc87828801614744565b9250506060614d0d87828801614744565b91505092959194509250565b600080600060608486031215614d2e57600080fd5b6000614d3c8682870161472f565b935050602084013567ffffffffffffffff811115614d5957600080fd5b614d6586828701614667565b9250506040614d76868287016145fe565b9150509250925092565b6000614d8c838361502c565b60808301905092915050565b6000614da4838361514d565b905092915050565b614db58161580f565b82525050565b614dc48161580f565b82525050565b614dd38161580f565b82525050565b614de2816157fd565b82525050565b614df1816157fd565b82525050565b6000614e028261577e565b614e0c81856157b9565b9350614e178361575e565b8060005b83811015614e48578151614e2f8882614d80565b9750614e3a8361579f565b925050600181019050614e1b565b5085935050505092915050565b6000614e6082615789565b614e6a81856157ca565b935083602082028501614e7c8561576e565b8060005b85811015614eb85784840389528151614e998582614d98565b9450614ea4836157ac565b925060208a01995050600181019050614e80565b50829750879550505050505092915050565b614ed381615821565b82525050565b614ee281615821565b82525050565b614ef181615821565b82525050565b614f008161582d565b82525050565b614f0f81615859565b82525050565b614f1e81615859565b82525050565b614f2d81615859565b82525050565b6000614f3e82615794565b614f4881856157db565b9350614f588185602086016158a9565b614f61816158dc565b840191505092915050565b6000614f79600d836157ec565b91507f4f7574206f6620626f756e642e000000000000000000000000000000000000006000830152602082019050919050565b6000614fb9600f836157ec565b91507f4e6f7420617574686f72697a65642e00000000000000000000000000000000006000830152602082019050919050565b6000614ff9600e836157ec565b91507f4e6f7420617574686f72697a65640000000000000000000000000000000000006000830152602082019050919050565b6080820160008201516150426000850182614dd9565b5060208201516150556020850182614f06565b50604082015161506860408501826151eb565b50606082015161507b60608501826151eb565b50505050565b6060820160008201516150976000850182614f06565b5060208201516150aa60208501826151eb565b5060408201516150bd60408501826151eb565b50505050565b6000610100830160008301516150dc6000860182614dac565b5060208301516150ef6020860182615081565b5060408301516151026080860182614eca565b50606083015161511560a0860182614eca565b50608083015161512860c0860182614eca565b5060a083015184820360e08601526151408282614e55565b9150508091505092915050565b600060808301600083015161516560008601826151be565b50602083015161517860208601826151eb565b50604083015184820360408601526151908282614f33565b91505060608301516151a56060860182614eca565b508091505092915050565b8082525050565b8082525050565b6151c781615883565b82525050565b6151d681615883565b82525050565b6151e581615883565b82525050565b6151f48161588d565b82525050565b6152038161588d565b82525050565b6152128161588d565b82525050565b600060208201905061522d6000830184614dbb565b92915050565b60006040820190506152486000830185614dbb565b6152556020830184614de8565b9392505050565b60006040820190506152716000830185614dca565b61527e6020830184614dca565b9392505050565b600060808201905061529a6000830187614dbb565b6152a76020830186614de8565b6152b46040830185614de8565b6152c16060830184614ef7565b95945050505050565b60006080820190506152df6000830187614dbb565b6152ec6020830186614de8565b6152f96040830185614de8565b61530660608301846151cd565b95945050505050565b60006060820190506153246000830186614dbb565b6153316020830185614de8565b61533e6040830184614ef7565b949350505050565b600060608201905061535b6000830186614dbb565b6153686020830185614de8565b61537560408301846151cd565b949350505050565b60006040820190506153926000830185614dbb565b81810360208301526153a48184614df7565b90509392505050565b60006040820190506153c26000830185614dbb565b6153cf60208301846151cd565b9392505050565b600060c0820190506153eb6000830189614dbb565b6153f860208301886151cd565b6154056040830187614dbb565b6154126060830186614f15565b61541f60808301856151fa565b61542c60a08301846151fa565b979650505050505050565b600060208201905061544c6000830184614ed9565b92915050565b60006060820190506154676000830186614ed9565b6154746020830185614ed9565b61548160408301846151fa565b949350505050565b600060608201905061549e6000830186614f15565b6154ab60208301856151fa565b6154b860408301846151fa565b949350505050565b600060208201905081810360008301526154d981614f6c565b9050919050565b600060208201905081810360008301526154f981614fac565b9050919050565b6000602082019050818103600083015261551981614fec565b9050919050565b6000602082019050818103600083015261553a81846150c3565b905092915050565b600060208201905061555760008301846151b0565b92915050565b600060408201905061557260008301856151b0565b61557f6020830184614dca565b9392505050565b600060808201905061559b60008301876151b0565b6155a86020830186614f24565b6155b56040830185615209565b6155c26060830184615209565b95945050505050565b60006020820190506155e060008301846151b7565b92915050565b60006040820190506155fb60008301856151b7565b6156086020830184614ee8565b9392505050565b600060808201905061562460008301876151b7565b6156316020830186614f24565b61563e6040830185615209565b61564b6060830184615209565b95945050505050565b600060a08201905061566960008301886151b7565b61567660208301876151dc565b6156836040830186614f24565b6156906060830185615209565b61569d6080830184615209565b9695505050505050565b60006020820190506156bc60008301846151cd565b92915050565b60006020820190506156d760008301846151fa565b92915050565b6000604051905081810181811067ffffffffffffffff8211171561570057600080fd5b8060405250919050565b600067ffffffffffffffff82111561572157600080fd5b602082029050602081019050919050565b600067ffffffffffffffff82111561574957600080fd5b601f19601f8301169050602081019050919050565b6000819050602082019050919050565b6000819050602082019050919050565b600081519050919050565b600081519050919050565b600081519050919050565b6000602082019050919050565b6000602082019050919050565b600082825260208201905092915050565b600082825260208201905092915050565b600082825260208201905092915050565b600082825260208201905092915050565b600061580882615863565b9050919050565b600061581a82615863565b9050919050565b60008115159050919050565b60007fffff00000000000000000000000000000000000000000000000000000000000082169050919050565b6000819050919050565b600073ffffffffffffffffffffffffffffffffffffffff82169050919050565b6000819050919050565b600060ff82169050919050565b82818337600083830152505050565b60005b838110156158c75780820151818401526020810190506158ac565b838111156158d6576000848401525b50505050565b6000601f19601f8301169050919050565b6158f6816157fd565b811461590157600080fd5b50565b61590d8161580f565b811461591857600080fd5b50565b61592481615821565b811461592f57600080fd5b50565b61593b8161582d565b811461594657600080fd5b50565b61595281615859565b811461595d57600080fd5b50565b61596981615883565b811461597457600080fd5b50565b6159808161588d565b811461598b57600080fd5b5056fea2646970667358221220fbffc3cc573ef11e269019bd911a1a968ccb127a74f47f36cce031faf92479e264736f6c634300060c0033",
  "immutableReferences": {},
  "source": "// SPDX-License-Identifier: LGPL-3.0-or-later\npragma solidity ^0.6.0;\npragma experimental ABIEncoderV2;\n\nimport \"../Procedure.sol\";\nimport \"../libraries/VotePropositionLibrary.sol\";\n\n/*\n    Vote Procedure.\n    A Vote Procedure will apply an effect based on the decision of a vote.\n    Votes can be vetoed, and enacted.\n\n    @TODO : Add propositions getter.\n*/\n\ncontract VoteProcedure is Procedure {\n    using VotePropositionLibrary for VotePropositionLibrary.Proposition;\n    address payable public votersOrgan;\n    address payable public vetoersOrgan;\n    address payable public enactorsOrgan;\n\n    mapping (uint256 => VotePropositionLibrary.Proposition) internal propositions;\n    uint256 internal propositionsCount;\n\n    constructor (\n        bytes32 _metadataIpfsHash, uint8 _metadataHashFunction, uint8 _metadataHashSize,\n        address payable _votersOrgan, address payable _vetoersOrgan, address payable _enactorsOrgan\n    ) Procedure (_metadataIpfsHash, _metadataHashFunction, _metadataHashSize)\n        public\n    {\n        votersOrgan = _votersOrgan;\n        vetoersOrgan = _vetoersOrgan;\n        enactorsOrgan = _enactorsOrgan;\n    }\n\n    function propose(\n        uint256 effectKey, bytes32 ipfsHash, uint8 hashFunction, uint8 hashSize\n    )\n        public returns (uint256 propositionKey)\n    {\n        propositionKey = propositionsCount + 1; // keys start at 1.\n        require(propositionKey > propositionsCount, \"Out of bound.\");\n        propositions[propositionKey].init(effectKey, ipfsHash, hashFunction, hashSize);\n        return propositionsCount++;\n    }\n\n    function vote(uint256 propositionKey, bool approval)\n        public onlyInOrgan(votersOrgan)\n    {\n        propositions[propositionKey].vote(approval);\n    }\n\n    // A veto accepts arguments which defines a motivation as a IPFS multihash.\n    function veto(uint256 propositionKey, bytes32 ipfsHash, uint8 hashFunction, uint8 hashSize)\n        public onlyInOrgan(vetoersOrgan)\n    {\n        propositions[propositionKey].veto(ipfsHash, hashFunction, hashSize);\n    }\n\n    function count(uint256 propositionKey)\n        public view returns (bool)\n    {\n        return propositions[propositionKey].count();\n    }\n\n    function enact(uint256 propositionKey)\n        public onlyInOrgan(enactorsOrgan)\n    {\n        // proposition.count() returns true if enactment is possible.\n        require (propositions[propositionKey].count(), \"Not authorized\");\n        Procedure.applyMove(propositions[propositionKey].moveKey);\n        propositions[propositionKey].enact();\n    }\n}",
  "sourcePath": "/Users/alex/Code/organigr.am/packages/@organigram/contracts/contracts/procedures/Vote.sol",
  "compiler": {
    "name": "solc",
    "version": "0.6.12+commit.27d51765.Emscripten.clang"
  },
  "schemaVersion": "3.3.2",
  "updatedAt": "2020-12-01T19:24:05.597Z",
  "networkType": "ethereum",
  "devdoc": {
    "kind": "dev",
    "methods": {},
    "version": 1
  },
  "userdoc": {
    "kind": "user",
    "methods": {
      "createMove(bytes32,uint8,uint8)": {
        "notice": "Public API : Moves creation and update."
      },
      "updateMetadata(bytes32,uint8,uint8)": {
        "notice": "Public API : Procedure Metadata and Admin."
      }
    },
    "version": 1
  }
}