{
  "contractName": "VoteProcedure",
  "abi": [
    {
      "inputs": [
        {
          "internalType": "bytes32",
          "name": "_metadataIpfsHash",
          "type": "bytes32"
        },
        {
          "internalType": "uint8",
          "name": "_metadataHashFunction",
          "type": "uint8"
        },
        {
          "internalType": "uint8",
          "name": "_metadataHashSize",
          "type": "uint8"
        },
        {
          "internalType": "address payable",
          "name": "_votersOrgan",
          "type": "address"
        },
        {
          "internalType": "address payable",
          "name": "_vetoersOrgan",
          "type": "address"
        },
        {
          "internalType": "address payable",
          "name": "_enactorsOrgan",
          "type": "address"
        }
      ],
      "stateMutability": "nonpayable",
      "type": "constructor"
    },
    {
      "inputs": [
        {
          "internalType": "bytes32",
          "name": "ipfsHash",
          "type": "bytes32"
        },
        {
          "internalType": "uint8",
          "name": "hashFunction",
          "type": "uint8"
        },
        {
          "internalType": "uint8",
          "name": "hashSize",
          "type": "uint8"
        }
      ],
      "name": "createMove",
      "outputs": [
        {
          "internalType": "uint256",
          "name": "",
          "type": "uint256"
        }
      ],
      "stateMutability": "nonpayable",
      "type": "function"
    },
    {
      "inputs": [],
      "name": "enactorsOrgan",
      "outputs": [
        {
          "internalType": "address payable",
          "name": "",
          "type": "address"
        }
      ],
      "stateMutability": "view",
      "type": "function",
      "constant": true
    },
    {
      "inputs": [],
      "name": "getKelsenData",
      "outputs": [
        {
          "internalType": "bool",
          "name": "",
          "type": "bool"
        },
        {
          "internalType": "bool",
          "name": "",
          "type": "bool"
        },
        {
          "internalType": "uint8",
          "name": "",
          "type": "uint8"
        }
      ],
      "stateMutability": "view",
      "type": "function",
      "constant": true
    },
    {
      "inputs": [],
      "name": "isOrgan",
      "outputs": [
        {
          "internalType": "bool",
          "name": "",
          "type": "bool"
        }
      ],
      "stateMutability": "view",
      "type": "function",
      "constant": true
    },
    {
      "inputs": [],
      "name": "isProcedure",
      "outputs": [
        {
          "internalType": "bool",
          "name": "",
          "type": "bool"
        }
      ],
      "stateMutability": "view",
      "type": "function",
      "constant": true
    },
    {
      "inputs": [],
      "name": "kelsenVersion",
      "outputs": [
        {
          "internalType": "uint8",
          "name": "",
          "type": "uint8"
        }
      ],
      "stateMutability": "view",
      "type": "function",
      "constant": true
    },
    {
      "inputs": [
        {
          "internalType": "uint256",
          "name": "moveKey",
          "type": "uint256"
        }
      ],
      "name": "lockMove",
      "outputs": [],
      "stateMutability": "nonpayable",
      "type": "function"
    },
    {
      "inputs": [
        {
          "internalType": "uint256",
          "name": "moveKey",
          "type": "uint256"
        },
        {
          "internalType": "address payable",
          "name": "organ",
          "type": "address"
        },
        {
          "internalType": "address payable",
          "name": "addr",
          "type": "address"
        },
        {
          "internalType": "bytes32",
          "name": "ipfsHash",
          "type": "bytes32"
        },
        {
          "internalType": "uint8",
          "name": "hashFunction",
          "type": "uint8"
        },
        {
          "internalType": "uint8",
          "name": "hashSize",
          "type": "uint8"
        },
        {
          "internalType": "bool",
          "name": "lock",
          "type": "bool"
        }
      ],
      "name": "moveAddEntry",
      "outputs": [],
      "stateMutability": "nonpayable",
      "type": "function"
    },
    {
      "inputs": [
        {
          "internalType": "uint256",
          "name": "moveKey",
          "type": "uint256"
        },
        {
          "internalType": "address payable",
          "name": "organ",
          "type": "address"
        },
        {
          "internalType": "address",
          "name": "procedure",
          "type": "address"
        },
        {
          "internalType": "bytes2",
          "name": "permissions",
          "type": "bytes2"
        },
        {
          "internalType": "bool",
          "name": "lock",
          "type": "bool"
        }
      ],
      "name": "moveAddProcedure",
      "outputs": [],
      "stateMutability": "nonpayable",
      "type": "function"
    },
    {
      "inputs": [
        {
          "internalType": "uint256",
          "name": "moveKey",
          "type": "uint256"
        },
        {
          "internalType": "bytes",
          "name": "call",
          "type": "bytes"
        },
        {
          "internalType": "bool",
          "name": "lock",
          "type": "bool"
        }
      ],
      "name": "moveCall",
      "outputs": [],
      "stateMutability": "nonpayable",
      "type": "function"
    },
    {
      "inputs": [
        {
          "internalType": "uint256",
          "name": "moveKey",
          "type": "uint256"
        },
        {
          "internalType": "address payable",
          "name": "organ",
          "type": "address"
        },
        {
          "internalType": "address",
          "name": "operator",
          "type": "address"
        },
        {
          "internalType": "address",
          "name": "target",
          "type": "address"
        },
        {
          "internalType": "uint256",
          "name": "value",
          "type": "uint256"
        },
        {
          "internalType": "bool",
          "name": "lock",
          "type": "bool"
        }
      ],
      "name": "moveReceiveCoins",
      "outputs": [],
      "stateMutability": "nonpayable",
      "type": "function"
    },
    {
      "inputs": [
        {
          "internalType": "uint256",
          "name": "moveKey",
          "type": "uint256"
        },
        {
          "internalType": "address payable",
          "name": "organ",
          "type": "address"
        },
        {
          "internalType": "address",
          "name": "operator",
          "type": "address"
        },
        {
          "internalType": "address",
          "name": "target",
          "type": "address"
        },
        {
          "internalType": "uint256",
          "name": "token_id",
          "type": "uint256"
        },
        {
          "internalType": "bool",
          "name": "lock",
          "type": "bool"
        }
      ],
      "name": "moveReceiveCollectible",
      "outputs": [],
      "stateMutability": "nonpayable",
      "type": "function"
    },
    {
      "inputs": [
        {
          "internalType": "uint256",
          "name": "moveKey",
          "type": "uint256"
        },
        {
          "internalType": "address payable",
          "name": "organ",
          "type": "address"
        },
        {
          "internalType": "address",
          "name": "target",
          "type": "address"
        },
        {
          "internalType": "uint256",
          "name": "value",
          "type": "uint256"
        },
        {
          "internalType": "bool",
          "name": "lock",
          "type": "bool"
        }
      ],
      "name": "moveReceiveEther",
      "outputs": [],
      "stateMutability": "nonpayable",
      "type": "function"
    },
    {
      "inputs": [
        {
          "internalType": "uint256",
          "name": "moveKey",
          "type": "uint256"
        },
        {
          "internalType": "address payable",
          "name": "organ",
          "type": "address"
        },
        {
          "internalType": "uint256",
          "name": "index",
          "type": "uint256"
        },
        {
          "internalType": "bool",
          "name": "lock",
          "type": "bool"
        }
      ],
      "name": "moveRemoveEntry",
      "outputs": [],
      "stateMutability": "nonpayable",
      "type": "function"
    },
    {
      "inputs": [
        {
          "internalType": "uint256",
          "name": "moveKey",
          "type": "uint256"
        },
        {
          "internalType": "address payable",
          "name": "organ",
          "type": "address"
        },
        {
          "internalType": "address",
          "name": "procedure",
          "type": "address"
        },
        {
          "internalType": "bool",
          "name": "lock",
          "type": "bool"
        }
      ],
      "name": "moveRemoveProcedure",
      "outputs": [],
      "stateMutability": "nonpayable",
      "type": "function"
    },
    {
      "inputs": [
        {
          "internalType": "uint256",
          "name": "moveKey",
          "type": "uint256"
        },
        {
          "internalType": "address payable",
          "name": "organ",
          "type": "address"
        },
        {
          "internalType": "uint256",
          "name": "index",
          "type": "uint256"
        },
        {
          "internalType": "address payable",
          "name": "addr",
          "type": "address"
        },
        {
          "internalType": "bytes32",
          "name": "ipfsHash",
          "type": "bytes32"
        },
        {
          "internalType": "uint8",
          "name": "hashFunction",
          "type": "uint8"
        },
        {
          "internalType": "uint8",
          "name": "hashSize",
          "type": "uint8"
        },
        {
          "internalType": "bool",
          "name": "lock",
          "type": "bool"
        }
      ],
      "name": "moveReplaceEntry",
      "outputs": [],
      "stateMutability": "nonpayable",
      "type": "function"
    },
    {
      "inputs": [
        {
          "internalType": "uint256",
          "name": "moveKey",
          "type": "uint256"
        },
        {
          "internalType": "address payable",
          "name": "organ",
          "type": "address"
        },
        {
          "internalType": "address",
          "name": "oldProcedure",
          "type": "address"
        },
        {
          "internalType": "address",
          "name": "newProcedure",
          "type": "address"
        },
        {
          "internalType": "bytes2",
          "name": "permissions",
          "type": "bytes2"
        },
        {
          "internalType": "bool",
          "name": "lock",
          "type": "bool"
        }
      ],
      "name": "moveReplaceProcedure",
      "outputs": [],
      "stateMutability": "nonpayable",
      "type": "function"
    },
    {
      "inputs": [
        {
          "internalType": "uint256",
          "name": "moveKey",
          "type": "uint256"
        },
        {
          "internalType": "address payable",
          "name": "organ",
          "type": "address"
        },
        {
          "internalType": "address",
          "name": "operator",
          "type": "address"
        },
        {
          "internalType": "address",
          "name": "target",
          "type": "address"
        },
        {
          "internalType": "uint256",
          "name": "value",
          "type": "uint256"
        },
        {
          "internalType": "bool",
          "name": "lock",
          "type": "bool"
        }
      ],
      "name": "moveTransferCoins",
      "outputs": [],
      "stateMutability": "nonpayable",
      "type": "function"
    },
    {
      "inputs": [
        {
          "internalType": "uint256",
          "name": "moveKey",
          "type": "uint256"
        },
        {
          "internalType": "address payable",
          "name": "organ",
          "type": "address"
        },
        {
          "internalType": "address",
          "name": "operator",
          "type": "address"
        },
        {
          "internalType": "address",
          "name": "target",
          "type": "address"
        },
        {
          "internalType": "uint256",
          "name": "token_id",
          "type": "uint256"
        },
        {
          "internalType": "bool",
          "name": "lock",
          "type": "bool"
        }
      ],
      "name": "moveTransferCollectible",
      "outputs": [],
      "stateMutability": "nonpayable",
      "type": "function"
    },
    {
      "inputs": [
        {
          "internalType": "uint256",
          "name": "moveKey",
          "type": "uint256"
        },
        {
          "internalType": "address payable",
          "name": "organ",
          "type": "address"
        },
        {
          "internalType": "address",
          "name": "target",
          "type": "address"
        },
        {
          "internalType": "uint256",
          "name": "value",
          "type": "uint256"
        },
        {
          "internalType": "bool",
          "name": "lock",
          "type": "bool"
        }
      ],
      "name": "moveTransferEther",
      "outputs": [],
      "stateMutability": "nonpayable",
      "type": "function"
    },
    {
      "inputs": [
        {
          "internalType": "address payable",
          "name": "admin",
          "type": "address"
        }
      ],
      "name": "updateAdmin",
      "outputs": [],
      "stateMutability": "nonpayable",
      "type": "function"
    },
    {
      "inputs": [
        {
          "internalType": "bytes32",
          "name": "ipfsHash",
          "type": "bytes32"
        },
        {
          "internalType": "uint8",
          "name": "hashFunction",
          "type": "uint8"
        },
        {
          "internalType": "uint8",
          "name": "hashSize",
          "type": "uint8"
        }
      ],
      "name": "updateMetadata",
      "outputs": [],
      "stateMutability": "nonpayable",
      "type": "function"
    },
    {
      "inputs": [],
      "name": "vetoersOrgan",
      "outputs": [
        {
          "internalType": "address payable",
          "name": "",
          "type": "address"
        }
      ],
      "stateMutability": "view",
      "type": "function",
      "constant": true
    },
    {
      "inputs": [],
      "name": "votersOrgan",
      "outputs": [
        {
          "internalType": "address payable",
          "name": "",
          "type": "address"
        }
      ],
      "stateMutability": "view",
      "type": "function",
      "constant": true
    },
    {
      "inputs": [
        {
          "internalType": "uint256",
          "name": "effectKey",
          "type": "uint256"
        },
        {
          "internalType": "bytes32",
          "name": "ipfsHash",
          "type": "bytes32"
        },
        {
          "internalType": "uint8",
          "name": "hashFunction",
          "type": "uint8"
        },
        {
          "internalType": "uint8",
          "name": "hashSize",
          "type": "uint8"
        }
      ],
      "name": "propose",
      "outputs": [
        {
          "internalType": "uint256",
          "name": "propositionKey",
          "type": "uint256"
        }
      ],
      "stateMutability": "nonpayable",
      "type": "function"
    },
    {
      "inputs": [
        {
          "internalType": "uint256",
          "name": "propositionKey",
          "type": "uint256"
        },
        {
          "internalType": "bool",
          "name": "approval",
          "type": "bool"
        }
      ],
      "name": "vote",
      "outputs": [],
      "stateMutability": "nonpayable",
      "type": "function"
    },
    {
      "inputs": [
        {
          "internalType": "uint256",
          "name": "propositionKey",
          "type": "uint256"
        },
        {
          "internalType": "bytes32",
          "name": "ipfsHash",
          "type": "bytes32"
        },
        {
          "internalType": "uint8",
          "name": "hashFunction",
          "type": "uint8"
        },
        {
          "internalType": "uint8",
          "name": "hashSize",
          "type": "uint8"
        }
      ],
      "name": "veto",
      "outputs": [],
      "stateMutability": "nonpayable",
      "type": "function"
    },
    {
      "inputs": [
        {
          "internalType": "uint256",
          "name": "propositionKey",
          "type": "uint256"
        }
      ],
      "name": "count",
      "outputs": [
        {
          "internalType": "bool",
          "name": "",
          "type": "bool"
        }
      ],
      "stateMutability": "view",
      "type": "function",
      "constant": true
    },
    {
      "inputs": [
        {
          "internalType": "uint256",
          "name": "propositionKey",
          "type": "uint256"
        }
      ],
      "name": "enact",
      "outputs": [],
      "stateMutability": "nonpayable",
      "type": "function"
    }
  ],
  "bytecode": "0x608060405260036000806101000a81548160ff021916908360ff1602179055503480156200002c57600080fd5b5060405162005d7738038062005d77833981810160405260c08110156200005257600080fd5b810190808051906020019092919080519060200190929190805190602001909291908051906020019092919080519060200190929190805190602001909291905050508585856000600181600060016101000a81548160ff02191690831515021790555080600060026101000a81548160ff0219169083151502179055505050600173__ProcedureLibrary______________________63359a395d90918585856040518563ffffffff1660e01b8152600401808581526020018481526020018360ff1660ff1681526020018260ff1660ff16815260200194505050505060006040518083038186803b1580156200014957600080fd5b505af41580156200015e573d6000803e3d6000fd5b5050505050505082600660006101000a81548173ffffffffffffffffffffffffffffffffffffffff021916908373ffffffffffffffffffffffffffffffffffffffff16021790555081600760006101000a81548173ffffffffffffffffffffffffffffffffffffffff021916908373ffffffffffffffffffffffffffffffffffffffff16021790555080600860006101000a81548173ffffffffffffffffffffffffffffffffffffffff021916908373ffffffffffffffffffffffffffffffffffffffff160217905550505050505050615b39806200023e6000396000f3fe608060405234801561001057600080fd5b50600436106101cf5760003560e01c8063759913d611610104578063c91ebea8116100a2578063d47fc87e11610071578063d47fc87e14610c17578063e2f273bd14610c69578063ebb8c34414610cad578063fa160aa214610cf7576101cf565b8063c91ebea814610a93578063c9d27afe14610ab5578063cb6bc9ff14610aef578063cc12503114610b93576101cf565b806390f2ee22116100de57806390f2ee221461092d578063a15e70021461094f578063a2b58cda146109ed578063c23c6d4614610a49576101cf565b8063759913d6146107e15780637c3a5fcc146108055780637ee7fa40146108a9576101cf565b806352c041b2116101715780635e9cc2a91161014b5780635e9cc2a91461068b57806362721a4c146106b95780636322ab201461070357806367c322d014610767576101cf565b806352c041b2146105105780635a31b560146105b95780635ba357dc1461065d576101cf565b80632c1d5337116101ad5780632c1d53371461035757806339c2ae701461041c5780633b3546c814610464578063416a99d1146104aa576101cf565b80630b5522a9146101d4578063148a200514610279578063249abcf71461031d575b600080fd5b610277600480360360a08110156101ea57600080fd5b8101908080359060200190929190803573ffffffffffffffffffffffffffffffffffffffff169060200190929190803573ffffffffffffffffffffffffffffffffffffffff16906020019092919080357dffffffffffffffffffffffffffffffffffffffffffffffffffffffffffff19169060200190929190803515159060200190929190505050610dc8565b005b61031b600480360360c081101561028f57600080fd5b8101908080359060200190929190803573ffffffffffffffffffffffffffffffffffffffff169060200190929190803573ffffffffffffffffffffffffffffffffffffffff169060200190929190803573ffffffffffffffffffffffffffffffffffffffff16906020019092919080359060200190929190803515159060200190929190505050610deb565b005b610325610e11565b6040518084151515158152602001831515151581526020018260ff1660ff168152602001935050505060405180910390f35b61041a600480360360c081101561036d57600080fd5b8101908080359060200190929190803573ffffffffffffffffffffffffffffffffffffffff169060200190929190803573ffffffffffffffffffffffffffffffffffffffff169060200190929190803573ffffffffffffffffffffffffffffffffffffffff16906020019092919080357dffffffffffffffffffffffffffffffffffffffffffffffffffffffffffff19169060200190929190803515159060200190929190505050610e4f565b005b6104626004803603606081101561043257600080fd5b8101908080359060200190929190803560ff169060200190929190803560ff169060200190929190505050610e75565b005b6104906004803603602081101561047a57600080fd5b8101908080359060200190929190505050610f08565b604051808215151515815260200191505060405180910390f35b6104fa600480360360808110156104c057600080fd5b810190808035906020019092919080359060200190929190803560ff169060200190929190803560ff169060200190929190505050610faf565b6040518082815260200191505060405180910390f35b6105b7600480360361010081101561052757600080fd5b8101908080359060200190929190803573ffffffffffffffffffffffffffffffffffffffff16906020019092919080359060200190929190803573ffffffffffffffffffffffffffffffffffffffff16906020019092919080359060200190929190803560ff169060200190929190803560ff1690602001909291908035151590602001909291905050506110f2565b005b61065b600480360360c08110156105cf57600080fd5b8101908080359060200190929190803573ffffffffffffffffffffffffffffffffffffffff169060200190929190803573ffffffffffffffffffffffffffffffffffffffff169060200190929190803573ffffffffffffffffffffffffffffffffffffffff1690602001909291908035906020019092919080351515906020019092919050505061111e565b005b6106896004803603602081101561067357600080fd5b8101908080359060200190929190505050611144565b005b6106b7600480360360208110156106a157600080fd5b810190808035906020019092919050505061115b565b005b6106c1611488565b604051808273ffffffffffffffffffffffffffffffffffffffff1673ffffffffffffffffffffffffffffffffffffffff16815260200191505060405180910390f35b6107656004803603608081101561071957600080fd5b8101908080359060200190929190803573ffffffffffffffffffffffffffffffffffffffff169060200190929190803590602001909291908035151590602001909291905050506114ae565b005b6107df6004803603608081101561077d57600080fd5b8101908080359060200190929190803573ffffffffffffffffffffffffffffffffffffffff169060200190929190803573ffffffffffffffffffffffffffffffffffffffff1690602001909291908035151590602001909291905050506114ce565b005b6107e96114ee565b604051808260ff1660ff16815260200191505060405180910390f35b6108a7600480360360c081101561081b57600080fd5b8101908080359060200190929190803573ffffffffffffffffffffffffffffffffffffffff169060200190929190803573ffffffffffffffffffffffffffffffffffffffff169060200190929190803573ffffffffffffffffffffffffffffffffffffffff16906020019092919080359060200190929190803515159060200190929190505050611500565b005b61092b600480360360a08110156108bf57600080fd5b8101908080359060200190929190803573ffffffffffffffffffffffffffffffffffffffff169060200190929190803573ffffffffffffffffffffffffffffffffffffffff16906020019092919080359060200190929190803515159060200190929190505050611526565b005b610935611549565b604051808215151515815260200191505060405180910390f35b6109eb600480360360e081101561096557600080fd5b8101908080359060200190929190803573ffffffffffffffffffffffffffffffffffffffff169060200190929190803573ffffffffffffffffffffffffffffffffffffffff16906020019092919080359060200190929190803560ff169060200190929190803560ff16906020019092919080351515906020019092919050505061155c565b005b610a3360048036036060811015610a0357600080fd5b8101908080359060200190929190803560ff169060200190929190803560ff169060200190929190505050611585565b6040518082815260200191505060405180910390f35b610a516115a8565b604051808273ffffffffffffffffffffffffffffffffffffffff1673ffffffffffffffffffffffffffffffffffffffff16815260200191505060405180910390f35b610a9b6115ce565b604051808215151515815260200191505060405180910390f35b610aed60048036036040811015610acb57600080fd5b81019080803590602001909291908035151590602001909291905050506115e1565b005b610b91600480360360c0811015610b0557600080fd5b8101908080359060200190929190803573ffffffffffffffffffffffffffffffffffffffff169060200190929190803573ffffffffffffffffffffffffffffffffffffffff169060200190929190803573ffffffffffffffffffffffffffffffffffffffff169060200190929190803590602001909291908035151590602001909291905050506117ec565b005b610c15600480360360a0811015610ba957600080fd5b8101908080359060200190929190803573ffffffffffffffffffffffffffffffffffffffff169060200190929190803573ffffffffffffffffffffffffffffffffffffffff16906020019092919080359060200190929190803515159060200190929190505050611812565b005b610c6760048036036080811015610c2d57600080fd5b810190808035906020019092919080359060200190929190803560ff169060200190929190803560ff169060200190929190505050611835565b005b610cab60048036036020811015610c7f57600080fd5b81019080803573ffffffffffffffffffffffffffffffffffffffff169060200190929190505050611a5a565b005b610cb5611afb565b604051808273ffffffffffffffffffffffffffffffffffffffff1673ffffffffffffffffffffffffffffffffffffffff16815260200191505060405180910390f35b610dc660048036036060811015610d0d57600080fd5b810190808035906020019092919080359060200190640100000000811115610d3457600080fd5b820183602082011115610d4657600080fd5b80359060200191846001830284011164010000000083111715610d6857600080fd5b91908080601f016020809104026020016040519081016040528093929190818152602001838380828437600081840152601f19601f820116905080830192505050505050509192919290803515159060200190929190505050611b21565b005b610de485858585856001611b3e9095949392919063ffffffff16565b5050505050565b610e098686868686866001611fe7909695949392919063ffffffff16565b505050505050565b60008060008060019054906101000a900460ff16600060029054906101000a900460ff166000809054906101000a900460ff16925092509250909192565b610e6d8686868686866001612483909695949392919063ffffffff16565b505050505050565b600173__ProcedureLibrary______________________63b8cc9a0290918585856040518563ffffffff1660e01b8152600401808581526020018481526020018360ff1660ff1681526020018260ff1660ff16815260200194505050505060006040518083038186803b158015610eeb57600080fd5b505af4158015610eff573d6000803e3d6000fd5b50505050505050565b60006009600083815260200190815260200160002073__VotePropositionLibrary________________6386300da490916040518263ffffffff1660e01b81526004018082815260200191505060206040518083038186803b158015610f6d57600080fd5b505af4158015610f81573d6000803e3d6000fd5b505050506040513d6020811015610f9757600080fd5b81019080805190602001909291905050509050919050565b60006001600a54019050600a548111611030576040517f08c379a000000000000000000000000000000000000000000000000000000000815260040180806020018281038252600d8152602001807f4f7574206f6620626f756e642e0000000000000000000000000000000000000081525060200191505060405180910390fd5b6009600082815260200190815260200160002073__VotePropositionLibrary________________639de9d1589091878787876040518663ffffffff1660e01b8152600401808681526020018581526020018481526020018360ff1660ff1681526020018260ff1660ff1681526020019550505050505060006040518083038186803b1580156110bf57600080fd5b505af41580156110d3573d6000803e3d6000fd5b50505050600a6000815480929190600101919050559050949350505050565b611114888888888888888860016129619098979695949392919063ffffffff16565b5050505050505050565b61113c8686868686866001612db9909695949392919063ffffffff16565b505050505050565b61115881600161325590919063ffffffff16565b50565b600860009054906101000a900473ffffffffffffffffffffffffffffffffffffffff1673__ProcedureLibrary______________________637c3b86fe82336040518363ffffffff1660e01b8152600401808373ffffffffffffffffffffffffffffffffffffffff1673ffffffffffffffffffffffffffffffffffffffff1681526020018273ffffffffffffffffffffffffffffffffffffffff1673ffffffffffffffffffffffffffffffffffffffff1681526020019250505060206040518083038186803b15801561122d57600080fd5b505af4158015611241573d6000803e3d6000fd5b505050506040513d602081101561125757600080fd5b81019080805190602001909291905050506112da576040517f08c379a000000000000000000000000000000000000000000000000000000000815260040180806020018281038252600e8152602001807f4e6f7420617574686f72697a656400000000000000000000000000000000000081525060200191505060405180910390fd5b6009600083815260200190815260200160002073__VotePropositionLibrary________________6386300da490916040518263ffffffff1660e01b81526004018082815260200191505060206040518083038186803b15801561133d57600080fd5b505af4158015611351573d6000803e3d6000fd5b505050506040513d602081101561136757600080fd5b81019080805190602001909291905050506113ea576040517f08c379a000000000000000000000000000000000000000000000000000000000815260040180806020018281038252600e8152602001807f4e6f7420617574686f72697a656400000000000000000000000000000000000081525060200191505060405180910390fd5b61140960096000848152602001908152602001600020600101546134cd565b6009600083815260200190815260200160002073__VotePropositionLibrary________________639acab60390916040518263ffffffff1660e01b81526004018082815260200191505060006040518083038186803b15801561146c57600080fd5b505af4158015611480573d6000803e3d6000fd5b505050505050565b600760009054906101000a900473ffffffffffffffffffffffffffffffffffffffff1681565b6114c88484848460016134e490949392919063ffffffff16565b50505050565b6114e884848484600161391690949392919063ffffffff16565b50505050565b6000809054906101000a900460ff1681565b61151e8686868686866001613d74909695949392919063ffffffff16565b505050505050565b611542858585858560016141dc9095949392919063ffffffff16565b5050505050565b600060019054906101000a900460ff1681565b61157c87878787878787600161464390979695949392919063ffffffff16565b50505050505050565b600061159f8484846001614ac8909392919063ffffffff16565b90509392505050565b600660009054906101000a900473ffffffffffffffffffffffffffffffffffffffff1681565b600060029054906101000a900460ff1681565b600660009054906101000a900473ffffffffffffffffffffffffffffffffffffffff1673__ProcedureLibrary______________________637c3b86fe82336040518363ffffffff1660e01b8152600401808373ffffffffffffffffffffffffffffffffffffffff1673ffffffffffffffffffffffffffffffffffffffff1681526020018273ffffffffffffffffffffffffffffffffffffffff1673ffffffffffffffffffffffffffffffffffffffff1681526020019250505060206040518083038186803b1580156116b357600080fd5b505af41580156116c7573d6000803e3d6000fd5b505050506040513d60208110156116dd57600080fd5b8101908080519060200190929190505050611760576040517f08c379a000000000000000000000000000000000000000000000000000000000815260040180806020018281038252600e8152602001807f4e6f7420617574686f72697a656400000000000000000000000000000000000081525060200191505060405180910390fd5b6009600084815260200190815260200160002073__VotePropositionLibrary________________63d7a389fb9091846040518363ffffffff1660e01b815260040180838152602001821515151581526020019250505060006040518083038186803b1580156117cf57600080fd5b505af41580156117e3573d6000803e3d6000fd5b50505050505050565b61180a8686868686866001614bcb909695949392919063ffffffff16565b505050505050565b61182e858585858560016150679095949392919063ffffffff16565b5050505050565b600760009054906101000a900473ffffffffffffffffffffffffffffffffffffffff1673__ProcedureLibrary______________________637c3b86fe82336040518363ffffffff1660e01b8152600401808373ffffffffffffffffffffffffffffffffffffffff1673ffffffffffffffffffffffffffffffffffffffff1681526020018273ffffffffffffffffffffffffffffffffffffffff1673ffffffffffffffffffffffffffffffffffffffff1681526020019250505060206040518083038186803b15801561190757600080fd5b505af415801561191b573d6000803e3d6000fd5b505050506040513d602081101561193157600080fd5b81019080805190602001909291905050506119b4576040517f08c379a000000000000000000000000000000000000000000000000000000000815260040180806020018281038252600e8152602001807f4e6f7420617574686f72697a656400000000000000000000000000000000000081525060200191505060405180910390fd5b6009600086815260200190815260200160002073__VotePropositionLibrary________________6394974cc790918686866040518563ffffffff1660e01b8152600401808581526020018481526020018360ff1660ff1681526020018260ff1660ff16815260200194505050505060006040518083038186803b158015611a3b57600080fd5b505af4158015611a4f573d6000803e3d6000fd5b505050505050505050565b600173__ProcedureLibrary______________________638e956e929091836040518363ffffffff1660e01b8152600401808381526020018273ffffffffffffffffffffffffffffffffffffffff1673ffffffffffffffffffffffffffffffffffffffff1681526020019250505060006040518083038186803b158015611ae057600080fd5b505af4158015611af4573d6000803e3d6000fd5b5050505050565b600860009054906101000a900473ffffffffffffffffffffffffffffffffffffffff1681565b611b3983838360016154ce909392919063ffffffff16565b505050565b85853373ffffffffffffffffffffffffffffffffffffffff1682600301600083815260200190815260200160002060000160009054906101000a900473ffffffffffffffffffffffffffffffffffffffff1673ffffffffffffffffffffffffffffffffffffffff1614611c19576040517f08c379a000000000000000000000000000000000000000000000000000000000815260040180806020018281038252600f8152602001807f4e6f7420617574686f72697a65642e000000000000000000000000000000000081525060200191505060405180910390fd5b878781600301600082815260200190815260200160002060030160009054906101000a900460ff16158015611c71575081600301600082815260200190815260200160002060030160019054906101000a900460ff16155b8015611ca0575081600301600082815260200190815260200160002060030160029054906101000a900460ff16155b611d12576040517f08c379a000000000000000000000000000000000000000000000000000000000815260040180806020018281038252600f8152602001807f4e6f7420617574686f72697a65642e000000000000000000000000000000000081525060200191505060405180910390fd5b8960030160008a815260200190815260200160002060040160405180608001604052808c60030160008d8152602001908152602001600020600401805490508152602001600460ff1681526020016390b137e98b8b8b604051602401808473ffffffffffffffffffffffffffffffffffffffff1673ffffffffffffffffffffffffffffffffffffffff1681526020018373ffffffffffffffffffffffffffffffffffffffff1673ffffffffffffffffffffffffffffffffffffffff168152602001827dffffffffffffffffffffffffffffffffffffffffffffffffffffffffffff19167dffffffffffffffffffffffffffffffffffffffffffffffffffffffffffff1916815260200193505050506040516020818303038152906040529060e01b6020820180517bffffffffffffffffffffffffffffffffffffffffffffffffffffffff838183161783525050505081526020016000151581525090806001815401808255809150506001900390600052602060002090600402016000909190919091506000820151816000015560208201518160010160006101000a81548160ff021916908360ff1602179055506040820151816002019080519060200190611edd929190615a5e565b5060608201518160030160006101000a81548160ff02191690831515021790555050508415611fdb5760018a60030160008b815260200190815260200160002060030160006101000a81548160ff0219169083151502179055507f7306ab933b6e1df1bd2fddce7143eeedd65d5996fada0e9168c4e8c3d1ece94d8a60030160008b815260200190815260200160002060000160009054906101000a900473ffffffffffffffffffffffffffffffffffffffff168a604051808373ffffffffffffffffffffffffffffffffffffffff1673ffffffffffffffffffffffffffffffffffffffff1681526020018281526020019250505060405180910390a15b50505050505050505050565b86863373ffffffffffffffffffffffffffffffffffffffff1682600301600083815260200190815260200160002060000160009054906101000a900473ffffffffffffffffffffffffffffffffffffffff1673ffffffffffffffffffffffffffffffffffffffff16146120c2576040517f08c379a000000000000000000000000000000000000000000000000000000000815260040180806020018281038252600f8152602001807f4e6f7420617574686f72697a65642e000000000000000000000000000000000081525060200191505060405180910390fd5b888881600301600082815260200190815260200160002060030160009054906101000a900460ff1615801561211a575081600301600082815260200190815260200160002060030160019054906101000a900460ff16155b8015612149575081600301600082815260200190815260200160002060030160029054906101000a900460ff16155b6121bb576040517f08c379a000000000000000000000000000000000000000000000000000000000815260040180806020018281038252600f8152602001807f4e6f7420617574686f72697a65642e000000000000000000000000000000000081525060200191505060405180910390fd5b8a60030160008b815260200190815260200160002060040160405180608001604052808d60030160008e8152602001908152602001600020600401805490508152602001600760ff16815260200163c10753298c8c8c8c604051602401808573ffffffffffffffffffffffffffffffffffffffff1673ffffffffffffffffffffffffffffffffffffffff1681526020018473ffffffffffffffffffffffffffffffffffffffff1673ffffffffffffffffffffffffffffffffffffffff1681526020018373ffffffffffffffffffffffffffffffffffffffff1673ffffffffffffffffffffffffffffffffffffffff1681526020018281526020019450505050506040516020818303038152906040529060e01b6020820180517bffffffffffffffffffffffffffffffffffffffffffffffffffffffff838183161783525050505081526020016000151581525090806001815401808255809150506001900390600052602060002090600402016000909190919091506000820151816000015560208201518160010160006101000a81548160ff021916908360ff1602179055506040820151816002019080519060200190612378929190615a5e565b5060608201518160030160006101000a81548160ff021916908315150217905550505084156124765760018b60030160008c815260200190815260200160002060030160006101000a81548160ff0219169083151502179055507f7306ab933b6e1df1bd2fddce7143eeedd65d5996fada0e9168c4e8c3d1ece94d8b60030160008c815260200190815260200160002060000160009054906101000a900473ffffffffffffffffffffffffffffffffffffffff168b604051808373ffffffffffffffffffffffffffffffffffffffff1673ffffffffffffffffffffffffffffffffffffffff1681526020018281526020019250505060405180910390a15b5050505050505050505050565b86863373ffffffffffffffffffffffffffffffffffffffff1682600301600083815260200190815260200160002060000160009054906101000a900473ffffffffffffffffffffffffffffffffffffffff1673ffffffffffffffffffffffffffffffffffffffff161461255e576040517f08c379a000000000000000000000000000000000000000000000000000000000815260040180806020018281038252600f8152602001807f4e6f7420617574686f72697a65642e000000000000000000000000000000000081525060200191505060405180910390fd5b888881600301600082815260200190815260200160002060030160009054906101000a900460ff161580156125b6575081600301600082815260200190815260200160002060030160019054906101000a900460ff16155b80156125e5575081600301600082815260200190815260200160002060030160029054906101000a900460ff16155b612657576040517f08c379a000000000000000000000000000000000000000000000000000000000815260040180806020018281038252600f8152602001807f4e6f7420617574686f72697a65642e000000000000000000000000000000000081525060200191505060405180910390fd5b8a60030160008b815260200190815260200160002060040160405180608001604052808d60030160008e8152602001908152602001600020600401805490508152602001600660ff168152602001635676c77d8c8c8c8c604051602401808573ffffffffffffffffffffffffffffffffffffffff1673ffffffffffffffffffffffffffffffffffffffff1681526020018473ffffffffffffffffffffffffffffffffffffffff1673ffffffffffffffffffffffffffffffffffffffff1681526020018373ffffffffffffffffffffffffffffffffffffffff1673ffffffffffffffffffffffffffffffffffffffff168152602001827dffffffffffffffffffffffffffffffffffffffffffffffffffffffffffff19167dffffffffffffffffffffffffffffffffffffffffffffffffffffffffffff191681526020019450505050506040516020818303038152906040529060e01b6020820180517bffffffffffffffffffffffffffffffffffffffffffffffffffffffff838183161783525050505081526020016000151581525090806001815401808255809150506001900390600052602060002090600402016000909190919091506000820151816000015560208201518160010160006101000a81548160ff021916908360ff1602179055506040820151816002019080519060200190612856929190615a5e565b5060608201518160030160006101000a81548160ff021916908315150217905550505084156129545760018b60030160008c815260200190815260200160002060030160006101000a81548160ff0219169083151502179055507f7306ab933b6e1df1bd2fddce7143eeedd65d5996fada0e9168c4e8c3d1ece94d8b60030160008c815260200190815260200160002060000160009054906101000a900473ffffffffffffffffffffffffffffffffffffffff168b604051808373ffffffffffffffffffffffffffffffffffffffff1673ffffffffffffffffffffffffffffffffffffffff1681526020018281526020019250505060405180910390a15b5050505050505050505050565b88883373ffffffffffffffffffffffffffffffffffffffff1682600301600083815260200190815260200160002060000160009054906101000a900473ffffffffffffffffffffffffffffffffffffffff1673ffffffffffffffffffffffffffffffffffffffff1614612a3c576040517f08c379a000000000000000000000000000000000000000000000000000000000815260040180806020018281038252600f8152602001807f4e6f7420617574686f72697a65642e000000000000000000000000000000000081525060200191505060405180910390fd5b8a8a81600301600082815260200190815260200160002060030160009054906101000a900460ff16158015612a94575081600301600082815260200190815260200160002060030160019054906101000a900460ff16155b8015612ac3575081600301600082815260200190815260200160002060030160029054906101000a900460ff16155b612b35576040517f08c379a000000000000000000000000000000000000000000000000000000000815260040180806020018281038252600f8152602001807f4e6f7420617574686f72697a65642e000000000000000000000000000000000081525060200191505060405180910390fd5b60008d60030160008e8152602001908152602001600020905080600401604051806080016040528083600401805490508152602001600360ff16815260200163155a73ce8f8f8f8f8f8f604051602401808773ffffffffffffffffffffffffffffffffffffffff1673ffffffffffffffffffffffffffffffffffffffff1681526020018681526020018573ffffffffffffffffffffffffffffffffffffffff1673ffffffffffffffffffffffffffffffffffffffff1681526020018481526020018360ff1660ff1681526020018260ff1660ff16815260200196505050505050506040516020818303038152906040529060e01b6020820180517bffffffffffffffffffffffffffffffffffffffffffffffffffffffff838183161783525050505081526020016000151581525090806001815401808255809150506001900390600052602060002090600402016000909190919091506000820151816000015560208201518160010160006101000a81548160ff021916908360ff1602179055506040820151816002019080519060200190612cd3929190615a5e565b5060608201518160030160006101000a81548160ff02191690831515021790555050508515612da95760018160030160006101000a81548160ff0219169083151502179055507f7306ab933b6e1df1bd2fddce7143eeedd65d5996fada0e9168c4e8c3d1ece94d8160000160009054906101000a900473ffffffffffffffffffffffffffffffffffffffff168e604051808373ffffffffffffffffffffffffffffffffffffffff1673ffffffffffffffffffffffffffffffffffffffff1681526020018281526020019250505060405180910390a15b5050505050505050505050505050565b86863373ffffffffffffffffffffffffffffffffffffffff1682600301600083815260200190815260200160002060000160009054906101000a900473ffffffffffffffffffffffffffffffffffffffff1673ffffffffffffffffffffffffffffffffffffffff1614612e94576040517f08c379a000000000000000000000000000000000000000000000000000000000815260040180806020018281038252600f8152602001807f4e6f7420617574686f72697a65642e000000000000000000000000000000000081525060200191505060405180910390fd5b888881600301600082815260200190815260200160002060030160009054906101000a900460ff16158015612eec575081600301600082815260200190815260200160002060030160019054906101000a900460ff16155b8015612f1b575081600301600082815260200190815260200160002060030160029054906101000a900460ff16155b612f8d576040517f08c379a000000000000000000000000000000000000000000000000000000000815260040180806020018281038252600f8152602001807f4e6f7420617574686f72697a65642e000000000000000000000000000000000081525060200191505060405180910390fd5b8a60030160008b815260200190815260200160002060040160405180608001604052808d60030160008e8152602001908152602001600020600401805490508152602001600860ff168152602001635e35359e8c8c8c8c604051602401808573ffffffffffffffffffffffffffffffffffffffff1673ffffffffffffffffffffffffffffffffffffffff1681526020018473ffffffffffffffffffffffffffffffffffffffff1673ffffffffffffffffffffffffffffffffffffffff1681526020018373ffffffffffffffffffffffffffffffffffffffff1673ffffffffffffffffffffffffffffffffffffffff1681526020018281526020019450505050506040516020818303038152906040529060e01b6020820180517bffffffffffffffffffffffffffffffffffffffffffffffffffffffff838183161783525050505081526020016000151581525090806001815401808255809150506001900390600052602060002090600402016000909190919091506000820151816000015560208201518160010160006101000a81548160ff021916908360ff160217905550604082015181600201908051906020019061314a929190615a5e565b5060608201518160030160006101000a81548160ff021916908315150217905550505084156132485760018b60030160008c815260200190815260200160002060030160006101000a81548160ff0219169083151502179055507f7306ab933b6e1df1bd2fddce7143eeedd65d5996fada0e9168c4e8c3d1ece94d8b60030160008c815260200190815260200160002060000160009054906101000a900473ffffffffffffffffffffffffffffffffffffffff168b604051808373ffffffffffffffffffffffffffffffffffffffff1673ffffffffffffffffffffffffffffffffffffffff1681526020018281526020019250505060405180910390a15b5050505050505050505050565b81813373ffffffffffffffffffffffffffffffffffffffff1682600301600083815260200190815260200160002060000160009054906101000a900473ffffffffffffffffffffffffffffffffffffffff1673ffffffffffffffffffffffffffffffffffffffff1614613330576040517f08c379a000000000000000000000000000000000000000000000000000000000815260040180806020018281038252600f8152602001807f4e6f7420617574686f72697a65642e000000000000000000000000000000000081525060200191505060405180910390fd5b838381600301600082815260200190815260200160002060030160009054906101000a900460ff16158015613388575081600301600082815260200190815260200160002060030160019054906101000a900460ff16155b80156133b7575081600301600082815260200190815260200160002060030160029054906101000a900460ff16155b613429576040517f08c379a000000000000000000000000000000000000000000000000000000000815260040180806020018281038252600f8152602001807f4e6f7420617574686f72697a65642e000000000000000000000000000000000081525060200191505060405180910390fd5b600186600301600087815260200190815260200160002060030160006101000a81548160ff0219169083151502179055507f7306ab933b6e1df1bd2fddce7143eeedd65d5996fada0e9168c4e8c3d1ece94d3386604051808373ffffffffffffffffffffffffffffffffffffffff1673ffffffffffffffffffffffffffffffffffffffff1681526020018281526020019250505060405180910390a1505050505050565b6134e181600161587590919063ffffffff16565b50565b84843373ffffffffffffffffffffffffffffffffffffffff1682600301600083815260200190815260200160002060000160009054906101000a900473ffffffffffffffffffffffffffffffffffffffff1673ffffffffffffffffffffffffffffffffffffffff16146135bf576040517f08c379a000000000000000000000000000000000000000000000000000000000815260040180806020018281038252600f8152602001807f4e6f7420617574686f72697a65642e000000000000000000000000000000000081525060200191505060405180910390fd5b868681600301600082815260200190815260200160002060030160009054906101000a900460ff16158015613617575081600301600082815260200190815260200160002060030160019054906101000a900460ff16155b8015613646575081600301600082815260200190815260200160002060030160029054906101000a900460ff16155b6136b8576040517f08c379a000000000000000000000000000000000000000000000000000000000815260040180806020018281038252600f8152602001807f4e6f7420617574686f72697a65642e000000000000000000000000000000000081525060200191505060405180910390fd5b88600301600089815260200190815260200160002060040160405180608001604052808b60030160008c8152602001908152602001600020600401805490508152602001600260ff1681526020016376a6411c8a8a604051602401808373ffffffffffffffffffffffffffffffffffffffff1673ffffffffffffffffffffffffffffffffffffffff168152602001828152602001925050506040516020818303038152906040529060e01b6020820180517bffffffffffffffffffffffffffffffffffffffffffffffffffffffff838183161783525050505081526020016000151581525090806001815401808255809150506001900390600052602060002090600402016000909190919091506000820151816000015560208201518160010160006101000a81548160ff021916908360ff160217905550604082015181600201908051906020019061380d929190615a5e565b5060608201518160030160006101000a81548160ff0219169083151502179055505050841561390b5760018960030160008a815260200190815260200160002060030160006101000a81548160ff0219169083151502179055507f7306ab933b6e1df1bd2fddce7143eeedd65d5996fada0e9168c4e8c3d1ece94d8960030160008a815260200190815260200160002060000160009054906101000a900473ffffffffffffffffffffffffffffffffffffffff1689604051808373ffffffffffffffffffffffffffffffffffffffff1673ffffffffffffffffffffffffffffffffffffffff1681526020018281526020019250505060405180910390a15b505050505050505050565b84843373ffffffffffffffffffffffffffffffffffffffff1682600301600083815260200190815260200160002060000160009054906101000a900473ffffffffffffffffffffffffffffffffffffffff1673ffffffffffffffffffffffffffffffffffffffff16146139f1576040517f08c379a000000000000000000000000000000000000000000000000000000000815260040180806020018281038252600f8152602001807f4e6f7420617574686f72697a65642e000000000000000000000000000000000081525060200191505060405180910390fd5b868681600301600082815260200190815260200160002060030160009054906101000a900460ff16158015613a49575081600301600082815260200190815260200160002060030160019054906101000a900460ff16155b8015613a78575081600301600082815260200190815260200160002060030160029054906101000a900460ff16155b613aea576040517f08c379a000000000000000000000000000000000000000000000000000000000815260040180806020018281038252600f8152602001807f4e6f7420617574686f72697a65642e000000000000000000000000000000000081525060200191505060405180910390fd5b88600301600089815260200190815260200160002060040160405180608001604052808b60030160008c8152602001908152602001600020600401805490508152602001600560ff1681526020016319b9404c8a8a604051602401808373ffffffffffffffffffffffffffffffffffffffff1673ffffffffffffffffffffffffffffffffffffffff1681526020018273ffffffffffffffffffffffffffffffffffffffff1673ffffffffffffffffffffffffffffffffffffffff168152602001925050506040516020818303038152906040529060e01b6020820180517bffffffffffffffffffffffffffffffffffffffffffffffffffffffff838183161783525050505081526020016000151581525090806001815401808255809150506001900390600052602060002090600402016000909190919091506000820151816000015560208201518160010160006101000a81548160ff021916908360ff1602179055506040820151816002019080519060200190613c6b929190615a5e565b5060608201518160030160006101000a81548160ff02191690831515021790555050508415613d695760018960030160008a815260200190815260200160002060030160006101000a81548160ff0219169083151502179055507f7306ab933b6e1df1bd2fddce7143eeedd65d5996fada0e9168c4e8c3d1ece94d8960030160008a815260200190815260200160002060000160009054906101000a900473ffffffffffffffffffffffffffffffffffffffff1689604051808373ffffffffffffffffffffffffffffffffffffffff1673ffffffffffffffffffffffffffffffffffffffff1681526020018281526020019250505060405180910390a15b505050505050505050565b86863373ffffffffffffffffffffffffffffffffffffffff1682600301600083815260200190815260200160002060000160009054906101000a900473ffffffffffffffffffffffffffffffffffffffff1673ffffffffffffffffffffffffffffffffffffffff1614613e4f576040517f08c379a000000000000000000000000000000000000000000000000000000000815260040180806020018281038252600f8152602001807f4e6f7420617574686f72697a65642e000000000000000000000000000000000081525060200191505060405180910390fd5b888881600301600082815260200190815260200160002060030160009054906101000a900460ff16158015613ea7575081600301600082815260200190815260200160002060030160019054906101000a900460ff16155b8015613ed6575081600301600082815260200190815260200160002060030160029054906101000a900460ff16155b613f48576040517f08c379a000000000000000000000000000000000000000000000000000000000815260040180806020018281038252600f8152602001807f4e6f7420617574686f72697a65642e000000000000000000000000000000000081525060200191505060405180910390fd5b8a60030160008b815260200190815260200160002060040160405180608001604052808d60030160008e8152602001908152602001600020600401805490508152602001600760ff16815260200163c10753298c8c8b604051602401808473ffffffffffffffffffffffffffffffffffffffff1673ffffffffffffffffffffffffffffffffffffffff1681526020018373ffffffffffffffffffffffffffffffffffffffff1673ffffffffffffffffffffffffffffffffffffffff16815260200182815260200193505050506040516020818303038152906040529060e01b6020820180517bffffffffffffffffffffffffffffffffffffffffffffffffffffffff838183161783525050505081526020016000151581525090806001815401808255809150506001900390600052602060002090600402016000909190919091506000820151816000015560208201518160010160006101000a81548160ff021916908360ff16021790555060408201518160020190805190602001906140d1929190615a5e565b5060608201518160030160006101000a81548160ff021916908315150217905550505084156141cf5760018b60030160008c815260200190815260200160002060030160006101000a81548160ff0219169083151502179055507f7306ab933b6e1df1bd2fddce7143eeedd65d5996fada0e9168c4e8c3d1ece94d8b60030160008c815260200190815260200160002060000160009054906101000a900473ffffffffffffffffffffffffffffffffffffffff168b604051808373ffffffffffffffffffffffffffffffffffffffff1673ffffffffffffffffffffffffffffffffffffffff1681526020018281526020019250505060405180910390a15b5050505050505050505050565b85853373ffffffffffffffffffffffffffffffffffffffff1682600301600083815260200190815260200160002060000160009054906101000a900473ffffffffffffffffffffffffffffffffffffffff1673ffffffffffffffffffffffffffffffffffffffff16146142b7576040517f08c379a000000000000000000000000000000000000000000000000000000000815260040180806020018281038252600f8152602001807f4e6f7420617574686f72697a65642e000000000000000000000000000000000081525060200191505060405180910390fd5b878781600301600082815260200190815260200160002060030160009054906101000a900460ff1615801561430f575081600301600082815260200190815260200160002060030160019054906101000a900460ff16155b801561433e575081600301600082815260200190815260200160002060030160029054906101000a900460ff16155b6143b0576040517f08c379a000000000000000000000000000000000000000000000000000000000815260040180806020018281038252600f8152602001807f4e6f7420617574686f72697a65642e000000000000000000000000000000000081525060200191505060405180910390fd5b8960030160008a815260200190815260200160002060040160405180608001604052808c60030160008d8152602001908152602001600020600401805490508152602001600760ff16815260200163c10753298b8b8b604051602401808473ffffffffffffffffffffffffffffffffffffffff1673ffffffffffffffffffffffffffffffffffffffff1681526020018373ffffffffffffffffffffffffffffffffffffffff1673ffffffffffffffffffffffffffffffffffffffff16815260200182815260200193505050506040516020818303038152906040529060e01b6020820180517bffffffffffffffffffffffffffffffffffffffffffffffffffffffff838183161783525050505081526020016000151581525090806001815401808255809150506001900390600052602060002090600402016000909190919091506000820151816000015560208201518160010160006101000a81548160ff021916908360ff1602179055506040820151816002019080519060200190614539929190615a5e565b5060608201518160030160006101000a81548160ff021916908315150217905550505084156146375760018a60030160008b815260200190815260200160002060030160006101000a81548160ff0219169083151502179055507f7306ab933b6e1df1bd2fddce7143eeedd65d5996fada0e9168c4e8c3d1ece94d8a60030160008b815260200190815260200160002060000160009054906101000a900473ffffffffffffffffffffffffffffffffffffffff168a604051808373ffffffffffffffffffffffffffffffffffffffff1673ffffffffffffffffffffffffffffffffffffffff1681526020018281526020019250505060405180910390a15b50505050505050505050565b87873373ffffffffffffffffffffffffffffffffffffffff1682600301600083815260200190815260200160002060000160009054906101000a900473ffffffffffffffffffffffffffffffffffffffff1673ffffffffffffffffffffffffffffffffffffffff161461471e576040517f08c379a000000000000000000000000000000000000000000000000000000000815260040180806020018281038252600f8152602001807f4e6f7420617574686f72697a65642e000000000000000000000000000000000081525060200191505060405180910390fd5b898981600301600082815260200190815260200160002060030160009054906101000a900460ff16158015614776575081600301600082815260200190815260200160002060030160019054906101000a900460ff16155b80156147a5575081600301600082815260200190815260200160002060030160029054906101000a900460ff16155b614817576040517f08c379a000000000000000000000000000000000000000000000000000000000815260040180806020018281038252600f8152602001807f4e6f7420617574686f72697a65642e000000000000000000000000000000000081525060200191505060405180910390fd5b8b60030160008c815260200190815260200160002060040160405180608001604052808e60030160008f8152602001908152602001600020600401805490508152602001600160ff168152602001631715f4de8d8d8d8d8d604051602401808673ffffffffffffffffffffffffffffffffffffffff1673ffffffffffffffffffffffffffffffffffffffff1681526020018573ffffffffffffffffffffffffffffffffffffffff1673ffffffffffffffffffffffffffffffffffffffff1681526020018481526020018360ff1660ff1681526020018260ff1660ff168152602001955050505050506040516020818303038152906040529060e01b6020820180517bffffffffffffffffffffffffffffffffffffffffffffffffffffffff838183161783525050505081526020016000151581525090806001815401808255809150506001900390600052602060002090600402016000909190919091506000820151816000015560208201518160010160006101000a81548160ff021916908360ff16021790555060408201518160020190805190602001906149bc929190615a5e565b5060608201518160030160006101000a81548160ff02191690831515021790555050508415614aba5760018c60030160008d815260200190815260200160002060030160006101000a81548160ff0219169083151502179055507f7306ab933b6e1df1bd2fddce7143eeedd65d5996fada0e9168c4e8c3d1ece94d8c60030160008d815260200190815260200160002060000160009054906101000a900473ffffffffffffffffffffffffffffffffffffffff168c604051808373ffffffffffffffffffffffffffffffffffffffff1673ffffffffffffffffffffffffffffffffffffffff1681526020018281526020019250505060405180910390a15b505050505050505050505050565b6000808560040160008154809291906001019190505590503386600301600083815260200190815260200160002060000160006101000a81548173ffffffffffffffffffffffffffffffffffffffff021916908373ffffffffffffffffffffffffffffffffffffffff16021790555060405180606001604052808681526020018560ff1681526020018460ff168152508660030160008381526020019081526020016000206001016000820151816000015560208201518160010160006101000a81548160ff021916908360ff16021790555060408201518160010160016101000a81548160ff021916908360ff16021790555090505080915050949350505050565b86863373ffffffffffffffffffffffffffffffffffffffff1682600301600083815260200190815260200160002060000160009054906101000a900473ffffffffffffffffffffffffffffffffffffffff1673ffffffffffffffffffffffffffffffffffffffff1614614ca6576040517f08c379a000000000000000000000000000000000000000000000000000000000815260040180806020018281038252600f8152602001807f4e6f7420617574686f72697a65642e000000000000000000000000000000000081525060200191505060405180910390fd5b888881600301600082815260200190815260200160002060030160009054906101000a900460ff16158015614cfe575081600301600082815260200190815260200160002060030160019054906101000a900460ff16155b8015614d2d575081600301600082815260200190815260200160002060030160029054906101000a900460ff16155b614d9f576040517f08c379a000000000000000000000000000000000000000000000000000000000815260040180806020018281038252600f8152602001807f4e6f7420617574686f72697a65642e000000000000000000000000000000000081525060200191505060405180910390fd5b8a60030160008b815260200190815260200160002060040160405180608001604052808d60030160008e8152602001908152602001600020600401805490508152602001600860ff168152602001635e35359e8c8c8c8c604051602401808573ffffffffffffffffffffffffffffffffffffffff1673ffffffffffffffffffffffffffffffffffffffff1681526020018473ffffffffffffffffffffffffffffffffffffffff1673ffffffffffffffffffffffffffffffffffffffff1681526020018373ffffffffffffffffffffffffffffffffffffffff1673ffffffffffffffffffffffffffffffffffffffff1681526020018281526020019450505050506040516020818303038152906040529060e01b6020820180517bffffffffffffffffffffffffffffffffffffffffffffffffffffffff838183161783525050505081526020016000151581525090806001815401808255809150506001900390600052602060002090600402016000909190919091506000820151816000015560208201518160010160006101000a81548160ff021916908360ff1602179055506040820151816002019080519060200190614f5c929190615a5e565b5060608201518160030160006101000a81548160ff0219169083151502179055505050841561505a5760018b60030160008c815260200190815260200160002060030160006101000a81548160ff0219169083151502179055507f7306ab933b6e1df1bd2fddce7143eeedd65d5996fada0e9168c4e8c3d1ece94d8b60030160008c815260200190815260200160002060000160009054906101000a900473ffffffffffffffffffffffffffffffffffffffff168b604051808373ffffffffffffffffffffffffffffffffffffffff1673ffffffffffffffffffffffffffffffffffffffff1681526020018281526020019250505060405180910390a15b5050505050505050505050565b85853373ffffffffffffffffffffffffffffffffffffffff1682600301600083815260200190815260200160002060000160009054906101000a900473ffffffffffffffffffffffffffffffffffffffff1673ffffffffffffffffffffffffffffffffffffffff1614615142576040517f08c379a000000000000000000000000000000000000000000000000000000000815260040180806020018281038252600f8152602001807f4e6f7420617574686f72697a65642e000000000000000000000000000000000081525060200191505060405180910390fd5b878781600301600082815260200190815260200160002060030160009054906101000a900460ff1615801561519a575081600301600082815260200190815260200160002060030160019054906101000a900460ff16155b80156151c9575081600301600082815260200190815260200160002060030160029054906101000a900460ff16155b61523b576040517f08c379a000000000000000000000000000000000000000000000000000000000815260040180806020018281038252600f8152602001807f4e6f7420617574686f72697a65642e000000000000000000000000000000000081525060200191505060405180910390fd5b8960030160008a815260200190815260200160002060040160405180608001604052808c60030160008d8152602001908152602001600020600401805490508152602001600860ff168152602001635e35359e8b8b8b604051602401808473ffffffffffffffffffffffffffffffffffffffff1673ffffffffffffffffffffffffffffffffffffffff1681526020018373ffffffffffffffffffffffffffffffffffffffff1673ffffffffffffffffffffffffffffffffffffffff16815260200182815260200193505050506040516020818303038152906040529060e01b6020820180517bffffffffffffffffffffffffffffffffffffffffffffffffffffffff838183161783525050505081526020016000151581525090806001815401808255809150506001900390600052602060002090600402016000909190919091506000820151816000015560208201518160010160006101000a81548160ff021916908360ff16021790555060408201518160020190805190602001906153c4929190615a5e565b5060608201518160030160006101000a81548160ff021916908315150217905550505084156154c25760018a60030160008b815260200190815260200160002060030160006101000a81548160ff0219169083151502179055507f7306ab933b6e1df1bd2fddce7143eeedd65d5996fada0e9168c4e8c3d1ece94d8a60030160008b815260200190815260200160002060000160009054906101000a900473ffffffffffffffffffffffffffffffffffffffff168a604051808373ffffffffffffffffffffffffffffffffffffffff1673ffffffffffffffffffffffffffffffffffffffff1681526020018281526020019250505060405180910390a15b50505050505050505050565b83833373ffffffffffffffffffffffffffffffffffffffff1682600301600083815260200190815260200160002060000160009054906101000a900473ffffffffffffffffffffffffffffffffffffffff1673ffffffffffffffffffffffffffffffffffffffff16146155a9576040517f08c379a000000000000000000000000000000000000000000000000000000000815260040180806020018281038252600f8152602001807f4e6f7420617574686f72697a65642e000000000000000000000000000000000081525060200191505060405180910390fd5b858581600301600082815260200190815260200160002060030160009054906101000a900460ff16158015615601575081600301600082815260200190815260200160002060030160019054906101000a900460ff16155b8015615630575081600301600082815260200190815260200160002060030160029054906101000a900460ff16155b6156a2576040517f08c379a000000000000000000000000000000000000000000000000000000000815260040180806020018281038252600f8152602001807f4e6f7420617574686f72697a65642e000000000000000000000000000000000081525060200191505060405180910390fd5b87600301600088815260200190815260200160002060040160405180608001604052808a60030160008b8152602001908152602001600020600401805490508152602001600060ff1681526020018881526020016000151581525090806001815401808255809150506001900390600052602060002090600402016000909190919091506000820151816000015560208201518160010160006101000a81548160ff021916908360ff160217905550604082015181600201908051906020019061576d929190615a5e565b5060608201518160030160006101000a81548160ff0219169083151502179055505050841561586b57600188600301600089815260200190815260200160002060030160006101000a81548160ff0219169083151502179055507f7306ab933b6e1df1bd2fddce7143eeedd65d5996fada0e9168c4e8c3d1ece94d88600301600089815260200190815260200160002060000160009054906101000a900473ffffffffffffffffffffffffffffffffffffffff1688604051808373ffffffffffffffffffffffffffffffffffffffff1673ffffffffffffffffffffffffffffffffffffffff1681526020018281526020019250505060405180910390a15b5050505050505050565b818181600301600082815260200190815260200160002060030160009054906101000a900460ff1680156158cc575081600301600082815260200190815260200160002060030160019054906101000a900460ff16155b80156158fb575081600301600082815260200190815260200160002060030160029054906101000a900460ff16155b61596d576040517f08c379a000000000000000000000000000000000000000000000000000000000815260040180806020018281038252600f8152602001807f4e6f7420617574686f72697a65642e000000000000000000000000000000000081525060200191505060405180910390fd5b6000846003016000858152602001908152602001600020905060018160030160026101000a81548160ff02191690831515021790555060008090505b8160040180549050811015615a025760008260040182815481106159c957fe5b9060005260206000209060040201905060018160030160006101000a81548160ff021916908315150217905550508060010190506159a9565b5060018160030160016101000a81548160ff0219169083151502179055507fd2c6e52f57352f08a7c9894b122d8440f1d87a7949ba8769fe444bf80b9e7a7e846040518082815260200191505060405180910390a15050505050565b828054600181600116156101000203166002900490600052602060002090601f016020900481019282601f10615a9f57805160ff1916838001178555615acd565b82800160010185558215615acd579182015b82811115615acc578251825591602001919060010190615ab1565b5b509050615ada9190615ade565b5090565b615b0091905b80821115615afc576000816000905550600101615ae4565b5090565b9056fea2646970667358221220c7ffdb97bc8b407b5938e7548d268875887eaf7556b0c67dbb0c6b0d56fdf57e64736f6c63430006080033",
  "immutableReferences": {},
  "source": "// SPDX-License-Identifier: LGPL-3.0-or-later\npragma solidity ^0.6.0;\n\nimport \"../Procedure.sol\";\nimport \"../libraries/VotePropositionLibrary.sol\";\n\n/*\n    Vote Procedure.\n    A Vote Procedure will apply an effect based on the decision of a vote.\n    Votes can be vetoed, and enacted.\n\n    @TODO : Add propositions getter.\n*/\n\ncontract VoteProcedure is Procedure {\n    using VotePropositionLibrary for VotePropositionLibrary.Proposition;\n    address payable public votersOrgan;\n    address payable public vetoersOrgan;\n    address payable public enactorsOrgan;\n\n    mapping (uint256 => VotePropositionLibrary.Proposition) internal propositions;\n    uint256 internal propositionsCount;\n\n    constructor (\n        bytes32 _metadataIpfsHash, uint8 _metadataHashFunction, uint8 _metadataHashSize,\n        address payable _votersOrgan, address payable _vetoersOrgan, address payable _enactorsOrgan\n    ) Procedure (_metadataIpfsHash, _metadataHashFunction, _metadataHashSize)\n        public\n    {\n        votersOrgan = _votersOrgan;\n        vetoersOrgan = _vetoersOrgan;\n        enactorsOrgan = _enactorsOrgan;\n    }\n\n    function propose(\n        uint256 effectKey, bytes32 ipfsHash, uint8 hashFunction, uint8 hashSize\n    )\n        public returns (uint256 propositionKey)\n    {\n        propositionKey = propositionsCount + 1; // keys start at 1.\n        require(propositionKey > propositionsCount, \"Out of bound.\");\n        propositions[propositionKey].init(effectKey, ipfsHash, hashFunction, hashSize);\n        return propositionsCount++;\n    }\n\n    function vote(uint256 propositionKey, bool approval)\n        public onlyInOrgan(votersOrgan)\n    {\n        propositions[propositionKey].vote(approval);\n    }\n\n    // A veto accepts arguments which defines a motivation as a IPFS multihash.\n    function veto(uint256 propositionKey, bytes32 ipfsHash, uint8 hashFunction, uint8 hashSize)\n        public onlyInOrgan(vetoersOrgan)\n    {\n        propositions[propositionKey].veto(ipfsHash, hashFunction, hashSize);\n    }\n\n    function count(uint256 propositionKey)\n        public view returns (bool)\n    {\n        return propositions[propositionKey].count();\n    }\n\n    function enact(uint256 propositionKey)\n        public onlyInOrgan(enactorsOrgan)\n    {\n        // proposition.count() returns true if enactment is possible.\n        require (propositions[propositionKey].count(), \"Not authorized\");\n        Procedure.applyMove(propositions[propositionKey].moveKey);\n        propositions[propositionKey].enact();\n    }\n}",
  "sourcePath": "/contracts/procedures/Vote.sol",
  "compiler": {
    "name": "solc",
    "version": "0.6.8+commit.0bbfe453.Emscripten.clang"
  },
  "schemaVersion": "3.2.4",
  "updatedAt": "2020-09-05T18:59:00.999Z",
  "networkType": "ethereum",
  "devdoc": {
    "methods": {}
  },
  "userdoc": {
    "methods": {
      "createMove(bytes32,uint8,uint8)": {
        "notice": "Public API : Moves creation and update."
      },
      "updateMetadata(bytes32,uint8,uint8)": {
        "notice": "Public API : Procedure Metadata and Admin."
      }
    }
  }
}