{
  "contractName": "VoteProcedure",
  "abi": [
    {
      "anonymous": false,
      "inputs": [
        {
          "indexed": false,
          "internalType": "uint8",
          "name": "version",
          "type": "uint8"
        }
      ],
      "name": "Initialized",
      "type": "event"
    },
    {
      "inputs": [],
      "name": "INTERFACE_ID",
      "outputs": [
        {
          "internalType": "bytes4",
          "name": "",
          "type": "bytes4"
        }
      ],
      "stateMutability": "view",
      "type": "function",
      "constant": true
    },
    {
      "inputs": [
        {
          "internalType": "uint256",
          "name": "proposalKey",
          "type": "uint256"
        }
      ],
      "name": "applyProposal",
      "outputs": [],
      "stateMutability": "nonpayable",
      "type": "function"
    },
    {
      "inputs": [],
      "name": "getProcedure",
      "outputs": [
        {
          "internalType": "string",
          "name": "cid",
          "type": "string"
        },
        {
          "internalType": "address payable",
          "name": "proposers",
          "type": "address"
        },
        {
          "internalType": "address payable",
          "name": "moderators",
          "type": "address"
        },
        {
          "internalType": "address payable",
          "name": "deciders",
          "type": "address"
        },
        {
          "internalType": "bool",
          "name": "withModeration",
          "type": "bool"
        },
        {
          "internalType": "uint256",
          "name": "proposalsLength",
          "type": "uint256"
        },
        {
          "internalType": "bytes4",
          "name": "interfaceId",
          "type": "bytes4"
        }
      ],
      "stateMutability": "view",
      "type": "function",
      "constant": true
    },
    {
      "inputs": [
        {
          "internalType": "uint256",
          "name": "proposalKey",
          "type": "uint256"
        }
      ],
      "name": "getProposal",
      "outputs": [
        {
          "components": [
            {
              "internalType": "address payable",
              "name": "creator",
              "type": "address"
            },
            {
              "internalType": "string",
              "name": "cid",
              "type": "string"
            },
            {
              "internalType": "string",
              "name": "blockReason",
              "type": "string"
            },
            {
              "internalType": "bool",
              "name": "presented",
              "type": "bool"
            },
            {
              "internalType": "bool",
              "name": "blocked",
              "type": "bool"
            },
            {
              "internalType": "bool",
              "name": "adopted",
              "type": "bool"
            },
            {
              "internalType": "bool",
              "name": "applied",
              "type": "bool"
            },
            {
              "components": [
                {
                  "internalType": "uint256",
                  "name": "index",
                  "type": "uint256"
                },
                {
                  "internalType": "address payable",
                  "name": "target",
                  "type": "address"
                },
                {
                  "internalType": "bytes",
                  "name": "data",
                  "type": "bytes"
                },
                {
                  "internalType": "uint256",
                  "name": "value",
                  "type": "uint256"
                },
                {
                  "internalType": "bool",
                  "name": "processed",
                  "type": "bool"
                }
              ],
              "internalType": "struct ProcedureLibrary.Operation[]",
              "name": "operations",
              "type": "tuple[]"
            }
          ],
          "internalType": "struct ProcedureLibrary.Proposal",
          "name": "",
          "type": "tuple"
        }
      ],
      "stateMutability": "view",
      "type": "function",
      "constant": true
    },
    {
      "inputs": [],
      "name": "getTrustedForwarder",
      "outputs": [
        {
          "internalType": "address",
          "name": "forwarder",
          "type": "address"
        }
      ],
      "stateMutability": "view",
      "type": "function",
      "constant": true
    },
    {
      "inputs": [
        {
          "internalType": "address",
          "name": "forwarder",
          "type": "address"
        }
      ],
      "name": "isTrustedForwarder",
      "outputs": [
        {
          "internalType": "bool",
          "name": "",
          "type": "bool"
        }
      ],
      "stateMutability": "view",
      "type": "function",
      "constant": true
    },
    {
      "inputs": [],
      "name": "majoritySize",
      "outputs": [
        {
          "internalType": "uint32",
          "name": "",
          "type": "uint32"
        }
      ],
      "stateMutability": "view",
      "type": "function",
      "constant": true
    },
    {
      "inputs": [],
      "name": "quorumSize",
      "outputs": [
        {
          "internalType": "uint32",
          "name": "",
          "type": "uint32"
        }
      ],
      "stateMutability": "view",
      "type": "function",
      "constant": true
    },
    {
      "inputs": [
        {
          "internalType": "uint256",
          "name": "proposalKey",
          "type": "uint256"
        }
      ],
      "name": "rejectProposal",
      "outputs": [],
      "stateMutability": "nonpayable",
      "type": "function"
    },
    {
      "inputs": [
        {
          "internalType": "address payable",
          "name": "admin",
          "type": "address"
        }
      ],
      "name": "updateAdmin",
      "outputs": [],
      "stateMutability": "nonpayable",
      "type": "function"
    },
    {
      "inputs": [
        {
          "internalType": "string",
          "name": "cid",
          "type": "string"
        }
      ],
      "name": "updateCid",
      "outputs": [],
      "stateMutability": "nonpayable",
      "type": "function"
    },
    {
      "inputs": [],
      "name": "voteDuration",
      "outputs": [
        {
          "internalType": "uint32",
          "name": "",
          "type": "uint32"
        }
      ],
      "stateMutability": "view",
      "type": "function",
      "constant": true
    },
    {
      "inputs": [
        {
          "internalType": "bytes4",
          "name": "interfaceId",
          "type": "bytes4"
        }
      ],
      "name": "supportsInterface",
      "outputs": [
        {
          "internalType": "bool",
          "name": "",
          "type": "bool"
        }
      ],
      "stateMutability": "view",
      "type": "function",
      "constant": true
    },
    {
      "inputs": [
        {
          "internalType": "string",
          "name": "",
          "type": "string"
        },
        {
          "internalType": "address payable",
          "name": "",
          "type": "address"
        },
        {
          "internalType": "address payable",
          "name": "",
          "type": "address"
        },
        {
          "internalType": "address payable",
          "name": "",
          "type": "address"
        },
        {
          "internalType": "bool",
          "name": "",
          "type": "bool"
        },
        {
          "internalType": "address",
          "name": "",
          "type": "address"
        }
      ],
      "name": "initialize",
      "outputs": [],
      "stateMutability": "pure",
      "type": "function",
      "constant": true
    },
    {
      "inputs": [
        {
          "internalType": "string",
          "name": "_cid",
          "type": "string"
        },
        {
          "internalType": "address payable",
          "name": "_proposers",
          "type": "address"
        },
        {
          "internalType": "address payable",
          "name": "_moderators",
          "type": "address"
        },
        {
          "internalType": "address payable",
          "name": "_deciders",
          "type": "address"
        },
        {
          "internalType": "bool",
          "name": "_withModeration",
          "type": "bool"
        },
        {
          "internalType": "address",
          "name": "_trustedForwarder",
          "type": "address"
        },
        {
          "internalType": "uint32",
          "name": "_quorumSize",
          "type": "uint32"
        },
        {
          "internalType": "uint32",
          "name": "_voteDuration",
          "type": "uint32"
        },
        {
          "internalType": "uint32",
          "name": "_majoritySize",
          "type": "uint32"
        }
      ],
      "name": "initialize",
      "outputs": [],
      "stateMutability": "nonpayable",
      "type": "function"
    },
    {
      "inputs": [
        {
          "internalType": "uint256",
          "name": "proposalKey",
          "type": "uint256"
        },
        {
          "internalType": "bool",
          "name": "approval",
          "type": "bool"
        }
      ],
      "name": "vote",
      "outputs": [],
      "stateMutability": "nonpayable",
      "type": "function"
    },
    {
      "inputs": [
        {
          "internalType": "uint256",
          "name": "proposalKey",
          "type": "uint256"
        }
      ],
      "name": "count",
      "outputs": [
        {
          "internalType": "bool",
          "name": "approved",
          "type": "bool"
        }
      ],
      "stateMutability": "view",
      "type": "function",
      "constant": true
    },
    {
      "inputs": [
        {
          "internalType": "string",
          "name": "_cid",
          "type": "string"
        },
        {
          "components": [
            {
              "internalType": "uint256",
              "name": "index",
              "type": "uint256"
            },
            {
              "internalType": "address payable",
              "name": "target",
              "type": "address"
            },
            {
              "internalType": "bytes",
              "name": "data",
              "type": "bytes"
            },
            {
              "internalType": "uint256",
              "name": "value",
              "type": "uint256"
            },
            {
              "internalType": "bool",
              "name": "processed",
              "type": "bool"
            }
          ],
          "internalType": "struct ProcedureLibrary.Operation[]",
          "name": "_operations",
          "type": "tuple[]"
        }
      ],
      "name": "propose",
      "outputs": [
        {
          "internalType": "uint256",
          "name": "proposalKey",
          "type": "uint256"
        }
      ],
      "stateMutability": "nonpayable",
      "type": "function"
    },
    {
      "inputs": [
        {
          "internalType": "uint256",
          "name": "proposalKey",
          "type": "uint256"
        }
      ],
      "name": "presentProposal",
      "outputs": [],
      "stateMutability": "nonpayable",
      "type": "function"
    },
    {
      "inputs": [
        {
          "internalType": "uint256",
          "name": "proposalKey",
          "type": "uint256"
        },
        {
          "internalType": "string",
          "name": "reason",
          "type": "string"
        }
      ],
      "name": "blockProposal",
      "outputs": [],
      "stateMutability": "nonpayable",
      "type": "function"
    },
    {
      "inputs": [
        {
          "internalType": "uint256",
          "name": "proposalKey",
          "type": "uint256"
        }
      ],
      "name": "adoptProposal",
      "outputs": [],
      "stateMutability": "nonpayable",
      "type": "function"
    },
    {
      "inputs": [
        {
          "internalType": "uint256",
          "name": "_proposalKey",
          "type": "uint256"
        }
      ],
      "name": "getElection",
      "outputs": [
        {
          "internalType": "uint256",
          "name": "start",
          "type": "uint256"
        },
        {
          "internalType": "bool",
          "name": "hasVoted",
          "type": "bool"
        },
        {
          "internalType": "uint256",
          "name": "votesCount",
          "type": "uint256"
        }
      ],
      "stateMutability": "view",
      "type": "function",
      "constant": true
    }
  ],
  "bytecode": "0x60806040523480156200001157600080fd5b50600180556200002062000026565b620000e7565b600054610100900460ff1615620000935760405162461bcd60e51b815260206004820152602760248201527f496e697469616c697a61626c653a20636f6e747261637420697320696e697469604482015266616c697a696e6760c81b606482015260840160405180910390fd5b60005460ff90811614620000e5576000805460ff191660ff9081179091556040519081527f7f26b83ff96e1f2b6a682f133852f6798a09c465da95921460cefb38474024989060200160405180910390a15b565b61289980620000f76000396000f3fe608060405234801561001057600080fd5b50600436106101125760003560e01c806301ffc9a71461011757806309b862b91461013f578063164d7c35146101665780631e3906071461017b5780633068ef4d1461018e5780633b3546c8146101b357806356364499146101c6578063572b6c05146101dd57806369e48eac146101f05780637823c508146102035780637983f0c11461021657806395f8c6fe146102295780639d7107771461024a5780639f32551b14610278578063bc28d8781461028f578063bf5dec0f146102a2578063c7f758a8146102b5578063c9d27afe146102d5578063ce1b815f146102e8578063e2f273bd14610303578063f03f542b14610316578063f22d9c7a14610329575b600080fd5b61012a610125366004611c95565b610344565b60405190151581526020015b60405180910390f35b61014d63071dbd3360e41b81565b6040516001600160e01b03199091168152602001610136565b610179610174366004611dd8565b61036f565b005b610179610189366004611e72565b6103b1565b600d5461019e9063ffffffff1681565b60405163ffffffff9091168152602001610136565b61012a6101c1366004611e72565b61042f565b600d5461019e90600160201b900463ffffffff1681565b61012a6101eb366004611e8b565b610726565b6101796101fe366004611ebc565b61073a565b610179610211366004611e72565b610793565b610179610224366004611e72565b610859565b61023c610237366004611f88565b610926565b604051908152602001610136565b61025d610258366004611e72565b610a12565b60408051938452911515602084015290820152606001610136565b600d5461019e90600160401b900463ffffffff1681565b61017961029d366004611e72565b610a70565b6101796102b03660046120eb565b610a8c565b6102c86102c3366004611e72565b610b97565b604051610136919061225b565b6101796102e3366004612312565b610ea3565b6002546040516001600160a01b039091168152602001610136565b610179610311366004611e8b565b611170565b610179610324366004612342565b6111fe565b610331611241565b604051610136979695949392919061237e565b60006001600160e01b031982166364e93d7f60e11b1480610369575061036982611327565b92915050565b60405162461bcd60e51b81526020600482015260126024820152714d697373696e6720706172616d657465727360701b60448201526064015b60405180910390fd5b6103b961135c565b60405163851816a560e01b8152600360048201526024810182905273__ProcedureLibrary______________________9063851816a59060440160006040518083038186803b15801561040b57600080fd5b505af415801561041f573d6000803e3d6000fd5b5050505061042c60018055565b50565b6000818152600c60205260408120546104795760405162461bcd60e51b815260206004820152600c60248201526b27379032b632b1ba34b7b71760a11b60448201526064016103a8565b600d546000838152600c60205260409020546104a291600160201b900463ffffffff16906123f0565b4210156104e75760405162461bcd60e51b815260206004820152601360248201527222b632b1ba34b7b7103737ba1032b73232b21760691b60448201526064016103a8565b6006546040805163685b3cb560e01b815290516000926001600160a01b03169163685b3cb591600480830192869291908290030181865afa158015610530573d6000803e3d6000fd5b505050506040513d6000823e601f3d908101601f191682016040526105589190810190612403565b50600d54909450620186a09350610578925084915063ffffffff166124ad565b61058291906124c4565b6000848152600c602052604090206003015410156105a35750600092915050565b6000805b6000858152600c6020526040902060020154811015610699576000858152600c6020526040812060028101805460019092019291849081106105eb576105eb6124e6565b60009182526020808320909101546001600160a01b0316835282019290925260400190205460ff16801561067457506000858152600c602052604081206002810180546001909201929184908110610645576106456124e6565b60009182526020808320909101546001600160a01b0316835282019290925260400190205460ff610100909104165b156106875781610683816124fc565b9250505b80610691816124fc565b9150506105a7565b506000848152600c60205260409020600301546106e25760405162461bcd60e51b81526020600482015260076024820152664e6f20766f746560c81b60448201526064016103a8565b600d546000858152600c6020526040902060030154620186a09161071491600160401b90910463ffffffff16906124ad565b61071e91906124c4565b109392505050565b6002546001600160a01b0391821691161490565b6107488989898989896113b5565b600d805463ffffffff9485166001600160401b031990911617600160201b938516939093029290921763ffffffff60401b1916600160401b9190931602919091179055505050505050565b6005546001600160a01b031673__ProcedureLibrary______________________637c3b86fe826107c2611562565b6040518363ffffffff1660e01b81526004016107df929190612515565b602060405180830381865af41580156107fc573d6000803e3d6000fd5b505050506040513d601f19601f82011682018060405250810190610820919061252f565b61083c5760405162461bcd60e51b81526004016103a89061254c565b61084582611590565b506000908152600c60205260409020429055565b6005546001600160a01b031673__ProcedureLibrary______________________637c3b86fe82610888611562565b6040518363ffffffff1660e01b81526004016108a5929190612515565b602060405180830381865af41580156108c2573d6000803e3d6000fd5b505050506040513d601f19601f820116820180604052508101906108e6919061252f565b6109025760405162461bcd60e51b81526004016103a89061254c565b61090b8261042f565b1561091d57610919826115ef565b5050565b61091982610a70565b6004546000906001600160a01b031673__ProcedureLibrary______________________637c3b86fe82610958611562565b6040518363ffffffff1660e01b8152600401610975929190612515565b602060405180830381865af4158015610992573d6000803e3d6000fd5b505050506040513d601f19601f820116820180604052508101906109b6919061252f565b6109d25760405162461bcd60e51b81526004016103a89061254c565b6109dc8484611602565b60008181526008602052604090206003015490925060ff1615610a0b576000828152600c602052604090204290555b5092915050565b6000818152600c602052604081208054829182919060010182610a33611562565b6001600160a01b031681526020808201929092526040908101600090812054888252600c909352206003015491945060ff16925090509193909250565b610a7861135c565b610a83600382611691565b61042c60018055565b6005546001600160a01b031673__ProcedureLibrary______________________637c3b86fe82610abb611562565b6040518363ffffffff1660e01b8152600401610ad8929190612515565b602060405180830381865af4158015610af5573d6000803e3d6000fd5b505050506040513d601f19601f82011682018060405250810190610b19919061252f565b610b355760405162461bcd60e51b81526004016103a89061254c565b6000848152600c60205260408120549003610b865760405162461bcd60e51b815260206004820152601160248201527022b632b1ba34b7b71039ba30b93a32b21760791b60448201526064016103a8565b610b91848484611763565b50505050565b604080516101008101825260008082526060602083018190529282018390528282018190526080820181905260a0820181905260c082015260e08101919091526000828152600860209081526040918290208251610100810190935280546001600160a01b031683526001810180549192840191610c1490612574565b80601f0160208091040260200160405190810160405280929190818152602001828054610c4090612574565b8015610c8d5780601f10610c6257610100808354040283529160200191610c8d565b820191906000526020600020905b815481529060010190602001808311610c7057829003601f168201915b50505050508152602001600282018054610ca690612574565b80601f0160208091040260200160405190810160405280929190818152602001828054610cd290612574565b8015610d1f5780601f10610cf457610100808354040283529160200191610d1f565b820191906000526020600020905b815481529060010190602001808311610d0257829003601f168201915b5050509183525050600382015460ff808216151560208085019190915261010083048216151560408086019190915262010000840483161515606086015263010000009093049091161515608084015260048401805483518184028101840190945280845260a090940193909160009084015b82821015610e955760008481526020908190206040805160a081018252600586029092018054835260018101546001600160a01b03169383019390935260028301805492939291840191610de590612574565b80601f0160208091040260200160405190810160405280929190818152602001828054610e1190612574565b8015610e5e5780601f10610e3357610100808354040283529160200191610e5e565b820191906000526020600020905b815481529060010190602001808311610e4157829003601f168201915b5050509183525050600382015460208083019190915260049092015460ff1615156040909101529082526001929092019101610d92565b505050915250909392505050565b6006546001600160a01b031673__ProcedureLibrary______________________637c3b86fe82610ed2611562565b6040518363ffffffff1660e01b8152600401610eef929190612515565b602060405180830381865af4158015610f0c573d6000803e3d6000fd5b505050506040513d601f19601f82011682018060405250810190610f30919061252f565b610f4c5760405162461bcd60e51b81526004016103a89061254c565b6000838152600c60205260409020544211610fa15760405162461bcd60e51b815260206004820152601560248201527422b632b1ba34b7b7103737ba1039ba30b93a32b21760591b60448201526064016103a8565b600d546000848152600c6020526040902054610fca91600160201b900463ffffffff16906123f0565b421061100a5760405162461bcd60e51b815260206004820152600f60248201526e22b632b1ba34b7b71032b73232b21760891b60448201526064016103a8565b6000838152600c6020526040812060010190611024611562565b6001600160a01b0316815260208101919091526040016000205460ff16156110825760405162461bcd60e51b8152602060048201526011602482015270223ab83634b1b0ba32903932b1b7b9321760791b60448201526064016103a8565b6040518060400160405280600115158152602001831515815250600c600085815260200190815260200160002060010160006110bc611562565b6001600160a01b0316815260208082019290925260409081016000908120845181549585015161ffff1990961690151561ff001916176101009515159590950294909417909355858352600c9091529020600201611118611562565b81546001810183556000928352602080842090910180546001600160a01b0319166001600160a01b039390931692909217909155848252600c905260408120600301805491611166836124fc565b9190505550505050565b73__ProcedureLibrary______________________630fb4dd44600383611195611562565b6040516001600160e01b031960e086901b16815260048101939093526001600160a01b0391821660248401521660448201526064015b60006040518083038186803b1580156111e357600080fd5b505af41580156111f7573d6000803e3d6000fd5b5050505050565b73__ProcedureLibrary______________________6344462e93600383611223611562565b6040518463ffffffff1660e01b81526004016111cb939291906125ae565b600454600554600654600a54600954600380546060966000968796879687968796879690956001600160a01b0390811695811694169260ff16919063071dbd3360e41b90879061129090612574565b80601f01602080910402602001604051908101604052809291908181526020018280546112bc90612574565b80156113095780601f106112de57610100808354040283529160200191611309565b820191906000526020600020905b8154815290600101906020018083116112ec57829003601f168201915b50505050509650965096509650965096509650965090919293949596565b60006001600160e01b0319821663071dbd3360e41b148061036957506301ffc9a760e01b6001600160e01b0319831614610369565b6002600154036113ae5760405162461bcd60e51b815260206004820152601f60248201527f5265656e7472616e637947756172643a207265656e7472616e742063616c6c0060448201526064016103a8565b6002600155565b600054610100900460ff16158080156113d55750600054600160ff909116105b806113ef5750303b1580156113ef575060005460ff166001145b6114525760405162461bcd60e51b815260206004820152602e60248201527f496e697469616c697a61626c653a20636f6e747261637420697320616c72656160448201526d191e481a5b9a5d1a585b1a5e995960921b60648201526084016103a8565b6000805460ff191660011790558015611475576000805461ff0019166101001790555b73__ProcedureLibrary______________________6382ad0736600389898989898961149f611562565b6040518963ffffffff1660e01b81526004016114c29897969594939291906125df565b60006040518083038186803b1580156114da57600080fd5b505af41580156114ee573d6000803e3d6000fd5b5050600280546001600160a01b0319166001600160a01b038616179055506115139050565b8015611559576000805461ff0019169055604051600181527f7f26b83ff96e1f2b6a682f133852f6798a09c465da95921460cefb38474024989060200160405180910390a15b50505050505050565b600060143610801590611579575061157933610726565b1561158b575060131936013560601c90565b503390565b73__ProcedureLibrary______________________63ccddc3926003836115b5611562565b6040516001600160e01b031960e086901b168152600481019390935260248301919091526001600160a01b031660448201526064016111cb565b6115f761135c565b610a836003826117d6565b600073__ProcedureLibrary______________________63895ef0116003858561162a611562565b6040518563ffffffff1660e01b8152600401611649949392919061263c565b602060405180830381865af4158015611666573d6000803e3d6000fd5b505050506040513d601f19601f8201168201806040525081019061168a9190612705565b9392505050565b60008181526005830160205260409020600301548290829060ff1680156116d25750600081815260058301602052604090206003015462010000900460ff16155b80156116f9575060008181526005830160205260409020600301546301000000900460ff16155b801561171e57506000818152600583016020526040902060030154610100900460ff16155b61173a5760405162461bcd60e51b81526004016103a89061254c565b50506000908152600590910160205260409020600301805463ffff000019166301000000179055565b73__ProcedureLibrary______________________63d831225b600385858561178a611562565b6040518663ffffffff1660e01b81526004016117aa95949392919061271e565b60006040518083038186803b1580156117c257600080fd5b505af4158015611559573d6000803e3d6000fd5b60008181526005830160205260409020600301548290829060ff1680156118175750600081815260058301602052604090206003015462010000900460ff16155b801561183e575060008181526005830160205260409020600301546301000000900460ff16155b801561186357506000818152600583016020526040902060030154610100900460ff16155b61187f5760405162461bcd60e51b81526004016103a89061254c565b60008381526005850160205260409020600301805462ff000019166201000090811791829055610b919186918691839183910460ff1680156118dc575060008181526005830160205260409020600301546301000000900460ff16155b801561190157506000818152600583016020526040902060030154610100900460ff16155b61191d5760405162461bcd60e51b81526004016103a89061254c565b60005b6000848152600586016020526040902060040154811015611c2d5760008481526005860160205260409020600401805482908110611960576119606124e6565b600091825260209091206004600590920201015460ff16611c1d57600084815260058601602052604081206004018054839081106119a0576119a06124e6565b60009182526020909120600160059092020101546001600160a01b031614611aeb57600084815260058601602052604081206004018054839081106119e7576119e76124e6565b60009182526020808320600592830201600101548884529189019052604090912060040180546001600160a01b039092169184908110611a2957611a296124e6565b9060005260206000209060050201600301548760050160008881526020019081526020016000206004018481548110611a6457611a646124e6565b9060005260206000209060050201600201604051611a82919061276e565b60006040518083038185875af1925050503d8060008114611abf576040519150601f19603f3d011682016040523d82523d6000602084013e611ac4565b606091505b5050905080611ae55760405162461bcd60e51b81526004016103a89061280d565b50611bd1565b60008481526005860160205260408120600401805433919084908110611b1357611b136124e6565b9060005260206000209060050201600301548760050160008881526020019081526020016000206004018481548110611b4e57611b4e6124e6565b9060005260206000209060050201600201604051611b6c919061276e565b60006040518083038185875af1925050503d8060008114611ba9576040519150601f19603f3d011682016040523d82523d6000602084013e611bae565b606091505b5050905080611bcf5760405162461bcd60e51b81526004016103a89061280d565b505b6000848152600586016020526040902060040180546001919083908110611bfa57611bfa6124e6565b60009182526020909120600590910201600401805460ff19169115159190911790555b611c26816124fc565b9050611920565b506000838152600585016020526040808220600301805463ff000000191663010000001790555184917f371ea0b2792b493783478379b73e5d65d5f7e3d03fe343fbe6396d87ece6562491a250505050565b6001600160e01b03198116811461042c57600080fd5b600060208284031215611ca757600080fd5b813561168a81611c7f565b634e487b7160e01b600052604160045260246000fd5b60405160a081016001600160401b0381118282101715611cea57611cea611cb2565b60405290565b604051601f8201601f191681016001600160401b0381118282101715611d1857611d18611cb2565b604052919050565b60006001600160401b03821115611d3957611d39611cb2565b50601f01601f191660200190565b6000611d5a611d5584611d20565b611cf0565b9050828152838383011115611d6e57600080fd5b828260208301376000602084830101529392505050565b600082601f830112611d9657600080fd5b61168a83833560208501611d47565b6001600160a01b038116811461042c57600080fd5b801515811461042c57600080fd5b8035611dd381611dba565b919050565b60008060008060008060c08789031215611df157600080fd5b86356001600160401b03811115611e0757600080fd5b611e1389828a01611d85565b9650506020870135611e2481611da5565b94506040870135611e3481611da5565b93506060870135611e4481611da5565b92506080870135611e5481611dba565b915060a0870135611e6481611da5565b809150509295509295509295565b600060208284031215611e8457600080fd5b5035919050565b600060208284031215611e9d57600080fd5b813561168a81611da5565b803563ffffffff81168114611dd357600080fd5b60008060008060008060008060006101208a8c031215611edb57600080fd5b89356001600160401b03811115611ef157600080fd5b611efd8c828d01611d85565b99505060208a0135611f0e81611da5565b975060408a0135611f1e81611da5565b965060608a0135611f2e81611da5565b955060808a0135611f3e81611dba565b945060a08a0135611f4e81611da5565b9350611f5c60c08b01611ea8565b9250611f6a60e08b01611ea8565b9150611f796101008b01611ea8565b90509295985092959850929598565b6000806040808486031215611f9c57600080fd5b83356001600160401b0380821115611fb357600080fd5b611fbf87838801611d85565b9450602091508186013581811115611fd657600080fd5b8601601f81018813611fe757600080fd5b803582811115611ff957611ff9611cb2565b8060051b612008858201611cf0565b918252828101850191858101908b84111561202257600080fd5b86850192505b838310156120d95782358681111561203f57600080fd5b850160a0818e03601f1901121561205557600080fd5b61205d611cc8565b8882013581528982013561207081611da5565b818a01526060820135888111156120875760008081fd5b8201603f81018f136120995760008081fd5b6120a98f8b8301358d8401611d47565b8b8301525060808083013560608301526120c560a08401611dc8565b908201528352509186019190860190612028565b80985050505050505050509250929050565b60008060006040848603121561210057600080fd5b8335925060208401356001600160401b038082111561211e57600080fd5b818601915086601f83011261213257600080fd5b81358181111561214157600080fd5b87602082850101111561215357600080fd5b6020830194508093505050509250925092565b6001600160a01b03169052565b60005b8381101561218e578181015183820152602001612176565b50506000910152565b600081518084526121af816020860160208601612173565b601f01601f19169290920160200192915050565b600081518084526020808501808196508360051b8101915082860160005b8581101561224e578284038952815180518552858101516001600160a01b03168686015260408082015160a0828801819052919061222183890182612197565b606085810151908a01526080948501511515949098019390935250505097840197908401906001016121e1565b5091979650505050505050565b6020815261226d602082018351612166565b6000602083015161010080604085015261228b610120850183612197565b91506040850151601f19808685030160608701526122a98483612197565b9350606087015191506122c0608087018315159052565b608087015180151560a0880152915060a087015180151560c0880152915060c087015180151560e0880152915060e087015191508086850301838701525061230883826121c3565b9695505050505050565b6000806040838503121561232557600080fd5b82359150602083013561233781611dba565b809150509250929050565b60006020828403121561235457600080fd5b81356001600160401b0381111561236a57600080fd5b61237684828501611d85565b949350505050565b60e08152600061239160e083018a612197565b6001600160a01b039889166020840152968816604083015250939095166060840152901515608083015260a08201526001600160e01b031990921660c090920191909152919050565b634e487b7160e01b600052601160045260246000fd5b80820180821115610369576103696123da565b600080600080600060a0868803121561241b57600080fd5b85516001600160401b0381111561243157600080fd5b8601601f8101881361244257600080fd5b8051612450611d5582611d20565b81815289602083850101111561246557600080fd5b612476826020830160208601612173565b809750505050602086015193506040860151925060608601519150608086015161249f81611c7f565b809150509295509295909350565b8082028115828204841417610369576103696123da565b6000826124e157634e487b7160e01b600052601260045260246000fd5b500490565b634e487b7160e01b600052603260045260246000fd5b60006001820161250e5761250e6123da565b5060010190565b6001600160a01b0392831681529116602082015260400190565b60006020828403121561254157600080fd5b815161168a81611dba565b6020808252600e908201526d139bdd08185d5d1a1bdc9a5e995960921b604082015260600190565b600181811c9082168061258857607f821691505b6020821081036125a857634e487b7160e01b600052602260045260246000fd5b50919050565b8381526060602082015260006125c76060830185612197565b905060018060a01b0383166040830152949350505050565b60006101008a83528060208401526125f98184018b612197565b6001600160a01b03998a16604085015297891660608401525050938616608085015291151560a0840152841660c083015290921660e09092019190915292915050565b600060808683526020818185015261265682850188612197565b6040858203818701528188518084528484019150848160051b850101858b0160005b838110156126e357868303601f19018552815180518452888101516001600160a01b0316898501528681015160a0888601819052906126b982870182612197565b60608481015190880152928c01511515958c01959095525094880194925090870190600101612678565b5050809750505050505050506126fc6060830184612166565b95945050505050565b60006020828403121561271757600080fd5b5051919050565b85815284602082015260806040820152826080820152828460a0830137600081840160a0908101919091526001600160a01b03929092166060820152601f909201601f1916909101019392505050565b600080835481600182811c91508083168061278a57607f831692505b602080841082036127a957634e487b7160e01b86526022600452602486fd5b8180156127bd57600181146127d2576127ff565b60ff19861689528415158502890196506127ff565b60008a81526020902060005b868110156127f75781548b8201529085019083016127de565b505084890196505b509498975050505050505050565b60208082526036908201527f50726f706f73616c206e6f74206170706c6965642c20756e6465726c79696e67604082015275103a3930b739b0b1ba34b7b7103932bb32b93a32b21760511b60608201526080019056fea2646970667358221220f5a5712823d147c33d6fd590f9e0e62cdb75f9f6dae522614f6ddc1ea356286f64736f6c63430008130033",
  "immutableReferences": {},
  "source": "// SPDX-License-Identifier: LGPL-3.0-or-later\npragma solidity 0.8.19;\npragma experimental ABIEncoderV2;\n\nimport \"../libraries/CoreLibrary.sol\";\nimport \"../Procedure.sol\";\n\nstruct Vote {\n  bool voted;\n  bool approved;\n}\n\nstruct Election {\n  // Map voters' addresses to votes.\n  uint256 start;\n  mapping(address => Vote) votes;\n  address[] voters;\n  uint256 votesCount;\n}\n\n\n/// @title Vote Procedure\n/// @notice  A Vote Procedure will execute operation(s) based on the decision of a vote.\n/// @dev Votes can be vetoed, and enacted.\ncontract VoteProcedure is Procedure {\n  using ProcedureLibrary for ProcedureLibrary.Operation;\n  /// @notice vote().\n  bytes4 private constant _INTERFACE_VOTE = 0xc9d27afe;\n  mapping(uint256 => Election) internal elections;\n  uint32 public quorumSize; // Minimum number of votes.\n  uint32 public voteDuration; // Duration of vote in seconds.\n  uint32 public majoritySize; // majoritySize.div((2^32)-1) is the minimum ratio for adoption.\n\n  /// @dev Register EIP165 interfaces for introspection.\n  function supportsInterface(bytes4 interfaceId)\n    public\n    view\n    virtual\n    override\n    returns (bool)\n  {\n    return interfaceId == _INTERFACE_VOTE ||\n      super.supportsInterface(interfaceId);\n  }\n\n  /// @notice Check that initialize parameters are correct.\n  function initialize(\n    string memory,\n    address payable,\n    address payable,\n    address payable,\n    bool,\n    address\n  )\n    public\n    pure\n    override\n  {\n    revert(\"Missing parameters\");\n  }\n\n  /// @notice Initialize the procedure.\n  function initialize(\n    string memory _cid,\n    address payable _proposers,\n    address payable _moderators,\n    address payable _deciders,\n    bool _withModeration,\n    address _trustedForwarder,\n    uint32 _quorumSize,\n    uint32 _voteDuration,\n    uint32 _majoritySize\n  )\n    public\n    virtual\n  {\n    super.initialize(\n      _cid,\n      _proposers,\n      _moderators,\n      _deciders,\n      _withModeration,\n      _trustedForwarder\n    );\n    // Register EIP165 interface for introspection.\n    quorumSize = _quorumSize;\n    voteDuration = _voteDuration;\n    majoritySize = _majoritySize;\n  }\n\n  /// @notice Create a election.\n  function vote(uint256 proposalKey, bool approval)\n    public\n    onlyInOrgan(procedureData.deciders)\n  {\n    require(\n      block.timestamp > elections[proposalKey].start,\n      \"Election not started.\"\n    );\n    require(\n      block.timestamp < (elections[proposalKey].start + voteDuration),\n      \"Election ended.\"\n    );\n    require(\n      !elections[proposalKey].votes[_msgSender()].voted,\n      \"Duplicate record.\"\n    );\n    elections[proposalKey].votes[_msgSender()] = Vote({\n      voted: true,\n      approved: approval\n    });\n    elections[proposalKey].voters.push(_msgSender());\n    elections[proposalKey].votesCount++;\n  }\n\n  /// @notice Count votes when election is ended.\n  /// @dev @todo Handle delegation of Votes.\n  /// @return approved True if the proposal is adopted.\n  function count(uint256 proposalKey)\n    public\n    view\n    returns (bool approved)\n  {\n    require(elections[proposalKey].start > 0, \"No election.\");\n    require(\n      block.timestamp >= (elections[proposalKey].start + voteDuration),\n      \"Election not ended.\"\n    );\n    (,,,uint256 decidersCount,) = IOrgan(procedureData.deciders).getOrgan();\n    if (elections[proposalKey].votesCount < ((quorumSize * decidersCount) / 100000)) {\n      return false;\n    }\n    uint256 approvals;\n    for (uint256 i = 0; i < elections[proposalKey].voters.length; i++) {\n      if (\n        elections[proposalKey]\n          .votes[elections[proposalKey].voters[i]]\n          .voted &&\n        elections[proposalKey]\n          .votes[elections[proposalKey].voters[i]]\n          .approved\n      ) {\n        approvals++;\n      }\n    }\n\n    require(elections[proposalKey].votesCount > 0, \"No vote\");\n    return (\n      approvals >\n      ((elections[proposalKey].votesCount * majoritySize) / 100000)\n    );\n  }\n\n  /**\n      Procedure methods overrides.\n  */\n\n  /// @notice Propose a new proposal.\n  /// @dev Overrides Procedure.propose.\n  /// @return proposalKey The key of the proposal.\n  function propose(\n    string memory _cid,\n    ProcedureLibrary.Operation[] memory _operations\n  )\n    public\n    override\n    onlyInOrgan(procedureData.proposers)\n    returns (uint256 proposalKey)\n  {\n    proposalKey = super.propose(_cid, _operations);\n    if (procedureData.proposals[proposalKey].presented) {\n      elections[proposalKey].start = block.timestamp;\n    }\n    return proposalKey;\n  }\n\n  /// @notice Present a proposal.\n  /// @dev Overrides Procedure.\n  function presentProposal(uint256 proposalKey)\n    public override\n    onlyInOrgan(procedureData.moderators)\n  {\n    super.presentProposal(proposalKey);\n    elections[proposalKey].start = block.timestamp;\n  }\n\n  /// @notice A veto accepts arguments which defines a motivation as a IPFS multihash.\n  /// @dev Overrides Procedure.blockProposal.\n  function blockProposal(\n    uint256 proposalKey,\n    string calldata reason\n  )\n    public\n    override\n    onlyInOrgan(procedureData.moderators)\n  {\n    require(elections[proposalKey].start != 0, \"Election started.\");\n    super.blockProposal(proposalKey, reason);\n  }\n\n  /// @notice A veto accepts arguments which defines a motivation as a IPFS multihash.\n  /// @dev Overrides Procedure.adoptProposal.\n  function adoptProposal(uint256 proposalKey)\n    public\n    override\n    onlyInOrgan(procedureData.moderators)\n  {\n    if (count(proposalKey)) {\n      super.adoptProposal(proposalKey);\n    } else {\n      super.rejectProposal(proposalKey);\n    }\n  }\n\n  /// @notice Get information about a current election\n  /// @return start The UNIX time when the election started.\n  /// @return hasVoted True if the voter has voted.\n  /// @return votesCount The number of votes cast so far.\n  function getElection(uint256 _proposalKey)\n    public\n    view\n    returns (\n      uint256 start,\n      bool hasVoted,\n      uint256 votesCount\n    )\n  {\n    return (\n      elections[_proposalKey].start,\n      elections[_proposalKey].votes[_msgSender()].voted,\n      elections[_proposalKey].votesCount\n    );\n  }\n}\n",
  "sourcePath": "/Users/louis/organigram/packages/contracts/contracts/procedures/Vote.sol",
  "compiler": {
    "name": "solc",
    "version": "0.8.19+commit.7dd6d404.Emscripten.clang"
  },
  "schemaVersion": "3.4.16",
  "updatedAt": "2023-10-03T20:53:11.308Z",
  "networkType": "ethereum",
  "devdoc": {
    "details": "Votes can be vetoed, and enacted.",
    "events": {
      "Initialized(uint8)": {
        "details": "Triggered when the contract has been initialized or reinitialized."
      }
    },
    "kind": "dev",
    "methods": {
      "adoptProposal(uint256)": {
        "details": "Overrides Procedure.adoptProposal."
      },
      "blockProposal(uint256,string)": {
        "details": "Overrides Procedure.blockProposal."
      },
      "count(uint256)": {
        "details": "@todo Handle delegation of Votes.",
        "returns": {
          "approved": "True if the proposal is adopted."
        }
      },
      "getElection(uint256)": {
        "returns": {
          "hasVoted": "True if the voter has voted.",
          "start": "The UNIX time when the election started.",
          "votesCount": "The number of votes cast so far."
        }
      },
      "getTrustedForwarder()": {
        "returns": {
          "forwarder": "The address of the Forwarder contract that is being used."
        }
      },
      "isTrustedForwarder(address)": {
        "params": {
          "forwarder": "The address of the Forwarder contract that is being used."
        },
        "returns": {
          "_0": "isTrustedForwarder `true` if the Forwarder is trusted to forward relayed transactions by this Recipient."
        }
      },
      "presentProposal(uint256)": {
        "details": "Overrides Procedure."
      },
      "propose(string,(uint256,address,bytes,uint256,bool)[])": {
        "details": "Overrides Procedure.propose.",
        "returns": {
          "proposalKey": "The key of the proposal."
        }
      },
      "supportsInterface(bytes4)": {
        "details": "Register EIP165 interfaces for introspection."
      }
    },
    "title": "Vote Procedure",
    "version": 1
  },
  "userdoc": {
    "kind": "user",
    "methods": {
      "adoptProposal(uint256)": {
        "notice": "A veto accepts arguments which defines a motivation as a IPFS multihash."
      },
      "applyProposal(uint256)": {
        "notice": "Apply proposal."
      },
      "blockProposal(uint256,string)": {
        "notice": "A veto accepts arguments which defines a motivation as a IPFS multihash."
      },
      "count(uint256)": {
        "notice": "Count votes when election is ended."
      },
      "getElection(uint256)": {
        "notice": "Get information about a current election"
      },
      "getTrustedForwarder()": {
        "notice": ":warning: **Warning** :warning: The Forwarder can have a full control over your Recipient. Only trust verified Forwarder.Method is not a required method to allow Recipients to trust multiple Forwarders. Not recommended yet."
      },
      "initialize(string,address,address,address,bool,address)": {
        "notice": "Check that initialize parameters are correct."
      },
      "initialize(string,address,address,address,bool,address,uint32,uint32,uint32)": {
        "notice": "Initialize the procedure."
      },
      "isTrustedForwarder(address)": {
        "notice": ":warning: **Warning** :warning: The Forwarder can have a full control over your Recipient. Only trust verified Forwarder."
      },
      "presentProposal(uint256)": {
        "notice": "Present a proposal."
      },
      "propose(string,(uint256,address,bytes,uint256,bool)[])": {
        "notice": "Propose a new proposal."
      },
      "rejectProposal(uint256)": {
        "notice": "The procedure calls this method directly to adopt and apply proposal."
      },
      "updateCid(string)": {
        "notice": "Public API : Procedure Cid and Admin."
      },
      "vote(uint256,bool)": {
        "notice": "Create a election."
      }
    },
    "notice": "A Vote Procedure will execute operation(s) based on the decision of a vote.",
    "version": 1
  }
}